{
	"Roulette_reviewed_by_john.sol": {
		"RouletteGame": {
			"abi": [
				{
					"inputs": [
						{
							"internalType": "address",
							"name": "_host",
							"type": "address"
						},
						{
							"internalType": "uint256",
							"name": "_minBet",
							"type": "uint256"
						},
						{
							"internalType": "address[]",
							"name": "_validatorAddressList",
							"type": "address[]"
						}
					],
					"stateMutability": "nonpayable",
					"type": "constructor"
				},
				{
					"anonymous": false,
					"inputs": [
						{
							"indexed": true,
							"internalType": "address",
							"name": "player",
							"type": "address"
						},
						{
							"indexed": false,
							"internalType": "uint8",
							"name": "option",
							"type": "uint8"
						},
						{
							"indexed": false,
							"internalType": "uint256",
							"name": "amount",
							"type": "uint256"
						}
					],
					"name": "BetPayout",
					"type": "event"
				},
				{
					"anonymous": false,
					"inputs": [
						{
							"indexed": true,
							"internalType": "address",
							"name": "player",
							"type": "address"
						},
						{
							"indexed": false,
							"internalType": "uint8",
							"name": "option",
							"type": "uint8"
						},
						{
							"indexed": false,
							"internalType": "uint256",
							"name": "amount",
							"type": "uint256"
						}
					],
					"name": "BetPlaced",
					"type": "event"
				},
				{
					"anonymous": false,
					"inputs": [
						{
							"indexed": true,
							"internalType": "address",
							"name": "host",
							"type": "address"
						},
						{
							"indexed": false,
							"internalType": "uint256",
							"name": "amount",
							"type": "uint256"
						}
					],
					"name": "DepositPlaced",
					"type": "event"
				},
				{
					"anonymous": false,
					"inputs": [
						{
							"indexed": true,
							"internalType": "address",
							"name": "host",
							"type": "address"
						},
						{
							"indexed": false,
							"internalType": "uint256",
							"name": "minBet",
							"type": "uint256"
						}
					],
					"name": "GameCreated",
					"type": "event"
				},
				{
					"anonymous": false,
					"inputs": [
						{
							"indexed": true,
							"internalType": "address",
							"name": "host",
							"type": "address"
						},
						{
							"indexed": false,
							"internalType": "uint256",
							"name": "amount",
							"type": "uint256"
						}
					],
					"name": "GameEnded",
					"type": "event"
				},
				{
					"anonymous": false,
					"inputs": [
						{
							"indexed": false,
							"internalType": "uint256",
							"name": "cutOffBlockNumber",
							"type": "uint256"
						}
					],
					"name": "NoMoreBets",
					"type": "event"
				},
				{
					"anonymous": false,
					"inputs": [
						{
							"indexed": false,
							"internalType": "uint8",
							"name": "stepIndex",
							"type": "uint8"
						},
						{
							"indexed": false,
							"internalType": "bytes32",
							"name": "intermediateHash",
							"type": "bytes32"
						}
					],
					"name": "ProofStep",
					"type": "event"
				},
				{
					"anonymous": false,
					"inputs": [
						{
							"indexed": false,
							"internalType": "uint8",
							"name": "result",
							"type": "uint8"
						}
					],
					"name": "ResultGenerated",
					"type": "event"
				},
				{
					"anonymous": false,
					"inputs": [
						{
							"indexed": false,
							"internalType": "uint8",
							"name": "result",
							"type": "uint8"
						}
					],
					"name": "ResultValidated",
					"type": "event"
				},
				{
					"inputs": [],
					"name": "Authen_threshold",
					"outputs": [
						{
							"internalType": "uint8",
							"name": "",
							"type": "uint8"
						}
					],
					"stateMutability": "view",
					"type": "function"
				},
				{
					"inputs": [
						{
							"internalType": "uint256",
							"name": "",
							"type": "uint256"
						}
					],
					"name": "bets",
					"outputs": [
						{
							"internalType": "address",
							"name": "player",
							"type": "address"
						},
						{
							"internalType": "uint8",
							"name": "option",
							"type": "uint8"
						},
						{
							"internalType": "uint256",
							"name": "amount",
							"type": "uint256"
						}
					],
					"stateMutability": "view",
					"type": "function"
				},
				{
					"inputs": [],
					"name": "cutOffBlockNumber",
					"outputs": [
						{
							"internalType": "uint256",
							"name": "",
							"type": "uint256"
						}
					],
					"stateMutability": "view",
					"type": "function"
				},
				{
					"inputs": [],
					"name": "deposit",
					"outputs": [],
					"stateMutability": "payable",
					"type": "function"
				},
				{
					"inputs": [],
					"name": "generateResult",
					"outputs": [],
					"stateMutability": "nonpayable",
					"type": "function"
				},
				{
					"inputs": [],
					"name": "getBetsCount",
					"outputs": [
						{
							"internalType": "uint256",
							"name": "",
							"type": "uint256"
						}
					],
					"stateMutability": "view",
					"type": "function"
				},
				{
					"inputs": [],
					"name": "getStatus",
					"outputs": [
						{
							"internalType": "uint8",
							"name": "",
							"type": "uint8"
						}
					],
					"stateMutability": "view",
					"type": "function"
				},
				{
					"inputs": [],
					"name": "getTotalBetsAmount",
					"outputs": [
						{
							"internalType": "uint256",
							"name": "",
							"type": "uint256"
						}
					],
					"stateMutability": "view",
					"type": "function"
				},
				{
					"inputs": [],
					"name": "host",
					"outputs": [
						{
							"internalType": "address",
							"name": "",
							"type": "address"
						}
					],
					"stateMutability": "view",
					"type": "function"
				},
				{
					"inputs": [],
					"name": "maxBet",
					"outputs": [
						{
							"internalType": "uint256",
							"name": "",
							"type": "uint256"
						}
					],
					"stateMutability": "view",
					"type": "function"
				},
				{
					"inputs": [],
					"name": "minBet",
					"outputs": [
						{
							"internalType": "uint256",
							"name": "",
							"type": "uint256"
						}
					],
					"stateMutability": "view",
					"type": "function"
				},
				{
					"inputs": [],
					"name": "minDeposite",
					"outputs": [
						{
							"internalType": "uint256",
							"name": "",
							"type": "uint256"
						}
					],
					"stateMutability": "view",
					"type": "function"
				},
				{
					"inputs": [],
					"name": "noMoreBets",
					"outputs": [],
					"stateMutability": "nonpayable",
					"type": "function"
				},
				{
					"inputs": [
						{
							"internalType": "uint8",
							"name": "option",
							"type": "uint8"
						}
					],
					"name": "placeBet",
					"outputs": [],
					"stateMutability": "payable",
					"type": "function"
				},
				{
					"inputs": [],
					"name": "result",
					"outputs": [
						{
							"internalType": "uint8",
							"name": "",
							"type": "uint8"
						}
					],
					"stateMutability": "view",
					"type": "function"
				},
				{
					"inputs": [],
					"name": "settleBet",
					"outputs": [],
					"stateMutability": "nonpayable",
					"type": "function"
				},
				{
					"inputs": [],
					"name": "status",
					"outputs": [
						{
							"internalType": "uint8",
							"name": "",
							"type": "uint8"
						}
					],
					"stateMutability": "view",
					"type": "function"
				},
				{
					"inputs": [],
					"name": "validateResult",
					"outputs": [],
					"stateMutability": "nonpayable",
					"type": "function"
				},
				{
					"inputs": [
						{
							"internalType": "uint256",
							"name": "",
							"type": "uint256"
						}
					],
					"name": "validator_address",
					"outputs": [
						{
							"internalType": "address",
							"name": "",
							"type": "address"
						}
					],
					"stateMutability": "view",
					"type": "function"
				}
			],
			"devdoc": {
				"kind": "dev",
				"methods": {
					"validateResult()": {
						"details": "validateResult re-computes the random hash in a step-by-step manner.      For each step, it emits a ProofStep event, so it can be verified on-chain.      If the final result does not match the contract's stored `result`, it reverts."
					}
				},
				"version": 1
			},
			"evm": {
				"assembly": "    /* \"Roulette_reviewed_by_john.sol\":65:10423  contract RouletteGame {... */\n  mstore(0x40, 0x80)\n    /* \"Roulette_reviewed_by_john.sol\":4181:4459  constructor(address _host, uint256 _minBet, address[] memory _validatorAddressList) {... */\n  callvalue\n  dup1\n  iszero\n  tag_1\n  jumpi\n  0x00\n  dup1\n  revert\ntag_1:\n  pop\n  mload(0x40)\n  sub(codesize, bytecodeSize)\n  dup1\n  bytecodeSize\n  dup4\n  codecopy\n  dup2\n  dup2\n  add\n  0x40\n  mstore\n  dup2\n  add\n  swap1\n  tag_2\n  swap2\n  swap1\n  tag_3\n  jump\t// in\ntag_2:\n    /* \"Roulette_reviewed_by_john.sol\":4282:4287  _host */\n  dup3\n    /* \"Roulette_reviewed_by_john.sol\":4275:4279  host */\n  0x00\n  dup1\n    /* \"Roulette_reviewed_by_john.sol\":4275:4287  host = _host */\n  0x0100\n  exp\n  dup2\n  sload\n  dup2\n  0xffffffffffffffffffffffffffffffffffffffff\n  mul\n  not\n  and\n  swap1\n  dup4\n  0xffffffffffffffffffffffffffffffffffffffff\n  and\n  mul\n  or\n  swap1\n  sstore\n  pop\n    /* \"Roulette_reviewed_by_john.sol\":4306:4313  _minBet */\n  dup2\n    /* \"Roulette_reviewed_by_john.sol\":4297:4303  minBet */\n  0x01\n    /* \"Roulette_reviewed_by_john.sol\":4297:4313  minBet = _minBet */\n  dup2\n  swap1\n  sstore\n  pop\n    /* \"Roulette_reviewed_by_john.sol\":2310:2311  0 */\n  0x00\n    /* \"Roulette_reviewed_by_john.sol\":4323:4329  status */\n  0x02\n  0x00\n    /* \"Roulette_reviewed_by_john.sol\":4323:4359  status = STATUS_PENDING_HOST_DEPOSIT */\n  0x0100\n  exp\n  dup2\n  sload\n  dup2\n  0xff\n  mul\n  not\n  and\n  swap1\n  dup4\n  0xff\n  and\n  mul\n  or\n  swap1\n  sstore\n  pop\n    /* \"Roulette_reviewed_by_john.sol\":4389:4410  _validatorAddressList */\n  dup1\n    /* \"Roulette_reviewed_by_john.sol\":4369:4386  validator_address */\n  0x06\n    /* \"Roulette_reviewed_by_john.sol\":4369:4410  validator_address = _validatorAddressList */\n  swap1\n  dup1\n  mload\n  swap1\n  0x20\n  add\n  swap1\n  tag_6\n  swap3\n  swap2\n  swap1\n  tag_7\n  jump\t// in\ntag_6:\n  pop\n    /* \"Roulette_reviewed_by_john.sol\":4437:4442  _host */\n  dup3\n    /* \"Roulette_reviewed_by_john.sol\":4425:4452  GameCreated(_host, _minBet) */\n  0xffffffffffffffffffffffffffffffffffffffff\n  and\n  0x306841c3fce8498c2d9b7194b8da4c04d03847394e237b625ce6d029b107f077\n    /* \"Roulette_reviewed_by_john.sol\":4444:4451  _minBet */\n  dup4\n    /* \"Roulette_reviewed_by_john.sol\":4425:4452  GameCreated(_host, _minBet) */\n  mload(0x40)\n  tag_8\n  swap2\n  swap1\n  tag_9\n  jump\t// in\ntag_8:\n  mload(0x40)\n  dup1\n  swap2\n  sub\n  swap1\n  log2\n    /* \"Roulette_reviewed_by_john.sol\":4181:4459  constructor(address _host, uint256 _minBet, address[] memory _validatorAddressList) {... */\n  pop\n  pop\n  pop\n    /* \"Roulette_reviewed_by_john.sol\":65:10423  contract RouletteGame {... */\n  jump(tag_10)\ntag_7:\n  dup3\n  dup1\n  sload\n  dup3\n  dup3\n  sstore\n  swap1\n  0x00\n  mstore\n  keccak256(0x00, 0x20)\n  swap1\n  dup2\n  add\n  swap3\n  dup3\n  iszero\n  tag_11\n  jumpi\n  swap2\n  0x20\n  mul\n  dup3\n  add\ntag_12:\n  dup3\n  dup2\n  gt\n  iszero\n  tag_13\n  jumpi\n  dup3\n  mload\n  dup3\n  exp(0x0100, 0x00)\n  dup2\n  sload\n  dup2\n  0xffffffffffffffffffffffffffffffffffffffff\n  mul\n  not\n  and\n  swap1\n  dup4\n  0xffffffffffffffffffffffffffffffffffffffff\n  and\n  mul\n  or\n  swap1\n  sstore\n  pop\n  swap2\n  0x20\n  add\n  swap2\n  swap1\n  0x01\n  add\n  swap1\n  jump(tag_12)\ntag_13:\ntag_11:\n  pop\n  swap1\n  pop\n  tag_14\n  swap2\n  swap1\n  tag_15\n  jump\t// in\ntag_14:\n  pop\n  swap1\n  jump\t// out\ntag_15:\ntag_16:\n  dup1\n  dup3\n  gt\n  iszero\n  tag_17\n  jumpi\n  0x00\n  dup2\n  0x00\n  swap1\n  sstore\n  pop\n  0x01\n  add\n  jump(tag_16)\ntag_17:\n  pop\n  swap1\n  jump\t// out\n    /* \"#utility.yul\":7:82   */\ntag_18:\n    /* \"#utility.yul\":40:46   */\n  0x00\n    /* \"#utility.yul\":73:75   */\n  0x40\n    /* \"#utility.yul\":67:76   */\n  mload\n    /* \"#utility.yul\":57:76   */\n  swap1\n  pop\n    /* \"#utility.yul\":7:82   */\n  swap1\n  jump\t// out\n    /* \"#utility.yul\":88:205   */\ntag_19:\n    /* \"#utility.yul\":197:198   */\n  0x00\n    /* \"#utility.yul\":194:195   */\n  dup1\n    /* \"#utility.yul\":187:199   */\n  revert\n    /* \"#utility.yul\":211:328   */\ntag_20:\n    /* \"#utility.yul\":320:321   */\n  0x00\n    /* \"#utility.yul\":317:318   */\n  dup1\n    /* \"#utility.yul\":310:322   */\n  revert\n    /* \"#utility.yul\":334:460   */\ntag_21:\n    /* \"#utility.yul\":371:378   */\n  0x00\n    /* \"#utility.yul\":411:453   */\n  0xffffffffffffffffffffffffffffffffffffffff\n    /* \"#utility.yul\":404:409   */\n  dup3\n    /* \"#utility.yul\":400:454   */\n  and\n    /* \"#utility.yul\":389:454   */\n  swap1\n  pop\n    /* \"#utility.yul\":334:460   */\n  swap2\n  swap1\n  pop\n  jump\t// out\n    /* \"#utility.yul\":466:562   */\ntag_22:\n    /* \"#utility.yul\":503:510   */\n  0x00\n    /* \"#utility.yul\":532:556   */\n  tag_44\n    /* \"#utility.yul\":550:555   */\n  dup3\n    /* \"#utility.yul\":532:556   */\n  tag_21\n  jump\t// in\ntag_44:\n    /* \"#utility.yul\":521:556   */\n  swap1\n  pop\n    /* \"#utility.yul\":466:562   */\n  swap2\n  swap1\n  pop\n  jump\t// out\n    /* \"#utility.yul\":568:690   */\ntag_23:\n    /* \"#utility.yul\":641:665   */\n  tag_46\n    /* \"#utility.yul\":659:664   */\n  dup2\n    /* \"#utility.yul\":641:665   */\n  tag_22\n  jump\t// in\ntag_46:\n    /* \"#utility.yul\":634:639   */\n  dup2\n    /* \"#utility.yul\":631:666   */\n  eq\n    /* \"#utility.yul\":621:684   */\n  tag_47\n  jumpi\n    /* \"#utility.yul\":680:681   */\n  0x00\n    /* \"#utility.yul\":677:678   */\n  dup1\n    /* \"#utility.yul\":670:682   */\n  revert\n    /* \"#utility.yul\":621:684   */\ntag_47:\n    /* \"#utility.yul\":568:690   */\n  pop\n  jump\t// out\n    /* \"#utility.yul\":696:839   */\ntag_24:\n    /* \"#utility.yul\":753:758   */\n  0x00\n    /* \"#utility.yul\":784:790   */\n  dup2\n    /* \"#utility.yul\":778:791   */\n  mload\n    /* \"#utility.yul\":769:791   */\n  swap1\n  pop\n    /* \"#utility.yul\":800:833   */\n  tag_49\n    /* \"#utility.yul\":827:832   */\n  dup2\n    /* \"#utility.yul\":800:833   */\n  tag_23\n  jump\t// in\ntag_49:\n    /* \"#utility.yul\":696:839   */\n  swap3\n  swap2\n  pop\n  pop\n  jump\t// out\n    /* \"#utility.yul\":845:922   */\ntag_25:\n    /* \"#utility.yul\":882:889   */\n  0x00\n    /* \"#utility.yul\":911:916   */\n  dup2\n    /* \"#utility.yul\":900:916   */\n  swap1\n  pop\n    /* \"#utility.yul\":845:922   */\n  swap2\n  swap1\n  pop\n  jump\t// out\n    /* \"#utility.yul\":928:1050   */\ntag_26:\n    /* \"#utility.yul\":1001:1025   */\n  tag_52\n    /* \"#utility.yul\":1019:1024   */\n  dup2\n    /* \"#utility.yul\":1001:1025   */\n  tag_25\n  jump\t// in\ntag_52:\n    /* \"#utility.yul\":994:999   */\n  dup2\n    /* \"#utility.yul\":991:1026   */\n  eq\n    /* \"#utility.yul\":981:1044   */\n  tag_53\n  jumpi\n    /* \"#utility.yul\":1040:1041   */\n  0x00\n    /* \"#utility.yul\":1037:1038   */\n  dup1\n    /* \"#utility.yul\":1030:1042   */\n  revert\n    /* \"#utility.yul\":981:1044   */\ntag_53:\n    /* \"#utility.yul\":928:1050   */\n  pop\n  jump\t// out\n    /* \"#utility.yul\":1056:1199   */\ntag_27:\n    /* \"#utility.yul\":1113:1118   */\n  0x00\n    /* \"#utility.yul\":1144:1150   */\n  dup2\n    /* \"#utility.yul\":1138:1151   */\n  mload\n    /* \"#utility.yul\":1129:1151   */\n  swap1\n  pop\n    /* \"#utility.yul\":1160:1193   */\n  tag_55\n    /* \"#utility.yul\":1187:1192   */\n  dup2\n    /* \"#utility.yul\":1160:1193   */\n  tag_26\n  jump\t// in\ntag_55:\n    /* \"#utility.yul\":1056:1199   */\n  swap3\n  swap2\n  pop\n  pop\n  jump\t// out\n    /* \"#utility.yul\":1205:1322   */\ntag_28:\n    /* \"#utility.yul\":1314:1315   */\n  0x00\n    /* \"#utility.yul\":1311:1312   */\n  dup1\n    /* \"#utility.yul\":1304:1316   */\n  revert\n    /* \"#utility.yul\":1328:1430   */\ntag_29:\n    /* \"#utility.yul\":1369:1375   */\n  0x00\n    /* \"#utility.yul\":1420:1422   */\n  0x1f\n    /* \"#utility.yul\":1416:1423   */\n  not\n    /* \"#utility.yul\":1411:1413   */\n  0x1f\n    /* \"#utility.yul\":1404:1409   */\n  dup4\n    /* \"#utility.yul\":1400:1414   */\n  add\n    /* \"#utility.yul\":1396:1424   */\n  and\n    /* \"#utility.yul\":1386:1424   */\n  swap1\n  pop\n    /* \"#utility.yul\":1328:1430   */\n  swap2\n  swap1\n  pop\n  jump\t// out\n    /* \"#utility.yul\":1436:1616   */\ntag_30:\n    /* \"#utility.yul\":1484:1561   */\n  0x4e487b7100000000000000000000000000000000000000000000000000000000\n    /* \"#utility.yul\":1481:1482   */\n  0x00\n    /* \"#utility.yul\":1474:1562   */\n  mstore\n    /* \"#utility.yul\":1581:1585   */\n  0x41\n    /* \"#utility.yul\":1578:1579   */\n  0x04\n    /* \"#utility.yul\":1571:1586   */\n  mstore\n    /* \"#utility.yul\":1605:1609   */\n  0x24\n    /* \"#utility.yul\":1602:1603   */\n  0x00\n    /* \"#utility.yul\":1595:1610   */\n  revert\n    /* \"#utility.yul\":1622:1903   */\ntag_31:\n    /* \"#utility.yul\":1705:1732   */\n  tag_60\n    /* \"#utility.yul\":1727:1731   */\n  dup3\n    /* \"#utility.yul\":1705:1732   */\n  tag_29\n  jump\t// in\ntag_60:\n    /* \"#utility.yul\":1697:1703   */\n  dup2\n    /* \"#utility.yul\":1693:1733   */\n  add\n    /* \"#utility.yul\":1835:1841   */\n  dup2\n    /* \"#utility.yul\":1823:1833   */\n  dup2\n    /* \"#utility.yul\":1820:1842   */\n  lt\n    /* \"#utility.yul\":1799:1817   */\n  0xffffffffffffffff\n    /* \"#utility.yul\":1787:1797   */\n  dup3\n    /* \"#utility.yul\":1784:1818   */\n  gt\n    /* \"#utility.yul\":1781:1843   */\n  or\n    /* \"#utility.yul\":1778:1866   */\n  iszero\n  tag_61\n  jumpi\n    /* \"#utility.yul\":1846:1864   */\n  tag_62\n  tag_30\n  jump\t// in\ntag_62:\n    /* \"#utility.yul\":1778:1866   */\ntag_61:\n    /* \"#utility.yul\":1886:1896   */\n  dup1\n    /* \"#utility.yul\":1882:1884   */\n  0x40\n    /* \"#utility.yul\":1875:1897   */\n  mstore\n    /* \"#utility.yul\":1665:1903   */\n  pop\n    /* \"#utility.yul\":1622:1903   */\n  pop\n  pop\n  jump\t// out\n    /* \"#utility.yul\":1909:2038   */\ntag_32:\n    /* \"#utility.yul\":1943:1949   */\n  0x00\n    /* \"#utility.yul\":1970:1990   */\n  tag_64\n  tag_18\n  jump\t// in\ntag_64:\n    /* \"#utility.yul\":1960:1990   */\n  swap1\n  pop\n    /* \"#utility.yul\":1999:2032   */\n  tag_65\n    /* \"#utility.yul\":2027:2031   */\n  dup3\n    /* \"#utility.yul\":2019:2025   */\n  dup3\n    /* \"#utility.yul\":1999:2032   */\n  tag_31\n  jump\t// in\ntag_65:\n    /* \"#utility.yul\":1909:2038   */\n  swap2\n  swap1\n  pop\n  jump\t// out\n    /* \"#utility.yul\":2044:2355   */\ntag_33:\n    /* \"#utility.yul\":2121:2125   */\n  0x00\n    /* \"#utility.yul\":2211:2229   */\n  0xffffffffffffffff\n    /* \"#utility.yul\":2203:2209   */\n  dup3\n    /* \"#utility.yul\":2200:2230   */\n  gt\n    /* \"#utility.yul\":2197:2253   */\n  iszero\n  tag_67\n  jumpi\n    /* \"#utility.yul\":2233:2251   */\n  tag_68\n  tag_30\n  jump\t// in\ntag_68:\n    /* \"#utility.yul\":2197:2253   */\ntag_67:\n    /* \"#utility.yul\":2283:2287   */\n  0x20\n    /* \"#utility.yul\":2275:2281   */\n  dup3\n    /* \"#utility.yul\":2271:2288   */\n  mul\n    /* \"#utility.yul\":2263:2288   */\n  swap1\n  pop\n    /* \"#utility.yul\":2343:2347   */\n  0x20\n    /* \"#utility.yul\":2337:2341   */\n  dup2\n    /* \"#utility.yul\":2333:2348   */\n  add\n    /* \"#utility.yul\":2325:2348   */\n  swap1\n  pop\n    /* \"#utility.yul\":2044:2355   */\n  swap2\n  swap1\n  pop\n  jump\t// out\n    /* \"#utility.yul\":2361:2478   */\ntag_34:\n    /* \"#utility.yul\":2470:2471   */\n  0x00\n    /* \"#utility.yul\":2467:2468   */\n  dup1\n    /* \"#utility.yul\":2460:2472   */\n  revert\n    /* \"#utility.yul\":2501:3233   */\ntag_35:\n    /* \"#utility.yul\":2608:2613   */\n  0x00\n    /* \"#utility.yul\":2633:2714   */\n  tag_71\n    /* \"#utility.yul\":2649:2713   */\n  tag_72\n    /* \"#utility.yul\":2706:2712   */\n  dup5\n    /* \"#utility.yul\":2649:2713   */\n  tag_33\n  jump\t// in\ntag_72:\n    /* \"#utility.yul\":2633:2714   */\n  tag_32\n  jump\t// in\ntag_71:\n    /* \"#utility.yul\":2624:2714   */\n  swap1\n  pop\n    /* \"#utility.yul\":2734:2739   */\n  dup1\n    /* \"#utility.yul\":2763:2769   */\n  dup4\n    /* \"#utility.yul\":2756:2761   */\n  dup3\n    /* \"#utility.yul\":2749:2770   */\n  mstore\n    /* \"#utility.yul\":2797:2801   */\n  0x20\n    /* \"#utility.yul\":2790:2795   */\n  dup3\n    /* \"#utility.yul\":2786:2802   */\n  add\n    /* \"#utility.yul\":2779:2802   */\n  swap1\n  pop\n    /* \"#utility.yul\":2850:2854   */\n  0x20\n    /* \"#utility.yul\":2842:2848   */\n  dup5\n    /* \"#utility.yul\":2838:2855   */\n  mul\n    /* \"#utility.yul\":2830:2836   */\n  dup4\n    /* \"#utility.yul\":2826:2856   */\n  add\n    /* \"#utility.yul\":2879:2882   */\n  dup6\n    /* \"#utility.yul\":2871:2877   */\n  dup2\n    /* \"#utility.yul\":2868:2883   */\n  gt\n    /* \"#utility.yul\":2865:2987   */\n  iszero\n  tag_73\n  jumpi\n    /* \"#utility.yul\":2898:2977   */\n  tag_74\n  tag_34\n  jump\t// in\ntag_74:\n    /* \"#utility.yul\":2865:2987   */\ntag_73:\n    /* \"#utility.yul\":3013:3019   */\n  dup4\n    /* \"#utility.yul\":2996:3227   */\ntag_75:\n    /* \"#utility.yul\":3030:3036   */\n  dup2\n    /* \"#utility.yul\":3025:3028   */\n  dup2\n    /* \"#utility.yul\":3022:3037   */\n  lt\n    /* \"#utility.yul\":2996:3227   */\n  iszero\n  tag_77\n  jumpi\n    /* \"#utility.yul\":3105:3108   */\n  dup1\n    /* \"#utility.yul\":3134:3182   */\n  tag_78\n    /* \"#utility.yul\":3178:3181   */\n  dup9\n    /* \"#utility.yul\":3166:3176   */\n  dup3\n    /* \"#utility.yul\":3134:3182   */\n  tag_24\n  jump\t// in\ntag_78:\n    /* \"#utility.yul\":3129:3132   */\n  dup5\n    /* \"#utility.yul\":3122:3183   */\n  mstore\n    /* \"#utility.yul\":3212:3216   */\n  0x20\n    /* \"#utility.yul\":3207:3210   */\n  dup5\n    /* \"#utility.yul\":3203:3217   */\n  add\n    /* \"#utility.yul\":3196:3217   */\n  swap4\n  pop\n    /* \"#utility.yul\":3072:3227   */\n  pop\n    /* \"#utility.yul\":3056:3060   */\n  0x20\n    /* \"#utility.yul\":3051:3054   */\n  dup2\n    /* \"#utility.yul\":3047:3061   */\n  add\n    /* \"#utility.yul\":3040:3061   */\n  swap1\n  pop\n    /* \"#utility.yul\":2996:3227   */\n  jump(tag_75)\ntag_77:\n    /* \"#utility.yul\":3000:3021   */\n  pop\n    /* \"#utility.yul\":2614:3233   */\n  pop\n  pop\n    /* \"#utility.yul\":2501:3233   */\n  swap4\n  swap3\n  pop\n  pop\n  pop\n  jump\t// out\n    /* \"#utility.yul\":3256:3641   */\ntag_36:\n    /* \"#utility.yul\":3338:3343   */\n  0x00\n    /* \"#utility.yul\":3387:3390   */\n  dup3\n    /* \"#utility.yul\":3380:3384   */\n  0x1f\n    /* \"#utility.yul\":3372:3378   */\n  dup4\n    /* \"#utility.yul\":3368:3385   */\n  add\n    /* \"#utility.yul\":3364:3391   */\n  slt\n    /* \"#utility.yul\":3354:3476   */\n  tag_80\n  jumpi\n    /* \"#utility.yul\":3395:3474   */\n  tag_81\n  tag_28\n  jump\t// in\ntag_81:\n    /* \"#utility.yul\":3354:3476   */\ntag_80:\n    /* \"#utility.yul\":3505:3511   */\n  dup2\n    /* \"#utility.yul\":3499:3512   */\n  mload\n    /* \"#utility.yul\":3530:3635   */\n  tag_82\n    /* \"#utility.yul\":3631:3634   */\n  dup5\n    /* \"#utility.yul\":3623:3629   */\n  dup3\n    /* \"#utility.yul\":3616:3620   */\n  0x20\n    /* \"#utility.yul\":3608:3614   */\n  dup7\n    /* \"#utility.yul\":3604:3621   */\n  add\n    /* \"#utility.yul\":3530:3635   */\n  tag_35\n  jump\t// in\ntag_82:\n    /* \"#utility.yul\":3521:3635   */\n  swap2\n  pop\n    /* \"#utility.yul\":3344:3641   */\n  pop\n    /* \"#utility.yul\":3256:3641   */\n  swap3\n  swap2\n  pop\n  pop\n  jump\t// out\n    /* \"#utility.yul\":3647:4513   */\ntag_3:\n    /* \"#utility.yul\":3760:3766   */\n  0x00\n    /* \"#utility.yul\":3768:3774   */\n  dup1\n    /* \"#utility.yul\":3776:3782   */\n  0x00\n    /* \"#utility.yul\":3825:3827   */\n  0x60\n    /* \"#utility.yul\":3813:3822   */\n  dup5\n    /* \"#utility.yul\":3804:3811   */\n  dup7\n    /* \"#utility.yul\":3800:3823   */\n  sub\n    /* \"#utility.yul\":3796:3828   */\n  slt\n    /* \"#utility.yul\":3793:3912   */\n  iszero\n  tag_84\n  jumpi\n    /* \"#utility.yul\":3831:3910   */\n  tag_85\n  tag_19\n  jump\t// in\ntag_85:\n    /* \"#utility.yul\":3793:3912   */\ntag_84:\n    /* \"#utility.yul\":3951:3952   */\n  0x00\n    /* \"#utility.yul\":3976:4040   */\n  tag_86\n    /* \"#utility.yul\":4032:4039   */\n  dup7\n    /* \"#utility.yul\":4023:4029   */\n  dup3\n    /* \"#utility.yul\":4012:4021   */\n  dup8\n    /* \"#utility.yul\":4008:4030   */\n  add\n    /* \"#utility.yul\":3976:4040   */\n  tag_24\n  jump\t// in\ntag_86:\n    /* \"#utility.yul\":3966:4040   */\n  swap4\n  pop\n    /* \"#utility.yul\":3922:4050   */\n  pop\n    /* \"#utility.yul\":4089:4091   */\n  0x20\n    /* \"#utility.yul\":4115:4179   */\n  tag_87\n    /* \"#utility.yul\":4171:4178   */\n  dup7\n    /* \"#utility.yul\":4162:4168   */\n  dup3\n    /* \"#utility.yul\":4151:4160   */\n  dup8\n    /* \"#utility.yul\":4147:4169   */\n  add\n    /* \"#utility.yul\":4115:4179   */\n  tag_27\n  jump\t// in\ntag_87:\n    /* \"#utility.yul\":4105:4179   */\n  swap3\n  pop\n    /* \"#utility.yul\":4060:4189   */\n  pop\n    /* \"#utility.yul\":4249:4251   */\n  0x40\n    /* \"#utility.yul\":4238:4247   */\n  dup5\n    /* \"#utility.yul\":4234:4252   */\n  add\n    /* \"#utility.yul\":4228:4253   */\n  mload\n    /* \"#utility.yul\":4280:4298   */\n  0xffffffffffffffff\n    /* \"#utility.yul\":4272:4278   */\n  dup2\n    /* \"#utility.yul\":4269:4299   */\n  gt\n    /* \"#utility.yul\":4266:4383   */\n  iszero\n  tag_88\n  jumpi\n    /* \"#utility.yul\":4302:4381   */\n  tag_89\n  tag_20\n  jump\t// in\ntag_89:\n    /* \"#utility.yul\":4266:4383   */\ntag_88:\n    /* \"#utility.yul\":4407:4496   */\n  tag_90\n    /* \"#utility.yul\":4488:4495   */\n  dup7\n    /* \"#utility.yul\":4479:4485   */\n  dup3\n    /* \"#utility.yul\":4468:4477   */\n  dup8\n    /* \"#utility.yul\":4464:4486   */\n  add\n    /* \"#utility.yul\":4407:4496   */\n  tag_36\n  jump\t// in\ntag_90:\n    /* \"#utility.yul\":4397:4496   */\n  swap2\n  pop\n    /* \"#utility.yul\":4199:4506   */\n  pop\n    /* \"#utility.yul\":3647:4513   */\n  swap3\n  pop\n  swap3\n  pop\n  swap3\n  jump\t// out\n    /* \"#utility.yul\":4519:4637   */\ntag_37:\n    /* \"#utility.yul\":4606:4630   */\n  tag_92\n    /* \"#utility.yul\":4624:4629   */\n  dup2\n    /* \"#utility.yul\":4606:4630   */\n  tag_25\n  jump\t// in\ntag_92:\n    /* \"#utility.yul\":4601:4604   */\n  dup3\n    /* \"#utility.yul\":4594:4631   */\n  mstore\n    /* \"#utility.yul\":4519:4637   */\n  pop\n  pop\n  jump\t// out\n    /* \"#utility.yul\":4643:4865   */\ntag_9:\n    /* \"#utility.yul\":4736:4740   */\n  0x00\n    /* \"#utility.yul\":4774:4776   */\n  0x20\n    /* \"#utility.yul\":4763:4772   */\n  dup3\n    /* \"#utility.yul\":4759:4777   */\n  add\n    /* \"#utility.yul\":4751:4777   */\n  swap1\n  pop\n    /* \"#utility.yul\":4787:4858   */\n  tag_94\n    /* \"#utility.yul\":4855:4856   */\n  0x00\n    /* \"#utility.yul\":4844:4853   */\n  dup4\n    /* \"#utility.yul\":4840:4857   */\n  add\n    /* \"#utility.yul\":4831:4837   */\n  dup5\n    /* \"#utility.yul\":4787:4858   */\n  tag_37\n  jump\t// in\ntag_94:\n    /* \"#utility.yul\":4643:4865   */\n  swap3\n  swap2\n  pop\n  pop\n  jump\t// out\n    /* \"Roulette_reviewed_by_john.sol\":65:10423  contract RouletteGame {... */\ntag_10:\n  dataSize(sub_0)\n  dup1\n  dataOffset(sub_0)\n  0x00\n  codecopy\n  0x00\n  return\nstop\n\nsub_0: assembly {\n        /* \"Roulette_reviewed_by_john.sol\":65:10423  contract RouletteGame {... */\n      mstore(0x40, 0x80)\n      jumpi(tag_1, lt(calldatasize, 0x04))\n      shr(0xe0, calldataload(0x00))\n      dup1\n      0x65372147\n      gt\n      tag_21\n      jumpi\n      dup1\n      0x9619367d\n      gt\n      tag_22\n      jumpi\n      dup1\n      0x9619367d\n      eq\n      tag_16\n      jumpi\n      dup1\n      0x9fb7ffec\n      eq\n      tag_17\n      jumpi\n      dup1\n      0xd0e30db0\n      eq\n      tag_18\n      jumpi\n      dup1\n      0xd1edb09e\n      eq\n      tag_19\n      jumpi\n      dup1\n      0xf437bc59\n      eq\n      tag_20\n      jumpi\n      jump(tag_1)\n    tag_22:\n      dup1\n      0x65372147\n      eq\n      tag_11\n      jumpi\n      dup1\n      0x6f91a66f\n      eq\n      tag_12\n      jumpi\n      dup1\n      0x87171eb7\n      eq\n      tag_13\n      jumpi\n      dup1\n      0x8c7e347a\n      eq\n      tag_14\n      jumpi\n      dup1\n      0x8e4bf820\n      eq\n      tag_15\n      jumpi\n      jump(tag_1)\n    tag_21:\n      dup1\n      0x22af00fa\n      gt\n      tag_23\n      jumpi\n      dup1\n      0x22af00fa\n      eq\n      tag_6\n      jumpi\n      dup1\n      0x2e5b2168\n      eq\n      tag_7\n      jumpi\n      dup1\n      0x38cceb4f\n      eq\n      tag_8\n      jumpi\n      dup1\n      0x43046844\n      eq\n      tag_9\n      jumpi\n      dup1\n      0x4e69d560\n      eq\n      tag_10\n      jumpi\n      jump(tag_1)\n    tag_23:\n      dup1\n      0x11b5f220\n      eq\n      tag_2\n      jumpi\n      dup1\n      0x1b2abc77\n      eq\n      tag_3\n      jumpi\n      dup1\n      0x1dbe2e0e\n      eq\n      tag_4\n      jumpi\n      dup1\n      0x200d2ed2\n      eq\n      tag_5\n      jumpi\n    tag_1:\n      0x00\n      dup1\n      revert\n        /* \"Roulette_reviewed_by_john.sol\":3806:3835  uint8 public Authen_threshold */\n    tag_2:\n      callvalue\n      dup1\n      iszero\n      tag_24\n      jumpi\n      0x00\n      dup1\n      revert\n    tag_24:\n      pop\n      tag_25\n      tag_26\n      jump\t// in\n    tag_25:\n      mload(0x40)\n      tag_27\n      swap2\n      swap1\n      tag_28\n      jump\t// in\n    tag_27:\n      mload(0x40)\n      dup1\n      swap2\n      sub\n      swap1\n      return\n        /* \"Roulette_reviewed_by_john.sol\":5816:6260  function noMoreBets() public {... */\n    tag_3:\n      callvalue\n      dup1\n      iszero\n      tag_29\n      jumpi\n      0x00\n      dup1\n      revert\n    tag_29:\n      pop\n      tag_30\n      tag_31\n      jump\t// in\n    tag_30:\n      stop\n        /* \"Roulette_reviewed_by_john.sol\":6327:7460  function generateResult() public {... */\n    tag_4:\n      callvalue\n      dup1\n      iszero\n      tag_32\n      jumpi\n      0x00\n      dup1\n      revert\n    tag_32:\n      pop\n      tag_33\n      tag_34\n      jump\t// in\n    tag_33:\n      stop\n        /* \"Roulette_reviewed_by_john.sol\":3675:3694  uint8 public status */\n    tag_5:\n      callvalue\n      dup1\n      iszero\n      tag_35\n      jumpi\n      0x00\n      dup1\n      revert\n    tag_35:\n      pop\n      tag_36\n      tag_37\n      jump\t// in\n    tag_36:\n      mload(0x40)\n      tag_38\n      swap2\n      swap1\n      tag_28\n      jump\t// in\n    tag_38:\n      mload(0x40)\n      dup1\n      swap2\n      sub\n      swap1\n      return\n        /* \"Roulette_reviewed_by_john.sol\":3700:3717  Bet[] public bets */\n    tag_6:\n      callvalue\n      dup1\n      iszero\n      tag_39\n      jumpi\n      0x00\n      dup1\n      revert\n    tag_39:\n      pop\n      tag_40\n      0x04\n      dup1\n      calldatasize\n      sub\n      dup2\n      add\n      swap1\n      tag_41\n      swap2\n      swap1\n      tag_42\n      jump\t// in\n    tag_41:\n      tag_43\n      jump\t// in\n    tag_40:\n      mload(0x40)\n      tag_44\n      swap4\n      swap3\n      swap2\n      swap1\n      tag_45\n      jump\t// in\n    tag_44:\n      mload(0x40)\n      dup1\n      swap2\n      sub\n      swap1\n      return\n        /* \"Roulette_reviewed_by_john.sol\":3977:3998  uint256 public maxBet */\n    tag_7:\n      callvalue\n      dup1\n      iszero\n      tag_46\n      jumpi\n      0x00\n      dup1\n      revert\n    tag_46:\n      pop\n      tag_47\n      tag_48\n      jump\t// in\n    tag_47:\n      mload(0x40)\n      tag_49\n      swap2\n      swap1\n      tag_50\n      jump\t// in\n    tag_49:\n      mload(0x40)\n      dup1\n      swap2\n      sub\n      swap1\n      return\n        /* \"Roulette_reviewed_by_john.sol\":8216:9542  function validateResult() public {... */\n    tag_8:\n      callvalue\n      dup1\n      iszero\n      tag_51\n      jumpi\n      0x00\n      dup1\n      revert\n    tag_51:\n      pop\n      tag_52\n      tag_53\n      jump\t// in\n    tag_52:\n      stop\n        /* \"Roulette_reviewed_by_john.sol\":5324:5810  function placeBet(uint8 option) public payable {... */\n    tag_9:\n      tag_54\n      0x04\n      dup1\n      calldatasize\n      sub\n      dup2\n      add\n      swap1\n      tag_55\n      swap2\n      swap1\n      tag_56\n      jump\t// in\n    tag_55:\n      tag_57\n      jump\t// in\n    tag_54:\n      stop\n        /* \"Roulette_reviewed_by_john.sol\":4584:4663  function getStatus() public view returns (uint8) {... */\n    tag_10:\n      callvalue\n      dup1\n      iszero\n      tag_58\n      jumpi\n      0x00\n      dup1\n      revert\n    tag_58:\n      pop\n      tag_59\n      tag_60\n      jump\t// in\n    tag_59:\n      mload(0x40)\n      tag_61\n      swap2\n      swap1\n      tag_28\n      jump\t// in\n    tag_61:\n      mload(0x40)\n      dup1\n      swap2\n      sub\n      swap1\n      return\n        /* \"Roulette_reviewed_by_john.sol\":3761:3780  uint8 public result */\n    tag_11:\n      callvalue\n      dup1\n      iszero\n      tag_62\n      jumpi\n      0x00\n      dup1\n      revert\n    tag_62:\n      pop\n      tag_63\n      tag_64\n      jump\t// in\n    tag_63:\n      mload(0x40)\n      tag_65\n      swap2\n      swap1\n      tag_28\n      jump\t// in\n    tag_65:\n      mload(0x40)\n      dup1\n      swap2\n      sub\n      swap1\n      return\n        /* \"Roulette_reviewed_by_john.sol\":3723:3755  uint256 public cutOffBlockNumber */\n    tag_12:\n      callvalue\n      dup1\n      iszero\n      tag_66\n      jumpi\n      0x00\n      dup1\n      revert\n    tag_66:\n      pop\n      tag_67\n      tag_68\n      jump\t// in\n    tag_67:\n      mload(0x40)\n      tag_69\n      swap2\n      swap1\n      tag_50\n      jump\t// in\n    tag_69:\n      mload(0x40)\n      dup1\n      swap2\n      sub\n      swap1\n      return\n        /* \"Roulette_reviewed_by_john.sol\":3914:3940  uint256 public minDeposite */\n    tag_13:\n      callvalue\n      dup1\n      iszero\n      tag_70\n      jumpi\n      0x00\n      dup1\n      revert\n    tag_70:\n      pop\n      tag_71\n      tag_72\n      jump\t// in\n    tag_71:\n      mload(0x40)\n      tag_73\n      swap2\n      swap1\n      tag_50\n      jump\t// in\n    tag_73:\n      mload(0x40)\n      dup1\n      swap2\n      sub\n      swap1\n      return\n        /* \"Roulette_reviewed_by_john.sol\":4669:4758  function getBetsCount() public view returns (uint256) {... */\n    tag_14:\n      callvalue\n      dup1\n      iszero\n      tag_74\n      jumpi\n      0x00\n      dup1\n      revert\n    tag_74:\n      pop\n      tag_75\n      tag_76\n      jump\t// in\n    tag_75:\n      mload(0x40)\n      tag_77\n      swap2\n      swap1\n      tag_50\n      jump\t// in\n    tag_77:\n      mload(0x40)\n      dup1\n      swap2\n      sub\n      swap1\n      return\n        /* \"Roulette_reviewed_by_john.sol\":9555:10421  function settleBet() public {... */\n    tag_15:\n      callvalue\n      dup1\n      iszero\n      tag_78\n      jumpi\n      0x00\n      dup1\n      revert\n    tag_78:\n      pop\n      tag_79\n      tag_80\n      jump\t// in\n    tag_79:\n      stop\n        /* \"Roulette_reviewed_by_john.sol\":3648:3669  uint256 public minBet */\n    tag_16:\n      callvalue\n      dup1\n      iszero\n      tag_81\n      jumpi\n      0x00\n      dup1\n      revert\n    tag_81:\n      pop\n      tag_82\n      tag_83\n      jump\t// in\n    tag_82:\n      mload(0x40)\n      tag_84\n      swap2\n      swap1\n      tag_50\n      jump\t// in\n    tag_84:\n      mload(0x40)\n      dup1\n      swap2\n      sub\n      swap1\n      return\n        /* \"Roulette_reviewed_by_john.sol\":3862:3896  address[] public validator_address */\n    tag_17:\n      callvalue\n      dup1\n      iszero\n      tag_85\n      jumpi\n      0x00\n      dup1\n      revert\n    tag_85:\n      pop\n      tag_86\n      0x04\n      dup1\n      calldatasize\n      sub\n      dup2\n      add\n      swap1\n      tag_87\n      swap2\n      swap1\n      tag_42\n      jump\t// in\n    tag_87:\n      tag_88\n      jump\t// in\n    tag_86:\n      mload(0x40)\n      tag_89\n      swap2\n      swap1\n      tag_90\n      jump\t// in\n    tag_89:\n      mload(0x40)\n      dup1\n      swap2\n      sub\n      swap1\n      return\n        /* \"Roulette_reviewed_by_john.sol\":5003:5318  function deposit() public payable {... */\n    tag_18:\n      tag_91\n      tag_92\n      jump\t// in\n    tag_91:\n      stop\n        /* \"Roulette_reviewed_by_john.sol\":4764:4997  function getTotalBetsAmount() public view returns (uint256) {... */\n    tag_19:\n      callvalue\n      dup1\n      iszero\n      tag_93\n      jumpi\n      0x00\n      dup1\n      revert\n    tag_93:\n      pop\n      tag_94\n      tag_95\n      jump\t// in\n    tag_94:\n      mload(0x40)\n      tag_96\n      swap2\n      swap1\n      tag_50\n      jump\t// in\n    tag_96:\n      mload(0x40)\n      dup1\n      swap2\n      sub\n      swap1\n      return\n        /* \"Roulette_reviewed_by_john.sol\":3623:3642  address public host */\n    tag_20:\n      callvalue\n      dup1\n      iszero\n      tag_97\n      jumpi\n      0x00\n      dup1\n      revert\n    tag_97:\n      pop\n      tag_98\n      tag_99\n      jump\t// in\n    tag_98:\n      mload(0x40)\n      tag_100\n      swap2\n      swap1\n      tag_90\n      jump\t// in\n    tag_100:\n      mload(0x40)\n      dup1\n      swap2\n      sub\n      swap1\n      return\n        /* \"Roulette_reviewed_by_john.sol\":3806:3835  uint8 public Authen_threshold */\n    tag_26:\n      0x05\n      0x01\n      swap1\n      sload\n      swap1\n      0x0100\n      exp\n      swap1\n      div\n      0xff\n      and\n      dup2\n      jump\t// out\n        /* \"Roulette_reviewed_by_john.sol\":5816:6260  function noMoreBets() public {... */\n    tag_31:\n        /* \"Roulette_reviewed_by_john.sol\":2368:2369  1 */\n      0x01\n        /* \"Roulette_reviewed_by_john.sol\":5863:5898  status == STATUS_PENDING_PLAYER_BET */\n      0xff\n      and\n        /* \"Roulette_reviewed_by_john.sol\":5863:5869  status */\n      0x02\n      0x00\n      swap1\n      sload\n      swap1\n      0x0100\n      exp\n      swap1\n      div\n      0xff\n      and\n        /* \"Roulette_reviewed_by_john.sol\":5863:5898  status == STATUS_PENDING_PLAYER_BET */\n      0xff\n      and\n      eq\n        /* \"Roulette_reviewed_by_john.sol\":5855:5923  require(status == STATUS_PENDING_PLAYER_BET, \"No more bets allowed\") */\n      tag_102\n      jumpi\n      mload(0x40)\n      0x08c379a000000000000000000000000000000000000000000000000000000000\n      dup2\n      mstore\n      0x04\n      add\n      tag_103\n      swap1\n      tag_104\n      jump\t// in\n    tag_103:\n      mload(0x40)\n      dup1\n      swap2\n      sub\n      swap1\n      revert\n    tag_102:\n        /* \"Roulette_reviewed_by_john.sol\":2420:2421  2 */\n      0x02\n        /* \"Roulette_reviewed_by_john.sol\":6139:6145  status */\n      dup1\n      0x00\n        /* \"Roulette_reviewed_by_john.sol\":6139:6167  status = STATUS_NO_MORE_BETS */\n      0x0100\n      exp\n      dup2\n      sload\n      dup2\n      0xff\n      mul\n      not\n      and\n      swap1\n      dup4\n      0xff\n      and\n      mul\n      or\n      swap1\n      sstore\n      pop\n        /* \"Roulette_reviewed_by_john.sol\":6197:6209  block.number */\n      number\n        /* \"Roulette_reviewed_by_john.sol\":6177:6194  cutOffBlockNumber */\n      0x04\n        /* \"Roulette_reviewed_by_john.sol\":6177:6209  cutOffBlockNumber = block.number */\n      dup2\n      swap1\n      sstore\n      pop\n        /* \"Roulette_reviewed_by_john.sol\":6224:6253  NoMoreBets(cutOffBlockNumber) */\n      0x2d21e9397283a99c7f2df56baf635aab0655f2dea12185fac963ac115be30f93\n        /* \"Roulette_reviewed_by_john.sol\":6235:6252  cutOffBlockNumber */\n      sload(0x04)\n        /* \"Roulette_reviewed_by_john.sol\":6224:6253  NoMoreBets(cutOffBlockNumber) */\n      mload(0x40)\n      tag_105\n      swap2\n      swap1\n      tag_50\n      jump\t// in\n    tag_105:\n      mload(0x40)\n      dup1\n      swap2\n      sub\n      swap1\n      log1\n        /* \"Roulette_reviewed_by_john.sol\":5816:6260  function noMoreBets() public {... */\n      jump\t// out\n        /* \"Roulette_reviewed_by_john.sol\":6327:7460  function generateResult() public {... */\n    tag_34:\n        /* \"Roulette_reviewed_by_john.sol\":2420:2421  2 */\n      0x02\n        /* \"Roulette_reviewed_by_john.sol\":6378:6407  status == STATUS_NO_MORE_BETS */\n      0xff\n      and\n        /* \"Roulette_reviewed_by_john.sol\":6378:6384  status */\n      0x02\n      0x00\n      swap1\n      sload\n      swap1\n      0x0100\n      exp\n      swap1\n      div\n      0xff\n      and\n        /* \"Roulette_reviewed_by_john.sol\":6378:6407  status == STATUS_NO_MORE_BETS */\n      0xff\n      and\n      eq\n        /* \"Roulette_reviewed_by_john.sol\":6370:6432  require(status == STATUS_NO_MORE_BETS, \"No more bets allowed\") */\n      tag_107\n      jumpi\n      mload(0x40)\n      0x08c379a000000000000000000000000000000000000000000000000000000000\n      dup2\n      mstore\n      0x04\n      add\n      tag_108\n      swap1\n      tag_104\n      jump\t// in\n    tag_108:\n      mload(0x40)\n      dup1\n      swap2\n      sub\n      swap1\n      revert\n    tag_107:\n        /* \"Roulette_reviewed_by_john.sol\":6464:6468  host */\n      0x00\n      dup1\n      sload\n      swap1\n      0x0100\n      exp\n      swap1\n      div\n      0xffffffffffffffffffffffffffffffffffffffff\n      and\n        /* \"Roulette_reviewed_by_john.sol\":6450:6468  msg.sender == host */\n      0xffffffffffffffffffffffffffffffffffffffff\n      and\n        /* \"Roulette_reviewed_by_john.sol\":6450:6460  msg.sender */\n      caller\n        /* \"Roulette_reviewed_by_john.sol\":6450:6468  msg.sender == host */\n      0xffffffffffffffffffffffffffffffffffffffff\n      and\n      eq\n        /* \"Roulette_reviewed_by_john.sol\":6442:6502  require(msg.sender == host, \"Only host can generate result\") */\n      tag_109\n      jumpi\n      mload(0x40)\n      0x08c379a000000000000000000000000000000000000000000000000000000000\n      dup2\n      mstore\n      0x04\n      add\n      tag_110\n      swap1\n      tag_111\n      jump\t// in\n    tag_110:\n      mload(0x40)\n      dup1\n      swap2\n      sub\n      swap1\n      revert\n    tag_109:\n        /* \"Roulette_reviewed_by_john.sol\":6653:6654  1 */\n      0x01\n        /* \"Roulette_reviewed_by_john.sol\":2585:2587  12 */\n      0x0c\n        /* \"Roulette_reviewed_by_john.sol\":6611:6650  cutOffBlockNumber + BLOCK_NUMBER_OFFSET */\n      0xff\n      and\n        /* \"Roulette_reviewed_by_john.sol\":6611:6628  cutOffBlockNumber */\n      sload(0x04)\n        /* \"Roulette_reviewed_by_john.sol\":6611:6650  cutOffBlockNumber + BLOCK_NUMBER_OFFSET */\n      tag_112\n      swap2\n      swap1\n      tag_113\n      jump\t// in\n    tag_112:\n        /* \"Roulette_reviewed_by_john.sol\":6611:6654  cutOffBlockNumber + BLOCK_NUMBER_OFFSET + 1 */\n      tag_114\n      swap2\n      swap1\n      tag_113\n      jump\t// in\n    tag_114:\n        /* \"Roulette_reviewed_by_john.sol\":6595:6607  block.number */\n      number\n        /* \"Roulette_reviewed_by_john.sol\":6595:6654  block.number >= cutOffBlockNumber + BLOCK_NUMBER_OFFSET + 1 */\n      lt\n      iszero\n        /* \"Roulette_reviewed_by_john.sol\":6574:6704  require(... */\n      tag_115\n      jumpi\n      mload(0x40)\n      0x08c379a000000000000000000000000000000000000000000000000000000000\n      dup2\n      mstore\n      0x04\n      add\n      tag_116\n      swap1\n      tag_117\n      jump\t// in\n    tag_116:\n      mload(0x40)\n      dup1\n      swap2\n      sub\n      swap1\n      revert\n    tag_115:\n        /* \"Roulette_reviewed_by_john.sol\":6766:6784  bytes32 randomHash */\n      0x00\n        /* \"Roulette_reviewed_by_john.sol\":6817:6818  1 */\n      0x01\n        /* \"Roulette_reviewed_by_john.sol\":6797:6814  cutOffBlockNumber */\n      sload(0x04)\n        /* \"Roulette_reviewed_by_john.sol\":6797:6818  cutOffBlockNumber + 1 */\n      tag_118\n      swap2\n      swap1\n      tag_113\n      jump\t// in\n    tag_118:\n        /* \"Roulette_reviewed_by_john.sol\":6787:6819  blockhash(cutOffBlockNumber + 1) */\n      blockhash\n        /* \"Roulette_reviewed_by_john.sol\":6766:6819  bytes32 randomHash = blockhash(cutOffBlockNumber + 1) */\n      swap1\n      pop\n        /* \"Roulette_reviewed_by_john.sol\":6915:6925  randomHash */\n      dup1\n        /* \"Roulette_reviewed_by_john.sol\":6927:6931  host */\n      0x00\n      dup1\n      sload\n      swap1\n      0x0100\n      exp\n      swap1\n      div\n      0xffffffffffffffffffffffffffffffffffffffff\n      and\n        /* \"Roulette_reviewed_by_john.sol\":6898:6932  abi.encodePacked(randomHash, host) */\n      add(0x20, mload(0x40))\n      tag_119\n      swap3\n      swap2\n      swap1\n      tag_120\n      jump\t// in\n    tag_119:\n      mload(0x40)\n      0x20\n      dup2\n      dup4\n      sub\n      sub\n      dup2\n      mstore\n      swap1\n      0x40\n      mstore\n        /* \"Roulette_reviewed_by_john.sol\":6888:6933  keccak256(abi.encodePacked(randomHash, host)) */\n      dup1\n      mload\n      swap1\n      0x20\n      add\n      keccak256\n        /* \"Roulette_reviewed_by_john.sol\":6875:6933  randomHash = keccak256(abi.encodePacked(randomHash, host)) */\n      swap1\n      pop\n        /* \"Roulette_reviewed_by_john.sol\":6985:6994  uint256 i */\n      0x00\n        /* \"Roulette_reviewed_by_john.sol\":6980:7145  for (uint256 i = 0; i < bets.length; i++) {... */\n    tag_121:\n        /* \"Roulette_reviewed_by_john.sol\":7004:7008  bets */\n      0x03\n        /* \"Roulette_reviewed_by_john.sol\":7004:7015  bets.length */\n      dup1\n      sload\n      swap1\n      pop\n        /* \"Roulette_reviewed_by_john.sol\":7000:7001  i */\n      dup2\n        /* \"Roulette_reviewed_by_john.sol\":7000:7015  i < bets.length */\n      lt\n        /* \"Roulette_reviewed_by_john.sol\":6980:7145  for (uint256 i = 0; i < bets.length; i++) {... */\n      iszero\n      tag_122\n      jumpi\n        /* \"Roulette_reviewed_by_john.sol\":7093:7103  randomHash */\n      dup2\n        /* \"Roulette_reviewed_by_john.sol\":7105:7109  bets */\n      0x03\n        /* \"Roulette_reviewed_by_john.sol\":7110:7111  i */\n      dup3\n        /* \"Roulette_reviewed_by_john.sol\":7105:7112  bets[i] */\n      dup2\n      sload\n      dup2\n      lt\n      tag_124\n      jumpi\n      tag_125\n      tag_126\n      jump\t// in\n    tag_125:\n    tag_124:\n      swap1\n      0x00\n      mstore\n      keccak256(0x00, 0x20)\n      swap1\n      0x02\n      mul\n      add\n        /* \"Roulette_reviewed_by_john.sol\":7105:7119  bets[i].player */\n      0x00\n      add\n      0x00\n      swap1\n      sload\n      swap1\n      0x0100\n      exp\n      swap1\n      div\n      0xffffffffffffffffffffffffffffffffffffffff\n      and\n        /* \"Roulette_reviewed_by_john.sol\":7076:7120  abi.encodePacked(randomHash, bets[i].player) */\n      add(0x20, mload(0x40))\n      tag_128\n      swap3\n      swap2\n      swap1\n      tag_120\n      jump\t// in\n    tag_128:\n      mload(0x40)\n      0x20\n      dup2\n      dup4\n      sub\n      sub\n      dup2\n      mstore\n      swap1\n      0x40\n      mstore\n        /* \"Roulette_reviewed_by_john.sol\":7049:7134  keccak256(... */\n      dup1\n      mload\n      swap1\n      0x20\n      add\n      keccak256\n        /* \"Roulette_reviewed_by_john.sol\":7036:7134  randomHash = keccak256(... */\n      swap2\n      pop\n        /* \"Roulette_reviewed_by_john.sol\":7017:7020  i++ */\n      dup1\n      dup1\n      0x01\n      add\n      swap2\n      pop\n      pop\n        /* \"Roulette_reviewed_by_john.sol\":6980:7145  for (uint256 i = 0; i < bets.length; i++) {... */\n      jump(tag_121)\n    tag_122:\n      pop\n        /* \"Roulette_reviewed_by_john.sol\":7237:7257  uint256 randomNumber */\n      0x00\n        /* \"Roulette_reviewed_by_john.sol\":7268:7278  randomHash */\n      dup2\n        /* \"Roulette_reviewed_by_john.sol\":7260:7279  uint256(randomHash) */\n      0x00\n      shr\n        /* \"Roulette_reviewed_by_john.sol\":7237:7279  uint256 randomNumber = uint256(randomHash) */\n      swap1\n      pop\n        /* \"Roulette_reviewed_by_john.sol\":238:240  38 */\n      0x26\n        /* \"Roulette_reviewed_by_john.sol\":7304:7337  randomNumber % OPTION_TOTAL_COUNT */\n      0xff\n      and\n        /* \"Roulette_reviewed_by_john.sol\":7304:7316  randomNumber */\n      dup2\n        /* \"Roulette_reviewed_by_john.sol\":7304:7337  randomNumber % OPTION_TOTAL_COUNT */\n      tag_129\n      swap2\n      swap1\n      tag_130\n      jump\t// in\n    tag_129:\n        /* \"Roulette_reviewed_by_john.sol\":7289:7295  result */\n      0x05\n      0x00\n        /* \"Roulette_reviewed_by_john.sol\":7289:7338  result = uint8(randomNumber % OPTION_TOTAL_COUNT) */\n      0x0100\n      exp\n      dup2\n      sload\n      dup2\n      0xff\n      mul\n      not\n      and\n      swap1\n      dup4\n      0xff\n      and\n      mul\n      or\n      swap1\n      sstore\n      pop\n        /* \"Roulette_reviewed_by_john.sol\":2476:2477  3 */\n      0x03\n        /* \"Roulette_reviewed_by_john.sol\":7383:7389  status */\n      0x02\n      0x00\n        /* \"Roulette_reviewed_by_john.sol\":7383:7415  status = STATUS_RESULT_GENERATED */\n      0x0100\n      exp\n      dup2\n      sload\n      dup2\n      0xff\n      mul\n      not\n      and\n      swap1\n      dup4\n      0xff\n      and\n      mul\n      or\n      swap1\n      sstore\n      pop\n        /* \"Roulette_reviewed_by_john.sol\":7430:7453  ResultGenerated(result) */\n      0x4898f0a86e5d5b202a6285b46db8e265f964e837829f7d6bf7d1c072c6b88c09\n        /* \"Roulette_reviewed_by_john.sol\":7446:7452  result */\n      0x05\n      0x00\n      swap1\n      sload\n      swap1\n      0x0100\n      exp\n      swap1\n      div\n      0xff\n      and\n        /* \"Roulette_reviewed_by_john.sol\":7430:7453  ResultGenerated(result) */\n      mload(0x40)\n      tag_131\n      swap2\n      swap1\n      tag_28\n      jump\t// in\n    tag_131:\n      mload(0x40)\n      dup1\n      swap2\n      sub\n      swap1\n      log1\n        /* \"Roulette_reviewed_by_john.sol\":6360:7460  {... */\n      pop\n      pop\n        /* \"Roulette_reviewed_by_john.sol\":6327:7460  function generateResult() public {... */\n      jump\t// out\n        /* \"Roulette_reviewed_by_john.sol\":3675:3694  uint8 public status */\n    tag_37:\n      0x02\n      0x00\n      swap1\n      sload\n      swap1\n      0x0100\n      exp\n      swap1\n      div\n      0xff\n      and\n      dup2\n      jump\t// out\n        /* \"Roulette_reviewed_by_john.sol\":3700:3717  Bet[] public bets */\n    tag_43:\n      0x03\n      dup2\n      dup2\n      sload\n      dup2\n      lt\n      tag_132\n      jumpi\n      0x00\n      dup1\n      revert\n    tag_132:\n      swap1\n      0x00\n      mstore\n      keccak256(0x00, 0x20)\n      swap1\n      0x02\n      mul\n      add\n      0x00\n      swap2\n      pop\n      swap1\n      pop\n      dup1\n      0x00\n      add\n      0x00\n      swap1\n      sload\n      swap1\n      0x0100\n      exp\n      swap1\n      div\n      0xffffffffffffffffffffffffffffffffffffffff\n      and\n      swap1\n      dup1\n      0x00\n      add\n      0x14\n      swap1\n      sload\n      swap1\n      0x0100\n      exp\n      swap1\n      div\n      0xff\n      and\n      swap1\n      dup1\n      0x01\n      add\n      sload\n      swap1\n      pop\n      dup4\n      jump\t// out\n        /* \"Roulette_reviewed_by_john.sol\":3977:3998  uint256 public maxBet */\n    tag_48:\n      sload(0x08)\n      dup2\n      jump\t// out\n        /* \"Roulette_reviewed_by_john.sol\":8216:9542  function validateResult() public {... */\n    tag_53:\n        /* \"Roulette_reviewed_by_john.sol\":2476:2477  3 */\n      0x03\n        /* \"Roulette_reviewed_by_john.sol\":8267:8300  status == STATUS_RESULT_GENERATED */\n      0xff\n      and\n        /* \"Roulette_reviewed_by_john.sol\":8267:8273  status */\n      0x02\n      0x00\n      swap1\n      sload\n      swap1\n      0x0100\n      exp\n      swap1\n      div\n      0xff\n      and\n        /* \"Roulette_reviewed_by_john.sol\":8267:8300  status == STATUS_RESULT_GENERATED */\n      0xff\n      and\n      eq\n        /* \"Roulette_reviewed_by_john.sol\":8259:8325  require(status == STATUS_RESULT_GENERATED, \"Result not generated\") */\n      tag_135\n      jumpi\n      mload(0x40)\n      0x08c379a000000000000000000000000000000000000000000000000000000000\n      dup2\n      mstore\n      0x04\n      add\n      tag_136\n      swap1\n      tag_137\n      jump\t// in\n    tag_136:\n      mload(0x40)\n      dup1\n      swap2\n      sub\n      swap1\n      revert\n    tag_135:\n        /* \"Roulette_reviewed_by_john.sol\":8343:8366  isValidator(msg.sender) */\n      tag_138\n        /* \"Roulette_reviewed_by_john.sol\":8355:8365  msg.sender */\n      caller\n        /* \"Roulette_reviewed_by_john.sol\":8343:8354  isValidator */\n      tag_139\n        /* \"Roulette_reviewed_by_john.sol\":8343:8366  isValidator(msg.sender) */\n      jump\t// in\n    tag_138:\n        /* \"Roulette_reviewed_by_john.sol\":8335:8400  require(isValidator(msg.sender), \"Only a validator can validate\") */\n      tag_140\n      jumpi\n      mload(0x40)\n      0x08c379a000000000000000000000000000000000000000000000000000000000\n      dup2\n      mstore\n      0x04\n      add\n      tag_141\n      swap1\n      tag_142\n      jump\t// in\n    tag_141:\n      mload(0x40)\n      dup1\n      swap2\n      sub\n      swap1\n      revert\n    tag_140:\n        /* \"Roulette_reviewed_by_john.sol\":8468:8483  uint8 stepIndex */\n      0x00\n        /* \"Roulette_reviewed_by_john.sol\":8486:8487  1 */\n      0x01\n        /* \"Roulette_reviewed_by_john.sol\":8468:8487  uint8 stepIndex = 1 */\n      swap1\n      pop\n        /* \"Roulette_reviewed_by_john.sol\":8543:8560  bytes32 checkHash */\n      0x00\n        /* \"Roulette_reviewed_by_john.sol\":8593:8594  1 */\n      0x01\n        /* \"Roulette_reviewed_by_john.sol\":8573:8590  cutOffBlockNumber */\n      sload(0x04)\n        /* \"Roulette_reviewed_by_john.sol\":8573:8594  cutOffBlockNumber + 1 */\n      tag_143\n      swap2\n      swap1\n      tag_113\n      jump\t// in\n    tag_143:\n        /* \"Roulette_reviewed_by_john.sol\":8563:8595  blockhash(cutOffBlockNumber + 1) */\n      blockhash\n        /* \"Roulette_reviewed_by_john.sol\":8543:8595  bytes32 checkHash = blockhash(cutOffBlockNumber + 1) */\n      swap1\n      pop\n        /* \"Roulette_reviewed_by_john.sol\":8610:8641  ProofStep(stepIndex, checkHash) */\n      0xd6563290bf7bc3a22c95984b79cc8231683e052b83821643bd749f758dac19aa\n        /* \"Roulette_reviewed_by_john.sol\":8620:8629  stepIndex */\n      dup3\n        /* \"Roulette_reviewed_by_john.sol\":8631:8640  checkHash */\n      dup3\n        /* \"Roulette_reviewed_by_john.sol\":8610:8641  ProofStep(stepIndex, checkHash) */\n      mload(0x40)\n      tag_144\n      swap3\n      swap2\n      swap1\n      tag_145\n      jump\t// in\n    tag_144:\n      mload(0x40)\n      dup1\n      swap2\n      sub\n      swap1\n      log1\n        /* \"Roulette_reviewed_by_john.sol\":8651:8662  stepIndex++ */\n      dup2\n      dup1\n      tag_146\n      swap1\n      tag_147\n      jump\t// in\n    tag_146:\n      swap3\n      pop\n      pop\n        /* \"Roulette_reviewed_by_john.sol\":8756:8765  checkHash */\n      dup1\n        /* \"Roulette_reviewed_by_john.sol\":8767:8771  host */\n      0x00\n      dup1\n      sload\n      swap1\n      0x0100\n      exp\n      swap1\n      div\n      0xffffffffffffffffffffffffffffffffffffffff\n      and\n        /* \"Roulette_reviewed_by_john.sol\":8739:8772  abi.encodePacked(checkHash, host) */\n      add(0x20, mload(0x40))\n      tag_148\n      swap3\n      swap2\n      swap1\n      tag_120\n      jump\t// in\n    tag_148:\n      mload(0x40)\n      0x20\n      dup2\n      dup4\n      sub\n      sub\n      dup2\n      mstore\n      swap1\n      0x40\n      mstore\n        /* \"Roulette_reviewed_by_john.sol\":8729:8773  keccak256(abi.encodePacked(checkHash, host)) */\n      dup1\n      mload\n      swap1\n      0x20\n      add\n      keccak256\n        /* \"Roulette_reviewed_by_john.sol\":8717:8773  checkHash = keccak256(abi.encodePacked(checkHash, host)) */\n      swap1\n      pop\n        /* \"Roulette_reviewed_by_john.sol\":8788:8819  ProofStep(stepIndex, checkHash) */\n      0xd6563290bf7bc3a22c95984b79cc8231683e052b83821643bd749f758dac19aa\n        /* \"Roulette_reviewed_by_john.sol\":8798:8807  stepIndex */\n      dup3\n        /* \"Roulette_reviewed_by_john.sol\":8809:8818  checkHash */\n      dup3\n        /* \"Roulette_reviewed_by_john.sol\":8788:8819  ProofStep(stepIndex, checkHash) */\n      mload(0x40)\n      tag_149\n      swap3\n      swap2\n      swap1\n      tag_145\n      jump\t// in\n    tag_149:\n      mload(0x40)\n      dup1\n      swap2\n      sub\n      swap1\n      log1\n        /* \"Roulette_reviewed_by_john.sol\":8829:8840  stepIndex++ */\n      dup2\n      dup1\n      tag_150\n      swap1\n      tag_147\n      jump\t// in\n    tag_150:\n      swap3\n      pop\n      pop\n        /* \"Roulette_reviewed_by_john.sol\":8919:8928  uint256 i */\n      0x00\n        /* \"Roulette_reviewed_by_john.sol\":8914:9122  for (uint256 i = 0; i < bets.length; i++) {... */\n    tag_151:\n        /* \"Roulette_reviewed_by_john.sol\":8938:8942  bets */\n      0x03\n        /* \"Roulette_reviewed_by_john.sol\":8938:8949  bets.length */\n      dup1\n      sload\n      swap1\n      pop\n        /* \"Roulette_reviewed_by_john.sol\":8934:8935  i */\n      dup2\n        /* \"Roulette_reviewed_by_john.sol\":8934:8949  i < bets.length */\n      lt\n        /* \"Roulette_reviewed_by_john.sol\":8914:9122  for (uint256 i = 0; i < bets.length; i++) {... */\n      iszero\n      tag_152\n      jumpi\n        /* \"Roulette_reviewed_by_john.sol\":9009:9018  checkHash */\n      dup2\n        /* \"Roulette_reviewed_by_john.sol\":9020:9024  bets */\n      0x03\n        /* \"Roulette_reviewed_by_john.sol\":9025:9026  i */\n      dup3\n        /* \"Roulette_reviewed_by_john.sol\":9020:9027  bets[i] */\n      dup2\n      sload\n      dup2\n      lt\n      tag_154\n      jumpi\n      tag_155\n      tag_126\n      jump\t// in\n    tag_155:\n    tag_154:\n      swap1\n      0x00\n      mstore\n      keccak256(0x00, 0x20)\n      swap1\n      0x02\n      mul\n      add\n        /* \"Roulette_reviewed_by_john.sol\":9020:9034  bets[i].player */\n      0x00\n      add\n      0x00\n      swap1\n      sload\n      swap1\n      0x0100\n      exp\n      swap1\n      div\n      0xffffffffffffffffffffffffffffffffffffffff\n      and\n        /* \"Roulette_reviewed_by_john.sol\":8992:9035  abi.encodePacked(checkHash, bets[i].player) */\n      add(0x20, mload(0x40))\n      tag_157\n      swap3\n      swap2\n      swap1\n      tag_120\n      jump\t// in\n    tag_157:\n      mload(0x40)\n      0x20\n      dup2\n      dup4\n      sub\n      sub\n      dup2\n      mstore\n      swap1\n      0x40\n      mstore\n        /* \"Roulette_reviewed_by_john.sol\":8982:9036  keccak256(abi.encodePacked(checkHash, bets[i].player)) */\n      dup1\n      mload\n      swap1\n      0x20\n      add\n      keccak256\n        /* \"Roulette_reviewed_by_john.sol\":8970:9036  checkHash = keccak256(abi.encodePacked(checkHash, bets[i].player)) */\n      swap2\n      pop\n        /* \"Roulette_reviewed_by_john.sol\":9055:9086  ProofStep(stepIndex, checkHash) */\n      0xd6563290bf7bc3a22c95984b79cc8231683e052b83821643bd749f758dac19aa\n        /* \"Roulette_reviewed_by_john.sol\":9065:9074  stepIndex */\n      dup4\n        /* \"Roulette_reviewed_by_john.sol\":9076:9085  checkHash */\n      dup4\n        /* \"Roulette_reviewed_by_john.sol\":9055:9086  ProofStep(stepIndex, checkHash) */\n      mload(0x40)\n      tag_158\n      swap3\n      swap2\n      swap1\n      tag_145\n      jump\t// in\n    tag_158:\n      mload(0x40)\n      dup1\n      swap2\n      sub\n      swap1\n      log1\n        /* \"Roulette_reviewed_by_john.sol\":9100:9111  stepIndex++ */\n      dup3\n      dup1\n      tag_159\n      swap1\n      tag_147\n      jump\t// in\n    tag_159:\n      swap4\n      pop\n      pop\n        /* \"Roulette_reviewed_by_john.sol\":8951:8954  i++ */\n      dup1\n      dup1\n      0x01\n      add\n      swap2\n      pop\n      pop\n        /* \"Roulette_reviewed_by_john.sol\":8914:9122  for (uint256 i = 0; i < bets.length; i++) {... */\n      jump(tag_151)\n    tag_152:\n      pop\n        /* \"Roulette_reviewed_by_john.sol\":9171:9193  uint8 recomputedResult */\n      0x00\n        /* \"Roulette_reviewed_by_john.sol\":238:240  38 */\n      0x26\n        /* \"Roulette_reviewed_by_john.sol\":9202:9241  uint256(checkHash) % OPTION_TOTAL_COUNT */\n      0xff\n      and\n        /* \"Roulette_reviewed_by_john.sol\":9210:9219  checkHash */\n      dup3\n        /* \"Roulette_reviewed_by_john.sol\":9202:9220  uint256(checkHash) */\n      0x00\n      shr\n        /* \"Roulette_reviewed_by_john.sol\":9202:9241  uint256(checkHash) % OPTION_TOTAL_COUNT */\n      tag_160\n      swap2\n      swap1\n      tag_130\n      jump\t// in\n    tag_160:\n        /* \"Roulette_reviewed_by_john.sol\":9171:9242  uint8 recomputedResult = uint8(uint256(checkHash) % OPTION_TOTAL_COUNT) */\n      swap1\n      pop\n        /* \"Roulette_reviewed_by_john.sol\":9313:9319  result */\n      0x05\n      0x00\n      swap1\n      sload\n      swap1\n      0x0100\n      exp\n      swap1\n      div\n      0xff\n      and\n        /* \"Roulette_reviewed_by_john.sol\":9293:9319  recomputedResult == result */\n      0xff\n      and\n        /* \"Roulette_reviewed_by_john.sol\":9293:9309  recomputedResult */\n      dup2\n        /* \"Roulette_reviewed_by_john.sol\":9293:9319  recomputedResult == result */\n      0xff\n      and\n      eq\n        /* \"Roulette_reviewed_by_john.sol\":9272:9379  require(... */\n      tag_161\n      jumpi\n      mload(0x40)\n      0x08c379a000000000000000000000000000000000000000000000000000000000\n      dup2\n      mstore\n      0x04\n      add\n      tag_162\n      swap1\n      tag_163\n      jump\t// in\n    tag_162:\n      mload(0x40)\n      dup1\n      swap2\n      sub\n      swap1\n      revert\n    tag_161:\n        /* \"Roulette_reviewed_by_john.sol\":9449:9472  ResultValidated(result) */\n      0x5f438d100d0c0fb18e88113110bf411fd18c9a557c03e394cd32997b5055f9ae\n        /* \"Roulette_reviewed_by_john.sol\":9465:9471  result */\n      0x05\n      0x00\n      swap1\n      sload\n      swap1\n      0x0100\n      exp\n      swap1\n      div\n      0xff\n      and\n        /* \"Roulette_reviewed_by_john.sol\":9449:9472  ResultValidated(result) */\n      mload(0x40)\n      tag_164\n      swap2\n      swap1\n      tag_28\n      jump\t// in\n    tag_164:\n      mload(0x40)\n      dup1\n      swap2\n      sub\n      swap1\n      log1\n        /* \"Roulette_reviewed_by_john.sol\":2532:2533  4 */\n      0x04\n        /* \"Roulette_reviewed_by_john.sol\":9482:9488  status */\n      0x02\n      0x00\n        /* \"Roulette_reviewed_by_john.sol\":9482:9514  status = STATUS_RESULT_VALIDATED */\n      0x0100\n      exp\n      dup2\n      sload\n      dup2\n      0xff\n      mul\n      not\n      and\n      swap1\n      dup4\n      0xff\n      and\n      mul\n      or\n      swap1\n      sstore\n      pop\n        /* \"Roulette_reviewed_by_john.sol\":9524:9535  settleBet() */\n      tag_165\n        /* \"Roulette_reviewed_by_john.sol\":9524:9533  settleBet */\n      tag_80\n        /* \"Roulette_reviewed_by_john.sol\":9524:9535  settleBet() */\n      jump\t// in\n    tag_165:\n        /* \"Roulette_reviewed_by_john.sol\":8249:9542  {... */\n      pop\n      pop\n      pop\n        /* \"Roulette_reviewed_by_john.sol\":8216:9542  function validateResult() public {... */\n      jump\t// out\n        /* \"Roulette_reviewed_by_john.sol\":5324:5810  function placeBet(uint8 option) public payable {... */\n    tag_57:\n        /* \"Roulette_reviewed_by_john.sol\":5399:5401  37 */\n      0x25\n        /* \"Roulette_reviewed_by_john.sol\":5389:5395  option */\n      dup2\n        /* \"Roulette_reviewed_by_john.sol\":5389:5401  option <= 37 */\n      0xff\n      and\n      gt\n      iszero\n        /* \"Roulette_reviewed_by_john.sol\":5381:5437  require(option <= 37, \"Number must be between 0 and 37\") */\n      tag_167\n      jumpi\n      mload(0x40)\n      0x08c379a000000000000000000000000000000000000000000000000000000000\n      dup2\n      mstore\n      0x04\n      add\n      tag_168\n      swap1\n      tag_169\n      jump\t// in\n    tag_168:\n      mload(0x40)\n      dup1\n      swap2\n      sub\n      swap1\n      revert\n    tag_167:\n        /* \"Roulette_reviewed_by_john.sol\":5468:5474  minBet */\n      sload(0x01)\n        /* \"Roulette_reviewed_by_john.sol\":5455:5464  msg.value */\n      callvalue\n        /* \"Roulette_reviewed_by_john.sol\":5455:5474  msg.value >= minBet */\n      lt\n      iszero\n        /* \"Roulette_reviewed_by_john.sol\":5447:5514  require(msg.value >= minBet, \"Bet amount is below the minimum bet\") */\n      tag_170\n      jumpi\n      mload(0x40)\n      0x08c379a000000000000000000000000000000000000000000000000000000000\n      dup2\n      mstore\n      0x04\n      add\n      tag_171\n      swap1\n      tag_172\n      jump\t// in\n    tag_171:\n      mload(0x40)\n      dup1\n      swap2\n      sub\n      swap1\n      revert\n    tag_170:\n        /* \"Roulette_reviewed_by_john.sol\":5525:5529  bets */\n      0x03\n        /* \"Roulette_reviewed_by_john.sol\":5535:5595  Bet({player: msg.sender, option: option, amount: msg.value}) */\n      mload(0x40)\n      dup1\n      0x60\n      add\n      0x40\n      mstore\n      dup1\n        /* \"Roulette_reviewed_by_john.sol\":5548:5558  msg.sender */\n      caller\n        /* \"Roulette_reviewed_by_john.sol\":5535:5595  Bet({player: msg.sender, option: option, amount: msg.value}) */\n      0xffffffffffffffffffffffffffffffffffffffff\n      and\n      dup2\n      mstore\n      0x20\n      add\n        /* \"Roulette_reviewed_by_john.sol\":5568:5574  option */\n      dup4\n        /* \"Roulette_reviewed_by_john.sol\":5535:5595  Bet({player: msg.sender, option: option, amount: msg.value}) */\n      0xff\n      and\n      dup2\n      mstore\n      0x20\n      add\n        /* \"Roulette_reviewed_by_john.sol\":5584:5593  msg.value */\n      callvalue\n        /* \"Roulette_reviewed_by_john.sol\":5535:5595  Bet({player: msg.sender, option: option, amount: msg.value}) */\n      dup2\n      mstore\n      pop\n        /* \"Roulette_reviewed_by_john.sol\":5525:5596  bets.push(Bet({player: msg.sender, option: option, amount: msg.value})) */\n      swap1\n      dup1\n      0x01\n      dup2\n      sload\n      add\n      dup1\n      dup3\n      sstore\n      dup1\n      swap2\n      pop\n      pop\n      0x01\n      swap1\n      sub\n      swap1\n      0x00\n      mstore\n      keccak256(0x00, 0x20)\n      swap1\n      0x02\n      mul\n      add\n      0x00\n      swap1\n      swap2\n      swap1\n      swap2\n      swap1\n      swap2\n      pop\n      0x00\n      dup3\n      add\n      mload\n      dup2\n      0x00\n      add\n      exp(0x0100, 0x00)\n      dup2\n      sload\n      dup2\n      0xffffffffffffffffffffffffffffffffffffffff\n      mul\n      not\n      and\n      swap1\n      dup4\n      0xffffffffffffffffffffffffffffffffffffffff\n      and\n      mul\n      or\n      swap1\n      sstore\n      pop\n      0x20\n      dup3\n      add\n      mload\n      dup2\n      0x00\n      add\n      exp(0x0100, 0x14)\n      dup2\n      sload\n      dup2\n      0xff\n      mul\n      not\n      and\n      swap1\n      dup4\n      0xff\n      and\n      mul\n      or\n      swap1\n      sstore\n      pop\n      0x40\n      dup3\n      add\n      mload\n      dup2\n      0x01\n      add\n      sstore\n      pop\n      pop\n        /* \"Roulette_reviewed_by_john.sol\":5621:5631  msg.sender */\n      caller\n        /* \"Roulette_reviewed_by_john.sol\":5611:5651  BetPlaced(msg.sender, option, msg.value) */\n      0xffffffffffffffffffffffffffffffffffffffff\n      and\n      0x9f6b4cced64244a64465098f682029975b1614400b96bc6bd12c668083719166\n        /* \"Roulette_reviewed_by_john.sol\":5633:5639  option */\n      dup3\n        /* \"Roulette_reviewed_by_john.sol\":5641:5650  msg.value */\n      callvalue\n        /* \"Roulette_reviewed_by_john.sol\":5611:5651  BetPlaced(msg.sender, option, msg.value) */\n      mload(0x40)\n      tag_174\n      swap3\n      swap2\n      swap1\n      tag_175\n      jump\t// in\n    tag_174:\n      mload(0x40)\n      dup1\n      swap2\n      sub\n      swap1\n      log2\n        /* \"Roulette_reviewed_by_john.sol\":5791:5803  noMoreBets() */\n      tag_176\n        /* \"Roulette_reviewed_by_john.sol\":5791:5801  noMoreBets */\n      tag_31\n        /* \"Roulette_reviewed_by_john.sol\":5791:5803  noMoreBets() */\n      jump\t// in\n    tag_176:\n        /* \"Roulette_reviewed_by_john.sol\":5324:5810  function placeBet(uint8 option) public payable {... */\n      pop\n      jump\t// out\n        /* \"Roulette_reviewed_by_john.sol\":4584:4663  function getStatus() public view returns (uint8) {... */\n    tag_60:\n        /* \"Roulette_reviewed_by_john.sol\":4626:4631  uint8 */\n      0x00\n        /* \"Roulette_reviewed_by_john.sol\":4650:4656  status */\n      0x02\n      0x00\n      swap1\n      sload\n      swap1\n      0x0100\n      exp\n      swap1\n      div\n      0xff\n      and\n        /* \"Roulette_reviewed_by_john.sol\":4643:4656  return status */\n      swap1\n      pop\n        /* \"Roulette_reviewed_by_john.sol\":4584:4663  function getStatus() public view returns (uint8) {... */\n      swap1\n      jump\t// out\n        /* \"Roulette_reviewed_by_john.sol\":3761:3780  uint8 public result */\n    tag_64:\n      0x05\n      0x00\n      swap1\n      sload\n      swap1\n      0x0100\n      exp\n      swap1\n      div\n      0xff\n      and\n      dup2\n      jump\t// out\n        /* \"Roulette_reviewed_by_john.sol\":3723:3755  uint256 public cutOffBlockNumber */\n    tag_68:\n      sload(0x04)\n      dup2\n      jump\t// out\n        /* \"Roulette_reviewed_by_john.sol\":3914:3940  uint256 public minDeposite */\n    tag_72:\n      sload(0x07)\n      dup2\n      jump\t// out\n        /* \"Roulette_reviewed_by_john.sol\":4669:4758  function getBetsCount() public view returns (uint256) {... */\n    tag_76:\n        /* \"Roulette_reviewed_by_john.sol\":4714:4721  uint256 */\n      0x00\n        /* \"Roulette_reviewed_by_john.sol\":4740:4744  bets */\n      0x03\n        /* \"Roulette_reviewed_by_john.sol\":4740:4751  bets.length */\n      dup1\n      sload\n      swap1\n      pop\n        /* \"Roulette_reviewed_by_john.sol\":4733:4751  return bets.length */\n      swap1\n      pop\n        /* \"Roulette_reviewed_by_john.sol\":4669:4758  function getBetsCount() public view returns (uint256) {... */\n      swap1\n      jump\t// out\n        /* \"Roulette_reviewed_by_john.sol\":9555:10421  function settleBet() public {... */\n    tag_80:\n        /* \"Roulette_reviewed_by_john.sol\":2532:2533  4 */\n      0x04\n        /* \"Roulette_reviewed_by_john.sol\":9601:9634  status == STATUS_RESULT_VALIDATED */\n      0xff\n      and\n        /* \"Roulette_reviewed_by_john.sol\":9601:9607  status */\n      0x02\n      0x00\n      swap1\n      sload\n      swap1\n      0x0100\n      exp\n      swap1\n      div\n      0xff\n      and\n        /* \"Roulette_reviewed_by_john.sol\":9601:9634  status == STATUS_RESULT_VALIDATED */\n      0xff\n      and\n      eq\n        /* \"Roulette_reviewed_by_john.sol\":9593:9663  require(status == STATUS_RESULT_VALIDATED, \"Result not validated yet\") */\n      tag_180\n      jumpi\n      mload(0x40)\n      0x08c379a000000000000000000000000000000000000000000000000000000000\n      dup2\n      mstore\n      0x04\n      add\n      tag_181\n      swap1\n      tag_182\n      jump\t// in\n    tag_181:\n      mload(0x40)\n      dup1\n      swap2\n      sub\n      swap1\n      revert\n    tag_180:\n        /* \"Roulette_reviewed_by_john.sol\":9879:9888  uint256 i */\n      0x00\n        /* \"Roulette_reviewed_by_john.sol\":9874:10307  for (uint256 i = 0; i < bets.length; i++) {... */\n    tag_183:\n        /* \"Roulette_reviewed_by_john.sol\":9898:9902  bets */\n      0x03\n        /* \"Roulette_reviewed_by_john.sol\":9898:9909  bets.length */\n      dup1\n      sload\n      swap1\n      pop\n        /* \"Roulette_reviewed_by_john.sol\":9894:9895  i */\n      dup2\n        /* \"Roulette_reviewed_by_john.sol\":9894:9909  i < bets.length */\n      lt\n        /* \"Roulette_reviewed_by_john.sol\":9874:10307  for (uint256 i = 0; i < bets.length; i++) {... */\n      iszero\n      tag_184\n      jumpi\n        /* \"Roulette_reviewed_by_john.sol\":10045:10051  result */\n      0x05\n      0x00\n      swap1\n      sload\n      swap1\n      0x0100\n      exp\n      swap1\n      div\n      0xff\n      and\n        /* \"Roulette_reviewed_by_john.sol\":10027:10051  bets[i].option == result */\n      0xff\n      and\n        /* \"Roulette_reviewed_by_john.sol\":10027:10031  bets */\n      0x03\n        /* \"Roulette_reviewed_by_john.sol\":10032:10033  i */\n      dup3\n        /* \"Roulette_reviewed_by_john.sol\":10027:10034  bets[i] */\n      dup2\n      sload\n      dup2\n      lt\n      tag_186\n      jumpi\n      tag_187\n      tag_126\n      jump\t// in\n    tag_187:\n    tag_186:\n      swap1\n      0x00\n      mstore\n      keccak256(0x00, 0x20)\n      swap1\n      0x02\n      mul\n      add\n        /* \"Roulette_reviewed_by_john.sol\":10027:10041  bets[i].option */\n      0x00\n      add\n      0x14\n      swap1\n      sload\n      swap1\n      0x0100\n      exp\n      swap1\n      div\n      0xff\n      and\n        /* \"Roulette_reviewed_by_john.sol\":10027:10051  bets[i].option == result */\n      0xff\n      and\n      sub\n        /* \"Roulette_reviewed_by_john.sol\":10023:10297  if (bets[i].option == result) {... */\n      tag_189\n      jumpi\n        /* \"Roulette_reviewed_by_john.sol\":10102:10116  uint256 payout */\n      0x00\n        /* \"Roulette_reviewed_by_john.sol\":2248:2250  37 */\n      0x25\n        /* \"Roulette_reviewed_by_john.sol\":10119:10152  bets[i].amount * ODDS_STRAIGHT_UP */\n      0xff\n      and\n        /* \"Roulette_reviewed_by_john.sol\":10119:10123  bets */\n      0x03\n        /* \"Roulette_reviewed_by_john.sol\":10124:10125  i */\n      dup4\n        /* \"Roulette_reviewed_by_john.sol\":10119:10126  bets[i] */\n      dup2\n      sload\n      dup2\n      lt\n      tag_190\n      jumpi\n      tag_191\n      tag_126\n      jump\t// in\n    tag_191:\n    tag_190:\n      swap1\n      0x00\n      mstore\n      keccak256(0x00, 0x20)\n      swap1\n      0x02\n      mul\n      add\n        /* \"Roulette_reviewed_by_john.sol\":10119:10133  bets[i].amount */\n      0x01\n      add\n      sload\n        /* \"Roulette_reviewed_by_john.sol\":10119:10152  bets[i].amount * ODDS_STRAIGHT_UP */\n      tag_193\n      swap2\n      swap1\n      tag_194\n      jump\t// in\n    tag_193:\n        /* \"Roulette_reviewed_by_john.sol\":10102:10152  uint256 payout = bets[i].amount * ODDS_STRAIGHT_UP */\n      swap1\n      pop\n        /* \"Roulette_reviewed_by_john.sol\":10178:10182  bets */\n      0x03\n        /* \"Roulette_reviewed_by_john.sol\":10183:10184  i */\n      dup3\n        /* \"Roulette_reviewed_by_john.sol\":10178:10185  bets[i] */\n      dup2\n      sload\n      dup2\n      lt\n      tag_195\n      jumpi\n      tag_196\n      tag_126\n      jump\t// in\n    tag_196:\n    tag_195:\n      swap1\n      0x00\n      mstore\n      keccak256(0x00, 0x20)\n      swap1\n      0x02\n      mul\n      add\n        /* \"Roulette_reviewed_by_john.sol\":10178:10192  bets[i].player */\n      0x00\n      add\n      0x00\n      swap1\n      sload\n      swap1\n      0x0100\n      exp\n      swap1\n      div\n      0xffffffffffffffffffffffffffffffffffffffff\n      and\n        /* \"Roulette_reviewed_by_john.sol\":10170:10202  payable(bets[i].player).transfer */\n      0xffffffffffffffffffffffffffffffffffffffff\n      and\n        /* \"Roulette_reviewed_by_john.sol\":10170:10210  payable(bets[i].player).transfer(payout) */\n      0x08fc\n        /* \"Roulette_reviewed_by_john.sol\":10203:10209  payout */\n      dup3\n        /* \"Roulette_reviewed_by_john.sol\":10170:10210  payable(bets[i].player).transfer(payout) */\n      swap1\n      dup2\n      iszero\n      mul\n      swap1\n      mload(0x40)\n      0x00\n      mload(0x40)\n      dup1\n      dup4\n      sub\n      dup2\n      dup6\n      dup9\n      dup9\n      call\n      swap4\n      pop\n      pop\n      pop\n      pop\n      iszero\n      dup1\n      iszero\n      tag_199\n      jumpi\n      returndatasize\n      0x00\n      dup1\n      returndatacopy\n      revert(0x00, returndatasize)\n    tag_199:\n      pop\n        /* \"Roulette_reviewed_by_john.sol\":10243:10247  bets */\n      0x03\n        /* \"Roulette_reviewed_by_john.sol\":10248:10249  i */\n      dup3\n        /* \"Roulette_reviewed_by_john.sol\":10243:10250  bets[i] */\n      dup2\n      sload\n      dup2\n      lt\n      tag_200\n      jumpi\n      tag_201\n      tag_126\n      jump\t// in\n    tag_201:\n    tag_200:\n      swap1\n      0x00\n      mstore\n      keccak256(0x00, 0x20)\n      swap1\n      0x02\n      mul\n      add\n        /* \"Roulette_reviewed_by_john.sol\":10243:10257  bets[i].player */\n      0x00\n      add\n      0x00\n      swap1\n      sload\n      swap1\n      0x0100\n      exp\n      swap1\n      div\n      0xffffffffffffffffffffffffffffffffffffffff\n      and\n        /* \"Roulette_reviewed_by_john.sol\":10233:10282  BetPayout(bets[i].player, bets[i].option, payout) */\n      0xffffffffffffffffffffffffffffffffffffffff\n      and\n      0xfeb6d77d8663b36b3393e8790540b4ebe73ade87f3146e450022712344dc7b3b\n        /* \"Roulette_reviewed_by_john.sol\":10259:10263  bets */\n      0x03\n        /* \"Roulette_reviewed_by_john.sol\":10264:10265  i */\n      dup5\n        /* \"Roulette_reviewed_by_john.sol\":10259:10266  bets[i] */\n      dup2\n      sload\n      dup2\n      lt\n      tag_203\n      jumpi\n      tag_204\n      tag_126\n      jump\t// in\n    tag_204:\n    tag_203:\n      swap1\n      0x00\n      mstore\n      keccak256(0x00, 0x20)\n      swap1\n      0x02\n      mul\n      add\n        /* \"Roulette_reviewed_by_john.sol\":10259:10273  bets[i].option */\n      0x00\n      add\n      0x14\n      swap1\n      sload\n      swap1\n      0x0100\n      exp\n      swap1\n      div\n      0xff\n      and\n        /* \"Roulette_reviewed_by_john.sol\":10275:10281  payout */\n      dup4\n        /* \"Roulette_reviewed_by_john.sol\":10233:10282  BetPayout(bets[i].player, bets[i].option, payout) */\n      mload(0x40)\n      tag_206\n      swap3\n      swap2\n      swap1\n      tag_175\n      jump\t// in\n    tag_206:\n      mload(0x40)\n      dup1\n      swap2\n      sub\n      swap1\n      log2\n        /* \"Roulette_reviewed_by_john.sol\":10053:10297  {... */\n      pop\n        /* \"Roulette_reviewed_by_john.sol\":10023:10297  if (bets[i].option == result) {... */\n    tag_189:\n        /* \"Roulette_reviewed_by_john.sol\":9911:9914  i++ */\n      dup1\n      dup1\n      0x01\n      add\n      swap2\n      pop\n      pop\n        /* \"Roulette_reviewed_by_john.sol\":9874:10307  for (uint256 i = 0; i < bets.length; i++) {... */\n      jump(tag_183)\n    tag_184:\n      pop\n        /* \"Roulette_reviewed_by_john.sol\":10331:10335  host */\n      0x00\n      dup1\n      sload\n      swap1\n      0x0100\n      exp\n      swap1\n      div\n      0xffffffffffffffffffffffffffffffffffffffff\n      and\n        /* \"Roulette_reviewed_by_john.sol\":10321:10359  GameEnded(host, address(this).balance) */\n      0xffffffffffffffffffffffffffffffffffffffff\n      and\n      0xd4ba6fec82d9b0e8ffe50b9fed9e4be3b25c984ce1e0e016405a5528726e8a2c\n        /* \"Roulette_reviewed_by_john.sol\":10337:10358  address(this).balance */\n      selfbalance\n        /* \"Roulette_reviewed_by_john.sol\":10321:10359  GameEnded(host, address(this).balance) */\n      mload(0x40)\n      tag_207\n      swap2\n      swap1\n      tag_50\n      jump\t// in\n    tag_207:\n      mload(0x40)\n      dup1\n      swap2\n      sub\n      swap1\n      log2\n        /* \"Roulette_reviewed_by_john.sol\":10377:10381  host */\n      0x00\n      dup1\n      sload\n      swap1\n      0x0100\n      exp\n      swap1\n      div\n      0xffffffffffffffffffffffffffffffffffffffff\n      and\n        /* \"Roulette_reviewed_by_john.sol\":10369:10391  payable(host).transfer */\n      0xffffffffffffffffffffffffffffffffffffffff\n      and\n        /* \"Roulette_reviewed_by_john.sol\":10369:10414  payable(host).transfer(address(this).balance) */\n      0x08fc\n        /* \"Roulette_reviewed_by_john.sol\":10392:10413  address(this).balance */\n      selfbalance\n        /* \"Roulette_reviewed_by_john.sol\":10369:10414  payable(host).transfer(address(this).balance) */\n      swap1\n      dup2\n      iszero\n      mul\n      swap1\n      mload(0x40)\n      0x00\n      mload(0x40)\n      dup1\n      dup4\n      sub\n      dup2\n      dup6\n      dup9\n      dup9\n      call\n      swap4\n      pop\n      pop\n      pop\n      pop\n      iszero\n      dup1\n      iszero\n      tag_209\n      jumpi\n      returndatasize\n      0x00\n      dup1\n      returndatacopy\n      revert(0x00, returndatasize)\n    tag_209:\n      pop\n        /* \"Roulette_reviewed_by_john.sol\":9555:10421  function settleBet() public {... */\n      jump\t// out\n        /* \"Roulette_reviewed_by_john.sol\":3648:3669  uint256 public minBet */\n    tag_83:\n      sload(0x01)\n      dup2\n      jump\t// out\n        /* \"Roulette_reviewed_by_john.sol\":3862:3896  address[] public validator_address */\n    tag_88:\n      0x06\n      dup2\n      dup2\n      sload\n      dup2\n      lt\n      tag_210\n      jumpi\n      0x00\n      dup1\n      revert\n    tag_210:\n      swap1\n      0x00\n      mstore\n      keccak256(0x00, 0x20)\n      add\n      0x00\n      swap2\n      pop\n      sload\n      swap1\n      0x0100\n      exp\n      swap1\n      div\n      0xffffffffffffffffffffffffffffffffffffffff\n      and\n      dup2\n      jump\t// out\n        /* \"Roulette_reviewed_by_john.sol\":5003:5318  function deposit() public payable {... */\n    tag_92:\n        /* \"Roulette_reviewed_by_john.sol\":2310:2311  0 */\n      0x00\n        /* \"Roulette_reviewed_by_john.sol\":5068:5105  status == STATUS_PENDING_HOST_DEPOSIT */\n      0xff\n      and\n        /* \"Roulette_reviewed_by_john.sol\":5068:5074  status */\n      0x02\n      0x00\n      swap1\n      sload\n      swap1\n      0x0100\n      exp\n      swap1\n      div\n      0xff\n      and\n        /* \"Roulette_reviewed_by_john.sol\":5068:5105  status == STATUS_PENDING_HOST_DEPOSIT */\n      0xff\n      and\n      eq\n        /* \"Roulette_reviewed_by_john.sol\":5047:5153  require(... */\n      tag_213\n      jumpi\n      mload(0x40)\n      0x08c379a000000000000000000000000000000000000000000000000000000000\n      dup2\n      mstore\n      0x04\n      add\n      tag_214\n      swap1\n      tag_215\n      jump\t// in\n    tag_214:\n      mload(0x40)\n      dup1\n      swap2\n      sub\n      swap1\n      revert\n    tag_213:\n        /* \"Roulette_reviewed_by_john.sol\":5185:5189  host */\n      0x00\n      dup1\n      sload\n      swap1\n      0x0100\n      exp\n      swap1\n      div\n      0xffffffffffffffffffffffffffffffffffffffff\n      and\n        /* \"Roulette_reviewed_by_john.sol\":5171:5189  msg.sender == host */\n      0xffffffffffffffffffffffffffffffffffffffff\n      and\n        /* \"Roulette_reviewed_by_john.sol\":5171:5181  msg.sender */\n      caller\n        /* \"Roulette_reviewed_by_john.sol\":5171:5189  msg.sender == host */\n      0xffffffffffffffffffffffffffffffffffffffff\n      and\n      eq\n        /* \"Roulette_reviewed_by_john.sol\":5163:5215  require(msg.sender == host, \"Only host can deposit\") */\n      tag_216\n      jumpi\n      mload(0x40)\n      0x08c379a000000000000000000000000000000000000000000000000000000000\n      dup2\n      mstore\n      0x04\n      add\n      tag_217\n      swap1\n      tag_218\n      jump\t// in\n    tag_217:\n      mload(0x40)\n      dup1\n      swap2\n      sub\n      swap1\n      revert\n    tag_216:\n        /* \"Roulette_reviewed_by_john.sol\":2368:2369  1 */\n      0x01\n        /* \"Roulette_reviewed_by_john.sol\":5226:5232  status */\n      0x02\n      0x00\n        /* \"Roulette_reviewed_by_john.sol\":5226:5260  status = STATUS_PENDING_PLAYER_BET */\n      0x0100\n      exp\n      dup2\n      sload\n      dup2\n      0xff\n      mul\n      not\n      and\n      swap1\n      dup4\n      0xff\n      and\n      mul\n      or\n      swap1\n      sstore\n      pop\n        /* \"Roulette_reviewed_by_john.sol\":5289:5299  msg.sender */\n      caller\n        /* \"Roulette_reviewed_by_john.sol\":5275:5311  DepositPlaced(msg.sender, msg.value) */\n      0xffffffffffffffffffffffffffffffffffffffff\n      and\n      0x5a6c38b61cfc87b08186ec74738f787ec19c78c75b5b70442f580362abd96d29\n        /* \"Roulette_reviewed_by_john.sol\":5301:5310  msg.value */\n      callvalue\n        /* \"Roulette_reviewed_by_john.sol\":5275:5311  DepositPlaced(msg.sender, msg.value) */\n      mload(0x40)\n      tag_219\n      swap2\n      swap1\n      tag_50\n      jump\t// in\n    tag_219:\n      mload(0x40)\n      dup1\n      swap2\n      sub\n      swap1\n      log2\n        /* \"Roulette_reviewed_by_john.sol\":5003:5318  function deposit() public payable {... */\n      jump\t// out\n        /* \"Roulette_reviewed_by_john.sol\":4764:4997  function getTotalBetsAmount() public view returns (uint256) {... */\n    tag_95:\n        /* \"Roulette_reviewed_by_john.sol\":4815:4822  uint256 */\n      0x00\n        /* \"Roulette_reviewed_by_john.sol\":4834:4853  uint256 totalAmount */\n      dup1\n        /* \"Roulette_reviewed_by_john.sol\":4856:4857  0 */\n      0x00\n        /* \"Roulette_reviewed_by_john.sol\":4834:4857  uint256 totalAmount = 0 */\n      swap1\n      pop\n        /* \"Roulette_reviewed_by_john.sol\":4872:4881  uint256 i */\n      0x00\n        /* \"Roulette_reviewed_by_john.sol\":4867:4963  for (uint256 i = 0; i < bets.length; i++) {... */\n    tag_221:\n        /* \"Roulette_reviewed_by_john.sol\":4891:4895  bets */\n      0x03\n        /* \"Roulette_reviewed_by_john.sol\":4891:4902  bets.length */\n      dup1\n      sload\n      swap1\n      pop\n        /* \"Roulette_reviewed_by_john.sol\":4887:4888  i */\n      dup2\n        /* \"Roulette_reviewed_by_john.sol\":4887:4902  i < bets.length */\n      lt\n        /* \"Roulette_reviewed_by_john.sol\":4867:4963  for (uint256 i = 0; i < bets.length; i++) {... */\n      iszero\n      tag_222\n      jumpi\n        /* \"Roulette_reviewed_by_john.sol\":4938:4942  bets */\n      0x03\n        /* \"Roulette_reviewed_by_john.sol\":4943:4944  i */\n      dup2\n        /* \"Roulette_reviewed_by_john.sol\":4938:4945  bets[i] */\n      dup2\n      sload\n      dup2\n      lt\n      tag_224\n      jumpi\n      tag_225\n      tag_126\n      jump\t// in\n    tag_225:\n    tag_224:\n      swap1\n      0x00\n      mstore\n      keccak256(0x00, 0x20)\n      swap1\n      0x02\n      mul\n      add\n        /* \"Roulette_reviewed_by_john.sol\":4938:4952  bets[i].amount */\n      0x01\n      add\n      sload\n        /* \"Roulette_reviewed_by_john.sol\":4923:4952  totalAmount += bets[i].amount */\n      dup3\n      tag_227\n      swap2\n      swap1\n      tag_113\n      jump\t// in\n    tag_227:\n      swap2\n      pop\n        /* \"Roulette_reviewed_by_john.sol\":4904:4907  i++ */\n      dup1\n      dup1\n      0x01\n      add\n      swap2\n      pop\n      pop\n        /* \"Roulette_reviewed_by_john.sol\":4867:4963  for (uint256 i = 0; i < bets.length; i++) {... */\n      jump(tag_221)\n    tag_222:\n      pop\n        /* \"Roulette_reviewed_by_john.sol\":4979:4990  totalAmount */\n      dup1\n        /* \"Roulette_reviewed_by_john.sol\":4972:4990  return totalAmount */\n      swap2\n      pop\n      pop\n        /* \"Roulette_reviewed_by_john.sol\":4764:4997  function getTotalBetsAmount() public view returns (uint256) {... */\n      swap1\n      jump\t// out\n        /* \"Roulette_reviewed_by_john.sol\":3623:3642  address public host */\n    tag_99:\n      0x00\n      dup1\n      sload\n      swap1\n      0x0100\n      exp\n      swap1\n      div\n      0xffffffffffffffffffffffffffffffffffffffff\n      and\n      dup2\n      jump\t// out\n        /* \"Roulette_reviewed_by_john.sol\":7670:7935  function isValidator(address _caller) internal view returns (bool) {... */\n    tag_139:\n        /* \"Roulette_reviewed_by_john.sol\":7731:7735  bool */\n      0x00\n        /* \"Roulette_reviewed_by_john.sol\":7752:7761  uint256 i */\n      dup1\n        /* \"Roulette_reviewed_by_john.sol\":7764:7765  0 */\n      0x00\n        /* \"Roulette_reviewed_by_john.sol\":7752:7765  uint256 i = 0 */\n      swap1\n      pop\n        /* \"Roulette_reviewed_by_john.sol\":7747:7907  for (uint256 i = 0; i < validator_address.length; i++) {... */\n    tag_229:\n        /* \"Roulette_reviewed_by_john.sol\":7771:7788  validator_address */\n      0x06\n        /* \"Roulette_reviewed_by_john.sol\":7771:7795  validator_address.length */\n      dup1\n      sload\n      swap1\n      pop\n        /* \"Roulette_reviewed_by_john.sol\":7767:7768  i */\n      dup2\n        /* \"Roulette_reviewed_by_john.sol\":7767:7795  i < validator_address.length */\n      lt\n        /* \"Roulette_reviewed_by_john.sol\":7747:7907  for (uint256 i = 0; i < validator_address.length; i++) {... */\n      iszero\n      tag_230\n      jumpi\n        /* \"Roulette_reviewed_by_john.sol\":7844:7851  _caller */\n      dup3\n        /* \"Roulette_reviewed_by_john.sol\":7820:7851  validator_address[i] == _caller */\n      0xffffffffffffffffffffffffffffffffffffffff\n      and\n        /* \"Roulette_reviewed_by_john.sol\":7820:7837  validator_address */\n      0x06\n        /* \"Roulette_reviewed_by_john.sol\":7838:7839  i */\n      dup3\n        /* \"Roulette_reviewed_by_john.sol\":7820:7840  validator_address[i] */\n      dup2\n      sload\n      dup2\n      lt\n      tag_232\n      jumpi\n      tag_233\n      tag_126\n      jump\t// in\n    tag_233:\n    tag_232:\n      swap1\n      0x00\n      mstore\n      keccak256(0x00, 0x20)\n      add\n      0x00\n      swap1\n      sload\n      swap1\n      0x0100\n      exp\n      swap1\n      div\n      0xffffffffffffffffffffffffffffffffffffffff\n      and\n        /* \"Roulette_reviewed_by_john.sol\":7820:7851  validator_address[i] == _caller */\n      0xffffffffffffffffffffffffffffffffffffffff\n      and\n      sub\n        /* \"Roulette_reviewed_by_john.sol\":7816:7897  if (validator_address[i] == _caller) {... */\n      tag_235\n      jumpi\n        /* \"Roulette_reviewed_by_john.sol\":7878:7882  true */\n      0x01\n        /* \"Roulette_reviewed_by_john.sol\":7871:7882  return true */\n      swap2\n      pop\n      pop\n      jump(tag_228)\n        /* \"Roulette_reviewed_by_john.sol\":7816:7897  if (validator_address[i] == _caller) {... */\n    tag_235:\n        /* \"Roulette_reviewed_by_john.sol\":7797:7800  i++ */\n      dup1\n      dup1\n      0x01\n      add\n      swap2\n      pop\n      pop\n        /* \"Roulette_reviewed_by_john.sol\":7747:7907  for (uint256 i = 0; i < validator_address.length; i++) {... */\n      jump(tag_229)\n    tag_230:\n      pop\n        /* \"Roulette_reviewed_by_john.sol\":7923:7928  false */\n      0x00\n        /* \"Roulette_reviewed_by_john.sol\":7916:7928  return false */\n      swap1\n      pop\n        /* \"Roulette_reviewed_by_john.sol\":7670:7935  function isValidator(address _caller) internal view returns (bool) {... */\n    tag_228:\n      swap2\n      swap1\n      pop\n      jump\t// out\n        /* \"#utility.yul\":7:93   */\n    tag_236:\n        /* \"#utility.yul\":42:49   */\n      0x00\n        /* \"#utility.yul\":82:86   */\n      0xff\n        /* \"#utility.yul\":75:80   */\n      dup3\n        /* \"#utility.yul\":71:87   */\n      and\n        /* \"#utility.yul\":60:87   */\n      swap1\n      pop\n        /* \"#utility.yul\":7:93   */\n      swap2\n      swap1\n      pop\n      jump\t// out\n        /* \"#utility.yul\":99:211   */\n    tag_237:\n        /* \"#utility.yul\":182:204   */\n      tag_286\n        /* \"#utility.yul\":198:203   */\n      dup2\n        /* \"#utility.yul\":182:204   */\n      tag_236\n      jump\t// in\n    tag_286:\n        /* \"#utility.yul\":177:180   */\n      dup3\n        /* \"#utility.yul\":170:205   */\n      mstore\n        /* \"#utility.yul\":99:211   */\n      pop\n      pop\n      jump\t// out\n        /* \"#utility.yul\":217:431   */\n    tag_28:\n        /* \"#utility.yul\":306:310   */\n      0x00\n        /* \"#utility.yul\":344:346   */\n      0x20\n        /* \"#utility.yul\":333:342   */\n      dup3\n        /* \"#utility.yul\":329:347   */\n      add\n        /* \"#utility.yul\":321:347   */\n      swap1\n      pop\n        /* \"#utility.yul\":357:424   */\n      tag_288\n        /* \"#utility.yul\":421:422   */\n      0x00\n        /* \"#utility.yul\":410:419   */\n      dup4\n        /* \"#utility.yul\":406:423   */\n      add\n        /* \"#utility.yul\":397:403   */\n      dup5\n        /* \"#utility.yul\":357:424   */\n      tag_237\n      jump\t// in\n    tag_288:\n        /* \"#utility.yul\":217:431   */\n      swap3\n      swap2\n      pop\n      pop\n      jump\t// out\n        /* \"#utility.yul\":518:635   */\n    tag_239:\n        /* \"#utility.yul\":627:628   */\n      0x00\n        /* \"#utility.yul\":624:625   */\n      dup1\n        /* \"#utility.yul\":617:629   */\n      revert\n        /* \"#utility.yul\":764:841   */\n    tag_241:\n        /* \"#utility.yul\":801:808   */\n      0x00\n        /* \"#utility.yul\":830:835   */\n      dup2\n        /* \"#utility.yul\":819:835   */\n      swap1\n      pop\n        /* \"#utility.yul\":764:841   */\n      swap2\n      swap1\n      pop\n      jump\t// out\n        /* \"#utility.yul\":847:969   */\n    tag_242:\n        /* \"#utility.yul\":920:944   */\n      tag_294\n        /* \"#utility.yul\":938:943   */\n      dup2\n        /* \"#utility.yul\":920:944   */\n      tag_241\n      jump\t// in\n    tag_294:\n        /* \"#utility.yul\":913:918   */\n      dup2\n        /* \"#utility.yul\":910:945   */\n      eq\n        /* \"#utility.yul\":900:963   */\n      tag_295\n      jumpi\n        /* \"#utility.yul\":959:960   */\n      0x00\n        /* \"#utility.yul\":956:957   */\n      dup1\n        /* \"#utility.yul\":949:961   */\n      revert\n        /* \"#utility.yul\":900:963   */\n    tag_295:\n        /* \"#utility.yul\":847:969   */\n      pop\n      jump\t// out\n        /* \"#utility.yul\":975:1114   */\n    tag_243:\n        /* \"#utility.yul\":1021:1026   */\n      0x00\n        /* \"#utility.yul\":1059:1065   */\n      dup2\n        /* \"#utility.yul\":1046:1066   */\n      calldataload\n        /* \"#utility.yul\":1037:1066   */\n      swap1\n      pop\n        /* \"#utility.yul\":1075:1108   */\n      tag_297\n        /* \"#utility.yul\":1102:1107   */\n      dup2\n        /* \"#utility.yul\":1075:1108   */\n      tag_242\n      jump\t// in\n    tag_297:\n        /* \"#utility.yul\":975:1114   */\n      swap3\n      swap2\n      pop\n      pop\n      jump\t// out\n        /* \"#utility.yul\":1120:1449   */\n    tag_42:\n        /* \"#utility.yul\":1179:1185   */\n      0x00\n        /* \"#utility.yul\":1228:1230   */\n      0x20\n        /* \"#utility.yul\":1216:1225   */\n      dup3\n        /* \"#utility.yul\":1207:1214   */\n      dup5\n        /* \"#utility.yul\":1203:1226   */\n      sub\n        /* \"#utility.yul\":1199:1231   */\n      slt\n        /* \"#utility.yul\":1196:1315   */\n      iszero\n      tag_299\n      jumpi\n        /* \"#utility.yul\":1234:1313   */\n      tag_300\n      tag_239\n      jump\t// in\n    tag_300:\n        /* \"#utility.yul\":1196:1315   */\n    tag_299:\n        /* \"#utility.yul\":1354:1355   */\n      0x00\n        /* \"#utility.yul\":1379:1432   */\n      tag_301\n        /* \"#utility.yul\":1424:1431   */\n      dup5\n        /* \"#utility.yul\":1415:1421   */\n      dup3\n        /* \"#utility.yul\":1404:1413   */\n      dup6\n        /* \"#utility.yul\":1400:1422   */\n      add\n        /* \"#utility.yul\":1379:1432   */\n      tag_243\n      jump\t// in\n    tag_301:\n        /* \"#utility.yul\":1369:1432   */\n      swap2\n      pop\n        /* \"#utility.yul\":1325:1442   */\n      pop\n        /* \"#utility.yul\":1120:1449   */\n      swap3\n      swap2\n      pop\n      pop\n      jump\t// out\n        /* \"#utility.yul\":1455:1581   */\n    tag_244:\n        /* \"#utility.yul\":1492:1499   */\n      0x00\n        /* \"#utility.yul\":1532:1574   */\n      0xffffffffffffffffffffffffffffffffffffffff\n        /* \"#utility.yul\":1525:1530   */\n      dup3\n        /* \"#utility.yul\":1521:1575   */\n      and\n        /* \"#utility.yul\":1510:1575   */\n      swap1\n      pop\n        /* \"#utility.yul\":1455:1581   */\n      swap2\n      swap1\n      pop\n      jump\t// out\n        /* \"#utility.yul\":1587:1683   */\n    tag_245:\n        /* \"#utility.yul\":1624:1631   */\n      0x00\n        /* \"#utility.yul\":1653:1677   */\n      tag_304\n        /* \"#utility.yul\":1671:1676   */\n      dup3\n        /* \"#utility.yul\":1653:1677   */\n      tag_244\n      jump\t// in\n    tag_304:\n        /* \"#utility.yul\":1642:1677   */\n      swap1\n      pop\n        /* \"#utility.yul\":1587:1683   */\n      swap2\n      swap1\n      pop\n      jump\t// out\n        /* \"#utility.yul\":1689:1807   */\n    tag_246:\n        /* \"#utility.yul\":1776:1800   */\n      tag_306\n        /* \"#utility.yul\":1794:1799   */\n      dup2\n        /* \"#utility.yul\":1776:1800   */\n      tag_245\n      jump\t// in\n    tag_306:\n        /* \"#utility.yul\":1771:1774   */\n      dup3\n        /* \"#utility.yul\":1764:1801   */\n      mstore\n        /* \"#utility.yul\":1689:1807   */\n      pop\n      pop\n      jump\t// out\n        /* \"#utility.yul\":1813:1931   */\n    tag_247:\n        /* \"#utility.yul\":1900:1924   */\n      tag_308\n        /* \"#utility.yul\":1918:1923   */\n      dup2\n        /* \"#utility.yul\":1900:1924   */\n      tag_241\n      jump\t// in\n    tag_308:\n        /* \"#utility.yul\":1895:1898   */\n      dup3\n        /* \"#utility.yul\":1888:1925   */\n      mstore\n        /* \"#utility.yul\":1813:1931   */\n      pop\n      pop\n      jump\t// out\n        /* \"#utility.yul\":1937:2371   */\n    tag_45:\n        /* \"#utility.yul\":2082:2086   */\n      0x00\n        /* \"#utility.yul\":2120:2122   */\n      0x60\n        /* \"#utility.yul\":2109:2118   */\n      dup3\n        /* \"#utility.yul\":2105:2123   */\n      add\n        /* \"#utility.yul\":2097:2123   */\n      swap1\n      pop\n        /* \"#utility.yul\":2133:2204   */\n      tag_310\n        /* \"#utility.yul\":2201:2202   */\n      0x00\n        /* \"#utility.yul\":2190:2199   */\n      dup4\n        /* \"#utility.yul\":2186:2203   */\n      add\n        /* \"#utility.yul\":2177:2183   */\n      dup7\n        /* \"#utility.yul\":2133:2204   */\n      tag_246\n      jump\t// in\n    tag_310:\n        /* \"#utility.yul\":2214:2282   */\n      tag_311\n        /* \"#utility.yul\":2278:2280   */\n      0x20\n        /* \"#utility.yul\":2267:2276   */\n      dup4\n        /* \"#utility.yul\":2263:2281   */\n      add\n        /* \"#utility.yul\":2254:2260   */\n      dup6\n        /* \"#utility.yul\":2214:2282   */\n      tag_237\n      jump\t// in\n    tag_311:\n        /* \"#utility.yul\":2292:2364   */\n      tag_312\n        /* \"#utility.yul\":2360:2362   */\n      0x40\n        /* \"#utility.yul\":2349:2358   */\n      dup4\n        /* \"#utility.yul\":2345:2363   */\n      add\n        /* \"#utility.yul\":2336:2342   */\n      dup5\n        /* \"#utility.yul\":2292:2364   */\n      tag_247\n      jump\t// in\n    tag_312:\n        /* \"#utility.yul\":1937:2371   */\n      swap5\n      swap4\n      pop\n      pop\n      pop\n      pop\n      jump\t// out\n        /* \"#utility.yul\":2377:2599   */\n    tag_50:\n        /* \"#utility.yul\":2470:2474   */\n      0x00\n        /* \"#utility.yul\":2508:2510   */\n      0x20\n        /* \"#utility.yul\":2497:2506   */\n      dup3\n        /* \"#utility.yul\":2493:2511   */\n      add\n        /* \"#utility.yul\":2485:2511   */\n      swap1\n      pop\n        /* \"#utility.yul\":2521:2592   */\n      tag_314\n        /* \"#utility.yul\":2589:2590   */\n      0x00\n        /* \"#utility.yul\":2578:2587   */\n      dup4\n        /* \"#utility.yul\":2574:2591   */\n      add\n        /* \"#utility.yul\":2565:2571   */\n      dup5\n        /* \"#utility.yul\":2521:2592   */\n      tag_247\n      jump\t// in\n    tag_314:\n        /* \"#utility.yul\":2377:2599   */\n      swap3\n      swap2\n      pop\n      pop\n      jump\t// out\n        /* \"#utility.yul\":2605:2723   */\n    tag_248:\n        /* \"#utility.yul\":2676:2698   */\n      tag_316\n        /* \"#utility.yul\":2692:2697   */\n      dup2\n        /* \"#utility.yul\":2676:2698   */\n      tag_236\n      jump\t// in\n    tag_316:\n        /* \"#utility.yul\":2669:2674   */\n      dup2\n        /* \"#utility.yul\":2666:2699   */\n      eq\n        /* \"#utility.yul\":2656:2717   */\n      tag_317\n      jumpi\n        /* \"#utility.yul\":2713:2714   */\n      0x00\n        /* \"#utility.yul\":2710:2711   */\n      dup1\n        /* \"#utility.yul\":2703:2715   */\n      revert\n        /* \"#utility.yul\":2656:2717   */\n    tag_317:\n        /* \"#utility.yul\":2605:2723   */\n      pop\n      jump\t// out\n        /* \"#utility.yul\":2729:2864   */\n    tag_249:\n        /* \"#utility.yul\":2773:2778   */\n      0x00\n        /* \"#utility.yul\":2811:2817   */\n      dup2\n        /* \"#utility.yul\":2798:2818   */\n      calldataload\n        /* \"#utility.yul\":2789:2818   */\n      swap1\n      pop\n        /* \"#utility.yul\":2827:2858   */\n      tag_319\n        /* \"#utility.yul\":2852:2857   */\n      dup2\n        /* \"#utility.yul\":2827:2858   */\n      tag_248\n      jump\t// in\n    tag_319:\n        /* \"#utility.yul\":2729:2864   */\n      swap3\n      swap2\n      pop\n      pop\n      jump\t// out\n        /* \"#utility.yul\":2870:3195   */\n    tag_56:\n        /* \"#utility.yul\":2927:2933   */\n      0x00\n        /* \"#utility.yul\":2976:2978   */\n      0x20\n        /* \"#utility.yul\":2964:2973   */\n      dup3\n        /* \"#utility.yul\":2955:2962   */\n      dup5\n        /* \"#utility.yul\":2951:2974   */\n      sub\n        /* \"#utility.yul\":2947:2979   */\n      slt\n        /* \"#utility.yul\":2944:3063   */\n      iszero\n      tag_321\n      jumpi\n        /* \"#utility.yul\":2982:3061   */\n      tag_322\n      tag_239\n      jump\t// in\n    tag_322:\n        /* \"#utility.yul\":2944:3063   */\n    tag_321:\n        /* \"#utility.yul\":3102:3103   */\n      0x00\n        /* \"#utility.yul\":3127:3178   */\n      tag_323\n        /* \"#utility.yul\":3170:3177   */\n      dup5\n        /* \"#utility.yul\":3161:3167   */\n      dup3\n        /* \"#utility.yul\":3150:3159   */\n      dup6\n        /* \"#utility.yul\":3146:3168   */\n      add\n        /* \"#utility.yul\":3127:3178   */\n      tag_249\n      jump\t// in\n    tag_323:\n        /* \"#utility.yul\":3117:3178   */\n      swap2\n      pop\n        /* \"#utility.yul\":3073:3188   */\n      pop\n        /* \"#utility.yul\":2870:3195   */\n      swap3\n      swap2\n      pop\n      pop\n      jump\t// out\n        /* \"#utility.yul\":3201:3423   */\n    tag_90:\n        /* \"#utility.yul\":3294:3298   */\n      0x00\n        /* \"#utility.yul\":3332:3334   */\n      0x20\n        /* \"#utility.yul\":3321:3330   */\n      dup3\n        /* \"#utility.yul\":3317:3335   */\n      add\n        /* \"#utility.yul\":3309:3335   */\n      swap1\n      pop\n        /* \"#utility.yul\":3345:3416   */\n      tag_325\n        /* \"#utility.yul\":3413:3414   */\n      0x00\n        /* \"#utility.yul\":3402:3411   */\n      dup4\n        /* \"#utility.yul\":3398:3415   */\n      add\n        /* \"#utility.yul\":3389:3395   */\n      dup5\n        /* \"#utility.yul\":3345:3416   */\n      tag_246\n      jump\t// in\n    tag_325:\n        /* \"#utility.yul\":3201:3423   */\n      swap3\n      swap2\n      pop\n      pop\n      jump\t// out\n        /* \"#utility.yul\":3429:3598   */\n    tag_250:\n        /* \"#utility.yul\":3513:3524   */\n      0x00\n        /* \"#utility.yul\":3547:3553   */\n      dup3\n        /* \"#utility.yul\":3542:3545   */\n      dup3\n        /* \"#utility.yul\":3535:3554   */\n      mstore\n        /* \"#utility.yul\":3587:3591   */\n      0x20\n        /* \"#utility.yul\":3582:3585   */\n      dup3\n        /* \"#utility.yul\":3578:3592   */\n      add\n        /* \"#utility.yul\":3563:3592   */\n      swap1\n      pop\n        /* \"#utility.yul\":3429:3598   */\n      swap3\n      swap2\n      pop\n      pop\n      jump\t// out\n        /* \"#utility.yul\":3604:3774   */\n    tag_251:\n        /* \"#utility.yul\":3744:3766   */\n      0x4e6f206d6f7265206265747320616c6c6f776564000000000000000000000000\n        /* \"#utility.yul\":3740:3741   */\n      0x00\n        /* \"#utility.yul\":3732:3738   */\n      dup3\n        /* \"#utility.yul\":3728:3742   */\n      add\n        /* \"#utility.yul\":3721:3767   */\n      mstore\n        /* \"#utility.yul\":3604:3774   */\n      pop\n      jump\t// out\n        /* \"#utility.yul\":3780:4146   */\n    tag_252:\n        /* \"#utility.yul\":3922:3925   */\n      0x00\n        /* \"#utility.yul\":3943:4010   */\n      tag_329\n        /* \"#utility.yul\":4007:4009   */\n      0x14\n        /* \"#utility.yul\":4002:4005   */\n      dup4\n        /* \"#utility.yul\":3943:4010   */\n      tag_250\n      jump\t// in\n    tag_329:\n        /* \"#utility.yul\":3936:4010   */\n      swap2\n      pop\n        /* \"#utility.yul\":4019:4112   */\n      tag_330\n        /* \"#utility.yul\":4108:4111   */\n      dup3\n        /* \"#utility.yul\":4019:4112   */\n      tag_251\n      jump\t// in\n    tag_330:\n        /* \"#utility.yul\":4137:4139   */\n      0x20\n        /* \"#utility.yul\":4132:4135   */\n      dup3\n        /* \"#utility.yul\":4128:4140   */\n      add\n        /* \"#utility.yul\":4121:4140   */\n      swap1\n      pop\n        /* \"#utility.yul\":3780:4146   */\n      swap2\n      swap1\n      pop\n      jump\t// out\n        /* \"#utility.yul\":4152:4571   */\n    tag_104:\n        /* \"#utility.yul\":4318:4322   */\n      0x00\n        /* \"#utility.yul\":4356:4358   */\n      0x20\n        /* \"#utility.yul\":4345:4354   */\n      dup3\n        /* \"#utility.yul\":4341:4359   */\n      add\n        /* \"#utility.yul\":4333:4359   */\n      swap1\n      pop\n        /* \"#utility.yul\":4405:4414   */\n      dup2\n        /* \"#utility.yul\":4399:4403   */\n      dup2\n        /* \"#utility.yul\":4395:4415   */\n      sub\n        /* \"#utility.yul\":4391:4392   */\n      0x00\n        /* \"#utility.yul\":4380:4389   */\n      dup4\n        /* \"#utility.yul\":4376:4393   */\n      add\n        /* \"#utility.yul\":4369:4416   */\n      mstore\n        /* \"#utility.yul\":4433:4564   */\n      tag_332\n        /* \"#utility.yul\":4559:4563   */\n      dup2\n        /* \"#utility.yul\":4433:4564   */\n      tag_252\n      jump\t// in\n    tag_332:\n        /* \"#utility.yul\":4425:4564   */\n      swap1\n      pop\n        /* \"#utility.yul\":4152:4571   */\n      swap2\n      swap1\n      pop\n      jump\t// out\n        /* \"#utility.yul\":4577:4756   */\n    tag_253:\n        /* \"#utility.yul\":4717:4748   */\n      0x4f6e6c7920686f73742063616e2067656e657261746520726573756c74000000\n        /* \"#utility.yul\":4713:4714   */\n      0x00\n        /* \"#utility.yul\":4705:4711   */\n      dup3\n        /* \"#utility.yul\":4701:4715   */\n      add\n        /* \"#utility.yul\":4694:4749   */\n      mstore\n        /* \"#utility.yul\":4577:4756   */\n      pop\n      jump\t// out\n        /* \"#utility.yul\":4762:5128   */\n    tag_254:\n        /* \"#utility.yul\":4904:4907   */\n      0x00\n        /* \"#utility.yul\":4925:4992   */\n      tag_335\n        /* \"#utility.yul\":4989:4991   */\n      0x1d\n        /* \"#utility.yul\":4984:4987   */\n      dup4\n        /* \"#utility.yul\":4925:4992   */\n      tag_250\n      jump\t// in\n    tag_335:\n        /* \"#utility.yul\":4918:4992   */\n      swap2\n      pop\n        /* \"#utility.yul\":5001:5094   */\n      tag_336\n        /* \"#utility.yul\":5090:5093   */\n      dup3\n        /* \"#utility.yul\":5001:5094   */\n      tag_253\n      jump\t// in\n    tag_336:\n        /* \"#utility.yul\":5119:5121   */\n      0x20\n        /* \"#utility.yul\":5114:5117   */\n      dup3\n        /* \"#utility.yul\":5110:5122   */\n      add\n        /* \"#utility.yul\":5103:5122   */\n      swap1\n      pop\n        /* \"#utility.yul\":4762:5128   */\n      swap2\n      swap1\n      pop\n      jump\t// out\n        /* \"#utility.yul\":5134:5553   */\n    tag_111:\n        /* \"#utility.yul\":5300:5304   */\n      0x00\n        /* \"#utility.yul\":5338:5340   */\n      0x20\n        /* \"#utility.yul\":5327:5336   */\n      dup3\n        /* \"#utility.yul\":5323:5341   */\n      add\n        /* \"#utility.yul\":5315:5341   */\n      swap1\n      pop\n        /* \"#utility.yul\":5387:5396   */\n      dup2\n        /* \"#utility.yul\":5381:5385   */\n      dup2\n        /* \"#utility.yul\":5377:5397   */\n      sub\n        /* \"#utility.yul\":5373:5374   */\n      0x00\n        /* \"#utility.yul\":5362:5371   */\n      dup4\n        /* \"#utility.yul\":5358:5375   */\n      add\n        /* \"#utility.yul\":5351:5398   */\n      mstore\n        /* \"#utility.yul\":5415:5546   */\n      tag_338\n        /* \"#utility.yul\":5541:5545   */\n      dup2\n        /* \"#utility.yul\":5415:5546   */\n      tag_254\n      jump\t// in\n    tag_338:\n        /* \"#utility.yul\":5407:5546   */\n      swap1\n      pop\n        /* \"#utility.yul\":5134:5553   */\n      swap2\n      swap1\n      pop\n      jump\t// out\n        /* \"#utility.yul\":5559:5739   */\n    tag_255:\n        /* \"#utility.yul\":5607:5684   */\n      0x4e487b7100000000000000000000000000000000000000000000000000000000\n        /* \"#utility.yul\":5604:5605   */\n      0x00\n        /* \"#utility.yul\":5597:5685   */\n      mstore\n        /* \"#utility.yul\":5704:5708   */\n      0x11\n        /* \"#utility.yul\":5701:5702   */\n      0x04\n        /* \"#utility.yul\":5694:5709   */\n      mstore\n        /* \"#utility.yul\":5728:5732   */\n      0x24\n        /* \"#utility.yul\":5725:5726   */\n      0x00\n        /* \"#utility.yul\":5718:5733   */\n      revert\n        /* \"#utility.yul\":5745:5936   */\n    tag_113:\n        /* \"#utility.yul\":5785:5788   */\n      0x00\n        /* \"#utility.yul\":5804:5824   */\n      tag_341\n        /* \"#utility.yul\":5822:5823   */\n      dup3\n        /* \"#utility.yul\":5804:5824   */\n      tag_241\n      jump\t// in\n    tag_341:\n        /* \"#utility.yul\":5799:5824   */\n      swap2\n      pop\n        /* \"#utility.yul\":5838:5858   */\n      tag_342\n        /* \"#utility.yul\":5856:5857   */\n      dup4\n        /* \"#utility.yul\":5838:5858   */\n      tag_241\n      jump\t// in\n    tag_342:\n        /* \"#utility.yul\":5833:5858   */\n      swap3\n      pop\n        /* \"#utility.yul\":5881:5882   */\n      dup3\n        /* \"#utility.yul\":5878:5879   */\n      dup3\n        /* \"#utility.yul\":5874:5883   */\n      add\n        /* \"#utility.yul\":5867:5883   */\n      swap1\n      pop\n        /* \"#utility.yul\":5902:5905   */\n      dup1\n        /* \"#utility.yul\":5899:5900   */\n      dup3\n        /* \"#utility.yul\":5896:5906   */\n      gt\n        /* \"#utility.yul\":5893:5929   */\n      iszero\n      tag_343\n      jumpi\n        /* \"#utility.yul\":5909:5927   */\n      tag_344\n      tag_255\n      jump\t// in\n    tag_344:\n        /* \"#utility.yul\":5893:5929   */\n    tag_343:\n        /* \"#utility.yul\":5745:5936   */\n      swap3\n      swap2\n      pop\n      pop\n      jump\t// out\n        /* \"#utility.yul\":5942:6116   */\n    tag_256:\n        /* \"#utility.yul\":6082:6108   */\n      0x426c6f636b206e756d626572206e6f7420726561636865640000000000000000\n        /* \"#utility.yul\":6078:6079   */\n      0x00\n        /* \"#utility.yul\":6070:6076   */\n      dup3\n        /* \"#utility.yul\":6066:6080   */\n      add\n        /* \"#utility.yul\":6059:6109   */\n      mstore\n        /* \"#utility.yul\":5942:6116   */\n      pop\n      jump\t// out\n        /* \"#utility.yul\":6122:6488   */\n    tag_257:\n        /* \"#utility.yul\":6264:6267   */\n      0x00\n        /* \"#utility.yul\":6285:6352   */\n      tag_347\n        /* \"#utility.yul\":6349:6351   */\n      0x18\n        /* \"#utility.yul\":6344:6347   */\n      dup4\n        /* \"#utility.yul\":6285:6352   */\n      tag_250\n      jump\t// in\n    tag_347:\n        /* \"#utility.yul\":6278:6352   */\n      swap2\n      pop\n        /* \"#utility.yul\":6361:6454   */\n      tag_348\n        /* \"#utility.yul\":6450:6453   */\n      dup3\n        /* \"#utility.yul\":6361:6454   */\n      tag_256\n      jump\t// in\n    tag_348:\n        /* \"#utility.yul\":6479:6481   */\n      0x20\n        /* \"#utility.yul\":6474:6477   */\n      dup3\n        /* \"#utility.yul\":6470:6482   */\n      add\n        /* \"#utility.yul\":6463:6482   */\n      swap1\n      pop\n        /* \"#utility.yul\":6122:6488   */\n      swap2\n      swap1\n      pop\n      jump\t// out\n        /* \"#utility.yul\":6494:6913   */\n    tag_117:\n        /* \"#utility.yul\":6660:6664   */\n      0x00\n        /* \"#utility.yul\":6698:6700   */\n      0x20\n        /* \"#utility.yul\":6687:6696   */\n      dup3\n        /* \"#utility.yul\":6683:6701   */\n      add\n        /* \"#utility.yul\":6675:6701   */\n      swap1\n      pop\n        /* \"#utility.yul\":6747:6756   */\n      dup2\n        /* \"#utility.yul\":6741:6745   */\n      dup2\n        /* \"#utility.yul\":6737:6757   */\n      sub\n        /* \"#utility.yul\":6733:6734   */\n      0x00\n        /* \"#utility.yul\":6722:6731   */\n      dup4\n        /* \"#utility.yul\":6718:6735   */\n      add\n        /* \"#utility.yul\":6711:6758   */\n      mstore\n        /* \"#utility.yul\":6775:6906   */\n      tag_350\n        /* \"#utility.yul\":6901:6905   */\n      dup2\n        /* \"#utility.yul\":6775:6906   */\n      tag_257\n      jump\t// in\n    tag_350:\n        /* \"#utility.yul\":6767:6906   */\n      swap1\n      pop\n        /* \"#utility.yul\":6494:6913   */\n      swap2\n      swap1\n      pop\n      jump\t// out\n        /* \"#utility.yul\":6919:6996   */\n    tag_258:\n        /* \"#utility.yul\":6956:6963   */\n      0x00\n        /* \"#utility.yul\":6985:6990   */\n      dup2\n        /* \"#utility.yul\":6974:6990   */\n      swap1\n      pop\n        /* \"#utility.yul\":6919:6996   */\n      swap2\n      swap1\n      pop\n      jump\t// out\n        /* \"#utility.yul\":7002:7081   */\n    tag_259:\n        /* \"#utility.yul\":7041:7048   */\n      0x00\n        /* \"#utility.yul\":7070:7075   */\n      dup2\n        /* \"#utility.yul\":7059:7075   */\n      swap1\n      pop\n        /* \"#utility.yul\":7002:7081   */\n      swap2\n      swap1\n      pop\n      jump\t// out\n        /* \"#utility.yul\":7087:7244   */\n    tag_260:\n        /* \"#utility.yul\":7192:7237   */\n      tag_354\n        /* \"#utility.yul\":7212:7236   */\n      tag_355\n        /* \"#utility.yul\":7230:7235   */\n      dup3\n        /* \"#utility.yul\":7212:7236   */\n      tag_258\n      jump\t// in\n    tag_355:\n        /* \"#utility.yul\":7192:7237   */\n      tag_259\n      jump\t// in\n    tag_354:\n        /* \"#utility.yul\":7187:7190   */\n      dup3\n        /* \"#utility.yul\":7180:7238   */\n      mstore\n        /* \"#utility.yul\":7087:7244   */\n      pop\n      pop\n      jump\t// out\n        /* \"#utility.yul\":7250:7344   */\n    tag_261:\n        /* \"#utility.yul\":7283:7291   */\n      0x00\n        /* \"#utility.yul\":7331:7336   */\n      dup2\n        /* \"#utility.yul\":7327:7329   */\n      0x60\n        /* \"#utility.yul\":7323:7337   */\n      shl\n        /* \"#utility.yul\":7302:7337   */\n      swap1\n      pop\n        /* \"#utility.yul\":7250:7344   */\n      swap2\n      swap1\n      pop\n      jump\t// out\n        /* \"#utility.yul\":7350:7444   */\n    tag_262:\n        /* \"#utility.yul\":7389:7396   */\n      0x00\n        /* \"#utility.yul\":7418:7438   */\n      tag_358\n        /* \"#utility.yul\":7432:7437   */\n      dup3\n        /* \"#utility.yul\":7418:7438   */\n      tag_261\n      jump\t// in\n    tag_358:\n        /* \"#utility.yul\":7407:7438   */\n      swap1\n      pop\n        /* \"#utility.yul\":7350:7444   */\n      swap2\n      swap1\n      pop\n      jump\t// out\n        /* \"#utility.yul\":7450:7550   */\n    tag_263:\n        /* \"#utility.yul\":7489:7496   */\n      0x00\n        /* \"#utility.yul\":7518:7544   */\n      tag_360\n        /* \"#utility.yul\":7538:7543   */\n      dup3\n        /* \"#utility.yul\":7518:7544   */\n      tag_262\n      jump\t// in\n    tag_360:\n        /* \"#utility.yul\":7507:7544   */\n      swap1\n      pop\n        /* \"#utility.yul\":7450:7550   */\n      swap2\n      swap1\n      pop\n      jump\t// out\n        /* \"#utility.yul\":7556:7713   */\n    tag_264:\n        /* \"#utility.yul\":7661:7706   */\n      tag_362\n        /* \"#utility.yul\":7681:7705   */\n      tag_363\n        /* \"#utility.yul\":7699:7704   */\n      dup3\n        /* \"#utility.yul\":7681:7705   */\n      tag_245\n      jump\t// in\n    tag_363:\n        /* \"#utility.yul\":7661:7706   */\n      tag_263\n      jump\t// in\n    tag_362:\n        /* \"#utility.yul\":7656:7659   */\n      dup3\n        /* \"#utility.yul\":7649:7707   */\n      mstore\n        /* \"#utility.yul\":7556:7713   */\n      pop\n      pop\n      jump\t// out\n        /* \"#utility.yul\":7719:8116   */\n    tag_120:\n        /* \"#utility.yul\":7859:7862   */\n      0x00\n        /* \"#utility.yul\":7874:7949   */\n      tag_365\n        /* \"#utility.yul\":7945:7948   */\n      dup3\n        /* \"#utility.yul\":7936:7942   */\n      dup6\n        /* \"#utility.yul\":7874:7949   */\n      tag_260\n      jump\t// in\n    tag_365:\n        /* \"#utility.yul\":7974:7976   */\n      0x20\n        /* \"#utility.yul\":7969:7972   */\n      dup3\n        /* \"#utility.yul\":7965:7977   */\n      add\n        /* \"#utility.yul\":7958:7977   */\n      swap2\n      pop\n        /* \"#utility.yul\":7987:8062   */\n      tag_366\n        /* \"#utility.yul\":8058:8061   */\n      dup3\n        /* \"#utility.yul\":8049:8055   */\n      dup5\n        /* \"#utility.yul\":7987:8062   */\n      tag_264\n      jump\t// in\n    tag_366:\n        /* \"#utility.yul\":8087:8089   */\n      0x14\n        /* \"#utility.yul\":8082:8085   */\n      dup3\n        /* \"#utility.yul\":8078:8090   */\n      add\n        /* \"#utility.yul\":8071:8090   */\n      swap2\n      pop\n        /* \"#utility.yul\":8107:8110   */\n      dup2\n        /* \"#utility.yul\":8100:8110   */\n      swap1\n      pop\n        /* \"#utility.yul\":7719:8116   */\n      swap4\n      swap3\n      pop\n      pop\n      pop\n      jump\t// out\n        /* \"#utility.yul\":8122:8302   */\n    tag_126:\n        /* \"#utility.yul\":8170:8247   */\n      0x4e487b7100000000000000000000000000000000000000000000000000000000\n        /* \"#utility.yul\":8167:8168   */\n      0x00\n        /* \"#utility.yul\":8160:8248   */\n      mstore\n        /* \"#utility.yul\":8267:8271   */\n      0x32\n        /* \"#utility.yul\":8264:8265   */\n      0x04\n        /* \"#utility.yul\":8257:8272   */\n      mstore\n        /* \"#utility.yul\":8291:8295   */\n      0x24\n        /* \"#utility.yul\":8288:8289   */\n      0x00\n        /* \"#utility.yul\":8281:8296   */\n      revert\n        /* \"#utility.yul\":8308:8488   */\n    tag_265:\n        /* \"#utility.yul\":8356:8433   */\n      0x4e487b7100000000000000000000000000000000000000000000000000000000\n        /* \"#utility.yul\":8353:8354   */\n      0x00\n        /* \"#utility.yul\":8346:8434   */\n      mstore\n        /* \"#utility.yul\":8453:8457   */\n      0x12\n        /* \"#utility.yul\":8450:8451   */\n      0x04\n        /* \"#utility.yul\":8443:8458   */\n      mstore\n        /* \"#utility.yul\":8477:8481   */\n      0x24\n        /* \"#utility.yul\":8474:8475   */\n      0x00\n        /* \"#utility.yul\":8467:8482   */\n      revert\n        /* \"#utility.yul\":8494:8670   */\n    tag_130:\n        /* \"#utility.yul\":8526:8527   */\n      0x00\n        /* \"#utility.yul\":8543:8563   */\n      tag_370\n        /* \"#utility.yul\":8561:8562   */\n      dup3\n        /* \"#utility.yul\":8543:8563   */\n      tag_241\n      jump\t// in\n    tag_370:\n        /* \"#utility.yul\":8538:8563   */\n      swap2\n      pop\n        /* \"#utility.yul\":8577:8597   */\n      tag_371\n        /* \"#utility.yul\":8595:8596   */\n      dup4\n        /* \"#utility.yul\":8577:8597   */\n      tag_241\n      jump\t// in\n    tag_371:\n        /* \"#utility.yul\":8572:8597   */\n      swap3\n      pop\n        /* \"#utility.yul\":8616:8617   */\n      dup3\n        /* \"#utility.yul\":8606:8641   */\n      tag_372\n      jumpi\n        /* \"#utility.yul\":8621:8639   */\n      tag_373\n      tag_265\n      jump\t// in\n    tag_373:\n        /* \"#utility.yul\":8606:8641   */\n    tag_372:\n        /* \"#utility.yul\":8662:8663   */\n      dup3\n        /* \"#utility.yul\":8659:8660   */\n      dup3\n        /* \"#utility.yul\":8655:8664   */\n      mod\n        /* \"#utility.yul\":8650:8664   */\n      swap1\n      pop\n        /* \"#utility.yul\":8494:8670   */\n      swap3\n      swap2\n      pop\n      pop\n      jump\t// out\n        /* \"#utility.yul\":8676:8846   */\n    tag_266:\n        /* \"#utility.yul\":8816:8838   */\n      0x526573756c74206e6f742067656e657261746564000000000000000000000000\n        /* \"#utility.yul\":8812:8813   */\n      0x00\n        /* \"#utility.yul\":8804:8810   */\n      dup3\n        /* \"#utility.yul\":8800:8814   */\n      add\n        /* \"#utility.yul\":8793:8839   */\n      mstore\n        /* \"#utility.yul\":8676:8846   */\n      pop\n      jump\t// out\n        /* \"#utility.yul\":8852:9218   */\n    tag_267:\n        /* \"#utility.yul\":8994:8997   */\n      0x00\n        /* \"#utility.yul\":9015:9082   */\n      tag_376\n        /* \"#utility.yul\":9079:9081   */\n      0x14\n        /* \"#utility.yul\":9074:9077   */\n      dup4\n        /* \"#utility.yul\":9015:9082   */\n      tag_250\n      jump\t// in\n    tag_376:\n        /* \"#utility.yul\":9008:9082   */\n      swap2\n      pop\n        /* \"#utility.yul\":9091:9184   */\n      tag_377\n        /* \"#utility.yul\":9180:9183   */\n      dup3\n        /* \"#utility.yul\":9091:9184   */\n      tag_266\n      jump\t// in\n    tag_377:\n        /* \"#utility.yul\":9209:9211   */\n      0x20\n        /* \"#utility.yul\":9204:9207   */\n      dup3\n        /* \"#utility.yul\":9200:9212   */\n      add\n        /* \"#utility.yul\":9193:9212   */\n      swap1\n      pop\n        /* \"#utility.yul\":8852:9218   */\n      swap2\n      swap1\n      pop\n      jump\t// out\n        /* \"#utility.yul\":9224:9643   */\n    tag_137:\n        /* \"#utility.yul\":9390:9394   */\n      0x00\n        /* \"#utility.yul\":9428:9430   */\n      0x20\n        /* \"#utility.yul\":9417:9426   */\n      dup3\n        /* \"#utility.yul\":9413:9431   */\n      add\n        /* \"#utility.yul\":9405:9431   */\n      swap1\n      pop\n        /* \"#utility.yul\":9477:9486   */\n      dup2\n        /* \"#utility.yul\":9471:9475   */\n      dup2\n        /* \"#utility.yul\":9467:9487   */\n      sub\n        /* \"#utility.yul\":9463:9464   */\n      0x00\n        /* \"#utility.yul\":9452:9461   */\n      dup4\n        /* \"#utility.yul\":9448:9465   */\n      add\n        /* \"#utility.yul\":9441:9488   */\n      mstore\n        /* \"#utility.yul\":9505:9636   */\n      tag_379\n        /* \"#utility.yul\":9631:9635   */\n      dup2\n        /* \"#utility.yul\":9505:9636   */\n      tag_267\n      jump\t// in\n    tag_379:\n        /* \"#utility.yul\":9497:9636   */\n      swap1\n      pop\n        /* \"#utility.yul\":9224:9643   */\n      swap2\n      swap1\n      pop\n      jump\t// out\n        /* \"#utility.yul\":9649:9828   */\n    tag_268:\n        /* \"#utility.yul\":9789:9820   */\n      0x4f6e6c7920612076616c696461746f722063616e2076616c6964617465000000\n        /* \"#utility.yul\":9785:9786   */\n      0x00\n        /* \"#utility.yul\":9777:9783   */\n      dup3\n        /* \"#utility.yul\":9773:9787   */\n      add\n        /* \"#utility.yul\":9766:9821   */\n      mstore\n        /* \"#utility.yul\":9649:9828   */\n      pop\n      jump\t// out\n        /* \"#utility.yul\":9834:10200   */\n    tag_269:\n        /* \"#utility.yul\":9976:9979   */\n      0x00\n        /* \"#utility.yul\":9997:10064   */\n      tag_382\n        /* \"#utility.yul\":10061:10063   */\n      0x1d\n        /* \"#utility.yul\":10056:10059   */\n      dup4\n        /* \"#utility.yul\":9997:10064   */\n      tag_250\n      jump\t// in\n    tag_382:\n        /* \"#utility.yul\":9990:10064   */\n      swap2\n      pop\n        /* \"#utility.yul\":10073:10166   */\n      tag_383\n        /* \"#utility.yul\":10162:10165   */\n      dup3\n        /* \"#utility.yul\":10073:10166   */\n      tag_268\n      jump\t// in\n    tag_383:\n        /* \"#utility.yul\":10191:10193   */\n      0x20\n        /* \"#utility.yul\":10186:10189   */\n      dup3\n        /* \"#utility.yul\":10182:10194   */\n      add\n        /* \"#utility.yul\":10175:10194   */\n      swap1\n      pop\n        /* \"#utility.yul\":9834:10200   */\n      swap2\n      swap1\n      pop\n      jump\t// out\n        /* \"#utility.yul\":10206:10625   */\n    tag_142:\n        /* \"#utility.yul\":10372:10376   */\n      0x00\n        /* \"#utility.yul\":10410:10412   */\n      0x20\n        /* \"#utility.yul\":10399:10408   */\n      dup3\n        /* \"#utility.yul\":10395:10413   */\n      add\n        /* \"#utility.yul\":10387:10413   */\n      swap1\n      pop\n        /* \"#utility.yul\":10459:10468   */\n      dup2\n        /* \"#utility.yul\":10453:10457   */\n      dup2\n        /* \"#utility.yul\":10449:10469   */\n      sub\n        /* \"#utility.yul\":10445:10446   */\n      0x00\n        /* \"#utility.yul\":10434:10443   */\n      dup4\n        /* \"#utility.yul\":10430:10447   */\n      add\n        /* \"#utility.yul\":10423:10470   */\n      mstore\n        /* \"#utility.yul\":10487:10618   */\n      tag_385\n        /* \"#utility.yul\":10613:10617   */\n      dup2\n        /* \"#utility.yul\":10487:10618   */\n      tag_269\n      jump\t// in\n    tag_385:\n        /* \"#utility.yul\":10479:10618   */\n      swap1\n      pop\n        /* \"#utility.yul\":10206:10625   */\n      swap2\n      swap1\n      pop\n      jump\t// out\n        /* \"#utility.yul\":10631:10749   */\n    tag_270:\n        /* \"#utility.yul\":10718:10742   */\n      tag_387\n        /* \"#utility.yul\":10736:10741   */\n      dup2\n        /* \"#utility.yul\":10718:10742   */\n      tag_258\n      jump\t// in\n    tag_387:\n        /* \"#utility.yul\":10713:10716   */\n      dup3\n        /* \"#utility.yul\":10706:10743   */\n      mstore\n        /* \"#utility.yul\":10631:10749   */\n      pop\n      pop\n      jump\t// out\n        /* \"#utility.yul\":10755:11079   */\n    tag_145:\n        /* \"#utility.yul\":10872:10876   */\n      0x00\n        /* \"#utility.yul\":10910:10912   */\n      0x40\n        /* \"#utility.yul\":10899:10908   */\n      dup3\n        /* \"#utility.yul\":10895:10913   */\n      add\n        /* \"#utility.yul\":10887:10913   */\n      swap1\n      pop\n        /* \"#utility.yul\":10923:10990   */\n      tag_389\n        /* \"#utility.yul\":10987:10988   */\n      0x00\n        /* \"#utility.yul\":10976:10985   */\n      dup4\n        /* \"#utility.yul\":10972:10989   */\n      add\n        /* \"#utility.yul\":10963:10969   */\n      dup6\n        /* \"#utility.yul\":10923:10990   */\n      tag_237\n      jump\t// in\n    tag_389:\n        /* \"#utility.yul\":11000:11072   */\n      tag_390\n        /* \"#utility.yul\":11068:11070   */\n      0x20\n        /* \"#utility.yul\":11057:11066   */\n      dup4\n        /* \"#utility.yul\":11053:11071   */\n      add\n        /* \"#utility.yul\":11044:11050   */\n      dup5\n        /* \"#utility.yul\":11000:11072   */\n      tag_270\n      jump\t// in\n    tag_390:\n        /* \"#utility.yul\":10755:11079   */\n      swap4\n      swap3\n      pop\n      pop\n      pop\n      jump\t// out\n        /* \"#utility.yul\":11085:11252   */\n    tag_147:\n        /* \"#utility.yul\":11122:11125   */\n      0x00\n        /* \"#utility.yul\":11145:11167   */\n      tag_392\n        /* \"#utility.yul\":11161:11166   */\n      dup3\n        /* \"#utility.yul\":11145:11167   */\n      tag_236\n      jump\t// in\n    tag_392:\n        /* \"#utility.yul\":11136:11167   */\n      swap2\n      pop\n        /* \"#utility.yul\":11189:11193   */\n      0xff\n        /* \"#utility.yul\":11182:11187   */\n      dup3\n        /* \"#utility.yul\":11179:11194   */\n      sub\n        /* \"#utility.yul\":11176:11217   */\n      tag_393\n      jumpi\n        /* \"#utility.yul\":11197:11215   */\n      tag_394\n      tag_255\n      jump\t// in\n    tag_394:\n        /* \"#utility.yul\":11176:11217   */\n    tag_393:\n        /* \"#utility.yul\":11244:11245   */\n      0x01\n        /* \"#utility.yul\":11237:11242   */\n      dup3\n        /* \"#utility.yul\":11233:11246   */\n      add\n        /* \"#utility.yul\":11226:11246   */\n      swap1\n      pop\n        /* \"#utility.yul\":11085:11252   */\n      swap2\n      swap1\n      pop\n      jump\t// out\n        /* \"#utility.yul\":11258:11479   */\n    tag_271:\n        /* \"#utility.yul\":11398:11432   */\n      0x53746f72656420726573756c7420213d207265636f6d70757465642072657375\n        /* \"#utility.yul\":11394:11395   */\n      0x00\n        /* \"#utility.yul\":11386:11392   */\n      dup3\n        /* \"#utility.yul\":11382:11396   */\n      add\n        /* \"#utility.yul\":11375:11433   */\n      mstore\n        /* \"#utility.yul\":11467:11471   */\n      0x6c74000000000000000000000000000000000000000000000000000000000000\n        /* \"#utility.yul\":11462:11464   */\n      0x20\n        /* \"#utility.yul\":11454:11460   */\n      dup3\n        /* \"#utility.yul\":11450:11465   */\n      add\n        /* \"#utility.yul\":11443:11472   */\n      mstore\n        /* \"#utility.yul\":11258:11479   */\n      pop\n      jump\t// out\n        /* \"#utility.yul\":11485:11851   */\n    tag_272:\n        /* \"#utility.yul\":11627:11630   */\n      0x00\n        /* \"#utility.yul\":11648:11715   */\n      tag_397\n        /* \"#utility.yul\":11712:11714   */\n      0x22\n        /* \"#utility.yul\":11707:11710   */\n      dup4\n        /* \"#utility.yul\":11648:11715   */\n      tag_250\n      jump\t// in\n    tag_397:\n        /* \"#utility.yul\":11641:11715   */\n      swap2\n      pop\n        /* \"#utility.yul\":11724:11817   */\n      tag_398\n        /* \"#utility.yul\":11813:11816   */\n      dup3\n        /* \"#utility.yul\":11724:11817   */\n      tag_271\n      jump\t// in\n    tag_398:\n        /* \"#utility.yul\":11842:11844   */\n      0x40\n        /* \"#utility.yul\":11837:11840   */\n      dup3\n        /* \"#utility.yul\":11833:11845   */\n      add\n        /* \"#utility.yul\":11826:11845   */\n      swap1\n      pop\n        /* \"#utility.yul\":11485:11851   */\n      swap2\n      swap1\n      pop\n      jump\t// out\n        /* \"#utility.yul\":11857:12276   */\n    tag_163:\n        /* \"#utility.yul\":12023:12027   */\n      0x00\n        /* \"#utility.yul\":12061:12063   */\n      0x20\n        /* \"#utility.yul\":12050:12059   */\n      dup3\n        /* \"#utility.yul\":12046:12064   */\n      add\n        /* \"#utility.yul\":12038:12064   */\n      swap1\n      pop\n        /* \"#utility.yul\":12110:12119   */\n      dup2\n        /* \"#utility.yul\":12104:12108   */\n      dup2\n        /* \"#utility.yul\":12100:12120   */\n      sub\n        /* \"#utility.yul\":12096:12097   */\n      0x00\n        /* \"#utility.yul\":12085:12094   */\n      dup4\n        /* \"#utility.yul\":12081:12098   */\n      add\n        /* \"#utility.yul\":12074:12121   */\n      mstore\n        /* \"#utility.yul\":12138:12269   */\n      tag_400\n        /* \"#utility.yul\":12264:12268   */\n      dup2\n        /* \"#utility.yul\":12138:12269   */\n      tag_272\n      jump\t// in\n    tag_400:\n        /* \"#utility.yul\":12130:12269   */\n      swap1\n      pop\n        /* \"#utility.yul\":11857:12276   */\n      swap2\n      swap1\n      pop\n      jump\t// out\n        /* \"#utility.yul\":12282:12463   */\n    tag_273:\n        /* \"#utility.yul\":12422:12455   */\n      0x4e756d626572206d757374206265206265747765656e203020616e6420333700\n        /* \"#utility.yul\":12418:12419   */\n      0x00\n        /* \"#utility.yul\":12410:12416   */\n      dup3\n        /* \"#utility.yul\":12406:12420   */\n      add\n        /* \"#utility.yul\":12399:12456   */\n      mstore\n        /* \"#utility.yul\":12282:12463   */\n      pop\n      jump\t// out\n        /* \"#utility.yul\":12469:12835   */\n    tag_274:\n        /* \"#utility.yul\":12611:12614   */\n      0x00\n        /* \"#utility.yul\":12632:12699   */\n      tag_403\n        /* \"#utility.yul\":12696:12698   */\n      0x1f\n        /* \"#utility.yul\":12691:12694   */\n      dup4\n        /* \"#utility.yul\":12632:12699   */\n      tag_250\n      jump\t// in\n    tag_403:\n        /* \"#utility.yul\":12625:12699   */\n      swap2\n      pop\n        /* \"#utility.yul\":12708:12801   */\n      tag_404\n        /* \"#utility.yul\":12797:12800   */\n      dup3\n        /* \"#utility.yul\":12708:12801   */\n      tag_273\n      jump\t// in\n    tag_404:\n        /* \"#utility.yul\":12826:12828   */\n      0x20\n        /* \"#utility.yul\":12821:12824   */\n      dup3\n        /* \"#utility.yul\":12817:12829   */\n      add\n        /* \"#utility.yul\":12810:12829   */\n      swap1\n      pop\n        /* \"#utility.yul\":12469:12835   */\n      swap2\n      swap1\n      pop\n      jump\t// out\n        /* \"#utility.yul\":12841:13260   */\n    tag_169:\n        /* \"#utility.yul\":13007:13011   */\n      0x00\n        /* \"#utility.yul\":13045:13047   */\n      0x20\n        /* \"#utility.yul\":13034:13043   */\n      dup3\n        /* \"#utility.yul\":13030:13048   */\n      add\n        /* \"#utility.yul\":13022:13048   */\n      swap1\n      pop\n        /* \"#utility.yul\":13094:13103   */\n      dup2\n        /* \"#utility.yul\":13088:13092   */\n      dup2\n        /* \"#utility.yul\":13084:13104   */\n      sub\n        /* \"#utility.yul\":13080:13081   */\n      0x00\n        /* \"#utility.yul\":13069:13078   */\n      dup4\n        /* \"#utility.yul\":13065:13082   */\n      add\n        /* \"#utility.yul\":13058:13105   */\n      mstore\n        /* \"#utility.yul\":13122:13253   */\n      tag_406\n        /* \"#utility.yul\":13248:13252   */\n      dup2\n        /* \"#utility.yul\":13122:13253   */\n      tag_274\n      jump\t// in\n    tag_406:\n        /* \"#utility.yul\":13114:13253   */\n      swap1\n      pop\n        /* \"#utility.yul\":12841:13260   */\n      swap2\n      swap1\n      pop\n      jump\t// out\n        /* \"#utility.yul\":13266:13488   */\n    tag_275:\n        /* \"#utility.yul\":13406:13440   */\n      0x42657420616d6f756e742069732062656c6f7720746865206d696e696d756d20\n        /* \"#utility.yul\":13402:13403   */\n      0x00\n        /* \"#utility.yul\":13394:13400   */\n      dup3\n        /* \"#utility.yul\":13390:13404   */\n      add\n        /* \"#utility.yul\":13383:13441   */\n      mstore\n        /* \"#utility.yul\":13475:13480   */\n      0x6265740000000000000000000000000000000000000000000000000000000000\n        /* \"#utility.yul\":13470:13472   */\n      0x20\n        /* \"#utility.yul\":13462:13468   */\n      dup3\n        /* \"#utility.yul\":13458:13473   */\n      add\n        /* \"#utility.yul\":13451:13481   */\n      mstore\n        /* \"#utility.yul\":13266:13488   */\n      pop\n      jump\t// out\n        /* \"#utility.yul\":13494:13860   */\n    tag_276:\n        /* \"#utility.yul\":13636:13639   */\n      0x00\n        /* \"#utility.yul\":13657:13724   */\n      tag_409\n        /* \"#utility.yul\":13721:13723   */\n      0x23\n        /* \"#utility.yul\":13716:13719   */\n      dup4\n        /* \"#utility.yul\":13657:13724   */\n      tag_250\n      jump\t// in\n    tag_409:\n        /* \"#utility.yul\":13650:13724   */\n      swap2\n      pop\n        /* \"#utility.yul\":13733:13826   */\n      tag_410\n        /* \"#utility.yul\":13822:13825   */\n      dup3\n        /* \"#utility.yul\":13733:13826   */\n      tag_275\n      jump\t// in\n    tag_410:\n        /* \"#utility.yul\":13851:13853   */\n      0x40\n        /* \"#utility.yul\":13846:13849   */\n      dup3\n        /* \"#utility.yul\":13842:13854   */\n      add\n        /* \"#utility.yul\":13835:13854   */\n      swap1\n      pop\n        /* \"#utility.yul\":13494:13860   */\n      swap2\n      swap1\n      pop\n      jump\t// out\n        /* \"#utility.yul\":13866:14285   */\n    tag_172:\n        /* \"#utility.yul\":14032:14036   */\n      0x00\n        /* \"#utility.yul\":14070:14072   */\n      0x20\n        /* \"#utility.yul\":14059:14068   */\n      dup3\n        /* \"#utility.yul\":14055:14073   */\n      add\n        /* \"#utility.yul\":14047:14073   */\n      swap1\n      pop\n        /* \"#utility.yul\":14119:14128   */\n      dup2\n        /* \"#utility.yul\":14113:14117   */\n      dup2\n        /* \"#utility.yul\":14109:14129   */\n      sub\n        /* \"#utility.yul\":14105:14106   */\n      0x00\n        /* \"#utility.yul\":14094:14103   */\n      dup4\n        /* \"#utility.yul\":14090:14107   */\n      add\n        /* \"#utility.yul\":14083:14130   */\n      mstore\n        /* \"#utility.yul\":14147:14278   */\n      tag_412\n        /* \"#utility.yul\":14273:14277   */\n      dup2\n        /* \"#utility.yul\":14147:14278   */\n      tag_276\n      jump\t// in\n    tag_412:\n        /* \"#utility.yul\":14139:14278   */\n      swap1\n      pop\n        /* \"#utility.yul\":13866:14285   */\n      swap2\n      swap1\n      pop\n      jump\t// out\n        /* \"#utility.yul\":14291:14615   */\n    tag_175:\n        /* \"#utility.yul\":14408:14412   */\n      0x00\n        /* \"#utility.yul\":14446:14448   */\n      0x40\n        /* \"#utility.yul\":14435:14444   */\n      dup3\n        /* \"#utility.yul\":14431:14449   */\n      add\n        /* \"#utility.yul\":14423:14449   */\n      swap1\n      pop\n        /* \"#utility.yul\":14459:14526   */\n      tag_414\n        /* \"#utility.yul\":14523:14524   */\n      0x00\n        /* \"#utility.yul\":14512:14521   */\n      dup4\n        /* \"#utility.yul\":14508:14525   */\n      add\n        /* \"#utility.yul\":14499:14505   */\n      dup6\n        /* \"#utility.yul\":14459:14526   */\n      tag_237\n      jump\t// in\n    tag_414:\n        /* \"#utility.yul\":14536:14608   */\n      tag_415\n        /* \"#utility.yul\":14604:14606   */\n      0x20\n        /* \"#utility.yul\":14593:14602   */\n      dup4\n        /* \"#utility.yul\":14589:14607   */\n      add\n        /* \"#utility.yul\":14580:14586   */\n      dup5\n        /* \"#utility.yul\":14536:14608   */\n      tag_247\n      jump\t// in\n    tag_415:\n        /* \"#utility.yul\":14291:14615   */\n      swap4\n      swap3\n      pop\n      pop\n      pop\n      jump\t// out\n        /* \"#utility.yul\":14621:14795   */\n    tag_277:\n        /* \"#utility.yul\":14761:14787   */\n      0x526573756c74206e6f742076616c696461746564207965740000000000000000\n        /* \"#utility.yul\":14757:14758   */\n      0x00\n        /* \"#utility.yul\":14749:14755   */\n      dup3\n        /* \"#utility.yul\":14745:14759   */\n      add\n        /* \"#utility.yul\":14738:14788   */\n      mstore\n        /* \"#utility.yul\":14621:14795   */\n      pop\n      jump\t// out\n        /* \"#utility.yul\":14801:15167   */\n    tag_278:\n        /* \"#utility.yul\":14943:14946   */\n      0x00\n        /* \"#utility.yul\":14964:15031   */\n      tag_418\n        /* \"#utility.yul\":15028:15030   */\n      0x18\n        /* \"#utility.yul\":15023:15026   */\n      dup4\n        /* \"#utility.yul\":14964:15031   */\n      tag_250\n      jump\t// in\n    tag_418:\n        /* \"#utility.yul\":14957:15031   */\n      swap2\n      pop\n        /* \"#utility.yul\":15040:15133   */\n      tag_419\n        /* \"#utility.yul\":15129:15132   */\n      dup3\n        /* \"#utility.yul\":15040:15133   */\n      tag_277\n      jump\t// in\n    tag_419:\n        /* \"#utility.yul\":15158:15160   */\n      0x20\n        /* \"#utility.yul\":15153:15156   */\n      dup3\n        /* \"#utility.yul\":15149:15161   */\n      add\n        /* \"#utility.yul\":15142:15161   */\n      swap1\n      pop\n        /* \"#utility.yul\":14801:15167   */\n      swap2\n      swap1\n      pop\n      jump\t// out\n        /* \"#utility.yul\":15173:15592   */\n    tag_182:\n        /* \"#utility.yul\":15339:15343   */\n      0x00\n        /* \"#utility.yul\":15377:15379   */\n      0x20\n        /* \"#utility.yul\":15366:15375   */\n      dup3\n        /* \"#utility.yul\":15362:15380   */\n      add\n        /* \"#utility.yul\":15354:15380   */\n      swap1\n      pop\n        /* \"#utility.yul\":15426:15435   */\n      dup2\n        /* \"#utility.yul\":15420:15424   */\n      dup2\n        /* \"#utility.yul\":15416:15436   */\n      sub\n        /* \"#utility.yul\":15412:15413   */\n      0x00\n        /* \"#utility.yul\":15401:15410   */\n      dup4\n        /* \"#utility.yul\":15397:15414   */\n      add\n        /* \"#utility.yul\":15390:15437   */\n      mstore\n        /* \"#utility.yul\":15454:15585   */\n      tag_421\n        /* \"#utility.yul\":15580:15584   */\n      dup2\n        /* \"#utility.yul\":15454:15585   */\n      tag_278\n      jump\t// in\n    tag_421:\n        /* \"#utility.yul\":15446:15585   */\n      swap1\n      pop\n        /* \"#utility.yul\":15173:15592   */\n      swap2\n      swap1\n      pop\n      jump\t// out\n        /* \"#utility.yul\":15598:16008   */\n    tag_194:\n        /* \"#utility.yul\":15638:15645   */\n      0x00\n        /* \"#utility.yul\":15661:15681   */\n      tag_423\n        /* \"#utility.yul\":15679:15680   */\n      dup3\n        /* \"#utility.yul\":15661:15681   */\n      tag_241\n      jump\t// in\n    tag_423:\n        /* \"#utility.yul\":15656:15681   */\n      swap2\n      pop\n        /* \"#utility.yul\":15695:15715   */\n      tag_424\n        /* \"#utility.yul\":15713:15714   */\n      dup4\n        /* \"#utility.yul\":15695:15715   */\n      tag_241\n      jump\t// in\n    tag_424:\n        /* \"#utility.yul\":15690:15715   */\n      swap3\n      pop\n        /* \"#utility.yul\":15750:15751   */\n      dup3\n        /* \"#utility.yul\":15747:15748   */\n      dup3\n        /* \"#utility.yul\":15743:15752   */\n      mul\n        /* \"#utility.yul\":15772:15802   */\n      tag_425\n        /* \"#utility.yul\":15790:15801   */\n      dup2\n        /* \"#utility.yul\":15772:15802   */\n      tag_241\n      jump\t// in\n    tag_425:\n        /* \"#utility.yul\":15761:15802   */\n      swap2\n      pop\n        /* \"#utility.yul\":15951:15952   */\n      dup3\n        /* \"#utility.yul\":15942:15949   */\n      dup3\n        /* \"#utility.yul\":15938:15953   */\n      div\n        /* \"#utility.yul\":15935:15936   */\n      dup5\n        /* \"#utility.yul\":15932:15954   */\n      eq\n        /* \"#utility.yul\":15912:15913   */\n      dup4\n        /* \"#utility.yul\":15905:15914   */\n      iszero\n        /* \"#utility.yul\":15885:15968   */\n      or\n        /* \"#utility.yul\":15862:16001   */\n      tag_426\n      jumpi\n        /* \"#utility.yul\":15981:15999   */\n      tag_427\n      tag_255\n      jump\t// in\n    tag_427:\n        /* \"#utility.yul\":15862:16001   */\n    tag_426:\n        /* \"#utility.yul\":15646:16008   */\n      pop\n        /* \"#utility.yul\":15598:16008   */\n      swap3\n      swap2\n      pop\n      pop\n      jump\t// out\n        /* \"#utility.yul\":16014:16186   */\n    tag_279:\n        /* \"#utility.yul\":16154:16178   */\n      0x4465706f736974206973206e6f7420616c6c6f77656400000000000000000000\n        /* \"#utility.yul\":16150:16151   */\n      0x00\n        /* \"#utility.yul\":16142:16148   */\n      dup3\n        /* \"#utility.yul\":16138:16152   */\n      add\n        /* \"#utility.yul\":16131:16179   */\n      mstore\n        /* \"#utility.yul\":16014:16186   */\n      pop\n      jump\t// out\n        /* \"#utility.yul\":16192:16558   */\n    tag_280:\n        /* \"#utility.yul\":16334:16337   */\n      0x00\n        /* \"#utility.yul\":16355:16422   */\n      tag_430\n        /* \"#utility.yul\":16419:16421   */\n      0x16\n        /* \"#utility.yul\":16414:16417   */\n      dup4\n        /* \"#utility.yul\":16355:16422   */\n      tag_250\n      jump\t// in\n    tag_430:\n        /* \"#utility.yul\":16348:16422   */\n      swap2\n      pop\n        /* \"#utility.yul\":16431:16524   */\n      tag_431\n        /* \"#utility.yul\":16520:16523   */\n      dup3\n        /* \"#utility.yul\":16431:16524   */\n      tag_279\n      jump\t// in\n    tag_431:\n        /* \"#utility.yul\":16549:16551   */\n      0x20\n        /* \"#utility.yul\":16544:16547   */\n      dup3\n        /* \"#utility.yul\":16540:16552   */\n      add\n        /* \"#utility.yul\":16533:16552   */\n      swap1\n      pop\n        /* \"#utility.yul\":16192:16558   */\n      swap2\n      swap1\n      pop\n      jump\t// out\n        /* \"#utility.yul\":16564:16983   */\n    tag_215:\n        /* \"#utility.yul\":16730:16734   */\n      0x00\n        /* \"#utility.yul\":16768:16770   */\n      0x20\n        /* \"#utility.yul\":16757:16766   */\n      dup3\n        /* \"#utility.yul\":16753:16771   */\n      add\n        /* \"#utility.yul\":16745:16771   */\n      swap1\n      pop\n        /* \"#utility.yul\":16817:16826   */\n      dup2\n        /* \"#utility.yul\":16811:16815   */\n      dup2\n        /* \"#utility.yul\":16807:16827   */\n      sub\n        /* \"#utility.yul\":16803:16804   */\n      0x00\n        /* \"#utility.yul\":16792:16801   */\n      dup4\n        /* \"#utility.yul\":16788:16805   */\n      add\n        /* \"#utility.yul\":16781:16828   */\n      mstore\n        /* \"#utility.yul\":16845:16976   */\n      tag_433\n        /* \"#utility.yul\":16971:16975   */\n      dup2\n        /* \"#utility.yul\":16845:16976   */\n      tag_280\n      jump\t// in\n    tag_433:\n        /* \"#utility.yul\":16837:16976   */\n      swap1\n      pop\n        /* \"#utility.yul\":16564:16983   */\n      swap2\n      swap1\n      pop\n      jump\t// out\n        /* \"#utility.yul\":16989:17160   */\n    tag_281:\n        /* \"#utility.yul\":17129:17152   */\n      0x4f6e6c7920686f73742063616e206465706f7369740000000000000000000000\n        /* \"#utility.yul\":17125:17126   */\n      0x00\n        /* \"#utility.yul\":17117:17123   */\n      dup3\n        /* \"#utility.yul\":17113:17127   */\n      add\n        /* \"#utility.yul\":17106:17153   */\n      mstore\n        /* \"#utility.yul\":16989:17160   */\n      pop\n      jump\t// out\n        /* \"#utility.yul\":17166:17532   */\n    tag_282:\n        /* \"#utility.yul\":17308:17311   */\n      0x00\n        /* \"#utility.yul\":17329:17396   */\n      tag_436\n        /* \"#utility.yul\":17393:17395   */\n      0x15\n        /* \"#utility.yul\":17388:17391   */\n      dup4\n        /* \"#utility.yul\":17329:17396   */\n      tag_250\n      jump\t// in\n    tag_436:\n        /* \"#utility.yul\":17322:17396   */\n      swap2\n      pop\n        /* \"#utility.yul\":17405:17498   */\n      tag_437\n        /* \"#utility.yul\":17494:17497   */\n      dup3\n        /* \"#utility.yul\":17405:17498   */\n      tag_281\n      jump\t// in\n    tag_437:\n        /* \"#utility.yul\":17523:17525   */\n      0x20\n        /* \"#utility.yul\":17518:17521   */\n      dup3\n        /* \"#utility.yul\":17514:17526   */\n      add\n        /* \"#utility.yul\":17507:17526   */\n      swap1\n      pop\n        /* \"#utility.yul\":17166:17532   */\n      swap2\n      swap1\n      pop\n      jump\t// out\n        /* \"#utility.yul\":17538:17957   */\n    tag_218:\n        /* \"#utility.yul\":17704:17708   */\n      0x00\n        /* \"#utility.yul\":17742:17744   */\n      0x20\n        /* \"#utility.yul\":17731:17740   */\n      dup3\n        /* \"#utility.yul\":17727:17745   */\n      add\n        /* \"#utility.yul\":17719:17745   */\n      swap1\n      pop\n        /* \"#utility.yul\":17791:17800   */\n      dup2\n        /* \"#utility.yul\":17785:17789   */\n      dup2\n        /* \"#utility.yul\":17781:17801   */\n      sub\n        /* \"#utility.yul\":17777:17778   */\n      0x00\n        /* \"#utility.yul\":17766:17775   */\n      dup4\n        /* \"#utility.yul\":17762:17779   */\n      add\n        /* \"#utility.yul\":17755:17802   */\n      mstore\n        /* \"#utility.yul\":17819:17950   */\n      tag_439\n        /* \"#utility.yul\":17945:17949   */\n      dup2\n        /* \"#utility.yul\":17819:17950   */\n      tag_282\n      jump\t// in\n    tag_439:\n        /* \"#utility.yul\":17811:17950   */\n      swap1\n      pop\n        /* \"#utility.yul\":17538:17957   */\n      swap2\n      swap1\n      pop\n      jump\t// out\n\n    auxdata: 0xa264697066735822122083ad9d92d2f17766f11a37656200016ecc3965272d5f34337d85b5d534a2fead64736f6c634300081a0033\n}\n",
				"bytecode": {
					"linkReferences": {},
					"object": "608060405234801561000f575f80fd5b50604051611fde380380611fde8339818101604052810190610031919061038e565b825f806101000a81548173ffffffffffffffffffffffffffffffffffffffff021916908373ffffffffffffffffffffffffffffffffffffffff160217905550816001819055505f60025f6101000a81548160ff021916908360ff16021790555080600690805190602001906100a79291906100fe565b508273ffffffffffffffffffffffffffffffffffffffff167f306841c3fce8498c2d9b7194b8da4c04d03847394e237b625ce6d029b107f077836040516100ee9190610409565b60405180910390a2505050610422565b828054828255905f5260205f20908101928215610174579160200282015b82811115610173578251825f6101000a81548173ffffffffffffffffffffffffffffffffffffffff021916908373ffffffffffffffffffffffffffffffffffffffff1602179055509160200191906001019061011c565b5b5090506101819190610185565b5090565b5b8082111561019c575f815f905550600101610186565b5090565b5f604051905090565b5f80fd5b5f80fd5b5f73ffffffffffffffffffffffffffffffffffffffff82169050919050565b5f6101da826101b1565b9050919050565b6101ea816101d0565b81146101f4575f80fd5b50565b5f81519050610205816101e1565b92915050565b5f819050919050565b61021d8161020b565b8114610227575f80fd5b50565b5f8151905061023881610214565b92915050565b5f80fd5b5f601f19601f8301169050919050565b7f4e487b71000000000000000000000000000000000000000000000000000000005f52604160045260245ffd5b61028882610242565b810181811067ffffffffffffffff821117156102a7576102a6610252565b5b80604052505050565b5f6102b96101a0565b90506102c5828261027f565b919050565b5f67ffffffffffffffff8211156102e4576102e3610252565b5b602082029050602081019050919050565b5f80fd5b5f61030b610306846102ca565b6102b0565b9050808382526020820190506020840283018581111561032e5761032d6102f5565b5b835b81811015610357578061034388826101f7565b845260208401935050602081019050610330565b5050509392505050565b5f82601f8301126103755761037461023e565b5b81516103858482602086016102f9565b91505092915050565b5f805f606084860312156103a5576103a46101a9565b5b5f6103b2868287016101f7565b93505060206103c38682870161022a565b925050604084015167ffffffffffffffff8111156103e4576103e36101ad565b5b6103f086828701610361565b9150509250925092565b6104038161020b565b82525050565b5f60208201905061041c5f8301846103fa565b92915050565b611baf8061042f5f395ff3fe608060405260043610610113575f3560e01c8063653721471161009f5780639619367d116100635780639619367d146103195780639fb7ffec14610343578063d0e30db01461037f578063d1edb09e14610389578063f437bc59146103b357610113565b8063653721471461025b5780636f91a66f1461028557806387171eb7146102af5780638c7e347a146102d95780638e4bf8201461030357610113565b806322af00fa116100e657806322af00fa146101975780632e5b2168146101d557806338cceb4f146101ff57806343046844146102155780634e69d5601461023157610113565b806311b5f220146101175780631b2abc77146101415780631dbe2e0e14610157578063200d2ed21461016d575b5f80fd5b348015610122575f80fd5b5061012b6103dd565b60405161013891906112d7565b60405180910390f35b34801561014c575f80fd5b506101556103f0565b005b348015610162575f80fd5b5061016b6104a3565b005b348015610178575f80fd5b50610181610760565b60405161018e91906112d7565b60405180910390f35b3480156101a2575f80fd5b506101bd60048036038101906101b89190611327565b610772565b6040516101cc939291906113a0565b60405180910390f35b3480156101e0575f80fd5b506101e96107d2565b6040516101f691906113d5565b60405180910390f35b34801561020a575f80fd5b506102136107d8565b005b61022f600480360381019061022a9190611418565b610b0f565b005b34801561023c575f80fd5b50610245610cc2565b60405161025291906112d7565b60405180910390f35b348015610266575f80fd5b5061026f610cd7565b60405161027c91906112d7565b60405180910390f35b348015610290575f80fd5b50610299610ce9565b6040516102a691906113d5565b60405180910390f35b3480156102ba575f80fd5b506102c3610cef565b6040516102d091906113d5565b60405180910390f35b3480156102e4575f80fd5b506102ed610cf5565b6040516102fa91906113d5565b60405180910390f35b34801561030e575f80fd5b50610317610d01565b005b348015610324575f80fd5b5061032d61100e565b60405161033a91906113d5565b60405180910390f35b34801561034e575f80fd5b5061036960048036038101906103649190611327565b611014565b6040516103769190611443565b60405180910390f35b61038761104f565b005b348015610394575f80fd5b5061039d61119d565b6040516103aa91906113d5565b60405180910390f35b3480156103be575f80fd5b506103c76111f7565b6040516103d49190611443565b60405180910390f35b600560019054906101000a900460ff1681565b600160ff1660025f9054906101000a900460ff1660ff1614610447576040517f08c379a000000000000000000000000000000000000000000000000000000000815260040161043e906114b6565b60405180910390fd5b6002805f6101000a81548160ff021916908360ff160217905550436004819055507f2d21e9397283a99c7f2df56baf635aab0655f2dea12185fac963ac115be30f9360045460405161049991906113d5565b60405180910390a1565b600260ff1660025f9054906101000a900460ff1660ff16146104fa576040517f08c379a00000000000000000000000000000000000000000000000000000000081526004016104f1906114b6565b60405180910390fd5b5f8054906101000a900473ffffffffffffffffffffffffffffffffffffffff1673ffffffffffffffffffffffffffffffffffffffff163373ffffffffffffffffffffffffffffffffffffffff1614610587576040517f08c379a000000000000000000000000000000000000000000000000000000000815260040161057e9061151e565b60405180910390fd5b6001600c60ff1660045461059b9190611569565b6105a59190611569565b4310156105e7576040517f08c379a00000000000000000000000000000000000000000000000000000000081526004016105de906115e6565b60405180910390fd5b5f60016004546105f79190611569565b409050805f8054906101000a900473ffffffffffffffffffffffffffffffffffffffff1660405160200161062c929190611672565b6040516020818303038152906040528051906020012090505f5b6003805490508110156106cc5781600382815481106106685761066761169d565b5b905f5260205f2090600202015f015f9054906101000a900473ffffffffffffffffffffffffffffffffffffffff166040516020016106a7929190611672565b6040516020818303038152906040528051906020012091508080600101915050610646565b505f815f1c9050602660ff16816106e391906116f7565b60055f6101000a81548160ff021916908360ff160217905550600360025f6101000a81548160ff021916908360ff1602179055507f4898f0a86e5d5b202a6285b46db8e265f964e837829f7d6bf7d1c072c6b88c0960055f9054906101000a900460ff1660405161075491906112d7565b60405180910390a15050565b60025f9054906101000a900460ff1681565b60038181548110610781575f80fd5b905f5260205f2090600202015f91509050805f015f9054906101000a900473ffffffffffffffffffffffffffffffffffffffff1690805f0160149054906101000a900460ff16908060010154905083565b60085481565b600360ff1660025f9054906101000a900460ff1660ff161461082f576040517f08c379a000000000000000000000000000000000000000000000000000000000815260040161082690611771565b60405180910390fd5b6108383361121a565b610877576040517f08c379a000000000000000000000000000000000000000000000000000000000815260040161086e906117d9565b60405180910390fd5b5f600190505f600160045461088c9190611569565b4090507fd6563290bf7bc3a22c95984b79cc8231683e052b83821643bd749f758dac19aa82826040516108c0929190611806565b60405180910390a181806108d39061182d565b925050805f8054906101000a900473ffffffffffffffffffffffffffffffffffffffff16604051602001610908929190611672565b6040516020818303038152906040528051906020012090507fd6563290bf7bc3a22c95984b79cc8231683e052b83821643bd749f758dac19aa8282604051610951929190611806565b60405180910390a181806109649061182d565b9250505f5b600380549050811015610a3657816003828154811061098b5761098a61169d565b5b905f5260205f2090600202015f015f9054906101000a900473ffffffffffffffffffffffffffffffffffffffff166040516020016109ca929190611672565b6040516020818303038152906040528051906020012091507fd6563290bf7bc3a22c95984b79cc8231683e052b83821643bd749f758dac19aa8383604051610a13929190611806565b60405180910390a18280610a269061182d565b9350508080600101915050610969565b505f602660ff16825f1c610a4a91906116f7565b905060055f9054906101000a900460ff1660ff168160ff1614610aa2576040517f08c379a0000000000000000000000000000000000000000000000000000000008152600401610a99906118c5565b60405180910390fd5b7f5f438d100d0c0fb18e88113110bf411fd18c9a557c03e394cd32997b5055f9ae60055f9054906101000a900460ff16604051610adf91906112d7565b60405180910390a1600460025f6101000a81548160ff021916908360ff160217905550610b0a610d01565b505050565b60258160ff161115610b56576040517f08c379a0000000000000000000000000000000000000000000000000000000008152600401610b4d9061192d565b60405180910390fd5b600154341015610b9b576040517f08c379a0000000000000000000000000000000000000000000000000000000008152600401610b92906119bb565b60405180910390fd5b600360405180606001604052803373ffffffffffffffffffffffffffffffffffffffff1681526020018360ff16815260200134815250908060018154018082558091505060019003905f5260205f2090600202015f909190919091505f820151815f015f6101000a81548173ffffffffffffffffffffffffffffffffffffffff021916908373ffffffffffffffffffffffffffffffffffffffff1602179055506020820151815f0160146101000a81548160ff021916908360ff1602179055506040820151816001015550503373ffffffffffffffffffffffffffffffffffffffff167f9f6b4cced64244a64465098f682029975b1614400b96bc6bd12c6680837191668234604051610caf9291906119d9565b60405180910390a2610cbf6103f0565b50565b5f60025f9054906101000a900460ff16905090565b60055f9054906101000a900460ff1681565b60045481565b60075481565b5f600380549050905090565b600460ff1660025f9054906101000a900460ff1660ff1614610d58576040517f08c379a0000000000000000000000000000000000000000000000000000000008152600401610d4f90611a4a565b60405180910390fd5b5f5b600380549050811015610f3b5760055f9054906101000a900460ff1660ff1660038281548110610d8d57610d8c61169d565b5b905f5260205f2090600202015f0160149054906101000a900460ff1660ff1603610f2e575f602560ff1660038381548110610dcb57610dca61169d565b5b905f5260205f20906002020160010154610de59190611a68565b905060038281548110610dfb57610dfa61169d565b5b905f5260205f2090600202015f015f9054906101000a900473ffffffffffffffffffffffffffffffffffffffff1673ffffffffffffffffffffffffffffffffffffffff166108fc8290811502906040515f60405180830381858888f19350505050158015610e6b573d5f803e3d5ffd5b5060038281548110610e8057610e7f61169d565b5b905f5260205f2090600202015f015f9054906101000a900473ffffffffffffffffffffffffffffffffffffffff1673ffffffffffffffffffffffffffffffffffffffff167ffeb6d77d8663b36b3393e8790540b4ebe73ade87f3146e450022712344dc7b3b60038481548110610ef957610ef861169d565b5b905f5260205f2090600202015f0160149054906101000a900460ff1683604051610f249291906119d9565b60405180910390a2505b8080600101915050610d5a565b505f8054906101000a900473ffffffffffffffffffffffffffffffffffffffff1673ffffffffffffffffffffffffffffffffffffffff167fd4ba6fec82d9b0e8ffe50b9fed9e4be3b25c984ce1e0e016405a5528726e8a2c47604051610fa191906113d5565b60405180910390a25f8054906101000a900473ffffffffffffffffffffffffffffffffffffffff1673ffffffffffffffffffffffffffffffffffffffff166108fc4790811502906040515f60405180830381858888f1935050505015801561100b573d5f803e3d5ffd5b50565b60015481565b60068181548110611023575f80fd5b905f5260205f20015f915054906101000a900473ffffffffffffffffffffffffffffffffffffffff1681565b5f60ff1660025f9054906101000a900460ff1660ff16146110a5576040517f08c379a000000000000000000000000000000000000000000000000000000000815260040161109c90611af3565b60405180910390fd5b5f8054906101000a900473ffffffffffffffffffffffffffffffffffffffff1673ffffffffffffffffffffffffffffffffffffffff163373ffffffffffffffffffffffffffffffffffffffff1614611132576040517f08c379a000000000000000000000000000000000000000000000000000000000815260040161112990611b5b565b60405180910390fd5b600160025f6101000a81548160ff021916908360ff1602179055503373ffffffffffffffffffffffffffffffffffffffff167f5a6c38b61cfc87b08186ec74738f787ec19c78c75b5b70442f580362abd96d293460405161119391906113d5565b60405180910390a2565b5f805f90505f5b6003805490508110156111ef57600381815481106111c5576111c461169d565b5b905f5260205f20906002020160010154826111e09190611569565b915080806001019150506111a4565b508091505090565b5f8054906101000a900473ffffffffffffffffffffffffffffffffffffffff1681565b5f805f90505b6006805490508110156112b2578273ffffffffffffffffffffffffffffffffffffffff16600682815481106112585761125761169d565b5b905f5260205f20015f9054906101000a900473ffffffffffffffffffffffffffffffffffffffff1673ffffffffffffffffffffffffffffffffffffffff16036112a55760019150506112b7565b8080600101915050611220565b505f90505b919050565b5f60ff82169050919050565b6112d1816112bc565b82525050565b5f6020820190506112ea5f8301846112c8565b92915050565b5f80fd5b5f819050919050565b611306816112f4565b8114611310575f80fd5b50565b5f81359050611321816112fd565b92915050565b5f6020828403121561133c5761133b6112f0565b5b5f61134984828501611313565b91505092915050565b5f73ffffffffffffffffffffffffffffffffffffffff82169050919050565b5f61137b82611352565b9050919050565b61138b81611371565b82525050565b61139a816112f4565b82525050565b5f6060820190506113b35f830186611382565b6113c060208301856112c8565b6113cd6040830184611391565b949350505050565b5f6020820190506113e85f830184611391565b92915050565b6113f7816112bc565b8114611401575f80fd5b50565b5f81359050611412816113ee565b92915050565b5f6020828403121561142d5761142c6112f0565b5b5f61143a84828501611404565b91505092915050565b5f6020820190506114565f830184611382565b92915050565b5f82825260208201905092915050565b7f4e6f206d6f7265206265747320616c6c6f7765640000000000000000000000005f82015250565b5f6114a060148361145c565b91506114ab8261146c565b602082019050919050565b5f6020820190508181035f8301526114cd81611494565b9050919050565b7f4f6e6c7920686f73742063616e2067656e657261746520726573756c740000005f82015250565b5f611508601d8361145c565b9150611513826114d4565b602082019050919050565b5f6020820190508181035f830152611535816114fc565b9050919050565b7f4e487b71000000000000000000000000000000000000000000000000000000005f52601160045260245ffd5b5f611573826112f4565b915061157e836112f4565b92508282019050808211156115965761159561153c565b5b92915050565b7f426c6f636b206e756d626572206e6f74207265616368656400000000000000005f82015250565b5f6115d060188361145c565b91506115db8261159c565b602082019050919050565b5f6020820190508181035f8301526115fd816115c4565b9050919050565b5f819050919050565b5f819050919050565b61162761162282611604565b61160d565b82525050565b5f8160601b9050919050565b5f6116438261162d565b9050919050565b5f61165482611639565b9050919050565b61166c61166782611371565b61164a565b82525050565b5f61167d8285611616565b60208201915061168d828461165b565b6014820191508190509392505050565b7f4e487b71000000000000000000000000000000000000000000000000000000005f52603260045260245ffd5b7f4e487b71000000000000000000000000000000000000000000000000000000005f52601260045260245ffd5b5f611701826112f4565b915061170c836112f4565b92508261171c5761171b6116ca565b5b828206905092915050565b7f526573756c74206e6f742067656e6572617465640000000000000000000000005f82015250565b5f61175b60148361145c565b915061176682611727565b602082019050919050565b5f6020820190508181035f8301526117888161174f565b9050919050565b7f4f6e6c7920612076616c696461746f722063616e2076616c69646174650000005f82015250565b5f6117c3601d8361145c565b91506117ce8261178f565b602082019050919050565b5f6020820190508181035f8301526117f0816117b7565b9050919050565b61180081611604565b82525050565b5f6040820190506118195f8301856112c8565b61182660208301846117f7565b9392505050565b5f611837826112bc565b915060ff820361184a5761184961153c565b5b600182019050919050565b7f53746f72656420726573756c7420213d207265636f6d707574656420726573755f8201527f6c74000000000000000000000000000000000000000000000000000000000000602082015250565b5f6118af60228361145c565b91506118ba82611855565b604082019050919050565b5f6020820190508181035f8301526118dc816118a3565b9050919050565b7f4e756d626572206d757374206265206265747765656e203020616e64203337005f82015250565b5f611917601f8361145c565b9150611922826118e3565b602082019050919050565b5f6020820190508181035f8301526119448161190b565b9050919050565b7f42657420616d6f756e742069732062656c6f7720746865206d696e696d756d205f8201527f6265740000000000000000000000000000000000000000000000000000000000602082015250565b5f6119a560238361145c565b91506119b08261194b565b604082019050919050565b5f6020820190508181035f8301526119d281611999565b9050919050565b5f6040820190506119ec5f8301856112c8565b6119f96020830184611391565b9392505050565b7f526573756c74206e6f742076616c6964617465642079657400000000000000005f82015250565b5f611a3460188361145c565b9150611a3f82611a00565b602082019050919050565b5f6020820190508181035f830152611a6181611a28565b9050919050565b5f611a72826112f4565b9150611a7d836112f4565b9250828202611a8b816112f4565b91508282048414831517611aa257611aa161153c565b5b5092915050565b7f4465706f736974206973206e6f7420616c6c6f776564000000000000000000005f82015250565b5f611add60168361145c565b9150611ae882611aa9565b602082019050919050565b5f6020820190508181035f830152611b0a81611ad1565b9050919050565b7f4f6e6c7920686f73742063616e206465706f73697400000000000000000000005f82015250565b5f611b4560158361145c565b9150611b5082611b11565b602082019050919050565b5f6020820190508181035f830152611b7281611b39565b905091905056fea264697066735822122083ad9d92d2f17766f11a37656200016ecc3965272d5f34337d85b5d534a2fead64736f6c634300081a0033",
					"opcodes": "PUSH1 0x80 PUSH1 0x40 MSTORE CALLVALUE DUP1 ISZERO PUSH2 0xF JUMPI PUSH0 DUP1 REVERT JUMPDEST POP PUSH1 0x40 MLOAD PUSH2 0x1FDE CODESIZE SUB DUP1 PUSH2 0x1FDE DUP4 CODECOPY DUP2 DUP2 ADD PUSH1 0x40 MSTORE DUP2 ADD SWAP1 PUSH2 0x31 SWAP2 SWAP1 PUSH2 0x38E JUMP JUMPDEST DUP3 PUSH0 DUP1 PUSH2 0x100 EXP DUP2 SLOAD DUP2 PUSH20 0xFFFFFFFFFFFFFFFFFFFFFFFFFFFFFFFFFFFFFFFF MUL NOT AND SWAP1 DUP4 PUSH20 0xFFFFFFFFFFFFFFFFFFFFFFFFFFFFFFFFFFFFFFFF AND MUL OR SWAP1 SSTORE POP DUP2 PUSH1 0x1 DUP2 SWAP1 SSTORE POP PUSH0 PUSH1 0x2 PUSH0 PUSH2 0x100 EXP DUP2 SLOAD DUP2 PUSH1 0xFF MUL NOT AND SWAP1 DUP4 PUSH1 0xFF AND MUL OR SWAP1 SSTORE POP DUP1 PUSH1 0x6 SWAP1 DUP1 MLOAD SWAP1 PUSH1 0x20 ADD SWAP1 PUSH2 0xA7 SWAP3 SWAP2 SWAP1 PUSH2 0xFE JUMP JUMPDEST POP DUP3 PUSH20 0xFFFFFFFFFFFFFFFFFFFFFFFFFFFFFFFFFFFFFFFF AND PUSH32 0x306841C3FCE8498C2D9B7194B8DA4C04D03847394E237B625CE6D029B107F077 DUP4 PUSH1 0x40 MLOAD PUSH2 0xEE SWAP2 SWAP1 PUSH2 0x409 JUMP JUMPDEST PUSH1 0x40 MLOAD DUP1 SWAP2 SUB SWAP1 LOG2 POP POP POP PUSH2 0x422 JUMP JUMPDEST DUP3 DUP1 SLOAD DUP3 DUP3 SSTORE SWAP1 PUSH0 MSTORE PUSH1 0x20 PUSH0 KECCAK256 SWAP1 DUP2 ADD SWAP3 DUP3 ISZERO PUSH2 0x174 JUMPI SWAP2 PUSH1 0x20 MUL DUP3 ADD JUMPDEST DUP3 DUP2 GT ISZERO PUSH2 0x173 JUMPI DUP3 MLOAD DUP3 PUSH0 PUSH2 0x100 EXP DUP2 SLOAD DUP2 PUSH20 0xFFFFFFFFFFFFFFFFFFFFFFFFFFFFFFFFFFFFFFFF MUL NOT AND SWAP1 DUP4 PUSH20 0xFFFFFFFFFFFFFFFFFFFFFFFFFFFFFFFFFFFFFFFF AND MUL OR SWAP1 SSTORE POP SWAP2 PUSH1 0x20 ADD SWAP2 SWAP1 PUSH1 0x1 ADD SWAP1 PUSH2 0x11C JUMP JUMPDEST JUMPDEST POP SWAP1 POP PUSH2 0x181 SWAP2 SWAP1 PUSH2 0x185 JUMP JUMPDEST POP SWAP1 JUMP JUMPDEST JUMPDEST DUP1 DUP3 GT ISZERO PUSH2 0x19C JUMPI PUSH0 DUP2 PUSH0 SWAP1 SSTORE POP PUSH1 0x1 ADD PUSH2 0x186 JUMP JUMPDEST POP SWAP1 JUMP JUMPDEST PUSH0 PUSH1 0x40 MLOAD SWAP1 POP SWAP1 JUMP JUMPDEST PUSH0 DUP1 REVERT JUMPDEST PUSH0 DUP1 REVERT JUMPDEST PUSH0 PUSH20 0xFFFFFFFFFFFFFFFFFFFFFFFFFFFFFFFFFFFFFFFF DUP3 AND SWAP1 POP SWAP2 SWAP1 POP JUMP JUMPDEST PUSH0 PUSH2 0x1DA DUP3 PUSH2 0x1B1 JUMP JUMPDEST SWAP1 POP SWAP2 SWAP1 POP JUMP JUMPDEST PUSH2 0x1EA DUP2 PUSH2 0x1D0 JUMP JUMPDEST DUP2 EQ PUSH2 0x1F4 JUMPI PUSH0 DUP1 REVERT JUMPDEST POP JUMP JUMPDEST PUSH0 DUP2 MLOAD SWAP1 POP PUSH2 0x205 DUP2 PUSH2 0x1E1 JUMP JUMPDEST SWAP3 SWAP2 POP POP JUMP JUMPDEST PUSH0 DUP2 SWAP1 POP SWAP2 SWAP1 POP JUMP JUMPDEST PUSH2 0x21D DUP2 PUSH2 0x20B JUMP JUMPDEST DUP2 EQ PUSH2 0x227 JUMPI PUSH0 DUP1 REVERT JUMPDEST POP JUMP JUMPDEST PUSH0 DUP2 MLOAD SWAP1 POP PUSH2 0x238 DUP2 PUSH2 0x214 JUMP JUMPDEST SWAP3 SWAP2 POP POP JUMP JUMPDEST PUSH0 DUP1 REVERT JUMPDEST PUSH0 PUSH1 0x1F NOT PUSH1 0x1F DUP4 ADD AND SWAP1 POP SWAP2 SWAP1 POP JUMP JUMPDEST PUSH32 0x4E487B7100000000000000000000000000000000000000000000000000000000 PUSH0 MSTORE PUSH1 0x41 PUSH1 0x4 MSTORE PUSH1 0x24 PUSH0 REVERT JUMPDEST PUSH2 0x288 DUP3 PUSH2 0x242 JUMP JUMPDEST DUP2 ADD DUP2 DUP2 LT PUSH8 0xFFFFFFFFFFFFFFFF DUP3 GT OR ISZERO PUSH2 0x2A7 JUMPI PUSH2 0x2A6 PUSH2 0x252 JUMP JUMPDEST JUMPDEST DUP1 PUSH1 0x40 MSTORE POP POP POP JUMP JUMPDEST PUSH0 PUSH2 0x2B9 PUSH2 0x1A0 JUMP JUMPDEST SWAP1 POP PUSH2 0x2C5 DUP3 DUP3 PUSH2 0x27F JUMP JUMPDEST SWAP2 SWAP1 POP JUMP JUMPDEST PUSH0 PUSH8 0xFFFFFFFFFFFFFFFF DUP3 GT ISZERO PUSH2 0x2E4 JUMPI PUSH2 0x2E3 PUSH2 0x252 JUMP JUMPDEST JUMPDEST PUSH1 0x20 DUP3 MUL SWAP1 POP PUSH1 0x20 DUP2 ADD SWAP1 POP SWAP2 SWAP1 POP JUMP JUMPDEST PUSH0 DUP1 REVERT JUMPDEST PUSH0 PUSH2 0x30B PUSH2 0x306 DUP5 PUSH2 0x2CA JUMP JUMPDEST PUSH2 0x2B0 JUMP JUMPDEST SWAP1 POP DUP1 DUP4 DUP3 MSTORE PUSH1 0x20 DUP3 ADD SWAP1 POP PUSH1 0x20 DUP5 MUL DUP4 ADD DUP6 DUP2 GT ISZERO PUSH2 0x32E JUMPI PUSH2 0x32D PUSH2 0x2F5 JUMP JUMPDEST JUMPDEST DUP4 JUMPDEST DUP2 DUP2 LT ISZERO PUSH2 0x357 JUMPI DUP1 PUSH2 0x343 DUP9 DUP3 PUSH2 0x1F7 JUMP JUMPDEST DUP5 MSTORE PUSH1 0x20 DUP5 ADD SWAP4 POP POP PUSH1 0x20 DUP2 ADD SWAP1 POP PUSH2 0x330 JUMP JUMPDEST POP POP POP SWAP4 SWAP3 POP POP POP JUMP JUMPDEST PUSH0 DUP3 PUSH1 0x1F DUP4 ADD SLT PUSH2 0x375 JUMPI PUSH2 0x374 PUSH2 0x23E JUMP JUMPDEST JUMPDEST DUP2 MLOAD PUSH2 0x385 DUP5 DUP3 PUSH1 0x20 DUP7 ADD PUSH2 0x2F9 JUMP JUMPDEST SWAP2 POP POP SWAP3 SWAP2 POP POP JUMP JUMPDEST PUSH0 DUP1 PUSH0 PUSH1 0x60 DUP5 DUP7 SUB SLT ISZERO PUSH2 0x3A5 JUMPI PUSH2 0x3A4 PUSH2 0x1A9 JUMP JUMPDEST JUMPDEST PUSH0 PUSH2 0x3B2 DUP7 DUP3 DUP8 ADD PUSH2 0x1F7 JUMP JUMPDEST SWAP4 POP POP PUSH1 0x20 PUSH2 0x3C3 DUP7 DUP3 DUP8 ADD PUSH2 0x22A JUMP JUMPDEST SWAP3 POP POP PUSH1 0x40 DUP5 ADD MLOAD PUSH8 0xFFFFFFFFFFFFFFFF DUP2 GT ISZERO PUSH2 0x3E4 JUMPI PUSH2 0x3E3 PUSH2 0x1AD JUMP JUMPDEST JUMPDEST PUSH2 0x3F0 DUP7 DUP3 DUP8 ADD PUSH2 0x361 JUMP JUMPDEST SWAP2 POP POP SWAP3 POP SWAP3 POP SWAP3 JUMP JUMPDEST PUSH2 0x403 DUP2 PUSH2 0x20B JUMP JUMPDEST DUP3 MSTORE POP POP JUMP JUMPDEST PUSH0 PUSH1 0x20 DUP3 ADD SWAP1 POP PUSH2 0x41C PUSH0 DUP4 ADD DUP5 PUSH2 0x3FA JUMP JUMPDEST SWAP3 SWAP2 POP POP JUMP JUMPDEST PUSH2 0x1BAF DUP1 PUSH2 0x42F PUSH0 CODECOPY PUSH0 RETURN INVALID PUSH1 0x80 PUSH1 0x40 MSTORE PUSH1 0x4 CALLDATASIZE LT PUSH2 0x113 JUMPI PUSH0 CALLDATALOAD PUSH1 0xE0 SHR DUP1 PUSH4 0x65372147 GT PUSH2 0x9F JUMPI DUP1 PUSH4 0x9619367D GT PUSH2 0x63 JUMPI DUP1 PUSH4 0x9619367D EQ PUSH2 0x319 JUMPI DUP1 PUSH4 0x9FB7FFEC EQ PUSH2 0x343 JUMPI DUP1 PUSH4 0xD0E30DB0 EQ PUSH2 0x37F JUMPI DUP1 PUSH4 0xD1EDB09E EQ PUSH2 0x389 JUMPI DUP1 PUSH4 0xF437BC59 EQ PUSH2 0x3B3 JUMPI PUSH2 0x113 JUMP JUMPDEST DUP1 PUSH4 0x65372147 EQ PUSH2 0x25B JUMPI DUP1 PUSH4 0x6F91A66F EQ PUSH2 0x285 JUMPI DUP1 PUSH4 0x87171EB7 EQ PUSH2 0x2AF JUMPI DUP1 PUSH4 0x8C7E347A EQ PUSH2 0x2D9 JUMPI DUP1 PUSH4 0x8E4BF820 EQ PUSH2 0x303 JUMPI PUSH2 0x113 JUMP JUMPDEST DUP1 PUSH4 0x22AF00FA GT PUSH2 0xE6 JUMPI DUP1 PUSH4 0x22AF00FA EQ PUSH2 0x197 JUMPI DUP1 PUSH4 0x2E5B2168 EQ PUSH2 0x1D5 JUMPI DUP1 PUSH4 0x38CCEB4F EQ PUSH2 0x1FF JUMPI DUP1 PUSH4 0x43046844 EQ PUSH2 0x215 JUMPI DUP1 PUSH4 0x4E69D560 EQ PUSH2 0x231 JUMPI PUSH2 0x113 JUMP JUMPDEST DUP1 PUSH4 0x11B5F220 EQ PUSH2 0x117 JUMPI DUP1 PUSH4 0x1B2ABC77 EQ PUSH2 0x141 JUMPI DUP1 PUSH4 0x1DBE2E0E EQ PUSH2 0x157 JUMPI DUP1 PUSH4 0x200D2ED2 EQ PUSH2 0x16D JUMPI JUMPDEST PUSH0 DUP1 REVERT JUMPDEST CALLVALUE DUP1 ISZERO PUSH2 0x122 JUMPI PUSH0 DUP1 REVERT JUMPDEST POP PUSH2 0x12B PUSH2 0x3DD JUMP JUMPDEST PUSH1 0x40 MLOAD PUSH2 0x138 SWAP2 SWAP1 PUSH2 0x12D7 JUMP JUMPDEST PUSH1 0x40 MLOAD DUP1 SWAP2 SUB SWAP1 RETURN JUMPDEST CALLVALUE DUP1 ISZERO PUSH2 0x14C JUMPI PUSH0 DUP1 REVERT JUMPDEST POP PUSH2 0x155 PUSH2 0x3F0 JUMP JUMPDEST STOP JUMPDEST CALLVALUE DUP1 ISZERO PUSH2 0x162 JUMPI PUSH0 DUP1 REVERT JUMPDEST POP PUSH2 0x16B PUSH2 0x4A3 JUMP JUMPDEST STOP JUMPDEST CALLVALUE DUP1 ISZERO PUSH2 0x178 JUMPI PUSH0 DUP1 REVERT JUMPDEST POP PUSH2 0x181 PUSH2 0x760 JUMP JUMPDEST PUSH1 0x40 MLOAD PUSH2 0x18E SWAP2 SWAP1 PUSH2 0x12D7 JUMP JUMPDEST PUSH1 0x40 MLOAD DUP1 SWAP2 SUB SWAP1 RETURN JUMPDEST CALLVALUE DUP1 ISZERO PUSH2 0x1A2 JUMPI PUSH0 DUP1 REVERT JUMPDEST POP PUSH2 0x1BD PUSH1 0x4 DUP1 CALLDATASIZE SUB DUP2 ADD SWAP1 PUSH2 0x1B8 SWAP2 SWAP1 PUSH2 0x1327 JUMP JUMPDEST PUSH2 0x772 JUMP JUMPDEST PUSH1 0x40 MLOAD PUSH2 0x1CC SWAP4 SWAP3 SWAP2 SWAP1 PUSH2 0x13A0 JUMP JUMPDEST PUSH1 0x40 MLOAD DUP1 SWAP2 SUB SWAP1 RETURN JUMPDEST CALLVALUE DUP1 ISZERO PUSH2 0x1E0 JUMPI PUSH0 DUP1 REVERT JUMPDEST POP PUSH2 0x1E9 PUSH2 0x7D2 JUMP JUMPDEST PUSH1 0x40 MLOAD PUSH2 0x1F6 SWAP2 SWAP1 PUSH2 0x13D5 JUMP JUMPDEST PUSH1 0x40 MLOAD DUP1 SWAP2 SUB SWAP1 RETURN JUMPDEST CALLVALUE DUP1 ISZERO PUSH2 0x20A JUMPI PUSH0 DUP1 REVERT JUMPDEST POP PUSH2 0x213 PUSH2 0x7D8 JUMP JUMPDEST STOP JUMPDEST PUSH2 0x22F PUSH1 0x4 DUP1 CALLDATASIZE SUB DUP2 ADD SWAP1 PUSH2 0x22A SWAP2 SWAP1 PUSH2 0x1418 JUMP JUMPDEST PUSH2 0xB0F JUMP JUMPDEST STOP JUMPDEST CALLVALUE DUP1 ISZERO PUSH2 0x23C JUMPI PUSH0 DUP1 REVERT JUMPDEST POP PUSH2 0x245 PUSH2 0xCC2 JUMP JUMPDEST PUSH1 0x40 MLOAD PUSH2 0x252 SWAP2 SWAP1 PUSH2 0x12D7 JUMP JUMPDEST PUSH1 0x40 MLOAD DUP1 SWAP2 SUB SWAP1 RETURN JUMPDEST CALLVALUE DUP1 ISZERO PUSH2 0x266 JUMPI PUSH0 DUP1 REVERT JUMPDEST POP PUSH2 0x26F PUSH2 0xCD7 JUMP JUMPDEST PUSH1 0x40 MLOAD PUSH2 0x27C SWAP2 SWAP1 PUSH2 0x12D7 JUMP JUMPDEST PUSH1 0x40 MLOAD DUP1 SWAP2 SUB SWAP1 RETURN JUMPDEST CALLVALUE DUP1 ISZERO PUSH2 0x290 JUMPI PUSH0 DUP1 REVERT JUMPDEST POP PUSH2 0x299 PUSH2 0xCE9 JUMP JUMPDEST PUSH1 0x40 MLOAD PUSH2 0x2A6 SWAP2 SWAP1 PUSH2 0x13D5 JUMP JUMPDEST PUSH1 0x40 MLOAD DUP1 SWAP2 SUB SWAP1 RETURN JUMPDEST CALLVALUE DUP1 ISZERO PUSH2 0x2BA JUMPI PUSH0 DUP1 REVERT JUMPDEST POP PUSH2 0x2C3 PUSH2 0xCEF JUMP JUMPDEST PUSH1 0x40 MLOAD PUSH2 0x2D0 SWAP2 SWAP1 PUSH2 0x13D5 JUMP JUMPDEST PUSH1 0x40 MLOAD DUP1 SWAP2 SUB SWAP1 RETURN JUMPDEST CALLVALUE DUP1 ISZERO PUSH2 0x2E4 JUMPI PUSH0 DUP1 REVERT JUMPDEST POP PUSH2 0x2ED PUSH2 0xCF5 JUMP JUMPDEST PUSH1 0x40 MLOAD PUSH2 0x2FA SWAP2 SWAP1 PUSH2 0x13D5 JUMP JUMPDEST PUSH1 0x40 MLOAD DUP1 SWAP2 SUB SWAP1 RETURN JUMPDEST CALLVALUE DUP1 ISZERO PUSH2 0x30E JUMPI PUSH0 DUP1 REVERT JUMPDEST POP PUSH2 0x317 PUSH2 0xD01 JUMP JUMPDEST STOP JUMPDEST CALLVALUE DUP1 ISZERO PUSH2 0x324 JUMPI PUSH0 DUP1 REVERT JUMPDEST POP PUSH2 0x32D PUSH2 0x100E JUMP JUMPDEST PUSH1 0x40 MLOAD PUSH2 0x33A SWAP2 SWAP1 PUSH2 0x13D5 JUMP JUMPDEST PUSH1 0x40 MLOAD DUP1 SWAP2 SUB SWAP1 RETURN JUMPDEST CALLVALUE DUP1 ISZERO PUSH2 0x34E JUMPI PUSH0 DUP1 REVERT JUMPDEST POP PUSH2 0x369 PUSH1 0x4 DUP1 CALLDATASIZE SUB DUP2 ADD SWAP1 PUSH2 0x364 SWAP2 SWAP1 PUSH2 0x1327 JUMP JUMPDEST PUSH2 0x1014 JUMP JUMPDEST PUSH1 0x40 MLOAD PUSH2 0x376 SWAP2 SWAP1 PUSH2 0x1443 JUMP JUMPDEST PUSH1 0x40 MLOAD DUP1 SWAP2 SUB SWAP1 RETURN JUMPDEST PUSH2 0x387 PUSH2 0x104F JUMP JUMPDEST STOP JUMPDEST CALLVALUE DUP1 ISZERO PUSH2 0x394 JUMPI PUSH0 DUP1 REVERT JUMPDEST POP PUSH2 0x39D PUSH2 0x119D JUMP JUMPDEST PUSH1 0x40 MLOAD PUSH2 0x3AA SWAP2 SWAP1 PUSH2 0x13D5 JUMP JUMPDEST PUSH1 0x40 MLOAD DUP1 SWAP2 SUB SWAP1 RETURN JUMPDEST CALLVALUE DUP1 ISZERO PUSH2 0x3BE JUMPI PUSH0 DUP1 REVERT JUMPDEST POP PUSH2 0x3C7 PUSH2 0x11F7 JUMP JUMPDEST PUSH1 0x40 MLOAD PUSH2 0x3D4 SWAP2 SWAP1 PUSH2 0x1443 JUMP JUMPDEST PUSH1 0x40 MLOAD DUP1 SWAP2 SUB SWAP1 RETURN JUMPDEST PUSH1 0x5 PUSH1 0x1 SWAP1 SLOAD SWAP1 PUSH2 0x100 EXP SWAP1 DIV PUSH1 0xFF AND DUP2 JUMP JUMPDEST PUSH1 0x1 PUSH1 0xFF AND PUSH1 0x2 PUSH0 SWAP1 SLOAD SWAP1 PUSH2 0x100 EXP SWAP1 DIV PUSH1 0xFF AND PUSH1 0xFF AND EQ PUSH2 0x447 JUMPI PUSH1 0x40 MLOAD PUSH32 0x8C379A000000000000000000000000000000000000000000000000000000000 DUP2 MSTORE PUSH1 0x4 ADD PUSH2 0x43E SWAP1 PUSH2 0x14B6 JUMP JUMPDEST PUSH1 0x40 MLOAD DUP1 SWAP2 SUB SWAP1 REVERT JUMPDEST PUSH1 0x2 DUP1 PUSH0 PUSH2 0x100 EXP DUP2 SLOAD DUP2 PUSH1 0xFF MUL NOT AND SWAP1 DUP4 PUSH1 0xFF AND MUL OR SWAP1 SSTORE POP NUMBER PUSH1 0x4 DUP2 SWAP1 SSTORE POP PUSH32 0x2D21E9397283A99C7F2DF56BAF635AAB0655F2DEA12185FAC963AC115BE30F93 PUSH1 0x4 SLOAD PUSH1 0x40 MLOAD PUSH2 0x499 SWAP2 SWAP1 PUSH2 0x13D5 JUMP JUMPDEST PUSH1 0x40 MLOAD DUP1 SWAP2 SUB SWAP1 LOG1 JUMP JUMPDEST PUSH1 0x2 PUSH1 0xFF AND PUSH1 0x2 PUSH0 SWAP1 SLOAD SWAP1 PUSH2 0x100 EXP SWAP1 DIV PUSH1 0xFF AND PUSH1 0xFF AND EQ PUSH2 0x4FA JUMPI PUSH1 0x40 MLOAD PUSH32 0x8C379A000000000000000000000000000000000000000000000000000000000 DUP2 MSTORE PUSH1 0x4 ADD PUSH2 0x4F1 SWAP1 PUSH2 0x14B6 JUMP JUMPDEST PUSH1 0x40 MLOAD DUP1 SWAP2 SUB SWAP1 REVERT JUMPDEST PUSH0 DUP1 SLOAD SWAP1 PUSH2 0x100 EXP SWAP1 DIV PUSH20 0xFFFFFFFFFFFFFFFFFFFFFFFFFFFFFFFFFFFFFFFF AND PUSH20 0xFFFFFFFFFFFFFFFFFFFFFFFFFFFFFFFFFFFFFFFF AND CALLER PUSH20 0xFFFFFFFFFFFFFFFFFFFFFFFFFFFFFFFFFFFFFFFF AND EQ PUSH2 0x587 JUMPI PUSH1 0x40 MLOAD PUSH32 0x8C379A000000000000000000000000000000000000000000000000000000000 DUP2 MSTORE PUSH1 0x4 ADD PUSH2 0x57E SWAP1 PUSH2 0x151E JUMP JUMPDEST PUSH1 0x40 MLOAD DUP1 SWAP2 SUB SWAP1 REVERT JUMPDEST PUSH1 0x1 PUSH1 0xC PUSH1 0xFF AND PUSH1 0x4 SLOAD PUSH2 0x59B SWAP2 SWAP1 PUSH2 0x1569 JUMP JUMPDEST PUSH2 0x5A5 SWAP2 SWAP1 PUSH2 0x1569 JUMP JUMPDEST NUMBER LT ISZERO PUSH2 0x5E7 JUMPI PUSH1 0x40 MLOAD PUSH32 0x8C379A000000000000000000000000000000000000000000000000000000000 DUP2 MSTORE PUSH1 0x4 ADD PUSH2 0x5DE SWAP1 PUSH2 0x15E6 JUMP JUMPDEST PUSH1 0x40 MLOAD DUP1 SWAP2 SUB SWAP1 REVERT JUMPDEST PUSH0 PUSH1 0x1 PUSH1 0x4 SLOAD PUSH2 0x5F7 SWAP2 SWAP1 PUSH2 0x1569 JUMP JUMPDEST BLOCKHASH SWAP1 POP DUP1 PUSH0 DUP1 SLOAD SWAP1 PUSH2 0x100 EXP SWAP1 DIV PUSH20 0xFFFFFFFFFFFFFFFFFFFFFFFFFFFFFFFFFFFFFFFF AND PUSH1 0x40 MLOAD PUSH1 0x20 ADD PUSH2 0x62C SWAP3 SWAP2 SWAP1 PUSH2 0x1672 JUMP JUMPDEST PUSH1 0x40 MLOAD PUSH1 0x20 DUP2 DUP4 SUB SUB DUP2 MSTORE SWAP1 PUSH1 0x40 MSTORE DUP1 MLOAD SWAP1 PUSH1 0x20 ADD KECCAK256 SWAP1 POP PUSH0 JUMPDEST PUSH1 0x3 DUP1 SLOAD SWAP1 POP DUP2 LT ISZERO PUSH2 0x6CC JUMPI DUP2 PUSH1 0x3 DUP3 DUP2 SLOAD DUP2 LT PUSH2 0x668 JUMPI PUSH2 0x667 PUSH2 0x169D JUMP JUMPDEST JUMPDEST SWAP1 PUSH0 MSTORE PUSH1 0x20 PUSH0 KECCAK256 SWAP1 PUSH1 0x2 MUL ADD PUSH0 ADD PUSH0 SWAP1 SLOAD SWAP1 PUSH2 0x100 EXP SWAP1 DIV PUSH20 0xFFFFFFFFFFFFFFFFFFFFFFFFFFFFFFFFFFFFFFFF AND PUSH1 0x40 MLOAD PUSH1 0x20 ADD PUSH2 0x6A7 SWAP3 SWAP2 SWAP1 PUSH2 0x1672 JUMP JUMPDEST PUSH1 0x40 MLOAD PUSH1 0x20 DUP2 DUP4 SUB SUB DUP2 MSTORE SWAP1 PUSH1 0x40 MSTORE DUP1 MLOAD SWAP1 PUSH1 0x20 ADD KECCAK256 SWAP2 POP DUP1 DUP1 PUSH1 0x1 ADD SWAP2 POP POP PUSH2 0x646 JUMP JUMPDEST POP PUSH0 DUP2 PUSH0 SHR SWAP1 POP PUSH1 0x26 PUSH1 0xFF AND DUP2 PUSH2 0x6E3 SWAP2 SWAP1 PUSH2 0x16F7 JUMP JUMPDEST PUSH1 0x5 PUSH0 PUSH2 0x100 EXP DUP2 SLOAD DUP2 PUSH1 0xFF MUL NOT AND SWAP1 DUP4 PUSH1 0xFF AND MUL OR SWAP1 SSTORE POP PUSH1 0x3 PUSH1 0x2 PUSH0 PUSH2 0x100 EXP DUP2 SLOAD DUP2 PUSH1 0xFF MUL NOT AND SWAP1 DUP4 PUSH1 0xFF AND MUL OR SWAP1 SSTORE POP PUSH32 0x4898F0A86E5D5B202A6285B46DB8E265F964E837829F7D6BF7D1C072C6B88C09 PUSH1 0x5 PUSH0 SWAP1 SLOAD SWAP1 PUSH2 0x100 EXP SWAP1 DIV PUSH1 0xFF AND PUSH1 0x40 MLOAD PUSH2 0x754 SWAP2 SWAP1 PUSH2 0x12D7 JUMP JUMPDEST PUSH1 0x40 MLOAD DUP1 SWAP2 SUB SWAP1 LOG1 POP POP JUMP JUMPDEST PUSH1 0x2 PUSH0 SWAP1 SLOAD SWAP1 PUSH2 0x100 EXP SWAP1 DIV PUSH1 0xFF AND DUP2 JUMP JUMPDEST PUSH1 0x3 DUP2 DUP2 SLOAD DUP2 LT PUSH2 0x781 JUMPI PUSH0 DUP1 REVERT JUMPDEST SWAP1 PUSH0 MSTORE PUSH1 0x20 PUSH0 KECCAK256 SWAP1 PUSH1 0x2 MUL ADD PUSH0 SWAP2 POP SWAP1 POP DUP1 PUSH0 ADD PUSH0 SWAP1 SLOAD SWAP1 PUSH2 0x100 EXP SWAP1 DIV PUSH20 0xFFFFFFFFFFFFFFFFFFFFFFFFFFFFFFFFFFFFFFFF AND SWAP1 DUP1 PUSH0 ADD PUSH1 0x14 SWAP1 SLOAD SWAP1 PUSH2 0x100 EXP SWAP1 DIV PUSH1 0xFF AND SWAP1 DUP1 PUSH1 0x1 ADD SLOAD SWAP1 POP DUP4 JUMP JUMPDEST PUSH1 0x8 SLOAD DUP2 JUMP JUMPDEST PUSH1 0x3 PUSH1 0xFF AND PUSH1 0x2 PUSH0 SWAP1 SLOAD SWAP1 PUSH2 0x100 EXP SWAP1 DIV PUSH1 0xFF AND PUSH1 0xFF AND EQ PUSH2 0x82F JUMPI PUSH1 0x40 MLOAD PUSH32 0x8C379A000000000000000000000000000000000000000000000000000000000 DUP2 MSTORE PUSH1 0x4 ADD PUSH2 0x826 SWAP1 PUSH2 0x1771 JUMP JUMPDEST PUSH1 0x40 MLOAD DUP1 SWAP2 SUB SWAP1 REVERT JUMPDEST PUSH2 0x838 CALLER PUSH2 0x121A JUMP JUMPDEST PUSH2 0x877 JUMPI PUSH1 0x40 MLOAD PUSH32 0x8C379A000000000000000000000000000000000000000000000000000000000 DUP2 MSTORE PUSH1 0x4 ADD PUSH2 0x86E SWAP1 PUSH2 0x17D9 JUMP JUMPDEST PUSH1 0x40 MLOAD DUP1 SWAP2 SUB SWAP1 REVERT JUMPDEST PUSH0 PUSH1 0x1 SWAP1 POP PUSH0 PUSH1 0x1 PUSH1 0x4 SLOAD PUSH2 0x88C SWAP2 SWAP1 PUSH2 0x1569 JUMP JUMPDEST BLOCKHASH SWAP1 POP PUSH32 0xD6563290BF7BC3A22C95984B79CC8231683E052B83821643BD749F758DAC19AA DUP3 DUP3 PUSH1 0x40 MLOAD PUSH2 0x8C0 SWAP3 SWAP2 SWAP1 PUSH2 0x1806 JUMP JUMPDEST PUSH1 0x40 MLOAD DUP1 SWAP2 SUB SWAP1 LOG1 DUP2 DUP1 PUSH2 0x8D3 SWAP1 PUSH2 0x182D JUMP JUMPDEST SWAP3 POP POP DUP1 PUSH0 DUP1 SLOAD SWAP1 PUSH2 0x100 EXP SWAP1 DIV PUSH20 0xFFFFFFFFFFFFFFFFFFFFFFFFFFFFFFFFFFFFFFFF AND PUSH1 0x40 MLOAD PUSH1 0x20 ADD PUSH2 0x908 SWAP3 SWAP2 SWAP1 PUSH2 0x1672 JUMP JUMPDEST PUSH1 0x40 MLOAD PUSH1 0x20 DUP2 DUP4 SUB SUB DUP2 MSTORE SWAP1 PUSH1 0x40 MSTORE DUP1 MLOAD SWAP1 PUSH1 0x20 ADD KECCAK256 SWAP1 POP PUSH32 0xD6563290BF7BC3A22C95984B79CC8231683E052B83821643BD749F758DAC19AA DUP3 DUP3 PUSH1 0x40 MLOAD PUSH2 0x951 SWAP3 SWAP2 SWAP1 PUSH2 0x1806 JUMP JUMPDEST PUSH1 0x40 MLOAD DUP1 SWAP2 SUB SWAP1 LOG1 DUP2 DUP1 PUSH2 0x964 SWAP1 PUSH2 0x182D JUMP JUMPDEST SWAP3 POP POP PUSH0 JUMPDEST PUSH1 0x3 DUP1 SLOAD SWAP1 POP DUP2 LT ISZERO PUSH2 0xA36 JUMPI DUP2 PUSH1 0x3 DUP3 DUP2 SLOAD DUP2 LT PUSH2 0x98B JUMPI PUSH2 0x98A PUSH2 0x169D JUMP JUMPDEST JUMPDEST SWAP1 PUSH0 MSTORE PUSH1 0x20 PUSH0 KECCAK256 SWAP1 PUSH1 0x2 MUL ADD PUSH0 ADD PUSH0 SWAP1 SLOAD SWAP1 PUSH2 0x100 EXP SWAP1 DIV PUSH20 0xFFFFFFFFFFFFFFFFFFFFFFFFFFFFFFFFFFFFFFFF AND PUSH1 0x40 MLOAD PUSH1 0x20 ADD PUSH2 0x9CA SWAP3 SWAP2 SWAP1 PUSH2 0x1672 JUMP JUMPDEST PUSH1 0x40 MLOAD PUSH1 0x20 DUP2 DUP4 SUB SUB DUP2 MSTORE SWAP1 PUSH1 0x40 MSTORE DUP1 MLOAD SWAP1 PUSH1 0x20 ADD KECCAK256 SWAP2 POP PUSH32 0xD6563290BF7BC3A22C95984B79CC8231683E052B83821643BD749F758DAC19AA DUP4 DUP4 PUSH1 0x40 MLOAD PUSH2 0xA13 SWAP3 SWAP2 SWAP1 PUSH2 0x1806 JUMP JUMPDEST PUSH1 0x40 MLOAD DUP1 SWAP2 SUB SWAP1 LOG1 DUP3 DUP1 PUSH2 0xA26 SWAP1 PUSH2 0x182D JUMP JUMPDEST SWAP4 POP POP DUP1 DUP1 PUSH1 0x1 ADD SWAP2 POP POP PUSH2 0x969 JUMP JUMPDEST POP PUSH0 PUSH1 0x26 PUSH1 0xFF AND DUP3 PUSH0 SHR PUSH2 0xA4A SWAP2 SWAP1 PUSH2 0x16F7 JUMP JUMPDEST SWAP1 POP PUSH1 0x5 PUSH0 SWAP1 SLOAD SWAP1 PUSH2 0x100 EXP SWAP1 DIV PUSH1 0xFF AND PUSH1 0xFF AND DUP2 PUSH1 0xFF AND EQ PUSH2 0xAA2 JUMPI PUSH1 0x40 MLOAD PUSH32 0x8C379A000000000000000000000000000000000000000000000000000000000 DUP2 MSTORE PUSH1 0x4 ADD PUSH2 0xA99 SWAP1 PUSH2 0x18C5 JUMP JUMPDEST PUSH1 0x40 MLOAD DUP1 SWAP2 SUB SWAP1 REVERT JUMPDEST PUSH32 0x5F438D100D0C0FB18E88113110BF411FD18C9A557C03E394CD32997B5055F9AE PUSH1 0x5 PUSH0 SWAP1 SLOAD SWAP1 PUSH2 0x100 EXP SWAP1 DIV PUSH1 0xFF AND PUSH1 0x40 MLOAD PUSH2 0xADF SWAP2 SWAP1 PUSH2 0x12D7 JUMP JUMPDEST PUSH1 0x40 MLOAD DUP1 SWAP2 SUB SWAP1 LOG1 PUSH1 0x4 PUSH1 0x2 PUSH0 PUSH2 0x100 EXP DUP2 SLOAD DUP2 PUSH1 0xFF MUL NOT AND SWAP1 DUP4 PUSH1 0xFF AND MUL OR SWAP1 SSTORE POP PUSH2 0xB0A PUSH2 0xD01 JUMP JUMPDEST POP POP POP JUMP JUMPDEST PUSH1 0x25 DUP2 PUSH1 0xFF AND GT ISZERO PUSH2 0xB56 JUMPI PUSH1 0x40 MLOAD PUSH32 0x8C379A000000000000000000000000000000000000000000000000000000000 DUP2 MSTORE PUSH1 0x4 ADD PUSH2 0xB4D SWAP1 PUSH2 0x192D JUMP JUMPDEST PUSH1 0x40 MLOAD DUP1 SWAP2 SUB SWAP1 REVERT JUMPDEST PUSH1 0x1 SLOAD CALLVALUE LT ISZERO PUSH2 0xB9B JUMPI PUSH1 0x40 MLOAD PUSH32 0x8C379A000000000000000000000000000000000000000000000000000000000 DUP2 MSTORE PUSH1 0x4 ADD PUSH2 0xB92 SWAP1 PUSH2 0x19BB JUMP JUMPDEST PUSH1 0x40 MLOAD DUP1 SWAP2 SUB SWAP1 REVERT JUMPDEST PUSH1 0x3 PUSH1 0x40 MLOAD DUP1 PUSH1 0x60 ADD PUSH1 0x40 MSTORE DUP1 CALLER PUSH20 0xFFFFFFFFFFFFFFFFFFFFFFFFFFFFFFFFFFFFFFFF AND DUP2 MSTORE PUSH1 0x20 ADD DUP4 PUSH1 0xFF AND DUP2 MSTORE PUSH1 0x20 ADD CALLVALUE DUP2 MSTORE POP SWAP1 DUP1 PUSH1 0x1 DUP2 SLOAD ADD DUP1 DUP3 SSTORE DUP1 SWAP2 POP POP PUSH1 0x1 SWAP1 SUB SWAP1 PUSH0 MSTORE PUSH1 0x20 PUSH0 KECCAK256 SWAP1 PUSH1 0x2 MUL ADD PUSH0 SWAP1 SWAP2 SWAP1 SWAP2 SWAP1 SWAP2 POP PUSH0 DUP3 ADD MLOAD DUP2 PUSH0 ADD PUSH0 PUSH2 0x100 EXP DUP2 SLOAD DUP2 PUSH20 0xFFFFFFFFFFFFFFFFFFFFFFFFFFFFFFFFFFFFFFFF MUL NOT AND SWAP1 DUP4 PUSH20 0xFFFFFFFFFFFFFFFFFFFFFFFFFFFFFFFFFFFFFFFF AND MUL OR SWAP1 SSTORE POP PUSH1 0x20 DUP3 ADD MLOAD DUP2 PUSH0 ADD PUSH1 0x14 PUSH2 0x100 EXP DUP2 SLOAD DUP2 PUSH1 0xFF MUL NOT AND SWAP1 DUP4 PUSH1 0xFF AND MUL OR SWAP1 SSTORE POP PUSH1 0x40 DUP3 ADD MLOAD DUP2 PUSH1 0x1 ADD SSTORE POP POP CALLER PUSH20 0xFFFFFFFFFFFFFFFFFFFFFFFFFFFFFFFFFFFFFFFF AND PUSH32 0x9F6B4CCED64244A64465098F682029975B1614400B96BC6BD12C668083719166 DUP3 CALLVALUE PUSH1 0x40 MLOAD PUSH2 0xCAF SWAP3 SWAP2 SWAP1 PUSH2 0x19D9 JUMP JUMPDEST PUSH1 0x40 MLOAD DUP1 SWAP2 SUB SWAP1 LOG2 PUSH2 0xCBF PUSH2 0x3F0 JUMP JUMPDEST POP JUMP JUMPDEST PUSH0 PUSH1 0x2 PUSH0 SWAP1 SLOAD SWAP1 PUSH2 0x100 EXP SWAP1 DIV PUSH1 0xFF AND SWAP1 POP SWAP1 JUMP JUMPDEST PUSH1 0x5 PUSH0 SWAP1 SLOAD SWAP1 PUSH2 0x100 EXP SWAP1 DIV PUSH1 0xFF AND DUP2 JUMP JUMPDEST PUSH1 0x4 SLOAD DUP2 JUMP JUMPDEST PUSH1 0x7 SLOAD DUP2 JUMP JUMPDEST PUSH0 PUSH1 0x3 DUP1 SLOAD SWAP1 POP SWAP1 POP SWAP1 JUMP JUMPDEST PUSH1 0x4 PUSH1 0xFF AND PUSH1 0x2 PUSH0 SWAP1 SLOAD SWAP1 PUSH2 0x100 EXP SWAP1 DIV PUSH1 0xFF AND PUSH1 0xFF AND EQ PUSH2 0xD58 JUMPI PUSH1 0x40 MLOAD PUSH32 0x8C379A000000000000000000000000000000000000000000000000000000000 DUP2 MSTORE PUSH1 0x4 ADD PUSH2 0xD4F SWAP1 PUSH2 0x1A4A JUMP JUMPDEST PUSH1 0x40 MLOAD DUP1 SWAP2 SUB SWAP1 REVERT JUMPDEST PUSH0 JUMPDEST PUSH1 0x3 DUP1 SLOAD SWAP1 POP DUP2 LT ISZERO PUSH2 0xF3B JUMPI PUSH1 0x5 PUSH0 SWAP1 SLOAD SWAP1 PUSH2 0x100 EXP SWAP1 DIV PUSH1 0xFF AND PUSH1 0xFF AND PUSH1 0x3 DUP3 DUP2 SLOAD DUP2 LT PUSH2 0xD8D JUMPI PUSH2 0xD8C PUSH2 0x169D JUMP JUMPDEST JUMPDEST SWAP1 PUSH0 MSTORE PUSH1 0x20 PUSH0 KECCAK256 SWAP1 PUSH1 0x2 MUL ADD PUSH0 ADD PUSH1 0x14 SWAP1 SLOAD SWAP1 PUSH2 0x100 EXP SWAP1 DIV PUSH1 0xFF AND PUSH1 0xFF AND SUB PUSH2 0xF2E JUMPI PUSH0 PUSH1 0x25 PUSH1 0xFF AND PUSH1 0x3 DUP4 DUP2 SLOAD DUP2 LT PUSH2 0xDCB JUMPI PUSH2 0xDCA PUSH2 0x169D JUMP JUMPDEST JUMPDEST SWAP1 PUSH0 MSTORE PUSH1 0x20 PUSH0 KECCAK256 SWAP1 PUSH1 0x2 MUL ADD PUSH1 0x1 ADD SLOAD PUSH2 0xDE5 SWAP2 SWAP1 PUSH2 0x1A68 JUMP JUMPDEST SWAP1 POP PUSH1 0x3 DUP3 DUP2 SLOAD DUP2 LT PUSH2 0xDFB JUMPI PUSH2 0xDFA PUSH2 0x169D JUMP JUMPDEST JUMPDEST SWAP1 PUSH0 MSTORE PUSH1 0x20 PUSH0 KECCAK256 SWAP1 PUSH1 0x2 MUL ADD PUSH0 ADD PUSH0 SWAP1 SLOAD SWAP1 PUSH2 0x100 EXP SWAP1 DIV PUSH20 0xFFFFFFFFFFFFFFFFFFFFFFFFFFFFFFFFFFFFFFFF AND PUSH20 0xFFFFFFFFFFFFFFFFFFFFFFFFFFFFFFFFFFFFFFFF AND PUSH2 0x8FC DUP3 SWAP1 DUP2 ISZERO MUL SWAP1 PUSH1 0x40 MLOAD PUSH0 PUSH1 0x40 MLOAD DUP1 DUP4 SUB DUP2 DUP6 DUP9 DUP9 CALL SWAP4 POP POP POP POP ISZERO DUP1 ISZERO PUSH2 0xE6B JUMPI RETURNDATASIZE PUSH0 DUP1 RETURNDATACOPY RETURNDATASIZE PUSH0 REVERT JUMPDEST POP PUSH1 0x3 DUP3 DUP2 SLOAD DUP2 LT PUSH2 0xE80 JUMPI PUSH2 0xE7F PUSH2 0x169D JUMP JUMPDEST JUMPDEST SWAP1 PUSH0 MSTORE PUSH1 0x20 PUSH0 KECCAK256 SWAP1 PUSH1 0x2 MUL ADD PUSH0 ADD PUSH0 SWAP1 SLOAD SWAP1 PUSH2 0x100 EXP SWAP1 DIV PUSH20 0xFFFFFFFFFFFFFFFFFFFFFFFFFFFFFFFFFFFFFFFF AND PUSH20 0xFFFFFFFFFFFFFFFFFFFFFFFFFFFFFFFFFFFFFFFF AND PUSH32 0xFEB6D77D8663B36B3393E8790540B4EBE73ADE87F3146E450022712344DC7B3B PUSH1 0x3 DUP5 DUP2 SLOAD DUP2 LT PUSH2 0xEF9 JUMPI PUSH2 0xEF8 PUSH2 0x169D JUMP JUMPDEST JUMPDEST SWAP1 PUSH0 MSTORE PUSH1 0x20 PUSH0 KECCAK256 SWAP1 PUSH1 0x2 MUL ADD PUSH0 ADD PUSH1 0x14 SWAP1 SLOAD SWAP1 PUSH2 0x100 EXP SWAP1 DIV PUSH1 0xFF AND DUP4 PUSH1 0x40 MLOAD PUSH2 0xF24 SWAP3 SWAP2 SWAP1 PUSH2 0x19D9 JUMP JUMPDEST PUSH1 0x40 MLOAD DUP1 SWAP2 SUB SWAP1 LOG2 POP JUMPDEST DUP1 DUP1 PUSH1 0x1 ADD SWAP2 POP POP PUSH2 0xD5A JUMP JUMPDEST POP PUSH0 DUP1 SLOAD SWAP1 PUSH2 0x100 EXP SWAP1 DIV PUSH20 0xFFFFFFFFFFFFFFFFFFFFFFFFFFFFFFFFFFFFFFFF AND PUSH20 0xFFFFFFFFFFFFFFFFFFFFFFFFFFFFFFFFFFFFFFFF AND PUSH32 0xD4BA6FEC82D9B0E8FFE50B9FED9E4BE3B25C984CE1E0E016405A5528726E8A2C SELFBALANCE PUSH1 0x40 MLOAD PUSH2 0xFA1 SWAP2 SWAP1 PUSH2 0x13D5 JUMP JUMPDEST PUSH1 0x40 MLOAD DUP1 SWAP2 SUB SWAP1 LOG2 PUSH0 DUP1 SLOAD SWAP1 PUSH2 0x100 EXP SWAP1 DIV PUSH20 0xFFFFFFFFFFFFFFFFFFFFFFFFFFFFFFFFFFFFFFFF AND PUSH20 0xFFFFFFFFFFFFFFFFFFFFFFFFFFFFFFFFFFFFFFFF AND PUSH2 0x8FC SELFBALANCE SWAP1 DUP2 ISZERO MUL SWAP1 PUSH1 0x40 MLOAD PUSH0 PUSH1 0x40 MLOAD DUP1 DUP4 SUB DUP2 DUP6 DUP9 DUP9 CALL SWAP4 POP POP POP POP ISZERO DUP1 ISZERO PUSH2 0x100B JUMPI RETURNDATASIZE PUSH0 DUP1 RETURNDATACOPY RETURNDATASIZE PUSH0 REVERT JUMPDEST POP JUMP JUMPDEST PUSH1 0x1 SLOAD DUP2 JUMP JUMPDEST PUSH1 0x6 DUP2 DUP2 SLOAD DUP2 LT PUSH2 0x1023 JUMPI PUSH0 DUP1 REVERT JUMPDEST SWAP1 PUSH0 MSTORE PUSH1 0x20 PUSH0 KECCAK256 ADD PUSH0 SWAP2 POP SLOAD SWAP1 PUSH2 0x100 EXP SWAP1 DIV PUSH20 0xFFFFFFFFFFFFFFFFFFFFFFFFFFFFFFFFFFFFFFFF AND DUP2 JUMP JUMPDEST PUSH0 PUSH1 0xFF AND PUSH1 0x2 PUSH0 SWAP1 SLOAD SWAP1 PUSH2 0x100 EXP SWAP1 DIV PUSH1 0xFF AND PUSH1 0xFF AND EQ PUSH2 0x10A5 JUMPI PUSH1 0x40 MLOAD PUSH32 0x8C379A000000000000000000000000000000000000000000000000000000000 DUP2 MSTORE PUSH1 0x4 ADD PUSH2 0x109C SWAP1 PUSH2 0x1AF3 JUMP JUMPDEST PUSH1 0x40 MLOAD DUP1 SWAP2 SUB SWAP1 REVERT JUMPDEST PUSH0 DUP1 SLOAD SWAP1 PUSH2 0x100 EXP SWAP1 DIV PUSH20 0xFFFFFFFFFFFFFFFFFFFFFFFFFFFFFFFFFFFFFFFF AND PUSH20 0xFFFFFFFFFFFFFFFFFFFFFFFFFFFFFFFFFFFFFFFF AND CALLER PUSH20 0xFFFFFFFFFFFFFFFFFFFFFFFFFFFFFFFFFFFFFFFF AND EQ PUSH2 0x1132 JUMPI PUSH1 0x40 MLOAD PUSH32 0x8C379A000000000000000000000000000000000000000000000000000000000 DUP2 MSTORE PUSH1 0x4 ADD PUSH2 0x1129 SWAP1 PUSH2 0x1B5B JUMP JUMPDEST PUSH1 0x40 MLOAD DUP1 SWAP2 SUB SWAP1 REVERT JUMPDEST PUSH1 0x1 PUSH1 0x2 PUSH0 PUSH2 0x100 EXP DUP2 SLOAD DUP2 PUSH1 0xFF MUL NOT AND SWAP1 DUP4 PUSH1 0xFF AND MUL OR SWAP1 SSTORE POP CALLER PUSH20 0xFFFFFFFFFFFFFFFFFFFFFFFFFFFFFFFFFFFFFFFF AND PUSH32 0x5A6C38B61CFC87B08186EC74738F787EC19C78C75B5B70442F580362ABD96D29 CALLVALUE PUSH1 0x40 MLOAD PUSH2 0x1193 SWAP2 SWAP1 PUSH2 0x13D5 JUMP JUMPDEST PUSH1 0x40 MLOAD DUP1 SWAP2 SUB SWAP1 LOG2 JUMP JUMPDEST PUSH0 DUP1 PUSH0 SWAP1 POP PUSH0 JUMPDEST PUSH1 0x3 DUP1 SLOAD SWAP1 POP DUP2 LT ISZERO PUSH2 0x11EF JUMPI PUSH1 0x3 DUP2 DUP2 SLOAD DUP2 LT PUSH2 0x11C5 JUMPI PUSH2 0x11C4 PUSH2 0x169D JUMP JUMPDEST JUMPDEST SWAP1 PUSH0 MSTORE PUSH1 0x20 PUSH0 KECCAK256 SWAP1 PUSH1 0x2 MUL ADD PUSH1 0x1 ADD SLOAD DUP3 PUSH2 0x11E0 SWAP2 SWAP1 PUSH2 0x1569 JUMP JUMPDEST SWAP2 POP DUP1 DUP1 PUSH1 0x1 ADD SWAP2 POP POP PUSH2 0x11A4 JUMP JUMPDEST POP DUP1 SWAP2 POP POP SWAP1 JUMP JUMPDEST PUSH0 DUP1 SLOAD SWAP1 PUSH2 0x100 EXP SWAP1 DIV PUSH20 0xFFFFFFFFFFFFFFFFFFFFFFFFFFFFFFFFFFFFFFFF AND DUP2 JUMP JUMPDEST PUSH0 DUP1 PUSH0 SWAP1 POP JUMPDEST PUSH1 0x6 DUP1 SLOAD SWAP1 POP DUP2 LT ISZERO PUSH2 0x12B2 JUMPI DUP3 PUSH20 0xFFFFFFFFFFFFFFFFFFFFFFFFFFFFFFFFFFFFFFFF AND PUSH1 0x6 DUP3 DUP2 SLOAD DUP2 LT PUSH2 0x1258 JUMPI PUSH2 0x1257 PUSH2 0x169D JUMP JUMPDEST JUMPDEST SWAP1 PUSH0 MSTORE PUSH1 0x20 PUSH0 KECCAK256 ADD PUSH0 SWAP1 SLOAD SWAP1 PUSH2 0x100 EXP SWAP1 DIV PUSH20 0xFFFFFFFFFFFFFFFFFFFFFFFFFFFFFFFFFFFFFFFF AND PUSH20 0xFFFFFFFFFFFFFFFFFFFFFFFFFFFFFFFFFFFFFFFF AND SUB PUSH2 0x12A5 JUMPI PUSH1 0x1 SWAP2 POP POP PUSH2 0x12B7 JUMP JUMPDEST DUP1 DUP1 PUSH1 0x1 ADD SWAP2 POP POP PUSH2 0x1220 JUMP JUMPDEST POP PUSH0 SWAP1 POP JUMPDEST SWAP2 SWAP1 POP JUMP JUMPDEST PUSH0 PUSH1 0xFF DUP3 AND SWAP1 POP SWAP2 SWAP1 POP JUMP JUMPDEST PUSH2 0x12D1 DUP2 PUSH2 0x12BC JUMP JUMPDEST DUP3 MSTORE POP POP JUMP JUMPDEST PUSH0 PUSH1 0x20 DUP3 ADD SWAP1 POP PUSH2 0x12EA PUSH0 DUP4 ADD DUP5 PUSH2 0x12C8 JUMP JUMPDEST SWAP3 SWAP2 POP POP JUMP JUMPDEST PUSH0 DUP1 REVERT JUMPDEST PUSH0 DUP2 SWAP1 POP SWAP2 SWAP1 POP JUMP JUMPDEST PUSH2 0x1306 DUP2 PUSH2 0x12F4 JUMP JUMPDEST DUP2 EQ PUSH2 0x1310 JUMPI PUSH0 DUP1 REVERT JUMPDEST POP JUMP JUMPDEST PUSH0 DUP2 CALLDATALOAD SWAP1 POP PUSH2 0x1321 DUP2 PUSH2 0x12FD JUMP JUMPDEST SWAP3 SWAP2 POP POP JUMP JUMPDEST PUSH0 PUSH1 0x20 DUP3 DUP5 SUB SLT ISZERO PUSH2 0x133C JUMPI PUSH2 0x133B PUSH2 0x12F0 JUMP JUMPDEST JUMPDEST PUSH0 PUSH2 0x1349 DUP5 DUP3 DUP6 ADD PUSH2 0x1313 JUMP JUMPDEST SWAP2 POP POP SWAP3 SWAP2 POP POP JUMP JUMPDEST PUSH0 PUSH20 0xFFFFFFFFFFFFFFFFFFFFFFFFFFFFFFFFFFFFFFFF DUP3 AND SWAP1 POP SWAP2 SWAP1 POP JUMP JUMPDEST PUSH0 PUSH2 0x137B DUP3 PUSH2 0x1352 JUMP JUMPDEST SWAP1 POP SWAP2 SWAP1 POP JUMP JUMPDEST PUSH2 0x138B DUP2 PUSH2 0x1371 JUMP JUMPDEST DUP3 MSTORE POP POP JUMP JUMPDEST PUSH2 0x139A DUP2 PUSH2 0x12F4 JUMP JUMPDEST DUP3 MSTORE POP POP JUMP JUMPDEST PUSH0 PUSH1 0x60 DUP3 ADD SWAP1 POP PUSH2 0x13B3 PUSH0 DUP4 ADD DUP7 PUSH2 0x1382 JUMP JUMPDEST PUSH2 0x13C0 PUSH1 0x20 DUP4 ADD DUP6 PUSH2 0x12C8 JUMP JUMPDEST PUSH2 0x13CD PUSH1 0x40 DUP4 ADD DUP5 PUSH2 0x1391 JUMP JUMPDEST SWAP5 SWAP4 POP POP POP POP JUMP JUMPDEST PUSH0 PUSH1 0x20 DUP3 ADD SWAP1 POP PUSH2 0x13E8 PUSH0 DUP4 ADD DUP5 PUSH2 0x1391 JUMP JUMPDEST SWAP3 SWAP2 POP POP JUMP JUMPDEST PUSH2 0x13F7 DUP2 PUSH2 0x12BC JUMP JUMPDEST DUP2 EQ PUSH2 0x1401 JUMPI PUSH0 DUP1 REVERT JUMPDEST POP JUMP JUMPDEST PUSH0 DUP2 CALLDATALOAD SWAP1 POP PUSH2 0x1412 DUP2 PUSH2 0x13EE JUMP JUMPDEST SWAP3 SWAP2 POP POP JUMP JUMPDEST PUSH0 PUSH1 0x20 DUP3 DUP5 SUB SLT ISZERO PUSH2 0x142D JUMPI PUSH2 0x142C PUSH2 0x12F0 JUMP JUMPDEST JUMPDEST PUSH0 PUSH2 0x143A DUP5 DUP3 DUP6 ADD PUSH2 0x1404 JUMP JUMPDEST SWAP2 POP POP SWAP3 SWAP2 POP POP JUMP JUMPDEST PUSH0 PUSH1 0x20 DUP3 ADD SWAP1 POP PUSH2 0x1456 PUSH0 DUP4 ADD DUP5 PUSH2 0x1382 JUMP JUMPDEST SWAP3 SWAP2 POP POP JUMP JUMPDEST PUSH0 DUP3 DUP3 MSTORE PUSH1 0x20 DUP3 ADD SWAP1 POP SWAP3 SWAP2 POP POP JUMP JUMPDEST PUSH32 0x4E6F206D6F7265206265747320616C6C6F776564000000000000000000000000 PUSH0 DUP3 ADD MSTORE POP JUMP JUMPDEST PUSH0 PUSH2 0x14A0 PUSH1 0x14 DUP4 PUSH2 0x145C JUMP JUMPDEST SWAP2 POP PUSH2 0x14AB DUP3 PUSH2 0x146C JUMP JUMPDEST PUSH1 0x20 DUP3 ADD SWAP1 POP SWAP2 SWAP1 POP JUMP JUMPDEST PUSH0 PUSH1 0x20 DUP3 ADD SWAP1 POP DUP2 DUP2 SUB PUSH0 DUP4 ADD MSTORE PUSH2 0x14CD DUP2 PUSH2 0x1494 JUMP JUMPDEST SWAP1 POP SWAP2 SWAP1 POP JUMP JUMPDEST PUSH32 0x4F6E6C7920686F73742063616E2067656E657261746520726573756C74000000 PUSH0 DUP3 ADD MSTORE POP JUMP JUMPDEST PUSH0 PUSH2 0x1508 PUSH1 0x1D DUP4 PUSH2 0x145C JUMP JUMPDEST SWAP2 POP PUSH2 0x1513 DUP3 PUSH2 0x14D4 JUMP JUMPDEST PUSH1 0x20 DUP3 ADD SWAP1 POP SWAP2 SWAP1 POP JUMP JUMPDEST PUSH0 PUSH1 0x20 DUP3 ADD SWAP1 POP DUP2 DUP2 SUB PUSH0 DUP4 ADD MSTORE PUSH2 0x1535 DUP2 PUSH2 0x14FC JUMP JUMPDEST SWAP1 POP SWAP2 SWAP1 POP JUMP JUMPDEST PUSH32 0x4E487B7100000000000000000000000000000000000000000000000000000000 PUSH0 MSTORE PUSH1 0x11 PUSH1 0x4 MSTORE PUSH1 0x24 PUSH0 REVERT JUMPDEST PUSH0 PUSH2 0x1573 DUP3 PUSH2 0x12F4 JUMP JUMPDEST SWAP2 POP PUSH2 0x157E DUP4 PUSH2 0x12F4 JUMP JUMPDEST SWAP3 POP DUP3 DUP3 ADD SWAP1 POP DUP1 DUP3 GT ISZERO PUSH2 0x1596 JUMPI PUSH2 0x1595 PUSH2 0x153C JUMP JUMPDEST JUMPDEST SWAP3 SWAP2 POP POP JUMP JUMPDEST PUSH32 0x426C6F636B206E756D626572206E6F7420726561636865640000000000000000 PUSH0 DUP3 ADD MSTORE POP JUMP JUMPDEST PUSH0 PUSH2 0x15D0 PUSH1 0x18 DUP4 PUSH2 0x145C JUMP JUMPDEST SWAP2 POP PUSH2 0x15DB DUP3 PUSH2 0x159C JUMP JUMPDEST PUSH1 0x20 DUP3 ADD SWAP1 POP SWAP2 SWAP1 POP JUMP JUMPDEST PUSH0 PUSH1 0x20 DUP3 ADD SWAP1 POP DUP2 DUP2 SUB PUSH0 DUP4 ADD MSTORE PUSH2 0x15FD DUP2 PUSH2 0x15C4 JUMP JUMPDEST SWAP1 POP SWAP2 SWAP1 POP JUMP JUMPDEST PUSH0 DUP2 SWAP1 POP SWAP2 SWAP1 POP JUMP JUMPDEST PUSH0 DUP2 SWAP1 POP SWAP2 SWAP1 POP JUMP JUMPDEST PUSH2 0x1627 PUSH2 0x1622 DUP3 PUSH2 0x1604 JUMP JUMPDEST PUSH2 0x160D JUMP JUMPDEST DUP3 MSTORE POP POP JUMP JUMPDEST PUSH0 DUP2 PUSH1 0x60 SHL SWAP1 POP SWAP2 SWAP1 POP JUMP JUMPDEST PUSH0 PUSH2 0x1643 DUP3 PUSH2 0x162D JUMP JUMPDEST SWAP1 POP SWAP2 SWAP1 POP JUMP JUMPDEST PUSH0 PUSH2 0x1654 DUP3 PUSH2 0x1639 JUMP JUMPDEST SWAP1 POP SWAP2 SWAP1 POP JUMP JUMPDEST PUSH2 0x166C PUSH2 0x1667 DUP3 PUSH2 0x1371 JUMP JUMPDEST PUSH2 0x164A JUMP JUMPDEST DUP3 MSTORE POP POP JUMP JUMPDEST PUSH0 PUSH2 0x167D DUP3 DUP6 PUSH2 0x1616 JUMP JUMPDEST PUSH1 0x20 DUP3 ADD SWAP2 POP PUSH2 0x168D DUP3 DUP5 PUSH2 0x165B JUMP JUMPDEST PUSH1 0x14 DUP3 ADD SWAP2 POP DUP2 SWAP1 POP SWAP4 SWAP3 POP POP POP JUMP JUMPDEST PUSH32 0x4E487B7100000000000000000000000000000000000000000000000000000000 PUSH0 MSTORE PUSH1 0x32 PUSH1 0x4 MSTORE PUSH1 0x24 PUSH0 REVERT JUMPDEST PUSH32 0x4E487B7100000000000000000000000000000000000000000000000000000000 PUSH0 MSTORE PUSH1 0x12 PUSH1 0x4 MSTORE PUSH1 0x24 PUSH0 REVERT JUMPDEST PUSH0 PUSH2 0x1701 DUP3 PUSH2 0x12F4 JUMP JUMPDEST SWAP2 POP PUSH2 0x170C DUP4 PUSH2 0x12F4 JUMP JUMPDEST SWAP3 POP DUP3 PUSH2 0x171C JUMPI PUSH2 0x171B PUSH2 0x16CA JUMP JUMPDEST JUMPDEST DUP3 DUP3 MOD SWAP1 POP SWAP3 SWAP2 POP POP JUMP JUMPDEST PUSH32 0x526573756C74206E6F742067656E657261746564000000000000000000000000 PUSH0 DUP3 ADD MSTORE POP JUMP JUMPDEST PUSH0 PUSH2 0x175B PUSH1 0x14 DUP4 PUSH2 0x145C JUMP JUMPDEST SWAP2 POP PUSH2 0x1766 DUP3 PUSH2 0x1727 JUMP JUMPDEST PUSH1 0x20 DUP3 ADD SWAP1 POP SWAP2 SWAP1 POP JUMP JUMPDEST PUSH0 PUSH1 0x20 DUP3 ADD SWAP1 POP DUP2 DUP2 SUB PUSH0 DUP4 ADD MSTORE PUSH2 0x1788 DUP2 PUSH2 0x174F JUMP JUMPDEST SWAP1 POP SWAP2 SWAP1 POP JUMP JUMPDEST PUSH32 0x4F6E6C7920612076616C696461746F722063616E2076616C6964617465000000 PUSH0 DUP3 ADD MSTORE POP JUMP JUMPDEST PUSH0 PUSH2 0x17C3 PUSH1 0x1D DUP4 PUSH2 0x145C JUMP JUMPDEST SWAP2 POP PUSH2 0x17CE DUP3 PUSH2 0x178F JUMP JUMPDEST PUSH1 0x20 DUP3 ADD SWAP1 POP SWAP2 SWAP1 POP JUMP JUMPDEST PUSH0 PUSH1 0x20 DUP3 ADD SWAP1 POP DUP2 DUP2 SUB PUSH0 DUP4 ADD MSTORE PUSH2 0x17F0 DUP2 PUSH2 0x17B7 JUMP JUMPDEST SWAP1 POP SWAP2 SWAP1 POP JUMP JUMPDEST PUSH2 0x1800 DUP2 PUSH2 0x1604 JUMP JUMPDEST DUP3 MSTORE POP POP JUMP JUMPDEST PUSH0 PUSH1 0x40 DUP3 ADD SWAP1 POP PUSH2 0x1819 PUSH0 DUP4 ADD DUP6 PUSH2 0x12C8 JUMP JUMPDEST PUSH2 0x1826 PUSH1 0x20 DUP4 ADD DUP5 PUSH2 0x17F7 JUMP JUMPDEST SWAP4 SWAP3 POP POP POP JUMP JUMPDEST PUSH0 PUSH2 0x1837 DUP3 PUSH2 0x12BC JUMP JUMPDEST SWAP2 POP PUSH1 0xFF DUP3 SUB PUSH2 0x184A JUMPI PUSH2 0x1849 PUSH2 0x153C JUMP JUMPDEST JUMPDEST PUSH1 0x1 DUP3 ADD SWAP1 POP SWAP2 SWAP1 POP JUMP JUMPDEST PUSH32 0x53746F72656420726573756C7420213D207265636F6D70757465642072657375 PUSH0 DUP3 ADD MSTORE PUSH32 0x6C74000000000000000000000000000000000000000000000000000000000000 PUSH1 0x20 DUP3 ADD MSTORE POP JUMP JUMPDEST PUSH0 PUSH2 0x18AF PUSH1 0x22 DUP4 PUSH2 0x145C JUMP JUMPDEST SWAP2 POP PUSH2 0x18BA DUP3 PUSH2 0x1855 JUMP JUMPDEST PUSH1 0x40 DUP3 ADD SWAP1 POP SWAP2 SWAP1 POP JUMP JUMPDEST PUSH0 PUSH1 0x20 DUP3 ADD SWAP1 POP DUP2 DUP2 SUB PUSH0 DUP4 ADD MSTORE PUSH2 0x18DC DUP2 PUSH2 0x18A3 JUMP JUMPDEST SWAP1 POP SWAP2 SWAP1 POP JUMP JUMPDEST PUSH32 0x4E756D626572206D757374206265206265747765656E203020616E6420333700 PUSH0 DUP3 ADD MSTORE POP JUMP JUMPDEST PUSH0 PUSH2 0x1917 PUSH1 0x1F DUP4 PUSH2 0x145C JUMP JUMPDEST SWAP2 POP PUSH2 0x1922 DUP3 PUSH2 0x18E3 JUMP JUMPDEST PUSH1 0x20 DUP3 ADD SWAP1 POP SWAP2 SWAP1 POP JUMP JUMPDEST PUSH0 PUSH1 0x20 DUP3 ADD SWAP1 POP DUP2 DUP2 SUB PUSH0 DUP4 ADD MSTORE PUSH2 0x1944 DUP2 PUSH2 0x190B JUMP JUMPDEST SWAP1 POP SWAP2 SWAP1 POP JUMP JUMPDEST PUSH32 0x42657420616D6F756E742069732062656C6F7720746865206D696E696D756D20 PUSH0 DUP3 ADD MSTORE PUSH32 0x6265740000000000000000000000000000000000000000000000000000000000 PUSH1 0x20 DUP3 ADD MSTORE POP JUMP JUMPDEST PUSH0 PUSH2 0x19A5 PUSH1 0x23 DUP4 PUSH2 0x145C JUMP JUMPDEST SWAP2 POP PUSH2 0x19B0 DUP3 PUSH2 0x194B JUMP JUMPDEST PUSH1 0x40 DUP3 ADD SWAP1 POP SWAP2 SWAP1 POP JUMP JUMPDEST PUSH0 PUSH1 0x20 DUP3 ADD SWAP1 POP DUP2 DUP2 SUB PUSH0 DUP4 ADD MSTORE PUSH2 0x19D2 DUP2 PUSH2 0x1999 JUMP JUMPDEST SWAP1 POP SWAP2 SWAP1 POP JUMP JUMPDEST PUSH0 PUSH1 0x40 DUP3 ADD SWAP1 POP PUSH2 0x19EC PUSH0 DUP4 ADD DUP6 PUSH2 0x12C8 JUMP JUMPDEST PUSH2 0x19F9 PUSH1 0x20 DUP4 ADD DUP5 PUSH2 0x1391 JUMP JUMPDEST SWAP4 SWAP3 POP POP POP JUMP JUMPDEST PUSH32 0x526573756C74206E6F742076616C696461746564207965740000000000000000 PUSH0 DUP3 ADD MSTORE POP JUMP JUMPDEST PUSH0 PUSH2 0x1A34 PUSH1 0x18 DUP4 PUSH2 0x145C JUMP JUMPDEST SWAP2 POP PUSH2 0x1A3F DUP3 PUSH2 0x1A00 JUMP JUMPDEST PUSH1 0x20 DUP3 ADD SWAP1 POP SWAP2 SWAP1 POP JUMP JUMPDEST PUSH0 PUSH1 0x20 DUP3 ADD SWAP1 POP DUP2 DUP2 SUB PUSH0 DUP4 ADD MSTORE PUSH2 0x1A61 DUP2 PUSH2 0x1A28 JUMP JUMPDEST SWAP1 POP SWAP2 SWAP1 POP JUMP JUMPDEST PUSH0 PUSH2 0x1A72 DUP3 PUSH2 0x12F4 JUMP JUMPDEST SWAP2 POP PUSH2 0x1A7D DUP4 PUSH2 0x12F4 JUMP JUMPDEST SWAP3 POP DUP3 DUP3 MUL PUSH2 0x1A8B DUP2 PUSH2 0x12F4 JUMP JUMPDEST SWAP2 POP DUP3 DUP3 DIV DUP5 EQ DUP4 ISZERO OR PUSH2 0x1AA2 JUMPI PUSH2 0x1AA1 PUSH2 0x153C JUMP JUMPDEST JUMPDEST POP SWAP3 SWAP2 POP POP JUMP JUMPDEST PUSH32 0x4465706F736974206973206E6F7420616C6C6F77656400000000000000000000 PUSH0 DUP3 ADD MSTORE POP JUMP JUMPDEST PUSH0 PUSH2 0x1ADD PUSH1 0x16 DUP4 PUSH2 0x145C JUMP JUMPDEST SWAP2 POP PUSH2 0x1AE8 DUP3 PUSH2 0x1AA9 JUMP JUMPDEST PUSH1 0x20 DUP3 ADD SWAP1 POP SWAP2 SWAP1 POP JUMP JUMPDEST PUSH0 PUSH1 0x20 DUP3 ADD SWAP1 POP DUP2 DUP2 SUB PUSH0 DUP4 ADD MSTORE PUSH2 0x1B0A DUP2 PUSH2 0x1AD1 JUMP JUMPDEST SWAP1 POP SWAP2 SWAP1 POP JUMP JUMPDEST PUSH32 0x4F6E6C7920686F73742063616E206465706F7369740000000000000000000000 PUSH0 DUP3 ADD MSTORE POP JUMP JUMPDEST PUSH0 PUSH2 0x1B45 PUSH1 0x15 DUP4 PUSH2 0x145C JUMP JUMPDEST SWAP2 POP PUSH2 0x1B50 DUP3 PUSH2 0x1B11 JUMP JUMPDEST PUSH1 0x20 DUP3 ADD SWAP1 POP SWAP2 SWAP1 POP JUMP JUMPDEST PUSH0 PUSH1 0x20 DUP3 ADD SWAP1 POP DUP2 DUP2 SUB PUSH0 DUP4 ADD MSTORE PUSH2 0x1B72 DUP2 PUSH2 0x1B39 JUMP JUMPDEST SWAP1 POP SWAP2 SWAP1 POP JUMP INVALID LOG2 PUSH5 0x6970667358 0x22 SLT KECCAK256 DUP4 0xAD SWAP14 SWAP3 0xD2 CALL PUSH24 0x66F11A37656200016ECC3965272D5F34337D85B5D534A2FE 0xAD PUSH5 0x736F6C6343 STOP ADDMOD BYTE STOP CALLER "
				},
				"gasEstimates": {
					"creation": {
						"codeDepositCost": "1417400",
						"executionCost": "infinite",
						"totalCost": "infinite"
					},
					"external": {
						"Authen_threshold()": "2541",
						"bets(uint256)": "infinite",
						"cutOffBlockNumber()": "2470",
						"deposit()": "30356",
						"generateResult()": "infinite",
						"getBetsCount()": "2529",
						"getStatus()": "2584",
						"getTotalBetsAmount()": "infinite",
						"host()": "2615",
						"maxBet()": "2470",
						"minBet()": "2447",
						"minDeposite()": "2492",
						"noMoreBets()": "52026",
						"placeBet(uint8)": "infinite",
						"result()": "2489",
						"settleBet()": "infinite",
						"status()": "2556",
						"validateResult()": "infinite",
						"validator_address(uint256)": "4988"
					},
					"internal": {
						"isValidator(address)": "infinite"
					}
				},
				"methodIdentifiers": {
					"Authen_threshold()": "11b5f220",
					"bets(uint256)": "22af00fa",
					"cutOffBlockNumber()": "6f91a66f",
					"deposit()": "d0e30db0",
					"generateResult()": "1dbe2e0e",
					"getBetsCount()": "8c7e347a",
					"getStatus()": "4e69d560",
					"getTotalBetsAmount()": "d1edb09e",
					"host()": "f437bc59",
					"maxBet()": "2e5b2168",
					"minBet()": "9619367d",
					"minDeposite()": "87171eb7",
					"noMoreBets()": "1b2abc77",
					"placeBet(uint8)": "43046844",
					"result()": "65372147",
					"settleBet()": "8e4bf820",
					"status()": "200d2ed2",
					"validateResult()": "38cceb4f",
					"validator_address(uint256)": "9fb7ffec"
				}
			},
			"storageLayout": {
				"storage": [
					{
						"astId": 203,
						"contract": "Roulette_reviewed_by_john.sol:RouletteGame",
						"label": "host",
						"offset": 0,
						"slot": "0",
						"type": "t_address"
					},
					{
						"astId": 205,
						"contract": "Roulette_reviewed_by_john.sol:RouletteGame",
						"label": "minBet",
						"offset": 0,
						"slot": "1",
						"type": "t_uint256"
					},
					{
						"astId": 207,
						"contract": "Roulette_reviewed_by_john.sol:RouletteGame",
						"label": "status",
						"offset": 0,
						"slot": "2",
						"type": "t_uint8"
					},
					{
						"astId": 211,
						"contract": "Roulette_reviewed_by_john.sol:RouletteGame",
						"label": "bets",
						"offset": 0,
						"slot": "3",
						"type": "t_array(t_struct(Bet)201_storage)dyn_storage"
					},
					{
						"astId": 213,
						"contract": "Roulette_reviewed_by_john.sol:RouletteGame",
						"label": "cutOffBlockNumber",
						"offset": 0,
						"slot": "4",
						"type": "t_uint256"
					},
					{
						"astId": 215,
						"contract": "Roulette_reviewed_by_john.sol:RouletteGame",
						"label": "result",
						"offset": 0,
						"slot": "5",
						"type": "t_uint8"
					},
					{
						"astId": 217,
						"contract": "Roulette_reviewed_by_john.sol:RouletteGame",
						"label": "Authen_threshold",
						"offset": 1,
						"slot": "5",
						"type": "t_uint8"
					},
					{
						"astId": 220,
						"contract": "Roulette_reviewed_by_john.sol:RouletteGame",
						"label": "validator_address",
						"offset": 0,
						"slot": "6",
						"type": "t_array(t_address)dyn_storage"
					},
					{
						"astId": 222,
						"contract": "Roulette_reviewed_by_john.sol:RouletteGame",
						"label": "minDeposite",
						"offset": 0,
						"slot": "7",
						"type": "t_uint256"
					},
					{
						"astId": 224,
						"contract": "Roulette_reviewed_by_john.sol:RouletteGame",
						"label": "maxBet",
						"offset": 0,
						"slot": "8",
						"type": "t_uint256"
					}
				],
				"types": {
					"t_address": {
						"encoding": "inplace",
						"label": "address",
						"numberOfBytes": "20"
					},
					"t_array(t_address)dyn_storage": {
						"base": "t_address",
						"encoding": "dynamic_array",
						"label": "address[]",
						"numberOfBytes": "32"
					},
					"t_array(t_struct(Bet)201_storage)dyn_storage": {
						"base": "t_struct(Bet)201_storage",
						"encoding": "dynamic_array",
						"label": "struct RouletteGame.Bet[]",
						"numberOfBytes": "32"
					},
					"t_struct(Bet)201_storage": {
						"encoding": "inplace",
						"label": "struct RouletteGame.Bet",
						"members": [
							{
								"astId": 196,
								"contract": "Roulette_reviewed_by_john.sol:RouletteGame",
								"label": "player",
								"offset": 0,
								"slot": "0",
								"type": "t_address"
							},
							{
								"astId": 198,
								"contract": "Roulette_reviewed_by_john.sol:RouletteGame",
								"label": "option",
								"offset": 20,
								"slot": "0",
								"type": "t_uint8"
							},
							{
								"astId": 200,
								"contract": "Roulette_reviewed_by_john.sol:RouletteGame",
								"label": "amount",
								"offset": 0,
								"slot": "1",
								"type": "t_uint256"
							}
						],
						"numberOfBytes": "64"
					},
					"t_uint256": {
						"encoding": "inplace",
						"label": "uint256",
						"numberOfBytes": "32"
					},
					"t_uint8": {
						"encoding": "inplace",
						"label": "uint8",
						"numberOfBytes": "1"
					}
				}
			},
			"userdoc": {
				"kind": "user",
				"methods": {},
				"version": 1
			}
		}
	}
}