{
	"roulette.sol": {
		"Roulette": {
			"abi": [
				{
					"inputs": [
						{
							"internalType": "uint256",
							"name": "_minBet",
							"type": "uint256"
						}
					],
					"stateMutability": "nonpayable",
					"type": "constructor"
				},
				{
					"anonymous": false,
					"inputs": [
						{
							"indexed": true,
							"internalType": "address",
							"name": "player",
							"type": "address"
						},
						{
							"indexed": false,
							"internalType": "uint8",
							"name": "number",
							"type": "uint8"
						},
						{
							"indexed": false,
							"internalType": "uint256",
							"name": "amount",
							"type": "uint256"
						}
					],
					"name": "BetPlaced",
					"type": "event"
				},
				{
					"anonymous": false,
					"inputs": [
						{
							"indexed": true,
							"internalType": "address",
							"name": "house",
							"type": "address"
						},
						{
							"indexed": false,
							"internalType": "uint256",
							"name": "amount",
							"type": "uint256"
						}
					],
					"name": "HouseProfit",
					"type": "event"
				},
				{
					"anonymous": false,
					"inputs": [
						{
							"indexed": true,
							"internalType": "address",
							"name": "player",
							"type": "address"
						},
						{
							"indexed": false,
							"internalType": "uint256",
							"name": "amount",
							"type": "uint256"
						}
					],
					"name": "Payout",
					"type": "event"
				},
				{
					"anonymous": false,
					"inputs": [
						{
							"indexed": false,
							"internalType": "uint8",
							"name": "winningNumber",
							"type": "uint8"
						}
					],
					"name": "SpinResult",
					"type": "event"
				},
				{
					"inputs": [
						{
							"internalType": "uint256",
							"name": "",
							"type": "uint256"
						}
					],
					"name": "bets",
					"outputs": [
						{
							"internalType": "address",
							"name": "player",
							"type": "address"
						},
						{
							"internalType": "uint8",
							"name": "number",
							"type": "uint8"
						},
						{
							"internalType": "uint256",
							"name": "amount",
							"type": "uint256"
						}
					],
					"stateMutability": "view",
					"type": "function"
				},
				{
					"inputs": [],
					"name": "getCurrentBets",
					"outputs": [
						{
							"components": [
								{
									"internalType": "address",
									"name": "player",
									"type": "address"
								},
								{
									"internalType": "uint8",
									"name": "number",
									"type": "uint8"
								},
								{
									"internalType": "uint256",
									"name": "amount",
									"type": "uint256"
								}
							],
							"internalType": "struct Roulette.Bet[]",
							"name": "",
							"type": "tuple[]"
						}
					],
					"stateMutability": "view",
					"type": "function"
				},
				{
					"inputs": [],
					"name": "getNumberOfBets",
					"outputs": [
						{
							"internalType": "uint256",
							"name": "",
							"type": "uint256"
						}
					],
					"stateMutability": "view",
					"type": "function"
				},
				{
					"inputs": [],
					"name": "minBet",
					"outputs": [
						{
							"internalType": "uint256",
							"name": "",
							"type": "uint256"
						}
					],
					"stateMutability": "view",
					"type": "function"
				},
				{
					"inputs": [],
					"name": "owner",
					"outputs": [
						{
							"internalType": "address",
							"name": "",
							"type": "address"
						}
					],
					"stateMutability": "view",
					"type": "function"
				},
				{
					"inputs": [
						{
							"internalType": "uint8",
							"name": "number",
							"type": "uint8"
						}
					],
					"name": "placeBet",
					"outputs": [],
					"stateMutability": "payable",
					"type": "function"
				},
				{
					"inputs": [
						{
							"internalType": "uint256",
							"name": "_newMinBet",
							"type": "uint256"
						}
					],
					"name": "setMinBet",
					"outputs": [],
					"stateMutability": "nonpayable",
					"type": "function"
				},
				{
					"inputs": [],
					"name": "spinWheel",
					"outputs": [],
					"stateMutability": "nonpayable",
					"type": "function"
				},
				{
					"inputs": [
						{
							"internalType": "uint256",
							"name": "_amount",
							"type": "uint256"
						}
					],
					"name": "withdrawHouseFunds",
					"outputs": [],
					"stateMutability": "nonpayable",
					"type": "function"
				},
				{
					"stateMutability": "payable",
					"type": "receive"
				}
			],
			"devdoc": {
				"kind": "dev",
				"methods": {
					"constructor": {
						"details": "Constructor sets the initial owner (house) and minimum bet.",
						"params": {
							"_minBet": "The minimum bet size required."
						}
					},
					"getCurrentBets()": {
						"details": "For large arrays, consider pagination or other indexing to avoid gas limit issues."
					},
					"placeBet(uint8)": {
						"params": {
							"number": "The roulette number on which the user wants to bet (0-36)."
						}
					},
					"setMinBet(uint256)": {
						"params": {
							"_newMinBet": "New minimum bet amount."
						}
					},
					"spinWheel()": {
						"details": "This function: 1. Generates a pseudo-random winning number [0..36]. 2. Pays out winners. 3. Clears the bets array for the next round.Only the owner can call this.  In production, consider locking bets after a spin is initiated."
					}
				},
				"title": "Roulette",
				"version": 1
			},
			"evm": {
				"assembly": "    /* \"roulette.sol\":186:5925  contract Roulette {... */\n  mstore(0x40, 0x80)\n    /* \"roulette.sol\":1582:1675  constructor(uint256 _minBet) {... */\n  callvalue\n  dup1\n  iszero\n  tag_1\n  jumpi\n  revert(0x00, 0x00)\ntag_1:\n  pop\n  mload(0x40)\n  sub(codesize, bytecodeSize)\n  dup1\n  bytecodeSize\n  dup4\n  codecopy\n  dup2\n  dup2\n  add\n  0x40\n  mstore\n  dup2\n  add\n  swap1\n  tag_2\n  swap2\n  swap1\n  tag_3\n  jump\t// in\ntag_2:\n    /* \"roulette.sol\":1630:1640  msg.sender */\n  caller\n    /* \"roulette.sol\":1622:1627  owner */\n  0x02\n  0x00\n    /* \"roulette.sol\":1622:1640  owner = msg.sender */\n  0x0100\n  exp\n  dup2\n  sload\n  dup2\n  0xffffffffffffffffffffffffffffffffffffffff\n  mul\n  not\n  and\n  swap1\n  dup4\n  0xffffffffffffffffffffffffffffffffffffffff\n  and\n  mul\n  or\n  swap1\n  sstore\n  pop\n    /* \"roulette.sol\":1660:1667  _minBet */\n  dup1\n    /* \"roulette.sol\":1651:1657  minBet */\n  0x01\n    /* \"roulette.sol\":1651:1667  minBet = _minBet */\n  dup2\n  swap1\n  sstore\n  pop\n    /* \"roulette.sol\":1582:1675  constructor(uint256 _minBet) {... */\n  pop\n    /* \"roulette.sol\":186:5925  contract Roulette {... */\n  jump(tag_6)\n    /* \"#utility.yul\":88:205   */\ntag_8:\n    /* \"#utility.yul\":197:198   */\n  0x00\n    /* \"#utility.yul\":194:195   */\n  0x00\n    /* \"#utility.yul\":187:199   */\n  revert\n    /* \"#utility.yul\":334:411   */\ntag_10:\n    /* \"#utility.yul\":371:378   */\n  0x00\n    /* \"#utility.yul\":400:405   */\n  dup2\n    /* \"#utility.yul\":389:405   */\n  swap1\n  pop\n    /* \"#utility.yul\":334:411   */\n  swap2\n  swap1\n  pop\n  jump\t// out\n    /* \"#utility.yul\":417:539   */\ntag_11:\n    /* \"#utility.yul\":490:514   */\n  tag_19\n    /* \"#utility.yul\":508:513   */\n  dup2\n    /* \"#utility.yul\":490:514   */\n  tag_10\n  jump\t// in\ntag_19:\n    /* \"#utility.yul\":483:488   */\n  dup2\n    /* \"#utility.yul\":480:515   */\n  eq\n    /* \"#utility.yul\":470:533   */\n  tag_20\n  jumpi\n    /* \"#utility.yul\":529:530   */\n  0x00\n    /* \"#utility.yul\":526:527   */\n  0x00\n    /* \"#utility.yul\":519:531   */\n  revert\n    /* \"#utility.yul\":470:533   */\ntag_20:\n    /* \"#utility.yul\":417:539   */\n  pop\n  jump\t// out\n    /* \"#utility.yul\":545:688   */\ntag_12:\n    /* \"#utility.yul\":602:607   */\n  0x00\n    /* \"#utility.yul\":633:639   */\n  dup2\n    /* \"#utility.yul\":627:640   */\n  mload\n    /* \"#utility.yul\":618:640   */\n  swap1\n  pop\n    /* \"#utility.yul\":649:682   */\n  tag_22\n    /* \"#utility.yul\":676:681   */\n  dup2\n    /* \"#utility.yul\":649:682   */\n  tag_11\n  jump\t// in\ntag_22:\n    /* \"#utility.yul\":545:688   */\n  swap3\n  swap2\n  pop\n  pop\n  jump\t// out\n    /* \"#utility.yul\":694:1045   */\ntag_3:\n    /* \"#utility.yul\":764:770   */\n  0x00\n    /* \"#utility.yul\":813:815   */\n  0x20\n    /* \"#utility.yul\":801:810   */\n  dup3\n    /* \"#utility.yul\":792:799   */\n  dup5\n    /* \"#utility.yul\":788:811   */\n  sub\n    /* \"#utility.yul\":784:816   */\n  slt\n    /* \"#utility.yul\":781:900   */\n  iszero\n  tag_24\n  jumpi\n    /* \"#utility.yul\":819:898   */\n  tag_25\n  tag_8\n  jump\t// in\ntag_25:\n    /* \"#utility.yul\":781:900   */\ntag_24:\n    /* \"#utility.yul\":939:940   */\n  0x00\n    /* \"#utility.yul\":964:1028   */\n  tag_26\n    /* \"#utility.yul\":1020:1027   */\n  dup5\n    /* \"#utility.yul\":1011:1017   */\n  dup3\n    /* \"#utility.yul\":1000:1009   */\n  dup6\n    /* \"#utility.yul\":996:1018   */\n  add\n    /* \"#utility.yul\":964:1028   */\n  tag_12\n  jump\t// in\ntag_26:\n    /* \"#utility.yul\":954:1028   */\n  swap2\n  pop\n    /* \"#utility.yul\":910:1038   */\n  pop\n    /* \"#utility.yul\":694:1045   */\n  swap3\n  swap2\n  pop\n  pop\n  jump\t// out\n    /* \"roulette.sol\":186:5925  contract Roulette {... */\ntag_6:\n  dataSize(sub_0)\n  dup1\n  dataOffset(sub_0)\n  0x00\n  codecopy\n  0x00\n  return\nstop\n\nsub_0: assembly {\n        /* \"roulette.sol\":186:5925  contract Roulette {... */\n      mstore(0x40, 0x80)\n      jumpi(tag_1, lt(calldatasize, 0x04))\n      shr(0xe0, calldataload(0x00))\n      dup1\n      0x7d59441a\n      gt\n      tag_12\n      jumpi\n      dup1\n      0x7d59441a\n      eq\n      tag_7\n      jumpi\n      dup1\n      0x88ea41b9\n      eq\n      tag_8\n      jumpi\n      dup1\n      0x8da5cb5b\n      eq\n      tag_9\n      jumpi\n      dup1\n      0x9619367d\n      eq\n      tag_10\n      jumpi\n      dup1\n      0xf222d0b9\n      eq\n      tag_11\n      jumpi\n      jump(tag_2)\n    tag_12:\n      dup1\n      0x15ecef92\n      eq\n      tag_3\n      jumpi\n      dup1\n      0x22af00fa\n      eq\n      tag_4\n      jumpi\n      dup1\n      0x3b4ca5d2\n      eq\n      tag_5\n      jumpi\n      dup1\n      0x43046844\n      eq\n      tag_6\n      jumpi\n      jump(tag_2)\n    tag_1:\n      jumpi(tag_2, calldatasize)\n      stop\n    tag_2:\n      revert(0x00, 0x00)\n        /* \"roulette.sol\":2788:4639  function spinWheel() external onlyOwner {... */\n    tag_3:\n      callvalue\n      dup1\n      iszero\n      tag_15\n      jumpi\n      revert(0x00, 0x00)\n    tag_15:\n      pop\n      tag_16\n      tag_17\n      jump\t// in\n    tag_16:\n      stop\n        /* \"roulette.sol\":587:604  Bet[] public bets */\n    tag_4:\n      callvalue\n      dup1\n      iszero\n      tag_18\n      jumpi\n      revert(0x00, 0x00)\n    tag_18:\n      pop\n      tag_19\n      0x04\n      dup1\n      calldatasize\n      sub\n      dup2\n      add\n      swap1\n      tag_20\n      swap2\n      swap1\n      tag_21\n      jump\t// in\n    tag_20:\n      tag_22\n      jump\t// in\n    tag_19:\n      mload(0x40)\n      tag_23\n      swap4\n      swap3\n      swap2\n      swap1\n      tag_24\n      jump\t// in\n    tag_23:\n      mload(0x40)\n      dup1\n      swap2\n      sub\n      swap1\n      return\n        /* \"roulette.sol\":5118:5211  function getCurrentBets() external view returns (Bet[] memory) {... */\n    tag_5:\n      callvalue\n      dup1\n      iszero\n      tag_25\n      jumpi\n      revert(0x00, 0x00)\n    tag_25:\n      pop\n      tag_26\n      tag_27\n      jump\t// in\n    tag_26:\n      mload(0x40)\n      tag_28\n      swap2\n      swap1\n      tag_29\n      jump\t// in\n    tag_28:\n      mload(0x40)\n      dup1\n      swap2\n      sub\n      swap1\n      return\n        /* \"roulette.sol\":1965:2363  function placeBet(uint8 number) external payable {... */\n    tag_6:\n      tag_30\n      0x04\n      dup1\n      calldatasize\n      sub\n      dup2\n      add\n      swap1\n      tag_31\n      swap2\n      swap1\n      tag_32\n      jump\t// in\n    tag_31:\n      tag_33\n      jump\t// in\n    tag_30:\n      stop\n        /* \"roulette.sol\":5548:5811  function withdrawHouseFunds(uint256 _amount) external onlyOwner {... */\n    tag_7:\n      callvalue\n      dup1\n      iszero\n      tag_34\n      jumpi\n      revert(0x00, 0x00)\n    tag_34:\n      pop\n      tag_35\n      0x04\n      dup1\n      calldatasize\n      sub\n      dup2\n      add\n      swap1\n      tag_36\n      swap2\n      swap1\n      tag_21\n      jump\t// in\n    tag_36:\n      tag_37\n      jump\t// in\n    tag_35:\n      stop\n        /* \"roulette.sol\":5340:5436  function setMinBet(uint256 _newMinBet) external onlyOwner {... */\n    tag_8:\n      callvalue\n      dup1\n      iszero\n      tag_38\n      jumpi\n      revert(0x00, 0x00)\n    tag_38:\n      pop\n      tag_39\n      0x04\n      dup1\n      calldatasize\n      sub\n      dup2\n      add\n      swap1\n      tag_40\n      swap2\n      swap1\n      tag_21\n      jump\t// in\n    tag_40:\n      tag_41\n      jump\t// in\n    tag_39:\n      stop\n        /* \"roulette.sol\":718:738  address public owner */\n    tag_9:\n      callvalue\n      dup1\n      iszero\n      tag_42\n      jumpi\n      revert(0x00, 0x00)\n    tag_42:\n      pop\n      tag_43\n      tag_44\n      jump\t// in\n    tag_43:\n      mload(0x40)\n      tag_45\n      swap2\n      swap1\n      tag_46\n      jump\t// in\n    tag_45:\n      mload(0x40)\n      dup1\n      swap2\n      sub\n      swap1\n      return\n        /* \"roulette.sol\":650:671  uint256 public minBet */\n    tag_10:\n      callvalue\n      dup1\n      iszero\n      tag_47\n      jumpi\n      revert(0x00, 0x00)\n    tag_47:\n      pop\n      tag_48\n      tag_49\n      jump\t// in\n    tag_48:\n      mload(0x40)\n      tag_50\n      swap2\n      swap1\n      tag_51\n      jump\t// in\n    tag_50:\n      mload(0x40)\n      dup1\n      swap2\n      sub\n      swap1\n      return\n        /* \"roulette.sol\":4857:4953  function getNumberOfBets() external view returns (uint256) {... */\n    tag_11:\n      callvalue\n      dup1\n      iszero\n      tag_52\n      jumpi\n      revert(0x00, 0x00)\n    tag_52:\n      pop\n      tag_53\n      tag_54\n      jump\t// in\n    tag_53:\n      mload(0x40)\n      tag_55\n      swap2\n      swap1\n      tag_51\n      jump\t// in\n    tag_55:\n      mload(0x40)\n      dup1\n      swap2\n      sub\n      swap1\n      return\n        /* \"roulette.sol\":2788:4639  function spinWheel() external onlyOwner {... */\n    tag_17:\n        /* \"roulette.sol\":907:912  owner */\n      0x02\n      0x00\n      swap1\n      sload\n      swap1\n      0x0100\n      exp\n      swap1\n      div\n      0xffffffffffffffffffffffffffffffffffffffff\n      and\n        /* \"roulette.sol\":893:912  msg.sender == owner */\n      0xffffffffffffffffffffffffffffffffffffffff\n      and\n        /* \"roulette.sol\":893:903  msg.sender */\n      caller\n        /* \"roulette.sol\":893:912  msg.sender == owner */\n      0xffffffffffffffffffffffffffffffffffffffff\n      and\n      eq\n        /* \"roulette.sol\":885:954  require(msg.sender == owner, \"Only the owner can call this function\") */\n      tag_57\n      jumpi\n      mload(0x40)\n      0x08c379a000000000000000000000000000000000000000000000000000000000\n      dup2\n      mstore\n      0x04\n      add\n      tag_58\n      swap1\n      tag_59\n      jump\t// in\n    tag_58:\n      mload(0x40)\n      dup1\n      swap2\n      sub\n      swap1\n      revert\n    tag_57:\n        /* \"roulette.sol\":2861:2862  0 */\n      0x00\n        /* \"roulette.sol\":2847:2851  bets */\n      0x00\n        /* \"roulette.sol\":2847:2858  bets.length */\n      dup1\n      sload\n      swap1\n      pop\n        /* \"roulette.sol\":2847:2862  bets.length > 0 */\n      gt\n        /* \"roulette.sol\":2839:2892  require(bets.length > 0, \"No bets placed this round\") */\n      tag_61\n      jumpi\n      mload(0x40)\n      0x08c379a000000000000000000000000000000000000000000000000000000000\n      dup2\n      mstore\n      0x04\n      add\n      tag_62\n      swap1\n      tag_63\n      jump\t// in\n    tag_62:\n      mload(0x40)\n      dup1\n      swap2\n      sub\n      swap1\n      revert\n    tag_61:\n        /* \"roulette.sol\":3031:3049  uint256 randomHash */\n      0x00\n        /* \"roulette.sol\":3166:3167  1 */\n      0x01\n        /* \"roulette.sol\":3151:3163  block.number */\n      number\n        /* \"roulette.sol\":3151:3167  block.number - 1 */\n      tag_64\n      swap2\n      swap1\n      tag_65\n      jump\t// in\n    tag_64:\n        /* \"roulette.sol\":3141:3168  blockhash(block.number - 1) */\n      blockhash\n        /* \"roulette.sol\":3191:3206  block.timestamp */\n      timestamp\n        /* \"roulette.sol\":3229:3245  block.difficulty */\n      prevrandao\n        /* \"roulette.sol\":3276:3280  this */\n      address\n        /* \"roulette.sol\":3304:3308  bets */\n      0x00\n        /* \"roulette.sol\":3304:3315  bets.length */\n      dup1\n      sload\n      swap1\n      pop\n        /* \"roulette.sol\":3102:3334  abi.encodePacked(... */\n      add(0x20, mload(0x40))\n      tag_66\n      swap6\n      swap5\n      swap4\n      swap3\n      swap2\n      swap1\n      tag_67\n      jump\t// in\n    tag_66:\n      mload(0x40)\n      0x20\n      dup2\n      dup4\n      sub\n      sub\n      dup2\n      mstore\n      swap1\n      0x40\n      mstore\n        /* \"roulette.sol\":3074:3349  keccak256(... */\n      dup1\n      mload\n      swap1\n      0x20\n      add\n      keccak256\n        /* \"roulette.sol\":3052:3360  uint256(... */\n      0x00\n      shr\n        /* \"roulette.sol\":3031:3360  uint256 randomHash = uint256(... */\n      swap1\n      pop\n        /* \"roulette.sol\":3373:3392  uint8 winningNumber */\n      0x00\n        /* \"roulette.sol\":3414:3416  37 */\n      0x25\n        /* \"roulette.sol\":3401:3411  randomHash */\n      dup3\n        /* \"roulette.sol\":3401:3416  randomHash % 37 */\n      tag_68\n      swap2\n      swap1\n      tag_69\n      jump\t// in\n    tag_68:\n        /* \"roulette.sol\":3373:3417  uint8 winningNumber = uint8(randomHash % 37) */\n      swap1\n      pop\n        /* \"roulette.sol\":3435:3460  SpinResult(winningNumber) */\n      0xee38b53cfee7ef3833287e8806626e415e7ca0441e14b436cdb7b681f7c44744\n        /* \"roulette.sol\":3446:3459  winningNumber */\n      dup2\n        /* \"roulette.sol\":3435:3460  SpinResult(winningNumber) */\n      mload(0x40)\n      tag_70\n      swap2\n      swap1\n      tag_71\n      jump\t// in\n    tag_70:\n      mload(0x40)\n      dup1\n      swap2\n      sub\n      swap1\n      log1\n        /* \"roulette.sol\":3473:3492  uint256 houseProfit */\n      0x00\n        /* \"roulette.sol\":3495:3496  0 */\n      0x00\n        /* \"roulette.sol\":3473:3496  uint256 houseProfit = 0 */\n      swap1\n      pop\n        /* \"roulette.sol\":3550:3559  uint256 i */\n      0x00\n        /* \"roulette.sol\":3562:3563  0 */\n      0x00\n        /* \"roulette.sol\":3550:3563  uint256 i = 0 */\n      swap1\n      pop\n        /* \"roulette.sol\":3545:4270  for (uint256 i = 0; i < bets.length; i++) {... */\n    tag_72:\n        /* \"roulette.sol\":3569:3573  bets */\n      0x00\n        /* \"roulette.sol\":3569:3580  bets.length */\n      dup1\n      sload\n      swap1\n      pop\n        /* \"roulette.sol\":3565:3566  i */\n      dup2\n        /* \"roulette.sol\":3565:3580  i < bets.length */\n      lt\n        /* \"roulette.sol\":3545:4270  for (uint256 i = 0; i < bets.length; i++) {... */\n      iszero\n      tag_73\n      jumpi\n        /* \"roulette.sol\":3602:3620  Bet memory betInfo */\n      0x00\n        /* \"roulette.sol\":3623:3627  bets */\n      0x00\n        /* \"roulette.sol\":3628:3629  i */\n      dup3\n        /* \"roulette.sol\":3623:3630  bets[i] */\n      dup2\n      sload\n      dup2\n      lt\n      tag_75\n      jumpi\n      tag_76\n      tag_77\n      jump\t// in\n    tag_76:\n    tag_75:\n      swap1\n      0x00\n      mstore\n      keccak256(0x00, 0x20)\n      swap1\n      0x02\n      mul\n      add\n        /* \"roulette.sol\":3602:3630  Bet memory betInfo = bets[i] */\n      mload(0x40)\n      dup1\n      0x60\n      add\n      0x40\n      mstore\n      swap1\n      dup2\n      0x00\n      dup3\n      add\n      0x00\n      swap1\n      sload\n      swap1\n      0x0100\n      exp\n      swap1\n      div\n      0xffffffffffffffffffffffffffffffffffffffff\n      and\n      0xffffffffffffffffffffffffffffffffffffffff\n      and\n      0xffffffffffffffffffffffffffffffffffffffff\n      and\n      dup2\n      mstore\n      0x20\n      add\n      0x00\n      dup3\n      add\n      0x14\n      swap1\n      sload\n      swap1\n      0x0100\n      exp\n      swap1\n      div\n      0xff\n      and\n      0xff\n      and\n      0xff\n      and\n      dup2\n      mstore\n      0x20\n      add\n      0x01\n      dup3\n      add\n      sload\n      dup2\n      mstore\n      pop\n      pop\n      swap1\n      pop\n        /* \"roulette.sol\":3681:3694  winningNumber */\n      dup4\n        /* \"roulette.sol\":3663:3694  betInfo.number == winningNumber */\n      0xff\n      and\n        /* \"roulette.sol\":3663:3670  betInfo */\n      dup2\n        /* \"roulette.sol\":3663:3677  betInfo.number */\n      0x20\n      add\n      mload\n        /* \"roulette.sol\":3663:3694  betInfo.number == winningNumber */\n      0xff\n      and\n      sub\n        /* \"roulette.sol\":3659:4259  if (betInfo.number == winningNumber) {... */\n      tag_79\n      jumpi\n        /* \"roulette.sol\":3790:3810  uint256 payoutAmount */\n      0x00\n        /* \"roulette.sol\":3830:3832  36 */\n      0x24\n        /* \"roulette.sol\":3813:3820  betInfo */\n      dup3\n        /* \"roulette.sol\":3813:3827  betInfo.amount */\n      0x40\n      add\n      mload\n        /* \"roulette.sol\":3813:3832  betInfo.amount * 36 */\n      tag_80\n      swap2\n      swap1\n      tag_81\n      jump\t// in\n    tag_80:\n        /* \"roulette.sol\":3790:3832  uint256 payoutAmount = betInfo.amount * 36 */\n      swap1\n      pop\n        /* \"roulette.sol\":3920:3932  bool success */\n      0x00\n        /* \"roulette.sol\":3938:3945  betInfo */\n      dup3\n        /* \"roulette.sol\":3938:3952  betInfo.player */\n      0x00\n      add\n      mload\n        /* \"roulette.sol\":3938:3957  betInfo.player.call */\n      0xffffffffffffffffffffffffffffffffffffffff\n      and\n        /* \"roulette.sol\":3966:3978  payoutAmount */\n      dup3\n        /* \"roulette.sol\":3938:3984  betInfo.player.call{ value: payoutAmount }(\"\") */\n      mload(0x40)\n      tag_82\n      swap1\n      tag_83\n      jump\t// in\n    tag_82:\n      0x00\n      mload(0x40)\n      dup1\n      dup4\n      sub\n      dup2\n      dup6\n      dup8\n      gas\n      call\n      swap3\n      pop\n      pop\n      pop\n      returndatasize\n      dup1\n      0x00\n      dup2\n      eq\n      tag_86\n      jumpi\n      mload(0x40)\n      swap2\n      pop\n      and(add(returndatasize, 0x3f), not(0x1f))\n      dup3\n      add\n      0x40\n      mstore\n      returndatasize\n      dup3\n      mstore\n      returndatasize\n      0x00\n      0x20\n      dup5\n      add\n      returndatacopy\n      jump(tag_85)\n    tag_86:\n      0x60\n      swap2\n      pop\n    tag_85:\n      pop\n        /* \"roulette.sol\":3919:3984  (bool success, ) = betInfo.player.call{ value: payoutAmount }(\"\") */\n      pop\n      swap1\n      pop\n        /* \"roulette.sol\":4011:4018  success */\n      dup1\n        /* \"roulette.sol\":4003:4048  require(success, \"Transfer to winner failed\") */\n      tag_87\n      jumpi\n      mload(0x40)\n      0x08c379a000000000000000000000000000000000000000000000000000000000\n      dup2\n      mstore\n      0x04\n      add\n      tag_88\n      swap1\n      tag_89\n      jump\t// in\n    tag_88:\n      mload(0x40)\n      dup1\n      swap2\n      sub\n      swap1\n      revert\n    tag_87:\n        /* \"roulette.sol\":4097:4104  betInfo */\n      dup3\n        /* \"roulette.sol\":4097:4111  betInfo.player */\n      0x00\n      add\n      mload\n        /* \"roulette.sol\":4090:4126  Payout(betInfo.player, payoutAmount) */\n      0xffffffffffffffffffffffffffffffffffffffff\n      and\n      0x5afeca38b2064c23a692c4cf353015d80ab3ecc417b4f893f372690c11fbd9a6\n        /* \"roulette.sol\":4113:4125  payoutAmount */\n      dup4\n        /* \"roulette.sol\":4090:4126  Payout(betInfo.player, payoutAmount) */\n      mload(0x40)\n      tag_90\n      swap2\n      swap1\n      tag_51\n      jump\t// in\n    tag_90:\n      mload(0x40)\n      dup1\n      swap2\n      sub\n      swap1\n      log2\n        /* \"roulette.sol\":3696:4142  {... */\n      pop\n      pop\n        /* \"roulette.sol\":3659:4259  if (betInfo.number == winningNumber) {... */\n      jump(tag_91)\n    tag_79:\n        /* \"roulette.sol\":4229:4236  betInfo */\n      dup1\n        /* \"roulette.sol\":4229:4243  betInfo.amount */\n      0x40\n      add\n      mload\n        /* \"roulette.sol\":4214:4243  houseProfit += betInfo.amount */\n      dup4\n      tag_92\n      swap2\n      swap1\n      tag_93\n      jump\t// in\n    tag_92:\n      swap3\n      pop\n        /* \"roulette.sol\":3659:4259  if (betInfo.number == winningNumber) {... */\n    tag_91:\n        /* \"roulette.sol\":3587:4270  {... */\n      pop\n        /* \"roulette.sol\":3582:3585  i++ */\n      dup1\n      dup1\n      0x01\n      add\n      swap2\n      pop\n      pop\n        /* \"roulette.sol\":3545:4270  for (uint256 i = 0; i < bets.length; i++) {... */\n      jump(tag_72)\n    tag_73:\n      pop\n        /* \"roulette.sol\":4353:4354  0 */\n      0x00\n        /* \"roulette.sol\":4339:4350  houseProfit */\n      dup2\n        /* \"roulette.sol\":4339:4354  houseProfit > 0 */\n      gt\n        /* \"roulette.sol\":4335:4566  if (houseProfit > 0) {... */\n      iszero\n      tag_94\n      jumpi\n        /* \"roulette.sol\":4372:4386  bool housePaid */\n      0x00\n        /* \"roulette.sol\":4392:4397  owner */\n      0x02\n      0x00\n      swap1\n      sload\n      swap1\n      0x0100\n      exp\n      swap1\n      div\n      0xffffffffffffffffffffffffffffffffffffffff\n      and\n        /* \"roulette.sol\":4392:4402  owner.call */\n      0xffffffffffffffffffffffffffffffffffffffff\n      and\n        /* \"roulette.sol\":4411:4422  houseProfit */\n      dup3\n        /* \"roulette.sol\":4392:4428  owner.call{ value: houseProfit }(\"\") */\n      mload(0x40)\n      tag_95\n      swap1\n      tag_83\n      jump\t// in\n    tag_95:\n      0x00\n      mload(0x40)\n      dup1\n      dup4\n      sub\n      dup2\n      dup6\n      dup8\n      gas\n      call\n      swap3\n      pop\n      pop\n      pop\n      returndatasize\n      dup1\n      0x00\n      dup2\n      eq\n      tag_98\n      jumpi\n      mload(0x40)\n      swap2\n      pop\n      and(add(returndatasize, 0x3f), not(0x1f))\n      dup3\n      add\n      0x40\n      mstore\n      returndatasize\n      dup3\n      mstore\n      returndatasize\n      0x00\n      0x20\n      dup5\n      add\n      returndatacopy\n      jump(tag_97)\n    tag_98:\n      0x60\n      swap2\n      pop\n    tag_97:\n      pop\n        /* \"roulette.sol\":4371:4428  (bool housePaid, ) = owner.call{ value: houseProfit }(\"\") */\n      pop\n      swap1\n      pop\n        /* \"roulette.sol\":4451:4460  housePaid */\n      dup1\n        /* \"roulette.sol\":4443:4489  require(housePaid, \"Transfer to house failed\") */\n      tag_99\n      jumpi\n      mload(0x40)\n      0x08c379a000000000000000000000000000000000000000000000000000000000\n      dup2\n      mstore\n      0x04\n      add\n      tag_100\n      swap1\n      tag_101\n      jump\t// in\n    tag_100:\n      mload(0x40)\n      dup1\n      swap2\n      sub\n      swap1\n      revert\n    tag_99:\n        /* \"roulette.sol\":4535:4540  owner */\n      0x02\n      0x00\n      swap1\n      sload\n      swap1\n      0x0100\n      exp\n      swap1\n      div\n      0xffffffffffffffffffffffffffffffffffffffff\n      and\n        /* \"roulette.sol\":4523:4554  HouseProfit(owner, houseProfit) */\n      0xffffffffffffffffffffffffffffffffffffffff\n      and\n      0x3ee2ea076f8c03e334fba9777d3e41285053f2c24a54595f1066eae169b2b977\n        /* \"roulette.sol\":4542:4553  houseProfit */\n      dup4\n        /* \"roulette.sol\":4523:4554  HouseProfit(owner, houseProfit) */\n      mload(0x40)\n      tag_102\n      swap2\n      swap1\n      tag_51\n      jump\t// in\n    tag_102:\n      mload(0x40)\n      dup1\n      swap2\n      sub\n      swap1\n      log2\n        /* \"roulette.sol\":4356:4566  {... */\n      pop\n        /* \"roulette.sol\":4335:4566  if (houseProfit > 0) {... */\n    tag_94:\n        /* \"roulette.sol\":4627:4631  bets */\n      0x00\n      0x00\n        /* \"roulette.sol\":4620:4631  delete bets */\n      tag_103\n      swap2\n      swap1\n      tag_104\n      jump\t// in\n    tag_103:\n        /* \"roulette.sol\":2828:4639  {... */\n      pop\n      pop\n      pop\n        /* \"roulette.sol\":2788:4639  function spinWheel() external onlyOwner {... */\n      jump\t// out\n        /* \"roulette.sol\":587:604  Bet[] public bets */\n    tag_22:\n      0x00\n      dup2\n      dup2\n      sload\n      dup2\n      lt\n      tag_105\n      jumpi\n      0x00\n      dup1\n      revert\n    tag_105:\n      swap1\n      0x00\n      mstore\n      keccak256(0x00, 0x20)\n      swap1\n      0x02\n      mul\n      add\n      0x00\n      swap2\n      pop\n      swap1\n      pop\n      dup1\n      0x00\n      add\n      0x00\n      swap1\n      sload\n      swap1\n      0x0100\n      exp\n      swap1\n      div\n      0xffffffffffffffffffffffffffffffffffffffff\n      and\n      swap1\n      dup1\n      0x00\n      add\n      0x14\n      swap1\n      sload\n      swap1\n      0x0100\n      exp\n      swap1\n      div\n      0xff\n      and\n      swap1\n      dup1\n      0x01\n      add\n      sload\n      swap1\n      pop\n      dup4\n      jump\t// out\n        /* \"roulette.sol\":5118:5211  function getCurrentBets() external view returns (Bet[] memory) {... */\n    tag_27:\n        /* \"roulette.sol\":5167:5179  Bet[] memory */\n      0x60\n        /* \"roulette.sol\":5199:5203  bets */\n      0x00\n        /* \"roulette.sol\":5192:5203  return bets */\n      dup1\n      sload\n      dup1\n      0x20\n      mul\n      0x20\n      add\n      mload(0x40)\n      swap1\n      dup2\n      add\n      0x40\n      mstore\n      dup1\n      swap3\n      swap2\n      swap1\n      dup2\n      dup2\n      mstore\n      0x20\n      add\n      0x00\n      swap1\n    tag_108:\n      dup3\n      dup3\n      lt\n      iszero\n      tag_109\n      jumpi\n      dup4\n      dup3\n      swap1\n      0x00\n      mstore\n      keccak256(0x00, 0x20)\n      swap1\n      0x02\n      mul\n      add\n      mload(0x40)\n      dup1\n      0x60\n      add\n      0x40\n      mstore\n      swap1\n      dup2\n      0x00\n      dup3\n      add\n      0x00\n      swap1\n      sload\n      swap1\n      0x0100\n      exp\n      swap1\n      div\n      0xffffffffffffffffffffffffffffffffffffffff\n      and\n      0xffffffffffffffffffffffffffffffffffffffff\n      and\n      0xffffffffffffffffffffffffffffffffffffffff\n      and\n      dup2\n      mstore\n      0x20\n      add\n      0x00\n      dup3\n      add\n      0x14\n      swap1\n      sload\n      swap1\n      0x0100\n      exp\n      swap1\n      div\n      0xff\n      and\n      0xff\n      and\n      0xff\n      and\n      dup2\n      mstore\n      0x20\n      add\n      0x01\n      dup3\n      add\n      sload\n      dup2\n      mstore\n      pop\n      pop\n      dup2\n      mstore\n      0x20\n      add\n      swap1\n      0x01\n      add\n      swap1\n      jump(tag_108)\n    tag_109:\n      pop\n      pop\n      pop\n      pop\n      swap1\n      pop\n        /* \"roulette.sol\":5118:5211  function getCurrentBets() external view returns (Bet[] memory) {... */\n      swap1\n      jump\t// out\n        /* \"roulette.sol\":1965:2363  function placeBet(uint8 number) external payable {... */\n    tag_33:\n        /* \"roulette.sol\":2043:2045  36 */\n      0x24\n        /* \"roulette.sol\":2033:2039  number */\n      dup2\n        /* \"roulette.sol\":2033:2045  number <= 36 */\n      0xff\n      and\n      gt\n      iszero\n        /* \"roulette.sol\":2025:2081  require(number <= 36, \"Number must be between 0 and 36\") */\n      tag_112\n      jumpi\n      mload(0x40)\n      0x08c379a000000000000000000000000000000000000000000000000000000000\n      dup2\n      mstore\n      0x04\n      add\n      tag_113\n      swap1\n      tag_114\n      jump\t// in\n    tag_113:\n      mload(0x40)\n      dup1\n      swap2\n      sub\n      swap1\n      revert\n    tag_112:\n        /* \"roulette.sol\":2113:2119  minBet */\n      sload(0x01)\n        /* \"roulette.sol\":2100:2109  msg.value */\n      callvalue\n        /* \"roulette.sol\":2100:2119  msg.value >= minBet */\n      lt\n      iszero\n        /* \"roulette.sol\":2092:2159  require(msg.value >= minBet, \"Bet amount is below the minimum bet\") */\n      tag_115\n      jumpi\n      mload(0x40)\n      0x08c379a000000000000000000000000000000000000000000000000000000000\n      dup2\n      mstore\n      0x04\n      add\n      tag_116\n      swap1\n      tag_117\n      jump\t// in\n    tag_116:\n      mload(0x40)\n      dup1\n      swap2\n      sub\n      swap1\n      revert\n    tag_115:\n        /* \"roulette.sol\":2172:2176  bets */\n      0x00\n        /* \"roulette.sol\":2182:2296  Bet({ ... */\n      mload(0x40)\n      dup1\n      0x60\n      add\n      0x40\n      mstore\n      dup1\n        /* \"roulette.sol\":2210:2220  msg.sender */\n      caller\n        /* \"roulette.sol\":2182:2296  Bet({ ... */\n      0xffffffffffffffffffffffffffffffffffffffff\n      and\n      dup2\n      mstore\n      0x20\n      add\n        /* \"roulette.sol\":2244:2250  number */\n      dup4\n        /* \"roulette.sol\":2182:2296  Bet({ ... */\n      0xff\n      and\n      dup2\n      mstore\n      0x20\n      add\n        /* \"roulette.sol\":2274:2283  msg.value */\n      callvalue\n        /* \"roulette.sol\":2182:2296  Bet({ ... */\n      dup2\n      mstore\n      pop\n        /* \"roulette.sol\":2172:2297  bets.push(Bet({ ... */\n      swap1\n      dup1\n      0x01\n      dup2\n      sload\n      add\n      dup1\n      dup3\n      sstore\n      dup1\n      swap2\n      pop\n      pop\n      0x01\n      swap1\n      sub\n      swap1\n      0x00\n      mstore\n      keccak256(0x00, 0x20)\n      swap1\n      0x02\n      mul\n      add\n      0x00\n      swap1\n      swap2\n      swap1\n      swap2\n      swap1\n      swap2\n      pop\n      0x00\n      dup3\n      add\n      mload\n      dup2\n      0x00\n      add\n      exp(0x0100, 0x00)\n      dup2\n      sload\n      dup2\n      0xffffffffffffffffffffffffffffffffffffffff\n      mul\n      not\n      and\n      swap1\n      dup4\n      0xffffffffffffffffffffffffffffffffffffffff\n      and\n      mul\n      or\n      swap1\n      sstore\n      pop\n      0x20\n      dup3\n      add\n      mload\n      dup2\n      0x00\n      add\n      exp(0x0100, 0x14)\n      dup2\n      sload\n      dup2\n      0xff\n      mul\n      not\n      and\n      swap1\n      dup4\n      0xff\n      and\n      mul\n      or\n      swap1\n      sstore\n      pop\n      0x40\n      dup3\n      add\n      mload\n      dup2\n      0x01\n      add\n      sstore\n      pop\n      pop\n        /* \"roulette.sol\":2325:2335  msg.sender */\n      caller\n        /* \"roulette.sol\":2315:2355  BetPlaced(msg.sender, number, msg.value) */\n      0xffffffffffffffffffffffffffffffffffffffff\n      and\n      0x9f6b4cced64244a64465098f682029975b1614400b96bc6bd12c668083719166\n        /* \"roulette.sol\":2337:2343  number */\n      dup3\n        /* \"roulette.sol\":2345:2354  msg.value */\n      callvalue\n        /* \"roulette.sol\":2315:2355  BetPlaced(msg.sender, number, msg.value) */\n      mload(0x40)\n      tag_119\n      swap3\n      swap2\n      swap1\n      tag_120\n      jump\t// in\n    tag_119:\n      mload(0x40)\n      dup1\n      swap2\n      sub\n      swap1\n      log2\n        /* \"roulette.sol\":1965:2363  function placeBet(uint8 number) external payable {... */\n      pop\n      jump\t// out\n        /* \"roulette.sol\":5548:5811  function withdrawHouseFunds(uint256 _amount) external onlyOwner {... */\n    tag_37:\n        /* \"roulette.sol\":907:912  owner */\n      0x02\n      0x00\n      swap1\n      sload\n      swap1\n      0x0100\n      exp\n      swap1\n      div\n      0xffffffffffffffffffffffffffffffffffffffff\n      and\n        /* \"roulette.sol\":893:912  msg.sender == owner */\n      0xffffffffffffffffffffffffffffffffffffffff\n      and\n        /* \"roulette.sol\":893:903  msg.sender */\n      caller\n        /* \"roulette.sol\":893:912  msg.sender == owner */\n      0xffffffffffffffffffffffffffffffffffffffff\n      and\n      eq\n        /* \"roulette.sol\":885:954  require(msg.sender == owner, \"Only the owner can call this function\") */\n      tag_122\n      jumpi\n      mload(0x40)\n      0x08c379a000000000000000000000000000000000000000000000000000000000\n      dup2\n      mstore\n      0x04\n      add\n      tag_123\n      swap1\n      tag_59\n      jump\t// in\n    tag_123:\n      mload(0x40)\n      dup1\n      swap2\n      sub\n      swap1\n      revert\n    tag_122:\n        /* \"roulette.sol\":5642:5663  address(this).balance */\n      selfbalance\n        /* \"roulette.sol\":5631:5638  _amount */\n      dup2\n        /* \"roulette.sol\":5631:5663  _amount <= address(this).balance */\n      gt\n      iszero\n        /* \"roulette.sol\":5623:5695  require(_amount <= address(this).balance, \"Not enough contract balance\") */\n      tag_125\n      jumpi\n      mload(0x40)\n      0x08c379a000000000000000000000000000000000000000000000000000000000\n      dup2\n      mstore\n      0x04\n      add\n      tag_126\n      swap1\n      tag_127\n      jump\t// in\n    tag_126:\n      mload(0x40)\n      dup1\n      swap2\n      sub\n      swap1\n      revert\n    tag_125:\n        /* \"roulette.sol\":5707:5719  bool success */\n      0x00\n        /* \"roulette.sol\":5725:5730  owner */\n      0x02\n      0x00\n      swap1\n      sload\n      swap1\n      0x0100\n      exp\n      swap1\n      div\n      0xffffffffffffffffffffffffffffffffffffffff\n      and\n        /* \"roulette.sol\":5725:5735  owner.call */\n      0xffffffffffffffffffffffffffffffffffffffff\n      and\n        /* \"roulette.sol\":5744:5751  _amount */\n      dup3\n        /* \"roulette.sol\":5725:5757  owner.call{ value: _amount }(\"\") */\n      mload(0x40)\n      tag_128\n      swap1\n      tag_83\n      jump\t// in\n    tag_128:\n      0x00\n      mload(0x40)\n      dup1\n      dup4\n      sub\n      dup2\n      dup6\n      dup8\n      gas\n      call\n      swap3\n      pop\n      pop\n      pop\n      returndatasize\n      dup1\n      0x00\n      dup2\n      eq\n      tag_131\n      jumpi\n      mload(0x40)\n      swap2\n      pop\n      and(add(returndatasize, 0x3f), not(0x1f))\n      dup3\n      add\n      0x40\n      mstore\n      returndatasize\n      dup3\n      mstore\n      returndatasize\n      0x00\n      0x20\n      dup5\n      add\n      returndatacopy\n      jump(tag_130)\n    tag_131:\n      0x60\n      swap2\n      pop\n    tag_130:\n      pop\n        /* \"roulette.sol\":5706:5757  (bool success, ) = owner.call{ value: _amount }(\"\") */\n      pop\n      swap1\n      pop\n        /* \"roulette.sol\":5776:5783  success */\n      dup1\n        /* \"roulette.sol\":5768:5803  require(success, \"Withdraw failed\") */\n      tag_132\n      jumpi\n      mload(0x40)\n      0x08c379a000000000000000000000000000000000000000000000000000000000\n      dup2\n      mstore\n      0x04\n      add\n      tag_133\n      swap1\n      tag_134\n      jump\t// in\n    tag_133:\n      mload(0x40)\n      dup1\n      swap2\n      sub\n      swap1\n      revert\n    tag_132:\n        /* \"roulette.sol\":5612:5811  {... */\n      pop\n        /* \"roulette.sol\":5548:5811  function withdrawHouseFunds(uint256 _amount) external onlyOwner {... */\n      pop\n      jump\t// out\n        /* \"roulette.sol\":5340:5436  function setMinBet(uint256 _newMinBet) external onlyOwner {... */\n    tag_41:\n        /* \"roulette.sol\":907:912  owner */\n      0x02\n      0x00\n      swap1\n      sload\n      swap1\n      0x0100\n      exp\n      swap1\n      div\n      0xffffffffffffffffffffffffffffffffffffffff\n      and\n        /* \"roulette.sol\":893:912  msg.sender == owner */\n      0xffffffffffffffffffffffffffffffffffffffff\n      and\n        /* \"roulette.sol\":893:903  msg.sender */\n      caller\n        /* \"roulette.sol\":893:912  msg.sender == owner */\n      0xffffffffffffffffffffffffffffffffffffffff\n      and\n      eq\n        /* \"roulette.sol\":885:954  require(msg.sender == owner, \"Only the owner can call this function\") */\n      tag_136\n      jumpi\n      mload(0x40)\n      0x08c379a000000000000000000000000000000000000000000000000000000000\n      dup2\n      mstore\n      0x04\n      add\n      tag_137\n      swap1\n      tag_59\n      jump\t// in\n    tag_137:\n      mload(0x40)\n      dup1\n      swap2\n      sub\n      swap1\n      revert\n    tag_136:\n        /* \"roulette.sol\":5418:5428  _newMinBet */\n      dup1\n        /* \"roulette.sol\":5409:5415  minBet */\n      0x01\n        /* \"roulette.sol\":5409:5428  minBet = _newMinBet */\n      dup2\n      swap1\n      sstore\n      pop\n        /* \"roulette.sol\":5340:5436  function setMinBet(uint256 _newMinBet) external onlyOwner {... */\n      pop\n      jump\t// out\n        /* \"roulette.sol\":718:738  address public owner */\n    tag_44:\n      0x02\n      0x00\n      swap1\n      sload\n      swap1\n      0x0100\n      exp\n      swap1\n      div\n      0xffffffffffffffffffffffffffffffffffffffff\n      and\n      dup2\n      jump\t// out\n        /* \"roulette.sol\":650:671  uint256 public minBet */\n    tag_49:\n      sload(0x01)\n      dup2\n      jump\t// out\n        /* \"roulette.sol\":4857:4953  function getNumberOfBets() external view returns (uint256) {... */\n    tag_54:\n        /* \"roulette.sol\":4907:4914  uint256 */\n      0x00\n        /* \"roulette.sol\":4934:4938  bets */\n      0x00\n        /* \"roulette.sol\":4934:4945  bets.length */\n      dup1\n      sload\n      swap1\n      pop\n        /* \"roulette.sol\":4927:4945  return bets.length */\n      swap1\n      pop\n        /* \"roulette.sol\":4857:4953  function getNumberOfBets() external view returns (uint256) {... */\n      swap1\n      jump\t// out\n    tag_104:\n      pop\n      dup1\n      sload\n      0x00\n      dup3\n      sstore\n      0x02\n      mul\n      swap1\n      0x00\n      mstore\n      keccak256(0x00, 0x20)\n      swap1\n      dup2\n      add\n      swap1\n      tag_141\n      swap2\n      swap1\n      tag_142\n      jump\t// in\n    tag_141:\n      pop\n      jump\t// out\n    tag_142:\n    tag_143:\n      dup1\n      dup3\n      gt\n      iszero\n      tag_144\n      jumpi\n      0x00\n      0x00\n      dup3\n      add\n      exp(0x0100, 0x00)\n      dup2\n      sload\n      swap1\n      0xffffffffffffffffffffffffffffffffffffffff\n      mul\n      not\n      and\n      swap1\n      sstore\n      0x00\n      dup3\n      add\n      exp(0x0100, 0x14)\n      dup2\n      sload\n      swap1\n      0xff\n      mul\n      not\n      and\n      swap1\n      sstore\n      0x01\n      dup3\n      add\n      0x00\n      swap1\n      sstore\n      pop\n      0x02\n      add\n      jump(tag_143)\n    tag_144:\n      pop\n      swap1\n      jump\t// out\n        /* \"#utility.yul\":88:205   */\n    tag_146:\n        /* \"#utility.yul\":197:198   */\n      0x00\n        /* \"#utility.yul\":194:195   */\n      0x00\n        /* \"#utility.yul\":187:199   */\n      revert\n        /* \"#utility.yul\":334:411   */\n    tag_148:\n        /* \"#utility.yul\":371:378   */\n      0x00\n        /* \"#utility.yul\":400:405   */\n      dup2\n        /* \"#utility.yul\":389:405   */\n      swap1\n      pop\n        /* \"#utility.yul\":334:411   */\n      swap2\n      swap1\n      pop\n      jump\t// out\n        /* \"#utility.yul\":417:539   */\n    tag_149:\n        /* \"#utility.yul\":490:514   */\n      tag_206\n        /* \"#utility.yul\":508:513   */\n      dup2\n        /* \"#utility.yul\":490:514   */\n      tag_148\n      jump\t// in\n    tag_206:\n        /* \"#utility.yul\":483:488   */\n      dup2\n        /* \"#utility.yul\":480:515   */\n      eq\n        /* \"#utility.yul\":470:533   */\n      tag_207\n      jumpi\n        /* \"#utility.yul\":529:530   */\n      0x00\n        /* \"#utility.yul\":526:527   */\n      0x00\n        /* \"#utility.yul\":519:531   */\n      revert\n        /* \"#utility.yul\":470:533   */\n    tag_207:\n        /* \"#utility.yul\":417:539   */\n      pop\n      jump\t// out\n        /* \"#utility.yul\":545:684   */\n    tag_150:\n        /* \"#utility.yul\":591:596   */\n      0x00\n        /* \"#utility.yul\":629:635   */\n      dup2\n        /* \"#utility.yul\":616:636   */\n      calldataload\n        /* \"#utility.yul\":607:636   */\n      swap1\n      pop\n        /* \"#utility.yul\":645:678   */\n      tag_209\n        /* \"#utility.yul\":672:677   */\n      dup2\n        /* \"#utility.yul\":645:678   */\n      tag_149\n      jump\t// in\n    tag_209:\n        /* \"#utility.yul\":545:684   */\n      swap3\n      swap2\n      pop\n      pop\n      jump\t// out\n        /* \"#utility.yul\":690:1019   */\n    tag_21:\n        /* \"#utility.yul\":749:755   */\n      0x00\n        /* \"#utility.yul\":798:800   */\n      0x20\n        /* \"#utility.yul\":786:795   */\n      dup3\n        /* \"#utility.yul\":777:784   */\n      dup5\n        /* \"#utility.yul\":773:796   */\n      sub\n        /* \"#utility.yul\":769:801   */\n      slt\n        /* \"#utility.yul\":766:885   */\n      iszero\n      tag_211\n      jumpi\n        /* \"#utility.yul\":804:883   */\n      tag_212\n      tag_146\n      jump\t// in\n    tag_212:\n        /* \"#utility.yul\":766:885   */\n    tag_211:\n        /* \"#utility.yul\":924:925   */\n      0x00\n        /* \"#utility.yul\":949:1002   */\n      tag_213\n        /* \"#utility.yul\":994:1001   */\n      dup5\n        /* \"#utility.yul\":985:991   */\n      dup3\n        /* \"#utility.yul\":974:983   */\n      dup6\n        /* \"#utility.yul\":970:992   */\n      add\n        /* \"#utility.yul\":949:1002   */\n      tag_150\n      jump\t// in\n    tag_213:\n        /* \"#utility.yul\":939:1002   */\n      swap2\n      pop\n        /* \"#utility.yul\":895:1012   */\n      pop\n        /* \"#utility.yul\":690:1019   */\n      swap3\n      swap2\n      pop\n      pop\n      jump\t// out\n        /* \"#utility.yul\":1025:1151   */\n    tag_151:\n        /* \"#utility.yul\":1062:1069   */\n      0x00\n        /* \"#utility.yul\":1102:1144   */\n      0xffffffffffffffffffffffffffffffffffffffff\n        /* \"#utility.yul\":1095:1100   */\n      dup3\n        /* \"#utility.yul\":1091:1145   */\n      and\n        /* \"#utility.yul\":1080:1145   */\n      swap1\n      pop\n        /* \"#utility.yul\":1025:1151   */\n      swap2\n      swap1\n      pop\n      jump\t// out\n        /* \"#utility.yul\":1157:1253   */\n    tag_152:\n        /* \"#utility.yul\":1194:1201   */\n      0x00\n        /* \"#utility.yul\":1223:1247   */\n      tag_216\n        /* \"#utility.yul\":1241:1246   */\n      dup3\n        /* \"#utility.yul\":1223:1247   */\n      tag_151\n      jump\t// in\n    tag_216:\n        /* \"#utility.yul\":1212:1247   */\n      swap1\n      pop\n        /* \"#utility.yul\":1157:1253   */\n      swap2\n      swap1\n      pop\n      jump\t// out\n        /* \"#utility.yul\":1259:1377   */\n    tag_153:\n        /* \"#utility.yul\":1346:1370   */\n      tag_218\n        /* \"#utility.yul\":1364:1369   */\n      dup2\n        /* \"#utility.yul\":1346:1370   */\n      tag_152\n      jump\t// in\n    tag_218:\n        /* \"#utility.yul\":1341:1344   */\n      dup3\n        /* \"#utility.yul\":1334:1371   */\n      mstore\n        /* \"#utility.yul\":1259:1377   */\n      pop\n      pop\n      jump\t// out\n        /* \"#utility.yul\":1383:1469   */\n    tag_154:\n        /* \"#utility.yul\":1418:1425   */\n      0x00\n        /* \"#utility.yul\":1458:1462   */\n      0xff\n        /* \"#utility.yul\":1451:1456   */\n      dup3\n        /* \"#utility.yul\":1447:1463   */\n      and\n        /* \"#utility.yul\":1436:1463   */\n      swap1\n      pop\n        /* \"#utility.yul\":1383:1469   */\n      swap2\n      swap1\n      pop\n      jump\t// out\n        /* \"#utility.yul\":1475:1587   */\n    tag_155:\n        /* \"#utility.yul\":1558:1580   */\n      tag_221\n        /* \"#utility.yul\":1574:1579   */\n      dup2\n        /* \"#utility.yul\":1558:1580   */\n      tag_154\n      jump\t// in\n    tag_221:\n        /* \"#utility.yul\":1553:1556   */\n      dup3\n        /* \"#utility.yul\":1546:1581   */\n      mstore\n        /* \"#utility.yul\":1475:1587   */\n      pop\n      pop\n      jump\t// out\n        /* \"#utility.yul\":1593:1711   */\n    tag_156:\n        /* \"#utility.yul\":1680:1704   */\n      tag_223\n        /* \"#utility.yul\":1698:1703   */\n      dup2\n        /* \"#utility.yul\":1680:1704   */\n      tag_148\n      jump\t// in\n    tag_223:\n        /* \"#utility.yul\":1675:1678   */\n      dup3\n        /* \"#utility.yul\":1668:1705   */\n      mstore\n        /* \"#utility.yul\":1593:1711   */\n      pop\n      pop\n      jump\t// out\n        /* \"#utility.yul\":1717:2151   */\n    tag_24:\n        /* \"#utility.yul\":1862:1866   */\n      0x00\n        /* \"#utility.yul\":1900:1902   */\n      0x60\n        /* \"#utility.yul\":1889:1898   */\n      dup3\n        /* \"#utility.yul\":1885:1903   */\n      add\n        /* \"#utility.yul\":1877:1903   */\n      swap1\n      pop\n        /* \"#utility.yul\":1913:1984   */\n      tag_225\n        /* \"#utility.yul\":1981:1982   */\n      0x00\n        /* \"#utility.yul\":1970:1979   */\n      dup4\n        /* \"#utility.yul\":1966:1983   */\n      add\n        /* \"#utility.yul\":1957:1963   */\n      dup7\n        /* \"#utility.yul\":1913:1984   */\n      tag_153\n      jump\t// in\n    tag_225:\n        /* \"#utility.yul\":1994:2062   */\n      tag_226\n        /* \"#utility.yul\":2058:2060   */\n      0x20\n        /* \"#utility.yul\":2047:2056   */\n      dup4\n        /* \"#utility.yul\":2043:2061   */\n      add\n        /* \"#utility.yul\":2034:2040   */\n      dup6\n        /* \"#utility.yul\":1994:2062   */\n      tag_155\n      jump\t// in\n    tag_226:\n        /* \"#utility.yul\":2072:2144   */\n      tag_227\n        /* \"#utility.yul\":2140:2142   */\n      0x40\n        /* \"#utility.yul\":2129:2138   */\n      dup4\n        /* \"#utility.yul\":2125:2143   */\n      add\n        /* \"#utility.yul\":2116:2122   */\n      dup5\n        /* \"#utility.yul\":2072:2144   */\n      tag_156\n      jump\t// in\n    tag_227:\n        /* \"#utility.yul\":1717:2151   */\n      swap5\n      swap4\n      pop\n      pop\n      pop\n      pop\n      jump\t// out\n        /* \"#utility.yul\":2157:2289   */\n    tag_157:\n        /* \"#utility.yul\":2242:2248   */\n      0x00\n        /* \"#utility.yul\":2276:2281   */\n      dup2\n        /* \"#utility.yul\":2270:2282   */\n      mload\n        /* \"#utility.yul\":2260:2282   */\n      swap1\n      pop\n        /* \"#utility.yul\":2157:2289   */\n      swap2\n      swap1\n      pop\n      jump\t// out\n        /* \"#utility.yul\":2295:2497   */\n    tag_158:\n        /* \"#utility.yul\":2412:2423   */\n      0x00\n        /* \"#utility.yul\":2446:2452   */\n      dup3\n        /* \"#utility.yul\":2441:2444   */\n      dup3\n        /* \"#utility.yul\":2434:2453   */\n      mstore\n        /* \"#utility.yul\":2486:2490   */\n      0x20\n        /* \"#utility.yul\":2481:2484   */\n      dup3\n        /* \"#utility.yul\":2477:2491   */\n      add\n        /* \"#utility.yul\":2462:2491   */\n      swap1\n      pop\n        /* \"#utility.yul\":2295:2497   */\n      swap3\n      swap2\n      pop\n      pop\n      jump\t// out\n        /* \"#utility.yul\":2503:2653   */\n    tag_159:\n        /* \"#utility.yul\":2588:2592   */\n      0x00\n        /* \"#utility.yul\":2611:2614   */\n      dup2\n        /* \"#utility.yul\":2603:2614   */\n      swap1\n      pop\n        /* \"#utility.yul\":2641:2645   */\n      0x20\n        /* \"#utility.yul\":2636:2639   */\n      dup3\n        /* \"#utility.yul\":2632:2646   */\n      add\n        /* \"#utility.yul\":2624:2646   */\n      swap1\n      pop\n        /* \"#utility.yul\":2503:2653   */\n      swap2\n      swap1\n      pop\n      jump\t// out\n        /* \"#utility.yul\":2659:2767   */\n    tag_160:\n        /* \"#utility.yul\":2736:2760   */\n      tag_232\n        /* \"#utility.yul\":2754:2759   */\n      dup2\n        /* \"#utility.yul\":2736:2760   */\n      tag_152\n      jump\t// in\n    tag_232:\n        /* \"#utility.yul\":2731:2734   */\n      dup3\n        /* \"#utility.yul\":2724:2761   */\n      mstore\n        /* \"#utility.yul\":2659:2767   */\n      pop\n      pop\n      jump\t// out\n        /* \"#utility.yul\":2773:2875   */\n    tag_161:\n        /* \"#utility.yul\":2846:2868   */\n      tag_234\n        /* \"#utility.yul\":2862:2867   */\n      dup2\n        /* \"#utility.yul\":2846:2868   */\n      tag_154\n      jump\t// in\n    tag_234:\n        /* \"#utility.yul\":2841:2844   */\n      dup3\n        /* \"#utility.yul\":2834:2869   */\n      mstore\n        /* \"#utility.yul\":2773:2875   */\n      pop\n      pop\n      jump\t// out\n        /* \"#utility.yul\":2881:2989   */\n    tag_162:\n        /* \"#utility.yul\":2958:2982   */\n      tag_236\n        /* \"#utility.yul\":2976:2981   */\n      dup2\n        /* \"#utility.yul\":2958:2982   */\n      tag_148\n      jump\t// in\n    tag_236:\n        /* \"#utility.yul\":2953:2956   */\n      dup3\n        /* \"#utility.yul\":2946:2983   */\n      mstore\n        /* \"#utility.yul\":2881:2989   */\n      pop\n      pop\n      jump\t// out\n        /* \"#utility.yul\":3045:3704   */\n    tag_163:\n        /* \"#utility.yul\":3168:3172   */\n      0x60\n        /* \"#utility.yul\":3163:3166   */\n      dup3\n        /* \"#utility.yul\":3159:3173   */\n      add\n        /* \"#utility.yul\":3257:3261   */\n      0x00\n        /* \"#utility.yul\":3250:3255   */\n      dup3\n        /* \"#utility.yul\":3246:3262   */\n      add\n        /* \"#utility.yul\":3240:3263   */\n      mload\n        /* \"#utility.yul\":3276:3339   */\n      tag_238\n        /* \"#utility.yul\":3333:3337   */\n      0x00\n        /* \"#utility.yul\":3328:3331   */\n      dup6\n        /* \"#utility.yul\":3324:3338   */\n      add\n        /* \"#utility.yul\":3310:3322   */\n      dup3\n        /* \"#utility.yul\":3276:3339   */\n      tag_160\n      jump\t// in\n    tag_238:\n        /* \"#utility.yul\":3183:3349   */\n      pop\n        /* \"#utility.yul\":3433:3437   */\n      0x20\n        /* \"#utility.yul\":3426:3431   */\n      dup3\n        /* \"#utility.yul\":3422:3438   */\n      add\n        /* \"#utility.yul\":3416:3439   */\n      mload\n        /* \"#utility.yul\":3452:3511   */\n      tag_239\n        /* \"#utility.yul\":3505:3509   */\n      0x20\n        /* \"#utility.yul\":3500:3503   */\n      dup6\n        /* \"#utility.yul\":3496:3510   */\n      add\n        /* \"#utility.yul\":3482:3494   */\n      dup3\n        /* \"#utility.yul\":3452:3511   */\n      tag_161\n      jump\t// in\n    tag_239:\n        /* \"#utility.yul\":3359:3521   */\n      pop\n        /* \"#utility.yul\":3605:3609   */\n      0x40\n        /* \"#utility.yul\":3598:3603   */\n      dup3\n        /* \"#utility.yul\":3594:3610   */\n      add\n        /* \"#utility.yul\":3588:3611   */\n      mload\n        /* \"#utility.yul\":3624:3687   */\n      tag_240\n        /* \"#utility.yul\":3681:3685   */\n      0x40\n        /* \"#utility.yul\":3676:3679   */\n      dup6\n        /* \"#utility.yul\":3672:3686   */\n      add\n        /* \"#utility.yul\":3658:3670   */\n      dup3\n        /* \"#utility.yul\":3624:3687   */\n      tag_162\n      jump\t// in\n    tag_240:\n        /* \"#utility.yul\":3531:3697   */\n      pop\n        /* \"#utility.yul\":3137:3704   */\n      pop\n        /* \"#utility.yul\":3045:3704   */\n      pop\n      pop\n      jump\t// out\n        /* \"#utility.yul\":3710:3961   */\n    tag_164:\n        /* \"#utility.yul\":3815:3825   */\n      0x00\n        /* \"#utility.yul\":3836:3918   */\n      tag_242\n        /* \"#utility.yul\":3914:3917   */\n      dup4\n        /* \"#utility.yul\":3906:3912   */\n      dup4\n        /* \"#utility.yul\":3836:3918   */\n      tag_163\n      jump\t// in\n    tag_242:\n        /* \"#utility.yul\":3950:3954   */\n      0x60\n        /* \"#utility.yul\":3945:3948   */\n      dup4\n        /* \"#utility.yul\":3941:3955   */\n      add\n        /* \"#utility.yul\":3927:3955   */\n      swap1\n      pop\n        /* \"#utility.yul\":3710:3961   */\n      swap3\n      swap2\n      pop\n      pop\n      jump\t// out\n        /* \"#utility.yul\":3967:4098   */\n    tag_165:\n        /* \"#utility.yul\":4055:4059   */\n      0x00\n        /* \"#utility.yul\":4087:4091   */\n      0x20\n        /* \"#utility.yul\":4082:4085   */\n      dup3\n        /* \"#utility.yul\":4078:4092   */\n      add\n        /* \"#utility.yul\":4070:4092   */\n      swap1\n      pop\n        /* \"#utility.yul\":3967:4098   */\n      swap2\n      swap1\n      pop\n      jump\t// out\n        /* \"#utility.yul\":4158:5034   */\n    tag_166:\n        /* \"#utility.yul\":4313:4316   */\n      0x00\n        /* \"#utility.yul\":4342:4414   */\n      tag_245\n        /* \"#utility.yul\":4408:4413   */\n      dup3\n        /* \"#utility.yul\":4342:4414   */\n      tag_157\n      jump\t// in\n    tag_245:\n        /* \"#utility.yul\":4430:4534   */\n      tag_246\n        /* \"#utility.yul\":4527:4533   */\n      dup2\n        /* \"#utility.yul\":4522:4525   */\n      dup6\n        /* \"#utility.yul\":4430:4534   */\n      tag_158\n      jump\t// in\n    tag_246:\n        /* \"#utility.yul\":4423:4534   */\n      swap4\n      pop\n        /* \"#utility.yul\":4558:4632   */\n      tag_247\n        /* \"#utility.yul\":4626:4631   */\n      dup4\n        /* \"#utility.yul\":4558:4632   */\n      tag_159\n      jump\t// in\n    tag_247:\n        /* \"#utility.yul\":4655:4662   */\n      dup1\n        /* \"#utility.yul\":4686:4687   */\n      0x00\n        /* \"#utility.yul\":4671:5009   */\n    tag_248:\n        /* \"#utility.yul\":4696:4702   */\n      dup4\n        /* \"#utility.yul\":4693:4694   */\n      dup2\n        /* \"#utility.yul\":4690:4703   */\n      lt\n        /* \"#utility.yul\":4671:5009   */\n      iszero\n      tag_250\n      jumpi\n        /* \"#utility.yul\":4772:4778   */\n      dup2\n        /* \"#utility.yul\":4766:4779   */\n      mload\n        /* \"#utility.yul\":4799:4898   */\n      tag_251\n        /* \"#utility.yul\":4894:4897   */\n      dup9\n        /* \"#utility.yul\":4879:4892   */\n      dup3\n        /* \"#utility.yul\":4799:4898   */\n      tag_164\n      jump\t// in\n    tag_251:\n        /* \"#utility.yul\":4792:4898   */\n      swap8\n      pop\n        /* \"#utility.yul\":4921:4999   */\n      tag_252\n        /* \"#utility.yul\":4992:4998   */\n      dup4\n        /* \"#utility.yul\":4921:4999   */\n      tag_165\n      jump\t// in\n    tag_252:\n        /* \"#utility.yul\":4911:4999   */\n      swap3\n      pop\n        /* \"#utility.yul\":4731:5009   */\n      pop\n        /* \"#utility.yul\":4718:4719   */\n      0x01\n        /* \"#utility.yul\":4715:4716   */\n      dup2\n        /* \"#utility.yul\":4711:4720   */\n      add\n        /* \"#utility.yul\":4706:4720   */\n      swap1\n      pop\n        /* \"#utility.yul\":4671:5009   */\n      jump(tag_248)\n    tag_250:\n        /* \"#utility.yul\":4675:4689   */\n      pop\n        /* \"#utility.yul\":5025:5028   */\n      dup6\n        /* \"#utility.yul\":5018:5028   */\n      swap4\n      pop\n        /* \"#utility.yul\":4318:5034   */\n      pop\n      pop\n      pop\n        /* \"#utility.yul\":4158:5034   */\n      swap3\n      swap2\n      pop\n      pop\n      jump\t// out\n        /* \"#utility.yul\":5040:5485   */\n    tag_29:\n        /* \"#utility.yul\":5219:5223   */\n      0x00\n        /* \"#utility.yul\":5257:5259   */\n      0x20\n        /* \"#utility.yul\":5246:5255   */\n      dup3\n        /* \"#utility.yul\":5242:5260   */\n      add\n        /* \"#utility.yul\":5234:5260   */\n      swap1\n      pop\n        /* \"#utility.yul\":5306:5315   */\n      dup2\n        /* \"#utility.yul\":5300:5304   */\n      dup2\n        /* \"#utility.yul\":5296:5316   */\n      sub\n        /* \"#utility.yul\":5292:5293   */\n      0x00\n        /* \"#utility.yul\":5281:5290   */\n      dup4\n        /* \"#utility.yul\":5277:5294   */\n      add\n        /* \"#utility.yul\":5270:5317   */\n      mstore\n        /* \"#utility.yul\":5334:5478   */\n      tag_254\n        /* \"#utility.yul\":5473:5477   */\n      dup2\n        /* \"#utility.yul\":5464:5470   */\n      dup5\n        /* \"#utility.yul\":5334:5478   */\n      tag_166\n      jump\t// in\n    tag_254:\n        /* \"#utility.yul\":5326:5478   */\n      swap1\n      pop\n        /* \"#utility.yul\":5040:5485   */\n      swap3\n      swap2\n      pop\n      pop\n      jump\t// out\n        /* \"#utility.yul\":5491:5609   */\n    tag_167:\n        /* \"#utility.yul\":5562:5584   */\n      tag_256\n        /* \"#utility.yul\":5578:5583   */\n      dup2\n        /* \"#utility.yul\":5562:5584   */\n      tag_154\n      jump\t// in\n    tag_256:\n        /* \"#utility.yul\":5555:5560   */\n      dup2\n        /* \"#utility.yul\":5552:5585   */\n      eq\n        /* \"#utility.yul\":5542:5603   */\n      tag_257\n      jumpi\n        /* \"#utility.yul\":5599:5600   */\n      0x00\n        /* \"#utility.yul\":5596:5597   */\n      0x00\n        /* \"#utility.yul\":5589:5601   */\n      revert\n        /* \"#utility.yul\":5542:5603   */\n    tag_257:\n        /* \"#utility.yul\":5491:5609   */\n      pop\n      jump\t// out\n        /* \"#utility.yul\":5615:5750   */\n    tag_168:\n        /* \"#utility.yul\":5659:5664   */\n      0x00\n        /* \"#utility.yul\":5697:5703   */\n      dup2\n        /* \"#utility.yul\":5684:5704   */\n      calldataload\n        /* \"#utility.yul\":5675:5704   */\n      swap1\n      pop\n        /* \"#utility.yul\":5713:5744   */\n      tag_259\n        /* \"#utility.yul\":5738:5743   */\n      dup2\n        /* \"#utility.yul\":5713:5744   */\n      tag_167\n      jump\t// in\n    tag_259:\n        /* \"#utility.yul\":5615:5750   */\n      swap3\n      swap2\n      pop\n      pop\n      jump\t// out\n        /* \"#utility.yul\":5756:6081   */\n    tag_32:\n        /* \"#utility.yul\":5813:5819   */\n      0x00\n        /* \"#utility.yul\":5862:5864   */\n      0x20\n        /* \"#utility.yul\":5850:5859   */\n      dup3\n        /* \"#utility.yul\":5841:5848   */\n      dup5\n        /* \"#utility.yul\":5837:5860   */\n      sub\n        /* \"#utility.yul\":5833:5865   */\n      slt\n        /* \"#utility.yul\":5830:5949   */\n      iszero\n      tag_261\n      jumpi\n        /* \"#utility.yul\":5868:5947   */\n      tag_262\n      tag_146\n      jump\t// in\n    tag_262:\n        /* \"#utility.yul\":5830:5949   */\n    tag_261:\n        /* \"#utility.yul\":5988:5989   */\n      0x00\n        /* \"#utility.yul\":6013:6064   */\n      tag_263\n        /* \"#utility.yul\":6056:6063   */\n      dup5\n        /* \"#utility.yul\":6047:6053   */\n      dup3\n        /* \"#utility.yul\":6036:6045   */\n      dup6\n        /* \"#utility.yul\":6032:6054   */\n      add\n        /* \"#utility.yul\":6013:6064   */\n      tag_168\n      jump\t// in\n    tag_263:\n        /* \"#utility.yul\":6003:6064   */\n      swap2\n      pop\n        /* \"#utility.yul\":5959:6074   */\n      pop\n        /* \"#utility.yul\":5756:6081   */\n      swap3\n      swap2\n      pop\n      pop\n      jump\t// out\n        /* \"#utility.yul\":6087:6309   */\n    tag_46:\n        /* \"#utility.yul\":6180:6184   */\n      0x00\n        /* \"#utility.yul\":6218:6220   */\n      0x20\n        /* \"#utility.yul\":6207:6216   */\n      dup3\n        /* \"#utility.yul\":6203:6221   */\n      add\n        /* \"#utility.yul\":6195:6221   */\n      swap1\n      pop\n        /* \"#utility.yul\":6231:6302   */\n      tag_265\n        /* \"#utility.yul\":6299:6300   */\n      0x00\n        /* \"#utility.yul\":6288:6297   */\n      dup4\n        /* \"#utility.yul\":6284:6301   */\n      add\n        /* \"#utility.yul\":6275:6281   */\n      dup5\n        /* \"#utility.yul\":6231:6302   */\n      tag_153\n      jump\t// in\n    tag_265:\n        /* \"#utility.yul\":6087:6309   */\n      swap3\n      swap2\n      pop\n      pop\n      jump\t// out\n        /* \"#utility.yul\":6315:6537   */\n    tag_51:\n        /* \"#utility.yul\":6408:6412   */\n      0x00\n        /* \"#utility.yul\":6446:6448   */\n      0x20\n        /* \"#utility.yul\":6435:6444   */\n      dup3\n        /* \"#utility.yul\":6431:6449   */\n      add\n        /* \"#utility.yul\":6423:6449   */\n      swap1\n      pop\n        /* \"#utility.yul\":6459:6530   */\n      tag_267\n        /* \"#utility.yul\":6527:6528   */\n      0x00\n        /* \"#utility.yul\":6516:6525   */\n      dup4\n        /* \"#utility.yul\":6512:6529   */\n      add\n        /* \"#utility.yul\":6503:6509   */\n      dup5\n        /* \"#utility.yul\":6459:6530   */\n      tag_156\n      jump\t// in\n    tag_267:\n        /* \"#utility.yul\":6315:6537   */\n      swap3\n      swap2\n      pop\n      pop\n      jump\t// out\n        /* \"#utility.yul\":6543:6712   */\n    tag_169:\n        /* \"#utility.yul\":6627:6638   */\n      0x00\n        /* \"#utility.yul\":6661:6667   */\n      dup3\n        /* \"#utility.yul\":6656:6659   */\n      dup3\n        /* \"#utility.yul\":6649:6668   */\n      mstore\n        /* \"#utility.yul\":6701:6705   */\n      0x20\n        /* \"#utility.yul\":6696:6699   */\n      dup3\n        /* \"#utility.yul\":6692:6706   */\n      add\n        /* \"#utility.yul\":6677:6706   */\n      swap1\n      pop\n        /* \"#utility.yul\":6543:6712   */\n      swap3\n      swap2\n      pop\n      pop\n      jump\t// out\n        /* \"#utility.yul\":6718:6942   */\n    tag_170:\n        /* \"#utility.yul\":6858:6892   */\n      0x4f6e6c7920746865206f776e65722063616e2063616c6c20746869732066756e\n        /* \"#utility.yul\":6854:6855   */\n      0x00\n        /* \"#utility.yul\":6846:6852   */\n      dup3\n        /* \"#utility.yul\":6842:6856   */\n      add\n        /* \"#utility.yul\":6835:6893   */\n      mstore\n        /* \"#utility.yul\":6927:6934   */\n      0x6374696f6e000000000000000000000000000000000000000000000000000000\n        /* \"#utility.yul\":6922:6924   */\n      0x20\n        /* \"#utility.yul\":6914:6920   */\n      dup3\n        /* \"#utility.yul\":6910:6925   */\n      add\n        /* \"#utility.yul\":6903:6935   */\n      mstore\n        /* \"#utility.yul\":6718:6942   */\n      pop\n      jump\t// out\n        /* \"#utility.yul\":6948:7314   */\n    tag_171:\n        /* \"#utility.yul\":7090:7093   */\n      0x00\n        /* \"#utility.yul\":7111:7178   */\n      tag_271\n        /* \"#utility.yul\":7175:7177   */\n      0x25\n        /* \"#utility.yul\":7170:7173   */\n      dup4\n        /* \"#utility.yul\":7111:7178   */\n      tag_169\n      jump\t// in\n    tag_271:\n        /* \"#utility.yul\":7104:7178   */\n      swap2\n      pop\n        /* \"#utility.yul\":7187:7280   */\n      tag_272\n        /* \"#utility.yul\":7276:7279   */\n      dup3\n        /* \"#utility.yul\":7187:7280   */\n      tag_170\n      jump\t// in\n    tag_272:\n        /* \"#utility.yul\":7305:7307   */\n      0x40\n        /* \"#utility.yul\":7300:7303   */\n      dup3\n        /* \"#utility.yul\":7296:7308   */\n      add\n        /* \"#utility.yul\":7289:7308   */\n      swap1\n      pop\n        /* \"#utility.yul\":6948:7314   */\n      swap2\n      swap1\n      pop\n      jump\t// out\n        /* \"#utility.yul\":7320:7739   */\n    tag_59:\n        /* \"#utility.yul\":7486:7490   */\n      0x00\n        /* \"#utility.yul\":7524:7526   */\n      0x20\n        /* \"#utility.yul\":7513:7522   */\n      dup3\n        /* \"#utility.yul\":7509:7527   */\n      add\n        /* \"#utility.yul\":7501:7527   */\n      swap1\n      pop\n        /* \"#utility.yul\":7573:7582   */\n      dup2\n        /* \"#utility.yul\":7567:7571   */\n      dup2\n        /* \"#utility.yul\":7563:7583   */\n      sub\n        /* \"#utility.yul\":7559:7560   */\n      0x00\n        /* \"#utility.yul\":7548:7557   */\n      dup4\n        /* \"#utility.yul\":7544:7561   */\n      add\n        /* \"#utility.yul\":7537:7584   */\n      mstore\n        /* \"#utility.yul\":7601:7732   */\n      tag_274\n        /* \"#utility.yul\":7727:7731   */\n      dup2\n        /* \"#utility.yul\":7601:7732   */\n      tag_171\n      jump\t// in\n    tag_274:\n        /* \"#utility.yul\":7593:7732   */\n      swap1\n      pop\n        /* \"#utility.yul\":7320:7739   */\n      swap2\n      swap1\n      pop\n      jump\t// out\n        /* \"#utility.yul\":7745:7920   */\n    tag_172:\n        /* \"#utility.yul\":7885:7912   */\n      0x4e6f206265747320706c61636564207468697320726f756e6400000000000000\n        /* \"#utility.yul\":7881:7882   */\n      0x00\n        /* \"#utility.yul\":7873:7879   */\n      dup3\n        /* \"#utility.yul\":7869:7883   */\n      add\n        /* \"#utility.yul\":7862:7913   */\n      mstore\n        /* \"#utility.yul\":7745:7920   */\n      pop\n      jump\t// out\n        /* \"#utility.yul\":7926:8292   */\n    tag_173:\n        /* \"#utility.yul\":8068:8071   */\n      0x00\n        /* \"#utility.yul\":8089:8156   */\n      tag_277\n        /* \"#utility.yul\":8153:8155   */\n      0x19\n        /* \"#utility.yul\":8148:8151   */\n      dup4\n        /* \"#utility.yul\":8089:8156   */\n      tag_169\n      jump\t// in\n    tag_277:\n        /* \"#utility.yul\":8082:8156   */\n      swap2\n      pop\n        /* \"#utility.yul\":8165:8258   */\n      tag_278\n        /* \"#utility.yul\":8254:8257   */\n      dup3\n        /* \"#utility.yul\":8165:8258   */\n      tag_172\n      jump\t// in\n    tag_278:\n        /* \"#utility.yul\":8283:8285   */\n      0x20\n        /* \"#utility.yul\":8278:8281   */\n      dup3\n        /* \"#utility.yul\":8274:8286   */\n      add\n        /* \"#utility.yul\":8267:8286   */\n      swap1\n      pop\n        /* \"#utility.yul\":7926:8292   */\n      swap2\n      swap1\n      pop\n      jump\t// out\n        /* \"#utility.yul\":8298:8717   */\n    tag_63:\n        /* \"#utility.yul\":8464:8468   */\n      0x00\n        /* \"#utility.yul\":8502:8504   */\n      0x20\n        /* \"#utility.yul\":8491:8500   */\n      dup3\n        /* \"#utility.yul\":8487:8505   */\n      add\n        /* \"#utility.yul\":8479:8505   */\n      swap1\n      pop\n        /* \"#utility.yul\":8551:8560   */\n      dup2\n        /* \"#utility.yul\":8545:8549   */\n      dup2\n        /* \"#utility.yul\":8541:8561   */\n      sub\n        /* \"#utility.yul\":8537:8538   */\n      0x00\n        /* \"#utility.yul\":8526:8535   */\n      dup4\n        /* \"#utility.yul\":8522:8539   */\n      add\n        /* \"#utility.yul\":8515:8562   */\n      mstore\n        /* \"#utility.yul\":8579:8710   */\n      tag_280\n        /* \"#utility.yul\":8705:8709   */\n      dup2\n        /* \"#utility.yul\":8579:8710   */\n      tag_173\n      jump\t// in\n    tag_280:\n        /* \"#utility.yul\":8571:8710   */\n      swap1\n      pop\n        /* \"#utility.yul\":8298:8717   */\n      swap2\n      swap1\n      pop\n      jump\t// out\n        /* \"#utility.yul\":8723:8903   */\n    tag_174:\n        /* \"#utility.yul\":8771:8848   */\n      0x4e487b7100000000000000000000000000000000000000000000000000000000\n        /* \"#utility.yul\":8768:8769   */\n      0x00\n        /* \"#utility.yul\":8761:8849   */\n      mstore\n        /* \"#utility.yul\":8868:8872   */\n      0x11\n        /* \"#utility.yul\":8865:8866   */\n      0x04\n        /* \"#utility.yul\":8858:8873   */\n      mstore\n        /* \"#utility.yul\":8892:8896   */\n      0x24\n        /* \"#utility.yul\":8889:8890   */\n      0x00\n        /* \"#utility.yul\":8882:8897   */\n      revert\n        /* \"#utility.yul\":8909:9103   */\n    tag_65:\n        /* \"#utility.yul\":8949:8953   */\n      0x00\n        /* \"#utility.yul\":8969:8989   */\n      tag_283\n        /* \"#utility.yul\":8987:8988   */\n      dup3\n        /* \"#utility.yul\":8969:8989   */\n      tag_148\n      jump\t// in\n    tag_283:\n        /* \"#utility.yul\":8964:8989   */\n      swap2\n      pop\n        /* \"#utility.yul\":9003:9023   */\n      tag_284\n        /* \"#utility.yul\":9021:9022   */\n      dup4\n        /* \"#utility.yul\":9003:9023   */\n      tag_148\n      jump\t// in\n    tag_284:\n        /* \"#utility.yul\":8998:9023   */\n      swap3\n      pop\n        /* \"#utility.yul\":9047:9048   */\n      dup3\n        /* \"#utility.yul\":9044:9045   */\n      dup3\n        /* \"#utility.yul\":9040:9049   */\n      sub\n        /* \"#utility.yul\":9032:9049   */\n      swap1\n      pop\n        /* \"#utility.yul\":9071:9072   */\n      dup2\n        /* \"#utility.yul\":9065:9069   */\n      dup2\n        /* \"#utility.yul\":9062:9073   */\n      gt\n        /* \"#utility.yul\":9059:9096   */\n      iszero\n      tag_285\n      jumpi\n        /* \"#utility.yul\":9076:9094   */\n      tag_286\n      tag_174\n      jump\t// in\n    tag_286:\n        /* \"#utility.yul\":9059:9096   */\n    tag_285:\n        /* \"#utility.yul\":8909:9103   */\n      swap3\n      swap2\n      pop\n      pop\n      jump\t// out\n        /* \"#utility.yul\":9109:9186   */\n    tag_175:\n        /* \"#utility.yul\":9146:9153   */\n      0x00\n        /* \"#utility.yul\":9175:9180   */\n      dup2\n        /* \"#utility.yul\":9164:9180   */\n      swap1\n      pop\n        /* \"#utility.yul\":9109:9186   */\n      swap2\n      swap1\n      pop\n      jump\t// out\n        /* \"#utility.yul\":9192:9271   */\n    tag_176:\n        /* \"#utility.yul\":9231:9238   */\n      0x00\n        /* \"#utility.yul\":9260:9265   */\n      dup2\n        /* \"#utility.yul\":9249:9265   */\n      swap1\n      pop\n        /* \"#utility.yul\":9192:9271   */\n      swap2\n      swap1\n      pop\n      jump\t// out\n        /* \"#utility.yul\":9277:9434   */\n    tag_177:\n        /* \"#utility.yul\":9382:9427   */\n      tag_290\n        /* \"#utility.yul\":9402:9426   */\n      tag_291\n        /* \"#utility.yul\":9420:9425   */\n      dup3\n        /* \"#utility.yul\":9402:9426   */\n      tag_175\n      jump\t// in\n    tag_291:\n        /* \"#utility.yul\":9382:9427   */\n      tag_176\n      jump\t// in\n    tag_290:\n        /* \"#utility.yul\":9377:9380   */\n      dup3\n        /* \"#utility.yul\":9370:9428   */\n      mstore\n        /* \"#utility.yul\":9277:9434   */\n      pop\n      pop\n      jump\t// out\n        /* \"#utility.yul\":9440:9519   */\n    tag_178:\n        /* \"#utility.yul\":9479:9486   */\n      0x00\n        /* \"#utility.yul\":9508:9513   */\n      dup2\n        /* \"#utility.yul\":9497:9513   */\n      swap1\n      pop\n        /* \"#utility.yul\":9440:9519   */\n      swap2\n      swap1\n      pop\n      jump\t// out\n        /* \"#utility.yul\":9525:9682   */\n    tag_179:\n        /* \"#utility.yul\":9630:9675   */\n      tag_294\n        /* \"#utility.yul\":9650:9674   */\n      tag_295\n        /* \"#utility.yul\":9668:9673   */\n      dup3\n        /* \"#utility.yul\":9650:9674   */\n      tag_148\n      jump\t// in\n    tag_295:\n        /* \"#utility.yul\":9630:9675   */\n      tag_178\n      jump\t// in\n    tag_294:\n        /* \"#utility.yul\":9625:9628   */\n      dup3\n        /* \"#utility.yul\":9618:9676   */\n      mstore\n        /* \"#utility.yul\":9525:9682   */\n      pop\n      pop\n      jump\t// out\n        /* \"#utility.yul\":9688:9782   */\n    tag_180:\n        /* \"#utility.yul\":9721:9729   */\n      0x00\n        /* \"#utility.yul\":9769:9774   */\n      dup2\n        /* \"#utility.yul\":9765:9767   */\n      0x60\n        /* \"#utility.yul\":9761:9775   */\n      shl\n        /* \"#utility.yul\":9740:9775   */\n      swap1\n      pop\n        /* \"#utility.yul\":9688:9782   */\n      swap2\n      swap1\n      pop\n      jump\t// out\n        /* \"#utility.yul\":9788:9882   */\n    tag_181:\n        /* \"#utility.yul\":9827:9834   */\n      0x00\n        /* \"#utility.yul\":9856:9876   */\n      tag_298\n        /* \"#utility.yul\":9870:9875   */\n      dup3\n        /* \"#utility.yul\":9856:9876   */\n      tag_180\n      jump\t// in\n    tag_298:\n        /* \"#utility.yul\":9845:9876   */\n      swap1\n      pop\n        /* \"#utility.yul\":9788:9882   */\n      swap2\n      swap1\n      pop\n      jump\t// out\n        /* \"#utility.yul\":9888:9988   */\n    tag_182:\n        /* \"#utility.yul\":9927:9934   */\n      0x00\n        /* \"#utility.yul\":9956:9982   */\n      tag_300\n        /* \"#utility.yul\":9976:9981   */\n      dup3\n        /* \"#utility.yul\":9956:9982   */\n      tag_181\n      jump\t// in\n    tag_300:\n        /* \"#utility.yul\":9945:9982   */\n      swap1\n      pop\n        /* \"#utility.yul\":9888:9988   */\n      swap2\n      swap1\n      pop\n      jump\t// out\n        /* \"#utility.yul\":9994:10151   */\n    tag_183:\n        /* \"#utility.yul\":10099:10144   */\n      tag_302\n        /* \"#utility.yul\":10119:10143   */\n      tag_303\n        /* \"#utility.yul\":10137:10142   */\n      dup3\n        /* \"#utility.yul\":10119:10143   */\n      tag_152\n      jump\t// in\n    tag_303:\n        /* \"#utility.yul\":10099:10144   */\n      tag_182\n      jump\t// in\n    tag_302:\n        /* \"#utility.yul\":10094:10097   */\n      dup3\n        /* \"#utility.yul\":10087:10145   */\n      mstore\n        /* \"#utility.yul\":9994:10151   */\n      pop\n      pop\n      jump\t// out\n        /* \"#utility.yul\":10157:10977   */\n    tag_67:\n        /* \"#utility.yul\":10381:10384   */\n      0x00\n        /* \"#utility.yul\":10396:10471   */\n      tag_305\n        /* \"#utility.yul\":10467:10470   */\n      dup3\n        /* \"#utility.yul\":10458:10464   */\n      dup9\n        /* \"#utility.yul\":10396:10471   */\n      tag_177\n      jump\t// in\n    tag_305:\n        /* \"#utility.yul\":10496:10498   */\n      0x20\n        /* \"#utility.yul\":10491:10494   */\n      dup3\n        /* \"#utility.yul\":10487:10499   */\n      add\n        /* \"#utility.yul\":10480:10499   */\n      swap2\n      pop\n        /* \"#utility.yul\":10509:10584   */\n      tag_306\n        /* \"#utility.yul\":10580:10583   */\n      dup3\n        /* \"#utility.yul\":10571:10577   */\n      dup8\n        /* \"#utility.yul\":10509:10584   */\n      tag_179\n      jump\t// in\n    tag_306:\n        /* \"#utility.yul\":10609:10611   */\n      0x20\n        /* \"#utility.yul\":10604:10607   */\n      dup3\n        /* \"#utility.yul\":10600:10612   */\n      add\n        /* \"#utility.yul\":10593:10612   */\n      swap2\n      pop\n        /* \"#utility.yul\":10622:10697   */\n      tag_307\n        /* \"#utility.yul\":10693:10696   */\n      dup3\n        /* \"#utility.yul\":10684:10690   */\n      dup7\n        /* \"#utility.yul\":10622:10697   */\n      tag_179\n      jump\t// in\n    tag_307:\n        /* \"#utility.yul\":10722:10724   */\n      0x20\n        /* \"#utility.yul\":10717:10720   */\n      dup3\n        /* \"#utility.yul\":10713:10725   */\n      add\n        /* \"#utility.yul\":10706:10725   */\n      swap2\n      pop\n        /* \"#utility.yul\":10735:10810   */\n      tag_308\n        /* \"#utility.yul\":10806:10809   */\n      dup3\n        /* \"#utility.yul\":10797:10803   */\n      dup6\n        /* \"#utility.yul\":10735:10810   */\n      tag_183\n      jump\t// in\n    tag_308:\n        /* \"#utility.yul\":10835:10837   */\n      0x14\n        /* \"#utility.yul\":10830:10833   */\n      dup3\n        /* \"#utility.yul\":10826:10838   */\n      add\n        /* \"#utility.yul\":10819:10838   */\n      swap2\n      pop\n        /* \"#utility.yul\":10848:10923   */\n      tag_309\n        /* \"#utility.yul\":10919:10922   */\n      dup3\n        /* \"#utility.yul\":10910:10916   */\n      dup5\n        /* \"#utility.yul\":10848:10923   */\n      tag_179\n      jump\t// in\n    tag_309:\n        /* \"#utility.yul\":10948:10950   */\n      0x20\n        /* \"#utility.yul\":10943:10946   */\n      dup3\n        /* \"#utility.yul\":10939:10951   */\n      add\n        /* \"#utility.yul\":10932:10951   */\n      swap2\n      pop\n        /* \"#utility.yul\":10968:10971   */\n      dup2\n        /* \"#utility.yul\":10961:10971   */\n      swap1\n      pop\n        /* \"#utility.yul\":10157:10977   */\n      swap7\n      swap6\n      pop\n      pop\n      pop\n      pop\n      pop\n      pop\n      jump\t// out\n        /* \"#utility.yul\":10983:11163   */\n    tag_184:\n        /* \"#utility.yul\":11031:11108   */\n      0x4e487b7100000000000000000000000000000000000000000000000000000000\n        /* \"#utility.yul\":11028:11029   */\n      0x00\n        /* \"#utility.yul\":11021:11109   */\n      mstore\n        /* \"#utility.yul\":11128:11132   */\n      0x12\n        /* \"#utility.yul\":11125:11126   */\n      0x04\n        /* \"#utility.yul\":11118:11133   */\n      mstore\n        /* \"#utility.yul\":11152:11156   */\n      0x24\n        /* \"#utility.yul\":11149:11150   */\n      0x00\n        /* \"#utility.yul\":11142:11157   */\n      revert\n        /* \"#utility.yul\":11169:11345   */\n    tag_69:\n        /* \"#utility.yul\":11201:11202   */\n      0x00\n        /* \"#utility.yul\":11218:11238   */\n      tag_312\n        /* \"#utility.yul\":11236:11237   */\n      dup3\n        /* \"#utility.yul\":11218:11238   */\n      tag_148\n      jump\t// in\n    tag_312:\n        /* \"#utility.yul\":11213:11238   */\n      swap2\n      pop\n        /* \"#utility.yul\":11252:11272   */\n      tag_313\n        /* \"#utility.yul\":11270:11271   */\n      dup4\n        /* \"#utility.yul\":11252:11272   */\n      tag_148\n      jump\t// in\n    tag_313:\n        /* \"#utility.yul\":11247:11272   */\n      swap3\n      pop\n        /* \"#utility.yul\":11291:11292   */\n      dup3\n        /* \"#utility.yul\":11281:11316   */\n      tag_314\n      jumpi\n        /* \"#utility.yul\":11296:11314   */\n      tag_315\n      tag_184\n      jump\t// in\n    tag_315:\n        /* \"#utility.yul\":11281:11316   */\n    tag_314:\n        /* \"#utility.yul\":11337:11338   */\n      dup3\n        /* \"#utility.yul\":11334:11335   */\n      dup3\n        /* \"#utility.yul\":11330:11339   */\n      mod\n        /* \"#utility.yul\":11325:11339   */\n      swap1\n      pop\n        /* \"#utility.yul\":11169:11345   */\n      swap3\n      swap2\n      pop\n      pop\n      jump\t// out\n        /* \"#utility.yul\":11351:11565   */\n    tag_71:\n        /* \"#utility.yul\":11440:11444   */\n      0x00\n        /* \"#utility.yul\":11478:11480   */\n      0x20\n        /* \"#utility.yul\":11467:11476   */\n      dup3\n        /* \"#utility.yul\":11463:11481   */\n      add\n        /* \"#utility.yul\":11455:11481   */\n      swap1\n      pop\n        /* \"#utility.yul\":11491:11558   */\n      tag_317\n        /* \"#utility.yul\":11555:11556   */\n      0x00\n        /* \"#utility.yul\":11544:11553   */\n      dup4\n        /* \"#utility.yul\":11540:11557   */\n      add\n        /* \"#utility.yul\":11531:11537   */\n      dup5\n        /* \"#utility.yul\":11491:11558   */\n      tag_155\n      jump\t// in\n    tag_317:\n        /* \"#utility.yul\":11351:11565   */\n      swap3\n      swap2\n      pop\n      pop\n      jump\t// out\n        /* \"#utility.yul\":11571:11751   */\n    tag_77:\n        /* \"#utility.yul\":11619:11696   */\n      0x4e487b7100000000000000000000000000000000000000000000000000000000\n        /* \"#utility.yul\":11616:11617   */\n      0x00\n        /* \"#utility.yul\":11609:11697   */\n      mstore\n        /* \"#utility.yul\":11716:11720   */\n      0x32\n        /* \"#utility.yul\":11713:11714   */\n      0x04\n        /* \"#utility.yul\":11706:11721   */\n      mstore\n        /* \"#utility.yul\":11740:11744   */\n      0x24\n        /* \"#utility.yul\":11737:11738   */\n      0x00\n        /* \"#utility.yul\":11730:11745   */\n      revert\n        /* \"#utility.yul\":11757:12167   */\n    tag_81:\n        /* \"#utility.yul\":11797:11804   */\n      0x00\n        /* \"#utility.yul\":11820:11840   */\n      tag_320\n        /* \"#utility.yul\":11838:11839   */\n      dup3\n        /* \"#utility.yul\":11820:11840   */\n      tag_148\n      jump\t// in\n    tag_320:\n        /* \"#utility.yul\":11815:11840   */\n      swap2\n      pop\n        /* \"#utility.yul\":11854:11874   */\n      tag_321\n        /* \"#utility.yul\":11872:11873   */\n      dup4\n        /* \"#utility.yul\":11854:11874   */\n      tag_148\n      jump\t// in\n    tag_321:\n        /* \"#utility.yul\":11849:11874   */\n      swap3\n      pop\n        /* \"#utility.yul\":11909:11910   */\n      dup3\n        /* \"#utility.yul\":11906:11907   */\n      dup3\n        /* \"#utility.yul\":11902:11911   */\n      mul\n        /* \"#utility.yul\":11931:11961   */\n      tag_322\n        /* \"#utility.yul\":11949:11960   */\n      dup2\n        /* \"#utility.yul\":11931:11961   */\n      tag_148\n      jump\t// in\n    tag_322:\n        /* \"#utility.yul\":11920:11961   */\n      swap2\n      pop\n        /* \"#utility.yul\":12110:12111   */\n      dup3\n        /* \"#utility.yul\":12101:12108   */\n      dup3\n        /* \"#utility.yul\":12097:12112   */\n      div\n        /* \"#utility.yul\":12094:12095   */\n      dup5\n        /* \"#utility.yul\":12091:12113   */\n      eq\n        /* \"#utility.yul\":12071:12072   */\n      dup4\n        /* \"#utility.yul\":12064:12073   */\n      iszero\n        /* \"#utility.yul\":12044:12127   */\n      or\n        /* \"#utility.yul\":12021:12160   */\n      tag_323\n      jumpi\n        /* \"#utility.yul\":12140:12158   */\n      tag_324\n      tag_174\n      jump\t// in\n    tag_324:\n        /* \"#utility.yul\":12021:12160   */\n    tag_323:\n        /* \"#utility.yul\":11805:12167   */\n      pop\n        /* \"#utility.yul\":11757:12167   */\n      swap3\n      swap2\n      pop\n      pop\n      jump\t// out\n        /* \"#utility.yul\":12173:12320   */\n    tag_185:\n        /* \"#utility.yul\":12274:12285   */\n      0x00\n        /* \"#utility.yul\":12311:12314   */\n      dup2\n        /* \"#utility.yul\":12296:12314   */\n      swap1\n      pop\n        /* \"#utility.yul\":12173:12320   */\n      swap3\n      swap2\n      pop\n      pop\n      jump\t// out\n        /* \"#utility.yul\":12326:12440   */\n    tag_186:\n      pop\n      jump\t// out\n        /* \"#utility.yul\":12446:12844   */\n    tag_187:\n        /* \"#utility.yul\":12605:12608   */\n      0x00\n        /* \"#utility.yul\":12626:12709   */\n      tag_328\n        /* \"#utility.yul\":12707:12708   */\n      0x00\n        /* \"#utility.yul\":12702:12705   */\n      dup4\n        /* \"#utility.yul\":12626:12709   */\n      tag_185\n      jump\t// in\n    tag_328:\n        /* \"#utility.yul\":12619:12709   */\n      swap2\n      pop\n        /* \"#utility.yul\":12718:12811   */\n      tag_329\n        /* \"#utility.yul\":12807:12810   */\n      dup3\n        /* \"#utility.yul\":12718:12811   */\n      tag_186\n      jump\t// in\n    tag_329:\n        /* \"#utility.yul\":12836:12837   */\n      0x00\n        /* \"#utility.yul\":12831:12834   */\n      dup3\n        /* \"#utility.yul\":12827:12838   */\n      add\n        /* \"#utility.yul\":12820:12838   */\n      swap1\n      pop\n        /* \"#utility.yul\":12446:12844   */\n      swap2\n      swap1\n      pop\n      jump\t// out\n        /* \"#utility.yul\":12850:13229   */\n    tag_83:\n        /* \"#utility.yul\":13034:13037   */\n      0x00\n        /* \"#utility.yul\":13056:13203   */\n      tag_331\n        /* \"#utility.yul\":13199:13202   */\n      dup3\n        /* \"#utility.yul\":13056:13203   */\n      tag_187\n      jump\t// in\n    tag_331:\n        /* \"#utility.yul\":13049:13203   */\n      swap2\n      pop\n        /* \"#utility.yul\":13220:13223   */\n      dup2\n        /* \"#utility.yul\":13213:13223   */\n      swap1\n      pop\n        /* \"#utility.yul\":12850:13229   */\n      swap2\n      swap1\n      pop\n      jump\t// out\n        /* \"#utility.yul\":13235:13410   */\n    tag_188:\n        /* \"#utility.yul\":13375:13402   */\n      0x5472616e7366657220746f2077696e6e6572206661696c656400000000000000\n        /* \"#utility.yul\":13371:13372   */\n      0x00\n        /* \"#utility.yul\":13363:13369   */\n      dup3\n        /* \"#utility.yul\":13359:13373   */\n      add\n        /* \"#utility.yul\":13352:13403   */\n      mstore\n        /* \"#utility.yul\":13235:13410   */\n      pop\n      jump\t// out\n        /* \"#utility.yul\":13416:13782   */\n    tag_189:\n        /* \"#utility.yul\":13558:13561   */\n      0x00\n        /* \"#utility.yul\":13579:13646   */\n      tag_334\n        /* \"#utility.yul\":13643:13645   */\n      0x19\n        /* \"#utility.yul\":13638:13641   */\n      dup4\n        /* \"#utility.yul\":13579:13646   */\n      tag_169\n      jump\t// in\n    tag_334:\n        /* \"#utility.yul\":13572:13646   */\n      swap2\n      pop\n        /* \"#utility.yul\":13655:13748   */\n      tag_335\n        /* \"#utility.yul\":13744:13747   */\n      dup3\n        /* \"#utility.yul\":13655:13748   */\n      tag_188\n      jump\t// in\n    tag_335:\n        /* \"#utility.yul\":13773:13775   */\n      0x20\n        /* \"#utility.yul\":13768:13771   */\n      dup3\n        /* \"#utility.yul\":13764:13776   */\n      add\n        /* \"#utility.yul\":13757:13776   */\n      swap1\n      pop\n        /* \"#utility.yul\":13416:13782   */\n      swap2\n      swap1\n      pop\n      jump\t// out\n        /* \"#utility.yul\":13788:14207   */\n    tag_89:\n        /* \"#utility.yul\":13954:13958   */\n      0x00\n        /* \"#utility.yul\":13992:13994   */\n      0x20\n        /* \"#utility.yul\":13981:13990   */\n      dup3\n        /* \"#utility.yul\":13977:13995   */\n      add\n        /* \"#utility.yul\":13969:13995   */\n      swap1\n      pop\n        /* \"#utility.yul\":14041:14050   */\n      dup2\n        /* \"#utility.yul\":14035:14039   */\n      dup2\n        /* \"#utility.yul\":14031:14051   */\n      sub\n        /* \"#utility.yul\":14027:14028   */\n      0x00\n        /* \"#utility.yul\":14016:14025   */\n      dup4\n        /* \"#utility.yul\":14012:14029   */\n      add\n        /* \"#utility.yul\":14005:14052   */\n      mstore\n        /* \"#utility.yul\":14069:14200   */\n      tag_337\n        /* \"#utility.yul\":14195:14199   */\n      dup2\n        /* \"#utility.yul\":14069:14200   */\n      tag_189\n      jump\t// in\n    tag_337:\n        /* \"#utility.yul\":14061:14200   */\n      swap1\n      pop\n        /* \"#utility.yul\":13788:14207   */\n      swap2\n      swap1\n      pop\n      jump\t// out\n        /* \"#utility.yul\":14213:14404   */\n    tag_93:\n        /* \"#utility.yul\":14253:14256   */\n      0x00\n        /* \"#utility.yul\":14272:14292   */\n      tag_339\n        /* \"#utility.yul\":14290:14291   */\n      dup3\n        /* \"#utility.yul\":14272:14292   */\n      tag_148\n      jump\t// in\n    tag_339:\n        /* \"#utility.yul\":14267:14292   */\n      swap2\n      pop\n        /* \"#utility.yul\":14306:14326   */\n      tag_340\n        /* \"#utility.yul\":14324:14325   */\n      dup4\n        /* \"#utility.yul\":14306:14326   */\n      tag_148\n      jump\t// in\n    tag_340:\n        /* \"#utility.yul\":14301:14326   */\n      swap3\n      pop\n        /* \"#utility.yul\":14349:14350   */\n      dup3\n        /* \"#utility.yul\":14346:14347   */\n      dup3\n        /* \"#utility.yul\":14342:14351   */\n      add\n        /* \"#utility.yul\":14335:14351   */\n      swap1\n      pop\n        /* \"#utility.yul\":14370:14373   */\n      dup1\n        /* \"#utility.yul\":14367:14368   */\n      dup3\n        /* \"#utility.yul\":14364:14374   */\n      gt\n        /* \"#utility.yul\":14361:14397   */\n      iszero\n      tag_341\n      jumpi\n        /* \"#utility.yul\":14377:14395   */\n      tag_342\n      tag_174\n      jump\t// in\n    tag_342:\n        /* \"#utility.yul\":14361:14397   */\n    tag_341:\n        /* \"#utility.yul\":14213:14404   */\n      swap3\n      swap2\n      pop\n      pop\n      jump\t// out\n        /* \"#utility.yul\":14410:14584   */\n    tag_190:\n        /* \"#utility.yul\":14550:14576   */\n      0x5472616e7366657220746f20686f757365206661696c65640000000000000000\n        /* \"#utility.yul\":14546:14547   */\n      0x00\n        /* \"#utility.yul\":14538:14544   */\n      dup3\n        /* \"#utility.yul\":14534:14548   */\n      add\n        /* \"#utility.yul\":14527:14577   */\n      mstore\n        /* \"#utility.yul\":14410:14584   */\n      pop\n      jump\t// out\n        /* \"#utility.yul\":14590:14956   */\n    tag_191:\n        /* \"#utility.yul\":14732:14735   */\n      0x00\n        /* \"#utility.yul\":14753:14820   */\n      tag_345\n        /* \"#utility.yul\":14817:14819   */\n      0x18\n        /* \"#utility.yul\":14812:14815   */\n      dup4\n        /* \"#utility.yul\":14753:14820   */\n      tag_169\n      jump\t// in\n    tag_345:\n        /* \"#utility.yul\":14746:14820   */\n      swap2\n      pop\n        /* \"#utility.yul\":14829:14922   */\n      tag_346\n        /* \"#utility.yul\":14918:14921   */\n      dup3\n        /* \"#utility.yul\":14829:14922   */\n      tag_190\n      jump\t// in\n    tag_346:\n        /* \"#utility.yul\":14947:14949   */\n      0x20\n        /* \"#utility.yul\":14942:14945   */\n      dup3\n        /* \"#utility.yul\":14938:14950   */\n      add\n        /* \"#utility.yul\":14931:14950   */\n      swap1\n      pop\n        /* \"#utility.yul\":14590:14956   */\n      swap2\n      swap1\n      pop\n      jump\t// out\n        /* \"#utility.yul\":14962:15381   */\n    tag_101:\n        /* \"#utility.yul\":15128:15132   */\n      0x00\n        /* \"#utility.yul\":15166:15168   */\n      0x20\n        /* \"#utility.yul\":15155:15164   */\n      dup3\n        /* \"#utility.yul\":15151:15169   */\n      add\n        /* \"#utility.yul\":15143:15169   */\n      swap1\n      pop\n        /* \"#utility.yul\":15215:15224   */\n      dup2\n        /* \"#utility.yul\":15209:15213   */\n      dup2\n        /* \"#utility.yul\":15205:15225   */\n      sub\n        /* \"#utility.yul\":15201:15202   */\n      0x00\n        /* \"#utility.yul\":15190:15199   */\n      dup4\n        /* \"#utility.yul\":15186:15203   */\n      add\n        /* \"#utility.yul\":15179:15226   */\n      mstore\n        /* \"#utility.yul\":15243:15374   */\n      tag_348\n        /* \"#utility.yul\":15369:15373   */\n      dup2\n        /* \"#utility.yul\":15243:15374   */\n      tag_191\n      jump\t// in\n    tag_348:\n        /* \"#utility.yul\":15235:15374   */\n      swap1\n      pop\n        /* \"#utility.yul\":14962:15381   */\n      swap2\n      swap1\n      pop\n      jump\t// out\n        /* \"#utility.yul\":15387:15568   */\n    tag_192:\n        /* \"#utility.yul\":15527:15560   */\n      0x4e756d626572206d757374206265206265747765656e203020616e6420333600\n        /* \"#utility.yul\":15523:15524   */\n      0x00\n        /* \"#utility.yul\":15515:15521   */\n      dup3\n        /* \"#utility.yul\":15511:15525   */\n      add\n        /* \"#utility.yul\":15504:15561   */\n      mstore\n        /* \"#utility.yul\":15387:15568   */\n      pop\n      jump\t// out\n        /* \"#utility.yul\":15574:15940   */\n    tag_193:\n        /* \"#utility.yul\":15716:15719   */\n      0x00\n        /* \"#utility.yul\":15737:15804   */\n      tag_351\n        /* \"#utility.yul\":15801:15803   */\n      0x1f\n        /* \"#utility.yul\":15796:15799   */\n      dup4\n        /* \"#utility.yul\":15737:15804   */\n      tag_169\n      jump\t// in\n    tag_351:\n        /* \"#utility.yul\":15730:15804   */\n      swap2\n      pop\n        /* \"#utility.yul\":15813:15906   */\n      tag_352\n        /* \"#utility.yul\":15902:15905   */\n      dup3\n        /* \"#utility.yul\":15813:15906   */\n      tag_192\n      jump\t// in\n    tag_352:\n        /* \"#utility.yul\":15931:15933   */\n      0x20\n        /* \"#utility.yul\":15926:15929   */\n      dup3\n        /* \"#utility.yul\":15922:15934   */\n      add\n        /* \"#utility.yul\":15915:15934   */\n      swap1\n      pop\n        /* \"#utility.yul\":15574:15940   */\n      swap2\n      swap1\n      pop\n      jump\t// out\n        /* \"#utility.yul\":15946:16365   */\n    tag_114:\n        /* \"#utility.yul\":16112:16116   */\n      0x00\n        /* \"#utility.yul\":16150:16152   */\n      0x20\n        /* \"#utility.yul\":16139:16148   */\n      dup3\n        /* \"#utility.yul\":16135:16153   */\n      add\n        /* \"#utility.yul\":16127:16153   */\n      swap1\n      pop\n        /* \"#utility.yul\":16199:16208   */\n      dup2\n        /* \"#utility.yul\":16193:16197   */\n      dup2\n        /* \"#utility.yul\":16189:16209   */\n      sub\n        /* \"#utility.yul\":16185:16186   */\n      0x00\n        /* \"#utility.yul\":16174:16183   */\n      dup4\n        /* \"#utility.yul\":16170:16187   */\n      add\n        /* \"#utility.yul\":16163:16210   */\n      mstore\n        /* \"#utility.yul\":16227:16358   */\n      tag_354\n        /* \"#utility.yul\":16353:16357   */\n      dup2\n        /* \"#utility.yul\":16227:16358   */\n      tag_193\n      jump\t// in\n    tag_354:\n        /* \"#utility.yul\":16219:16358   */\n      swap1\n      pop\n        /* \"#utility.yul\":15946:16365   */\n      swap2\n      swap1\n      pop\n      jump\t// out\n        /* \"#utility.yul\":16371:16593   */\n    tag_194:\n        /* \"#utility.yul\":16511:16545   */\n      0x42657420616d6f756e742069732062656c6f7720746865206d696e696d756d20\n        /* \"#utility.yul\":16507:16508   */\n      0x00\n        /* \"#utility.yul\":16499:16505   */\n      dup3\n        /* \"#utility.yul\":16495:16509   */\n      add\n        /* \"#utility.yul\":16488:16546   */\n      mstore\n        /* \"#utility.yul\":16580:16585   */\n      0x6265740000000000000000000000000000000000000000000000000000000000\n        /* \"#utility.yul\":16575:16577   */\n      0x20\n        /* \"#utility.yul\":16567:16573   */\n      dup3\n        /* \"#utility.yul\":16563:16578   */\n      add\n        /* \"#utility.yul\":16556:16586   */\n      mstore\n        /* \"#utility.yul\":16371:16593   */\n      pop\n      jump\t// out\n        /* \"#utility.yul\":16599:16965   */\n    tag_195:\n        /* \"#utility.yul\":16741:16744   */\n      0x00\n        /* \"#utility.yul\":16762:16829   */\n      tag_357\n        /* \"#utility.yul\":16826:16828   */\n      0x23\n        /* \"#utility.yul\":16821:16824   */\n      dup4\n        /* \"#utility.yul\":16762:16829   */\n      tag_169\n      jump\t// in\n    tag_357:\n        /* \"#utility.yul\":16755:16829   */\n      swap2\n      pop\n        /* \"#utility.yul\":16838:16931   */\n      tag_358\n        /* \"#utility.yul\":16927:16930   */\n      dup3\n        /* \"#utility.yul\":16838:16931   */\n      tag_194\n      jump\t// in\n    tag_358:\n        /* \"#utility.yul\":16956:16958   */\n      0x40\n        /* \"#utility.yul\":16951:16954   */\n      dup3\n        /* \"#utility.yul\":16947:16959   */\n      add\n        /* \"#utility.yul\":16940:16959   */\n      swap1\n      pop\n        /* \"#utility.yul\":16599:16965   */\n      swap2\n      swap1\n      pop\n      jump\t// out\n        /* \"#utility.yul\":16971:17390   */\n    tag_117:\n        /* \"#utility.yul\":17137:17141   */\n      0x00\n        /* \"#utility.yul\":17175:17177   */\n      0x20\n        /* \"#utility.yul\":17164:17173   */\n      dup3\n        /* \"#utility.yul\":17160:17178   */\n      add\n        /* \"#utility.yul\":17152:17178   */\n      swap1\n      pop\n        /* \"#utility.yul\":17224:17233   */\n      dup2\n        /* \"#utility.yul\":17218:17222   */\n      dup2\n        /* \"#utility.yul\":17214:17234   */\n      sub\n        /* \"#utility.yul\":17210:17211   */\n      0x00\n        /* \"#utility.yul\":17199:17208   */\n      dup4\n        /* \"#utility.yul\":17195:17212   */\n      add\n        /* \"#utility.yul\":17188:17235   */\n      mstore\n        /* \"#utility.yul\":17252:17383   */\n      tag_360\n        /* \"#utility.yul\":17378:17382   */\n      dup2\n        /* \"#utility.yul\":17252:17383   */\n      tag_195\n      jump\t// in\n    tag_360:\n        /* \"#utility.yul\":17244:17383   */\n      swap1\n      pop\n        /* \"#utility.yul\":16971:17390   */\n      swap2\n      swap1\n      pop\n      jump\t// out\n        /* \"#utility.yul\":17396:17720   */\n    tag_120:\n        /* \"#utility.yul\":17513:17517   */\n      0x00\n        /* \"#utility.yul\":17551:17553   */\n      0x40\n        /* \"#utility.yul\":17540:17549   */\n      dup3\n        /* \"#utility.yul\":17536:17554   */\n      add\n        /* \"#utility.yul\":17528:17554   */\n      swap1\n      pop\n        /* \"#utility.yul\":17564:17631   */\n      tag_362\n        /* \"#utility.yul\":17628:17629   */\n      0x00\n        /* \"#utility.yul\":17617:17626   */\n      dup4\n        /* \"#utility.yul\":17613:17630   */\n      add\n        /* \"#utility.yul\":17604:17610   */\n      dup6\n        /* \"#utility.yul\":17564:17631   */\n      tag_155\n      jump\t// in\n    tag_362:\n        /* \"#utility.yul\":17641:17713   */\n      tag_363\n        /* \"#utility.yul\":17709:17711   */\n      0x20\n        /* \"#utility.yul\":17698:17707   */\n      dup4\n        /* \"#utility.yul\":17694:17712   */\n      add\n        /* \"#utility.yul\":17685:17691   */\n      dup5\n        /* \"#utility.yul\":17641:17713   */\n      tag_156\n      jump\t// in\n    tag_363:\n        /* \"#utility.yul\":17396:17720   */\n      swap4\n      swap3\n      pop\n      pop\n      pop\n      jump\t// out\n        /* \"#utility.yul\":17726:17903   */\n    tag_196:\n        /* \"#utility.yul\":17866:17895   */\n      0x4e6f7420656e6f75676820636f6e74726163742062616c616e63650000000000\n        /* \"#utility.yul\":17862:17863   */\n      0x00\n        /* \"#utility.yul\":17854:17860   */\n      dup3\n        /* \"#utility.yul\":17850:17864   */\n      add\n        /* \"#utility.yul\":17843:17896   */\n      mstore\n        /* \"#utility.yul\":17726:17903   */\n      pop\n      jump\t// out\n        /* \"#utility.yul\":17909:18275   */\n    tag_197:\n        /* \"#utility.yul\":18051:18054   */\n      0x00\n        /* \"#utility.yul\":18072:18139   */\n      tag_366\n        /* \"#utility.yul\":18136:18138   */\n      0x1b\n        /* \"#utility.yul\":18131:18134   */\n      dup4\n        /* \"#utility.yul\":18072:18139   */\n      tag_169\n      jump\t// in\n    tag_366:\n        /* \"#utility.yul\":18065:18139   */\n      swap2\n      pop\n        /* \"#utility.yul\":18148:18241   */\n      tag_367\n        /* \"#utility.yul\":18237:18240   */\n      dup3\n        /* \"#utility.yul\":18148:18241   */\n      tag_196\n      jump\t// in\n    tag_367:\n        /* \"#utility.yul\":18266:18268   */\n      0x20\n        /* \"#utility.yul\":18261:18264   */\n      dup3\n        /* \"#utility.yul\":18257:18269   */\n      add\n        /* \"#utility.yul\":18250:18269   */\n      swap1\n      pop\n        /* \"#utility.yul\":17909:18275   */\n      swap2\n      swap1\n      pop\n      jump\t// out\n        /* \"#utility.yul\":18281:18700   */\n    tag_127:\n        /* \"#utility.yul\":18447:18451   */\n      0x00\n        /* \"#utility.yul\":18485:18487   */\n      0x20\n        /* \"#utility.yul\":18474:18483   */\n      dup3\n        /* \"#utility.yul\":18470:18488   */\n      add\n        /* \"#utility.yul\":18462:18488   */\n      swap1\n      pop\n        /* \"#utility.yul\":18534:18543   */\n      dup2\n        /* \"#utility.yul\":18528:18532   */\n      dup2\n        /* \"#utility.yul\":18524:18544   */\n      sub\n        /* \"#utility.yul\":18520:18521   */\n      0x00\n        /* \"#utility.yul\":18509:18518   */\n      dup4\n        /* \"#utility.yul\":18505:18522   */\n      add\n        /* \"#utility.yul\":18498:18545   */\n      mstore\n        /* \"#utility.yul\":18562:18693   */\n      tag_369\n        /* \"#utility.yul\":18688:18692   */\n      dup2\n        /* \"#utility.yul\":18562:18693   */\n      tag_197\n      jump\t// in\n    tag_369:\n        /* \"#utility.yul\":18554:18693   */\n      swap1\n      pop\n        /* \"#utility.yul\":18281:18700   */\n      swap2\n      swap1\n      pop\n      jump\t// out\n        /* \"#utility.yul\":18706:18871   */\n    tag_198:\n        /* \"#utility.yul\":18846:18863   */\n      0x5769746864726177206661696c65640000000000000000000000000000000000\n        /* \"#utility.yul\":18842:18843   */\n      0x00\n        /* \"#utility.yul\":18834:18840   */\n      dup3\n        /* \"#utility.yul\":18830:18844   */\n      add\n        /* \"#utility.yul\":18823:18864   */\n      mstore\n        /* \"#utility.yul\":18706:18871   */\n      pop\n      jump\t// out\n        /* \"#utility.yul\":18877:19243   */\n    tag_199:\n        /* \"#utility.yul\":19019:19022   */\n      0x00\n        /* \"#utility.yul\":19040:19107   */\n      tag_372\n        /* \"#utility.yul\":19104:19106   */\n      0x0f\n        /* \"#utility.yul\":19099:19102   */\n      dup4\n        /* \"#utility.yul\":19040:19107   */\n      tag_169\n      jump\t// in\n    tag_372:\n        /* \"#utility.yul\":19033:19107   */\n      swap2\n      pop\n        /* \"#utility.yul\":19116:19209   */\n      tag_373\n        /* \"#utility.yul\":19205:19208   */\n      dup3\n        /* \"#utility.yul\":19116:19209   */\n      tag_198\n      jump\t// in\n    tag_373:\n        /* \"#utility.yul\":19234:19236   */\n      0x20\n        /* \"#utility.yul\":19229:19232   */\n      dup3\n        /* \"#utility.yul\":19225:19237   */\n      add\n        /* \"#utility.yul\":19218:19237   */\n      swap1\n      pop\n        /* \"#utility.yul\":18877:19243   */\n      swap2\n      swap1\n      pop\n      jump\t// out\n        /* \"#utility.yul\":19249:19668   */\n    tag_134:\n        /* \"#utility.yul\":19415:19419   */\n      0x00\n        /* \"#utility.yul\":19453:19455   */\n      0x20\n        /* \"#utility.yul\":19442:19451   */\n      dup3\n        /* \"#utility.yul\":19438:19456   */\n      add\n        /* \"#utility.yul\":19430:19456   */\n      swap1\n      pop\n        /* \"#utility.yul\":19502:19511   */\n      dup2\n        /* \"#utility.yul\":19496:19500   */\n      dup2\n        /* \"#utility.yul\":19492:19512   */\n      sub\n        /* \"#utility.yul\":19488:19489   */\n      0x00\n        /* \"#utility.yul\":19477:19486   */\n      dup4\n        /* \"#utility.yul\":19473:19490   */\n      add\n        /* \"#utility.yul\":19466:19513   */\n      mstore\n        /* \"#utility.yul\":19530:19661   */\n      tag_375\n        /* \"#utility.yul\":19656:19660   */\n      dup2\n        /* \"#utility.yul\":19530:19661   */\n      tag_199\n      jump\t// in\n    tag_375:\n        /* \"#utility.yul\":19522:19661   */\n      swap1\n      pop\n        /* \"#utility.yul\":19249:19668   */\n      swap2\n      swap1\n      pop\n      jump\t// out\n\n    auxdata: 0xa2646970667358221220a7920143ddc75edde441e886a524e1dfc2f8606768b1ad350282711107e87f1a64736f6c634300081c0033\n}\n",
				"bytecode": {
					"linkReferences": {},
					"object": "6080604052348015600e575f5ffd5b506040516116b13803806116b18339818101604052810190602e919060ac565b3360025f6101000a81548173ffffffffffffffffffffffffffffffffffffffff021916908373ffffffffffffffffffffffffffffffffffffffff160217905550806001819055505060d2565b5f5ffd5b5f819050919050565b608e81607e565b81146097575f5ffd5b50565b5f8151905060a6816087565b92915050565b5f6020828403121560be5760bd607a565b5b5f60c984828501609a565b91505092915050565b6115d2806100df5f395ff3fe608060405260043610610089575f3560e01c80637d59441a116100585780637d59441a1461012e57806388ea41b9146101565780638da5cb5b1461017e5780639619367d146101a8578063f222d0b9146101d257610090565b806315ecef921461009457806322af00fa146100aa5780633b4ca5d2146100e8578063430468441461011257610090565b3661009057005b5f5ffd5b34801561009f575f5ffd5b506100a86101fc565b005b3480156100b5575f5ffd5b506100d060048036038101906100cb9190610cb0565b6106b6565b6040516100df93929190610d44565b60405180910390f35b3480156100f3575f5ffd5b506100fc610715565b6040516101099190610e8e565b60405180910390f35b61012c60048036038101906101279190610ed8565b6107ea565b005b348015610139575f5ffd5b50610154600480360381019061014f9190610cb0565b610994565b005b348015610161575f5ffd5b5061017c60048036038101906101779190610cb0565b610b33565b005b348015610189575f5ffd5b50610192610bcc565b60405161019f9190610f03565b60405180910390f35b3480156101b3575f5ffd5b506101bc610bf1565b6040516101c99190610f1c565b60405180910390f35b3480156101dd575f5ffd5b506101e6610bf7565b6040516101f39190610f1c565b60405180910390f35b60025f9054906101000a900473ffffffffffffffffffffffffffffffffffffffff1673ffffffffffffffffffffffffffffffffffffffff163373ffffffffffffffffffffffffffffffffffffffff161461028b576040517f08c379a000000000000000000000000000000000000000000000000000000000815260040161028290610fb5565b60405180910390fd5b5f5f80549050116102d1576040517f08c379a00000000000000000000000000000000000000000000000000000000081526004016102c89061101d565b60405180910390fd5b5f6001436102df9190611068565b404244305f805490506040516020016102fc959493929190611129565b604051602081830303815290604052805190602001205f1c90505f60258261032491906111b4565b90507fee38b53cfee7ef3833287e8806626e415e7ca0441e14b436cdb7b681f7c447448160405161035591906111e4565b60405180910390a15f5f90505f5f90505b5f80549050811015610562575f5f8281548110610386576103856111fd565b5b905f5260205f2090600202016040518060600160405290815f82015f9054906101000a900473ffffffffffffffffffffffffffffffffffffffff1673ffffffffffffffffffffffffffffffffffffffff1673ffffffffffffffffffffffffffffffffffffffff1681526020015f820160149054906101000a900460ff1660ff1660ff16815260200160018201548152505090508360ff16816020015160ff1603610541575f6024826040015161043c919061122a565b90505f825f015173ffffffffffffffffffffffffffffffffffffffff168260405161046690611298565b5f6040518083038185875af1925050503d805f81146104a0576040519150601f19603f3d011682016040523d82523d5f602084013e6104a5565b606091505b50509050806104e9576040517f08c379a00000000000000000000000000000000000000000000000000000000081526004016104e0906112f6565b60405180910390fd5b825f015173ffffffffffffffffffffffffffffffffffffffff167f5afeca38b2064c23a692c4cf353015d80ab3ecc417b4f893f372690c11fbd9a6836040516105329190610f1c565b60405180910390a25050610554565b8060400151836105519190611314565b92505b508080600101915050610366565b505f8111156106a5575f60025f9054906101000a900473ffffffffffffffffffffffffffffffffffffffff1673ffffffffffffffffffffffffffffffffffffffff16826040516105b190611298565b5f6040518083038185875af1925050503d805f81146105eb576040519150601f19603f3d011682016040523d82523d5f602084013e6105f0565b606091505b5050905080610634576040517f08c379a000000000000000000000000000000000000000000000000000000000815260040161062b90611391565b60405180910390fd5b60025f9054906101000a900473ffffffffffffffffffffffffffffffffffffffff1673ffffffffffffffffffffffffffffffffffffffff167f3ee2ea076f8c03e334fba9777d3e41285053f2c24a54595f1066eae169b2b9778360405161069b9190610f1c565b60405180910390a2505b5f5f6106b19190610c02565b505050565b5f81815481106106c4575f80fd5b905f5260205f2090600202015f91509050805f015f9054906101000a900473ffffffffffffffffffffffffffffffffffffffff1690805f0160149054906101000a900460ff16908060010154905083565b60605f805480602002602001604051908101604052809291908181526020015f905b828210156107e1578382905f5260205f2090600202016040518060600160405290815f82015f9054906101000a900473ffffffffffffffffffffffffffffffffffffffff1673ffffffffffffffffffffffffffffffffffffffff1673ffffffffffffffffffffffffffffffffffffffff1681526020015f820160149054906101000a900460ff1660ff1660ff16815260200160018201548152505081526020019060010190610737565b50505050905090565b60248160ff161115610831576040517f08c379a0000000000000000000000000000000000000000000000000000000008152600401610828906113f9565b60405180910390fd5b600154341015610876576040517f08c379a000000000000000000000000000000000000000000000000000000000815260040161086d90611487565b60405180910390fd5b5f60405180606001604052803373ffffffffffffffffffffffffffffffffffffffff1681526020018360ff16815260200134815250908060018154018082558091505060019003905f5260205f2090600202015f909190919091505f820151815f015f6101000a81548173ffffffffffffffffffffffffffffffffffffffff021916908373ffffffffffffffffffffffffffffffffffffffff1602179055506020820151815f0160146101000a81548160ff021916908360ff1602179055506040820151816001015550503373ffffffffffffffffffffffffffffffffffffffff167f9f6b4cced64244a64465098f682029975b1614400b96bc6bd12c66808371916682346040516109899291906114a5565b60405180910390a250565b60025f9054906101000a900473ffffffffffffffffffffffffffffffffffffffff1673ffffffffffffffffffffffffffffffffffffffff163373ffffffffffffffffffffffffffffffffffffffff1614610a23576040517f08c379a0000000000000000000000000000000000000000000000000000000008152600401610a1a90610fb5565b60405180910390fd5b47811115610a66576040517f08c379a0000000000000000000000000000000000000000000000000000000008152600401610a5d90611516565b60405180910390fd5b5f60025f9054906101000a900473ffffffffffffffffffffffffffffffffffffffff1673ffffffffffffffffffffffffffffffffffffffff1682604051610aac90611298565b5f6040518083038185875af1925050503d805f8114610ae6576040519150601f19603f3d011682016040523d82523d5f602084013e610aeb565b606091505b5050905080610b2f576040517f08c379a0000000000000000000000000000000000000000000000000000000008152600401610b269061157e565b60405180910390fd5b5050565b60025f9054906101000a900473ffffffffffffffffffffffffffffffffffffffff1673ffffffffffffffffffffffffffffffffffffffff163373ffffffffffffffffffffffffffffffffffffffff1614610bc2576040517f08c379a0000000000000000000000000000000000000000000000000000000008152600401610bb990610fb5565b60405180910390fd5b8060018190555050565b60025f9054906101000a900473ffffffffffffffffffffffffffffffffffffffff1681565b60015481565b5f5f80549050905090565b5080545f8255600202905f5260205f2090810190610c209190610c23565b50565b5b80821115610c75575f5f82015f6101000a81549073ffffffffffffffffffffffffffffffffffffffff02191690555f820160146101000a81549060ff0219169055600182015f905550600201610c24565b5090565b5f5ffd5b5f819050919050565b610c8f81610c7d565b8114610c99575f5ffd5b50565b5f81359050610caa81610c86565b92915050565b5f60208284031215610cc557610cc4610c79565b5b5f610cd284828501610c9c565b91505092915050565b5f73ffffffffffffffffffffffffffffffffffffffff82169050919050565b5f610d0482610cdb565b9050919050565b610d1481610cfa565b82525050565b5f60ff82169050919050565b610d2f81610d1a565b82525050565b610d3e81610c7d565b82525050565b5f606082019050610d575f830186610d0b565b610d646020830185610d26565b610d716040830184610d35565b949350505050565b5f81519050919050565b5f82825260208201905092915050565b5f819050602082019050919050565b610dab81610cfa565b82525050565b610dba81610d1a565b82525050565b610dc981610c7d565b82525050565b606082015f820151610de35f850182610da2565b506020820151610df66020850182610db1565b506040820151610e096040850182610dc0565b50505050565b5f610e1a8383610dcf565b60608301905092915050565b5f602082019050919050565b5f610e3c82610d79565b610e468185610d83565b9350610e5183610d93565b805f5b83811015610e81578151610e688882610e0f565b9750610e7383610e26565b925050600181019050610e54565b5085935050505092915050565b5f6020820190508181035f830152610ea68184610e32565b905092915050565b610eb781610d1a565b8114610ec1575f5ffd5b50565b5f81359050610ed281610eae565b92915050565b5f60208284031215610eed57610eec610c79565b5b5f610efa84828501610ec4565b91505092915050565b5f602082019050610f165f830184610d0b565b92915050565b5f602082019050610f2f5f830184610d35565b92915050565b5f82825260208201905092915050565b7f4f6e6c7920746865206f776e65722063616e2063616c6c20746869732066756e5f8201527f6374696f6e000000000000000000000000000000000000000000000000000000602082015250565b5f610f9f602583610f35565b9150610faa82610f45565b604082019050919050565b5f6020820190508181035f830152610fcc81610f93565b9050919050565b7f4e6f206265747320706c61636564207468697320726f756e64000000000000005f82015250565b5f611007601983610f35565b915061101282610fd3565b602082019050919050565b5f6020820190508181035f83015261103481610ffb565b9050919050565b7f4e487b71000000000000000000000000000000000000000000000000000000005f52601160045260245ffd5b5f61107282610c7d565b915061107d83610c7d565b92508282039050818111156110955761109461103b565b5b92915050565b5f819050919050565b5f819050919050565b6110be6110b98261109b565b6110a4565b82525050565b5f819050919050565b6110de6110d982610c7d565b6110c4565b82525050565b5f8160601b9050919050565b5f6110fa826110e4565b9050919050565b5f61110b826110f0565b9050919050565b61112361111e82610cfa565b611101565b82525050565b5f61113482886110ad565b60208201915061114482876110cd565b60208201915061115482866110cd565b6020820191506111648285611112565b60148201915061117482846110cd565b6020820191508190509695505050505050565b7f4e487b71000000000000000000000000000000000000000000000000000000005f52601260045260245ffd5b5f6111be82610c7d565b91506111c983610c7d565b9250826111d9576111d8611187565b5b828206905092915050565b5f6020820190506111f75f830184610d26565b92915050565b7f4e487b71000000000000000000000000000000000000000000000000000000005f52603260045260245ffd5b5f61123482610c7d565b915061123f83610c7d565b925082820261124d81610c7d565b915082820484148315176112645761126361103b565b5b5092915050565b5f81905092915050565b50565b5f6112835f8361126b565b915061128e82611275565b5f82019050919050565b5f6112a282611278565b9150819050919050565b7f5472616e7366657220746f2077696e6e6572206661696c6564000000000000005f82015250565b5f6112e0601983610f35565b91506112eb826112ac565b602082019050919050565b5f6020820190508181035f83015261130d816112d4565b9050919050565b5f61131e82610c7d565b915061132983610c7d565b92508282019050808211156113415761134061103b565b5b92915050565b7f5472616e7366657220746f20686f757365206661696c656400000000000000005f82015250565b5f61137b601883610f35565b915061138682611347565b602082019050919050565b5f6020820190508181035f8301526113a88161136f565b9050919050565b7f4e756d626572206d757374206265206265747765656e203020616e64203336005f82015250565b5f6113e3601f83610f35565b91506113ee826113af565b602082019050919050565b5f6020820190508181035f830152611410816113d7565b9050919050565b7f42657420616d6f756e742069732062656c6f7720746865206d696e696d756d205f8201527f6265740000000000000000000000000000000000000000000000000000000000602082015250565b5f611471602383610f35565b915061147c82611417565b604082019050919050565b5f6020820190508181035f83015261149e81611465565b9050919050565b5f6040820190506114b85f830185610d26565b6114c56020830184610d35565b9392505050565b7f4e6f7420656e6f75676820636f6e74726163742062616c616e636500000000005f82015250565b5f611500601b83610f35565b915061150b826114cc565b602082019050919050565b5f6020820190508181035f83015261152d816114f4565b9050919050565b7f5769746864726177206661696c656400000000000000000000000000000000005f82015250565b5f611568600f83610f35565b915061157382611534565b602082019050919050565b5f6020820190508181035f8301526115958161155c565b905091905056fea2646970667358221220a7920143ddc75edde441e886a524e1dfc2f8606768b1ad350282711107e87f1a64736f6c634300081c0033",
					"opcodes": "PUSH1 0x80 PUSH1 0x40 MSTORE CALLVALUE DUP1 ISZERO PUSH1 0xE JUMPI PUSH0 PUSH0 REVERT JUMPDEST POP PUSH1 0x40 MLOAD PUSH2 0x16B1 CODESIZE SUB DUP1 PUSH2 0x16B1 DUP4 CODECOPY DUP2 DUP2 ADD PUSH1 0x40 MSTORE DUP2 ADD SWAP1 PUSH1 0x2E SWAP2 SWAP1 PUSH1 0xAC JUMP JUMPDEST CALLER PUSH1 0x2 PUSH0 PUSH2 0x100 EXP DUP2 SLOAD DUP2 PUSH20 0xFFFFFFFFFFFFFFFFFFFFFFFFFFFFFFFFFFFFFFFF MUL NOT AND SWAP1 DUP4 PUSH20 0xFFFFFFFFFFFFFFFFFFFFFFFFFFFFFFFFFFFFFFFF AND MUL OR SWAP1 SSTORE POP DUP1 PUSH1 0x1 DUP2 SWAP1 SSTORE POP POP PUSH1 0xD2 JUMP JUMPDEST PUSH0 PUSH0 REVERT JUMPDEST PUSH0 DUP2 SWAP1 POP SWAP2 SWAP1 POP JUMP JUMPDEST PUSH1 0x8E DUP2 PUSH1 0x7E JUMP JUMPDEST DUP2 EQ PUSH1 0x97 JUMPI PUSH0 PUSH0 REVERT JUMPDEST POP JUMP JUMPDEST PUSH0 DUP2 MLOAD SWAP1 POP PUSH1 0xA6 DUP2 PUSH1 0x87 JUMP JUMPDEST SWAP3 SWAP2 POP POP JUMP JUMPDEST PUSH0 PUSH1 0x20 DUP3 DUP5 SUB SLT ISZERO PUSH1 0xBE JUMPI PUSH1 0xBD PUSH1 0x7A JUMP JUMPDEST JUMPDEST PUSH0 PUSH1 0xC9 DUP5 DUP3 DUP6 ADD PUSH1 0x9A JUMP JUMPDEST SWAP2 POP POP SWAP3 SWAP2 POP POP JUMP JUMPDEST PUSH2 0x15D2 DUP1 PUSH2 0xDF PUSH0 CODECOPY PUSH0 RETURN INVALID PUSH1 0x80 PUSH1 0x40 MSTORE PUSH1 0x4 CALLDATASIZE LT PUSH2 0x89 JUMPI PUSH0 CALLDATALOAD PUSH1 0xE0 SHR DUP1 PUSH4 0x7D59441A GT PUSH2 0x58 JUMPI DUP1 PUSH4 0x7D59441A EQ PUSH2 0x12E JUMPI DUP1 PUSH4 0x88EA41B9 EQ PUSH2 0x156 JUMPI DUP1 PUSH4 0x8DA5CB5B EQ PUSH2 0x17E JUMPI DUP1 PUSH4 0x9619367D EQ PUSH2 0x1A8 JUMPI DUP1 PUSH4 0xF222D0B9 EQ PUSH2 0x1D2 JUMPI PUSH2 0x90 JUMP JUMPDEST DUP1 PUSH4 0x15ECEF92 EQ PUSH2 0x94 JUMPI DUP1 PUSH4 0x22AF00FA EQ PUSH2 0xAA JUMPI DUP1 PUSH4 0x3B4CA5D2 EQ PUSH2 0xE8 JUMPI DUP1 PUSH4 0x43046844 EQ PUSH2 0x112 JUMPI PUSH2 0x90 JUMP JUMPDEST CALLDATASIZE PUSH2 0x90 JUMPI STOP JUMPDEST PUSH0 PUSH0 REVERT JUMPDEST CALLVALUE DUP1 ISZERO PUSH2 0x9F JUMPI PUSH0 PUSH0 REVERT JUMPDEST POP PUSH2 0xA8 PUSH2 0x1FC JUMP JUMPDEST STOP JUMPDEST CALLVALUE DUP1 ISZERO PUSH2 0xB5 JUMPI PUSH0 PUSH0 REVERT JUMPDEST POP PUSH2 0xD0 PUSH1 0x4 DUP1 CALLDATASIZE SUB DUP2 ADD SWAP1 PUSH2 0xCB SWAP2 SWAP1 PUSH2 0xCB0 JUMP JUMPDEST PUSH2 0x6B6 JUMP JUMPDEST PUSH1 0x40 MLOAD PUSH2 0xDF SWAP4 SWAP3 SWAP2 SWAP1 PUSH2 0xD44 JUMP JUMPDEST PUSH1 0x40 MLOAD DUP1 SWAP2 SUB SWAP1 RETURN JUMPDEST CALLVALUE DUP1 ISZERO PUSH2 0xF3 JUMPI PUSH0 PUSH0 REVERT JUMPDEST POP PUSH2 0xFC PUSH2 0x715 JUMP JUMPDEST PUSH1 0x40 MLOAD PUSH2 0x109 SWAP2 SWAP1 PUSH2 0xE8E JUMP JUMPDEST PUSH1 0x40 MLOAD DUP1 SWAP2 SUB SWAP1 RETURN JUMPDEST PUSH2 0x12C PUSH1 0x4 DUP1 CALLDATASIZE SUB DUP2 ADD SWAP1 PUSH2 0x127 SWAP2 SWAP1 PUSH2 0xED8 JUMP JUMPDEST PUSH2 0x7EA JUMP JUMPDEST STOP JUMPDEST CALLVALUE DUP1 ISZERO PUSH2 0x139 JUMPI PUSH0 PUSH0 REVERT JUMPDEST POP PUSH2 0x154 PUSH1 0x4 DUP1 CALLDATASIZE SUB DUP2 ADD SWAP1 PUSH2 0x14F SWAP2 SWAP1 PUSH2 0xCB0 JUMP JUMPDEST PUSH2 0x994 JUMP JUMPDEST STOP JUMPDEST CALLVALUE DUP1 ISZERO PUSH2 0x161 JUMPI PUSH0 PUSH0 REVERT JUMPDEST POP PUSH2 0x17C PUSH1 0x4 DUP1 CALLDATASIZE SUB DUP2 ADD SWAP1 PUSH2 0x177 SWAP2 SWAP1 PUSH2 0xCB0 JUMP JUMPDEST PUSH2 0xB33 JUMP JUMPDEST STOP JUMPDEST CALLVALUE DUP1 ISZERO PUSH2 0x189 JUMPI PUSH0 PUSH0 REVERT JUMPDEST POP PUSH2 0x192 PUSH2 0xBCC JUMP JUMPDEST PUSH1 0x40 MLOAD PUSH2 0x19F SWAP2 SWAP1 PUSH2 0xF03 JUMP JUMPDEST PUSH1 0x40 MLOAD DUP1 SWAP2 SUB SWAP1 RETURN JUMPDEST CALLVALUE DUP1 ISZERO PUSH2 0x1B3 JUMPI PUSH0 PUSH0 REVERT JUMPDEST POP PUSH2 0x1BC PUSH2 0xBF1 JUMP JUMPDEST PUSH1 0x40 MLOAD PUSH2 0x1C9 SWAP2 SWAP1 PUSH2 0xF1C JUMP JUMPDEST PUSH1 0x40 MLOAD DUP1 SWAP2 SUB SWAP1 RETURN JUMPDEST CALLVALUE DUP1 ISZERO PUSH2 0x1DD JUMPI PUSH0 PUSH0 REVERT JUMPDEST POP PUSH2 0x1E6 PUSH2 0xBF7 JUMP JUMPDEST PUSH1 0x40 MLOAD PUSH2 0x1F3 SWAP2 SWAP1 PUSH2 0xF1C JUMP JUMPDEST PUSH1 0x40 MLOAD DUP1 SWAP2 SUB SWAP1 RETURN JUMPDEST PUSH1 0x2 PUSH0 SWAP1 SLOAD SWAP1 PUSH2 0x100 EXP SWAP1 DIV PUSH20 0xFFFFFFFFFFFFFFFFFFFFFFFFFFFFFFFFFFFFFFFF AND PUSH20 0xFFFFFFFFFFFFFFFFFFFFFFFFFFFFFFFFFFFFFFFF AND CALLER PUSH20 0xFFFFFFFFFFFFFFFFFFFFFFFFFFFFFFFFFFFFFFFF AND EQ PUSH2 0x28B JUMPI PUSH1 0x40 MLOAD PUSH32 0x8C379A000000000000000000000000000000000000000000000000000000000 DUP2 MSTORE PUSH1 0x4 ADD PUSH2 0x282 SWAP1 PUSH2 0xFB5 JUMP JUMPDEST PUSH1 0x40 MLOAD DUP1 SWAP2 SUB SWAP1 REVERT JUMPDEST PUSH0 PUSH0 DUP1 SLOAD SWAP1 POP GT PUSH2 0x2D1 JUMPI PUSH1 0x40 MLOAD PUSH32 0x8C379A000000000000000000000000000000000000000000000000000000000 DUP2 MSTORE PUSH1 0x4 ADD PUSH2 0x2C8 SWAP1 PUSH2 0x101D JUMP JUMPDEST PUSH1 0x40 MLOAD DUP1 SWAP2 SUB SWAP1 REVERT JUMPDEST PUSH0 PUSH1 0x1 NUMBER PUSH2 0x2DF SWAP2 SWAP1 PUSH2 0x1068 JUMP JUMPDEST BLOCKHASH TIMESTAMP PREVRANDAO ADDRESS PUSH0 DUP1 SLOAD SWAP1 POP PUSH1 0x40 MLOAD PUSH1 0x20 ADD PUSH2 0x2FC SWAP6 SWAP5 SWAP4 SWAP3 SWAP2 SWAP1 PUSH2 0x1129 JUMP JUMPDEST PUSH1 0x40 MLOAD PUSH1 0x20 DUP2 DUP4 SUB SUB DUP2 MSTORE SWAP1 PUSH1 0x40 MSTORE DUP1 MLOAD SWAP1 PUSH1 0x20 ADD KECCAK256 PUSH0 SHR SWAP1 POP PUSH0 PUSH1 0x25 DUP3 PUSH2 0x324 SWAP2 SWAP1 PUSH2 0x11B4 JUMP JUMPDEST SWAP1 POP PUSH32 0xEE38B53CFEE7EF3833287E8806626E415E7CA0441E14B436CDB7B681F7C44744 DUP2 PUSH1 0x40 MLOAD PUSH2 0x355 SWAP2 SWAP1 PUSH2 0x11E4 JUMP JUMPDEST PUSH1 0x40 MLOAD DUP1 SWAP2 SUB SWAP1 LOG1 PUSH0 PUSH0 SWAP1 POP PUSH0 PUSH0 SWAP1 POP JUMPDEST PUSH0 DUP1 SLOAD SWAP1 POP DUP2 LT ISZERO PUSH2 0x562 JUMPI PUSH0 PUSH0 DUP3 DUP2 SLOAD DUP2 LT PUSH2 0x386 JUMPI PUSH2 0x385 PUSH2 0x11FD JUMP JUMPDEST JUMPDEST SWAP1 PUSH0 MSTORE PUSH1 0x20 PUSH0 KECCAK256 SWAP1 PUSH1 0x2 MUL ADD PUSH1 0x40 MLOAD DUP1 PUSH1 0x60 ADD PUSH1 0x40 MSTORE SWAP1 DUP2 PUSH0 DUP3 ADD PUSH0 SWAP1 SLOAD SWAP1 PUSH2 0x100 EXP SWAP1 DIV PUSH20 0xFFFFFFFFFFFFFFFFFFFFFFFFFFFFFFFFFFFFFFFF AND PUSH20 0xFFFFFFFFFFFFFFFFFFFFFFFFFFFFFFFFFFFFFFFF AND PUSH20 0xFFFFFFFFFFFFFFFFFFFFFFFFFFFFFFFFFFFFFFFF AND DUP2 MSTORE PUSH1 0x20 ADD PUSH0 DUP3 ADD PUSH1 0x14 SWAP1 SLOAD SWAP1 PUSH2 0x100 EXP SWAP1 DIV PUSH1 0xFF AND PUSH1 0xFF AND PUSH1 0xFF AND DUP2 MSTORE PUSH1 0x20 ADD PUSH1 0x1 DUP3 ADD SLOAD DUP2 MSTORE POP POP SWAP1 POP DUP4 PUSH1 0xFF AND DUP2 PUSH1 0x20 ADD MLOAD PUSH1 0xFF AND SUB PUSH2 0x541 JUMPI PUSH0 PUSH1 0x24 DUP3 PUSH1 0x40 ADD MLOAD PUSH2 0x43C SWAP2 SWAP1 PUSH2 0x122A JUMP JUMPDEST SWAP1 POP PUSH0 DUP3 PUSH0 ADD MLOAD PUSH20 0xFFFFFFFFFFFFFFFFFFFFFFFFFFFFFFFFFFFFFFFF AND DUP3 PUSH1 0x40 MLOAD PUSH2 0x466 SWAP1 PUSH2 0x1298 JUMP JUMPDEST PUSH0 PUSH1 0x40 MLOAD DUP1 DUP4 SUB DUP2 DUP6 DUP8 GAS CALL SWAP3 POP POP POP RETURNDATASIZE DUP1 PUSH0 DUP2 EQ PUSH2 0x4A0 JUMPI PUSH1 0x40 MLOAD SWAP2 POP PUSH1 0x1F NOT PUSH1 0x3F RETURNDATASIZE ADD AND DUP3 ADD PUSH1 0x40 MSTORE RETURNDATASIZE DUP3 MSTORE RETURNDATASIZE PUSH0 PUSH1 0x20 DUP5 ADD RETURNDATACOPY PUSH2 0x4A5 JUMP JUMPDEST PUSH1 0x60 SWAP2 POP JUMPDEST POP POP SWAP1 POP DUP1 PUSH2 0x4E9 JUMPI PUSH1 0x40 MLOAD PUSH32 0x8C379A000000000000000000000000000000000000000000000000000000000 DUP2 MSTORE PUSH1 0x4 ADD PUSH2 0x4E0 SWAP1 PUSH2 0x12F6 JUMP JUMPDEST PUSH1 0x40 MLOAD DUP1 SWAP2 SUB SWAP1 REVERT JUMPDEST DUP3 PUSH0 ADD MLOAD PUSH20 0xFFFFFFFFFFFFFFFFFFFFFFFFFFFFFFFFFFFFFFFF AND PUSH32 0x5AFECA38B2064C23A692C4CF353015D80AB3ECC417B4F893F372690C11FBD9A6 DUP4 PUSH1 0x40 MLOAD PUSH2 0x532 SWAP2 SWAP1 PUSH2 0xF1C JUMP JUMPDEST PUSH1 0x40 MLOAD DUP1 SWAP2 SUB SWAP1 LOG2 POP POP PUSH2 0x554 JUMP JUMPDEST DUP1 PUSH1 0x40 ADD MLOAD DUP4 PUSH2 0x551 SWAP2 SWAP1 PUSH2 0x1314 JUMP JUMPDEST SWAP3 POP JUMPDEST POP DUP1 DUP1 PUSH1 0x1 ADD SWAP2 POP POP PUSH2 0x366 JUMP JUMPDEST POP PUSH0 DUP2 GT ISZERO PUSH2 0x6A5 JUMPI PUSH0 PUSH1 0x2 PUSH0 SWAP1 SLOAD SWAP1 PUSH2 0x100 EXP SWAP1 DIV PUSH20 0xFFFFFFFFFFFFFFFFFFFFFFFFFFFFFFFFFFFFFFFF AND PUSH20 0xFFFFFFFFFFFFFFFFFFFFFFFFFFFFFFFFFFFFFFFF AND DUP3 PUSH1 0x40 MLOAD PUSH2 0x5B1 SWAP1 PUSH2 0x1298 JUMP JUMPDEST PUSH0 PUSH1 0x40 MLOAD DUP1 DUP4 SUB DUP2 DUP6 DUP8 GAS CALL SWAP3 POP POP POP RETURNDATASIZE DUP1 PUSH0 DUP2 EQ PUSH2 0x5EB JUMPI PUSH1 0x40 MLOAD SWAP2 POP PUSH1 0x1F NOT PUSH1 0x3F RETURNDATASIZE ADD AND DUP3 ADD PUSH1 0x40 MSTORE RETURNDATASIZE DUP3 MSTORE RETURNDATASIZE PUSH0 PUSH1 0x20 DUP5 ADD RETURNDATACOPY PUSH2 0x5F0 JUMP JUMPDEST PUSH1 0x60 SWAP2 POP JUMPDEST POP POP SWAP1 POP DUP1 PUSH2 0x634 JUMPI PUSH1 0x40 MLOAD PUSH32 0x8C379A000000000000000000000000000000000000000000000000000000000 DUP2 MSTORE PUSH1 0x4 ADD PUSH2 0x62B SWAP1 PUSH2 0x1391 JUMP JUMPDEST PUSH1 0x40 MLOAD DUP1 SWAP2 SUB SWAP1 REVERT JUMPDEST PUSH1 0x2 PUSH0 SWAP1 SLOAD SWAP1 PUSH2 0x100 EXP SWAP1 DIV PUSH20 0xFFFFFFFFFFFFFFFFFFFFFFFFFFFFFFFFFFFFFFFF AND PUSH20 0xFFFFFFFFFFFFFFFFFFFFFFFFFFFFFFFFFFFFFFFF AND PUSH32 0x3EE2EA076F8C03E334FBA9777D3E41285053F2C24A54595F1066EAE169B2B977 DUP4 PUSH1 0x40 MLOAD PUSH2 0x69B SWAP2 SWAP1 PUSH2 0xF1C JUMP JUMPDEST PUSH1 0x40 MLOAD DUP1 SWAP2 SUB SWAP1 LOG2 POP JUMPDEST PUSH0 PUSH0 PUSH2 0x6B1 SWAP2 SWAP1 PUSH2 0xC02 JUMP JUMPDEST POP POP POP JUMP JUMPDEST PUSH0 DUP2 DUP2 SLOAD DUP2 LT PUSH2 0x6C4 JUMPI PUSH0 DUP1 REVERT JUMPDEST SWAP1 PUSH0 MSTORE PUSH1 0x20 PUSH0 KECCAK256 SWAP1 PUSH1 0x2 MUL ADD PUSH0 SWAP2 POP SWAP1 POP DUP1 PUSH0 ADD PUSH0 SWAP1 SLOAD SWAP1 PUSH2 0x100 EXP SWAP1 DIV PUSH20 0xFFFFFFFFFFFFFFFFFFFFFFFFFFFFFFFFFFFFFFFF AND SWAP1 DUP1 PUSH0 ADD PUSH1 0x14 SWAP1 SLOAD SWAP1 PUSH2 0x100 EXP SWAP1 DIV PUSH1 0xFF AND SWAP1 DUP1 PUSH1 0x1 ADD SLOAD SWAP1 POP DUP4 JUMP JUMPDEST PUSH1 0x60 PUSH0 DUP1 SLOAD DUP1 PUSH1 0x20 MUL PUSH1 0x20 ADD PUSH1 0x40 MLOAD SWAP1 DUP2 ADD PUSH1 0x40 MSTORE DUP1 SWAP3 SWAP2 SWAP1 DUP2 DUP2 MSTORE PUSH1 0x20 ADD PUSH0 SWAP1 JUMPDEST DUP3 DUP3 LT ISZERO PUSH2 0x7E1 JUMPI DUP4 DUP3 SWAP1 PUSH0 MSTORE PUSH1 0x20 PUSH0 KECCAK256 SWAP1 PUSH1 0x2 MUL ADD PUSH1 0x40 MLOAD DUP1 PUSH1 0x60 ADD PUSH1 0x40 MSTORE SWAP1 DUP2 PUSH0 DUP3 ADD PUSH0 SWAP1 SLOAD SWAP1 PUSH2 0x100 EXP SWAP1 DIV PUSH20 0xFFFFFFFFFFFFFFFFFFFFFFFFFFFFFFFFFFFFFFFF AND PUSH20 0xFFFFFFFFFFFFFFFFFFFFFFFFFFFFFFFFFFFFFFFF AND PUSH20 0xFFFFFFFFFFFFFFFFFFFFFFFFFFFFFFFFFFFFFFFF AND DUP2 MSTORE PUSH1 0x20 ADD PUSH0 DUP3 ADD PUSH1 0x14 SWAP1 SLOAD SWAP1 PUSH2 0x100 EXP SWAP1 DIV PUSH1 0xFF AND PUSH1 0xFF AND PUSH1 0xFF AND DUP2 MSTORE PUSH1 0x20 ADD PUSH1 0x1 DUP3 ADD SLOAD DUP2 MSTORE POP POP DUP2 MSTORE PUSH1 0x20 ADD SWAP1 PUSH1 0x1 ADD SWAP1 PUSH2 0x737 JUMP JUMPDEST POP POP POP POP SWAP1 POP SWAP1 JUMP JUMPDEST PUSH1 0x24 DUP2 PUSH1 0xFF AND GT ISZERO PUSH2 0x831 JUMPI PUSH1 0x40 MLOAD PUSH32 0x8C379A000000000000000000000000000000000000000000000000000000000 DUP2 MSTORE PUSH1 0x4 ADD PUSH2 0x828 SWAP1 PUSH2 0x13F9 JUMP JUMPDEST PUSH1 0x40 MLOAD DUP1 SWAP2 SUB SWAP1 REVERT JUMPDEST PUSH1 0x1 SLOAD CALLVALUE LT ISZERO PUSH2 0x876 JUMPI PUSH1 0x40 MLOAD PUSH32 0x8C379A000000000000000000000000000000000000000000000000000000000 DUP2 MSTORE PUSH1 0x4 ADD PUSH2 0x86D SWAP1 PUSH2 0x1487 JUMP JUMPDEST PUSH1 0x40 MLOAD DUP1 SWAP2 SUB SWAP1 REVERT JUMPDEST PUSH0 PUSH1 0x40 MLOAD DUP1 PUSH1 0x60 ADD PUSH1 0x40 MSTORE DUP1 CALLER PUSH20 0xFFFFFFFFFFFFFFFFFFFFFFFFFFFFFFFFFFFFFFFF AND DUP2 MSTORE PUSH1 0x20 ADD DUP4 PUSH1 0xFF AND DUP2 MSTORE PUSH1 0x20 ADD CALLVALUE DUP2 MSTORE POP SWAP1 DUP1 PUSH1 0x1 DUP2 SLOAD ADD DUP1 DUP3 SSTORE DUP1 SWAP2 POP POP PUSH1 0x1 SWAP1 SUB SWAP1 PUSH0 MSTORE PUSH1 0x20 PUSH0 KECCAK256 SWAP1 PUSH1 0x2 MUL ADD PUSH0 SWAP1 SWAP2 SWAP1 SWAP2 SWAP1 SWAP2 POP PUSH0 DUP3 ADD MLOAD DUP2 PUSH0 ADD PUSH0 PUSH2 0x100 EXP DUP2 SLOAD DUP2 PUSH20 0xFFFFFFFFFFFFFFFFFFFFFFFFFFFFFFFFFFFFFFFF MUL NOT AND SWAP1 DUP4 PUSH20 0xFFFFFFFFFFFFFFFFFFFFFFFFFFFFFFFFFFFFFFFF AND MUL OR SWAP1 SSTORE POP PUSH1 0x20 DUP3 ADD MLOAD DUP2 PUSH0 ADD PUSH1 0x14 PUSH2 0x100 EXP DUP2 SLOAD DUP2 PUSH1 0xFF MUL NOT AND SWAP1 DUP4 PUSH1 0xFF AND MUL OR SWAP1 SSTORE POP PUSH1 0x40 DUP3 ADD MLOAD DUP2 PUSH1 0x1 ADD SSTORE POP POP CALLER PUSH20 0xFFFFFFFFFFFFFFFFFFFFFFFFFFFFFFFFFFFFFFFF AND PUSH32 0x9F6B4CCED64244A64465098F682029975B1614400B96BC6BD12C668083719166 DUP3 CALLVALUE PUSH1 0x40 MLOAD PUSH2 0x989 SWAP3 SWAP2 SWAP1 PUSH2 0x14A5 JUMP JUMPDEST PUSH1 0x40 MLOAD DUP1 SWAP2 SUB SWAP1 LOG2 POP JUMP JUMPDEST PUSH1 0x2 PUSH0 SWAP1 SLOAD SWAP1 PUSH2 0x100 EXP SWAP1 DIV PUSH20 0xFFFFFFFFFFFFFFFFFFFFFFFFFFFFFFFFFFFFFFFF AND PUSH20 0xFFFFFFFFFFFFFFFFFFFFFFFFFFFFFFFFFFFFFFFF AND CALLER PUSH20 0xFFFFFFFFFFFFFFFFFFFFFFFFFFFFFFFFFFFFFFFF AND EQ PUSH2 0xA23 JUMPI PUSH1 0x40 MLOAD PUSH32 0x8C379A000000000000000000000000000000000000000000000000000000000 DUP2 MSTORE PUSH1 0x4 ADD PUSH2 0xA1A SWAP1 PUSH2 0xFB5 JUMP JUMPDEST PUSH1 0x40 MLOAD DUP1 SWAP2 SUB SWAP1 REVERT JUMPDEST SELFBALANCE DUP2 GT ISZERO PUSH2 0xA66 JUMPI PUSH1 0x40 MLOAD PUSH32 0x8C379A000000000000000000000000000000000000000000000000000000000 DUP2 MSTORE PUSH1 0x4 ADD PUSH2 0xA5D SWAP1 PUSH2 0x1516 JUMP JUMPDEST PUSH1 0x40 MLOAD DUP1 SWAP2 SUB SWAP1 REVERT JUMPDEST PUSH0 PUSH1 0x2 PUSH0 SWAP1 SLOAD SWAP1 PUSH2 0x100 EXP SWAP1 DIV PUSH20 0xFFFFFFFFFFFFFFFFFFFFFFFFFFFFFFFFFFFFFFFF AND PUSH20 0xFFFFFFFFFFFFFFFFFFFFFFFFFFFFFFFFFFFFFFFF AND DUP3 PUSH1 0x40 MLOAD PUSH2 0xAAC SWAP1 PUSH2 0x1298 JUMP JUMPDEST PUSH0 PUSH1 0x40 MLOAD DUP1 DUP4 SUB DUP2 DUP6 DUP8 GAS CALL SWAP3 POP POP POP RETURNDATASIZE DUP1 PUSH0 DUP2 EQ PUSH2 0xAE6 JUMPI PUSH1 0x40 MLOAD SWAP2 POP PUSH1 0x1F NOT PUSH1 0x3F RETURNDATASIZE ADD AND DUP3 ADD PUSH1 0x40 MSTORE RETURNDATASIZE DUP3 MSTORE RETURNDATASIZE PUSH0 PUSH1 0x20 DUP5 ADD RETURNDATACOPY PUSH2 0xAEB JUMP JUMPDEST PUSH1 0x60 SWAP2 POP JUMPDEST POP POP SWAP1 POP DUP1 PUSH2 0xB2F JUMPI PUSH1 0x40 MLOAD PUSH32 0x8C379A000000000000000000000000000000000000000000000000000000000 DUP2 MSTORE PUSH1 0x4 ADD PUSH2 0xB26 SWAP1 PUSH2 0x157E JUMP JUMPDEST PUSH1 0x40 MLOAD DUP1 SWAP2 SUB SWAP1 REVERT JUMPDEST POP POP JUMP JUMPDEST PUSH1 0x2 PUSH0 SWAP1 SLOAD SWAP1 PUSH2 0x100 EXP SWAP1 DIV PUSH20 0xFFFFFFFFFFFFFFFFFFFFFFFFFFFFFFFFFFFFFFFF AND PUSH20 0xFFFFFFFFFFFFFFFFFFFFFFFFFFFFFFFFFFFFFFFF AND CALLER PUSH20 0xFFFFFFFFFFFFFFFFFFFFFFFFFFFFFFFFFFFFFFFF AND EQ PUSH2 0xBC2 JUMPI PUSH1 0x40 MLOAD PUSH32 0x8C379A000000000000000000000000000000000000000000000000000000000 DUP2 MSTORE PUSH1 0x4 ADD PUSH2 0xBB9 SWAP1 PUSH2 0xFB5 JUMP JUMPDEST PUSH1 0x40 MLOAD DUP1 SWAP2 SUB SWAP1 REVERT JUMPDEST DUP1 PUSH1 0x1 DUP2 SWAP1 SSTORE POP POP JUMP JUMPDEST PUSH1 0x2 PUSH0 SWAP1 SLOAD SWAP1 PUSH2 0x100 EXP SWAP1 DIV PUSH20 0xFFFFFFFFFFFFFFFFFFFFFFFFFFFFFFFFFFFFFFFF AND DUP2 JUMP JUMPDEST PUSH1 0x1 SLOAD DUP2 JUMP JUMPDEST PUSH0 PUSH0 DUP1 SLOAD SWAP1 POP SWAP1 POP SWAP1 JUMP JUMPDEST POP DUP1 SLOAD PUSH0 DUP3 SSTORE PUSH1 0x2 MUL SWAP1 PUSH0 MSTORE PUSH1 0x20 PUSH0 KECCAK256 SWAP1 DUP2 ADD SWAP1 PUSH2 0xC20 SWAP2 SWAP1 PUSH2 0xC23 JUMP JUMPDEST POP JUMP JUMPDEST JUMPDEST DUP1 DUP3 GT ISZERO PUSH2 0xC75 JUMPI PUSH0 PUSH0 DUP3 ADD PUSH0 PUSH2 0x100 EXP DUP2 SLOAD SWAP1 PUSH20 0xFFFFFFFFFFFFFFFFFFFFFFFFFFFFFFFFFFFFFFFF MUL NOT AND SWAP1 SSTORE PUSH0 DUP3 ADD PUSH1 0x14 PUSH2 0x100 EXP DUP2 SLOAD SWAP1 PUSH1 0xFF MUL NOT AND SWAP1 SSTORE PUSH1 0x1 DUP3 ADD PUSH0 SWAP1 SSTORE POP PUSH1 0x2 ADD PUSH2 0xC24 JUMP JUMPDEST POP SWAP1 JUMP JUMPDEST PUSH0 PUSH0 REVERT JUMPDEST PUSH0 DUP2 SWAP1 POP SWAP2 SWAP1 POP JUMP JUMPDEST PUSH2 0xC8F DUP2 PUSH2 0xC7D JUMP JUMPDEST DUP2 EQ PUSH2 0xC99 JUMPI PUSH0 PUSH0 REVERT JUMPDEST POP JUMP JUMPDEST PUSH0 DUP2 CALLDATALOAD SWAP1 POP PUSH2 0xCAA DUP2 PUSH2 0xC86 JUMP JUMPDEST SWAP3 SWAP2 POP POP JUMP JUMPDEST PUSH0 PUSH1 0x20 DUP3 DUP5 SUB SLT ISZERO PUSH2 0xCC5 JUMPI PUSH2 0xCC4 PUSH2 0xC79 JUMP JUMPDEST JUMPDEST PUSH0 PUSH2 0xCD2 DUP5 DUP3 DUP6 ADD PUSH2 0xC9C JUMP JUMPDEST SWAP2 POP POP SWAP3 SWAP2 POP POP JUMP JUMPDEST PUSH0 PUSH20 0xFFFFFFFFFFFFFFFFFFFFFFFFFFFFFFFFFFFFFFFF DUP3 AND SWAP1 POP SWAP2 SWAP1 POP JUMP JUMPDEST PUSH0 PUSH2 0xD04 DUP3 PUSH2 0xCDB JUMP JUMPDEST SWAP1 POP SWAP2 SWAP1 POP JUMP JUMPDEST PUSH2 0xD14 DUP2 PUSH2 0xCFA JUMP JUMPDEST DUP3 MSTORE POP POP JUMP JUMPDEST PUSH0 PUSH1 0xFF DUP3 AND SWAP1 POP SWAP2 SWAP1 POP JUMP JUMPDEST PUSH2 0xD2F DUP2 PUSH2 0xD1A JUMP JUMPDEST DUP3 MSTORE POP POP JUMP JUMPDEST PUSH2 0xD3E DUP2 PUSH2 0xC7D JUMP JUMPDEST DUP3 MSTORE POP POP JUMP JUMPDEST PUSH0 PUSH1 0x60 DUP3 ADD SWAP1 POP PUSH2 0xD57 PUSH0 DUP4 ADD DUP7 PUSH2 0xD0B JUMP JUMPDEST PUSH2 0xD64 PUSH1 0x20 DUP4 ADD DUP6 PUSH2 0xD26 JUMP JUMPDEST PUSH2 0xD71 PUSH1 0x40 DUP4 ADD DUP5 PUSH2 0xD35 JUMP JUMPDEST SWAP5 SWAP4 POP POP POP POP JUMP JUMPDEST PUSH0 DUP2 MLOAD SWAP1 POP SWAP2 SWAP1 POP JUMP JUMPDEST PUSH0 DUP3 DUP3 MSTORE PUSH1 0x20 DUP3 ADD SWAP1 POP SWAP3 SWAP2 POP POP JUMP JUMPDEST PUSH0 DUP2 SWAP1 POP PUSH1 0x20 DUP3 ADD SWAP1 POP SWAP2 SWAP1 POP JUMP JUMPDEST PUSH2 0xDAB DUP2 PUSH2 0xCFA JUMP JUMPDEST DUP3 MSTORE POP POP JUMP JUMPDEST PUSH2 0xDBA DUP2 PUSH2 0xD1A JUMP JUMPDEST DUP3 MSTORE POP POP JUMP JUMPDEST PUSH2 0xDC9 DUP2 PUSH2 0xC7D JUMP JUMPDEST DUP3 MSTORE POP POP JUMP JUMPDEST PUSH1 0x60 DUP3 ADD PUSH0 DUP3 ADD MLOAD PUSH2 0xDE3 PUSH0 DUP6 ADD DUP3 PUSH2 0xDA2 JUMP JUMPDEST POP PUSH1 0x20 DUP3 ADD MLOAD PUSH2 0xDF6 PUSH1 0x20 DUP6 ADD DUP3 PUSH2 0xDB1 JUMP JUMPDEST POP PUSH1 0x40 DUP3 ADD MLOAD PUSH2 0xE09 PUSH1 0x40 DUP6 ADD DUP3 PUSH2 0xDC0 JUMP JUMPDEST POP POP POP POP JUMP JUMPDEST PUSH0 PUSH2 0xE1A DUP4 DUP4 PUSH2 0xDCF JUMP JUMPDEST PUSH1 0x60 DUP4 ADD SWAP1 POP SWAP3 SWAP2 POP POP JUMP JUMPDEST PUSH0 PUSH1 0x20 DUP3 ADD SWAP1 POP SWAP2 SWAP1 POP JUMP JUMPDEST PUSH0 PUSH2 0xE3C DUP3 PUSH2 0xD79 JUMP JUMPDEST PUSH2 0xE46 DUP2 DUP6 PUSH2 0xD83 JUMP JUMPDEST SWAP4 POP PUSH2 0xE51 DUP4 PUSH2 0xD93 JUMP JUMPDEST DUP1 PUSH0 JUMPDEST DUP4 DUP2 LT ISZERO PUSH2 0xE81 JUMPI DUP2 MLOAD PUSH2 0xE68 DUP9 DUP3 PUSH2 0xE0F JUMP JUMPDEST SWAP8 POP PUSH2 0xE73 DUP4 PUSH2 0xE26 JUMP JUMPDEST SWAP3 POP POP PUSH1 0x1 DUP2 ADD SWAP1 POP PUSH2 0xE54 JUMP JUMPDEST POP DUP6 SWAP4 POP POP POP POP SWAP3 SWAP2 POP POP JUMP JUMPDEST PUSH0 PUSH1 0x20 DUP3 ADD SWAP1 POP DUP2 DUP2 SUB PUSH0 DUP4 ADD MSTORE PUSH2 0xEA6 DUP2 DUP5 PUSH2 0xE32 JUMP JUMPDEST SWAP1 POP SWAP3 SWAP2 POP POP JUMP JUMPDEST PUSH2 0xEB7 DUP2 PUSH2 0xD1A JUMP JUMPDEST DUP2 EQ PUSH2 0xEC1 JUMPI PUSH0 PUSH0 REVERT JUMPDEST POP JUMP JUMPDEST PUSH0 DUP2 CALLDATALOAD SWAP1 POP PUSH2 0xED2 DUP2 PUSH2 0xEAE JUMP JUMPDEST SWAP3 SWAP2 POP POP JUMP JUMPDEST PUSH0 PUSH1 0x20 DUP3 DUP5 SUB SLT ISZERO PUSH2 0xEED JUMPI PUSH2 0xEEC PUSH2 0xC79 JUMP JUMPDEST JUMPDEST PUSH0 PUSH2 0xEFA DUP5 DUP3 DUP6 ADD PUSH2 0xEC4 JUMP JUMPDEST SWAP2 POP POP SWAP3 SWAP2 POP POP JUMP JUMPDEST PUSH0 PUSH1 0x20 DUP3 ADD SWAP1 POP PUSH2 0xF16 PUSH0 DUP4 ADD DUP5 PUSH2 0xD0B JUMP JUMPDEST SWAP3 SWAP2 POP POP JUMP JUMPDEST PUSH0 PUSH1 0x20 DUP3 ADD SWAP1 POP PUSH2 0xF2F PUSH0 DUP4 ADD DUP5 PUSH2 0xD35 JUMP JUMPDEST SWAP3 SWAP2 POP POP JUMP JUMPDEST PUSH0 DUP3 DUP3 MSTORE PUSH1 0x20 DUP3 ADD SWAP1 POP SWAP3 SWAP2 POP POP JUMP JUMPDEST PUSH32 0x4F6E6C7920746865206F776E65722063616E2063616C6C20746869732066756E PUSH0 DUP3 ADD MSTORE PUSH32 0x6374696F6E000000000000000000000000000000000000000000000000000000 PUSH1 0x20 DUP3 ADD MSTORE POP JUMP JUMPDEST PUSH0 PUSH2 0xF9F PUSH1 0x25 DUP4 PUSH2 0xF35 JUMP JUMPDEST SWAP2 POP PUSH2 0xFAA DUP3 PUSH2 0xF45 JUMP JUMPDEST PUSH1 0x40 DUP3 ADD SWAP1 POP SWAP2 SWAP1 POP JUMP JUMPDEST PUSH0 PUSH1 0x20 DUP3 ADD SWAP1 POP DUP2 DUP2 SUB PUSH0 DUP4 ADD MSTORE PUSH2 0xFCC DUP2 PUSH2 0xF93 JUMP JUMPDEST SWAP1 POP SWAP2 SWAP1 POP JUMP JUMPDEST PUSH32 0x4E6F206265747320706C61636564207468697320726F756E6400000000000000 PUSH0 DUP3 ADD MSTORE POP JUMP JUMPDEST PUSH0 PUSH2 0x1007 PUSH1 0x19 DUP4 PUSH2 0xF35 JUMP JUMPDEST SWAP2 POP PUSH2 0x1012 DUP3 PUSH2 0xFD3 JUMP JUMPDEST PUSH1 0x20 DUP3 ADD SWAP1 POP SWAP2 SWAP1 POP JUMP JUMPDEST PUSH0 PUSH1 0x20 DUP3 ADD SWAP1 POP DUP2 DUP2 SUB PUSH0 DUP4 ADD MSTORE PUSH2 0x1034 DUP2 PUSH2 0xFFB JUMP JUMPDEST SWAP1 POP SWAP2 SWAP1 POP JUMP JUMPDEST PUSH32 0x4E487B7100000000000000000000000000000000000000000000000000000000 PUSH0 MSTORE PUSH1 0x11 PUSH1 0x4 MSTORE PUSH1 0x24 PUSH0 REVERT JUMPDEST PUSH0 PUSH2 0x1072 DUP3 PUSH2 0xC7D JUMP JUMPDEST SWAP2 POP PUSH2 0x107D DUP4 PUSH2 0xC7D JUMP JUMPDEST SWAP3 POP DUP3 DUP3 SUB SWAP1 POP DUP2 DUP2 GT ISZERO PUSH2 0x1095 JUMPI PUSH2 0x1094 PUSH2 0x103B JUMP JUMPDEST JUMPDEST SWAP3 SWAP2 POP POP JUMP JUMPDEST PUSH0 DUP2 SWAP1 POP SWAP2 SWAP1 POP JUMP JUMPDEST PUSH0 DUP2 SWAP1 POP SWAP2 SWAP1 POP JUMP JUMPDEST PUSH2 0x10BE PUSH2 0x10B9 DUP3 PUSH2 0x109B JUMP JUMPDEST PUSH2 0x10A4 JUMP JUMPDEST DUP3 MSTORE POP POP JUMP JUMPDEST PUSH0 DUP2 SWAP1 POP SWAP2 SWAP1 POP JUMP JUMPDEST PUSH2 0x10DE PUSH2 0x10D9 DUP3 PUSH2 0xC7D JUMP JUMPDEST PUSH2 0x10C4 JUMP JUMPDEST DUP3 MSTORE POP POP JUMP JUMPDEST PUSH0 DUP2 PUSH1 0x60 SHL SWAP1 POP SWAP2 SWAP1 POP JUMP JUMPDEST PUSH0 PUSH2 0x10FA DUP3 PUSH2 0x10E4 JUMP JUMPDEST SWAP1 POP SWAP2 SWAP1 POP JUMP JUMPDEST PUSH0 PUSH2 0x110B DUP3 PUSH2 0x10F0 JUMP JUMPDEST SWAP1 POP SWAP2 SWAP1 POP JUMP JUMPDEST PUSH2 0x1123 PUSH2 0x111E DUP3 PUSH2 0xCFA JUMP JUMPDEST PUSH2 0x1101 JUMP JUMPDEST DUP3 MSTORE POP POP JUMP JUMPDEST PUSH0 PUSH2 0x1134 DUP3 DUP9 PUSH2 0x10AD JUMP JUMPDEST PUSH1 0x20 DUP3 ADD SWAP2 POP PUSH2 0x1144 DUP3 DUP8 PUSH2 0x10CD JUMP JUMPDEST PUSH1 0x20 DUP3 ADD SWAP2 POP PUSH2 0x1154 DUP3 DUP7 PUSH2 0x10CD JUMP JUMPDEST PUSH1 0x20 DUP3 ADD SWAP2 POP PUSH2 0x1164 DUP3 DUP6 PUSH2 0x1112 JUMP JUMPDEST PUSH1 0x14 DUP3 ADD SWAP2 POP PUSH2 0x1174 DUP3 DUP5 PUSH2 0x10CD JUMP JUMPDEST PUSH1 0x20 DUP3 ADD SWAP2 POP DUP2 SWAP1 POP SWAP7 SWAP6 POP POP POP POP POP POP JUMP JUMPDEST PUSH32 0x4E487B7100000000000000000000000000000000000000000000000000000000 PUSH0 MSTORE PUSH1 0x12 PUSH1 0x4 MSTORE PUSH1 0x24 PUSH0 REVERT JUMPDEST PUSH0 PUSH2 0x11BE DUP3 PUSH2 0xC7D JUMP JUMPDEST SWAP2 POP PUSH2 0x11C9 DUP4 PUSH2 0xC7D JUMP JUMPDEST SWAP3 POP DUP3 PUSH2 0x11D9 JUMPI PUSH2 0x11D8 PUSH2 0x1187 JUMP JUMPDEST JUMPDEST DUP3 DUP3 MOD SWAP1 POP SWAP3 SWAP2 POP POP JUMP JUMPDEST PUSH0 PUSH1 0x20 DUP3 ADD SWAP1 POP PUSH2 0x11F7 PUSH0 DUP4 ADD DUP5 PUSH2 0xD26 JUMP JUMPDEST SWAP3 SWAP2 POP POP JUMP JUMPDEST PUSH32 0x4E487B7100000000000000000000000000000000000000000000000000000000 PUSH0 MSTORE PUSH1 0x32 PUSH1 0x4 MSTORE PUSH1 0x24 PUSH0 REVERT JUMPDEST PUSH0 PUSH2 0x1234 DUP3 PUSH2 0xC7D JUMP JUMPDEST SWAP2 POP PUSH2 0x123F DUP4 PUSH2 0xC7D JUMP JUMPDEST SWAP3 POP DUP3 DUP3 MUL PUSH2 0x124D DUP2 PUSH2 0xC7D JUMP JUMPDEST SWAP2 POP DUP3 DUP3 DIV DUP5 EQ DUP4 ISZERO OR PUSH2 0x1264 JUMPI PUSH2 0x1263 PUSH2 0x103B JUMP JUMPDEST JUMPDEST POP SWAP3 SWAP2 POP POP JUMP JUMPDEST PUSH0 DUP2 SWAP1 POP SWAP3 SWAP2 POP POP JUMP JUMPDEST POP JUMP JUMPDEST PUSH0 PUSH2 0x1283 PUSH0 DUP4 PUSH2 0x126B JUMP JUMPDEST SWAP2 POP PUSH2 0x128E DUP3 PUSH2 0x1275 JUMP JUMPDEST PUSH0 DUP3 ADD SWAP1 POP SWAP2 SWAP1 POP JUMP JUMPDEST PUSH0 PUSH2 0x12A2 DUP3 PUSH2 0x1278 JUMP JUMPDEST SWAP2 POP DUP2 SWAP1 POP SWAP2 SWAP1 POP JUMP JUMPDEST PUSH32 0x5472616E7366657220746F2077696E6E6572206661696C656400000000000000 PUSH0 DUP3 ADD MSTORE POP JUMP JUMPDEST PUSH0 PUSH2 0x12E0 PUSH1 0x19 DUP4 PUSH2 0xF35 JUMP JUMPDEST SWAP2 POP PUSH2 0x12EB DUP3 PUSH2 0x12AC JUMP JUMPDEST PUSH1 0x20 DUP3 ADD SWAP1 POP SWAP2 SWAP1 POP JUMP JUMPDEST PUSH0 PUSH1 0x20 DUP3 ADD SWAP1 POP DUP2 DUP2 SUB PUSH0 DUP4 ADD MSTORE PUSH2 0x130D DUP2 PUSH2 0x12D4 JUMP JUMPDEST SWAP1 POP SWAP2 SWAP1 POP JUMP JUMPDEST PUSH0 PUSH2 0x131E DUP3 PUSH2 0xC7D JUMP JUMPDEST SWAP2 POP PUSH2 0x1329 DUP4 PUSH2 0xC7D JUMP JUMPDEST SWAP3 POP DUP3 DUP3 ADD SWAP1 POP DUP1 DUP3 GT ISZERO PUSH2 0x1341 JUMPI PUSH2 0x1340 PUSH2 0x103B JUMP JUMPDEST JUMPDEST SWAP3 SWAP2 POP POP JUMP JUMPDEST PUSH32 0x5472616E7366657220746F20686F757365206661696C65640000000000000000 PUSH0 DUP3 ADD MSTORE POP JUMP JUMPDEST PUSH0 PUSH2 0x137B PUSH1 0x18 DUP4 PUSH2 0xF35 JUMP JUMPDEST SWAP2 POP PUSH2 0x1386 DUP3 PUSH2 0x1347 JUMP JUMPDEST PUSH1 0x20 DUP3 ADD SWAP1 POP SWAP2 SWAP1 POP JUMP JUMPDEST PUSH0 PUSH1 0x20 DUP3 ADD SWAP1 POP DUP2 DUP2 SUB PUSH0 DUP4 ADD MSTORE PUSH2 0x13A8 DUP2 PUSH2 0x136F JUMP JUMPDEST SWAP1 POP SWAP2 SWAP1 POP JUMP JUMPDEST PUSH32 0x4E756D626572206D757374206265206265747765656E203020616E6420333600 PUSH0 DUP3 ADD MSTORE POP JUMP JUMPDEST PUSH0 PUSH2 0x13E3 PUSH1 0x1F DUP4 PUSH2 0xF35 JUMP JUMPDEST SWAP2 POP PUSH2 0x13EE DUP3 PUSH2 0x13AF JUMP JUMPDEST PUSH1 0x20 DUP3 ADD SWAP1 POP SWAP2 SWAP1 POP JUMP JUMPDEST PUSH0 PUSH1 0x20 DUP3 ADD SWAP1 POP DUP2 DUP2 SUB PUSH0 DUP4 ADD MSTORE PUSH2 0x1410 DUP2 PUSH2 0x13D7 JUMP JUMPDEST SWAP1 POP SWAP2 SWAP1 POP JUMP JUMPDEST PUSH32 0x42657420616D6F756E742069732062656C6F7720746865206D696E696D756D20 PUSH0 DUP3 ADD MSTORE PUSH32 0x6265740000000000000000000000000000000000000000000000000000000000 PUSH1 0x20 DUP3 ADD MSTORE POP JUMP JUMPDEST PUSH0 PUSH2 0x1471 PUSH1 0x23 DUP4 PUSH2 0xF35 JUMP JUMPDEST SWAP2 POP PUSH2 0x147C DUP3 PUSH2 0x1417 JUMP JUMPDEST PUSH1 0x40 DUP3 ADD SWAP1 POP SWAP2 SWAP1 POP JUMP JUMPDEST PUSH0 PUSH1 0x20 DUP3 ADD SWAP1 POP DUP2 DUP2 SUB PUSH0 DUP4 ADD MSTORE PUSH2 0x149E DUP2 PUSH2 0x1465 JUMP JUMPDEST SWAP1 POP SWAP2 SWAP1 POP JUMP JUMPDEST PUSH0 PUSH1 0x40 DUP3 ADD SWAP1 POP PUSH2 0x14B8 PUSH0 DUP4 ADD DUP6 PUSH2 0xD26 JUMP JUMPDEST PUSH2 0x14C5 PUSH1 0x20 DUP4 ADD DUP5 PUSH2 0xD35 JUMP JUMPDEST SWAP4 SWAP3 POP POP POP JUMP JUMPDEST PUSH32 0x4E6F7420656E6F75676820636F6E74726163742062616C616E63650000000000 PUSH0 DUP3 ADD MSTORE POP JUMP JUMPDEST PUSH0 PUSH2 0x1500 PUSH1 0x1B DUP4 PUSH2 0xF35 JUMP JUMPDEST SWAP2 POP PUSH2 0x150B DUP3 PUSH2 0x14CC JUMP JUMPDEST PUSH1 0x20 DUP3 ADD SWAP1 POP SWAP2 SWAP1 POP JUMP JUMPDEST PUSH0 PUSH1 0x20 DUP3 ADD SWAP1 POP DUP2 DUP2 SUB PUSH0 DUP4 ADD MSTORE PUSH2 0x152D DUP2 PUSH2 0x14F4 JUMP JUMPDEST SWAP1 POP SWAP2 SWAP1 POP JUMP JUMPDEST PUSH32 0x5769746864726177206661696C65640000000000000000000000000000000000 PUSH0 DUP3 ADD MSTORE POP JUMP JUMPDEST PUSH0 PUSH2 0x1568 PUSH1 0xF DUP4 PUSH2 0xF35 JUMP JUMPDEST SWAP2 POP PUSH2 0x1573 DUP3 PUSH2 0x1534 JUMP JUMPDEST PUSH1 0x20 DUP3 ADD SWAP1 POP SWAP2 SWAP1 POP JUMP JUMPDEST PUSH0 PUSH1 0x20 DUP3 ADD SWAP1 POP DUP2 DUP2 SUB PUSH0 DUP4 ADD MSTORE PUSH2 0x1595 DUP2 PUSH2 0x155C JUMP JUMPDEST SWAP1 POP SWAP2 SWAP1 POP JUMP INVALID LOG2 PUSH5 0x6970667358 0x22 SLT KECCAK256 0xA7 SWAP3 ADD NUMBER 0xDD 0xC7 MCOPY 0xDD 0xE4 COINBASE 0xE8 DUP7 0xA5 0x24 0xE1 0xDF 0xC2 0xF8 PUSH1 0x67 PUSH9 0xB1AD350282711107E8 PUSH32 0x1A64736F6C634300081C00330000000000000000000000000000000000000000 "
				},
				"gasEstimates": {
					"creation": {
						"codeDepositCost": "1117200",
						"executionCost": "infinite",
						"totalCost": "infinite"
					},
					"external": {
						"bets(uint256)": "infinite",
						"getCurrentBets()": "infinite",
						"getNumberOfBets()": "2527",
						"minBet()": "2491",
						"owner()": "2552",
						"placeBet(uint8)": "infinite",
						"setMinBet(uint256)": "24706",
						"spinWheel()": "infinite",
						"withdrawHouseFunds(uint256)": "infinite"
					}
				},
				"methodIdentifiers": {
					"bets(uint256)": "22af00fa",
					"getCurrentBets()": "3b4ca5d2",
					"getNumberOfBets()": "f222d0b9",
					"minBet()": "9619367d",
					"owner()": "8da5cb5b",
					"placeBet(uint8)": "43046844",
					"setMinBet(uint256)": "88ea41b9",
					"spinWheel()": "15ecef92",
					"withdrawHouseFunds(uint256)": "7d59441a"
				}
			},
			"storageLayout": {
				"storage": [
					{
						"astId": 13,
						"contract": "roulette.sol:Roulette",
						"label": "bets",
						"offset": 0,
						"slot": "0",
						"type": "t_array(t_struct(Bet)9_storage)dyn_storage"
					},
					{
						"astId": 15,
						"contract": "roulette.sol:Roulette",
						"label": "minBet",
						"offset": 0,
						"slot": "1",
						"type": "t_uint256"
					},
					{
						"astId": 17,
						"contract": "roulette.sol:Roulette",
						"label": "owner",
						"offset": 0,
						"slot": "2",
						"type": "t_address"
					}
				],
				"types": {
					"t_address": {
						"encoding": "inplace",
						"label": "address",
						"numberOfBytes": "20"
					},
					"t_array(t_struct(Bet)9_storage)dyn_storage": {
						"base": "t_struct(Bet)9_storage",
						"encoding": "dynamic_array",
						"label": "struct Roulette.Bet[]",
						"numberOfBytes": "32"
					},
					"t_struct(Bet)9_storage": {
						"encoding": "inplace",
						"label": "struct Roulette.Bet",
						"members": [
							{
								"astId": 4,
								"contract": "roulette.sol:Roulette",
								"label": "player",
								"offset": 0,
								"slot": "0",
								"type": "t_address"
							},
							{
								"astId": 6,
								"contract": "roulette.sol:Roulette",
								"label": "number",
								"offset": 20,
								"slot": "0",
								"type": "t_uint8"
							},
							{
								"astId": 8,
								"contract": "roulette.sol:Roulette",
								"label": "amount",
								"offset": 0,
								"slot": "1",
								"type": "t_uint256"
							}
						],
						"numberOfBytes": "64"
					},
					"t_uint256": {
						"encoding": "inplace",
						"label": "uint256",
						"numberOfBytes": "32"
					},
					"t_uint8": {
						"encoding": "inplace",
						"label": "uint8",
						"numberOfBytes": "1"
					}
				}
			},
			"userdoc": {
				"kind": "user",
				"methods": {
					"getCurrentBets()": {
						"notice": "Returns all current bets. "
					},
					"getNumberOfBets()": {
						"notice": "Returns the total number of bets in the current round."
					},
					"placeBet(uint8)": {
						"notice": "Places a bet on a number between 0 and 36."
					},
					"setMinBet(uint256)": {
						"notice": "Change the minimum bet (only owner)."
					},
					"spinWheel()": {
						"notice": "Spin the roulette wheel, determine the winning number, and distribute payouts. "
					},
					"withdrawHouseFunds(uint256)": {
						"notice": "Owner can withdraw any leftover balance (in case of stuck funds)."
					}
				},
				"notice": "A simplified Roulette smart contract demonstration (not production-ready).",
				"version": 1
			}
		}
	}
}