{
	"RouletteGame.sol": {
		"RouletteGame": {
			"abi": [
				{
					"inputs": [
						{
							"internalType": "address",
							"name": "_host",
							"type": "address"
						},
						{
							"internalType": "uint256",
							"name": "_minBet",
							"type": "uint256"
						},
						{
							"internalType": "address[]",
							"name": "_validators",
							"type": "address[]"
						},
						{
							"internalType": "uint8",
							"name": "_valid_threshold",
							"type": "uint8"
						}
					],
					"stateMutability": "nonpayable",
					"type": "constructor"
				},
				{
					"anonymous": false,
					"inputs": [
						{
							"indexed": false,
							"internalType": "string",
							"name": "rsn",
							"type": "string"
						},
						{
							"indexed": true,
							"internalType": "address",
							"name": "player",
							"type": "address"
						},
						{
							"indexed": false,
							"internalType": "uint256",
							"name": "amount",
							"type": "uint256"
						}
					],
					"name": "BetCancelled",
					"type": "event"
				},
				{
					"anonymous": false,
					"inputs": [
						{
							"indexed": true,
							"internalType": "address",
							"name": "player",
							"type": "address"
						},
						{
							"indexed": false,
							"internalType": "uint8",
							"name": "option",
							"type": "uint8"
						},
						{
							"indexed": false,
							"internalType": "uint256",
							"name": "amount",
							"type": "uint256"
						}
					],
					"name": "BetPayout",
					"type": "event"
				},
				{
					"anonymous": false,
					"inputs": [
						{
							"indexed": true,
							"internalType": "address",
							"name": "player",
							"type": "address"
						},
						{
							"indexed": false,
							"internalType": "uint8",
							"name": "option",
							"type": "uint8"
						},
						{
							"indexed": false,
							"internalType": "uint256",
							"name": "amount",
							"type": "uint256"
						}
					],
					"name": "BetPlaced",
					"type": "event"
				},
				{
					"anonymous": false,
					"inputs": [
						{
							"indexed": true,
							"internalType": "address",
							"name": "host",
							"type": "address"
						},
						{
							"indexed": false,
							"internalType": "uint256",
							"name": "amount",
							"type": "uint256"
						}
					],
					"name": "DepositPlaced",
					"type": "event"
				},
				{
					"anonymous": false,
					"inputs": [
						{
							"indexed": true,
							"internalType": "address",
							"name": "host",
							"type": "address"
						},
						{
							"indexed": false,
							"internalType": "uint256",
							"name": "minBet",
							"type": "uint256"
						},
						{
							"indexed": false,
							"internalType": "address[]",
							"name": "validators",
							"type": "address[]"
						},
						{
							"indexed": false,
							"internalType": "uint8",
							"name": "valid_threshold",
							"type": "uint8"
						}
					],
					"name": "GameCreated",
					"type": "event"
				},
				{
					"anonymous": false,
					"inputs": [
						{
							"indexed": true,
							"internalType": "address",
							"name": "host",
							"type": "address"
						},
						{
							"indexed": false,
							"internalType": "uint256",
							"name": "amount",
							"type": "uint256"
						}
					],
					"name": "GameEnded",
					"type": "event"
				},
				{
					"anonymous": false,
					"inputs": [
						{
							"indexed": false,
							"internalType": "uint256",
							"name": "cutOffBlockNumber",
							"type": "uint256"
						}
					],
					"name": "NoMoreBets",
					"type": "event"
				},
				{
					"anonymous": false,
					"inputs": [
						{
							"indexed": false,
							"internalType": "uint8",
							"name": "stepIndex",
							"type": "uint8"
						},
						{
							"indexed": false,
							"internalType": "string",
							"name": "explanation",
							"type": "string"
						},
						{
							"indexed": false,
							"internalType": "bytes",
							"name": "intermediateHash",
							"type": "bytes"
						}
					],
					"name": "ProofStep",
					"type": "event"
				},
				{
					"anonymous": false,
					"inputs": [
						{
							"indexed": false,
							"internalType": "uint8",
							"name": "result",
							"type": "uint8"
						}
					],
					"name": "ResultGenerated",
					"type": "event"
				},
				{
					"anonymous": false,
					"inputs": [
						{
							"indexed": false,
							"internalType": "uint8",
							"name": "recomputedResult",
							"type": "uint8"
						},
						{
							"indexed": false,
							"internalType": "uint8",
							"name": "result",
							"type": "uint8"
						}
					],
					"name": "ResultMismatch",
					"type": "event"
				},
				{
					"anonymous": false,
					"inputs": [
						{
							"indexed": false,
							"internalType": "uint8",
							"name": "result",
							"type": "uint8"
						}
					],
					"name": "ResultValidated",
					"type": "event"
				},
				{
					"inputs": [
						{
							"internalType": "uint256",
							"name": "",
							"type": "uint256"
						}
					],
					"name": "OPTION_BLACK_SET",
					"outputs": [
						{
							"internalType": "uint8",
							"name": "",
							"type": "uint8"
						}
					],
					"stateMutability": "view",
					"type": "function"
				},
				{
					"inputs": [
						{
							"internalType": "uint256",
							"name": "",
							"type": "uint256"
						}
					],
					"name": "OPTION_EVEN_SET",
					"outputs": [
						{
							"internalType": "uint8",
							"name": "",
							"type": "uint8"
						}
					],
					"stateMutability": "view",
					"type": "function"
				},
				{
					"inputs": [
						{
							"internalType": "uint256",
							"name": "",
							"type": "uint256"
						}
					],
					"name": "OPTION_FIRST_COLUMN_SET",
					"outputs": [
						{
							"internalType": "uint8",
							"name": "",
							"type": "uint8"
						}
					],
					"stateMutability": "view",
					"type": "function"
				},
				{
					"inputs": [
						{
							"internalType": "uint256",
							"name": "",
							"type": "uint256"
						}
					],
					"name": "OPTION_FIRST_DOZEN_SET",
					"outputs": [
						{
							"internalType": "uint8",
							"name": "",
							"type": "uint8"
						}
					],
					"stateMutability": "view",
					"type": "function"
				},
				{
					"inputs": [
						{
							"internalType": "uint256",
							"name": "",
							"type": "uint256"
						}
					],
					"name": "OPTION_HIGH_SET",
					"outputs": [
						{
							"internalType": "uint8",
							"name": "",
							"type": "uint8"
						}
					],
					"stateMutability": "view",
					"type": "function"
				},
				{
					"inputs": [
						{
							"internalType": "uint256",
							"name": "",
							"type": "uint256"
						}
					],
					"name": "OPTION_LOW_SET",
					"outputs": [
						{
							"internalType": "uint8",
							"name": "",
							"type": "uint8"
						}
					],
					"stateMutability": "view",
					"type": "function"
				},
				{
					"inputs": [
						{
							"internalType": "uint256",
							"name": "",
							"type": "uint256"
						}
					],
					"name": "OPTION_ODD_SET",
					"outputs": [
						{
							"internalType": "uint8",
							"name": "",
							"type": "uint8"
						}
					],
					"stateMutability": "view",
					"type": "function"
				},
				{
					"inputs": [
						{
							"internalType": "uint256",
							"name": "",
							"type": "uint256"
						}
					],
					"name": "OPTION_RED_SET",
					"outputs": [
						{
							"internalType": "uint8",
							"name": "",
							"type": "uint8"
						}
					],
					"stateMutability": "view",
					"type": "function"
				},
				{
					"inputs": [
						{
							"internalType": "uint256",
							"name": "",
							"type": "uint256"
						}
					],
					"name": "OPTION_SECOND_COLUMN_SET",
					"outputs": [
						{
							"internalType": "uint8",
							"name": "",
							"type": "uint8"
						}
					],
					"stateMutability": "view",
					"type": "function"
				},
				{
					"inputs": [
						{
							"internalType": "uint256",
							"name": "",
							"type": "uint256"
						}
					],
					"name": "OPTION_SECOND_DOZEN_SET",
					"outputs": [
						{
							"internalType": "uint8",
							"name": "",
							"type": "uint8"
						}
					],
					"stateMutability": "view",
					"type": "function"
				},
				{
					"inputs": [
						{
							"internalType": "uint256",
							"name": "",
							"type": "uint256"
						}
					],
					"name": "OPTION_THIRD_COLUMN_SET",
					"outputs": [
						{
							"internalType": "uint8",
							"name": "",
							"type": "uint8"
						}
					],
					"stateMutability": "view",
					"type": "function"
				},
				{
					"inputs": [
						{
							"internalType": "uint256",
							"name": "",
							"type": "uint256"
						}
					],
					"name": "OPTION_THIRD_DOZEN_SET",
					"outputs": [
						{
							"internalType": "uint8",
							"name": "",
							"type": "uint8"
						}
					],
					"stateMutability": "view",
					"type": "function"
				},
				{
					"inputs": [
						{
							"internalType": "uint256",
							"name": "",
							"type": "uint256"
						}
					],
					"name": "bets",
					"outputs": [
						{
							"internalType": "address",
							"name": "player",
							"type": "address"
						},
						{
							"internalType": "uint8",
							"name": "option",
							"type": "uint8"
						},
						{
							"internalType": "uint256",
							"name": "amount",
							"type": "uint256"
						}
					],
					"stateMutability": "view",
					"type": "function"
				},
				{
					"inputs": [],
					"name": "cutOffBlockNumber",
					"outputs": [
						{
							"internalType": "uint256",
							"name": "",
							"type": "uint256"
						}
					],
					"stateMutability": "view",
					"type": "function"
				},
				{
					"inputs": [],
					"name": "deposit",
					"outputs": [],
					"stateMutability": "payable",
					"type": "function"
				},
				{
					"inputs": [],
					"name": "generateResult",
					"outputs": [],
					"stateMutability": "nonpayable",
					"type": "function"
				},
				{
					"inputs": [],
					"name": "getBetsCount",
					"outputs": [
						{
							"internalType": "uint256",
							"name": "",
							"type": "uint256"
						}
					],
					"stateMutability": "view",
					"type": "function"
				},
				{
					"inputs": [],
					"name": "getStatus",
					"outputs": [
						{
							"internalType": "uint8",
							"name": "",
							"type": "uint8"
						}
					],
					"stateMutability": "view",
					"type": "function"
				},
				{
					"inputs": [],
					"name": "getTotalBetsAmount",
					"outputs": [
						{
							"internalType": "uint256",
							"name": "",
							"type": "uint256"
						}
					],
					"stateMutability": "view",
					"type": "function"
				},
				{
					"inputs": [],
					"name": "host",
					"outputs": [
						{
							"internalType": "address",
							"name": "",
							"type": "address"
						}
					],
					"stateMutability": "view",
					"type": "function"
				},
				{
					"inputs": [
						{
							"internalType": "uint8",
							"name": "number",
							"type": "uint8"
						}
					],
					"name": "isInBlackSet",
					"outputs": [
						{
							"internalType": "bool",
							"name": "",
							"type": "bool"
						}
					],
					"stateMutability": "view",
					"type": "function"
				},
				{
					"inputs": [
						{
							"internalType": "uint8",
							"name": "number",
							"type": "uint8"
						}
					],
					"name": "isInEvenSet",
					"outputs": [
						{
							"internalType": "bool",
							"name": "",
							"type": "bool"
						}
					],
					"stateMutability": "view",
					"type": "function"
				},
				{
					"inputs": [
						{
							"internalType": "uint8",
							"name": "number",
							"type": "uint8"
						}
					],
					"name": "isInFirstColumnSet",
					"outputs": [
						{
							"internalType": "bool",
							"name": "",
							"type": "bool"
						}
					],
					"stateMutability": "view",
					"type": "function"
				},
				{
					"inputs": [
						{
							"internalType": "uint8",
							"name": "number",
							"type": "uint8"
						}
					],
					"name": "isInFirstDozenSet",
					"outputs": [
						{
							"internalType": "bool",
							"name": "",
							"type": "bool"
						}
					],
					"stateMutability": "view",
					"type": "function"
				},
				{
					"inputs": [
						{
							"internalType": "uint8",
							"name": "number",
							"type": "uint8"
						}
					],
					"name": "isInHighSet",
					"outputs": [
						{
							"internalType": "bool",
							"name": "",
							"type": "bool"
						}
					],
					"stateMutability": "view",
					"type": "function"
				},
				{
					"inputs": [
						{
							"internalType": "uint8",
							"name": "number",
							"type": "uint8"
						}
					],
					"name": "isInLowSet",
					"outputs": [
						{
							"internalType": "bool",
							"name": "",
							"type": "bool"
						}
					],
					"stateMutability": "view",
					"type": "function"
				},
				{
					"inputs": [
						{
							"internalType": "uint8",
							"name": "number",
							"type": "uint8"
						}
					],
					"name": "isInOddSet",
					"outputs": [
						{
							"internalType": "bool",
							"name": "",
							"type": "bool"
						}
					],
					"stateMutability": "view",
					"type": "function"
				},
				{
					"inputs": [
						{
							"internalType": "uint8",
							"name": "number",
							"type": "uint8"
						}
					],
					"name": "isInRedSet",
					"outputs": [
						{
							"internalType": "bool",
							"name": "",
							"type": "bool"
						}
					],
					"stateMutability": "view",
					"type": "function"
				},
				{
					"inputs": [
						{
							"internalType": "uint8",
							"name": "number",
							"type": "uint8"
						}
					],
					"name": "isInSecondColumnSet",
					"outputs": [
						{
							"internalType": "bool",
							"name": "",
							"type": "bool"
						}
					],
					"stateMutability": "view",
					"type": "function"
				},
				{
					"inputs": [
						{
							"internalType": "uint8",
							"name": "number",
							"type": "uint8"
						}
					],
					"name": "isInSecondDozenSet",
					"outputs": [
						{
							"internalType": "bool",
							"name": "",
							"type": "bool"
						}
					],
					"stateMutability": "view",
					"type": "function"
				},
				{
					"inputs": [
						{
							"internalType": "uint8",
							"name": "number",
							"type": "uint8"
						}
					],
					"name": "isInThirdColumnSet",
					"outputs": [
						{
							"internalType": "bool",
							"name": "",
							"type": "bool"
						}
					],
					"stateMutability": "view",
					"type": "function"
				},
				{
					"inputs": [
						{
							"internalType": "uint8",
							"name": "number",
							"type": "uint8"
						}
					],
					"name": "isInThirdDozenSet",
					"outputs": [
						{
							"internalType": "bool",
							"name": "",
							"type": "bool"
						}
					],
					"stateMutability": "view",
					"type": "function"
				},
				{
					"inputs": [
						{
							"internalType": "address",
							"name": "",
							"type": "address"
						}
					],
					"name": "matchSigners",
					"outputs": [
						{
							"internalType": "bool",
							"name": "",
							"type": "bool"
						}
					],
					"stateMutability": "view",
					"type": "function"
				},
				{
					"inputs": [
						{
							"internalType": "uint256",
							"name": "",
							"type": "uint256"
						}
					],
					"name": "matchedValidators",
					"outputs": [
						{
							"internalType": "address",
							"name": "",
							"type": "address"
						}
					],
					"stateMutability": "view",
					"type": "function"
				},
				{
					"inputs": [],
					"name": "maxBet",
					"outputs": [
						{
							"internalType": "uint256",
							"name": "",
							"type": "uint256"
						}
					],
					"stateMutability": "view",
					"type": "function"
				},
				{
					"inputs": [],
					"name": "minBet",
					"outputs": [
						{
							"internalType": "uint256",
							"name": "",
							"type": "uint256"
						}
					],
					"stateMutability": "view",
					"type": "function"
				},
				{
					"inputs": [],
					"name": "minDeposite",
					"outputs": [
						{
							"internalType": "uint256",
							"name": "",
							"type": "uint256"
						}
					],
					"stateMutability": "view",
					"type": "function"
				},
				{
					"inputs": [
						{
							"internalType": "address",
							"name": "",
							"type": "address"
						}
					],
					"name": "mismatchSigners",
					"outputs": [
						{
							"internalType": "bool",
							"name": "",
							"type": "bool"
						}
					],
					"stateMutability": "view",
					"type": "function"
				},
				{
					"inputs": [
						{
							"internalType": "uint256",
							"name": "",
							"type": "uint256"
						}
					],
					"name": "mismatchedValidators",
					"outputs": [
						{
							"internalType": "address",
							"name": "",
							"type": "address"
						}
					],
					"stateMutability": "view",
					"type": "function"
				},
				{
					"inputs": [],
					"name": "noMoreBets",
					"outputs": [],
					"stateMutability": "nonpayable",
					"type": "function"
				},
				{
					"inputs": [
						{
							"internalType": "uint8",
							"name": "option",
							"type": "uint8"
						}
					],
					"name": "placeBet",
					"outputs": [],
					"stateMutability": "payable",
					"type": "function"
				},
				{
					"inputs": [],
					"name": "result",
					"outputs": [
						{
							"internalType": "uint8",
							"name": "",
							"type": "uint8"
						}
					],
					"stateMutability": "view",
					"type": "function"
				},
				{
					"inputs": [],
					"name": "settleBet",
					"outputs": [],
					"stateMutability": "nonpayable",
					"type": "function"
				},
				{
					"inputs": [],
					"name": "status",
					"outputs": [
						{
							"internalType": "uint8",
							"name": "",
							"type": "uint8"
						}
					],
					"stateMutability": "view",
					"type": "function"
				},
				{
					"inputs": [],
					"name": "validateResult",
					"outputs": [],
					"stateMutability": "nonpayable",
					"type": "function"
				},
				{
					"inputs": [],
					"name": "validate_threshold",
					"outputs": [
						{
							"internalType": "uint8",
							"name": "",
							"type": "uint8"
						}
					],
					"stateMutability": "view",
					"type": "function"
				},
				{
					"inputs": [
						{
							"internalType": "uint256",
							"name": "",
							"type": "uint256"
						}
					],
					"name": "validators",
					"outputs": [
						{
							"internalType": "address",
							"name": "",
							"type": "address"
						}
					],
					"stateMutability": "view",
					"type": "function"
				}
			],
			"devdoc": {
				"kind": "dev",
				"methods": {
					"validateResult()": {
						"details": "validateResult re-computes the random hash in a step-by-step manner.      For each step, it emits a ProofStep event with a layman-friendly message      and the raw data used at that step for verification.      This version also:       - Prints the exact block number used.       - Shows the blockhash in hex form.       - Shows the array of addresses (host + players) in a bracketed list.       - Emits the raw data in the event logs for cryptographic verification."
					}
				},
				"version": 1
			},
			"evm": {
				"assembly": "    /* \"RouletteGame.sol\":2775:3022  uint8[18] public OPTION_LOW_SET = [... */\n  0x02c0\n    /* \"RouletteGame.sol\":65:35471  contract RouletteGame {... */\n  0x40\n    /* \"RouletteGame.sol\":2775:3022  uint8[18] public OPTION_LOW_SET = [... */\n  mstore\n    /* \"RouletteGame.sol\":2819:2820  1 */\n  0x01\n    /* \"RouletteGame.sol\":65:35471  contract RouletteGame {... */\n  0x80\n    /* \"RouletteGame.sol\":2775:3022  uint8[18] public OPTION_LOW_SET = [... */\n  swap1\n  dup2\n  mstore\n    /* \"RouletteGame.sol\":2830:2831  2 */\n  0x02\n    /* \"RouletteGame.sol\":2775:3022  uint8[18] public OPTION_LOW_SET = [... */\n  0xa0\n  mstore\n    /* \"RouletteGame.sol\":2841:2842  3 */\n  0x03\n    /* \"RouletteGame.sol\":2775:3022  uint8[18] public OPTION_LOW_SET = [... */\n  0xc0\n  mstore\n    /* \"RouletteGame.sol\":2852:2853  4 */\n  0x04\n    /* \"RouletteGame.sol\":2775:3022  uint8[18] public OPTION_LOW_SET = [... */\n  0xe0\n  mstore\n    /* \"RouletteGame.sol\":2863:2864  5 */\n  0x05\n    /* \"RouletteGame.sol\":2775:3022  uint8[18] public OPTION_LOW_SET = [... */\n  0x0100\n  mstore\n    /* \"RouletteGame.sol\":2874:2875  6 */\n  0x06\n    /* \"RouletteGame.sol\":2775:3022  uint8[18] public OPTION_LOW_SET = [... */\n  0x0120\n  mstore\n    /* \"RouletteGame.sol\":2885:2886  7 */\n  0x07\n    /* \"RouletteGame.sol\":2775:3022  uint8[18] public OPTION_LOW_SET = [... */\n  0x0140\n  mstore\n    /* \"RouletteGame.sol\":2896:2897  8 */\n  0x08\n    /* \"RouletteGame.sol\":2775:3022  uint8[18] public OPTION_LOW_SET = [... */\n  0x0160\n  mstore\n    /* \"RouletteGame.sol\":2907:2908  9 */\n  0x09\n    /* \"RouletteGame.sol\":2775:3022  uint8[18] public OPTION_LOW_SET = [... */\n  0x0180\n  mstore\n    /* \"RouletteGame.sol\":2918:2920  10 */\n  0x0a\n    /* \"RouletteGame.sol\":2775:3022  uint8[18] public OPTION_LOW_SET = [... */\n  0x01a0\n  mstore\n    /* \"RouletteGame.sol\":2930:2932  11 */\n  0x0b\n    /* \"RouletteGame.sol\":2775:3022  uint8[18] public OPTION_LOW_SET = [... */\n  0x01c0\n  mstore\n    /* \"RouletteGame.sol\":2942:2944  12 */\n  0x0c\n    /* \"RouletteGame.sol\":2775:3022  uint8[18] public OPTION_LOW_SET = [... */\n  0x01e0\n  mstore\n    /* \"RouletteGame.sol\":2954:2956  13 */\n  0x0d\n    /* \"RouletteGame.sol\":2775:3022  uint8[18] public OPTION_LOW_SET = [... */\n  0x0200\n  mstore\n    /* \"RouletteGame.sol\":2966:2968  14 */\n  0x0e\n    /* \"RouletteGame.sol\":2775:3022  uint8[18] public OPTION_LOW_SET = [... */\n  0x0220\n  mstore\n    /* \"RouletteGame.sol\":2978:2980  15 */\n  0x0f\n    /* \"RouletteGame.sol\":2775:3022  uint8[18] public OPTION_LOW_SET = [... */\n  0x0240\n  mstore\n    /* \"RouletteGame.sol\":2990:2992  16 */\n  0x10\n    /* \"RouletteGame.sol\":2775:3022  uint8[18] public OPTION_LOW_SET = [... */\n  0x0260\n  mstore\n    /* \"RouletteGame.sol\":3002:3004  17 */\n  0x11\n    /* \"RouletteGame.sol\":2775:3022  uint8[18] public OPTION_LOW_SET = [... */\n  0x0280\n  mstore\n    /* \"RouletteGame.sol\":3014:3016  18 */\n  0x12\n    /* \"RouletteGame.sol\":2775:3022  uint8[18] public OPTION_LOW_SET = [... */\n  0x02a0\n  dup2\n  swap1\n  mstore\n  tag_1\n  swap2\n  0x00\n  swap2\n  tag_2\n  jump\t// in\ntag_1:\n  pop\n    /* \"RouletteGame.sol\":3387:3644  uint8[18] public OPTION_HIGH_SET = [... */\n  0x40\n  dup1\n  mload\n  0x0240\n  dup2\n  add\n  dup3\n  mstore\n    /* \"RouletteGame.sol\":3432:3434  19 */\n  0x13\n    /* \"RouletteGame.sol\":3387:3644  uint8[18] public OPTION_HIGH_SET = [... */\n  dup2\n  mstore\n    /* \"RouletteGame.sol\":3444:3446  20 */\n  0x14\n    /* \"RouletteGame.sol\":3387:3644  uint8[18] public OPTION_HIGH_SET = [... */\n  0x20\n  dup1\n  dup4\n  add\n  swap2\n  swap1\n  swap2\n  mstore\n    /* \"RouletteGame.sol\":3456:3458  21 */\n  0x15\n    /* \"RouletteGame.sol\":3387:3644  uint8[18] public OPTION_HIGH_SET = [... */\n  swap3\n  dup3\n  add\n  swap3\n  swap1\n  swap3\n  mstore\n    /* \"RouletteGame.sol\":3468:3470  22 */\n  0x16\n    /* \"RouletteGame.sol\":3387:3644  uint8[18] public OPTION_HIGH_SET = [... */\n  0x60\n  dup3\n  add\n  mstore\n    /* \"RouletteGame.sol\":3480:3482  23 */\n  0x17\n    /* \"RouletteGame.sol\":3387:3644  uint8[18] public OPTION_HIGH_SET = [... */\n  0x80\n  dup3\n  add\n  mstore\n    /* \"RouletteGame.sol\":3492:3494  24 */\n  0x18\n    /* \"RouletteGame.sol\":3387:3644  uint8[18] public OPTION_HIGH_SET = [... */\n  0xa0\n  dup3\n  add\n  mstore\n    /* \"RouletteGame.sol\":3504:3506  25 */\n  0x19\n    /* \"RouletteGame.sol\":3387:3644  uint8[18] public OPTION_HIGH_SET = [... */\n  0xc0\n  dup3\n  add\n  mstore\n    /* \"RouletteGame.sol\":3516:3518  26 */\n  0x1a\n    /* \"RouletteGame.sol\":3387:3644  uint8[18] public OPTION_HIGH_SET = [... */\n  0xe0\n  dup3\n  add\n  mstore\n    /* \"RouletteGame.sol\":3528:3530  27 */\n  0x1b\n    /* \"RouletteGame.sol\":3387:3644  uint8[18] public OPTION_HIGH_SET = [... */\n  0x0100\n  dup3\n  add\n  mstore\n    /* \"RouletteGame.sol\":3540:3542  28 */\n  0x1c\n    /* \"RouletteGame.sol\":3387:3644  uint8[18] public OPTION_HIGH_SET = [... */\n  0x0120\n  dup3\n  add\n  mstore\n    /* \"RouletteGame.sol\":3552:3554  29 */\n  0x1d\n    /* \"RouletteGame.sol\":3387:3644  uint8[18] public OPTION_HIGH_SET = [... */\n  0x0140\n  dup3\n  add\n  mstore\n    /* \"RouletteGame.sol\":3564:3566  30 */\n  0x1e\n    /* \"RouletteGame.sol\":3387:3644  uint8[18] public OPTION_HIGH_SET = [... */\n  0x0160\n  dup3\n  add\n  mstore\n    /* \"RouletteGame.sol\":3576:3578  31 */\n  0x1f\n    /* \"RouletteGame.sol\":3387:3644  uint8[18] public OPTION_HIGH_SET = [... */\n  0x0180\n  dup3\n  add\n  mstore\n  0x01a0\n  dup2\n  add\n  swap2\n  swap1\n  swap2\n  mstore\n    /* \"RouletteGame.sol\":3600:3602  33 */\n  0x21\n    /* \"RouletteGame.sol\":3387:3644  uint8[18] public OPTION_HIGH_SET = [... */\n  0x01c0\n  dup3\n  add\n  mstore\n    /* \"RouletteGame.sol\":3612:3614  34 */\n  0x22\n    /* \"RouletteGame.sol\":3387:3644  uint8[18] public OPTION_HIGH_SET = [... */\n  0x01e0\n  dup3\n  add\n  mstore\n    /* \"RouletteGame.sol\":3624:3626  35 */\n  0x23\n    /* \"RouletteGame.sol\":3387:3644  uint8[18] public OPTION_HIGH_SET = [... */\n  0x0200\n  dup3\n  add\n  mstore\n    /* \"RouletteGame.sol\":3636:3638  36 */\n  0x24\n    /* \"RouletteGame.sol\":3387:3644  uint8[18] public OPTION_HIGH_SET = [... */\n  0x0220\n  dup3\n  add\n  mstore\n  tag_3\n  swap1\n  0x01\n  swap1\n  0x12\n  tag_2\n  jump\t// in\ntag_3:\n  pop\n    /* \"RouletteGame.sol\":4031:4282  uint8[18] public OPTION_RED_SET = [... */\n  0x40\n  dup1\n  mload\n  0x0240\n  dup2\n  add\n  dup3\n  mstore\n    /* \"RouletteGame.sol\":4075:4076  1 */\n  0x01\n    /* \"RouletteGame.sol\":4031:4282  uint8[18] public OPTION_RED_SET = [... */\n  dup2\n  mstore\n    /* \"RouletteGame.sol\":4086:4087  3 */\n  0x03\n    /* \"RouletteGame.sol\":4031:4282  uint8[18] public OPTION_RED_SET = [... */\n  0x20\n  dup1\n  dup4\n  add\n  swap2\n  swap1\n  swap2\n  mstore\n    /* \"RouletteGame.sol\":4097:4098  5 */\n  0x05\n    /* \"RouletteGame.sol\":4031:4282  uint8[18] public OPTION_RED_SET = [... */\n  swap3\n  dup3\n  add\n  swap3\n  swap1\n  swap3\n  mstore\n    /* \"RouletteGame.sol\":4108:4109  7 */\n  0x07\n    /* \"RouletteGame.sol\":4031:4282  uint8[18] public OPTION_RED_SET = [... */\n  0x60\n  dup3\n  add\n  mstore\n    /* \"RouletteGame.sol\":4119:4120  9 */\n  0x09\n    /* \"RouletteGame.sol\":4031:4282  uint8[18] public OPTION_RED_SET = [... */\n  0x80\n  dup3\n  add\n  mstore\n    /* \"RouletteGame.sol\":4130:4132  12 */\n  0x0c\n    /* \"RouletteGame.sol\":4031:4282  uint8[18] public OPTION_RED_SET = [... */\n  0xa0\n  dup3\n  add\n  mstore\n    /* \"RouletteGame.sol\":4142:4144  14 */\n  0x0e\n    /* \"RouletteGame.sol\":4031:4282  uint8[18] public OPTION_RED_SET = [... */\n  0xc0\n  dup3\n  add\n  mstore\n    /* \"RouletteGame.sol\":4154:4156  16 */\n  0x10\n    /* \"RouletteGame.sol\":4031:4282  uint8[18] public OPTION_RED_SET = [... */\n  0xe0\n  dup3\n  add\n  mstore\n    /* \"RouletteGame.sol\":4166:4168  18 */\n  0x12\n    /* \"RouletteGame.sol\":4031:4282  uint8[18] public OPTION_RED_SET = [... */\n  0x0100\n  dup3\n  add\n  dup2\n  swap1\n  mstore\n    /* \"RouletteGame.sol\":4178:4180  19 */\n  0x13\n    /* \"RouletteGame.sol\":4031:4282  uint8[18] public OPTION_RED_SET = [... */\n  0x0120\n  dup4\n  add\n  mstore\n    /* \"RouletteGame.sol\":4190:4192  21 */\n  0x15\n    /* \"RouletteGame.sol\":4031:4282  uint8[18] public OPTION_RED_SET = [... */\n  0x0140\n  dup4\n  add\n  mstore\n    /* \"RouletteGame.sol\":4202:4204  23 */\n  0x17\n    /* \"RouletteGame.sol\":4031:4282  uint8[18] public OPTION_RED_SET = [... */\n  0x0160\n  dup4\n  add\n  mstore\n    /* \"RouletteGame.sol\":4214:4216  25 */\n  0x19\n    /* \"RouletteGame.sol\":4031:4282  uint8[18] public OPTION_RED_SET = [... */\n  0x0180\n  dup4\n  add\n  mstore\n    /* \"RouletteGame.sol\":4226:4228  27 */\n  0x1b\n    /* \"RouletteGame.sol\":4031:4282  uint8[18] public OPTION_RED_SET = [... */\n  0x01a0\n  dup4\n  add\n  mstore\n    /* \"RouletteGame.sol\":4238:4240  30 */\n  0x1e\n    /* \"RouletteGame.sol\":4031:4282  uint8[18] public OPTION_RED_SET = [... */\n  0x01c0\n  dup4\n  add\n  mstore\n  0x01e0\n  dup3\n  add\n  swap3\n  swap1\n  swap3\n  mstore\n    /* \"RouletteGame.sol\":4262:4264  34 */\n  0x22\n    /* \"RouletteGame.sol\":4031:4282  uint8[18] public OPTION_RED_SET = [... */\n  0x0200\n  dup3\n  add\n  mstore\n    /* \"RouletteGame.sol\":4274:4276  36 */\n  0x24\n    /* \"RouletteGame.sol\":4031:4282  uint8[18] public OPTION_RED_SET = [... */\n  0x0220\n  dup3\n  add\n  mstore\n  tag_4\n  swap2\n  0x02\n  swap2\n  swap1\n  tag_2\n  jump\t// in\ntag_4:\n  pop\n    /* \"RouletteGame.sol\":4648:4902  uint8[18] public OPTION_BLACK_SET = [... */\n  0x40\n  dup1\n  mload\n  0x0240\n  dup2\n  add\n  dup3\n  mstore\n    /* \"RouletteGame.sol\":4694:4695  2 */\n  0x02\n    /* \"RouletteGame.sol\":4648:4902  uint8[18] public OPTION_BLACK_SET = [... */\n  dup2\n  mstore\n    /* \"RouletteGame.sol\":4705:4706  4 */\n  0x04\n    /* \"RouletteGame.sol\":4648:4902  uint8[18] public OPTION_BLACK_SET = [... */\n  0x20\n  dup3\n  add\n  mstore\n    /* \"RouletteGame.sol\":4716:4717  6 */\n  0x06\n    /* \"RouletteGame.sol\":4648:4902  uint8[18] public OPTION_BLACK_SET = [... */\n  swap2\n  dup2\n  add\n  swap2\n  swap1\n  swap2\n  mstore\n    /* \"RouletteGame.sol\":4727:4728  8 */\n  0x08\n    /* \"RouletteGame.sol\":4648:4902  uint8[18] public OPTION_BLACK_SET = [... */\n  0x60\n  dup3\n  add\n  mstore\n    /* \"RouletteGame.sol\":4738:4740  10 */\n  0x0a\n    /* \"RouletteGame.sol\":4648:4902  uint8[18] public OPTION_BLACK_SET = [... */\n  0x80\n  dup3\n  add\n  mstore\n    /* \"RouletteGame.sol\":4750:4752  11 */\n  0x0b\n    /* \"RouletteGame.sol\":4648:4902  uint8[18] public OPTION_BLACK_SET = [... */\n  0xa0\n  dup3\n  add\n  mstore\n    /* \"RouletteGame.sol\":4762:4764  13 */\n  0x0d\n    /* \"RouletteGame.sol\":4648:4902  uint8[18] public OPTION_BLACK_SET = [... */\n  0xc0\n  dup3\n  add\n  mstore\n    /* \"RouletteGame.sol\":4774:4776  15 */\n  0x0f\n    /* \"RouletteGame.sol\":4648:4902  uint8[18] public OPTION_BLACK_SET = [... */\n  0xe0\n  dup3\n  add\n  mstore\n    /* \"RouletteGame.sol\":4786:4788  17 */\n  0x11\n    /* \"RouletteGame.sol\":4648:4902  uint8[18] public OPTION_BLACK_SET = [... */\n  0x0100\n  dup3\n  add\n  mstore\n    /* \"RouletteGame.sol\":4798:4800  20 */\n  0x14\n    /* \"RouletteGame.sol\":4648:4902  uint8[18] public OPTION_BLACK_SET = [... */\n  0x0120\n  dup3\n  add\n  mstore\n    /* \"RouletteGame.sol\":4810:4812  22 */\n  0x16\n    /* \"RouletteGame.sol\":4648:4902  uint8[18] public OPTION_BLACK_SET = [... */\n  0x0140\n  dup3\n  add\n  mstore\n    /* \"RouletteGame.sol\":4822:4824  24 */\n  0x18\n    /* \"RouletteGame.sol\":4648:4902  uint8[18] public OPTION_BLACK_SET = [... */\n  0x0160\n  dup3\n  add\n  mstore\n    /* \"RouletteGame.sol\":4834:4836  26 */\n  0x1a\n    /* \"RouletteGame.sol\":4648:4902  uint8[18] public OPTION_BLACK_SET = [... */\n  0x0180\n  dup3\n  add\n  mstore\n    /* \"RouletteGame.sol\":4846:4848  28 */\n  0x1c\n    /* \"RouletteGame.sol\":4648:4902  uint8[18] public OPTION_BLACK_SET = [... */\n  0x01a0\n  dup3\n  add\n  mstore\n    /* \"RouletteGame.sol\":4858:4860  29 */\n  0x1d\n    /* \"RouletteGame.sol\":4648:4902  uint8[18] public OPTION_BLACK_SET = [... */\n  0x01c0\n  dup3\n  add\n  mstore\n    /* \"RouletteGame.sol\":4870:4872  31 */\n  0x1f\n    /* \"RouletteGame.sol\":4648:4902  uint8[18] public OPTION_BLACK_SET = [... */\n  0x01e0\n  dup3\n  add\n  mstore\n    /* \"RouletteGame.sol\":4882:4884  33 */\n  0x21\n    /* \"RouletteGame.sol\":4648:4902  uint8[18] public OPTION_BLACK_SET = [... */\n  0x0200\n  dup3\n  add\n  mstore\n    /* \"RouletteGame.sol\":4894:4896  35 */\n  0x23\n    /* \"RouletteGame.sol\":4648:4902  uint8[18] public OPTION_BLACK_SET = [... */\n  0x0220\n  dup3\n  add\n  mstore\n  tag_5\n  swap1\n  0x03\n  swap1\n  0x12\n  tag_2\n  jump\t// in\ntag_5:\n  pop\n    /* \"RouletteGame.sol\":5292:5545  uint8[18] public OPTION_EVEN_SET = [... */\n  0x40\n  dup1\n  mload\n  0x0240\n  dup2\n  add\n  dup3\n  mstore\n    /* \"RouletteGame.sol\":5337:5338  2 */\n  0x02\n    /* \"RouletteGame.sol\":5292:5545  uint8[18] public OPTION_EVEN_SET = [... */\n  dup2\n  mstore\n    /* \"RouletteGame.sol\":5348:5349  4 */\n  0x04\n    /* \"RouletteGame.sol\":5292:5545  uint8[18] public OPTION_EVEN_SET = [... */\n  0x20\n  dup1\n  dup4\n  add\n  dup3\n  swap1\n  mstore\n    /* \"RouletteGame.sol\":5359:5360  6 */\n  0x06\n    /* \"RouletteGame.sol\":5292:5545  uint8[18] public OPTION_EVEN_SET = [... */\n  swap4\n  dup4\n  add\n  swap4\n  swap1\n  swap4\n  mstore\n    /* \"RouletteGame.sol\":5370:5371  8 */\n  0x08\n    /* \"RouletteGame.sol\":5292:5545  uint8[18] public OPTION_EVEN_SET = [... */\n  0x60\n  dup4\n  add\n  mstore\n    /* \"RouletteGame.sol\":5381:5383  10 */\n  0x0a\n    /* \"RouletteGame.sol\":5292:5545  uint8[18] public OPTION_EVEN_SET = [... */\n  0x80\n  dup4\n  add\n  mstore\n    /* \"RouletteGame.sol\":5393:5395  12 */\n  0x0c\n    /* \"RouletteGame.sol\":5292:5545  uint8[18] public OPTION_EVEN_SET = [... */\n  0xa0\n  dup4\n  add\n  mstore\n    /* \"RouletteGame.sol\":5405:5407  14 */\n  0x0e\n    /* \"RouletteGame.sol\":5292:5545  uint8[18] public OPTION_EVEN_SET = [... */\n  0xc0\n  dup4\n  add\n  mstore\n    /* \"RouletteGame.sol\":5417:5419  16 */\n  0x10\n    /* \"RouletteGame.sol\":5292:5545  uint8[18] public OPTION_EVEN_SET = [... */\n  0xe0\n  dup4\n  add\n  mstore\n    /* \"RouletteGame.sol\":5429:5431  18 */\n  0x12\n    /* \"RouletteGame.sol\":5292:5545  uint8[18] public OPTION_EVEN_SET = [... */\n  0x0100\n  dup4\n  add\n  dup2\n  swap1\n  mstore\n    /* \"RouletteGame.sol\":5441:5443  20 */\n  0x14\n    /* \"RouletteGame.sol\":5292:5545  uint8[18] public OPTION_EVEN_SET = [... */\n  0x0120\n  dup5\n  add\n  mstore\n    /* \"RouletteGame.sol\":5453:5455  22 */\n  0x16\n    /* \"RouletteGame.sol\":5292:5545  uint8[18] public OPTION_EVEN_SET = [... */\n  0x0140\n  dup5\n  add\n  mstore\n    /* \"RouletteGame.sol\":5465:5467  24 */\n  0x18\n    /* \"RouletteGame.sol\":5292:5545  uint8[18] public OPTION_EVEN_SET = [... */\n  0x0160\n  dup5\n  add\n  mstore\n    /* \"RouletteGame.sol\":5477:5479  26 */\n  0x1a\n    /* \"RouletteGame.sol\":5292:5545  uint8[18] public OPTION_EVEN_SET = [... */\n  0x0180\n  dup5\n  add\n  mstore\n    /* \"RouletteGame.sol\":5489:5491  28 */\n  0x1c\n    /* \"RouletteGame.sol\":5292:5545  uint8[18] public OPTION_EVEN_SET = [... */\n  0x01a0\n  dup5\n  add\n  mstore\n    /* \"RouletteGame.sol\":5501:5503  30 */\n  0x1e\n    /* \"RouletteGame.sol\":5292:5545  uint8[18] public OPTION_EVEN_SET = [... */\n  0x01c0\n  dup5\n  add\n  mstore\n  0x01e0\n  dup4\n  add\n  swap4\n  swap1\n  swap4\n  mstore\n    /* \"RouletteGame.sol\":5525:5527  34 */\n  0x22\n    /* \"RouletteGame.sol\":5292:5545  uint8[18] public OPTION_EVEN_SET = [... */\n  0x0200\n  dup4\n  add\n  mstore\n    /* \"RouletteGame.sol\":5537:5539  36 */\n  0x24\n    /* \"RouletteGame.sol\":5292:5545  uint8[18] public OPTION_EVEN_SET = [... */\n  0x0220\n  dup4\n  add\n  mstore\n  tag_6\n  swap3\n    /* \"RouletteGame.sol\":5348:5349  4 */\n  swap1\n  swap2\n    /* \"RouletteGame.sol\":5292:5545  uint8[18] public OPTION_EVEN_SET = [... */\n  swap1\n  tag_2\n  jump\t// in\ntag_6:\n  pop\n    /* \"RouletteGame.sol\":5912:6163  uint8[18] public OPTION_ODD_SET = [... */\n  0x40\n  dup1\n  mload\n  0x0240\n  dup2\n  add\n  dup3\n  mstore\n    /* \"RouletteGame.sol\":5956:5957  1 */\n  0x01\n    /* \"RouletteGame.sol\":5912:6163  uint8[18] public OPTION_ODD_SET = [... */\n  dup2\n  mstore\n    /* \"RouletteGame.sol\":5967:5968  3 */\n  0x03\n    /* \"RouletteGame.sol\":5912:6163  uint8[18] public OPTION_ODD_SET = [... */\n  0x20\n  dup3\n  add\n  mstore\n    /* \"RouletteGame.sol\":5978:5979  5 */\n  0x05\n    /* \"RouletteGame.sol\":5912:6163  uint8[18] public OPTION_ODD_SET = [... */\n  swap2\n  dup2\n  add\n  dup3\n  swap1\n  mstore\n    /* \"RouletteGame.sol\":5989:5990  7 */\n  0x07\n    /* \"RouletteGame.sol\":5912:6163  uint8[18] public OPTION_ODD_SET = [... */\n  0x60\n  dup3\n  add\n  mstore\n    /* \"RouletteGame.sol\":6000:6001  9 */\n  0x09\n    /* \"RouletteGame.sol\":5912:6163  uint8[18] public OPTION_ODD_SET = [... */\n  0x80\n  dup3\n  add\n  mstore\n    /* \"RouletteGame.sol\":6011:6013  11 */\n  0x0b\n    /* \"RouletteGame.sol\":5912:6163  uint8[18] public OPTION_ODD_SET = [... */\n  0xa0\n  dup3\n  add\n  mstore\n    /* \"RouletteGame.sol\":6023:6025  13 */\n  0x0d\n    /* \"RouletteGame.sol\":5912:6163  uint8[18] public OPTION_ODD_SET = [... */\n  0xc0\n  dup3\n  add\n  mstore\n    /* \"RouletteGame.sol\":6035:6037  15 */\n  0x0f\n    /* \"RouletteGame.sol\":5912:6163  uint8[18] public OPTION_ODD_SET = [... */\n  0xe0\n  dup3\n  add\n  mstore\n    /* \"RouletteGame.sol\":6047:6049  17 */\n  0x11\n    /* \"RouletteGame.sol\":5912:6163  uint8[18] public OPTION_ODD_SET = [... */\n  0x0100\n  dup3\n  add\n  mstore\n    /* \"RouletteGame.sol\":6059:6061  19 */\n  0x13\n    /* \"RouletteGame.sol\":5912:6163  uint8[18] public OPTION_ODD_SET = [... */\n  0x0120\n  dup3\n  add\n  mstore\n    /* \"RouletteGame.sol\":6071:6073  21 */\n  0x15\n    /* \"RouletteGame.sol\":5912:6163  uint8[18] public OPTION_ODD_SET = [... */\n  0x0140\n  dup3\n  add\n  mstore\n    /* \"RouletteGame.sol\":6083:6085  23 */\n  0x17\n    /* \"RouletteGame.sol\":5912:6163  uint8[18] public OPTION_ODD_SET = [... */\n  0x0160\n  dup3\n  add\n  mstore\n    /* \"RouletteGame.sol\":6095:6097  25 */\n  0x19\n    /* \"RouletteGame.sol\":5912:6163  uint8[18] public OPTION_ODD_SET = [... */\n  0x0180\n  dup3\n  add\n  mstore\n    /* \"RouletteGame.sol\":6107:6109  27 */\n  0x1b\n    /* \"RouletteGame.sol\":5912:6163  uint8[18] public OPTION_ODD_SET = [... */\n  0x01a0\n  dup3\n  add\n  mstore\n    /* \"RouletteGame.sol\":6119:6121  29 */\n  0x1d\n    /* \"RouletteGame.sol\":5912:6163  uint8[18] public OPTION_ODD_SET = [... */\n  0x01c0\n  dup3\n  add\n  mstore\n    /* \"RouletteGame.sol\":6131:6133  31 */\n  0x1f\n    /* \"RouletteGame.sol\":5912:6163  uint8[18] public OPTION_ODD_SET = [... */\n  0x01e0\n  dup3\n  add\n  mstore\n    /* \"RouletteGame.sol\":6143:6145  33 */\n  0x21\n    /* \"RouletteGame.sol\":5912:6163  uint8[18] public OPTION_ODD_SET = [... */\n  0x0200\n  dup3\n  add\n  mstore\n    /* \"RouletteGame.sol\":6155:6157  35 */\n  0x23\n    /* \"RouletteGame.sol\":5912:6163  uint8[18] public OPTION_ODD_SET = [... */\n  0x0220\n  dup3\n  add\n  mstore\n  tag_7\n  swap2\n    /* \"RouletteGame.sol\":5978:5979  5 */\n  swap1\n    /* \"RouletteGame.sol\":5912:6163  uint8[18] public OPTION_ODD_SET = [... */\n  0x12\n  tag_2\n  jump\t// in\ntag_7:\n  pop\n    /* \"RouletteGame.sol\":6551:6741  uint8[12] public OPTION_FIRST_COLUMN_SET = [... */\n  0x40\n  dup1\n  mload\n  0x0180\n  dup2\n  add\n  dup3\n  mstore\n    /* \"RouletteGame.sol\":6604:6605  1 */\n  0x01\n    /* \"RouletteGame.sol\":6551:6741  uint8[12] public OPTION_FIRST_COLUMN_SET = [... */\n  dup2\n  mstore\n    /* \"RouletteGame.sol\":6615:6616  4 */\n  0x04\n    /* \"RouletteGame.sol\":6551:6741  uint8[12] public OPTION_FIRST_COLUMN_SET = [... */\n  0x20\n  dup3\n  add\n  mstore\n    /* \"RouletteGame.sol\":6626:6627  7 */\n  0x07\n    /* \"RouletteGame.sol\":6551:6741  uint8[12] public OPTION_FIRST_COLUMN_SET = [... */\n  swap2\n  dup2\n  add\n  swap2\n  swap1\n  swap2\n  mstore\n    /* \"RouletteGame.sol\":6637:6639  10 */\n  0x0a\n    /* \"RouletteGame.sol\":6551:6741  uint8[12] public OPTION_FIRST_COLUMN_SET = [... */\n  0x60\n  dup3\n  add\n  mstore\n    /* \"RouletteGame.sol\":6649:6651  13 */\n  0x0d\n    /* \"RouletteGame.sol\":6551:6741  uint8[12] public OPTION_FIRST_COLUMN_SET = [... */\n  0x80\n  dup3\n  add\n  mstore\n    /* \"RouletteGame.sol\":6661:6663  16 */\n  0x10\n    /* \"RouletteGame.sol\":6551:6741  uint8[12] public OPTION_FIRST_COLUMN_SET = [... */\n  0xa0\n  dup3\n  add\n  mstore\n    /* \"RouletteGame.sol\":6673:6675  19 */\n  0x13\n    /* \"RouletteGame.sol\":6551:6741  uint8[12] public OPTION_FIRST_COLUMN_SET = [... */\n  0xc0\n  dup3\n  add\n  mstore\n    /* \"RouletteGame.sol\":6685:6687  22 */\n  0x16\n    /* \"RouletteGame.sol\":6551:6741  uint8[12] public OPTION_FIRST_COLUMN_SET = [... */\n  0xe0\n  dup3\n  add\n  mstore\n    /* \"RouletteGame.sol\":6697:6699  25 */\n  0x19\n    /* \"RouletteGame.sol\":6551:6741  uint8[12] public OPTION_FIRST_COLUMN_SET = [... */\n  0x0100\n  dup3\n  add\n  mstore\n    /* \"RouletteGame.sol\":6709:6711  28 */\n  0x1c\n    /* \"RouletteGame.sol\":6551:6741  uint8[12] public OPTION_FIRST_COLUMN_SET = [... */\n  0x0120\n  dup3\n  add\n  mstore\n    /* \"RouletteGame.sol\":6721:6723  31 */\n  0x1f\n    /* \"RouletteGame.sol\":6551:6741  uint8[12] public OPTION_FIRST_COLUMN_SET = [... */\n  0x0140\n  dup3\n  add\n  mstore\n    /* \"RouletteGame.sol\":6733:6735  34 */\n  0x22\n    /* \"RouletteGame.sol\":6551:6741  uint8[12] public OPTION_FIRST_COLUMN_SET = [... */\n  0x0160\n  dup3\n  add\n  mstore\n  tag_8\n  swap1\n  0x06\n  swap1\n  0x0c\n  tag_2\n  jump\t// in\ntag_8:\n  pop\n    /* \"RouletteGame.sol\":7141:7332  uint8[12] public OPTION_SECOND_COLUMN_SET = [... */\n  0x40\n  dup1\n  mload\n  0x0180\n  dup2\n  add\n  dup3\n  mstore\n    /* \"RouletteGame.sol\":7195:7196  2 */\n  0x02\n    /* \"RouletteGame.sol\":7141:7332  uint8[12] public OPTION_SECOND_COLUMN_SET = [... */\n  dup2\n  mstore\n    /* \"RouletteGame.sol\":7206:7207  5 */\n  0x05\n    /* \"RouletteGame.sol\":7141:7332  uint8[12] public OPTION_SECOND_COLUMN_SET = [... */\n  0x20\n  dup1\n  dup4\n  add\n  swap2\n  swap1\n  swap2\n  mstore\n    /* \"RouletteGame.sol\":7217:7218  8 */\n  0x08\n    /* \"RouletteGame.sol\":7141:7332  uint8[12] public OPTION_SECOND_COLUMN_SET = [... */\n  swap3\n  dup3\n  add\n  swap3\n  swap1\n  swap3\n  mstore\n    /* \"RouletteGame.sol\":7228:7230  11 */\n  0x0b\n    /* \"RouletteGame.sol\":7141:7332  uint8[12] public OPTION_SECOND_COLUMN_SET = [... */\n  0x60\n  dup3\n  add\n  mstore\n    /* \"RouletteGame.sol\":7240:7242  14 */\n  0x0e\n    /* \"RouletteGame.sol\":7141:7332  uint8[12] public OPTION_SECOND_COLUMN_SET = [... */\n  0x80\n  dup3\n  add\n  mstore\n    /* \"RouletteGame.sol\":7252:7254  17 */\n  0x11\n    /* \"RouletteGame.sol\":7141:7332  uint8[12] public OPTION_SECOND_COLUMN_SET = [... */\n  0xa0\n  dup3\n  add\n  mstore\n    /* \"RouletteGame.sol\":7264:7266  20 */\n  0x14\n    /* \"RouletteGame.sol\":7141:7332  uint8[12] public OPTION_SECOND_COLUMN_SET = [... */\n  0xc0\n  dup3\n  add\n  mstore\n    /* \"RouletteGame.sol\":7276:7278  23 */\n  0x17\n    /* \"RouletteGame.sol\":7141:7332  uint8[12] public OPTION_SECOND_COLUMN_SET = [... */\n  0xe0\n  dup3\n  add\n  mstore\n    /* \"RouletteGame.sol\":7288:7290  26 */\n  0x1a\n    /* \"RouletteGame.sol\":7141:7332  uint8[12] public OPTION_SECOND_COLUMN_SET = [... */\n  0x0100\n  dup3\n  add\n  mstore\n    /* \"RouletteGame.sol\":7300:7302  29 */\n  0x1d\n    /* \"RouletteGame.sol\":7141:7332  uint8[12] public OPTION_SECOND_COLUMN_SET = [... */\n  0x0120\n  dup3\n  add\n  mstore\n  0x0140\n  dup2\n  add\n  swap2\n  swap1\n  swap2\n  mstore\n    /* \"RouletteGame.sol\":7324:7326  35 */\n  0x23\n    /* \"RouletteGame.sol\":7141:7332  uint8[12] public OPTION_SECOND_COLUMN_SET = [... */\n  0x0160\n  dup3\n  add\n  mstore\n  tag_10\n  swap1\n  0x07\n  swap1\n  0x0c\n  tag_2\n  jump\t// in\ntag_10:\n  pop\n    /* \"RouletteGame.sol\":7734:7924  uint8[12] public OPTION_THIRD_COLUMN_SET = [... */\n  0x40\n  dup1\n  mload\n  0x0180\n  dup2\n  add\n  dup3\n  mstore\n    /* \"RouletteGame.sol\":7787:7788  3 */\n  0x03\n    /* \"RouletteGame.sol\":7734:7924  uint8[12] public OPTION_THIRD_COLUMN_SET = [... */\n  dup2\n  mstore\n    /* \"RouletteGame.sol\":7798:7799  6 */\n  0x06\n    /* \"RouletteGame.sol\":7734:7924  uint8[12] public OPTION_THIRD_COLUMN_SET = [... */\n  0x20\n  dup3\n  add\n  mstore\n    /* \"RouletteGame.sol\":7809:7810  9 */\n  0x09\n    /* \"RouletteGame.sol\":7734:7924  uint8[12] public OPTION_THIRD_COLUMN_SET = [... */\n  swap2\n  dup2\n  add\n  swap2\n  swap1\n  swap2\n  mstore\n    /* \"RouletteGame.sol\":7820:7822  12 */\n  0x0c\n    /* \"RouletteGame.sol\":7734:7924  uint8[12] public OPTION_THIRD_COLUMN_SET = [... */\n  0x60\n  dup3\n  add\n  dup2\n  swap1\n  mstore\n    /* \"RouletteGame.sol\":7832:7834  15 */\n  0x0f\n    /* \"RouletteGame.sol\":7734:7924  uint8[12] public OPTION_THIRD_COLUMN_SET = [... */\n  0x80\n  dup4\n  add\n  mstore\n    /* \"RouletteGame.sol\":7844:7846  18 */\n  0x12\n    /* \"RouletteGame.sol\":7734:7924  uint8[12] public OPTION_THIRD_COLUMN_SET = [... */\n  0xa0\n  dup4\n  add\n  mstore\n    /* \"RouletteGame.sol\":7856:7858  21 */\n  0x15\n    /* \"RouletteGame.sol\":7734:7924  uint8[12] public OPTION_THIRD_COLUMN_SET = [... */\n  0xc0\n  dup4\n  add\n  mstore\n    /* \"RouletteGame.sol\":7868:7870  24 */\n  0x18\n    /* \"RouletteGame.sol\":7734:7924  uint8[12] public OPTION_THIRD_COLUMN_SET = [... */\n  0xe0\n  dup4\n  add\n  mstore\n    /* \"RouletteGame.sol\":7880:7882  27 */\n  0x1b\n    /* \"RouletteGame.sol\":7734:7924  uint8[12] public OPTION_THIRD_COLUMN_SET = [... */\n  0x0100\n  dup4\n  add\n  mstore\n    /* \"RouletteGame.sol\":7892:7894  30 */\n  0x1e\n    /* \"RouletteGame.sol\":7734:7924  uint8[12] public OPTION_THIRD_COLUMN_SET = [... */\n  0x0120\n  dup4\n  add\n  mstore\n    /* \"RouletteGame.sol\":7904:7906  33 */\n  0x21\n    /* \"RouletteGame.sol\":7734:7924  uint8[12] public OPTION_THIRD_COLUMN_SET = [... */\n  0x0140\n  dup4\n  add\n  mstore\n    /* \"RouletteGame.sol\":7916:7918  36 */\n  0x24\n    /* \"RouletteGame.sol\":7734:7924  uint8[12] public OPTION_THIRD_COLUMN_SET = [... */\n  0x0160\n  dup4\n  add\n  mstore\n  tag_11\n  swap2\n  0x08\n  swap2\n  tag_2\n  jump\t// in\ntag_11:\n  pop\n    /* \"RouletteGame.sol\":8335:8518  uint8[12] public OPTION_FIRST_DOZEN_SET = [... */\n  0x40\n  dup1\n  mload\n  0x0180\n  dup2\n  add\n  dup3\n  mstore\n    /* \"RouletteGame.sol\":8387:8388  1 */\n  0x01\n    /* \"RouletteGame.sol\":8335:8518  uint8[12] public OPTION_FIRST_DOZEN_SET = [... */\n  dup2\n  mstore\n    /* \"RouletteGame.sol\":8398:8399  2 */\n  0x02\n    /* \"RouletteGame.sol\":8335:8518  uint8[12] public OPTION_FIRST_DOZEN_SET = [... */\n  0x20\n  dup3\n  add\n  mstore\n    /* \"RouletteGame.sol\":8409:8410  3 */\n  0x03\n    /* \"RouletteGame.sol\":8335:8518  uint8[12] public OPTION_FIRST_DOZEN_SET = [... */\n  swap2\n  dup2\n  add\n  swap2\n  swap1\n  swap2\n  mstore\n    /* \"RouletteGame.sol\":8420:8421  4 */\n  0x04\n    /* \"RouletteGame.sol\":8335:8518  uint8[12] public OPTION_FIRST_DOZEN_SET = [... */\n  0x60\n  dup3\n  add\n  mstore\n    /* \"RouletteGame.sol\":8431:8432  5 */\n  0x05\n    /* \"RouletteGame.sol\":8335:8518  uint8[12] public OPTION_FIRST_DOZEN_SET = [... */\n  0x80\n  dup3\n  add\n  mstore\n    /* \"RouletteGame.sol\":8442:8443  6 */\n  0x06\n    /* \"RouletteGame.sol\":8335:8518  uint8[12] public OPTION_FIRST_DOZEN_SET = [... */\n  0xa0\n  dup3\n  add\n  mstore\n    /* \"RouletteGame.sol\":8453:8454  7 */\n  0x07\n    /* \"RouletteGame.sol\":8335:8518  uint8[12] public OPTION_FIRST_DOZEN_SET = [... */\n  0xc0\n  dup3\n  add\n  mstore\n    /* \"RouletteGame.sol\":8464:8465  8 */\n  0x08\n    /* \"RouletteGame.sol\":8335:8518  uint8[12] public OPTION_FIRST_DOZEN_SET = [... */\n  0xe0\n  dup3\n  add\n  mstore\n    /* \"RouletteGame.sol\":8475:8476  9 */\n  0x09\n    /* \"RouletteGame.sol\":8335:8518  uint8[12] public OPTION_FIRST_DOZEN_SET = [... */\n  0x0100\n  dup3\n  add\n  dup2\n  swap1\n  mstore\n    /* \"RouletteGame.sol\":8486:8488  10 */\n  0x0a\n    /* \"RouletteGame.sol\":8335:8518  uint8[12] public OPTION_FIRST_DOZEN_SET = [... */\n  0x0120\n  dup4\n  add\n  mstore\n    /* \"RouletteGame.sol\":8498:8500  11 */\n  0x0b\n    /* \"RouletteGame.sol\":8335:8518  uint8[12] public OPTION_FIRST_DOZEN_SET = [... */\n  0x0140\n  dup4\n  add\n  mstore\n    /* \"RouletteGame.sol\":8510:8512  12 */\n  0x0c\n    /* \"RouletteGame.sol\":8335:8518  uint8[12] public OPTION_FIRST_DOZEN_SET = [... */\n  0x0160\n  dup4\n  add\n  dup2\n  swap1\n  mstore\n  tag_12\n  swap3\n  swap1\n  tag_2\n  jump\t// in\ntag_12:\n  pop\n    /* \"RouletteGame.sol\":8914:9107  uint8[12] public OPTION_SECOND_DOZEN_SET = [... */\n  0x40\n  dup1\n  mload\n  0x0180\n  dup2\n  add\n  dup3\n  mstore\n    /* \"RouletteGame.sol\":8967:8969  13 */\n  0x0d\n    /* \"RouletteGame.sol\":8914:9107  uint8[12] public OPTION_SECOND_DOZEN_SET = [... */\n  dup2\n  mstore\n    /* \"RouletteGame.sol\":8979:8981  14 */\n  0x0e\n    /* \"RouletteGame.sol\":8914:9107  uint8[12] public OPTION_SECOND_DOZEN_SET = [... */\n  0x20\n  dup3\n  add\n  mstore\n    /* \"RouletteGame.sol\":8991:8993  15 */\n  0x0f\n    /* \"RouletteGame.sol\":8914:9107  uint8[12] public OPTION_SECOND_DOZEN_SET = [... */\n  swap2\n  dup2\n  add\n  swap2\n  swap1\n  swap2\n  mstore\n    /* \"RouletteGame.sol\":9003:9005  16 */\n  0x10\n    /* \"RouletteGame.sol\":8914:9107  uint8[12] public OPTION_SECOND_DOZEN_SET = [... */\n  0x60\n  dup3\n  add\n  mstore\n    /* \"RouletteGame.sol\":9015:9017  17 */\n  0x11\n    /* \"RouletteGame.sol\":8914:9107  uint8[12] public OPTION_SECOND_DOZEN_SET = [... */\n  0x80\n  dup3\n  add\n  mstore\n    /* \"RouletteGame.sol\":9027:9029  18 */\n  0x12\n    /* \"RouletteGame.sol\":8914:9107  uint8[12] public OPTION_SECOND_DOZEN_SET = [... */\n  0xa0\n  dup3\n  add\n  mstore\n    /* \"RouletteGame.sol\":9039:9041  19 */\n  0x13\n    /* \"RouletteGame.sol\":8914:9107  uint8[12] public OPTION_SECOND_DOZEN_SET = [... */\n  0xc0\n  dup3\n  add\n  mstore\n    /* \"RouletteGame.sol\":9051:9053  20 */\n  0x14\n    /* \"RouletteGame.sol\":8914:9107  uint8[12] public OPTION_SECOND_DOZEN_SET = [... */\n  0xe0\n  dup3\n  add\n  mstore\n    /* \"RouletteGame.sol\":9063:9065  21 */\n  0x15\n    /* \"RouletteGame.sol\":8914:9107  uint8[12] public OPTION_SECOND_DOZEN_SET = [... */\n  0x0100\n  dup3\n  add\n  mstore\n    /* \"RouletteGame.sol\":9075:9077  22 */\n  0x16\n    /* \"RouletteGame.sol\":8914:9107  uint8[12] public OPTION_SECOND_DOZEN_SET = [... */\n  0x0120\n  dup3\n  add\n  mstore\n    /* \"RouletteGame.sol\":9087:9089  23 */\n  0x17\n    /* \"RouletteGame.sol\":8914:9107  uint8[12] public OPTION_SECOND_DOZEN_SET = [... */\n  0x0140\n  dup3\n  add\n  mstore\n    /* \"RouletteGame.sol\":9099:9101  24 */\n  0x18\n    /* \"RouletteGame.sol\":8914:9107  uint8[12] public OPTION_SECOND_DOZEN_SET = [... */\n  0x0160\n  dup3\n  add\n  mstore\n  tag_13\n  swap1\n  0x0a\n  swap1\n  0x0c\n  tag_2\n  jump\t// in\ntag_13:\n  pop\n    /* \"RouletteGame.sol\":9505:9697  uint8[12] public OPTION_THIRD_DOZEN_SET = [... */\n  0x40\n  dup1\n  mload\n  0x0180\n  dup2\n  add\n  dup3\n  mstore\n    /* \"RouletteGame.sol\":9557:9559  25 */\n  0x19\n    /* \"RouletteGame.sol\":9505:9697  uint8[12] public OPTION_THIRD_DOZEN_SET = [... */\n  dup2\n  mstore\n    /* \"RouletteGame.sol\":9569:9571  26 */\n  0x1a\n    /* \"RouletteGame.sol\":9505:9697  uint8[12] public OPTION_THIRD_DOZEN_SET = [... */\n  0x20\n  dup1\n  dup4\n  add\n  swap2\n  swap1\n  swap2\n  mstore\n    /* \"RouletteGame.sol\":9581:9583  27 */\n  0x1b\n    /* \"RouletteGame.sol\":9505:9697  uint8[12] public OPTION_THIRD_DOZEN_SET = [... */\n  swap3\n  dup3\n  add\n  swap3\n  swap1\n  swap3\n  mstore\n    /* \"RouletteGame.sol\":9593:9595  28 */\n  0x1c\n    /* \"RouletteGame.sol\":9505:9697  uint8[12] public OPTION_THIRD_DOZEN_SET = [... */\n  0x60\n  dup3\n  add\n  mstore\n    /* \"RouletteGame.sol\":9605:9607  29 */\n  0x1d\n    /* \"RouletteGame.sol\":9505:9697  uint8[12] public OPTION_THIRD_DOZEN_SET = [... */\n  0x80\n  dup3\n  add\n  mstore\n    /* \"RouletteGame.sol\":9617:9619  30 */\n  0x1e\n    /* \"RouletteGame.sol\":9505:9697  uint8[12] public OPTION_THIRD_DOZEN_SET = [... */\n  0xa0\n  dup3\n  add\n  mstore\n    /* \"RouletteGame.sol\":9629:9631  31 */\n  0x1f\n    /* \"RouletteGame.sol\":9505:9697  uint8[12] public OPTION_THIRD_DOZEN_SET = [... */\n  0xc0\n  dup3\n  add\n  mstore\n  0xe0\n  dup2\n  add\n  swap2\n  swap1\n  swap2\n  mstore\n    /* \"RouletteGame.sol\":9653:9655  33 */\n  0x21\n    /* \"RouletteGame.sol\":9505:9697  uint8[12] public OPTION_THIRD_DOZEN_SET = [... */\n  0x0100\n  dup3\n  add\n  mstore\n    /* \"RouletteGame.sol\":9665:9667  34 */\n  0x22\n    /* \"RouletteGame.sol\":9505:9697  uint8[12] public OPTION_THIRD_DOZEN_SET = [... */\n  0x0120\n  dup3\n  add\n  mstore\n    /* \"RouletteGame.sol\":9677:9679  35 */\n  0x23\n    /* \"RouletteGame.sol\":9505:9697  uint8[12] public OPTION_THIRD_DOZEN_SET = [... */\n  0x0140\n  dup3\n  add\n  mstore\n    /* \"RouletteGame.sol\":9689:9691  36 */\n  0x24\n    /* \"RouletteGame.sol\":9505:9697  uint8[12] public OPTION_THIRD_DOZEN_SET = [... */\n  0x0160\n  dup3\n  add\n  mstore\n  tag_14\n  swap1\n  0x0b\n  swap1\n  0x0c\n  tag_2\n  jump\t// in\ntag_14:\n  pop\n    /* \"RouletteGame.sol\":13334:13725  constructor(... */\n  callvalue\n  dup1\n  iszero\n  tag_15\n  jumpi\n  0x00\n  dup1\n  revert\ntag_15:\n  pop\n  mload(0x40)\n  sub(codesize, bytecodeSize)\n  dup1\n  bytecodeSize\n  dup4\n  codecopy\n  dup2\n  add\n  0x40\n  dup2\n  swap1\n  mstore\n  tag_16\n  swap2\n  tag_17\n  jump\t// in\ntag_16:\n    /* \"RouletteGame.sol\":13480:13484  host */\n  0x0c\n    /* \"RouletteGame.sol\":13480:13492  host = _host */\n  dup1\n  sload\n  not(sub(shl(0xa0, 0x01), 0x01))\n  and\n  sub(shl(0xa0, 0x01), 0x01)\n  dup7\n  and\n  or\n  swap1\n  sstore\n    /* \"RouletteGame.sol\":13502:13508  minBet */\n  0x0d\n    /* \"RouletteGame.sol\":13502:13518  minBet = _minBet */\n  dup4\n  swap1\n  sstore\n    /* \"RouletteGame.sol\":13528:13534  status */\n  0x0e\n    /* \"RouletteGame.sol\":13528:13564  status = STATUS_PENDING_HOST_DEPOSIT */\n  dup1\n  sload\n  not(0xff)\n  and\n  swap1\n  sstore\n    /* \"RouletteGame.sol\":13574:13598  validators = _validators */\n  dup2\n  mload\n  tag_20\n  swap1\n    /* \"RouletteGame.sol\":13574:13584  validators */\n  0x12\n  swap1\n    /* \"RouletteGame.sol\":13574:13598  validators = _validators */\n  0x20\n  dup6\n  add\n  swap1\n  tag_21\n  jump\t// in\ntag_20:\n  pop\n    /* \"RouletteGame.sol\":13608:13626  validate_threshold */\n  0x11\n    /* \"RouletteGame.sol\":13608:13645  validate_threshold = _valid_threshold */\n  dup1\n  sload\n  not(0xff00)\n  and\n  0x0100\n  0xff\n  dup5\n  and\n  mul\n  or\n  swap1\n  sstore\n    /* \"RouletteGame.sol\":13660:13718  GameCreated(_host, _minBet, _validators, _valid_threshold) */\n  mload(0x40)\n  sub(shl(0xa0, 0x01), 0x01)\n  dup6\n  and\n  swap1\n  0x7bc06ad6af97e4997115d8b8ec4270105092a2dc99a8ba73a35de86c49ab8d9b\n  swap1\n  tag_22\n  swap1\n    /* \"RouletteGame.sol\":13679:13686  _minBet */\n  dup7\n  swap1\n    /* \"RouletteGame.sol\":13688:13699  _validators */\n  dup7\n  swap1\n    /* \"RouletteGame.sol\":13608:13645  validate_threshold = _valid_threshold */\n  dup7\n  swap1\n    /* \"RouletteGame.sol\":13660:13718  GameCreated(_host, _minBet, _validators, _valid_threshold) */\n  tag_23\n  jump\t// in\ntag_22:\n  mload(0x40)\n  dup1\n  swap2\n  sub\n  swap1\n  log2\n    /* \"RouletteGame.sol\":13334:13725  constructor(... */\n  pop\n  pop\n  pop\n  pop\n    /* \"RouletteGame.sol\":65:35471  contract RouletteGame {... */\n  jump(tag_45)\ntag_2:\n  0x01\n  dup4\n  add\n  swap2\n  dup4\n  swap1\n  dup3\n  iszero\n  tag_25\n  jumpi\n  swap2\n  0x20\n  mul\n  dup3\n  add\n  0x00\ntag_26:\n  dup4\n  dup3\n  gt\n  iszero\n  tag_27\n  jumpi\n  dup4\n  mload\n  dup4\n  dup3\n  0x0100\n  exp\n  dup2\n  sload\n  dup2\n  0xff\n  mul\n  not\n  and\n  swap1\n  dup4\n  0xff\n  and\n  mul\n  or\n  swap1\n  sstore\n  pop\n  swap3\n  0x20\n  add\n  swap3\n  0x01\n  add\n  0x20\n  dup2\n  0x00\n  add\n  div\n  swap3\n  dup4\n  add\n  swap3\n  0x01\n  sub\n  mul\n  jump(tag_26)\ntag_27:\n  dup1\n  iszero\n  tag_28\n  jumpi\n  dup3\n  dup2\n  0x0100\n  exp\n  dup2\n  sload\n  swap1\n  0xff\n  mul\n  not\n  and\n  swap1\n  sstore\n  0x01\n  add\n  0x20\n  dup2\n  0x00\n  add\n  div\n  swap3\n  dup4\n  add\n  swap3\n  0x01\n  sub\n  mul\n  jump(tag_27)\ntag_28:\n  pop\ntag_25:\n  pop\n  tag_29\n  swap3\n  swap2\n  pop\n  tag_30\n  jump\t// in\ntag_29:\n  pop\n  swap1\n  jump\t// out\ntag_21:\n  dup3\n  dup1\n  sload\n  dup3\n  dup3\n  sstore\n  swap1\n  0x00\n  mstore\n  keccak256(0x00, 0x20)\n  swap1\n  dup2\n  add\n  swap3\n  dup3\n  iszero\n  tag_25\n  jumpi\n  swap2\n  0x20\n  mul\n  dup3\n  add\ntag_37:\n  dup3\n  dup2\n  gt\n  iszero\n  tag_25\n  jumpi\n  dup3\n  mload\n  dup3\n  sload\n  not(sub(shl(0xa0, 0x01), 0x01))\n  and\n  sub(shl(0xa0, 0x01), 0x01)\n  swap1\n  swap2\n  and\n  or\n  dup3\n  sstore\n  0x20\n  swap1\n  swap3\n  add\n  swap2\n  0x01\n  swap1\n  swap2\n  add\n  swap1\n  jump(tag_37)\ntag_30:\ntag_40:\n  dup1\n  dup3\n  gt\n  iszero\n  tag_29\n  jumpi\n  0x00\n  dup2\n  sstore\n  0x01\n  add\n  jump(tag_40)\n    /* \"#utility.yul\":14:191   */\ntag_42:\n    /* \"#utility.yul\":93:106   */\n  dup1\n  mload\n  sub(shl(0xa0, 0x01), 0x01)\n    /* \"#utility.yul\":135:166   */\n  dup2\n  and\n    /* \"#utility.yul\":125:167   */\n  dup2\n  eq\n    /* \"#utility.yul\":115:185   */\n  tag_47\n  jumpi\n    /* \"#utility.yul\":181:182   */\n  0x00\n    /* \"#utility.yul\":178:179   */\n  dup1\n    /* \"#utility.yul\":171:183   */\n  revert\n    /* \"#utility.yul\":115:185   */\ntag_47:\n    /* \"#utility.yul\":14:191   */\n  swap2\n  swap1\n  pop\n  jump\t// out\n    /* \"#utility.yul\":196:323   */\ntag_43:\n    /* \"#utility.yul\":257:267   */\n  0x4e487b71\n    /* \"#utility.yul\":252:255   */\n  0xe0\n    /* \"#utility.yul\":248:268   */\n  shl\n    /* \"#utility.yul\":245:246   */\n  0x00\n    /* \"#utility.yul\":238:269   */\n  mstore\n    /* \"#utility.yul\":288:292   */\n  0x41\n    /* \"#utility.yul\":285:286   */\n  0x04\n    /* \"#utility.yul\":278:293   */\n  mstore\n    /* \"#utility.yul\":312:316   */\n  0x24\n    /* \"#utility.yul\":309:310   */\n  0x00\n    /* \"#utility.yul\":302:317   */\n  revert\n    /* \"#utility.yul\":328:488   */\ntag_44:\n    /* \"#utility.yul\":405:418   */\n  dup1\n  mload\n    /* \"#utility.yul\":458:462   */\n  0xff\n    /* \"#utility.yul\":447:463   */\n  dup2\n  and\n    /* \"#utility.yul\":437:464   */\n  dup2\n  eq\n    /* \"#utility.yul\":427:482   */\n  tag_47\n  jumpi\n    /* \"#utility.yul\":478:479   */\n  0x00\n    /* \"#utility.yul\":475:476   */\n  dup1\n    /* \"#utility.yul\":468:480   */\n  revert\n    /* \"#utility.yul\":493:1856   */\ntag_17:\n    /* \"#utility.yul\":613:619   */\n  0x00\n    /* \"#utility.yul\":621:627   */\n  dup1\n    /* \"#utility.yul\":629:635   */\n  0x00\n    /* \"#utility.yul\":637:643   */\n  dup1\n    /* \"#utility.yul\":690:693   */\n  0x80\n    /* \"#utility.yul\":678:687   */\n  dup6\n    /* \"#utility.yul\":669:676   */\n  dup8\n    /* \"#utility.yul\":665:688   */\n  sub\n    /* \"#utility.yul\":661:694   */\n  slt\n    /* \"#utility.yul\":658:711   */\n  iszero\n  tag_52\n  jumpi\n    /* \"#utility.yul\":707:708   */\n  0x00\n    /* \"#utility.yul\":704:705   */\n  dup1\n    /* \"#utility.yul\":697:709   */\n  revert\n    /* \"#utility.yul\":658:711   */\ntag_52:\n    /* \"#utility.yul\":730:770   */\n  tag_53\n    /* \"#utility.yul\":760:769   */\n  dup6\n    /* \"#utility.yul\":730:770   */\n  tag_42\n  jump\t// in\ntag_53:\n    /* \"#utility.yul\":810:812   */\n  0x20\n    /* \"#utility.yul\":795:813   */\n  dup7\n  add\n    /* \"#utility.yul\":789:814   */\n  mload\n    /* \"#utility.yul\":858:860   */\n  0x40\n    /* \"#utility.yul\":843:861   */\n  dup8\n  add\n    /* \"#utility.yul\":837:862   */\n  mload\n    /* \"#utility.yul\":720:770   */\n  swap2\n  swap6\n  pop\n    /* \"#utility.yul\":789:814   */\n  swap4\n  pop\n  sub(shl(0x40, 0x01), 0x01)\n    /* \"#utility.yul\":874:904   */\n  dup2\n  gt\n    /* \"#utility.yul\":871:921   */\n  iszero\n  tag_54\n  jumpi\n    /* \"#utility.yul\":917:918   */\n  0x00\n    /* \"#utility.yul\":914:915   */\n  dup1\n    /* \"#utility.yul\":907:919   */\n  revert\n    /* \"#utility.yul\":871:921   */\ntag_54:\n    /* \"#utility.yul\":940:962   */\n  dup6\n  add\n    /* \"#utility.yul\":993:997   */\n  0x1f\n    /* \"#utility.yul\":985:998   */\n  dup2\n  add\n    /* \"#utility.yul\":981:1008   */\n  dup8\n  sgt\n    /* \"#utility.yul\":971:1026   */\n  tag_55\n  jumpi\n    /* \"#utility.yul\":1022:1023   */\n  0x00\n    /* \"#utility.yul\":1019:1020   */\n  dup1\n    /* \"#utility.yul\":1012:1024   */\n  revert\n    /* \"#utility.yul\":971:1026   */\ntag_55:\n    /* \"#utility.yul\":1049:1058   */\n  dup1\n  mload\n  sub(shl(0x40, 0x01), 0x01)\n    /* \"#utility.yul\":1070:1100   */\n  dup2\n  gt\n    /* \"#utility.yul\":1067:1123   */\n  iszero\n  tag_57\n  jumpi\n    /* \"#utility.yul\":1103:1121   */\n  tag_57\n  tag_43\n  jump\t// in\ntag_57:\n    /* \"#utility.yul\":1185:1187   */\n  0x40\n    /* \"#utility.yul\":1179:1188   */\n  mload\n    /* \"#utility.yul\":1146:1147   */\n  0x05\n    /* \"#utility.yul\":1142:1156   */\n  dup3\n  swap1\n  shl\n  swap1\n    /* \"#utility.yul\":1239:1241   */\n  0x3f\n    /* \"#utility.yul\":1231:1242   */\n  dup3\n  add\n  not(0x1f)\n    /* \"#utility.yul\":1227:1252   */\n  and\n    /* \"#utility.yul\":1215:1253   */\n  dup2\n  add\n  sub(shl(0x40, 0x01), 0x01)\n    /* \"#utility.yul\":1268:1302   */\n  dup2\n  gt\n    /* \"#utility.yul\":1304:1326   */\n  dup3\n  dup3\n  lt\n    /* \"#utility.yul\":1265:1327   */\n  or\n    /* \"#utility.yul\":1262:1350   */\n  iszero\n  tag_59\n  jumpi\n    /* \"#utility.yul\":1330:1348   */\n  tag_59\n  tag_43\n  jump\t// in\ntag_59:\n    /* \"#utility.yul\":1366:1368   */\n  0x40\n    /* \"#utility.yul\":1359:1381   */\n  mstore\n    /* \"#utility.yul\":1416:1438   */\n  swap2\n  dup3\n  mstore\n    /* \"#utility.yul\":1466:1468   */\n  0x20\n    /* \"#utility.yul\":1496:1507   */\n  dup2\n  dup5\n  add\n    /* \"#utility.yul\":1492:1512   */\n  dup2\n  add\n  swap3\n    /* \"#utility.yul\":1416:1438   */\n  swap1\n    /* \"#utility.yul\":1454:1469   */\n  dup2\n  add\n    /* \"#utility.yul\":1524:1543   */\n  dup11\n  dup5\n  gt\n    /* \"#utility.yul\":1521:1560   */\n  iszero\n  tag_60\n  jumpi\n    /* \"#utility.yul\":1556:1557   */\n  0x00\n    /* \"#utility.yul\":1553:1554   */\n  dup1\n    /* \"#utility.yul\":1546:1558   */\n  revert\n    /* \"#utility.yul\":1521:1560   */\ntag_60:\n    /* \"#utility.yul\":1588:1590   */\n  0x20\n    /* \"#utility.yul\":1584:1586   */\n  dup6\n    /* \"#utility.yul\":1580:1591   */\n  add\n    /* \"#utility.yul\":1569:1591   */\n  swap5\n  pop\n    /* \"#utility.yul\":1600:1759   */\ntag_61:\n    /* \"#utility.yul\":1616:1622   */\n  dup4\n    /* \"#utility.yul\":1611:1614   */\n  dup6\n    /* \"#utility.yul\":1608:1623   */\n  lt\n    /* \"#utility.yul\":1600:1759   */\n  iszero\n  tag_63\n  jumpi\n    /* \"#utility.yul\":1682:1716   */\n  tag_64\n    /* \"#utility.yul\":1712:1715   */\n  dup6\n    /* \"#utility.yul\":1682:1716   */\n  tag_42\n  jump\t// in\ntag_64:\n    /* \"#utility.yul\":1670:1717   */\n  dup2\n  mstore\n    /* \"#utility.yul\":1746:1748   */\n  0x20\n    /* \"#utility.yul\":1633:1645   */\n  swap5\n  dup6\n  add\n  swap5\n    /* \"#utility.yul\":1737:1749   */\n  add\n    /* \"#utility.yul\":1600:1759   */\n  jump(tag_61)\ntag_63:\n  pop\n    /* \"#utility.yul\":1778:1784   */\n  swap5\n  pop\n    /* \"#utility.yul\":1803:1850   */\n  tag_65\n  swap3\n  pop\n  pop\n  pop\n    /* \"#utility.yul\":1846:1848   */\n  0x60\n    /* \"#utility.yul\":1831:1849   */\n  dup7\n  add\n    /* \"#utility.yul\":1803:1850   */\n  tag_44\n  jump\t// in\ntag_65:\n    /* \"#utility.yul\":1793:1850   */\n  swap1\n  pop\n    /* \"#utility.yul\":493:1856   */\n  swap3\n  swap6\n  swap2\n  swap5\n  pop\n  swap3\n  pop\n  jump\t// out\n    /* \"#utility.yul\":1861:2648   */\ntag_23:\n    /* \"#utility.yul\":2055:2059   */\n  0x00\n    /* \"#utility.yul\":2103:2105   */\n  0x60\n    /* \"#utility.yul\":2092:2101   */\n  dup3\n    /* \"#utility.yul\":2088:2106   */\n  add\n    /* \"#utility.yul\":2133:2139   */\n  dup6\n    /* \"#utility.yul\":2122:2131   */\n  dup4\n    /* \"#utility.yul\":2115:2140   */\n  mstore\n    /* \"#utility.yul\":2176:2178   */\n  0x60\n    /* \"#utility.yul\":2171:2173   */\n  0x20\n    /* \"#utility.yul\":2160:2169   */\n  dup5\n    /* \"#utility.yul\":2156:2174   */\n  add\n    /* \"#utility.yul\":2149:2179   */\n  mstore\n    /* \"#utility.yul\":2199:2205   */\n  dup1\n    /* \"#utility.yul\":2234:2240   */\n  dup6\n    /* \"#utility.yul\":2228:2241   */\n  mload\n    /* \"#utility.yul\":2265:2271   */\n  dup1\n    /* \"#utility.yul\":2257:2263   */\n  dup4\n    /* \"#utility.yul\":2250:2272   */\n  mstore\n    /* \"#utility.yul\":2303:2306   */\n  0x80\n    /* \"#utility.yul\":2292:2301   */\n  dup6\n    /* \"#utility.yul\":2288:2307   */\n  add\n    /* \"#utility.yul\":2281:2307   */\n  swap2\n  pop\n    /* \"#utility.yul\":2342:2344   */\n  0x20\n    /* \"#utility.yul\":2334:2340   */\n  dup8\n    /* \"#utility.yul\":2330:2345   */\n  add\n    /* \"#utility.yul\":2316:2345   */\n  swap3\n  pop\n    /* \"#utility.yul\":2363:2364   */\n  0x00\n    /* \"#utility.yul\":2373:2568   */\ntag_67:\n    /* \"#utility.yul\":2387:2393   */\n  dup2\n    /* \"#utility.yul\":2384:2385   */\n  dup2\n    /* \"#utility.yul\":2381:2394   */\n  lt\n    /* \"#utility.yul\":2373:2568   */\n  iszero\n  tag_69\n  jumpi\n    /* \"#utility.yul\":2452:2465   */\n  dup4\n  mload\n  sub(shl(0xa0, 0x01), 0x01)\n    /* \"#utility.yul\":2448:2487   */\n  and\n    /* \"#utility.yul\":2436:2488   */\n  dup4\n  mstore\n    /* \"#utility.yul\":2517:2519   */\n  0x20\n    /* \"#utility.yul\":2543:2558   */\n  swap4\n  dup5\n  add\n  swap4\n    /* \"#utility.yul\":2508:2520   */\n  swap1\n  swap3\n  add\n  swap2\n    /* \"#utility.yul\":2484:2485   */\n  0x01\n    /* \"#utility.yul\":2402:2411   */\n  add\n    /* \"#utility.yul\":2373:2568   */\n  jump(tag_67)\ntag_69:\n    /* \"#utility.yul\":2377:2380   */\n  pop\n  pop\n    /* \"#utility.yul\":2585:2588   */\n  dup1\n    /* \"#utility.yul\":2577:2588   */\n  swap3\n  pop\n  pop\n  pop\n    /* \"#utility.yul\":2636:2640   */\n  0xff\n    /* \"#utility.yul\":2628:2634   */\n  dup4\n    /* \"#utility.yul\":2624:2641   */\n  and\n    /* \"#utility.yul\":2619:2621   */\n  0x40\n    /* \"#utility.yul\":2608:2617   */\n  dup4\n    /* \"#utility.yul\":2604:2622   */\n  add\n    /* \"#utility.yul\":2597:2642   */\n  mstore\n    /* \"#utility.yul\":1861:2648   */\n  swap5\n  swap4\n  pop\n  pop\n  pop\n  pop\n  jump\t// out\ntag_45:\n    /* \"RouletteGame.sol\":65:35471  contract RouletteGame {... */\n  dataSize(sub_0)\n  dup1\n  dataOffset(sub_0)\n  0x00\n  codecopy\n  0x00\n  return\nstop\n\nsub_0: assembly {\n        /* \"RouletteGame.sol\":65:35471  contract RouletteGame {... */\n      mstore(0x40, 0x80)\n      jumpi(tag_1, lt(calldatasize, 0x04))\n      shr(0xe0, calldataload(0x00))\n      dup1\n      0x7f3be3ed\n      gt\n      tag_49\n      jumpi\n      dup1\n      0xcf3c5d16\n      gt\n      tag_50\n      jumpi\n      dup1\n      0xe4ca650d\n      gt\n      tag_51\n      jumpi\n      dup1\n      0xe4ca650d\n      eq\n      tag_43\n      jumpi\n      dup1\n      0xe71f766e\n      eq\n      tag_44\n      jumpi\n      dup1\n      0xe8e0fca5\n      eq\n      tag_45\n      jumpi\n      dup1\n      0xf2d18f42\n      eq\n      tag_46\n      jumpi\n      dup1\n      0xf437bc59\n      eq\n      tag_47\n      jumpi\n      dup1\n      0xfe5385af\n      eq\n      tag_48\n      jumpi\n      0x00\n      dup1\n      revert\n    tag_51:\n      dup1\n      0xcf3c5d16\n      eq\n      tag_37\n      jumpi\n      dup1\n      0xd0e30db0\n      eq\n      tag_38\n      jumpi\n      dup1\n      0xd1edb09e\n      eq\n      tag_39\n      jumpi\n      dup1\n      0xd4f7a285\n      eq\n      tag_40\n      jumpi\n      dup1\n      0xd9cc76ad\n      eq\n      tag_41\n      jumpi\n      dup1\n      0xdb7f11db\n      eq\n      tag_42\n      jumpi\n      0x00\n      dup1\n      revert\n    tag_50:\n      dup1\n      0x9619367d\n      gt\n      tag_52\n      jumpi\n      dup1\n      0x9619367d\n      eq\n      tag_31\n      jumpi\n      dup1\n      0x972b533d\n      eq\n      tag_32\n      jumpi\n      dup1\n      0xa38bd74c\n      eq\n      tag_33\n      jumpi\n      dup1\n      0xa6ede84a\n      eq\n      tag_34\n      jumpi\n      dup1\n      0xb2513399\n      eq\n      tag_35\n      jumpi\n      dup1\n      0xbe47ae13\n      eq\n      tag_36\n      jumpi\n      0x00\n      dup1\n      revert\n    tag_52:\n      dup1\n      0x7f3be3ed\n      eq\n      tag_25\n      jumpi\n      dup1\n      0x87171eb7\n      eq\n      tag_26\n      jumpi\n      dup1\n      0x8c7e347a\n      eq\n      tag_27\n      jumpi\n      dup1\n      0x8d8c1286\n      eq\n      tag_28\n      jumpi\n      dup1\n      0x8e4bf820\n      eq\n      tag_29\n      jumpi\n      dup1\n      0x8fffebca\n      eq\n      tag_30\n      jumpi\n      0x00\n      dup1\n      revert\n    tag_49:\n      dup1\n      0x2e5b2168\n      gt\n      tag_53\n      jumpi\n      dup1\n      0x4760fff3\n      gt\n      tag_54\n      jumpi\n      dup1\n      0x4760fff3\n      eq\n      tag_19\n      jumpi\n      dup1\n      0x4d7d93fe\n      eq\n      tag_20\n      jumpi\n      dup1\n      0x4e69d560\n      eq\n      tag_21\n      jumpi\n      dup1\n      0x5dcab1d8\n      eq\n      tag_22\n      jumpi\n      dup1\n      0x65372147\n      eq\n      tag_23\n      jumpi\n      dup1\n      0x6f91a66f\n      eq\n      tag_24\n      jumpi\n      0x00\n      dup1\n      revert\n    tag_54:\n      dup1\n      0x2e5b2168\n      eq\n      tag_13\n      jumpi\n      dup1\n      0x2eca4c28\n      eq\n      tag_14\n      jumpi\n      dup1\n      0x322f8920\n      eq\n      tag_15\n      jumpi\n      dup1\n      0x35aa2e44\n      eq\n      tag_16\n      jumpi\n      dup1\n      0x38cceb4f\n      eq\n      tag_17\n      jumpi\n      dup1\n      0x43046844\n      eq\n      tag_18\n      jumpi\n      0x00\n      dup1\n      revert\n    tag_53:\n      dup1\n      0x1fac0ffd\n      gt\n      tag_55\n      jumpi\n      dup1\n      0x1fac0ffd\n      eq\n      tag_7\n      jumpi\n      dup1\n      0x200d2ed2\n      eq\n      tag_8\n      jumpi\n      dup1\n      0x22af00fa\n      eq\n      tag_9\n      jumpi\n      dup1\n      0x23fe318e\n      eq\n      tag_10\n      jumpi\n      dup1\n      0x2605c251\n      eq\n      tag_11\n      jumpi\n      dup1\n      0x28dddc1b\n      eq\n      tag_12\n      jumpi\n      0x00\n      dup1\n      revert\n    tag_55:\n      dup1\n      0x12586172\n      eq\n      tag_2\n      jumpi\n      dup1\n      0x19299832\n      eq\n      tag_3\n      jumpi\n      dup1\n      0x195ba0eb\n      eq\n      tag_4\n      jumpi\n      dup1\n      0x1b2abc77\n      eq\n      tag_5\n      jumpi\n      dup1\n      0x1dbe2e0e\n      eq\n      tag_6\n      jumpi\n    tag_1:\n      0x00\n      dup1\n      revert\n        /* \"RouletteGame.sol\":6747:7081  function isInFirstColumnSet(uint8 number) public view returns (bool) {... */\n    tag_2:\n      callvalue\n      dup1\n      iszero\n      tag_56\n      jumpi\n      0x00\n      dup1\n      revert\n    tag_56:\n      pop\n      tag_57\n      tag_58\n      calldatasize\n      0x04\n      tag_59\n      jump\t// in\n    tag_58:\n      tag_60\n      jump\t// in\n    tag_57:\n      mload(0x40)\n        /* \"#utility.yul\":453:467   */\n      swap1\n      iszero\n        /* \"#utility.yul\":446:468   */\n      iszero\n        /* \"#utility.yul\":428:469   */\n      dup2\n      mstore\n        /* \"#utility.yul\":416:418   */\n      0x20\n        /* \"#utility.yul\":401:419   */\n      add\n        /* \"RouletteGame.sol\":6747:7081  function isInFirstColumnSet(uint8 number) public view returns (bool) {... */\n    tag_61:\n      mload(0x40)\n      dup1\n      swap2\n      sub\n      swap1\n      return\n        /* \"RouletteGame.sol\":7734:7924  uint8[12] public OPTION_THIRD_COLUMN_SET = [... */\n    tag_3:\n      callvalue\n      dup1\n      iszero\n      tag_63\n      jumpi\n      0x00\n      dup1\n      revert\n    tag_63:\n      pop\n      tag_64\n      tag_65\n      calldatasize\n      0x04\n      tag_66\n      jump\t// in\n    tag_65:\n      tag_67\n      jump\t// in\n    tag_64:\n      mload(0x40)\n        /* \"#utility.yul\":837:841   */\n      0xff\n        /* \"#utility.yul\":825:842   */\n      swap1\n      swap2\n      and\n        /* \"#utility.yul\":807:843   */\n      dup2\n      mstore\n        /* \"#utility.yul\":795:797   */\n      0x20\n        /* \"#utility.yul\":780:798   */\n      add\n        /* \"RouletteGame.sol\":7734:7924  uint8[12] public OPTION_THIRD_COLUMN_SET = [... */\n      tag_61\n        /* \"#utility.yul\":665:849   */\n      jump\n        /* \"RouletteGame.sol\":8335:8518  uint8[12] public OPTION_FIRST_DOZEN_SET = [... */\n    tag_4:\n      callvalue\n      dup1\n      iszero\n      tag_70\n      jumpi\n      0x00\n      dup1\n      revert\n    tag_70:\n      pop\n      tag_64\n      tag_72\n      calldatasize\n      0x04\n      tag_66\n      jump\t// in\n    tag_72:\n      tag_73\n      jump\t// in\n        /* \"RouletteGame.sol\":18586:19030  function noMoreBets() public {... */\n    tag_5:\n      callvalue\n      dup1\n      iszero\n      tag_75\n      jumpi\n      0x00\n      dup1\n      revert\n    tag_75:\n      pop\n      tag_76\n      tag_77\n      jump\t// in\n    tag_76:\n      stop\n        /* \"RouletteGame.sol\":19096:20288  function generateResult() public {... */\n    tag_6:\n      callvalue\n      dup1\n      iszero\n      tag_78\n      jumpi\n      0x00\n      dup1\n      revert\n    tag_78:\n      pop\n      tag_76\n      tag_80\n      jump\t// in\n        /* \"RouletteGame.sol\":9505:9697  uint8[12] public OPTION_THIRD_DOZEN_SET = [... */\n    tag_7:\n      callvalue\n      dup1\n      iszero\n      tag_81\n      jumpi\n      0x00\n      dup1\n      revert\n    tag_81:\n      pop\n      tag_64\n      tag_83\n      calldatasize\n      0x04\n      tag_66\n      jump\t// in\n    tag_83:\n      tag_84\n      jump\t// in\n        /* \"RouletteGame.sol\":12593:12612  uint8 public status */\n    tag_8:\n      callvalue\n      dup1\n      iszero\n      tag_86\n      jumpi\n      0x00\n      dup1\n      revert\n    tag_86:\n      pop\n      sload(0x0e)\n      tag_64\n      swap1\n      0xff\n      and\n      dup2\n      jump\n        /* \"RouletteGame.sol\":12618:12635  Bet[] public bets */\n    tag_9:\n      callvalue\n      dup1\n      iszero\n      tag_90\n      jumpi\n      0x00\n      dup1\n      revert\n    tag_90:\n      pop\n      tag_91\n      tag_92\n      calldatasize\n      0x04\n      tag_66\n      jump\t// in\n    tag_92:\n      tag_93\n      jump\t// in\n    tag_91:\n      0x40\n      dup1\n      mload\n      sub(shl(0xa0, 0x01), 0x01)\n        /* \"#utility.yul\":1070:1102   */\n      swap1\n      swap5\n      and\n        /* \"#utility.yul\":1052:1103   */\n      dup5\n      mstore\n        /* \"#utility.yul\":1151:1155   */\n      0xff\n        /* \"#utility.yul\":1139:1156   */\n      swap1\n      swap3\n      and\n        /* \"#utility.yul\":1134:1136   */\n      0x20\n        /* \"#utility.yul\":1119:1137   */\n      dup5\n      add\n        /* \"#utility.yul\":1112:1157   */\n      mstore\n        /* \"#utility.yul\":1173:1191   */\n      swap1\n      dup3\n      add\n        /* \"#utility.yul\":1166:1200   */\n      mstore\n        /* \"#utility.yul\":1040:1042   */\n      0x60\n        /* \"#utility.yul\":1025:1043   */\n      add\n        /* \"RouletteGame.sol\":12618:12635  Bet[] public bets */\n      tag_61\n        /* \"#utility.yul\":854:1206   */\n      jump\n        /* \"RouletteGame.sol\":4031:4282  uint8[18] public OPTION_RED_SET = [... */\n    tag_10:\n      callvalue\n      dup1\n      iszero\n      tag_96\n      jumpi\n      0x00\n      dup1\n      revert\n    tag_96:\n      pop\n      tag_64\n      tag_98\n      calldatasize\n      0x04\n      tag_66\n      jump\t// in\n    tag_98:\n      tag_99\n      jump\t// in\n        /* \"RouletteGame.sol\":9113:9447  function isInSecondDozenSet(uint8 number) public view returns (bool) {... */\n    tag_11:\n      callvalue\n      dup1\n      iszero\n      tag_101\n      jumpi\n      0x00\n      dup1\n      revert\n    tag_101:\n      pop\n      tag_57\n      tag_103\n      calldatasize\n      0x04\n      tag_59\n      jump\t// in\n    tag_103:\n      tag_104\n      jump\t// in\n        /* \"RouletteGame.sol\":5551:5862  function isInEvenSet(uint8 number) public view returns (bool) {... */\n    tag_12:\n      callvalue\n      dup1\n      iszero\n      tag_106\n      jumpi\n      0x00\n      dup1\n      revert\n    tag_106:\n      pop\n      tag_57\n      tag_108\n      calldatasize\n      0x04\n      tag_59\n      jump\t// in\n    tag_108:\n      tag_109\n      jump\t// in\n        /* \"RouletteGame.sol\":13130:13151  uint256 public maxBet */\n    tag_13:\n      callvalue\n      dup1\n      iszero\n      tag_111\n      jumpi\n      0x00\n      dup1\n      revert\n    tag_111:\n      pop\n      tag_112\n      sload(0x18)\n      dup2\n      jump\n    tag_112:\n      mload(0x40)\n        /* \"#utility.yul\":1357:1382   */\n      swap1\n      dup2\n      mstore\n        /* \"#utility.yul\":1345:1347   */\n      0x20\n        /* \"#utility.yul\":1330:1348   */\n      add\n        /* \"RouletteGame.sol\":13130:13151  uint256 public maxBet */\n      tag_61\n        /* \"#utility.yul\":1211:1388   */\n      jump\n        /* \"RouletteGame.sol\":12724:12755  uint8 public validate_threshold */\n    tag_14:\n      callvalue\n      dup1\n      iszero\n      tag_116\n      jumpi\n      0x00\n      dup1\n      revert\n    tag_116:\n      pop\n      sload(0x11)\n      tag_64\n      swap1\n      0x0100\n      swap1\n      div\n      0xff\n      and\n      dup2\n      jump\n        /* \"RouletteGame.sol\":8914:9107  uint8[12] public OPTION_SECOND_DOZEN_SET = [... */\n    tag_15:\n      callvalue\n      dup1\n      iszero\n      tag_120\n      jumpi\n      0x00\n      dup1\n      revert\n    tag_120:\n      pop\n      tag_64\n      tag_122\n      calldatasize\n      0x04\n      tag_66\n      jump\t// in\n    tag_122:\n      tag_123\n      jump\t// in\n        /* \"RouletteGame.sol\":12782:12809  address[] public validators */\n    tag_16:\n      callvalue\n      dup1\n      iszero\n      tag_125\n      jumpi\n      0x00\n      dup1\n      revert\n    tag_125:\n      pop\n      tag_126\n      tag_127\n      calldatasize\n      0x04\n      tag_66\n      jump\t// in\n    tag_127:\n      tag_128\n      jump\t// in\n    tag_126:\n      mload(0x40)\n      sub(shl(0xa0, 0x01), 0x01)\n        /* \"#utility.yul\":1557:1589   */\n      swap1\n      swap2\n      and\n        /* \"#utility.yul\":1539:1590   */\n      dup2\n      mstore\n        /* \"#utility.yul\":1527:1529   */\n      0x20\n        /* \"#utility.yul\":1512:1530   */\n      add\n        /* \"RouletteGame.sol\":12782:12809  address[] public validators */\n      tag_61\n        /* \"#utility.yul\":1393:1596   */\n      jump\n        /* \"RouletteGame.sol\":21305:27497  function validateResult() public {... */\n    tag_17:\n      callvalue\n      dup1\n      iszero\n      tag_131\n      jumpi\n      0x00\n      dup1\n      revert\n    tag_131:\n      pop\n      tag_76\n      tag_133\n      jump\t// in\n        /* \"RouletteGame.sol\":17916:18580  function placeBet(uint8 option) public payable {... */\n    tag_18:\n      tag_76\n      tag_135\n      calldatasize\n      0x04\n      tag_59\n      jump\t// in\n    tag_135:\n      tag_136\n      jump\t// in\n        /* \"RouletteGame.sol\":4288:4596  function isInRedSet(uint8 number) public view returns (bool) {... */\n    tag_19:\n      callvalue\n      dup1\n      iszero\n      tag_137\n      jumpi\n      0x00\n      dup1\n      revert\n    tag_137:\n      pop\n      tag_57\n      tag_139\n      calldatasize\n      0x04\n      tag_59\n      jump\t// in\n    tag_139:\n      tag_140\n      jump\t// in\n        /* \"RouletteGame.sol\":8524:8855  function isInFirstDozenSet(uint8 number) public view returns (bool) {... */\n    tag_20:\n      callvalue\n      dup1\n      iszero\n      tag_142\n      jumpi\n      0x00\n      dup1\n      revert\n    tag_142:\n      pop\n      tag_57\n      tag_144\n      calldatasize\n      0x04\n      tag_59\n      jump\t// in\n    tag_144:\n      tag_145\n      jump\t// in\n        /* \"RouletteGame.sol\":17118:17197  function getStatus() public view returns (uint8) {... */\n    tag_21:\n      callvalue\n      dup1\n      iszero\n      tag_147\n      jumpi\n      0x00\n      dup1\n      revert\n    tag_147:\n      pop\n        /* \"RouletteGame.sol\":17184:17190  status */\n      and(0xff, sload(0x0e))\n        /* \"RouletteGame.sol\":17118:17197  function getStatus() public view returns (uint8) {... */\n      jump(tag_64)\n        /* \"RouletteGame.sol\":4908:5222  function isInBlackSet(uint8 number) public view returns (bool) {... */\n    tag_22:\n      callvalue\n      dup1\n      iszero\n      tag_151\n      jumpi\n      0x00\n      dup1\n      revert\n    tag_151:\n      pop\n      tag_57\n      tag_153\n      calldatasize\n      0x04\n      tag_59\n      jump\t// in\n    tag_153:\n      tag_154\n      jump\t// in\n        /* \"RouletteGame.sol\":12679:12698  uint8 public result */\n    tag_23:\n      callvalue\n      dup1\n      iszero\n      tag_156\n      jumpi\n      0x00\n      dup1\n      revert\n    tag_156:\n      pop\n      sload(0x11)\n      tag_64\n      swap1\n      0xff\n      and\n      dup2\n      jump\n        /* \"RouletteGame.sol\":12641:12673  uint256 public cutOffBlockNumber */\n    tag_24:\n      callvalue\n      dup1\n      iszero\n      tag_160\n      jumpi\n      0x00\n      dup1\n      revert\n    tag_160:\n      pop\n      tag_112\n      sload(0x10)\n      dup2\n      jump\n        /* \"RouletteGame.sol\":12855:12892  address[] public mismatchedValidators */\n    tag_25:\n      callvalue\n      dup1\n      iszero\n      tag_164\n      jumpi\n      0x00\n      dup1\n      revert\n    tag_164:\n      pop\n      tag_126\n      tag_166\n      calldatasize\n      0x04\n      tag_66\n      jump\t// in\n    tag_166:\n      tag_167\n      jump\t// in\n        /* \"RouletteGame.sol\":13067:13093  uint256 public minDeposite */\n    tag_26:\n      callvalue\n      dup1\n      iszero\n      tag_169\n      jumpi\n      0x00\n      dup1\n      revert\n    tag_169:\n      pop\n      tag_112\n      sload(0x17)\n      dup2\n      jump\n        /* \"RouletteGame.sol\":17203:17292  function getBetsCount() public view returns (uint256) {... */\n    tag_27:\n      callvalue\n      dup1\n      iszero\n      tag_173\n      jumpi\n      0x00\n      dup1\n      revert\n    tag_173:\n      pop\n        /* \"RouletteGame.sol\":17274:17278  bets */\n      0x0f\n        /* \"RouletteGame.sol\":17274:17285  bets.length */\n      sload\n        /* \"RouletteGame.sol\":17203:17292  function getBetsCount() public view returns (uint256) {... */\n      jump(tag_112)\n        /* \"RouletteGame.sol\":12815:12849  address[] public matchedValidators */\n    tag_28:\n      callvalue\n      dup1\n      iszero\n      tag_177\n      jumpi\n      0x00\n      dup1\n      revert\n    tag_177:\n      pop\n      tag_126\n      tag_179\n      calldatasize\n      0x04\n      tag_66\n      jump\t// in\n    tag_179:\n      tag_180\n      jump\t// in\n        /* \"RouletteGame.sol\":27507:35469  function settleBet() public {... */\n    tag_29:\n      callvalue\n      dup1\n      iszero\n      tag_182\n      jumpi\n      0x00\n      dup1\n      revert\n    tag_182:\n      pop\n      tag_76\n      tag_184\n      jump\t// in\n        /* \"RouletteGame.sol\":7338:7675  function isInSecondColumnSet(uint8 number) public view returns (bool) {... */\n    tag_30:\n      callvalue\n      dup1\n      iszero\n      tag_185\n      jumpi\n      0x00\n      dup1\n      revert\n    tag_185:\n      pop\n      tag_57\n      tag_187\n      calldatasize\n      0x04\n      tag_59\n      jump\t// in\n    tag_187:\n      tag_188\n      jump\t// in\n        /* \"RouletteGame.sol\":12566:12587  uint256 public minBet */\n    tag_31:\n      callvalue\n      dup1\n      iszero\n      tag_190\n      jumpi\n      0x00\n      dup1\n      revert\n    tag_190:\n      pop\n      tag_112\n      sload(0x0d)\n      dup2\n      jump\n        /* \"RouletteGame.sol\":3028:3336  function isInLowSet(uint8 number) public view returns (bool) {... */\n    tag_32:\n      callvalue\n      dup1\n      iszero\n      tag_194\n      jumpi\n      0x00\n      dup1\n      revert\n    tag_194:\n      pop\n      tag_57\n      tag_196\n      calldatasize\n      0x04\n      tag_59\n      jump\t// in\n    tag_196:\n      tag_197\n      jump\t// in\n        /* \"RouletteGame.sol\":9703:10034  function isInThirdDozenSet(uint8 number) public view returns (bool) {... */\n    tag_33:\n      callvalue\n      dup1\n      iszero\n      tag_199\n      jumpi\n      0x00\n      dup1\n      revert\n    tag_199:\n      pop\n      tag_57\n      tag_201\n      calldatasize\n      0x04\n      tag_59\n      jump\t// in\n    tag_201:\n      tag_202\n      jump\t// in\n        /* \"RouletteGame.sol\":4648:4902  uint8[18] public OPTION_BLACK_SET = [... */\n    tag_34:\n      callvalue\n      dup1\n      iszero\n      tag_204\n      jumpi\n      0x00\n      dup1\n      revert\n    tag_204:\n      pop\n      tag_64\n      tag_206\n      calldatasize\n      0x04\n      tag_66\n      jump\t// in\n    tag_206:\n      tag_207\n      jump\t// in\n        /* \"RouletteGame.sol\":7141:7332  uint8[12] public OPTION_SECOND_COLUMN_SET = [... */\n    tag_35:\n      callvalue\n      dup1\n      iszero\n      tag_209\n      jumpi\n      0x00\n      dup1\n      revert\n    tag_209:\n      pop\n      tag_64\n      tag_211\n      calldatasize\n      0x04\n      tag_66\n      jump\t// in\n    tag_211:\n      tag_212\n      jump\t// in\n        /* \"RouletteGame.sol\":3387:3644  uint8[18] public OPTION_HIGH_SET = [... */\n    tag_36:\n      callvalue\n      dup1\n      iszero\n      tag_214\n      jumpi\n      0x00\n      dup1\n      revert\n    tag_214:\n      pop\n      tag_64\n      tag_216\n      calldatasize\n      0x04\n      tag_66\n      jump\t// in\n    tag_216:\n      tag_217\n      jump\t// in\n        /* \"RouletteGame.sol\":13003:13050  mapping(address => bool) public mismatchSigners */\n    tag_37:\n      callvalue\n      dup1\n      iszero\n      tag_219\n      jumpi\n      0x00\n      dup1\n      revert\n    tag_219:\n      pop\n      tag_57\n      tag_221\n      calldatasize\n      0x04\n      tag_222\n      jump\t// in\n    tag_221:\n      mstore(0x20, 0x16)\n      0x00\n      swap1\n      dup2\n      mstore\n      0x40\n      swap1\n      keccak256\n      sload\n      0xff\n      and\n      dup2\n      jump\n        /* \"RouletteGame.sol\":17537:17910  function deposit() public payable {... */\n    tag_38:\n      tag_76\n      tag_226\n      jump\t// in\n        /* \"RouletteGame.sol\":17298:17531  function getTotalBetsAmount() public view returns (uint256) {... */\n    tag_39:\n      callvalue\n      dup1\n      iszero\n      tag_227\n      jumpi\n      0x00\n      dup1\n      revert\n    tag_227:\n      pop\n      tag_112\n      tag_229\n      jump\t// in\n        /* \"RouletteGame.sol\":5292:5545  uint8[18] public OPTION_EVEN_SET = [... */\n    tag_40:\n      callvalue\n      dup1\n      iszero\n      tag_231\n      jumpi\n      0x00\n      dup1\n      revert\n    tag_231:\n      pop\n      tag_64\n      tag_233\n      calldatasize\n      0x04\n      tag_66\n      jump\t// in\n    tag_233:\n      tag_234\n      jump\t// in\n        /* \"RouletteGame.sol\":6169:6477  function isInOddSet(uint8 number) public view returns (bool) {... */\n    tag_41:\n      callvalue\n      dup1\n      iszero\n      tag_236\n      jumpi\n      0x00\n      dup1\n      revert\n    tag_236:\n      pop\n      tag_57\n      tag_238\n      calldatasize\n      0x04\n      tag_59\n      jump\t// in\n    tag_238:\n      tag_239\n      jump\t// in\n        /* \"RouletteGame.sol\":6551:6741  uint8[12] public OPTION_FIRST_COLUMN_SET = [... */\n    tag_42:\n      callvalue\n      dup1\n      iszero\n      tag_241\n      jumpi\n      0x00\n      dup1\n      revert\n    tag_241:\n      pop\n      tag_64\n      tag_243\n      calldatasize\n      0x04\n      tag_66\n      jump\t// in\n    tag_243:\n      tag_244\n      jump\t// in\n        /* \"RouletteGame.sol\":3650:3961  function isInHighSet(uint8 number) public view returns (bool) {... */\n    tag_43:\n      callvalue\n      dup1\n      iszero\n      tag_246\n      jumpi\n      0x00\n      dup1\n      revert\n    tag_246:\n      pop\n      tag_57\n      tag_248\n      calldatasize\n      0x04\n      tag_59\n      jump\t// in\n    tag_248:\n      tag_249\n      jump\t// in\n        /* \"RouletteGame.sol\":7930:8264  function isInThirdColumnSet(uint8 number) public view returns (bool) {... */\n    tag_44:\n      callvalue\n      dup1\n      iszero\n      tag_251\n      jumpi\n      0x00\n      dup1\n      revert\n    tag_251:\n      pop\n      tag_57\n      tag_253\n      calldatasize\n      0x04\n      tag_59\n      jump\t// in\n    tag_253:\n      tag_254\n      jump\t// in\n        /* \"RouletteGame.sol\":2775:3022  uint8[18] public OPTION_LOW_SET = [... */\n    tag_45:\n      callvalue\n      dup1\n      iszero\n      tag_256\n      jumpi\n      0x00\n      dup1\n      revert\n    tag_256:\n      pop\n      tag_64\n      tag_258\n      calldatasize\n      0x04\n      tag_66\n      jump\t// in\n    tag_258:\n      tag_259\n      jump\t// in\n        /* \"RouletteGame.sol\":12953:12997  mapping(address => bool) public matchSigners */\n    tag_46:\n      callvalue\n      dup1\n      iszero\n      tag_261\n      jumpi\n      0x00\n      dup1\n      revert\n    tag_261:\n      pop\n      tag_57\n      tag_263\n      calldatasize\n      0x04\n      tag_222\n      jump\t// in\n    tag_263:\n      mstore(0x20, 0x15)\n      0x00\n      swap1\n      dup2\n      mstore\n      0x40\n      swap1\n      keccak256\n      sload\n      0xff\n      and\n      dup2\n      jump\n        /* \"RouletteGame.sol\":12541:12560  address public host */\n    tag_47:\n      callvalue\n      dup1\n      iszero\n      tag_266\n      jumpi\n      0x00\n      dup1\n      revert\n    tag_266:\n      pop\n      sload(0x0c)\n      tag_126\n      swap1\n      sub(shl(0xa0, 0x01), 0x01)\n      and\n      dup2\n      jump\n        /* \"RouletteGame.sol\":5912:6163  uint8[18] public OPTION_ODD_SET = [... */\n    tag_48:\n      callvalue\n      dup1\n      iszero\n      tag_270\n      jumpi\n      0x00\n      dup1\n      revert\n    tag_270:\n      pop\n      tag_64\n      tag_272\n      calldatasize\n      0x04\n      tag_66\n      jump\t// in\n    tag_272:\n      tag_273\n      jump\t// in\n        /* \"RouletteGame.sol\":6747:7081  function isInFirstColumnSet(uint8 number) public view returns (bool) {... */\n    tag_60:\n        /* \"RouletteGame.sol\":6810:6814  bool */\n      0x00\n      dup1\n        /* \"RouletteGame.sol\":6826:7022  for (uint8 i = 0; i < OPTION_FIRST_COLUMN_SET.length; i++) {... */\n    tag_276:\n        /* \"RouletteGame.sol\":6848:6878  OPTION_FIRST_COLUMN_SET.length */\n      0x0c\n        /* \"RouletteGame.sol\":6844:6845  i */\n      dup2\n        /* \"RouletteGame.sol\":6844:6878  i < OPTION_FIRST_COLUMN_SET.length */\n      0xff\n      and\n      lt\n        /* \"RouletteGame.sol\":6826:7022  for (uint8 i = 0; i < OPTION_FIRST_COLUMN_SET.length; i++) {... */\n      iszero\n      tag_277\n      jumpi\n        /* \"RouletteGame.sol\":6933:6939  number */\n      dup3\n        /* \"RouletteGame.sol\":6903:6939  OPTION_FIRST_COLUMN_SET[i] == number */\n      0xff\n      and\n        /* \"RouletteGame.sol\":6903:6926  OPTION_FIRST_COLUMN_SET */\n      0x06\n        /* \"RouletteGame.sol\":6927:6928  i */\n      dup3\n        /* \"RouletteGame.sol\":6903:6929  OPTION_FIRST_COLUMN_SET[i] */\n      0xff\n      and\n      0x0c\n      dup2\n      lt\n      tag_280\n      jumpi\n      tag_280\n      tag_281\n      jump\t// in\n    tag_280:\n      0x20\n      dup2\n      div\n      swap1\n      swap2\n      add\n      sload\n      0xff\n      0x1f\n      swap1\n      swap3\n      and\n      0x0100\n      exp\n      swap1\n      div\n      and\n        /* \"RouletteGame.sol\":6903:6939  OPTION_FIRST_COLUMN_SET[i] == number */\n      sub\n        /* \"RouletteGame.sol\":6899:7012  if (OPTION_FIRST_COLUMN_SET[i] == number) {... */\n      tag_283\n      jumpi\n      pop\n        /* \"RouletteGame.sol\":6966:6970  true */\n      0x01\n      swap3\n        /* \"RouletteGame.sol\":6747:7081  function isInFirstColumnSet(uint8 number) public view returns (bool) {... */\n      swap2\n      pop\n      pop\n      jump\t// out\n        /* \"RouletteGame.sol\":6899:7012  if (OPTION_FIRST_COLUMN_SET[i] == number) {... */\n    tag_283:\n        /* \"RouletteGame.sol\":6880:6883  i++ */\n      dup1\n      tag_284\n      dup2\n      tag_285\n      jump\t// in\n    tag_284:\n      swap2\n      pop\n      pop\n        /* \"RouletteGame.sol\":6826:7022  for (uint8 i = 0; i < OPTION_FIRST_COLUMN_SET.length; i++) {... */\n      jump(tag_276)\n    tag_277:\n      pop\n        /* \"RouletteGame.sol\":7038:7043  false */\n      0x00\n      swap3\n        /* \"RouletteGame.sol\":6747:7081  function isInFirstColumnSet(uint8 number) public view returns (bool) {... */\n      swap2\n      pop\n      pop\n      jump\t// out\n        /* \"RouletteGame.sol\":7734:7924  uint8[12] public OPTION_THIRD_COLUMN_SET = [... */\n    tag_67:\n      0x08\n      dup2\n      0x0c\n      dup2\n      lt\n      tag_286\n      jumpi\n      0x00\n      dup1\n      revert\n    tag_286:\n      0x20\n      swap2\n      dup3\n      dup3\n      div\n      add\n      swap2\n      swap1\n      mod\n      swap2\n      pop\n      sload\n      swap1\n      0x0100\n      exp\n      swap1\n      div\n      0xff\n      and\n      dup2\n      jump\t// out\n        /* \"RouletteGame.sol\":8335:8518  uint8[12] public OPTION_FIRST_DOZEN_SET = [... */\n    tag_73:\n      0x09\n      dup2\n      0x0c\n      dup2\n      lt\n      tag_286\n      jumpi\n      0x00\n      dup1\n      revert\n        /* \"RouletteGame.sol\":18586:19030  function noMoreBets() public {... */\n    tag_77:\n        /* \"RouletteGame.sol\":18633:18639  status */\n      sload(0x0e)\n        /* \"RouletteGame.sol\":18633:18668  status == STATUS_PENDING_PLAYER_BET */\n      0xff\n        /* \"RouletteGame.sol\":18633:18639  status */\n      and\n        /* \"RouletteGame.sol\":10873:10874  1 */\n      0x01\n        /* \"RouletteGame.sol\":18633:18668  status == STATUS_PENDING_PLAYER_BET */\n      eq\n        /* \"RouletteGame.sol\":18625:18693  require(status == STATUS_PENDING_PLAYER_BET, \"No more bets allowed\") */\n      tag_291\n      jumpi\n      mload(0x40)\n      shl(0xe5, 0x461bcd)\n      dup2\n      mstore\n        /* \"#utility.yul\":2538:2540   */\n      0x20\n        /* \"RouletteGame.sol\":18625:18693  require(status == STATUS_PENDING_PLAYER_BET, \"No more bets allowed\") */\n      0x04\n      dup3\n      add\n        /* \"#utility.yul\":2520:2541   */\n      mstore\n        /* \"#utility.yul\":2577:2579   */\n      0x14\n        /* \"#utility.yul\":2557:2575   */\n      0x24\n      dup3\n      add\n        /* \"#utility.yul\":2550:2580   */\n      mstore\n      shl(0x62, 0x139bc81b5bdc994818995d1cc8185b1b1bddd959)\n        /* \"#utility.yul\":2596:2614   */\n      0x44\n      dup3\n      add\n        /* \"#utility.yul\":2589:2639   */\n      mstore\n        /* \"#utility.yul\":2656:2674   */\n      0x64\n      add\n        /* \"RouletteGame.sol\":18625:18693  require(status == STATUS_PENDING_PLAYER_BET, \"No more bets allowed\") */\n    tag_292:\n      mload(0x40)\n      dup1\n      swap2\n      sub\n      swap1\n      revert\n    tag_291:\n        /* \"RouletteGame.sol\":18909:18915  status */\n      0x0e\n        /* \"RouletteGame.sol\":18909:18937  status = STATUS_NO_MORE_BETS */\n      dup1\n      sload\n      not(0xff)\n      and\n        /* \"RouletteGame.sol\":10925:10926  2 */\n      0x02\n        /* \"RouletteGame.sol\":18909:18937  status = STATUS_NO_MORE_BETS */\n      or\n      swap1\n      sstore\n        /* \"RouletteGame.sol\":18967:18979  block.number */\n      number\n        /* \"RouletteGame.sol\":18947:18964  cutOffBlockNumber */\n      0x10\n        /* \"RouletteGame.sol\":18947:18979  cutOffBlockNumber = block.number */\n      dup2\n      swap1\n      sstore\n        /* \"RouletteGame.sol\":18994:19023  NoMoreBets(cutOffBlockNumber) */\n      mload(0x40)\n      0x2d21e9397283a99c7f2df56baf635aab0655f2dea12185fac963ac115be30f93\n      swap2\n      tag_294\n      swap2\n        /* \"#utility.yul\":1357:1382   */\n      swap1\n      dup2\n      mstore\n        /* \"#utility.yul\":1345:1347   */\n      0x20\n        /* \"#utility.yul\":1330:1348   */\n      add\n      swap1\n        /* \"#utility.yul\":1211:1388   */\n      jump\n        /* \"RouletteGame.sol\":18994:19023  NoMoreBets(cutOffBlockNumber) */\n    tag_294:\n      mload(0x40)\n      dup1\n      swap2\n      sub\n      swap1\n      log1\n        /* \"RouletteGame.sol\":18586:19030  function noMoreBets() public {... */\n      jump\t// out\n        /* \"RouletteGame.sol\":19096:20288  function generateResult() public {... */\n    tag_80:\n        /* \"RouletteGame.sol\":19147:19153  status */\n      sload(0x0e)\n        /* \"RouletteGame.sol\":19147:19176  status == STATUS_NO_MORE_BETS */\n      0xff\n        /* \"RouletteGame.sol\":19147:19153  status */\n      and\n        /* \"RouletteGame.sol\":10925:10926  2 */\n      0x02\n        /* \"RouletteGame.sol\":19147:19176  status == STATUS_NO_MORE_BETS */\n      eq\n        /* \"RouletteGame.sol\":19139:19201  require(status == STATUS_NO_MORE_BETS, \"No more bets allowed\") */\n      tag_296\n      jumpi\n      mload(0x40)\n      shl(0xe5, 0x461bcd)\n      dup2\n      mstore\n        /* \"#utility.yul\":2538:2540   */\n      0x20\n        /* \"RouletteGame.sol\":19139:19201  require(status == STATUS_NO_MORE_BETS, \"No more bets allowed\") */\n      0x04\n      dup3\n      add\n        /* \"#utility.yul\":2520:2541   */\n      mstore\n        /* \"#utility.yul\":2577:2579   */\n      0x14\n        /* \"#utility.yul\":2557:2575   */\n      0x24\n      dup3\n      add\n        /* \"#utility.yul\":2550:2580   */\n      mstore\n      shl(0x62, 0x139bc81b5bdc994818995d1cc8185b1b1bddd959)\n        /* \"#utility.yul\":2596:2614   */\n      0x44\n      dup3\n      add\n        /* \"#utility.yul\":2589:2639   */\n      mstore\n        /* \"#utility.yul\":2656:2674   */\n      0x64\n      add\n        /* \"RouletteGame.sol\":19139:19201  require(status == STATUS_NO_MORE_BETS, \"No more bets allowed\") */\n      tag_292\n        /* \"#utility.yul\":2336:2680   */\n      jump\n        /* \"RouletteGame.sol\":19139:19201  require(status == STATUS_NO_MORE_BETS, \"No more bets allowed\") */\n    tag_296:\n        /* \"RouletteGame.sol\":19233:19237  host */\n      and(sub(shl(0xa0, 0x01), 0x01), sload(0x0c))\n        /* \"RouletteGame.sol\":19219:19229  msg.sender */\n      caller\n        /* \"RouletteGame.sol\":19219:19237  msg.sender == host */\n      eq\n        /* \"RouletteGame.sol\":19211:19271  require(msg.sender == host, \"Only host can generate result\") */\n      tag_298\n      jumpi\n      mload(0x40)\n      shl(0xe5, 0x461bcd)\n      dup2\n      mstore\n        /* \"#utility.yul\":2887:2889   */\n      0x20\n        /* \"RouletteGame.sol\":19211:19271  require(msg.sender == host, \"Only host can generate result\") */\n      0x04\n      dup3\n      add\n        /* \"#utility.yul\":2869:2890   */\n      mstore\n        /* \"#utility.yul\":2926:2928   */\n      0x1d\n        /* \"#utility.yul\":2906:2924   */\n      0x24\n      dup3\n      add\n        /* \"#utility.yul\":2899:2929   */\n      mstore\n        /* \"#utility.yul\":2965:2996   */\n      0x4f6e6c7920686f73742063616e2067656e657261746520726573756c74000000\n        /* \"#utility.yul\":2945:2963   */\n      0x44\n      dup3\n      add\n        /* \"#utility.yul\":2938:2997   */\n      mstore\n        /* \"#utility.yul\":3014:3032   */\n      0x64\n      add\n        /* \"RouletteGame.sol\":19211:19271  require(msg.sender == host, \"Only host can generate result\") */\n      tag_292\n        /* \"#utility.yul\":2685:3038   */\n      jump\n        /* \"RouletteGame.sol\":19211:19271  require(msg.sender == host, \"Only host can generate result\") */\n    tag_298:\n        /* \"RouletteGame.sol\":19380:19397  cutOffBlockNumber */\n      sload(0x10)\n        /* \"RouletteGame.sol\":19380:19419  cutOffBlockNumber + BLOCK_NUMBER_OFFSET */\n      tag_301\n      swap1\n        /* \"RouletteGame.sol\":11180:11182  12 */\n      0x0c\n      swap1\n        /* \"RouletteGame.sol\":19380:19419  cutOffBlockNumber + BLOCK_NUMBER_OFFSET */\n      tag_302\n      jump\t// in\n    tag_301:\n        /* \"RouletteGame.sol\":19380:19423  cutOffBlockNumber + BLOCK_NUMBER_OFFSET + 1 */\n      tag_303\n      swap1\n        /* \"RouletteGame.sol\":19422:19423  1 */\n      0x01\n        /* \"RouletteGame.sol\":19380:19423  cutOffBlockNumber + BLOCK_NUMBER_OFFSET + 1 */\n      tag_302\n      jump\t// in\n    tag_303:\n        /* \"RouletteGame.sol\":19364:19376  block.number */\n      number\n        /* \"RouletteGame.sol\":19364:19423  block.number >= cutOffBlockNumber + BLOCK_NUMBER_OFFSET + 1 */\n      lt\n      iszero\n        /* \"RouletteGame.sol\":19343:19473  require(... */\n      tag_304\n      jumpi\n      mload(0x40)\n      shl(0xe5, 0x461bcd)\n      dup2\n      mstore\n        /* \"#utility.yul\":3375:3377   */\n      0x20\n        /* \"RouletteGame.sol\":19343:19473  require(... */\n      0x04\n      dup3\n      add\n        /* \"#utility.yul\":3357:3378   */\n      mstore\n        /* \"#utility.yul\":3414:3416   */\n      0x18\n        /* \"#utility.yul\":3394:3412   */\n      0x24\n      dup3\n      add\n        /* \"#utility.yul\":3387:3417   */\n      mstore\n        /* \"#utility.yul\":3453:3479   */\n      0x426c6f636b206e756d626572206e6f7420726561636865640000000000000000\n        /* \"#utility.yul\":3433:3451   */\n      0x44\n      dup3\n      add\n        /* \"#utility.yul\":3426:3480   */\n      mstore\n        /* \"#utility.yul\":3497:3515   */\n      0x64\n      add\n        /* \"RouletteGame.sol\":19343:19473  require(... */\n      tag_292\n        /* \"#utility.yul\":3173:3521   */\n      jump\n        /* \"RouletteGame.sol\":19343:19473  require(... */\n    tag_304:\n        /* \"RouletteGame.sol\":19535:19558  bytes32 randomBlockHash */\n      0x00\n        /* \"RouletteGame.sol\":19571:19588  cutOffBlockNumber */\n      sload(0x10)\n        /* \"RouletteGame.sol\":19591:19592  1 */\n      0x01\n        /* \"RouletteGame.sol\":19571:19592  cutOffBlockNumber + 1 */\n      tag_307\n      swap2\n      swap1\n      tag_302\n      jump\t// in\n    tag_307:\n        /* \"RouletteGame.sol\":19729:19733  host */\n      sload(0x0c)\n        /* \"RouletteGame.sol\":19712:19734  abi.encodePacked(host) */\n      mload(0x40)\n        /* \"#utility.yul\":3675:3677   */\n      0x60\n        /* \"#utility.yul\":3671:3686   */\n      swap2\n      swap1\n      swap2\n      shl\n      not(sub(shl(0x60, 0x01), 0x01))\n      and\n        /* \"RouletteGame.sol\":19712:19734  abi.encodePacked(host) */\n      0x20\n      dup3\n      add\n        /* \"#utility.yul\":3655:3721   */\n      mstore\n        /* \"RouletteGame.sol\":19561:19593  blockhash(cutOffBlockNumber + 1) */\n      swap1\n      blockhash\n      swap2\n      pop\n        /* \"RouletteGame.sol\":19686:19709  bytes memory packedData */\n      0x00\n      swap1\n        /* \"#utility.yul\":3737:3749   */\n      0x34\n      add\n        /* \"RouletteGame.sol\":19712:19734  abi.encodePacked(host) */\n      mload(0x40)\n      0x20\n      dup2\n      dup4\n      sub\n      sub\n      dup2\n      mstore\n      swap1\n      0x40\n      mstore\n        /* \"RouletteGame.sol\":19686:19734  bytes memory packedData = abi.encodePacked(host) */\n      swap1\n      pop\n        /* \"RouletteGame.sol\":19749:19758  uint256 i */\n      0x00\n        /* \"RouletteGame.sol\":19744:19868  for (uint256 i = 0; i < bets.length; i++) {... */\n    tag_310:\n        /* \"RouletteGame.sol\":19768:19772  bets */\n      0x0f\n        /* \"RouletteGame.sol\":19768:19779  bets.length */\n      sload\n        /* \"RouletteGame.sol\":19764:19779  i < bets.length */\n      dup2\n      lt\n        /* \"RouletteGame.sol\":19744:19868  for (uint256 i = 0; i < bets.length; i++) {... */\n      iszero\n      tag_311\n      jumpi\n        /* \"RouletteGame.sol\":19830:19840  packedData */\n      dup2\n        /* \"RouletteGame.sol\":19842:19846  bets */\n      0x0f\n        /* \"RouletteGame.sol\":19847:19848  i */\n      dup3\n        /* \"RouletteGame.sol\":19842:19849  bets[i] */\n      dup2\n      sload\n      dup2\n      lt\n      tag_314\n      jumpi\n      tag_314\n      tag_281\n      jump\t// in\n    tag_314:\n      0x00\n      swap2\n      dup3\n      mstore\n      0x20\n      swap2\n      dup3\n      swap1\n      keccak256\n      0x02\n      swap1\n      swap2\n      mul\n      add\n        /* \"RouletteGame.sol\":19842:19856  bets[i].player */\n      sload\n        /* \"RouletteGame.sol\":19813:19857  abi.encodePacked(packedData, bets[i].player) */\n      mload(0x40)\n      tag_316\n      swap4\n      swap3\n      sub(shl(0xa0, 0x01), 0x01)\n        /* \"RouletteGame.sol\":19842:19856  bets[i].player */\n      swap1\n      swap3\n      and\n      swap2\n        /* \"RouletteGame.sol\":19813:19857  abi.encodePacked(packedData, bets[i].player) */\n      add\n      tag_317\n      jump\t// in\n    tag_316:\n      0x40\n      dup1\n      mload\n      not(0x1f)\n      dup2\n      dup5\n      sub\n      add\n      dup2\n      mstore\n      swap2\n      swap1\n      mstore\n      swap2\n      pop\n        /* \"RouletteGame.sol\":19781:19784  i++ */\n      0x01\n      add\n        /* \"RouletteGame.sol\":19744:19868  for (uint256 i = 0; i < bets.length; i++) {... */\n      jump(tag_310)\n    tag_311:\n      pop\n        /* \"RouletteGame.sol\":19878:19896  bytes32 randomHash */\n      0x00\n        /* \"RouletteGame.sol\":19939:19954  randomBlockHash */\n      dup3\n        /* \"RouletteGame.sol\":19956:19966  packedData */\n      dup3\n        /* \"RouletteGame.sol\":19922:19967  abi.encodePacked(randomBlockHash, packedData) */\n      add(0x20, mload(0x40))\n      tag_318\n      swap3\n      swap2\n      swap1\n      tag_319\n      jump\t// in\n    tag_318:\n      0x40\n      dup1\n      mload\n      not(0x1f)\n      dup2\n      dup5\n      sub\n      add\n      dup2\n      mstore\n      swap2\n      swap1\n      mstore\n        /* \"RouletteGame.sol\":19899:19977  keccak256(... */\n      dup1\n      mload\n        /* \"RouletteGame.sol\":19922:19967  abi.encodePacked(randomBlockHash, packedData) */\n      0x20\n        /* \"RouletteGame.sol\":19899:19977  keccak256(... */\n      swap1\n      swap2\n      add\n      keccak256\n      swap1\n      pop\n      dup1\n        /* \"RouletteGame.sol\":20138:20165  randomNumber % RESULT_COUNT */\n      tag_320\n        /* \"RouletteGame.sol\":276:278  38 */\n      0x26\n        /* \"RouletteGame.sol\":19899:19977  keccak256(... */\n      dup3\n        /* \"RouletteGame.sol\":20138:20165  randomNumber % RESULT_COUNT */\n      tag_321\n      jump\t// in\n    tag_320:\n        /* \"RouletteGame.sol\":20123:20129  result */\n      0x11\n        /* \"RouletteGame.sol\":20123:20166  result = uint8(randomNumber % RESULT_COUNT) */\n      dup1\n      sload\n      0xff\n      swap3\n      swap1\n      swap3\n      and\n      not(0xff)\n      swap3\n      dup4\n      and\n      dup2\n      or\n      swap1\n      swap2\n      sstore\n        /* \"RouletteGame.sol\":20211:20217  status */\n      0x0e\n        /* \"RouletteGame.sol\":20211:20243  status = STATUS_RESULT_GENERATED */\n      dup1\n      sload\n      swap1\n      swap3\n      and\n        /* \"RouletteGame.sol\":10981:10982  3 */\n      0x03\n        /* \"RouletteGame.sol\":20211:20243  status = STATUS_RESULT_GENERATED */\n      or\n      swap1\n      swap2\n      sstore\n        /* \"RouletteGame.sol\":20258:20281  ResultGenerated(result) */\n      mload(0x40)\n        /* \"#utility.yul\":807:843   */\n      swap1\n      dup2\n      mstore\n        /* \"RouletteGame.sol\":20258:20281  ResultGenerated(result) */\n      0x4898f0a86e5d5b202a6285b46db8e265f964e837829f7d6bf7d1c072c6b88c09\n      swap1\n        /* \"#utility.yul\":795:797   */\n      0x20\n        /* \"#utility.yul\":780:798   */\n      add\n        /* \"RouletteGame.sol\":20258:20281  ResultGenerated(result) */\n      mload(0x40)\n      dup1\n      swap2\n      sub\n      swap1\n      log1\n        /* \"RouletteGame.sol\":19129:20288  {... */\n      pop\n      pop\n      pop\n      pop\n        /* \"RouletteGame.sol\":19096:20288  function generateResult() public {... */\n      jump\t// out\n        /* \"RouletteGame.sol\":9505:9697  uint8[12] public OPTION_THIRD_DOZEN_SET = [... */\n    tag_84:\n      0x0b\n      dup2\n      0x0c\n      dup2\n      lt\n      tag_286\n      jumpi\n      0x00\n      dup1\n      revert\n        /* \"RouletteGame.sol\":12618:12635  Bet[] public bets */\n    tag_93:\n      0x0f\n      dup2\n      dup2\n      sload\n      dup2\n      lt\n      tag_325\n      jumpi\n      0x00\n      dup1\n      revert\n    tag_325:\n      0x00\n      swap2\n      dup3\n      mstore\n      0x20\n      swap1\n      swap2\n      keccak256\n      0x02\n      swap1\n      swap2\n      mul\n      add\n      dup1\n      sload\n      0x01\n      swap1\n      swap2\n      add\n      sload\n      sub(shl(0xa0, 0x01), 0x01)\n      dup3\n      and\n      swap3\n      pop\n      shl(0xa0, 0x01)\n      swap1\n      swap2\n      div\n      0xff\n      and\n      swap1\n      dup4\n      jump\t// out\n        /* \"RouletteGame.sol\":4031:4282  uint8[18] public OPTION_RED_SET = [... */\n    tag_99:\n      0x02\n      dup2\n      0x12\n      dup2\n      lt\n      tag_286\n      jumpi\n      0x00\n      dup1\n      revert\n        /* \"RouletteGame.sol\":9113:9447  function isInSecondDozenSet(uint8 number) public view returns (bool) {... */\n    tag_104:\n        /* \"RouletteGame.sol\":9176:9180  bool */\n      0x00\n      dup1\n        /* \"RouletteGame.sol\":9192:9388  for (uint8 i = 0; i < OPTION_SECOND_DOZEN_SET.length; i++) {... */\n    tag_330:\n        /* \"RouletteGame.sol\":9214:9244  OPTION_SECOND_DOZEN_SET.length */\n      0x0c\n        /* \"RouletteGame.sol\":9210:9211  i */\n      dup2\n        /* \"RouletteGame.sol\":9210:9244  i < OPTION_SECOND_DOZEN_SET.length */\n      0xff\n      and\n      lt\n        /* \"RouletteGame.sol\":9192:9388  for (uint8 i = 0; i < OPTION_SECOND_DOZEN_SET.length; i++) {... */\n      iszero\n      tag_277\n      jumpi\n        /* \"RouletteGame.sol\":9299:9305  number */\n      dup3\n        /* \"RouletteGame.sol\":9269:9305  OPTION_SECOND_DOZEN_SET[i] == number */\n      0xff\n      and\n        /* \"RouletteGame.sol\":9269:9292  OPTION_SECOND_DOZEN_SET */\n      0x0a\n        /* \"RouletteGame.sol\":9293:9294  i */\n      dup3\n        /* \"RouletteGame.sol\":9269:9295  OPTION_SECOND_DOZEN_SET[i] */\n      0xff\n      and\n      0x0c\n      dup2\n      lt\n      tag_334\n      jumpi\n      tag_334\n      tag_281\n      jump\t// in\n    tag_334:\n      0x20\n      dup2\n      div\n      swap1\n      swap2\n      add\n      sload\n      0xff\n      0x1f\n      swap1\n      swap3\n      and\n      0x0100\n      exp\n      swap1\n      div\n      and\n        /* \"RouletteGame.sol\":9269:9305  OPTION_SECOND_DOZEN_SET[i] == number */\n      sub\n        /* \"RouletteGame.sol\":9265:9378  if (OPTION_SECOND_DOZEN_SET[i] == number) {... */\n      tag_336\n      jumpi\n      pop\n        /* \"RouletteGame.sol\":9332:9336  true */\n      0x01\n      swap3\n        /* \"RouletteGame.sol\":9113:9447  function isInSecondDozenSet(uint8 number) public view returns (bool) {... */\n      swap2\n      pop\n      pop\n      jump\t// out\n        /* \"RouletteGame.sol\":9265:9378  if (OPTION_SECOND_DOZEN_SET[i] == number) {... */\n    tag_336:\n        /* \"RouletteGame.sol\":9246:9249  i++ */\n      dup1\n      tag_337\n      dup2\n      tag_285\n      jump\t// in\n    tag_337:\n      swap2\n      pop\n      pop\n        /* \"RouletteGame.sol\":9192:9388  for (uint8 i = 0; i < OPTION_SECOND_DOZEN_SET.length; i++) {... */\n      jump(tag_330)\n        /* \"RouletteGame.sol\":5551:5862  function isInEvenSet(uint8 number) public view returns (bool) {... */\n    tag_109:\n        /* \"RouletteGame.sol\":5607:5611  bool */\n      0x00\n      dup1\n        /* \"RouletteGame.sol\":5623:5803  for (uint8 i = 0; i < OPTION_EVEN_SET.length; i++) {... */\n    tag_339:\n        /* \"RouletteGame.sol\":5645:5667  OPTION_EVEN_SET.length */\n      0x12\n        /* \"RouletteGame.sol\":5641:5642  i */\n      dup2\n        /* \"RouletteGame.sol\":5641:5667  i < OPTION_EVEN_SET.length */\n      0xff\n      and\n      lt\n        /* \"RouletteGame.sol\":5623:5803  for (uint8 i = 0; i < OPTION_EVEN_SET.length; i++) {... */\n      iszero\n      tag_277\n      jumpi\n        /* \"RouletteGame.sol\":5714:5720  number */\n      dup3\n        /* \"RouletteGame.sol\":5692:5720  OPTION_EVEN_SET[i] == number */\n      0xff\n      and\n        /* \"RouletteGame.sol\":5692:5707  OPTION_EVEN_SET */\n      0x04\n        /* \"RouletteGame.sol\":5708:5709  i */\n      dup3\n        /* \"RouletteGame.sol\":5692:5710  OPTION_EVEN_SET[i] */\n      0xff\n      and\n      0x12\n      dup2\n      lt\n      tag_343\n      jumpi\n      tag_343\n      tag_281\n      jump\t// in\n    tag_343:\n      0x20\n      dup2\n      div\n      swap1\n      swap2\n      add\n      sload\n      0xff\n      0x1f\n      swap1\n      swap3\n      and\n      0x0100\n      exp\n      swap1\n      div\n      and\n        /* \"RouletteGame.sol\":5692:5720  OPTION_EVEN_SET[i] == number */\n      sub\n        /* \"RouletteGame.sol\":5688:5793  if (OPTION_EVEN_SET[i] == number) {... */\n      tag_345\n      jumpi\n      pop\n        /* \"RouletteGame.sol\":5747:5751  true */\n      0x01\n      swap3\n        /* \"RouletteGame.sol\":5551:5862  function isInEvenSet(uint8 number) public view returns (bool) {... */\n      swap2\n      pop\n      pop\n      jump\t// out\n        /* \"RouletteGame.sol\":5688:5793  if (OPTION_EVEN_SET[i] == number) {... */\n    tag_345:\n        /* \"RouletteGame.sol\":5669:5672  i++ */\n      dup1\n      tag_346\n      dup2\n      tag_285\n      jump\t// in\n    tag_346:\n      swap2\n      pop\n      pop\n        /* \"RouletteGame.sol\":5623:5803  for (uint8 i = 0; i < OPTION_EVEN_SET.length; i++) {... */\n      jump(tag_339)\n        /* \"RouletteGame.sol\":8914:9107  uint8[12] public OPTION_SECOND_DOZEN_SET = [... */\n    tag_123:\n      0x0a\n      dup2\n      0x0c\n      dup2\n      lt\n      tag_286\n      jumpi\n      0x00\n      dup1\n      revert\n        /* \"RouletteGame.sol\":12782:12809  address[] public validators */\n    tag_128:\n      0x12\n      dup2\n      dup2\n      sload\n      dup2\n      lt\n      tag_349\n      jumpi\n      0x00\n      dup1\n      revert\n    tag_349:\n      0x00\n      swap2\n      dup3\n      mstore\n      0x20\n      swap1\n      swap2\n      keccak256\n      add\n      sload\n      sub(shl(0xa0, 0x01), 0x01)\n      and\n      swap1\n      pop\n      dup2\n      jump\t// out\n        /* \"RouletteGame.sol\":21305:27497  function validateResult() public {... */\n    tag_133:\n        /* \"RouletteGame.sol\":21407:21413  status */\n      sload(0x0e)\n        /* \"RouletteGame.sol\":21407:21440  status == STATUS_RESULT_GENERATED */\n      0xff\n        /* \"RouletteGame.sol\":21407:21413  status */\n      and\n        /* \"RouletteGame.sol\":10981:10982  3 */\n      0x03\n        /* \"RouletteGame.sol\":21407:21440  status == STATUS_RESULT_GENERATED */\n      eq\n        /* \"RouletteGame.sol\":21399:21465  require(status == STATUS_RESULT_GENERATED, \"Result not generated\") */\n      tag_352\n      jumpi\n      mload(0x40)\n      shl(0xe5, 0x461bcd)\n      dup2\n      mstore\n        /* \"#utility.yul\":5021:5023   */\n      0x20\n        /* \"RouletteGame.sol\":21399:21465  require(status == STATUS_RESULT_GENERATED, \"Result not generated\") */\n      0x04\n      dup3\n      add\n        /* \"#utility.yul\":5003:5024   */\n      mstore\n        /* \"#utility.yul\":5060:5062   */\n      0x14\n        /* \"#utility.yul\":5040:5058   */\n      0x24\n      dup3\n      add\n        /* \"#utility.yul\":5033:5063   */\n      mstore\n      shl(0x62, 0x14995cdd5b1d081b9bdd0819d95b995c985d1959)\n        /* \"#utility.yul\":5079:5097   */\n      0x44\n      dup3\n      add\n        /* \"#utility.yul\":5072:5122   */\n      mstore\n        /* \"#utility.yul\":5139:5157   */\n      0x64\n      add\n        /* \"RouletteGame.sol\":21399:21465  require(status == STATUS_RESULT_GENERATED, \"Result not generated\") */\n      tag_292\n        /* \"#utility.yul\":4819:5163   */\n      jump\n        /* \"RouletteGame.sol\":21399:21465  require(status == STATUS_RESULT_GENERATED, \"Result not generated\") */\n    tag_352:\n        /* \"RouletteGame.sol\":21575:21592  cutOffBlockNumber */\n      sload(0x10)\n        /* \"RouletteGame.sol\":21575:21614  cutOffBlockNumber + BLOCK_NUMBER_OFFSET */\n      tag_355\n      swap1\n        /* \"RouletteGame.sol\":11180:11182  12 */\n      0x0c\n      swap1\n        /* \"RouletteGame.sol\":21575:21614  cutOffBlockNumber + BLOCK_NUMBER_OFFSET */\n      tag_302\n      jump\t// in\n    tag_355:\n        /* \"RouletteGame.sol\":21575:21618  cutOffBlockNumber + BLOCK_NUMBER_OFFSET + 1 */\n      tag_356\n      swap1\n        /* \"RouletteGame.sol\":21617:21618  1 */\n      0x01\n        /* \"RouletteGame.sol\":21575:21618  cutOffBlockNumber + BLOCK_NUMBER_OFFSET + 1 */\n      tag_302\n      jump\t// in\n    tag_356:\n        /* \"RouletteGame.sol\":21559:21571  block.number */\n      number\n        /* \"RouletteGame.sol\":21559:21618  block.number >= cutOffBlockNumber + BLOCK_NUMBER_OFFSET + 1 */\n      lt\n      iszero\n        /* \"RouletteGame.sol\":21538:21684  require(... */\n      tag_357\n      jumpi\n      mload(0x40)\n      shl(0xe5, 0x461bcd)\n      dup2\n      mstore\n        /* \"#utility.yul\":5370:5372   */\n      0x20\n        /* \"RouletteGame.sol\":21538:21684  require(... */\n      0x04\n      dup3\n      add\n        /* \"#utility.yul\":5352:5373   */\n      mstore\n        /* \"#utility.yul\":5409:5411   */\n      0x28\n        /* \"#utility.yul\":5389:5407   */\n      0x24\n      dup3\n      add\n        /* \"#utility.yul\":5382:5412   */\n      mstore\n        /* \"#utility.yul\":5448:5482   */\n      0x57616974206174206c6561737420313220626c6f636b73206166746572206765\n        /* \"#utility.yul\":5428:5446   */\n      0x44\n      dup3\n      add\n        /* \"#utility.yul\":5421:5483   */\n      mstore\n      shl(0xc1, 0x3732b930ba34b7b7)\n        /* \"#utility.yul\":5499:5517   */\n      0x64\n      dup3\n      add\n        /* \"#utility.yul\":5492:5530   */\n      mstore\n        /* \"#utility.yul\":5547:5566   */\n      0x84\n      add\n        /* \"RouletteGame.sol\":21538:21684  require(... */\n      tag_292\n        /* \"#utility.yul\":5168:5572   */\n      jump\n        /* \"RouletteGame.sol\":21538:21684  require(... */\n    tag_357:\n        /* \"RouletteGame.sol\":21754:21777  isValidator(msg.sender) */\n      tag_360\n        /* \"RouletteGame.sol\":21766:21776  msg.sender */\n      caller\n        /* \"RouletteGame.sol\":21754:21765  isValidator */\n      tag_361\n        /* \"RouletteGame.sol\":21754:21777  isValidator(msg.sender) */\n      jump\t// in\n    tag_360:\n        /* \"RouletteGame.sol\":21746:21811  require(isValidator(msg.sender), \"Only a validator can validate\") */\n      tag_362\n      jumpi\n      mload(0x40)\n      shl(0xe5, 0x461bcd)\n      dup2\n      mstore\n        /* \"#utility.yul\":5779:5781   */\n      0x20\n        /* \"RouletteGame.sol\":21746:21811  require(isValidator(msg.sender), \"Only a validator can validate\") */\n      0x04\n      dup3\n      add\n        /* \"#utility.yul\":5761:5782   */\n      mstore\n        /* \"#utility.yul\":5818:5820   */\n      0x1d\n        /* \"#utility.yul\":5798:5816   */\n      0x24\n      dup3\n      add\n        /* \"#utility.yul\":5791:5821   */\n      mstore\n        /* \"#utility.yul\":5857:5888   */\n      0x4f6e6c7920612076616c696461746f722063616e2076616c6964617465000000\n        /* \"#utility.yul\":5837:5855   */\n      0x44\n      dup3\n      add\n        /* \"#utility.yul\":5830:5889   */\n      mstore\n        /* \"#utility.yul\":5906:5924   */\n      0x64\n      add\n        /* \"RouletteGame.sol\":21746:21811  require(isValidator(msg.sender), \"Only a validator can validate\") */\n      tag_292\n        /* \"#utility.yul\":5577:5930   */\n      jump\n        /* \"RouletteGame.sol\":21746:21811  require(isValidator(msg.sender), \"Only a validator can validate\") */\n    tag_362:\n        /* \"RouletteGame.sol\":21986:22009  uint256 usedBlockNumber */\n      0x00\n        /* \"RouletteGame.sol\":22012:22029  cutOffBlockNumber */\n      sload(0x10)\n        /* \"RouletteGame.sol\":22032:22033  1 */\n      0x01\n        /* \"RouletteGame.sol\":22012:22033  cutOffBlockNumber + 1 */\n      tag_365\n      swap2\n      swap1\n      tag_302\n      jump\t// in\n    tag_365:\n        /* \"RouletteGame.sol\":21986:22033  uint256 usedBlockNumber = cutOffBlockNumber + 1 */\n      swap1\n      pop\n        /* \"RouletteGame.sol\":22069:22095  blockhash(usedBlockNumber) */\n      dup1\n      blockhash\n      0x00\n      dup1\n      mload\n      0x20\n      data_d69d45dabe99b5c5a8f4a83c9436d54af7b9636defd7116e17fe66671e394dc9\n      dup4\n      codecopy\n      dup2\n      mload\n      swap2\n      mstore\n        /* \"RouletteGame.sol\":22201:22202  1 */\n      0x01\n        /* \"RouletteGame.sol\":22324:22350  _uint2str(usedBlockNumber) */\n      tag_366\n        /* \"RouletteGame.sol\":21986:22033  uint256 usedBlockNumber = cutOffBlockNumber + 1 */\n      dup5\n        /* \"RouletteGame.sol\":22324:22333  _uint2str */\n      tag_367\n        /* \"RouletteGame.sol\":22324:22350  _uint2str(usedBlockNumber) */\n      jump\t// in\n    tag_366:\n        /* \"RouletteGame.sol\":22398:22434  _bytes32ToHexString(randomBlockHash) */\n      tag_368\n        /* \"RouletteGame.sol\":22418:22433  randomBlockHash */\n      dup5\n        /* \"RouletteGame.sol\":22398:22417  _bytes32ToHexString */\n      tag_369\n        /* \"RouletteGame.sol\":22398:22434  _bytes32ToHexString(randomBlockHash) */\n      jump\t// in\n    tag_368:\n        /* \"RouletteGame.sol\":22240:22499  abi.encodePacked(... */\n      add(0x20, mload(0x40))\n      tag_370\n      swap3\n      swap2\n      swap1\n      tag_371\n      jump\t// in\n    tag_370:\n      0x40\n      dup1\n      mload\n      not(0x1f)\n      dup2\n      dup5\n      sub\n      add\n      dup2\n      mstore\n      dup3\n      dup3\n      mstore\n      0x20\n        /* \"RouletteGame.sol\":22614:22658  abi.encode(usedBlockNumber, randomBlockHash) */\n      dup4\n      add\n        /* \"#utility.yul\":6867:6892   */\n      dup8\n      swap1\n      mstore\n        /* \"#utility.yul\":6908:6926   */\n      swap1\n      dup3\n      add\n        /* \"#utility.yul\":6901:6935   */\n      dup6\n      swap1\n      mstore\n        /* \"RouletteGame.sol\":22240:22499  abi.encodePacked(... */\n      swap1\n        /* \"#utility.yul\":6840:6858   */\n      0x60\n      add\n        /* \"RouletteGame.sol\":22614:22658  abi.encode(usedBlockNumber, randomBlockHash) */\n      0x40\n      dup1\n      mload\n      not(0x1f)\n      dup2\n      dup5\n      sub\n      add\n      dup2\n      mstore\n      swap1\n      dup3\n      swap1\n      mstore\n        /* \"RouletteGame.sol\":22178:22668  ProofStep(... */\n      tag_374\n      swap4\n      swap3\n      swap2\n      tag_375\n      jump\t// in\n    tag_374:\n      mload(0x40)\n      dup1\n      swap2\n      sub\n      swap1\n      log1\n        /* \"RouletteGame.sol\":22883:22887  bets */\n      0x0f\n        /* \"RouletteGame.sol\":22883:22894  bets.length */\n      sload\n        /* \"RouletteGame.sol\":22841:22866  address[] memory addrList */\n      0x00\n      swap1\n        /* \"RouletteGame.sol\":22883:22898  bets.length + 1 */\n      tag_376\n      swap1\n        /* \"RouletteGame.sol\":22897:22898  1 */\n      0x01\n        /* \"RouletteGame.sol\":22883:22898  bets.length + 1 */\n      tag_302\n      jump\t// in\n    tag_376:\n        /* \"RouletteGame.sol\":22869:22899  new address[](bets.length + 1) */\n      0xffffffffffffffff\n      dup2\n      gt\n      iszero\n      tag_378\n      jumpi\n      tag_378\n      tag_379\n      jump\t// in\n    tag_378:\n      mload(0x40)\n      swap1\n      dup1\n      dup3\n      mstore\n      dup1\n      0x20\n      mul\n      0x20\n      add\n      dup3\n      add\n      0x40\n      mstore\n      dup1\n      iszero\n      tag_380\n      jumpi\n      dup2\n      0x20\n      add\n      0x20\n      dup3\n      mul\n      dup1\n      calldatasize\n      dup4\n      calldatacopy\n      add\n      swap1\n      pop\n    tag_380:\n      pop\n        /* \"RouletteGame.sol\":22923:22927  host */\n      sload(0x0c)\n        /* \"RouletteGame.sol\":22909:22920  addrList[0] */\n      dup2\n      mload\n        /* \"RouletteGame.sol\":22841:22899  address[] memory addrList = new address[](bets.length + 1) */\n      swap2\n      swap3\n      pop\n      sub(shl(0xa0, 0x01), 0x01)\n        /* \"RouletteGame.sol\":22923:22927  host */\n      and\n      swap1\n        /* \"RouletteGame.sol\":22841:22899  address[] memory addrList = new address[](bets.length + 1) */\n      dup3\n      swap1\n        /* \"RouletteGame.sol\":22923:22927  host */\n      0x00\n      swap1\n        /* \"RouletteGame.sol\":22909:22920  addrList[0] */\n      tag_382\n      jumpi\n      tag_382\n      tag_281\n      jump\t// in\n    tag_382:\n      0x20\n      mul\n      0x20\n      add\n      add\n        /* \"RouletteGame.sol\":22909:22927  addrList[0] = host */\n      swap1\n      sub(shl(0xa0, 0x01), 0x01)\n      and\n      swap1\n      dup2\n      sub(shl(0xa0, 0x01), 0x01)\n      and\n      dup2\n      mstore\n      pop\n      pop\n        /* \"RouletteGame.sol\":22942:22951  uint256 i */\n      0x00\n        /* \"RouletteGame.sol\":22937:23036  for (uint256 i = 0; i < bets.length; i++) {... */\n    tag_383:\n        /* \"RouletteGame.sol\":22961:22965  bets */\n      0x0f\n        /* \"RouletteGame.sol\":22961:22972  bets.length */\n      sload\n        /* \"RouletteGame.sol\":22957:22972  i < bets.length */\n      dup2\n      lt\n        /* \"RouletteGame.sol\":22937:23036  for (uint256 i = 0; i < bets.length; i++) {... */\n      iszero\n      tag_384\n      jumpi\n        /* \"RouletteGame.sol\":23011:23015  bets */\n      0x0f\n        /* \"RouletteGame.sol\":23016:23017  i */\n      dup2\n        /* \"RouletteGame.sol\":23011:23018  bets[i] */\n      dup2\n      sload\n      dup2\n      lt\n      tag_387\n      jumpi\n      tag_387\n      tag_281\n      jump\t// in\n    tag_387:\n      0x00\n      swap2\n      dup3\n      mstore\n      0x20\n      swap1\n      swap2\n      keccak256\n      0x02\n      swap1\n      swap2\n      mul\n      add\n        /* \"RouletteGame.sol\":23011:23025  bets[i].player */\n      sload\n      sub(shl(0xa0, 0x01), 0x01)\n      and\n        /* \"RouletteGame.sol\":22993:23001  addrList */\n      dup3\n        /* \"RouletteGame.sol\":23002:23007  i + 1 */\n      tag_389\n        /* \"RouletteGame.sol\":23002:23003  i */\n      dup4\n        /* \"RouletteGame.sol\":23011:23025  bets[i].player */\n      0x01\n        /* \"RouletteGame.sol\":23002:23007  i + 1 */\n      tag_302\n      jump\t// in\n    tag_389:\n        /* \"RouletteGame.sol\":22993:23008  addrList[i + 1] */\n      dup2\n      mload\n      dup2\n      lt\n      tag_391\n      jumpi\n      tag_391\n      tag_281\n      jump\t// in\n    tag_391:\n      sub(shl(0xa0, 0x01), 0x01)\n        /* \"RouletteGame.sol\":22993:23025  addrList[i + 1] = bets[i].player */\n      swap1\n      swap3\n      and\n        /* \"RouletteGame.sol\":22993:23008  addrList[i + 1] */\n      0x20\n      swap3\n      dup4\n      mul\n      swap2\n      swap1\n      swap2\n      add\n      swap1\n      swap2\n      add\n        /* \"RouletteGame.sol\":22993:23025  addrList[i + 1] = bets[i].player */\n      mstore\n        /* \"RouletteGame.sol\":22974:22977  i++ */\n      0x01\n      add\n        /* \"RouletteGame.sol\":22937:23036  for (uint256 i = 0; i < bets.length; i++) {... */\n      jump(tag_383)\n    tag_384:\n      pop\n        /* \"RouletteGame.sol\":23119:23147  string memory addrListString */\n      0x00\n        /* \"RouletteGame.sol\":23150:23178  _addressesToString(addrList) */\n      tag_392\n        /* \"RouletteGame.sol\":23169:23177  addrList */\n      dup3\n        /* \"RouletteGame.sol\":23150:23168  _addressesToString */\n      tag_393\n        /* \"RouletteGame.sol\":23150:23178  _addressesToString(addrList) */\n      jump\t// in\n    tag_392:\n        /* \"RouletteGame.sol\":23313:23317  host */\n      sload(0x0c)\n        /* \"RouletteGame.sol\":23296:23318  abi.encodePacked(host) */\n      mload(0x40)\n        /* \"#utility.yul\":3675:3677   */\n      0x60\n        /* \"#utility.yul\":3671:3686   */\n      swap2\n      swap1\n      swap2\n      shl\n      not(sub(shl(0x60, 0x01), 0x01))\n      and\n        /* \"RouletteGame.sol\":23296:23318  abi.encodePacked(host) */\n      0x20\n      dup3\n      add\n        /* \"#utility.yul\":3655:3721   */\n      mstore\n        /* \"RouletteGame.sol\":23119:23178  string memory addrListString = _addressesToString(addrList) */\n      swap1\n      swap2\n      pop\n        /* \"RouletteGame.sol\":23270:23293  bytes memory packedData */\n      0x00\n      swap1\n        /* \"#utility.yul\":3737:3749   */\n      0x34\n      add\n        /* \"RouletteGame.sol\":23296:23318  abi.encodePacked(host) */\n      mload(0x40)\n      0x20\n      dup2\n      dup4\n      sub\n      sub\n      dup2\n      mstore\n      swap1\n      0x40\n      mstore\n        /* \"RouletteGame.sol\":23270:23318  bytes memory packedData = abi.encodePacked(host) */\n      swap1\n      pop\n        /* \"RouletteGame.sol\":23333:23342  uint256 j */\n      0x00\n        /* \"RouletteGame.sol\":23328:23452  for (uint256 j = 0; j < bets.length; j++) {... */\n    tag_395:\n        /* \"RouletteGame.sol\":23352:23356  bets */\n      0x0f\n        /* \"RouletteGame.sol\":23352:23363  bets.length */\n      sload\n        /* \"RouletteGame.sol\":23348:23363  j < bets.length */\n      dup2\n      lt\n        /* \"RouletteGame.sol\":23328:23452  for (uint256 j = 0; j < bets.length; j++) {... */\n      iszero\n      tag_396\n      jumpi\n        /* \"RouletteGame.sol\":23414:23424  packedData */\n      dup2\n        /* \"RouletteGame.sol\":23426:23430  bets */\n      0x0f\n        /* \"RouletteGame.sol\":23431:23432  j */\n      dup3\n        /* \"RouletteGame.sol\":23426:23433  bets[j] */\n      dup2\n      sload\n      dup2\n      lt\n      tag_399\n      jumpi\n      tag_399\n      tag_281\n      jump\t// in\n    tag_399:\n      0x00\n      swap2\n      dup3\n      mstore\n      0x20\n      swap2\n      dup3\n      swap1\n      keccak256\n      0x02\n      swap1\n      swap2\n      mul\n      add\n        /* \"RouletteGame.sol\":23426:23440  bets[j].player */\n      sload\n        /* \"RouletteGame.sol\":23397:23441  abi.encodePacked(packedData, bets[j].player) */\n      mload(0x40)\n      tag_401\n      swap4\n      swap3\n      sub(shl(0xa0, 0x01), 0x01)\n        /* \"RouletteGame.sol\":23426:23440  bets[j].player */\n      swap1\n      swap3\n      and\n      swap2\n        /* \"RouletteGame.sol\":23397:23441  abi.encodePacked(packedData, bets[j].player) */\n      add\n      tag_317\n      jump\t// in\n    tag_401:\n      0x40\n      dup1\n      mload\n      not(0x1f)\n      dup2\n      dup5\n      sub\n      add\n      dup2\n      mstore\n      swap2\n      swap1\n      mstore\n      swap2\n      pop\n        /* \"RouletteGame.sol\":23365:23368  j++ */\n      0x01\n      add\n        /* \"RouletteGame.sol\":23328:23452  for (uint256 j = 0; j < bets.length; j++) {... */\n      jump(tag_395)\n    tag_396:\n      pop\n      0x00\n      dup1\n      mload\n      0x20\n      data_d69d45dabe99b5c5a8f4a83c9436d54af7b9636defd7116e17fe66671e394dc9\n      dup4\n      codecopy\n      dup2\n      mload\n      swap2\n      mstore\n        /* \"RouletteGame.sol\":23575:23576  2 */\n      0x02\n        /* \"RouletteGame.sol\":23707:23721  addrListString */\n      dup4\n        /* \"RouletteGame.sol\":23614:23739  abi.encodePacked(... */\n      add(0x20, mload(0x40))\n      tag_402\n      swap2\n      swap1\n      tag_403\n      jump\t// in\n    tag_402:\n      mload(0x40)\n      0x20\n      dup2\n      dup4\n      sub\n      sub\n      dup2\n      mstore\n      swap1\n      0x40\n      mstore\n        /* \"RouletteGame.sol\":23778:23786  addrList */\n      dup6\n        /* \"RouletteGame.sol\":23767:23787  abi.encode(addrList) */\n      add(0x20, mload(0x40))\n      tag_404\n      swap2\n      swap1\n      tag_405\n      jump\t// in\n    tag_404:\n      0x40\n      dup1\n      mload\n      not(0x1f)\n      dup2\n      dup5\n      sub\n      add\n      dup2\n      mstore\n      swap1\n      dup3\n      swap1\n      mstore\n        /* \"RouletteGame.sol\":23552:23810  ProofStep(... */\n      tag_406\n      swap4\n      swap3\n      swap2\n      tag_375\n      jump\t// in\n    tag_406:\n      mload(0x40)\n      dup1\n      swap2\n      sub\n      swap1\n      log1\n      0x00\n      dup1\n      mload\n      0x20\n      data_d69d45dabe99b5c5a8f4a83c9436d54af7b9636defd7116e17fe66671e394dc9\n      dup4\n      codecopy\n      dup2\n      mload\n      swap2\n      mstore\n        /* \"RouletteGame.sol\":23909:23910  3 */\n      0x03\n        /* \"RouletteGame.sol\":24043:24072  _bytesToHexString(packedData) */\n      tag_408\n        /* \"RouletteGame.sol\":24061:24071  packedData */\n      dup4\n        /* \"RouletteGame.sol\":24043:24060  _bytesToHexString */\n      tag_409\n        /* \"RouletteGame.sol\":24043:24072  _bytesToHexString(packedData) */\n      jump\t// in\n    tag_408:\n        /* \"RouletteGame.sol\":23948:24090  abi.encodePacked(... */\n      add(0x20, mload(0x40))\n      tag_410\n      swap2\n      swap1\n      tag_411\n      jump\t// in\n    tag_410:\n      0x40\n      dup1\n      mload\n      not(0x1f)\n      dup2\n      dup5\n      sub\n      add\n      dup2\n      mstore\n      swap1\n      dup3\n      swap1\n      mstore\n        /* \"RouletteGame.sol\":23886:24138  ProofStep(... */\n      tag_412\n      swap3\n      swap2\n        /* \"RouletteGame.sol\":24118:24128  packedData */\n      dup6\n      swap1\n        /* \"RouletteGame.sol\":23886:24138  ProofStep(... */\n      tag_375\n      jump\t// in\n    tag_412:\n      mload(0x40)\n      dup1\n      swap2\n      sub\n      swap1\n      log1\n        /* \"RouletteGame.sol\":24298:24316  bytes32 randomHash */\n      0x00\n        /* \"RouletteGame.sol\":24359:24374  randomBlockHash */\n      dup5\n        /* \"RouletteGame.sol\":24376:24386  packedData */\n      dup3\n        /* \"RouletteGame.sol\":24342:24387  abi.encodePacked(randomBlockHash, packedData) */\n      add(0x20, mload(0x40))\n      tag_414\n      swap3\n      swap2\n      swap1\n      tag_319\n      jump\t// in\n    tag_414:\n      mload(0x40)\n      0x20\n      dup2\n      dup4\n      sub\n      sub\n      dup2\n      mstore\n      swap1\n      0x40\n      mstore\n        /* \"RouletteGame.sol\":24319:24397  keccak256(... */\n      dup1\n      mload\n      swap1\n      0x20\n      add\n      keccak256\n        /* \"RouletteGame.sol\":24298:24397  bytes32 randomHash = keccak256(... */\n      swap1\n      pop\n      0x00\n      dup1\n      mload\n      0x20\n      data_d69d45dabe99b5c5a8f4a83c9436d54af7b9636defd7116e17fe66671e394dc9\n      dup4\n      codecopy\n      dup2\n      mload\n      swap2\n      mstore\n        /* \"RouletteGame.sol\":24435:24436  4 */\n      0x04\n        /* \"RouletteGame.sol\":24575:24606  _bytes32ToHexString(randomHash) */\n      tag_415\n        /* \"RouletteGame.sol\":24595:24605  randomHash */\n      dup4\n        /* \"RouletteGame.sol\":24575:24594  _bytes32ToHexString */\n      tag_369\n        /* \"RouletteGame.sol\":24575:24606  _bytes32ToHexString(randomHash) */\n      jump\t// in\n    tag_415:\n        /* \"RouletteGame.sol\":24474:24624  abi.encodePacked(... */\n      add(0x20, mload(0x40))\n      tag_416\n      swap2\n      swap1\n      tag_417\n      jump\t// in\n    tag_416:\n      0x40\n      dup1\n      mload\n      not(0x1f)\n      dup2\n      dup5\n      sub\n      add\n      dup2\n      mstore\n      dup3\n      dup3\n      mstore\n      0x20\n        /* \"RouletteGame.sol\":24652:24674  abi.encode(randomHash) */\n      dup4\n      add\n        /* \"#utility.yul\":1357:1382   */\n      dup7\n      swap1\n      mstore\n        /* \"RouletteGame.sol\":24474:24624  abi.encodePacked(... */\n      swap2\n        /* \"#utility.yul\":1330:1348   */\n      add\n        /* \"RouletteGame.sol\":24652:24674  abi.encode(randomHash) */\n      0x40\n      dup1\n      mload\n      not(0x1f)\n      dup2\n      dup5\n      sub\n      add\n      dup2\n      mstore\n      swap1\n      dup3\n      swap1\n      mstore\n        /* \"RouletteGame.sol\":24412:24684  ProofStep(... */\n      tag_420\n      swap4\n      swap3\n      swap2\n      tag_375\n      jump\t// in\n    tag_420:\n      mload(0x40)\n      dup1\n      swap2\n      sub\n      swap1\n      log1\n        /* \"RouletteGame.sol\":24885:24895  randomHash */\n      dup1\n        /* \"RouletteGame.sol\":24854:24874  uint256 randomNumber */\n      0x00\n        /* \"RouletteGame.sol\":24937:24964  randomNumber % RESULT_COUNT */\n      tag_422\n        /* \"RouletteGame.sol\":276:278  38 */\n      0x26\n        /* \"RouletteGame.sol\":24885:24895  randomHash */\n      dup4\n        /* \"RouletteGame.sol\":24937:24964  randomNumber % RESULT_COUNT */\n      tag_321\n      jump\t// in\n    tag_422:\n        /* \"RouletteGame.sol\":24906:24965  uint8 recomputedResult = uint8(randomNumber % RESULT_COUNT) */\n      swap1\n      pop\n      0x00\n      dup1\n      mload\n      0x20\n      data_d69d45dabe99b5c5a8f4a83c9436d54af7b9636defd7116e17fe66671e394dc9\n      dup4\n      codecopy\n      dup2\n      mload\n      swap2\n      mstore\n        /* \"RouletteGame.sol\":25004:25005  5 */\n      0x05\n        /* \"RouletteGame.sol\":25131:25154  _uint2str(RESULT_COUNT) */\n      tag_423\n        /* \"RouletteGame.sol\":276:278  38 */\n      0x26\n        /* \"RouletteGame.sol\":25131:25140  _uint2str */\n      tag_367\n        /* \"RouletteGame.sol\":25131:25154  _uint2str(RESULT_COUNT) */\n      jump\t// in\n    tag_423:\n        /* \"RouletteGame.sol\":25203:25230  _uint2str(recomputedResult) */\n      tag_424\n        /* \"RouletteGame.sol\":25213:25229  recomputedResult */\n      dup5\n        /* \"RouletteGame.sol\":25203:25230  _uint2str(recomputedResult) */\n      0xff\n      and\n        /* \"RouletteGame.sol\":25203:25212  _uint2str */\n      tag_367\n        /* \"RouletteGame.sol\":25203:25230  _uint2str(recomputedResult) */\n      jump\t// in\n    tag_424:\n        /* \"RouletteGame.sol\":25043:25248  abi.encodePacked(... */\n      add(0x20, mload(0x40))\n      tag_425\n      swap3\n      swap2\n      swap1\n      tag_426\n      jump\t// in\n    tag_425:\n      0x40\n      dup1\n      mload\n      not(0x1f)\n      dup2\n      dup5\n      sub\n      add\n      dup2\n      mstore\n      dup3\n      dup3\n      mstore\n        /* \"#utility.yul\":837:841   */\n      0xff\n        /* \"#utility.yul\":825:842   */\n      dup7\n      and\n        /* \"RouletteGame.sol\":25043:25248  abi.encodePacked(... */\n      0x20\n        /* \"RouletteGame.sol\":25276:25304  abi.encode(recomputedResult) */\n      dup5\n      add\n        /* \"#utility.yul\":807:843   */\n      mstore\n        /* \"RouletteGame.sol\":25043:25248  abi.encodePacked(... */\n      swap2\n        /* \"#utility.yul\":780:798   */\n      add\n        /* \"RouletteGame.sol\":25276:25304  abi.encode(recomputedResult) */\n      0x40\n      dup1\n      mload\n      not(0x1f)\n      dup2\n      dup5\n      sub\n      add\n      dup2\n      mstore\n      swap1\n      dup3\n      swap1\n      mstore\n        /* \"RouletteGame.sol\":24981:25314  ProofStep(... */\n      tag_428\n      swap4\n      swap3\n      swap2\n      tag_375\n      jump\t// in\n    tag_428:\n      mload(0x40)\n      dup1\n      swap2\n      sub\n      swap1\n      log1\n        /* \"RouletteGame.sol\":25613:25619  result */\n      sload(0x11)\n      0xff\n        /* \"RouletteGame.sol\":25593:25619  recomputedResult != result */\n      dup3\n      dup2\n      and\n        /* \"RouletteGame.sol\":25613:25619  result */\n      swap2\n      and\n        /* \"RouletteGame.sol\":25593:25619  recomputedResult != result */\n      eq\n        /* \"RouletteGame.sol\":25589:27482  if (recomputedResult != result) {... */\n      tag_430\n      jumpi\n        /* \"RouletteGame.sol\":25674:25684  msg.sender */\n      caller\n        /* \"RouletteGame.sol\":25658:25685  mismatchSigners[msg.sender] */\n      0x00\n      swap1\n      dup2\n      mstore\n        /* \"RouletteGame.sol\":25658:25673  mismatchSigners */\n      0x16\n        /* \"RouletteGame.sol\":25658:25685  mismatchSigners[msg.sender] */\n      0x20\n      mstore\n      0x40\n      swap1\n      keccak256\n      sload\n      0xff\n      and\n        /* \"RouletteGame.sol\":25657:25685  !mismatchSigners[msg.sender] */\n      iszero\n        /* \"RouletteGame.sol\":25636:25748  require(... */\n      tag_431\n      jumpi\n      mload(0x40)\n      shl(0xe5, 0x461bcd)\n      dup2\n      mstore\n        /* \"#utility.yul\":12513:12515   */\n      0x20\n        /* \"RouletteGame.sol\":25636:25748  require(... */\n      0x04\n      dup3\n      add\n        /* \"#utility.yul\":12495:12516   */\n      mstore\n        /* \"#utility.yul\":12552:12554   */\n      0x21\n        /* \"#utility.yul\":12532:12550   */\n      0x24\n      dup3\n      add\n        /* \"#utility.yul\":12525:12555   */\n      mstore\n        /* \"#utility.yul\":12591:12625   */\n      0x56616c696461746f7220616c7265616479207369676e6564206d69736d617463\n        /* \"#utility.yul\":12571:12589   */\n      0x44\n      dup3\n      add\n        /* \"#utility.yul\":12564:12626   */\n      mstore\n      shl(0xfb, 0x0d)\n        /* \"#utility.yul\":12642:12660   */\n      0x64\n      dup3\n      add\n        /* \"#utility.yul\":12635:12666   */\n      mstore\n        /* \"#utility.yul\":12683:12702   */\n      0x84\n      add\n        /* \"RouletteGame.sol\":25636:25748  require(... */\n      tag_292\n        /* \"#utility.yul\":12311:12708   */\n      jump\n        /* \"RouletteGame.sol\":25636:25748  require(... */\n    tag_431:\n        /* \"RouletteGame.sol\":25810:25830  mismatchedValidators */\n      0x14\n        /* \"RouletteGame.sol\":25810:25847  mismatchedValidators.push(msg.sender) */\n      dup1\n      sload\n      0x01\n      dup1\n      dup3\n      add\n      swap1\n      swap3\n      sstore\n      0xce6d7b5282bd9a3661ae061feed1dbda4e52ab073b1f9285be6e155d9c38d4ec\n      add\n      dup1\n      sload\n      not(sub(shl(0xa0, 0x01), 0x01))\n      and\n        /* \"RouletteGame.sol\":25836:25846  msg.sender */\n      caller\n        /* \"RouletteGame.sol\":25810:25847  mismatchedValidators.push(msg.sender) */\n      swap1\n      dup2\n      or\n      swap1\n      swap2\n      sstore\n      0x00\n        /* \"RouletteGame.sol\":25861:25888  mismatchSigners[msg.sender] */\n      swap1\n      dup2\n      mstore\n        /* \"RouletteGame.sol\":25861:25876  mismatchSigners */\n      0x16\n        /* \"RouletteGame.sol\":25810:25847  mismatchedValidators.push(msg.sender) */\n      0x20\n        /* \"RouletteGame.sol\":25861:25888  mismatchSigners[msg.sender] */\n      swap1\n      dup2\n      mstore\n      0x40\n      swap2\n      dup3\n      swap1\n      keccak256\n        /* \"RouletteGame.sol\":25861:25895  mismatchSigners[msg.sender] = true */\n      dup1\n      sload\n      not(0xff)\n      and\n      swap1\n      swap4\n      or\n      swap1\n      swap3\n      sstore\n        /* \"RouletteGame.sol\":25947:25953  result */\n      sload(0x11)\n        /* \"RouletteGame.sol\":25914:25954  ResultMismatch(recomputedResult, result) */\n      dup2\n      mload\n        /* \"RouletteGame.sol\":25861:25895  mismatchSigners[msg.sender] = true */\n      0xff\n        /* \"#utility.yul\":12897:12914   */\n      dup6\n      dup2\n      and\n        /* \"#utility.yul\":12879:12915   */\n      dup3\n      mstore\n        /* \"RouletteGame.sol\":25947:25953  result */\n      swap1\n      swap2\n      and\n        /* \"#utility.yul\":12931:12949   */\n      swap3\n      dup2\n      add\n        /* \"#utility.yul\":12924:12969   */\n      swap3\n      swap1\n      swap3\n      mstore\n        /* \"RouletteGame.sol\":25914:25954  ResultMismatch(recomputedResult, result) */\n      0x4ba207caeddfefdadccb23fbbf2401bc61a191bb9f71680b9c0cd8f84901186a\n      swap2\n        /* \"#utility.yul\":12852:12870   */\n      add\n        /* \"RouletteGame.sol\":25914:25954  ResultMismatch(recomputedResult, result) */\n      mload(0x40)\n      dup1\n      swap2\n      sub\n      swap1\n      log1\n        /* \"RouletteGame.sol\":26004:26022  validate_threshold */\n      sload(0x11)\n        /* \"RouletteGame.sol\":25973:25993  mismatchedValidators */\n      0x14\n        /* \"RouletteGame.sol\":25973:26000  mismatchedValidators.length */\n      sload\n        /* \"RouletteGame.sol\":26004:26022  validate_threshold */\n      0x0100\n      swap1\n      swap2\n      div\n      0xff\n      and\n      gt\n        /* \"RouletteGame.sol\":25969:26801  if (mismatchedValidators.length >= validate_threshold) {... */\n      tag_437\n      jumpi\n        /* \"RouletteGame.sol\":26077:26086  uint256 i */\n      0x00\n        /* \"RouletteGame.sol\":26072:26478  for (uint256 i = 0; i < bets.length; i++) {... */\n    tag_438:\n        /* \"RouletteGame.sol\":26096:26100  bets */\n      0x0f\n        /* \"RouletteGame.sol\":26096:26107  bets.length */\n      sload\n        /* \"RouletteGame.sol\":26092:26107  i < bets.length */\n      dup2\n      lt\n        /* \"RouletteGame.sol\":26072:26478  for (uint256 i = 0; i < bets.length; i++) {... */\n      iszero\n      tag_439\n      jumpi\n        /* \"RouletteGame.sol\":26132:26144  Bet memory b */\n      0x00\n        /* \"RouletteGame.sol\":26147:26151  bets */\n      0x0f\n        /* \"RouletteGame.sol\":26152:26153  i */\n      dup3\n        /* \"RouletteGame.sol\":26147:26154  bets[i] */\n      dup2\n      sload\n      dup2\n      lt\n      tag_442\n      jumpi\n      tag_442\n      tag_281\n      jump\t// in\n    tag_442:\n      0x00\n      swap2\n      dup3\n      mstore\n      0x20\n      dup1\n      dup4\n      keccak256\n        /* \"RouletteGame.sol\":26132:26154  Bet memory b = bets[i] */\n      0x40\n      dup1\n      mload\n      0x60\n      dup2\n      add\n      dup3\n      mstore\n        /* \"RouletteGame.sol\":26147:26154  bets[i] */\n      0x02\n      swap5\n      swap1\n      swap5\n      mul\n      swap1\n      swap2\n      add\n        /* \"RouletteGame.sol\":26132:26154  Bet memory b = bets[i] */\n      dup1\n      sload\n      sub(shl(0xa0, 0x01), 0x01)\n      dup2\n      and\n      dup1\n      dup7\n      mstore\n      shl(0xa0, 0x01)\n      swap1\n      swap2\n      div\n      0xff\n      and\n      swap4\n      dup6\n      add\n      swap4\n      swap1\n      swap4\n      mstore\n      0x01\n      add\n      sload\n      dup4\n      dup3\n      add\n      dup2\n      swap1\n      mstore\n        /* \"RouletteGame.sol\":26241:26275  b.player.call{value: b.amount}(\"\") */\n      swap1\n      mload\n        /* \"RouletteGame.sol\":26132:26154  Bet memory b = bets[i] */\n      swap3\n      swap5\n      pop\n      swap1\n      swap2\n        /* \"RouletteGame.sol\":26241:26275  b.player.call{value: b.amount}(\"\") */\n      0x00\n      mload(0x40)\n      dup1\n      dup4\n      sub\n      dup2\n      dup6\n      dup8\n      gas\n      call\n      swap3\n      pop\n      pop\n      pop\n      returndatasize\n      dup1\n      0x00\n      dup2\n      eq\n      tag_448\n      jumpi\n      mload(0x40)\n      swap2\n      pop\n      and(add(returndatasize, 0x3f), not(0x1f))\n      dup3\n      add\n      0x40\n      mstore\n      returndatasize\n      dup3\n      mstore\n      returndatasize\n      0x00\n      0x20\n      dup5\n      add\n      returndatacopy\n      jump(tag_447)\n    tag_448:\n      0x60\n      swap2\n      pop\n    tag_447:\n      pop\n      pop\n        /* \"RouletteGame.sol\":26382:26390  b.player */\n      dup3\n      mload\n        /* \"RouletteGame.sol\":26392:26400  b.amount */\n      0x40\n      dup1\n      dup6\n      add\n      mload\n        /* \"RouletteGame.sol\":26360:26401  BetCancelled(\"Refund\",b.player, b.amount) */\n      dup2\n      mload\n        /* \"#utility.yul\":13402:13423   */\n      dup3\n      dup2\n      mstore\n        /* \"#utility.yul\":13459:13460   */\n      0x06\n        /* \"#utility.yul\":13439:13457   */\n      swap3\n      dup2\n      add\n        /* \"#utility.yul\":13432:13461   */\n      swap3\n      swap1\n      swap3\n      mstore\n      shl(0xd2, 0x1499599d5b99)\n        /* \"#utility.yul\":13492:13494   */\n      0x60\n        /* \"#utility.yul\":13477:13495   */\n      dup4\n      add\n        /* \"#utility.yul\":13470:13506   */\n      mstore\n        /* \"#utility.yul\":13573:13577   */\n      0x20\n        /* \"#utility.yul\":13558:13578   */\n      dup3\n      add\n        /* \"#utility.yul\":13551:13587   */\n      mstore\n        /* \"RouletteGame.sol\":26222:26275  (bool success, ) = b.player.call{value: b.amount}(\"\") */\n      swap2\n      swap3\n      pop\n      sub(shl(0xa0, 0x01), 0x01)\n        /* \"RouletteGame.sol\":26360:26401  BetCancelled(\"Refund\",b.player, b.amount) */\n      and\n      swap1\n      0xadd681b72722e953fa4e18f6819d1cb78d0ec24ce1ee69a6c7ebdc6f29ac10d8\n      swap1\n        /* \"#utility.yul\":13538:13541   */\n      0x80\n        /* \"#utility.yul\":13523:13542   */\n      add\n        /* \"RouletteGame.sol\":26360:26401  BetCancelled(\"Refund\",b.player, b.amount) */\n      mload(0x40)\n      dup1\n      swap2\n      sub\n      swap1\n      log2\n        /* \"RouletteGame.sol\":26427:26434  success */\n      dup1\n        /* \"RouletteGame.sol\":26419:26463  require(success, \"Refund to gambler failed\") */\n      tag_451\n      jumpi\n      mload(0x40)\n      shl(0xe5, 0x461bcd)\n      dup2\n      mstore\n        /* \"#utility.yul\":13800:13802   */\n      0x20\n        /* \"RouletteGame.sol\":26419:26463  require(success, \"Refund to gambler failed\") */\n      0x04\n      dup3\n      add\n        /* \"#utility.yul\":13782:13803   */\n      mstore\n        /* \"#utility.yul\":13839:13841   */\n      0x18\n        /* \"#utility.yul\":13819:13837   */\n      0x24\n      dup3\n      add\n        /* \"#utility.yul\":13812:13842   */\n      mstore\n        /* \"#utility.yul\":13878:13904   */\n      0x526566756e6420746f2067616d626c6572206661696c65640000000000000000\n        /* \"#utility.yul\":13858:13876   */\n      0x44\n      dup3\n      add\n        /* \"#utility.yul\":13851:13905   */\n      mstore\n        /* \"#utility.yul\":13922:13940   */\n      0x64\n      add\n        /* \"RouletteGame.sol\":26419:26463  require(success, \"Refund to gambler failed\") */\n      tag_292\n        /* \"#utility.yul\":13598:13946   */\n      jump\n        /* \"RouletteGame.sol\":26419:26463  require(success, \"Refund to gambler failed\") */\n    tag_451:\n      pop\n      pop\n        /* \"RouletteGame.sol\":26109:26112  i++ */\n      0x01\n      add\n        /* \"RouletteGame.sol\":26072:26478  for (uint256 i = 0; i < bets.length; i++) {... */\n      jump(tag_438)\n    tag_439:\n      pop\n        /* \"RouletteGame.sol\":26526:26530  host */\n      sload(0x0c)\n        /* \"RouletteGame.sol\":26496:26554  BetCancelled(\"Refund to host\",host, address(this).balance) */\n      0x40\n      dup1\n      mload\n        /* \"#utility.yul\":14163:14184   */\n      dup2\n      dup2\n      mstore\n        /* \"#utility.yul\":14220:14222   */\n      0x0e\n        /* \"#utility.yul\":14200:14218   */\n      dup2\n      dup4\n      add\n        /* \"#utility.yul\":14193:14223   */\n      mstore\n      shl(0x92, 0x1499599d5b99081d1bc81a1bdcdd)\n        /* \"#utility.yul\":14254:14256   */\n      0x60\n        /* \"#utility.yul\":14239:14257   */\n      dup3\n      add\n        /* \"#utility.yul\":14232:14276   */\n      mstore\n        /* \"RouletteGame.sol\":26532:26553  address(this).balance */\n      selfbalance\n        /* \"#utility.yul\":14343:14347   */\n      0x20\n        /* \"#utility.yul\":14328:14348   */\n      dup3\n      add\n        /* \"#utility.yul\":14321:14357   */\n      mstore\n        /* \"RouletteGame.sol\":26496:26554  BetCancelled(\"Refund to host\",host, address(this).balance) */\n      swap1\n      mload\n      sub(shl(0xa0, 0x01), 0x01)\n        /* \"RouletteGame.sol\":26526:26530  host */\n      swap1\n      swap3\n      and\n      swap2\n        /* \"RouletteGame.sol\":26496:26554  BetCancelled(\"Refund to host\",host, address(this).balance) */\n      0xadd681b72722e953fa4e18f6819d1cb78d0ec24ce1ee69a6c7ebdc6f29ac10d8\n      swap2\n      dup2\n      swap1\n      sub\n        /* \"#utility.yul\":14308:14311   */\n      0x80\n        /* \"RouletteGame.sol\":26496:26554  BetCancelled(\"Refund to host\",host, address(this).balance) */\n      add\n      swap1\n      log2\n        /* \"RouletteGame.sol\":26576:26580  host */\n      sload(0x0c)\n        /* \"RouletteGame.sol\":26568:26613  payable(host).transfer(address(this).balance) */\n      mload(0x40)\n      sub(shl(0xa0, 0x01), 0x01)\n        /* \"RouletteGame.sol\":26576:26580  host */\n      swap1\n      swap2\n      and\n      swap1\n        /* \"RouletteGame.sol\":26591:26612  address(this).balance */\n      selfbalance\n        /* \"RouletteGame.sol\":26568:26613  payable(host).transfer(address(this).balance) */\n      dup1\n      iszero\n      0x08fc\n      mul\n      swap2\n        /* \"RouletteGame.sol\":26576:26580  host */\n      0x00\n        /* \"RouletteGame.sol\":26568:26613  payable(host).transfer(address(this).balance) */\n      dup2\n        /* \"RouletteGame.sol\":26576:26580  host */\n      dup2\n        /* \"RouletteGame.sol\":26568:26613  payable(host).transfer(address(this).balance) */\n      dup2\n        /* \"RouletteGame.sol\":26591:26612  address(this).balance */\n      dup6\n        /* \"RouletteGame.sol\":26576:26580  host */\n      dup9\n        /* \"RouletteGame.sol\":26568:26613  payable(host).transfer(address(this).balance) */\n      dup9\n      call\n      swap4\n      pop\n      pop\n      pop\n      pop\n      iszero\n      dup1\n      iszero\n      tag_457\n      jumpi\n      returndatasize\n      0x00\n      dup1\n      returndatacopy\n      revert(0x00, returndatasize)\n    tag_457:\n      pop\n      pop\n        /* \"RouletteGame.sol\":26687:26693  status */\n      0x0e\n        /* \"RouletteGame.sol\":26687:26711  status = STATUS_CANCELED */\n      dup1\n      sload\n      not(0xff)\n      and\n        /* \"RouletteGame.sol\":11085:11086  5 */\n      0x05\n        /* \"RouletteGame.sol\":26687:26711  status = STATUS_CANCELED */\n      or\n      swap1\n      sstore\n      pop\n      pop\n      pop\n      pop\n      pop\n      pop\n      pop\n        /* \"RouletteGame.sol\":21305:27497  function validateResult() public {... */\n      jump\t// out\n        /* \"RouletteGame.sol\":25969:26801  if (mismatchedValidators.length >= validate_threshold) {... */\n    tag_437:\n        /* \"RouletteGame.sol\":25589:27482  if (recomputedResult != result) {... */\n      jump(tag_468)\n    tag_430:\n        /* \"RouletteGame.sol\":26866:26876  msg.sender */\n      caller\n        /* \"RouletteGame.sol\":26853:26877  matchSigners[msg.sender] */\n      0x00\n      swap1\n      dup2\n      mstore\n        /* \"RouletteGame.sol\":26853:26865  matchSigners */\n      0x15\n        /* \"RouletteGame.sol\":26853:26877  matchSigners[msg.sender] */\n      0x20\n      mstore\n      0x40\n      swap1\n      keccak256\n      sload\n      0xff\n      and\n        /* \"RouletteGame.sol\":26852:26877  !matchSigners[msg.sender] */\n      iszero\n        /* \"RouletteGame.sol\":26830:26939  require(... */\n      tag_459\n      jumpi\n      mload(0x40)\n      shl(0xe5, 0x461bcd)\n      dup2\n      mstore\n        /* \"#utility.yul\":14570:14572   */\n      0x20\n        /* \"RouletteGame.sol\":26830:26939  require(... */\n      0x04\n      dup3\n      add\n        /* \"#utility.yul\":14552:14573   */\n      dup2\n      swap1\n      mstore\n        /* \"#utility.yul\":14589:14607   */\n      0x24\n      dup3\n      add\n        /* \"#utility.yul\":14582:14612   */\n      mstore\n        /* \"#utility.yul\":14648:14682   */\n      0x56616c696461746f7220616c7265616479207369676e6564206d617463686564\n        /* \"#utility.yul\":14628:14646   */\n      0x44\n      dup3\n      add\n        /* \"#utility.yul\":14621:14683   */\n      mstore\n        /* \"#utility.yul\":14700:14718   */\n      0x64\n      add\n        /* \"RouletteGame.sol\":26830:26939  require(... */\n      tag_292\n        /* \"#utility.yul\":14368:14724   */\n      jump\n        /* \"RouletteGame.sol\":26830:26939  require(... */\n    tag_459:\n        /* \"RouletteGame.sol\":26994:27000  result */\n      sload(0x11)\n      0xff\n        /* \"RouletteGame.sol\":26974:27000  recomputedResult == result */\n      dup3\n      dup2\n      and\n        /* \"RouletteGame.sol\":26994:27000  result */\n      swap2\n      and\n        /* \"RouletteGame.sol\":26974:27000  recomputedResult == result */\n      eq\n        /* \"RouletteGame.sol\":26953:27064  require(... */\n      tag_462\n      jumpi\n      mload(0x40)\n      shl(0xe5, 0x461bcd)\n      dup2\n      mstore\n        /* \"#utility.yul\":14931:14933   */\n      0x20\n        /* \"RouletteGame.sol\":26953:27064  require(... */\n      0x04\n      dup3\n      add\n        /* \"#utility.yul\":14913:14934   */\n      mstore\n        /* \"#utility.yul\":14970:14972   */\n      0x22\n        /* \"#utility.yul\":14950:14968   */\n      0x24\n      dup3\n      add\n        /* \"#utility.yul\":14943:14973   */\n      mstore\n        /* \"#utility.yul\":15009:15043   */\n      0x53746f72656420726573756c7420213d207265636f6d70757465642072657375\n        /* \"#utility.yul\":14989:15007   */\n      0x44\n      dup3\n      add\n        /* \"#utility.yul\":14982:15044   */\n      mstore\n      shl(0xf2, 0x1b1d)\n        /* \"#utility.yul\":15060:15078   */\n      0x64\n      dup3\n      add\n        /* \"#utility.yul\":15053:15085   */\n      mstore\n        /* \"#utility.yul\":15102:15121   */\n      0x84\n      add\n        /* \"RouletteGame.sol\":26953:27064  require(... */\n      tag_292\n        /* \"#utility.yul\":14729:15127   */\n      jump\n        /* \"RouletteGame.sol\":26953:27064  require(... */\n    tag_462:\n        /* \"RouletteGame.sol\":27128:27145  matchedValidators */\n      0x13\n        /* \"RouletteGame.sol\":27128:27162  matchedValidators.push(msg.sender) */\n      dup1\n      sload\n      0x01\n      dup2\n      dup2\n      add\n      dup4\n      sstore\n      0x66de8ffda797e3de9c05e8fc57b3bf0ec28a930d40b0d285d93c06501cf6a090\n      swap1\n      swap2\n      add\n      dup1\n      sload\n      not(sub(shl(0xa0, 0x01), 0x01))\n      and\n        /* \"RouletteGame.sol\":27151:27161  msg.sender */\n      caller\n        /* \"RouletteGame.sol\":27128:27162  matchedValidators.push(msg.sender) */\n      swap1\n      dup2\n      or\n      swap1\n      swap2\n      sstore\n      0x00\n        /* \"RouletteGame.sol\":27176:27200  matchSigners[msg.sender] */\n      swap1\n      dup2\n      mstore\n        /* \"RouletteGame.sol\":27176:27188  matchSigners */\n      0x15\n        /* \"RouletteGame.sol\":27128:27162  matchedValidators.push(msg.sender) */\n      0x20\n        /* \"RouletteGame.sol\":27176:27200  matchSigners[msg.sender] */\n      mstore\n      0x40\n      swap1\n      keccak256\n        /* \"RouletteGame.sol\":27176:27207  matchSigners[msg.sender] = true */\n      dup1\n      sload\n      not(0xff)\n      and\n      swap1\n      swap2\n      or\n      swap1\n      sstore\n        /* \"RouletteGame.sol\":27312:27330  validate_threshold */\n      sload(0x11)\n        /* \"RouletteGame.sol\":27284:27308  matchedValidators.length */\n      swap1\n      sload\n        /* \"RouletteGame.sol\":27128:27162  matchedValidators.push(msg.sender) */\n      0x0100\n        /* \"RouletteGame.sol\":27312:27330  validate_threshold */\n      swap1\n      swap2\n      div\n        /* \"RouletteGame.sol\":27176:27207  matchSigners[msg.sender] = true */\n      0xff\n        /* \"RouletteGame.sol\":27312:27330  validate_threshold */\n      and\n      gt\n        /* \"RouletteGame.sol\":27280:27472  if (matchedValidators.length >= validate_threshold) {... */\n      tag_468\n      jumpi\n        /* \"RouletteGame.sol\":27371:27377  result */\n      sload(0x11)\n        /* \"RouletteGame.sol\":27355:27378  ResultValidated(result) */\n      mload(0x40)\n        /* \"RouletteGame.sol\":27371:27377  result */\n      0xff\n      swap1\n      swap2\n      and\n        /* \"#utility.yul\":807:843   */\n      dup2\n      mstore\n        /* \"RouletteGame.sol\":27355:27378  ResultValidated(result) */\n      0x5f438d100d0c0fb18e88113110bf411fd18c9a557c03e394cd32997b5055f9ae\n      swap1\n        /* \"#utility.yul\":795:797   */\n      0x20\n        /* \"#utility.yul\":780:798   */\n      add\n        /* \"RouletteGame.sol\":27355:27378  ResultValidated(result) */\n      mload(0x40)\n      dup1\n      swap2\n      sub\n      swap1\n      log1\n        /* \"RouletteGame.sol\":27396:27402  status */\n      0x0e\n        /* \"RouletteGame.sol\":27396:27428  status = STATUS_RESULT_VALIDATED */\n      dup1\n      sload\n      not(0xff)\n      and\n        /* \"RouletteGame.sol\":11037:11038  4 */\n      0x04\n        /* \"RouletteGame.sol\":27396:27428  status = STATUS_RESULT_VALIDATED */\n      or\n      swap1\n      sstore\n        /* \"RouletteGame.sol\":27446:27457  settleBet() */\n      tag_468\n        /* \"RouletteGame.sol\":27446:27455  settleBet */\n      tag_184\n        /* \"RouletteGame.sol\":27446:27457  settleBet() */\n      jump\t// in\n    tag_468:\n        /* \"RouletteGame.sol\":21338:27497  {... */\n      pop\n      pop\n      pop\n      pop\n      pop\n      pop\n      pop\n      pop\n        /* \"RouletteGame.sol\":21305:27497  function validateResult() public {... */\n      jump\t// out\n        /* \"RouletteGame.sol\":17916:18580  function placeBet(uint8 option) public payable {... */\n    tag_136:\n        /* \"RouletteGame.sol\":17991:17993  49 */\n      0x31\n        /* \"RouletteGame.sol\":17981:17987  option */\n      dup2\n        /* \"RouletteGame.sol\":17981:17993  option <= 49 */\n      0xff\n      and\n      gt\n      iszero\n        /* \"RouletteGame.sol\":17973:18029  require(option <= 49, \"Option must be between 0 and 37\") */\n      tag_470\n      jumpi\n      mload(0x40)\n      shl(0xe5, 0x461bcd)\n      dup2\n      mstore\n        /* \"#utility.yul\":15334:15336   */\n      0x20\n        /* \"RouletteGame.sol\":17973:18029  require(option <= 49, \"Option must be between 0 and 37\") */\n      0x04\n      dup3\n      add\n        /* \"#utility.yul\":15316:15337   */\n      mstore\n        /* \"#utility.yul\":15373:15375   */\n      0x1f\n        /* \"#utility.yul\":15353:15371   */\n      0x24\n      dup3\n      add\n        /* \"#utility.yul\":15346:15376   */\n      mstore\n        /* \"#utility.yul\":15412:15445   */\n      0x4f7074696f6e206d757374206265206265747765656e203020616e6420333700\n        /* \"#utility.yul\":15392:15410   */\n      0x44\n      dup3\n      add\n        /* \"#utility.yul\":15385:15446   */\n      mstore\n        /* \"#utility.yul\":15463:15481   */\n      0x64\n      add\n        /* \"RouletteGame.sol\":17973:18029  require(option <= 49, \"Option must be between 0 and 37\") */\n      tag_292\n        /* \"#utility.yul\":15132:15487   */\n      jump\n        /* \"RouletteGame.sol\":17973:18029  require(option <= 49, \"Option must be between 0 and 37\") */\n    tag_470:\n        /* \"RouletteGame.sol\":18060:18066  minBet */\n      sload(0x0d)\n        /* \"RouletteGame.sol\":18047:18056  msg.value */\n      callvalue\n        /* \"RouletteGame.sol\":18047:18066  msg.value >= minBet */\n      lt\n      iszero\n        /* \"RouletteGame.sol\":18039:18106  require(msg.value >= minBet, \"Bet amount is below the minimum bet\") */\n      tag_473\n      jumpi\n      mload(0x40)\n      shl(0xe5, 0x461bcd)\n      dup2\n      mstore\n        /* \"#utility.yul\":15694:15696   */\n      0x20\n        /* \"RouletteGame.sol\":18039:18106  require(msg.value >= minBet, \"Bet amount is below the minimum bet\") */\n      0x04\n      dup3\n      add\n        /* \"#utility.yul\":15676:15697   */\n      mstore\n        /* \"#utility.yul\":15733:15735   */\n      0x23\n        /* \"#utility.yul\":15713:15731   */\n      0x24\n      dup3\n      add\n        /* \"#utility.yul\":15706:15736   */\n      mstore\n        /* \"#utility.yul\":15772:15806   */\n      0x42657420616d6f756e742069732062656c6f7720746865206d696e696d756d20\n        /* \"#utility.yul\":15752:15770   */\n      0x44\n      dup3\n      add\n        /* \"#utility.yul\":15745:15807   */\n      mstore\n      shl(0xea, 0x18995d)\n        /* \"#utility.yul\":15823:15841   */\n      0x64\n      dup3\n      add\n        /* \"#utility.yul\":15816:15849   */\n      mstore\n        /* \"#utility.yul\":15866:15885   */\n      0x84\n      add\n        /* \"RouletteGame.sol\":18039:18106  require(msg.value >= minBet, \"Bet amount is below the minimum bet\") */\n      tag_292\n        /* \"#utility.yul\":15492:15891   */\n      jump\n        /* \"RouletteGame.sol\":18039:18106  require(msg.value >= minBet, \"Bet amount is below the minimum bet\") */\n    tag_473:\n        /* \"RouletteGame.sol\":10246:10248  10 */\n      0x0a\n        /* \"RouletteGame.sol\":18166:18200  address(this).balance * PAYOUT_MAX */\n      tag_476\n        /* \"RouletteGame.sol\":10118:10121  360 */\n      0x0168\n        /* \"RouletteGame.sol\":18166:18187  address(this).balance */\n      selfbalance\n        /* \"RouletteGame.sol\":18166:18200  address(this).balance * PAYOUT_MAX */\n      tag_477\n      jump\t// in\n    tag_476:\n        /* \"RouletteGame.sol\":18165:18223  (address(this).balance * PAYOUT_MAX) / PAYOUT_SCALE_FACTOR */\n      tag_478\n      swap2\n      swap1\n      tag_479\n      jump\t// in\n    tag_478:\n        /* \"RouletteGame.sol\":18137:18146  msg.value */\n      callvalue\n        /* \"RouletteGame.sol\":18137:18223  msg.value <... */\n      lt\n        /* \"RouletteGame.sol\":18116:18284  require(... */\n      tag_480\n      jumpi\n      mload(0x40)\n      shl(0xe5, 0x461bcd)\n      dup2\n      mstore\n        /* \"#utility.yul\":16396:16398   */\n      0x20\n        /* \"RouletteGame.sol\":18116:18284  require(... */\n      0x04\n      dup3\n      add\n        /* \"#utility.yul\":16378:16399   */\n      mstore\n        /* \"#utility.yul\":16435:16437   */\n      0x23\n        /* \"#utility.yul\":16415:16433   */\n      0x24\n      dup3\n      add\n        /* \"#utility.yul\":16408:16438   */\n      mstore\n        /* \"#utility.yul\":16474:16508   */\n      0x42657420616d6f756e742069732061626f766520746865206d6178696d756d20\n        /* \"#utility.yul\":16454:16472   */\n      0x44\n      dup3\n      add\n        /* \"#utility.yul\":16447:16509   */\n      mstore\n      shl(0xea, 0x18995d)\n        /* \"#utility.yul\":16525:16543   */\n      0x64\n      dup3\n      add\n        /* \"#utility.yul\":16518:16551   */\n      mstore\n        /* \"#utility.yul\":16568:16587   */\n      0x84\n      add\n        /* \"RouletteGame.sol\":18116:18284  require(... */\n      tag_292\n        /* \"#utility.yul\":16194:16593   */\n      jump\n        /* \"RouletteGame.sol\":18116:18284  require(... */\n    tag_480:\n        /* \"RouletteGame.sol\":18305:18365  Bet({player: msg.sender, option: option, amount: msg.value}) */\n      0x40\n      dup1\n      mload\n      0x60\n      dup2\n      add\n      dup3\n      mstore\n        /* \"RouletteGame.sol\":18318:18328  msg.sender */\n      caller\n        /* \"RouletteGame.sol\":18305:18365  Bet({player: msg.sender, option: option, amount: msg.value}) */\n      dup1\n      dup3\n      mstore\n      0xff\n      dup5\n      dup2\n      and\n      0x20\n      dup1\n      dup6\n      add\n      dup3\n      dup2\n      mstore\n        /* \"RouletteGame.sol\":18354:18363  msg.value */\n      callvalue\n        /* \"RouletteGame.sol\":18305:18365  Bet({player: msg.sender, option: option, amount: msg.value}) */\n      dup7\n      dup9\n      add\n      dup2\n      dup2\n      mstore\n        /* \"RouletteGame.sol\":18295:18299  bets */\n      0x0f\n        /* \"RouletteGame.sol\":18295:18366  bets.push(Bet({player: msg.sender, option: option, amount: msg.value})) */\n      dup1\n      sload\n      0x01\n      dup2\n      add\n      dup3\n      sstore\n      0x00\n      swap2\n      swap1\n      swap2\n      mstore\n      swap8\n      mload\n      0x02\n      swap1\n      swap9\n      mul\n      0x8d1108e10bcb7c27dddfc02ed9d693a074039d026cf4ea4240b40f7d581ac802\n      dup2\n      add\n      dup1\n      sload\n      swap5\n      mload\n      swap1\n      swap8\n      and\n      shl(0xa0, 0x01)\n      mul\n      not(sub(shl(0xa8, 0x01), 0x01))\n      swap1\n      swap5\n      and\n      sub(shl(0xa0, 0x01), 0x01)\n      swap1\n      swap10\n      and\n      swap9\n      swap1\n      swap9\n      or\n      swap3\n      swap1\n      swap3\n      or\n      swap1\n      swap5\n      sstore\n      mload\n      0x8d1108e10bcb7c27dddfc02ed9d693a074039d026cf4ea4240b40f7d581ac803\n      swap1\n      swap6\n      add\n      swap5\n      swap1\n      swap5\n      sstore\n        /* \"RouletteGame.sol\":18381:18421  BetPlaced(msg.sender, option, msg.value) */\n      dup5\n      mload\n        /* \"#utility.yul\":16768:16804   */\n      swap1\n      dup2\n      mstore\n        /* \"#utility.yul\":16820:16838   */\n      swap3\n      dup4\n      add\n        /* \"#utility.yul\":16813:16847   */\n      mstore\n        /* \"RouletteGame.sol\":18318:18328  msg.sender */\n      swap2\n        /* \"RouletteGame.sol\":18381:18421  BetPlaced(msg.sender, option, msg.value) */\n      0x9f6b4cced64244a64465098f682029975b1614400b96bc6bd12c668083719166\n      swap2\n        /* \"#utility.yul\":16741:16759   */\n      add\n        /* \"RouletteGame.sol\":18381:18421  BetPlaced(msg.sender, option, msg.value) */\n      mload(0x40)\n      dup1\n      swap2\n      sub\n      swap1\n      log2\n        /* \"RouletteGame.sol\":18561:18573  noMoreBets() */\n      tag_486\n        /* \"RouletteGame.sol\":18561:18571  noMoreBets */\n      tag_77\n        /* \"RouletteGame.sol\":18561:18573  noMoreBets() */\n      jump\t// in\n    tag_486:\n        /* \"RouletteGame.sol\":17916:18580  function placeBet(uint8 option) public payable {... */\n      pop\n      jump\t// out\n        /* \"RouletteGame.sol\":4288:4596  function isInRedSet(uint8 number) public view returns (bool) {... */\n    tag_140:\n        /* \"RouletteGame.sol\":4343:4347  bool */\n      0x00\n      dup1\n        /* \"RouletteGame.sol\":4359:4537  for (uint8 i = 0; i < OPTION_RED_SET.length; i++) {... */\n    tag_488:\n        /* \"RouletteGame.sol\":4381:4402  OPTION_RED_SET.length */\n      0x12\n        /* \"RouletteGame.sol\":4377:4378  i */\n      dup2\n        /* \"RouletteGame.sol\":4377:4402  i < OPTION_RED_SET.length */\n      0xff\n      and\n      lt\n        /* \"RouletteGame.sol\":4359:4537  for (uint8 i = 0; i < OPTION_RED_SET.length; i++) {... */\n      iszero\n      tag_277\n      jumpi\n        /* \"RouletteGame.sol\":4448:4454  number */\n      dup3\n        /* \"RouletteGame.sol\":4427:4454  OPTION_RED_SET[i] == number */\n      0xff\n      and\n        /* \"RouletteGame.sol\":4427:4441  OPTION_RED_SET */\n      0x02\n        /* \"RouletteGame.sol\":4442:4443  i */\n      dup3\n        /* \"RouletteGame.sol\":4427:4444  OPTION_RED_SET[i] */\n      0xff\n      and\n      0x12\n      dup2\n      lt\n      tag_492\n      jumpi\n      tag_492\n      tag_281\n      jump\t// in\n    tag_492:\n      0x20\n      dup2\n      div\n      swap1\n      swap2\n      add\n      sload\n      0xff\n      0x1f\n      swap1\n      swap3\n      and\n      0x0100\n      exp\n      swap1\n      div\n      and\n        /* \"RouletteGame.sol\":4427:4454  OPTION_RED_SET[i] == number */\n      sub\n        /* \"RouletteGame.sol\":4423:4527  if (OPTION_RED_SET[i] == number) {... */\n      tag_494\n      jumpi\n      pop\n        /* \"RouletteGame.sol\":4481:4485  true */\n      0x01\n      swap3\n        /* \"RouletteGame.sol\":4288:4596  function isInRedSet(uint8 number) public view returns (bool) {... */\n      swap2\n      pop\n      pop\n      jump\t// out\n        /* \"RouletteGame.sol\":4423:4527  if (OPTION_RED_SET[i] == number) {... */\n    tag_494:\n        /* \"RouletteGame.sol\":4404:4407  i++ */\n      dup1\n      tag_495\n      dup2\n      tag_285\n      jump\t// in\n    tag_495:\n      swap2\n      pop\n      pop\n        /* \"RouletteGame.sol\":4359:4537  for (uint8 i = 0; i < OPTION_RED_SET.length; i++) {... */\n      jump(tag_488)\n        /* \"RouletteGame.sol\":8524:8855  function isInFirstDozenSet(uint8 number) public view returns (bool) {... */\n    tag_145:\n        /* \"RouletteGame.sol\":8586:8590  bool */\n      0x00\n      dup1\n        /* \"RouletteGame.sol\":8602:8796  for (uint8 i = 0; i < OPTION_FIRST_DOZEN_SET.length; i++) {... */\n    tag_497:\n        /* \"RouletteGame.sol\":8624:8653  OPTION_FIRST_DOZEN_SET.length */\n      0x0c\n        /* \"RouletteGame.sol\":8620:8621  i */\n      dup2\n        /* \"RouletteGame.sol\":8620:8653  i < OPTION_FIRST_DOZEN_SET.length */\n      0xff\n      and\n      lt\n        /* \"RouletteGame.sol\":8602:8796  for (uint8 i = 0; i < OPTION_FIRST_DOZEN_SET.length; i++) {... */\n      iszero\n      tag_277\n      jumpi\n        /* \"RouletteGame.sol\":8707:8713  number */\n      dup3\n        /* \"RouletteGame.sol\":8678:8713  OPTION_FIRST_DOZEN_SET[i] == number */\n      0xff\n      and\n        /* \"RouletteGame.sol\":8678:8700  OPTION_FIRST_DOZEN_SET */\n      0x09\n        /* \"RouletteGame.sol\":8701:8702  i */\n      dup3\n        /* \"RouletteGame.sol\":8678:8703  OPTION_FIRST_DOZEN_SET[i] */\n      0xff\n      and\n      0x0c\n      dup2\n      lt\n      tag_501\n      jumpi\n      tag_501\n      tag_281\n      jump\t// in\n    tag_501:\n      0x20\n      dup2\n      div\n      swap1\n      swap2\n      add\n      sload\n      0xff\n      0x1f\n      swap1\n      swap3\n      and\n      0x0100\n      exp\n      swap1\n      div\n      and\n        /* \"RouletteGame.sol\":8678:8713  OPTION_FIRST_DOZEN_SET[i] == number */\n      sub\n        /* \"RouletteGame.sol\":8674:8786  if (OPTION_FIRST_DOZEN_SET[i] == number) {... */\n      tag_503\n      jumpi\n      pop\n        /* \"RouletteGame.sol\":8740:8744  true */\n      0x01\n      swap3\n        /* \"RouletteGame.sol\":8524:8855  function isInFirstDozenSet(uint8 number) public view returns (bool) {... */\n      swap2\n      pop\n      pop\n      jump\t// out\n        /* \"RouletteGame.sol\":8674:8786  if (OPTION_FIRST_DOZEN_SET[i] == number) {... */\n    tag_503:\n        /* \"RouletteGame.sol\":8655:8658  i++ */\n      dup1\n      tag_504\n      dup2\n      tag_285\n      jump\t// in\n    tag_504:\n      swap2\n      pop\n      pop\n        /* \"RouletteGame.sol\":8602:8796  for (uint8 i = 0; i < OPTION_FIRST_DOZEN_SET.length; i++) {... */\n      jump(tag_497)\n        /* \"RouletteGame.sol\":4908:5222  function isInBlackSet(uint8 number) public view returns (bool) {... */\n    tag_154:\n        /* \"RouletteGame.sol\":4965:4969  bool */\n      0x00\n      dup1\n        /* \"RouletteGame.sol\":4981:5163  for (uint8 i = 0; i < OPTION_BLACK_SET.length; i++) {... */\n    tag_507:\n        /* \"RouletteGame.sol\":5003:5026  OPTION_BLACK_SET.length */\n      0x12\n        /* \"RouletteGame.sol\":4999:5000  i */\n      dup2\n        /* \"RouletteGame.sol\":4999:5026  i < OPTION_BLACK_SET.length */\n      0xff\n      and\n      lt\n        /* \"RouletteGame.sol\":4981:5163  for (uint8 i = 0; i < OPTION_BLACK_SET.length; i++) {... */\n      iszero\n      tag_277\n      jumpi\n        /* \"RouletteGame.sol\":5074:5080  number */\n      dup3\n        /* \"RouletteGame.sol\":5051:5080  OPTION_BLACK_SET[i] == number */\n      0xff\n      and\n        /* \"RouletteGame.sol\":5051:5067  OPTION_BLACK_SET */\n      0x03\n        /* \"RouletteGame.sol\":5068:5069  i */\n      dup3\n        /* \"RouletteGame.sol\":5051:5070  OPTION_BLACK_SET[i] */\n      0xff\n      and\n      0x12\n      dup2\n      lt\n      tag_511\n      jumpi\n      tag_511\n      tag_281\n      jump\t// in\n    tag_511:\n      0x20\n      dup2\n      div\n      swap1\n      swap2\n      add\n      sload\n      0xff\n      0x1f\n      swap1\n      swap3\n      and\n      0x0100\n      exp\n      swap1\n      div\n      and\n        /* \"RouletteGame.sol\":5051:5080  OPTION_BLACK_SET[i] == number */\n      sub\n        /* \"RouletteGame.sol\":5047:5153  if (OPTION_BLACK_SET[i] == number) {... */\n      tag_513\n      jumpi\n      pop\n        /* \"RouletteGame.sol\":5107:5111  true */\n      0x01\n      swap3\n        /* \"RouletteGame.sol\":4908:5222  function isInBlackSet(uint8 number) public view returns (bool) {... */\n      swap2\n      pop\n      pop\n      jump\t// out\n        /* \"RouletteGame.sol\":5047:5153  if (OPTION_BLACK_SET[i] == number) {... */\n    tag_513:\n        /* \"RouletteGame.sol\":5028:5031  i++ */\n      dup1\n      tag_514\n      dup2\n      tag_285\n      jump\t// in\n    tag_514:\n      swap2\n      pop\n      pop\n        /* \"RouletteGame.sol\":4981:5163  for (uint8 i = 0; i < OPTION_BLACK_SET.length; i++) {... */\n      jump(tag_507)\n        /* \"RouletteGame.sol\":12855:12892  address[] public mismatchedValidators */\n    tag_167:\n      0x14\n      dup2\n      dup2\n      sload\n      dup2\n      lt\n      tag_349\n      jumpi\n      0x00\n      dup1\n      revert\n        /* \"RouletteGame.sol\":12815:12849  address[] public matchedValidators */\n    tag_180:\n      0x13\n      dup2\n      dup2\n      sload\n      dup2\n      lt\n      tag_349\n      jumpi\n      0x00\n      dup1\n      revert\n        /* \"RouletteGame.sol\":27507:35469  function settleBet() public {... */\n    tag_184:\n        /* \"RouletteGame.sol\":27553:27559  status */\n      sload(0x0e)\n        /* \"RouletteGame.sol\":27553:27586  status == STATUS_RESULT_VALIDATED */\n      0xff\n        /* \"RouletteGame.sol\":27553:27559  status */\n      and\n        /* \"RouletteGame.sol\":11037:11038  4 */\n      0x04\n        /* \"RouletteGame.sol\":27553:27586  status == STATUS_RESULT_VALIDATED */\n      eq\n        /* \"RouletteGame.sol\":27545:27615  require(status == STATUS_RESULT_VALIDATED, \"Result not validated yet\") */\n      tag_521\n      jumpi\n      mload(0x40)\n      shl(0xe5, 0x461bcd)\n      dup2\n      mstore\n        /* \"#utility.yul\":17060:17062   */\n      0x20\n        /* \"RouletteGame.sol\":27545:27615  require(status == STATUS_RESULT_VALIDATED, \"Result not validated yet\") */\n      0x04\n      dup3\n      add\n        /* \"#utility.yul\":17042:17063   */\n      mstore\n        /* \"#utility.yul\":17099:17101   */\n      0x18\n        /* \"#utility.yul\":17079:17097   */\n      0x24\n      dup3\n      add\n        /* \"#utility.yul\":17072:17102   */\n      mstore\n        /* \"#utility.yul\":17138:17164   */\n      0x526573756c74206e6f742076616c696461746564207965740000000000000000\n        /* \"#utility.yul\":17118:17136   */\n      0x44\n      dup3\n      add\n        /* \"#utility.yul\":17111:17165   */\n      mstore\n        /* \"#utility.yul\":17182:17200   */\n      0x64\n      add\n        /* \"RouletteGame.sol\":27545:27615  require(status == STATUS_RESULT_VALIDATED, \"Result not validated yet\") */\n      tag_292\n        /* \"#utility.yul\":16858:17206   */\n      jump\n        /* \"RouletteGame.sol\":27545:27615  require(status == STATUS_RESULT_VALIDATED, \"Result not validated yet\") */\n    tag_521:\n        /* \"RouletteGame.sol\":27831:27840  uint256 i */\n      0x00\n        /* \"RouletteGame.sol\":27826:35355  for (uint256 i = 0; i < bets.length; i++) {... */\n    tag_524:\n        /* \"RouletteGame.sol\":27850:27854  bets */\n      0x0f\n        /* \"RouletteGame.sol\":27850:27861  bets.length */\n      sload\n        /* \"RouletteGame.sol\":27846:27861  i < bets.length */\n      dup2\n      lt\n        /* \"RouletteGame.sol\":27826:35355  for (uint256 i = 0; i < bets.length; i++) {... */\n      iszero\n      tag_525\n      jumpi\n        /* \"RouletteGame.sol\":27904:27905  0 */\n      0x00\n        /* \"RouletteGame.sol\":27886:27890  bets */\n      0x0f\n        /* \"RouletteGame.sol\":27891:27892  i */\n      dup3\n        /* \"RouletteGame.sol\":27886:27893  bets[i] */\n      dup2\n      sload\n      dup2\n      lt\n      tag_528\n      jumpi\n      tag_528\n      tag_281\n      jump\t// in\n    tag_528:\n      0x00\n      swap2\n      dup3\n      mstore\n      0x20\n      swap1\n      swap2\n      keccak256\n      0x02\n      swap1\n      swap2\n      mul\n      add\n        /* \"RouletteGame.sol\":27886:27900  bets[i].option */\n      sload\n      shl(0xa0, 0x01)\n      swap1\n      div\n      0xff\n      and\n        /* \"RouletteGame.sol\":27886:27905  bets[i].option >= 0 */\n      lt\n      dup1\n      iszero\n      swap1\n        /* \"RouletteGame.sol\":27886:27929  bets[i].option >= 0 && bets[i].option <= 37 */\n      tag_530\n      jumpi\n      pop\n        /* \"RouletteGame.sol\":27927:27929  37 */\n      0x25\n        /* \"RouletteGame.sol\":27909:27913  bets */\n      0x0f\n        /* \"RouletteGame.sol\":27914:27915  i */\n      dup3\n        /* \"RouletteGame.sol\":27909:27916  bets[i] */\n      dup2\n      sload\n      dup2\n      lt\n      tag_532\n      jumpi\n      tag_532\n      tag_281\n      jump\t// in\n    tag_532:\n      0x00\n      swap2\n      dup3\n      mstore\n      0x20\n      swap1\n      swap2\n      keccak256\n      0x02\n      swap1\n      swap2\n      mul\n      add\n        /* \"RouletteGame.sol\":27909:27923  bets[i].option */\n      sload\n      shl(0xa0, 0x01)\n      swap1\n      div\n      0xff\n      and\n        /* \"RouletteGame.sol\":27909:27929  bets[i].option <= 37 */\n      gt\n      iszero\n        /* \"RouletteGame.sol\":27886:27929  bets[i].option >= 0 && bets[i].option <= 37 */\n    tag_530:\n        /* \"RouletteGame.sol\":27882:35345  if (bets[i].option >= 0 && bets[i].option <= 37) {... */\n      iszero\n      tag_534\n      jumpi\n        /* \"RouletteGame.sol\":28002:28008  result */\n      sload(0x11)\n        /* \"RouletteGame.sol\":27984:27988  bets */\n      0x0f\n        /* \"RouletteGame.sol\":27984:27991  bets[i] */\n      dup1\n      sload\n        /* \"RouletteGame.sol\":28002:28008  result */\n      0xff\n      swap1\n      swap3\n      and\n      swap2\n        /* \"RouletteGame.sol\":27989:27990  i */\n      dup4\n      swap1\n        /* \"RouletteGame.sol\":27984:27991  bets[i] */\n      dup2\n      lt\n      tag_536\n      jumpi\n      tag_536\n      tag_281\n      jump\t// in\n    tag_536:\n      0x00\n      swap2\n      dup3\n      mstore\n      0x20\n      swap1\n      swap2\n      keccak256\n      0x02\n      swap1\n      swap2\n      mul\n      add\n        /* \"RouletteGame.sol\":27984:27998  bets[i].option */\n      sload\n      shl(0xa0, 0x01)\n      swap1\n      div\n      0xff\n      and\n        /* \"RouletteGame.sol\":27984:28008  bets[i].option == result */\n      sub\n        /* \"RouletteGame.sol\":27980:28504  if (bets[i].option == result) {... */\n      tag_538\n      jumpi\n        /* \"RouletteGame.sol\":28075:28079  bets */\n      0x0f\n        /* \"RouletteGame.sol\":28080:28081  i */\n      dup2\n        /* \"RouletteGame.sol\":28075:28082  bets[i] */\n      dup2\n      sload\n      dup2\n      lt\n      tag_540\n      jumpi\n      tag_540\n      tag_281\n      jump\t// in\n    tag_540:\n      swap1\n      0x00\n      mstore\n      keccak256(0x00, 0x20)\n      swap1\n      0x02\n      mul\n      add\n        /* \"RouletteGame.sol\":28075:28089  bets[i].player */\n      0x00\n      add\n      0x00\n      swap1\n      sload\n      swap1\n      0x0100\n      exp\n      swap1\n      div\n      sub(shl(0xa0, 0x01), 0x01)\n      and\n      sub(shl(0xa0, 0x01), 0x01)\n        /* \"RouletteGame.sol\":28067:28099  payable(bets[i].player).transfer */\n      and\n        /* \"RouletteGame.sol\":28067:28234  payable(bets[i].player).transfer(... */\n      0x08fc\n        /* \"RouletteGame.sol\":10246:10248  10 */\n      0x0a\n        /* \"RouletteGame.sol\":10331:10334  360 */\n      0x0168\n        /* \"RouletteGame.sol\":28126:28130  bets */\n      0x0f\n        /* \"RouletteGame.sol\":28131:28132  i */\n      dup6\n        /* \"RouletteGame.sol\":28126:28133  bets[i] */\n      dup2\n      sload\n      dup2\n      lt\n      tag_543\n      jumpi\n      tag_543\n      tag_281\n      jump\t// in\n    tag_543:\n      swap1\n      0x00\n      mstore\n      keccak256(0x00, 0x20)\n      swap1\n      0x02\n      mul\n      add\n        /* \"RouletteGame.sol\":28126:28140  bets[i].amount */\n      0x01\n      add\n      sload\n        /* \"RouletteGame.sol\":28126:28161  bets[i].amount * PAYOUT_STRAIGHT_UP */\n      tag_545\n      swap2\n      swap1\n      tag_477\n      jump\t// in\n    tag_545:\n        /* \"RouletteGame.sol\":28125:28212  (bets[i].amount * PAYOUT_STRAIGHT_UP) /... */\n      tag_546\n      swap2\n      swap1\n      tag_479\n      jump\t// in\n    tag_546:\n        /* \"RouletteGame.sol\":28067:28234  payable(bets[i].player).transfer(... */\n      mload(0x40)\n      dup2\n      iszero\n      swap1\n      swap3\n      mul\n      swap2\n      0x00\n      dup2\n      dup2\n      dup2\n      dup6\n      dup9\n      dup9\n      call\n      swap4\n      pop\n      pop\n      pop\n      pop\n      iszero\n      dup1\n      iszero\n      tag_548\n      jumpi\n      returndatasize\n      0x00\n      dup1\n      returndatacopy\n      revert(0x00, returndatasize)\n    tag_548:\n      pop\n        /* \"RouletteGame.sol\":28296:28300  bets */\n      0x0f\n        /* \"RouletteGame.sol\":28301:28302  i */\n      dup2\n        /* \"RouletteGame.sol\":28296:28303  bets[i] */\n      dup2\n      sload\n      dup2\n      lt\n      tag_550\n      jumpi\n      tag_550\n      tag_281\n      jump\t// in\n    tag_550:\n      0x00\n      swap2\n      dup3\n      mstore\n      0x20\n      swap1\n      swap2\n      keccak256\n      0x02\n      swap1\n      swap2\n      mul\n      add\n        /* \"RouletteGame.sol\":28296:28310  bets[i].player */\n      sload\n        /* \"RouletteGame.sol\":28336:28340  bets */\n      0x0f\n        /* \"RouletteGame.sol\":28336:28343  bets[i] */\n      dup1\n      sload\n      sub(shl(0xa0, 0x01), 0x01)\n        /* \"RouletteGame.sol\":28296:28310  bets[i].player */\n      swap1\n      swap3\n      and\n      swap2\n      0x00\n      dup1\n      mload\n      0x20\n      data_337182a60498b9244e8f65be0f6db847dff38b4b0254ab37294bb95d08c454c9\n      dup4\n      codecopy\n      dup2\n      mload\n      swap2\n      mstore\n        /* \"RouletteGame.sol\":28261:28485  BetPayout(... */\n      swap2\n        /* \"RouletteGame.sol\":28336:28340  bets */\n      swap1\n        /* \"RouletteGame.sol\":28341:28342  i */\n      dup5\n      swap1\n        /* \"RouletteGame.sol\":28336:28343  bets[i] */\n      dup2\n      lt\n      tag_553\n      jumpi\n      tag_553\n      tag_281\n      jump\t// in\n    tag_553:\n      swap1\n      0x00\n      mstore\n      keccak256(0x00, 0x20)\n      swap1\n      0x02\n      mul\n      add\n        /* \"RouletteGame.sol\":28336:28350  bets[i].option */\n      0x00\n      add\n      0x14\n      swap1\n      sload\n      swap1\n      0x0100\n      exp\n      swap1\n      div\n      0xff\n      and\n        /* \"RouletteGame.sol\":10246:10248  10 */\n      0x0a\n        /* \"RouletteGame.sol\":10331:10334  360 */\n      0x0168\n        /* \"RouletteGame.sol\":28377:28381  bets */\n      0x0f\n        /* \"RouletteGame.sol\":28382:28383  i */\n      dup7\n        /* \"RouletteGame.sol\":28377:28384  bets[i] */\n      dup2\n      sload\n      dup2\n      lt\n      tag_556\n      jumpi\n      tag_556\n      tag_281\n      jump\t// in\n    tag_556:\n      swap1\n      0x00\n      mstore\n      keccak256(0x00, 0x20)\n      swap1\n      0x02\n      mul\n      add\n        /* \"RouletteGame.sol\":28377:28391  bets[i].amount */\n      0x01\n      add\n      sload\n        /* \"RouletteGame.sol\":28377:28412  bets[i].amount * PAYOUT_STRAIGHT_UP */\n      tag_558\n      swap2\n      swap1\n      tag_477\n      jump\t// in\n    tag_558:\n        /* \"RouletteGame.sol\":28376:28463  (bets[i].amount * PAYOUT_STRAIGHT_UP) /... */\n      tag_559\n      swap2\n      swap1\n      tag_479\n      jump\t// in\n    tag_559:\n        /* \"RouletteGame.sol\":28261:28485  BetPayout(... */\n      0x40\n      dup1\n      mload\n        /* \"#utility.yul\":16798:16802   */\n      0xff\n        /* \"#utility.yul\":16786:16803   */\n      swap1\n      swap4\n      and\n        /* \"#utility.yul\":16768:16804   */\n      dup4\n      mstore\n        /* \"#utility.yul\":16835:16837   */\n      0x20\n        /* \"#utility.yul\":16820:16838   */\n      dup4\n      add\n        /* \"#utility.yul\":16813:16847   */\n      swap2\n      swap1\n      swap2\n      mstore\n        /* \"#utility.yul\":16741:16759   */\n      add\n        /* \"RouletteGame.sol\":28261:28485  BetPayout(... */\n      mload(0x40)\n      dup1\n      swap2\n      sub\n      swap1\n      log2\n        /* \"RouletteGame.sol\":27980:28504  if (bets[i].option == result) {... */\n    tag_538:\n        /* \"RouletteGame.sol\":28521:28526  break */\n      jump(tag_525)\n        /* \"RouletteGame.sol\":27882:35345  if (bets[i].option >= 0 && bets[i].option <= 37) {... */\n    tag_534:\n        /* \"RouletteGame.sol\":28551:28555  bets */\n      0x0f\n        /* \"RouletteGame.sol\":28556:28557  i */\n      dup2\n        /* \"RouletteGame.sol\":28551:28558  bets[i] */\n      dup2\n      sload\n      dup2\n      lt\n      tag_563\n      jumpi\n      tag_563\n      tag_281\n      jump\t// in\n    tag_563:\n      0x00\n      swap2\n      dup3\n      mstore\n      0x20\n      swap1\n      swap2\n      keccak256\n      0x02\n      swap1\n      swap2\n      mul\n      add\n        /* \"RouletteGame.sol\":28551:28565  bets[i].option */\n      sload\n      shl(0xa0, 0x01)\n      swap1\n      div\n      0xff\n      and\n        /* \"RouletteGame.sol\":28569:28571  38 */\n      0x26\n        /* \"RouletteGame.sol\":28551:28571  bets[i].option == 38 */\n      sub\n        /* \"RouletteGame.sol\":28547:35345  if (bets[i].option == 38) {... */\n      tag_565\n      jumpi\n        /* \"RouletteGame.sol\":28629:28635  result */\n      sload(0x11)\n        /* \"RouletteGame.sol\":28618:28636  isInLowSet(result) */\n      tag_566\n      swap1\n        /* \"RouletteGame.sol\":28629:28635  result */\n      0xff\n      and\n        /* \"RouletteGame.sol\":28618:28628  isInLowSet */\n      tag_197\n        /* \"RouletteGame.sol\":28618:28636  isInLowSet(result) */\n      jump\t// in\n    tag_566:\n        /* \"RouletteGame.sol\":28614:29132  if (isInLowSet(result)) {... */\n      iszero\n      tag_538\n      jumpi\n        /* \"RouletteGame.sol\":28703:28707  bets */\n      0x0f\n        /* \"RouletteGame.sol\":28708:28709  i */\n      dup2\n        /* \"RouletteGame.sol\":28703:28710  bets[i] */\n      dup2\n      sload\n      dup2\n      lt\n      tag_569\n      jumpi\n      tag_569\n      tag_281\n      jump\t// in\n    tag_569:\n      swap1\n      0x00\n      mstore\n      keccak256(0x00, 0x20)\n      swap1\n      0x02\n      mul\n      add\n        /* \"RouletteGame.sol\":28703:28717  bets[i].player */\n      0x00\n      add\n      0x00\n      swap1\n      sload\n      swap1\n      0x0100\n      exp\n      swap1\n      div\n      sub(shl(0xa0, 0x01), 0x01)\n      and\n      sub(shl(0xa0, 0x01), 0x01)\n        /* \"RouletteGame.sol\":28695:28727  payable(bets[i].player).transfer */\n      and\n        /* \"RouletteGame.sol\":28695:28862  payable(bets[i].player).transfer(... */\n      0x08fc\n        /* \"RouletteGame.sol\":10246:10248  10 */\n      0x0a\n        /* \"RouletteGame.sol\":10417:10419  20 */\n      0x14\n        /* \"RouletteGame.sol\":28754:28758  bets */\n      0x0f\n        /* \"RouletteGame.sol\":28759:28760  i */\n      dup6\n        /* \"RouletteGame.sol\":28754:28761  bets[i] */\n      dup2\n      sload\n      dup2\n      lt\n      tag_572\n      jumpi\n      tag_572\n      tag_281\n      jump\t// in\n    tag_572:\n      swap1\n      0x00\n      mstore\n      keccak256(0x00, 0x20)\n      swap1\n      0x02\n      mul\n      add\n        /* \"RouletteGame.sol\":28754:28768  bets[i].amount */\n      0x01\n      add\n      sload\n        /* \"RouletteGame.sol\":28754:28789  bets[i].amount * PAYOUT_LOW_OR_HIGH */\n      tag_574\n      swap2\n      swap1\n      tag_477\n      jump\t// in\n    tag_574:\n        /* \"RouletteGame.sol\":28753:28840  (bets[i].amount * PAYOUT_LOW_OR_HIGH) /... */\n      tag_575\n      swap2\n      swap1\n      tag_479\n      jump\t// in\n    tag_575:\n        /* \"RouletteGame.sol\":28695:28862  payable(bets[i].player).transfer(... */\n      mload(0x40)\n      dup2\n      iszero\n      swap1\n      swap3\n      mul\n      swap2\n      0x00\n      dup2\n      dup2\n      dup2\n      dup6\n      dup9\n      dup9\n      call\n      swap4\n      pop\n      pop\n      pop\n      pop\n      iszero\n      dup1\n      iszero\n      tag_577\n      jumpi\n      returndatasize\n      0x00\n      dup1\n      returndatacopy\n      revert(0x00, returndatasize)\n    tag_577:\n      pop\n        /* \"RouletteGame.sol\":28924:28928  bets */\n      0x0f\n        /* \"RouletteGame.sol\":28929:28930  i */\n      dup2\n        /* \"RouletteGame.sol\":28924:28931  bets[i] */\n      dup2\n      sload\n      dup2\n      lt\n      tag_579\n      jumpi\n      tag_579\n      tag_281\n      jump\t// in\n    tag_579:\n      0x00\n      swap2\n      dup3\n      mstore\n      0x20\n      swap1\n      swap2\n      keccak256\n      0x02\n      swap1\n      swap2\n      mul\n      add\n        /* \"RouletteGame.sol\":28924:28938  bets[i].player */\n      sload\n        /* \"RouletteGame.sol\":28964:28968  bets */\n      0x0f\n        /* \"RouletteGame.sol\":28964:28971  bets[i] */\n      dup1\n      sload\n      sub(shl(0xa0, 0x01), 0x01)\n        /* \"RouletteGame.sol\":28924:28938  bets[i].player */\n      swap1\n      swap3\n      and\n      swap2\n      0x00\n      dup1\n      mload\n      0x20\n      data_337182a60498b9244e8f65be0f6db847dff38b4b0254ab37294bb95d08c454c9\n      dup4\n      codecopy\n      dup2\n      mload\n      swap2\n      mstore\n        /* \"RouletteGame.sol\":28889:29113  BetPayout(... */\n      swap2\n        /* \"RouletteGame.sol\":28964:28968  bets */\n      swap1\n        /* \"RouletteGame.sol\":28969:28970  i */\n      dup5\n      swap1\n        /* \"RouletteGame.sol\":28964:28971  bets[i] */\n      dup2\n      lt\n      tag_582\n      jumpi\n      tag_582\n      tag_281\n      jump\t// in\n    tag_582:\n      swap1\n      0x00\n      mstore\n      keccak256(0x00, 0x20)\n      swap1\n      0x02\n      mul\n      add\n        /* \"RouletteGame.sol\":28964:28978  bets[i].option */\n      0x00\n      add\n      0x14\n      swap1\n      sload\n      swap1\n      0x0100\n      exp\n      swap1\n      div\n      0xff\n      and\n        /* \"RouletteGame.sol\":10246:10248  10 */\n      0x0a\n        /* \"RouletteGame.sol\":10417:10419  20 */\n      0x14\n        /* \"RouletteGame.sol\":29005:29009  bets */\n      0x0f\n        /* \"RouletteGame.sol\":29010:29011  i */\n      dup7\n        /* \"RouletteGame.sol\":29005:29012  bets[i] */\n      dup2\n      sload\n      dup2\n      lt\n      tag_556\n      jumpi\n      tag_556\n      tag_281\n      jump\t// in\n        /* \"RouletteGame.sol\":28547:35345  if (bets[i].option == 38) {... */\n    tag_565:\n        /* \"RouletteGame.sol\":29179:29183  bets */\n      0x0f\n        /* \"RouletteGame.sol\":29184:29185  i */\n      dup2\n        /* \"RouletteGame.sol\":29179:29186  bets[i] */\n      dup2\n      sload\n      dup2\n      lt\n      tag_592\n      jumpi\n      tag_592\n      tag_281\n      jump\t// in\n    tag_592:\n      0x00\n      swap2\n      dup3\n      mstore\n      0x20\n      swap1\n      swap2\n      keccak256\n      0x02\n      swap1\n      swap2\n      mul\n      add\n        /* \"RouletteGame.sol\":29179:29193  bets[i].option */\n      sload\n      shl(0xa0, 0x01)\n      swap1\n      div\n      0xff\n      and\n        /* \"RouletteGame.sol\":29197:29199  39 */\n      0x27\n        /* \"RouletteGame.sol\":29179:29199  bets[i].option == 39 */\n      sub\n        /* \"RouletteGame.sol\":29175:35345  if (bets[i].option == 39) {... */\n      tag_594\n      jumpi\n        /* \"RouletteGame.sol\":29235:29241  result */\n      sload(0x11)\n        /* \"RouletteGame.sol\":29223:29242  isInHighSet(result) */\n      tag_566\n      swap1\n        /* \"RouletteGame.sol\":29235:29241  result */\n      0xff\n      and\n        /* \"RouletteGame.sol\":29223:29234  isInHighSet */\n      tag_249\n        /* \"RouletteGame.sol\":29223:29242  isInHighSet(result) */\n      jump\t// in\n        /* \"RouletteGame.sol\":29175:35345  if (bets[i].option == 39) {... */\n    tag_594:\n        /* \"RouletteGame.sol\":29785:29789  bets */\n      0x0f\n        /* \"RouletteGame.sol\":29790:29791  i */\n      dup2\n        /* \"RouletteGame.sol\":29785:29792  bets[i] */\n      dup2\n      sload\n      dup2\n      lt\n      tag_621\n      jumpi\n      tag_621\n      tag_281\n      jump\t// in\n    tag_621:\n      0x00\n      swap2\n      dup3\n      mstore\n      0x20\n      swap1\n      swap2\n      keccak256\n      0x02\n      swap1\n      swap2\n      mul\n      add\n        /* \"RouletteGame.sol\":29785:29799  bets[i].option */\n      sload\n      shl(0xa0, 0x01)\n      swap1\n      div\n      0xff\n      and\n        /* \"RouletteGame.sol\":29803:29805  40 */\n      0x28\n        /* \"RouletteGame.sol\":29785:29805  bets[i].option == 40 */\n      sub\n        /* \"RouletteGame.sol\":29781:35345  if (bets[i].option == 40) {... */\n      tag_623\n      jumpi\n        /* \"RouletteGame.sol\":29840:29846  result */\n      sload(0x11)\n        /* \"RouletteGame.sol\":29829:29847  isInRedSet(result) */\n      tag_566\n      swap1\n        /* \"RouletteGame.sol\":29840:29846  result */\n      0xff\n      and\n        /* \"RouletteGame.sol\":29829:29839  isInRedSet */\n      tag_140\n        /* \"RouletteGame.sol\":29829:29847  isInRedSet(result) */\n      jump\t// in\n        /* \"RouletteGame.sol\":29781:35345  if (bets[i].option == 40) {... */\n    tag_623:\n        /* \"RouletteGame.sol\":30392:30396  bets */\n      0x0f\n        /* \"RouletteGame.sol\":30397:30398  i */\n      dup2\n        /* \"RouletteGame.sol\":30392:30399  bets[i] */\n      dup2\n      sload\n      dup2\n      lt\n      tag_650\n      jumpi\n      tag_650\n      tag_281\n      jump\t// in\n    tag_650:\n      0x00\n      swap2\n      dup3\n      mstore\n      0x20\n      swap1\n      swap2\n      keccak256\n      0x02\n      swap1\n      swap2\n      mul\n      add\n        /* \"RouletteGame.sol\":30392:30406  bets[i].option */\n      sload\n      shl(0xa0, 0x01)\n      swap1\n      div\n      0xff\n      and\n        /* \"RouletteGame.sol\":30410:30412  41 */\n      0x29\n        /* \"RouletteGame.sol\":30392:30412  bets[i].option == 41 */\n      sub\n        /* \"RouletteGame.sol\":30388:35345  if (bets[i].option == 41) {... */\n      tag_652\n      jumpi\n        /* \"RouletteGame.sol\":30449:30455  result */\n      sload(0x11)\n        /* \"RouletteGame.sol\":30436:30456  isInBlackSet(result) */\n      tag_566\n      swap1\n        /* \"RouletteGame.sol\":30449:30455  result */\n      0xff\n      and\n        /* \"RouletteGame.sol\":30436:30448  isInBlackSet */\n      tag_154\n        /* \"RouletteGame.sol\":30436:30456  isInBlackSet(result) */\n      jump\t// in\n        /* \"RouletteGame.sol\":30388:35345  if (bets[i].option == 41) {... */\n    tag_652:\n        /* \"RouletteGame.sol\":31001:31005  bets */\n      0x0f\n        /* \"RouletteGame.sol\":31006:31007  i */\n      dup2\n        /* \"RouletteGame.sol\":31001:31008  bets[i] */\n      dup2\n      sload\n      dup2\n      lt\n      tag_679\n      jumpi\n      tag_679\n      tag_281\n      jump\t// in\n    tag_679:\n      0x00\n      swap2\n      dup3\n      mstore\n      0x20\n      swap1\n      swap2\n      keccak256\n      0x02\n      swap1\n      swap2\n      mul\n      add\n        /* \"RouletteGame.sol\":31001:31015  bets[i].option */\n      sload\n      shl(0xa0, 0x01)\n      swap1\n      div\n      0xff\n      and\n        /* \"RouletteGame.sol\":31019:31021  42 */\n      0x2a\n        /* \"RouletteGame.sol\":31001:31021  bets[i].option == 42 */\n      sub\n        /* \"RouletteGame.sol\":30997:35345  if (bets[i].option == 42) {... */\n      tag_681\n      jumpi\n        /* \"RouletteGame.sol\":31057:31063  result */\n      sload(0x11)\n        /* \"RouletteGame.sol\":31045:31064  isInEvenSet(result) */\n      tag_566\n      swap1\n        /* \"RouletteGame.sol\":31057:31063  result */\n      0xff\n      and\n        /* \"RouletteGame.sol\":31045:31056  isInEvenSet */\n      tag_109\n        /* \"RouletteGame.sol\":31045:31064  isInEvenSet(result) */\n      jump\t// in\n        /* \"RouletteGame.sol\":30997:35345  if (bets[i].option == 42) {... */\n    tag_681:\n        /* \"RouletteGame.sol\":31607:31611  bets */\n      0x0f\n        /* \"RouletteGame.sol\":31612:31613  i */\n      dup2\n        /* \"RouletteGame.sol\":31607:31614  bets[i] */\n      dup2\n      sload\n      dup2\n      lt\n      tag_708\n      jumpi\n      tag_708\n      tag_281\n      jump\t// in\n    tag_708:\n      0x00\n      swap2\n      dup3\n      mstore\n      0x20\n      swap1\n      swap2\n      keccak256\n      0x02\n      swap1\n      swap2\n      mul\n      add\n        /* \"RouletteGame.sol\":31607:31621  bets[i].option */\n      sload\n      shl(0xa0, 0x01)\n      swap1\n      div\n      0xff\n      and\n        /* \"RouletteGame.sol\":31625:31627  43 */\n      0x2b\n        /* \"RouletteGame.sol\":31607:31627  bets[i].option == 43 */\n      sub\n        /* \"RouletteGame.sol\":31603:35345  if (bets[i].option == 43) {... */\n      tag_710\n      jumpi\n        /* \"RouletteGame.sol\":31662:31668  result */\n      sload(0x11)\n        /* \"RouletteGame.sol\":31651:31669  isInOddSet(result) */\n      tag_566\n      swap1\n        /* \"RouletteGame.sol\":31662:31668  result */\n      0xff\n      and\n        /* \"RouletteGame.sol\":31651:31661  isInOddSet */\n      tag_239\n        /* \"RouletteGame.sol\":31651:31669  isInOddSet(result) */\n      jump\t// in\n        /* \"RouletteGame.sol\":31603:35345  if (bets[i].option == 43) {... */\n    tag_710:\n        /* \"RouletteGame.sol\":32212:32216  bets */\n      0x0f\n        /* \"RouletteGame.sol\":32217:32218  i */\n      dup2\n        /* \"RouletteGame.sol\":32212:32219  bets[i] */\n      dup2\n      sload\n      dup2\n      lt\n      tag_737\n      jumpi\n      tag_737\n      tag_281\n      jump\t// in\n    tag_737:\n      0x00\n      swap2\n      dup3\n      mstore\n      0x20\n      swap1\n      swap2\n      keccak256\n      0x02\n      swap1\n      swap2\n      mul\n      add\n        /* \"RouletteGame.sol\":32212:32226  bets[i].option */\n      sload\n      shl(0xa0, 0x01)\n      swap1\n      div\n      0xff\n      and\n        /* \"RouletteGame.sol\":32230:32232  44 */\n      0x2c\n        /* \"RouletteGame.sol\":32212:32232  bets[i].option == 44 */\n      sub\n        /* \"RouletteGame.sol\":32208:35345  if (bets[i].option == 44) {... */\n      tag_739\n      jumpi\n        /* \"RouletteGame.sol\":32275:32281  result */\n      sload(0x11)\n        /* \"RouletteGame.sol\":32256:32282  isInFirstColumnSet(result) */\n      tag_740\n      swap1\n        /* \"RouletteGame.sol\":32275:32281  result */\n      0xff\n      and\n        /* \"RouletteGame.sol\":32256:32274  isInFirstColumnSet */\n      tag_60\n        /* \"RouletteGame.sol\":32256:32282  isInFirstColumnSet(result) */\n      jump\t// in\n    tag_740:\n        /* \"RouletteGame.sol\":32252:32714  if (isInFirstColumnSet(result)) {... */\n      iszero\n      tag_741\n      jumpi\n        /* \"RouletteGame.sol\":32349:32353  bets */\n      0x0f\n        /* \"RouletteGame.sol\":32354:32355  i */\n      dup2\n        /* \"RouletteGame.sol\":32349:32356  bets[i] */\n      dup2\n      sload\n      dup2\n      lt\n      tag_743\n      jumpi\n      tag_743\n      tag_281\n      jump\t// in\n    tag_743:\n      0x00\n      swap2\n      dup3\n      mstore\n      0x20\n      swap1\n      swap2\n      keccak256\n      0x02\n      swap1\n      swap2\n      mul\n      add\n        /* \"RouletteGame.sol\":32349:32363  bets[i].player */\n      sload\n        /* \"RouletteGame.sol\":10666:10668  15 */\n      0x0f\n        /* \"RouletteGame.sol\":32400:32407  bets[i] */\n      dup1\n      sload\n      sub(shl(0xa0, 0x01), 0x01)\n        /* \"RouletteGame.sol\":32349:32363  bets[i].player */\n      swap1\n      swap3\n      and\n      swap2\n        /* \"RouletteGame.sol\":32341:32476  payable(bets[i].player).transfer(... */\n      0x08fc\n      swap2\n        /* \"RouletteGame.sol\":10246:10248  10 */\n      0x0a\n      swap2\n        /* \"RouletteGame.sol\":10666:10668  15 */\n      dup2\n      swap1\n        /* \"RouletteGame.sol\":32405:32406  i */\n      dup7\n      swap1\n        /* \"RouletteGame.sol\":32400:32407  bets[i] */\n      dup2\n      lt\n      tag_746\n      jumpi\n      tag_746\n      tag_281\n      jump\t// in\n    tag_746:\n      swap1\n      0x00\n      mstore\n      keccak256(0x00, 0x20)\n      swap1\n      0x02\n      mul\n      add\n        /* \"RouletteGame.sol\":32400:32414  bets[i].amount */\n      0x01\n      add\n      sload\n        /* \"RouletteGame.sol\":32400:32431  bets[i].amount * PAYOUT_COLUMNS */\n      tag_748\n      swap2\n      swap1\n      tag_477\n      jump\t// in\n    tag_748:\n        /* \"RouletteGame.sol\":32399:32454  (bets[i].amount * PAYOUT_COLUMNS) / PAYOUT_SCALE_FACTOR */\n      tag_749\n      swap2\n      swap1\n      tag_479\n      jump\t// in\n    tag_749:\n        /* \"RouletteGame.sol\":32341:32476  payable(bets[i].player).transfer(... */\n      mload(0x40)\n      dup2\n      iszero\n      swap1\n      swap3\n      mul\n      swap2\n      0x00\n      dup2\n      dup2\n      dup2\n      dup6\n      dup9\n      dup9\n      call\n      swap4\n      pop\n      pop\n      pop\n      pop\n      iszero\n      dup1\n      iszero\n      tag_751\n      jumpi\n      returndatasize\n      0x00\n      dup1\n      returndatacopy\n      revert(0x00, returndatasize)\n    tag_751:\n      pop\n        /* \"RouletteGame.sol\":32538:32542  bets */\n      0x0f\n        /* \"RouletteGame.sol\":32543:32544  i */\n      dup2\n        /* \"RouletteGame.sol\":32538:32545  bets[i] */\n      dup2\n      sload\n      dup2\n      lt\n      tag_753\n      jumpi\n      tag_753\n      tag_281\n      jump\t// in\n    tag_753:\n      0x00\n      swap2\n      dup3\n      mstore\n      0x20\n      swap1\n      swap2\n      keccak256\n      0x02\n      swap1\n      swap2\n      mul\n      add\n        /* \"RouletteGame.sol\":32538:32552  bets[i].player */\n      sload\n        /* \"RouletteGame.sol\":32578:32582  bets */\n      0x0f\n        /* \"RouletteGame.sol\":32578:32585  bets[i] */\n      dup1\n      sload\n      sub(shl(0xa0, 0x01), 0x01)\n        /* \"RouletteGame.sol\":32538:32552  bets[i].player */\n      swap1\n      swap3\n      and\n      swap2\n      0x00\n      dup1\n      mload\n      0x20\n      data_337182a60498b9244e8f65be0f6db847dff38b4b0254ab37294bb95d08c454c9\n      dup4\n      codecopy\n      dup2\n      mload\n      swap2\n      mstore\n        /* \"RouletteGame.sol\":32503:32695  BetPayout(... */\n      swap2\n        /* \"RouletteGame.sol\":32578:32582  bets */\n      swap1\n        /* \"RouletteGame.sol\":32583:32584  i */\n      dup5\n      swap1\n        /* \"RouletteGame.sol\":32578:32585  bets[i] */\n      dup2\n      lt\n      tag_756\n      jumpi\n      tag_756\n      tag_281\n      jump\t// in\n    tag_756:\n      swap1\n      0x00\n      mstore\n      keccak256(0x00, 0x20)\n      swap1\n      0x02\n      mul\n      add\n        /* \"RouletteGame.sol\":32578:32592  bets[i].option */\n      0x00\n      add\n      0x14\n      swap1\n      sload\n      swap1\n      0x0100\n      exp\n      swap1\n      div\n      0xff\n      and\n        /* \"RouletteGame.sol\":10246:10248  10 */\n      0x0a\n        /* \"RouletteGame.sol\":10666:10668  15 */\n      0x0f\n        /* \"RouletteGame.sol\":32619:32623  bets */\n      dup1\n        /* \"RouletteGame.sol\":32624:32625  i */\n      dup7\n        /* \"RouletteGame.sol\":32619:32626  bets[i] */\n      dup2\n      sload\n      dup2\n      lt\n      tag_759\n      jumpi\n      tag_759\n      tag_281\n      jump\t// in\n    tag_759:\n      swap1\n      0x00\n      mstore\n      keccak256(0x00, 0x20)\n      swap1\n      0x02\n      mul\n      add\n        /* \"RouletteGame.sol\":32619:32633  bets[i].amount */\n      0x01\n      add\n      sload\n        /* \"RouletteGame.sol\":32619:32650  bets[i].amount * PAYOUT_COLUMNS */\n      tag_761\n      swap2\n      swap1\n      tag_477\n      jump\t// in\n    tag_761:\n        /* \"RouletteGame.sol\":32618:32673  (bets[i].amount * PAYOUT_COLUMNS) / PAYOUT_SCALE_FACTOR */\n      tag_762\n      swap2\n      swap1\n      tag_479\n      jump\t// in\n    tag_762:\n        /* \"RouletteGame.sol\":32503:32695  BetPayout(... */\n      0x40\n      dup1\n      mload\n        /* \"#utility.yul\":16798:16802   */\n      0xff\n        /* \"#utility.yul\":16786:16803   */\n      swap1\n      swap4\n      and\n        /* \"#utility.yul\":16768:16804   */\n      dup4\n      mstore\n        /* \"#utility.yul\":16835:16837   */\n      0x20\n        /* \"#utility.yul\":16820:16838   */\n      dup4\n      add\n        /* \"#utility.yul\":16813:16847   */\n      swap2\n      swap1\n      swap2\n      mstore\n        /* \"#utility.yul\":16741:16759   */\n      add\n        /* \"RouletteGame.sol\":32503:32695  BetPayout(... */\n      mload(0x40)\n      dup1\n      swap2\n      sub\n      swap1\n      log2\n        /* \"RouletteGame.sol\":32252:32714  if (isInFirstColumnSet(result)) {... */\n    tag_741:\n        /* \"RouletteGame.sol\":32208:35345  if (bets[i].option == 44) {... */\n      jump(tag_886)\n    tag_739:\n        /* \"RouletteGame.sol\":32738:32742  bets */\n      0x0f\n        /* \"RouletteGame.sol\":32743:32744  i */\n      dup2\n        /* \"RouletteGame.sol\":32738:32745  bets[i] */\n      dup2\n      sload\n      dup2\n      lt\n      tag_766\n      jumpi\n      tag_766\n      tag_281\n      jump\t// in\n    tag_766:\n      0x00\n      swap2\n      dup3\n      mstore\n      0x20\n      swap1\n      swap2\n      keccak256\n      0x02\n      swap1\n      swap2\n      mul\n      add\n        /* \"RouletteGame.sol\":32738:32752  bets[i].option */\n      sload\n      shl(0xa0, 0x01)\n      swap1\n      div\n      0xff\n      and\n        /* \"RouletteGame.sol\":32756:32758  45 */\n      0x2d\n        /* \"RouletteGame.sol\":32738:32758  bets[i].option == 45 */\n      sub\n        /* \"RouletteGame.sol\":32734:35345  if (bets[i].option == 45) {... */\n      tag_768\n      jumpi\n        /* \"RouletteGame.sol\":32802:32808  result */\n      sload(0x11)\n        /* \"RouletteGame.sol\":32782:32809  isInSecondColumnSet(result) */\n      tag_740\n      swap1\n        /* \"RouletteGame.sol\":32802:32808  result */\n      0xff\n      and\n        /* \"RouletteGame.sol\":32782:32801  isInSecondColumnSet */\n      tag_188\n        /* \"RouletteGame.sol\":32782:32809  isInSecondColumnSet(result) */\n      jump\t// in\n        /* \"RouletteGame.sol\":32734:35345  if (bets[i].option == 45) {... */\n    tag_768:\n        /* \"RouletteGame.sol\":33265:33269  bets */\n      0x0f\n        /* \"RouletteGame.sol\":33270:33271  i */\n      dup2\n        /* \"RouletteGame.sol\":33265:33272  bets[i] */\n      dup2\n      sload\n      dup2\n      lt\n      tag_795\n      jumpi\n      tag_795\n      tag_281\n      jump\t// in\n    tag_795:\n      0x00\n      swap2\n      dup3\n      mstore\n      0x20\n      swap1\n      swap2\n      keccak256\n      0x02\n      swap1\n      swap2\n      mul\n      add\n        /* \"RouletteGame.sol\":33265:33279  bets[i].option */\n      sload\n      shl(0xa0, 0x01)\n      swap1\n      div\n      0xff\n      and\n        /* \"RouletteGame.sol\":33283:33285  46 */\n      0x2e\n        /* \"RouletteGame.sol\":33265:33285  bets[i].option == 46 */\n      sub\n        /* \"RouletteGame.sol\":33261:35345  if (bets[i].option == 46) {... */\n      tag_797\n      jumpi\n        /* \"RouletteGame.sol\":33328:33334  result */\n      sload(0x11)\n        /* \"RouletteGame.sol\":33309:33335  isInThirdColumnSet(result) */\n      tag_740\n      swap1\n        /* \"RouletteGame.sol\":33328:33334  result */\n      0xff\n      and\n        /* \"RouletteGame.sol\":33309:33327  isInThirdColumnSet */\n      tag_254\n        /* \"RouletteGame.sol\":33309:33335  isInThirdColumnSet(result) */\n      jump\t// in\n        /* \"RouletteGame.sol\":33261:35345  if (bets[i].option == 46) {... */\n    tag_797:\n        /* \"RouletteGame.sol\":33791:33795  bets */\n      0x0f\n        /* \"RouletteGame.sol\":33796:33797  i */\n      dup2\n        /* \"RouletteGame.sol\":33791:33798  bets[i] */\n      dup2\n      sload\n      dup2\n      lt\n      tag_824\n      jumpi\n      tag_824\n      tag_281\n      jump\t// in\n    tag_824:\n      0x00\n      swap2\n      dup3\n      mstore\n      0x20\n      swap1\n      swap2\n      keccak256\n      0x02\n      swap1\n      swap2\n      mul\n      add\n        /* \"RouletteGame.sol\":33791:33805  bets[i].option */\n      sload\n      shl(0xa0, 0x01)\n      swap1\n      div\n      0xff\n      and\n        /* \"RouletteGame.sol\":33809:33811  47 */\n      0x2f\n        /* \"RouletteGame.sol\":33791:33811  bets[i].option == 47 */\n      sub\n        /* \"RouletteGame.sol\":33787:35345  if (bets[i].option == 47) {... */\n      tag_826\n      jumpi\n        /* \"RouletteGame.sol\":33853:33859  result */\n      sload(0x11)\n        /* \"RouletteGame.sol\":33835:33860  isInFirstDozenSet(result) */\n      tag_740\n      swap1\n        /* \"RouletteGame.sol\":33853:33859  result */\n      0xff\n      and\n        /* \"RouletteGame.sol\":33835:33852  isInFirstDozenSet */\n      tag_145\n        /* \"RouletteGame.sol\":33835:33860  isInFirstDozenSet(result) */\n      jump\t// in\n        /* \"RouletteGame.sol\":33787:35345  if (bets[i].option == 47) {... */\n    tag_826:\n        /* \"RouletteGame.sol\":34312:34316  bets */\n      0x0f\n        /* \"RouletteGame.sol\":34317:34318  i */\n      dup2\n        /* \"RouletteGame.sol\":34312:34319  bets[i] */\n      dup2\n      sload\n      dup2\n      lt\n      tag_853\n      jumpi\n      tag_853\n      tag_281\n      jump\t// in\n    tag_853:\n      0x00\n      swap2\n      dup3\n      mstore\n      0x20\n      swap1\n      swap2\n      keccak256\n      0x02\n      swap1\n      swap2\n      mul\n      add\n        /* \"RouletteGame.sol\":34312:34326  bets[i].option */\n      sload\n      shl(0xa0, 0x01)\n      swap1\n      div\n      0xff\n      and\n        /* \"RouletteGame.sol\":34330:34332  48 */\n      0x30\n        /* \"RouletteGame.sol\":34312:34332  bets[i].option == 48 */\n      sub\n        /* \"RouletteGame.sol\":34308:35345  if (bets[i].option == 48) {... */\n      tag_855\n      jumpi\n        /* \"RouletteGame.sol\":34375:34381  result */\n      sload(0x11)\n        /* \"RouletteGame.sol\":34356:34382  isInSecondDozenSet(result) */\n      tag_740\n      swap1\n        /* \"RouletteGame.sol\":34375:34381  result */\n      0xff\n      and\n        /* \"RouletteGame.sol\":34356:34374  isInSecondDozenSet */\n      tag_104\n        /* \"RouletteGame.sol\":34356:34382  isInSecondDozenSet(result) */\n      jump\t// in\n        /* \"RouletteGame.sol\":34308:35345  if (bets[i].option == 48) {... */\n    tag_855:\n        /* \"RouletteGame.sol\":34834:34838  bets */\n      0x0f\n        /* \"RouletteGame.sol\":34839:34840  i */\n      dup2\n        /* \"RouletteGame.sol\":34834:34841  bets[i] */\n      dup2\n      sload\n      dup2\n      lt\n      tag_882\n      jumpi\n      tag_882\n      tag_281\n      jump\t// in\n    tag_882:\n      0x00\n      swap2\n      dup3\n      mstore\n      0x20\n      swap1\n      swap2\n      keccak256\n      0x02\n      swap1\n      swap2\n      mul\n      add\n        /* \"RouletteGame.sol\":34834:34848  bets[i].option */\n      sload\n      shl(0xa0, 0x01)\n      swap1\n      div\n      0xff\n      and\n        /* \"RouletteGame.sol\":34852:34854  49 */\n      0x31\n        /* \"RouletteGame.sol\":34834:34854  bets[i].option == 49 */\n      sub\n        /* \"RouletteGame.sol\":34830:35345  if (bets[i].option == 49) {... */\n      tag_886\n      jumpi\n        /* \"RouletteGame.sol\":34896:34902  result */\n      sload(0x11)\n        /* \"RouletteGame.sol\":34878:34903  isInThirdDozenSet(result) */\n      tag_885\n      swap1\n        /* \"RouletteGame.sol\":34896:34902  result */\n      0xff\n      and\n        /* \"RouletteGame.sol\":34878:34895  isInThirdDozenSet */\n      tag_202\n        /* \"RouletteGame.sol\":34878:34903  isInThirdDozenSet(result) */\n      jump\t// in\n    tag_885:\n        /* \"RouletteGame.sol\":34874:35331  if (isInThirdDozenSet(result)) {... */\n      iszero\n      tag_886\n      jumpi\n        /* \"RouletteGame.sol\":34970:34974  bets */\n      0x0f\n        /* \"RouletteGame.sol\":34975:34976  i */\n      dup2\n        /* \"RouletteGame.sol\":34970:34977  bets[i] */\n      dup2\n      sload\n      dup2\n      lt\n      tag_888\n      jumpi\n      tag_888\n      tag_281\n      jump\t// in\n    tag_888:\n      0x00\n      swap2\n      dup3\n      mstore\n      0x20\n      swap1\n      swap2\n      keccak256\n      0x02\n      swap1\n      swap2\n      mul\n      add\n        /* \"RouletteGame.sol\":34970:34984  bets[i].player */\n      sload\n        /* \"RouletteGame.sol\":10739:10741  15 */\n      0x0f\n        /* \"RouletteGame.sol\":35021:35028  bets[i] */\n      dup1\n      sload\n      sub(shl(0xa0, 0x01), 0x01)\n        /* \"RouletteGame.sol\":34970:34984  bets[i].player */\n      swap1\n      swap3\n      and\n      swap2\n        /* \"RouletteGame.sol\":34962:35095  payable(bets[i].player).transfer(... */\n      0x08fc\n      swap2\n        /* \"RouletteGame.sol\":10246:10248  10 */\n      0x0a\n      swap2\n        /* \"RouletteGame.sol\":10739:10741  15 */\n      dup2\n      swap1\n        /* \"RouletteGame.sol\":35026:35027  i */\n      dup7\n      swap1\n        /* \"RouletteGame.sol\":35021:35028  bets[i] */\n      dup2\n      lt\n      tag_891\n      jumpi\n      tag_891\n      tag_281\n      jump\t// in\n    tag_891:\n      swap1\n      0x00\n      mstore\n      keccak256(0x00, 0x20)\n      swap1\n      0x02\n      mul\n      add\n        /* \"RouletteGame.sol\":35021:35035  bets[i].amount */\n      0x01\n      add\n      sload\n        /* \"RouletteGame.sol\":35021:35050  bets[i].amount * PAYOUT_DOZEN */\n      tag_893\n      swap2\n      swap1\n      tag_477\n      jump\t// in\n    tag_893:\n        /* \"RouletteGame.sol\":35020:35073  (bets[i].amount * PAYOUT_DOZEN) / PAYOUT_SCALE_FACTOR */\n      tag_894\n      swap2\n      swap1\n      tag_479\n      jump\t// in\n    tag_894:\n        /* \"RouletteGame.sol\":34962:35095  payable(bets[i].player).transfer(... */\n      mload(0x40)\n      dup2\n      iszero\n      swap1\n      swap3\n      mul\n      swap2\n      0x00\n      dup2\n      dup2\n      dup2\n      dup6\n      dup9\n      dup9\n      call\n      swap4\n      pop\n      pop\n      pop\n      pop\n      iszero\n      dup1\n      iszero\n      tag_896\n      jumpi\n      returndatasize\n      0x00\n      dup1\n      returndatacopy\n      revert(0x00, returndatasize)\n    tag_896:\n      pop\n        /* \"RouletteGame.sol\":35157:35161  bets */\n      0x0f\n        /* \"RouletteGame.sol\":35162:35163  i */\n      dup2\n        /* \"RouletteGame.sol\":35157:35164  bets[i] */\n      dup2\n      sload\n      dup2\n      lt\n      tag_898\n      jumpi\n      tag_898\n      tag_281\n      jump\t// in\n    tag_898:\n      0x00\n      swap2\n      dup3\n      mstore\n      0x20\n      swap1\n      swap2\n      keccak256\n      0x02\n      swap1\n      swap2\n      mul\n      add\n        /* \"RouletteGame.sol\":35157:35171  bets[i].player */\n      sload\n        /* \"RouletteGame.sol\":35197:35201  bets */\n      0x0f\n        /* \"RouletteGame.sol\":35197:35204  bets[i] */\n      dup1\n      sload\n      sub(shl(0xa0, 0x01), 0x01)\n        /* \"RouletteGame.sol\":35157:35171  bets[i].player */\n      swap1\n      swap3\n      and\n      swap2\n      0x00\n      dup1\n      mload\n      0x20\n      data_337182a60498b9244e8f65be0f6db847dff38b4b0254ab37294bb95d08c454c9\n      dup4\n      codecopy\n      dup2\n      mload\n      swap2\n      mstore\n        /* \"RouletteGame.sol\":35122:35312  BetPayout(... */\n      swap2\n        /* \"RouletteGame.sol\":35197:35201  bets */\n      swap1\n        /* \"RouletteGame.sol\":35202:35203  i */\n      dup5\n      swap1\n        /* \"RouletteGame.sol\":35197:35204  bets[i] */\n      dup2\n      lt\n      tag_901\n      jumpi\n      tag_901\n      tag_281\n      jump\t// in\n    tag_901:\n      swap1\n      0x00\n      mstore\n      keccak256(0x00, 0x20)\n      swap1\n      0x02\n      mul\n      add\n        /* \"RouletteGame.sol\":35197:35211  bets[i].option */\n      0x00\n      add\n      0x14\n      swap1\n      sload\n      swap1\n      0x0100\n      exp\n      swap1\n      div\n      0xff\n      and\n        /* \"RouletteGame.sol\":10246:10248  10 */\n      0x0a\n        /* \"RouletteGame.sol\":10739:10741  15 */\n      0x0f\n        /* \"RouletteGame.sol\":35238:35242  bets */\n      dup1\n        /* \"RouletteGame.sol\":35243:35244  i */\n      dup7\n        /* \"RouletteGame.sol\":35238:35245  bets[i] */\n      dup2\n      sload\n      dup2\n      lt\n      tag_904\n      jumpi\n      tag_904\n      tag_281\n      jump\t// in\n    tag_904:\n      swap1\n      0x00\n      mstore\n      keccak256(0x00, 0x20)\n      swap1\n      0x02\n      mul\n      add\n        /* \"RouletteGame.sol\":35238:35252  bets[i].amount */\n      0x01\n      add\n      sload\n        /* \"RouletteGame.sol\":35238:35267  bets[i].amount * PAYOUT_DOZEN */\n      tag_906\n      swap2\n      swap1\n      tag_477\n      jump\t// in\n    tag_906:\n        /* \"RouletteGame.sol\":35237:35290  (bets[i].amount * PAYOUT_DOZEN) / PAYOUT_SCALE_FACTOR */\n      tag_907\n      swap2\n      swap1\n      tag_479\n      jump\t// in\n    tag_907:\n        /* \"RouletteGame.sol\":35122:35312  BetPayout(... */\n      0x40\n      dup1\n      mload\n        /* \"#utility.yul\":16798:16802   */\n      0xff\n        /* \"#utility.yul\":16786:16803   */\n      swap1\n      swap4\n      and\n        /* \"#utility.yul\":16768:16804   */\n      dup4\n      mstore\n        /* \"#utility.yul\":16835:16837   */\n      0x20\n        /* \"#utility.yul\":16820:16838   */\n      dup4\n      add\n        /* \"#utility.yul\":16813:16847   */\n      swap2\n      swap1\n      swap2\n      mstore\n        /* \"#utility.yul\":16741:16759   */\n      add\n        /* \"RouletteGame.sol\":35122:35312  BetPayout(... */\n      mload(0x40)\n      dup1\n      swap2\n      sub\n      swap1\n      log2\n        /* \"RouletteGame.sol\":34874:35331  if (isInThirdDozenSet(result)) {... */\n    tag_886:\n        /* \"RouletteGame.sol\":27863:27866  i++ */\n      0x01\n      add\n        /* \"RouletteGame.sol\":27826:35355  for (uint256 i = 0; i < bets.length; i++) {... */\n      jump(tag_524)\n    tag_525:\n      pop\n        /* \"RouletteGame.sol\":35379:35383  host */\n      sload(0x0c)\n        /* \"RouletteGame.sol\":35369:35407  GameEnded(host, address(this).balance) */\n      mload(0x40)\n        /* \"RouletteGame.sol\":35385:35406  address(this).balance */\n      selfbalance\n        /* \"#utility.yul\":1357:1382   */\n      dup2\n      mstore\n      sub(shl(0xa0, 0x01), 0x01)\n        /* \"RouletteGame.sol\":35379:35383  host */\n      swap1\n      swap2\n      and\n      swap1\n        /* \"RouletteGame.sol\":35369:35407  GameEnded(host, address(this).balance) */\n      0xd4ba6fec82d9b0e8ffe50b9fed9e4be3b25c984ce1e0e016405a5528726e8a2c\n      swap1\n        /* \"#utility.yul\":1345:1347   */\n      0x20\n        /* \"#utility.yul\":1330:1348   */\n      add\n        /* \"RouletteGame.sol\":35369:35407  GameEnded(host, address(this).balance) */\n      mload(0x40)\n      dup1\n      swap2\n      sub\n      swap1\n      log2\n        /* \"RouletteGame.sol\":35425:35429  host */\n      sload(0x0c)\n        /* \"RouletteGame.sol\":35417:35462  payable(host).transfer(address(this).balance) */\n      mload(0x40)\n      sub(shl(0xa0, 0x01), 0x01)\n        /* \"RouletteGame.sol\":35425:35429  host */\n      swap1\n      swap2\n      and\n      swap1\n        /* \"RouletteGame.sol\":35440:35461  address(this).balance */\n      selfbalance\n        /* \"RouletteGame.sol\":35417:35462  payable(host).transfer(address(this).balance) */\n      dup1\n      iszero\n      0x08fc\n      mul\n      swap2\n        /* \"RouletteGame.sol\":35425:35429  host */\n      0x00\n        /* \"RouletteGame.sol\":35417:35462  payable(host).transfer(address(this).balance) */\n      dup2\n        /* \"RouletteGame.sol\":35425:35429  host */\n      dup2\n        /* \"RouletteGame.sol\":35417:35462  payable(host).transfer(address(this).balance) */\n      dup2\n        /* \"RouletteGame.sol\":35440:35461  address(this).balance */\n      dup6\n        /* \"RouletteGame.sol\":35425:35429  host */\n      dup9\n        /* \"RouletteGame.sol\":35417:35462  payable(host).transfer(address(this).balance) */\n      dup9\n      call\n      swap4\n      pop\n      pop\n      pop\n      pop\n      iszero\n      dup1\n      iszero\n      tag_486\n      jumpi\n      returndatasize\n      0x00\n      dup1\n      returndatacopy\n      revert(0x00, returndatasize)\n        /* \"RouletteGame.sol\":7338:7675  function isInSecondColumnSet(uint8 number) public view returns (bool) {... */\n    tag_188:\n        /* \"RouletteGame.sol\":7402:7406  bool */\n      0x00\n      dup1\n        /* \"RouletteGame.sol\":7418:7616  for (uint8 i = 0; i < OPTION_SECOND_COLUMN_SET.length; i++) {... */\n    tag_913:\n        /* \"RouletteGame.sol\":7440:7471  OPTION_SECOND_COLUMN_SET.length */\n      0x0c\n        /* \"RouletteGame.sol\":7436:7437  i */\n      dup2\n        /* \"RouletteGame.sol\":7436:7471  i < OPTION_SECOND_COLUMN_SET.length */\n      0xff\n      and\n      lt\n        /* \"RouletteGame.sol\":7418:7616  for (uint8 i = 0; i < OPTION_SECOND_COLUMN_SET.length; i++) {... */\n      iszero\n      tag_277\n      jumpi\n        /* \"RouletteGame.sol\":7527:7533  number */\n      dup3\n        /* \"RouletteGame.sol\":7496:7533  OPTION_SECOND_COLUMN_SET[i] == number */\n      0xff\n      and\n        /* \"RouletteGame.sol\":7496:7520  OPTION_SECOND_COLUMN_SET */\n      0x07\n        /* \"RouletteGame.sol\":7521:7522  i */\n      dup3\n        /* \"RouletteGame.sol\":7496:7523  OPTION_SECOND_COLUMN_SET[i] */\n      0xff\n      and\n      0x0c\n      dup2\n      lt\n      tag_917\n      jumpi\n      tag_917\n      tag_281\n      jump\t// in\n    tag_917:\n      0x20\n      dup2\n      div\n      swap1\n      swap2\n      add\n      sload\n      0xff\n      0x1f\n      swap1\n      swap3\n      and\n      0x0100\n      exp\n      swap1\n      div\n      and\n        /* \"RouletteGame.sol\":7496:7533  OPTION_SECOND_COLUMN_SET[i] == number */\n      sub\n        /* \"RouletteGame.sol\":7492:7606  if (OPTION_SECOND_COLUMN_SET[i] == number) {... */\n      tag_919\n      jumpi\n      pop\n        /* \"RouletteGame.sol\":7560:7564  true */\n      0x01\n      swap3\n        /* \"RouletteGame.sol\":7338:7675  function isInSecondColumnSet(uint8 number) public view returns (bool) {... */\n      swap2\n      pop\n      pop\n      jump\t// out\n        /* \"RouletteGame.sol\":7492:7606  if (OPTION_SECOND_COLUMN_SET[i] == number) {... */\n    tag_919:\n        /* \"RouletteGame.sol\":7473:7476  i++ */\n      dup1\n      tag_920\n      dup2\n      tag_285\n      jump\t// in\n    tag_920:\n      swap2\n      pop\n      pop\n        /* \"RouletteGame.sol\":7418:7616  for (uint8 i = 0; i < OPTION_SECOND_COLUMN_SET.length; i++) {... */\n      jump(tag_913)\n        /* \"RouletteGame.sol\":3028:3336  function isInLowSet(uint8 number) public view returns (bool) {... */\n    tag_197:\n        /* \"RouletteGame.sol\":3083:3087  bool */\n      0x00\n      dup1\n        /* \"RouletteGame.sol\":3099:3277  for (uint8 i = 0; i < OPTION_LOW_SET.length; i++) {... */\n    tag_922:\n        /* \"RouletteGame.sol\":3121:3142  OPTION_LOW_SET.length */\n      0x12\n        /* \"RouletteGame.sol\":3117:3118  i */\n      dup2\n        /* \"RouletteGame.sol\":3117:3142  i < OPTION_LOW_SET.length */\n      0xff\n      and\n      lt\n        /* \"RouletteGame.sol\":3099:3277  for (uint8 i = 0; i < OPTION_LOW_SET.length; i++) {... */\n      iszero\n      tag_277\n      jumpi\n        /* \"RouletteGame.sol\":3188:3194  number */\n      dup3\n        /* \"RouletteGame.sol\":3167:3194  OPTION_LOW_SET[i] == number */\n      0xff\n      and\n        /* \"RouletteGame.sol\":3167:3181  OPTION_LOW_SET */\n      0x00\n        /* \"RouletteGame.sol\":3182:3183  i */\n      dup3\n        /* \"RouletteGame.sol\":3167:3184  OPTION_LOW_SET[i] */\n      0xff\n      and\n      0x12\n      dup2\n      lt\n      tag_926\n      jumpi\n      tag_926\n      tag_281\n      jump\t// in\n    tag_926:\n      0x20\n      dup2\n      div\n      swap1\n      swap2\n      add\n      sload\n      0xff\n      0x1f\n      swap1\n      swap3\n      and\n      0x0100\n      exp\n      swap1\n      div\n      and\n        /* \"RouletteGame.sol\":3167:3194  OPTION_LOW_SET[i] == number */\n      sub\n        /* \"RouletteGame.sol\":3163:3267  if (OPTION_LOW_SET[i] == number) {... */\n      tag_928\n      jumpi\n      pop\n        /* \"RouletteGame.sol\":3221:3225  true */\n      0x01\n      swap3\n        /* \"RouletteGame.sol\":3028:3336  function isInLowSet(uint8 number) public view returns (bool) {... */\n      swap2\n      pop\n      pop\n      jump\t// out\n        /* \"RouletteGame.sol\":3163:3267  if (OPTION_LOW_SET[i] == number) {... */\n    tag_928:\n        /* \"RouletteGame.sol\":3144:3147  i++ */\n      dup1\n      tag_929\n      dup2\n      tag_285\n      jump\t// in\n    tag_929:\n      swap2\n      pop\n      pop\n        /* \"RouletteGame.sol\":3099:3277  for (uint8 i = 0; i < OPTION_LOW_SET.length; i++) {... */\n      jump(tag_922)\n        /* \"RouletteGame.sol\":9703:10034  function isInThirdDozenSet(uint8 number) public view returns (bool) {... */\n    tag_202:\n        /* \"RouletteGame.sol\":9765:9769  bool */\n      0x00\n      dup1\n        /* \"RouletteGame.sol\":9781:9975  for (uint8 i = 0; i < OPTION_THIRD_DOZEN_SET.length; i++) {... */\n    tag_931:\n        /* \"RouletteGame.sol\":9803:9832  OPTION_THIRD_DOZEN_SET.length */\n      0x0c\n        /* \"RouletteGame.sol\":9799:9800  i */\n      dup2\n        /* \"RouletteGame.sol\":9799:9832  i < OPTION_THIRD_DOZEN_SET.length */\n      0xff\n      and\n      lt\n        /* \"RouletteGame.sol\":9781:9975  for (uint8 i = 0; i < OPTION_THIRD_DOZEN_SET.length; i++) {... */\n      iszero\n      tag_277\n      jumpi\n        /* \"RouletteGame.sol\":9886:9892  number */\n      dup3\n        /* \"RouletteGame.sol\":9857:9892  OPTION_THIRD_DOZEN_SET[i] == number */\n      0xff\n      and\n        /* \"RouletteGame.sol\":9857:9879  OPTION_THIRD_DOZEN_SET */\n      0x0b\n        /* \"RouletteGame.sol\":9880:9881  i */\n      dup3\n        /* \"RouletteGame.sol\":9857:9882  OPTION_THIRD_DOZEN_SET[i] */\n      0xff\n      and\n      0x0c\n      dup2\n      lt\n      tag_935\n      jumpi\n      tag_935\n      tag_281\n      jump\t// in\n    tag_935:\n      0x20\n      dup2\n      div\n      swap1\n      swap2\n      add\n      sload\n      0xff\n      0x1f\n      swap1\n      swap3\n      and\n      0x0100\n      exp\n      swap1\n      div\n      and\n        /* \"RouletteGame.sol\":9857:9892  OPTION_THIRD_DOZEN_SET[i] == number */\n      sub\n        /* \"RouletteGame.sol\":9853:9965  if (OPTION_THIRD_DOZEN_SET[i] == number) {... */\n      tag_937\n      jumpi\n      pop\n        /* \"RouletteGame.sol\":9919:9923  true */\n      0x01\n      swap3\n        /* \"RouletteGame.sol\":9703:10034  function isInThirdDozenSet(uint8 number) public view returns (bool) {... */\n      swap2\n      pop\n      pop\n      jump\t// out\n        /* \"RouletteGame.sol\":9853:9965  if (OPTION_THIRD_DOZEN_SET[i] == number) {... */\n    tag_937:\n        /* \"RouletteGame.sol\":9834:9837  i++ */\n      dup1\n      tag_938\n      dup2\n      tag_285\n      jump\t// in\n    tag_938:\n      swap2\n      pop\n      pop\n        /* \"RouletteGame.sol\":9781:9975  for (uint8 i = 0; i < OPTION_THIRD_DOZEN_SET.length; i++) {... */\n      jump(tag_931)\n        /* \"RouletteGame.sol\":4648:4902  uint8[18] public OPTION_BLACK_SET = [... */\n    tag_207:\n      0x03\n      dup2\n      0x12\n      dup2\n      lt\n      tag_286\n      jumpi\n      0x00\n      dup1\n      revert\n        /* \"RouletteGame.sol\":7141:7332  uint8[12] public OPTION_SECOND_COLUMN_SET = [... */\n    tag_212:\n      0x07\n      dup2\n      0x0c\n      dup2\n      lt\n      tag_286\n      jumpi\n      0x00\n      dup1\n      revert\n        /* \"RouletteGame.sol\":3387:3644  uint8[18] public OPTION_HIGH_SET = [... */\n    tag_217:\n      0x01\n      dup2\n      0x12\n      dup2\n      lt\n      tag_286\n      jumpi\n      0x00\n      dup1\n      revert\n        /* \"RouletteGame.sol\":17537:17910  function deposit() public payable {... */\n    tag_226:\n        /* \"RouletteGame.sol\":17602:17608  status */\n      sload(0x0e)\n        /* \"RouletteGame.sol\":17602:17639  status == STATUS_PENDING_HOST_DEPOSIT */\n      0xff\n        /* \"RouletteGame.sol\":17602:17608  status */\n      and\n        /* \"RouletteGame.sol\":17602:17639  status == STATUS_PENDING_HOST_DEPOSIT */\n      iszero\n        /* \"RouletteGame.sol\":17581:17687  require(... */\n      tag_946\n      jumpi\n      mload(0x40)\n      shl(0xe5, 0x461bcd)\n      dup2\n      mstore\n        /* \"#utility.yul\":17413:17415   */\n      0x20\n        /* \"RouletteGame.sol\":17581:17687  require(... */\n      0x04\n      dup3\n      add\n        /* \"#utility.yul\":17395:17416   */\n      mstore\n        /* \"#utility.yul\":17452:17454   */\n      0x16\n        /* \"#utility.yul\":17432:17450   */\n      0x24\n      dup3\n      add\n        /* \"#utility.yul\":17425:17455   */\n      mstore\n      shl(0x52, 0x11195c1bdcda5d081a5cc81b9bdd08185b1b1bddd959)\n        /* \"#utility.yul\":17471:17489   */\n      0x44\n      dup3\n      add\n        /* \"#utility.yul\":17464:17516   */\n      mstore\n        /* \"#utility.yul\":17533:17551   */\n      0x64\n      add\n        /* \"RouletteGame.sol\":17581:17687  require(... */\n      tag_292\n        /* \"#utility.yul\":17211:17557   */\n      jump\n        /* \"RouletteGame.sol\":17581:17687  require(... */\n    tag_946:\n        /* \"RouletteGame.sol\":17719:17723  host */\n      and(sub(shl(0xa0, 0x01), 0x01), sload(0x0c))\n        /* \"RouletteGame.sol\":17705:17715  msg.sender */\n      caller\n        /* \"RouletteGame.sol\":17705:17723  msg.sender == host */\n      eq\n        /* \"RouletteGame.sol\":17697:17749  require(msg.sender == host, \"Only host can deposit\") */\n      tag_949\n      jumpi\n      mload(0x40)\n      shl(0xe5, 0x461bcd)\n      dup2\n      mstore\n        /* \"#utility.yul\":17764:17766   */\n      0x20\n        /* \"RouletteGame.sol\":17697:17749  require(msg.sender == host, \"Only host can deposit\") */\n      0x04\n      dup3\n      add\n        /* \"#utility.yul\":17746:17767   */\n      mstore\n        /* \"#utility.yul\":17803:17805   */\n      0x15\n        /* \"#utility.yul\":17783:17801   */\n      0x24\n      dup3\n      add\n        /* \"#utility.yul\":17776:17806   */\n      mstore\n      shl(0x5a, 0x13db9b1e481a1bdcdd0818d85b8819195c1bdcda5d)\n        /* \"#utility.yul\":17822:17840   */\n      0x44\n      dup3\n      add\n        /* \"#utility.yul\":17815:17866   */\n      mstore\n        /* \"#utility.yul\":17883:17901   */\n      0x64\n      add\n        /* \"RouletteGame.sol\":17697:17749  require(msg.sender == host, \"Only host can deposit\") */\n      tag_292\n        /* \"#utility.yul\":17562:17907   */\n      jump\n        /* \"RouletteGame.sol\":17697:17749  require(msg.sender == host, \"Only host can deposit\") */\n    tag_949:\n        /* \"RouletteGame.sol\":17779:17780  0 */\n      0x00\n        /* \"RouletteGame.sol\":17767:17776  msg.value */\n      callvalue\n        /* \"RouletteGame.sol\":17767:17780  msg.value > 0 */\n      gt\n        /* \"RouletteGame.sol\":17759:17807  require(msg.value > 0, \"Invalid deposit amount\") */\n      tag_952\n      jumpi\n      mload(0x40)\n      shl(0xe5, 0x461bcd)\n      dup2\n      mstore\n        /* \"#utility.yul\":18114:18116   */\n      0x20\n        /* \"RouletteGame.sol\":17759:17807  require(msg.value > 0, \"Invalid deposit amount\") */\n      0x04\n      dup3\n      add\n        /* \"#utility.yul\":18096:18117   */\n      mstore\n        /* \"#utility.yul\":18153:18155   */\n      0x16\n        /* \"#utility.yul\":18133:18151   */\n      0x24\n      dup3\n      add\n        /* \"#utility.yul\":18126:18156   */\n      mstore\n      shl(0x52, 0x125b9d985b1a590819195c1bdcda5d08185b5bdd5b9d)\n        /* \"#utility.yul\":18172:18190   */\n      0x44\n      dup3\n      add\n        /* \"#utility.yul\":18165:18217   */\n      mstore\n        /* \"#utility.yul\":18234:18252   */\n      0x64\n      add\n        /* \"RouletteGame.sol\":17759:17807  require(msg.value > 0, \"Invalid deposit amount\") */\n      tag_292\n        /* \"#utility.yul\":17912:18258   */\n      jump\n        /* \"RouletteGame.sol\":17759:17807  require(msg.value > 0, \"Invalid deposit amount\") */\n    tag_952:\n        /* \"RouletteGame.sol\":17818:17824  status */\n      0x0e\n        /* \"RouletteGame.sol\":17818:17852  status = STATUS_PENDING_PLAYER_BET */\n      dup1\n      sload\n      not(0xff)\n      and\n        /* \"RouletteGame.sol\":10873:10874  1 */\n      0x01\n        /* \"RouletteGame.sol\":17818:17852  status = STATUS_PENDING_PLAYER_BET */\n      or\n      swap1\n      sstore\n        /* \"RouletteGame.sol\":17867:17903  DepositPlaced(msg.sender, msg.value) */\n      mload(0x40)\n        /* \"RouletteGame.sol\":17881:17891  msg.sender */\n      caller\n      swap1\n        /* \"RouletteGame.sol\":17867:17903  DepositPlaced(msg.sender, msg.value) */\n      0x5a6c38b61cfc87b08186ec74738f787ec19c78c75b5b70442f580362abd96d29\n      swap1\n      tag_955\n      swap1\n        /* \"RouletteGame.sol\":17893:17902  msg.value */\n      callvalue\n        /* \"#utility.yul\":1357:1382   */\n      dup2\n      mstore\n        /* \"#utility.yul\":1345:1347   */\n      0x20\n        /* \"#utility.yul\":1330:1348   */\n      add\n      swap1\n        /* \"#utility.yul\":1211:1388   */\n      jump\n        /* \"RouletteGame.sol\":17867:17903  DepositPlaced(msg.sender, msg.value) */\n    tag_955:\n      mload(0x40)\n      dup1\n      swap2\n      sub\n      swap1\n      log2\n        /* \"RouletteGame.sol\":17537:17910  function deposit() public payable {... */\n      jump\t// out\n        /* \"RouletteGame.sol\":17298:17531  function getTotalBetsAmount() public view returns (uint256) {... */\n    tag_229:\n        /* \"RouletteGame.sol\":17349:17356  uint256 */\n      0x00\n      dup1\n      dup1\n        /* \"RouletteGame.sol\":17401:17497  for (uint256 i = 0; i < bets.length; i++) {... */\n    tag_957:\n        /* \"RouletteGame.sol\":17425:17429  bets */\n      0x0f\n        /* \"RouletteGame.sol\":17425:17436  bets.length */\n      sload\n        /* \"RouletteGame.sol\":17421:17436  i < bets.length */\n      dup2\n      lt\n        /* \"RouletteGame.sol\":17401:17497  for (uint256 i = 0; i < bets.length; i++) {... */\n      iszero\n      tag_958\n      jumpi\n        /* \"RouletteGame.sol\":17472:17476  bets */\n      0x0f\n        /* \"RouletteGame.sol\":17477:17478  i */\n      dup2\n        /* \"RouletteGame.sol\":17472:17479  bets[i] */\n      dup2\n      sload\n      dup2\n      lt\n      tag_961\n      jumpi\n      tag_961\n      tag_281\n      jump\t// in\n    tag_961:\n      swap1\n      0x00\n      mstore\n      keccak256(0x00, 0x20)\n      swap1\n      0x02\n      mul\n      add\n        /* \"RouletteGame.sol\":17472:17486  bets[i].amount */\n      0x01\n      add\n      sload\n        /* \"RouletteGame.sol\":17457:17486  totalAmount += bets[i].amount */\n      dup3\n      tag_963\n      swap2\n      swap1\n      tag_302\n      jump\t// in\n    tag_963:\n      swap2\n      pop\n        /* \"RouletteGame.sol\":17438:17441  i++ */\n      0x01\n      add\n        /* \"RouletteGame.sol\":17401:17497  for (uint256 i = 0; i < bets.length; i++) {... */\n      jump(tag_957)\n    tag_958:\n      pop\n        /* \"RouletteGame.sol\":17513:17524  totalAmount */\n      swap2\n        /* \"RouletteGame.sol\":17298:17531  function getTotalBetsAmount() public view returns (uint256) {... */\n      swap1\n      pop\n      jump\t// out\n        /* \"RouletteGame.sol\":5292:5545  uint8[18] public OPTION_EVEN_SET = [... */\n    tag_234:\n      0x04\n      dup2\n      0x12\n      dup2\n      lt\n      tag_286\n      jumpi\n      0x00\n      dup1\n      revert\n        /* \"RouletteGame.sol\":6169:6477  function isInOddSet(uint8 number) public view returns (bool) {... */\n    tag_239:\n        /* \"RouletteGame.sol\":6224:6228  bool */\n      0x00\n      dup1\n        /* \"RouletteGame.sol\":6240:6418  for (uint8 i = 0; i < OPTION_ODD_SET.length; i++) {... */\n    tag_967:\n        /* \"RouletteGame.sol\":6262:6283  OPTION_ODD_SET.length */\n      0x12\n        /* \"RouletteGame.sol\":6258:6259  i */\n      dup2\n        /* \"RouletteGame.sol\":6258:6283  i < OPTION_ODD_SET.length */\n      0xff\n      and\n      lt\n        /* \"RouletteGame.sol\":6240:6418  for (uint8 i = 0; i < OPTION_ODD_SET.length; i++) {... */\n      iszero\n      tag_277\n      jumpi\n        /* \"RouletteGame.sol\":6329:6335  number */\n      dup3\n        /* \"RouletteGame.sol\":6308:6335  OPTION_ODD_SET[i] == number */\n      0xff\n      and\n        /* \"RouletteGame.sol\":6308:6322  OPTION_ODD_SET */\n      0x05\n        /* \"RouletteGame.sol\":6323:6324  i */\n      dup3\n        /* \"RouletteGame.sol\":6308:6325  OPTION_ODD_SET[i] */\n      0xff\n      and\n      0x12\n      dup2\n      lt\n      tag_971\n      jumpi\n      tag_971\n      tag_281\n      jump\t// in\n    tag_971:\n      0x20\n      dup2\n      div\n      swap1\n      swap2\n      add\n      sload\n      0xff\n      0x1f\n      swap1\n      swap3\n      and\n      0x0100\n      exp\n      swap1\n      div\n      and\n        /* \"RouletteGame.sol\":6308:6335  OPTION_ODD_SET[i] == number */\n      sub\n        /* \"RouletteGame.sol\":6304:6408  if (OPTION_ODD_SET[i] == number) {... */\n      tag_973\n      jumpi\n      pop\n        /* \"RouletteGame.sol\":6362:6366  true */\n      0x01\n      swap3\n        /* \"RouletteGame.sol\":6169:6477  function isInOddSet(uint8 number) public view returns (bool) {... */\n      swap2\n      pop\n      pop\n      jump\t// out\n        /* \"RouletteGame.sol\":6304:6408  if (OPTION_ODD_SET[i] == number) {... */\n    tag_973:\n        /* \"RouletteGame.sol\":6285:6288  i++ */\n      dup1\n      tag_974\n      dup2\n      tag_285\n      jump\t// in\n    tag_974:\n      swap2\n      pop\n      pop\n        /* \"RouletteGame.sol\":6240:6418  for (uint8 i = 0; i < OPTION_ODD_SET.length; i++) {... */\n      jump(tag_967)\n        /* \"RouletteGame.sol\":6551:6741  uint8[12] public OPTION_FIRST_COLUMN_SET = [... */\n    tag_244:\n      0x06\n      dup2\n      0x0c\n      dup2\n      lt\n      tag_286\n      jumpi\n      0x00\n      dup1\n      revert\n        /* \"RouletteGame.sol\":3650:3961  function isInHighSet(uint8 number) public view returns (bool) {... */\n    tag_249:\n        /* \"RouletteGame.sol\":3706:3710  bool */\n      0x00\n      dup1\n        /* \"RouletteGame.sol\":3722:3902  for (uint8 i = 0; i < OPTION_HIGH_SET.length; i++) {... */\n    tag_978:\n        /* \"RouletteGame.sol\":3744:3766  OPTION_HIGH_SET.length */\n      0x12\n        /* \"RouletteGame.sol\":3740:3741  i */\n      dup2\n        /* \"RouletteGame.sol\":3740:3766  i < OPTION_HIGH_SET.length */\n      0xff\n      and\n      lt\n        /* \"RouletteGame.sol\":3722:3902  for (uint8 i = 0; i < OPTION_HIGH_SET.length; i++) {... */\n      iszero\n      tag_277\n      jumpi\n        /* \"RouletteGame.sol\":3813:3819  number */\n      dup3\n        /* \"RouletteGame.sol\":3791:3819  OPTION_HIGH_SET[i] == number */\n      0xff\n      and\n        /* \"RouletteGame.sol\":3791:3806  OPTION_HIGH_SET */\n      0x01\n        /* \"RouletteGame.sol\":3807:3808  i */\n      dup3\n        /* \"RouletteGame.sol\":3791:3809  OPTION_HIGH_SET[i] */\n      0xff\n      and\n      0x12\n      dup2\n      lt\n      tag_982\n      jumpi\n      tag_982\n      tag_281\n      jump\t// in\n    tag_982:\n      0x20\n      dup2\n      div\n      swap1\n      swap2\n      add\n      sload\n      0xff\n      0x1f\n      swap1\n      swap3\n      and\n      0x0100\n      exp\n      swap1\n      div\n      and\n        /* \"RouletteGame.sol\":3791:3819  OPTION_HIGH_SET[i] == number */\n      sub\n        /* \"RouletteGame.sol\":3787:3892  if (OPTION_HIGH_SET[i] == number) {... */\n      tag_984\n      jumpi\n      pop\n        /* \"RouletteGame.sol\":3846:3850  true */\n      0x01\n      swap3\n        /* \"RouletteGame.sol\":3650:3961  function isInHighSet(uint8 number) public view returns (bool) {... */\n      swap2\n      pop\n      pop\n      jump\t// out\n        /* \"RouletteGame.sol\":3787:3892  if (OPTION_HIGH_SET[i] == number) {... */\n    tag_984:\n        /* \"RouletteGame.sol\":3768:3771  i++ */\n      dup1\n      tag_985\n      dup2\n      tag_285\n      jump\t// in\n    tag_985:\n      swap2\n      pop\n      pop\n        /* \"RouletteGame.sol\":3722:3902  for (uint8 i = 0; i < OPTION_HIGH_SET.length; i++) {... */\n      jump(tag_978)\n        /* \"RouletteGame.sol\":7930:8264  function isInThirdColumnSet(uint8 number) public view returns (bool) {... */\n    tag_254:\n        /* \"RouletteGame.sol\":7993:7997  bool */\n      0x00\n      dup1\n        /* \"RouletteGame.sol\":8009:8205  for (uint8 i = 0; i < OPTION_THIRD_COLUMN_SET.length; i++) {... */\n    tag_987:\n        /* \"RouletteGame.sol\":8031:8061  OPTION_THIRD_COLUMN_SET.length */\n      0x0c\n        /* \"RouletteGame.sol\":8027:8028  i */\n      dup2\n        /* \"RouletteGame.sol\":8027:8061  i < OPTION_THIRD_COLUMN_SET.length */\n      0xff\n      and\n      lt\n        /* \"RouletteGame.sol\":8009:8205  for (uint8 i = 0; i < OPTION_THIRD_COLUMN_SET.length; i++) {... */\n      iszero\n      tag_277\n      jumpi\n        /* \"RouletteGame.sol\":8116:8122  number */\n      dup3\n        /* \"RouletteGame.sol\":8086:8122  OPTION_THIRD_COLUMN_SET[i] == number */\n      0xff\n      and\n        /* \"RouletteGame.sol\":8086:8109  OPTION_THIRD_COLUMN_SET */\n      0x08\n        /* \"RouletteGame.sol\":8110:8111  i */\n      dup3\n        /* \"RouletteGame.sol\":8086:8112  OPTION_THIRD_COLUMN_SET[i] */\n      0xff\n      and\n      0x0c\n      dup2\n      lt\n      tag_991\n      jumpi\n      tag_991\n      tag_281\n      jump\t// in\n    tag_991:\n      0x20\n      dup2\n      div\n      swap1\n      swap2\n      add\n      sload\n      0xff\n      0x1f\n      swap1\n      swap3\n      and\n      0x0100\n      exp\n      swap1\n      div\n      and\n        /* \"RouletteGame.sol\":8086:8122  OPTION_THIRD_COLUMN_SET[i] == number */\n      sub\n        /* \"RouletteGame.sol\":8082:8195  if (OPTION_THIRD_COLUMN_SET[i] == number) {... */\n      tag_993\n      jumpi\n      pop\n        /* \"RouletteGame.sol\":8149:8153  true */\n      0x01\n      swap3\n        /* \"RouletteGame.sol\":7930:8264  function isInThirdColumnSet(uint8 number) public view returns (bool) {... */\n      swap2\n      pop\n      pop\n      jump\t// out\n        /* \"RouletteGame.sol\":8082:8195  if (OPTION_THIRD_COLUMN_SET[i] == number) {... */\n    tag_993:\n        /* \"RouletteGame.sol\":8063:8066  i++ */\n      dup1\n      tag_994\n      dup2\n      tag_285\n      jump\t// in\n    tag_994:\n      swap2\n      pop\n      pop\n        /* \"RouletteGame.sol\":8009:8205  for (uint8 i = 0; i < OPTION_THIRD_COLUMN_SET.length; i++) {... */\n      jump(tag_987)\n        /* \"RouletteGame.sol\":2775:3022  uint8[18] public OPTION_LOW_SET = [... */\n    tag_259:\n      0x00\n      dup2\n      0x12\n      dup2\n      lt\n      tag_286\n      jumpi\n      0x00\n      dup1\n      revert\n        /* \"RouletteGame.sol\":5912:6163  uint8[18] public OPTION_ODD_SET = [... */\n    tag_273:\n      0x05\n      dup2\n      0x12\n      dup2\n      lt\n      tag_286\n      jumpi\n      0x00\n      dup1\n      revert\n        /* \"RouletteGame.sol\":20498:20749  function isValidator(address _caller) internal view returns (bool) {... */\n    tag_361:\n        /* \"RouletteGame.sol\":20559:20563  bool */\n      0x00\n      dup1\n        /* \"RouletteGame.sol\":20575:20721  for (uint256 i = 0; i < validators.length; i++) {... */\n    tag_1000:\n        /* \"RouletteGame.sol\":20599:20609  validators */\n      0x12\n        /* \"RouletteGame.sol\":20599:20616  validators.length */\n      sload\n        /* \"RouletteGame.sol\":20595:20616  i < validators.length */\n      dup2\n      lt\n        /* \"RouletteGame.sol\":20575:20721  for (uint256 i = 0; i < validators.length; i++) {... */\n      iszero\n      tag_277\n      jumpi\n        /* \"RouletteGame.sol\":20658:20665  _caller */\n      dup3\n      sub(shl(0xa0, 0x01), 0x01)\n        /* \"RouletteGame.sol\":20641:20665  validators[i] == _caller */\n      and\n        /* \"RouletteGame.sol\":20641:20651  validators */\n      0x12\n        /* \"RouletteGame.sol\":20652:20653  i */\n      dup3\n        /* \"RouletteGame.sol\":20641:20654  validators[i] */\n      dup2\n      sload\n      dup2\n      lt\n      tag_1004\n      jumpi\n      tag_1004\n      tag_281\n      jump\t// in\n    tag_1004:\n      0x00\n      swap2\n      dup3\n      mstore\n      0x20\n      swap1\n      swap2\n      keccak256\n      add\n      sload\n      sub(shl(0xa0, 0x01), 0x01)\n      and\n        /* \"RouletteGame.sol\":20641:20665  validators[i] == _caller */\n      sub\n        /* \"RouletteGame.sol\":20637:20711  if (validators[i] == _caller) {... */\n      tag_1006\n      jumpi\n      pop\n        /* \"RouletteGame.sol\":20692:20696  true */\n      0x01\n      swap3\n        /* \"RouletteGame.sol\":20498:20749  function isValidator(address _caller) internal view returns (bool) {... */\n      swap2\n      pop\n      pop\n      jump\t// out\n        /* \"RouletteGame.sol\":20637:20711  if (validators[i] == _caller) {... */\n    tag_1006:\n        /* \"RouletteGame.sol\":20618:20621  i++ */\n      0x01\n      add\n        /* \"RouletteGame.sol\":20575:20721  for (uint256 i = 0; i < validators.length; i++) {... */\n      jump(tag_1000)\n        /* \"RouletteGame.sol\":13850:14601  function _uint2str(uint256 _i) private pure returns (string memory) {... */\n    tag_367:\n        /* \"RouletteGame.sol\":13903:13916  string memory */\n      0x60\n        /* \"RouletteGame.sol\":13932:13934  _i */\n      dup2\n        /* \"RouletteGame.sol\":13938:13939  0 */\n      0x00\n        /* \"RouletteGame.sol\":13932:13939  _i == 0 */\n      sub\n        /* \"RouletteGame.sol\":13928:14012  if (_i == 0) {... */\n      tag_1008\n      jumpi\n      pop\n      pop\n        /* \"RouletteGame.sol\":13955:13965  return \"0\" */\n      0x40\n      dup1\n      mload\n      dup1\n      dup3\n      add\n      swap1\n      swap2\n      mstore\n      0x01\n      dup2\n      mstore\n      shl(0xfc, 0x03)\n      0x20\n      dup3\n      add\n      mstore\n      swap1\n        /* \"RouletteGame.sol\":13850:14601  function _uint2str(uint256 _i) private pure returns (string memory) {... */\n      jump\t// out\n        /* \"RouletteGame.sol\":13928:14012  if (_i == 0) {... */\n    tag_1008:\n        /* \"RouletteGame.sol\":14034:14036  _i */\n      dup2\n        /* \"RouletteGame.sol\":14022:14031  uint256 j */\n      0x00\n        /* \"RouletteGame.sol\":14119:14188  while (j != 0) {... */\n    tag_1009:\n        /* \"RouletteGame.sol\":14126:14132  j != 0 */\n      dup2\n      iszero\n        /* \"RouletteGame.sol\":14119:14188  while (j != 0) {... */\n      tag_1010\n      jumpi\n        /* \"RouletteGame.sol\":14148:14156  length++ */\n      dup1\n      tag_1011\n      dup2\n      tag_1012\n      jump\t// in\n    tag_1011:\n      swap2\n      pop\n        /* \"RouletteGame.sol\":14170:14177  j /= 10 */\n      tag_1013\n      swap1\n      pop\n        /* \"RouletteGame.sol\":14175:14177  10 */\n      0x0a\n        /* \"RouletteGame.sol\":14170:14177  j /= 10 */\n      dup4\n      tag_479\n      jump\t// in\n    tag_1013:\n      swap2\n      pop\n        /* \"RouletteGame.sol\":14119:14188  while (j != 0) {... */\n      jump(tag_1009)\n    tag_1010:\n        /* \"RouletteGame.sol\":14246:14263  bytes memory bstr */\n      0x00\n        /* \"RouletteGame.sol\":14276:14282  length */\n      dup2\n        /* \"RouletteGame.sol\":14266:14283  new bytes(length) */\n      0xffffffffffffffff\n      dup2\n      gt\n      iszero\n      tag_1015\n      jumpi\n      tag_1015\n      tag_379\n      jump\t// in\n    tag_1015:\n      mload(0x40)\n      swap1\n      dup1\n      dup3\n      mstore\n      dup1\n      0x1f\n      add\n      not(0x1f)\n      and\n      0x20\n      add\n      dup3\n      add\n      0x40\n      mstore\n      dup1\n      iszero\n      tag_1016\n      jumpi\n      0x20\n      dup3\n      add\n      dup2\n      dup1\n      calldatasize\n      dup4\n      calldatacopy\n      add\n      swap1\n      pop\n    tag_1016:\n      pop\n        /* \"RouletteGame.sol\":14355:14357  _i */\n      dup6\n      swap4\n      pop\n        /* \"RouletteGame.sol\":14246:14283  bytes memory bstr = new bytes(length) */\n      swap1\n      pop\n        /* \"RouletteGame.sol\":14306:14312  length */\n      dup2\n        /* \"RouletteGame.sol\":14367:14565  while (j != 0) {... */\n    tag_1017:\n        /* \"RouletteGame.sol\":14374:14380  j != 0 */\n      dup4\n      iszero\n        /* \"RouletteGame.sol\":14367:14565  while (j != 0) {... */\n      tag_1018\n      jumpi\n        /* \"RouletteGame.sol\":14396:14399  k-- */\n      dup1\n      tag_1019\n      dup2\n      tag_1020\n      jump\t// in\n    tag_1019:\n      swap2\n      pop\n        /* \"RouletteGame.sol\":14493:14499  j % 10 */\n      tag_1021\n      swap1\n      pop\n        /* \"RouletteGame.sol\":14497:14499  10 */\n      0x0a\n        /* \"RouletteGame.sol\":14493:14494  j */\n      dup6\n        /* \"RouletteGame.sol\":14493:14499  j % 10 */\n      tag_321\n      jump\t// in\n    tag_1021:\n        /* \"RouletteGame.sol\":14487:14500  48 + (j % 10) */\n      tag_1022\n      swap1\n        /* \"RouletteGame.sol\":14487:14489  48 */\n      0x30\n        /* \"RouletteGame.sol\":14487:14500  48 + (j % 10) */\n      tag_302\n      jump\t// in\n    tag_1022:\n        /* \"RouletteGame.sol\":14474:14502  bytes1(uint8(48 + (j % 10))) */\n      0xf8\n      shl\n        /* \"RouletteGame.sol\":14464:14468  bstr */\n      dup3\n        /* \"RouletteGame.sol\":14469:14470  k */\n      dup3\n        /* \"RouletteGame.sol\":14464:14471  bstr[k] */\n      dup2\n      mload\n      dup2\n      lt\n      tag_1024\n      jumpi\n      tag_1024\n      tag_281\n      jump\t// in\n    tag_1024:\n      0x20\n      add\n      add\n        /* \"RouletteGame.sol\":14464:14502  bstr[k] = bytes1(uint8(48 + (j % 10))) */\n      swap1\n      not(sub(shl(0xf8, 0x01), 0x01))\n      and\n      swap1\n      dup2\n      0x00\n      byte\n      swap1\n      mstore8\n      pop\n        /* \"RouletteGame.sol\":14547:14554  j /= 10 */\n      tag_1025\n        /* \"RouletteGame.sol\":14552:14554  10 */\n      0x0a\n        /* \"RouletteGame.sol\":14547:14554  j /= 10 */\n      dup6\n      tag_479\n      jump\t// in\n    tag_1025:\n      swap4\n      pop\n        /* \"RouletteGame.sol\":14367:14565  while (j != 0) {... */\n      jump(tag_1017)\n    tag_1018:\n      pop\n        /* \"RouletteGame.sol\":14589:14593  bstr */\n      swap5\n        /* \"RouletteGame.sol\":13850:14601  function _uint2str(uint256 _i) private pure returns (string memory) {... */\n      swap4\n      pop\n      pop\n      pop\n      pop\n      jump\t// out\n        /* \"RouletteGame.sol\":14606:15127  function _bytes32ToHexString(... */\n    tag_369:\n        /* \"RouletteGame.sol\":14710:14752  bytes memory hexChars = \"0123456789abcdef\" */\n      0x40\n      dup1\n      mload\n      dup1\n      dup3\n      add\n      dup3\n      mstore\n      0x10\n      dup2\n      mstore\n      shl(0x81, 0x181899199a1a9b1b9c1cb0b131b232b3)\n      0x20\n      dup3\n      add\n      mstore\n        /* \"RouletteGame.sol\":14781:14794  new bytes(66) */\n      dup2\n      mload\n        /* \"RouletteGame.sol\":14791:14793  66 */\n      0x42\n        /* \"RouletteGame.sol\":14781:14794  new bytes(66) */\n      dup1\n      dup3\n      mstore\n      0x80\n      dup3\n      add\n      swap1\n      swap4\n      mstore\n        /* \"RouletteGame.sol\":14685:14698  string memory */\n      0x60\n      swap3\n      0x00\n      swap2\n        /* \"RouletteGame.sol\":14781:14794  new bytes(66) */\n      swap1\n      0x20\n      dup3\n      add\n      dup2\n      dup1\n      calldatasize\n      dup4\n      calldatacopy\n      add\n      swap1\n      pop\n      pop\n        /* \"RouletteGame.sol\":14762:14794  bytes memory str = new bytes(66) */\n      swap1\n      pop\n      shl(0xfc, 0x03)\n        /* \"RouletteGame.sol\":14827:14830  str */\n      dup2\n        /* \"RouletteGame.sol\":14831:14832  0 */\n      0x00\n        /* \"RouletteGame.sol\":14827:14833  str[0] */\n      dup2\n      mload\n      dup2\n      lt\n      tag_1031\n      jumpi\n      tag_1031\n      tag_281\n      jump\t// in\n    tag_1031:\n      0x20\n      add\n      add\n        /* \"RouletteGame.sol\":14827:14839  str[0] = \"0\" */\n      swap1\n      not(sub(shl(0xf8, 0x01), 0x01))\n      and\n      swap1\n      dup2\n      0x00\n      byte\n      swap1\n      mstore8\n      pop\n      shl(0xfb, 0x0f)\n        /* \"RouletteGame.sol\":14849:14852  str */\n      dup2\n        /* \"RouletteGame.sol\":14853:14854  1 */\n      0x01\n        /* \"RouletteGame.sol\":14849:14855  str[1] */\n      dup2\n      mload\n      dup2\n      lt\n      tag_1033\n      jumpi\n      tag_1033\n      tag_281\n      jump\t// in\n    tag_1033:\n      0x20\n      add\n      add\n        /* \"RouletteGame.sol\":14849:14861  str[1] = \"x\" */\n      swap1\n      not(sub(shl(0xf8, 0x01), 0x01))\n      and\n      swap1\n      dup2\n      0x00\n      byte\n      swap1\n      mstore8\n      pop\n        /* \"RouletteGame.sol\":14876:14885  uint256 i */\n      0x00\n        /* \"RouletteGame.sol\":14871:15093  for (uint256 i = 0; i < 32; i++) {... */\n    tag_1034:\n        /* \"RouletteGame.sol\":14895:14897  32 */\n      0x20\n        /* \"RouletteGame.sol\":14891:14892  i */\n      dup2\n        /* \"RouletteGame.sol\":14891:14897  i < 32 */\n      lt\n        /* \"RouletteGame.sol\":14871:15093  for (uint256 i = 0; i < 32; i++) {... */\n      iszero\n      tag_1035\n      jumpi\n        /* \"RouletteGame.sol\":14991:14999  hexChars */\n      dup3\n        /* \"RouletteGame.sol\":15017:15018  4 */\n      0x04\n        /* \"RouletteGame.sol\":15006:15010  data */\n      dup7\n        /* \"RouletteGame.sol\":15011:15012  i */\n      dup4\n        /* \"RouletteGame.sol\":15006:15013  data[i] */\n      0x20\n      dup2\n      lt\n      tag_1038\n      jumpi\n      tag_1038\n      tag_281\n      jump\t// in\n    tag_1038:\n      byte\n      0xf8\n      shl\n      sub(shl(0xf8, 0x01), 0x01)\n        /* \"RouletteGame.sol\":15006:15018  data[i] >> 4 */\n      not\n      and\n      swap1\n      shr\n        /* \"RouletteGame.sol\":15000:15019  uint8(data[i] >> 4) */\n      0xf8\n      shr\n        /* \"RouletteGame.sol\":14991:15020  hexChars[uint8(data[i] >> 4)] */\n      0xff\n      and\n      dup2\n      mload\n      dup2\n      lt\n      tag_1040\n      jumpi\n      tag_1040\n      tag_281\n      jump\t// in\n    tag_1040:\n      add\n      0x20\n      add\n      mload\n      not(sub(shl(0xf8, 0x01), 0x01))\n      and\n        /* \"RouletteGame.sol\":14974:14977  str */\n      dup3\n        /* \"RouletteGame.sol\":14982:14987  i * 2 */\n      tag_1041\n        /* \"RouletteGame.sol\":14982:14983  i */\n      dup4\n        /* \"RouletteGame.sol\":14986:14987  2 */\n      0x02\n        /* \"RouletteGame.sol\":14982:14987  i * 2 */\n      tag_477\n      jump\t// in\n    tag_1041:\n        /* \"RouletteGame.sol\":14978:14987  2 + i * 2 */\n      tag_1042\n      swap1\n        /* \"RouletteGame.sol\":14978:14979  2 */\n      0x02\n        /* \"RouletteGame.sol\":14978:14987  2 + i * 2 */\n      tag_302\n      jump\t// in\n    tag_1042:\n        /* \"RouletteGame.sol\":14974:14988  str[2 + i * 2] */\n      dup2\n      mload\n      dup2\n      lt\n      tag_1044\n      jumpi\n      tag_1044\n      tag_281\n      jump\t// in\n    tag_1044:\n      0x20\n      add\n      add\n        /* \"RouletteGame.sol\":14974:15020  str[2 + i * 2] = hexChars[uint8(data[i] >> 4)] */\n      swap1\n      not(sub(shl(0xf8, 0x01), 0x01))\n      and\n      swap1\n      dup2\n      0x00\n      byte\n      swap1\n      mstore8\n      pop\n        /* \"RouletteGame.sol\":15051:15059  hexChars */\n      dup3\n        /* \"RouletteGame.sol\":15066:15070  data */\n      dup6\n        /* \"RouletteGame.sol\":15071:15072  i */\n      dup3\n        /* \"RouletteGame.sol\":15066:15073  data[i] */\n      0x20\n      dup2\n      lt\n      tag_1046\n      jumpi\n      tag_1046\n      tag_281\n      jump\t// in\n    tag_1046:\n        /* \"RouletteGame.sol\":15051:15082  hexChars[uint8(data[i] & 0x0f)] */\n      dup3\n      mload\n        /* \"RouletteGame.sol\":15066:15073  data[i] */\n      swap2\n      swap1\n      byte\n        /* \"RouletteGame.sol\":15076:15080  0x0f */\n      0x0f\n        /* \"RouletteGame.sol\":15060:15081  uint8(data[i] & 0x0f) */\n      and\n      swap1\n        /* \"RouletteGame.sol\":15051:15082  hexChars[uint8(data[i] & 0x0f)] */\n      dup2\n      lt\n      tag_1048\n      jumpi\n      tag_1048\n      tag_281\n      jump\t// in\n    tag_1048:\n      add\n      0x20\n      add\n      mload\n      not(sub(shl(0xf8, 0x01), 0x01))\n      and\n        /* \"RouletteGame.sol\":15034:15037  str */\n      dup3\n        /* \"RouletteGame.sol\":15042:15047  i * 2 */\n      tag_1049\n        /* \"RouletteGame.sol\":15042:15043  i */\n      dup4\n        /* \"RouletteGame.sol\":15046:15047  2 */\n      0x02\n        /* \"RouletteGame.sol\":15042:15047  i * 2 */\n      tag_477\n      jump\t// in\n    tag_1049:\n        /* \"RouletteGame.sol\":15038:15047  3 + i * 2 */\n      tag_1050\n      swap1\n        /* \"RouletteGame.sol\":15038:15039  3 */\n      0x03\n        /* \"RouletteGame.sol\":15038:15047  3 + i * 2 */\n      tag_302\n      jump\t// in\n    tag_1050:\n        /* \"RouletteGame.sol\":15034:15048  str[3 + i * 2] */\n      dup2\n      mload\n      dup2\n      lt\n      tag_1052\n      jumpi\n      tag_1052\n      tag_281\n      jump\t// in\n    tag_1052:\n      0x20\n      add\n      add\n        /* \"RouletteGame.sol\":15034:15082  str[3 + i * 2] = hexChars[uint8(data[i] & 0x0f)] */\n      swap1\n      not(sub(shl(0xf8, 0x01), 0x01))\n      and\n      swap1\n      dup2\n      0x00\n      byte\n      swap1\n      mstore8\n      pop\n        /* \"RouletteGame.sol\":14899:14902  i++ */\n      0x01\n      add\n        /* \"RouletteGame.sol\":14871:15093  for (uint256 i = 0; i < 32; i++) {... */\n      jump(tag_1034)\n    tag_1035:\n      pop\n        /* \"RouletteGame.sol\":15116:15119  str */\n      swap4\n        /* \"RouletteGame.sol\":14606:15127  function _bytes32ToHexString(... */\n      swap3\n      pop\n      pop\n      pop\n      jump\t// out\n        /* \"RouletteGame.sol\":16368:16994  function _addressesToString(... */\n    tag_393:\n        /* \"RouletteGame.sol\":16457:16470  string memory */\n      0x60\n        /* \"RouletteGame.sol\":16486:16492  _addrs */\n      dup2\n        /* \"RouletteGame.sol\":16486:16499  _addrs.length */\n      mload\n        /* \"RouletteGame.sol\":16503:16504  0 */\n      0x00\n        /* \"RouletteGame.sol\":16486:16504  _addrs.length == 0 */\n      sub\n        /* \"RouletteGame.sol\":16482:16542  if (_addrs.length == 0) {... */\n      tag_1054\n      jumpi\n      pop\n      pop\n        /* \"RouletteGame.sol\":16520:16531  return \"[]\" */\n      0x40\n      dup1\n      mload\n      dup1\n      dup3\n      add\n      swap1\n      swap2\n      mstore\n      0x02\n      dup2\n      mstore\n      shl(0xf0, 0x5b5d)\n      0x20\n      dup3\n      add\n      mstore\n      swap1\n        /* \"RouletteGame.sol\":16368:16994  function _addressesToString(... */\n      jump\t// out\n        /* \"RouletteGame.sol\":16482:16542  if (_addrs.length == 0) {... */\n    tag_1054:\n        /* \"RouletteGame.sol\":16552:16581  bytes memory add_result = \"[\" */\n      0x40\n      dup1\n      mload\n      dup1\n      dup3\n      add\n      swap1\n      swap2\n      mstore\n      0x01\n      dup2\n      mstore\n      shl(0xf8, 0x5b)\n      0x20\n      dup3\n      add\n      mstore\n        /* \"RouletteGame.sol\":16552:16575  bytes memory add_result */\n      0x00\n        /* \"RouletteGame.sol\":16592:16897  for (uint256 i = 0; i < _addrs.length; i++) {... */\n    tag_1055:\n        /* \"RouletteGame.sol\":16616:16622  _addrs */\n      dup4\n        /* \"RouletteGame.sol\":16616:16629  _addrs.length */\n      mload\n        /* \"RouletteGame.sol\":16612:16613  i */\n      dup2\n        /* \"RouletteGame.sol\":16612:16629  i < _addrs.length */\n      lt\n        /* \"RouletteGame.sol\":16592:16897  for (uint256 i = 0; i < _addrs.length; i++) {... */\n      iszero\n      tag_1056\n      jumpi\n        /* \"RouletteGame.sol\":16697:16707  add_result */\n      dup2\n        /* \"RouletteGame.sol\":16725:16752  _addressToString(_addrs[i]) */\n      tag_1058\n        /* \"RouletteGame.sol\":16742:16748  _addrs */\n      dup6\n        /* \"RouletteGame.sol\":16749:16750  i */\n      dup4\n        /* \"RouletteGame.sol\":16742:16751  _addrs[i] */\n      dup2\n      mload\n      dup2\n      lt\n      tag_1060\n      jumpi\n      tag_1060\n      tag_281\n      jump\t// in\n    tag_1060:\n      0x20\n      mul\n      0x20\n      add\n      add\n      mload\n        /* \"RouletteGame.sol\":16725:16741  _addressToString */\n      tag_1061\n        /* \"RouletteGame.sol\":16725:16752  _addressToString(_addrs[i]) */\n      jump\t// in\n    tag_1058:\n        /* \"RouletteGame.sol\":16663:16766  abi.encodePacked(... */\n      add(0x20, mload(0x40))\n      tag_1062\n      swap3\n      swap2\n      swap1\n      tag_1063\n      jump\t// in\n    tag_1062:\n      mload(0x40)\n      0x20\n      dup2\n      dup4\n      sub\n      sub\n      dup2\n      mstore\n      swap1\n      0x40\n      mstore\n        /* \"RouletteGame.sol\":16650:16766  add_result = abi.encodePacked(... */\n      swap2\n      pop\n        /* \"RouletteGame.sol\":16804:16805  1 */\n      0x01\n        /* \"RouletteGame.sol\":16788:16794  _addrs */\n      dup5\n        /* \"RouletteGame.sol\":16788:16801  _addrs.length */\n      mload\n        /* \"RouletteGame.sol\":16788:16805  _addrs.length - 1 */\n      tag_1064\n      swap2\n      swap1\n      tag_1065\n      jump\t// in\n    tag_1064:\n        /* \"RouletteGame.sol\":16784:16785  i */\n      dup2\n        /* \"RouletteGame.sol\":16784:16805  i < _addrs.length - 1 */\n      lt\n        /* \"RouletteGame.sol\":16780:16887  if (i < _addrs.length - 1) {... */\n      iszero\n      tag_1066\n      jumpi\n        /* \"RouletteGame.sol\":16855:16865  add_result */\n      dup2\n        /* \"RouletteGame.sol\":16838:16872  abi.encodePacked(add_result, \", \") */\n      add(0x20, mload(0x40))\n      tag_1067\n      swap2\n      swap1\n      tag_1068\n      jump\t// in\n    tag_1067:\n      mload(0x40)\n      0x20\n      dup2\n      dup4\n      sub\n      sub\n      dup2\n      mstore\n      swap1\n      0x40\n      mstore\n        /* \"RouletteGame.sol\":16825:16872  add_result = abi.encodePacked(add_result, \", \") */\n      swap2\n      pop\n        /* \"RouletteGame.sol\":16780:16887  if (i < _addrs.length - 1) {... */\n    tag_1066:\n        /* \"RouletteGame.sol\":16631:16634  i++ */\n      0x01\n      add\n        /* \"RouletteGame.sol\":16592:16897  for (uint256 i = 0; i < _addrs.length; i++) {... */\n      jump(tag_1055)\n    tag_1056:\n      pop\n        /* \"RouletteGame.sol\":16936:16946  add_result */\n      dup1\n        /* \"RouletteGame.sol\":16919:16952  abi.encodePacked(add_result, \"]\") */\n      add(0x20, mload(0x40))\n      tag_1069\n      swap2\n      swap1\n      tag_1070\n      jump\t// in\n    tag_1069:\n      0x40\n      dup1\n      mload\n      not(0x1f)\n      dup2\n      dup5\n      sub\n      add\n      dup2\n      mstore\n      swap2\n      swap1\n      mstore\n      swap4\n        /* \"RouletteGame.sol\":16368:16994  function _addressesToString(... */\n      swap3\n      pop\n      pop\n      pop\n      jump\t// out\n        /* \"RouletteGame.sol\":15133:15631  function _bytesToHexString(... */\n    tag_409:\n        /* \"RouletteGame.sol\":15240:15282  bytes memory hexChars = \"0123456789abcdef\" */\n      0x40\n      dup1\n      mload\n      dup1\n      dup3\n      add\n      swap1\n      swap2\n      mstore\n      0x10\n      dup2\n      mstore\n      shl(0x81, 0x181899199a1a9b1b9c1cb0b131b232b3)\n      0x20\n      dup3\n      add\n      mstore\n        /* \"RouletteGame.sol\":15321:15332  data.length */\n      dup2\n      mload\n        /* \"RouletteGame.sol\":15215:15228  string memory */\n      0x60\n      swap2\n        /* \"RouletteGame.sol\":15240:15282  bytes memory hexChars = \"0123456789abcdef\" */\n      swap1\n        /* \"RouletteGame.sol\":15240:15261  bytes memory hexChars */\n      0x00\n      swap1\n        /* \"RouletteGame.sol\":15321:15336  data.length * 2 */\n      tag_1072\n      swap1\n        /* \"RouletteGame.sol\":15335:15336  2 */\n      0x02\n        /* \"RouletteGame.sol\":15321:15336  data.length * 2 */\n      tag_477\n      jump\t// in\n    tag_1072:\n        /* \"RouletteGame.sol\":15321:15340  data.length * 2 + 2 */\n      tag_1073\n      swap1\n        /* \"RouletteGame.sol\":15339:15340  2 */\n      0x02\n        /* \"RouletteGame.sol\":15321:15340  data.length * 2 + 2 */\n      tag_302\n      jump\t// in\n    tag_1073:\n        /* \"RouletteGame.sol\":15311:15341  new bytes(data.length * 2 + 2) */\n      0xffffffffffffffff\n      dup2\n      gt\n      iszero\n      tag_1075\n      jumpi\n      tag_1075\n      tag_379\n      jump\t// in\n    tag_1075:\n      mload(0x40)\n      swap1\n      dup1\n      dup3\n      mstore\n      dup1\n      0x1f\n      add\n      not(0x1f)\n      and\n      0x20\n      add\n      dup3\n      add\n      0x40\n      mstore\n      dup1\n      iszero\n      tag_1076\n      jumpi\n      0x20\n      dup3\n      add\n      dup2\n      dup1\n      calldatasize\n      dup4\n      calldatacopy\n      add\n      swap1\n      pop\n    tag_1076:\n      pop\n        /* \"RouletteGame.sol\":15292:15341  bytes memory str = new bytes(data.length * 2 + 2) */\n      swap1\n      pop\n      shl(0xfc, 0x03)\n        /* \"RouletteGame.sol\":15378:15381  str */\n      dup2\n        /* \"RouletteGame.sol\":15382:15383  0 */\n      0x00\n        /* \"RouletteGame.sol\":15378:15384  str[0] */\n      dup2\n      mload\n      dup2\n      lt\n      tag_1078\n      jumpi\n      tag_1078\n      tag_281\n      jump\t// in\n    tag_1078:\n      0x20\n      add\n      add\n        /* \"RouletteGame.sol\":15378:15390  str[0] = \"0\" */\n      swap1\n      not(sub(shl(0xf8, 0x01), 0x01))\n      and\n      swap1\n      dup2\n      0x00\n      byte\n      swap1\n      mstore8\n      pop\n      shl(0xfb, 0x0f)\n        /* \"RouletteGame.sol\":15400:15403  str */\n      dup2\n        /* \"RouletteGame.sol\":15404:15405  1 */\n      0x01\n        /* \"RouletteGame.sol\":15400:15406  str[1] */\n      dup2\n      mload\n      dup2\n      lt\n      tag_1080\n      jumpi\n      tag_1080\n      tag_281\n      jump\t// in\n    tag_1080:\n      0x20\n      add\n      add\n        /* \"RouletteGame.sol\":15400:15412  str[1] = \"x\" */\n      swap1\n      not(sub(shl(0xf8, 0x01), 0x01))\n      and\n      swap1\n      dup2\n      0x00\n      byte\n      swap1\n      mstore8\n      pop\n        /* \"RouletteGame.sol\":15427:15436  uint256 i */\n      0x00\n        /* \"RouletteGame.sol\":15422:15597  for (uint256 i = 0; i < data.length; i++) {... */\n    tag_1081:\n        /* \"RouletteGame.sol\":15446:15450  data */\n      dup5\n        /* \"RouletteGame.sol\":15446:15457  data.length */\n      mload\n        /* \"RouletteGame.sol\":15442:15443  i */\n      dup2\n        /* \"RouletteGame.sol\":15442:15457  i < data.length */\n      lt\n        /* \"RouletteGame.sol\":15422:15597  for (uint256 i = 0; i < data.length; i++) {... */\n      iszero\n      tag_1035\n      jumpi\n        /* \"RouletteGame.sol\":15495:15503  hexChars */\n      dup3\n        /* \"RouletteGame.sol\":15521:15522  4 */\n      0x04\n        /* \"RouletteGame.sol\":15510:15514  data */\n      dup7\n        /* \"RouletteGame.sol\":15515:15516  i */\n      dup4\n        /* \"RouletteGame.sol\":15510:15517  data[i] */\n      dup2\n      mload\n      dup2\n      lt\n      tag_1085\n      jumpi\n      tag_1085\n      tag_281\n      jump\t// in\n    tag_1085:\n      add\n      0x20\n      add\n      mload\n        /* \"RouletteGame.sol\":15495:15524  hexChars[uint8(data[i] >> 4)] */\n      dup3\n      mload\n      not(sub(shl(0xf8, 0x01), 0x01))\n        /* \"RouletteGame.sol\":15510:15517  data[i] */\n      swap1\n      swap2\n      and\n        /* \"RouletteGame.sol\":15510:15522  data[i] >> 4 */\n      swap1\n      swap2\n      shr\n        /* \"RouletteGame.sol\":15510:15517  data[i] */\n      0xf8\n        /* \"RouletteGame.sol\":15504:15523  uint8(data[i] >> 4) */\n      shr\n      swap1\n        /* \"RouletteGame.sol\":15495:15524  hexChars[uint8(data[i] >> 4)] */\n      dup2\n      lt\n      tag_1087\n      jumpi\n      tag_1087\n      tag_281\n      jump\t// in\n    tag_1087:\n      add\n      0x20\n      add\n      mload\n      not(sub(shl(0xf8, 0x01), 0x01))\n      and\n        /* \"RouletteGame.sol\":15478:15481  str */\n      dup3\n        /* \"RouletteGame.sol\":15486:15491  i * 2 */\n      tag_1088\n        /* \"RouletteGame.sol\":15486:15487  i */\n      dup4\n        /* \"RouletteGame.sol\":15490:15491  2 */\n      0x02\n        /* \"RouletteGame.sol\":15486:15491  i * 2 */\n      tag_477\n      jump\t// in\n    tag_1088:\n        /* \"RouletteGame.sol\":15482:15491  2 + i * 2 */\n      tag_1089\n      swap1\n        /* \"RouletteGame.sol\":15482:15483  2 */\n      0x02\n        /* \"RouletteGame.sol\":15482:15491  2 + i * 2 */\n      tag_302\n      jump\t// in\n    tag_1089:\n        /* \"RouletteGame.sol\":15478:15492  str[2 + i * 2] */\n      dup2\n      mload\n      dup2\n      lt\n      tag_1091\n      jumpi\n      tag_1091\n      tag_281\n      jump\t// in\n    tag_1091:\n      0x20\n      add\n      add\n        /* \"RouletteGame.sol\":15478:15524  str[2 + i * 2] = hexChars[uint8(data[i] >> 4)] */\n      swap1\n      not(sub(shl(0xf8, 0x01), 0x01))\n      and\n      swap1\n      dup2\n      0x00\n      byte\n      swap1\n      mstore8\n      pop\n        /* \"RouletteGame.sol\":15555:15563  hexChars */\n      dup3\n        /* \"RouletteGame.sol\":15570:15574  data */\n      dup6\n        /* \"RouletteGame.sol\":15575:15576  i */\n      dup3\n        /* \"RouletteGame.sol\":15570:15577  data[i] */\n      dup2\n      mload\n      dup2\n      lt\n      tag_1093\n      jumpi\n      tag_1093\n      tag_281\n      jump\t// in\n    tag_1093:\n      0x20\n      swap2\n      add\n      add\n      mload\n        /* \"RouletteGame.sol\":15555:15586  hexChars[uint8(data[i] & 0x0f)] */\n      dup2\n      mload\n        /* \"RouletteGame.sol\":15570:15577  data[i] */\n      0xf8\n      swap2\n      swap1\n      swap2\n      shr\n        /* \"RouletteGame.sol\":15580:15584  0x0f */\n      0x0f\n        /* \"RouletteGame.sol\":15564:15585  uint8(data[i] & 0x0f) */\n      and\n      swap1\n        /* \"RouletteGame.sol\":15555:15586  hexChars[uint8(data[i] & 0x0f)] */\n      dup2\n      lt\n      tag_1095\n      jumpi\n      tag_1095\n      tag_281\n      jump\t// in\n    tag_1095:\n      add\n      0x20\n      add\n      mload\n      not(sub(shl(0xf8, 0x01), 0x01))\n      and\n        /* \"RouletteGame.sol\":15538:15541  str */\n      dup3\n        /* \"RouletteGame.sol\":15546:15551  i * 2 */\n      tag_1096\n        /* \"RouletteGame.sol\":15546:15547  i */\n      dup4\n        /* \"RouletteGame.sol\":15550:15551  2 */\n      0x02\n        /* \"RouletteGame.sol\":15546:15551  i * 2 */\n      tag_477\n      jump\t// in\n    tag_1096:\n        /* \"RouletteGame.sol\":15542:15551  3 + i * 2 */\n      tag_1097\n      swap1\n        /* \"RouletteGame.sol\":15542:15543  3 */\n      0x03\n        /* \"RouletteGame.sol\":15542:15551  3 + i * 2 */\n      tag_302\n      jump\t// in\n    tag_1097:\n        /* \"RouletteGame.sol\":15538:15552  str[3 + i * 2] */\n      dup2\n      mload\n      dup2\n      lt\n      tag_1099\n      jumpi\n      tag_1099\n      tag_281\n      jump\t// in\n    tag_1099:\n      0x20\n      add\n      add\n        /* \"RouletteGame.sol\":15538:15586  str[3 + i * 2] = hexChars[uint8(data[i] & 0x0f)] */\n      swap1\n      not(sub(shl(0xf8, 0x01), 0x01))\n      and\n      swap1\n      dup2\n      0x00\n      byte\n      swap1\n      mstore8\n      pop\n        /* \"RouletteGame.sol\":15459:15462  i++ */\n      0x01\n      add\n        /* \"RouletteGame.sol\":15422:15597  for (uint256 i = 0; i < data.length; i++) {... */\n      jump(tag_1081)\n        /* \"RouletteGame.sol\":15718:16220  function _addressToString(... */\n    tag_1061:\n        /* \"RouletteGame.sol\":15820:15862  bytes memory hexChars = \"0123456789abcdef\" */\n      0x40\n      dup1\n      mload\n      dup1\n      dup3\n      add\n      dup3\n      mstore\n      0x10\n      dup2\n      mstore\n      shl(0x81, 0x181899199a1a9b1b9c1cb0b131b232b3)\n      0x20\n      dup3\n      add\n      mstore\n        /* \"RouletteGame.sol\":15930:15943  new bytes(42) */\n      dup2\n      mload\n        /* \"RouletteGame.sol\":15940:15942  42 */\n      0x2a\n        /* \"RouletteGame.sol\":15930:15943  new bytes(42) */\n      dup1\n      dup3\n      mstore\n        /* \"RouletteGame.sol\":15795:15808  string memory */\n      0x60\n        /* \"RouletteGame.sol\":15930:15943  new bytes(42) */\n      dup3\n      dup2\n      add\n      swap1\n      swap5\n      mstore\n        /* \"RouletteGame.sol\":15887:15901  bytes20(_addr) */\n      dup5\n      dup5\n      shl\n      swap2\n      0x00\n      swap2\n        /* \"RouletteGame.sol\":15930:15943  new bytes(42) */\n      0x20\n      dup3\n      add\n      dup2\n      dup1\n      calldatasize\n      dup4\n      calldatacopy\n      add\n      swap1\n      pop\n      pop\n        /* \"RouletteGame.sol\":15911:15943  bytes memory str = new bytes(42) */\n      swap1\n      pop\n      shl(0xfc, 0x03)\n        /* \"RouletteGame.sol\":15976:15979  str */\n      dup2\n        /* \"RouletteGame.sol\":15980:15981  0 */\n      0x00\n        /* \"RouletteGame.sol\":15976:15982  str[0] */\n      dup2\n      mload\n      dup2\n      lt\n      tag_1105\n      jumpi\n      tag_1105\n      tag_281\n      jump\t// in\n    tag_1105:\n      0x20\n      add\n      add\n        /* \"RouletteGame.sol\":15976:15988  str[0] = \"0\" */\n      swap1\n      not(sub(shl(0xf8, 0x01), 0x01))\n      and\n      swap1\n      dup2\n      0x00\n      byte\n      swap1\n      mstore8\n      pop\n      shl(0xfb, 0x0f)\n        /* \"RouletteGame.sol\":15998:16001  str */\n      dup2\n        /* \"RouletteGame.sol\":16002:16003  1 */\n      0x01\n        /* \"RouletteGame.sol\":15998:16004  str[1] */\n      dup2\n      mload\n      dup2\n      lt\n      tag_1107\n      jumpi\n      tag_1107\n      tag_281\n      jump\t// in\n    tag_1107:\n      0x20\n      add\n      add\n        /* \"RouletteGame.sol\":15998:16010  str[1] = \"x\" */\n      swap1\n      not(sub(shl(0xf8, 0x01), 0x01))\n      and\n      swap1\n      dup2\n      0x00\n      byte\n      swap1\n      mstore8\n      pop\n        /* \"RouletteGame.sol\":16025:16034  uint256 i */\n      0x00\n        /* \"RouletteGame.sol\":16020:16186  for (uint256 i = 0; i < 20; i++) {... */\n    tag_1108:\n        /* \"RouletteGame.sol\":16044:16046  20 */\n      0x14\n        /* \"RouletteGame.sol\":16040:16041  i */\n      dup2\n        /* \"RouletteGame.sol\":16040:16046  i < 20 */\n      lt\n        /* \"RouletteGame.sol\":16020:16186  for (uint256 i = 0; i < 20; i++) {... */\n      iszero\n      tag_1018\n      jumpi\n        /* \"RouletteGame.sol\":16084:16092  hexChars */\n      dup4\n        /* \"RouletteGame.sol\":16110:16111  4 */\n      0x04\n        /* \"RouletteGame.sol\":16099:16103  data */\n      dup5\n        /* \"RouletteGame.sol\":16104:16105  i */\n      dup4\n        /* \"RouletteGame.sol\":16099:16106  data[i] */\n      0x14\n      dup2\n      lt\n      tag_1112\n      jumpi\n      tag_1112\n      tag_281\n      jump\t// in\n    tag_1112:\n      byte\n      0xf8\n      shl\n      sub(shl(0xf8, 0x01), 0x01)\n        /* \"RouletteGame.sol\":16099:16111  data[i] >> 4 */\n      not\n      and\n      swap1\n      shr\n        /* \"RouletteGame.sol\":16093:16112  uint8(data[i] >> 4) */\n      0xf8\n      shr\n        /* \"RouletteGame.sol\":16084:16113  hexChars[uint8(data[i] >> 4)] */\n      0xff\n      and\n      dup2\n      mload\n      dup2\n      lt\n      tag_1114\n      jumpi\n      tag_1114\n      tag_281\n      jump\t// in\n    tag_1114:\n      add\n      0x20\n      add\n      mload\n      not(sub(shl(0xf8, 0x01), 0x01))\n      and\n        /* \"RouletteGame.sol\":16067:16070  str */\n      dup3\n        /* \"RouletteGame.sol\":16075:16080  i * 2 */\n      tag_1115\n        /* \"RouletteGame.sol\":16075:16076  i */\n      dup4\n        /* \"RouletteGame.sol\":16079:16080  2 */\n      0x02\n        /* \"RouletteGame.sol\":16075:16080  i * 2 */\n      tag_477\n      jump\t// in\n    tag_1115:\n        /* \"RouletteGame.sol\":16071:16080  2 + i * 2 */\n      tag_1116\n      swap1\n        /* \"RouletteGame.sol\":16071:16072  2 */\n      0x02\n        /* \"RouletteGame.sol\":16071:16080  2 + i * 2 */\n      tag_302\n      jump\t// in\n    tag_1116:\n        /* \"RouletteGame.sol\":16067:16081  str[2 + i * 2] */\n      dup2\n      mload\n      dup2\n      lt\n      tag_1118\n      jumpi\n      tag_1118\n      tag_281\n      jump\t// in\n    tag_1118:\n      0x20\n      add\n      add\n        /* \"RouletteGame.sol\":16067:16113  str[2 + i * 2] = hexChars[uint8(data[i] >> 4)] */\n      swap1\n      not(sub(shl(0xf8, 0x01), 0x01))\n      and\n      swap1\n      dup2\n      0x00\n      byte\n      swap1\n      mstore8\n      pop\n        /* \"RouletteGame.sol\":16144:16152  hexChars */\n      dup4\n        /* \"RouletteGame.sol\":16159:16163  data */\n      dup4\n        /* \"RouletteGame.sol\":16164:16165  i */\n      dup3\n        /* \"RouletteGame.sol\":16159:16166  data[i] */\n      0x14\n      dup2\n      lt\n      tag_1120\n      jumpi\n      tag_1120\n      tag_281\n      jump\t// in\n    tag_1120:\n        /* \"RouletteGame.sol\":16144:16175  hexChars[uint8(data[i] & 0x0f)] */\n      dup3\n      mload\n        /* \"RouletteGame.sol\":16159:16166  data[i] */\n      swap2\n      swap1\n      byte\n        /* \"RouletteGame.sol\":16169:16173  0x0f */\n      0x0f\n        /* \"RouletteGame.sol\":16153:16174  uint8(data[i] & 0x0f) */\n      and\n      swap1\n        /* \"RouletteGame.sol\":16144:16175  hexChars[uint8(data[i] & 0x0f)] */\n      dup2\n      lt\n      tag_1122\n      jumpi\n      tag_1122\n      tag_281\n      jump\t// in\n    tag_1122:\n      add\n      0x20\n      add\n      mload\n      not(sub(shl(0xf8, 0x01), 0x01))\n      and\n        /* \"RouletteGame.sol\":16127:16130  str */\n      dup3\n        /* \"RouletteGame.sol\":16135:16140  i * 2 */\n      tag_1123\n        /* \"RouletteGame.sol\":16135:16136  i */\n      dup4\n        /* \"RouletteGame.sol\":16139:16140  2 */\n      0x02\n        /* \"RouletteGame.sol\":16135:16140  i * 2 */\n      tag_477\n      jump\t// in\n    tag_1123:\n        /* \"RouletteGame.sol\":16131:16140  3 + i * 2 */\n      tag_1124\n      swap1\n        /* \"RouletteGame.sol\":16131:16132  3 */\n      0x03\n        /* \"RouletteGame.sol\":16131:16140  3 + i * 2 */\n      tag_302\n      jump\t// in\n    tag_1124:\n        /* \"RouletteGame.sol\":16127:16141  str[3 + i * 2] */\n      dup2\n      mload\n      dup2\n      lt\n      tag_1126\n      jumpi\n      tag_1126\n      tag_281\n      jump\t// in\n    tag_1126:\n      0x20\n      add\n      add\n        /* \"RouletteGame.sol\":16127:16175  str[3 + i * 2] = hexChars[uint8(data[i] & 0x0f)] */\n      swap1\n      not(sub(shl(0xf8, 0x01), 0x01))\n      and\n      swap1\n      dup2\n      0x00\n      byte\n      swap1\n      mstore8\n      pop\n        /* \"RouletteGame.sol\":16048:16051  i++ */\n      0x01\n      add\n        /* \"RouletteGame.sol\":16020:16186  for (uint256 i = 0; i < 20; i++) {... */\n      jump(tag_1108)\n        /* \"#utility.yul\":14:283   */\n    tag_59:\n        /* \"#utility.yul\":71:77   */\n      0x00\n        /* \"#utility.yul\":124:126   */\n      0x20\n        /* \"#utility.yul\":112:121   */\n      dup3\n        /* \"#utility.yul\":103:110   */\n      dup5\n        /* \"#utility.yul\":99:122   */\n      sub\n        /* \"#utility.yul\":95:127   */\n      slt\n        /* \"#utility.yul\":92:144   */\n      iszero\n      tag_1133\n      jumpi\n        /* \"#utility.yul\":140:141   */\n      0x00\n        /* \"#utility.yul\":137:138   */\n      dup1\n        /* \"#utility.yul\":130:142   */\n      revert\n        /* \"#utility.yul\":92:144   */\n    tag_1133:\n        /* \"#utility.yul\":179:188   */\n      dup2\n        /* \"#utility.yul\":166:189   */\n      calldataload\n        /* \"#utility.yul\":229:233   */\n      0xff\n        /* \"#utility.yul\":222:227   */\n      dup2\n        /* \"#utility.yul\":218:234   */\n      and\n        /* \"#utility.yul\":211:216   */\n      dup2\n        /* \"#utility.yul\":208:235   */\n      eq\n        /* \"#utility.yul\":198:253   */\n      tag_1134\n      jumpi\n        /* \"#utility.yul\":249:250   */\n      0x00\n        /* \"#utility.yul\":246:247   */\n      dup1\n        /* \"#utility.yul\":239:251   */\n      revert\n        /* \"#utility.yul\":198:253   */\n    tag_1134:\n        /* \"#utility.yul\":272:277   */\n      swap4\n        /* \"#utility.yul\":14:283   */\n      swap3\n      pop\n      pop\n      pop\n      jump\t// out\n        /* \"#utility.yul\":480:660   */\n    tag_66:\n        /* \"#utility.yul\":539:545   */\n      0x00\n        /* \"#utility.yul\":592:594   */\n      0x20\n        /* \"#utility.yul\":580:589   */\n      dup3\n        /* \"#utility.yul\":571:578   */\n      dup5\n        /* \"#utility.yul\":567:590   */\n      sub\n        /* \"#utility.yul\":563:595   */\n      slt\n        /* \"#utility.yul\":560:612   */\n      iszero\n      tag_1137\n      jumpi\n        /* \"#utility.yul\":608:609   */\n      0x00\n        /* \"#utility.yul\":605:606   */\n      dup1\n        /* \"#utility.yul\":598:610   */\n      revert\n        /* \"#utility.yul\":560:612   */\n    tag_1137:\n      pop\n        /* \"#utility.yul\":631:654   */\n      calldataload\n      swap2\n        /* \"#utility.yul\":480:660   */\n      swap1\n      pop\n      jump\t// out\n        /* \"#utility.yul\":1601:1887   */\n    tag_222:\n        /* \"#utility.yul\":1660:1666   */\n      0x00\n        /* \"#utility.yul\":1713:1715   */\n      0x20\n        /* \"#utility.yul\":1701:1710   */\n      dup3\n        /* \"#utility.yul\":1692:1699   */\n      dup5\n        /* \"#utility.yul\":1688:1711   */\n      sub\n        /* \"#utility.yul\":1684:1716   */\n      slt\n        /* \"#utility.yul\":1681:1733   */\n      iszero\n      tag_1143\n      jumpi\n        /* \"#utility.yul\":1729:1730   */\n      0x00\n        /* \"#utility.yul\":1726:1727   */\n      dup1\n        /* \"#utility.yul\":1719:1731   */\n      revert\n        /* \"#utility.yul\":1681:1733   */\n    tag_1143:\n        /* \"#utility.yul\":1755:1778   */\n      dup2\n      calldataload\n      sub(shl(0xa0, 0x01), 0x01)\n        /* \"#utility.yul\":1807:1838   */\n      dup2\n      and\n        /* \"#utility.yul\":1797:1839   */\n      dup2\n      eq\n        /* \"#utility.yul\":1787:1857   */\n      tag_1134\n      jumpi\n        /* \"#utility.yul\":1853:1854   */\n      0x00\n        /* \"#utility.yul\":1850:1851   */\n      dup1\n        /* \"#utility.yul\":1843:1855   */\n      revert\n        /* \"#utility.yul\":1892:2019   */\n    tag_281:\n        /* \"#utility.yul\":1953:1963   */\n      0x4e487b71\n        /* \"#utility.yul\":1948:1951   */\n      0xe0\n        /* \"#utility.yul\":1944:1964   */\n      shl\n        /* \"#utility.yul\":1941:1942   */\n      0x00\n        /* \"#utility.yul\":1934:1965   */\n      mstore\n        /* \"#utility.yul\":1984:1988   */\n      0x32\n        /* \"#utility.yul\":1981:1982   */\n      0x04\n        /* \"#utility.yul\":1974:1989   */\n      mstore\n        /* \"#utility.yul\":2008:2012   */\n      0x24\n        /* \"#utility.yul\":2005:2006   */\n      0x00\n        /* \"#utility.yul\":1998:2013   */\n      revert\n        /* \"#utility.yul\":2024:2151   */\n    tag_1127:\n        /* \"#utility.yul\":2085:2095   */\n      0x4e487b71\n        /* \"#utility.yul\":2080:2083   */\n      0xe0\n        /* \"#utility.yul\":2076:2096   */\n      shl\n        /* \"#utility.yul\":2073:2074   */\n      0x00\n        /* \"#utility.yul\":2066:2097   */\n      mstore\n        /* \"#utility.yul\":2116:2120   */\n      0x11\n        /* \"#utility.yul\":2113:2114   */\n      0x04\n        /* \"#utility.yul\":2106:2121   */\n      mstore\n        /* \"#utility.yul\":2140:2144   */\n      0x24\n        /* \"#utility.yul\":2137:2138   */\n      0x00\n        /* \"#utility.yul\":2130:2145   */\n      revert\n        /* \"#utility.yul\":2156:2331   */\n    tag_285:\n        /* \"#utility.yul\":2193:2196   */\n      0x00\n        /* \"#utility.yul\":2237:2241   */\n      0xff\n        /* \"#utility.yul\":2230:2235   */\n      dup3\n        /* \"#utility.yul\":2226:2242   */\n      and\n        /* \"#utility.yul\":2266:2270   */\n      0xff\n        /* \"#utility.yul\":2257:2264   */\n      dup2\n        /* \"#utility.yul\":2254:2271   */\n      sub\n        /* \"#utility.yul\":2251:2294   */\n      tag_1149\n      jumpi\n        /* \"#utility.yul\":2274:2292   */\n      tag_1149\n      tag_1127\n      jump\t// in\n    tag_1149:\n        /* \"#utility.yul\":2323:2324   */\n      0x01\n        /* \"#utility.yul\":2310:2325   */\n      add\n      swap3\n        /* \"#utility.yul\":2156:2331   */\n      swap2\n      pop\n      pop\n      jump\t// out\n        /* \"#utility.yul\":3043:3168   */\n    tag_302:\n        /* \"#utility.yul\":3108:3117   */\n      dup1\n      dup3\n      add\n        /* \"#utility.yul\":3129:3139   */\n      dup1\n      dup3\n      gt\n        /* \"#utility.yul\":3126:3162   */\n      iszero\n      tag_1154\n      jumpi\n        /* \"#utility.yul\":3142:3160   */\n      tag_1154\n      tag_1127\n      jump\t// in\n    tag_1154:\n        /* \"#utility.yul\":3043:3168   */\n      swap3\n      swap2\n      pop\n      pop\n      jump\t// out\n        /* \"#utility.yul\":3760:3971   */\n    tag_1128:\n        /* \"#utility.yul\":3801:3804   */\n      0x00\n        /* \"#utility.yul\":3839:3844   */\n      dup2\n        /* \"#utility.yul\":3833:3845   */\n      mload\n        /* \"#utility.yul\":3883:3889   */\n      dup1\n        /* \"#utility.yul\":3876:3880   */\n      0x20\n        /* \"#utility.yul\":3869:3874   */\n      dup5\n        /* \"#utility.yul\":3865:3881   */\n      add\n        /* \"#utility.yul\":3860:3863   */\n      dup6\n        /* \"#utility.yul\":3854:3890   */\n      mcopy\n        /* \"#utility.yul\":3945:3946   */\n      0x00\n        /* \"#utility.yul\":3909:3925   */\n      swap4\n      add\n        /* \"#utility.yul\":3934:3947   */\n      swap3\n      dup4\n      mstore\n      pop\n        /* \"#utility.yul\":3909:3925   */\n      swap1\n      swap2\n        /* \"#utility.yul\":3760:3971   */\n      swap1\n      pop\n      jump\t// out\n        /* \"#utility.yul\":3976:4306   */\n    tag_317:\n        /* \"#utility.yul\":4133:4136   */\n      0x00\n        /* \"#utility.yul\":4164:4193   */\n      tag_1159\n        /* \"#utility.yul\":4189:4192   */\n      dup3\n        /* \"#utility.yul\":4181:4187   */\n      dup6\n        /* \"#utility.yul\":4164:4193   */\n      tag_1128\n      jump\t// in\n    tag_1159:\n        /* \"#utility.yul\":4224:4226   */\n      0x60\n        /* \"#utility.yul\":4220:4235   */\n      swap4\n      swap1\n      swap4\n      shl\n      not(sub(shl(0x60, 0x01), 0x01))\n        /* \"#utility.yul\":4216:4269   */\n      and\n        /* \"#utility.yul\":4202:4270   */\n      dup4\n      mstore\n      pop\n      pop\n        /* \"#utility.yul\":4297:4299   */\n      0x14\n        /* \"#utility.yul\":4286:4300   */\n      add\n      swap2\n        /* \"#utility.yul\":3976:4306   */\n      swap1\n      pop\n      jump\t// out\n        /* \"#utility.yul\":4311:4565   */\n    tag_319:\n        /* \"#utility.yul\":4498:4504   */\n      dup3\n        /* \"#utility.yul\":4493:4496   */\n      dup2\n        /* \"#utility.yul\":4486:4505   */\n      mstore\n        /* \"#utility.yul\":4468:4471   */\n      0x00\n        /* \"#utility.yul\":4521:4559   */\n      tag_1161\n        /* \"#utility.yul\":4555:4557   */\n      0x20\n        /* \"#utility.yul\":4550:4553   */\n      dup4\n        /* \"#utility.yul\":4546:4558   */\n      add\n        /* \"#utility.yul\":4538:4544   */\n      dup5\n        /* \"#utility.yul\":4521:4559   */\n      tag_1128\n      jump\t// in\n    tag_1161:\n        /* \"#utility.yul\":4514:4559   */\n      swap5\n        /* \"#utility.yul\":4311:4565   */\n      swap4\n      pop\n      pop\n      pop\n      pop\n      jump\t// out\n        /* \"#utility.yul\":4570:4697   */\n    tag_1129:\n        /* \"#utility.yul\":4631:4641   */\n      0x4e487b71\n        /* \"#utility.yul\":4626:4629   */\n      0xe0\n        /* \"#utility.yul\":4622:4642   */\n      shl\n        /* \"#utility.yul\":4619:4620   */\n      0x00\n        /* \"#utility.yul\":4612:4643   */\n      mstore\n        /* \"#utility.yul\":4662:4666   */\n      0x12\n        /* \"#utility.yul\":4659:4660   */\n      0x04\n        /* \"#utility.yul\":4652:4667   */\n      mstore\n        /* \"#utility.yul\":4686:4690   */\n      0x24\n        /* \"#utility.yul\":4683:4684   */\n      0x00\n        /* \"#utility.yul\":4676:4691   */\n      revert\n        /* \"#utility.yul\":4702:4814   */\n    tag_321:\n        /* \"#utility.yul\":4734:4735   */\n      0x00\n        /* \"#utility.yul\":4760:4761   */\n      dup3\n        /* \"#utility.yul\":4750:4785   */\n      tag_1165\n      jumpi\n        /* \"#utility.yul\":4765:4783   */\n      tag_1165\n      tag_1129\n      jump\t// in\n    tag_1165:\n      pop\n        /* \"#utility.yul\":4799:4808   */\n      mod\n      swap1\n        /* \"#utility.yul\":4702:4814   */\n      jump\t// out\n        /* \"#utility.yul\":5935:6688   */\n    tag_371:\n      shl(0x50, 0x426c6f636b686173682066726f6d20626c6f636b2023)\n        /* \"#utility.yul\":6442:6445   */\n      dup2\n        /* \"#utility.yul\":6435:6472   */\n      mstore\n        /* \"#utility.yul\":6417:6420   */\n      0x00\n        /* \"#utility.yul\":6491:6529   */\n      tag_1170\n        /* \"#utility.yul\":6525:6527   */\n      0x16\n        /* \"#utility.yul\":6520:6523   */\n      dup4\n        /* \"#utility.yul\":6516:6528   */\n      add\n        /* \"#utility.yul\":6508:6514   */\n      dup6\n        /* \"#utility.yul\":6491:6529   */\n      tag_1128\n      jump\t// in\n    tag_1170:\n      shl(0xf5, 0x01d1)\n        /* \"#utility.yul\":6545:6547   */\n      dup2\n        /* \"#utility.yul\":6538:6554   */\n      mstore\n        /* \"#utility.yul\":6573:6609   */\n      tag_1171\n        /* \"#utility.yul\":6606:6607   */\n      0x02\n        /* \"#utility.yul\":6602:6604   */\n      dup3\n        /* \"#utility.yul\":6598:6608   */\n      add\n        /* \"#utility.yul\":6590:6596   */\n      dup6\n        /* \"#utility.yul\":6573:6609   */\n      tag_1128\n      jump\t// in\n    tag_1171:\n        /* \"#utility.yul\":6629:6654   */\n      0x202d20626173697320666f722072616e646f6d6e657373000000000000000000\n        /* \"#utility.yul\":6618:6655   */\n      dup2\n      mstore\n        /* \"#utility.yul\":6679:6681   */\n      0x17\n        /* \"#utility.yul\":6671:6682   */\n      add\n      swap6\n        /* \"#utility.yul\":5935:6688   */\n      swap5\n      pop\n      pop\n      pop\n      pop\n      pop\n      jump\t// out\n        /* \"#utility.yul\":6946:7235   */\n    tag_1130:\n        /* \"#utility.yul\":6988:6991   */\n      0x00\n        /* \"#utility.yul\":7026:7031   */\n      dup2\n        /* \"#utility.yul\":7020:7032   */\n      mload\n        /* \"#utility.yul\":7053:7059   */\n      dup1\n        /* \"#utility.yul\":7048:7051   */\n      dup5\n        /* \"#utility.yul\":7041:7060   */\n      mstore\n        /* \"#utility.yul\":7109:7115   */\n      dup1\n        /* \"#utility.yul\":7102:7106   */\n      0x20\n        /* \"#utility.yul\":7095:7100   */\n      dup5\n        /* \"#utility.yul\":7091:7107   */\n      add\n        /* \"#utility.yul\":7084:7088   */\n      0x20\n        /* \"#utility.yul\":7079:7082   */\n      dup7\n        /* \"#utility.yul\":7075:7089   */\n      add\n        /* \"#utility.yul\":7069:7116   */\n      mcopy\n        /* \"#utility.yul\":7161:7162   */\n      0x00\n        /* \"#utility.yul\":7154:7158   */\n      0x20\n        /* \"#utility.yul\":7145:7151   */\n      dup3\n        /* \"#utility.yul\":7140:7143   */\n      dup7\n        /* \"#utility.yul\":7136:7152   */\n      add\n        /* \"#utility.yul\":7132:7159   */\n      add\n        /* \"#utility.yul\":7125:7163   */\n      mstore\n        /* \"#utility.yul\":7224:7228   */\n      0x20\n        /* \"#utility.yul\":7217:7219   */\n      0x1f\n        /* \"#utility.yul\":7213:7220   */\n      not\n        /* \"#utility.yul\":7208:7210   */\n      0x1f\n        /* \"#utility.yul\":7200:7206   */\n      dup4\n        /* \"#utility.yul\":7196:7211   */\n      add\n        /* \"#utility.yul\":7192:7221   */\n      and\n        /* \"#utility.yul\":7187:7190   */\n      dup6\n        /* \"#utility.yul\":7183:7222   */\n      add\n        /* \"#utility.yul\":7179:7229   */\n      add\n        /* \"#utility.yul\":7172:7229   */\n      swap2\n      pop\n      pop\n        /* \"#utility.yul\":6946:7235   */\n      swap3\n      swap2\n      pop\n      pop\n      jump\t// out\n        /* \"#utility.yul\":7240:7709   */\n    tag_375:\n        /* \"#utility.yul\":7481:7485   */\n      0xff\n        /* \"#utility.yul\":7473:7479   */\n      dup5\n        /* \"#utility.yul\":7469:7486   */\n      and\n        /* \"#utility.yul\":7458:7467   */\n      dup2\n        /* \"#utility.yul\":7451:7487   */\n      mstore\n        /* \"#utility.yul\":7523:7525   */\n      0x60\n        /* \"#utility.yul\":7518:7520   */\n      0x20\n        /* \"#utility.yul\":7507:7516   */\n      dup3\n        /* \"#utility.yul\":7503:7521   */\n      add\n        /* \"#utility.yul\":7496:7526   */\n      mstore\n        /* \"#utility.yul\":7432:7436   */\n      0x00\n        /* \"#utility.yul\":7549:7594   */\n      tag_1175\n        /* \"#utility.yul\":7590:7592   */\n      0x60\n        /* \"#utility.yul\":7579:7588   */\n      dup4\n        /* \"#utility.yul\":7575:7593   */\n      add\n        /* \"#utility.yul\":7567:7573   */\n      dup6\n        /* \"#utility.yul\":7549:7594   */\n      tag_1130\n      jump\t// in\n    tag_1175:\n        /* \"#utility.yul\":7642:7651   */\n      dup3\n        /* \"#utility.yul\":7634:7640   */\n      dup2\n        /* \"#utility.yul\":7630:7652   */\n      sub\n        /* \"#utility.yul\":7625:7627   */\n      0x40\n        /* \"#utility.yul\":7614:7623   */\n      dup5\n        /* \"#utility.yul\":7610:7628   */\n      add\n        /* \"#utility.yul\":7603:7653   */\n      mstore\n        /* \"#utility.yul\":7670:7703   */\n      tag_1176\n        /* \"#utility.yul\":7696:7702   */\n      dup2\n        /* \"#utility.yul\":7688:7694   */\n      dup6\n        /* \"#utility.yul\":7670:7703   */\n      tag_1130\n      jump\t// in\n    tag_1176:\n        /* \"#utility.yul\":7662:7703   */\n      swap7\n        /* \"#utility.yul\":7240:7709   */\n      swap6\n      pop\n      pop\n      pop\n      pop\n      pop\n      pop\n      jump\t// out\n        /* \"#utility.yul\":7714:7841   */\n    tag_379:\n        /* \"#utility.yul\":7775:7785   */\n      0x4e487b71\n        /* \"#utility.yul\":7770:7773   */\n      0xe0\n        /* \"#utility.yul\":7766:7786   */\n      shl\n        /* \"#utility.yul\":7763:7764   */\n      0x00\n        /* \"#utility.yul\":7756:7787   */\n      mstore\n        /* \"#utility.yul\":7806:7810   */\n      0x41\n        /* \"#utility.yul\":7803:7804   */\n      0x04\n        /* \"#utility.yul\":7796:7811   */\n      mstore\n        /* \"#utility.yul\":7830:7834   */\n      0x24\n        /* \"#utility.yul\":7827:7828   */\n      0x00\n        /* \"#utility.yul\":7820:7835   */\n      revert\n        /* \"#utility.yul\":7846:8202   */\n    tag_403:\n        /* \"#utility.yul\":8108:8141   */\n      0x416464726573736573207573656420666f722072616e646f6d6e6573733a2000\n        /* \"#utility.yul\":8103:8106   */\n      dup2\n        /* \"#utility.yul\":8096:8142   */\n      mstore\n        /* \"#utility.yul\":8078:8081   */\n      0x00\n        /* \"#utility.yul\":8158:8196   */\n      tag_1134\n        /* \"#utility.yul\":8192:8194   */\n      0x1f\n        /* \"#utility.yul\":8187:8190   */\n      dup4\n        /* \"#utility.yul\":8183:8195   */\n      add\n        /* \"#utility.yul\":8175:8181   */\n      dup5\n        /* \"#utility.yul\":8158:8196   */\n      tag_1128\n      jump\t// in\n        /* \"#utility.yul\":8207:8844   */\n    tag_405:\n        /* \"#utility.yul\":8397:8399   */\n      0x20\n        /* \"#utility.yul\":8409:8430   */\n      dup1\n      dup3\n      mstore\n        /* \"#utility.yul\":8479:8492   */\n      dup3\n      mload\n        /* \"#utility.yul\":8382:8400   */\n      dup3\n      dup3\n      add\n        /* \"#utility.yul\":8501:8523   */\n      dup2\n      swap1\n      mstore\n        /* \"#utility.yul\":8349:8353   */\n      0x00\n      swap2\n        /* \"#utility.yul\":8580:8595   */\n      dup5\n      add\n      swap1\n        /* \"#utility.yul\":8554:8556   */\n      0x40\n        /* \"#utility.yul\":8539:8557   */\n      dup5\n      add\n      swap1\n        /* \"#utility.yul\":8349:8353   */\n      dup4\n        /* \"#utility.yul\":8623:8818   */\n    tag_1181:\n        /* \"#utility.yul\":8637:8643   */\n      dup2\n        /* \"#utility.yul\":8634:8635   */\n      dup2\n        /* \"#utility.yul\":8631:8644   */\n      lt\n        /* \"#utility.yul\":8623:8818   */\n      iszero\n      tag_1183\n      jumpi\n        /* \"#utility.yul\":8702:8715   */\n      dup4\n      mload\n      sub(shl(0xa0, 0x01), 0x01)\n        /* \"#utility.yul\":8698:8737   */\n      and\n        /* \"#utility.yul\":8686:8738   */\n      dup4\n      mstore\n        /* \"#utility.yul\":8767:8769   */\n      0x20\n        /* \"#utility.yul\":8793:8808   */\n      swap4\n      dup5\n      add\n      swap4\n        /* \"#utility.yul\":8758:8770   */\n      swap1\n      swap3\n      add\n      swap2\n        /* \"#utility.yul\":8734:8735   */\n      0x01\n        /* \"#utility.yul\":8652:8661   */\n      add\n        /* \"#utility.yul\":8623:8818   */\n      jump(tag_1181)\n    tag_1183:\n      pop\n        /* \"#utility.yul\":8835:8838   */\n      swap1\n      swap6\n        /* \"#utility.yul\":8207:8844   */\n      swap5\n      pop\n      pop\n      pop\n      pop\n      pop\n      jump\t// out\n        /* \"#utility.yul\":9323:9714   */\n    tag_411:\n        /* \"#utility.yul\":9585:9619   */\n      0x5061636b65642064617461206f662061646472657373657320696e206865783a\n        /* \"#utility.yul\":9580:9583   */\n      dup2\n        /* \"#utility.yul\":9573:9620   */\n      mstore\n      shl(0xfd, 0x01)\n        /* \"#utility.yul\":9645:9647   */\n      0x20\n        /* \"#utility.yul\":9640:9643   */\n      dup3\n        /* \"#utility.yul\":9636:9648   */\n      add\n        /* \"#utility.yul\":9629:9654   */\n      mstore\n        /* \"#utility.yul\":9555:9558   */\n      0x00\n        /* \"#utility.yul\":9670:9708   */\n      tag_1134\n        /* \"#utility.yul\":9704:9706   */\n      0x21\n        /* \"#utility.yul\":9699:9702   */\n      dup4\n        /* \"#utility.yul\":9695:9707   */\n      add\n        /* \"#utility.yul\":9687:9693   */\n      dup5\n        /* \"#utility.yul\":9670:9708   */\n      tag_1128\n      jump\t// in\n        /* \"#utility.yul\":10193:10590   */\n    tag_417:\n        /* \"#utility.yul\":10455:10489   */\n      0x4b656363616b323536206f66205b626c6f636b68617368202b207061636b6564\n        /* \"#utility.yul\":10450:10453   */\n      dup2\n        /* \"#utility.yul\":10443:10490   */\n      mstore\n      shl(0xcd, 0x02230ba30ae9d1)\n        /* \"#utility.yul\":10515:10517   */\n      0x20\n        /* \"#utility.yul\":10510:10513   */\n      dup3\n        /* \"#utility.yul\":10506:10518   */\n      add\n        /* \"#utility.yul\":10499:10530   */\n      mstore\n        /* \"#utility.yul\":10425:10428   */\n      0x00\n        /* \"#utility.yul\":10546:10584   */\n      tag_1134\n        /* \"#utility.yul\":10580:10582   */\n      0x27\n        /* \"#utility.yul\":10575:10578   */\n      dup4\n        /* \"#utility.yul\":10571:10583   */\n      add\n        /* \"#utility.yul\":10563:10569   */\n      dup5\n        /* \"#utility.yul\":10546:10584   */\n      tag_1128\n      jump\t// in\n        /* \"#utility.yul\":11251:11832   */\n    tag_426:\n        /* \"#utility.yul\":11662:11690   */\n      0x46696e616c2072616e646f6d206f7574636f6d6520286d6f6420000000000000\n        /* \"#utility.yul\":11657:11660   */\n      dup2\n        /* \"#utility.yul\":11650:11691   */\n      mstore\n        /* \"#utility.yul\":11632:11635   */\n      0x00\n        /* \"#utility.yul\":11710:11748   */\n      tag_1199\n        /* \"#utility.yul\":11744:11746   */\n      0x1a\n        /* \"#utility.yul\":11739:11742   */\n      dup4\n        /* \"#utility.yul\":11735:11747   */\n      add\n        /* \"#utility.yul\":11727:11733   */\n      dup6\n        /* \"#utility.yul\":11710:11748   */\n      tag_1128\n      jump\t// in\n    tag_1199:\n      shl(0xed, 0x0149d1)\n        /* \"#utility.yul\":11764:11766   */\n      dup2\n        /* \"#utility.yul\":11757:11774   */\n      mstore\n        /* \"#utility.yul\":11790:11826   */\n      tag_1200\n        /* \"#utility.yul\":11823:11824   */\n      0x03\n        /* \"#utility.yul\":11819:11821   */\n      dup3\n        /* \"#utility.yul\":11815:11825   */\n      add\n        /* \"#utility.yul\":11807:11813   */\n      dup6\n        /* \"#utility.yul\":11790:11826   */\n      tag_1128\n      jump\t// in\n    tag_1200:\n        /* \"#utility.yul\":11783:11826   */\n      swap6\n        /* \"#utility.yul\":11251:11832   */\n      swap5\n      pop\n      pop\n      pop\n      pop\n      pop\n      jump\t// out\n        /* \"#utility.yul\":15896:16064   */\n    tag_477:\n        /* \"#utility.yul\":15969:15978   */\n      dup1\n      dup3\n      mul\n        /* \"#utility.yul\":16000:16009   */\n      dup2\n      iszero\n        /* \"#utility.yul\":16017:16032   */\n      dup3\n      dup3\n      div\n        /* \"#utility.yul\":16011:16033   */\n      dup5\n      eq\n        /* \"#utility.yul\":15997:16034   */\n      or\n        /* \"#utility.yul\":15987:16058   */\n      tag_1154\n      jumpi\n        /* \"#utility.yul\":16038:16056   */\n      tag_1154\n      tag_1127\n      jump\t// in\n        /* \"#utility.yul\":16069:16189   */\n    tag_479:\n        /* \"#utility.yul\":16109:16110   */\n      0x00\n        /* \"#utility.yul\":16135:16136   */\n      dup3\n        /* \"#utility.yul\":16125:16160   */\n      tag_1219\n      jumpi\n        /* \"#utility.yul\":16140:16158   */\n      tag_1219\n      tag_1129\n      jump\t// in\n    tag_1219:\n      pop\n        /* \"#utility.yul\":16174:16183   */\n      div\n      swap1\n        /* \"#utility.yul\":16069:16189   */\n      jump\t// out\n        /* \"#utility.yul\":18263:18398   */\n    tag_1012:\n        /* \"#utility.yul\":18302:18305   */\n      0x00\n        /* \"#utility.yul\":18323:18340   */\n      0x01\n      dup3\n      add\n        /* \"#utility.yul\":18320:18363   */\n      tag_1228\n      jumpi\n        /* \"#utility.yul\":18343:18361   */\n      tag_1228\n      tag_1127\n      jump\t// in\n    tag_1228:\n      pop\n        /* \"#utility.yul\":18390:18391   */\n      0x01\n        /* \"#utility.yul\":18379:18392   */\n      add\n      swap1\n        /* \"#utility.yul\":18263:18398   */\n      jump\t// out\n        /* \"#utility.yul\":18403:18539   */\n    tag_1020:\n        /* \"#utility.yul\":18442:18445   */\n      0x00\n        /* \"#utility.yul\":18470:18475   */\n      dup2\n        /* \"#utility.yul\":18460:18499   */\n      tag_1231\n      jumpi\n        /* \"#utility.yul\":18479:18497   */\n      tag_1231\n      tag_1127\n      jump\t// in\n    tag_1231:\n      pop\n      not(0x00)\n        /* \"#utility.yul\":18515:18533   */\n      add\n      swap1\n        /* \"#utility.yul\":18403:18539   */\n      jump\t// out\n        /* \"#utility.yul\":18544:18807   */\n    tag_1063:\n        /* \"#utility.yul\":18721:18724   */\n      0x00\n        /* \"#utility.yul\":18746:18801   */\n      tag_1161\n        /* \"#utility.yul\":18771:18800   */\n      tag_1234\n        /* \"#utility.yul\":18796:18799   */\n      dup4\n        /* \"#utility.yul\":18788:18794   */\n      dup7\n        /* \"#utility.yul\":18771:18800   */\n      tag_1128\n      jump\t// in\n    tag_1234:\n        /* \"#utility.yul\":18763:18769   */\n      dup5\n        /* \"#utility.yul\":18746:18801   */\n      tag_1128\n      jump\t// in\n        /* \"#utility.yul\":18812:18940   */\n    tag_1065:\n        /* \"#utility.yul\":18879:18888   */\n      dup2\n      dup2\n      sub\n        /* \"#utility.yul\":18900:18911   */\n      dup2\n      dup2\n      gt\n        /* \"#utility.yul\":18897:18934   */\n      iszero\n      tag_1154\n      jumpi\n        /* \"#utility.yul\":18914:18932   */\n      tag_1154\n      tag_1127\n      jump\t// in\n        /* \"#utility.yul\":18945:19289   */\n    tag_1068:\n        /* \"#utility.yul\":19175:19178   */\n      0x00\n        /* \"#utility.yul\":19203:19232   */\n      tag_1239\n        /* \"#utility.yul\":19228:19231   */\n      dup3\n        /* \"#utility.yul\":19220:19226   */\n      dup5\n        /* \"#utility.yul\":19203:19232   */\n      tag_1128\n      jump\t// in\n    tag_1239:\n      shl(0xf5, 0x0161)\n        /* \"#utility.yul\":19241:19257   */\n      dup2\n      mstore\n        /* \"#utility.yul\":19281:19282   */\n      0x02\n        /* \"#utility.yul\":19273:19283   */\n      add\n      swap4\n        /* \"#utility.yul\":18945:19289   */\n      swap3\n      pop\n      pop\n      pop\n      jump\t// out\n        /* \"#utility.yul\":19294:19637   */\n    tag_1070:\n        /* \"#utility.yul\":19524:19527   */\n      0x00\n        /* \"#utility.yul\":19552:19581   */\n      tag_1241\n        /* \"#utility.yul\":19577:19580   */\n      dup3\n        /* \"#utility.yul\":19569:19575   */\n      dup5\n        /* \"#utility.yul\":19552:19581   */\n      tag_1128\n      jump\t// in\n    tag_1241:\n      shl(0xf8, 0x5d)\n        /* \"#utility.yul\":19590:19605   */\n      dup2\n      mstore\n        /* \"#utility.yul\":19629:19630   */\n      0x01\n        /* \"#utility.yul\":19621:19631   */\n      add\n      swap4\n        /* \"#utility.yul\":19294:19637   */\n      swap3\n      pop\n      pop\n      pop\n      jump\t// out\n    stop\n    data_337182a60498b9244e8f65be0f6db847dff38b4b0254ab37294bb95d08c454c9 feb6d77d8663b36b3393e8790540b4ebe73ade87f3146e450022712344dc7b3b\n    data_d69d45dabe99b5c5a8f4a83c9436d54af7b9636defd7116e17fe66671e394dc9 9cff65d26c2c9e31c3ddf370eec9dcc1327976f78b3eebf97cfd37adc448cc35\n\n    auxdata: 0xa264697066735822122025d28189ff2f863e07428f28e11e16a64cb2f1ce75771204b9171c953b494b3164736f6c634300081a0033\n}\n",
				"bytecode": {
					"linkReferences": {},
					"object": "6102c060405260016080908152600260a052600360c052600460e052600561010052600661012052600761014052600861016052600961018052600a6101a052600b6101c052600c6101e052600d61020052600e61022052600f6102405260106102605260116102805260126102a081905261007c915f9161072a565b5060408051610240810182526013815260146020808301919091526015928201929092526016606082015260176080820152601860a0820152601960c0820152601a60e0820152601b610100820152601c610120820152601d610140820152601e610160820152601f6101808201526101a081019190915260216101c082015260226101e08201526023610200820152602461022082015261012290600190601261072a565b5060408051610240810182526001815260036020808301919091526005928201929092526007606082015260096080820152600c60a0820152600e60c0820152601060e0820152601261010082018190526013610120830152601561014083015260176101608301526019610180830152601b6101a0830152601e6101c08301526101e0820192909252602261020082015260246102208201526101c9916002919061072a565b506040805161024081018252600281526004602082015260069181019190915260086060820152600a6080820152600b60a0820152600d60c0820152600f60e08201526011610100820152601461012082015260166101408201526018610160820152601a610180820152601c6101a0820152601d6101c0820152601f6101e08201526021610200820152602361022082015261026a90600390601261072a565b506040805161024081018252600281526004602080830182905260069383019390935260086060830152600a6080830152600c60a0830152600e60c0830152601060e083015260126101008301819052601461012084015260166101408401526018610160840152601a610180840152601c6101a0840152601e6101c08401526101e08301939093526022610200830152602461022083015261030f9290919061072a565b506040805161024081018252600181526003602082015260059181018290526007606082015260096080820152600b60a0820152600d60c0820152600f60e082015260116101008201526013610120820152601561014082015260176101608201526019610180820152601b6101a0820152601d6101c0820152601f6101e0820152602161020082015260236102208201526103ad9190601261072a565b5060408051610180810182526001815260046020820152600791810191909152600a6060820152600d6080820152601060a0820152601360c0820152601660e08201526019610100820152601c610120820152601f610140820152602261016082015261041e90600690600c61072a565b506040805161018081018252600281526005602080830191909152600892820192909252600b6060820152600e6080820152601160a0820152601460c0820152601760e0820152601a610100820152601d610120820152610140810191909152602361016082015261049490600790600c61072a565b5060408051610180810182526003815260066020820152600991810191909152600c60608201819052600f6080830152601260a0830152601560c0830152601860e0830152601b610100830152601e610120830152602161014083015260246101608301526105059160089161072a565b50604080516101808101825260018152600260208201526003918101919091526004606082015260056080820152600660a0820152600760c0820152600860e082015260096101008201819052600a610120830152600b610140830152600c6101608301819052610576929061072a565b506040805161018081018252600d8152600e6020820152600f918101919091526010606082015260116080820152601260a0820152601360c0820152601460e082015260156101008201526016610120820152601761014082015260186101608201526105e790600a90600c61072a565b50604080516101808101825260198152601a602080830191909152601b92820192909252601c6060820152601d6080820152601e60a0820152601f60c082015260e0810191909152602161010082015260226101208201526023610140820152602461016082015261065d90600b90600c61072a565b50348015610669575f80fd5b50604051613ea9380380613ea983398101604081905261068891610860565b600c80546001600160a01b0319166001600160a01b038616179055600d839055600e805460ff1916905581516106c59060129060208501906107ba565b506011805461ff00191661010060ff8416021790556040516001600160a01b038516907f7bc06ad6af97e4997115d8b8ec4270105092a2dc99a8ba73a35de86c49ab8d9b9061071990869086908690610956565b60405180910390a2505050506109b8565b6001830191839082156107aa579160200282015f5b8382111561077c57835183826101000a81548160ff021916908360ff16021790555092602001926001016020815f0104928301926001030261073f565b80156107a85782816101000a81549060ff02191690556001016020815f0104928301926001030261077c565b505b506107b692915061080d565b5090565b828054828255905f5260205f209081019282156107aa579160200282015b828111156107aa57825182546001600160a01b0319166001600160a01b039091161782556020909201916001909101906107d8565b5b808211156107b6575f815560010161080e565b80516001600160a01b0381168114610837575f80fd5b919050565b634e487b7160e01b5f52604160045260245ffd5b805160ff81168114610837575f80fd5b5f805f8060808587031215610873575f80fd5b61087c85610821565b6020860151604087015191955093506001600160401b0381111561089e575f80fd5b8501601f810187136108ae575f80fd5b80516001600160401b038111156108c7576108c761083c565b604051600582901b90603f8201601f191681016001600160401b03811182821017156108f5576108f561083c565b60405291825260208184018101929081018a841115610912575f80fd5b6020850194505b838510156109385761092a85610821565b815260209485019401610919565b50945061094b9250505060608601610850565b905092959194509250565b5f60608201858352606060208401528085518083526080850191506020870192505f5b818110156109a05783516001600160a01b0316835260209384019390920191600101610979565b5050809250505060ff83166040830152949350505050565b6134e4806109c55f395ff3fe608060405260043610610280575f3560e01c80637f3be3ed11610155578063cf3c5d16116100be578063e4ca650d11610078578063e4ca650d1461075e578063e71f766e1461077d578063e8e0fca51461079c578063f2d18f42146107bb578063f437bc59146107e9578063fe5385af14610808575f80fd5b8063cf3c5d16146106b7578063d0e30db0146106e5578063d1edb09e146106ed578063d4f7a28514610701578063d9cc76ad14610720578063db7f11db1461073f575f80fd5b80639619367d1161010f5780639619367d14610607578063972b533d1461061c578063a38bd74c1461063b578063a6ede84a1461065a578063b251339914610679578063be47ae1314610698575f80fd5b80637f3be3ed1461056d57806387171eb71461058c5780638c7e347a146105a15780638d8c1286146105b55780638e4bf820146105d45780638fffebca146105e8575f80fd5b80632e5b2168116101f75780634760fff3116101b15780634760fff3146104cb5780634d7d93fe146104ea5780634e69d560146105095780635dcab1d814610520578063653721471461053f5780636f91a66f14610558575f80fd5b80632e5b21681461040d5780632eca4c2814610430578063322f89201461044e57806335aa2e441461046d57806338cceb4f146104a457806343046844146104b8575f80fd5b80631fac0ffd116102485780631fac0ffd14610332578063200d2ed21461035157806322af00fa1461036a57806323fe318e146103b05780632605c251146103cf57806328dddc1b146103ee575f80fd5b8063125861721461028457806319299832146102b8578063195ba0eb146102e95780631b2abc77146103085780631dbe2e0e1461031e575b5f80fd5b34801561028f575f80fd5b506102a361029e366004613047565b610827565b60405190151581526020015b60405180910390f35b3480156102c3575f80fd5b506102d76102d236600461306e565b61088e565b60405160ff90911681526020016102af565b3480156102f4575f80fd5b506102d761030336600461306e565b6108b7565b348015610313575f80fd5b5061031c6108c6565b005b348015610329575f80fd5b5061031c610966565b34801561033d575f80fd5b506102d761034c36600461306e565b610bb5565b34801561035c575f80fd5b50600e546102d79060ff1681565b348015610375575f80fd5b5061038961038436600461306e565b610bc4565b604080516001600160a01b03909416845260ff9092166020840152908201526060016102af565b3480156103bb575f80fd5b506102d76103ca36600461306e565b610c05565b3480156103da575f80fd5b506102a36103e9366004613047565b610c14565b3480156103f9575f80fd5b506102a3610408366004613047565b610c73565b348015610418575f80fd5b5061042260185481565b6040519081526020016102af565b34801561043b575f80fd5b506011546102d790610100900460ff1681565b348015610459575f80fd5b506102d761046836600461306e565b610cd2565b348015610478575f80fd5b5061048c61048736600461306e565b610ce1565b6040516001600160a01b0390911681526020016102af565b3480156104af575f80fd5b5061031c610d09565b61031c6104c6366004613047565b6116fc565b3480156104d6575f80fd5b506102a36104e5366004613047565b611913565b3480156104f5575f80fd5b506102a3610504366004613047565b611972565b348015610514575f80fd5b50600e5460ff166102d7565b34801561052b575f80fd5b506102a361053a366004613047565b6119d1565b34801561054a575f80fd5b506011546102d79060ff1681565b348015610563575f80fd5b5061042260105481565b348015610578575f80fd5b5061048c61058736600461306e565b611a30565b348015610597575f80fd5b5061042260175481565b3480156105ac575f80fd5b50600f54610422565b3480156105c0575f80fd5b5061048c6105cf36600461306e565b611a3f565b3480156105df575f80fd5b5061031c611a4e565b3480156105f3575f80fd5b506102a3610602366004613047565b612460565b348015610612575f80fd5b50610422600d5481565b348015610627575f80fd5b506102a3610636366004613047565b6124bf565b348015610646575f80fd5b506102a3610655366004613047565b61251d565b348015610665575f80fd5b506102d761067436600461306e565b61257c565b348015610684575f80fd5b506102d761069336600461306e565b61258b565b3480156106a3575f80fd5b506102d76106b236600461306e565b61259a565b3480156106c2575f80fd5b506102a36106d1366004613085565b60166020525f908152604090205460ff1681565b61031c6125a9565b3480156106f8575f80fd5b506104226126da565b34801561070c575f80fd5b506102d761071b36600461306e565b612726565b34801561072b575f80fd5b506102a361073a366004613047565b612735565b34801561074a575f80fd5b506102d761075936600461306e565b612794565b348015610769575f80fd5b506102a3610778366004613047565b6127a3565b348015610788575f80fd5b506102a3610797366004613047565b612802565b3480156107a7575f80fd5b506102d76107b636600461306e565b612861565b3480156107c6575f80fd5b506102a36107d5366004613085565b60156020525f908152604090205460ff1681565b3480156107f4575f80fd5b50600c5461048c906001600160a01b031681565b348015610813575f80fd5b506102d761082236600461306e565b61286f565b5f805b600c8160ff161015610886578260ff1660068260ff16600c8110610850576108506130ab565b602081049091015460ff601f9092166101000a900416036108745750600192915050565b8061087e816130d3565b91505061082a565b505f92915050565b600881600c811061089d575f80fd5b60209182820401919006915054906101000a900460ff1681565b600981600c811061089d575f80fd5b600e5460ff166001146109175760405162461bcd60e51b8152602060048201526014602482015273139bc81b5bdc994818995d1cc8185b1b1bddd95960621b60448201526064015b60405180910390fd5b600e805460ff191660021790554360108190556040517f2d21e9397283a99c7f2df56baf635aab0655f2dea12185fac963ac115be30f939161095c9190815260200190565b60405180910390a1565b600e5460ff166002146109b25760405162461bcd60e51b8152602060048201526014602482015273139bc81b5bdc994818995d1cc8185b1b1bddd95960621b604482015260640161090e565b600c546001600160a01b03163314610a0c5760405162461bcd60e51b815260206004820152601d60248201527f4f6e6c7920686f73742063616e2067656e657261746520726573756c74000000604482015260640161090e565b601054610a1b90600c906130f1565b610a269060016130f1565b431015610a755760405162461bcd60e51b815260206004820152601860248201527f426c6f636b206e756d626572206e6f7420726561636865640000000000000000604482015260640161090e565b5f6010546001610a8591906130f1565b600c5460405160609190911b6001600160601b0319166020820152904091505f9060340160405160208183030381529060405290505f5b600f54811015610b1f5781600f8281548110610ada57610ada6130ab565b5f91825260209182902060029091020154604051610b0593926001600160a01b039092169101613121565b60408051601f198184030181529190529150600101610abc565b505f8282604051602001610b34929190613148565b60408051601f198184030181529190528051602090910120905080610b5a602682613175565b6011805460ff9290921660ff199283168117909155600e80549092166003179091556040519081527f4898f0a86e5d5b202a6285b46db8e265f964e837829f7d6bf7d1c072c6b88c099060200160405180910390a150505050565b600b81600c811061089d575f80fd5b600f8181548110610bd3575f80fd5b5f918252602090912060029091020180546001909101546001600160a01b0382169250600160a01b90910460ff169083565b6002816012811061089d575f80fd5b5f805b600c8160ff161015610886578260ff16600a8260ff16600c8110610c3d57610c3d6130ab565b602081049091015460ff601f9092166101000a90041603610c615750600192915050565b80610c6b816130d3565b915050610c17565b5f805b60128160ff161015610886578260ff1660048260ff1660128110610c9c57610c9c6130ab565b602081049091015460ff601f9092166101000a90041603610cc05750600192915050565b80610cca816130d3565b915050610c76565b600a81600c811061089d575f80fd5b60128181548110610cf0575f80fd5b5f918252602090912001546001600160a01b0316905081565b600e5460ff16600314610d555760405162461bcd60e51b815260206004820152601460248201527314995cdd5b1d081b9bdd0819d95b995c985d195960621b604482015260640161090e565b601054610d6490600c906130f1565b610d6f9060016130f1565b431015610dcf5760405162461bcd60e51b815260206004820152602860248201527f57616974206174206c6561737420313220626c6f636b732061667465722067656044820152673732b930ba34b7b760c11b606482015260840161090e565b610dd83361287e565b610e245760405162461bcd60e51b815260206004820152601d60248201527f4f6e6c7920612076616c696461746f722063616e2076616c6964617465000000604482015260640161090e565b5f6010546001610e3491906130f1565b905080405f8051602061348f8339815191526001610e51846128d2565b610e5a846129dd565b604051602001610e6b929190613188565b60408051601f19818403018152828252602083018790529082018590529060600160408051601f1981840301815290829052610ea8939291613224565b60405180910390a1600f545f90610ec09060016130f1565b67ffffffffffffffff811115610ed857610ed861325b565b604051908082528060200260200182016040528015610f01578160200160208202803683370190505b50600c5481519192506001600160a01b03169082905f90610f2457610f246130ab565b60200260200101906001600160a01b031690816001600160a01b0316815250505f5b600f54811015610fb857600f8181548110610f6357610f636130ab565b5f9182526020909120600290910201546001600160a01b031682610f888360016130f1565b81518110610f9857610f986130ab565b6001600160a01b0390921660209283029190910190910152600101610f46565b505f610fc382612b99565b600c5460405160609190911b6001600160601b03191660208201529091505f9060340160405160208183030381529060405290505f5b600f5481101561105c5781600f8281548110611017576110176130ab565b5f9182526020918290206002909102015460405161104293926001600160a01b039092169101613121565b60408051601f198184030181529190529150600101610ff9565b505f8051602061348f83398151915260028360405160200161107e919061326f565b6040516020818303038152906040528560405160200161109e91906132a0565b60408051601f19818403018152908290526110ba939291613224565b60405180910390a15f8051602061348f83398151915260036110db83612c92565b6040516020016110eb91906132eb565b60408051601f198184030181529082905261110892918590613224565b60405180910390a15f8482604051602001611124929190613148565b6040516020818303038152906040528051906020012090505f8051602061348f8339815191526004611155836129dd565b6040516020016111659190613326565b60408051601f1981840301815282825260208301869052910160408051601f198184030181529082905261119a939291613224565b60405180910390a1805f6111af602683613175565b90505f8051602061348f83398151915260056111cb60266128d2565b6111d78460ff166128d2565b6040516020016111e8929190613367565b60408051601f1981840301815282825260ff86166020840152910160408051601f198184030181529082905261121f939291613224565b60405180910390a160115460ff82811691161461157557335f9081526016602052604090205460ff161561129f5760405162461bcd60e51b815260206004820152602160248201527f56616c696461746f7220616c7265616479207369676e6564206d69736d6174636044820152600d60fb1b606482015260840161090e565b6014805460018082019092557fce6d7b5282bd9a3661ae061feed1dbda4e52ab073b1f9285be6e155d9c38d4ec0180546001600160a01b031916339081179091555f90815260166020908152604091829020805460ff1916909317909255601154815160ff8581168252909116928101929092527f4ba207caeddfefdadccb23fbbf2401bc61a191bb9f71680b9c0cd8f84901186a910160405180910390a160115460145461010090910460ff1611611570575f5b600f548110156114bc575f600f8281548110611372576113726130ab565b5f91825260208083206040805160608101825260029490940290910180546001600160a01b038116808652600160a01b90910460ff169385019390935260010154838201819052905192945090915f6040518083038185875af1925050503d805f81146113fa576040519150601f19603f3d011682016040523d82523d5f602084013e6113ff565b606091505b505082516040808501518151828152600692810192909252651499599d5b9960d21b606083015260208201529192506001600160a01b0316907fadd681b72722e953fa4e18f6819d1cb78d0ec24ce1ee69a6c7ebdc6f29ac10d89060800160405180910390a2806114b25760405162461bcd60e51b815260206004820152601860248201527f526566756e6420746f2067616d626c6572206661696c65640000000000000000604482015260640161090e565b5050600101611354565b50600c5460408051818152600e818301526d1499599d5b99081d1bc81a1bdcdd60921b606082015247602082015290516001600160a01b03909216917fadd681b72722e953fa4e18f6819d1cb78d0ec24ce1ee69a6c7ebdc6f29ac10d89181900360800190a2600c546040516001600160a01b03909116904780156108fc02915f818181858888f19350505050158015611558573d5f803e3d5ffd5b5050600e805460ff1916600517905550505050505050565b6116f2565b335f9081526015602052604090205460ff16156115d45760405162461bcd60e51b815260206004820181905260248201527f56616c696461746f7220616c7265616479207369676e6564206d617463686564604482015260640161090e565b60115460ff8281169116146116365760405162461bcd60e51b815260206004820152602260248201527f53746f72656420726573756c7420213d207265636f6d707574656420726573756044820152611b1d60f21b606482015260840161090e565b60138054600181810183557f66de8ffda797e3de9c05e8fc57b3bf0ec28a930d40b0d285d93c06501cf6a09090910180546001600160a01b031916339081179091555f908152601560205260409020805460ff19169091179055601154905461010090910460ff16116116f25760115460405160ff90911681527f5f438d100d0c0fb18e88113110bf411fd18c9a557c03e394cd32997b5055f9ae9060200160405180910390a1600e805460ff191660041790556116f2611a4e565b5050505050505050565b60318160ff1611156117505760405162461bcd60e51b815260206004820152601f60248201527f4f7074696f6e206d757374206265206265747765656e203020616e6420333700604482015260640161090e565b600d543410156117ae5760405162461bcd60e51b815260206004820152602360248201527f42657420616d6f756e742069732062656c6f7720746865206d696e696d756d2060448201526218995d60ea1b606482015260840161090e565b600a6117bc610168476133b7565b6117c691906133ce565b34106118205760405162461bcd60e51b815260206004820152602360248201527f42657420616d6f756e742069732061626f766520746865206d6178696d756d2060448201526218995d60ea1b606482015260840161090e565b604080516060810182523380825260ff848116602080850182815234868801818152600f80546001810182555f91909152975160029098027f8d1108e10bcb7c27dddfc02ed9d693a074039d026cf4ea4240b40f7d581ac802810180549451909716600160a01b026001600160a81b03199094166001600160a01b039099169890981792909217909455517f8d1108e10bcb7c27dddfc02ed9d693a074039d026cf4ea4240b40f7d581ac80390950194909455845190815292830152917f9f6b4cced64244a64465098f682029975b1614400b96bc6bd12c668083719166910160405180910390a26119106108c6565b50565b5f805b60128160ff161015610886578260ff1660028260ff166012811061193c5761193c6130ab565b602081049091015460ff601f9092166101000a900416036119605750600192915050565b8061196a816130d3565b915050611916565b5f805b600c8160ff161015610886578260ff1660098260ff16600c811061199b5761199b6130ab565b602081049091015460ff601f9092166101000a900416036119bf5750600192915050565b806119c9816130d3565b915050611975565b5f805b60128160ff161015610886578260ff1660038260ff16601281106119fa576119fa6130ab565b602081049091015460ff601f9092166101000a90041603611a1e5750600192915050565b80611a28816130d3565b9150506119d4565b60148181548110610cf0575f80fd5b60138181548110610cf0575f80fd5b600e5460ff16600414611aa35760405162461bcd60e51b815260206004820152601860248201527f526573756c74206e6f742076616c696461746564207965740000000000000000604482015260640161090e565b5f5b600f548110156123e7575f600f8281548110611ac357611ac36130ab565b5f918252602090912060029091020154600160a01b900460ff1610801590611b1857506025600f8281548110611afb57611afb6130ab565b5f918252602090912060029091020154600160a01b900460ff1611155b15611cc857601154600f805460ff9092169183908110611b3a57611b3a6130ab565b5f918252602090912060029091020154600160a01b900460ff1603611cc357600f8181548110611b6c57611b6c6130ab565b905f5260205f2090600202015f015f9054906101000a90046001600160a01b03166001600160a01b03166108fc600a610168600f8581548110611bb157611bb16130ab565b905f5260205f20906002020160010154611bcb91906133b7565b611bd591906133ce565b6040518115909202915f818181858888f19350505050158015611bfa573d5f803e3d5ffd5b50600f8181548110611c0e57611c0e6130ab565b5f918252602090912060029091020154600f80546001600160a01b03909216915f8051602061346f833981519152919084908110611c4e57611c4e6130ab565b905f5260205f2090600202015f0160149054906101000a900460ff16600a610168600f8681548110611c8257611c826130ab565b905f5260205f20906002020160010154611c9c91906133b7565b611ca691906133ce565b6040805160ff909316835260208301919091520160405180910390a25b6123e7565b600f8181548110611cdb57611cdb6130ab565b5f918252602090912060029091020154600160a01b900460ff16602603611e3757601154611d0b9060ff166124bf565b15611cc357600f8181548110611d2357611d236130ab565b905f5260205f2090600202015f015f9054906101000a90046001600160a01b03166001600160a01b03166108fc600a6014600f8581548110611d6757611d676130ab565b905f5260205f20906002020160010154611d8191906133b7565b611d8b91906133ce565b6040518115909202915f818181858888f19350505050158015611db0573d5f803e3d5ffd5b50600f8181548110611dc457611dc46130ab565b5f918252602090912060029091020154600f80546001600160a01b03909216915f8051602061346f833981519152919084908110611e0457611e046130ab565b905f5260205f2090600202015f0160149054906101000a900460ff16600a6014600f8681548110611c8257611c826130ab565b600f8181548110611e4a57611e4a6130ab565b5f918252602090912060029091020154600160a01b900460ff16602703611e7a57601154611d0b9060ff166127a3565b600f8181548110611e8d57611e8d6130ab565b5f918252602090912060029091020154600160a01b900460ff16602803611ebd57601154611d0b9060ff16611913565b600f8181548110611ed057611ed06130ab565b5f918252602090912060029091020154600160a01b900460ff16602903611f0057601154611d0b9060ff166119d1565b600f8181548110611f1357611f136130ab565b5f918252602090912060029091020154600160a01b900460ff16602a03611f4357601154611d0b9060ff16610c73565b600f8181548110611f5657611f566130ab565b5f918252602090912060029091020154600160a01b900460ff16602b03611f8657601154611d0b9060ff16612735565b600f8181548110611f9957611f996130ab565b5f918252602090912060029091020154600160a01b900460ff16602c0361212f57601154611fc99060ff16610827565b1561212a57600f8181548110611fe157611fe16130ab565b5f918252602090912060029091020154600f80546001600160a01b03909216916108fc91600a9181908690811061201a5761201a6130ab565b905f5260205f2090600202016001015461203491906133b7565b61203e91906133ce565b6040518115909202915f818181858888f19350505050158015612063573d5f803e3d5ffd5b50600f8181548110612077576120776130ab565b5f918252602090912060029091020154600f80546001600160a01b03909216915f8051602061346f8339815191529190849081106120b7576120b76130ab565b905f5260205f2090600202015f0160149054906101000a900460ff16600a600f8086815481106120e9576120e96130ab565b905f5260205f2090600202016001015461210391906133b7565b61210d91906133ce565b6040805160ff909316835260208301919091520160405180910390a25b6123df565b600f8181548110612142576121426130ab565b5f918252602090912060029091020154600160a01b900460ff16602d0361217257601154611fc99060ff16612460565b600f8181548110612185576121856130ab565b5f918252602090912060029091020154600160a01b900460ff16602e036121b557601154611fc99060ff16612802565b600f81815481106121c8576121c86130ab565b5f918252602090912060029091020154600160a01b900460ff16602f036121f857601154611fc99060ff16611972565b600f818154811061220b5761220b6130ab565b5f918252602090912060029091020154600160a01b900460ff1660300361223b57601154611fc99060ff16610c14565b600f818154811061224e5761224e6130ab565b5f918252602090912060029091020154600160a01b900460ff166031036123df5760115461227e9060ff1661251d565b156123df57600f8181548110612296576122966130ab565b5f918252602090912060029091020154600f80546001600160a01b03909216916108fc91600a918190869081106122cf576122cf6130ab565b905f5260205f209060020201600101546122e991906133b7565b6122f391906133ce565b6040518115909202915f818181858888f19350505050158015612318573d5f803e3d5ffd5b50600f818154811061232c5761232c6130ab565b5f918252602090912060029091020154600f80546001600160a01b03909216915f8051602061346f83398151915291908490811061236c5761236c6130ab565b905f5260205f2090600202015f0160149054906101000a900460ff16600a600f80868154811061239e5761239e6130ab565b905f5260205f209060020201600101546123b891906133b7565b6123c291906133ce565b6040805160ff909316835260208301919091520160405180910390a25b600101611aa5565b50600c546040514781526001600160a01b03909116907fd4ba6fec82d9b0e8ffe50b9fed9e4be3b25c984ce1e0e016405a5528726e8a2c9060200160405180910390a2600c546040516001600160a01b03909116904780156108fc02915f818181858888f19350505050158015611910573d5f803e3d5ffd5b5f805b600c8160ff161015610886578260ff1660078260ff16600c8110612489576124896130ab565b602081049091015460ff601f9092166101000a900416036124ad5750600192915050565b806124b7816130d3565b915050612463565b5f805b60128160ff161015610886578260ff165f8260ff16601281106124e7576124e76130ab565b602081049091015460ff601f9092166101000a9004160361250b5750600192915050565b80612515816130d3565b9150506124c2565b5f805b600c8160ff161015610886578260ff16600b8260ff16600c8110612546576125466130ab565b602081049091015460ff601f9092166101000a9004160361256a5750600192915050565b80612574816130d3565b915050612520565b6003816012811061089d575f80fd5b600781600c811061089d575f80fd5b6001816012811061089d575f80fd5b600e5460ff16156125f55760405162461bcd60e51b815260206004820152601660248201527511195c1bdcda5d081a5cc81b9bdd08185b1b1bddd95960521b604482015260640161090e565b600c546001600160a01b031633146126475760405162461bcd60e51b815260206004820152601560248201527413db9b1e481a1bdcdd0818d85b8819195c1bdcda5d605a1b604482015260640161090e565b5f341161268f5760405162461bcd60e51b8152602060048201526016602482015275125b9d985b1a590819195c1bdcda5d08185b5bdd5b9d60521b604482015260640161090e565b600e805460ff1916600117905560405133907f5a6c38b61cfc87b08186ec74738f787ec19c78c75b5b70442f580362abd96d29906126d09034815260200190565b60405180910390a2565b5f80805b600f5481101561272057600f81815481106126fb576126fb6130ab565b905f5260205f209060020201600101548261271691906130f1565b91506001016126de565b50919050565b6004816012811061089d575f80fd5b5f805b60128160ff161015610886578260ff1660058260ff166012811061275e5761275e6130ab565b602081049091015460ff601f9092166101000a900416036127825750600192915050565b8061278c816130d3565b915050612738565b600681600c811061089d575f80fd5b5f805b60128160ff161015610886578260ff1660018260ff16601281106127cc576127cc6130ab565b602081049091015460ff601f9092166101000a900416036127f05750600192915050565b806127fa816130d3565b9150506127a6565b5f805b600c8160ff161015610886578260ff1660088260ff16600c811061282b5761282b6130ab565b602081049091015460ff601f9092166101000a9004160361284f5750600192915050565b80612859816130d3565b915050612805565b5f816012811061089d575f80fd5b6005816012811061089d575f80fd5b5f805b60125481101561088657826001600160a01b0316601282815481106128a8576128a86130ab565b5f918252602090912001546001600160a01b0316036128ca5750600192915050565b600101612881565b6060815f036128f85750506040805180820190915260018152600360fc1b602082015290565b815f5b8115612921578061290b816133e1565b915061291a9050600a836133ce565b91506128fb565b5f8167ffffffffffffffff81111561293b5761293b61325b565b6040519080825280601f01601f191660200182016040528015612965576020820181803683370190505b508593509050815b83156129d4578061297d816133f9565b915061298c9050600a85613175565b6129979060306130f1565b60f81b8282815181106129ac576129ac6130ab565b60200101906001600160f81b03191690815f1a9053506129cd600a856133ce565b935061296d565b50949350505050565b604080518082018252601081526f181899199a1a9b1b9c1cb0b131b232b360811b602082015281516042808252608082019093526060925f9190602082018180368337019050509050600360fc1b815f81518110612a3d57612a3d6130ab565b60200101906001600160f81b03191690815f1a905350600f60fb1b81600181518110612a6b57612a6b6130ab565b60200101906001600160f81b03191690815f1a9053505f5b6020811015612b9157826004868360208110612aa157612aa16130ab565b1a60f81b6001600160f81b031916901c60f81c60ff1681518110612ac757612ac76130ab565b01602001516001600160f81b03191682612ae28360026133b7565b612aed9060026130f1565b81518110612afd57612afd6130ab565b60200101906001600160f81b03191690815f1a90535082858260208110612b2657612b266130ab565b825191901a600f16908110612b3d57612b3d6130ab565b01602001516001600160f81b03191682612b588360026133b7565b612b639060036130f1565b81518110612b7357612b736130ab565b60200101906001600160f81b03191690815f1a905350600101612a83565b509392505050565b606081515f03612bc15750506040805180820190915260028152615b5d60f01b602082015290565b6040805180820190915260018152605b60f81b60208201525f5b8351811015612c695781612c07858381518110612bfa57612bfa6130ab565b6020026020010151612e92565b604051602001612c1892919061340e565b604051602081830303815290604052915060018451612c379190613422565b811015612c615781604051602001612c4f9190613435565b60405160208183030381529060405291505b600101612bdb565b5080604051602001612c7b9190613452565b60408051601f198184030181529190529392505050565b60408051808201909152601081526f181899199a1a9b1b9c1cb0b131b232b360811b60208201528151606091905f90612ccc9060026133b7565b612cd79060026130f1565b67ffffffffffffffff811115612cef57612cef61325b565b6040519080825280601f01601f191660200182016040528015612d19576020820181803683370190505b509050600360fc1b815f81518110612d3357612d336130ab565b60200101906001600160f81b03191690815f1a905350600f60fb1b81600181518110612d6157612d616130ab565b60200101906001600160f81b03191690815f1a9053505f5b8451811015612b9157826004868381518110612d9757612d976130ab565b016020015182516001600160f81b031990911690911c60f81c908110612dbf57612dbf6130ab565b01602001516001600160f81b03191682612dda8360026133b7565b612de59060026130f1565b81518110612df557612df56130ab565b60200101906001600160f81b03191690815f1a90535082858281518110612e1e57612e1e6130ab565b602091010151815160f89190911c600f16908110612e3e57612e3e6130ab565b01602001516001600160f81b03191682612e598360026133b7565b612e649060036130f1565b81518110612e7457612e746130ab565b60200101906001600160f81b03191690815f1a905350600101612d79565b604080518082018252601081526f181899199a1a9b1b9c1cb0b131b232b360811b60208201528151602a808252606082810190945284841b915f91602082018180368337019050509050600360fc1b815f81518110612ef357612ef36130ab565b60200101906001600160f81b03191690815f1a905350600f60fb1b81600181518110612f2157612f216130ab565b60200101906001600160f81b03191690815f1a9053505f5b60148110156129d457836004848360148110612f5757612f576130ab565b1a60f81b6001600160f81b031916901c60f81c60ff1681518110612f7d57612f7d6130ab565b01602001516001600160f81b03191682612f988360026133b7565b612fa39060026130f1565b81518110612fb357612fb36130ab565b60200101906001600160f81b03191690815f1a90535083838260148110612fdc57612fdc6130ab565b825191901a600f16908110612ff357612ff36130ab565b01602001516001600160f81b0319168261300e8360026133b7565b6130199060036130f1565b81518110613029576130296130ab565b60200101906001600160f81b03191690815f1a905350600101612f39565b5f60208284031215613057575f80fd5b813560ff81168114613067575f80fd5b9392505050565b5f6020828403121561307e575f80fd5b5035919050565b5f60208284031215613095575f80fd5b81356001600160a01b0381168114613067575f80fd5b634e487b7160e01b5f52603260045260245ffd5b634e487b7160e01b5f52601160045260245ffd5b5f60ff821660ff81036130e8576130e86130bf565b60010192915050565b80820180821115613104576131046130bf565b92915050565b5f81518060208401855e5f93019283525090919050565b5f61312c828561310a565b60609390931b6001600160601b03191683525050601401919050565b8281525f613159602083018461310a565b949350505050565b634e487b7160e01b5f52601260045260245ffd5b5f8261318357613183613161565b500690565b75426c6f636b686173682066726f6d20626c6f636b202360501b81525f6131b2601683018561310a565b6101d160f51b81526131c7600282018561310a565b7f202d20626173697320666f722072616e646f6d6e657373000000000000000000815260170195945050505050565b5f81518084528060208401602086015e5f602082860101526020601f19601f83011685010191505092915050565b60ff84168152606060208201525f61323f60608301856131f6565b828103604084015261325181856131f6565b9695505050505050565b634e487b7160e01b5f52604160045260245ffd5b7f416464726573736573207573656420666f722072616e646f6d6e6573733a200081525f613067601f83018461310a565b602080825282518282018190525f918401906040840190835b818110156132e05783516001600160a01b03168352602093840193909201916001016132b9565b509095945050505050565b7f5061636b65642064617461206f662061646472657373657320696e206865783a8152600160fd1b60208201525f613067602183018461310a565b7f4b656363616b323536206f66205b626c6f636b68617368202b207061636b656481526602230ba30ae9d160cd1b60208201525f613067602783018461310a565b7f46696e616c2072616e646f6d206f7574636f6d6520286d6f642000000000000081525f613398601a83018561310a565b620149d160ed1b81526133ae600382018561310a565b95945050505050565b8082028115828204841417613104576131046130bf565b5f826133dc576133dc613161565b500490565b5f600182016133f2576133f26130bf565b5060010190565b5f81613407576134076130bf565b505f190190565b5f61315961341c838661310a565b8461310a565b81810381811115613104576131046130bf565b5f613440828461310a565b61016160f51b81526002019392505050565b5f61345d828461310a565b605d60f81b8152600101939250505056fefeb6d77d8663b36b3393e8790540b4ebe73ade87f3146e450022712344dc7b3b9cff65d26c2c9e31c3ddf370eec9dcc1327976f78b3eebf97cfd37adc448cc35a264697066735822122025d28189ff2f863e07428f28e11e16a64cb2f1ce75771204b9171c953b494b3164736f6c634300081a0033",
					"opcodes": "PUSH2 0x2C0 PUSH1 0x40 MSTORE PUSH1 0x1 PUSH1 0x80 SWAP1 DUP2 MSTORE PUSH1 0x2 PUSH1 0xA0 MSTORE PUSH1 0x3 PUSH1 0xC0 MSTORE PUSH1 0x4 PUSH1 0xE0 MSTORE PUSH1 0x5 PUSH2 0x100 MSTORE PUSH1 0x6 PUSH2 0x120 MSTORE PUSH1 0x7 PUSH2 0x140 MSTORE PUSH1 0x8 PUSH2 0x160 MSTORE PUSH1 0x9 PUSH2 0x180 MSTORE PUSH1 0xA PUSH2 0x1A0 MSTORE PUSH1 0xB PUSH2 0x1C0 MSTORE PUSH1 0xC PUSH2 0x1E0 MSTORE PUSH1 0xD PUSH2 0x200 MSTORE PUSH1 0xE PUSH2 0x220 MSTORE PUSH1 0xF PUSH2 0x240 MSTORE PUSH1 0x10 PUSH2 0x260 MSTORE PUSH1 0x11 PUSH2 0x280 MSTORE PUSH1 0x12 PUSH2 0x2A0 DUP2 SWAP1 MSTORE PUSH2 0x7C SWAP2 PUSH0 SWAP2 PUSH2 0x72A JUMP JUMPDEST POP PUSH1 0x40 DUP1 MLOAD PUSH2 0x240 DUP2 ADD DUP3 MSTORE PUSH1 0x13 DUP2 MSTORE PUSH1 0x14 PUSH1 0x20 DUP1 DUP4 ADD SWAP2 SWAP1 SWAP2 MSTORE PUSH1 0x15 SWAP3 DUP3 ADD SWAP3 SWAP1 SWAP3 MSTORE PUSH1 0x16 PUSH1 0x60 DUP3 ADD MSTORE PUSH1 0x17 PUSH1 0x80 DUP3 ADD MSTORE PUSH1 0x18 PUSH1 0xA0 DUP3 ADD MSTORE PUSH1 0x19 PUSH1 0xC0 DUP3 ADD MSTORE PUSH1 0x1A PUSH1 0xE0 DUP3 ADD MSTORE PUSH1 0x1B PUSH2 0x100 DUP3 ADD MSTORE PUSH1 0x1C PUSH2 0x120 DUP3 ADD MSTORE PUSH1 0x1D PUSH2 0x140 DUP3 ADD MSTORE PUSH1 0x1E PUSH2 0x160 DUP3 ADD MSTORE PUSH1 0x1F PUSH2 0x180 DUP3 ADD MSTORE PUSH2 0x1A0 DUP2 ADD SWAP2 SWAP1 SWAP2 MSTORE PUSH1 0x21 PUSH2 0x1C0 DUP3 ADD MSTORE PUSH1 0x22 PUSH2 0x1E0 DUP3 ADD MSTORE PUSH1 0x23 PUSH2 0x200 DUP3 ADD MSTORE PUSH1 0x24 PUSH2 0x220 DUP3 ADD MSTORE PUSH2 0x122 SWAP1 PUSH1 0x1 SWAP1 PUSH1 0x12 PUSH2 0x72A JUMP JUMPDEST POP PUSH1 0x40 DUP1 MLOAD PUSH2 0x240 DUP2 ADD DUP3 MSTORE PUSH1 0x1 DUP2 MSTORE PUSH1 0x3 PUSH1 0x20 DUP1 DUP4 ADD SWAP2 SWAP1 SWAP2 MSTORE PUSH1 0x5 SWAP3 DUP3 ADD SWAP3 SWAP1 SWAP3 MSTORE PUSH1 0x7 PUSH1 0x60 DUP3 ADD MSTORE PUSH1 0x9 PUSH1 0x80 DUP3 ADD MSTORE PUSH1 0xC PUSH1 0xA0 DUP3 ADD MSTORE PUSH1 0xE PUSH1 0xC0 DUP3 ADD MSTORE PUSH1 0x10 PUSH1 0xE0 DUP3 ADD MSTORE PUSH1 0x12 PUSH2 0x100 DUP3 ADD DUP2 SWAP1 MSTORE PUSH1 0x13 PUSH2 0x120 DUP4 ADD MSTORE PUSH1 0x15 PUSH2 0x140 DUP4 ADD MSTORE PUSH1 0x17 PUSH2 0x160 DUP4 ADD MSTORE PUSH1 0x19 PUSH2 0x180 DUP4 ADD MSTORE PUSH1 0x1B PUSH2 0x1A0 DUP4 ADD MSTORE PUSH1 0x1E PUSH2 0x1C0 DUP4 ADD MSTORE PUSH2 0x1E0 DUP3 ADD SWAP3 SWAP1 SWAP3 MSTORE PUSH1 0x22 PUSH2 0x200 DUP3 ADD MSTORE PUSH1 0x24 PUSH2 0x220 DUP3 ADD MSTORE PUSH2 0x1C9 SWAP2 PUSH1 0x2 SWAP2 SWAP1 PUSH2 0x72A JUMP JUMPDEST POP PUSH1 0x40 DUP1 MLOAD PUSH2 0x240 DUP2 ADD DUP3 MSTORE PUSH1 0x2 DUP2 MSTORE PUSH1 0x4 PUSH1 0x20 DUP3 ADD MSTORE PUSH1 0x6 SWAP2 DUP2 ADD SWAP2 SWAP1 SWAP2 MSTORE PUSH1 0x8 PUSH1 0x60 DUP3 ADD MSTORE PUSH1 0xA PUSH1 0x80 DUP3 ADD MSTORE PUSH1 0xB PUSH1 0xA0 DUP3 ADD MSTORE PUSH1 0xD PUSH1 0xC0 DUP3 ADD MSTORE PUSH1 0xF PUSH1 0xE0 DUP3 ADD MSTORE PUSH1 0x11 PUSH2 0x100 DUP3 ADD MSTORE PUSH1 0x14 PUSH2 0x120 DUP3 ADD MSTORE PUSH1 0x16 PUSH2 0x140 DUP3 ADD MSTORE PUSH1 0x18 PUSH2 0x160 DUP3 ADD MSTORE PUSH1 0x1A PUSH2 0x180 DUP3 ADD MSTORE PUSH1 0x1C PUSH2 0x1A0 DUP3 ADD MSTORE PUSH1 0x1D PUSH2 0x1C0 DUP3 ADD MSTORE PUSH1 0x1F PUSH2 0x1E0 DUP3 ADD MSTORE PUSH1 0x21 PUSH2 0x200 DUP3 ADD MSTORE PUSH1 0x23 PUSH2 0x220 DUP3 ADD MSTORE PUSH2 0x26A SWAP1 PUSH1 0x3 SWAP1 PUSH1 0x12 PUSH2 0x72A JUMP JUMPDEST POP PUSH1 0x40 DUP1 MLOAD PUSH2 0x240 DUP2 ADD DUP3 MSTORE PUSH1 0x2 DUP2 MSTORE PUSH1 0x4 PUSH1 0x20 DUP1 DUP4 ADD DUP3 SWAP1 MSTORE PUSH1 0x6 SWAP4 DUP4 ADD SWAP4 SWAP1 SWAP4 MSTORE PUSH1 0x8 PUSH1 0x60 DUP4 ADD MSTORE PUSH1 0xA PUSH1 0x80 DUP4 ADD MSTORE PUSH1 0xC PUSH1 0xA0 DUP4 ADD MSTORE PUSH1 0xE PUSH1 0xC0 DUP4 ADD MSTORE PUSH1 0x10 PUSH1 0xE0 DUP4 ADD MSTORE PUSH1 0x12 PUSH2 0x100 DUP4 ADD DUP2 SWAP1 MSTORE PUSH1 0x14 PUSH2 0x120 DUP5 ADD MSTORE PUSH1 0x16 PUSH2 0x140 DUP5 ADD MSTORE PUSH1 0x18 PUSH2 0x160 DUP5 ADD MSTORE PUSH1 0x1A PUSH2 0x180 DUP5 ADD MSTORE PUSH1 0x1C PUSH2 0x1A0 DUP5 ADD MSTORE PUSH1 0x1E PUSH2 0x1C0 DUP5 ADD MSTORE PUSH2 0x1E0 DUP4 ADD SWAP4 SWAP1 SWAP4 MSTORE PUSH1 0x22 PUSH2 0x200 DUP4 ADD MSTORE PUSH1 0x24 PUSH2 0x220 DUP4 ADD MSTORE PUSH2 0x30F SWAP3 SWAP1 SWAP2 SWAP1 PUSH2 0x72A JUMP JUMPDEST POP PUSH1 0x40 DUP1 MLOAD PUSH2 0x240 DUP2 ADD DUP3 MSTORE PUSH1 0x1 DUP2 MSTORE PUSH1 0x3 PUSH1 0x20 DUP3 ADD MSTORE PUSH1 0x5 SWAP2 DUP2 ADD DUP3 SWAP1 MSTORE PUSH1 0x7 PUSH1 0x60 DUP3 ADD MSTORE PUSH1 0x9 PUSH1 0x80 DUP3 ADD MSTORE PUSH1 0xB PUSH1 0xA0 DUP3 ADD MSTORE PUSH1 0xD PUSH1 0xC0 DUP3 ADD MSTORE PUSH1 0xF PUSH1 0xE0 DUP3 ADD MSTORE PUSH1 0x11 PUSH2 0x100 DUP3 ADD MSTORE PUSH1 0x13 PUSH2 0x120 DUP3 ADD MSTORE PUSH1 0x15 PUSH2 0x140 DUP3 ADD MSTORE PUSH1 0x17 PUSH2 0x160 DUP3 ADD MSTORE PUSH1 0x19 PUSH2 0x180 DUP3 ADD MSTORE PUSH1 0x1B PUSH2 0x1A0 DUP3 ADD MSTORE PUSH1 0x1D PUSH2 0x1C0 DUP3 ADD MSTORE PUSH1 0x1F PUSH2 0x1E0 DUP3 ADD MSTORE PUSH1 0x21 PUSH2 0x200 DUP3 ADD MSTORE PUSH1 0x23 PUSH2 0x220 DUP3 ADD MSTORE PUSH2 0x3AD SWAP2 SWAP1 PUSH1 0x12 PUSH2 0x72A JUMP JUMPDEST POP PUSH1 0x40 DUP1 MLOAD PUSH2 0x180 DUP2 ADD DUP3 MSTORE PUSH1 0x1 DUP2 MSTORE PUSH1 0x4 PUSH1 0x20 DUP3 ADD MSTORE PUSH1 0x7 SWAP2 DUP2 ADD SWAP2 SWAP1 SWAP2 MSTORE PUSH1 0xA PUSH1 0x60 DUP3 ADD MSTORE PUSH1 0xD PUSH1 0x80 DUP3 ADD MSTORE PUSH1 0x10 PUSH1 0xA0 DUP3 ADD MSTORE PUSH1 0x13 PUSH1 0xC0 DUP3 ADD MSTORE PUSH1 0x16 PUSH1 0xE0 DUP3 ADD MSTORE PUSH1 0x19 PUSH2 0x100 DUP3 ADD MSTORE PUSH1 0x1C PUSH2 0x120 DUP3 ADD MSTORE PUSH1 0x1F PUSH2 0x140 DUP3 ADD MSTORE PUSH1 0x22 PUSH2 0x160 DUP3 ADD MSTORE PUSH2 0x41E SWAP1 PUSH1 0x6 SWAP1 PUSH1 0xC PUSH2 0x72A JUMP JUMPDEST POP PUSH1 0x40 DUP1 MLOAD PUSH2 0x180 DUP2 ADD DUP3 MSTORE PUSH1 0x2 DUP2 MSTORE PUSH1 0x5 PUSH1 0x20 DUP1 DUP4 ADD SWAP2 SWAP1 SWAP2 MSTORE PUSH1 0x8 SWAP3 DUP3 ADD SWAP3 SWAP1 SWAP3 MSTORE PUSH1 0xB PUSH1 0x60 DUP3 ADD MSTORE PUSH1 0xE PUSH1 0x80 DUP3 ADD MSTORE PUSH1 0x11 PUSH1 0xA0 DUP3 ADD MSTORE PUSH1 0x14 PUSH1 0xC0 DUP3 ADD MSTORE PUSH1 0x17 PUSH1 0xE0 DUP3 ADD MSTORE PUSH1 0x1A PUSH2 0x100 DUP3 ADD MSTORE PUSH1 0x1D PUSH2 0x120 DUP3 ADD MSTORE PUSH2 0x140 DUP2 ADD SWAP2 SWAP1 SWAP2 MSTORE PUSH1 0x23 PUSH2 0x160 DUP3 ADD MSTORE PUSH2 0x494 SWAP1 PUSH1 0x7 SWAP1 PUSH1 0xC PUSH2 0x72A JUMP JUMPDEST POP PUSH1 0x40 DUP1 MLOAD PUSH2 0x180 DUP2 ADD DUP3 MSTORE PUSH1 0x3 DUP2 MSTORE PUSH1 0x6 PUSH1 0x20 DUP3 ADD MSTORE PUSH1 0x9 SWAP2 DUP2 ADD SWAP2 SWAP1 SWAP2 MSTORE PUSH1 0xC PUSH1 0x60 DUP3 ADD DUP2 SWAP1 MSTORE PUSH1 0xF PUSH1 0x80 DUP4 ADD MSTORE PUSH1 0x12 PUSH1 0xA0 DUP4 ADD MSTORE PUSH1 0x15 PUSH1 0xC0 DUP4 ADD MSTORE PUSH1 0x18 PUSH1 0xE0 DUP4 ADD MSTORE PUSH1 0x1B PUSH2 0x100 DUP4 ADD MSTORE PUSH1 0x1E PUSH2 0x120 DUP4 ADD MSTORE PUSH1 0x21 PUSH2 0x140 DUP4 ADD MSTORE PUSH1 0x24 PUSH2 0x160 DUP4 ADD MSTORE PUSH2 0x505 SWAP2 PUSH1 0x8 SWAP2 PUSH2 0x72A JUMP JUMPDEST POP PUSH1 0x40 DUP1 MLOAD PUSH2 0x180 DUP2 ADD DUP3 MSTORE PUSH1 0x1 DUP2 MSTORE PUSH1 0x2 PUSH1 0x20 DUP3 ADD MSTORE PUSH1 0x3 SWAP2 DUP2 ADD SWAP2 SWAP1 SWAP2 MSTORE PUSH1 0x4 PUSH1 0x60 DUP3 ADD MSTORE PUSH1 0x5 PUSH1 0x80 DUP3 ADD MSTORE PUSH1 0x6 PUSH1 0xA0 DUP3 ADD MSTORE PUSH1 0x7 PUSH1 0xC0 DUP3 ADD MSTORE PUSH1 0x8 PUSH1 0xE0 DUP3 ADD MSTORE PUSH1 0x9 PUSH2 0x100 DUP3 ADD DUP2 SWAP1 MSTORE PUSH1 0xA PUSH2 0x120 DUP4 ADD MSTORE PUSH1 0xB PUSH2 0x140 DUP4 ADD MSTORE PUSH1 0xC PUSH2 0x160 DUP4 ADD DUP2 SWAP1 MSTORE PUSH2 0x576 SWAP3 SWAP1 PUSH2 0x72A JUMP JUMPDEST POP PUSH1 0x40 DUP1 MLOAD PUSH2 0x180 DUP2 ADD DUP3 MSTORE PUSH1 0xD DUP2 MSTORE PUSH1 0xE PUSH1 0x20 DUP3 ADD MSTORE PUSH1 0xF SWAP2 DUP2 ADD SWAP2 SWAP1 SWAP2 MSTORE PUSH1 0x10 PUSH1 0x60 DUP3 ADD MSTORE PUSH1 0x11 PUSH1 0x80 DUP3 ADD MSTORE PUSH1 0x12 PUSH1 0xA0 DUP3 ADD MSTORE PUSH1 0x13 PUSH1 0xC0 DUP3 ADD MSTORE PUSH1 0x14 PUSH1 0xE0 DUP3 ADD MSTORE PUSH1 0x15 PUSH2 0x100 DUP3 ADD MSTORE PUSH1 0x16 PUSH2 0x120 DUP3 ADD MSTORE PUSH1 0x17 PUSH2 0x140 DUP3 ADD MSTORE PUSH1 0x18 PUSH2 0x160 DUP3 ADD MSTORE PUSH2 0x5E7 SWAP1 PUSH1 0xA SWAP1 PUSH1 0xC PUSH2 0x72A JUMP JUMPDEST POP PUSH1 0x40 DUP1 MLOAD PUSH2 0x180 DUP2 ADD DUP3 MSTORE PUSH1 0x19 DUP2 MSTORE PUSH1 0x1A PUSH1 0x20 DUP1 DUP4 ADD SWAP2 SWAP1 SWAP2 MSTORE PUSH1 0x1B SWAP3 DUP3 ADD SWAP3 SWAP1 SWAP3 MSTORE PUSH1 0x1C PUSH1 0x60 DUP3 ADD MSTORE PUSH1 0x1D PUSH1 0x80 DUP3 ADD MSTORE PUSH1 0x1E PUSH1 0xA0 DUP3 ADD MSTORE PUSH1 0x1F PUSH1 0xC0 DUP3 ADD MSTORE PUSH1 0xE0 DUP2 ADD SWAP2 SWAP1 SWAP2 MSTORE PUSH1 0x21 PUSH2 0x100 DUP3 ADD MSTORE PUSH1 0x22 PUSH2 0x120 DUP3 ADD MSTORE PUSH1 0x23 PUSH2 0x140 DUP3 ADD MSTORE PUSH1 0x24 PUSH2 0x160 DUP3 ADD MSTORE PUSH2 0x65D SWAP1 PUSH1 0xB SWAP1 PUSH1 0xC PUSH2 0x72A JUMP JUMPDEST POP CALLVALUE DUP1 ISZERO PUSH2 0x669 JUMPI PUSH0 DUP1 REVERT JUMPDEST POP PUSH1 0x40 MLOAD PUSH2 0x3EA9 CODESIZE SUB DUP1 PUSH2 0x3EA9 DUP4 CODECOPY DUP2 ADD PUSH1 0x40 DUP2 SWAP1 MSTORE PUSH2 0x688 SWAP2 PUSH2 0x860 JUMP JUMPDEST PUSH1 0xC DUP1 SLOAD PUSH1 0x1 PUSH1 0x1 PUSH1 0xA0 SHL SUB NOT AND PUSH1 0x1 PUSH1 0x1 PUSH1 0xA0 SHL SUB DUP7 AND OR SWAP1 SSTORE PUSH1 0xD DUP4 SWAP1 SSTORE PUSH1 0xE DUP1 SLOAD PUSH1 0xFF NOT AND SWAP1 SSTORE DUP2 MLOAD PUSH2 0x6C5 SWAP1 PUSH1 0x12 SWAP1 PUSH1 0x20 DUP6 ADD SWAP1 PUSH2 0x7BA JUMP JUMPDEST POP PUSH1 0x11 DUP1 SLOAD PUSH2 0xFF00 NOT AND PUSH2 0x100 PUSH1 0xFF DUP5 AND MUL OR SWAP1 SSTORE PUSH1 0x40 MLOAD PUSH1 0x1 PUSH1 0x1 PUSH1 0xA0 SHL SUB DUP6 AND SWAP1 PUSH32 0x7BC06AD6AF97E4997115D8B8EC4270105092A2DC99A8BA73A35DE86C49AB8D9B SWAP1 PUSH2 0x719 SWAP1 DUP7 SWAP1 DUP7 SWAP1 DUP7 SWAP1 PUSH2 0x956 JUMP JUMPDEST PUSH1 0x40 MLOAD DUP1 SWAP2 SUB SWAP1 LOG2 POP POP POP POP PUSH2 0x9B8 JUMP JUMPDEST PUSH1 0x1 DUP4 ADD SWAP2 DUP4 SWAP1 DUP3 ISZERO PUSH2 0x7AA JUMPI SWAP2 PUSH1 0x20 MUL DUP3 ADD PUSH0 JUMPDEST DUP4 DUP3 GT ISZERO PUSH2 0x77C JUMPI DUP4 MLOAD DUP4 DUP3 PUSH2 0x100 EXP DUP2 SLOAD DUP2 PUSH1 0xFF MUL NOT AND SWAP1 DUP4 PUSH1 0xFF AND MUL OR SWAP1 SSTORE POP SWAP3 PUSH1 0x20 ADD SWAP3 PUSH1 0x1 ADD PUSH1 0x20 DUP2 PUSH0 ADD DIV SWAP3 DUP4 ADD SWAP3 PUSH1 0x1 SUB MUL PUSH2 0x73F JUMP JUMPDEST DUP1 ISZERO PUSH2 0x7A8 JUMPI DUP3 DUP2 PUSH2 0x100 EXP DUP2 SLOAD SWAP1 PUSH1 0xFF MUL NOT AND SWAP1 SSTORE PUSH1 0x1 ADD PUSH1 0x20 DUP2 PUSH0 ADD DIV SWAP3 DUP4 ADD SWAP3 PUSH1 0x1 SUB MUL PUSH2 0x77C JUMP JUMPDEST POP JUMPDEST POP PUSH2 0x7B6 SWAP3 SWAP2 POP PUSH2 0x80D JUMP JUMPDEST POP SWAP1 JUMP JUMPDEST DUP3 DUP1 SLOAD DUP3 DUP3 SSTORE SWAP1 PUSH0 MSTORE PUSH1 0x20 PUSH0 KECCAK256 SWAP1 DUP2 ADD SWAP3 DUP3 ISZERO PUSH2 0x7AA JUMPI SWAP2 PUSH1 0x20 MUL DUP3 ADD JUMPDEST DUP3 DUP2 GT ISZERO PUSH2 0x7AA JUMPI DUP3 MLOAD DUP3 SLOAD PUSH1 0x1 PUSH1 0x1 PUSH1 0xA0 SHL SUB NOT AND PUSH1 0x1 PUSH1 0x1 PUSH1 0xA0 SHL SUB SWAP1 SWAP2 AND OR DUP3 SSTORE PUSH1 0x20 SWAP1 SWAP3 ADD SWAP2 PUSH1 0x1 SWAP1 SWAP2 ADD SWAP1 PUSH2 0x7D8 JUMP JUMPDEST JUMPDEST DUP1 DUP3 GT ISZERO PUSH2 0x7B6 JUMPI PUSH0 DUP2 SSTORE PUSH1 0x1 ADD PUSH2 0x80E JUMP JUMPDEST DUP1 MLOAD PUSH1 0x1 PUSH1 0x1 PUSH1 0xA0 SHL SUB DUP2 AND DUP2 EQ PUSH2 0x837 JUMPI PUSH0 DUP1 REVERT JUMPDEST SWAP2 SWAP1 POP JUMP JUMPDEST PUSH4 0x4E487B71 PUSH1 0xE0 SHL PUSH0 MSTORE PUSH1 0x41 PUSH1 0x4 MSTORE PUSH1 0x24 PUSH0 REVERT JUMPDEST DUP1 MLOAD PUSH1 0xFF DUP2 AND DUP2 EQ PUSH2 0x837 JUMPI PUSH0 DUP1 REVERT JUMPDEST PUSH0 DUP1 PUSH0 DUP1 PUSH1 0x80 DUP6 DUP8 SUB SLT ISZERO PUSH2 0x873 JUMPI PUSH0 DUP1 REVERT JUMPDEST PUSH2 0x87C DUP6 PUSH2 0x821 JUMP JUMPDEST PUSH1 0x20 DUP7 ADD MLOAD PUSH1 0x40 DUP8 ADD MLOAD SWAP2 SWAP6 POP SWAP4 POP PUSH1 0x1 PUSH1 0x1 PUSH1 0x40 SHL SUB DUP2 GT ISZERO PUSH2 0x89E JUMPI PUSH0 DUP1 REVERT JUMPDEST DUP6 ADD PUSH1 0x1F DUP2 ADD DUP8 SGT PUSH2 0x8AE JUMPI PUSH0 DUP1 REVERT JUMPDEST DUP1 MLOAD PUSH1 0x1 PUSH1 0x1 PUSH1 0x40 SHL SUB DUP2 GT ISZERO PUSH2 0x8C7 JUMPI PUSH2 0x8C7 PUSH2 0x83C JUMP JUMPDEST PUSH1 0x40 MLOAD PUSH1 0x5 DUP3 SWAP1 SHL SWAP1 PUSH1 0x3F DUP3 ADD PUSH1 0x1F NOT AND DUP2 ADD PUSH1 0x1 PUSH1 0x1 PUSH1 0x40 SHL SUB DUP2 GT DUP3 DUP3 LT OR ISZERO PUSH2 0x8F5 JUMPI PUSH2 0x8F5 PUSH2 0x83C JUMP JUMPDEST PUSH1 0x40 MSTORE SWAP2 DUP3 MSTORE PUSH1 0x20 DUP2 DUP5 ADD DUP2 ADD SWAP3 SWAP1 DUP2 ADD DUP11 DUP5 GT ISZERO PUSH2 0x912 JUMPI PUSH0 DUP1 REVERT JUMPDEST PUSH1 0x20 DUP6 ADD SWAP5 POP JUMPDEST DUP4 DUP6 LT ISZERO PUSH2 0x938 JUMPI PUSH2 0x92A DUP6 PUSH2 0x821 JUMP JUMPDEST DUP2 MSTORE PUSH1 0x20 SWAP5 DUP6 ADD SWAP5 ADD PUSH2 0x919 JUMP JUMPDEST POP SWAP5 POP PUSH2 0x94B SWAP3 POP POP POP PUSH1 0x60 DUP7 ADD PUSH2 0x850 JUMP JUMPDEST SWAP1 POP SWAP3 SWAP6 SWAP2 SWAP5 POP SWAP3 POP JUMP JUMPDEST PUSH0 PUSH1 0x60 DUP3 ADD DUP6 DUP4 MSTORE PUSH1 0x60 PUSH1 0x20 DUP5 ADD MSTORE DUP1 DUP6 MLOAD DUP1 DUP4 MSTORE PUSH1 0x80 DUP6 ADD SWAP2 POP PUSH1 0x20 DUP8 ADD SWAP3 POP PUSH0 JUMPDEST DUP2 DUP2 LT ISZERO PUSH2 0x9A0 JUMPI DUP4 MLOAD PUSH1 0x1 PUSH1 0x1 PUSH1 0xA0 SHL SUB AND DUP4 MSTORE PUSH1 0x20 SWAP4 DUP5 ADD SWAP4 SWAP1 SWAP3 ADD SWAP2 PUSH1 0x1 ADD PUSH2 0x979 JUMP JUMPDEST POP POP DUP1 SWAP3 POP POP POP PUSH1 0xFF DUP4 AND PUSH1 0x40 DUP4 ADD MSTORE SWAP5 SWAP4 POP POP POP POP JUMP JUMPDEST PUSH2 0x34E4 DUP1 PUSH2 0x9C5 PUSH0 CODECOPY PUSH0 RETURN INVALID PUSH1 0x80 PUSH1 0x40 MSTORE PUSH1 0x4 CALLDATASIZE LT PUSH2 0x280 JUMPI PUSH0 CALLDATALOAD PUSH1 0xE0 SHR DUP1 PUSH4 0x7F3BE3ED GT PUSH2 0x155 JUMPI DUP1 PUSH4 0xCF3C5D16 GT PUSH2 0xBE JUMPI DUP1 PUSH4 0xE4CA650D GT PUSH2 0x78 JUMPI DUP1 PUSH4 0xE4CA650D EQ PUSH2 0x75E JUMPI DUP1 PUSH4 0xE71F766E EQ PUSH2 0x77D JUMPI DUP1 PUSH4 0xE8E0FCA5 EQ PUSH2 0x79C JUMPI DUP1 PUSH4 0xF2D18F42 EQ PUSH2 0x7BB JUMPI DUP1 PUSH4 0xF437BC59 EQ PUSH2 0x7E9 JUMPI DUP1 PUSH4 0xFE5385AF EQ PUSH2 0x808 JUMPI PUSH0 DUP1 REVERT JUMPDEST DUP1 PUSH4 0xCF3C5D16 EQ PUSH2 0x6B7 JUMPI DUP1 PUSH4 0xD0E30DB0 EQ PUSH2 0x6E5 JUMPI DUP1 PUSH4 0xD1EDB09E EQ PUSH2 0x6ED JUMPI DUP1 PUSH4 0xD4F7A285 EQ PUSH2 0x701 JUMPI DUP1 PUSH4 0xD9CC76AD EQ PUSH2 0x720 JUMPI DUP1 PUSH4 0xDB7F11DB EQ PUSH2 0x73F JUMPI PUSH0 DUP1 REVERT JUMPDEST DUP1 PUSH4 0x9619367D GT PUSH2 0x10F JUMPI DUP1 PUSH4 0x9619367D EQ PUSH2 0x607 JUMPI DUP1 PUSH4 0x972B533D EQ PUSH2 0x61C JUMPI DUP1 PUSH4 0xA38BD74C EQ PUSH2 0x63B JUMPI DUP1 PUSH4 0xA6EDE84A EQ PUSH2 0x65A JUMPI DUP1 PUSH4 0xB2513399 EQ PUSH2 0x679 JUMPI DUP1 PUSH4 0xBE47AE13 EQ PUSH2 0x698 JUMPI PUSH0 DUP1 REVERT JUMPDEST DUP1 PUSH4 0x7F3BE3ED EQ PUSH2 0x56D JUMPI DUP1 PUSH4 0x87171EB7 EQ PUSH2 0x58C JUMPI DUP1 PUSH4 0x8C7E347A EQ PUSH2 0x5A1 JUMPI DUP1 PUSH4 0x8D8C1286 EQ PUSH2 0x5B5 JUMPI DUP1 PUSH4 0x8E4BF820 EQ PUSH2 0x5D4 JUMPI DUP1 PUSH4 0x8FFFEBCA EQ PUSH2 0x5E8 JUMPI PUSH0 DUP1 REVERT JUMPDEST DUP1 PUSH4 0x2E5B2168 GT PUSH2 0x1F7 JUMPI DUP1 PUSH4 0x4760FFF3 GT PUSH2 0x1B1 JUMPI DUP1 PUSH4 0x4760FFF3 EQ PUSH2 0x4CB JUMPI DUP1 PUSH4 0x4D7D93FE EQ PUSH2 0x4EA JUMPI DUP1 PUSH4 0x4E69D560 EQ PUSH2 0x509 JUMPI DUP1 PUSH4 0x5DCAB1D8 EQ PUSH2 0x520 JUMPI DUP1 PUSH4 0x65372147 EQ PUSH2 0x53F JUMPI DUP1 PUSH4 0x6F91A66F EQ PUSH2 0x558 JUMPI PUSH0 DUP1 REVERT JUMPDEST DUP1 PUSH4 0x2E5B2168 EQ PUSH2 0x40D JUMPI DUP1 PUSH4 0x2ECA4C28 EQ PUSH2 0x430 JUMPI DUP1 PUSH4 0x322F8920 EQ PUSH2 0x44E JUMPI DUP1 PUSH4 0x35AA2E44 EQ PUSH2 0x46D JUMPI DUP1 PUSH4 0x38CCEB4F EQ PUSH2 0x4A4 JUMPI DUP1 PUSH4 0x43046844 EQ PUSH2 0x4B8 JUMPI PUSH0 DUP1 REVERT JUMPDEST DUP1 PUSH4 0x1FAC0FFD GT PUSH2 0x248 JUMPI DUP1 PUSH4 0x1FAC0FFD EQ PUSH2 0x332 JUMPI DUP1 PUSH4 0x200D2ED2 EQ PUSH2 0x351 JUMPI DUP1 PUSH4 0x22AF00FA EQ PUSH2 0x36A JUMPI DUP1 PUSH4 0x23FE318E EQ PUSH2 0x3B0 JUMPI DUP1 PUSH4 0x2605C251 EQ PUSH2 0x3CF JUMPI DUP1 PUSH4 0x28DDDC1B EQ PUSH2 0x3EE JUMPI PUSH0 DUP1 REVERT JUMPDEST DUP1 PUSH4 0x12586172 EQ PUSH2 0x284 JUMPI DUP1 PUSH4 0x19299832 EQ PUSH2 0x2B8 JUMPI DUP1 PUSH4 0x195BA0EB EQ PUSH2 0x2E9 JUMPI DUP1 PUSH4 0x1B2ABC77 EQ PUSH2 0x308 JUMPI DUP1 PUSH4 0x1DBE2E0E EQ PUSH2 0x31E JUMPI JUMPDEST PUSH0 DUP1 REVERT JUMPDEST CALLVALUE DUP1 ISZERO PUSH2 0x28F JUMPI PUSH0 DUP1 REVERT JUMPDEST POP PUSH2 0x2A3 PUSH2 0x29E CALLDATASIZE PUSH1 0x4 PUSH2 0x3047 JUMP JUMPDEST PUSH2 0x827 JUMP JUMPDEST PUSH1 0x40 MLOAD SWAP1 ISZERO ISZERO DUP2 MSTORE PUSH1 0x20 ADD JUMPDEST PUSH1 0x40 MLOAD DUP1 SWAP2 SUB SWAP1 RETURN JUMPDEST CALLVALUE DUP1 ISZERO PUSH2 0x2C3 JUMPI PUSH0 DUP1 REVERT JUMPDEST POP PUSH2 0x2D7 PUSH2 0x2D2 CALLDATASIZE PUSH1 0x4 PUSH2 0x306E JUMP JUMPDEST PUSH2 0x88E JUMP JUMPDEST PUSH1 0x40 MLOAD PUSH1 0xFF SWAP1 SWAP2 AND DUP2 MSTORE PUSH1 0x20 ADD PUSH2 0x2AF JUMP JUMPDEST CALLVALUE DUP1 ISZERO PUSH2 0x2F4 JUMPI PUSH0 DUP1 REVERT JUMPDEST POP PUSH2 0x2D7 PUSH2 0x303 CALLDATASIZE PUSH1 0x4 PUSH2 0x306E JUMP JUMPDEST PUSH2 0x8B7 JUMP JUMPDEST CALLVALUE DUP1 ISZERO PUSH2 0x313 JUMPI PUSH0 DUP1 REVERT JUMPDEST POP PUSH2 0x31C PUSH2 0x8C6 JUMP JUMPDEST STOP JUMPDEST CALLVALUE DUP1 ISZERO PUSH2 0x329 JUMPI PUSH0 DUP1 REVERT JUMPDEST POP PUSH2 0x31C PUSH2 0x966 JUMP JUMPDEST CALLVALUE DUP1 ISZERO PUSH2 0x33D JUMPI PUSH0 DUP1 REVERT JUMPDEST POP PUSH2 0x2D7 PUSH2 0x34C CALLDATASIZE PUSH1 0x4 PUSH2 0x306E JUMP JUMPDEST PUSH2 0xBB5 JUMP JUMPDEST CALLVALUE DUP1 ISZERO PUSH2 0x35C JUMPI PUSH0 DUP1 REVERT JUMPDEST POP PUSH1 0xE SLOAD PUSH2 0x2D7 SWAP1 PUSH1 0xFF AND DUP2 JUMP JUMPDEST CALLVALUE DUP1 ISZERO PUSH2 0x375 JUMPI PUSH0 DUP1 REVERT JUMPDEST POP PUSH2 0x389 PUSH2 0x384 CALLDATASIZE PUSH1 0x4 PUSH2 0x306E JUMP JUMPDEST PUSH2 0xBC4 JUMP JUMPDEST PUSH1 0x40 DUP1 MLOAD PUSH1 0x1 PUSH1 0x1 PUSH1 0xA0 SHL SUB SWAP1 SWAP5 AND DUP5 MSTORE PUSH1 0xFF SWAP1 SWAP3 AND PUSH1 0x20 DUP5 ADD MSTORE SWAP1 DUP3 ADD MSTORE PUSH1 0x60 ADD PUSH2 0x2AF JUMP JUMPDEST CALLVALUE DUP1 ISZERO PUSH2 0x3BB JUMPI PUSH0 DUP1 REVERT JUMPDEST POP PUSH2 0x2D7 PUSH2 0x3CA CALLDATASIZE PUSH1 0x4 PUSH2 0x306E JUMP JUMPDEST PUSH2 0xC05 JUMP JUMPDEST CALLVALUE DUP1 ISZERO PUSH2 0x3DA JUMPI PUSH0 DUP1 REVERT JUMPDEST POP PUSH2 0x2A3 PUSH2 0x3E9 CALLDATASIZE PUSH1 0x4 PUSH2 0x3047 JUMP JUMPDEST PUSH2 0xC14 JUMP JUMPDEST CALLVALUE DUP1 ISZERO PUSH2 0x3F9 JUMPI PUSH0 DUP1 REVERT JUMPDEST POP PUSH2 0x2A3 PUSH2 0x408 CALLDATASIZE PUSH1 0x4 PUSH2 0x3047 JUMP JUMPDEST PUSH2 0xC73 JUMP JUMPDEST CALLVALUE DUP1 ISZERO PUSH2 0x418 JUMPI PUSH0 DUP1 REVERT JUMPDEST POP PUSH2 0x422 PUSH1 0x18 SLOAD DUP2 JUMP JUMPDEST PUSH1 0x40 MLOAD SWAP1 DUP2 MSTORE PUSH1 0x20 ADD PUSH2 0x2AF JUMP JUMPDEST CALLVALUE DUP1 ISZERO PUSH2 0x43B JUMPI PUSH0 DUP1 REVERT JUMPDEST POP PUSH1 0x11 SLOAD PUSH2 0x2D7 SWAP1 PUSH2 0x100 SWAP1 DIV PUSH1 0xFF AND DUP2 JUMP JUMPDEST CALLVALUE DUP1 ISZERO PUSH2 0x459 JUMPI PUSH0 DUP1 REVERT JUMPDEST POP PUSH2 0x2D7 PUSH2 0x468 CALLDATASIZE PUSH1 0x4 PUSH2 0x306E JUMP JUMPDEST PUSH2 0xCD2 JUMP JUMPDEST CALLVALUE DUP1 ISZERO PUSH2 0x478 JUMPI PUSH0 DUP1 REVERT JUMPDEST POP PUSH2 0x48C PUSH2 0x487 CALLDATASIZE PUSH1 0x4 PUSH2 0x306E JUMP JUMPDEST PUSH2 0xCE1 JUMP JUMPDEST PUSH1 0x40 MLOAD PUSH1 0x1 PUSH1 0x1 PUSH1 0xA0 SHL SUB SWAP1 SWAP2 AND DUP2 MSTORE PUSH1 0x20 ADD PUSH2 0x2AF JUMP JUMPDEST CALLVALUE DUP1 ISZERO PUSH2 0x4AF JUMPI PUSH0 DUP1 REVERT JUMPDEST POP PUSH2 0x31C PUSH2 0xD09 JUMP JUMPDEST PUSH2 0x31C PUSH2 0x4C6 CALLDATASIZE PUSH1 0x4 PUSH2 0x3047 JUMP JUMPDEST PUSH2 0x16FC JUMP JUMPDEST CALLVALUE DUP1 ISZERO PUSH2 0x4D6 JUMPI PUSH0 DUP1 REVERT JUMPDEST POP PUSH2 0x2A3 PUSH2 0x4E5 CALLDATASIZE PUSH1 0x4 PUSH2 0x3047 JUMP JUMPDEST PUSH2 0x1913 JUMP JUMPDEST CALLVALUE DUP1 ISZERO PUSH2 0x4F5 JUMPI PUSH0 DUP1 REVERT JUMPDEST POP PUSH2 0x2A3 PUSH2 0x504 CALLDATASIZE PUSH1 0x4 PUSH2 0x3047 JUMP JUMPDEST PUSH2 0x1972 JUMP JUMPDEST CALLVALUE DUP1 ISZERO PUSH2 0x514 JUMPI PUSH0 DUP1 REVERT JUMPDEST POP PUSH1 0xE SLOAD PUSH1 0xFF AND PUSH2 0x2D7 JUMP JUMPDEST CALLVALUE DUP1 ISZERO PUSH2 0x52B JUMPI PUSH0 DUP1 REVERT JUMPDEST POP PUSH2 0x2A3 PUSH2 0x53A CALLDATASIZE PUSH1 0x4 PUSH2 0x3047 JUMP JUMPDEST PUSH2 0x19D1 JUMP JUMPDEST CALLVALUE DUP1 ISZERO PUSH2 0x54A JUMPI PUSH0 DUP1 REVERT JUMPDEST POP PUSH1 0x11 SLOAD PUSH2 0x2D7 SWAP1 PUSH1 0xFF AND DUP2 JUMP JUMPDEST CALLVALUE DUP1 ISZERO PUSH2 0x563 JUMPI PUSH0 DUP1 REVERT JUMPDEST POP PUSH2 0x422 PUSH1 0x10 SLOAD DUP2 JUMP JUMPDEST CALLVALUE DUP1 ISZERO PUSH2 0x578 JUMPI PUSH0 DUP1 REVERT JUMPDEST POP PUSH2 0x48C PUSH2 0x587 CALLDATASIZE PUSH1 0x4 PUSH2 0x306E JUMP JUMPDEST PUSH2 0x1A30 JUMP JUMPDEST CALLVALUE DUP1 ISZERO PUSH2 0x597 JUMPI PUSH0 DUP1 REVERT JUMPDEST POP PUSH2 0x422 PUSH1 0x17 SLOAD DUP2 JUMP JUMPDEST CALLVALUE DUP1 ISZERO PUSH2 0x5AC JUMPI PUSH0 DUP1 REVERT JUMPDEST POP PUSH1 0xF SLOAD PUSH2 0x422 JUMP JUMPDEST CALLVALUE DUP1 ISZERO PUSH2 0x5C0 JUMPI PUSH0 DUP1 REVERT JUMPDEST POP PUSH2 0x48C PUSH2 0x5CF CALLDATASIZE PUSH1 0x4 PUSH2 0x306E JUMP JUMPDEST PUSH2 0x1A3F JUMP JUMPDEST CALLVALUE DUP1 ISZERO PUSH2 0x5DF JUMPI PUSH0 DUP1 REVERT JUMPDEST POP PUSH2 0x31C PUSH2 0x1A4E JUMP JUMPDEST CALLVALUE DUP1 ISZERO PUSH2 0x5F3 JUMPI PUSH0 DUP1 REVERT JUMPDEST POP PUSH2 0x2A3 PUSH2 0x602 CALLDATASIZE PUSH1 0x4 PUSH2 0x3047 JUMP JUMPDEST PUSH2 0x2460 JUMP JUMPDEST CALLVALUE DUP1 ISZERO PUSH2 0x612 JUMPI PUSH0 DUP1 REVERT JUMPDEST POP PUSH2 0x422 PUSH1 0xD SLOAD DUP2 JUMP JUMPDEST CALLVALUE DUP1 ISZERO PUSH2 0x627 JUMPI PUSH0 DUP1 REVERT JUMPDEST POP PUSH2 0x2A3 PUSH2 0x636 CALLDATASIZE PUSH1 0x4 PUSH2 0x3047 JUMP JUMPDEST PUSH2 0x24BF JUMP JUMPDEST CALLVALUE DUP1 ISZERO PUSH2 0x646 JUMPI PUSH0 DUP1 REVERT JUMPDEST POP PUSH2 0x2A3 PUSH2 0x655 CALLDATASIZE PUSH1 0x4 PUSH2 0x3047 JUMP JUMPDEST PUSH2 0x251D JUMP JUMPDEST CALLVALUE DUP1 ISZERO PUSH2 0x665 JUMPI PUSH0 DUP1 REVERT JUMPDEST POP PUSH2 0x2D7 PUSH2 0x674 CALLDATASIZE PUSH1 0x4 PUSH2 0x306E JUMP JUMPDEST PUSH2 0x257C JUMP JUMPDEST CALLVALUE DUP1 ISZERO PUSH2 0x684 JUMPI PUSH0 DUP1 REVERT JUMPDEST POP PUSH2 0x2D7 PUSH2 0x693 CALLDATASIZE PUSH1 0x4 PUSH2 0x306E JUMP JUMPDEST PUSH2 0x258B JUMP JUMPDEST CALLVALUE DUP1 ISZERO PUSH2 0x6A3 JUMPI PUSH0 DUP1 REVERT JUMPDEST POP PUSH2 0x2D7 PUSH2 0x6B2 CALLDATASIZE PUSH1 0x4 PUSH2 0x306E JUMP JUMPDEST PUSH2 0x259A JUMP JUMPDEST CALLVALUE DUP1 ISZERO PUSH2 0x6C2 JUMPI PUSH0 DUP1 REVERT JUMPDEST POP PUSH2 0x2A3 PUSH2 0x6D1 CALLDATASIZE PUSH1 0x4 PUSH2 0x3085 JUMP JUMPDEST PUSH1 0x16 PUSH1 0x20 MSTORE PUSH0 SWAP1 DUP2 MSTORE PUSH1 0x40 SWAP1 KECCAK256 SLOAD PUSH1 0xFF AND DUP2 JUMP JUMPDEST PUSH2 0x31C PUSH2 0x25A9 JUMP JUMPDEST CALLVALUE DUP1 ISZERO PUSH2 0x6F8 JUMPI PUSH0 DUP1 REVERT JUMPDEST POP PUSH2 0x422 PUSH2 0x26DA JUMP JUMPDEST CALLVALUE DUP1 ISZERO PUSH2 0x70C JUMPI PUSH0 DUP1 REVERT JUMPDEST POP PUSH2 0x2D7 PUSH2 0x71B CALLDATASIZE PUSH1 0x4 PUSH2 0x306E JUMP JUMPDEST PUSH2 0x2726 JUMP JUMPDEST CALLVALUE DUP1 ISZERO PUSH2 0x72B JUMPI PUSH0 DUP1 REVERT JUMPDEST POP PUSH2 0x2A3 PUSH2 0x73A CALLDATASIZE PUSH1 0x4 PUSH2 0x3047 JUMP JUMPDEST PUSH2 0x2735 JUMP JUMPDEST CALLVALUE DUP1 ISZERO PUSH2 0x74A JUMPI PUSH0 DUP1 REVERT JUMPDEST POP PUSH2 0x2D7 PUSH2 0x759 CALLDATASIZE PUSH1 0x4 PUSH2 0x306E JUMP JUMPDEST PUSH2 0x2794 JUMP JUMPDEST CALLVALUE DUP1 ISZERO PUSH2 0x769 JUMPI PUSH0 DUP1 REVERT JUMPDEST POP PUSH2 0x2A3 PUSH2 0x778 CALLDATASIZE PUSH1 0x4 PUSH2 0x3047 JUMP JUMPDEST PUSH2 0x27A3 JUMP JUMPDEST CALLVALUE DUP1 ISZERO PUSH2 0x788 JUMPI PUSH0 DUP1 REVERT JUMPDEST POP PUSH2 0x2A3 PUSH2 0x797 CALLDATASIZE PUSH1 0x4 PUSH2 0x3047 JUMP JUMPDEST PUSH2 0x2802 JUMP JUMPDEST CALLVALUE DUP1 ISZERO PUSH2 0x7A7 JUMPI PUSH0 DUP1 REVERT JUMPDEST POP PUSH2 0x2D7 PUSH2 0x7B6 CALLDATASIZE PUSH1 0x4 PUSH2 0x306E JUMP JUMPDEST PUSH2 0x2861 JUMP JUMPDEST CALLVALUE DUP1 ISZERO PUSH2 0x7C6 JUMPI PUSH0 DUP1 REVERT JUMPDEST POP PUSH2 0x2A3 PUSH2 0x7D5 CALLDATASIZE PUSH1 0x4 PUSH2 0x3085 JUMP JUMPDEST PUSH1 0x15 PUSH1 0x20 MSTORE PUSH0 SWAP1 DUP2 MSTORE PUSH1 0x40 SWAP1 KECCAK256 SLOAD PUSH1 0xFF AND DUP2 JUMP JUMPDEST CALLVALUE DUP1 ISZERO PUSH2 0x7F4 JUMPI PUSH0 DUP1 REVERT JUMPDEST POP PUSH1 0xC SLOAD PUSH2 0x48C SWAP1 PUSH1 0x1 PUSH1 0x1 PUSH1 0xA0 SHL SUB AND DUP2 JUMP JUMPDEST CALLVALUE DUP1 ISZERO PUSH2 0x813 JUMPI PUSH0 DUP1 REVERT JUMPDEST POP PUSH2 0x2D7 PUSH2 0x822 CALLDATASIZE PUSH1 0x4 PUSH2 0x306E JUMP JUMPDEST PUSH2 0x286F JUMP JUMPDEST PUSH0 DUP1 JUMPDEST PUSH1 0xC DUP2 PUSH1 0xFF AND LT ISZERO PUSH2 0x886 JUMPI DUP3 PUSH1 0xFF AND PUSH1 0x6 DUP3 PUSH1 0xFF AND PUSH1 0xC DUP2 LT PUSH2 0x850 JUMPI PUSH2 0x850 PUSH2 0x30AB JUMP JUMPDEST PUSH1 0x20 DUP2 DIV SWAP1 SWAP2 ADD SLOAD PUSH1 0xFF PUSH1 0x1F SWAP1 SWAP3 AND PUSH2 0x100 EXP SWAP1 DIV AND SUB PUSH2 0x874 JUMPI POP PUSH1 0x1 SWAP3 SWAP2 POP POP JUMP JUMPDEST DUP1 PUSH2 0x87E DUP2 PUSH2 0x30D3 JUMP JUMPDEST SWAP2 POP POP PUSH2 0x82A JUMP JUMPDEST POP PUSH0 SWAP3 SWAP2 POP POP JUMP JUMPDEST PUSH1 0x8 DUP2 PUSH1 0xC DUP2 LT PUSH2 0x89D JUMPI PUSH0 DUP1 REVERT JUMPDEST PUSH1 0x20 SWAP2 DUP3 DUP3 DIV ADD SWAP2 SWAP1 MOD SWAP2 POP SLOAD SWAP1 PUSH2 0x100 EXP SWAP1 DIV PUSH1 0xFF AND DUP2 JUMP JUMPDEST PUSH1 0x9 DUP2 PUSH1 0xC DUP2 LT PUSH2 0x89D JUMPI PUSH0 DUP1 REVERT JUMPDEST PUSH1 0xE SLOAD PUSH1 0xFF AND PUSH1 0x1 EQ PUSH2 0x917 JUMPI PUSH1 0x40 MLOAD PUSH3 0x461BCD PUSH1 0xE5 SHL DUP2 MSTORE PUSH1 0x20 PUSH1 0x4 DUP3 ADD MSTORE PUSH1 0x14 PUSH1 0x24 DUP3 ADD MSTORE PUSH20 0x139BC81B5BDC994818995D1CC8185B1B1BDDD959 PUSH1 0x62 SHL PUSH1 0x44 DUP3 ADD MSTORE PUSH1 0x64 ADD JUMPDEST PUSH1 0x40 MLOAD DUP1 SWAP2 SUB SWAP1 REVERT JUMPDEST PUSH1 0xE DUP1 SLOAD PUSH1 0xFF NOT AND PUSH1 0x2 OR SWAP1 SSTORE NUMBER PUSH1 0x10 DUP2 SWAP1 SSTORE PUSH1 0x40 MLOAD PUSH32 0x2D21E9397283A99C7F2DF56BAF635AAB0655F2DEA12185FAC963AC115BE30F93 SWAP2 PUSH2 0x95C SWAP2 SWAP1 DUP2 MSTORE PUSH1 0x20 ADD SWAP1 JUMP JUMPDEST PUSH1 0x40 MLOAD DUP1 SWAP2 SUB SWAP1 LOG1 JUMP JUMPDEST PUSH1 0xE SLOAD PUSH1 0xFF AND PUSH1 0x2 EQ PUSH2 0x9B2 JUMPI PUSH1 0x40 MLOAD PUSH3 0x461BCD PUSH1 0xE5 SHL DUP2 MSTORE PUSH1 0x20 PUSH1 0x4 DUP3 ADD MSTORE PUSH1 0x14 PUSH1 0x24 DUP3 ADD MSTORE PUSH20 0x139BC81B5BDC994818995D1CC8185B1B1BDDD959 PUSH1 0x62 SHL PUSH1 0x44 DUP3 ADD MSTORE PUSH1 0x64 ADD PUSH2 0x90E JUMP JUMPDEST PUSH1 0xC SLOAD PUSH1 0x1 PUSH1 0x1 PUSH1 0xA0 SHL SUB AND CALLER EQ PUSH2 0xA0C JUMPI PUSH1 0x40 MLOAD PUSH3 0x461BCD PUSH1 0xE5 SHL DUP2 MSTORE PUSH1 0x20 PUSH1 0x4 DUP3 ADD MSTORE PUSH1 0x1D PUSH1 0x24 DUP3 ADD MSTORE PUSH32 0x4F6E6C7920686F73742063616E2067656E657261746520726573756C74000000 PUSH1 0x44 DUP3 ADD MSTORE PUSH1 0x64 ADD PUSH2 0x90E JUMP JUMPDEST PUSH1 0x10 SLOAD PUSH2 0xA1B SWAP1 PUSH1 0xC SWAP1 PUSH2 0x30F1 JUMP JUMPDEST PUSH2 0xA26 SWAP1 PUSH1 0x1 PUSH2 0x30F1 JUMP JUMPDEST NUMBER LT ISZERO PUSH2 0xA75 JUMPI PUSH1 0x40 MLOAD PUSH3 0x461BCD PUSH1 0xE5 SHL DUP2 MSTORE PUSH1 0x20 PUSH1 0x4 DUP3 ADD MSTORE PUSH1 0x18 PUSH1 0x24 DUP3 ADD MSTORE PUSH32 0x426C6F636B206E756D626572206E6F7420726561636865640000000000000000 PUSH1 0x44 DUP3 ADD MSTORE PUSH1 0x64 ADD PUSH2 0x90E JUMP JUMPDEST PUSH0 PUSH1 0x10 SLOAD PUSH1 0x1 PUSH2 0xA85 SWAP2 SWAP1 PUSH2 0x30F1 JUMP JUMPDEST PUSH1 0xC SLOAD PUSH1 0x40 MLOAD PUSH1 0x60 SWAP2 SWAP1 SWAP2 SHL PUSH1 0x1 PUSH1 0x1 PUSH1 0x60 SHL SUB NOT AND PUSH1 0x20 DUP3 ADD MSTORE SWAP1 BLOCKHASH SWAP2 POP PUSH0 SWAP1 PUSH1 0x34 ADD PUSH1 0x40 MLOAD PUSH1 0x20 DUP2 DUP4 SUB SUB DUP2 MSTORE SWAP1 PUSH1 0x40 MSTORE SWAP1 POP PUSH0 JUMPDEST PUSH1 0xF SLOAD DUP2 LT ISZERO PUSH2 0xB1F JUMPI DUP2 PUSH1 0xF DUP3 DUP2 SLOAD DUP2 LT PUSH2 0xADA JUMPI PUSH2 0xADA PUSH2 0x30AB JUMP JUMPDEST PUSH0 SWAP2 DUP3 MSTORE PUSH1 0x20 SWAP2 DUP3 SWAP1 KECCAK256 PUSH1 0x2 SWAP1 SWAP2 MUL ADD SLOAD PUSH1 0x40 MLOAD PUSH2 0xB05 SWAP4 SWAP3 PUSH1 0x1 PUSH1 0x1 PUSH1 0xA0 SHL SUB SWAP1 SWAP3 AND SWAP2 ADD PUSH2 0x3121 JUMP JUMPDEST PUSH1 0x40 DUP1 MLOAD PUSH1 0x1F NOT DUP2 DUP5 SUB ADD DUP2 MSTORE SWAP2 SWAP1 MSTORE SWAP2 POP PUSH1 0x1 ADD PUSH2 0xABC JUMP JUMPDEST POP PUSH0 DUP3 DUP3 PUSH1 0x40 MLOAD PUSH1 0x20 ADD PUSH2 0xB34 SWAP3 SWAP2 SWAP1 PUSH2 0x3148 JUMP JUMPDEST PUSH1 0x40 DUP1 MLOAD PUSH1 0x1F NOT DUP2 DUP5 SUB ADD DUP2 MSTORE SWAP2 SWAP1 MSTORE DUP1 MLOAD PUSH1 0x20 SWAP1 SWAP2 ADD KECCAK256 SWAP1 POP DUP1 PUSH2 0xB5A PUSH1 0x26 DUP3 PUSH2 0x3175 JUMP JUMPDEST PUSH1 0x11 DUP1 SLOAD PUSH1 0xFF SWAP3 SWAP1 SWAP3 AND PUSH1 0xFF NOT SWAP3 DUP4 AND DUP2 OR SWAP1 SWAP2 SSTORE PUSH1 0xE DUP1 SLOAD SWAP1 SWAP3 AND PUSH1 0x3 OR SWAP1 SWAP2 SSTORE PUSH1 0x40 MLOAD SWAP1 DUP2 MSTORE PUSH32 0x4898F0A86E5D5B202A6285B46DB8E265F964E837829F7D6BF7D1C072C6B88C09 SWAP1 PUSH1 0x20 ADD PUSH1 0x40 MLOAD DUP1 SWAP2 SUB SWAP1 LOG1 POP POP POP POP JUMP JUMPDEST PUSH1 0xB DUP2 PUSH1 0xC DUP2 LT PUSH2 0x89D JUMPI PUSH0 DUP1 REVERT JUMPDEST PUSH1 0xF DUP2 DUP2 SLOAD DUP2 LT PUSH2 0xBD3 JUMPI PUSH0 DUP1 REVERT JUMPDEST PUSH0 SWAP2 DUP3 MSTORE PUSH1 0x20 SWAP1 SWAP2 KECCAK256 PUSH1 0x2 SWAP1 SWAP2 MUL ADD DUP1 SLOAD PUSH1 0x1 SWAP1 SWAP2 ADD SLOAD PUSH1 0x1 PUSH1 0x1 PUSH1 0xA0 SHL SUB DUP3 AND SWAP3 POP PUSH1 0x1 PUSH1 0xA0 SHL SWAP1 SWAP2 DIV PUSH1 0xFF AND SWAP1 DUP4 JUMP JUMPDEST PUSH1 0x2 DUP2 PUSH1 0x12 DUP2 LT PUSH2 0x89D JUMPI PUSH0 DUP1 REVERT JUMPDEST PUSH0 DUP1 JUMPDEST PUSH1 0xC DUP2 PUSH1 0xFF AND LT ISZERO PUSH2 0x886 JUMPI DUP3 PUSH1 0xFF AND PUSH1 0xA DUP3 PUSH1 0xFF AND PUSH1 0xC DUP2 LT PUSH2 0xC3D JUMPI PUSH2 0xC3D PUSH2 0x30AB JUMP JUMPDEST PUSH1 0x20 DUP2 DIV SWAP1 SWAP2 ADD SLOAD PUSH1 0xFF PUSH1 0x1F SWAP1 SWAP3 AND PUSH2 0x100 EXP SWAP1 DIV AND SUB PUSH2 0xC61 JUMPI POP PUSH1 0x1 SWAP3 SWAP2 POP POP JUMP JUMPDEST DUP1 PUSH2 0xC6B DUP2 PUSH2 0x30D3 JUMP JUMPDEST SWAP2 POP POP PUSH2 0xC17 JUMP JUMPDEST PUSH0 DUP1 JUMPDEST PUSH1 0x12 DUP2 PUSH1 0xFF AND LT ISZERO PUSH2 0x886 JUMPI DUP3 PUSH1 0xFF AND PUSH1 0x4 DUP3 PUSH1 0xFF AND PUSH1 0x12 DUP2 LT PUSH2 0xC9C JUMPI PUSH2 0xC9C PUSH2 0x30AB JUMP JUMPDEST PUSH1 0x20 DUP2 DIV SWAP1 SWAP2 ADD SLOAD PUSH1 0xFF PUSH1 0x1F SWAP1 SWAP3 AND PUSH2 0x100 EXP SWAP1 DIV AND SUB PUSH2 0xCC0 JUMPI POP PUSH1 0x1 SWAP3 SWAP2 POP POP JUMP JUMPDEST DUP1 PUSH2 0xCCA DUP2 PUSH2 0x30D3 JUMP JUMPDEST SWAP2 POP POP PUSH2 0xC76 JUMP JUMPDEST PUSH1 0xA DUP2 PUSH1 0xC DUP2 LT PUSH2 0x89D JUMPI PUSH0 DUP1 REVERT JUMPDEST PUSH1 0x12 DUP2 DUP2 SLOAD DUP2 LT PUSH2 0xCF0 JUMPI PUSH0 DUP1 REVERT JUMPDEST PUSH0 SWAP2 DUP3 MSTORE PUSH1 0x20 SWAP1 SWAP2 KECCAK256 ADD SLOAD PUSH1 0x1 PUSH1 0x1 PUSH1 0xA0 SHL SUB AND SWAP1 POP DUP2 JUMP JUMPDEST PUSH1 0xE SLOAD PUSH1 0xFF AND PUSH1 0x3 EQ PUSH2 0xD55 JUMPI PUSH1 0x40 MLOAD PUSH3 0x461BCD PUSH1 0xE5 SHL DUP2 MSTORE PUSH1 0x20 PUSH1 0x4 DUP3 ADD MSTORE PUSH1 0x14 PUSH1 0x24 DUP3 ADD MSTORE PUSH20 0x14995CDD5B1D081B9BDD0819D95B995C985D1959 PUSH1 0x62 SHL PUSH1 0x44 DUP3 ADD MSTORE PUSH1 0x64 ADD PUSH2 0x90E JUMP JUMPDEST PUSH1 0x10 SLOAD PUSH2 0xD64 SWAP1 PUSH1 0xC SWAP1 PUSH2 0x30F1 JUMP JUMPDEST PUSH2 0xD6F SWAP1 PUSH1 0x1 PUSH2 0x30F1 JUMP JUMPDEST NUMBER LT ISZERO PUSH2 0xDCF JUMPI PUSH1 0x40 MLOAD PUSH3 0x461BCD PUSH1 0xE5 SHL DUP2 MSTORE PUSH1 0x20 PUSH1 0x4 DUP3 ADD MSTORE PUSH1 0x28 PUSH1 0x24 DUP3 ADD MSTORE PUSH32 0x57616974206174206C6561737420313220626C6F636B73206166746572206765 PUSH1 0x44 DUP3 ADD MSTORE PUSH8 0x3732B930BA34B7B7 PUSH1 0xC1 SHL PUSH1 0x64 DUP3 ADD MSTORE PUSH1 0x84 ADD PUSH2 0x90E JUMP JUMPDEST PUSH2 0xDD8 CALLER PUSH2 0x287E JUMP JUMPDEST PUSH2 0xE24 JUMPI PUSH1 0x40 MLOAD PUSH3 0x461BCD PUSH1 0xE5 SHL DUP2 MSTORE PUSH1 0x20 PUSH1 0x4 DUP3 ADD MSTORE PUSH1 0x1D PUSH1 0x24 DUP3 ADD MSTORE PUSH32 0x4F6E6C7920612076616C696461746F722063616E2076616C6964617465000000 PUSH1 0x44 DUP3 ADD MSTORE PUSH1 0x64 ADD PUSH2 0x90E JUMP JUMPDEST PUSH0 PUSH1 0x10 SLOAD PUSH1 0x1 PUSH2 0xE34 SWAP2 SWAP1 PUSH2 0x30F1 JUMP JUMPDEST SWAP1 POP DUP1 BLOCKHASH PUSH0 DUP1 MLOAD PUSH1 0x20 PUSH2 0x348F DUP4 CODECOPY DUP2 MLOAD SWAP2 MSTORE PUSH1 0x1 PUSH2 0xE51 DUP5 PUSH2 0x28D2 JUMP JUMPDEST PUSH2 0xE5A DUP5 PUSH2 0x29DD JUMP JUMPDEST PUSH1 0x40 MLOAD PUSH1 0x20 ADD PUSH2 0xE6B SWAP3 SWAP2 SWAP1 PUSH2 0x3188 JUMP JUMPDEST PUSH1 0x40 DUP1 MLOAD PUSH1 0x1F NOT DUP2 DUP5 SUB ADD DUP2 MSTORE DUP3 DUP3 MSTORE PUSH1 0x20 DUP4 ADD DUP8 SWAP1 MSTORE SWAP1 DUP3 ADD DUP6 SWAP1 MSTORE SWAP1 PUSH1 0x60 ADD PUSH1 0x40 DUP1 MLOAD PUSH1 0x1F NOT DUP2 DUP5 SUB ADD DUP2 MSTORE SWAP1 DUP3 SWAP1 MSTORE PUSH2 0xEA8 SWAP4 SWAP3 SWAP2 PUSH2 0x3224 JUMP JUMPDEST PUSH1 0x40 MLOAD DUP1 SWAP2 SUB SWAP1 LOG1 PUSH1 0xF SLOAD PUSH0 SWAP1 PUSH2 0xEC0 SWAP1 PUSH1 0x1 PUSH2 0x30F1 JUMP JUMPDEST PUSH8 0xFFFFFFFFFFFFFFFF DUP2 GT ISZERO PUSH2 0xED8 JUMPI PUSH2 0xED8 PUSH2 0x325B JUMP JUMPDEST PUSH1 0x40 MLOAD SWAP1 DUP1 DUP3 MSTORE DUP1 PUSH1 0x20 MUL PUSH1 0x20 ADD DUP3 ADD PUSH1 0x40 MSTORE DUP1 ISZERO PUSH2 0xF01 JUMPI DUP2 PUSH1 0x20 ADD PUSH1 0x20 DUP3 MUL DUP1 CALLDATASIZE DUP4 CALLDATACOPY ADD SWAP1 POP JUMPDEST POP PUSH1 0xC SLOAD DUP2 MLOAD SWAP2 SWAP3 POP PUSH1 0x1 PUSH1 0x1 PUSH1 0xA0 SHL SUB AND SWAP1 DUP3 SWAP1 PUSH0 SWAP1 PUSH2 0xF24 JUMPI PUSH2 0xF24 PUSH2 0x30AB JUMP JUMPDEST PUSH1 0x20 MUL PUSH1 0x20 ADD ADD SWAP1 PUSH1 0x1 PUSH1 0x1 PUSH1 0xA0 SHL SUB AND SWAP1 DUP2 PUSH1 0x1 PUSH1 0x1 PUSH1 0xA0 SHL SUB AND DUP2 MSTORE POP POP PUSH0 JUMPDEST PUSH1 0xF SLOAD DUP2 LT ISZERO PUSH2 0xFB8 JUMPI PUSH1 0xF DUP2 DUP2 SLOAD DUP2 LT PUSH2 0xF63 JUMPI PUSH2 0xF63 PUSH2 0x30AB JUMP JUMPDEST PUSH0 SWAP2 DUP3 MSTORE PUSH1 0x20 SWAP1 SWAP2 KECCAK256 PUSH1 0x2 SWAP1 SWAP2 MUL ADD SLOAD PUSH1 0x1 PUSH1 0x1 PUSH1 0xA0 SHL SUB AND DUP3 PUSH2 0xF88 DUP4 PUSH1 0x1 PUSH2 0x30F1 JUMP JUMPDEST DUP2 MLOAD DUP2 LT PUSH2 0xF98 JUMPI PUSH2 0xF98 PUSH2 0x30AB JUMP JUMPDEST PUSH1 0x1 PUSH1 0x1 PUSH1 0xA0 SHL SUB SWAP1 SWAP3 AND PUSH1 0x20 SWAP3 DUP4 MUL SWAP2 SWAP1 SWAP2 ADD SWAP1 SWAP2 ADD MSTORE PUSH1 0x1 ADD PUSH2 0xF46 JUMP JUMPDEST POP PUSH0 PUSH2 0xFC3 DUP3 PUSH2 0x2B99 JUMP JUMPDEST PUSH1 0xC SLOAD PUSH1 0x40 MLOAD PUSH1 0x60 SWAP2 SWAP1 SWAP2 SHL PUSH1 0x1 PUSH1 0x1 PUSH1 0x60 SHL SUB NOT AND PUSH1 0x20 DUP3 ADD MSTORE SWAP1 SWAP2 POP PUSH0 SWAP1 PUSH1 0x34 ADD PUSH1 0x40 MLOAD PUSH1 0x20 DUP2 DUP4 SUB SUB DUP2 MSTORE SWAP1 PUSH1 0x40 MSTORE SWAP1 POP PUSH0 JUMPDEST PUSH1 0xF SLOAD DUP2 LT ISZERO PUSH2 0x105C JUMPI DUP2 PUSH1 0xF DUP3 DUP2 SLOAD DUP2 LT PUSH2 0x1017 JUMPI PUSH2 0x1017 PUSH2 0x30AB JUMP JUMPDEST PUSH0 SWAP2 DUP3 MSTORE PUSH1 0x20 SWAP2 DUP3 SWAP1 KECCAK256 PUSH1 0x2 SWAP1 SWAP2 MUL ADD SLOAD PUSH1 0x40 MLOAD PUSH2 0x1042 SWAP4 SWAP3 PUSH1 0x1 PUSH1 0x1 PUSH1 0xA0 SHL SUB SWAP1 SWAP3 AND SWAP2 ADD PUSH2 0x3121 JUMP JUMPDEST PUSH1 0x40 DUP1 MLOAD PUSH1 0x1F NOT DUP2 DUP5 SUB ADD DUP2 MSTORE SWAP2 SWAP1 MSTORE SWAP2 POP PUSH1 0x1 ADD PUSH2 0xFF9 JUMP JUMPDEST POP PUSH0 DUP1 MLOAD PUSH1 0x20 PUSH2 0x348F DUP4 CODECOPY DUP2 MLOAD SWAP2 MSTORE PUSH1 0x2 DUP4 PUSH1 0x40 MLOAD PUSH1 0x20 ADD PUSH2 0x107E SWAP2 SWAP1 PUSH2 0x326F JUMP JUMPDEST PUSH1 0x40 MLOAD PUSH1 0x20 DUP2 DUP4 SUB SUB DUP2 MSTORE SWAP1 PUSH1 0x40 MSTORE DUP6 PUSH1 0x40 MLOAD PUSH1 0x20 ADD PUSH2 0x109E SWAP2 SWAP1 PUSH2 0x32A0 JUMP JUMPDEST PUSH1 0x40 DUP1 MLOAD PUSH1 0x1F NOT DUP2 DUP5 SUB ADD DUP2 MSTORE SWAP1 DUP3 SWAP1 MSTORE PUSH2 0x10BA SWAP4 SWAP3 SWAP2 PUSH2 0x3224 JUMP JUMPDEST PUSH1 0x40 MLOAD DUP1 SWAP2 SUB SWAP1 LOG1 PUSH0 DUP1 MLOAD PUSH1 0x20 PUSH2 0x348F DUP4 CODECOPY DUP2 MLOAD SWAP2 MSTORE PUSH1 0x3 PUSH2 0x10DB DUP4 PUSH2 0x2C92 JUMP JUMPDEST PUSH1 0x40 MLOAD PUSH1 0x20 ADD PUSH2 0x10EB SWAP2 SWAP1 PUSH2 0x32EB JUMP JUMPDEST PUSH1 0x40 DUP1 MLOAD PUSH1 0x1F NOT DUP2 DUP5 SUB ADD DUP2 MSTORE SWAP1 DUP3 SWAP1 MSTORE PUSH2 0x1108 SWAP3 SWAP2 DUP6 SWAP1 PUSH2 0x3224 JUMP JUMPDEST PUSH1 0x40 MLOAD DUP1 SWAP2 SUB SWAP1 LOG1 PUSH0 DUP5 DUP3 PUSH1 0x40 MLOAD PUSH1 0x20 ADD PUSH2 0x1124 SWAP3 SWAP2 SWAP1 PUSH2 0x3148 JUMP JUMPDEST PUSH1 0x40 MLOAD PUSH1 0x20 DUP2 DUP4 SUB SUB DUP2 MSTORE SWAP1 PUSH1 0x40 MSTORE DUP1 MLOAD SWAP1 PUSH1 0x20 ADD KECCAK256 SWAP1 POP PUSH0 DUP1 MLOAD PUSH1 0x20 PUSH2 0x348F DUP4 CODECOPY DUP2 MLOAD SWAP2 MSTORE PUSH1 0x4 PUSH2 0x1155 DUP4 PUSH2 0x29DD JUMP JUMPDEST PUSH1 0x40 MLOAD PUSH1 0x20 ADD PUSH2 0x1165 SWAP2 SWAP1 PUSH2 0x3326 JUMP JUMPDEST PUSH1 0x40 DUP1 MLOAD PUSH1 0x1F NOT DUP2 DUP5 SUB ADD DUP2 MSTORE DUP3 DUP3 MSTORE PUSH1 0x20 DUP4 ADD DUP7 SWAP1 MSTORE SWAP2 ADD PUSH1 0x40 DUP1 MLOAD PUSH1 0x1F NOT DUP2 DUP5 SUB ADD DUP2 MSTORE SWAP1 DUP3 SWAP1 MSTORE PUSH2 0x119A SWAP4 SWAP3 SWAP2 PUSH2 0x3224 JUMP JUMPDEST PUSH1 0x40 MLOAD DUP1 SWAP2 SUB SWAP1 LOG1 DUP1 PUSH0 PUSH2 0x11AF PUSH1 0x26 DUP4 PUSH2 0x3175 JUMP JUMPDEST SWAP1 POP PUSH0 DUP1 MLOAD PUSH1 0x20 PUSH2 0x348F DUP4 CODECOPY DUP2 MLOAD SWAP2 MSTORE PUSH1 0x5 PUSH2 0x11CB PUSH1 0x26 PUSH2 0x28D2 JUMP JUMPDEST PUSH2 0x11D7 DUP5 PUSH1 0xFF AND PUSH2 0x28D2 JUMP JUMPDEST PUSH1 0x40 MLOAD PUSH1 0x20 ADD PUSH2 0x11E8 SWAP3 SWAP2 SWAP1 PUSH2 0x3367 JUMP JUMPDEST PUSH1 0x40 DUP1 MLOAD PUSH1 0x1F NOT DUP2 DUP5 SUB ADD DUP2 MSTORE DUP3 DUP3 MSTORE PUSH1 0xFF DUP7 AND PUSH1 0x20 DUP5 ADD MSTORE SWAP2 ADD PUSH1 0x40 DUP1 MLOAD PUSH1 0x1F NOT DUP2 DUP5 SUB ADD DUP2 MSTORE SWAP1 DUP3 SWAP1 MSTORE PUSH2 0x121F SWAP4 SWAP3 SWAP2 PUSH2 0x3224 JUMP JUMPDEST PUSH1 0x40 MLOAD DUP1 SWAP2 SUB SWAP1 LOG1 PUSH1 0x11 SLOAD PUSH1 0xFF DUP3 DUP2 AND SWAP2 AND EQ PUSH2 0x1575 JUMPI CALLER PUSH0 SWAP1 DUP2 MSTORE PUSH1 0x16 PUSH1 0x20 MSTORE PUSH1 0x40 SWAP1 KECCAK256 SLOAD PUSH1 0xFF AND ISZERO PUSH2 0x129F JUMPI PUSH1 0x40 MLOAD PUSH3 0x461BCD PUSH1 0xE5 SHL DUP2 MSTORE PUSH1 0x20 PUSH1 0x4 DUP3 ADD MSTORE PUSH1 0x21 PUSH1 0x24 DUP3 ADD MSTORE PUSH32 0x56616C696461746F7220616C7265616479207369676E6564206D69736D617463 PUSH1 0x44 DUP3 ADD MSTORE PUSH1 0xD PUSH1 0xFB SHL PUSH1 0x64 DUP3 ADD MSTORE PUSH1 0x84 ADD PUSH2 0x90E JUMP JUMPDEST PUSH1 0x14 DUP1 SLOAD PUSH1 0x1 DUP1 DUP3 ADD SWAP1 SWAP3 SSTORE PUSH32 0xCE6D7B5282BD9A3661AE061FEED1DBDA4E52AB073B1F9285BE6E155D9C38D4EC ADD DUP1 SLOAD PUSH1 0x1 PUSH1 0x1 PUSH1 0xA0 SHL SUB NOT AND CALLER SWAP1 DUP2 OR SWAP1 SWAP2 SSTORE PUSH0 SWAP1 DUP2 MSTORE PUSH1 0x16 PUSH1 0x20 SWAP1 DUP2 MSTORE PUSH1 0x40 SWAP2 DUP3 SWAP1 KECCAK256 DUP1 SLOAD PUSH1 0xFF NOT AND SWAP1 SWAP4 OR SWAP1 SWAP3 SSTORE PUSH1 0x11 SLOAD DUP2 MLOAD PUSH1 0xFF DUP6 DUP2 AND DUP3 MSTORE SWAP1 SWAP2 AND SWAP3 DUP2 ADD SWAP3 SWAP1 SWAP3 MSTORE PUSH32 0x4BA207CAEDDFEFDADCCB23FBBF2401BC61A191BB9F71680B9C0CD8F84901186A SWAP2 ADD PUSH1 0x40 MLOAD DUP1 SWAP2 SUB SWAP1 LOG1 PUSH1 0x11 SLOAD PUSH1 0x14 SLOAD PUSH2 0x100 SWAP1 SWAP2 DIV PUSH1 0xFF AND GT PUSH2 0x1570 JUMPI PUSH0 JUMPDEST PUSH1 0xF SLOAD DUP2 LT ISZERO PUSH2 0x14BC JUMPI PUSH0 PUSH1 0xF DUP3 DUP2 SLOAD DUP2 LT PUSH2 0x1372 JUMPI PUSH2 0x1372 PUSH2 0x30AB JUMP JUMPDEST PUSH0 SWAP2 DUP3 MSTORE PUSH1 0x20 DUP1 DUP4 KECCAK256 PUSH1 0x40 DUP1 MLOAD PUSH1 0x60 DUP2 ADD DUP3 MSTORE PUSH1 0x2 SWAP5 SWAP1 SWAP5 MUL SWAP1 SWAP2 ADD DUP1 SLOAD PUSH1 0x1 PUSH1 0x1 PUSH1 0xA0 SHL SUB DUP2 AND DUP1 DUP7 MSTORE PUSH1 0x1 PUSH1 0xA0 SHL SWAP1 SWAP2 DIV PUSH1 0xFF AND SWAP4 DUP6 ADD SWAP4 SWAP1 SWAP4 MSTORE PUSH1 0x1 ADD SLOAD DUP4 DUP3 ADD DUP2 SWAP1 MSTORE SWAP1 MLOAD SWAP3 SWAP5 POP SWAP1 SWAP2 PUSH0 PUSH1 0x40 MLOAD DUP1 DUP4 SUB DUP2 DUP6 DUP8 GAS CALL SWAP3 POP POP POP RETURNDATASIZE DUP1 PUSH0 DUP2 EQ PUSH2 0x13FA JUMPI PUSH1 0x40 MLOAD SWAP2 POP PUSH1 0x1F NOT PUSH1 0x3F RETURNDATASIZE ADD AND DUP3 ADD PUSH1 0x40 MSTORE RETURNDATASIZE DUP3 MSTORE RETURNDATASIZE PUSH0 PUSH1 0x20 DUP5 ADD RETURNDATACOPY PUSH2 0x13FF JUMP JUMPDEST PUSH1 0x60 SWAP2 POP JUMPDEST POP POP DUP3 MLOAD PUSH1 0x40 DUP1 DUP6 ADD MLOAD DUP2 MLOAD DUP3 DUP2 MSTORE PUSH1 0x6 SWAP3 DUP2 ADD SWAP3 SWAP1 SWAP3 MSTORE PUSH6 0x1499599D5B99 PUSH1 0xD2 SHL PUSH1 0x60 DUP4 ADD MSTORE PUSH1 0x20 DUP3 ADD MSTORE SWAP2 SWAP3 POP PUSH1 0x1 PUSH1 0x1 PUSH1 0xA0 SHL SUB AND SWAP1 PUSH32 0xADD681B72722E953FA4E18F6819D1CB78D0EC24CE1EE69A6C7EBDC6F29AC10D8 SWAP1 PUSH1 0x80 ADD PUSH1 0x40 MLOAD DUP1 SWAP2 SUB SWAP1 LOG2 DUP1 PUSH2 0x14B2 JUMPI PUSH1 0x40 MLOAD PUSH3 0x461BCD PUSH1 0xE5 SHL DUP2 MSTORE PUSH1 0x20 PUSH1 0x4 DUP3 ADD MSTORE PUSH1 0x18 PUSH1 0x24 DUP3 ADD MSTORE PUSH32 0x526566756E6420746F2067616D626C6572206661696C65640000000000000000 PUSH1 0x44 DUP3 ADD MSTORE PUSH1 0x64 ADD PUSH2 0x90E JUMP JUMPDEST POP POP PUSH1 0x1 ADD PUSH2 0x1354 JUMP JUMPDEST POP PUSH1 0xC SLOAD PUSH1 0x40 DUP1 MLOAD DUP2 DUP2 MSTORE PUSH1 0xE DUP2 DUP4 ADD MSTORE PUSH14 0x1499599D5B99081D1BC81A1BDCDD PUSH1 0x92 SHL PUSH1 0x60 DUP3 ADD MSTORE SELFBALANCE PUSH1 0x20 DUP3 ADD MSTORE SWAP1 MLOAD PUSH1 0x1 PUSH1 0x1 PUSH1 0xA0 SHL SUB SWAP1 SWAP3 AND SWAP2 PUSH32 0xADD681B72722E953FA4E18F6819D1CB78D0EC24CE1EE69A6C7EBDC6F29AC10D8 SWAP2 DUP2 SWAP1 SUB PUSH1 0x80 ADD SWAP1 LOG2 PUSH1 0xC SLOAD PUSH1 0x40 MLOAD PUSH1 0x1 PUSH1 0x1 PUSH1 0xA0 SHL SUB SWAP1 SWAP2 AND SWAP1 SELFBALANCE DUP1 ISZERO PUSH2 0x8FC MUL SWAP2 PUSH0 DUP2 DUP2 DUP2 DUP6 DUP9 DUP9 CALL SWAP4 POP POP POP POP ISZERO DUP1 ISZERO PUSH2 0x1558 JUMPI RETURNDATASIZE PUSH0 DUP1 RETURNDATACOPY RETURNDATASIZE PUSH0 REVERT JUMPDEST POP POP PUSH1 0xE DUP1 SLOAD PUSH1 0xFF NOT AND PUSH1 0x5 OR SWAP1 SSTORE POP POP POP POP POP POP POP JUMP JUMPDEST PUSH2 0x16F2 JUMP JUMPDEST CALLER PUSH0 SWAP1 DUP2 MSTORE PUSH1 0x15 PUSH1 0x20 MSTORE PUSH1 0x40 SWAP1 KECCAK256 SLOAD PUSH1 0xFF AND ISZERO PUSH2 0x15D4 JUMPI PUSH1 0x40 MLOAD PUSH3 0x461BCD PUSH1 0xE5 SHL DUP2 MSTORE PUSH1 0x20 PUSH1 0x4 DUP3 ADD DUP2 SWAP1 MSTORE PUSH1 0x24 DUP3 ADD MSTORE PUSH32 0x56616C696461746F7220616C7265616479207369676E6564206D617463686564 PUSH1 0x44 DUP3 ADD MSTORE PUSH1 0x64 ADD PUSH2 0x90E JUMP JUMPDEST PUSH1 0x11 SLOAD PUSH1 0xFF DUP3 DUP2 AND SWAP2 AND EQ PUSH2 0x1636 JUMPI PUSH1 0x40 MLOAD PUSH3 0x461BCD PUSH1 0xE5 SHL DUP2 MSTORE PUSH1 0x20 PUSH1 0x4 DUP3 ADD MSTORE PUSH1 0x22 PUSH1 0x24 DUP3 ADD MSTORE PUSH32 0x53746F72656420726573756C7420213D207265636F6D70757465642072657375 PUSH1 0x44 DUP3 ADD MSTORE PUSH2 0x1B1D PUSH1 0xF2 SHL PUSH1 0x64 DUP3 ADD MSTORE PUSH1 0x84 ADD PUSH2 0x90E JUMP JUMPDEST PUSH1 0x13 DUP1 SLOAD PUSH1 0x1 DUP2 DUP2 ADD DUP4 SSTORE PUSH32 0x66DE8FFDA797E3DE9C05E8FC57B3BF0EC28A930D40B0D285D93C06501CF6A090 SWAP1 SWAP2 ADD DUP1 SLOAD PUSH1 0x1 PUSH1 0x1 PUSH1 0xA0 SHL SUB NOT AND CALLER SWAP1 DUP2 OR SWAP1 SWAP2 SSTORE PUSH0 SWAP1 DUP2 MSTORE PUSH1 0x15 PUSH1 0x20 MSTORE PUSH1 0x40 SWAP1 KECCAK256 DUP1 SLOAD PUSH1 0xFF NOT AND SWAP1 SWAP2 OR SWAP1 SSTORE PUSH1 0x11 SLOAD SWAP1 SLOAD PUSH2 0x100 SWAP1 SWAP2 DIV PUSH1 0xFF AND GT PUSH2 0x16F2 JUMPI PUSH1 0x11 SLOAD PUSH1 0x40 MLOAD PUSH1 0xFF SWAP1 SWAP2 AND DUP2 MSTORE PUSH32 0x5F438D100D0C0FB18E88113110BF411FD18C9A557C03E394CD32997B5055F9AE SWAP1 PUSH1 0x20 ADD PUSH1 0x40 MLOAD DUP1 SWAP2 SUB SWAP1 LOG1 PUSH1 0xE DUP1 SLOAD PUSH1 0xFF NOT AND PUSH1 0x4 OR SWAP1 SSTORE PUSH2 0x16F2 PUSH2 0x1A4E JUMP JUMPDEST POP POP POP POP POP POP POP POP JUMP JUMPDEST PUSH1 0x31 DUP2 PUSH1 0xFF AND GT ISZERO PUSH2 0x1750 JUMPI PUSH1 0x40 MLOAD PUSH3 0x461BCD PUSH1 0xE5 SHL DUP2 MSTORE PUSH1 0x20 PUSH1 0x4 DUP3 ADD MSTORE PUSH1 0x1F PUSH1 0x24 DUP3 ADD MSTORE PUSH32 0x4F7074696F6E206D757374206265206265747765656E203020616E6420333700 PUSH1 0x44 DUP3 ADD MSTORE PUSH1 0x64 ADD PUSH2 0x90E JUMP JUMPDEST PUSH1 0xD SLOAD CALLVALUE LT ISZERO PUSH2 0x17AE JUMPI PUSH1 0x40 MLOAD PUSH3 0x461BCD PUSH1 0xE5 SHL DUP2 MSTORE PUSH1 0x20 PUSH1 0x4 DUP3 ADD MSTORE PUSH1 0x23 PUSH1 0x24 DUP3 ADD MSTORE PUSH32 0x42657420616D6F756E742069732062656C6F7720746865206D696E696D756D20 PUSH1 0x44 DUP3 ADD MSTORE PUSH3 0x18995D PUSH1 0xEA SHL PUSH1 0x64 DUP3 ADD MSTORE PUSH1 0x84 ADD PUSH2 0x90E JUMP JUMPDEST PUSH1 0xA PUSH2 0x17BC PUSH2 0x168 SELFBALANCE PUSH2 0x33B7 JUMP JUMPDEST PUSH2 0x17C6 SWAP2 SWAP1 PUSH2 0x33CE JUMP JUMPDEST CALLVALUE LT PUSH2 0x1820 JUMPI PUSH1 0x40 MLOAD PUSH3 0x461BCD PUSH1 0xE5 SHL DUP2 MSTORE PUSH1 0x20 PUSH1 0x4 DUP3 ADD MSTORE PUSH1 0x23 PUSH1 0x24 DUP3 ADD MSTORE PUSH32 0x42657420616D6F756E742069732061626F766520746865206D6178696D756D20 PUSH1 0x44 DUP3 ADD MSTORE PUSH3 0x18995D PUSH1 0xEA SHL PUSH1 0x64 DUP3 ADD MSTORE PUSH1 0x84 ADD PUSH2 0x90E JUMP JUMPDEST PUSH1 0x40 DUP1 MLOAD PUSH1 0x60 DUP2 ADD DUP3 MSTORE CALLER DUP1 DUP3 MSTORE PUSH1 0xFF DUP5 DUP2 AND PUSH1 0x20 DUP1 DUP6 ADD DUP3 DUP2 MSTORE CALLVALUE DUP7 DUP9 ADD DUP2 DUP2 MSTORE PUSH1 0xF DUP1 SLOAD PUSH1 0x1 DUP2 ADD DUP3 SSTORE PUSH0 SWAP2 SWAP1 SWAP2 MSTORE SWAP8 MLOAD PUSH1 0x2 SWAP1 SWAP9 MUL PUSH32 0x8D1108E10BCB7C27DDDFC02ED9D693A074039D026CF4EA4240B40F7D581AC802 DUP2 ADD DUP1 SLOAD SWAP5 MLOAD SWAP1 SWAP8 AND PUSH1 0x1 PUSH1 0xA0 SHL MUL PUSH1 0x1 PUSH1 0x1 PUSH1 0xA8 SHL SUB NOT SWAP1 SWAP5 AND PUSH1 0x1 PUSH1 0x1 PUSH1 0xA0 SHL SUB SWAP1 SWAP10 AND SWAP9 SWAP1 SWAP9 OR SWAP3 SWAP1 SWAP3 OR SWAP1 SWAP5 SSTORE MLOAD PUSH32 0x8D1108E10BCB7C27DDDFC02ED9D693A074039D026CF4EA4240B40F7D581AC803 SWAP1 SWAP6 ADD SWAP5 SWAP1 SWAP5 SSTORE DUP5 MLOAD SWAP1 DUP2 MSTORE SWAP3 DUP4 ADD MSTORE SWAP2 PUSH32 0x9F6B4CCED64244A64465098F682029975B1614400B96BC6BD12C668083719166 SWAP2 ADD PUSH1 0x40 MLOAD DUP1 SWAP2 SUB SWAP1 LOG2 PUSH2 0x1910 PUSH2 0x8C6 JUMP JUMPDEST POP JUMP JUMPDEST PUSH0 DUP1 JUMPDEST PUSH1 0x12 DUP2 PUSH1 0xFF AND LT ISZERO PUSH2 0x886 JUMPI DUP3 PUSH1 0xFF AND PUSH1 0x2 DUP3 PUSH1 0xFF AND PUSH1 0x12 DUP2 LT PUSH2 0x193C JUMPI PUSH2 0x193C PUSH2 0x30AB JUMP JUMPDEST PUSH1 0x20 DUP2 DIV SWAP1 SWAP2 ADD SLOAD PUSH1 0xFF PUSH1 0x1F SWAP1 SWAP3 AND PUSH2 0x100 EXP SWAP1 DIV AND SUB PUSH2 0x1960 JUMPI POP PUSH1 0x1 SWAP3 SWAP2 POP POP JUMP JUMPDEST DUP1 PUSH2 0x196A DUP2 PUSH2 0x30D3 JUMP JUMPDEST SWAP2 POP POP PUSH2 0x1916 JUMP JUMPDEST PUSH0 DUP1 JUMPDEST PUSH1 0xC DUP2 PUSH1 0xFF AND LT ISZERO PUSH2 0x886 JUMPI DUP3 PUSH1 0xFF AND PUSH1 0x9 DUP3 PUSH1 0xFF AND PUSH1 0xC DUP2 LT PUSH2 0x199B JUMPI PUSH2 0x199B PUSH2 0x30AB JUMP JUMPDEST PUSH1 0x20 DUP2 DIV SWAP1 SWAP2 ADD SLOAD PUSH1 0xFF PUSH1 0x1F SWAP1 SWAP3 AND PUSH2 0x100 EXP SWAP1 DIV AND SUB PUSH2 0x19BF JUMPI POP PUSH1 0x1 SWAP3 SWAP2 POP POP JUMP JUMPDEST DUP1 PUSH2 0x19C9 DUP2 PUSH2 0x30D3 JUMP JUMPDEST SWAP2 POP POP PUSH2 0x1975 JUMP JUMPDEST PUSH0 DUP1 JUMPDEST PUSH1 0x12 DUP2 PUSH1 0xFF AND LT ISZERO PUSH2 0x886 JUMPI DUP3 PUSH1 0xFF AND PUSH1 0x3 DUP3 PUSH1 0xFF AND PUSH1 0x12 DUP2 LT PUSH2 0x19FA JUMPI PUSH2 0x19FA PUSH2 0x30AB JUMP JUMPDEST PUSH1 0x20 DUP2 DIV SWAP1 SWAP2 ADD SLOAD PUSH1 0xFF PUSH1 0x1F SWAP1 SWAP3 AND PUSH2 0x100 EXP SWAP1 DIV AND SUB PUSH2 0x1A1E JUMPI POP PUSH1 0x1 SWAP3 SWAP2 POP POP JUMP JUMPDEST DUP1 PUSH2 0x1A28 DUP2 PUSH2 0x30D3 JUMP JUMPDEST SWAP2 POP POP PUSH2 0x19D4 JUMP JUMPDEST PUSH1 0x14 DUP2 DUP2 SLOAD DUP2 LT PUSH2 0xCF0 JUMPI PUSH0 DUP1 REVERT JUMPDEST PUSH1 0x13 DUP2 DUP2 SLOAD DUP2 LT PUSH2 0xCF0 JUMPI PUSH0 DUP1 REVERT JUMPDEST PUSH1 0xE SLOAD PUSH1 0xFF AND PUSH1 0x4 EQ PUSH2 0x1AA3 JUMPI PUSH1 0x40 MLOAD PUSH3 0x461BCD PUSH1 0xE5 SHL DUP2 MSTORE PUSH1 0x20 PUSH1 0x4 DUP3 ADD MSTORE PUSH1 0x18 PUSH1 0x24 DUP3 ADD MSTORE PUSH32 0x526573756C74206E6F742076616C696461746564207965740000000000000000 PUSH1 0x44 DUP3 ADD MSTORE PUSH1 0x64 ADD PUSH2 0x90E JUMP JUMPDEST PUSH0 JUMPDEST PUSH1 0xF SLOAD DUP2 LT ISZERO PUSH2 0x23E7 JUMPI PUSH0 PUSH1 0xF DUP3 DUP2 SLOAD DUP2 LT PUSH2 0x1AC3 JUMPI PUSH2 0x1AC3 PUSH2 0x30AB JUMP JUMPDEST PUSH0 SWAP2 DUP3 MSTORE PUSH1 0x20 SWAP1 SWAP2 KECCAK256 PUSH1 0x2 SWAP1 SWAP2 MUL ADD SLOAD PUSH1 0x1 PUSH1 0xA0 SHL SWAP1 DIV PUSH1 0xFF AND LT DUP1 ISZERO SWAP1 PUSH2 0x1B18 JUMPI POP PUSH1 0x25 PUSH1 0xF DUP3 DUP2 SLOAD DUP2 LT PUSH2 0x1AFB JUMPI PUSH2 0x1AFB PUSH2 0x30AB JUMP JUMPDEST PUSH0 SWAP2 DUP3 MSTORE PUSH1 0x20 SWAP1 SWAP2 KECCAK256 PUSH1 0x2 SWAP1 SWAP2 MUL ADD SLOAD PUSH1 0x1 PUSH1 0xA0 SHL SWAP1 DIV PUSH1 0xFF AND GT ISZERO JUMPDEST ISZERO PUSH2 0x1CC8 JUMPI PUSH1 0x11 SLOAD PUSH1 0xF DUP1 SLOAD PUSH1 0xFF SWAP1 SWAP3 AND SWAP2 DUP4 SWAP1 DUP2 LT PUSH2 0x1B3A JUMPI PUSH2 0x1B3A PUSH2 0x30AB JUMP JUMPDEST PUSH0 SWAP2 DUP3 MSTORE PUSH1 0x20 SWAP1 SWAP2 KECCAK256 PUSH1 0x2 SWAP1 SWAP2 MUL ADD SLOAD PUSH1 0x1 PUSH1 0xA0 SHL SWAP1 DIV PUSH1 0xFF AND SUB PUSH2 0x1CC3 JUMPI PUSH1 0xF DUP2 DUP2 SLOAD DUP2 LT PUSH2 0x1B6C JUMPI PUSH2 0x1B6C PUSH2 0x30AB JUMP JUMPDEST SWAP1 PUSH0 MSTORE PUSH1 0x20 PUSH0 KECCAK256 SWAP1 PUSH1 0x2 MUL ADD PUSH0 ADD PUSH0 SWAP1 SLOAD SWAP1 PUSH2 0x100 EXP SWAP1 DIV PUSH1 0x1 PUSH1 0x1 PUSH1 0xA0 SHL SUB AND PUSH1 0x1 PUSH1 0x1 PUSH1 0xA0 SHL SUB AND PUSH2 0x8FC PUSH1 0xA PUSH2 0x168 PUSH1 0xF DUP6 DUP2 SLOAD DUP2 LT PUSH2 0x1BB1 JUMPI PUSH2 0x1BB1 PUSH2 0x30AB JUMP JUMPDEST SWAP1 PUSH0 MSTORE PUSH1 0x20 PUSH0 KECCAK256 SWAP1 PUSH1 0x2 MUL ADD PUSH1 0x1 ADD SLOAD PUSH2 0x1BCB SWAP2 SWAP1 PUSH2 0x33B7 JUMP JUMPDEST PUSH2 0x1BD5 SWAP2 SWAP1 PUSH2 0x33CE JUMP JUMPDEST PUSH1 0x40 MLOAD DUP2 ISZERO SWAP1 SWAP3 MUL SWAP2 PUSH0 DUP2 DUP2 DUP2 DUP6 DUP9 DUP9 CALL SWAP4 POP POP POP POP ISZERO DUP1 ISZERO PUSH2 0x1BFA JUMPI RETURNDATASIZE PUSH0 DUP1 RETURNDATACOPY RETURNDATASIZE PUSH0 REVERT JUMPDEST POP PUSH1 0xF DUP2 DUP2 SLOAD DUP2 LT PUSH2 0x1C0E JUMPI PUSH2 0x1C0E PUSH2 0x30AB JUMP JUMPDEST PUSH0 SWAP2 DUP3 MSTORE PUSH1 0x20 SWAP1 SWAP2 KECCAK256 PUSH1 0x2 SWAP1 SWAP2 MUL ADD SLOAD PUSH1 0xF DUP1 SLOAD PUSH1 0x1 PUSH1 0x1 PUSH1 0xA0 SHL SUB SWAP1 SWAP3 AND SWAP2 PUSH0 DUP1 MLOAD PUSH1 0x20 PUSH2 0x346F DUP4 CODECOPY DUP2 MLOAD SWAP2 MSTORE SWAP2 SWAP1 DUP5 SWAP1 DUP2 LT PUSH2 0x1C4E JUMPI PUSH2 0x1C4E PUSH2 0x30AB JUMP JUMPDEST SWAP1 PUSH0 MSTORE PUSH1 0x20 PUSH0 KECCAK256 SWAP1 PUSH1 0x2 MUL ADD PUSH0 ADD PUSH1 0x14 SWAP1 SLOAD SWAP1 PUSH2 0x100 EXP SWAP1 DIV PUSH1 0xFF AND PUSH1 0xA PUSH2 0x168 PUSH1 0xF DUP7 DUP2 SLOAD DUP2 LT PUSH2 0x1C82 JUMPI PUSH2 0x1C82 PUSH2 0x30AB JUMP JUMPDEST SWAP1 PUSH0 MSTORE PUSH1 0x20 PUSH0 KECCAK256 SWAP1 PUSH1 0x2 MUL ADD PUSH1 0x1 ADD SLOAD PUSH2 0x1C9C SWAP2 SWAP1 PUSH2 0x33B7 JUMP JUMPDEST PUSH2 0x1CA6 SWAP2 SWAP1 PUSH2 0x33CE JUMP JUMPDEST PUSH1 0x40 DUP1 MLOAD PUSH1 0xFF SWAP1 SWAP4 AND DUP4 MSTORE PUSH1 0x20 DUP4 ADD SWAP2 SWAP1 SWAP2 MSTORE ADD PUSH1 0x40 MLOAD DUP1 SWAP2 SUB SWAP1 LOG2 JUMPDEST PUSH2 0x23E7 JUMP JUMPDEST PUSH1 0xF DUP2 DUP2 SLOAD DUP2 LT PUSH2 0x1CDB JUMPI PUSH2 0x1CDB PUSH2 0x30AB JUMP JUMPDEST PUSH0 SWAP2 DUP3 MSTORE PUSH1 0x20 SWAP1 SWAP2 KECCAK256 PUSH1 0x2 SWAP1 SWAP2 MUL ADD SLOAD PUSH1 0x1 PUSH1 0xA0 SHL SWAP1 DIV PUSH1 0xFF AND PUSH1 0x26 SUB PUSH2 0x1E37 JUMPI PUSH1 0x11 SLOAD PUSH2 0x1D0B SWAP1 PUSH1 0xFF AND PUSH2 0x24BF JUMP JUMPDEST ISZERO PUSH2 0x1CC3 JUMPI PUSH1 0xF DUP2 DUP2 SLOAD DUP2 LT PUSH2 0x1D23 JUMPI PUSH2 0x1D23 PUSH2 0x30AB JUMP JUMPDEST SWAP1 PUSH0 MSTORE PUSH1 0x20 PUSH0 KECCAK256 SWAP1 PUSH1 0x2 MUL ADD PUSH0 ADD PUSH0 SWAP1 SLOAD SWAP1 PUSH2 0x100 EXP SWAP1 DIV PUSH1 0x1 PUSH1 0x1 PUSH1 0xA0 SHL SUB AND PUSH1 0x1 PUSH1 0x1 PUSH1 0xA0 SHL SUB AND PUSH2 0x8FC PUSH1 0xA PUSH1 0x14 PUSH1 0xF DUP6 DUP2 SLOAD DUP2 LT PUSH2 0x1D67 JUMPI PUSH2 0x1D67 PUSH2 0x30AB JUMP JUMPDEST SWAP1 PUSH0 MSTORE PUSH1 0x20 PUSH0 KECCAK256 SWAP1 PUSH1 0x2 MUL ADD PUSH1 0x1 ADD SLOAD PUSH2 0x1D81 SWAP2 SWAP1 PUSH2 0x33B7 JUMP JUMPDEST PUSH2 0x1D8B SWAP2 SWAP1 PUSH2 0x33CE JUMP JUMPDEST PUSH1 0x40 MLOAD DUP2 ISZERO SWAP1 SWAP3 MUL SWAP2 PUSH0 DUP2 DUP2 DUP2 DUP6 DUP9 DUP9 CALL SWAP4 POP POP POP POP ISZERO DUP1 ISZERO PUSH2 0x1DB0 JUMPI RETURNDATASIZE PUSH0 DUP1 RETURNDATACOPY RETURNDATASIZE PUSH0 REVERT JUMPDEST POP PUSH1 0xF DUP2 DUP2 SLOAD DUP2 LT PUSH2 0x1DC4 JUMPI PUSH2 0x1DC4 PUSH2 0x30AB JUMP JUMPDEST PUSH0 SWAP2 DUP3 MSTORE PUSH1 0x20 SWAP1 SWAP2 KECCAK256 PUSH1 0x2 SWAP1 SWAP2 MUL ADD SLOAD PUSH1 0xF DUP1 SLOAD PUSH1 0x1 PUSH1 0x1 PUSH1 0xA0 SHL SUB SWAP1 SWAP3 AND SWAP2 PUSH0 DUP1 MLOAD PUSH1 0x20 PUSH2 0x346F DUP4 CODECOPY DUP2 MLOAD SWAP2 MSTORE SWAP2 SWAP1 DUP5 SWAP1 DUP2 LT PUSH2 0x1E04 JUMPI PUSH2 0x1E04 PUSH2 0x30AB JUMP JUMPDEST SWAP1 PUSH0 MSTORE PUSH1 0x20 PUSH0 KECCAK256 SWAP1 PUSH1 0x2 MUL ADD PUSH0 ADD PUSH1 0x14 SWAP1 SLOAD SWAP1 PUSH2 0x100 EXP SWAP1 DIV PUSH1 0xFF AND PUSH1 0xA PUSH1 0x14 PUSH1 0xF DUP7 DUP2 SLOAD DUP2 LT PUSH2 0x1C82 JUMPI PUSH2 0x1C82 PUSH2 0x30AB JUMP JUMPDEST PUSH1 0xF DUP2 DUP2 SLOAD DUP2 LT PUSH2 0x1E4A JUMPI PUSH2 0x1E4A PUSH2 0x30AB JUMP JUMPDEST PUSH0 SWAP2 DUP3 MSTORE PUSH1 0x20 SWAP1 SWAP2 KECCAK256 PUSH1 0x2 SWAP1 SWAP2 MUL ADD SLOAD PUSH1 0x1 PUSH1 0xA0 SHL SWAP1 DIV PUSH1 0xFF AND PUSH1 0x27 SUB PUSH2 0x1E7A JUMPI PUSH1 0x11 SLOAD PUSH2 0x1D0B SWAP1 PUSH1 0xFF AND PUSH2 0x27A3 JUMP JUMPDEST PUSH1 0xF DUP2 DUP2 SLOAD DUP2 LT PUSH2 0x1E8D JUMPI PUSH2 0x1E8D PUSH2 0x30AB JUMP JUMPDEST PUSH0 SWAP2 DUP3 MSTORE PUSH1 0x20 SWAP1 SWAP2 KECCAK256 PUSH1 0x2 SWAP1 SWAP2 MUL ADD SLOAD PUSH1 0x1 PUSH1 0xA0 SHL SWAP1 DIV PUSH1 0xFF AND PUSH1 0x28 SUB PUSH2 0x1EBD JUMPI PUSH1 0x11 SLOAD PUSH2 0x1D0B SWAP1 PUSH1 0xFF AND PUSH2 0x1913 JUMP JUMPDEST PUSH1 0xF DUP2 DUP2 SLOAD DUP2 LT PUSH2 0x1ED0 JUMPI PUSH2 0x1ED0 PUSH2 0x30AB JUMP JUMPDEST PUSH0 SWAP2 DUP3 MSTORE PUSH1 0x20 SWAP1 SWAP2 KECCAK256 PUSH1 0x2 SWAP1 SWAP2 MUL ADD SLOAD PUSH1 0x1 PUSH1 0xA0 SHL SWAP1 DIV PUSH1 0xFF AND PUSH1 0x29 SUB PUSH2 0x1F00 JUMPI PUSH1 0x11 SLOAD PUSH2 0x1D0B SWAP1 PUSH1 0xFF AND PUSH2 0x19D1 JUMP JUMPDEST PUSH1 0xF DUP2 DUP2 SLOAD DUP2 LT PUSH2 0x1F13 JUMPI PUSH2 0x1F13 PUSH2 0x30AB JUMP JUMPDEST PUSH0 SWAP2 DUP3 MSTORE PUSH1 0x20 SWAP1 SWAP2 KECCAK256 PUSH1 0x2 SWAP1 SWAP2 MUL ADD SLOAD PUSH1 0x1 PUSH1 0xA0 SHL SWAP1 DIV PUSH1 0xFF AND PUSH1 0x2A SUB PUSH2 0x1F43 JUMPI PUSH1 0x11 SLOAD PUSH2 0x1D0B SWAP1 PUSH1 0xFF AND PUSH2 0xC73 JUMP JUMPDEST PUSH1 0xF DUP2 DUP2 SLOAD DUP2 LT PUSH2 0x1F56 JUMPI PUSH2 0x1F56 PUSH2 0x30AB JUMP JUMPDEST PUSH0 SWAP2 DUP3 MSTORE PUSH1 0x20 SWAP1 SWAP2 KECCAK256 PUSH1 0x2 SWAP1 SWAP2 MUL ADD SLOAD PUSH1 0x1 PUSH1 0xA0 SHL SWAP1 DIV PUSH1 0xFF AND PUSH1 0x2B SUB PUSH2 0x1F86 JUMPI PUSH1 0x11 SLOAD PUSH2 0x1D0B SWAP1 PUSH1 0xFF AND PUSH2 0x2735 JUMP JUMPDEST PUSH1 0xF DUP2 DUP2 SLOAD DUP2 LT PUSH2 0x1F99 JUMPI PUSH2 0x1F99 PUSH2 0x30AB JUMP JUMPDEST PUSH0 SWAP2 DUP3 MSTORE PUSH1 0x20 SWAP1 SWAP2 KECCAK256 PUSH1 0x2 SWAP1 SWAP2 MUL ADD SLOAD PUSH1 0x1 PUSH1 0xA0 SHL SWAP1 DIV PUSH1 0xFF AND PUSH1 0x2C SUB PUSH2 0x212F JUMPI PUSH1 0x11 SLOAD PUSH2 0x1FC9 SWAP1 PUSH1 0xFF AND PUSH2 0x827 JUMP JUMPDEST ISZERO PUSH2 0x212A JUMPI PUSH1 0xF DUP2 DUP2 SLOAD DUP2 LT PUSH2 0x1FE1 JUMPI PUSH2 0x1FE1 PUSH2 0x30AB JUMP JUMPDEST PUSH0 SWAP2 DUP3 MSTORE PUSH1 0x20 SWAP1 SWAP2 KECCAK256 PUSH1 0x2 SWAP1 SWAP2 MUL ADD SLOAD PUSH1 0xF DUP1 SLOAD PUSH1 0x1 PUSH1 0x1 PUSH1 0xA0 SHL SUB SWAP1 SWAP3 AND SWAP2 PUSH2 0x8FC SWAP2 PUSH1 0xA SWAP2 DUP2 SWAP1 DUP7 SWAP1 DUP2 LT PUSH2 0x201A JUMPI PUSH2 0x201A PUSH2 0x30AB JUMP JUMPDEST SWAP1 PUSH0 MSTORE PUSH1 0x20 PUSH0 KECCAK256 SWAP1 PUSH1 0x2 MUL ADD PUSH1 0x1 ADD SLOAD PUSH2 0x2034 SWAP2 SWAP1 PUSH2 0x33B7 JUMP JUMPDEST PUSH2 0x203E SWAP2 SWAP1 PUSH2 0x33CE JUMP JUMPDEST PUSH1 0x40 MLOAD DUP2 ISZERO SWAP1 SWAP3 MUL SWAP2 PUSH0 DUP2 DUP2 DUP2 DUP6 DUP9 DUP9 CALL SWAP4 POP POP POP POP ISZERO DUP1 ISZERO PUSH2 0x2063 JUMPI RETURNDATASIZE PUSH0 DUP1 RETURNDATACOPY RETURNDATASIZE PUSH0 REVERT JUMPDEST POP PUSH1 0xF DUP2 DUP2 SLOAD DUP2 LT PUSH2 0x2077 JUMPI PUSH2 0x2077 PUSH2 0x30AB JUMP JUMPDEST PUSH0 SWAP2 DUP3 MSTORE PUSH1 0x20 SWAP1 SWAP2 KECCAK256 PUSH1 0x2 SWAP1 SWAP2 MUL ADD SLOAD PUSH1 0xF DUP1 SLOAD PUSH1 0x1 PUSH1 0x1 PUSH1 0xA0 SHL SUB SWAP1 SWAP3 AND SWAP2 PUSH0 DUP1 MLOAD PUSH1 0x20 PUSH2 0x346F DUP4 CODECOPY DUP2 MLOAD SWAP2 MSTORE SWAP2 SWAP1 DUP5 SWAP1 DUP2 LT PUSH2 0x20B7 JUMPI PUSH2 0x20B7 PUSH2 0x30AB JUMP JUMPDEST SWAP1 PUSH0 MSTORE PUSH1 0x20 PUSH0 KECCAK256 SWAP1 PUSH1 0x2 MUL ADD PUSH0 ADD PUSH1 0x14 SWAP1 SLOAD SWAP1 PUSH2 0x100 EXP SWAP1 DIV PUSH1 0xFF AND PUSH1 0xA PUSH1 0xF DUP1 DUP7 DUP2 SLOAD DUP2 LT PUSH2 0x20E9 JUMPI PUSH2 0x20E9 PUSH2 0x30AB JUMP JUMPDEST SWAP1 PUSH0 MSTORE PUSH1 0x20 PUSH0 KECCAK256 SWAP1 PUSH1 0x2 MUL ADD PUSH1 0x1 ADD SLOAD PUSH2 0x2103 SWAP2 SWAP1 PUSH2 0x33B7 JUMP JUMPDEST PUSH2 0x210D SWAP2 SWAP1 PUSH2 0x33CE JUMP JUMPDEST PUSH1 0x40 DUP1 MLOAD PUSH1 0xFF SWAP1 SWAP4 AND DUP4 MSTORE PUSH1 0x20 DUP4 ADD SWAP2 SWAP1 SWAP2 MSTORE ADD PUSH1 0x40 MLOAD DUP1 SWAP2 SUB SWAP1 LOG2 JUMPDEST PUSH2 0x23DF JUMP JUMPDEST PUSH1 0xF DUP2 DUP2 SLOAD DUP2 LT PUSH2 0x2142 JUMPI PUSH2 0x2142 PUSH2 0x30AB JUMP JUMPDEST PUSH0 SWAP2 DUP3 MSTORE PUSH1 0x20 SWAP1 SWAP2 KECCAK256 PUSH1 0x2 SWAP1 SWAP2 MUL ADD SLOAD PUSH1 0x1 PUSH1 0xA0 SHL SWAP1 DIV PUSH1 0xFF AND PUSH1 0x2D SUB PUSH2 0x2172 JUMPI PUSH1 0x11 SLOAD PUSH2 0x1FC9 SWAP1 PUSH1 0xFF AND PUSH2 0x2460 JUMP JUMPDEST PUSH1 0xF DUP2 DUP2 SLOAD DUP2 LT PUSH2 0x2185 JUMPI PUSH2 0x2185 PUSH2 0x30AB JUMP JUMPDEST PUSH0 SWAP2 DUP3 MSTORE PUSH1 0x20 SWAP1 SWAP2 KECCAK256 PUSH1 0x2 SWAP1 SWAP2 MUL ADD SLOAD PUSH1 0x1 PUSH1 0xA0 SHL SWAP1 DIV PUSH1 0xFF AND PUSH1 0x2E SUB PUSH2 0x21B5 JUMPI PUSH1 0x11 SLOAD PUSH2 0x1FC9 SWAP1 PUSH1 0xFF AND PUSH2 0x2802 JUMP JUMPDEST PUSH1 0xF DUP2 DUP2 SLOAD DUP2 LT PUSH2 0x21C8 JUMPI PUSH2 0x21C8 PUSH2 0x30AB JUMP JUMPDEST PUSH0 SWAP2 DUP3 MSTORE PUSH1 0x20 SWAP1 SWAP2 KECCAK256 PUSH1 0x2 SWAP1 SWAP2 MUL ADD SLOAD PUSH1 0x1 PUSH1 0xA0 SHL SWAP1 DIV PUSH1 0xFF AND PUSH1 0x2F SUB PUSH2 0x21F8 JUMPI PUSH1 0x11 SLOAD PUSH2 0x1FC9 SWAP1 PUSH1 0xFF AND PUSH2 0x1972 JUMP JUMPDEST PUSH1 0xF DUP2 DUP2 SLOAD DUP2 LT PUSH2 0x220B JUMPI PUSH2 0x220B PUSH2 0x30AB JUMP JUMPDEST PUSH0 SWAP2 DUP3 MSTORE PUSH1 0x20 SWAP1 SWAP2 KECCAK256 PUSH1 0x2 SWAP1 SWAP2 MUL ADD SLOAD PUSH1 0x1 PUSH1 0xA0 SHL SWAP1 DIV PUSH1 0xFF AND PUSH1 0x30 SUB PUSH2 0x223B JUMPI PUSH1 0x11 SLOAD PUSH2 0x1FC9 SWAP1 PUSH1 0xFF AND PUSH2 0xC14 JUMP JUMPDEST PUSH1 0xF DUP2 DUP2 SLOAD DUP2 LT PUSH2 0x224E JUMPI PUSH2 0x224E PUSH2 0x30AB JUMP JUMPDEST PUSH0 SWAP2 DUP3 MSTORE PUSH1 0x20 SWAP1 SWAP2 KECCAK256 PUSH1 0x2 SWAP1 SWAP2 MUL ADD SLOAD PUSH1 0x1 PUSH1 0xA0 SHL SWAP1 DIV PUSH1 0xFF AND PUSH1 0x31 SUB PUSH2 0x23DF JUMPI PUSH1 0x11 SLOAD PUSH2 0x227E SWAP1 PUSH1 0xFF AND PUSH2 0x251D JUMP JUMPDEST ISZERO PUSH2 0x23DF JUMPI PUSH1 0xF DUP2 DUP2 SLOAD DUP2 LT PUSH2 0x2296 JUMPI PUSH2 0x2296 PUSH2 0x30AB JUMP JUMPDEST PUSH0 SWAP2 DUP3 MSTORE PUSH1 0x20 SWAP1 SWAP2 KECCAK256 PUSH1 0x2 SWAP1 SWAP2 MUL ADD SLOAD PUSH1 0xF DUP1 SLOAD PUSH1 0x1 PUSH1 0x1 PUSH1 0xA0 SHL SUB SWAP1 SWAP3 AND SWAP2 PUSH2 0x8FC SWAP2 PUSH1 0xA SWAP2 DUP2 SWAP1 DUP7 SWAP1 DUP2 LT PUSH2 0x22CF JUMPI PUSH2 0x22CF PUSH2 0x30AB JUMP JUMPDEST SWAP1 PUSH0 MSTORE PUSH1 0x20 PUSH0 KECCAK256 SWAP1 PUSH1 0x2 MUL ADD PUSH1 0x1 ADD SLOAD PUSH2 0x22E9 SWAP2 SWAP1 PUSH2 0x33B7 JUMP JUMPDEST PUSH2 0x22F3 SWAP2 SWAP1 PUSH2 0x33CE JUMP JUMPDEST PUSH1 0x40 MLOAD DUP2 ISZERO SWAP1 SWAP3 MUL SWAP2 PUSH0 DUP2 DUP2 DUP2 DUP6 DUP9 DUP9 CALL SWAP4 POP POP POP POP ISZERO DUP1 ISZERO PUSH2 0x2318 JUMPI RETURNDATASIZE PUSH0 DUP1 RETURNDATACOPY RETURNDATASIZE PUSH0 REVERT JUMPDEST POP PUSH1 0xF DUP2 DUP2 SLOAD DUP2 LT PUSH2 0x232C JUMPI PUSH2 0x232C PUSH2 0x30AB JUMP JUMPDEST PUSH0 SWAP2 DUP3 MSTORE PUSH1 0x20 SWAP1 SWAP2 KECCAK256 PUSH1 0x2 SWAP1 SWAP2 MUL ADD SLOAD PUSH1 0xF DUP1 SLOAD PUSH1 0x1 PUSH1 0x1 PUSH1 0xA0 SHL SUB SWAP1 SWAP3 AND SWAP2 PUSH0 DUP1 MLOAD PUSH1 0x20 PUSH2 0x346F DUP4 CODECOPY DUP2 MLOAD SWAP2 MSTORE SWAP2 SWAP1 DUP5 SWAP1 DUP2 LT PUSH2 0x236C JUMPI PUSH2 0x236C PUSH2 0x30AB JUMP JUMPDEST SWAP1 PUSH0 MSTORE PUSH1 0x20 PUSH0 KECCAK256 SWAP1 PUSH1 0x2 MUL ADD PUSH0 ADD PUSH1 0x14 SWAP1 SLOAD SWAP1 PUSH2 0x100 EXP SWAP1 DIV PUSH1 0xFF AND PUSH1 0xA PUSH1 0xF DUP1 DUP7 DUP2 SLOAD DUP2 LT PUSH2 0x239E JUMPI PUSH2 0x239E PUSH2 0x30AB JUMP JUMPDEST SWAP1 PUSH0 MSTORE PUSH1 0x20 PUSH0 KECCAK256 SWAP1 PUSH1 0x2 MUL ADD PUSH1 0x1 ADD SLOAD PUSH2 0x23B8 SWAP2 SWAP1 PUSH2 0x33B7 JUMP JUMPDEST PUSH2 0x23C2 SWAP2 SWAP1 PUSH2 0x33CE JUMP JUMPDEST PUSH1 0x40 DUP1 MLOAD PUSH1 0xFF SWAP1 SWAP4 AND DUP4 MSTORE PUSH1 0x20 DUP4 ADD SWAP2 SWAP1 SWAP2 MSTORE ADD PUSH1 0x40 MLOAD DUP1 SWAP2 SUB SWAP1 LOG2 JUMPDEST PUSH1 0x1 ADD PUSH2 0x1AA5 JUMP JUMPDEST POP PUSH1 0xC SLOAD PUSH1 0x40 MLOAD SELFBALANCE DUP2 MSTORE PUSH1 0x1 PUSH1 0x1 PUSH1 0xA0 SHL SUB SWAP1 SWAP2 AND SWAP1 PUSH32 0xD4BA6FEC82D9B0E8FFE50B9FED9E4BE3B25C984CE1E0E016405A5528726E8A2C SWAP1 PUSH1 0x20 ADD PUSH1 0x40 MLOAD DUP1 SWAP2 SUB SWAP1 LOG2 PUSH1 0xC SLOAD PUSH1 0x40 MLOAD PUSH1 0x1 PUSH1 0x1 PUSH1 0xA0 SHL SUB SWAP1 SWAP2 AND SWAP1 SELFBALANCE DUP1 ISZERO PUSH2 0x8FC MUL SWAP2 PUSH0 DUP2 DUP2 DUP2 DUP6 DUP9 DUP9 CALL SWAP4 POP POP POP POP ISZERO DUP1 ISZERO PUSH2 0x1910 JUMPI RETURNDATASIZE PUSH0 DUP1 RETURNDATACOPY RETURNDATASIZE PUSH0 REVERT JUMPDEST PUSH0 DUP1 JUMPDEST PUSH1 0xC DUP2 PUSH1 0xFF AND LT ISZERO PUSH2 0x886 JUMPI DUP3 PUSH1 0xFF AND PUSH1 0x7 DUP3 PUSH1 0xFF AND PUSH1 0xC DUP2 LT PUSH2 0x2489 JUMPI PUSH2 0x2489 PUSH2 0x30AB JUMP JUMPDEST PUSH1 0x20 DUP2 DIV SWAP1 SWAP2 ADD SLOAD PUSH1 0xFF PUSH1 0x1F SWAP1 SWAP3 AND PUSH2 0x100 EXP SWAP1 DIV AND SUB PUSH2 0x24AD JUMPI POP PUSH1 0x1 SWAP3 SWAP2 POP POP JUMP JUMPDEST DUP1 PUSH2 0x24B7 DUP2 PUSH2 0x30D3 JUMP JUMPDEST SWAP2 POP POP PUSH2 0x2463 JUMP JUMPDEST PUSH0 DUP1 JUMPDEST PUSH1 0x12 DUP2 PUSH1 0xFF AND LT ISZERO PUSH2 0x886 JUMPI DUP3 PUSH1 0xFF AND PUSH0 DUP3 PUSH1 0xFF AND PUSH1 0x12 DUP2 LT PUSH2 0x24E7 JUMPI PUSH2 0x24E7 PUSH2 0x30AB JUMP JUMPDEST PUSH1 0x20 DUP2 DIV SWAP1 SWAP2 ADD SLOAD PUSH1 0xFF PUSH1 0x1F SWAP1 SWAP3 AND PUSH2 0x100 EXP SWAP1 DIV AND SUB PUSH2 0x250B JUMPI POP PUSH1 0x1 SWAP3 SWAP2 POP POP JUMP JUMPDEST DUP1 PUSH2 0x2515 DUP2 PUSH2 0x30D3 JUMP JUMPDEST SWAP2 POP POP PUSH2 0x24C2 JUMP JUMPDEST PUSH0 DUP1 JUMPDEST PUSH1 0xC DUP2 PUSH1 0xFF AND LT ISZERO PUSH2 0x886 JUMPI DUP3 PUSH1 0xFF AND PUSH1 0xB DUP3 PUSH1 0xFF AND PUSH1 0xC DUP2 LT PUSH2 0x2546 JUMPI PUSH2 0x2546 PUSH2 0x30AB JUMP JUMPDEST PUSH1 0x20 DUP2 DIV SWAP1 SWAP2 ADD SLOAD PUSH1 0xFF PUSH1 0x1F SWAP1 SWAP3 AND PUSH2 0x100 EXP SWAP1 DIV AND SUB PUSH2 0x256A JUMPI POP PUSH1 0x1 SWAP3 SWAP2 POP POP JUMP JUMPDEST DUP1 PUSH2 0x2574 DUP2 PUSH2 0x30D3 JUMP JUMPDEST SWAP2 POP POP PUSH2 0x2520 JUMP JUMPDEST PUSH1 0x3 DUP2 PUSH1 0x12 DUP2 LT PUSH2 0x89D JUMPI PUSH0 DUP1 REVERT JUMPDEST PUSH1 0x7 DUP2 PUSH1 0xC DUP2 LT PUSH2 0x89D JUMPI PUSH0 DUP1 REVERT JUMPDEST PUSH1 0x1 DUP2 PUSH1 0x12 DUP2 LT PUSH2 0x89D JUMPI PUSH0 DUP1 REVERT JUMPDEST PUSH1 0xE SLOAD PUSH1 0xFF AND ISZERO PUSH2 0x25F5 JUMPI PUSH1 0x40 MLOAD PUSH3 0x461BCD PUSH1 0xE5 SHL DUP2 MSTORE PUSH1 0x20 PUSH1 0x4 DUP3 ADD MSTORE PUSH1 0x16 PUSH1 0x24 DUP3 ADD MSTORE PUSH22 0x11195C1BDCDA5D081A5CC81B9BDD08185B1B1BDDD959 PUSH1 0x52 SHL PUSH1 0x44 DUP3 ADD MSTORE PUSH1 0x64 ADD PUSH2 0x90E JUMP JUMPDEST PUSH1 0xC SLOAD PUSH1 0x1 PUSH1 0x1 PUSH1 0xA0 SHL SUB AND CALLER EQ PUSH2 0x2647 JUMPI PUSH1 0x40 MLOAD PUSH3 0x461BCD PUSH1 0xE5 SHL DUP2 MSTORE PUSH1 0x20 PUSH1 0x4 DUP3 ADD MSTORE PUSH1 0x15 PUSH1 0x24 DUP3 ADD MSTORE PUSH21 0x13DB9B1E481A1BDCDD0818D85B8819195C1BDCDA5D PUSH1 0x5A SHL PUSH1 0x44 DUP3 ADD MSTORE PUSH1 0x64 ADD PUSH2 0x90E JUMP JUMPDEST PUSH0 CALLVALUE GT PUSH2 0x268F JUMPI PUSH1 0x40 MLOAD PUSH3 0x461BCD PUSH1 0xE5 SHL DUP2 MSTORE PUSH1 0x20 PUSH1 0x4 DUP3 ADD MSTORE PUSH1 0x16 PUSH1 0x24 DUP3 ADD MSTORE PUSH22 0x125B9D985B1A590819195C1BDCDA5D08185B5BDD5B9D PUSH1 0x52 SHL PUSH1 0x44 DUP3 ADD MSTORE PUSH1 0x64 ADD PUSH2 0x90E JUMP JUMPDEST PUSH1 0xE DUP1 SLOAD PUSH1 0xFF NOT AND PUSH1 0x1 OR SWAP1 SSTORE PUSH1 0x40 MLOAD CALLER SWAP1 PUSH32 0x5A6C38B61CFC87B08186EC74738F787EC19C78C75B5B70442F580362ABD96D29 SWAP1 PUSH2 0x26D0 SWAP1 CALLVALUE DUP2 MSTORE PUSH1 0x20 ADD SWAP1 JUMP JUMPDEST PUSH1 0x40 MLOAD DUP1 SWAP2 SUB SWAP1 LOG2 JUMP JUMPDEST PUSH0 DUP1 DUP1 JUMPDEST PUSH1 0xF SLOAD DUP2 LT ISZERO PUSH2 0x2720 JUMPI PUSH1 0xF DUP2 DUP2 SLOAD DUP2 LT PUSH2 0x26FB JUMPI PUSH2 0x26FB PUSH2 0x30AB JUMP JUMPDEST SWAP1 PUSH0 MSTORE PUSH1 0x20 PUSH0 KECCAK256 SWAP1 PUSH1 0x2 MUL ADD PUSH1 0x1 ADD SLOAD DUP3 PUSH2 0x2716 SWAP2 SWAP1 PUSH2 0x30F1 JUMP JUMPDEST SWAP2 POP PUSH1 0x1 ADD PUSH2 0x26DE JUMP JUMPDEST POP SWAP2 SWAP1 POP JUMP JUMPDEST PUSH1 0x4 DUP2 PUSH1 0x12 DUP2 LT PUSH2 0x89D JUMPI PUSH0 DUP1 REVERT JUMPDEST PUSH0 DUP1 JUMPDEST PUSH1 0x12 DUP2 PUSH1 0xFF AND LT ISZERO PUSH2 0x886 JUMPI DUP3 PUSH1 0xFF AND PUSH1 0x5 DUP3 PUSH1 0xFF AND PUSH1 0x12 DUP2 LT PUSH2 0x275E JUMPI PUSH2 0x275E PUSH2 0x30AB JUMP JUMPDEST PUSH1 0x20 DUP2 DIV SWAP1 SWAP2 ADD SLOAD PUSH1 0xFF PUSH1 0x1F SWAP1 SWAP3 AND PUSH2 0x100 EXP SWAP1 DIV AND SUB PUSH2 0x2782 JUMPI POP PUSH1 0x1 SWAP3 SWAP2 POP POP JUMP JUMPDEST DUP1 PUSH2 0x278C DUP2 PUSH2 0x30D3 JUMP JUMPDEST SWAP2 POP POP PUSH2 0x2738 JUMP JUMPDEST PUSH1 0x6 DUP2 PUSH1 0xC DUP2 LT PUSH2 0x89D JUMPI PUSH0 DUP1 REVERT JUMPDEST PUSH0 DUP1 JUMPDEST PUSH1 0x12 DUP2 PUSH1 0xFF AND LT ISZERO PUSH2 0x886 JUMPI DUP3 PUSH1 0xFF AND PUSH1 0x1 DUP3 PUSH1 0xFF AND PUSH1 0x12 DUP2 LT PUSH2 0x27CC JUMPI PUSH2 0x27CC PUSH2 0x30AB JUMP JUMPDEST PUSH1 0x20 DUP2 DIV SWAP1 SWAP2 ADD SLOAD PUSH1 0xFF PUSH1 0x1F SWAP1 SWAP3 AND PUSH2 0x100 EXP SWAP1 DIV AND SUB PUSH2 0x27F0 JUMPI POP PUSH1 0x1 SWAP3 SWAP2 POP POP JUMP JUMPDEST DUP1 PUSH2 0x27FA DUP2 PUSH2 0x30D3 JUMP JUMPDEST SWAP2 POP POP PUSH2 0x27A6 JUMP JUMPDEST PUSH0 DUP1 JUMPDEST PUSH1 0xC DUP2 PUSH1 0xFF AND LT ISZERO PUSH2 0x886 JUMPI DUP3 PUSH1 0xFF AND PUSH1 0x8 DUP3 PUSH1 0xFF AND PUSH1 0xC DUP2 LT PUSH2 0x282B JUMPI PUSH2 0x282B PUSH2 0x30AB JUMP JUMPDEST PUSH1 0x20 DUP2 DIV SWAP1 SWAP2 ADD SLOAD PUSH1 0xFF PUSH1 0x1F SWAP1 SWAP3 AND PUSH2 0x100 EXP SWAP1 DIV AND SUB PUSH2 0x284F JUMPI POP PUSH1 0x1 SWAP3 SWAP2 POP POP JUMP JUMPDEST DUP1 PUSH2 0x2859 DUP2 PUSH2 0x30D3 JUMP JUMPDEST SWAP2 POP POP PUSH2 0x2805 JUMP JUMPDEST PUSH0 DUP2 PUSH1 0x12 DUP2 LT PUSH2 0x89D JUMPI PUSH0 DUP1 REVERT JUMPDEST PUSH1 0x5 DUP2 PUSH1 0x12 DUP2 LT PUSH2 0x89D JUMPI PUSH0 DUP1 REVERT JUMPDEST PUSH0 DUP1 JUMPDEST PUSH1 0x12 SLOAD DUP2 LT ISZERO PUSH2 0x886 JUMPI DUP3 PUSH1 0x1 PUSH1 0x1 PUSH1 0xA0 SHL SUB AND PUSH1 0x12 DUP3 DUP2 SLOAD DUP2 LT PUSH2 0x28A8 JUMPI PUSH2 0x28A8 PUSH2 0x30AB JUMP JUMPDEST PUSH0 SWAP2 DUP3 MSTORE PUSH1 0x20 SWAP1 SWAP2 KECCAK256 ADD SLOAD PUSH1 0x1 PUSH1 0x1 PUSH1 0xA0 SHL SUB AND SUB PUSH2 0x28CA JUMPI POP PUSH1 0x1 SWAP3 SWAP2 POP POP JUMP JUMPDEST PUSH1 0x1 ADD PUSH2 0x2881 JUMP JUMPDEST PUSH1 0x60 DUP2 PUSH0 SUB PUSH2 0x28F8 JUMPI POP POP PUSH1 0x40 DUP1 MLOAD DUP1 DUP3 ADD SWAP1 SWAP2 MSTORE PUSH1 0x1 DUP2 MSTORE PUSH1 0x3 PUSH1 0xFC SHL PUSH1 0x20 DUP3 ADD MSTORE SWAP1 JUMP JUMPDEST DUP2 PUSH0 JUMPDEST DUP2 ISZERO PUSH2 0x2921 JUMPI DUP1 PUSH2 0x290B DUP2 PUSH2 0x33E1 JUMP JUMPDEST SWAP2 POP PUSH2 0x291A SWAP1 POP PUSH1 0xA DUP4 PUSH2 0x33CE JUMP JUMPDEST SWAP2 POP PUSH2 0x28FB JUMP JUMPDEST PUSH0 DUP2 PUSH8 0xFFFFFFFFFFFFFFFF DUP2 GT ISZERO PUSH2 0x293B JUMPI PUSH2 0x293B PUSH2 0x325B JUMP JUMPDEST PUSH1 0x40 MLOAD SWAP1 DUP1 DUP3 MSTORE DUP1 PUSH1 0x1F ADD PUSH1 0x1F NOT AND PUSH1 0x20 ADD DUP3 ADD PUSH1 0x40 MSTORE DUP1 ISZERO PUSH2 0x2965 JUMPI PUSH1 0x20 DUP3 ADD DUP2 DUP1 CALLDATASIZE DUP4 CALLDATACOPY ADD SWAP1 POP JUMPDEST POP DUP6 SWAP4 POP SWAP1 POP DUP2 JUMPDEST DUP4 ISZERO PUSH2 0x29D4 JUMPI DUP1 PUSH2 0x297D DUP2 PUSH2 0x33F9 JUMP JUMPDEST SWAP2 POP PUSH2 0x298C SWAP1 POP PUSH1 0xA DUP6 PUSH2 0x3175 JUMP JUMPDEST PUSH2 0x2997 SWAP1 PUSH1 0x30 PUSH2 0x30F1 JUMP JUMPDEST PUSH1 0xF8 SHL DUP3 DUP3 DUP2 MLOAD DUP2 LT PUSH2 0x29AC JUMPI PUSH2 0x29AC PUSH2 0x30AB JUMP JUMPDEST PUSH1 0x20 ADD ADD SWAP1 PUSH1 0x1 PUSH1 0x1 PUSH1 0xF8 SHL SUB NOT AND SWAP1 DUP2 PUSH0 BYTE SWAP1 MSTORE8 POP PUSH2 0x29CD PUSH1 0xA DUP6 PUSH2 0x33CE JUMP JUMPDEST SWAP4 POP PUSH2 0x296D JUMP JUMPDEST POP SWAP5 SWAP4 POP POP POP POP JUMP JUMPDEST PUSH1 0x40 DUP1 MLOAD DUP1 DUP3 ADD DUP3 MSTORE PUSH1 0x10 DUP2 MSTORE PUSH16 0x181899199A1A9B1B9C1CB0B131B232B3 PUSH1 0x81 SHL PUSH1 0x20 DUP3 ADD MSTORE DUP2 MLOAD PUSH1 0x42 DUP1 DUP3 MSTORE PUSH1 0x80 DUP3 ADD SWAP1 SWAP4 MSTORE PUSH1 0x60 SWAP3 PUSH0 SWAP2 SWAP1 PUSH1 0x20 DUP3 ADD DUP2 DUP1 CALLDATASIZE DUP4 CALLDATACOPY ADD SWAP1 POP POP SWAP1 POP PUSH1 0x3 PUSH1 0xFC SHL DUP2 PUSH0 DUP2 MLOAD DUP2 LT PUSH2 0x2A3D JUMPI PUSH2 0x2A3D PUSH2 0x30AB JUMP JUMPDEST PUSH1 0x20 ADD ADD SWAP1 PUSH1 0x1 PUSH1 0x1 PUSH1 0xF8 SHL SUB NOT AND SWAP1 DUP2 PUSH0 BYTE SWAP1 MSTORE8 POP PUSH1 0xF PUSH1 0xFB SHL DUP2 PUSH1 0x1 DUP2 MLOAD DUP2 LT PUSH2 0x2A6B JUMPI PUSH2 0x2A6B PUSH2 0x30AB JUMP JUMPDEST PUSH1 0x20 ADD ADD SWAP1 PUSH1 0x1 PUSH1 0x1 PUSH1 0xF8 SHL SUB NOT AND SWAP1 DUP2 PUSH0 BYTE SWAP1 MSTORE8 POP PUSH0 JUMPDEST PUSH1 0x20 DUP2 LT ISZERO PUSH2 0x2B91 JUMPI DUP3 PUSH1 0x4 DUP7 DUP4 PUSH1 0x20 DUP2 LT PUSH2 0x2AA1 JUMPI PUSH2 0x2AA1 PUSH2 0x30AB JUMP JUMPDEST BYTE PUSH1 0xF8 SHL PUSH1 0x1 PUSH1 0x1 PUSH1 0xF8 SHL SUB NOT AND SWAP1 SHR PUSH1 0xF8 SHR PUSH1 0xFF AND DUP2 MLOAD DUP2 LT PUSH2 0x2AC7 JUMPI PUSH2 0x2AC7 PUSH2 0x30AB JUMP JUMPDEST ADD PUSH1 0x20 ADD MLOAD PUSH1 0x1 PUSH1 0x1 PUSH1 0xF8 SHL SUB NOT AND DUP3 PUSH2 0x2AE2 DUP4 PUSH1 0x2 PUSH2 0x33B7 JUMP JUMPDEST PUSH2 0x2AED SWAP1 PUSH1 0x2 PUSH2 0x30F1 JUMP JUMPDEST DUP2 MLOAD DUP2 LT PUSH2 0x2AFD JUMPI PUSH2 0x2AFD PUSH2 0x30AB JUMP JUMPDEST PUSH1 0x20 ADD ADD SWAP1 PUSH1 0x1 PUSH1 0x1 PUSH1 0xF8 SHL SUB NOT AND SWAP1 DUP2 PUSH0 BYTE SWAP1 MSTORE8 POP DUP3 DUP6 DUP3 PUSH1 0x20 DUP2 LT PUSH2 0x2B26 JUMPI PUSH2 0x2B26 PUSH2 0x30AB JUMP JUMPDEST DUP3 MLOAD SWAP2 SWAP1 BYTE PUSH1 0xF AND SWAP1 DUP2 LT PUSH2 0x2B3D JUMPI PUSH2 0x2B3D PUSH2 0x30AB JUMP JUMPDEST ADD PUSH1 0x20 ADD MLOAD PUSH1 0x1 PUSH1 0x1 PUSH1 0xF8 SHL SUB NOT AND DUP3 PUSH2 0x2B58 DUP4 PUSH1 0x2 PUSH2 0x33B7 JUMP JUMPDEST PUSH2 0x2B63 SWAP1 PUSH1 0x3 PUSH2 0x30F1 JUMP JUMPDEST DUP2 MLOAD DUP2 LT PUSH2 0x2B73 JUMPI PUSH2 0x2B73 PUSH2 0x30AB JUMP JUMPDEST PUSH1 0x20 ADD ADD SWAP1 PUSH1 0x1 PUSH1 0x1 PUSH1 0xF8 SHL SUB NOT AND SWAP1 DUP2 PUSH0 BYTE SWAP1 MSTORE8 POP PUSH1 0x1 ADD PUSH2 0x2A83 JUMP JUMPDEST POP SWAP4 SWAP3 POP POP POP JUMP JUMPDEST PUSH1 0x60 DUP2 MLOAD PUSH0 SUB PUSH2 0x2BC1 JUMPI POP POP PUSH1 0x40 DUP1 MLOAD DUP1 DUP3 ADD SWAP1 SWAP2 MSTORE PUSH1 0x2 DUP2 MSTORE PUSH2 0x5B5D PUSH1 0xF0 SHL PUSH1 0x20 DUP3 ADD MSTORE SWAP1 JUMP JUMPDEST PUSH1 0x40 DUP1 MLOAD DUP1 DUP3 ADD SWAP1 SWAP2 MSTORE PUSH1 0x1 DUP2 MSTORE PUSH1 0x5B PUSH1 0xF8 SHL PUSH1 0x20 DUP3 ADD MSTORE PUSH0 JUMPDEST DUP4 MLOAD DUP2 LT ISZERO PUSH2 0x2C69 JUMPI DUP2 PUSH2 0x2C07 DUP6 DUP4 DUP2 MLOAD DUP2 LT PUSH2 0x2BFA JUMPI PUSH2 0x2BFA PUSH2 0x30AB JUMP JUMPDEST PUSH1 0x20 MUL PUSH1 0x20 ADD ADD MLOAD PUSH2 0x2E92 JUMP JUMPDEST PUSH1 0x40 MLOAD PUSH1 0x20 ADD PUSH2 0x2C18 SWAP3 SWAP2 SWAP1 PUSH2 0x340E JUMP JUMPDEST PUSH1 0x40 MLOAD PUSH1 0x20 DUP2 DUP4 SUB SUB DUP2 MSTORE SWAP1 PUSH1 0x40 MSTORE SWAP2 POP PUSH1 0x1 DUP5 MLOAD PUSH2 0x2C37 SWAP2 SWAP1 PUSH2 0x3422 JUMP JUMPDEST DUP2 LT ISZERO PUSH2 0x2C61 JUMPI DUP2 PUSH1 0x40 MLOAD PUSH1 0x20 ADD PUSH2 0x2C4F SWAP2 SWAP1 PUSH2 0x3435 JUMP JUMPDEST PUSH1 0x40 MLOAD PUSH1 0x20 DUP2 DUP4 SUB SUB DUP2 MSTORE SWAP1 PUSH1 0x40 MSTORE SWAP2 POP JUMPDEST PUSH1 0x1 ADD PUSH2 0x2BDB JUMP JUMPDEST POP DUP1 PUSH1 0x40 MLOAD PUSH1 0x20 ADD PUSH2 0x2C7B SWAP2 SWAP1 PUSH2 0x3452 JUMP JUMPDEST PUSH1 0x40 DUP1 MLOAD PUSH1 0x1F NOT DUP2 DUP5 SUB ADD DUP2 MSTORE SWAP2 SWAP1 MSTORE SWAP4 SWAP3 POP POP POP JUMP JUMPDEST PUSH1 0x40 DUP1 MLOAD DUP1 DUP3 ADD SWAP1 SWAP2 MSTORE PUSH1 0x10 DUP2 MSTORE PUSH16 0x181899199A1A9B1B9C1CB0B131B232B3 PUSH1 0x81 SHL PUSH1 0x20 DUP3 ADD MSTORE DUP2 MLOAD PUSH1 0x60 SWAP2 SWAP1 PUSH0 SWAP1 PUSH2 0x2CCC SWAP1 PUSH1 0x2 PUSH2 0x33B7 JUMP JUMPDEST PUSH2 0x2CD7 SWAP1 PUSH1 0x2 PUSH2 0x30F1 JUMP JUMPDEST PUSH8 0xFFFFFFFFFFFFFFFF DUP2 GT ISZERO PUSH2 0x2CEF JUMPI PUSH2 0x2CEF PUSH2 0x325B JUMP JUMPDEST PUSH1 0x40 MLOAD SWAP1 DUP1 DUP3 MSTORE DUP1 PUSH1 0x1F ADD PUSH1 0x1F NOT AND PUSH1 0x20 ADD DUP3 ADD PUSH1 0x40 MSTORE DUP1 ISZERO PUSH2 0x2D19 JUMPI PUSH1 0x20 DUP3 ADD DUP2 DUP1 CALLDATASIZE DUP4 CALLDATACOPY ADD SWAP1 POP JUMPDEST POP SWAP1 POP PUSH1 0x3 PUSH1 0xFC SHL DUP2 PUSH0 DUP2 MLOAD DUP2 LT PUSH2 0x2D33 JUMPI PUSH2 0x2D33 PUSH2 0x30AB JUMP JUMPDEST PUSH1 0x20 ADD ADD SWAP1 PUSH1 0x1 PUSH1 0x1 PUSH1 0xF8 SHL SUB NOT AND SWAP1 DUP2 PUSH0 BYTE SWAP1 MSTORE8 POP PUSH1 0xF PUSH1 0xFB SHL DUP2 PUSH1 0x1 DUP2 MLOAD DUP2 LT PUSH2 0x2D61 JUMPI PUSH2 0x2D61 PUSH2 0x30AB JUMP JUMPDEST PUSH1 0x20 ADD ADD SWAP1 PUSH1 0x1 PUSH1 0x1 PUSH1 0xF8 SHL SUB NOT AND SWAP1 DUP2 PUSH0 BYTE SWAP1 MSTORE8 POP PUSH0 JUMPDEST DUP5 MLOAD DUP2 LT ISZERO PUSH2 0x2B91 JUMPI DUP3 PUSH1 0x4 DUP7 DUP4 DUP2 MLOAD DUP2 LT PUSH2 0x2D97 JUMPI PUSH2 0x2D97 PUSH2 0x30AB JUMP JUMPDEST ADD PUSH1 0x20 ADD MLOAD DUP3 MLOAD PUSH1 0x1 PUSH1 0x1 PUSH1 0xF8 SHL SUB NOT SWAP1 SWAP2 AND SWAP1 SWAP2 SHR PUSH1 0xF8 SHR SWAP1 DUP2 LT PUSH2 0x2DBF JUMPI PUSH2 0x2DBF PUSH2 0x30AB JUMP JUMPDEST ADD PUSH1 0x20 ADD MLOAD PUSH1 0x1 PUSH1 0x1 PUSH1 0xF8 SHL SUB NOT AND DUP3 PUSH2 0x2DDA DUP4 PUSH1 0x2 PUSH2 0x33B7 JUMP JUMPDEST PUSH2 0x2DE5 SWAP1 PUSH1 0x2 PUSH2 0x30F1 JUMP JUMPDEST DUP2 MLOAD DUP2 LT PUSH2 0x2DF5 JUMPI PUSH2 0x2DF5 PUSH2 0x30AB JUMP JUMPDEST PUSH1 0x20 ADD ADD SWAP1 PUSH1 0x1 PUSH1 0x1 PUSH1 0xF8 SHL SUB NOT AND SWAP1 DUP2 PUSH0 BYTE SWAP1 MSTORE8 POP DUP3 DUP6 DUP3 DUP2 MLOAD DUP2 LT PUSH2 0x2E1E JUMPI PUSH2 0x2E1E PUSH2 0x30AB JUMP JUMPDEST PUSH1 0x20 SWAP2 ADD ADD MLOAD DUP2 MLOAD PUSH1 0xF8 SWAP2 SWAP1 SWAP2 SHR PUSH1 0xF AND SWAP1 DUP2 LT PUSH2 0x2E3E JUMPI PUSH2 0x2E3E PUSH2 0x30AB JUMP JUMPDEST ADD PUSH1 0x20 ADD MLOAD PUSH1 0x1 PUSH1 0x1 PUSH1 0xF8 SHL SUB NOT AND DUP3 PUSH2 0x2E59 DUP4 PUSH1 0x2 PUSH2 0x33B7 JUMP JUMPDEST PUSH2 0x2E64 SWAP1 PUSH1 0x3 PUSH2 0x30F1 JUMP JUMPDEST DUP2 MLOAD DUP2 LT PUSH2 0x2E74 JUMPI PUSH2 0x2E74 PUSH2 0x30AB JUMP JUMPDEST PUSH1 0x20 ADD ADD SWAP1 PUSH1 0x1 PUSH1 0x1 PUSH1 0xF8 SHL SUB NOT AND SWAP1 DUP2 PUSH0 BYTE SWAP1 MSTORE8 POP PUSH1 0x1 ADD PUSH2 0x2D79 JUMP JUMPDEST PUSH1 0x40 DUP1 MLOAD DUP1 DUP3 ADD DUP3 MSTORE PUSH1 0x10 DUP2 MSTORE PUSH16 0x181899199A1A9B1B9C1CB0B131B232B3 PUSH1 0x81 SHL PUSH1 0x20 DUP3 ADD MSTORE DUP2 MLOAD PUSH1 0x2A DUP1 DUP3 MSTORE PUSH1 0x60 DUP3 DUP2 ADD SWAP1 SWAP5 MSTORE DUP5 DUP5 SHL SWAP2 PUSH0 SWAP2 PUSH1 0x20 DUP3 ADD DUP2 DUP1 CALLDATASIZE DUP4 CALLDATACOPY ADD SWAP1 POP POP SWAP1 POP PUSH1 0x3 PUSH1 0xFC SHL DUP2 PUSH0 DUP2 MLOAD DUP2 LT PUSH2 0x2EF3 JUMPI PUSH2 0x2EF3 PUSH2 0x30AB JUMP JUMPDEST PUSH1 0x20 ADD ADD SWAP1 PUSH1 0x1 PUSH1 0x1 PUSH1 0xF8 SHL SUB NOT AND SWAP1 DUP2 PUSH0 BYTE SWAP1 MSTORE8 POP PUSH1 0xF PUSH1 0xFB SHL DUP2 PUSH1 0x1 DUP2 MLOAD DUP2 LT PUSH2 0x2F21 JUMPI PUSH2 0x2F21 PUSH2 0x30AB JUMP JUMPDEST PUSH1 0x20 ADD ADD SWAP1 PUSH1 0x1 PUSH1 0x1 PUSH1 0xF8 SHL SUB NOT AND SWAP1 DUP2 PUSH0 BYTE SWAP1 MSTORE8 POP PUSH0 JUMPDEST PUSH1 0x14 DUP2 LT ISZERO PUSH2 0x29D4 JUMPI DUP4 PUSH1 0x4 DUP5 DUP4 PUSH1 0x14 DUP2 LT PUSH2 0x2F57 JUMPI PUSH2 0x2F57 PUSH2 0x30AB JUMP JUMPDEST BYTE PUSH1 0xF8 SHL PUSH1 0x1 PUSH1 0x1 PUSH1 0xF8 SHL SUB NOT AND SWAP1 SHR PUSH1 0xF8 SHR PUSH1 0xFF AND DUP2 MLOAD DUP2 LT PUSH2 0x2F7D JUMPI PUSH2 0x2F7D PUSH2 0x30AB JUMP JUMPDEST ADD PUSH1 0x20 ADD MLOAD PUSH1 0x1 PUSH1 0x1 PUSH1 0xF8 SHL SUB NOT AND DUP3 PUSH2 0x2F98 DUP4 PUSH1 0x2 PUSH2 0x33B7 JUMP JUMPDEST PUSH2 0x2FA3 SWAP1 PUSH1 0x2 PUSH2 0x30F1 JUMP JUMPDEST DUP2 MLOAD DUP2 LT PUSH2 0x2FB3 JUMPI PUSH2 0x2FB3 PUSH2 0x30AB JUMP JUMPDEST PUSH1 0x20 ADD ADD SWAP1 PUSH1 0x1 PUSH1 0x1 PUSH1 0xF8 SHL SUB NOT AND SWAP1 DUP2 PUSH0 BYTE SWAP1 MSTORE8 POP DUP4 DUP4 DUP3 PUSH1 0x14 DUP2 LT PUSH2 0x2FDC JUMPI PUSH2 0x2FDC PUSH2 0x30AB JUMP JUMPDEST DUP3 MLOAD SWAP2 SWAP1 BYTE PUSH1 0xF AND SWAP1 DUP2 LT PUSH2 0x2FF3 JUMPI PUSH2 0x2FF3 PUSH2 0x30AB JUMP JUMPDEST ADD PUSH1 0x20 ADD MLOAD PUSH1 0x1 PUSH1 0x1 PUSH1 0xF8 SHL SUB NOT AND DUP3 PUSH2 0x300E DUP4 PUSH1 0x2 PUSH2 0x33B7 JUMP JUMPDEST PUSH2 0x3019 SWAP1 PUSH1 0x3 PUSH2 0x30F1 JUMP JUMPDEST DUP2 MLOAD DUP2 LT PUSH2 0x3029 JUMPI PUSH2 0x3029 PUSH2 0x30AB JUMP JUMPDEST PUSH1 0x20 ADD ADD SWAP1 PUSH1 0x1 PUSH1 0x1 PUSH1 0xF8 SHL SUB NOT AND SWAP1 DUP2 PUSH0 BYTE SWAP1 MSTORE8 POP PUSH1 0x1 ADD PUSH2 0x2F39 JUMP JUMPDEST PUSH0 PUSH1 0x20 DUP3 DUP5 SUB SLT ISZERO PUSH2 0x3057 JUMPI PUSH0 DUP1 REVERT JUMPDEST DUP2 CALLDATALOAD PUSH1 0xFF DUP2 AND DUP2 EQ PUSH2 0x3067 JUMPI PUSH0 DUP1 REVERT JUMPDEST SWAP4 SWAP3 POP POP POP JUMP JUMPDEST PUSH0 PUSH1 0x20 DUP3 DUP5 SUB SLT ISZERO PUSH2 0x307E JUMPI PUSH0 DUP1 REVERT JUMPDEST POP CALLDATALOAD SWAP2 SWAP1 POP JUMP JUMPDEST PUSH0 PUSH1 0x20 DUP3 DUP5 SUB SLT ISZERO PUSH2 0x3095 JUMPI PUSH0 DUP1 REVERT JUMPDEST DUP2 CALLDATALOAD PUSH1 0x1 PUSH1 0x1 PUSH1 0xA0 SHL SUB DUP2 AND DUP2 EQ PUSH2 0x3067 JUMPI PUSH0 DUP1 REVERT JUMPDEST PUSH4 0x4E487B71 PUSH1 0xE0 SHL PUSH0 MSTORE PUSH1 0x32 PUSH1 0x4 MSTORE PUSH1 0x24 PUSH0 REVERT JUMPDEST PUSH4 0x4E487B71 PUSH1 0xE0 SHL PUSH0 MSTORE PUSH1 0x11 PUSH1 0x4 MSTORE PUSH1 0x24 PUSH0 REVERT JUMPDEST PUSH0 PUSH1 0xFF DUP3 AND PUSH1 0xFF DUP2 SUB PUSH2 0x30E8 JUMPI PUSH2 0x30E8 PUSH2 0x30BF JUMP JUMPDEST PUSH1 0x1 ADD SWAP3 SWAP2 POP POP JUMP JUMPDEST DUP1 DUP3 ADD DUP1 DUP3 GT ISZERO PUSH2 0x3104 JUMPI PUSH2 0x3104 PUSH2 0x30BF JUMP JUMPDEST SWAP3 SWAP2 POP POP JUMP JUMPDEST PUSH0 DUP2 MLOAD DUP1 PUSH1 0x20 DUP5 ADD DUP6 MCOPY PUSH0 SWAP4 ADD SWAP3 DUP4 MSTORE POP SWAP1 SWAP2 SWAP1 POP JUMP JUMPDEST PUSH0 PUSH2 0x312C DUP3 DUP6 PUSH2 0x310A JUMP JUMPDEST PUSH1 0x60 SWAP4 SWAP1 SWAP4 SHL PUSH1 0x1 PUSH1 0x1 PUSH1 0x60 SHL SUB NOT AND DUP4 MSTORE POP POP PUSH1 0x14 ADD SWAP2 SWAP1 POP JUMP JUMPDEST DUP3 DUP2 MSTORE PUSH0 PUSH2 0x3159 PUSH1 0x20 DUP4 ADD DUP5 PUSH2 0x310A JUMP JUMPDEST SWAP5 SWAP4 POP POP POP POP JUMP JUMPDEST PUSH4 0x4E487B71 PUSH1 0xE0 SHL PUSH0 MSTORE PUSH1 0x12 PUSH1 0x4 MSTORE PUSH1 0x24 PUSH0 REVERT JUMPDEST PUSH0 DUP3 PUSH2 0x3183 JUMPI PUSH2 0x3183 PUSH2 0x3161 JUMP JUMPDEST POP MOD SWAP1 JUMP JUMPDEST PUSH22 0x426C6F636B686173682066726F6D20626C6F636B2023 PUSH1 0x50 SHL DUP2 MSTORE PUSH0 PUSH2 0x31B2 PUSH1 0x16 DUP4 ADD DUP6 PUSH2 0x310A JUMP JUMPDEST PUSH2 0x1D1 PUSH1 0xF5 SHL DUP2 MSTORE PUSH2 0x31C7 PUSH1 0x2 DUP3 ADD DUP6 PUSH2 0x310A JUMP JUMPDEST PUSH32 0x202D20626173697320666F722072616E646F6D6E657373000000000000000000 DUP2 MSTORE PUSH1 0x17 ADD SWAP6 SWAP5 POP POP POP POP POP JUMP JUMPDEST PUSH0 DUP2 MLOAD DUP1 DUP5 MSTORE DUP1 PUSH1 0x20 DUP5 ADD PUSH1 0x20 DUP7 ADD MCOPY PUSH0 PUSH1 0x20 DUP3 DUP7 ADD ADD MSTORE PUSH1 0x20 PUSH1 0x1F NOT PUSH1 0x1F DUP4 ADD AND DUP6 ADD ADD SWAP2 POP POP SWAP3 SWAP2 POP POP JUMP JUMPDEST PUSH1 0xFF DUP5 AND DUP2 MSTORE PUSH1 0x60 PUSH1 0x20 DUP3 ADD MSTORE PUSH0 PUSH2 0x323F PUSH1 0x60 DUP4 ADD DUP6 PUSH2 0x31F6 JUMP JUMPDEST DUP3 DUP2 SUB PUSH1 0x40 DUP5 ADD MSTORE PUSH2 0x3251 DUP2 DUP6 PUSH2 0x31F6 JUMP JUMPDEST SWAP7 SWAP6 POP POP POP POP POP POP JUMP JUMPDEST PUSH4 0x4E487B71 PUSH1 0xE0 SHL PUSH0 MSTORE PUSH1 0x41 PUSH1 0x4 MSTORE PUSH1 0x24 PUSH0 REVERT JUMPDEST PUSH32 0x416464726573736573207573656420666F722072616E646F6D6E6573733A2000 DUP2 MSTORE PUSH0 PUSH2 0x3067 PUSH1 0x1F DUP4 ADD DUP5 PUSH2 0x310A JUMP JUMPDEST PUSH1 0x20 DUP1 DUP3 MSTORE DUP3 MLOAD DUP3 DUP3 ADD DUP2 SWAP1 MSTORE PUSH0 SWAP2 DUP5 ADD SWAP1 PUSH1 0x40 DUP5 ADD SWAP1 DUP4 JUMPDEST DUP2 DUP2 LT ISZERO PUSH2 0x32E0 JUMPI DUP4 MLOAD PUSH1 0x1 PUSH1 0x1 PUSH1 0xA0 SHL SUB AND DUP4 MSTORE PUSH1 0x20 SWAP4 DUP5 ADD SWAP4 SWAP1 SWAP3 ADD SWAP2 PUSH1 0x1 ADD PUSH2 0x32B9 JUMP JUMPDEST POP SWAP1 SWAP6 SWAP5 POP POP POP POP POP JUMP JUMPDEST PUSH32 0x5061636B65642064617461206F662061646472657373657320696E206865783A DUP2 MSTORE PUSH1 0x1 PUSH1 0xFD SHL PUSH1 0x20 DUP3 ADD MSTORE PUSH0 PUSH2 0x3067 PUSH1 0x21 DUP4 ADD DUP5 PUSH2 0x310A JUMP JUMPDEST PUSH32 0x4B656363616B323536206F66205B626C6F636B68617368202B207061636B6564 DUP2 MSTORE PUSH7 0x2230BA30AE9D1 PUSH1 0xCD SHL PUSH1 0x20 DUP3 ADD MSTORE PUSH0 PUSH2 0x3067 PUSH1 0x27 DUP4 ADD DUP5 PUSH2 0x310A JUMP JUMPDEST PUSH32 0x46696E616C2072616E646F6D206F7574636F6D6520286D6F6420000000000000 DUP2 MSTORE PUSH0 PUSH2 0x3398 PUSH1 0x1A DUP4 ADD DUP6 PUSH2 0x310A JUMP JUMPDEST PUSH3 0x149D1 PUSH1 0xED SHL DUP2 MSTORE PUSH2 0x33AE PUSH1 0x3 DUP3 ADD DUP6 PUSH2 0x310A JUMP JUMPDEST SWAP6 SWAP5 POP POP POP POP POP JUMP JUMPDEST DUP1 DUP3 MUL DUP2 ISZERO DUP3 DUP3 DIV DUP5 EQ OR PUSH2 0x3104 JUMPI PUSH2 0x3104 PUSH2 0x30BF JUMP JUMPDEST PUSH0 DUP3 PUSH2 0x33DC JUMPI PUSH2 0x33DC PUSH2 0x3161 JUMP JUMPDEST POP DIV SWAP1 JUMP JUMPDEST PUSH0 PUSH1 0x1 DUP3 ADD PUSH2 0x33F2 JUMPI PUSH2 0x33F2 PUSH2 0x30BF JUMP JUMPDEST POP PUSH1 0x1 ADD SWAP1 JUMP JUMPDEST PUSH0 DUP2 PUSH2 0x3407 JUMPI PUSH2 0x3407 PUSH2 0x30BF JUMP JUMPDEST POP PUSH0 NOT ADD SWAP1 JUMP JUMPDEST PUSH0 PUSH2 0x3159 PUSH2 0x341C DUP4 DUP7 PUSH2 0x310A JUMP JUMPDEST DUP5 PUSH2 0x310A JUMP JUMPDEST DUP2 DUP2 SUB DUP2 DUP2 GT ISZERO PUSH2 0x3104 JUMPI PUSH2 0x3104 PUSH2 0x30BF JUMP JUMPDEST PUSH0 PUSH2 0x3440 DUP3 DUP5 PUSH2 0x310A JUMP JUMPDEST PUSH2 0x161 PUSH1 0xF5 SHL DUP2 MSTORE PUSH1 0x2 ADD SWAP4 SWAP3 POP POP POP JUMP JUMPDEST PUSH0 PUSH2 0x345D DUP3 DUP5 PUSH2 0x310A JUMP JUMPDEST PUSH1 0x5D PUSH1 0xF8 SHL DUP2 MSTORE PUSH1 0x1 ADD SWAP4 SWAP3 POP POP POP JUMP INVALID INVALID 0xB6 0xD7 PUSH30 0x8663B36B3393E8790540B4EBE73ADE87F3146E450022712344DC7B3B9CFF PUSH6 0xD26C2C9E31C3 0xDD RETURN PUSH17 0xEEC9DCC1327976F78B3EEBF97CFD37ADC4 BASEFEE 0xCC CALLDATALOAD LOG2 PUSH5 0x6970667358 0x22 SLT KECCAK256 0x25 0xD2 DUP2 DUP10 SELFDESTRUCT 0x2F DUP7 RETURNDATACOPY SMOD TIMESTAMP DUP16 0x28 0xE1 0x1E AND 0xA6 0x4C 0xB2 CALL 0xCE PUSH22 0x771204B9171C953B494B3164736F6C634300081A0033 "
				},
				"gasEstimates": {
					"creation": {
						"codeDepositCost": "2708000",
						"executionCost": "infinite",
						"totalCost": "infinite"
					},
					"external": {
						"OPTION_BLACK_SET(uint256)": "4194",
						"OPTION_EVEN_SET(uint256)": "4194",
						"OPTION_FIRST_COLUMN_SET(uint256)": "4238",
						"OPTION_FIRST_DOZEN_SET(uint256)": "4174",
						"OPTION_HIGH_SET(uint256)": "4238",
						"OPTION_LOW_SET(uint256)": "4170",
						"OPTION_ODD_SET(uint256)": "4237",
						"OPTION_RED_SET(uint256)": "4195",
						"OPTION_SECOND_COLUMN_SET(uint256)": "4216",
						"OPTION_SECOND_DOZEN_SET(uint256)": "4173",
						"OPTION_THIRD_COLUMN_SET(uint256)": "4152",
						"OPTION_THIRD_DOZEN_SET(uint256)": "4129",
						"bets(uint256)": "6907",
						"cutOffBlockNumber()": "2449",
						"deposit()": "30151",
						"generateResult()": "infinite",
						"getBetsCount()": "2381",
						"getStatus()": "2395",
						"getTotalBetsAmount()": "infinite",
						"host()": "2468",
						"isInBlackSet(uint8)": "infinite",
						"isInEvenSet(uint8)": "infinite",
						"isInFirstColumnSet(uint8)": "infinite",
						"isInFirstDozenSet(uint8)": "infinite",
						"isInHighSet(uint8)": "infinite",
						"isInLowSet(uint8)": "infinite",
						"isInOddSet(uint8)": "infinite",
						"isInRedSet(uint8)": "infinite",
						"isInSecondColumnSet(uint8)": "infinite",
						"isInSecondDozenSet(uint8)": "infinite",
						"isInThirdColumnSet(uint8)": "infinite",
						"isInThirdDozenSet(uint8)": "infinite",
						"matchSigners(address)": "2592",
						"matchedValidators(uint256)": "4723",
						"maxBet()": "2340",
						"minBet()": "2339",
						"minDeposite()": "2362",
						"mismatchSigners(address)": "2527",
						"mismatchedValidators(uint256)": "4657",
						"noMoreBets()": "49795",
						"placeBet(uint8)": "124773",
						"result()": "2445",
						"settleBet()": "infinite",
						"status()": "2380",
						"validateResult()": "infinite",
						"validate_threshold()": "2391",
						"validators(uint256)": "4723"
					},
					"internal": {
						"_addressToString(address)": "infinite",
						"_addressesToString(address[] memory)": "infinite",
						"_bytes32ToHexString(bytes32)": "infinite",
						"_bytesToHexString(bytes memory)": "infinite",
						"_uint2str(uint256)": "infinite",
						"isValidator(address)": "infinite"
					}
				},
				"methodIdentifiers": {
					"OPTION_BLACK_SET(uint256)": "a6ede84a",
					"OPTION_EVEN_SET(uint256)": "d4f7a285",
					"OPTION_FIRST_COLUMN_SET(uint256)": "db7f11db",
					"OPTION_FIRST_DOZEN_SET(uint256)": "195ba0eb",
					"OPTION_HIGH_SET(uint256)": "be47ae13",
					"OPTION_LOW_SET(uint256)": "e8e0fca5",
					"OPTION_ODD_SET(uint256)": "fe5385af",
					"OPTION_RED_SET(uint256)": "23fe318e",
					"OPTION_SECOND_COLUMN_SET(uint256)": "b2513399",
					"OPTION_SECOND_DOZEN_SET(uint256)": "322f8920",
					"OPTION_THIRD_COLUMN_SET(uint256)": "19299832",
					"OPTION_THIRD_DOZEN_SET(uint256)": "1fac0ffd",
					"bets(uint256)": "22af00fa",
					"cutOffBlockNumber()": "6f91a66f",
					"deposit()": "d0e30db0",
					"generateResult()": "1dbe2e0e",
					"getBetsCount()": "8c7e347a",
					"getStatus()": "4e69d560",
					"getTotalBetsAmount()": "d1edb09e",
					"host()": "f437bc59",
					"isInBlackSet(uint8)": "5dcab1d8",
					"isInEvenSet(uint8)": "28dddc1b",
					"isInFirstColumnSet(uint8)": "12586172",
					"isInFirstDozenSet(uint8)": "4d7d93fe",
					"isInHighSet(uint8)": "e4ca650d",
					"isInLowSet(uint8)": "972b533d",
					"isInOddSet(uint8)": "d9cc76ad",
					"isInRedSet(uint8)": "4760fff3",
					"isInSecondColumnSet(uint8)": "8fffebca",
					"isInSecondDozenSet(uint8)": "2605c251",
					"isInThirdColumnSet(uint8)": "e71f766e",
					"isInThirdDozenSet(uint8)": "a38bd74c",
					"matchSigners(address)": "f2d18f42",
					"matchedValidators(uint256)": "8d8c1286",
					"maxBet()": "2e5b2168",
					"minBet()": "9619367d",
					"minDeposite()": "87171eb7",
					"mismatchSigners(address)": "cf3c5d16",
					"mismatchedValidators(uint256)": "7f3be3ed",
					"noMoreBets()": "1b2abc77",
					"placeBet(uint8)": "43046844",
					"result()": "65372147",
					"settleBet()": "8e4bf820",
					"status()": "200d2ed2",
					"validateResult()": "38cceb4f",
					"validate_threshold()": "2eca4c28",
					"validators(uint256)": "35aa2e44"
				}
			},
			"storageLayout": {
				"storage": [
					{
						"astId": 147,
						"contract": "RouletteGame.sol:RouletteGame",
						"label": "OPTION_LOW_SET",
						"offset": 0,
						"slot": "0",
						"type": "t_array(t_uint8)18_storage"
					},
					{
						"astId": 205,
						"contract": "RouletteGame.sol:RouletteGame",
						"label": "OPTION_HIGH_SET",
						"offset": 0,
						"slot": "1",
						"type": "t_array(t_uint8)18_storage"
					},
					{
						"astId": 263,
						"contract": "RouletteGame.sol:RouletteGame",
						"label": "OPTION_RED_SET",
						"offset": 0,
						"slot": "2",
						"type": "t_array(t_uint8)18_storage"
					},
					{
						"astId": 321,
						"contract": "RouletteGame.sol:RouletteGame",
						"label": "OPTION_BLACK_SET",
						"offset": 0,
						"slot": "3",
						"type": "t_array(t_uint8)18_storage"
					},
					{
						"astId": 379,
						"contract": "RouletteGame.sol:RouletteGame",
						"label": "OPTION_EVEN_SET",
						"offset": 0,
						"slot": "4",
						"type": "t_array(t_uint8)18_storage"
					},
					{
						"astId": 437,
						"contract": "RouletteGame.sol:RouletteGame",
						"label": "OPTION_ODD_SET",
						"offset": 0,
						"slot": "5",
						"type": "t_array(t_uint8)18_storage"
					},
					{
						"astId": 489,
						"contract": "RouletteGame.sol:RouletteGame",
						"label": "OPTION_FIRST_COLUMN_SET",
						"offset": 0,
						"slot": "6",
						"type": "t_array(t_uint8)12_storage"
					},
					{
						"astId": 541,
						"contract": "RouletteGame.sol:RouletteGame",
						"label": "OPTION_SECOND_COLUMN_SET",
						"offset": 0,
						"slot": "7",
						"type": "t_array(t_uint8)12_storage"
					},
					{
						"astId": 593,
						"contract": "RouletteGame.sol:RouletteGame",
						"label": "OPTION_THIRD_COLUMN_SET",
						"offset": 0,
						"slot": "8",
						"type": "t_array(t_uint8)12_storage"
					},
					{
						"astId": 645,
						"contract": "RouletteGame.sol:RouletteGame",
						"label": "OPTION_FIRST_DOZEN_SET",
						"offset": 0,
						"slot": "9",
						"type": "t_array(t_uint8)12_storage"
					},
					{
						"astId": 697,
						"contract": "RouletteGame.sol:RouletteGame",
						"label": "OPTION_SECOND_DOZEN_SET",
						"offset": 0,
						"slot": "10",
						"type": "t_array(t_uint8)12_storage"
					},
					{
						"astId": 749,
						"contract": "RouletteGame.sol:RouletteGame",
						"label": "OPTION_THIRD_DOZEN_SET",
						"offset": 0,
						"slot": "11",
						"type": "t_array(t_uint8)12_storage"
					},
					{
						"astId": 908,
						"contract": "RouletteGame.sol:RouletteGame",
						"label": "host",
						"offset": 0,
						"slot": "12",
						"type": "t_address"
					},
					{
						"astId": 910,
						"contract": "RouletteGame.sol:RouletteGame",
						"label": "minBet",
						"offset": 0,
						"slot": "13",
						"type": "t_uint256"
					},
					{
						"astId": 912,
						"contract": "RouletteGame.sol:RouletteGame",
						"label": "status",
						"offset": 0,
						"slot": "14",
						"type": "t_uint8"
					},
					{
						"astId": 916,
						"contract": "RouletteGame.sol:RouletteGame",
						"label": "bets",
						"offset": 0,
						"slot": "15",
						"type": "t_array(t_struct(Bet)906_storage)dyn_storage"
					},
					{
						"astId": 918,
						"contract": "RouletteGame.sol:RouletteGame",
						"label": "cutOffBlockNumber",
						"offset": 0,
						"slot": "16",
						"type": "t_uint256"
					},
					{
						"astId": 920,
						"contract": "RouletteGame.sol:RouletteGame",
						"label": "result",
						"offset": 0,
						"slot": "17",
						"type": "t_uint8"
					},
					{
						"astId": 922,
						"contract": "RouletteGame.sol:RouletteGame",
						"label": "validate_threshold",
						"offset": 1,
						"slot": "17",
						"type": "t_uint8"
					},
					{
						"astId": 925,
						"contract": "RouletteGame.sol:RouletteGame",
						"label": "validators",
						"offset": 0,
						"slot": "18",
						"type": "t_array(t_address)dyn_storage"
					},
					{
						"astId": 928,
						"contract": "RouletteGame.sol:RouletteGame",
						"label": "matchedValidators",
						"offset": 0,
						"slot": "19",
						"type": "t_array(t_address)dyn_storage"
					},
					{
						"astId": 931,
						"contract": "RouletteGame.sol:RouletteGame",
						"label": "mismatchedValidators",
						"offset": 0,
						"slot": "20",
						"type": "t_array(t_address)dyn_storage"
					},
					{
						"astId": 935,
						"contract": "RouletteGame.sol:RouletteGame",
						"label": "matchSigners",
						"offset": 0,
						"slot": "21",
						"type": "t_mapping(t_address,t_bool)"
					},
					{
						"astId": 939,
						"contract": "RouletteGame.sol:RouletteGame",
						"label": "mismatchSigners",
						"offset": 0,
						"slot": "22",
						"type": "t_mapping(t_address,t_bool)"
					},
					{
						"astId": 941,
						"contract": "RouletteGame.sol:RouletteGame",
						"label": "minDeposite",
						"offset": 0,
						"slot": "23",
						"type": "t_uint256"
					},
					{
						"astId": 943,
						"contract": "RouletteGame.sol:RouletteGame",
						"label": "maxBet",
						"offset": 0,
						"slot": "24",
						"type": "t_uint256"
					}
				],
				"types": {
					"t_address": {
						"encoding": "inplace",
						"label": "address",
						"numberOfBytes": "20"
					},
					"t_array(t_address)dyn_storage": {
						"base": "t_address",
						"encoding": "dynamic_array",
						"label": "address[]",
						"numberOfBytes": "32"
					},
					"t_array(t_struct(Bet)906_storage)dyn_storage": {
						"base": "t_struct(Bet)906_storage",
						"encoding": "dynamic_array",
						"label": "struct RouletteGame.Bet[]",
						"numberOfBytes": "32"
					},
					"t_array(t_uint8)12_storage": {
						"base": "t_uint8",
						"encoding": "inplace",
						"label": "uint8[12]",
						"numberOfBytes": "32"
					},
					"t_array(t_uint8)18_storage": {
						"base": "t_uint8",
						"encoding": "inplace",
						"label": "uint8[18]",
						"numberOfBytes": "32"
					},
					"t_bool": {
						"encoding": "inplace",
						"label": "bool",
						"numberOfBytes": "1"
					},
					"t_mapping(t_address,t_bool)": {
						"encoding": "mapping",
						"key": "t_address",
						"label": "mapping(address => bool)",
						"numberOfBytes": "32",
						"value": "t_bool"
					},
					"t_struct(Bet)906_storage": {
						"encoding": "inplace",
						"label": "struct RouletteGame.Bet",
						"members": [
							{
								"astId": 901,
								"contract": "RouletteGame.sol:RouletteGame",
								"label": "player",
								"offset": 0,
								"slot": "0",
								"type": "t_address"
							},
							{
								"astId": 903,
								"contract": "RouletteGame.sol:RouletteGame",
								"label": "option",
								"offset": 20,
								"slot": "0",
								"type": "t_uint8"
							},
							{
								"astId": 905,
								"contract": "RouletteGame.sol:RouletteGame",
								"label": "amount",
								"offset": 0,
								"slot": "1",
								"type": "t_uint256"
							}
						],
						"numberOfBytes": "64"
					},
					"t_uint256": {
						"encoding": "inplace",
						"label": "uint256",
						"numberOfBytes": "32"
					},
					"t_uint8": {
						"encoding": "inplace",
						"label": "uint8",
						"numberOfBytes": "1"
					}
				}
			},
			"userdoc": {
				"kind": "user",
				"methods": {},
				"version": 1
			}
		}
	}
}