{
	"Roulette.sol": {
		"Roulette": {
			"abi": [
				{
					"inputs": [
						{
							"internalType": "uint256",
							"name": "_minBet",
							"type": "uint256"
						}
					],
					"stateMutability": "nonpayable",
					"type": "constructor"
				},
				{
					"anonymous": false,
					"inputs": [
						{
							"indexed": true,
							"internalType": "address",
							"name": "player",
							"type": "address"
						},
						{
							"indexed": false,
							"internalType": "uint8",
							"name": "number",
							"type": "uint8"
						},
						{
							"indexed": false,
							"internalType": "uint256",
							"name": "amount",
							"type": "uint256"
						}
					],
					"name": "BetPlaced",
					"type": "event"
				},
				{
					"anonymous": false,
					"inputs": [
						{
							"indexed": true,
							"internalType": "address",
							"name": "house",
							"type": "address"
						},
						{
							"indexed": false,
							"internalType": "uint256",
							"name": "amount",
							"type": "uint256"
						}
					],
					"name": "HouseProfit",
					"type": "event"
				},
				{
					"anonymous": false,
					"inputs": [
						{
							"indexed": true,
							"internalType": "address",
							"name": "player",
							"type": "address"
						},
						{
							"indexed": false,
							"internalType": "uint256",
							"name": "amount",
							"type": "uint256"
						}
					],
					"name": "Payout",
					"type": "event"
				},
				{
					"anonymous": false,
					"inputs": [
						{
							"indexed": false,
							"internalType": "uint8",
							"name": "winningNumber",
							"type": "uint8"
						}
					],
					"name": "SpinResult",
					"type": "event"
				},
				{
					"anonymous": false,
					"inputs": [
						{
							"indexed": true,
							"internalType": "uint256",
							"name": "spinBlockNumber",
							"type": "uint256"
						}
					],
					"name": "SpinScheduled",
					"type": "event"
				},
				{
					"inputs": [
						{
							"internalType": "uint256",
							"name": "",
							"type": "uint256"
						}
					],
					"name": "bets",
					"outputs": [
						{
							"internalType": "address",
							"name": "player",
							"type": "address"
						},
						{
							"internalType": "uint8",
							"name": "number",
							"type": "uint8"
						},
						{
							"internalType": "uint256",
							"name": "amount",
							"type": "uint256"
						}
					],
					"stateMutability": "view",
					"type": "function"
				},
				{
					"inputs": [],
					"name": "finalizeSpin",
					"outputs": [],
					"stateMutability": "nonpayable",
					"type": "function"
				},
				{
					"inputs": [],
					"name": "getCurrentBets",
					"outputs": [
						{
							"components": [
								{
									"internalType": "address",
									"name": "player",
									"type": "address"
								},
								{
									"internalType": "uint8",
									"name": "number",
									"type": "uint8"
								},
								{
									"internalType": "uint256",
									"name": "amount",
									"type": "uint256"
								}
							],
							"internalType": "struct Roulette.Bet[]",
							"name": "",
							"type": "tuple[]"
						}
					],
					"stateMutability": "view",
					"type": "function"
				},
				{
					"inputs": [],
					"name": "getNumberOfBets",
					"outputs": [
						{
							"internalType": "uint256",
							"name": "",
							"type": "uint256"
						}
					],
					"stateMutability": "view",
					"type": "function"
				},
				{
					"inputs": [],
					"name": "minBet",
					"outputs": [
						{
							"internalType": "uint256",
							"name": "",
							"type": "uint256"
						}
					],
					"stateMutability": "view",
					"type": "function"
				},
				{
					"inputs": [],
					"name": "owner",
					"outputs": [
						{
							"internalType": "address",
							"name": "",
							"type": "address"
						}
					],
					"stateMutability": "view",
					"type": "function"
				},
				{
					"inputs": [
						{
							"internalType": "uint8",
							"name": "number",
							"type": "uint8"
						}
					],
					"name": "placeBet",
					"outputs": [],
					"stateMutability": "payable",
					"type": "function"
				},
				{
					"inputs": [
						{
							"internalType": "uint256",
							"name": "_newMinBet",
							"type": "uint256"
						}
					],
					"name": "setMinBet",
					"outputs": [],
					"stateMutability": "nonpayable",
					"type": "function"
				},
				{
					"inputs": [],
					"name": "spinBlockNumber",
					"outputs": [
						{
							"internalType": "uint256",
							"name": "",
							"type": "uint256"
						}
					],
					"stateMutability": "view",
					"type": "function"
				},
				{
					"inputs": [],
					"name": "spinInProgress",
					"outputs": [
						{
							"internalType": "bool",
							"name": "",
							"type": "bool"
						}
					],
					"stateMutability": "view",
					"type": "function"
				},
				{
					"inputs": [],
					"name": "spinWheel",
					"outputs": [],
					"stateMutability": "nonpayable",
					"type": "function"
				},
				{
					"inputs": [
						{
							"internalType": "uint256",
							"name": "_amount",
							"type": "uint256"
						}
					],
					"name": "withdrawHouseFunds",
					"outputs": [],
					"stateMutability": "nonpayable",
					"type": "function"
				},
				{
					"stateMutability": "payable",
					"type": "receive"
				}
			],
			"devdoc": {
				"kind": "dev",
				"methods": {
					"constructor": {
						"details": "Constructor sets the initial owner (house) and minimum bet.",
						"params": {
							"_minBet": "The minimum bet size required."
						}
					},
					"finalizeSpin()": {
						"details": "2nd step: Finalize the spin, using blockhash(spinBlockNumber) as our pseudo-random seed. You must wait until AFTER `spinBlockNumber` is mined (i.e., block >= spinBlockNumber). If you wait too long (> 256 blocks), blockhash will return bytes32(0)."
					},
					"getCurrentBets()": {
						"details": "For large arrays, consider pagination or other indexing to avoid gas limit issues."
					},
					"placeBet(uint8)": {
						"params": {
							"number": "The roulette number on which the user wants to bet (0-36)."
						}
					},
					"setMinBet(uint256)": {
						"params": {
							"_newMinBet": "New minimum bet amount."
						}
					},
					"spinWheel()": {
						"details": "1st step: Schedule the spin. We'll wait 7 blocks, then finalize. - Sets spinBlockNumber = current block + 7. - That means in ~7 blocks from now, `finalizeSpin()` can fetch the blockhash."
					}
				},
				"title": "Roulette",
				"version": 1
			},
			"evm": {
				"assembly": "    /* \"Roulette.sol\":186:6922  contract Roulette {... */\n  mstore(0x40, 0x80)\n    /* \"Roulette.sol\":1862:1955  constructor(uint256 _minBet) {... */\n  callvalue\n  dup1\n  iszero\n  tag_1\n  jumpi\n  0x00\n  dup1\n  revert\ntag_1:\n  pop\n  mload(0x40)\n  sub(codesize, bytecodeSize)\n  dup1\n  bytecodeSize\n  dup4\n  codecopy\n  dup2\n  dup2\n  add\n  0x40\n  mstore\n  dup2\n  add\n  swap1\n  tag_2\n  swap2\n  swap1\n  tag_3\n  jump\t// in\ntag_2:\n    /* \"Roulette.sol\":1910:1920  msg.sender */\n  caller\n    /* \"Roulette.sol\":1902:1907  owner */\n  0x02\n  0x00\n    /* \"Roulette.sol\":1902:1920  owner = msg.sender */\n  0x0100\n  exp\n  dup2\n  sload\n  dup2\n  0xffffffffffffffffffffffffffffffffffffffff\n  mul\n  not\n  and\n  swap1\n  dup4\n  0xffffffffffffffffffffffffffffffffffffffff\n  and\n  mul\n  or\n  swap1\n  sstore\n  pop\n    /* \"Roulette.sol\":1940:1947  _minBet */\n  dup1\n    /* \"Roulette.sol\":1931:1937  minBet */\n  0x01\n    /* \"Roulette.sol\":1931:1947  minBet = _minBet */\n  dup2\n  swap1\n  sstore\n  pop\n    /* \"Roulette.sol\":1862:1955  constructor(uint256 _minBet) {... */\n  pop\n    /* \"Roulette.sol\":186:6922  contract Roulette {... */\n  jump(tag_6)\n    /* \"#utility.yul\":88:205   */\ntag_8:\n    /* \"#utility.yul\":197:198   */\n  0x00\n    /* \"#utility.yul\":194:195   */\n  dup1\n    /* \"#utility.yul\":187:199   */\n  revert\n    /* \"#utility.yul\":334:411   */\ntag_10:\n    /* \"#utility.yul\":371:378   */\n  0x00\n    /* \"#utility.yul\":400:405   */\n  dup2\n    /* \"#utility.yul\":389:405   */\n  swap1\n  pop\n    /* \"#utility.yul\":334:411   */\n  swap2\n  swap1\n  pop\n  jump\t// out\n    /* \"#utility.yul\":417:539   */\ntag_11:\n    /* \"#utility.yul\":490:514   */\n  tag_19\n    /* \"#utility.yul\":508:513   */\n  dup2\n    /* \"#utility.yul\":490:514   */\n  tag_10\n  jump\t// in\ntag_19:\n    /* \"#utility.yul\":483:488   */\n  dup2\n    /* \"#utility.yul\":480:515   */\n  eq\n    /* \"#utility.yul\":470:533   */\n  tag_20\n  jumpi\n    /* \"#utility.yul\":529:530   */\n  0x00\n    /* \"#utility.yul\":526:527   */\n  dup1\n    /* \"#utility.yul\":519:531   */\n  revert\n    /* \"#utility.yul\":470:533   */\ntag_20:\n    /* \"#utility.yul\":417:539   */\n  pop\n  jump\t// out\n    /* \"#utility.yul\":545:688   */\ntag_12:\n    /* \"#utility.yul\":602:607   */\n  0x00\n    /* \"#utility.yul\":633:639   */\n  dup2\n    /* \"#utility.yul\":627:640   */\n  mload\n    /* \"#utility.yul\":618:640   */\n  swap1\n  pop\n    /* \"#utility.yul\":649:682   */\n  tag_22\n    /* \"#utility.yul\":676:681   */\n  dup2\n    /* \"#utility.yul\":649:682   */\n  tag_11\n  jump\t// in\ntag_22:\n    /* \"#utility.yul\":545:688   */\n  swap3\n  swap2\n  pop\n  pop\n  jump\t// out\n    /* \"#utility.yul\":694:1045   */\ntag_3:\n    /* \"#utility.yul\":764:770   */\n  0x00\n    /* \"#utility.yul\":813:815   */\n  0x20\n    /* \"#utility.yul\":801:810   */\n  dup3\n    /* \"#utility.yul\":792:799   */\n  dup5\n    /* \"#utility.yul\":788:811   */\n  sub\n    /* \"#utility.yul\":784:816   */\n  slt\n    /* \"#utility.yul\":781:900   */\n  iszero\n  tag_24\n  jumpi\n    /* \"#utility.yul\":819:898   */\n  tag_25\n  tag_8\n  jump\t// in\ntag_25:\n    /* \"#utility.yul\":781:900   */\ntag_24:\n    /* \"#utility.yul\":939:940   */\n  0x00\n    /* \"#utility.yul\":964:1028   */\n  tag_26\n    /* \"#utility.yul\":1020:1027   */\n  dup5\n    /* \"#utility.yul\":1011:1017   */\n  dup3\n    /* \"#utility.yul\":1000:1009   */\n  dup6\n    /* \"#utility.yul\":996:1018   */\n  add\n    /* \"#utility.yul\":964:1028   */\n  tag_12\n  jump\t// in\ntag_26:\n    /* \"#utility.yul\":954:1028   */\n  swap2\n  pop\n    /* \"#utility.yul\":910:1038   */\n  pop\n    /* \"#utility.yul\":694:1045   */\n  swap3\n  swap2\n  pop\n  pop\n  jump\t// out\n    /* \"Roulette.sol\":186:6922  contract Roulette {... */\ntag_6:\n  dataSize(sub_0)\n  dup1\n  dataOffset(sub_0)\n  0x00\n  codecopy\n  0x00\n  return\nstop\n\nsub_0: assembly {\n        /* \"Roulette.sol\":186:6922  contract Roulette {... */\n      mstore(0x40, 0x80)\n      jumpi(tag_1, lt(calldatasize, 0x04))\n      shr(0xe0, calldataload(0x00))\n      dup1\n      0x7d59441a\n      gt\n      tag_15\n      jumpi\n      dup1\n      0x7d59441a\n      eq\n      tag_9\n      jumpi\n      dup1\n      0x88ea41b9\n      eq\n      tag_10\n      jumpi\n      dup1\n      0x8da5cb5b\n      eq\n      tag_11\n      jumpi\n      dup1\n      0x9619367d\n      eq\n      tag_12\n      jumpi\n      dup1\n      0xa89f5e44\n      eq\n      tag_13\n      jumpi\n      dup1\n      0xf222d0b9\n      eq\n      tag_14\n      jumpi\n      jump(tag_2)\n    tag_15:\n      dup1\n      0x4e1639\n      eq\n      tag_3\n      jumpi\n      dup1\n      0x15ecef92\n      eq\n      tag_4\n      jumpi\n      dup1\n      0x22af00fa\n      eq\n      tag_5\n      jumpi\n      dup1\n      0x2907e62c\n      eq\n      tag_6\n      jumpi\n      dup1\n      0x3b4ca5d2\n      eq\n      tag_7\n      jumpi\n      dup1\n      0x43046844\n      eq\n      tag_8\n      jumpi\n      jump(tag_2)\n    tag_1:\n      jumpi(tag_2, calldatasize)\n      stop\n    tag_2:\n      0x00\n      dup1\n      revert\n        /* \"Roulette.sol\":935:961  bool public spinInProgress */\n    tag_3:\n      callvalue\n      dup1\n      iszero\n      tag_18\n      jumpi\n      0x00\n      dup1\n      revert\n    tag_18:\n      pop\n      tag_19\n      tag_20\n      jump\t// in\n    tag_19:\n      mload(0x40)\n      tag_21\n      swap2\n      swap1\n      tag_22\n      jump\t// in\n    tag_21:\n      mload(0x40)\n      dup1\n      swap2\n      sub\n      swap1\n      return\n        /* \"Roulette.sol\":2899:3238  function spinWheel() external onlyOwner {... */\n    tag_4:\n      callvalue\n      dup1\n      iszero\n      tag_23\n      jumpi\n      0x00\n      dup1\n      revert\n    tag_23:\n      pop\n      tag_24\n      tag_25\n      jump\t// in\n    tag_24:\n      stop\n        /* \"Roulette.sol\":587:604  Bet[] public bets */\n    tag_5:\n      callvalue\n      dup1\n      iszero\n      tag_26\n      jumpi\n      0x00\n      dup1\n      revert\n    tag_26:\n      pop\n      tag_27\n      0x04\n      dup1\n      calldatasize\n      sub\n      dup2\n      add\n      swap1\n      tag_28\n      swap2\n      swap1\n      tag_29\n      jump\t// in\n    tag_28:\n      tag_30\n      jump\t// in\n    tag_27:\n      mload(0x40)\n      tag_31\n      swap4\n      swap3\n      swap2\n      swap1\n      tag_32\n      jump\t// in\n    tag_31:\n      mload(0x40)\n      dup1\n      swap2\n      sub\n      swap1\n      return\n        /* \"Roulette.sol\":818:848  uint256 public spinBlockNumber */\n    tag_6:\n      callvalue\n      dup1\n      iszero\n      tag_33\n      jumpi\n      0x00\n      dup1\n      revert\n    tag_33:\n      pop\n      tag_34\n      tag_35\n      jump\t// in\n    tag_34:\n      mload(0x40)\n      tag_36\n      swap2\n      swap1\n      tag_37\n      jump\t// in\n    tag_36:\n      mload(0x40)\n      dup1\n      swap2\n      sub\n      swap1\n      return\n        /* \"Roulette.sol\":6115:6208  function getCurrentBets() external view returns (Bet[] memory) {... */\n    tag_7:\n      callvalue\n      dup1\n      iszero\n      tag_38\n      jumpi\n      0x00\n      dup1\n      revert\n    tag_38:\n      pop\n      tag_39\n      tag_40\n      jump\t// in\n    tag_39:\n      mload(0x40)\n      tag_41\n      swap2\n      swap1\n      tag_42\n      jump\t// in\n    tag_41:\n      mload(0x40)\n      dup1\n      swap2\n      sub\n      swap1\n      return\n        /* \"Roulette.sol\":2245:2643  function placeBet(uint8 number) external payable {... */\n    tag_8:\n      tag_43\n      0x04\n      dup1\n      calldatasize\n      sub\n      dup2\n      add\n      swap1\n      tag_44\n      swap2\n      swap1\n      tag_45\n      jump\t// in\n    tag_44:\n      tag_46\n      jump\t// in\n    tag_43:\n      stop\n        /* \"Roulette.sol\":6545:6808  function withdrawHouseFunds(uint256 _amount) external onlyOwner {... */\n    tag_9:\n      callvalue\n      dup1\n      iszero\n      tag_47\n      jumpi\n      0x00\n      dup1\n      revert\n    tag_47:\n      pop\n      tag_48\n      0x04\n      dup1\n      calldatasize\n      sub\n      dup2\n      add\n      swap1\n      tag_49\n      swap2\n      swap1\n      tag_29\n      jump\t// in\n    tag_49:\n      tag_50\n      jump\t// in\n    tag_48:\n      stop\n        /* \"Roulette.sol\":6337:6433  function setMinBet(uint256 _newMinBet) external onlyOwner {... */\n    tag_10:\n      callvalue\n      dup1\n      iszero\n      tag_51\n      jumpi\n      0x00\n      dup1\n      revert\n    tag_51:\n      pop\n      tag_52\n      0x04\n      dup1\n      calldatasize\n      sub\n      dup2\n      add\n      swap1\n      tag_53\n      swap2\n      swap1\n      tag_29\n      jump\t// in\n    tag_53:\n      tag_54\n      jump\t// in\n    tag_52:\n      stop\n        /* \"Roulette.sol\":718:738  address public owner */\n    tag_11:\n      callvalue\n      dup1\n      iszero\n      tag_55\n      jumpi\n      0x00\n      dup1\n      revert\n    tag_55:\n      pop\n      tag_56\n      tag_57\n      jump\t// in\n    tag_56:\n      mload(0x40)\n      tag_58\n      swap2\n      swap1\n      tag_59\n      jump\t// in\n    tag_58:\n      mload(0x40)\n      dup1\n      swap2\n      sub\n      swap1\n      return\n        /* \"Roulette.sol\":650:671  uint256 public minBet */\n    tag_12:\n      callvalue\n      dup1\n      iszero\n      tag_60\n      jumpi\n      0x00\n      dup1\n      revert\n    tag_60:\n      pop\n      tag_61\n      tag_62\n      jump\t// in\n    tag_61:\n      mload(0x40)\n      tag_63\n      swap2\n      swap1\n      tag_37\n      jump\t// in\n    tag_63:\n      mload(0x40)\n      dup1\n      swap2\n      sub\n      swap1\n      return\n        /* \"Roulette.sol\":3548:5636  function finalizeSpin() external onlyOwner {... */\n    tag_13:\n      callvalue\n      dup1\n      iszero\n      tag_64\n      jumpi\n      0x00\n      dup1\n      revert\n    tag_64:\n      pop\n      tag_65\n      tag_66\n      jump\t// in\n    tag_65:\n      stop\n        /* \"Roulette.sol\":5854:5950  function getNumberOfBets() external view returns (uint256) {... */\n    tag_14:\n      callvalue\n      dup1\n      iszero\n      tag_67\n      jumpi\n      0x00\n      dup1\n      revert\n    tag_67:\n      pop\n      tag_68\n      tag_69\n      jump\t// in\n    tag_68:\n      mload(0x40)\n      tag_70\n      swap2\n      swap1\n      tag_37\n      jump\t// in\n    tag_70:\n      mload(0x40)\n      dup1\n      swap2\n      sub\n      swap1\n      return\n        /* \"Roulette.sol\":935:961  bool public spinInProgress */\n    tag_20:\n      0x04\n      0x00\n      swap1\n      sload\n      swap1\n      0x0100\n      exp\n      swap1\n      div\n      0xff\n      and\n      dup2\n      jump\t// out\n        /* \"Roulette.sol\":2899:3238  function spinWheel() external onlyOwner {... */\n    tag_25:\n        /* \"Roulette.sol\":1128:1133  owner */\n      0x02\n      0x00\n      swap1\n      sload\n      swap1\n      0x0100\n      exp\n      swap1\n      div\n      0xffffffffffffffffffffffffffffffffffffffff\n      and\n        /* \"Roulette.sol\":1114:1133  msg.sender == owner */\n      0xffffffffffffffffffffffffffffffffffffffff\n      and\n        /* \"Roulette.sol\":1114:1124  msg.sender */\n      caller\n        /* \"Roulette.sol\":1114:1133  msg.sender == owner */\n      0xffffffffffffffffffffffffffffffffffffffff\n      and\n      eq\n        /* \"Roulette.sol\":1106:1175  require(msg.sender == owner, \"Only the owner can call this function\") */\n      tag_72\n      jumpi\n      mload(0x40)\n      0x08c379a000000000000000000000000000000000000000000000000000000000\n      dup2\n      mstore\n      0x04\n      add\n      tag_73\n      swap1\n      tag_74\n      jump\t// in\n    tag_73:\n      mload(0x40)\n      dup1\n      swap2\n      sub\n      swap1\n      revert\n    tag_72:\n        /* \"Roulette.sol\":2959:2973  spinInProgress */\n      0x04\n      0x00\n      swap1\n      sload\n      swap1\n      0x0100\n      exp\n      swap1\n      div\n      0xff\n      and\n        /* \"Roulette.sol\":2958:2973  !spinInProgress */\n      iszero\n        /* \"Roulette.sol\":2950:3002  require(!spinInProgress, \"Spin already in progress\") */\n      tag_76\n      jumpi\n      mload(0x40)\n      0x08c379a000000000000000000000000000000000000000000000000000000000\n      dup2\n      mstore\n      0x04\n      add\n      tag_77\n      swap1\n      tag_78\n      jump\t// in\n    tag_77:\n      mload(0x40)\n      dup1\n      swap2\n      sub\n      swap1\n      revert\n    tag_76:\n        /* \"Roulette.sol\":3035:3036  0 */\n      0x00\n        /* \"Roulette.sol\":3021:3025  bets */\n      dup1\n        /* \"Roulette.sol\":3021:3032  bets.length */\n      dup1\n      sload\n      swap1\n      pop\n        /* \"Roulette.sol\":3021:3036  bets.length > 0 */\n      gt\n        /* \"Roulette.sol\":3013:3055  require(bets.length > 0, \"No bets placed\") */\n      tag_79\n      jumpi\n      mload(0x40)\n      0x08c379a000000000000000000000000000000000000000000000000000000000\n      dup2\n      mstore\n      0x04\n      add\n      tag_80\n      swap1\n      tag_81\n      jump\t// in\n    tag_80:\n      mload(0x40)\n      dup1\n      swap2\n      sub\n      swap1\n      revert\n    tag_79:\n        /* \"Roulette.sol\":3149:3150  7 */\n      0x07\n        /* \"Roulette.sol\":3134:3146  block.number */\n      number\n        /* \"Roulette.sol\":3134:3150  block.number + 7 */\n      tag_82\n      swap2\n      swap1\n      tag_83\n      jump\t// in\n    tag_82:\n        /* \"Roulette.sol\":3116:3131  spinBlockNumber */\n      0x03\n        /* \"Roulette.sol\":3116:3150  spinBlockNumber = block.number + 7 */\n      dup2\n      swap1\n      sstore\n      pop\n        /* \"Roulette.sol\":3178:3182  true */\n      0x01\n        /* \"Roulette.sol\":3161:3175  spinInProgress */\n      0x04\n      0x00\n        /* \"Roulette.sol\":3161:3182  spinInProgress = true */\n      0x0100\n      exp\n      dup2\n      sload\n      dup2\n      0xff\n      mul\n      not\n      and\n      swap1\n      dup4\n      iszero\n      iszero\n      mul\n      or\n      swap1\n      sstore\n      pop\n        /* \"Roulette.sol\":3214:3229  spinBlockNumber */\n      sload(0x03)\n        /* \"Roulette.sol\":3200:3230  SpinScheduled(spinBlockNumber) */\n      0x9558f786996d7e66b128ffd9573973279e17ae6683c7983ce0ce84bd897d5aa2\n      mload(0x40)\n      mload(0x40)\n      dup1\n      swap2\n      sub\n      swap1\n      log2\n        /* \"Roulette.sol\":2899:3238  function spinWheel() external onlyOwner {... */\n      jump\t// out\n        /* \"Roulette.sol\":587:604  Bet[] public bets */\n    tag_30:\n      0x00\n      dup2\n      dup2\n      sload\n      dup2\n      lt\n      tag_84\n      jumpi\n      0x00\n      dup1\n      revert\n    tag_84:\n      swap1\n      0x00\n      mstore\n      keccak256(0x00, 0x20)\n      swap1\n      0x02\n      mul\n      add\n      0x00\n      swap2\n      pop\n      swap1\n      pop\n      dup1\n      0x00\n      add\n      0x00\n      swap1\n      sload\n      swap1\n      0x0100\n      exp\n      swap1\n      div\n      0xffffffffffffffffffffffffffffffffffffffff\n      and\n      swap1\n      dup1\n      0x00\n      add\n      0x14\n      swap1\n      sload\n      swap1\n      0x0100\n      exp\n      swap1\n      div\n      0xff\n      and\n      swap1\n      dup1\n      0x01\n      add\n      sload\n      swap1\n      pop\n      dup4\n      jump\t// out\n        /* \"Roulette.sol\":818:848  uint256 public spinBlockNumber */\n    tag_35:\n      sload(0x03)\n      dup2\n      jump\t// out\n        /* \"Roulette.sol\":6115:6208  function getCurrentBets() external view returns (Bet[] memory) {... */\n    tag_40:\n        /* \"Roulette.sol\":6164:6176  Bet[] memory */\n      0x60\n        /* \"Roulette.sol\":6196:6200  bets */\n      0x00\n        /* \"Roulette.sol\":6189:6200  return bets */\n      dup1\n      sload\n      dup1\n      0x20\n      mul\n      0x20\n      add\n      mload(0x40)\n      swap1\n      dup2\n      add\n      0x40\n      mstore\n      dup1\n      swap3\n      swap2\n      swap1\n      dup2\n      dup2\n      mstore\n      0x20\n      add\n      0x00\n      swap1\n    tag_87:\n      dup3\n      dup3\n      lt\n      iszero\n      tag_88\n      jumpi\n      dup4\n      dup3\n      swap1\n      0x00\n      mstore\n      keccak256(0x00, 0x20)\n      swap1\n      0x02\n      mul\n      add\n      mload(0x40)\n      dup1\n      0x60\n      add\n      0x40\n      mstore\n      swap1\n      dup2\n      0x00\n      dup3\n      add\n      0x00\n      swap1\n      sload\n      swap1\n      0x0100\n      exp\n      swap1\n      div\n      0xffffffffffffffffffffffffffffffffffffffff\n      and\n      0xffffffffffffffffffffffffffffffffffffffff\n      and\n      0xffffffffffffffffffffffffffffffffffffffff\n      and\n      dup2\n      mstore\n      0x20\n      add\n      0x00\n      dup3\n      add\n      0x14\n      swap1\n      sload\n      swap1\n      0x0100\n      exp\n      swap1\n      div\n      0xff\n      and\n      0xff\n      and\n      0xff\n      and\n      dup2\n      mstore\n      0x20\n      add\n      0x01\n      dup3\n      add\n      sload\n      dup2\n      mstore\n      pop\n      pop\n      dup2\n      mstore\n      0x20\n      add\n      swap1\n      0x01\n      add\n      swap1\n      jump(tag_87)\n    tag_88:\n      pop\n      pop\n      pop\n      pop\n      swap1\n      pop\n        /* \"Roulette.sol\":6115:6208  function getCurrentBets() external view returns (Bet[] memory) {... */\n      swap1\n      jump\t// out\n        /* \"Roulette.sol\":2245:2643  function placeBet(uint8 number) external payable {... */\n    tag_46:\n        /* \"Roulette.sol\":2323:2325  36 */\n      0x24\n        /* \"Roulette.sol\":2313:2319  number */\n      dup2\n        /* \"Roulette.sol\":2313:2325  number <= 36 */\n      0xff\n      and\n      gt\n      iszero\n        /* \"Roulette.sol\":2305:2361  require(number <= 36, \"Number must be between 0 and 36\") */\n      tag_91\n      jumpi\n      mload(0x40)\n      0x08c379a000000000000000000000000000000000000000000000000000000000\n      dup2\n      mstore\n      0x04\n      add\n      tag_92\n      swap1\n      tag_93\n      jump\t// in\n    tag_92:\n      mload(0x40)\n      dup1\n      swap2\n      sub\n      swap1\n      revert\n    tag_91:\n        /* \"Roulette.sol\":2393:2399  minBet */\n      sload(0x01)\n        /* \"Roulette.sol\":2380:2389  msg.value */\n      callvalue\n        /* \"Roulette.sol\":2380:2399  msg.value >= minBet */\n      lt\n      iszero\n        /* \"Roulette.sol\":2372:2439  require(msg.value >= minBet, \"Bet amount is below the minimum bet\") */\n      tag_94\n      jumpi\n      mload(0x40)\n      0x08c379a000000000000000000000000000000000000000000000000000000000\n      dup2\n      mstore\n      0x04\n      add\n      tag_95\n      swap1\n      tag_96\n      jump\t// in\n    tag_95:\n      mload(0x40)\n      dup1\n      swap2\n      sub\n      swap1\n      revert\n    tag_94:\n        /* \"Roulette.sol\":2452:2456  bets */\n      0x00\n        /* \"Roulette.sol\":2462:2576  Bet({ ... */\n      mload(0x40)\n      dup1\n      0x60\n      add\n      0x40\n      mstore\n      dup1\n        /* \"Roulette.sol\":2490:2500  msg.sender */\n      caller\n        /* \"Roulette.sol\":2462:2576  Bet({ ... */\n      0xffffffffffffffffffffffffffffffffffffffff\n      and\n      dup2\n      mstore\n      0x20\n      add\n        /* \"Roulette.sol\":2524:2530  number */\n      dup4\n        /* \"Roulette.sol\":2462:2576  Bet({ ... */\n      0xff\n      and\n      dup2\n      mstore\n      0x20\n      add\n        /* \"Roulette.sol\":2554:2563  msg.value */\n      callvalue\n        /* \"Roulette.sol\":2462:2576  Bet({ ... */\n      dup2\n      mstore\n      pop\n        /* \"Roulette.sol\":2452:2577  bets.push(Bet({ ... */\n      swap1\n      dup1\n      0x01\n      dup2\n      sload\n      add\n      dup1\n      dup3\n      sstore\n      dup1\n      swap2\n      pop\n      pop\n      0x01\n      swap1\n      sub\n      swap1\n      0x00\n      mstore\n      keccak256(0x00, 0x20)\n      swap1\n      0x02\n      mul\n      add\n      0x00\n      swap1\n      swap2\n      swap1\n      swap2\n      swap1\n      swap2\n      pop\n      0x00\n      dup3\n      add\n      mload\n      dup2\n      0x00\n      add\n      exp(0x0100, 0x00)\n      dup2\n      sload\n      dup2\n      0xffffffffffffffffffffffffffffffffffffffff\n      mul\n      not\n      and\n      swap1\n      dup4\n      0xffffffffffffffffffffffffffffffffffffffff\n      and\n      mul\n      or\n      swap1\n      sstore\n      pop\n      0x20\n      dup3\n      add\n      mload\n      dup2\n      0x00\n      add\n      exp(0x0100, 0x14)\n      dup2\n      sload\n      dup2\n      0xff\n      mul\n      not\n      and\n      swap1\n      dup4\n      0xff\n      and\n      mul\n      or\n      swap1\n      sstore\n      pop\n      0x40\n      dup3\n      add\n      mload\n      dup2\n      0x01\n      add\n      sstore\n      pop\n      pop\n        /* \"Roulette.sol\":2605:2615  msg.sender */\n      caller\n        /* \"Roulette.sol\":2595:2635  BetPlaced(msg.sender, number, msg.value) */\n      0xffffffffffffffffffffffffffffffffffffffff\n      and\n      0x9f6b4cced64244a64465098f682029975b1614400b96bc6bd12c668083719166\n        /* \"Roulette.sol\":2617:2623  number */\n      dup3\n        /* \"Roulette.sol\":2625:2634  msg.value */\n      callvalue\n        /* \"Roulette.sol\":2595:2635  BetPlaced(msg.sender, number, msg.value) */\n      mload(0x40)\n      tag_98\n      swap3\n      swap2\n      swap1\n      tag_99\n      jump\t// in\n    tag_98:\n      mload(0x40)\n      dup1\n      swap2\n      sub\n      swap1\n      log2\n        /* \"Roulette.sol\":2245:2643  function placeBet(uint8 number) external payable {... */\n      pop\n      jump\t// out\n        /* \"Roulette.sol\":6545:6808  function withdrawHouseFunds(uint256 _amount) external onlyOwner {... */\n    tag_50:\n        /* \"Roulette.sol\":1128:1133  owner */\n      0x02\n      0x00\n      swap1\n      sload\n      swap1\n      0x0100\n      exp\n      swap1\n      div\n      0xffffffffffffffffffffffffffffffffffffffff\n      and\n        /* \"Roulette.sol\":1114:1133  msg.sender == owner */\n      0xffffffffffffffffffffffffffffffffffffffff\n      and\n        /* \"Roulette.sol\":1114:1124  msg.sender */\n      caller\n        /* \"Roulette.sol\":1114:1133  msg.sender == owner */\n      0xffffffffffffffffffffffffffffffffffffffff\n      and\n      eq\n        /* \"Roulette.sol\":1106:1175  require(msg.sender == owner, \"Only the owner can call this function\") */\n      tag_101\n      jumpi\n      mload(0x40)\n      0x08c379a000000000000000000000000000000000000000000000000000000000\n      dup2\n      mstore\n      0x04\n      add\n      tag_102\n      swap1\n      tag_74\n      jump\t// in\n    tag_102:\n      mload(0x40)\n      dup1\n      swap2\n      sub\n      swap1\n      revert\n    tag_101:\n        /* \"Roulette.sol\":6639:6660  address(this).balance */\n      selfbalance\n        /* \"Roulette.sol\":6628:6635  _amount */\n      dup2\n        /* \"Roulette.sol\":6628:6660  _amount <= address(this).balance */\n      gt\n      iszero\n        /* \"Roulette.sol\":6620:6692  require(_amount <= address(this).balance, \"Not enough contract balance\") */\n      tag_104\n      jumpi\n      mload(0x40)\n      0x08c379a000000000000000000000000000000000000000000000000000000000\n      dup2\n      mstore\n      0x04\n      add\n      tag_105\n      swap1\n      tag_106\n      jump\t// in\n    tag_105:\n      mload(0x40)\n      dup1\n      swap2\n      sub\n      swap1\n      revert\n    tag_104:\n        /* \"Roulette.sol\":6704:6716  bool success */\n      0x00\n        /* \"Roulette.sol\":6722:6727  owner */\n      0x02\n      0x00\n      swap1\n      sload\n      swap1\n      0x0100\n      exp\n      swap1\n      div\n      0xffffffffffffffffffffffffffffffffffffffff\n      and\n        /* \"Roulette.sol\":6722:6732  owner.call */\n      0xffffffffffffffffffffffffffffffffffffffff\n      and\n        /* \"Roulette.sol\":6741:6748  _amount */\n      dup3\n        /* \"Roulette.sol\":6722:6754  owner.call{ value: _amount }(\"\") */\n      mload(0x40)\n      tag_107\n      swap1\n      tag_108\n      jump\t// in\n    tag_107:\n      0x00\n      mload(0x40)\n      dup1\n      dup4\n      sub\n      dup2\n      dup6\n      dup8\n      gas\n      call\n      swap3\n      pop\n      pop\n      pop\n      returndatasize\n      dup1\n      0x00\n      dup2\n      eq\n      tag_111\n      jumpi\n      mload(0x40)\n      swap2\n      pop\n      and(add(returndatasize, 0x3f), not(0x1f))\n      dup3\n      add\n      0x40\n      mstore\n      returndatasize\n      dup3\n      mstore\n      returndatasize\n      0x00\n      0x20\n      dup5\n      add\n      returndatacopy\n      jump(tag_110)\n    tag_111:\n      0x60\n      swap2\n      pop\n    tag_110:\n      pop\n        /* \"Roulette.sol\":6703:6754  (bool success, ) = owner.call{ value: _amount }(\"\") */\n      pop\n      swap1\n      pop\n        /* \"Roulette.sol\":6773:6780  success */\n      dup1\n        /* \"Roulette.sol\":6765:6800  require(success, \"Withdraw failed\") */\n      tag_112\n      jumpi\n      mload(0x40)\n      0x08c379a000000000000000000000000000000000000000000000000000000000\n      dup2\n      mstore\n      0x04\n      add\n      tag_113\n      swap1\n      tag_114\n      jump\t// in\n    tag_113:\n      mload(0x40)\n      dup1\n      swap2\n      sub\n      swap1\n      revert\n    tag_112:\n        /* \"Roulette.sol\":6609:6808  {... */\n      pop\n        /* \"Roulette.sol\":6545:6808  function withdrawHouseFunds(uint256 _amount) external onlyOwner {... */\n      pop\n      jump\t// out\n        /* \"Roulette.sol\":6337:6433  function setMinBet(uint256 _newMinBet) external onlyOwner {... */\n    tag_54:\n        /* \"Roulette.sol\":1128:1133  owner */\n      0x02\n      0x00\n      swap1\n      sload\n      swap1\n      0x0100\n      exp\n      swap1\n      div\n      0xffffffffffffffffffffffffffffffffffffffff\n      and\n        /* \"Roulette.sol\":1114:1133  msg.sender == owner */\n      0xffffffffffffffffffffffffffffffffffffffff\n      and\n        /* \"Roulette.sol\":1114:1124  msg.sender */\n      caller\n        /* \"Roulette.sol\":1114:1133  msg.sender == owner */\n      0xffffffffffffffffffffffffffffffffffffffff\n      and\n      eq\n        /* \"Roulette.sol\":1106:1175  require(msg.sender == owner, \"Only the owner can call this function\") */\n      tag_116\n      jumpi\n      mload(0x40)\n      0x08c379a000000000000000000000000000000000000000000000000000000000\n      dup2\n      mstore\n      0x04\n      add\n      tag_117\n      swap1\n      tag_74\n      jump\t// in\n    tag_117:\n      mload(0x40)\n      dup1\n      swap2\n      sub\n      swap1\n      revert\n    tag_116:\n        /* \"Roulette.sol\":6415:6425  _newMinBet */\n      dup1\n        /* \"Roulette.sol\":6406:6412  minBet */\n      0x01\n        /* \"Roulette.sol\":6406:6425  minBet = _newMinBet */\n      dup2\n      swap1\n      sstore\n      pop\n        /* \"Roulette.sol\":6337:6433  function setMinBet(uint256 _newMinBet) external onlyOwner {... */\n      pop\n      jump\t// out\n        /* \"Roulette.sol\":718:738  address public owner */\n    tag_57:\n      0x02\n      0x00\n      swap1\n      sload\n      swap1\n      0x0100\n      exp\n      swap1\n      div\n      0xffffffffffffffffffffffffffffffffffffffff\n      and\n      dup2\n      jump\t// out\n        /* \"Roulette.sol\":650:671  uint256 public minBet */\n    tag_62:\n      sload(0x01)\n      dup2\n      jump\t// out\n        /* \"Roulette.sol\":3548:5636  function finalizeSpin() external onlyOwner {... */\n    tag_66:\n        /* \"Roulette.sol\":1128:1133  owner */\n      0x02\n      0x00\n      swap1\n      sload\n      swap1\n      0x0100\n      exp\n      swap1\n      div\n      0xffffffffffffffffffffffffffffffffffffffff\n      and\n        /* \"Roulette.sol\":1114:1133  msg.sender == owner */\n      0xffffffffffffffffffffffffffffffffffffffff\n      and\n        /* \"Roulette.sol\":1114:1124  msg.sender */\n      caller\n        /* \"Roulette.sol\":1114:1133  msg.sender == owner */\n      0xffffffffffffffffffffffffffffffffffffffff\n      and\n      eq\n        /* \"Roulette.sol\":1106:1175  require(msg.sender == owner, \"Only the owner can call this function\") */\n      tag_120\n      jumpi\n      mload(0x40)\n      0x08c379a000000000000000000000000000000000000000000000000000000000\n      dup2\n      mstore\n      0x04\n      add\n      tag_121\n      swap1\n      tag_74\n      jump\t// in\n    tag_121:\n      mload(0x40)\n      dup1\n      swap2\n      sub\n      swap1\n      revert\n    tag_120:\n        /* \"Roulette.sol\":3610:3624  spinInProgress */\n      0x04\n      0x00\n      swap1\n      sload\n      swap1\n      0x0100\n      exp\n      swap1\n      div\n      0xff\n      and\n        /* \"Roulette.sol\":3602:3648  require(spinInProgress, \"No spin in progress\") */\n      tag_123\n      jumpi\n      mload(0x40)\n      0x08c379a000000000000000000000000000000000000000000000000000000000\n      dup2\n      mstore\n      0x04\n      add\n      tag_124\n      swap1\n      tag_125\n      jump\t// in\n    tag_124:\n      mload(0x40)\n      dup1\n      swap2\n      sub\n      swap1\n      revert\n    tag_123:\n        /* \"Roulette.sol\":3683:3698  spinBlockNumber */\n      sload(0x03)\n        /* \"Roulette.sol\":3667:3679  block.number */\n      number\n        /* \"Roulette.sol\":3667:3698  block.number >= spinBlockNumber */\n      lt\n      iszero\n        /* \"Roulette.sol\":3659:3732  require(block.number >= spinBlockNumber, \"Not enough blocks have passed\") */\n      tag_126\n      jumpi\n      mload(0x40)\n      0x08c379a000000000000000000000000000000000000000000000000000000000\n      dup2\n      mstore\n      0x04\n      add\n      tag_127\n      swap1\n      tag_128\n      jump\t// in\n    tag_127:\n      mload(0x40)\n      dup1\n      swap2\n      sub\n      swap1\n      revert\n    tag_126:\n        /* \"Roulette.sol\":3818:3841  bytes32 futureBlockHash */\n      0x00\n        /* \"Roulette.sol\":3854:3869  spinBlockNumber */\n      sload(0x03)\n        /* \"Roulette.sol\":3844:3870  blockhash(spinBlockNumber) */\n      blockhash\n        /* \"Roulette.sol\":3818:3870  bytes32 futureBlockHash = blockhash(spinBlockNumber) */\n      swap1\n      pop\n        /* \"Roulette.sol\":4178:4179  0 */\n      0x00\n        /* \"Roulette.sol\":4170:4180  bytes32(0) */\n      dup1\n      shl\n        /* \"Roulette.sol\":4151:4166  futureBlockHash */\n      dup2\n        /* \"Roulette.sol\":4151:4180  futureBlockHash != bytes32(0) */\n      sub\n        /* \"Roulette.sol\":4143:4219  require(futureBlockHash != bytes32(0), \"Blockhash not available or too old\") */\n      tag_129\n      jumpi\n      mload(0x40)\n      0x08c379a000000000000000000000000000000000000000000000000000000000\n      dup2\n      mstore\n      0x04\n      add\n      tag_130\n      swap1\n      tag_131\n      jump\t// in\n    tag_130:\n      mload(0x40)\n      dup1\n      swap2\n      sub\n      swap1\n      revert\n    tag_129:\n        /* \"Roulette.sol\":4268:4286  uint256 randomHash */\n      0x00\n        /* \"Roulette.sol\":4378:4393  futureBlockHash */\n      dup2\n        /* \"Roulette.sol\":4424:4428  this */\n      address\n        /* \"Roulette.sol\":4452:4456  bets */\n      0x00\n        /* \"Roulette.sol\":4452:4463  bets.length */\n      dup1\n      sload\n      swap1\n      pop\n        /* \"Roulette.sol\":4339:4482  abi.encodePacked(... */\n      add(0x20, mload(0x40))\n      tag_132\n      swap4\n      swap3\n      swap2\n      swap1\n      tag_133\n      jump\t// in\n    tag_132:\n      mload(0x40)\n      0x20\n      dup2\n      dup4\n      sub\n      sub\n      dup2\n      mstore\n      swap1\n      0x40\n      mstore\n        /* \"Roulette.sol\":4311:4497  keccak256(... */\n      dup1\n      mload\n      swap1\n      0x20\n      add\n      keccak256\n        /* \"Roulette.sol\":4289:4508  uint256(... */\n      0x00\n      shr\n        /* \"Roulette.sol\":4268:4508  uint256 randomHash = uint256(... */\n      swap1\n      pop\n        /* \"Roulette.sol\":4521:4540  uint8 winningNumber */\n      0x00\n        /* \"Roulette.sol\":4562:4564  37 */\n      0x25\n        /* \"Roulette.sol\":4549:4559  randomHash */\n      dup3\n        /* \"Roulette.sol\":4549:4564  randomHash % 37 */\n      tag_134\n      swap2\n      swap1\n      tag_135\n      jump\t// in\n    tag_134:\n        /* \"Roulette.sol\":4521:4565  uint8 winningNumber = uint8(randomHash % 37) */\n      swap1\n      pop\n        /* \"Roulette.sol\":4581:4606  SpinResult(winningNumber) */\n      0xee38b53cfee7ef3833287e8806626e415e7ca0441e14b436cdb7b681f7c44744\n        /* \"Roulette.sol\":4592:4605  winningNumber */\n      dup2\n        /* \"Roulette.sol\":4581:4606  SpinResult(winningNumber) */\n      mload(0x40)\n      tag_136\n      swap2\n      swap1\n      tag_137\n      jump\t// in\n    tag_136:\n      mload(0x40)\n      dup1\n      swap2\n      sub\n      swap1\n      log1\n        /* \"Roulette.sol\":4619:4638  uint256 houseProfit */\n      0x00\n        /* \"Roulette.sol\":4692:4701  uint256 i */\n      dup1\n        /* \"Roulette.sol\":4687:5272  for (uint256 i = 0; i < bets.length; i++) {... */\n    tag_138:\n        /* \"Roulette.sol\":4711:4715  bets */\n      0x00\n        /* \"Roulette.sol\":4711:4722  bets.length */\n      dup1\n      sload\n      swap1\n      pop\n        /* \"Roulette.sol\":4707:4708  i */\n      dup2\n        /* \"Roulette.sol\":4707:4722  i < bets.length */\n      lt\n        /* \"Roulette.sol\":4687:5272  for (uint256 i = 0; i < bets.length; i++) {... */\n      iszero\n      tag_139\n      jumpi\n        /* \"Roulette.sol\":4744:4756  Bet memory b */\n      0x00\n        /* \"Roulette.sol\":4759:4763  bets */\n      dup1\n        /* \"Roulette.sol\":4764:4765  i */\n      dup3\n        /* \"Roulette.sol\":4759:4766  bets[i] */\n      dup2\n      sload\n      dup2\n      lt\n      tag_141\n      jumpi\n      tag_142\n      tag_143\n      jump\t// in\n    tag_142:\n    tag_141:\n      swap1\n      0x00\n      mstore\n      keccak256(0x00, 0x20)\n      swap1\n      0x02\n      mul\n      add\n        /* \"Roulette.sol\":4744:4766  Bet memory b = bets[i] */\n      mload(0x40)\n      dup1\n      0x60\n      add\n      0x40\n      mstore\n      swap1\n      dup2\n      0x00\n      dup3\n      add\n      0x00\n      swap1\n      sload\n      swap1\n      0x0100\n      exp\n      swap1\n      div\n      0xffffffffffffffffffffffffffffffffffffffff\n      and\n      0xffffffffffffffffffffffffffffffffffffffff\n      and\n      0xffffffffffffffffffffffffffffffffffffffff\n      and\n      dup2\n      mstore\n      0x20\n      add\n      0x00\n      dup3\n      add\n      0x14\n      swap1\n      sload\n      swap1\n      0x0100\n      exp\n      swap1\n      div\n      0xff\n      and\n      0xff\n      and\n      0xff\n      and\n      dup2\n      mstore\n      0x20\n      add\n      0x01\n      dup3\n      add\n      sload\n      dup2\n      mstore\n      pop\n      pop\n      swap1\n      pop\n        /* \"Roulette.sol\":4797:4810  winningNumber */\n      dup4\n        /* \"Roulette.sol\":4785:4810  b.number == winningNumber */\n      0xff\n      and\n        /* \"Roulette.sol\":4785:4786  b */\n      dup2\n        /* \"Roulette.sol\":4785:4793  b.number */\n      0x20\n      add\n      mload\n        /* \"Roulette.sol\":4785:4810  b.number == winningNumber */\n      0xff\n      and\n      sub\n        /* \"Roulette.sol\":4781:5261  if (b.number == winningNumber) {... */\n      tag_145\n      jumpi\n        /* \"Roulette.sol\":4899:4919  uint256 payoutAmount */\n      0x00\n        /* \"Roulette.sol\":4933:4935  36 */\n      0x24\n        /* \"Roulette.sol\":4922:4923  b */\n      dup3\n        /* \"Roulette.sol\":4922:4930  b.amount */\n      0x40\n      add\n      mload\n        /* \"Roulette.sol\":4922:4935  b.amount * 36 */\n      tag_146\n      swap2\n      swap1\n      tag_147\n      jump\t// in\n    tag_146:\n        /* \"Roulette.sol\":4899:4935  uint256 payoutAmount = b.amount * 36 */\n      swap1\n      pop\n        /* \"Roulette.sol\":4955:4967  bool success */\n      0x00\n        /* \"Roulette.sol\":4973:4974  b */\n      dup3\n        /* \"Roulette.sol\":4973:4981  b.player */\n      0x00\n      add\n      mload\n        /* \"Roulette.sol\":4973:4986  b.player.call */\n      0xffffffffffffffffffffffffffffffffffffffff\n      and\n        /* \"Roulette.sol\":4995:5007  payoutAmount */\n      dup3\n        /* \"Roulette.sol\":4973:5013  b.player.call{ value: payoutAmount }(\"\") */\n      mload(0x40)\n      tag_148\n      swap1\n      tag_108\n      jump\t// in\n    tag_148:\n      0x00\n      mload(0x40)\n      dup1\n      dup4\n      sub\n      dup2\n      dup6\n      dup8\n      gas\n      call\n      swap3\n      pop\n      pop\n      pop\n      returndatasize\n      dup1\n      0x00\n      dup2\n      eq\n      tag_151\n      jumpi\n      mload(0x40)\n      swap2\n      pop\n      and(add(returndatasize, 0x3f), not(0x1f))\n      dup3\n      add\n      0x40\n      mstore\n      returndatasize\n      dup3\n      mstore\n      returndatasize\n      0x00\n      0x20\n      dup5\n      add\n      returndatacopy\n      jump(tag_150)\n    tag_151:\n      0x60\n      swap2\n      pop\n    tag_150:\n      pop\n        /* \"Roulette.sol\":4954:5013  (bool success, ) = b.player.call{ value: payoutAmount }(\"\") */\n      pop\n      swap1\n      pop\n        /* \"Roulette.sol\":5040:5047  success */\n      dup1\n        /* \"Roulette.sol\":5032:5077  require(success, \"Transfer to winner failed\") */\n      tag_152\n      jumpi\n      mload(0x40)\n      0x08c379a000000000000000000000000000000000000000000000000000000000\n      dup2\n      mstore\n      0x04\n      add\n      tag_153\n      swap1\n      tag_154\n      jump\t// in\n    tag_153:\n      mload(0x40)\n      dup1\n      swap2\n      sub\n      swap1\n      revert\n    tag_152:\n        /* \"Roulette.sol\":5110:5111  b */\n      dup3\n        /* \"Roulette.sol\":5110:5118  b.player */\n      0x00\n      add\n      mload\n        /* \"Roulette.sol\":5103:5133  Payout(b.player, payoutAmount) */\n      0xffffffffffffffffffffffffffffffffffffffff\n      and\n      0x5afeca38b2064c23a692c4cf353015d80ab3ecc417b4f893f372690c11fbd9a6\n        /* \"Roulette.sol\":5120:5132  payoutAmount */\n      dup4\n        /* \"Roulette.sol\":5103:5133  Payout(b.player, payoutAmount) */\n      mload(0x40)\n      tag_155\n      swap2\n      swap1\n      tag_37\n      jump\t// in\n    tag_155:\n      mload(0x40)\n      dup1\n      swap2\n      sub\n      swap1\n      log2\n        /* \"Roulette.sol\":4812:5149  {... */\n      pop\n      pop\n        /* \"Roulette.sol\":4781:5261  if (b.number == winningNumber) {... */\n      jump(tag_156)\n    tag_145:\n        /* \"Roulette.sol\":5237:5238  b */\n      dup1\n        /* \"Roulette.sol\":5237:5245  b.amount */\n      0x40\n      add\n      mload\n        /* \"Roulette.sol\":5222:5245  houseProfit += b.amount */\n      dup4\n      tag_157\n      swap2\n      swap1\n      tag_83\n      jump\t// in\n    tag_157:\n      swap3\n      pop\n        /* \"Roulette.sol\":4781:5261  if (b.number == winningNumber) {... */\n    tag_156:\n        /* \"Roulette.sol\":4729:5272  {... */\n      pop\n        /* \"Roulette.sol\":4724:4727  i++ */\n      dup1\n      dup1\n      0x01\n      add\n      swap2\n      pop\n      pop\n        /* \"Roulette.sol\":4687:5272  for (uint256 i = 0; i < bets.length; i++) {... */\n      jump(tag_138)\n    tag_139:\n      pop\n        /* \"Roulette.sol\":5340:5341  0 */\n      0x00\n        /* \"Roulette.sol\":5326:5337  houseProfit */\n      dup2\n        /* \"Roulette.sol\":5326:5341  houseProfit > 0 */\n      gt\n        /* \"Roulette.sol\":5322:5539  if (houseProfit > 0) {... */\n      iszero\n      tag_158\n      jumpi\n        /* \"Roulette.sol\":5359:5373  bool housePaid */\n      0x00\n        /* \"Roulette.sol\":5379:5384  owner */\n      0x02\n      0x00\n      swap1\n      sload\n      swap1\n      0x0100\n      exp\n      swap1\n      div\n      0xffffffffffffffffffffffffffffffffffffffff\n      and\n        /* \"Roulette.sol\":5379:5389  owner.call */\n      0xffffffffffffffffffffffffffffffffffffffff\n      and\n        /* \"Roulette.sol\":5398:5409  houseProfit */\n      dup3\n        /* \"Roulette.sol\":5379:5415  owner.call{ value: houseProfit }(\"\") */\n      mload(0x40)\n      tag_159\n      swap1\n      tag_108\n      jump\t// in\n    tag_159:\n      0x00\n      mload(0x40)\n      dup1\n      dup4\n      sub\n      dup2\n      dup6\n      dup8\n      gas\n      call\n      swap3\n      pop\n      pop\n      pop\n      returndatasize\n      dup1\n      0x00\n      dup2\n      eq\n      tag_162\n      jumpi\n      mload(0x40)\n      swap2\n      pop\n      and(add(returndatasize, 0x3f), not(0x1f))\n      dup3\n      add\n      0x40\n      mstore\n      returndatasize\n      dup3\n      mstore\n      returndatasize\n      0x00\n      0x20\n      dup5\n      add\n      returndatacopy\n      jump(tag_161)\n    tag_162:\n      0x60\n      swap2\n      pop\n    tag_161:\n      pop\n        /* \"Roulette.sol\":5358:5415  (bool housePaid, ) = owner.call{ value: houseProfit }(\"\") */\n      pop\n      swap1\n      pop\n        /* \"Roulette.sol\":5438:5447  housePaid */\n      dup1\n        /* \"Roulette.sol\":5430:5476  require(housePaid, \"Transfer to house failed\") */\n      tag_163\n      jumpi\n      mload(0x40)\n      0x08c379a000000000000000000000000000000000000000000000000000000000\n      dup2\n      mstore\n      0x04\n      add\n      tag_164\n      swap1\n      tag_165\n      jump\t// in\n    tag_164:\n      mload(0x40)\n      dup1\n      swap2\n      sub\n      swap1\n      revert\n    tag_163:\n        /* \"Roulette.sol\":5508:5513  owner */\n      0x02\n      0x00\n      swap1\n      sload\n      swap1\n      0x0100\n      exp\n      swap1\n      div\n      0xffffffffffffffffffffffffffffffffffffffff\n      and\n        /* \"Roulette.sol\":5496:5527  HouseProfit(owner, houseProfit) */\n      0xffffffffffffffffffffffffffffffffffffffff\n      and\n      0x3ee2ea076f8c03e334fba9777d3e41285053f2c24a54595f1066eae169b2b977\n        /* \"Roulette.sol\":5515:5526  houseProfit */\n      dup4\n        /* \"Roulette.sol\":5496:5527  HouseProfit(owner, houseProfit) */\n      mload(0x40)\n      tag_166\n      swap2\n      swap1\n      tag_37\n      jump\t// in\n    tag_166:\n      mload(0x40)\n      dup1\n      swap2\n      sub\n      swap1\n      log2\n        /* \"Roulette.sol\":5343:5539  {... */\n      pop\n        /* \"Roulette.sol\":5322:5539  if (houseProfit > 0) {... */\n    tag_158:\n        /* \"Roulette.sol\":5591:5595  bets */\n      0x00\n      dup1\n        /* \"Roulette.sol\":5584:5595  delete bets */\n      tag_167\n      swap2\n      swap1\n      tag_168\n      jump\t// in\n    tag_167:\n        /* \"Roulette.sol\":5623:5628  false */\n      0x00\n        /* \"Roulette.sol\":5606:5620  spinInProgress */\n      0x04\n      0x00\n        /* \"Roulette.sol\":5606:5628  spinInProgress = false */\n      0x0100\n      exp\n      dup2\n      sload\n      dup2\n      0xff\n      mul\n      not\n      and\n      swap1\n      dup4\n      iszero\n      iszero\n      mul\n      or\n      swap1\n      sstore\n      pop\n        /* \"Roulette.sol\":3591:5636  {... */\n      pop\n      pop\n      pop\n      pop\n        /* \"Roulette.sol\":3548:5636  function finalizeSpin() external onlyOwner {... */\n      jump\t// out\n        /* \"Roulette.sol\":5854:5950  function getNumberOfBets() external view returns (uint256) {... */\n    tag_69:\n        /* \"Roulette.sol\":5904:5911  uint256 */\n      0x00\n        /* \"Roulette.sol\":5931:5935  bets */\n      dup1\n        /* \"Roulette.sol\":5931:5942  bets.length */\n      dup1\n      sload\n      swap1\n      pop\n        /* \"Roulette.sol\":5924:5942  return bets.length */\n      swap1\n      pop\n        /* \"Roulette.sol\":5854:5950  function getNumberOfBets() external view returns (uint256) {... */\n      swap1\n      jump\t// out\n    tag_168:\n      pop\n      dup1\n      sload\n      0x00\n      dup3\n      sstore\n      0x02\n      mul\n      swap1\n      0x00\n      mstore\n      keccak256(0x00, 0x20)\n      swap1\n      dup2\n      add\n      swap1\n      tag_171\n      swap2\n      swap1\n      tag_172\n      jump\t// in\n    tag_171:\n      pop\n      jump\t// out\n    tag_172:\n    tag_173:\n      dup1\n      dup3\n      gt\n      iszero\n      tag_174\n      jumpi\n      0x00\n      dup1\n      dup3\n      add\n      exp(0x0100, 0x00)\n      dup2\n      sload\n      swap1\n      0xffffffffffffffffffffffffffffffffffffffff\n      mul\n      not\n      and\n      swap1\n      sstore\n      0x00\n      dup3\n      add\n      exp(0x0100, 0x14)\n      dup2\n      sload\n      swap1\n      0xff\n      mul\n      not\n      and\n      swap1\n      sstore\n      0x01\n      dup3\n      add\n      0x00\n      swap1\n      sstore\n      pop\n      0x02\n      add\n      jump(tag_173)\n    tag_174:\n      pop\n      swap1\n      jump\t// out\n        /* \"#utility.yul\":7:97   */\n    tag_175:\n        /* \"#utility.yul\":41:48   */\n      0x00\n        /* \"#utility.yul\":84:89   */\n      dup2\n        /* \"#utility.yul\":77:90   */\n      iszero\n        /* \"#utility.yul\":70:91   */\n      iszero\n        /* \"#utility.yul\":59:91   */\n      swap1\n      pop\n        /* \"#utility.yul\":7:97   */\n      swap2\n      swap1\n      pop\n      jump\t// out\n        /* \"#utility.yul\":103:212   */\n    tag_176:\n        /* \"#utility.yul\":184:205   */\n      tag_243\n        /* \"#utility.yul\":199:204   */\n      dup2\n        /* \"#utility.yul\":184:205   */\n      tag_175\n      jump\t// in\n    tag_243:\n        /* \"#utility.yul\":179:182   */\n      dup3\n        /* \"#utility.yul\":172:206   */\n      mstore\n        /* \"#utility.yul\":103:212   */\n      pop\n      pop\n      jump\t// out\n        /* \"#utility.yul\":218:428   */\n    tag_22:\n        /* \"#utility.yul\":305:309   */\n      0x00\n        /* \"#utility.yul\":343:345   */\n      0x20\n        /* \"#utility.yul\":332:341   */\n      dup3\n        /* \"#utility.yul\":328:346   */\n      add\n        /* \"#utility.yul\":320:346   */\n      swap1\n      pop\n        /* \"#utility.yul\":356:421   */\n      tag_245\n        /* \"#utility.yul\":418:419   */\n      0x00\n        /* \"#utility.yul\":407:416   */\n      dup4\n        /* \"#utility.yul\":403:420   */\n      add\n        /* \"#utility.yul\":394:400   */\n      dup5\n        /* \"#utility.yul\":356:421   */\n      tag_176\n      jump\t// in\n    tag_245:\n        /* \"#utility.yul\":218:428   */\n      swap3\n      swap2\n      pop\n      pop\n      jump\t// out\n        /* \"#utility.yul\":515:632   */\n    tag_178:\n        /* \"#utility.yul\":624:625   */\n      0x00\n        /* \"#utility.yul\":621:622   */\n      dup1\n        /* \"#utility.yul\":614:626   */\n      revert\n        /* \"#utility.yul\":761:838   */\n    tag_180:\n        /* \"#utility.yul\":798:805   */\n      0x00\n        /* \"#utility.yul\":827:832   */\n      dup2\n        /* \"#utility.yul\":816:832   */\n      swap1\n      pop\n        /* \"#utility.yul\":761:838   */\n      swap2\n      swap1\n      pop\n      jump\t// out\n        /* \"#utility.yul\":844:966   */\n    tag_181:\n        /* \"#utility.yul\":917:941   */\n      tag_251\n        /* \"#utility.yul\":935:940   */\n      dup2\n        /* \"#utility.yul\":917:941   */\n      tag_180\n      jump\t// in\n    tag_251:\n        /* \"#utility.yul\":910:915   */\n      dup2\n        /* \"#utility.yul\":907:942   */\n      eq\n        /* \"#utility.yul\":897:960   */\n      tag_252\n      jumpi\n        /* \"#utility.yul\":956:957   */\n      0x00\n        /* \"#utility.yul\":953:954   */\n      dup1\n        /* \"#utility.yul\":946:958   */\n      revert\n        /* \"#utility.yul\":897:960   */\n    tag_252:\n        /* \"#utility.yul\":844:966   */\n      pop\n      jump\t// out\n        /* \"#utility.yul\":972:1111   */\n    tag_182:\n        /* \"#utility.yul\":1018:1023   */\n      0x00\n        /* \"#utility.yul\":1056:1062   */\n      dup2\n        /* \"#utility.yul\":1043:1063   */\n      calldataload\n        /* \"#utility.yul\":1034:1063   */\n      swap1\n      pop\n        /* \"#utility.yul\":1072:1105   */\n      tag_254\n        /* \"#utility.yul\":1099:1104   */\n      dup2\n        /* \"#utility.yul\":1072:1105   */\n      tag_181\n      jump\t// in\n    tag_254:\n        /* \"#utility.yul\":972:1111   */\n      swap3\n      swap2\n      pop\n      pop\n      jump\t// out\n        /* \"#utility.yul\":1117:1446   */\n    tag_29:\n        /* \"#utility.yul\":1176:1182   */\n      0x00\n        /* \"#utility.yul\":1225:1227   */\n      0x20\n        /* \"#utility.yul\":1213:1222   */\n      dup3\n        /* \"#utility.yul\":1204:1211   */\n      dup5\n        /* \"#utility.yul\":1200:1223   */\n      sub\n        /* \"#utility.yul\":1196:1228   */\n      slt\n        /* \"#utility.yul\":1193:1312   */\n      iszero\n      tag_256\n      jumpi\n        /* \"#utility.yul\":1231:1310   */\n      tag_257\n      tag_178\n      jump\t// in\n    tag_257:\n        /* \"#utility.yul\":1193:1312   */\n    tag_256:\n        /* \"#utility.yul\":1351:1352   */\n      0x00\n        /* \"#utility.yul\":1376:1429   */\n      tag_258\n        /* \"#utility.yul\":1421:1428   */\n      dup5\n        /* \"#utility.yul\":1412:1418   */\n      dup3\n        /* \"#utility.yul\":1401:1410   */\n      dup6\n        /* \"#utility.yul\":1397:1419   */\n      add\n        /* \"#utility.yul\":1376:1429   */\n      tag_182\n      jump\t// in\n    tag_258:\n        /* \"#utility.yul\":1366:1429   */\n      swap2\n      pop\n        /* \"#utility.yul\":1322:1439   */\n      pop\n        /* \"#utility.yul\":1117:1446   */\n      swap3\n      swap2\n      pop\n      pop\n      jump\t// out\n        /* \"#utility.yul\":1452:1578   */\n    tag_183:\n        /* \"#utility.yul\":1489:1496   */\n      0x00\n        /* \"#utility.yul\":1529:1571   */\n      0xffffffffffffffffffffffffffffffffffffffff\n        /* \"#utility.yul\":1522:1527   */\n      dup3\n        /* \"#utility.yul\":1518:1572   */\n      and\n        /* \"#utility.yul\":1507:1572   */\n      swap1\n      pop\n        /* \"#utility.yul\":1452:1578   */\n      swap2\n      swap1\n      pop\n      jump\t// out\n        /* \"#utility.yul\":1584:1680   */\n    tag_184:\n        /* \"#utility.yul\":1621:1628   */\n      0x00\n        /* \"#utility.yul\":1650:1674   */\n      tag_261\n        /* \"#utility.yul\":1668:1673   */\n      dup3\n        /* \"#utility.yul\":1650:1674   */\n      tag_183\n      jump\t// in\n    tag_261:\n        /* \"#utility.yul\":1639:1674   */\n      swap1\n      pop\n        /* \"#utility.yul\":1584:1680   */\n      swap2\n      swap1\n      pop\n      jump\t// out\n        /* \"#utility.yul\":1686:1804   */\n    tag_185:\n        /* \"#utility.yul\":1773:1797   */\n      tag_263\n        /* \"#utility.yul\":1791:1796   */\n      dup2\n        /* \"#utility.yul\":1773:1797   */\n      tag_184\n      jump\t// in\n    tag_263:\n        /* \"#utility.yul\":1768:1771   */\n      dup3\n        /* \"#utility.yul\":1761:1798   */\n      mstore\n        /* \"#utility.yul\":1686:1804   */\n      pop\n      pop\n      jump\t// out\n        /* \"#utility.yul\":1810:1896   */\n    tag_186:\n        /* \"#utility.yul\":1845:1852   */\n      0x00\n        /* \"#utility.yul\":1885:1889   */\n      0xff\n        /* \"#utility.yul\":1878:1883   */\n      dup3\n        /* \"#utility.yul\":1874:1890   */\n      and\n        /* \"#utility.yul\":1863:1890   */\n      swap1\n      pop\n        /* \"#utility.yul\":1810:1896   */\n      swap2\n      swap1\n      pop\n      jump\t// out\n        /* \"#utility.yul\":1902:2014   */\n    tag_187:\n        /* \"#utility.yul\":1985:2007   */\n      tag_266\n        /* \"#utility.yul\":2001:2006   */\n      dup2\n        /* \"#utility.yul\":1985:2007   */\n      tag_186\n      jump\t// in\n    tag_266:\n        /* \"#utility.yul\":1980:1983   */\n      dup3\n        /* \"#utility.yul\":1973:2008   */\n      mstore\n        /* \"#utility.yul\":1902:2014   */\n      pop\n      pop\n      jump\t// out\n        /* \"#utility.yul\":2020:2138   */\n    tag_188:\n        /* \"#utility.yul\":2107:2131   */\n      tag_268\n        /* \"#utility.yul\":2125:2130   */\n      dup2\n        /* \"#utility.yul\":2107:2131   */\n      tag_180\n      jump\t// in\n    tag_268:\n        /* \"#utility.yul\":2102:2105   */\n      dup3\n        /* \"#utility.yul\":2095:2132   */\n      mstore\n        /* \"#utility.yul\":2020:2138   */\n      pop\n      pop\n      jump\t// out\n        /* \"#utility.yul\":2144:2578   */\n    tag_32:\n        /* \"#utility.yul\":2289:2293   */\n      0x00\n        /* \"#utility.yul\":2327:2329   */\n      0x60\n        /* \"#utility.yul\":2316:2325   */\n      dup3\n        /* \"#utility.yul\":2312:2330   */\n      add\n        /* \"#utility.yul\":2304:2330   */\n      swap1\n      pop\n        /* \"#utility.yul\":2340:2411   */\n      tag_270\n        /* \"#utility.yul\":2408:2409   */\n      0x00\n        /* \"#utility.yul\":2397:2406   */\n      dup4\n        /* \"#utility.yul\":2393:2410   */\n      add\n        /* \"#utility.yul\":2384:2390   */\n      dup7\n        /* \"#utility.yul\":2340:2411   */\n      tag_185\n      jump\t// in\n    tag_270:\n        /* \"#utility.yul\":2421:2489   */\n      tag_271\n        /* \"#utility.yul\":2485:2487   */\n      0x20\n        /* \"#utility.yul\":2474:2483   */\n      dup4\n        /* \"#utility.yul\":2470:2488   */\n      add\n        /* \"#utility.yul\":2461:2467   */\n      dup6\n        /* \"#utility.yul\":2421:2489   */\n      tag_187\n      jump\t// in\n    tag_271:\n        /* \"#utility.yul\":2499:2571   */\n      tag_272\n        /* \"#utility.yul\":2567:2569   */\n      0x40\n        /* \"#utility.yul\":2556:2565   */\n      dup4\n        /* \"#utility.yul\":2552:2570   */\n      add\n        /* \"#utility.yul\":2543:2549   */\n      dup5\n        /* \"#utility.yul\":2499:2571   */\n      tag_188\n      jump\t// in\n    tag_272:\n        /* \"#utility.yul\":2144:2578   */\n      swap5\n      swap4\n      pop\n      pop\n      pop\n      pop\n      jump\t// out\n        /* \"#utility.yul\":2584:2806   */\n    tag_37:\n        /* \"#utility.yul\":2677:2681   */\n      0x00\n        /* \"#utility.yul\":2715:2717   */\n      0x20\n        /* \"#utility.yul\":2704:2713   */\n      dup3\n        /* \"#utility.yul\":2700:2718   */\n      add\n        /* \"#utility.yul\":2692:2718   */\n      swap1\n      pop\n        /* \"#utility.yul\":2728:2799   */\n      tag_274\n        /* \"#utility.yul\":2796:2797   */\n      0x00\n        /* \"#utility.yul\":2785:2794   */\n      dup4\n        /* \"#utility.yul\":2781:2798   */\n      add\n        /* \"#utility.yul\":2772:2778   */\n      dup5\n        /* \"#utility.yul\":2728:2799   */\n      tag_188\n      jump\t// in\n    tag_274:\n        /* \"#utility.yul\":2584:2806   */\n      swap3\n      swap2\n      pop\n      pop\n      jump\t// out\n        /* \"#utility.yul\":2812:2944   */\n    tag_189:\n        /* \"#utility.yul\":2897:2903   */\n      0x00\n        /* \"#utility.yul\":2931:2936   */\n      dup2\n        /* \"#utility.yul\":2925:2937   */\n      mload\n        /* \"#utility.yul\":2915:2937   */\n      swap1\n      pop\n        /* \"#utility.yul\":2812:2944   */\n      swap2\n      swap1\n      pop\n      jump\t// out\n        /* \"#utility.yul\":2950:3152   */\n    tag_190:\n        /* \"#utility.yul\":3067:3078   */\n      0x00\n        /* \"#utility.yul\":3101:3107   */\n      dup3\n        /* \"#utility.yul\":3096:3099   */\n      dup3\n        /* \"#utility.yul\":3089:3108   */\n      mstore\n        /* \"#utility.yul\":3141:3145   */\n      0x20\n        /* \"#utility.yul\":3136:3139   */\n      dup3\n        /* \"#utility.yul\":3132:3146   */\n      add\n        /* \"#utility.yul\":3117:3146   */\n      swap1\n      pop\n        /* \"#utility.yul\":2950:3152   */\n      swap3\n      swap2\n      pop\n      pop\n      jump\t// out\n        /* \"#utility.yul\":3158:3308   */\n    tag_191:\n        /* \"#utility.yul\":3243:3247   */\n      0x00\n        /* \"#utility.yul\":3266:3269   */\n      dup2\n        /* \"#utility.yul\":3258:3269   */\n      swap1\n      pop\n        /* \"#utility.yul\":3296:3300   */\n      0x20\n        /* \"#utility.yul\":3291:3294   */\n      dup3\n        /* \"#utility.yul\":3287:3301   */\n      add\n        /* \"#utility.yul\":3279:3301   */\n      swap1\n      pop\n        /* \"#utility.yul\":3158:3308   */\n      swap2\n      swap1\n      pop\n      jump\t// out\n        /* \"#utility.yul\":3314:3422   */\n    tag_192:\n        /* \"#utility.yul\":3391:3415   */\n      tag_279\n        /* \"#utility.yul\":3409:3414   */\n      dup2\n        /* \"#utility.yul\":3391:3415   */\n      tag_184\n      jump\t// in\n    tag_279:\n        /* \"#utility.yul\":3386:3389   */\n      dup3\n        /* \"#utility.yul\":3379:3416   */\n      mstore\n        /* \"#utility.yul\":3314:3422   */\n      pop\n      pop\n      jump\t// out\n        /* \"#utility.yul\":3428:3530   */\n    tag_193:\n        /* \"#utility.yul\":3501:3523   */\n      tag_281\n        /* \"#utility.yul\":3517:3522   */\n      dup2\n        /* \"#utility.yul\":3501:3523   */\n      tag_186\n      jump\t// in\n    tag_281:\n        /* \"#utility.yul\":3496:3499   */\n      dup3\n        /* \"#utility.yul\":3489:3524   */\n      mstore\n        /* \"#utility.yul\":3428:3530   */\n      pop\n      pop\n      jump\t// out\n        /* \"#utility.yul\":3536:3644   */\n    tag_194:\n        /* \"#utility.yul\":3613:3637   */\n      tag_283\n        /* \"#utility.yul\":3631:3636   */\n      dup2\n        /* \"#utility.yul\":3613:3637   */\n      tag_180\n      jump\t// in\n    tag_283:\n        /* \"#utility.yul\":3608:3611   */\n      dup3\n        /* \"#utility.yul\":3601:3638   */\n      mstore\n        /* \"#utility.yul\":3536:3644   */\n      pop\n      pop\n      jump\t// out\n        /* \"#utility.yul\":3700:4359   */\n    tag_195:\n        /* \"#utility.yul\":3823:3827   */\n      0x60\n        /* \"#utility.yul\":3818:3821   */\n      dup3\n        /* \"#utility.yul\":3814:3828   */\n      add\n        /* \"#utility.yul\":3912:3916   */\n      0x00\n        /* \"#utility.yul\":3905:3910   */\n      dup3\n        /* \"#utility.yul\":3901:3917   */\n      add\n        /* \"#utility.yul\":3895:3918   */\n      mload\n        /* \"#utility.yul\":3931:3994   */\n      tag_285\n        /* \"#utility.yul\":3988:3992   */\n      0x00\n        /* \"#utility.yul\":3983:3986   */\n      dup6\n        /* \"#utility.yul\":3979:3993   */\n      add\n        /* \"#utility.yul\":3965:3977   */\n      dup3\n        /* \"#utility.yul\":3931:3994   */\n      tag_192\n      jump\t// in\n    tag_285:\n        /* \"#utility.yul\":3838:4004   */\n      pop\n        /* \"#utility.yul\":4088:4092   */\n      0x20\n        /* \"#utility.yul\":4081:4086   */\n      dup3\n        /* \"#utility.yul\":4077:4093   */\n      add\n        /* \"#utility.yul\":4071:4094   */\n      mload\n        /* \"#utility.yul\":4107:4166   */\n      tag_286\n        /* \"#utility.yul\":4160:4164   */\n      0x20\n        /* \"#utility.yul\":4155:4158   */\n      dup6\n        /* \"#utility.yul\":4151:4165   */\n      add\n        /* \"#utility.yul\":4137:4149   */\n      dup3\n        /* \"#utility.yul\":4107:4166   */\n      tag_193\n      jump\t// in\n    tag_286:\n        /* \"#utility.yul\":4014:4176   */\n      pop\n        /* \"#utility.yul\":4260:4264   */\n      0x40\n        /* \"#utility.yul\":4253:4258   */\n      dup3\n        /* \"#utility.yul\":4249:4265   */\n      add\n        /* \"#utility.yul\":4243:4266   */\n      mload\n        /* \"#utility.yul\":4279:4342   */\n      tag_287\n        /* \"#utility.yul\":4336:4340   */\n      0x40\n        /* \"#utility.yul\":4331:4334   */\n      dup6\n        /* \"#utility.yul\":4327:4341   */\n      add\n        /* \"#utility.yul\":4313:4325   */\n      dup3\n        /* \"#utility.yul\":4279:4342   */\n      tag_194\n      jump\t// in\n    tag_287:\n        /* \"#utility.yul\":4186:4352   */\n      pop\n        /* \"#utility.yul\":3792:4359   */\n      pop\n        /* \"#utility.yul\":3700:4359   */\n      pop\n      pop\n      jump\t// out\n        /* \"#utility.yul\":4365:4616   */\n    tag_196:\n        /* \"#utility.yul\":4470:4480   */\n      0x00\n        /* \"#utility.yul\":4491:4573   */\n      tag_289\n        /* \"#utility.yul\":4569:4572   */\n      dup4\n        /* \"#utility.yul\":4561:4567   */\n      dup4\n        /* \"#utility.yul\":4491:4573   */\n      tag_195\n      jump\t// in\n    tag_289:\n        /* \"#utility.yul\":4605:4609   */\n      0x60\n        /* \"#utility.yul\":4600:4603   */\n      dup4\n        /* \"#utility.yul\":4596:4610   */\n      add\n        /* \"#utility.yul\":4582:4610   */\n      swap1\n      pop\n        /* \"#utility.yul\":4365:4616   */\n      swap3\n      swap2\n      pop\n      pop\n      jump\t// out\n        /* \"#utility.yul\":4622:4753   */\n    tag_197:\n        /* \"#utility.yul\":4710:4714   */\n      0x00\n        /* \"#utility.yul\":4742:4746   */\n      0x20\n        /* \"#utility.yul\":4737:4740   */\n      dup3\n        /* \"#utility.yul\":4733:4747   */\n      add\n        /* \"#utility.yul\":4725:4747   */\n      swap1\n      pop\n        /* \"#utility.yul\":4622:4753   */\n      swap2\n      swap1\n      pop\n      jump\t// out\n        /* \"#utility.yul\":4813:5689   */\n    tag_198:\n        /* \"#utility.yul\":4968:4971   */\n      0x00\n        /* \"#utility.yul\":4997:5069   */\n      tag_292\n        /* \"#utility.yul\":5063:5068   */\n      dup3\n        /* \"#utility.yul\":4997:5069   */\n      tag_189\n      jump\t// in\n    tag_292:\n        /* \"#utility.yul\":5085:5189   */\n      tag_293\n        /* \"#utility.yul\":5182:5188   */\n      dup2\n        /* \"#utility.yul\":5177:5180   */\n      dup6\n        /* \"#utility.yul\":5085:5189   */\n      tag_190\n      jump\t// in\n    tag_293:\n        /* \"#utility.yul\":5078:5189   */\n      swap4\n      pop\n        /* \"#utility.yul\":5213:5287   */\n      tag_294\n        /* \"#utility.yul\":5281:5286   */\n      dup4\n        /* \"#utility.yul\":5213:5287   */\n      tag_191\n      jump\t// in\n    tag_294:\n        /* \"#utility.yul\":5310:5317   */\n      dup1\n        /* \"#utility.yul\":5341:5342   */\n      0x00\n        /* \"#utility.yul\":5326:5664   */\n    tag_295:\n        /* \"#utility.yul\":5351:5357   */\n      dup4\n        /* \"#utility.yul\":5348:5349   */\n      dup2\n        /* \"#utility.yul\":5345:5358   */\n      lt\n        /* \"#utility.yul\":5326:5664   */\n      iszero\n      tag_297\n      jumpi\n        /* \"#utility.yul\":5427:5433   */\n      dup2\n        /* \"#utility.yul\":5421:5434   */\n      mload\n        /* \"#utility.yul\":5454:5553   */\n      tag_298\n        /* \"#utility.yul\":5549:5552   */\n      dup9\n        /* \"#utility.yul\":5534:5547   */\n      dup3\n        /* \"#utility.yul\":5454:5553   */\n      tag_196\n      jump\t// in\n    tag_298:\n        /* \"#utility.yul\":5447:5553   */\n      swap8\n      pop\n        /* \"#utility.yul\":5576:5654   */\n      tag_299\n        /* \"#utility.yul\":5647:5653   */\n      dup4\n        /* \"#utility.yul\":5576:5654   */\n      tag_197\n      jump\t// in\n    tag_299:\n        /* \"#utility.yul\":5566:5654   */\n      swap3\n      pop\n        /* \"#utility.yul\":5386:5664   */\n      pop\n        /* \"#utility.yul\":5373:5374   */\n      0x01\n        /* \"#utility.yul\":5370:5371   */\n      dup2\n        /* \"#utility.yul\":5366:5375   */\n      add\n        /* \"#utility.yul\":5361:5375   */\n      swap1\n      pop\n        /* \"#utility.yul\":5326:5664   */\n      jump(tag_295)\n    tag_297:\n        /* \"#utility.yul\":5330:5344   */\n      pop\n        /* \"#utility.yul\":5680:5683   */\n      dup6\n        /* \"#utility.yul\":5673:5683   */\n      swap4\n      pop\n        /* \"#utility.yul\":4973:5689   */\n      pop\n      pop\n      pop\n        /* \"#utility.yul\":4813:5689   */\n      swap3\n      swap2\n      pop\n      pop\n      jump\t// out\n        /* \"#utility.yul\":5695:6140   */\n    tag_42:\n        /* \"#utility.yul\":5874:5878   */\n      0x00\n        /* \"#utility.yul\":5912:5914   */\n      0x20\n        /* \"#utility.yul\":5901:5910   */\n      dup3\n        /* \"#utility.yul\":5897:5915   */\n      add\n        /* \"#utility.yul\":5889:5915   */\n      swap1\n      pop\n        /* \"#utility.yul\":5961:5970   */\n      dup2\n        /* \"#utility.yul\":5955:5959   */\n      dup2\n        /* \"#utility.yul\":5951:5971   */\n      sub\n        /* \"#utility.yul\":5947:5948   */\n      0x00\n        /* \"#utility.yul\":5936:5945   */\n      dup4\n        /* \"#utility.yul\":5932:5949   */\n      add\n        /* \"#utility.yul\":5925:5972   */\n      mstore\n        /* \"#utility.yul\":5989:6133   */\n      tag_301\n        /* \"#utility.yul\":6128:6132   */\n      dup2\n        /* \"#utility.yul\":6119:6125   */\n      dup5\n        /* \"#utility.yul\":5989:6133   */\n      tag_198\n      jump\t// in\n    tag_301:\n        /* \"#utility.yul\":5981:6133   */\n      swap1\n      pop\n        /* \"#utility.yul\":5695:6140   */\n      swap3\n      swap2\n      pop\n      pop\n      jump\t// out\n        /* \"#utility.yul\":6146:6264   */\n    tag_199:\n        /* \"#utility.yul\":6217:6239   */\n      tag_303\n        /* \"#utility.yul\":6233:6238   */\n      dup2\n        /* \"#utility.yul\":6217:6239   */\n      tag_186\n      jump\t// in\n    tag_303:\n        /* \"#utility.yul\":6210:6215   */\n      dup2\n        /* \"#utility.yul\":6207:6240   */\n      eq\n        /* \"#utility.yul\":6197:6258   */\n      tag_304\n      jumpi\n        /* \"#utility.yul\":6254:6255   */\n      0x00\n        /* \"#utility.yul\":6251:6252   */\n      dup1\n        /* \"#utility.yul\":6244:6256   */\n      revert\n        /* \"#utility.yul\":6197:6258   */\n    tag_304:\n        /* \"#utility.yul\":6146:6264   */\n      pop\n      jump\t// out\n        /* \"#utility.yul\":6270:6405   */\n    tag_200:\n        /* \"#utility.yul\":6314:6319   */\n      0x00\n        /* \"#utility.yul\":6352:6358   */\n      dup2\n        /* \"#utility.yul\":6339:6359   */\n      calldataload\n        /* \"#utility.yul\":6330:6359   */\n      swap1\n      pop\n        /* \"#utility.yul\":6368:6399   */\n      tag_306\n        /* \"#utility.yul\":6393:6398   */\n      dup2\n        /* \"#utility.yul\":6368:6399   */\n      tag_199\n      jump\t// in\n    tag_306:\n        /* \"#utility.yul\":6270:6405   */\n      swap3\n      swap2\n      pop\n      pop\n      jump\t// out\n        /* \"#utility.yul\":6411:6736   */\n    tag_45:\n        /* \"#utility.yul\":6468:6474   */\n      0x00\n        /* \"#utility.yul\":6517:6519   */\n      0x20\n        /* \"#utility.yul\":6505:6514   */\n      dup3\n        /* \"#utility.yul\":6496:6503   */\n      dup5\n        /* \"#utility.yul\":6492:6515   */\n      sub\n        /* \"#utility.yul\":6488:6520   */\n      slt\n        /* \"#utility.yul\":6485:6604   */\n      iszero\n      tag_308\n      jumpi\n        /* \"#utility.yul\":6523:6602   */\n      tag_309\n      tag_178\n      jump\t// in\n    tag_309:\n        /* \"#utility.yul\":6485:6604   */\n    tag_308:\n        /* \"#utility.yul\":6643:6644   */\n      0x00\n        /* \"#utility.yul\":6668:6719   */\n      tag_310\n        /* \"#utility.yul\":6711:6718   */\n      dup5\n        /* \"#utility.yul\":6702:6708   */\n      dup3\n        /* \"#utility.yul\":6691:6700   */\n      dup6\n        /* \"#utility.yul\":6687:6709   */\n      add\n        /* \"#utility.yul\":6668:6719   */\n      tag_200\n      jump\t// in\n    tag_310:\n        /* \"#utility.yul\":6658:6719   */\n      swap2\n      pop\n        /* \"#utility.yul\":6614:6729   */\n      pop\n        /* \"#utility.yul\":6411:6736   */\n      swap3\n      swap2\n      pop\n      pop\n      jump\t// out\n        /* \"#utility.yul\":6742:6964   */\n    tag_59:\n        /* \"#utility.yul\":6835:6839   */\n      0x00\n        /* \"#utility.yul\":6873:6875   */\n      0x20\n        /* \"#utility.yul\":6862:6871   */\n      dup3\n        /* \"#utility.yul\":6858:6876   */\n      add\n        /* \"#utility.yul\":6850:6876   */\n      swap1\n      pop\n        /* \"#utility.yul\":6886:6957   */\n      tag_312\n        /* \"#utility.yul\":6954:6955   */\n      0x00\n        /* \"#utility.yul\":6943:6952   */\n      dup4\n        /* \"#utility.yul\":6939:6956   */\n      add\n        /* \"#utility.yul\":6930:6936   */\n      dup5\n        /* \"#utility.yul\":6886:6957   */\n      tag_185\n      jump\t// in\n    tag_312:\n        /* \"#utility.yul\":6742:6964   */\n      swap3\n      swap2\n      pop\n      pop\n      jump\t// out\n        /* \"#utility.yul\":6970:7139   */\n    tag_201:\n        /* \"#utility.yul\":7054:7065   */\n      0x00\n        /* \"#utility.yul\":7088:7094   */\n      dup3\n        /* \"#utility.yul\":7083:7086   */\n      dup3\n        /* \"#utility.yul\":7076:7095   */\n      mstore\n        /* \"#utility.yul\":7128:7132   */\n      0x20\n        /* \"#utility.yul\":7123:7126   */\n      dup3\n        /* \"#utility.yul\":7119:7133   */\n      add\n        /* \"#utility.yul\":7104:7133   */\n      swap1\n      pop\n        /* \"#utility.yul\":6970:7139   */\n      swap3\n      swap2\n      pop\n      pop\n      jump\t// out\n        /* \"#utility.yul\":7145:7369   */\n    tag_202:\n        /* \"#utility.yul\":7285:7319   */\n      0x4f6e6c7920746865206f776e65722063616e2063616c6c20746869732066756e\n        /* \"#utility.yul\":7281:7282   */\n      0x00\n        /* \"#utility.yul\":7273:7279   */\n      dup3\n        /* \"#utility.yul\":7269:7283   */\n      add\n        /* \"#utility.yul\":7262:7320   */\n      mstore\n        /* \"#utility.yul\":7354:7361   */\n      0x6374696f6e000000000000000000000000000000000000000000000000000000\n        /* \"#utility.yul\":7349:7351   */\n      0x20\n        /* \"#utility.yul\":7341:7347   */\n      dup3\n        /* \"#utility.yul\":7337:7352   */\n      add\n        /* \"#utility.yul\":7330:7362   */\n      mstore\n        /* \"#utility.yul\":7145:7369   */\n      pop\n      jump\t// out\n        /* \"#utility.yul\":7375:7741   */\n    tag_203:\n        /* \"#utility.yul\":7517:7520   */\n      0x00\n        /* \"#utility.yul\":7538:7605   */\n      tag_316\n        /* \"#utility.yul\":7602:7604   */\n      0x25\n        /* \"#utility.yul\":7597:7600   */\n      dup4\n        /* \"#utility.yul\":7538:7605   */\n      tag_201\n      jump\t// in\n    tag_316:\n        /* \"#utility.yul\":7531:7605   */\n      swap2\n      pop\n        /* \"#utility.yul\":7614:7707   */\n      tag_317\n        /* \"#utility.yul\":7703:7706   */\n      dup3\n        /* \"#utility.yul\":7614:7707   */\n      tag_202\n      jump\t// in\n    tag_317:\n        /* \"#utility.yul\":7732:7734   */\n      0x40\n        /* \"#utility.yul\":7727:7730   */\n      dup3\n        /* \"#utility.yul\":7723:7735   */\n      add\n        /* \"#utility.yul\":7716:7735   */\n      swap1\n      pop\n        /* \"#utility.yul\":7375:7741   */\n      swap2\n      swap1\n      pop\n      jump\t// out\n        /* \"#utility.yul\":7747:8166   */\n    tag_74:\n        /* \"#utility.yul\":7913:7917   */\n      0x00\n        /* \"#utility.yul\":7951:7953   */\n      0x20\n        /* \"#utility.yul\":7940:7949   */\n      dup3\n        /* \"#utility.yul\":7936:7954   */\n      add\n        /* \"#utility.yul\":7928:7954   */\n      swap1\n      pop\n        /* \"#utility.yul\":8000:8009   */\n      dup2\n        /* \"#utility.yul\":7994:7998   */\n      dup2\n        /* \"#utility.yul\":7990:8010   */\n      sub\n        /* \"#utility.yul\":7986:7987   */\n      0x00\n        /* \"#utility.yul\":7975:7984   */\n      dup4\n        /* \"#utility.yul\":7971:7988   */\n      add\n        /* \"#utility.yul\":7964:8011   */\n      mstore\n        /* \"#utility.yul\":8028:8159   */\n      tag_319\n        /* \"#utility.yul\":8154:8158   */\n      dup2\n        /* \"#utility.yul\":8028:8159   */\n      tag_203\n      jump\t// in\n    tag_319:\n        /* \"#utility.yul\":8020:8159   */\n      swap1\n      pop\n        /* \"#utility.yul\":7747:8166   */\n      swap2\n      swap1\n      pop\n      jump\t// out\n        /* \"#utility.yul\":8172:8346   */\n    tag_204:\n        /* \"#utility.yul\":8312:8338   */\n      0x5370696e20616c726561647920696e2070726f67726573730000000000000000\n        /* \"#utility.yul\":8308:8309   */\n      0x00\n        /* \"#utility.yul\":8300:8306   */\n      dup3\n        /* \"#utility.yul\":8296:8310   */\n      add\n        /* \"#utility.yul\":8289:8339   */\n      mstore\n        /* \"#utility.yul\":8172:8346   */\n      pop\n      jump\t// out\n        /* \"#utility.yul\":8352:8718   */\n    tag_205:\n        /* \"#utility.yul\":8494:8497   */\n      0x00\n        /* \"#utility.yul\":8515:8582   */\n      tag_322\n        /* \"#utility.yul\":8579:8581   */\n      0x18\n        /* \"#utility.yul\":8574:8577   */\n      dup4\n        /* \"#utility.yul\":8515:8582   */\n      tag_201\n      jump\t// in\n    tag_322:\n        /* \"#utility.yul\":8508:8582   */\n      swap2\n      pop\n        /* \"#utility.yul\":8591:8684   */\n      tag_323\n        /* \"#utility.yul\":8680:8683   */\n      dup3\n        /* \"#utility.yul\":8591:8684   */\n      tag_204\n      jump\t// in\n    tag_323:\n        /* \"#utility.yul\":8709:8711   */\n      0x20\n        /* \"#utility.yul\":8704:8707   */\n      dup3\n        /* \"#utility.yul\":8700:8712   */\n      add\n        /* \"#utility.yul\":8693:8712   */\n      swap1\n      pop\n        /* \"#utility.yul\":8352:8718   */\n      swap2\n      swap1\n      pop\n      jump\t// out\n        /* \"#utility.yul\":8724:9143   */\n    tag_78:\n        /* \"#utility.yul\":8890:8894   */\n      0x00\n        /* \"#utility.yul\":8928:8930   */\n      0x20\n        /* \"#utility.yul\":8917:8926   */\n      dup3\n        /* \"#utility.yul\":8913:8931   */\n      add\n        /* \"#utility.yul\":8905:8931   */\n      swap1\n      pop\n        /* \"#utility.yul\":8977:8986   */\n      dup2\n        /* \"#utility.yul\":8971:8975   */\n      dup2\n        /* \"#utility.yul\":8967:8987   */\n      sub\n        /* \"#utility.yul\":8963:8964   */\n      0x00\n        /* \"#utility.yul\":8952:8961   */\n      dup4\n        /* \"#utility.yul\":8948:8965   */\n      add\n        /* \"#utility.yul\":8941:8988   */\n      mstore\n        /* \"#utility.yul\":9005:9136   */\n      tag_325\n        /* \"#utility.yul\":9131:9135   */\n      dup2\n        /* \"#utility.yul\":9005:9136   */\n      tag_205\n      jump\t// in\n    tag_325:\n        /* \"#utility.yul\":8997:9136   */\n      swap1\n      pop\n        /* \"#utility.yul\":8724:9143   */\n      swap2\n      swap1\n      pop\n      jump\t// out\n        /* \"#utility.yul\":9149:9313   */\n    tag_206:\n        /* \"#utility.yul\":9289:9305   */\n      0x4e6f206265747320706c61636564000000000000000000000000000000000000\n        /* \"#utility.yul\":9285:9286   */\n      0x00\n        /* \"#utility.yul\":9277:9283   */\n      dup3\n        /* \"#utility.yul\":9273:9287   */\n      add\n        /* \"#utility.yul\":9266:9306   */\n      mstore\n        /* \"#utility.yul\":9149:9313   */\n      pop\n      jump\t// out\n        /* \"#utility.yul\":9319:9685   */\n    tag_207:\n        /* \"#utility.yul\":9461:9464   */\n      0x00\n        /* \"#utility.yul\":9482:9549   */\n      tag_328\n        /* \"#utility.yul\":9546:9548   */\n      0x0e\n        /* \"#utility.yul\":9541:9544   */\n      dup4\n        /* \"#utility.yul\":9482:9549   */\n      tag_201\n      jump\t// in\n    tag_328:\n        /* \"#utility.yul\":9475:9549   */\n      swap2\n      pop\n        /* \"#utility.yul\":9558:9651   */\n      tag_329\n        /* \"#utility.yul\":9647:9650   */\n      dup3\n        /* \"#utility.yul\":9558:9651   */\n      tag_206\n      jump\t// in\n    tag_329:\n        /* \"#utility.yul\":9676:9678   */\n      0x20\n        /* \"#utility.yul\":9671:9674   */\n      dup3\n        /* \"#utility.yul\":9667:9679   */\n      add\n        /* \"#utility.yul\":9660:9679   */\n      swap1\n      pop\n        /* \"#utility.yul\":9319:9685   */\n      swap2\n      swap1\n      pop\n      jump\t// out\n        /* \"#utility.yul\":9691:10110   */\n    tag_81:\n        /* \"#utility.yul\":9857:9861   */\n      0x00\n        /* \"#utility.yul\":9895:9897   */\n      0x20\n        /* \"#utility.yul\":9884:9893   */\n      dup3\n        /* \"#utility.yul\":9880:9898   */\n      add\n        /* \"#utility.yul\":9872:9898   */\n      swap1\n      pop\n        /* \"#utility.yul\":9944:9953   */\n      dup2\n        /* \"#utility.yul\":9938:9942   */\n      dup2\n        /* \"#utility.yul\":9934:9954   */\n      sub\n        /* \"#utility.yul\":9930:9931   */\n      0x00\n        /* \"#utility.yul\":9919:9928   */\n      dup4\n        /* \"#utility.yul\":9915:9932   */\n      add\n        /* \"#utility.yul\":9908:9955   */\n      mstore\n        /* \"#utility.yul\":9972:10103   */\n      tag_331\n        /* \"#utility.yul\":10098:10102   */\n      dup2\n        /* \"#utility.yul\":9972:10103   */\n      tag_207\n      jump\t// in\n    tag_331:\n        /* \"#utility.yul\":9964:10103   */\n      swap1\n      pop\n        /* \"#utility.yul\":9691:10110   */\n      swap2\n      swap1\n      pop\n      jump\t// out\n        /* \"#utility.yul\":10116:10296   */\n    tag_208:\n        /* \"#utility.yul\":10164:10241   */\n      0x4e487b7100000000000000000000000000000000000000000000000000000000\n        /* \"#utility.yul\":10161:10162   */\n      0x00\n        /* \"#utility.yul\":10154:10242   */\n      mstore\n        /* \"#utility.yul\":10261:10265   */\n      0x11\n        /* \"#utility.yul\":10258:10259   */\n      0x04\n        /* \"#utility.yul\":10251:10266   */\n      mstore\n        /* \"#utility.yul\":10285:10289   */\n      0x24\n        /* \"#utility.yul\":10282:10283   */\n      0x00\n        /* \"#utility.yul\":10275:10290   */\n      revert\n        /* \"#utility.yul\":10302:10493   */\n    tag_83:\n        /* \"#utility.yul\":10342:10345   */\n      0x00\n        /* \"#utility.yul\":10361:10381   */\n      tag_334\n        /* \"#utility.yul\":10379:10380   */\n      dup3\n        /* \"#utility.yul\":10361:10381   */\n      tag_180\n      jump\t// in\n    tag_334:\n        /* \"#utility.yul\":10356:10381   */\n      swap2\n      pop\n        /* \"#utility.yul\":10395:10415   */\n      tag_335\n        /* \"#utility.yul\":10413:10414   */\n      dup4\n        /* \"#utility.yul\":10395:10415   */\n      tag_180\n      jump\t// in\n    tag_335:\n        /* \"#utility.yul\":10390:10415   */\n      swap3\n      pop\n        /* \"#utility.yul\":10438:10439   */\n      dup3\n        /* \"#utility.yul\":10435:10436   */\n      dup3\n        /* \"#utility.yul\":10431:10440   */\n      add\n        /* \"#utility.yul\":10424:10440   */\n      swap1\n      pop\n        /* \"#utility.yul\":10459:10462   */\n      dup1\n        /* \"#utility.yul\":10456:10457   */\n      dup3\n        /* \"#utility.yul\":10453:10463   */\n      gt\n        /* \"#utility.yul\":10450:10486   */\n      iszero\n      tag_336\n      jumpi\n        /* \"#utility.yul\":10466:10484   */\n      tag_337\n      tag_208\n      jump\t// in\n    tag_337:\n        /* \"#utility.yul\":10450:10486   */\n    tag_336:\n        /* \"#utility.yul\":10302:10493   */\n      swap3\n      swap2\n      pop\n      pop\n      jump\t// out\n        /* \"#utility.yul\":10499:10680   */\n    tag_209:\n        /* \"#utility.yul\":10639:10672   */\n      0x4e756d626572206d757374206265206265747765656e203020616e6420333600\n        /* \"#utility.yul\":10635:10636   */\n      0x00\n        /* \"#utility.yul\":10627:10633   */\n      dup3\n        /* \"#utility.yul\":10623:10637   */\n      add\n        /* \"#utility.yul\":10616:10673   */\n      mstore\n        /* \"#utility.yul\":10499:10680   */\n      pop\n      jump\t// out\n        /* \"#utility.yul\":10686:11052   */\n    tag_210:\n        /* \"#utility.yul\":10828:10831   */\n      0x00\n        /* \"#utility.yul\":10849:10916   */\n      tag_340\n        /* \"#utility.yul\":10913:10915   */\n      0x1f\n        /* \"#utility.yul\":10908:10911   */\n      dup4\n        /* \"#utility.yul\":10849:10916   */\n      tag_201\n      jump\t// in\n    tag_340:\n        /* \"#utility.yul\":10842:10916   */\n      swap2\n      pop\n        /* \"#utility.yul\":10925:11018   */\n      tag_341\n        /* \"#utility.yul\":11014:11017   */\n      dup3\n        /* \"#utility.yul\":10925:11018   */\n      tag_209\n      jump\t// in\n    tag_341:\n        /* \"#utility.yul\":11043:11045   */\n      0x20\n        /* \"#utility.yul\":11038:11041   */\n      dup3\n        /* \"#utility.yul\":11034:11046   */\n      add\n        /* \"#utility.yul\":11027:11046   */\n      swap1\n      pop\n        /* \"#utility.yul\":10686:11052   */\n      swap2\n      swap1\n      pop\n      jump\t// out\n        /* \"#utility.yul\":11058:11477   */\n    tag_93:\n        /* \"#utility.yul\":11224:11228   */\n      0x00\n        /* \"#utility.yul\":11262:11264   */\n      0x20\n        /* \"#utility.yul\":11251:11260   */\n      dup3\n        /* \"#utility.yul\":11247:11265   */\n      add\n        /* \"#utility.yul\":11239:11265   */\n      swap1\n      pop\n        /* \"#utility.yul\":11311:11320   */\n      dup2\n        /* \"#utility.yul\":11305:11309   */\n      dup2\n        /* \"#utility.yul\":11301:11321   */\n      sub\n        /* \"#utility.yul\":11297:11298   */\n      0x00\n        /* \"#utility.yul\":11286:11295   */\n      dup4\n        /* \"#utility.yul\":11282:11299   */\n      add\n        /* \"#utility.yul\":11275:11322   */\n      mstore\n        /* \"#utility.yul\":11339:11470   */\n      tag_343\n        /* \"#utility.yul\":11465:11469   */\n      dup2\n        /* \"#utility.yul\":11339:11470   */\n      tag_210\n      jump\t// in\n    tag_343:\n        /* \"#utility.yul\":11331:11470   */\n      swap1\n      pop\n        /* \"#utility.yul\":11058:11477   */\n      swap2\n      swap1\n      pop\n      jump\t// out\n        /* \"#utility.yul\":11483:11705   */\n    tag_211:\n        /* \"#utility.yul\":11623:11657   */\n      0x42657420616d6f756e742069732062656c6f7720746865206d696e696d756d20\n        /* \"#utility.yul\":11619:11620   */\n      0x00\n        /* \"#utility.yul\":11611:11617   */\n      dup3\n        /* \"#utility.yul\":11607:11621   */\n      add\n        /* \"#utility.yul\":11600:11658   */\n      mstore\n        /* \"#utility.yul\":11692:11697   */\n      0x6265740000000000000000000000000000000000000000000000000000000000\n        /* \"#utility.yul\":11687:11689   */\n      0x20\n        /* \"#utility.yul\":11679:11685   */\n      dup3\n        /* \"#utility.yul\":11675:11690   */\n      add\n        /* \"#utility.yul\":11668:11698   */\n      mstore\n        /* \"#utility.yul\":11483:11705   */\n      pop\n      jump\t// out\n        /* \"#utility.yul\":11711:12077   */\n    tag_212:\n        /* \"#utility.yul\":11853:11856   */\n      0x00\n        /* \"#utility.yul\":11874:11941   */\n      tag_346\n        /* \"#utility.yul\":11938:11940   */\n      0x23\n        /* \"#utility.yul\":11933:11936   */\n      dup4\n        /* \"#utility.yul\":11874:11941   */\n      tag_201\n      jump\t// in\n    tag_346:\n        /* \"#utility.yul\":11867:11941   */\n      swap2\n      pop\n        /* \"#utility.yul\":11950:12043   */\n      tag_347\n        /* \"#utility.yul\":12039:12042   */\n      dup3\n        /* \"#utility.yul\":11950:12043   */\n      tag_211\n      jump\t// in\n    tag_347:\n        /* \"#utility.yul\":12068:12070   */\n      0x40\n        /* \"#utility.yul\":12063:12066   */\n      dup3\n        /* \"#utility.yul\":12059:12071   */\n      add\n        /* \"#utility.yul\":12052:12071   */\n      swap1\n      pop\n        /* \"#utility.yul\":11711:12077   */\n      swap2\n      swap1\n      pop\n      jump\t// out\n        /* \"#utility.yul\":12083:12502   */\n    tag_96:\n        /* \"#utility.yul\":12249:12253   */\n      0x00\n        /* \"#utility.yul\":12287:12289   */\n      0x20\n        /* \"#utility.yul\":12276:12285   */\n      dup3\n        /* \"#utility.yul\":12272:12290   */\n      add\n        /* \"#utility.yul\":12264:12290   */\n      swap1\n      pop\n        /* \"#utility.yul\":12336:12345   */\n      dup2\n        /* \"#utility.yul\":12330:12334   */\n      dup2\n        /* \"#utility.yul\":12326:12346   */\n      sub\n        /* \"#utility.yul\":12322:12323   */\n      0x00\n        /* \"#utility.yul\":12311:12320   */\n      dup4\n        /* \"#utility.yul\":12307:12324   */\n      add\n        /* \"#utility.yul\":12300:12347   */\n      mstore\n        /* \"#utility.yul\":12364:12495   */\n      tag_349\n        /* \"#utility.yul\":12490:12494   */\n      dup2\n        /* \"#utility.yul\":12364:12495   */\n      tag_212\n      jump\t// in\n    tag_349:\n        /* \"#utility.yul\":12356:12495   */\n      swap1\n      pop\n        /* \"#utility.yul\":12083:12502   */\n      swap2\n      swap1\n      pop\n      jump\t// out\n        /* \"#utility.yul\":12508:12832   */\n    tag_99:\n        /* \"#utility.yul\":12625:12629   */\n      0x00\n        /* \"#utility.yul\":12663:12665   */\n      0x40\n        /* \"#utility.yul\":12652:12661   */\n      dup3\n        /* \"#utility.yul\":12648:12666   */\n      add\n        /* \"#utility.yul\":12640:12666   */\n      swap1\n      pop\n        /* \"#utility.yul\":12676:12743   */\n      tag_351\n        /* \"#utility.yul\":12740:12741   */\n      0x00\n        /* \"#utility.yul\":12729:12738   */\n      dup4\n        /* \"#utility.yul\":12725:12742   */\n      add\n        /* \"#utility.yul\":12716:12722   */\n      dup6\n        /* \"#utility.yul\":12676:12743   */\n      tag_187\n      jump\t// in\n    tag_351:\n        /* \"#utility.yul\":12753:12825   */\n      tag_352\n        /* \"#utility.yul\":12821:12823   */\n      0x20\n        /* \"#utility.yul\":12810:12819   */\n      dup4\n        /* \"#utility.yul\":12806:12824   */\n      add\n        /* \"#utility.yul\":12797:12803   */\n      dup5\n        /* \"#utility.yul\":12753:12825   */\n      tag_188\n      jump\t// in\n    tag_352:\n        /* \"#utility.yul\":12508:12832   */\n      swap4\n      swap3\n      pop\n      pop\n      pop\n      jump\t// out\n        /* \"#utility.yul\":12838:13015   */\n    tag_213:\n        /* \"#utility.yul\":12978:13007   */\n      0x4e6f7420656e6f75676820636f6e74726163742062616c616e63650000000000\n        /* \"#utility.yul\":12974:12975   */\n      0x00\n        /* \"#utility.yul\":12966:12972   */\n      dup3\n        /* \"#utility.yul\":12962:12976   */\n      add\n        /* \"#utility.yul\":12955:13008   */\n      mstore\n        /* \"#utility.yul\":12838:13015   */\n      pop\n      jump\t// out\n        /* \"#utility.yul\":13021:13387   */\n    tag_214:\n        /* \"#utility.yul\":13163:13166   */\n      0x00\n        /* \"#utility.yul\":13184:13251   */\n      tag_355\n        /* \"#utility.yul\":13248:13250   */\n      0x1b\n        /* \"#utility.yul\":13243:13246   */\n      dup4\n        /* \"#utility.yul\":13184:13251   */\n      tag_201\n      jump\t// in\n    tag_355:\n        /* \"#utility.yul\":13177:13251   */\n      swap2\n      pop\n        /* \"#utility.yul\":13260:13353   */\n      tag_356\n        /* \"#utility.yul\":13349:13352   */\n      dup3\n        /* \"#utility.yul\":13260:13353   */\n      tag_213\n      jump\t// in\n    tag_356:\n        /* \"#utility.yul\":13378:13380   */\n      0x20\n        /* \"#utility.yul\":13373:13376   */\n      dup3\n        /* \"#utility.yul\":13369:13381   */\n      add\n        /* \"#utility.yul\":13362:13381   */\n      swap1\n      pop\n        /* \"#utility.yul\":13021:13387   */\n      swap2\n      swap1\n      pop\n      jump\t// out\n        /* \"#utility.yul\":13393:13812   */\n    tag_106:\n        /* \"#utility.yul\":13559:13563   */\n      0x00\n        /* \"#utility.yul\":13597:13599   */\n      0x20\n        /* \"#utility.yul\":13586:13595   */\n      dup3\n        /* \"#utility.yul\":13582:13600   */\n      add\n        /* \"#utility.yul\":13574:13600   */\n      swap1\n      pop\n        /* \"#utility.yul\":13646:13655   */\n      dup2\n        /* \"#utility.yul\":13640:13644   */\n      dup2\n        /* \"#utility.yul\":13636:13656   */\n      sub\n        /* \"#utility.yul\":13632:13633   */\n      0x00\n        /* \"#utility.yul\":13621:13630   */\n      dup4\n        /* \"#utility.yul\":13617:13634   */\n      add\n        /* \"#utility.yul\":13610:13657   */\n      mstore\n        /* \"#utility.yul\":13674:13805   */\n      tag_358\n        /* \"#utility.yul\":13800:13804   */\n      dup2\n        /* \"#utility.yul\":13674:13805   */\n      tag_214\n      jump\t// in\n    tag_358:\n        /* \"#utility.yul\":13666:13805   */\n      swap1\n      pop\n        /* \"#utility.yul\":13393:13812   */\n      swap2\n      swap1\n      pop\n      jump\t// out\n        /* \"#utility.yul\":13818:13965   */\n    tag_215:\n        /* \"#utility.yul\":13919:13930   */\n      0x00\n        /* \"#utility.yul\":13956:13959   */\n      dup2\n        /* \"#utility.yul\":13941:13959   */\n      swap1\n      pop\n        /* \"#utility.yul\":13818:13965   */\n      swap3\n      swap2\n      pop\n      pop\n      jump\t// out\n        /* \"#utility.yul\":13971:14085   */\n    tag_216:\n      pop\n      jump\t// out\n        /* \"#utility.yul\":14091:14489   */\n    tag_217:\n        /* \"#utility.yul\":14250:14253   */\n      0x00\n        /* \"#utility.yul\":14271:14354   */\n      tag_362\n        /* \"#utility.yul\":14352:14353   */\n      0x00\n        /* \"#utility.yul\":14347:14350   */\n      dup4\n        /* \"#utility.yul\":14271:14354   */\n      tag_215\n      jump\t// in\n    tag_362:\n        /* \"#utility.yul\":14264:14354   */\n      swap2\n      pop\n        /* \"#utility.yul\":14363:14456   */\n      tag_363\n        /* \"#utility.yul\":14452:14455   */\n      dup3\n        /* \"#utility.yul\":14363:14456   */\n      tag_216\n      jump\t// in\n    tag_363:\n        /* \"#utility.yul\":14481:14482   */\n      0x00\n        /* \"#utility.yul\":14476:14479   */\n      dup3\n        /* \"#utility.yul\":14472:14483   */\n      add\n        /* \"#utility.yul\":14465:14483   */\n      swap1\n      pop\n        /* \"#utility.yul\":14091:14489   */\n      swap2\n      swap1\n      pop\n      jump\t// out\n        /* \"#utility.yul\":14495:14874   */\n    tag_108:\n        /* \"#utility.yul\":14679:14682   */\n      0x00\n        /* \"#utility.yul\":14701:14848   */\n      tag_365\n        /* \"#utility.yul\":14844:14847   */\n      dup3\n        /* \"#utility.yul\":14701:14848   */\n      tag_217\n      jump\t// in\n    tag_365:\n        /* \"#utility.yul\":14694:14848   */\n      swap2\n      pop\n        /* \"#utility.yul\":14865:14868   */\n      dup2\n        /* \"#utility.yul\":14858:14868   */\n      swap1\n      pop\n        /* \"#utility.yul\":14495:14874   */\n      swap2\n      swap1\n      pop\n      jump\t// out\n        /* \"#utility.yul\":14880:15045   */\n    tag_218:\n        /* \"#utility.yul\":15020:15037   */\n      0x5769746864726177206661696c65640000000000000000000000000000000000\n        /* \"#utility.yul\":15016:15017   */\n      0x00\n        /* \"#utility.yul\":15008:15014   */\n      dup3\n        /* \"#utility.yul\":15004:15018   */\n      add\n        /* \"#utility.yul\":14997:15038   */\n      mstore\n        /* \"#utility.yul\":14880:15045   */\n      pop\n      jump\t// out\n        /* \"#utility.yul\":15051:15417   */\n    tag_219:\n        /* \"#utility.yul\":15193:15196   */\n      0x00\n        /* \"#utility.yul\":15214:15281   */\n      tag_368\n        /* \"#utility.yul\":15278:15280   */\n      0x0f\n        /* \"#utility.yul\":15273:15276   */\n      dup4\n        /* \"#utility.yul\":15214:15281   */\n      tag_201\n      jump\t// in\n    tag_368:\n        /* \"#utility.yul\":15207:15281   */\n      swap2\n      pop\n        /* \"#utility.yul\":15290:15383   */\n      tag_369\n        /* \"#utility.yul\":15379:15382   */\n      dup3\n        /* \"#utility.yul\":15290:15383   */\n      tag_218\n      jump\t// in\n    tag_369:\n        /* \"#utility.yul\":15408:15410   */\n      0x20\n        /* \"#utility.yul\":15403:15406   */\n      dup3\n        /* \"#utility.yul\":15399:15411   */\n      add\n        /* \"#utility.yul\":15392:15411   */\n      swap1\n      pop\n        /* \"#utility.yul\":15051:15417   */\n      swap2\n      swap1\n      pop\n      jump\t// out\n        /* \"#utility.yul\":15423:15842   */\n    tag_114:\n        /* \"#utility.yul\":15589:15593   */\n      0x00\n        /* \"#utility.yul\":15627:15629   */\n      0x20\n        /* \"#utility.yul\":15616:15625   */\n      dup3\n        /* \"#utility.yul\":15612:15630   */\n      add\n        /* \"#utility.yul\":15604:15630   */\n      swap1\n      pop\n        /* \"#utility.yul\":15676:15685   */\n      dup2\n        /* \"#utility.yul\":15670:15674   */\n      dup2\n        /* \"#utility.yul\":15666:15686   */\n      sub\n        /* \"#utility.yul\":15662:15663   */\n      0x00\n        /* \"#utility.yul\":15651:15660   */\n      dup4\n        /* \"#utility.yul\":15647:15664   */\n      add\n        /* \"#utility.yul\":15640:15687   */\n      mstore\n        /* \"#utility.yul\":15704:15835   */\n      tag_371\n        /* \"#utility.yul\":15830:15834   */\n      dup2\n        /* \"#utility.yul\":15704:15835   */\n      tag_219\n      jump\t// in\n    tag_371:\n        /* \"#utility.yul\":15696:15835   */\n      swap1\n      pop\n        /* \"#utility.yul\":15423:15842   */\n      swap2\n      swap1\n      pop\n      jump\t// out\n        /* \"#utility.yul\":15848:16017   */\n    tag_220:\n        /* \"#utility.yul\":15988:16009   */\n      0x4e6f207370696e20696e2070726f677265737300000000000000000000000000\n        /* \"#utility.yul\":15984:15985   */\n      0x00\n        /* \"#utility.yul\":15976:15982   */\n      dup3\n        /* \"#utility.yul\":15972:15986   */\n      add\n        /* \"#utility.yul\":15965:16010   */\n      mstore\n        /* \"#utility.yul\":15848:16017   */\n      pop\n      jump\t// out\n        /* \"#utility.yul\":16023:16389   */\n    tag_221:\n        /* \"#utility.yul\":16165:16168   */\n      0x00\n        /* \"#utility.yul\":16186:16253   */\n      tag_374\n        /* \"#utility.yul\":16250:16252   */\n      0x13\n        /* \"#utility.yul\":16245:16248   */\n      dup4\n        /* \"#utility.yul\":16186:16253   */\n      tag_201\n      jump\t// in\n    tag_374:\n        /* \"#utility.yul\":16179:16253   */\n      swap2\n      pop\n        /* \"#utility.yul\":16262:16355   */\n      tag_375\n        /* \"#utility.yul\":16351:16354   */\n      dup3\n        /* \"#utility.yul\":16262:16355   */\n      tag_220\n      jump\t// in\n    tag_375:\n        /* \"#utility.yul\":16380:16382   */\n      0x20\n        /* \"#utility.yul\":16375:16378   */\n      dup3\n        /* \"#utility.yul\":16371:16383   */\n      add\n        /* \"#utility.yul\":16364:16383   */\n      swap1\n      pop\n        /* \"#utility.yul\":16023:16389   */\n      swap2\n      swap1\n      pop\n      jump\t// out\n        /* \"#utility.yul\":16395:16814   */\n    tag_125:\n        /* \"#utility.yul\":16561:16565   */\n      0x00\n        /* \"#utility.yul\":16599:16601   */\n      0x20\n        /* \"#utility.yul\":16588:16597   */\n      dup3\n        /* \"#utility.yul\":16584:16602   */\n      add\n        /* \"#utility.yul\":16576:16602   */\n      swap1\n      pop\n        /* \"#utility.yul\":16648:16657   */\n      dup2\n        /* \"#utility.yul\":16642:16646   */\n      dup2\n        /* \"#utility.yul\":16638:16658   */\n      sub\n        /* \"#utility.yul\":16634:16635   */\n      0x00\n        /* \"#utility.yul\":16623:16632   */\n      dup4\n        /* \"#utility.yul\":16619:16636   */\n      add\n        /* \"#utility.yul\":16612:16659   */\n      mstore\n        /* \"#utility.yul\":16676:16807   */\n      tag_377\n        /* \"#utility.yul\":16802:16806   */\n      dup2\n        /* \"#utility.yul\":16676:16807   */\n      tag_221\n      jump\t// in\n    tag_377:\n        /* \"#utility.yul\":16668:16807   */\n      swap1\n      pop\n        /* \"#utility.yul\":16395:16814   */\n      swap2\n      swap1\n      pop\n      jump\t// out\n        /* \"#utility.yul\":16820:16999   */\n    tag_222:\n        /* \"#utility.yul\":16960:16991   */\n      0x4e6f7420656e6f75676820626c6f636b73206861766520706173736564000000\n        /* \"#utility.yul\":16956:16957   */\n      0x00\n        /* \"#utility.yul\":16948:16954   */\n      dup3\n        /* \"#utility.yul\":16944:16958   */\n      add\n        /* \"#utility.yul\":16937:16992   */\n      mstore\n        /* \"#utility.yul\":16820:16999   */\n      pop\n      jump\t// out\n        /* \"#utility.yul\":17005:17371   */\n    tag_223:\n        /* \"#utility.yul\":17147:17150   */\n      0x00\n        /* \"#utility.yul\":17168:17235   */\n      tag_380\n        /* \"#utility.yul\":17232:17234   */\n      0x1d\n        /* \"#utility.yul\":17227:17230   */\n      dup4\n        /* \"#utility.yul\":17168:17235   */\n      tag_201\n      jump\t// in\n    tag_380:\n        /* \"#utility.yul\":17161:17235   */\n      swap2\n      pop\n        /* \"#utility.yul\":17244:17337   */\n      tag_381\n        /* \"#utility.yul\":17333:17336   */\n      dup3\n        /* \"#utility.yul\":17244:17337   */\n      tag_222\n      jump\t// in\n    tag_381:\n        /* \"#utility.yul\":17362:17364   */\n      0x20\n        /* \"#utility.yul\":17357:17360   */\n      dup3\n        /* \"#utility.yul\":17353:17365   */\n      add\n        /* \"#utility.yul\":17346:17365   */\n      swap1\n      pop\n        /* \"#utility.yul\":17005:17371   */\n      swap2\n      swap1\n      pop\n      jump\t// out\n        /* \"#utility.yul\":17377:17796   */\n    tag_128:\n        /* \"#utility.yul\":17543:17547   */\n      0x00\n        /* \"#utility.yul\":17581:17583   */\n      0x20\n        /* \"#utility.yul\":17570:17579   */\n      dup3\n        /* \"#utility.yul\":17566:17584   */\n      add\n        /* \"#utility.yul\":17558:17584   */\n      swap1\n      pop\n        /* \"#utility.yul\":17630:17639   */\n      dup2\n        /* \"#utility.yul\":17624:17628   */\n      dup2\n        /* \"#utility.yul\":17620:17640   */\n      sub\n        /* \"#utility.yul\":17616:17617   */\n      0x00\n        /* \"#utility.yul\":17605:17614   */\n      dup4\n        /* \"#utility.yul\":17601:17618   */\n      add\n        /* \"#utility.yul\":17594:17641   */\n      mstore\n        /* \"#utility.yul\":17658:17789   */\n      tag_383\n        /* \"#utility.yul\":17784:17788   */\n      dup2\n        /* \"#utility.yul\":17658:17789   */\n      tag_223\n      jump\t// in\n    tag_383:\n        /* \"#utility.yul\":17650:17789   */\n      swap1\n      pop\n        /* \"#utility.yul\":17377:17796   */\n      swap2\n      swap1\n      pop\n      jump\t// out\n        /* \"#utility.yul\":17802:18023   */\n    tag_224:\n        /* \"#utility.yul\":17942:17976   */\n      0x426c6f636b68617368206e6f7420617661696c61626c65206f7220746f6f206f\n        /* \"#utility.yul\":17938:17939   */\n      0x00\n        /* \"#utility.yul\":17930:17936   */\n      dup3\n        /* \"#utility.yul\":17926:17940   */\n      add\n        /* \"#utility.yul\":17919:17977   */\n      mstore\n        /* \"#utility.yul\":18011:18015   */\n      0x6c64000000000000000000000000000000000000000000000000000000000000\n        /* \"#utility.yul\":18006:18008   */\n      0x20\n        /* \"#utility.yul\":17998:18004   */\n      dup3\n        /* \"#utility.yul\":17994:18009   */\n      add\n        /* \"#utility.yul\":17987:18016   */\n      mstore\n        /* \"#utility.yul\":17802:18023   */\n      pop\n      jump\t// out\n        /* \"#utility.yul\":18029:18395   */\n    tag_225:\n        /* \"#utility.yul\":18171:18174   */\n      0x00\n        /* \"#utility.yul\":18192:18259   */\n      tag_386\n        /* \"#utility.yul\":18256:18258   */\n      0x22\n        /* \"#utility.yul\":18251:18254   */\n      dup4\n        /* \"#utility.yul\":18192:18259   */\n      tag_201\n      jump\t// in\n    tag_386:\n        /* \"#utility.yul\":18185:18259   */\n      swap2\n      pop\n        /* \"#utility.yul\":18268:18361   */\n      tag_387\n        /* \"#utility.yul\":18357:18360   */\n      dup3\n        /* \"#utility.yul\":18268:18361   */\n      tag_224\n      jump\t// in\n    tag_387:\n        /* \"#utility.yul\":18386:18388   */\n      0x40\n        /* \"#utility.yul\":18381:18384   */\n      dup3\n        /* \"#utility.yul\":18377:18389   */\n      add\n        /* \"#utility.yul\":18370:18389   */\n      swap1\n      pop\n        /* \"#utility.yul\":18029:18395   */\n      swap2\n      swap1\n      pop\n      jump\t// out\n        /* \"#utility.yul\":18401:18820   */\n    tag_131:\n        /* \"#utility.yul\":18567:18571   */\n      0x00\n        /* \"#utility.yul\":18605:18607   */\n      0x20\n        /* \"#utility.yul\":18594:18603   */\n      dup3\n        /* \"#utility.yul\":18590:18608   */\n      add\n        /* \"#utility.yul\":18582:18608   */\n      swap1\n      pop\n        /* \"#utility.yul\":18654:18663   */\n      dup2\n        /* \"#utility.yul\":18648:18652   */\n      dup2\n        /* \"#utility.yul\":18644:18664   */\n      sub\n        /* \"#utility.yul\":18640:18641   */\n      0x00\n        /* \"#utility.yul\":18629:18638   */\n      dup4\n        /* \"#utility.yul\":18625:18642   */\n      add\n        /* \"#utility.yul\":18618:18665   */\n      mstore\n        /* \"#utility.yul\":18682:18813   */\n      tag_389\n        /* \"#utility.yul\":18808:18812   */\n      dup2\n        /* \"#utility.yul\":18682:18813   */\n      tag_225\n      jump\t// in\n    tag_389:\n        /* \"#utility.yul\":18674:18813   */\n      swap1\n      pop\n        /* \"#utility.yul\":18401:18820   */\n      swap2\n      swap1\n      pop\n      jump\t// out\n        /* \"#utility.yul\":18826:18903   */\n    tag_226:\n        /* \"#utility.yul\":18863:18870   */\n      0x00\n        /* \"#utility.yul\":18892:18897   */\n      dup2\n        /* \"#utility.yul\":18881:18897   */\n      swap1\n      pop\n        /* \"#utility.yul\":18826:18903   */\n      swap2\n      swap1\n      pop\n      jump\t// out\n        /* \"#utility.yul\":18909:18988   */\n    tag_227:\n        /* \"#utility.yul\":18948:18955   */\n      0x00\n        /* \"#utility.yul\":18977:18982   */\n      dup2\n        /* \"#utility.yul\":18966:18982   */\n      swap1\n      pop\n        /* \"#utility.yul\":18909:18988   */\n      swap2\n      swap1\n      pop\n      jump\t// out\n        /* \"#utility.yul\":18994:19151   */\n    tag_228:\n        /* \"#utility.yul\":19099:19144   */\n      tag_393\n        /* \"#utility.yul\":19119:19143   */\n      tag_394\n        /* \"#utility.yul\":19137:19142   */\n      dup3\n        /* \"#utility.yul\":19119:19143   */\n      tag_226\n      jump\t// in\n    tag_394:\n        /* \"#utility.yul\":19099:19144   */\n      tag_227\n      jump\t// in\n    tag_393:\n        /* \"#utility.yul\":19094:19097   */\n      dup3\n        /* \"#utility.yul\":19087:19145   */\n      mstore\n        /* \"#utility.yul\":18994:19151   */\n      pop\n      pop\n      jump\t// out\n        /* \"#utility.yul\":19157:19251   */\n    tag_229:\n        /* \"#utility.yul\":19190:19198   */\n      0x00\n        /* \"#utility.yul\":19238:19243   */\n      dup2\n        /* \"#utility.yul\":19234:19236   */\n      0x60\n        /* \"#utility.yul\":19230:19244   */\n      shl\n        /* \"#utility.yul\":19209:19244   */\n      swap1\n      pop\n        /* \"#utility.yul\":19157:19251   */\n      swap2\n      swap1\n      pop\n      jump\t// out\n        /* \"#utility.yul\":19257:19351   */\n    tag_230:\n        /* \"#utility.yul\":19296:19303   */\n      0x00\n        /* \"#utility.yul\":19325:19345   */\n      tag_397\n        /* \"#utility.yul\":19339:19344   */\n      dup3\n        /* \"#utility.yul\":19325:19345   */\n      tag_229\n      jump\t// in\n    tag_397:\n        /* \"#utility.yul\":19314:19345   */\n      swap1\n      pop\n        /* \"#utility.yul\":19257:19351   */\n      swap2\n      swap1\n      pop\n      jump\t// out\n        /* \"#utility.yul\":19357:19457   */\n    tag_231:\n        /* \"#utility.yul\":19396:19403   */\n      0x00\n        /* \"#utility.yul\":19425:19451   */\n      tag_399\n        /* \"#utility.yul\":19445:19450   */\n      dup3\n        /* \"#utility.yul\":19425:19451   */\n      tag_230\n      jump\t// in\n    tag_399:\n        /* \"#utility.yul\":19414:19451   */\n      swap1\n      pop\n        /* \"#utility.yul\":19357:19457   */\n      swap2\n      swap1\n      pop\n      jump\t// out\n        /* \"#utility.yul\":19463:19620   */\n    tag_232:\n        /* \"#utility.yul\":19568:19613   */\n      tag_401\n        /* \"#utility.yul\":19588:19612   */\n      tag_402\n        /* \"#utility.yul\":19606:19611   */\n      dup3\n        /* \"#utility.yul\":19588:19612   */\n      tag_184\n      jump\t// in\n    tag_402:\n        /* \"#utility.yul\":19568:19613   */\n      tag_231\n      jump\t// in\n    tag_401:\n        /* \"#utility.yul\":19563:19566   */\n      dup3\n        /* \"#utility.yul\":19556:19614   */\n      mstore\n        /* \"#utility.yul\":19463:19620   */\n      pop\n      pop\n      jump\t// out\n        /* \"#utility.yul\":19626:19705   */\n    tag_233:\n        /* \"#utility.yul\":19665:19672   */\n      0x00\n        /* \"#utility.yul\":19694:19699   */\n      dup2\n        /* \"#utility.yul\":19683:19699   */\n      swap1\n      pop\n        /* \"#utility.yul\":19626:19705   */\n      swap2\n      swap1\n      pop\n      jump\t// out\n        /* \"#utility.yul\":19711:19868   */\n    tag_234:\n        /* \"#utility.yul\":19816:19861   */\n      tag_405\n        /* \"#utility.yul\":19836:19860   */\n      tag_406\n        /* \"#utility.yul\":19854:19859   */\n      dup3\n        /* \"#utility.yul\":19836:19860   */\n      tag_180\n      jump\t// in\n    tag_406:\n        /* \"#utility.yul\":19816:19861   */\n      tag_233\n      jump\t// in\n    tag_405:\n        /* \"#utility.yul\":19811:19814   */\n      dup3\n        /* \"#utility.yul\":19804:19862   */\n      mstore\n        /* \"#utility.yul\":19711:19868   */\n      pop\n      pop\n      jump\t// out\n        /* \"#utility.yul\":19874:20412   */\n    tag_133:\n        /* \"#utility.yul\":20042:20045   */\n      0x00\n        /* \"#utility.yul\":20057:20132   */\n      tag_408\n        /* \"#utility.yul\":20128:20131   */\n      dup3\n        /* \"#utility.yul\":20119:20125   */\n      dup7\n        /* \"#utility.yul\":20057:20132   */\n      tag_228\n      jump\t// in\n    tag_408:\n        /* \"#utility.yul\":20157:20159   */\n      0x20\n        /* \"#utility.yul\":20152:20155   */\n      dup3\n        /* \"#utility.yul\":20148:20160   */\n      add\n        /* \"#utility.yul\":20141:20160   */\n      swap2\n      pop\n        /* \"#utility.yul\":20170:20245   */\n      tag_409\n        /* \"#utility.yul\":20241:20244   */\n      dup3\n        /* \"#utility.yul\":20232:20238   */\n      dup6\n        /* \"#utility.yul\":20170:20245   */\n      tag_232\n      jump\t// in\n    tag_409:\n        /* \"#utility.yul\":20270:20272   */\n      0x14\n        /* \"#utility.yul\":20265:20268   */\n      dup3\n        /* \"#utility.yul\":20261:20273   */\n      add\n        /* \"#utility.yul\":20254:20273   */\n      swap2\n      pop\n        /* \"#utility.yul\":20283:20358   */\n      tag_410\n        /* \"#utility.yul\":20354:20357   */\n      dup3\n        /* \"#utility.yul\":20345:20351   */\n      dup5\n        /* \"#utility.yul\":20283:20358   */\n      tag_234\n      jump\t// in\n    tag_410:\n        /* \"#utility.yul\":20383:20385   */\n      0x20\n        /* \"#utility.yul\":20378:20381   */\n      dup3\n        /* \"#utility.yul\":20374:20386   */\n      add\n        /* \"#utility.yul\":20367:20386   */\n      swap2\n      pop\n        /* \"#utility.yul\":20403:20406   */\n      dup2\n        /* \"#utility.yul\":20396:20406   */\n      swap1\n      pop\n        /* \"#utility.yul\":19874:20412   */\n      swap5\n      swap4\n      pop\n      pop\n      pop\n      pop\n      jump\t// out\n        /* \"#utility.yul\":20418:20598   */\n    tag_235:\n        /* \"#utility.yul\":20466:20543   */\n      0x4e487b7100000000000000000000000000000000000000000000000000000000\n        /* \"#utility.yul\":20463:20464   */\n      0x00\n        /* \"#utility.yul\":20456:20544   */\n      mstore\n        /* \"#utility.yul\":20563:20567   */\n      0x12\n        /* \"#utility.yul\":20560:20561   */\n      0x04\n        /* \"#utility.yul\":20553:20568   */\n      mstore\n        /* \"#utility.yul\":20587:20591   */\n      0x24\n        /* \"#utility.yul\":20584:20585   */\n      0x00\n        /* \"#utility.yul\":20577:20592   */\n      revert\n        /* \"#utility.yul\":20604:20780   */\n    tag_135:\n        /* \"#utility.yul\":20636:20637   */\n      0x00\n        /* \"#utility.yul\":20653:20673   */\n      tag_413\n        /* \"#utility.yul\":20671:20672   */\n      dup3\n        /* \"#utility.yul\":20653:20673   */\n      tag_180\n      jump\t// in\n    tag_413:\n        /* \"#utility.yul\":20648:20673   */\n      swap2\n      pop\n        /* \"#utility.yul\":20687:20707   */\n      tag_414\n        /* \"#utility.yul\":20705:20706   */\n      dup4\n        /* \"#utility.yul\":20687:20707   */\n      tag_180\n      jump\t// in\n    tag_414:\n        /* \"#utility.yul\":20682:20707   */\n      swap3\n      pop\n        /* \"#utility.yul\":20726:20727   */\n      dup3\n        /* \"#utility.yul\":20716:20751   */\n      tag_415\n      jumpi\n        /* \"#utility.yul\":20731:20749   */\n      tag_416\n      tag_235\n      jump\t// in\n    tag_416:\n        /* \"#utility.yul\":20716:20751   */\n    tag_415:\n        /* \"#utility.yul\":20772:20773   */\n      dup3\n        /* \"#utility.yul\":20769:20770   */\n      dup3\n        /* \"#utility.yul\":20765:20774   */\n      mod\n        /* \"#utility.yul\":20760:20774   */\n      swap1\n      pop\n        /* \"#utility.yul\":20604:20780   */\n      swap3\n      swap2\n      pop\n      pop\n      jump\t// out\n        /* \"#utility.yul\":20786:21000   */\n    tag_137:\n        /* \"#utility.yul\":20875:20879   */\n      0x00\n        /* \"#utility.yul\":20913:20915   */\n      0x20\n        /* \"#utility.yul\":20902:20911   */\n      dup3\n        /* \"#utility.yul\":20898:20916   */\n      add\n        /* \"#utility.yul\":20890:20916   */\n      swap1\n      pop\n        /* \"#utility.yul\":20926:20993   */\n      tag_418\n        /* \"#utility.yul\":20990:20991   */\n      0x00\n        /* \"#utility.yul\":20979:20988   */\n      dup4\n        /* \"#utility.yul\":20975:20992   */\n      add\n        /* \"#utility.yul\":20966:20972   */\n      dup5\n        /* \"#utility.yul\":20926:20993   */\n      tag_187\n      jump\t// in\n    tag_418:\n        /* \"#utility.yul\":20786:21000   */\n      swap3\n      swap2\n      pop\n      pop\n      jump\t// out\n        /* \"#utility.yul\":21006:21186   */\n    tag_143:\n        /* \"#utility.yul\":21054:21131   */\n      0x4e487b7100000000000000000000000000000000000000000000000000000000\n        /* \"#utility.yul\":21051:21052   */\n      0x00\n        /* \"#utility.yul\":21044:21132   */\n      mstore\n        /* \"#utility.yul\":21151:21155   */\n      0x32\n        /* \"#utility.yul\":21148:21149   */\n      0x04\n        /* \"#utility.yul\":21141:21156   */\n      mstore\n        /* \"#utility.yul\":21175:21179   */\n      0x24\n        /* \"#utility.yul\":21172:21173   */\n      0x00\n        /* \"#utility.yul\":21165:21180   */\n      revert\n        /* \"#utility.yul\":21192:21602   */\n    tag_147:\n        /* \"#utility.yul\":21232:21239   */\n      0x00\n        /* \"#utility.yul\":21255:21275   */\n      tag_421\n        /* \"#utility.yul\":21273:21274   */\n      dup3\n        /* \"#utility.yul\":21255:21275   */\n      tag_180\n      jump\t// in\n    tag_421:\n        /* \"#utility.yul\":21250:21275   */\n      swap2\n      pop\n        /* \"#utility.yul\":21289:21309   */\n      tag_422\n        /* \"#utility.yul\":21307:21308   */\n      dup4\n        /* \"#utility.yul\":21289:21309   */\n      tag_180\n      jump\t// in\n    tag_422:\n        /* \"#utility.yul\":21284:21309   */\n      swap3\n      pop\n        /* \"#utility.yul\":21344:21345   */\n      dup3\n        /* \"#utility.yul\":21341:21342   */\n      dup3\n        /* \"#utility.yul\":21337:21346   */\n      mul\n        /* \"#utility.yul\":21366:21396   */\n      tag_423\n        /* \"#utility.yul\":21384:21395   */\n      dup2\n        /* \"#utility.yul\":21366:21396   */\n      tag_180\n      jump\t// in\n    tag_423:\n        /* \"#utility.yul\":21355:21396   */\n      swap2\n      pop\n        /* \"#utility.yul\":21545:21546   */\n      dup3\n        /* \"#utility.yul\":21536:21543   */\n      dup3\n        /* \"#utility.yul\":21532:21547   */\n      div\n        /* \"#utility.yul\":21529:21530   */\n      dup5\n        /* \"#utility.yul\":21526:21548   */\n      eq\n        /* \"#utility.yul\":21506:21507   */\n      dup4\n        /* \"#utility.yul\":21499:21508   */\n      iszero\n        /* \"#utility.yul\":21479:21562   */\n      or\n        /* \"#utility.yul\":21456:21595   */\n      tag_424\n      jumpi\n        /* \"#utility.yul\":21575:21593   */\n      tag_425\n      tag_208\n      jump\t// in\n    tag_425:\n        /* \"#utility.yul\":21456:21595   */\n    tag_424:\n        /* \"#utility.yul\":21240:21602   */\n      pop\n        /* \"#utility.yul\":21192:21602   */\n      swap3\n      swap2\n      pop\n      pop\n      jump\t// out\n        /* \"#utility.yul\":21608:21783   */\n    tag_236:\n        /* \"#utility.yul\":21748:21775   */\n      0x5472616e7366657220746f2077696e6e6572206661696c656400000000000000\n        /* \"#utility.yul\":21744:21745   */\n      0x00\n        /* \"#utility.yul\":21736:21742   */\n      dup3\n        /* \"#utility.yul\":21732:21746   */\n      add\n        /* \"#utility.yul\":21725:21776   */\n      mstore\n        /* \"#utility.yul\":21608:21783   */\n      pop\n      jump\t// out\n        /* \"#utility.yul\":21789:22155   */\n    tag_237:\n        /* \"#utility.yul\":21931:21934   */\n      0x00\n        /* \"#utility.yul\":21952:22019   */\n      tag_428\n        /* \"#utility.yul\":22016:22018   */\n      0x19\n        /* \"#utility.yul\":22011:22014   */\n      dup4\n        /* \"#utility.yul\":21952:22019   */\n      tag_201\n      jump\t// in\n    tag_428:\n        /* \"#utility.yul\":21945:22019   */\n      swap2\n      pop\n        /* \"#utility.yul\":22028:22121   */\n      tag_429\n        /* \"#utility.yul\":22117:22120   */\n      dup3\n        /* \"#utility.yul\":22028:22121   */\n      tag_236\n      jump\t// in\n    tag_429:\n        /* \"#utility.yul\":22146:22148   */\n      0x20\n        /* \"#utility.yul\":22141:22144   */\n      dup3\n        /* \"#utility.yul\":22137:22149   */\n      add\n        /* \"#utility.yul\":22130:22149   */\n      swap1\n      pop\n        /* \"#utility.yul\":21789:22155   */\n      swap2\n      swap1\n      pop\n      jump\t// out\n        /* \"#utility.yul\":22161:22580   */\n    tag_154:\n        /* \"#utility.yul\":22327:22331   */\n      0x00\n        /* \"#utility.yul\":22365:22367   */\n      0x20\n        /* \"#utility.yul\":22354:22363   */\n      dup3\n        /* \"#utility.yul\":22350:22368   */\n      add\n        /* \"#utility.yul\":22342:22368   */\n      swap1\n      pop\n        /* \"#utility.yul\":22414:22423   */\n      dup2\n        /* \"#utility.yul\":22408:22412   */\n      dup2\n        /* \"#utility.yul\":22404:22424   */\n      sub\n        /* \"#utility.yul\":22400:22401   */\n      0x00\n        /* \"#utility.yul\":22389:22398   */\n      dup4\n        /* \"#utility.yul\":22385:22402   */\n      add\n        /* \"#utility.yul\":22378:22425   */\n      mstore\n        /* \"#utility.yul\":22442:22573   */\n      tag_431\n        /* \"#utility.yul\":22568:22572   */\n      dup2\n        /* \"#utility.yul\":22442:22573   */\n      tag_237\n      jump\t// in\n    tag_431:\n        /* \"#utility.yul\":22434:22573   */\n      swap1\n      pop\n        /* \"#utility.yul\":22161:22580   */\n      swap2\n      swap1\n      pop\n      jump\t// out\n        /* \"#utility.yul\":22586:22760   */\n    tag_238:\n        /* \"#utility.yul\":22726:22752   */\n      0x5472616e7366657220746f20686f757365206661696c65640000000000000000\n        /* \"#utility.yul\":22722:22723   */\n      0x00\n        /* \"#utility.yul\":22714:22720   */\n      dup3\n        /* \"#utility.yul\":22710:22724   */\n      add\n        /* \"#utility.yul\":22703:22753   */\n      mstore\n        /* \"#utility.yul\":22586:22760   */\n      pop\n      jump\t// out\n        /* \"#utility.yul\":22766:23132   */\n    tag_239:\n        /* \"#utility.yul\":22908:22911   */\n      0x00\n        /* \"#utility.yul\":22929:22996   */\n      tag_434\n        /* \"#utility.yul\":22993:22995   */\n      0x18\n        /* \"#utility.yul\":22988:22991   */\n      dup4\n        /* \"#utility.yul\":22929:22996   */\n      tag_201\n      jump\t// in\n    tag_434:\n        /* \"#utility.yul\":22922:22996   */\n      swap2\n      pop\n        /* \"#utility.yul\":23005:23098   */\n      tag_435\n        /* \"#utility.yul\":23094:23097   */\n      dup3\n        /* \"#utility.yul\":23005:23098   */\n      tag_238\n      jump\t// in\n    tag_435:\n        /* \"#utility.yul\":23123:23125   */\n      0x20\n        /* \"#utility.yul\":23118:23121   */\n      dup3\n        /* \"#utility.yul\":23114:23126   */\n      add\n        /* \"#utility.yul\":23107:23126   */\n      swap1\n      pop\n        /* \"#utility.yul\":22766:23132   */\n      swap2\n      swap1\n      pop\n      jump\t// out\n        /* \"#utility.yul\":23138:23557   */\n    tag_165:\n        /* \"#utility.yul\":23304:23308   */\n      0x00\n        /* \"#utility.yul\":23342:23344   */\n      0x20\n        /* \"#utility.yul\":23331:23340   */\n      dup3\n        /* \"#utility.yul\":23327:23345   */\n      add\n        /* \"#utility.yul\":23319:23345   */\n      swap1\n      pop\n        /* \"#utility.yul\":23391:23400   */\n      dup2\n        /* \"#utility.yul\":23385:23389   */\n      dup2\n        /* \"#utility.yul\":23381:23401   */\n      sub\n        /* \"#utility.yul\":23377:23378   */\n      0x00\n        /* \"#utility.yul\":23366:23375   */\n      dup4\n        /* \"#utility.yul\":23362:23379   */\n      add\n        /* \"#utility.yul\":23355:23402   */\n      mstore\n        /* \"#utility.yul\":23419:23550   */\n      tag_437\n        /* \"#utility.yul\":23545:23549   */\n      dup2\n        /* \"#utility.yul\":23419:23550   */\n      tag_239\n      jump\t// in\n    tag_437:\n        /* \"#utility.yul\":23411:23550   */\n      swap1\n      pop\n        /* \"#utility.yul\":23138:23557   */\n      swap2\n      swap1\n      pop\n      jump\t// out\n\n    auxdata: 0xa2646970667358221220a93cf7c65b9f3ebb2e4ec4abe4eb3e63242486ad577902e76fa3867eaf77a01964736f6c634300081a0033\n}\n",
				"bytecode": {
					"linkReferences": {},
					"object": "6080604052348015600e575f80fd5b50604051611b14380380611b148339818101604052810190602e919060ac565b3360025f6101000a81548173ffffffffffffffffffffffffffffffffffffffff021916908373ffffffffffffffffffffffffffffffffffffffff160217905550806001819055505060d2565b5f80fd5b5f819050919050565b608e81607e565b81146097575f80fd5b50565b5f8151905060a6816087565b92915050565b5f6020828403121560be5760bd607a565b5b5f60c984828501609a565b91505092915050565b611a35806100df5f395ff3fe6080604052600436106100a9575f3560e01c80637d59441a116100635780637d59441a146101a257806388ea41b9146101ca5780638da5cb5b146101f25780639619367d1461021c578063a89f5e4414610246578063f222d0b91461025c576100b0565b80624e1639146100b457806315ecef92146100de57806322af00fa146100f45780632907e62c146101325780633b4ca5d21461015c5780634304684414610186576100b0565b366100b057005b5f80fd5b3480156100bf575f80fd5b506100c8610286565b6040516100d59190610f52565b60405180910390f35b3480156100e9575f80fd5b506100f2610298565b005b3480156100ff575f80fd5b5061011a60048036038101906101159190610fa2565b61041a565b60405161012993929190611036565b60405180910390f35b34801561013d575f80fd5b50610146610479565b604051610153919061106b565b60405180910390f35b348015610167575f80fd5b5061017061047f565b60405161017d9190611199565b60405180910390f35b6101a0600480360381019061019b91906111e3565b610554565b005b3480156101ad575f80fd5b506101c860048036038101906101c39190610fa2565b6106fe565b005b3480156101d5575f80fd5b506101f060048036038101906101eb9190610fa2565b61089d565b005b3480156101fd575f80fd5b50610206610936565b604051610213919061120e565b60405180910390f35b348015610227575f80fd5b5061023061095b565b60405161023d919061106b565b60405180910390f35b348015610251575f80fd5b5061025a610961565b005b348015610267575f80fd5b50610270610eb6565b60405161027d919061106b565b60405180910390f35b60045f9054906101000a900460ff1681565b60025f9054906101000a900473ffffffffffffffffffffffffffffffffffffffff1673ffffffffffffffffffffffffffffffffffffffff163373ffffffffffffffffffffffffffffffffffffffff1614610327576040517f08c379a000000000000000000000000000000000000000000000000000000000815260040161031e906112a7565b60405180910390fd5b60045f9054906101000a900460ff1615610376576040517f08c379a000000000000000000000000000000000000000000000000000000000815260040161036d9061130f565b60405180910390fd5b5f8080549050116103bc576040517f08c379a00000000000000000000000000000000000000000000000000000000081526004016103b390611377565b60405180910390fd5b6007436103c991906113c2565b600381905550600160045f6101000a81548160ff0219169083151502179055506003547f9558f786996d7e66b128ffd9573973279e17ae6683c7983ce0ce84bd897d5aa260405160405180910390a2565b5f8181548110610428575f80fd5b905f5260205f2090600202015f91509050805f015f9054906101000a900473ffffffffffffffffffffffffffffffffffffffff1690805f0160149054906101000a900460ff16908060010154905083565b60035481565b60605f805480602002602001604051908101604052809291908181526020015f905b8282101561054b578382905f5260205f2090600202016040518060600160405290815f82015f9054906101000a900473ffffffffffffffffffffffffffffffffffffffff1673ffffffffffffffffffffffffffffffffffffffff1673ffffffffffffffffffffffffffffffffffffffff1681526020015f820160149054906101000a900460ff1660ff1660ff168152602001600182015481525050815260200190600101906104a1565b50505050905090565b60248160ff16111561059b576040517f08c379a00000000000000000000000000000000000000000000000000000000081526004016105929061143f565b60405180910390fd5b6001543410156105e0576040517f08c379a00000000000000000000000000000000000000000000000000000000081526004016105d7906114cd565b60405180910390fd5b5f60405180606001604052803373ffffffffffffffffffffffffffffffffffffffff1681526020018360ff16815260200134815250908060018154018082558091505060019003905f5260205f2090600202015f909190919091505f820151815f015f6101000a81548173ffffffffffffffffffffffffffffffffffffffff021916908373ffffffffffffffffffffffffffffffffffffffff1602179055506020820151815f0160146101000a81548160ff021916908360ff1602179055506040820151816001015550503373ffffffffffffffffffffffffffffffffffffffff167f9f6b4cced64244a64465098f682029975b1614400b96bc6bd12c66808371916682346040516106f39291906114eb565b60405180910390a250565b60025f9054906101000a900473ffffffffffffffffffffffffffffffffffffffff1673ffffffffffffffffffffffffffffffffffffffff163373ffffffffffffffffffffffffffffffffffffffff161461078d576040517f08c379a0000000000000000000000000000000000000000000000000000000008152600401610784906112a7565b60405180910390fd5b478111156107d0576040517f08c379a00000000000000000000000000000000000000000000000000000000081526004016107c79061155c565b60405180910390fd5b5f60025f9054906101000a900473ffffffffffffffffffffffffffffffffffffffff1673ffffffffffffffffffffffffffffffffffffffff1682604051610816906115a7565b5f6040518083038185875af1925050503d805f8114610850576040519150601f19603f3d011682016040523d82523d5f602084013e610855565b606091505b5050905080610899576040517f08c379a000000000000000000000000000000000000000000000000000000000815260040161089090611605565b60405180910390fd5b5050565b60025f9054906101000a900473ffffffffffffffffffffffffffffffffffffffff1673ffffffffffffffffffffffffffffffffffffffff163373ffffffffffffffffffffffffffffffffffffffff161461092c576040517f08c379a0000000000000000000000000000000000000000000000000000000008152600401610923906112a7565b60405180910390fd5b8060018190555050565b60025f9054906101000a900473ffffffffffffffffffffffffffffffffffffffff1681565b60015481565b60025f9054906101000a900473ffffffffffffffffffffffffffffffffffffffff1673ffffffffffffffffffffffffffffffffffffffff163373ffffffffffffffffffffffffffffffffffffffff16146109f0576040517f08c379a00000000000000000000000000000000000000000000000000000000081526004016109e7906112a7565b60405180910390fd5b60045f9054906101000a900460ff16610a3e576040517f08c379a0000000000000000000000000000000000000000000000000000000008152600401610a359061166d565b60405180910390fd5b600354431015610a83576040517f08c379a0000000000000000000000000000000000000000000000000000000008152600401610a7a906116d5565b60405180910390fd5b5f6003544090505f801b8103610ace576040517f08c379a0000000000000000000000000000000000000000000000000000000008152600401610ac590611763565b60405180910390fd5b5f81305f80549050604051602001610ae89392919061180f565b604051602081830303815290604052805190602001205f1c90505f602582610b109190611878565b90507fee38b53cfee7ef3833287e8806626e415e7ca0441e14b436cdb7b681f7c4474481604051610b4191906118a8565b60405180910390a15f805b5f80549050811015610d48575f808281548110610b6c57610b6b6118c1565b5b905f5260205f2090600202016040518060600160405290815f82015f9054906101000a900473ffffffffffffffffffffffffffffffffffffffff1673ffffffffffffffffffffffffffffffffffffffff1673ffffffffffffffffffffffffffffffffffffffff1681526020015f820160149054906101000a900460ff1660ff1660ff16815260200160018201548152505090508360ff16816020015160ff1603610d27575f60248260400151610c2291906118ee565b90505f825f015173ffffffffffffffffffffffffffffffffffffffff1682604051610c4c906115a7565b5f6040518083038185875af1925050503d805f8114610c86576040519150601f19603f3d011682016040523d82523d5f602084013e610c8b565b606091505b5050905080610ccf576040517f08c379a0000000000000000000000000000000000000000000000000000000008152600401610cc690611979565b60405180910390fd5b825f015173ffffffffffffffffffffffffffffffffffffffff167f5afeca38b2064c23a692c4cf353015d80ab3ecc417b4f893f372690c11fbd9a683604051610d18919061106b565b60405180910390a25050610d3a565b806040015183610d3791906113c2565b92505b508080600101915050610b4c565b505f811115610e8b575f60025f9054906101000a900473ffffffffffffffffffffffffffffffffffffffff1673ffffffffffffffffffffffffffffffffffffffff1682604051610d97906115a7565b5f6040518083038185875af1925050503d805f8114610dd1576040519150601f19603f3d011682016040523d82523d5f602084013e610dd6565b606091505b5050905080610e1a576040517f08c379a0000000000000000000000000000000000000000000000000000000008152600401610e11906119e1565b60405180910390fd5b60025f9054906101000a900473ffffffffffffffffffffffffffffffffffffffff1673ffffffffffffffffffffffffffffffffffffffff167f3ee2ea076f8c03e334fba9777d3e41285053f2c24a54595f1066eae169b2b97783604051610e81919061106b565b60405180910390a2505b5f80610e979190610ec1565b5f60045f6101000a81548160ff02191690831515021790555050505050565b5f8080549050905090565b5080545f8255600202905f5260205f2090810190610edf9190610ee2565b50565b5b80821115610f34575f8082015f6101000a81549073ffffffffffffffffffffffffffffffffffffffff02191690555f820160146101000a81549060ff0219169055600182015f905550600201610ee3565b5090565b5f8115159050919050565b610f4c81610f38565b82525050565b5f602082019050610f655f830184610f43565b92915050565b5f80fd5b5f819050919050565b610f8181610f6f565b8114610f8b575f80fd5b50565b5f81359050610f9c81610f78565b92915050565b5f60208284031215610fb757610fb6610f6b565b5b5f610fc484828501610f8e565b91505092915050565b5f73ffffffffffffffffffffffffffffffffffffffff82169050919050565b5f610ff682610fcd565b9050919050565b61100681610fec565b82525050565b5f60ff82169050919050565b6110218161100c565b82525050565b61103081610f6f565b82525050565b5f6060820190506110495f830186610ffd565b6110566020830185611018565b6110636040830184611027565b949350505050565b5f60208201905061107e5f830184611027565b92915050565b5f81519050919050565b5f82825260208201905092915050565b5f819050602082019050919050565b6110b681610fec565b82525050565b6110c58161100c565b82525050565b6110d481610f6f565b82525050565b606082015f8201516110ee5f8501826110ad565b50602082015161110160208501826110bc565b50604082015161111460408501826110cb565b50505050565b5f61112583836110da565b60608301905092915050565b5f602082019050919050565b5f61114782611084565b611151818561108e565b935061115c8361109e565b805f5b8381101561118c578151611173888261111a565b975061117e83611131565b92505060018101905061115f565b5085935050505092915050565b5f6020820190508181035f8301526111b1818461113d565b905092915050565b6111c28161100c565b81146111cc575f80fd5b50565b5f813590506111dd816111b9565b92915050565b5f602082840312156111f8576111f7610f6b565b5b5f611205848285016111cf565b91505092915050565b5f6020820190506112215f830184610ffd565b92915050565b5f82825260208201905092915050565b7f4f6e6c7920746865206f776e65722063616e2063616c6c20746869732066756e5f8201527f6374696f6e000000000000000000000000000000000000000000000000000000602082015250565b5f611291602583611227565b915061129c82611237565b604082019050919050565b5f6020820190508181035f8301526112be81611285565b9050919050565b7f5370696e20616c726561647920696e2070726f677265737300000000000000005f82015250565b5f6112f9601883611227565b9150611304826112c5565b602082019050919050565b5f6020820190508181035f830152611326816112ed565b9050919050565b7f4e6f206265747320706c616365640000000000000000000000000000000000005f82015250565b5f611361600e83611227565b915061136c8261132d565b602082019050919050565b5f6020820190508181035f83015261138e81611355565b9050919050565b7f4e487b71000000000000000000000000000000000000000000000000000000005f52601160045260245ffd5b5f6113cc82610f6f565b91506113d783610f6f565b92508282019050808211156113ef576113ee611395565b5b92915050565b7f4e756d626572206d757374206265206265747765656e203020616e64203336005f82015250565b5f611429601f83611227565b9150611434826113f5565b602082019050919050565b5f6020820190508181035f8301526114568161141d565b9050919050565b7f42657420616d6f756e742069732062656c6f7720746865206d696e696d756d205f8201527f6265740000000000000000000000000000000000000000000000000000000000602082015250565b5f6114b7602383611227565b91506114c28261145d565b604082019050919050565b5f6020820190508181035f8301526114e4816114ab565b9050919050565b5f6040820190506114fe5f830185611018565b61150b6020830184611027565b9392505050565b7f4e6f7420656e6f75676820636f6e74726163742062616c616e636500000000005f82015250565b5f611546601b83611227565b915061155182611512565b602082019050919050565b5f6020820190508181035f8301526115738161153a565b9050919050565b5f81905092915050565b50565b5f6115925f8361157a565b915061159d82611584565b5f82019050919050565b5f6115b182611587565b9150819050919050565b7f5769746864726177206661696c656400000000000000000000000000000000005f82015250565b5f6115ef600f83611227565b91506115fa826115bb565b602082019050919050565b5f6020820190508181035f83015261161c816115e3565b9050919050565b7f4e6f207370696e20696e2070726f6772657373000000000000000000000000005f82015250565b5f611657601383611227565b915061166282611623565b602082019050919050565b5f6020820190508181035f8301526116848161164b565b9050919050565b7f4e6f7420656e6f75676820626c6f636b732068617665207061737365640000005f82015250565b5f6116bf601d83611227565b91506116ca8261168b565b602082019050919050565b5f6020820190508181035f8301526116ec816116b3565b9050919050565b7f426c6f636b68617368206e6f7420617661696c61626c65206f7220746f6f206f5f8201527f6c64000000000000000000000000000000000000000000000000000000000000602082015250565b5f61174d602283611227565b9150611758826116f3565b604082019050919050565b5f6020820190508181035f83015261177a81611741565b9050919050565b5f819050919050565b5f819050919050565b6117a461179f82611781565b61178a565b82525050565b5f8160601b9050919050565b5f6117c0826117aa565b9050919050565b5f6117d1826117b6565b9050919050565b6117e96117e482610fec565b6117c7565b82525050565b5f819050919050565b61180961180482610f6f565b6117ef565b82525050565b5f61181a8286611793565b60208201915061182a82856117d8565b60148201915061183a82846117f8565b602082019150819050949350505050565b7f4e487b71000000000000000000000000000000000000000000000000000000005f52601260045260245ffd5b5f61188282610f6f565b915061188d83610f6f565b92508261189d5761189c61184b565b5b828206905092915050565b5f6020820190506118bb5f830184611018565b92915050565b7f4e487b71000000000000000000000000000000000000000000000000000000005f52603260045260245ffd5b5f6118f882610f6f565b915061190383610f6f565b925082820261191181610f6f565b9150828204841483151761192857611927611395565b5b5092915050565b7f5472616e7366657220746f2077696e6e6572206661696c6564000000000000005f82015250565b5f611963601983611227565b915061196e8261192f565b602082019050919050565b5f6020820190508181035f83015261199081611957565b9050919050565b7f5472616e7366657220746f20686f757365206661696c656400000000000000005f82015250565b5f6119cb601883611227565b91506119d682611997565b602082019050919050565b5f6020820190508181035f8301526119f8816119bf565b905091905056fea2646970667358221220a93cf7c65b9f3ebb2e4ec4abe4eb3e63242486ad577902e76fa3867eaf77a01964736f6c634300081a0033",
					"opcodes": "PUSH1 0x80 PUSH1 0x40 MSTORE CALLVALUE DUP1 ISZERO PUSH1 0xE JUMPI PUSH0 DUP1 REVERT JUMPDEST POP PUSH1 0x40 MLOAD PUSH2 0x1B14 CODESIZE SUB DUP1 PUSH2 0x1B14 DUP4 CODECOPY DUP2 DUP2 ADD PUSH1 0x40 MSTORE DUP2 ADD SWAP1 PUSH1 0x2E SWAP2 SWAP1 PUSH1 0xAC JUMP JUMPDEST CALLER PUSH1 0x2 PUSH0 PUSH2 0x100 EXP DUP2 SLOAD DUP2 PUSH20 0xFFFFFFFFFFFFFFFFFFFFFFFFFFFFFFFFFFFFFFFF MUL NOT AND SWAP1 DUP4 PUSH20 0xFFFFFFFFFFFFFFFFFFFFFFFFFFFFFFFFFFFFFFFF AND MUL OR SWAP1 SSTORE POP DUP1 PUSH1 0x1 DUP2 SWAP1 SSTORE POP POP PUSH1 0xD2 JUMP JUMPDEST PUSH0 DUP1 REVERT JUMPDEST PUSH0 DUP2 SWAP1 POP SWAP2 SWAP1 POP JUMP JUMPDEST PUSH1 0x8E DUP2 PUSH1 0x7E JUMP JUMPDEST DUP2 EQ PUSH1 0x97 JUMPI PUSH0 DUP1 REVERT JUMPDEST POP JUMP JUMPDEST PUSH0 DUP2 MLOAD SWAP1 POP PUSH1 0xA6 DUP2 PUSH1 0x87 JUMP JUMPDEST SWAP3 SWAP2 POP POP JUMP JUMPDEST PUSH0 PUSH1 0x20 DUP3 DUP5 SUB SLT ISZERO PUSH1 0xBE JUMPI PUSH1 0xBD PUSH1 0x7A JUMP JUMPDEST JUMPDEST PUSH0 PUSH1 0xC9 DUP5 DUP3 DUP6 ADD PUSH1 0x9A JUMP JUMPDEST SWAP2 POP POP SWAP3 SWAP2 POP POP JUMP JUMPDEST PUSH2 0x1A35 DUP1 PUSH2 0xDF PUSH0 CODECOPY PUSH0 RETURN INVALID PUSH1 0x80 PUSH1 0x40 MSTORE PUSH1 0x4 CALLDATASIZE LT PUSH2 0xA9 JUMPI PUSH0 CALLDATALOAD PUSH1 0xE0 SHR DUP1 PUSH4 0x7D59441A GT PUSH2 0x63 JUMPI DUP1 PUSH4 0x7D59441A EQ PUSH2 0x1A2 JUMPI DUP1 PUSH4 0x88EA41B9 EQ PUSH2 0x1CA JUMPI DUP1 PUSH4 0x8DA5CB5B EQ PUSH2 0x1F2 JUMPI DUP1 PUSH4 0x9619367D EQ PUSH2 0x21C JUMPI DUP1 PUSH4 0xA89F5E44 EQ PUSH2 0x246 JUMPI DUP1 PUSH4 0xF222D0B9 EQ PUSH2 0x25C JUMPI PUSH2 0xB0 JUMP JUMPDEST DUP1 PUSH3 0x4E1639 EQ PUSH2 0xB4 JUMPI DUP1 PUSH4 0x15ECEF92 EQ PUSH2 0xDE JUMPI DUP1 PUSH4 0x22AF00FA EQ PUSH2 0xF4 JUMPI DUP1 PUSH4 0x2907E62C EQ PUSH2 0x132 JUMPI DUP1 PUSH4 0x3B4CA5D2 EQ PUSH2 0x15C JUMPI DUP1 PUSH4 0x43046844 EQ PUSH2 0x186 JUMPI PUSH2 0xB0 JUMP JUMPDEST CALLDATASIZE PUSH2 0xB0 JUMPI STOP JUMPDEST PUSH0 DUP1 REVERT JUMPDEST CALLVALUE DUP1 ISZERO PUSH2 0xBF JUMPI PUSH0 DUP1 REVERT JUMPDEST POP PUSH2 0xC8 PUSH2 0x286 JUMP JUMPDEST PUSH1 0x40 MLOAD PUSH2 0xD5 SWAP2 SWAP1 PUSH2 0xF52 JUMP JUMPDEST PUSH1 0x40 MLOAD DUP1 SWAP2 SUB SWAP1 RETURN JUMPDEST CALLVALUE DUP1 ISZERO PUSH2 0xE9 JUMPI PUSH0 DUP1 REVERT JUMPDEST POP PUSH2 0xF2 PUSH2 0x298 JUMP JUMPDEST STOP JUMPDEST CALLVALUE DUP1 ISZERO PUSH2 0xFF JUMPI PUSH0 DUP1 REVERT JUMPDEST POP PUSH2 0x11A PUSH1 0x4 DUP1 CALLDATASIZE SUB DUP2 ADD SWAP1 PUSH2 0x115 SWAP2 SWAP1 PUSH2 0xFA2 JUMP JUMPDEST PUSH2 0x41A JUMP JUMPDEST PUSH1 0x40 MLOAD PUSH2 0x129 SWAP4 SWAP3 SWAP2 SWAP1 PUSH2 0x1036 JUMP JUMPDEST PUSH1 0x40 MLOAD DUP1 SWAP2 SUB SWAP1 RETURN JUMPDEST CALLVALUE DUP1 ISZERO PUSH2 0x13D JUMPI PUSH0 DUP1 REVERT JUMPDEST POP PUSH2 0x146 PUSH2 0x479 JUMP JUMPDEST PUSH1 0x40 MLOAD PUSH2 0x153 SWAP2 SWAP1 PUSH2 0x106B JUMP JUMPDEST PUSH1 0x40 MLOAD DUP1 SWAP2 SUB SWAP1 RETURN JUMPDEST CALLVALUE DUP1 ISZERO PUSH2 0x167 JUMPI PUSH0 DUP1 REVERT JUMPDEST POP PUSH2 0x170 PUSH2 0x47F JUMP JUMPDEST PUSH1 0x40 MLOAD PUSH2 0x17D SWAP2 SWAP1 PUSH2 0x1199 JUMP JUMPDEST PUSH1 0x40 MLOAD DUP1 SWAP2 SUB SWAP1 RETURN JUMPDEST PUSH2 0x1A0 PUSH1 0x4 DUP1 CALLDATASIZE SUB DUP2 ADD SWAP1 PUSH2 0x19B SWAP2 SWAP1 PUSH2 0x11E3 JUMP JUMPDEST PUSH2 0x554 JUMP JUMPDEST STOP JUMPDEST CALLVALUE DUP1 ISZERO PUSH2 0x1AD JUMPI PUSH0 DUP1 REVERT JUMPDEST POP PUSH2 0x1C8 PUSH1 0x4 DUP1 CALLDATASIZE SUB DUP2 ADD SWAP1 PUSH2 0x1C3 SWAP2 SWAP1 PUSH2 0xFA2 JUMP JUMPDEST PUSH2 0x6FE JUMP JUMPDEST STOP JUMPDEST CALLVALUE DUP1 ISZERO PUSH2 0x1D5 JUMPI PUSH0 DUP1 REVERT JUMPDEST POP PUSH2 0x1F0 PUSH1 0x4 DUP1 CALLDATASIZE SUB DUP2 ADD SWAP1 PUSH2 0x1EB SWAP2 SWAP1 PUSH2 0xFA2 JUMP JUMPDEST PUSH2 0x89D JUMP JUMPDEST STOP JUMPDEST CALLVALUE DUP1 ISZERO PUSH2 0x1FD JUMPI PUSH0 DUP1 REVERT JUMPDEST POP PUSH2 0x206 PUSH2 0x936 JUMP JUMPDEST PUSH1 0x40 MLOAD PUSH2 0x213 SWAP2 SWAP1 PUSH2 0x120E JUMP JUMPDEST PUSH1 0x40 MLOAD DUP1 SWAP2 SUB SWAP1 RETURN JUMPDEST CALLVALUE DUP1 ISZERO PUSH2 0x227 JUMPI PUSH0 DUP1 REVERT JUMPDEST POP PUSH2 0x230 PUSH2 0x95B JUMP JUMPDEST PUSH1 0x40 MLOAD PUSH2 0x23D SWAP2 SWAP1 PUSH2 0x106B JUMP JUMPDEST PUSH1 0x40 MLOAD DUP1 SWAP2 SUB SWAP1 RETURN JUMPDEST CALLVALUE DUP1 ISZERO PUSH2 0x251 JUMPI PUSH0 DUP1 REVERT JUMPDEST POP PUSH2 0x25A PUSH2 0x961 JUMP JUMPDEST STOP JUMPDEST CALLVALUE DUP1 ISZERO PUSH2 0x267 JUMPI PUSH0 DUP1 REVERT JUMPDEST POP PUSH2 0x270 PUSH2 0xEB6 JUMP JUMPDEST PUSH1 0x40 MLOAD PUSH2 0x27D SWAP2 SWAP1 PUSH2 0x106B JUMP JUMPDEST PUSH1 0x40 MLOAD DUP1 SWAP2 SUB SWAP1 RETURN JUMPDEST PUSH1 0x4 PUSH0 SWAP1 SLOAD SWAP1 PUSH2 0x100 EXP SWAP1 DIV PUSH1 0xFF AND DUP2 JUMP JUMPDEST PUSH1 0x2 PUSH0 SWAP1 SLOAD SWAP1 PUSH2 0x100 EXP SWAP1 DIV PUSH20 0xFFFFFFFFFFFFFFFFFFFFFFFFFFFFFFFFFFFFFFFF AND PUSH20 0xFFFFFFFFFFFFFFFFFFFFFFFFFFFFFFFFFFFFFFFF AND CALLER PUSH20 0xFFFFFFFFFFFFFFFFFFFFFFFFFFFFFFFFFFFFFFFF AND EQ PUSH2 0x327 JUMPI PUSH1 0x40 MLOAD PUSH32 0x8C379A000000000000000000000000000000000000000000000000000000000 DUP2 MSTORE PUSH1 0x4 ADD PUSH2 0x31E SWAP1 PUSH2 0x12A7 JUMP JUMPDEST PUSH1 0x40 MLOAD DUP1 SWAP2 SUB SWAP1 REVERT JUMPDEST PUSH1 0x4 PUSH0 SWAP1 SLOAD SWAP1 PUSH2 0x100 EXP SWAP1 DIV PUSH1 0xFF AND ISZERO PUSH2 0x376 JUMPI PUSH1 0x40 MLOAD PUSH32 0x8C379A000000000000000000000000000000000000000000000000000000000 DUP2 MSTORE PUSH1 0x4 ADD PUSH2 0x36D SWAP1 PUSH2 0x130F JUMP JUMPDEST PUSH1 0x40 MLOAD DUP1 SWAP2 SUB SWAP1 REVERT JUMPDEST PUSH0 DUP1 DUP1 SLOAD SWAP1 POP GT PUSH2 0x3BC JUMPI PUSH1 0x40 MLOAD PUSH32 0x8C379A000000000000000000000000000000000000000000000000000000000 DUP2 MSTORE PUSH1 0x4 ADD PUSH2 0x3B3 SWAP1 PUSH2 0x1377 JUMP JUMPDEST PUSH1 0x40 MLOAD DUP1 SWAP2 SUB SWAP1 REVERT JUMPDEST PUSH1 0x7 NUMBER PUSH2 0x3C9 SWAP2 SWAP1 PUSH2 0x13C2 JUMP JUMPDEST PUSH1 0x3 DUP2 SWAP1 SSTORE POP PUSH1 0x1 PUSH1 0x4 PUSH0 PUSH2 0x100 EXP DUP2 SLOAD DUP2 PUSH1 0xFF MUL NOT AND SWAP1 DUP4 ISZERO ISZERO MUL OR SWAP1 SSTORE POP PUSH1 0x3 SLOAD PUSH32 0x9558F786996D7E66B128FFD9573973279E17AE6683C7983CE0CE84BD897D5AA2 PUSH1 0x40 MLOAD PUSH1 0x40 MLOAD DUP1 SWAP2 SUB SWAP1 LOG2 JUMP JUMPDEST PUSH0 DUP2 DUP2 SLOAD DUP2 LT PUSH2 0x428 JUMPI PUSH0 DUP1 REVERT JUMPDEST SWAP1 PUSH0 MSTORE PUSH1 0x20 PUSH0 KECCAK256 SWAP1 PUSH1 0x2 MUL ADD PUSH0 SWAP2 POP SWAP1 POP DUP1 PUSH0 ADD PUSH0 SWAP1 SLOAD SWAP1 PUSH2 0x100 EXP SWAP1 DIV PUSH20 0xFFFFFFFFFFFFFFFFFFFFFFFFFFFFFFFFFFFFFFFF AND SWAP1 DUP1 PUSH0 ADD PUSH1 0x14 SWAP1 SLOAD SWAP1 PUSH2 0x100 EXP SWAP1 DIV PUSH1 0xFF AND SWAP1 DUP1 PUSH1 0x1 ADD SLOAD SWAP1 POP DUP4 JUMP JUMPDEST PUSH1 0x3 SLOAD DUP2 JUMP JUMPDEST PUSH1 0x60 PUSH0 DUP1 SLOAD DUP1 PUSH1 0x20 MUL PUSH1 0x20 ADD PUSH1 0x40 MLOAD SWAP1 DUP2 ADD PUSH1 0x40 MSTORE DUP1 SWAP3 SWAP2 SWAP1 DUP2 DUP2 MSTORE PUSH1 0x20 ADD PUSH0 SWAP1 JUMPDEST DUP3 DUP3 LT ISZERO PUSH2 0x54B JUMPI DUP4 DUP3 SWAP1 PUSH0 MSTORE PUSH1 0x20 PUSH0 KECCAK256 SWAP1 PUSH1 0x2 MUL ADD PUSH1 0x40 MLOAD DUP1 PUSH1 0x60 ADD PUSH1 0x40 MSTORE SWAP1 DUP2 PUSH0 DUP3 ADD PUSH0 SWAP1 SLOAD SWAP1 PUSH2 0x100 EXP SWAP1 DIV PUSH20 0xFFFFFFFFFFFFFFFFFFFFFFFFFFFFFFFFFFFFFFFF AND PUSH20 0xFFFFFFFFFFFFFFFFFFFFFFFFFFFFFFFFFFFFFFFF AND PUSH20 0xFFFFFFFFFFFFFFFFFFFFFFFFFFFFFFFFFFFFFFFF AND DUP2 MSTORE PUSH1 0x20 ADD PUSH0 DUP3 ADD PUSH1 0x14 SWAP1 SLOAD SWAP1 PUSH2 0x100 EXP SWAP1 DIV PUSH1 0xFF AND PUSH1 0xFF AND PUSH1 0xFF AND DUP2 MSTORE PUSH1 0x20 ADD PUSH1 0x1 DUP3 ADD SLOAD DUP2 MSTORE POP POP DUP2 MSTORE PUSH1 0x20 ADD SWAP1 PUSH1 0x1 ADD SWAP1 PUSH2 0x4A1 JUMP JUMPDEST POP POP POP POP SWAP1 POP SWAP1 JUMP JUMPDEST PUSH1 0x24 DUP2 PUSH1 0xFF AND GT ISZERO PUSH2 0x59B JUMPI PUSH1 0x40 MLOAD PUSH32 0x8C379A000000000000000000000000000000000000000000000000000000000 DUP2 MSTORE PUSH1 0x4 ADD PUSH2 0x592 SWAP1 PUSH2 0x143F JUMP JUMPDEST PUSH1 0x40 MLOAD DUP1 SWAP2 SUB SWAP1 REVERT JUMPDEST PUSH1 0x1 SLOAD CALLVALUE LT ISZERO PUSH2 0x5E0 JUMPI PUSH1 0x40 MLOAD PUSH32 0x8C379A000000000000000000000000000000000000000000000000000000000 DUP2 MSTORE PUSH1 0x4 ADD PUSH2 0x5D7 SWAP1 PUSH2 0x14CD JUMP JUMPDEST PUSH1 0x40 MLOAD DUP1 SWAP2 SUB SWAP1 REVERT JUMPDEST PUSH0 PUSH1 0x40 MLOAD DUP1 PUSH1 0x60 ADD PUSH1 0x40 MSTORE DUP1 CALLER PUSH20 0xFFFFFFFFFFFFFFFFFFFFFFFFFFFFFFFFFFFFFFFF AND DUP2 MSTORE PUSH1 0x20 ADD DUP4 PUSH1 0xFF AND DUP2 MSTORE PUSH1 0x20 ADD CALLVALUE DUP2 MSTORE POP SWAP1 DUP1 PUSH1 0x1 DUP2 SLOAD ADD DUP1 DUP3 SSTORE DUP1 SWAP2 POP POP PUSH1 0x1 SWAP1 SUB SWAP1 PUSH0 MSTORE PUSH1 0x20 PUSH0 KECCAK256 SWAP1 PUSH1 0x2 MUL ADD PUSH0 SWAP1 SWAP2 SWAP1 SWAP2 SWAP1 SWAP2 POP PUSH0 DUP3 ADD MLOAD DUP2 PUSH0 ADD PUSH0 PUSH2 0x100 EXP DUP2 SLOAD DUP2 PUSH20 0xFFFFFFFFFFFFFFFFFFFFFFFFFFFFFFFFFFFFFFFF MUL NOT AND SWAP1 DUP4 PUSH20 0xFFFFFFFFFFFFFFFFFFFFFFFFFFFFFFFFFFFFFFFF AND MUL OR SWAP1 SSTORE POP PUSH1 0x20 DUP3 ADD MLOAD DUP2 PUSH0 ADD PUSH1 0x14 PUSH2 0x100 EXP DUP2 SLOAD DUP2 PUSH1 0xFF MUL NOT AND SWAP1 DUP4 PUSH1 0xFF AND MUL OR SWAP1 SSTORE POP PUSH1 0x40 DUP3 ADD MLOAD DUP2 PUSH1 0x1 ADD SSTORE POP POP CALLER PUSH20 0xFFFFFFFFFFFFFFFFFFFFFFFFFFFFFFFFFFFFFFFF AND PUSH32 0x9F6B4CCED64244A64465098F682029975B1614400B96BC6BD12C668083719166 DUP3 CALLVALUE PUSH1 0x40 MLOAD PUSH2 0x6F3 SWAP3 SWAP2 SWAP1 PUSH2 0x14EB JUMP JUMPDEST PUSH1 0x40 MLOAD DUP1 SWAP2 SUB SWAP1 LOG2 POP JUMP JUMPDEST PUSH1 0x2 PUSH0 SWAP1 SLOAD SWAP1 PUSH2 0x100 EXP SWAP1 DIV PUSH20 0xFFFFFFFFFFFFFFFFFFFFFFFFFFFFFFFFFFFFFFFF AND PUSH20 0xFFFFFFFFFFFFFFFFFFFFFFFFFFFFFFFFFFFFFFFF AND CALLER PUSH20 0xFFFFFFFFFFFFFFFFFFFFFFFFFFFFFFFFFFFFFFFF AND EQ PUSH2 0x78D JUMPI PUSH1 0x40 MLOAD PUSH32 0x8C379A000000000000000000000000000000000000000000000000000000000 DUP2 MSTORE PUSH1 0x4 ADD PUSH2 0x784 SWAP1 PUSH2 0x12A7 JUMP JUMPDEST PUSH1 0x40 MLOAD DUP1 SWAP2 SUB SWAP1 REVERT JUMPDEST SELFBALANCE DUP2 GT ISZERO PUSH2 0x7D0 JUMPI PUSH1 0x40 MLOAD PUSH32 0x8C379A000000000000000000000000000000000000000000000000000000000 DUP2 MSTORE PUSH1 0x4 ADD PUSH2 0x7C7 SWAP1 PUSH2 0x155C JUMP JUMPDEST PUSH1 0x40 MLOAD DUP1 SWAP2 SUB SWAP1 REVERT JUMPDEST PUSH0 PUSH1 0x2 PUSH0 SWAP1 SLOAD SWAP1 PUSH2 0x100 EXP SWAP1 DIV PUSH20 0xFFFFFFFFFFFFFFFFFFFFFFFFFFFFFFFFFFFFFFFF AND PUSH20 0xFFFFFFFFFFFFFFFFFFFFFFFFFFFFFFFFFFFFFFFF AND DUP3 PUSH1 0x40 MLOAD PUSH2 0x816 SWAP1 PUSH2 0x15A7 JUMP JUMPDEST PUSH0 PUSH1 0x40 MLOAD DUP1 DUP4 SUB DUP2 DUP6 DUP8 GAS CALL SWAP3 POP POP POP RETURNDATASIZE DUP1 PUSH0 DUP2 EQ PUSH2 0x850 JUMPI PUSH1 0x40 MLOAD SWAP2 POP PUSH1 0x1F NOT PUSH1 0x3F RETURNDATASIZE ADD AND DUP3 ADD PUSH1 0x40 MSTORE RETURNDATASIZE DUP3 MSTORE RETURNDATASIZE PUSH0 PUSH1 0x20 DUP5 ADD RETURNDATACOPY PUSH2 0x855 JUMP JUMPDEST PUSH1 0x60 SWAP2 POP JUMPDEST POP POP SWAP1 POP DUP1 PUSH2 0x899 JUMPI PUSH1 0x40 MLOAD PUSH32 0x8C379A000000000000000000000000000000000000000000000000000000000 DUP2 MSTORE PUSH1 0x4 ADD PUSH2 0x890 SWAP1 PUSH2 0x1605 JUMP JUMPDEST PUSH1 0x40 MLOAD DUP1 SWAP2 SUB SWAP1 REVERT JUMPDEST POP POP JUMP JUMPDEST PUSH1 0x2 PUSH0 SWAP1 SLOAD SWAP1 PUSH2 0x100 EXP SWAP1 DIV PUSH20 0xFFFFFFFFFFFFFFFFFFFFFFFFFFFFFFFFFFFFFFFF AND PUSH20 0xFFFFFFFFFFFFFFFFFFFFFFFFFFFFFFFFFFFFFFFF AND CALLER PUSH20 0xFFFFFFFFFFFFFFFFFFFFFFFFFFFFFFFFFFFFFFFF AND EQ PUSH2 0x92C JUMPI PUSH1 0x40 MLOAD PUSH32 0x8C379A000000000000000000000000000000000000000000000000000000000 DUP2 MSTORE PUSH1 0x4 ADD PUSH2 0x923 SWAP1 PUSH2 0x12A7 JUMP JUMPDEST PUSH1 0x40 MLOAD DUP1 SWAP2 SUB SWAP1 REVERT JUMPDEST DUP1 PUSH1 0x1 DUP2 SWAP1 SSTORE POP POP JUMP JUMPDEST PUSH1 0x2 PUSH0 SWAP1 SLOAD SWAP1 PUSH2 0x100 EXP SWAP1 DIV PUSH20 0xFFFFFFFFFFFFFFFFFFFFFFFFFFFFFFFFFFFFFFFF AND DUP2 JUMP JUMPDEST PUSH1 0x1 SLOAD DUP2 JUMP JUMPDEST PUSH1 0x2 PUSH0 SWAP1 SLOAD SWAP1 PUSH2 0x100 EXP SWAP1 DIV PUSH20 0xFFFFFFFFFFFFFFFFFFFFFFFFFFFFFFFFFFFFFFFF AND PUSH20 0xFFFFFFFFFFFFFFFFFFFFFFFFFFFFFFFFFFFFFFFF AND CALLER PUSH20 0xFFFFFFFFFFFFFFFFFFFFFFFFFFFFFFFFFFFFFFFF AND EQ PUSH2 0x9F0 JUMPI PUSH1 0x40 MLOAD PUSH32 0x8C379A000000000000000000000000000000000000000000000000000000000 DUP2 MSTORE PUSH1 0x4 ADD PUSH2 0x9E7 SWAP1 PUSH2 0x12A7 JUMP JUMPDEST PUSH1 0x40 MLOAD DUP1 SWAP2 SUB SWAP1 REVERT JUMPDEST PUSH1 0x4 PUSH0 SWAP1 SLOAD SWAP1 PUSH2 0x100 EXP SWAP1 DIV PUSH1 0xFF AND PUSH2 0xA3E JUMPI PUSH1 0x40 MLOAD PUSH32 0x8C379A000000000000000000000000000000000000000000000000000000000 DUP2 MSTORE PUSH1 0x4 ADD PUSH2 0xA35 SWAP1 PUSH2 0x166D JUMP JUMPDEST PUSH1 0x40 MLOAD DUP1 SWAP2 SUB SWAP1 REVERT JUMPDEST PUSH1 0x3 SLOAD NUMBER LT ISZERO PUSH2 0xA83 JUMPI PUSH1 0x40 MLOAD PUSH32 0x8C379A000000000000000000000000000000000000000000000000000000000 DUP2 MSTORE PUSH1 0x4 ADD PUSH2 0xA7A SWAP1 PUSH2 0x16D5 JUMP JUMPDEST PUSH1 0x40 MLOAD DUP1 SWAP2 SUB SWAP1 REVERT JUMPDEST PUSH0 PUSH1 0x3 SLOAD BLOCKHASH SWAP1 POP PUSH0 DUP1 SHL DUP2 SUB PUSH2 0xACE JUMPI PUSH1 0x40 MLOAD PUSH32 0x8C379A000000000000000000000000000000000000000000000000000000000 DUP2 MSTORE PUSH1 0x4 ADD PUSH2 0xAC5 SWAP1 PUSH2 0x1763 JUMP JUMPDEST PUSH1 0x40 MLOAD DUP1 SWAP2 SUB SWAP1 REVERT JUMPDEST PUSH0 DUP2 ADDRESS PUSH0 DUP1 SLOAD SWAP1 POP PUSH1 0x40 MLOAD PUSH1 0x20 ADD PUSH2 0xAE8 SWAP4 SWAP3 SWAP2 SWAP1 PUSH2 0x180F JUMP JUMPDEST PUSH1 0x40 MLOAD PUSH1 0x20 DUP2 DUP4 SUB SUB DUP2 MSTORE SWAP1 PUSH1 0x40 MSTORE DUP1 MLOAD SWAP1 PUSH1 0x20 ADD KECCAK256 PUSH0 SHR SWAP1 POP PUSH0 PUSH1 0x25 DUP3 PUSH2 0xB10 SWAP2 SWAP1 PUSH2 0x1878 JUMP JUMPDEST SWAP1 POP PUSH32 0xEE38B53CFEE7EF3833287E8806626E415E7CA0441E14B436CDB7B681F7C44744 DUP2 PUSH1 0x40 MLOAD PUSH2 0xB41 SWAP2 SWAP1 PUSH2 0x18A8 JUMP JUMPDEST PUSH1 0x40 MLOAD DUP1 SWAP2 SUB SWAP1 LOG1 PUSH0 DUP1 JUMPDEST PUSH0 DUP1 SLOAD SWAP1 POP DUP2 LT ISZERO PUSH2 0xD48 JUMPI PUSH0 DUP1 DUP3 DUP2 SLOAD DUP2 LT PUSH2 0xB6C JUMPI PUSH2 0xB6B PUSH2 0x18C1 JUMP JUMPDEST JUMPDEST SWAP1 PUSH0 MSTORE PUSH1 0x20 PUSH0 KECCAK256 SWAP1 PUSH1 0x2 MUL ADD PUSH1 0x40 MLOAD DUP1 PUSH1 0x60 ADD PUSH1 0x40 MSTORE SWAP1 DUP2 PUSH0 DUP3 ADD PUSH0 SWAP1 SLOAD SWAP1 PUSH2 0x100 EXP SWAP1 DIV PUSH20 0xFFFFFFFFFFFFFFFFFFFFFFFFFFFFFFFFFFFFFFFF AND PUSH20 0xFFFFFFFFFFFFFFFFFFFFFFFFFFFFFFFFFFFFFFFF AND PUSH20 0xFFFFFFFFFFFFFFFFFFFFFFFFFFFFFFFFFFFFFFFF AND DUP2 MSTORE PUSH1 0x20 ADD PUSH0 DUP3 ADD PUSH1 0x14 SWAP1 SLOAD SWAP1 PUSH2 0x100 EXP SWAP1 DIV PUSH1 0xFF AND PUSH1 0xFF AND PUSH1 0xFF AND DUP2 MSTORE PUSH1 0x20 ADD PUSH1 0x1 DUP3 ADD SLOAD DUP2 MSTORE POP POP SWAP1 POP DUP4 PUSH1 0xFF AND DUP2 PUSH1 0x20 ADD MLOAD PUSH1 0xFF AND SUB PUSH2 0xD27 JUMPI PUSH0 PUSH1 0x24 DUP3 PUSH1 0x40 ADD MLOAD PUSH2 0xC22 SWAP2 SWAP1 PUSH2 0x18EE JUMP JUMPDEST SWAP1 POP PUSH0 DUP3 PUSH0 ADD MLOAD PUSH20 0xFFFFFFFFFFFFFFFFFFFFFFFFFFFFFFFFFFFFFFFF AND DUP3 PUSH1 0x40 MLOAD PUSH2 0xC4C SWAP1 PUSH2 0x15A7 JUMP JUMPDEST PUSH0 PUSH1 0x40 MLOAD DUP1 DUP4 SUB DUP2 DUP6 DUP8 GAS CALL SWAP3 POP POP POP RETURNDATASIZE DUP1 PUSH0 DUP2 EQ PUSH2 0xC86 JUMPI PUSH1 0x40 MLOAD SWAP2 POP PUSH1 0x1F NOT PUSH1 0x3F RETURNDATASIZE ADD AND DUP3 ADD PUSH1 0x40 MSTORE RETURNDATASIZE DUP3 MSTORE RETURNDATASIZE PUSH0 PUSH1 0x20 DUP5 ADD RETURNDATACOPY PUSH2 0xC8B JUMP JUMPDEST PUSH1 0x60 SWAP2 POP JUMPDEST POP POP SWAP1 POP DUP1 PUSH2 0xCCF JUMPI PUSH1 0x40 MLOAD PUSH32 0x8C379A000000000000000000000000000000000000000000000000000000000 DUP2 MSTORE PUSH1 0x4 ADD PUSH2 0xCC6 SWAP1 PUSH2 0x1979 JUMP JUMPDEST PUSH1 0x40 MLOAD DUP1 SWAP2 SUB SWAP1 REVERT JUMPDEST DUP3 PUSH0 ADD MLOAD PUSH20 0xFFFFFFFFFFFFFFFFFFFFFFFFFFFFFFFFFFFFFFFF AND PUSH32 0x5AFECA38B2064C23A692C4CF353015D80AB3ECC417B4F893F372690C11FBD9A6 DUP4 PUSH1 0x40 MLOAD PUSH2 0xD18 SWAP2 SWAP1 PUSH2 0x106B JUMP JUMPDEST PUSH1 0x40 MLOAD DUP1 SWAP2 SUB SWAP1 LOG2 POP POP PUSH2 0xD3A JUMP JUMPDEST DUP1 PUSH1 0x40 ADD MLOAD DUP4 PUSH2 0xD37 SWAP2 SWAP1 PUSH2 0x13C2 JUMP JUMPDEST SWAP3 POP JUMPDEST POP DUP1 DUP1 PUSH1 0x1 ADD SWAP2 POP POP PUSH2 0xB4C JUMP JUMPDEST POP PUSH0 DUP2 GT ISZERO PUSH2 0xE8B JUMPI PUSH0 PUSH1 0x2 PUSH0 SWAP1 SLOAD SWAP1 PUSH2 0x100 EXP SWAP1 DIV PUSH20 0xFFFFFFFFFFFFFFFFFFFFFFFFFFFFFFFFFFFFFFFF AND PUSH20 0xFFFFFFFFFFFFFFFFFFFFFFFFFFFFFFFFFFFFFFFF AND DUP3 PUSH1 0x40 MLOAD PUSH2 0xD97 SWAP1 PUSH2 0x15A7 JUMP JUMPDEST PUSH0 PUSH1 0x40 MLOAD DUP1 DUP4 SUB DUP2 DUP6 DUP8 GAS CALL SWAP3 POP POP POP RETURNDATASIZE DUP1 PUSH0 DUP2 EQ PUSH2 0xDD1 JUMPI PUSH1 0x40 MLOAD SWAP2 POP PUSH1 0x1F NOT PUSH1 0x3F RETURNDATASIZE ADD AND DUP3 ADD PUSH1 0x40 MSTORE RETURNDATASIZE DUP3 MSTORE RETURNDATASIZE PUSH0 PUSH1 0x20 DUP5 ADD RETURNDATACOPY PUSH2 0xDD6 JUMP JUMPDEST PUSH1 0x60 SWAP2 POP JUMPDEST POP POP SWAP1 POP DUP1 PUSH2 0xE1A JUMPI PUSH1 0x40 MLOAD PUSH32 0x8C379A000000000000000000000000000000000000000000000000000000000 DUP2 MSTORE PUSH1 0x4 ADD PUSH2 0xE11 SWAP1 PUSH2 0x19E1 JUMP JUMPDEST PUSH1 0x40 MLOAD DUP1 SWAP2 SUB SWAP1 REVERT JUMPDEST PUSH1 0x2 PUSH0 SWAP1 SLOAD SWAP1 PUSH2 0x100 EXP SWAP1 DIV PUSH20 0xFFFFFFFFFFFFFFFFFFFFFFFFFFFFFFFFFFFFFFFF AND PUSH20 0xFFFFFFFFFFFFFFFFFFFFFFFFFFFFFFFFFFFFFFFF AND PUSH32 0x3EE2EA076F8C03E334FBA9777D3E41285053F2C24A54595F1066EAE169B2B977 DUP4 PUSH1 0x40 MLOAD PUSH2 0xE81 SWAP2 SWAP1 PUSH2 0x106B JUMP JUMPDEST PUSH1 0x40 MLOAD DUP1 SWAP2 SUB SWAP1 LOG2 POP JUMPDEST PUSH0 DUP1 PUSH2 0xE97 SWAP2 SWAP1 PUSH2 0xEC1 JUMP JUMPDEST PUSH0 PUSH1 0x4 PUSH0 PUSH2 0x100 EXP DUP2 SLOAD DUP2 PUSH1 0xFF MUL NOT AND SWAP1 DUP4 ISZERO ISZERO MUL OR SWAP1 SSTORE POP POP POP POP POP JUMP JUMPDEST PUSH0 DUP1 DUP1 SLOAD SWAP1 POP SWAP1 POP SWAP1 JUMP JUMPDEST POP DUP1 SLOAD PUSH0 DUP3 SSTORE PUSH1 0x2 MUL SWAP1 PUSH0 MSTORE PUSH1 0x20 PUSH0 KECCAK256 SWAP1 DUP2 ADD SWAP1 PUSH2 0xEDF SWAP2 SWAP1 PUSH2 0xEE2 JUMP JUMPDEST POP JUMP JUMPDEST JUMPDEST DUP1 DUP3 GT ISZERO PUSH2 0xF34 JUMPI PUSH0 DUP1 DUP3 ADD PUSH0 PUSH2 0x100 EXP DUP2 SLOAD SWAP1 PUSH20 0xFFFFFFFFFFFFFFFFFFFFFFFFFFFFFFFFFFFFFFFF MUL NOT AND SWAP1 SSTORE PUSH0 DUP3 ADD PUSH1 0x14 PUSH2 0x100 EXP DUP2 SLOAD SWAP1 PUSH1 0xFF MUL NOT AND SWAP1 SSTORE PUSH1 0x1 DUP3 ADD PUSH0 SWAP1 SSTORE POP PUSH1 0x2 ADD PUSH2 0xEE3 JUMP JUMPDEST POP SWAP1 JUMP JUMPDEST PUSH0 DUP2 ISZERO ISZERO SWAP1 POP SWAP2 SWAP1 POP JUMP JUMPDEST PUSH2 0xF4C DUP2 PUSH2 0xF38 JUMP JUMPDEST DUP3 MSTORE POP POP JUMP JUMPDEST PUSH0 PUSH1 0x20 DUP3 ADD SWAP1 POP PUSH2 0xF65 PUSH0 DUP4 ADD DUP5 PUSH2 0xF43 JUMP JUMPDEST SWAP3 SWAP2 POP POP JUMP JUMPDEST PUSH0 DUP1 REVERT JUMPDEST PUSH0 DUP2 SWAP1 POP SWAP2 SWAP1 POP JUMP JUMPDEST PUSH2 0xF81 DUP2 PUSH2 0xF6F JUMP JUMPDEST DUP2 EQ PUSH2 0xF8B JUMPI PUSH0 DUP1 REVERT JUMPDEST POP JUMP JUMPDEST PUSH0 DUP2 CALLDATALOAD SWAP1 POP PUSH2 0xF9C DUP2 PUSH2 0xF78 JUMP JUMPDEST SWAP3 SWAP2 POP POP JUMP JUMPDEST PUSH0 PUSH1 0x20 DUP3 DUP5 SUB SLT ISZERO PUSH2 0xFB7 JUMPI PUSH2 0xFB6 PUSH2 0xF6B JUMP JUMPDEST JUMPDEST PUSH0 PUSH2 0xFC4 DUP5 DUP3 DUP6 ADD PUSH2 0xF8E JUMP JUMPDEST SWAP2 POP POP SWAP3 SWAP2 POP POP JUMP JUMPDEST PUSH0 PUSH20 0xFFFFFFFFFFFFFFFFFFFFFFFFFFFFFFFFFFFFFFFF DUP3 AND SWAP1 POP SWAP2 SWAP1 POP JUMP JUMPDEST PUSH0 PUSH2 0xFF6 DUP3 PUSH2 0xFCD JUMP JUMPDEST SWAP1 POP SWAP2 SWAP1 POP JUMP JUMPDEST PUSH2 0x1006 DUP2 PUSH2 0xFEC JUMP JUMPDEST DUP3 MSTORE POP POP JUMP JUMPDEST PUSH0 PUSH1 0xFF DUP3 AND SWAP1 POP SWAP2 SWAP1 POP JUMP JUMPDEST PUSH2 0x1021 DUP2 PUSH2 0x100C JUMP JUMPDEST DUP3 MSTORE POP POP JUMP JUMPDEST PUSH2 0x1030 DUP2 PUSH2 0xF6F JUMP JUMPDEST DUP3 MSTORE POP POP JUMP JUMPDEST PUSH0 PUSH1 0x60 DUP3 ADD SWAP1 POP PUSH2 0x1049 PUSH0 DUP4 ADD DUP7 PUSH2 0xFFD JUMP JUMPDEST PUSH2 0x1056 PUSH1 0x20 DUP4 ADD DUP6 PUSH2 0x1018 JUMP JUMPDEST PUSH2 0x1063 PUSH1 0x40 DUP4 ADD DUP5 PUSH2 0x1027 JUMP JUMPDEST SWAP5 SWAP4 POP POP POP POP JUMP JUMPDEST PUSH0 PUSH1 0x20 DUP3 ADD SWAP1 POP PUSH2 0x107E PUSH0 DUP4 ADD DUP5 PUSH2 0x1027 JUMP JUMPDEST SWAP3 SWAP2 POP POP JUMP JUMPDEST PUSH0 DUP2 MLOAD SWAP1 POP SWAP2 SWAP1 POP JUMP JUMPDEST PUSH0 DUP3 DUP3 MSTORE PUSH1 0x20 DUP3 ADD SWAP1 POP SWAP3 SWAP2 POP POP JUMP JUMPDEST PUSH0 DUP2 SWAP1 POP PUSH1 0x20 DUP3 ADD SWAP1 POP SWAP2 SWAP1 POP JUMP JUMPDEST PUSH2 0x10B6 DUP2 PUSH2 0xFEC JUMP JUMPDEST DUP3 MSTORE POP POP JUMP JUMPDEST PUSH2 0x10C5 DUP2 PUSH2 0x100C JUMP JUMPDEST DUP3 MSTORE POP POP JUMP JUMPDEST PUSH2 0x10D4 DUP2 PUSH2 0xF6F JUMP JUMPDEST DUP3 MSTORE POP POP JUMP JUMPDEST PUSH1 0x60 DUP3 ADD PUSH0 DUP3 ADD MLOAD PUSH2 0x10EE PUSH0 DUP6 ADD DUP3 PUSH2 0x10AD JUMP JUMPDEST POP PUSH1 0x20 DUP3 ADD MLOAD PUSH2 0x1101 PUSH1 0x20 DUP6 ADD DUP3 PUSH2 0x10BC JUMP JUMPDEST POP PUSH1 0x40 DUP3 ADD MLOAD PUSH2 0x1114 PUSH1 0x40 DUP6 ADD DUP3 PUSH2 0x10CB JUMP JUMPDEST POP POP POP POP JUMP JUMPDEST PUSH0 PUSH2 0x1125 DUP4 DUP4 PUSH2 0x10DA JUMP JUMPDEST PUSH1 0x60 DUP4 ADD SWAP1 POP SWAP3 SWAP2 POP POP JUMP JUMPDEST PUSH0 PUSH1 0x20 DUP3 ADD SWAP1 POP SWAP2 SWAP1 POP JUMP JUMPDEST PUSH0 PUSH2 0x1147 DUP3 PUSH2 0x1084 JUMP JUMPDEST PUSH2 0x1151 DUP2 DUP6 PUSH2 0x108E JUMP JUMPDEST SWAP4 POP PUSH2 0x115C DUP4 PUSH2 0x109E JUMP JUMPDEST DUP1 PUSH0 JUMPDEST DUP4 DUP2 LT ISZERO PUSH2 0x118C JUMPI DUP2 MLOAD PUSH2 0x1173 DUP9 DUP3 PUSH2 0x111A JUMP JUMPDEST SWAP8 POP PUSH2 0x117E DUP4 PUSH2 0x1131 JUMP JUMPDEST SWAP3 POP POP PUSH1 0x1 DUP2 ADD SWAP1 POP PUSH2 0x115F JUMP JUMPDEST POP DUP6 SWAP4 POP POP POP POP SWAP3 SWAP2 POP POP JUMP JUMPDEST PUSH0 PUSH1 0x20 DUP3 ADD SWAP1 POP DUP2 DUP2 SUB PUSH0 DUP4 ADD MSTORE PUSH2 0x11B1 DUP2 DUP5 PUSH2 0x113D JUMP JUMPDEST SWAP1 POP SWAP3 SWAP2 POP POP JUMP JUMPDEST PUSH2 0x11C2 DUP2 PUSH2 0x100C JUMP JUMPDEST DUP2 EQ PUSH2 0x11CC JUMPI PUSH0 DUP1 REVERT JUMPDEST POP JUMP JUMPDEST PUSH0 DUP2 CALLDATALOAD SWAP1 POP PUSH2 0x11DD DUP2 PUSH2 0x11B9 JUMP JUMPDEST SWAP3 SWAP2 POP POP JUMP JUMPDEST PUSH0 PUSH1 0x20 DUP3 DUP5 SUB SLT ISZERO PUSH2 0x11F8 JUMPI PUSH2 0x11F7 PUSH2 0xF6B JUMP JUMPDEST JUMPDEST PUSH0 PUSH2 0x1205 DUP5 DUP3 DUP6 ADD PUSH2 0x11CF JUMP JUMPDEST SWAP2 POP POP SWAP3 SWAP2 POP POP JUMP JUMPDEST PUSH0 PUSH1 0x20 DUP3 ADD SWAP1 POP PUSH2 0x1221 PUSH0 DUP4 ADD DUP5 PUSH2 0xFFD JUMP JUMPDEST SWAP3 SWAP2 POP POP JUMP JUMPDEST PUSH0 DUP3 DUP3 MSTORE PUSH1 0x20 DUP3 ADD SWAP1 POP SWAP3 SWAP2 POP POP JUMP JUMPDEST PUSH32 0x4F6E6C7920746865206F776E65722063616E2063616C6C20746869732066756E PUSH0 DUP3 ADD MSTORE PUSH32 0x6374696F6E000000000000000000000000000000000000000000000000000000 PUSH1 0x20 DUP3 ADD MSTORE POP JUMP JUMPDEST PUSH0 PUSH2 0x1291 PUSH1 0x25 DUP4 PUSH2 0x1227 JUMP JUMPDEST SWAP2 POP PUSH2 0x129C DUP3 PUSH2 0x1237 JUMP JUMPDEST PUSH1 0x40 DUP3 ADD SWAP1 POP SWAP2 SWAP1 POP JUMP JUMPDEST PUSH0 PUSH1 0x20 DUP3 ADD SWAP1 POP DUP2 DUP2 SUB PUSH0 DUP4 ADD MSTORE PUSH2 0x12BE DUP2 PUSH2 0x1285 JUMP JUMPDEST SWAP1 POP SWAP2 SWAP1 POP JUMP JUMPDEST PUSH32 0x5370696E20616C726561647920696E2070726F67726573730000000000000000 PUSH0 DUP3 ADD MSTORE POP JUMP JUMPDEST PUSH0 PUSH2 0x12F9 PUSH1 0x18 DUP4 PUSH2 0x1227 JUMP JUMPDEST SWAP2 POP PUSH2 0x1304 DUP3 PUSH2 0x12C5 JUMP JUMPDEST PUSH1 0x20 DUP3 ADD SWAP1 POP SWAP2 SWAP1 POP JUMP JUMPDEST PUSH0 PUSH1 0x20 DUP3 ADD SWAP1 POP DUP2 DUP2 SUB PUSH0 DUP4 ADD MSTORE PUSH2 0x1326 DUP2 PUSH2 0x12ED JUMP JUMPDEST SWAP1 POP SWAP2 SWAP1 POP JUMP JUMPDEST PUSH32 0x4E6F206265747320706C61636564000000000000000000000000000000000000 PUSH0 DUP3 ADD MSTORE POP JUMP JUMPDEST PUSH0 PUSH2 0x1361 PUSH1 0xE DUP4 PUSH2 0x1227 JUMP JUMPDEST SWAP2 POP PUSH2 0x136C DUP3 PUSH2 0x132D JUMP JUMPDEST PUSH1 0x20 DUP3 ADD SWAP1 POP SWAP2 SWAP1 POP JUMP JUMPDEST PUSH0 PUSH1 0x20 DUP3 ADD SWAP1 POP DUP2 DUP2 SUB PUSH0 DUP4 ADD MSTORE PUSH2 0x138E DUP2 PUSH2 0x1355 JUMP JUMPDEST SWAP1 POP SWAP2 SWAP1 POP JUMP JUMPDEST PUSH32 0x4E487B7100000000000000000000000000000000000000000000000000000000 PUSH0 MSTORE PUSH1 0x11 PUSH1 0x4 MSTORE PUSH1 0x24 PUSH0 REVERT JUMPDEST PUSH0 PUSH2 0x13CC DUP3 PUSH2 0xF6F JUMP JUMPDEST SWAP2 POP PUSH2 0x13D7 DUP4 PUSH2 0xF6F JUMP JUMPDEST SWAP3 POP DUP3 DUP3 ADD SWAP1 POP DUP1 DUP3 GT ISZERO PUSH2 0x13EF JUMPI PUSH2 0x13EE PUSH2 0x1395 JUMP JUMPDEST JUMPDEST SWAP3 SWAP2 POP POP JUMP JUMPDEST PUSH32 0x4E756D626572206D757374206265206265747765656E203020616E6420333600 PUSH0 DUP3 ADD MSTORE POP JUMP JUMPDEST PUSH0 PUSH2 0x1429 PUSH1 0x1F DUP4 PUSH2 0x1227 JUMP JUMPDEST SWAP2 POP PUSH2 0x1434 DUP3 PUSH2 0x13F5 JUMP JUMPDEST PUSH1 0x20 DUP3 ADD SWAP1 POP SWAP2 SWAP1 POP JUMP JUMPDEST PUSH0 PUSH1 0x20 DUP3 ADD SWAP1 POP DUP2 DUP2 SUB PUSH0 DUP4 ADD MSTORE PUSH2 0x1456 DUP2 PUSH2 0x141D JUMP JUMPDEST SWAP1 POP SWAP2 SWAP1 POP JUMP JUMPDEST PUSH32 0x42657420616D6F756E742069732062656C6F7720746865206D696E696D756D20 PUSH0 DUP3 ADD MSTORE PUSH32 0x6265740000000000000000000000000000000000000000000000000000000000 PUSH1 0x20 DUP3 ADD MSTORE POP JUMP JUMPDEST PUSH0 PUSH2 0x14B7 PUSH1 0x23 DUP4 PUSH2 0x1227 JUMP JUMPDEST SWAP2 POP PUSH2 0x14C2 DUP3 PUSH2 0x145D JUMP JUMPDEST PUSH1 0x40 DUP3 ADD SWAP1 POP SWAP2 SWAP1 POP JUMP JUMPDEST PUSH0 PUSH1 0x20 DUP3 ADD SWAP1 POP DUP2 DUP2 SUB PUSH0 DUP4 ADD MSTORE PUSH2 0x14E4 DUP2 PUSH2 0x14AB JUMP JUMPDEST SWAP1 POP SWAP2 SWAP1 POP JUMP JUMPDEST PUSH0 PUSH1 0x40 DUP3 ADD SWAP1 POP PUSH2 0x14FE PUSH0 DUP4 ADD DUP6 PUSH2 0x1018 JUMP JUMPDEST PUSH2 0x150B PUSH1 0x20 DUP4 ADD DUP5 PUSH2 0x1027 JUMP JUMPDEST SWAP4 SWAP3 POP POP POP JUMP JUMPDEST PUSH32 0x4E6F7420656E6F75676820636F6E74726163742062616C616E63650000000000 PUSH0 DUP3 ADD MSTORE POP JUMP JUMPDEST PUSH0 PUSH2 0x1546 PUSH1 0x1B DUP4 PUSH2 0x1227 JUMP JUMPDEST SWAP2 POP PUSH2 0x1551 DUP3 PUSH2 0x1512 JUMP JUMPDEST PUSH1 0x20 DUP3 ADD SWAP1 POP SWAP2 SWAP1 POP JUMP JUMPDEST PUSH0 PUSH1 0x20 DUP3 ADD SWAP1 POP DUP2 DUP2 SUB PUSH0 DUP4 ADD MSTORE PUSH2 0x1573 DUP2 PUSH2 0x153A JUMP JUMPDEST SWAP1 POP SWAP2 SWAP1 POP JUMP JUMPDEST PUSH0 DUP2 SWAP1 POP SWAP3 SWAP2 POP POP JUMP JUMPDEST POP JUMP JUMPDEST PUSH0 PUSH2 0x1592 PUSH0 DUP4 PUSH2 0x157A JUMP JUMPDEST SWAP2 POP PUSH2 0x159D DUP3 PUSH2 0x1584 JUMP JUMPDEST PUSH0 DUP3 ADD SWAP1 POP SWAP2 SWAP1 POP JUMP JUMPDEST PUSH0 PUSH2 0x15B1 DUP3 PUSH2 0x1587 JUMP JUMPDEST SWAP2 POP DUP2 SWAP1 POP SWAP2 SWAP1 POP JUMP JUMPDEST PUSH32 0x5769746864726177206661696C65640000000000000000000000000000000000 PUSH0 DUP3 ADD MSTORE POP JUMP JUMPDEST PUSH0 PUSH2 0x15EF PUSH1 0xF DUP4 PUSH2 0x1227 JUMP JUMPDEST SWAP2 POP PUSH2 0x15FA DUP3 PUSH2 0x15BB JUMP JUMPDEST PUSH1 0x20 DUP3 ADD SWAP1 POP SWAP2 SWAP1 POP JUMP JUMPDEST PUSH0 PUSH1 0x20 DUP3 ADD SWAP1 POP DUP2 DUP2 SUB PUSH0 DUP4 ADD MSTORE PUSH2 0x161C DUP2 PUSH2 0x15E3 JUMP JUMPDEST SWAP1 POP SWAP2 SWAP1 POP JUMP JUMPDEST PUSH32 0x4E6F207370696E20696E2070726F677265737300000000000000000000000000 PUSH0 DUP3 ADD MSTORE POP JUMP JUMPDEST PUSH0 PUSH2 0x1657 PUSH1 0x13 DUP4 PUSH2 0x1227 JUMP JUMPDEST SWAP2 POP PUSH2 0x1662 DUP3 PUSH2 0x1623 JUMP JUMPDEST PUSH1 0x20 DUP3 ADD SWAP1 POP SWAP2 SWAP1 POP JUMP JUMPDEST PUSH0 PUSH1 0x20 DUP3 ADD SWAP1 POP DUP2 DUP2 SUB PUSH0 DUP4 ADD MSTORE PUSH2 0x1684 DUP2 PUSH2 0x164B JUMP JUMPDEST SWAP1 POP SWAP2 SWAP1 POP JUMP JUMPDEST PUSH32 0x4E6F7420656E6F75676820626C6F636B73206861766520706173736564000000 PUSH0 DUP3 ADD MSTORE POP JUMP JUMPDEST PUSH0 PUSH2 0x16BF PUSH1 0x1D DUP4 PUSH2 0x1227 JUMP JUMPDEST SWAP2 POP PUSH2 0x16CA DUP3 PUSH2 0x168B JUMP JUMPDEST PUSH1 0x20 DUP3 ADD SWAP1 POP SWAP2 SWAP1 POP JUMP JUMPDEST PUSH0 PUSH1 0x20 DUP3 ADD SWAP1 POP DUP2 DUP2 SUB PUSH0 DUP4 ADD MSTORE PUSH2 0x16EC DUP2 PUSH2 0x16B3 JUMP JUMPDEST SWAP1 POP SWAP2 SWAP1 POP JUMP JUMPDEST PUSH32 0x426C6F636B68617368206E6F7420617661696C61626C65206F7220746F6F206F PUSH0 DUP3 ADD MSTORE PUSH32 0x6C64000000000000000000000000000000000000000000000000000000000000 PUSH1 0x20 DUP3 ADD MSTORE POP JUMP JUMPDEST PUSH0 PUSH2 0x174D PUSH1 0x22 DUP4 PUSH2 0x1227 JUMP JUMPDEST SWAP2 POP PUSH2 0x1758 DUP3 PUSH2 0x16F3 JUMP JUMPDEST PUSH1 0x40 DUP3 ADD SWAP1 POP SWAP2 SWAP1 POP JUMP JUMPDEST PUSH0 PUSH1 0x20 DUP3 ADD SWAP1 POP DUP2 DUP2 SUB PUSH0 DUP4 ADD MSTORE PUSH2 0x177A DUP2 PUSH2 0x1741 JUMP JUMPDEST SWAP1 POP SWAP2 SWAP1 POP JUMP JUMPDEST PUSH0 DUP2 SWAP1 POP SWAP2 SWAP1 POP JUMP JUMPDEST PUSH0 DUP2 SWAP1 POP SWAP2 SWAP1 POP JUMP JUMPDEST PUSH2 0x17A4 PUSH2 0x179F DUP3 PUSH2 0x1781 JUMP JUMPDEST PUSH2 0x178A JUMP JUMPDEST DUP3 MSTORE POP POP JUMP JUMPDEST PUSH0 DUP2 PUSH1 0x60 SHL SWAP1 POP SWAP2 SWAP1 POP JUMP JUMPDEST PUSH0 PUSH2 0x17C0 DUP3 PUSH2 0x17AA JUMP JUMPDEST SWAP1 POP SWAP2 SWAP1 POP JUMP JUMPDEST PUSH0 PUSH2 0x17D1 DUP3 PUSH2 0x17B6 JUMP JUMPDEST SWAP1 POP SWAP2 SWAP1 POP JUMP JUMPDEST PUSH2 0x17E9 PUSH2 0x17E4 DUP3 PUSH2 0xFEC JUMP JUMPDEST PUSH2 0x17C7 JUMP JUMPDEST DUP3 MSTORE POP POP JUMP JUMPDEST PUSH0 DUP2 SWAP1 POP SWAP2 SWAP1 POP JUMP JUMPDEST PUSH2 0x1809 PUSH2 0x1804 DUP3 PUSH2 0xF6F JUMP JUMPDEST PUSH2 0x17EF JUMP JUMPDEST DUP3 MSTORE POP POP JUMP JUMPDEST PUSH0 PUSH2 0x181A DUP3 DUP7 PUSH2 0x1793 JUMP JUMPDEST PUSH1 0x20 DUP3 ADD SWAP2 POP PUSH2 0x182A DUP3 DUP6 PUSH2 0x17D8 JUMP JUMPDEST PUSH1 0x14 DUP3 ADD SWAP2 POP PUSH2 0x183A DUP3 DUP5 PUSH2 0x17F8 JUMP JUMPDEST PUSH1 0x20 DUP3 ADD SWAP2 POP DUP2 SWAP1 POP SWAP5 SWAP4 POP POP POP POP JUMP JUMPDEST PUSH32 0x4E487B7100000000000000000000000000000000000000000000000000000000 PUSH0 MSTORE PUSH1 0x12 PUSH1 0x4 MSTORE PUSH1 0x24 PUSH0 REVERT JUMPDEST PUSH0 PUSH2 0x1882 DUP3 PUSH2 0xF6F JUMP JUMPDEST SWAP2 POP PUSH2 0x188D DUP4 PUSH2 0xF6F JUMP JUMPDEST SWAP3 POP DUP3 PUSH2 0x189D JUMPI PUSH2 0x189C PUSH2 0x184B JUMP JUMPDEST JUMPDEST DUP3 DUP3 MOD SWAP1 POP SWAP3 SWAP2 POP POP JUMP JUMPDEST PUSH0 PUSH1 0x20 DUP3 ADD SWAP1 POP PUSH2 0x18BB PUSH0 DUP4 ADD DUP5 PUSH2 0x1018 JUMP JUMPDEST SWAP3 SWAP2 POP POP JUMP JUMPDEST PUSH32 0x4E487B7100000000000000000000000000000000000000000000000000000000 PUSH0 MSTORE PUSH1 0x32 PUSH1 0x4 MSTORE PUSH1 0x24 PUSH0 REVERT JUMPDEST PUSH0 PUSH2 0x18F8 DUP3 PUSH2 0xF6F JUMP JUMPDEST SWAP2 POP PUSH2 0x1903 DUP4 PUSH2 0xF6F JUMP JUMPDEST SWAP3 POP DUP3 DUP3 MUL PUSH2 0x1911 DUP2 PUSH2 0xF6F JUMP JUMPDEST SWAP2 POP DUP3 DUP3 DIV DUP5 EQ DUP4 ISZERO OR PUSH2 0x1928 JUMPI PUSH2 0x1927 PUSH2 0x1395 JUMP JUMPDEST JUMPDEST POP SWAP3 SWAP2 POP POP JUMP JUMPDEST PUSH32 0x5472616E7366657220746F2077696E6E6572206661696C656400000000000000 PUSH0 DUP3 ADD MSTORE POP JUMP JUMPDEST PUSH0 PUSH2 0x1963 PUSH1 0x19 DUP4 PUSH2 0x1227 JUMP JUMPDEST SWAP2 POP PUSH2 0x196E DUP3 PUSH2 0x192F JUMP JUMPDEST PUSH1 0x20 DUP3 ADD SWAP1 POP SWAP2 SWAP1 POP JUMP JUMPDEST PUSH0 PUSH1 0x20 DUP3 ADD SWAP1 POP DUP2 DUP2 SUB PUSH0 DUP4 ADD MSTORE PUSH2 0x1990 DUP2 PUSH2 0x1957 JUMP JUMPDEST SWAP1 POP SWAP2 SWAP1 POP JUMP JUMPDEST PUSH32 0x5472616E7366657220746F20686F757365206661696C65640000000000000000 PUSH0 DUP3 ADD MSTORE POP JUMP JUMPDEST PUSH0 PUSH2 0x19CB PUSH1 0x18 DUP4 PUSH2 0x1227 JUMP JUMPDEST SWAP2 POP PUSH2 0x19D6 DUP3 PUSH2 0x1997 JUMP JUMPDEST PUSH1 0x20 DUP3 ADD SWAP1 POP SWAP2 SWAP1 POP JUMP JUMPDEST PUSH0 PUSH1 0x20 DUP3 ADD SWAP1 POP DUP2 DUP2 SUB PUSH0 DUP4 ADD MSTORE PUSH2 0x19F8 DUP2 PUSH2 0x19BF JUMP JUMPDEST SWAP1 POP SWAP2 SWAP1 POP JUMP INVALID LOG2 PUSH5 0x6970667358 0x22 SLT KECCAK256 0xA9 EXTCODECOPY 0xF7 0xC6 JUMPDEST SWAP16 RETURNDATACOPY 0xBB 0x2E 0x4E 0xC4 0xAB 0xE4 0xEB RETURNDATACOPY PUSH4 0x242486AD JUMPI PUSH26 0x2E76FA3867EAF77A01964736F6C634300081A00330000000000 "
				},
				"gasEstimates": {
					"creation": {
						"codeDepositCost": "1341800",
						"executionCost": "infinite",
						"totalCost": "infinite"
					},
					"external": {
						"bets(uint256)": "infinite",
						"finalizeSpin()": "infinite",
						"getCurrentBets()": "infinite",
						"getNumberOfBets()": "2550",
						"minBet()": "2491",
						"owner()": "2552",
						"placeBet(uint8)": "infinite",
						"setMinBet(uint256)": "24706",
						"spinBlockNumber()": "2492",
						"spinInProgress()": "2467",
						"spinWheel()": "infinite",
						"withdrawHouseFunds(uint256)": "infinite"
					}
				},
				"methodIdentifiers": {
					"bets(uint256)": "22af00fa",
					"finalizeSpin()": "a89f5e44",
					"getCurrentBets()": "3b4ca5d2",
					"getNumberOfBets()": "f222d0b9",
					"minBet()": "9619367d",
					"owner()": "8da5cb5b",
					"placeBet(uint8)": "43046844",
					"setMinBet(uint256)": "88ea41b9",
					"spinBlockNumber()": "2907e62c",
					"spinInProgress()": "004e1639",
					"spinWheel()": "15ecef92",
					"withdrawHouseFunds(uint256)": "7d59441a"
				}
			},
			"storageLayout": {
				"storage": [
					{
						"astId": 13,
						"contract": "Roulette.sol:Roulette",
						"label": "bets",
						"offset": 0,
						"slot": "0",
						"type": "t_array(t_struct(Bet)9_storage)dyn_storage"
					},
					{
						"astId": 15,
						"contract": "Roulette.sol:Roulette",
						"label": "minBet",
						"offset": 0,
						"slot": "1",
						"type": "t_uint256"
					},
					{
						"astId": 17,
						"contract": "Roulette.sol:Roulette",
						"label": "owner",
						"offset": 0,
						"slot": "2",
						"type": "t_address"
					},
					{
						"astId": 19,
						"contract": "Roulette.sol:Roulette",
						"label": "spinBlockNumber",
						"offset": 0,
						"slot": "3",
						"type": "t_uint256"
					},
					{
						"astId": 21,
						"contract": "Roulette.sol:Roulette",
						"label": "spinInProgress",
						"offset": 0,
						"slot": "4",
						"type": "t_bool"
					}
				],
				"types": {
					"t_address": {
						"encoding": "inplace",
						"label": "address",
						"numberOfBytes": "20"
					},
					"t_array(t_struct(Bet)9_storage)dyn_storage": {
						"base": "t_struct(Bet)9_storage",
						"encoding": "dynamic_array",
						"label": "struct Roulette.Bet[]",
						"numberOfBytes": "32"
					},
					"t_bool": {
						"encoding": "inplace",
						"label": "bool",
						"numberOfBytes": "1"
					},
					"t_struct(Bet)9_storage": {
						"encoding": "inplace",
						"label": "struct Roulette.Bet",
						"members": [
							{
								"astId": 4,
								"contract": "Roulette.sol:Roulette",
								"label": "player",
								"offset": 0,
								"slot": "0",
								"type": "t_address"
							},
							{
								"astId": 6,
								"contract": "Roulette.sol:Roulette",
								"label": "number",
								"offset": 20,
								"slot": "0",
								"type": "t_uint8"
							},
							{
								"astId": 8,
								"contract": "Roulette.sol:Roulette",
								"label": "amount",
								"offset": 0,
								"slot": "1",
								"type": "t_uint256"
							}
						],
						"numberOfBytes": "64"
					},
					"t_uint256": {
						"encoding": "inplace",
						"label": "uint256",
						"numberOfBytes": "32"
					},
					"t_uint8": {
						"encoding": "inplace",
						"label": "uint8",
						"numberOfBytes": "1"
					}
				}
			},
			"userdoc": {
				"kind": "user",
				"methods": {
					"getCurrentBets()": {
						"notice": "Returns all current bets. "
					},
					"getNumberOfBets()": {
						"notice": "Returns the total number of bets in the current round."
					},
					"placeBet(uint8)": {
						"notice": "Places a bet on a number between 0 and 36."
					},
					"setMinBet(uint256)": {
						"notice": "Change the minimum bet (only owner)."
					},
					"withdrawHouseFunds(uint256)": {
						"notice": "Owner can withdraw any leftover balance (in case of stuck funds)."
					}
				},
				"notice": "A simplified Roulette smart contract demonstration (not production-ready).",
				"version": 1
			}
		}
	}
}