{
	"data": {
		"bytecode": {
			"linkReferences": {},
			"object": "6080604052604051806102400160405280600160ff168152602001600360ff168152602001600560ff168152602001600760ff168152602001600960ff168152602001600c60ff168152602001600e60ff168152602001601060ff168152602001601260ff168152602001601360ff168152602001601560ff168152602001601760ff168152602001601960ff168152602001601b60ff168152602001601e60ff168152602001602060ff168152602001602260ff168152602001602460ff168152505f9060126100d19291906106c9565b50604051806102400160405280600260ff168152602001600460ff168152602001600660ff168152602001600860ff168152602001600a60ff168152602001600b60ff168152602001600d60ff168152602001600f60ff168152602001601160ff168152602001601460ff168152602001601660ff168152602001601860ff168152602001601a60ff168152602001601c60ff168152602001601d60ff168152602001601f60ff168152602001602160ff168152602001602360ff1681525060019060126101a09291906106c9565b50604051806101800160405280600160ff168152602001600460ff168152602001600760ff168152602001600a60ff168152602001600d60ff168152602001601060ff168152602001601360ff168152602001601660ff168152602001601960ff168152602001601c60ff168152602001601f60ff168152602001602260ff16815250600290600c610233929190610760565b50604051806101800160405280600260ff168152602001600560ff168152602001600860ff168152602001600b60ff168152602001600e60ff168152602001601160ff168152602001601460ff168152602001601760ff168152602001601a60ff168152602001601d60ff168152602001602060ff168152602001602360ff16815250600390600c6102c6929190610760565b50604051806101800160405280600360ff168152602001600660ff168152602001600960ff168152602001600c60ff168152602001600f60ff168152602001601260ff168152602001601560ff168152602001601860ff168152602001601b60ff168152602001601e60ff168152602001602160ff168152602001602460ff16815250600490600c610359929190610760565b50604051806101800160405280600160ff168152602001600260ff168152602001600360ff168152602001600460ff168152602001600560ff168152602001600660ff168152602001600760ff168152602001600860ff168152602001600960ff168152602001600a60ff168152602001600b60ff168152602001600c60ff16815250600590600c6103ec929190610760565b50604051806101800160405280600d60ff168152602001600e60ff168152602001600f60ff168152602001601060ff168152602001601160ff168152602001601260ff168152602001601360ff168152602001601460ff168152602001601560ff168152602001601660ff168152602001601760ff168152602001601860ff16815250600690600c61047f929190610760565b50604051806101800160405280601960ff168152602001601a60ff168152602001601b60ff168152602001601c60ff168152602001601d60ff168152602001601e60ff168152602001601f60ff168152602001602060ff168152602001602160ff168152602001602260ff168152602001602360ff168152602001602460ff16815250600790600c610512929190610760565b5034801561051e575f80fd5b50604051614c92380380614c9283398181016040528101906105409190610abd565b81518160ff161115610587576040517f08c379a000000000000000000000000000000000000000000000000000000000815260040161057e90610c08565b60405180910390fd5b84600e60026101000a81548173ffffffffffffffffffffffffffffffffffffffff021916908373ffffffffffffffffffffffffffffffffffffffff16021790555083600a819055508260098190555081601090805190602001906105ec9291906107f7565b5080600e60016101000a81548160ff021916908360ff1602179055505f600860146101000a81548160ff021916908360ff1602179055505f600c819055508560085f6101000a81548173ffffffffffffffffffffffffffffffffffffffff021916908373ffffffffffffffffffffffffffffffffffffffff1602179055508473ffffffffffffffffffffffffffffffffffffffff167f4061fc49cecf93b4142649bbda6739fbde558833e11da901e9c6cf30bfa09fbe858585856040516106b69493929190610cfb565b60405180910390a2505050505050610d45565b826012601f0160209004810192821561074f579160200282015f5b8382111561072157835183826101000a81548160ff021916908360ff16021790555092602001926001016020815f010492830192600103026106e4565b801561074d5782816101000a81549060ff02191690556001016020815f01049283019260010302610721565b505b50905061075c919061087e565b5090565b82600c601f016020900481019282156107e6579160200282015f5b838211156107b857835183826101000a81548160ff021916908360ff16021790555092602001926001016020815f0104928301926001030261077b565b80156107e45782816101000a81549060ff02191690556001016020815f010492830192600103026107b8565b505b5090506107f3919061087e565b5090565b828054828255905f5260205f2090810192821561086d579160200282015b8281111561086c578251825f6101000a81548173ffffffffffffffffffffffffffffffffffffffff021916908373ffffffffffffffffffffffffffffffffffffffff16021790555091602001919060010190610815565b5b50905061087a919061087e565b5090565b5b80821115610895575f815f90555060010161087f565b5090565b5f604051905090565b5f80fd5b5f80fd5b5f73ffffffffffffffffffffffffffffffffffffffff82169050919050565b5f6108d3826108aa565b9050919050565b6108e3816108c9565b81146108ed575f80fd5b50565b5f815190506108fe816108da565b92915050565b5f819050919050565b61091681610904565b8114610920575f80fd5b50565b5f815190506109318161090d565b92915050565b5f80fd5b5f601f19601f8301169050919050565b7f4e487b71000000000000000000000000000000000000000000000000000000005f52604160045260245ffd5b6109818261093b565b810181811067ffffffffffffffff821117156109a05761099f61094b565b5b80604052505050565b5f6109b2610899565b90506109be8282610978565b919050565b5f67ffffffffffffffff8211156109dd576109dc61094b565b5b602082029050602081019050919050565b5f80fd5b5f610a046109ff846109c3565b6109a9565b90508083825260208201905060208402830185811115610a2757610a266109ee565b5b835b81811015610a505780610a3c88826108f0565b845260208401935050602081019050610a29565b5050509392505050565b5f82601f830112610a6e57610a6d610937565b5b8151610a7e8482602086016109f2565b91505092915050565b5f60ff82169050919050565b610a9c81610a87565b8114610aa6575f80fd5b50565b5f81519050610ab781610a93565b92915050565b5f805f805f8060c08789031215610ad757610ad66108a2565b5b5f610ae489828a016108f0565b9650506020610af589828a016108f0565b9550506040610b0689828a01610923565b9450506060610b1789828a01610923565b935050608087015167ffffffffffffffff811115610b3857610b376108a6565b5b610b4489828a01610a5a565b92505060a0610b5589828a01610aa9565b9150509295509295509295565b5f82825260208201905092915050565b7f56616c696461746f72207468726573686f6c642063616e6e6f742062652067725f8201527f6561746572207468616e20746865206e756d626572206f662076616c6964617460208201527f6f72732e00000000000000000000000000000000000000000000000000000000604082015250565b5f610bf2604483610b62565b9150610bfd82610b72565b606082019050919050565b5f6020820190508181035f830152610c1f81610be6565b9050919050565b610c2f81610904565b82525050565b5f81519050919050565b5f82825260208201905092915050565b5f819050602082019050919050565b610c67816108c9565b82525050565b5f610c788383610c5e565b60208301905092915050565b5f602082019050919050565b5f610c9a82610c35565b610ca48185610c3f565b9350610caf83610c4f565b805f5b83811015610cdf578151610cc68882610c6d565b9750610cd183610c84565b925050600181019050610cb2565b5085935050505092915050565b610cf581610a87565b82525050565b5f608082019050610d0e5f830187610c26565b610d1b6020830186610c26565b8181036040830152610d2d8185610c90565b9050610d3c6060830184610cec565b95945050505050565b613f4080610d525f395ff3fe608060405260043610610224575f3560e01c80635d4d4c3e116101225780639619367d116100aa578063d9cc76ad1161006e578063d9cc76ad14610812578063e4ca650d1461084e578063e71f766e1461088a578063f437bc59146108c6578063f6ef33fd146108f057610224565b80639619367d1461073c578063972b533d14610766578063a38bd74c146107a2578063d0e30db0146107de578063d1edb09e146107e857610224565b80636f91a66f116100f15780636f91a66f1461064657806380ff62b3146106705780638c7e347a146106ac5780638da5cb5b146106d65780638fffebca1461070057610224565b80635d4d4c3e146105685780635dcab1d8146105a457806362f25ab3146105e0578063653721471461061c57610224565b806335aa2e44116101b05780634760fff3116101745780634760fff3146104725780634d7d93fe146104ae5780634e2b7830146104ea5780634e69d560146105145780634fd101d71461053e57610224565b806335aa2e44146103c457806338cceb4f146104005780633ccfd60b1461041657806341b3d1851461042c578063430468441461045657610224565b806320968178116101f757806320968178146102ba57806322af00fa146102e45780632605c2511461032257806328dddc1b1461035e5780632e5b21681461039a57610224565b806312586172146102285780631b2abc77146102645780631dbe2e0e1461027a578063200d2ed214610290575b5f80fd5b348015610233575f80fd5b5061024e60048036038101906102499190612d0b565b61091a565b60405161025b9190612d50565b60405180910390f35b34801561026f575f80fd5b5061027861098c565b005b348015610285575f80fd5b5061028e610a42565b005b34801561029b575f80fd5b506102a4610d79565b6040516102b19190612d78565b60405180910390f35b3480156102c5575f80fd5b506102ce610d8c565b6040516102db9190612da9565b60405180910390f35b3480156102ef575f80fd5b5061030a60048036038101906103059190612dec565b610d92565b60405161031993929190612e56565b60405180910390f35b34801561032d575f80fd5b5061034860048036038101906103439190612d0b565b610df2565b6040516103559190612d50565b60405180910390f35b348015610369575f80fd5b50610384600480360381019061037f9190612d0b565b610e64565b6040516103919190612d50565b60405180910390f35b3480156103a5575f80fd5b506103ae610e9b565b6040516103bb9190612da9565b60405180910390f35b3480156103cf575f80fd5b506103ea60048036038101906103e59190612dec565b610ea1565b6040516103f79190612e8b565b60405180910390f35b34801561040b575f80fd5b50610414610edc565b005b348015610421575f80fd5b5061042a61185f565b005b348015610437575f80fd5b50610440611987565b60405161044d9190612da9565b60405180910390f35b610470600480360381019061046b9190612d0b565b61198d565b005b34801561047d575f80fd5b5061049860048036038101906104939190612d0b565b611be2565b6040516104a59190612d50565b60405180910390f35b3480156104b9575f80fd5b506104d460048036038101906104cf9190612d0b565b611c53565b6040516104e19190612d50565b60405180910390f35b3480156104f5575f80fd5b506104fe611cc5565b60405161050b9190612f5b565b60405180910390f35b34801561051f575f80fd5b50610528611d50565b6040516105359190612d78565b60405180910390f35b348015610549575f80fd5b50610552611d66565b60405161055f9190612d78565b60405180910390f35b348015610573575f80fd5b5061058e60048036038101906105899190612f7b565b611d79565b60405161059b9190612d50565b60405180910390f35b3480156105af575f80fd5b506105ca60048036038101906105c59190612d0b565b611da9565b6040516105d79190612d50565b60405180910390f35b3480156105eb575f80fd5b5061060660048036038101906106019190612dec565b611e1b565b6040516106139190612e8b565b60405180910390f35b348015610627575f80fd5b50610630611e56565b60405161063d9190612d78565b60405180910390f35b348015610651575f80fd5b5061065a611e68565b6040516106679190612da9565b60405180910390f35b34801561067b575f80fd5b5061069660048036038101906106919190612dec565b611e6e565b6040516106a39190612e8b565b60405180910390f35b3480156106b7575f80fd5b506106c0611ea9565b6040516106cd9190612da9565b60405180910390f35b3480156106e1575f80fd5b506106ea611eb5565b6040516106f79190612e8b565b60405180910390f35b34801561070b575f80fd5b5061072660048036038101906107219190612d0b565b611eda565b6040516107339190612d50565b60405180910390f35b348015610747575f80fd5b50610750611f4c565b60405161075d9190612da9565b60405180910390f35b348015610771575f80fd5b5061078c60048036038101906107879190612d0b565b611f52565b6040516107999190612d50565b60405180910390f35b3480156107ad575f80fd5b506107c860048036038101906107c39190612d0b565b611f72565b6040516107d59190612d50565b60405180910390f35b6107e6611fe4565b005b3480156107f3575f80fd5b506107fc61223c565b6040516108099190612da9565b60405180910390f35b34801561081d575f80fd5b5061083860048036038101906108339190612d0b565b612296565b6040516108459190612d50565b60405180910390f35b348015610859575f80fd5b50610874600480360381019061086f9190612d0b565b6122ce565b6040516108819190612d50565b60405180910390f35b348015610895575f80fd5b506108b060048036038101906108ab9190612d0b565b6122ee565b6040516108bd9190612d50565b60405180910390f35b3480156108d1575f80fd5b506108da612360565b6040516108e79190612e8b565b60405180910390f35b3480156108fb575f80fd5b50610904612386565b6040516109119190612f5b565b60405180910390f35b5f805f90505b600c8160ff161015610982578260ff1660028260ff16600c811061094757610946612fb9565b5b602091828204019190069054906101000a900460ff1660ff160361096f576001915050610987565b808061097a90613013565b915050610920565b505f90505b919050565b600160ff16600860149054906101000a900460ff1660ff16146109e4576040517f08c379a00000000000000000000000000000000000000000000000000000000081526004016109db906130bb565b60405180910390fd5b6002600860146101000a81548160ff021916908360ff16021790555043600d819055507f2d21e9397283a99c7f2df56baf635aab0655f2dea12185fac963ac115be30f93600d54604051610a389190612da9565b60405180910390a1565b600260ff16600860149054906101000a900460ff1660ff1614610a9a576040517f08c379a0000000000000000000000000000000000000000000000000000000008152600401610a9190613149565b60405180910390fd5b6001600c60ff16600d54610aae9190613167565b610ab89190613167565b431015610afa576040517f08c379a0000000000000000000000000000000000000000000000000000000008152600401610af190613230565b60405180910390fd5b60085f9054906101000a900473ffffffffffffffffffffffffffffffffffffffff1673ffffffffffffffffffffffffffffffffffffffff163373ffffffffffffffffffffffffffffffffffffffff1614610b89576040517f08c379a0000000000000000000000000000000000000000000000000000000008152600401610b80906132be565b60405180910390fd5b5f6001600d54610b999190613167565b90505f814090505f801b8103610bee57610be76040518060400160405280601c81526020017f426c6f636b2068617368206973206e6f7420617661696c61626c652e00000000815250612411565b5050610d77565b5f600e60029054906101000a900473ffffffffffffffffffffffffffffffffffffffff16604051602001610c229190613321565b60405160208183030381529060405290505f5b600f80549050811015610cb45781600f8281548110610c5757610c56612fb9565b5b905f5260205f2090600202015f015f9054906101000a900473ffffffffffffffffffffffffffffffffffffffff16604051602001610c9692919061338d565b60405160208183030381529060405291508080600101915050610c35565b505f8282604051602001610cc99291906133dd565b6040516020818303038152906040528051906020012090505f815f1c9050602660ff1681610cf79190613431565b600e5f6101000a81548160ff021916908360ff1602179055506003600860146101000a81548160ff021916908360ff1602179055507f4898f0a86e5d5b202a6285b46db8e265f964e837829f7d6bf7d1c072c6b88c09600e5f9054906101000a900460ff16604051610d699190612d78565b60405180910390a150505050505b565b600860149054906101000a900460ff1681565b600c5481565b600f8181548110610da1575f80fd5b905f5260205f2090600202015f91509050805f015f9054906101000a900473ffffffffffffffffffffffffffffffffffffffff1690805f0160149054906101000a900460ff16908060010154905083565b5f805f90505b600c8160ff161015610e5a578260ff1660068260ff16600c8110610e1f57610e1e612fb9565b5b602091828204019190069054906101000a900460ff1660ff1603610e47576001915050610e5f565b8080610e5290613013565b915050610df8565b505f90505b919050565b5f808260ff16118015610e7a575060258260ff16105b8015610e9457505f600283610e8f9190613461565b60ff16145b9050919050565b600b5481565b60108181548110610eb0575f80fd5b905f5260205f20015f915054906101000a900473ffffffffffffffffffffffffffffffffffffffff1681565b600360ff16600860149054906101000a900460ff1660ff1614610f34576040517f08c379a0000000000000000000000000000000000000000000000000000000008152600401610f2b90613501565b60405180910390fd5b610f3d336126c6565b610f7c576040517f08c379a0000000000000000000000000000000000000000000000000000000008152600401610f739061358f565b60405180910390fd5b5f6001600d54610f8c9190613167565b90505f814090505f801b8103611032573373ffffffffffffffffffffffffffffffffffffffff167f24dda59dcb366d33bbf1eb5b2f3e7b7b9550909fdc7fb245ccd096454be66e3d60015f604051610fe5929190613639565b60405180910390a261102b6040518060400160405280601c81526020017f426c6f636b2068617368206973206e6f7420617661696c61626c652e00000000815250612411565b505061185d565b5f600e60029054906101000a900473ffffffffffffffffffffffffffffffffffffffff166040516020016110669190613321565b60405160208183030381529060405290505f5b600f805490508110156110f85781600f828154811061109b5761109a612fb9565b5b905f5260205f2090600202015f015f9054906101000a900473ffffffffffffffffffffffffffffffffffffffff166040516020016110da92919061338d565b60405160208183030381529060405291508080600101915050611079565b505f828260405160200161110d9291906133dd565b6040516020818303038152906040528051906020012090505f815f1c90505f602660ff168261113c9190613431565b9050600e5f9054906101000a900460ff1660ff168160ff161461125c57601233908060018154018082558091505060019003905f5260205f20015f9091909190916101000a81548173ffffffffffffffffffffffffffffffffffffffff021916908373ffffffffffffffffffffffffffffffffffffffff1602179055503373ffffffffffffffffffffffffffffffffffffffff167f39c03a9b168a82091c3a742365a64c2bd74e5fc3873bf396d9c532ae8e0c31a3600e5f9054906101000a900460ff168360405161120f929190613673565b60405180910390a2600e60019054906101000a900460ff1660ff1660128054905010611257576112566040518060600160405280602b8152602001613ee0602b9139612411565b5b611856565b600e5f9054906101000a900460ff1660ff168160ff1603611855575f80600f8054905067ffffffffffffffff8111156112985761129761369a565b5b6040519080825280602002602001820160405280156112c65781602001602082028036833780820191505090505b5090505f5b600f805490508110156115f7575f600f82815481106112ed576112ec612fb9565b5b905f5260205f2090600202015f0160149054906101000a900460ff1690505f600f83815481106113205761131f612fb9565b5b905f5260205f209060020201600101549050602560ff168260ff161115801561135c5750600e5f9054906101000a900460ff1660ff168260ff16145b8061138c5750602660ff168260ff1614801561138b575061138a600e5f9054906101000a900460ff16611f52565b5b5b806113bc5750602760ff168260ff161480156113bb57506113ba600e5f9054906101000a900460ff166122ce565b5b5b806113ec5750602860ff168260ff161480156113eb57506113ea600e5f9054906101000a900460ff16611be2565b5b5b8061141c5750602960ff168260ff1614801561141b575061141a600e5f9054906101000a900460ff16611da9565b5b5b8061144c5750602a60ff168260ff1614801561144b575061144a600e5f9054906101000a900460ff16610e64565b5b5b8061147c5750602b60ff168260ff1614801561147b575061147a600e5f9054906101000a900460ff16612296565b5b5b806114ac5750602c60ff168260ff161480156114ab57506114aa600e5f9054906101000a900460ff1661091a565b5b5b806114dc5750602d60ff168260ff161480156114db57506114da600e5f9054906101000a900460ff16611eda565b5b5b8061150c5750602e60ff168260ff1614801561150b575061150a600e5f9054906101000a900460ff166122ee565b5b5b8061153c5750602f60ff168260ff1614801561153b575061153a600e5f9054906101000a900460ff16611c53565b5b5b8061156c5750603060ff168260ff1614801561156b575061156a600e5f9054906101000a900460ff16610df2565b5b5b8061159c5750603160ff168260ff1614801561159b575061159a600e5f9054906101000a900460ff16611f72565b5b5b156115e8575f6115ab836128a2565b826115b691906136c7565b905080866115c49190613167565b9550808585815181106115da576115d9612fb9565b5b602002602001018181525050505b505080806001019150506112cb565b505f47905061161183848361160c9190613708565b611d79565b156116d957601133908060018154018082558091505060019003905f5260205f20015f9091909190916101000a81548173ffffffffffffffffffffffffffffffffffffffff021916908373ffffffffffffffffffffffffffffffffffffffff1602179055503373ffffffffffffffffffffffffffffffffffffffff167f26a30662a62b2f36a27351617fe147c5816a623896a156aaccf7ceef9126ea2f600e5f9054906101000a900460ff16866040516116cc929190613673565b60405180910390a26117c8565b601233908060018154018082558091505060019003905f5260205f20015f9091909190916101000a81548173ffffffffffffffffffffffffffffffffffffffff021916908373ffffffffffffffffffffffffffffffffffffffff1602179055503373ffffffffffffffffffffffffffffffffffffffff167f333e965ead153896365f292a4375584b5308a5bae488790c906bdd165299ca258460405161177f91906137ab565b60405180910390a2600e60019054906101000a900460ff1660ff16601280549050106117c7576117c66040518060600160405280602b8152602001613ee0602b9139612411565b5b5b600e60019054906101000a900460ff1660ff1660118054905010611851577f5f438d100d0c0fb18e88113110bf411fd18c9a557c03e394cd32997b5055f9ae600e5f9054906101000a900460ff166040516118239190612d78565b60405180910390a16004600860146101000a81548160ff021916908360ff160217905550611850826129e9565b5b5050505b5b5050505050505b565b600160ff16600860149054906101000a900460ff1660ff16146118b7576040517f08c379a00000000000000000000000000000000000000000000000000000000081526004016118ae90613847565b60405180910390fd5b600e60029054906101000a900473ffffffffffffffffffffffffffffffffffffffff1673ffffffffffffffffffffffffffffffffffffffff163373ffffffffffffffffffffffffffffffffffffffff1614611947576040517f08c379a000000000000000000000000000000000000000000000000000000000815260040161193e906138af565b60405180910390fd5b6119856040518060400160405280601d81526020017f5769746864726177616c2072657175657374656420627920686f73742e000000815250612411565b565b60095481565b600160ff16600860149054906101000a900460ff1660ff16146119e5576040517f08c379a00000000000000000000000000000000000000000000000000000000081526004016119dc9061393d565b60405180910390fd5b60318160ff161115611a2c576040517f08c379a0000000000000000000000000000000000000000000000000000000008152600401611a23906139a5565b60405180910390fd5b600a54341015611a71576040517f08c379a0000000000000000000000000000000000000000000000000000000008152600401611a6890613a33565b60405180910390fd5b600b54341115611ab6576040517f08c379a0000000000000000000000000000000000000000000000000000000008152600401611aad90613ac1565b60405180910390fd5b5f60405180606001604052803373ffffffffffffffffffffffffffffffffffffffff1681526020018360ff168152602001348152509050600f81908060018154018082558091505060019003905f5260205f2090600202015f909190919091505f820151815f015f6101000a81548173ffffffffffffffffffffffffffffffffffffffff021916908373ffffffffffffffffffffffffffffffffffffffff1602179055506020820151815f0160146101000a81548160ff021916908360ff1602179055506040820151816001015550503373ffffffffffffffffffffffffffffffffffffffff167f9f6b4cced64244a64465098f682029975b1614400b96bc6bd12c6680837191668334604051611bce929190613adf565b60405180910390a2611bde61098c565b5050565b5f805f90505b60128160ff161015611c49578260ff165f8260ff1660128110611c0e57611c0d612fb9565b5b602091828204019190069054906101000a900460ff1660ff1603611c36576001915050611c4e565b8080611c4190613013565b915050611be8565b505f90505b919050565b5f805f90505b600c8160ff161015611cbb578260ff1660058260ff16600c8110611c8057611c7f612fb9565b5b602091828204019190069054906101000a900460ff1660ff1603611ca8576001915050611cc0565b8080611cb390613013565b915050611c59565b505f90505b919050565b60606012805480602002602001604051908101604052809291908181526020018280548015611d4657602002820191905f5260205f20905b815f9054906101000a900473ffffffffffffffffffffffffffffffffffffffff1673ffffffffffffffffffffffffffffffffffffffff1681526020019060010190808311611cfd575b5050505050905090565b5f600860149054906101000a900460ff16905090565b600e60019054906101000a900460ff1681565b5f80611d8361223c565b600c54611d909190613167565b9050808385611d9f9190613167565b1491505092915050565b5f805f90505b60128160ff161015611e11578260ff1660018260ff1660128110611dd657611dd5612fb9565b5b602091828204019190069054906101000a900460ff1660ff1603611dfe576001915050611e16565b8080611e0990613013565b915050611daf565b505f90505b919050565b60118181548110611e2a575f80fd5b905f5260205f20015f915054906101000a900473ffffffffffffffffffffffffffffffffffffffff1681565b600e5f9054906101000a900460ff1681565b600d5481565b60128181548110611e7d575f80fd5b905f5260205f20015f915054906101000a900473ffffffffffffffffffffffffffffffffffffffff1681565b5f600f80549050905090565b60085f9054906101000a900473ffffffffffffffffffffffffffffffffffffffff1681565b5f805f90505b600c8160ff161015611f42578260ff1660038260ff16600c8110611f0757611f06612fb9565b5b602091828204019190069054906101000a900460ff1660ff1603611f2f576001915050611f47565b8080611f3a90613013565b915050611ee0565b505f90505b919050565b600a5481565b5f60018260ff1610158015611f6b575060128260ff1611155b9050919050565b5f805f90505b600c8160ff161015611fda578260ff1660078260ff16600c8110611f9f57611f9e612fb9565b5b602091828204019190069054906101000a900460ff1660ff1603611fc7576001915050611fdf565b8080611fd290613013565b915050611f78565b505f90505b919050565b5f60ff16600860149054906101000a900460ff1660ff161461203b576040517f08c379a000000000000000000000000000000000000000000000000000000000815260040161203290613b76565b60405180910390fd5b600e60029054906101000a900473ffffffffffffffffffffffffffffffffffffffff1673ffffffffffffffffffffffffffffffffffffffff163373ffffffffffffffffffffffffffffffffffffffff16146120cb576040517f08c379a00000000000000000000000000000000000000000000000000000000081526004016120c290613bde565b60405180910390fd5b5f341161210d576040517f08c379a000000000000000000000000000000000000000000000000000000000815260040161210490613c46565b60405180910390fd5b600954341015612152576040517f08c379a000000000000000000000000000000000000000000000000000000000815260040161214990613cd4565b60405180910390fd5b5f602480346121619190613431565b3461216c9190613708565b6121769190613cf2565b9050600a548110156121bd576040517f08c379a00000000000000000000000000000000000000000000000000000000081526004016121b490613d92565b60405180910390fd5b34600c8190555080600b819055506001600860146101000a81548160ff021916908360ff1602179055503373ffffffffffffffffffffffffffffffffffffffff167f28b02a3b37f54d867bfaac30608f33c9c6c367ed95c0bb8471f906ae2b6f1f8d34600b54604051612231929190613db0565b60405180910390a250565b5f805f90505f5b600f8054905081101561228e57600f818154811061226457612263612fb9565b5b905f5260205f209060020201600101548261227f9190613167565b91508080600101915050612243565b508091505090565b5f808260ff161180156122ac575060258260ff16105b80156122c757505f6002836122c19190613461565b60ff1614155b9050919050565b5f60138260ff16101580156122e7575060248260ff1611155b9050919050565b5f805f90505b600c8160ff161015612356578260ff1660048260ff16600c811061231b5761231a612fb9565b5b602091828204019190069054906101000a900460ff1660ff160361234357600191505061235b565b808061234e90613013565b9150506122f4565b505f90505b919050565b600e60029054906101000a900473ffffffffffffffffffffffffffffffffffffffff1681565b6060601180548060200260200160405190810160405280929190818152602001828054801561240757602002820191905f5260205f20905b815f9054906101000a900473ffffffffffffffffffffffffffffffffffffffff1673ffffffffffffffffffffffffffffffffffffffff16815260200190600101908083116123be575b5050505050905090565b5f5b600f8054905081101561258957600f818154811061243457612433612fb9565b5b905f5260205f2090600202015f015f9054906101000a900473ffffffffffffffffffffffffffffffffffffffff1673ffffffffffffffffffffffffffffffffffffffff166108fc600f838154811061248f5761248e612fb9565b5b905f5260205f2090600202016001015490811502906040515f60405180830381858888f193505050501580156124c7573d5f803e3d5ffd5b50600f81815481106124dc576124db612fb9565b5b905f5260205f2090600202015f015f9054906101000a900473ffffffffffffffffffffffffffffffffffffffff1673ffffffffffffffffffffffffffffffffffffffff167f41591fb97ed8c53bc4fab60d248afc5a63ea30972f38202dec7f70ba96cd8ffb600f838154811061255557612554612fb9565b5b905f5260205f2090600202016001015484604051612574929190613e29565b60405180910390a28080600101915050612413565b505f4790505f81111561266f57600e60029054906101000a900473ffffffffffffffffffffffffffffffffffffffff1673ffffffffffffffffffffffffffffffffffffffff166108fc8290811502906040515f60405180830381858888f193505050501580156125fb573d5f803e3d5ffd5b50600e60029054906101000a900473ffffffffffffffffffffffffffffffffffffffff1673ffffffffffffffffffffffffffffffffffffffff167f47a62a9f43a7a9fa12fc1cbd9c83b2c4da5c34547c75f93f79069c84d2b2aae38284604051612666929190613e29565b60405180910390a25b6005600860146101000a81548160ff021916908360ff1602179055507f2a90ad102a73b8c5d42598ffcaf8b614d8230af8f049689a88c71b96eac898bb826040516126ba9190613e57565b60405180910390a15050565b5f805f90505f5b60108054905081101561275e578373ffffffffffffffffffffffffffffffffffffffff166010828154811061270557612704612fb9565b5b905f5260205f20015f9054906101000a900473ffffffffffffffffffffffffffffffffffffffff1673ffffffffffffffffffffffffffffffffffffffff1603612751576001915061275e565b80806001019150506126cd565b508061276d575f91505061289d565b5f5b601180549050811015612801578373ffffffffffffffffffffffffffffffffffffffff16601182815481106127a7576127a6612fb9565b5b905f5260205f20015f9054906101000a900473ffffffffffffffffffffffffffffffffffffffff1673ffffffffffffffffffffffffffffffffffffffff16036127f4575f9250505061289d565b808060010191505061276f565b505f5b601280549050811015612896578373ffffffffffffffffffffffffffffffffffffffff166012828154811061283c5761283b612fb9565b5b905f5260205f20015f9054906101000a900473ffffffffffffffffffffffffffffffffffffffff1673ffffffffffffffffffffffffffffffffffffffff1603612889575f9250505061289d565b8080600101915050612804565b5060019150505b919050565b5f602560ff168260ff16116128ba57602490506129e4565b602c60ff168260ff1614806128d55750602d60ff168260ff16145b806128e65750602e60ff168260ff16145b156128f457600390506129e4565b602f60ff168260ff16148061290f5750603060ff168260ff16145b806129205750603160ff168260ff16145b1561292e57600390506129e4565b602660ff168260ff1614806129495750602760ff168260ff16145b1561295757600290506129e4565b602860ff168260ff1614806129725750602960ff168260ff16145b1561298057600290506129e4565b602a60ff168260ff16148061299b5750602b60ff168260ff16145b156129a957600290506129e4565b6040517f08c379a00000000000000000000000000000000000000000000000000000000081526004016129db90613ec1565b60405180910390fd5b919050565b5f5b600f80549050811015612ba1575f828281518110612a0c57612a0b612fb9565b5b60200260200101511115612b9457600f8181548110612a2e57612a2d612fb9565b5b905f5260205f2090600202015f015f9054906101000a900473ffffffffffffffffffffffffffffffffffffffff1673ffffffffffffffffffffffffffffffffffffffff166108fc838381518110612a8857612a87612fb9565b5b602002602001015190811502906040515f60405180830381858888f19350505050158015612ab8573d5f803e3d5ffd5b50600f8181548110612acd57612acc612fb9565b5b905f5260205f2090600202015f015f9054906101000a900473ffffffffffffffffffffffffffffffffffffffff1673ffffffffffffffffffffffffffffffffffffffff167ffeb6d77d8663b36b3393e8790540b4ebe73ade87f3146e450022712344dc7b3b600f8381548110612b4657612b45612fb9565b5b905f5260205f2090600202015f0160149054906101000a900460ff16848481518110612b7557612b74612fb9565b5b6020026020010151604051612b8b929190613adf565b60405180910390a25b80806001019150506129eb565b505f4790505f811115612c8557600e60029054906101000a900473ffffffffffffffffffffffffffffffffffffffff1673ffffffffffffffffffffffffffffffffffffffff166108fc8290811502906040515f60405180830381858888f19350505050158015612c13573d5f803e3d5ffd5b50600e60029054906101000a900473ffffffffffffffffffffffffffffffffffffffff1673ffffffffffffffffffffffffffffffffffffffff167f9db2233ffe8f379b659d66207f30c89b9cc7c86c09645504cb208839a055907a82604051612c7c9190612da9565b60405180910390a25b6006600860146101000a81548160ff021916908360ff1602179055507fb537cbcadc098cfedf5a04ef7e68a8554b55f7e45bfdaca1cbc51a686ef65f4860405160405180910390a15050565b5f80fd5b5f60ff82169050919050565b612cea81612cd5565b8114612cf4575f80fd5b50565b5f81359050612d0581612ce1565b92915050565b5f60208284031215612d2057612d1f612cd1565b5b5f612d2d84828501612cf7565b91505092915050565b5f8115159050919050565b612d4a81612d36565b82525050565b5f602082019050612d635f830184612d41565b92915050565b612d7281612cd5565b82525050565b5f602082019050612d8b5f830184612d69565b92915050565b5f819050919050565b612da381612d91565b82525050565b5f602082019050612dbc5f830184612d9a565b92915050565b612dcb81612d91565b8114612dd5575f80fd5b50565b5f81359050612de681612dc2565b92915050565b5f60208284031215612e0157612e00612cd1565b5b5f612e0e84828501612dd8565b91505092915050565b5f73ffffffffffffffffffffffffffffffffffffffff82169050919050565b5f612e4082612e17565b9050919050565b612e5081612e36565b82525050565b5f606082019050612e695f830186612e47565b612e766020830185612d69565b612e836040830184612d9a565b949350505050565b5f602082019050612e9e5f830184612e47565b92915050565b5f81519050919050565b5f82825260208201905092915050565b5f819050602082019050919050565b612ed681612e36565b82525050565b5f612ee78383612ecd565b60208301905092915050565b5f602082019050919050565b5f612f0982612ea4565b612f138185612eae565b9350612f1e83612ebe565b805f5b83811015612f4e578151612f358882612edc565b9750612f4083612ef3565b925050600181019050612f21565b5085935050505092915050565b5f6020820190508181035f830152612f738184612eff565b905092915050565b5f8060408385031215612f9157612f90612cd1565b5b5f612f9e85828601612dd8565b9250506020612faf85828601612dd8565b9150509250929050565b7f4e487b71000000000000000000000000000000000000000000000000000000005f52603260045260245ffd5b7f4e487b71000000000000000000000000000000000000000000000000000000005f52601160045260245ffd5b5f61301d82612cd5565b915060ff82036130305761302f612fe6565b5b600182019050919050565b5f82825260208201905092915050565b7f42657420637574206f66662063616e206e6f7420626520706c6163656420696e5f8201527f2063757272656e74207374617475732e00000000000000000000000000000000602082015250565b5f6130a560308361303b565b91506130b08261304b565b604082019050919050565b5f6020820190508181035f8301526130d281613099565b9050919050565b7f526573756c742063616e6e6f742062652067656e65726174656420696e2063755f8201527f7272656e74207374617475732e00000000000000000000000000000000000000602082015250565b5f613133602d8361303b565b915061313e826130d9565b604082019050919050565b5f6020820190508181035f83015261316081613127565b9050919050565b5f61317182612d91565b915061317c83612d91565b925082820190508082111561319457613193612fe6565b5b92915050565b7f526573756c742063616e6e6f742062652067656e657261746564206265666f725f8201527f652074686520726571756972656420626c6f636b206e756d626572206973207260208201527f6561636865642e00000000000000000000000000000000000000000000000000604082015250565b5f61321a60478361303b565b91506132258261319a565b606082019050919050565b5f6020820190508181035f8301526132478161320e565b9050919050565b7f4f6e6c79206f70657261746f722063616e2067656e657261746520726573756c5f8201527f742e000000000000000000000000000000000000000000000000000000000000602082015250565b5f6132a860228361303b565b91506132b38261324e565b604082019050919050565b5f6020820190508181035f8301526132d58161329c565b9050919050565b5f8160601b9050919050565b5f6132f2826132dc565b9050919050565b5f613303826132e8565b9050919050565b61331b61331682612e36565b6132f9565b82525050565b5f61332c828461330a565b60148201915081905092915050565b5f81519050919050565b5f81905092915050565b8281835e5f83830152505050565b5f6133678261333b565b6133718185613345565b935061338181856020860161334f565b80840191505092915050565b5f613398828561335d565b91506133a4828461330a565b6014820191508190509392505050565b5f819050919050565b5f819050919050565b6133d76133d2826133b4565b6133bd565b82525050565b5f6133e882856133c6565b6020820191506133f8828461335d565b91508190509392505050565b7f4e487b71000000000000000000000000000000000000000000000000000000005f52601260045260245ffd5b5f61343b82612d91565b915061344683612d91565b92508261345657613455613404565b5b828206905092915050565b5f61346b82612cd5565b915061347683612cd5565b92508261348657613485613404565b5b828206905092915050565b7f526573756c742063616e206e6f742062652076616c69646174656420696e20635f8201527f757272656e74207374617475732e000000000000000000000000000000000000602082015250565b5f6134eb602e8361303b565b91506134f682613491565b604082019050919050565b5f6020820190508181035f830152613518816134df565b9050919050565b7f4f6e6c792076616c696461746f72732063616e2076616c6964617465207468655f8201527f20726573756c742e000000000000000000000000000000000000000000000000602082015250565b5f61357960288361303b565b91506135848261351f565b604082019050919050565b5f6020820190508181035f8301526135a68161356d565b9050919050565b5f819050919050565b5f819050919050565b5f6135d96135d46135cf846135ad565b6135b6565b612cd5565b9050919050565b6135e9816135bf565b82525050565b7f426c6f636b2068617368206973206e6f7420617661696c61626c652e000000005f82015250565b5f613623601c8361303b565b915061362e826135ef565b602082019050919050565b5f60608201905061364c5f8301856135e0565b6136596020830184612d41565b818103604083015261366a81613617565b90509392505050565b5f6040820190506136865f830185612d69565b6136936020830184612d69565b9392505050565b7f4e487b71000000000000000000000000000000000000000000000000000000005f52604160045260245ffd5b5f6136d182612d91565b91506136dc83612d91565b92508282026136ea81612d91565b9150828204841483151761370157613700612fe6565b5b5092915050565b5f61371282612d91565b915061371d83612d91565b925082820390508181111561373557613734612fe6565b5b92915050565b7f5061796f7574202b20686f73742072657475726e206d7573742065786163746c5f8201527f79206d61746368206465706f7369746564202620626574206661696c00000000602082015250565b5f613795603c8361303b565b91506137a08261373b565b604082019050919050565b5f6040820190508181035f8301526137c281613789565b90506137d16020830184612d9a565b92915050565b7f57697468647261772063616e206e6f742062652063616c6c656420696e2063755f8201527f7272656e74207374617475732e00000000000000000000000000000000000000602082015250565b5f613831602d8361303b565b915061383c826137d7565b604082019050919050565b5f6020820190508181035f83015261385e81613825565b9050919050565b7f4f6e6c7920686f73742063616e2077697468647261772e0000000000000000005f82015250565b5f61389960178361303b565b91506138a482613865565b602082019050919050565b5f6020820190508181035f8301526138c68161388d565b9050919050565b7f4265742063616e206e6f7420626520706c6163656420696e2063757272656e745f8201527f207374617475732e000000000000000000000000000000000000000000000000602082015250565b5f61392760288361303b565b9150613932826138cd565b604082019050919050565b5f6020820190508181035f8301526139548161391b565b9050919050565b7f4f7074696f6e206d757374206265206265747765656e203020616e64203439005f82015250565b5f61398f601f8361303b565b915061399a8261395b565b602082019050919050565b5f6020820190508181035f8301526139bc81613983565b9050919050565b7f42657420616d6f756e742063616e6e6f74206265206c657373207468616e20745f8201527f6865206d696e696d756d2062657420616d6f756e742e00000000000000000000602082015250565b5f613a1d60368361303b565b9150613a28826139c3565b604082019050919050565b5f6020820190508181035f830152613a4a81613a11565b9050919050565b7f42657420616d6f756e742063616e6e6f742065786365656420746865206d61785f8201527f696d756d2062657420616d6f756e742e00000000000000000000000000000000602082015250565b5f613aab60308361303b565b9150613ab682613a51565b604082019050919050565b5f6020820190508181035f830152613ad881613a9f565b9050919050565b5f604082019050613af25f830185612d69565b613aff6020830184612d9a565b9392505050565b7f4465706f7369742063616e206e6f7420626520706c6163656420696e206375725f8201527f72656e74207374617475732e0000000000000000000000000000000000000000602082015250565b5f613b60602c8361303b565b9150613b6b82613b06565b604082019050919050565b5f6020820190508181035f830152613b8d81613b54565b9050919050565b7f4f6e6c7920686f73742063616e206465706f7369742e000000000000000000005f82015250565b5f613bc860168361303b565b9150613bd382613b94565b602082019050919050565b5f6020820190508181035f830152613bf581613bbc565b9050919050565b7f4465706f73697420616d6f756e742063616e6e6f74206265207a65726f2e00005f82015250565b5f613c30601e8361303b565b9150613c3b82613bfc565b602082019050919050565b5f6020820190508181035f830152613c5d81613c24565b9050919050565b7f4465706f73697420616d6f756e742069732062656c6f7720746865206d696e695f8201527f6d756d206465706f7369742e0000000000000000000000000000000000000000602082015250565b5f613cbe602c8361303b565b9150613cc982613c64565b604082019050919050565b5f6020820190508181035f830152613ceb81613cb2565b9050919050565b5f613cfc82612d91565b9150613d0783612d91565b925082613d1757613d16613404565b5b828204905092915050565b7f4465706f73697420616d6f756e742063616e206e6f7420636f766572207468655f8201527f206d696e696d756d206265742e00000000000000000000000000000000000000602082015250565b5f613d7c602d8361303b565b9150613d8782613d22565b604082019050919050565b5f6020820190508181035f830152613da981613d70565b9050919050565b5f604082019050613dc35f830185612d9a565b613dd06020830184612d9a565b9392505050565b5f81519050919050565b5f601f19601f8301169050919050565b5f613dfb82613dd7565b613e05818561303b565b9350613e1581856020860161334f565b613e1e81613de1565b840191505092915050565b5f604082019050613e3c5f830185612d9a565b8181036020830152613e4e8184613df1565b90509392505050565b5f6020820190508181035f830152613e6f8184613df1565b905092915050565b7f496e76616c69642062657474696e67206f7074696f6e2e0000000000000000005f82015250565b5f613eab60178361303b565b9150613eb682613e77565b602082019050919050565b5f6020820190508181035f830152613ed881613e9f565b905091905056fe4d616a6f72697479206f662076616c696461746f72732072656a65637465642074686520726573756c742ea2646970667358221220c07a2e3a34d912642e9f44a93283be40e8110631574c0aff2cb80b52bd3e5eba64736f6c634300081a0033",
			"opcodes": "PUSH1 0x80 PUSH1 0x40 MSTORE PUSH1 0x40 MLOAD DUP1 PUSH2 0x240 ADD PUSH1 0x40 MSTORE DUP1 PUSH1 0x1 PUSH1 0xFF AND DUP2 MSTORE PUSH1 0x20 ADD PUSH1 0x3 PUSH1 0xFF AND DUP2 MSTORE PUSH1 0x20 ADD PUSH1 0x5 PUSH1 0xFF AND DUP2 MSTORE PUSH1 0x20 ADD PUSH1 0x7 PUSH1 0xFF AND DUP2 MSTORE PUSH1 0x20 ADD PUSH1 0x9 PUSH1 0xFF AND DUP2 MSTORE PUSH1 0x20 ADD PUSH1 0xC PUSH1 0xFF AND DUP2 MSTORE PUSH1 0x20 ADD PUSH1 0xE PUSH1 0xFF AND DUP2 MSTORE PUSH1 0x20 ADD PUSH1 0x10 PUSH1 0xFF AND DUP2 MSTORE PUSH1 0x20 ADD PUSH1 0x12 PUSH1 0xFF AND DUP2 MSTORE PUSH1 0x20 ADD PUSH1 0x13 PUSH1 0xFF AND DUP2 MSTORE PUSH1 0x20 ADD PUSH1 0x15 PUSH1 0xFF AND DUP2 MSTORE PUSH1 0x20 ADD PUSH1 0x17 PUSH1 0xFF AND DUP2 MSTORE PUSH1 0x20 ADD PUSH1 0x19 PUSH1 0xFF AND DUP2 MSTORE PUSH1 0x20 ADD PUSH1 0x1B PUSH1 0xFF AND DUP2 MSTORE PUSH1 0x20 ADD PUSH1 0x1E PUSH1 0xFF AND DUP2 MSTORE PUSH1 0x20 ADD PUSH1 0x20 PUSH1 0xFF AND DUP2 MSTORE PUSH1 0x20 ADD PUSH1 0x22 PUSH1 0xFF AND DUP2 MSTORE PUSH1 0x20 ADD PUSH1 0x24 PUSH1 0xFF AND DUP2 MSTORE POP PUSH0 SWAP1 PUSH1 0x12 PUSH2 0xD1 SWAP3 SWAP2 SWAP1 PUSH2 0x6C9 JUMP JUMPDEST POP PUSH1 0x40 MLOAD DUP1 PUSH2 0x240 ADD PUSH1 0x40 MSTORE DUP1 PUSH1 0x2 PUSH1 0xFF AND DUP2 MSTORE PUSH1 0x20 ADD PUSH1 0x4 PUSH1 0xFF AND DUP2 MSTORE PUSH1 0x20 ADD PUSH1 0x6 PUSH1 0xFF AND DUP2 MSTORE PUSH1 0x20 ADD PUSH1 0x8 PUSH1 0xFF AND DUP2 MSTORE PUSH1 0x20 ADD PUSH1 0xA PUSH1 0xFF AND DUP2 MSTORE PUSH1 0x20 ADD PUSH1 0xB PUSH1 0xFF AND DUP2 MSTORE PUSH1 0x20 ADD PUSH1 0xD PUSH1 0xFF AND DUP2 MSTORE PUSH1 0x20 ADD PUSH1 0xF PUSH1 0xFF AND DUP2 MSTORE PUSH1 0x20 ADD PUSH1 0x11 PUSH1 0xFF AND DUP2 MSTORE PUSH1 0x20 ADD PUSH1 0x14 PUSH1 0xFF AND DUP2 MSTORE PUSH1 0x20 ADD PUSH1 0x16 PUSH1 0xFF AND DUP2 MSTORE PUSH1 0x20 ADD PUSH1 0x18 PUSH1 0xFF AND DUP2 MSTORE PUSH1 0x20 ADD PUSH1 0x1A PUSH1 0xFF AND DUP2 MSTORE PUSH1 0x20 ADD PUSH1 0x1C PUSH1 0xFF AND DUP2 MSTORE PUSH1 0x20 ADD PUSH1 0x1D PUSH1 0xFF AND DUP2 MSTORE PUSH1 0x20 ADD PUSH1 0x1F PUSH1 0xFF AND DUP2 MSTORE PUSH1 0x20 ADD PUSH1 0x21 PUSH1 0xFF AND DUP2 MSTORE PUSH1 0x20 ADD PUSH1 0x23 PUSH1 0xFF AND DUP2 MSTORE POP PUSH1 0x1 SWAP1 PUSH1 0x12 PUSH2 0x1A0 SWAP3 SWAP2 SWAP1 PUSH2 0x6C9 JUMP JUMPDEST POP PUSH1 0x40 MLOAD DUP1 PUSH2 0x180 ADD PUSH1 0x40 MSTORE DUP1 PUSH1 0x1 PUSH1 0xFF AND DUP2 MSTORE PUSH1 0x20 ADD PUSH1 0x4 PUSH1 0xFF AND DUP2 MSTORE PUSH1 0x20 ADD PUSH1 0x7 PUSH1 0xFF AND DUP2 MSTORE PUSH1 0x20 ADD PUSH1 0xA PUSH1 0xFF AND DUP2 MSTORE PUSH1 0x20 ADD PUSH1 0xD PUSH1 0xFF AND DUP2 MSTORE PUSH1 0x20 ADD PUSH1 0x10 PUSH1 0xFF AND DUP2 MSTORE PUSH1 0x20 ADD PUSH1 0x13 PUSH1 0xFF AND DUP2 MSTORE PUSH1 0x20 ADD PUSH1 0x16 PUSH1 0xFF AND DUP2 MSTORE PUSH1 0x20 ADD PUSH1 0x19 PUSH1 0xFF AND DUP2 MSTORE PUSH1 0x20 ADD PUSH1 0x1C PUSH1 0xFF AND DUP2 MSTORE PUSH1 0x20 ADD PUSH1 0x1F PUSH1 0xFF AND DUP2 MSTORE PUSH1 0x20 ADD PUSH1 0x22 PUSH1 0xFF AND DUP2 MSTORE POP PUSH1 0x2 SWAP1 PUSH1 0xC PUSH2 0x233 SWAP3 SWAP2 SWAP1 PUSH2 0x760 JUMP JUMPDEST POP PUSH1 0x40 MLOAD DUP1 PUSH2 0x180 ADD PUSH1 0x40 MSTORE DUP1 PUSH1 0x2 PUSH1 0xFF AND DUP2 MSTORE PUSH1 0x20 ADD PUSH1 0x5 PUSH1 0xFF AND DUP2 MSTORE PUSH1 0x20 ADD PUSH1 0x8 PUSH1 0xFF AND DUP2 MSTORE PUSH1 0x20 ADD PUSH1 0xB PUSH1 0xFF AND DUP2 MSTORE PUSH1 0x20 ADD PUSH1 0xE PUSH1 0xFF AND DUP2 MSTORE PUSH1 0x20 ADD PUSH1 0x11 PUSH1 0xFF AND DUP2 MSTORE PUSH1 0x20 ADD PUSH1 0x14 PUSH1 0xFF AND DUP2 MSTORE PUSH1 0x20 ADD PUSH1 0x17 PUSH1 0xFF AND DUP2 MSTORE PUSH1 0x20 ADD PUSH1 0x1A PUSH1 0xFF AND DUP2 MSTORE PUSH1 0x20 ADD PUSH1 0x1D PUSH1 0xFF AND DUP2 MSTORE PUSH1 0x20 ADD PUSH1 0x20 PUSH1 0xFF AND DUP2 MSTORE PUSH1 0x20 ADD PUSH1 0x23 PUSH1 0xFF AND DUP2 MSTORE POP PUSH1 0x3 SWAP1 PUSH1 0xC PUSH2 0x2C6 SWAP3 SWAP2 SWAP1 PUSH2 0x760 JUMP JUMPDEST POP PUSH1 0x40 MLOAD DUP1 PUSH2 0x180 ADD PUSH1 0x40 MSTORE DUP1 PUSH1 0x3 PUSH1 0xFF AND DUP2 MSTORE PUSH1 0x20 ADD PUSH1 0x6 PUSH1 0xFF AND DUP2 MSTORE PUSH1 0x20 ADD PUSH1 0x9 PUSH1 0xFF AND DUP2 MSTORE PUSH1 0x20 ADD PUSH1 0xC PUSH1 0xFF AND DUP2 MSTORE PUSH1 0x20 ADD PUSH1 0xF PUSH1 0xFF AND DUP2 MSTORE PUSH1 0x20 ADD PUSH1 0x12 PUSH1 0xFF AND DUP2 MSTORE PUSH1 0x20 ADD PUSH1 0x15 PUSH1 0xFF AND DUP2 MSTORE PUSH1 0x20 ADD PUSH1 0x18 PUSH1 0xFF AND DUP2 MSTORE PUSH1 0x20 ADD PUSH1 0x1B PUSH1 0xFF AND DUP2 MSTORE PUSH1 0x20 ADD PUSH1 0x1E PUSH1 0xFF AND DUP2 MSTORE PUSH1 0x20 ADD PUSH1 0x21 PUSH1 0xFF AND DUP2 MSTORE PUSH1 0x20 ADD PUSH1 0x24 PUSH1 0xFF AND DUP2 MSTORE POP PUSH1 0x4 SWAP1 PUSH1 0xC PUSH2 0x359 SWAP3 SWAP2 SWAP1 PUSH2 0x760 JUMP JUMPDEST POP PUSH1 0x40 MLOAD DUP1 PUSH2 0x180 ADD PUSH1 0x40 MSTORE DUP1 PUSH1 0x1 PUSH1 0xFF AND DUP2 MSTORE PUSH1 0x20 ADD PUSH1 0x2 PUSH1 0xFF AND DUP2 MSTORE PUSH1 0x20 ADD PUSH1 0x3 PUSH1 0xFF AND DUP2 MSTORE PUSH1 0x20 ADD PUSH1 0x4 PUSH1 0xFF AND DUP2 MSTORE PUSH1 0x20 ADD PUSH1 0x5 PUSH1 0xFF AND DUP2 MSTORE PUSH1 0x20 ADD PUSH1 0x6 PUSH1 0xFF AND DUP2 MSTORE PUSH1 0x20 ADD PUSH1 0x7 PUSH1 0xFF AND DUP2 MSTORE PUSH1 0x20 ADD PUSH1 0x8 PUSH1 0xFF AND DUP2 MSTORE PUSH1 0x20 ADD PUSH1 0x9 PUSH1 0xFF AND DUP2 MSTORE PUSH1 0x20 ADD PUSH1 0xA PUSH1 0xFF AND DUP2 MSTORE PUSH1 0x20 ADD PUSH1 0xB PUSH1 0xFF AND DUP2 MSTORE PUSH1 0x20 ADD PUSH1 0xC PUSH1 0xFF AND DUP2 MSTORE POP PUSH1 0x5 SWAP1 PUSH1 0xC PUSH2 0x3EC SWAP3 SWAP2 SWAP1 PUSH2 0x760 JUMP JUMPDEST POP PUSH1 0x40 MLOAD DUP1 PUSH2 0x180 ADD PUSH1 0x40 MSTORE DUP1 PUSH1 0xD PUSH1 0xFF AND DUP2 MSTORE PUSH1 0x20 ADD PUSH1 0xE PUSH1 0xFF AND DUP2 MSTORE PUSH1 0x20 ADD PUSH1 0xF PUSH1 0xFF AND DUP2 MSTORE PUSH1 0x20 ADD PUSH1 0x10 PUSH1 0xFF AND DUP2 MSTORE PUSH1 0x20 ADD PUSH1 0x11 PUSH1 0xFF AND DUP2 MSTORE PUSH1 0x20 ADD PUSH1 0x12 PUSH1 0xFF AND DUP2 MSTORE PUSH1 0x20 ADD PUSH1 0x13 PUSH1 0xFF AND DUP2 MSTORE PUSH1 0x20 ADD PUSH1 0x14 PUSH1 0xFF AND DUP2 MSTORE PUSH1 0x20 ADD PUSH1 0x15 PUSH1 0xFF AND DUP2 MSTORE PUSH1 0x20 ADD PUSH1 0x16 PUSH1 0xFF AND DUP2 MSTORE PUSH1 0x20 ADD PUSH1 0x17 PUSH1 0xFF AND DUP2 MSTORE PUSH1 0x20 ADD PUSH1 0x18 PUSH1 0xFF AND DUP2 MSTORE POP PUSH1 0x6 SWAP1 PUSH1 0xC PUSH2 0x47F SWAP3 SWAP2 SWAP1 PUSH2 0x760 JUMP JUMPDEST POP PUSH1 0x40 MLOAD DUP1 PUSH2 0x180 ADD PUSH1 0x40 MSTORE DUP1 PUSH1 0x19 PUSH1 0xFF AND DUP2 MSTORE PUSH1 0x20 ADD PUSH1 0x1A PUSH1 0xFF AND DUP2 MSTORE PUSH1 0x20 ADD PUSH1 0x1B PUSH1 0xFF AND DUP2 MSTORE PUSH1 0x20 ADD PUSH1 0x1C PUSH1 0xFF AND DUP2 MSTORE PUSH1 0x20 ADD PUSH1 0x1D PUSH1 0xFF AND DUP2 MSTORE PUSH1 0x20 ADD PUSH1 0x1E PUSH1 0xFF AND DUP2 MSTORE PUSH1 0x20 ADD PUSH1 0x1F PUSH1 0xFF AND DUP2 MSTORE PUSH1 0x20 ADD PUSH1 0x20 PUSH1 0xFF AND DUP2 MSTORE PUSH1 0x20 ADD PUSH1 0x21 PUSH1 0xFF AND DUP2 MSTORE PUSH1 0x20 ADD PUSH1 0x22 PUSH1 0xFF AND DUP2 MSTORE PUSH1 0x20 ADD PUSH1 0x23 PUSH1 0xFF AND DUP2 MSTORE PUSH1 0x20 ADD PUSH1 0x24 PUSH1 0xFF AND DUP2 MSTORE POP PUSH1 0x7 SWAP1 PUSH1 0xC PUSH2 0x512 SWAP3 SWAP2 SWAP1 PUSH2 0x760 JUMP JUMPDEST POP CALLVALUE DUP1 ISZERO PUSH2 0x51E JUMPI PUSH0 DUP1 REVERT JUMPDEST POP PUSH1 0x40 MLOAD PUSH2 0x4C92 CODESIZE SUB DUP1 PUSH2 0x4C92 DUP4 CODECOPY DUP2 DUP2 ADD PUSH1 0x40 MSTORE DUP2 ADD SWAP1 PUSH2 0x540 SWAP2 SWAP1 PUSH2 0xABD JUMP JUMPDEST DUP2 MLOAD DUP2 PUSH1 0xFF AND GT ISZERO PUSH2 0x587 JUMPI PUSH1 0x40 MLOAD PUSH32 0x8C379A000000000000000000000000000000000000000000000000000000000 DUP2 MSTORE PUSH1 0x4 ADD PUSH2 0x57E SWAP1 PUSH2 0xC08 JUMP JUMPDEST PUSH1 0x40 MLOAD DUP1 SWAP2 SUB SWAP1 REVERT JUMPDEST DUP5 PUSH1 0xE PUSH1 0x2 PUSH2 0x100 EXP DUP2 SLOAD DUP2 PUSH20 0xFFFFFFFFFFFFFFFFFFFFFFFFFFFFFFFFFFFFFFFF MUL NOT AND SWAP1 DUP4 PUSH20 0xFFFFFFFFFFFFFFFFFFFFFFFFFFFFFFFFFFFFFFFF AND MUL OR SWAP1 SSTORE POP DUP4 PUSH1 0xA DUP2 SWAP1 SSTORE POP DUP3 PUSH1 0x9 DUP2 SWAP1 SSTORE POP DUP2 PUSH1 0x10 SWAP1 DUP1 MLOAD SWAP1 PUSH1 0x20 ADD SWAP1 PUSH2 0x5EC SWAP3 SWAP2 SWAP1 PUSH2 0x7F7 JUMP JUMPDEST POP DUP1 PUSH1 0xE PUSH1 0x1 PUSH2 0x100 EXP DUP2 SLOAD DUP2 PUSH1 0xFF MUL NOT AND SWAP1 DUP4 PUSH1 0xFF AND MUL OR SWAP1 SSTORE POP PUSH0 PUSH1 0x8 PUSH1 0x14 PUSH2 0x100 EXP DUP2 SLOAD DUP2 PUSH1 0xFF MUL NOT AND SWAP1 DUP4 PUSH1 0xFF AND MUL OR SWAP1 SSTORE POP PUSH0 PUSH1 0xC DUP2 SWAP1 SSTORE POP DUP6 PUSH1 0x8 PUSH0 PUSH2 0x100 EXP DUP2 SLOAD DUP2 PUSH20 0xFFFFFFFFFFFFFFFFFFFFFFFFFFFFFFFFFFFFFFFF MUL NOT AND SWAP1 DUP4 PUSH20 0xFFFFFFFFFFFFFFFFFFFFFFFFFFFFFFFFFFFFFFFF AND MUL OR SWAP1 SSTORE POP DUP5 PUSH20 0xFFFFFFFFFFFFFFFFFFFFFFFFFFFFFFFFFFFFFFFF AND PUSH32 0x4061FC49CECF93B4142649BBDA6739FBDE558833E11DA901E9C6CF30BFA09FBE DUP6 DUP6 DUP6 DUP6 PUSH1 0x40 MLOAD PUSH2 0x6B6 SWAP5 SWAP4 SWAP3 SWAP2 SWAP1 PUSH2 0xCFB JUMP JUMPDEST PUSH1 0x40 MLOAD DUP1 SWAP2 SUB SWAP1 LOG2 POP POP POP POP POP POP PUSH2 0xD45 JUMP JUMPDEST DUP3 PUSH1 0x12 PUSH1 0x1F ADD PUSH1 0x20 SWAP1 DIV DUP2 ADD SWAP3 DUP3 ISZERO PUSH2 0x74F JUMPI SWAP2 PUSH1 0x20 MUL DUP3 ADD PUSH0 JUMPDEST DUP4 DUP3 GT ISZERO PUSH2 0x721 JUMPI DUP4 MLOAD DUP4 DUP3 PUSH2 0x100 EXP DUP2 SLOAD DUP2 PUSH1 0xFF MUL NOT AND SWAP1 DUP4 PUSH1 0xFF AND MUL OR SWAP1 SSTORE POP SWAP3 PUSH1 0x20 ADD SWAP3 PUSH1 0x1 ADD PUSH1 0x20 DUP2 PUSH0 ADD DIV SWAP3 DUP4 ADD SWAP3 PUSH1 0x1 SUB MUL PUSH2 0x6E4 JUMP JUMPDEST DUP1 ISZERO PUSH2 0x74D JUMPI DUP3 DUP2 PUSH2 0x100 EXP DUP2 SLOAD SWAP1 PUSH1 0xFF MUL NOT AND SWAP1 SSTORE PUSH1 0x1 ADD PUSH1 0x20 DUP2 PUSH0 ADD DIV SWAP3 DUP4 ADD SWAP3 PUSH1 0x1 SUB MUL PUSH2 0x721 JUMP JUMPDEST POP JUMPDEST POP SWAP1 POP PUSH2 0x75C SWAP2 SWAP1 PUSH2 0x87E JUMP JUMPDEST POP SWAP1 JUMP JUMPDEST DUP3 PUSH1 0xC PUSH1 0x1F ADD PUSH1 0x20 SWAP1 DIV DUP2 ADD SWAP3 DUP3 ISZERO PUSH2 0x7E6 JUMPI SWAP2 PUSH1 0x20 MUL DUP3 ADD PUSH0 JUMPDEST DUP4 DUP3 GT ISZERO PUSH2 0x7B8 JUMPI DUP4 MLOAD DUP4 DUP3 PUSH2 0x100 EXP DUP2 SLOAD DUP2 PUSH1 0xFF MUL NOT AND SWAP1 DUP4 PUSH1 0xFF AND MUL OR SWAP1 SSTORE POP SWAP3 PUSH1 0x20 ADD SWAP3 PUSH1 0x1 ADD PUSH1 0x20 DUP2 PUSH0 ADD DIV SWAP3 DUP4 ADD SWAP3 PUSH1 0x1 SUB MUL PUSH2 0x77B JUMP JUMPDEST DUP1 ISZERO PUSH2 0x7E4 JUMPI DUP3 DUP2 PUSH2 0x100 EXP DUP2 SLOAD SWAP1 PUSH1 0xFF MUL NOT AND SWAP1 SSTORE PUSH1 0x1 ADD PUSH1 0x20 DUP2 PUSH0 ADD DIV SWAP3 DUP4 ADD SWAP3 PUSH1 0x1 SUB MUL PUSH2 0x7B8 JUMP JUMPDEST POP JUMPDEST POP SWAP1 POP PUSH2 0x7F3 SWAP2 SWAP1 PUSH2 0x87E JUMP JUMPDEST POP SWAP1 JUMP JUMPDEST DUP3 DUP1 SLOAD DUP3 DUP3 SSTORE SWAP1 PUSH0 MSTORE PUSH1 0x20 PUSH0 KECCAK256 SWAP1 DUP2 ADD SWAP3 DUP3 ISZERO PUSH2 0x86D JUMPI SWAP2 PUSH1 0x20 MUL DUP3 ADD JUMPDEST DUP3 DUP2 GT ISZERO PUSH2 0x86C JUMPI DUP3 MLOAD DUP3 PUSH0 PUSH2 0x100 EXP DUP2 SLOAD DUP2 PUSH20 0xFFFFFFFFFFFFFFFFFFFFFFFFFFFFFFFFFFFFFFFF MUL NOT AND SWAP1 DUP4 PUSH20 0xFFFFFFFFFFFFFFFFFFFFFFFFFFFFFFFFFFFFFFFF AND MUL OR SWAP1 SSTORE POP SWAP2 PUSH1 0x20 ADD SWAP2 SWAP1 PUSH1 0x1 ADD SWAP1 PUSH2 0x815 JUMP JUMPDEST JUMPDEST POP SWAP1 POP PUSH2 0x87A SWAP2 SWAP1 PUSH2 0x87E JUMP JUMPDEST POP SWAP1 JUMP JUMPDEST JUMPDEST DUP1 DUP3 GT ISZERO PUSH2 0x895 JUMPI PUSH0 DUP2 PUSH0 SWAP1 SSTORE POP PUSH1 0x1 ADD PUSH2 0x87F JUMP JUMPDEST POP SWAP1 JUMP JUMPDEST PUSH0 PUSH1 0x40 MLOAD SWAP1 POP SWAP1 JUMP JUMPDEST PUSH0 DUP1 REVERT JUMPDEST PUSH0 DUP1 REVERT JUMPDEST PUSH0 PUSH20 0xFFFFFFFFFFFFFFFFFFFFFFFFFFFFFFFFFFFFFFFF DUP3 AND SWAP1 POP SWAP2 SWAP1 POP JUMP JUMPDEST PUSH0 PUSH2 0x8D3 DUP3 PUSH2 0x8AA JUMP JUMPDEST SWAP1 POP SWAP2 SWAP1 POP JUMP JUMPDEST PUSH2 0x8E3 DUP2 PUSH2 0x8C9 JUMP JUMPDEST DUP2 EQ PUSH2 0x8ED JUMPI PUSH0 DUP1 REVERT JUMPDEST POP JUMP JUMPDEST PUSH0 DUP2 MLOAD SWAP1 POP PUSH2 0x8FE DUP2 PUSH2 0x8DA JUMP JUMPDEST SWAP3 SWAP2 POP POP JUMP JUMPDEST PUSH0 DUP2 SWAP1 POP SWAP2 SWAP1 POP JUMP JUMPDEST PUSH2 0x916 DUP2 PUSH2 0x904 JUMP JUMPDEST DUP2 EQ PUSH2 0x920 JUMPI PUSH0 DUP1 REVERT JUMPDEST POP JUMP JUMPDEST PUSH0 DUP2 MLOAD SWAP1 POP PUSH2 0x931 DUP2 PUSH2 0x90D JUMP JUMPDEST SWAP3 SWAP2 POP POP JUMP JUMPDEST PUSH0 DUP1 REVERT JUMPDEST PUSH0 PUSH1 0x1F NOT PUSH1 0x1F DUP4 ADD AND SWAP1 POP SWAP2 SWAP1 POP JUMP JUMPDEST PUSH32 0x4E487B7100000000000000000000000000000000000000000000000000000000 PUSH0 MSTORE PUSH1 0x41 PUSH1 0x4 MSTORE PUSH1 0x24 PUSH0 REVERT JUMPDEST PUSH2 0x981 DUP3 PUSH2 0x93B JUMP JUMPDEST DUP2 ADD DUP2 DUP2 LT PUSH8 0xFFFFFFFFFFFFFFFF DUP3 GT OR ISZERO PUSH2 0x9A0 JUMPI PUSH2 0x99F PUSH2 0x94B JUMP JUMPDEST JUMPDEST DUP1 PUSH1 0x40 MSTORE POP POP POP JUMP JUMPDEST PUSH0 PUSH2 0x9B2 PUSH2 0x899 JUMP JUMPDEST SWAP1 POP PUSH2 0x9BE DUP3 DUP3 PUSH2 0x978 JUMP JUMPDEST SWAP2 SWAP1 POP JUMP JUMPDEST PUSH0 PUSH8 0xFFFFFFFFFFFFFFFF DUP3 GT ISZERO PUSH2 0x9DD JUMPI PUSH2 0x9DC PUSH2 0x94B JUMP JUMPDEST JUMPDEST PUSH1 0x20 DUP3 MUL SWAP1 POP PUSH1 0x20 DUP2 ADD SWAP1 POP SWAP2 SWAP1 POP JUMP JUMPDEST PUSH0 DUP1 REVERT JUMPDEST PUSH0 PUSH2 0xA04 PUSH2 0x9FF DUP5 PUSH2 0x9C3 JUMP JUMPDEST PUSH2 0x9A9 JUMP JUMPDEST SWAP1 POP DUP1 DUP4 DUP3 MSTORE PUSH1 0x20 DUP3 ADD SWAP1 POP PUSH1 0x20 DUP5 MUL DUP4 ADD DUP6 DUP2 GT ISZERO PUSH2 0xA27 JUMPI PUSH2 0xA26 PUSH2 0x9EE JUMP JUMPDEST JUMPDEST DUP4 JUMPDEST DUP2 DUP2 LT ISZERO PUSH2 0xA50 JUMPI DUP1 PUSH2 0xA3C DUP9 DUP3 PUSH2 0x8F0 JUMP JUMPDEST DUP5 MSTORE PUSH1 0x20 DUP5 ADD SWAP4 POP POP PUSH1 0x20 DUP2 ADD SWAP1 POP PUSH2 0xA29 JUMP JUMPDEST POP POP POP SWAP4 SWAP3 POP POP POP JUMP JUMPDEST PUSH0 DUP3 PUSH1 0x1F DUP4 ADD SLT PUSH2 0xA6E JUMPI PUSH2 0xA6D PUSH2 0x937 JUMP JUMPDEST JUMPDEST DUP2 MLOAD PUSH2 0xA7E DUP5 DUP3 PUSH1 0x20 DUP7 ADD PUSH2 0x9F2 JUMP JUMPDEST SWAP2 POP POP SWAP3 SWAP2 POP POP JUMP JUMPDEST PUSH0 PUSH1 0xFF DUP3 AND SWAP1 POP SWAP2 SWAP1 POP JUMP JUMPDEST PUSH2 0xA9C DUP2 PUSH2 0xA87 JUMP JUMPDEST DUP2 EQ PUSH2 0xAA6 JUMPI PUSH0 DUP1 REVERT JUMPDEST POP JUMP JUMPDEST PUSH0 DUP2 MLOAD SWAP1 POP PUSH2 0xAB7 DUP2 PUSH2 0xA93 JUMP JUMPDEST SWAP3 SWAP2 POP POP JUMP JUMPDEST PUSH0 DUP1 PUSH0 DUP1 PUSH0 DUP1 PUSH1 0xC0 DUP8 DUP10 SUB SLT ISZERO PUSH2 0xAD7 JUMPI PUSH2 0xAD6 PUSH2 0x8A2 JUMP JUMPDEST JUMPDEST PUSH0 PUSH2 0xAE4 DUP10 DUP3 DUP11 ADD PUSH2 0x8F0 JUMP JUMPDEST SWAP7 POP POP PUSH1 0x20 PUSH2 0xAF5 DUP10 DUP3 DUP11 ADD PUSH2 0x8F0 JUMP JUMPDEST SWAP6 POP POP PUSH1 0x40 PUSH2 0xB06 DUP10 DUP3 DUP11 ADD PUSH2 0x923 JUMP JUMPDEST SWAP5 POP POP PUSH1 0x60 PUSH2 0xB17 DUP10 DUP3 DUP11 ADD PUSH2 0x923 JUMP JUMPDEST SWAP4 POP POP PUSH1 0x80 DUP8 ADD MLOAD PUSH8 0xFFFFFFFFFFFFFFFF DUP2 GT ISZERO PUSH2 0xB38 JUMPI PUSH2 0xB37 PUSH2 0x8A6 JUMP JUMPDEST JUMPDEST PUSH2 0xB44 DUP10 DUP3 DUP11 ADD PUSH2 0xA5A JUMP JUMPDEST SWAP3 POP POP PUSH1 0xA0 PUSH2 0xB55 DUP10 DUP3 DUP11 ADD PUSH2 0xAA9 JUMP JUMPDEST SWAP2 POP POP SWAP3 SWAP6 POP SWAP3 SWAP6 POP SWAP3 SWAP6 JUMP JUMPDEST PUSH0 DUP3 DUP3 MSTORE PUSH1 0x20 DUP3 ADD SWAP1 POP SWAP3 SWAP2 POP POP JUMP JUMPDEST PUSH32 0x56616C696461746F72207468726573686F6C642063616E6E6F74206265206772 PUSH0 DUP3 ADD MSTORE PUSH32 0x6561746572207468616E20746865206E756D626572206F662076616C69646174 PUSH1 0x20 DUP3 ADD MSTORE PUSH32 0x6F72732E00000000000000000000000000000000000000000000000000000000 PUSH1 0x40 DUP3 ADD MSTORE POP JUMP JUMPDEST PUSH0 PUSH2 0xBF2 PUSH1 0x44 DUP4 PUSH2 0xB62 JUMP JUMPDEST SWAP2 POP PUSH2 0xBFD DUP3 PUSH2 0xB72 JUMP JUMPDEST PUSH1 0x60 DUP3 ADD SWAP1 POP SWAP2 SWAP1 POP JUMP JUMPDEST PUSH0 PUSH1 0x20 DUP3 ADD SWAP1 POP DUP2 DUP2 SUB PUSH0 DUP4 ADD MSTORE PUSH2 0xC1F DUP2 PUSH2 0xBE6 JUMP JUMPDEST SWAP1 POP SWAP2 SWAP1 POP JUMP JUMPDEST PUSH2 0xC2F DUP2 PUSH2 0x904 JUMP JUMPDEST DUP3 MSTORE POP POP JUMP JUMPDEST PUSH0 DUP2 MLOAD SWAP1 POP SWAP2 SWAP1 POP JUMP JUMPDEST PUSH0 DUP3 DUP3 MSTORE PUSH1 0x20 DUP3 ADD SWAP1 POP SWAP3 SWAP2 POP POP JUMP JUMPDEST PUSH0 DUP2 SWAP1 POP PUSH1 0x20 DUP3 ADD SWAP1 POP SWAP2 SWAP1 POP JUMP JUMPDEST PUSH2 0xC67 DUP2 PUSH2 0x8C9 JUMP JUMPDEST DUP3 MSTORE POP POP JUMP JUMPDEST PUSH0 PUSH2 0xC78 DUP4 DUP4 PUSH2 0xC5E JUMP JUMPDEST PUSH1 0x20 DUP4 ADD SWAP1 POP SWAP3 SWAP2 POP POP JUMP JUMPDEST PUSH0 PUSH1 0x20 DUP3 ADD SWAP1 POP SWAP2 SWAP1 POP JUMP JUMPDEST PUSH0 PUSH2 0xC9A DUP3 PUSH2 0xC35 JUMP JUMPDEST PUSH2 0xCA4 DUP2 DUP6 PUSH2 0xC3F JUMP JUMPDEST SWAP4 POP PUSH2 0xCAF DUP4 PUSH2 0xC4F JUMP JUMPDEST DUP1 PUSH0 JUMPDEST DUP4 DUP2 LT ISZERO PUSH2 0xCDF JUMPI DUP2 MLOAD PUSH2 0xCC6 DUP9 DUP3 PUSH2 0xC6D JUMP JUMPDEST SWAP8 POP PUSH2 0xCD1 DUP4 PUSH2 0xC84 JUMP JUMPDEST SWAP3 POP POP PUSH1 0x1 DUP2 ADD SWAP1 POP PUSH2 0xCB2 JUMP JUMPDEST POP DUP6 SWAP4 POP POP POP POP SWAP3 SWAP2 POP POP JUMP JUMPDEST PUSH2 0xCF5 DUP2 PUSH2 0xA87 JUMP JUMPDEST DUP3 MSTORE POP POP JUMP JUMPDEST PUSH0 PUSH1 0x80 DUP3 ADD SWAP1 POP PUSH2 0xD0E PUSH0 DUP4 ADD DUP8 PUSH2 0xC26 JUMP JUMPDEST PUSH2 0xD1B PUSH1 0x20 DUP4 ADD DUP7 PUSH2 0xC26 JUMP JUMPDEST DUP2 DUP2 SUB PUSH1 0x40 DUP4 ADD MSTORE PUSH2 0xD2D DUP2 DUP6 PUSH2 0xC90 JUMP JUMPDEST SWAP1 POP PUSH2 0xD3C PUSH1 0x60 DUP4 ADD DUP5 PUSH2 0xCEC JUMP JUMPDEST SWAP6 SWAP5 POP POP POP POP POP JUMP JUMPDEST PUSH2 0x3F40 DUP1 PUSH2 0xD52 PUSH0 CODECOPY PUSH0 RETURN INVALID PUSH1 0x80 PUSH1 0x40 MSTORE PUSH1 0x4 CALLDATASIZE LT PUSH2 0x224 JUMPI PUSH0 CALLDATALOAD PUSH1 0xE0 SHR DUP1 PUSH4 0x5D4D4C3E GT PUSH2 0x122 JUMPI DUP1 PUSH4 0x9619367D GT PUSH2 0xAA JUMPI DUP1 PUSH4 0xD9CC76AD GT PUSH2 0x6E JUMPI DUP1 PUSH4 0xD9CC76AD EQ PUSH2 0x812 JUMPI DUP1 PUSH4 0xE4CA650D EQ PUSH2 0x84E JUMPI DUP1 PUSH4 0xE71F766E EQ PUSH2 0x88A JUMPI DUP1 PUSH4 0xF437BC59 EQ PUSH2 0x8C6 JUMPI DUP1 PUSH4 0xF6EF33FD EQ PUSH2 0x8F0 JUMPI PUSH2 0x224 JUMP JUMPDEST DUP1 PUSH4 0x9619367D EQ PUSH2 0x73C JUMPI DUP1 PUSH4 0x972B533D EQ PUSH2 0x766 JUMPI DUP1 PUSH4 0xA38BD74C EQ PUSH2 0x7A2 JUMPI DUP1 PUSH4 0xD0E30DB0 EQ PUSH2 0x7DE JUMPI DUP1 PUSH4 0xD1EDB09E EQ PUSH2 0x7E8 JUMPI PUSH2 0x224 JUMP JUMPDEST DUP1 PUSH4 0x6F91A66F GT PUSH2 0xF1 JUMPI DUP1 PUSH4 0x6F91A66F EQ PUSH2 0x646 JUMPI DUP1 PUSH4 0x80FF62B3 EQ PUSH2 0x670 JUMPI DUP1 PUSH4 0x8C7E347A EQ PUSH2 0x6AC JUMPI DUP1 PUSH4 0x8DA5CB5B EQ PUSH2 0x6D6 JUMPI DUP1 PUSH4 0x8FFFEBCA EQ PUSH2 0x700 JUMPI PUSH2 0x224 JUMP JUMPDEST DUP1 PUSH4 0x5D4D4C3E EQ PUSH2 0x568 JUMPI DUP1 PUSH4 0x5DCAB1D8 EQ PUSH2 0x5A4 JUMPI DUP1 PUSH4 0x62F25AB3 EQ PUSH2 0x5E0 JUMPI DUP1 PUSH4 0x65372147 EQ PUSH2 0x61C JUMPI PUSH2 0x224 JUMP JUMPDEST DUP1 PUSH4 0x35AA2E44 GT PUSH2 0x1B0 JUMPI DUP1 PUSH4 0x4760FFF3 GT PUSH2 0x174 JUMPI DUP1 PUSH4 0x4760FFF3 EQ PUSH2 0x472 JUMPI DUP1 PUSH4 0x4D7D93FE EQ PUSH2 0x4AE JUMPI DUP1 PUSH4 0x4E2B7830 EQ PUSH2 0x4EA JUMPI DUP1 PUSH4 0x4E69D560 EQ PUSH2 0x514 JUMPI DUP1 PUSH4 0x4FD101D7 EQ PUSH2 0x53E JUMPI PUSH2 0x224 JUMP JUMPDEST DUP1 PUSH4 0x35AA2E44 EQ PUSH2 0x3C4 JUMPI DUP1 PUSH4 0x38CCEB4F EQ PUSH2 0x400 JUMPI DUP1 PUSH4 0x3CCFD60B EQ PUSH2 0x416 JUMPI DUP1 PUSH4 0x41B3D185 EQ PUSH2 0x42C JUMPI DUP1 PUSH4 0x43046844 EQ PUSH2 0x456 JUMPI PUSH2 0x224 JUMP JUMPDEST DUP1 PUSH4 0x20968178 GT PUSH2 0x1F7 JUMPI DUP1 PUSH4 0x20968178 EQ PUSH2 0x2BA JUMPI DUP1 PUSH4 0x22AF00FA EQ PUSH2 0x2E4 JUMPI DUP1 PUSH4 0x2605C251 EQ PUSH2 0x322 JUMPI DUP1 PUSH4 0x28DDDC1B EQ PUSH2 0x35E JUMPI DUP1 PUSH4 0x2E5B2168 EQ PUSH2 0x39A JUMPI PUSH2 0x224 JUMP JUMPDEST DUP1 PUSH4 0x12586172 EQ PUSH2 0x228 JUMPI DUP1 PUSH4 0x1B2ABC77 EQ PUSH2 0x264 JUMPI DUP1 PUSH4 0x1DBE2E0E EQ PUSH2 0x27A JUMPI DUP1 PUSH4 0x200D2ED2 EQ PUSH2 0x290 JUMPI JUMPDEST PUSH0 DUP1 REVERT JUMPDEST CALLVALUE DUP1 ISZERO PUSH2 0x233 JUMPI PUSH0 DUP1 REVERT JUMPDEST POP PUSH2 0x24E PUSH1 0x4 DUP1 CALLDATASIZE SUB DUP2 ADD SWAP1 PUSH2 0x249 SWAP2 SWAP1 PUSH2 0x2D0B JUMP JUMPDEST PUSH2 0x91A JUMP JUMPDEST PUSH1 0x40 MLOAD PUSH2 0x25B SWAP2 SWAP1 PUSH2 0x2D50 JUMP JUMPDEST PUSH1 0x40 MLOAD DUP1 SWAP2 SUB SWAP1 RETURN JUMPDEST CALLVALUE DUP1 ISZERO PUSH2 0x26F JUMPI PUSH0 DUP1 REVERT JUMPDEST POP PUSH2 0x278 PUSH2 0x98C JUMP JUMPDEST STOP JUMPDEST CALLVALUE DUP1 ISZERO PUSH2 0x285 JUMPI PUSH0 DUP1 REVERT JUMPDEST POP PUSH2 0x28E PUSH2 0xA42 JUMP JUMPDEST STOP JUMPDEST CALLVALUE DUP1 ISZERO PUSH2 0x29B JUMPI PUSH0 DUP1 REVERT JUMPDEST POP PUSH2 0x2A4 PUSH2 0xD79 JUMP JUMPDEST PUSH1 0x40 MLOAD PUSH2 0x2B1 SWAP2 SWAP1 PUSH2 0x2D78 JUMP JUMPDEST PUSH1 0x40 MLOAD DUP1 SWAP2 SUB SWAP1 RETURN JUMPDEST CALLVALUE DUP1 ISZERO PUSH2 0x2C5 JUMPI PUSH0 DUP1 REVERT JUMPDEST POP PUSH2 0x2CE PUSH2 0xD8C JUMP JUMPDEST PUSH1 0x40 MLOAD PUSH2 0x2DB SWAP2 SWAP1 PUSH2 0x2DA9 JUMP JUMPDEST PUSH1 0x40 MLOAD DUP1 SWAP2 SUB SWAP1 RETURN JUMPDEST CALLVALUE DUP1 ISZERO PUSH2 0x2EF JUMPI PUSH0 DUP1 REVERT JUMPDEST POP PUSH2 0x30A PUSH1 0x4 DUP1 CALLDATASIZE SUB DUP2 ADD SWAP1 PUSH2 0x305 SWAP2 SWAP1 PUSH2 0x2DEC JUMP JUMPDEST PUSH2 0xD92 JUMP JUMPDEST PUSH1 0x40 MLOAD PUSH2 0x319 SWAP4 SWAP3 SWAP2 SWAP1 PUSH2 0x2E56 JUMP JUMPDEST PUSH1 0x40 MLOAD DUP1 SWAP2 SUB SWAP1 RETURN JUMPDEST CALLVALUE DUP1 ISZERO PUSH2 0x32D JUMPI PUSH0 DUP1 REVERT JUMPDEST POP PUSH2 0x348 PUSH1 0x4 DUP1 CALLDATASIZE SUB DUP2 ADD SWAP1 PUSH2 0x343 SWAP2 SWAP1 PUSH2 0x2D0B JUMP JUMPDEST PUSH2 0xDF2 JUMP JUMPDEST PUSH1 0x40 MLOAD PUSH2 0x355 SWAP2 SWAP1 PUSH2 0x2D50 JUMP JUMPDEST PUSH1 0x40 MLOAD DUP1 SWAP2 SUB SWAP1 RETURN JUMPDEST CALLVALUE DUP1 ISZERO PUSH2 0x369 JUMPI PUSH0 DUP1 REVERT JUMPDEST POP PUSH2 0x384 PUSH1 0x4 DUP1 CALLDATASIZE SUB DUP2 ADD SWAP1 PUSH2 0x37F SWAP2 SWAP1 PUSH2 0x2D0B JUMP JUMPDEST PUSH2 0xE64 JUMP JUMPDEST PUSH1 0x40 MLOAD PUSH2 0x391 SWAP2 SWAP1 PUSH2 0x2D50 JUMP JUMPDEST PUSH1 0x40 MLOAD DUP1 SWAP2 SUB SWAP1 RETURN JUMPDEST CALLVALUE DUP1 ISZERO PUSH2 0x3A5 JUMPI PUSH0 DUP1 REVERT JUMPDEST POP PUSH2 0x3AE PUSH2 0xE9B JUMP JUMPDEST PUSH1 0x40 MLOAD PUSH2 0x3BB SWAP2 SWAP1 PUSH2 0x2DA9 JUMP JUMPDEST PUSH1 0x40 MLOAD DUP1 SWAP2 SUB SWAP1 RETURN JUMPDEST CALLVALUE DUP1 ISZERO PUSH2 0x3CF JUMPI PUSH0 DUP1 REVERT JUMPDEST POP PUSH2 0x3EA PUSH1 0x4 DUP1 CALLDATASIZE SUB DUP2 ADD SWAP1 PUSH2 0x3E5 SWAP2 SWAP1 PUSH2 0x2DEC JUMP JUMPDEST PUSH2 0xEA1 JUMP JUMPDEST PUSH1 0x40 MLOAD PUSH2 0x3F7 SWAP2 SWAP1 PUSH2 0x2E8B JUMP JUMPDEST PUSH1 0x40 MLOAD DUP1 SWAP2 SUB SWAP1 RETURN JUMPDEST CALLVALUE DUP1 ISZERO PUSH2 0x40B JUMPI PUSH0 DUP1 REVERT JUMPDEST POP PUSH2 0x414 PUSH2 0xEDC JUMP JUMPDEST STOP JUMPDEST CALLVALUE DUP1 ISZERO PUSH2 0x421 JUMPI PUSH0 DUP1 REVERT JUMPDEST POP PUSH2 0x42A PUSH2 0x185F JUMP JUMPDEST STOP JUMPDEST CALLVALUE DUP1 ISZERO PUSH2 0x437 JUMPI PUSH0 DUP1 REVERT JUMPDEST POP PUSH2 0x440 PUSH2 0x1987 JUMP JUMPDEST PUSH1 0x40 MLOAD PUSH2 0x44D SWAP2 SWAP1 PUSH2 0x2DA9 JUMP JUMPDEST PUSH1 0x40 MLOAD DUP1 SWAP2 SUB SWAP1 RETURN JUMPDEST PUSH2 0x470 PUSH1 0x4 DUP1 CALLDATASIZE SUB DUP2 ADD SWAP1 PUSH2 0x46B SWAP2 SWAP1 PUSH2 0x2D0B JUMP JUMPDEST PUSH2 0x198D JUMP JUMPDEST STOP JUMPDEST CALLVALUE DUP1 ISZERO PUSH2 0x47D JUMPI PUSH0 DUP1 REVERT JUMPDEST POP PUSH2 0x498 PUSH1 0x4 DUP1 CALLDATASIZE SUB DUP2 ADD SWAP1 PUSH2 0x493 SWAP2 SWAP1 PUSH2 0x2D0B JUMP JUMPDEST PUSH2 0x1BE2 JUMP JUMPDEST PUSH1 0x40 MLOAD PUSH2 0x4A5 SWAP2 SWAP1 PUSH2 0x2D50 JUMP JUMPDEST PUSH1 0x40 MLOAD DUP1 SWAP2 SUB SWAP1 RETURN JUMPDEST CALLVALUE DUP1 ISZERO PUSH2 0x4B9 JUMPI PUSH0 DUP1 REVERT JUMPDEST POP PUSH2 0x4D4 PUSH1 0x4 DUP1 CALLDATASIZE SUB DUP2 ADD SWAP1 PUSH2 0x4CF SWAP2 SWAP1 PUSH2 0x2D0B JUMP JUMPDEST PUSH2 0x1C53 JUMP JUMPDEST PUSH1 0x40 MLOAD PUSH2 0x4E1 SWAP2 SWAP1 PUSH2 0x2D50 JUMP JUMPDEST PUSH1 0x40 MLOAD DUP1 SWAP2 SUB SWAP1 RETURN JUMPDEST CALLVALUE DUP1 ISZERO PUSH2 0x4F5 JUMPI PUSH0 DUP1 REVERT JUMPDEST POP PUSH2 0x4FE PUSH2 0x1CC5 JUMP JUMPDEST PUSH1 0x40 MLOAD PUSH2 0x50B SWAP2 SWAP1 PUSH2 0x2F5B JUMP JUMPDEST PUSH1 0x40 MLOAD DUP1 SWAP2 SUB SWAP1 RETURN JUMPDEST CALLVALUE DUP1 ISZERO PUSH2 0x51F JUMPI PUSH0 DUP1 REVERT JUMPDEST POP PUSH2 0x528 PUSH2 0x1D50 JUMP JUMPDEST PUSH1 0x40 MLOAD PUSH2 0x535 SWAP2 SWAP1 PUSH2 0x2D78 JUMP JUMPDEST PUSH1 0x40 MLOAD DUP1 SWAP2 SUB SWAP1 RETURN JUMPDEST CALLVALUE DUP1 ISZERO PUSH2 0x549 JUMPI PUSH0 DUP1 REVERT JUMPDEST POP PUSH2 0x552 PUSH2 0x1D66 JUMP JUMPDEST PUSH1 0x40 MLOAD PUSH2 0x55F SWAP2 SWAP1 PUSH2 0x2D78 JUMP JUMPDEST PUSH1 0x40 MLOAD DUP1 SWAP2 SUB SWAP1 RETURN JUMPDEST CALLVALUE DUP1 ISZERO PUSH2 0x573 JUMPI PUSH0 DUP1 REVERT JUMPDEST POP PUSH2 0x58E PUSH1 0x4 DUP1 CALLDATASIZE SUB DUP2 ADD SWAP1 PUSH2 0x589 SWAP2 SWAP1 PUSH2 0x2F7B JUMP JUMPDEST PUSH2 0x1D79 JUMP JUMPDEST PUSH1 0x40 MLOAD PUSH2 0x59B SWAP2 SWAP1 PUSH2 0x2D50 JUMP JUMPDEST PUSH1 0x40 MLOAD DUP1 SWAP2 SUB SWAP1 RETURN JUMPDEST CALLVALUE DUP1 ISZERO PUSH2 0x5AF JUMPI PUSH0 DUP1 REVERT JUMPDEST POP PUSH2 0x5CA PUSH1 0x4 DUP1 CALLDATASIZE SUB DUP2 ADD SWAP1 PUSH2 0x5C5 SWAP2 SWAP1 PUSH2 0x2D0B JUMP JUMPDEST PUSH2 0x1DA9 JUMP JUMPDEST PUSH1 0x40 MLOAD PUSH2 0x5D7 SWAP2 SWAP1 PUSH2 0x2D50 JUMP JUMPDEST PUSH1 0x40 MLOAD DUP1 SWAP2 SUB SWAP1 RETURN JUMPDEST CALLVALUE DUP1 ISZERO PUSH2 0x5EB JUMPI PUSH0 DUP1 REVERT JUMPDEST POP PUSH2 0x606 PUSH1 0x4 DUP1 CALLDATASIZE SUB DUP2 ADD SWAP1 PUSH2 0x601 SWAP2 SWAP1 PUSH2 0x2DEC JUMP JUMPDEST PUSH2 0x1E1B JUMP JUMPDEST PUSH1 0x40 MLOAD PUSH2 0x613 SWAP2 SWAP1 PUSH2 0x2E8B JUMP JUMPDEST PUSH1 0x40 MLOAD DUP1 SWAP2 SUB SWAP1 RETURN JUMPDEST CALLVALUE DUP1 ISZERO PUSH2 0x627 JUMPI PUSH0 DUP1 REVERT JUMPDEST POP PUSH2 0x630 PUSH2 0x1E56 JUMP JUMPDEST PUSH1 0x40 MLOAD PUSH2 0x63D SWAP2 SWAP1 PUSH2 0x2D78 JUMP JUMPDEST PUSH1 0x40 MLOAD DUP1 SWAP2 SUB SWAP1 RETURN JUMPDEST CALLVALUE DUP1 ISZERO PUSH2 0x651 JUMPI PUSH0 DUP1 REVERT JUMPDEST POP PUSH2 0x65A PUSH2 0x1E68 JUMP JUMPDEST PUSH1 0x40 MLOAD PUSH2 0x667 SWAP2 SWAP1 PUSH2 0x2DA9 JUMP JUMPDEST PUSH1 0x40 MLOAD DUP1 SWAP2 SUB SWAP1 RETURN JUMPDEST CALLVALUE DUP1 ISZERO PUSH2 0x67B JUMPI PUSH0 DUP1 REVERT JUMPDEST POP PUSH2 0x696 PUSH1 0x4 DUP1 CALLDATASIZE SUB DUP2 ADD SWAP1 PUSH2 0x691 SWAP2 SWAP1 PUSH2 0x2DEC JUMP JUMPDEST PUSH2 0x1E6E JUMP JUMPDEST PUSH1 0x40 MLOAD PUSH2 0x6A3 SWAP2 SWAP1 PUSH2 0x2E8B JUMP JUMPDEST PUSH1 0x40 MLOAD DUP1 SWAP2 SUB SWAP1 RETURN JUMPDEST CALLVALUE DUP1 ISZERO PUSH2 0x6B7 JUMPI PUSH0 DUP1 REVERT JUMPDEST POP PUSH2 0x6C0 PUSH2 0x1EA9 JUMP JUMPDEST PUSH1 0x40 MLOAD PUSH2 0x6CD SWAP2 SWAP1 PUSH2 0x2DA9 JUMP JUMPDEST PUSH1 0x40 MLOAD DUP1 SWAP2 SUB SWAP1 RETURN JUMPDEST CALLVALUE DUP1 ISZERO PUSH2 0x6E1 JUMPI PUSH0 DUP1 REVERT JUMPDEST POP PUSH2 0x6EA PUSH2 0x1EB5 JUMP JUMPDEST PUSH1 0x40 MLOAD PUSH2 0x6F7 SWAP2 SWAP1 PUSH2 0x2E8B JUMP JUMPDEST PUSH1 0x40 MLOAD DUP1 SWAP2 SUB SWAP1 RETURN JUMPDEST CALLVALUE DUP1 ISZERO PUSH2 0x70B JUMPI PUSH0 DUP1 REVERT JUMPDEST POP PUSH2 0x726 PUSH1 0x4 DUP1 CALLDATASIZE SUB DUP2 ADD SWAP1 PUSH2 0x721 SWAP2 SWAP1 PUSH2 0x2D0B JUMP JUMPDEST PUSH2 0x1EDA JUMP JUMPDEST PUSH1 0x40 MLOAD PUSH2 0x733 SWAP2 SWAP1 PUSH2 0x2D50 JUMP JUMPDEST PUSH1 0x40 MLOAD DUP1 SWAP2 SUB SWAP1 RETURN JUMPDEST CALLVALUE DUP1 ISZERO PUSH2 0x747 JUMPI PUSH0 DUP1 REVERT JUMPDEST POP PUSH2 0x750 PUSH2 0x1F4C JUMP JUMPDEST PUSH1 0x40 MLOAD PUSH2 0x75D SWAP2 SWAP1 PUSH2 0x2DA9 JUMP JUMPDEST PUSH1 0x40 MLOAD DUP1 SWAP2 SUB SWAP1 RETURN JUMPDEST CALLVALUE DUP1 ISZERO PUSH2 0x771 JUMPI PUSH0 DUP1 REVERT JUMPDEST POP PUSH2 0x78C PUSH1 0x4 DUP1 CALLDATASIZE SUB DUP2 ADD SWAP1 PUSH2 0x787 SWAP2 SWAP1 PUSH2 0x2D0B JUMP JUMPDEST PUSH2 0x1F52 JUMP JUMPDEST PUSH1 0x40 MLOAD PUSH2 0x799 SWAP2 SWAP1 PUSH2 0x2D50 JUMP JUMPDEST PUSH1 0x40 MLOAD DUP1 SWAP2 SUB SWAP1 RETURN JUMPDEST CALLVALUE DUP1 ISZERO PUSH2 0x7AD JUMPI PUSH0 DUP1 REVERT JUMPDEST POP PUSH2 0x7C8 PUSH1 0x4 DUP1 CALLDATASIZE SUB DUP2 ADD SWAP1 PUSH2 0x7C3 SWAP2 SWAP1 PUSH2 0x2D0B JUMP JUMPDEST PUSH2 0x1F72 JUMP JUMPDEST PUSH1 0x40 MLOAD PUSH2 0x7D5 SWAP2 SWAP1 PUSH2 0x2D50 JUMP JUMPDEST PUSH1 0x40 MLOAD DUP1 SWAP2 SUB SWAP1 RETURN JUMPDEST PUSH2 0x7E6 PUSH2 0x1FE4 JUMP JUMPDEST STOP JUMPDEST CALLVALUE DUP1 ISZERO PUSH2 0x7F3 JUMPI PUSH0 DUP1 REVERT JUMPDEST POP PUSH2 0x7FC PUSH2 0x223C JUMP JUMPDEST PUSH1 0x40 MLOAD PUSH2 0x809 SWAP2 SWAP1 PUSH2 0x2DA9 JUMP JUMPDEST PUSH1 0x40 MLOAD DUP1 SWAP2 SUB SWAP1 RETURN JUMPDEST CALLVALUE DUP1 ISZERO PUSH2 0x81D JUMPI PUSH0 DUP1 REVERT JUMPDEST POP PUSH2 0x838 PUSH1 0x4 DUP1 CALLDATASIZE SUB DUP2 ADD SWAP1 PUSH2 0x833 SWAP2 SWAP1 PUSH2 0x2D0B JUMP JUMPDEST PUSH2 0x2296 JUMP JUMPDEST PUSH1 0x40 MLOAD PUSH2 0x845 SWAP2 SWAP1 PUSH2 0x2D50 JUMP JUMPDEST PUSH1 0x40 MLOAD DUP1 SWAP2 SUB SWAP1 RETURN JUMPDEST CALLVALUE DUP1 ISZERO PUSH2 0x859 JUMPI PUSH0 DUP1 REVERT JUMPDEST POP PUSH2 0x874 PUSH1 0x4 DUP1 CALLDATASIZE SUB DUP2 ADD SWAP1 PUSH2 0x86F SWAP2 SWAP1 PUSH2 0x2D0B JUMP JUMPDEST PUSH2 0x22CE JUMP JUMPDEST PUSH1 0x40 MLOAD PUSH2 0x881 SWAP2 SWAP1 PUSH2 0x2D50 JUMP JUMPDEST PUSH1 0x40 MLOAD DUP1 SWAP2 SUB SWAP1 RETURN JUMPDEST CALLVALUE DUP1 ISZERO PUSH2 0x895 JUMPI PUSH0 DUP1 REVERT JUMPDEST POP PUSH2 0x8B0 PUSH1 0x4 DUP1 CALLDATASIZE SUB DUP2 ADD SWAP1 PUSH2 0x8AB SWAP2 SWAP1 PUSH2 0x2D0B JUMP JUMPDEST PUSH2 0x22EE JUMP JUMPDEST PUSH1 0x40 MLOAD PUSH2 0x8BD SWAP2 SWAP1 PUSH2 0x2D50 JUMP JUMPDEST PUSH1 0x40 MLOAD DUP1 SWAP2 SUB SWAP1 RETURN JUMPDEST CALLVALUE DUP1 ISZERO PUSH2 0x8D1 JUMPI PUSH0 DUP1 REVERT JUMPDEST POP PUSH2 0x8DA PUSH2 0x2360 JUMP JUMPDEST PUSH1 0x40 MLOAD PUSH2 0x8E7 SWAP2 SWAP1 PUSH2 0x2E8B JUMP JUMPDEST PUSH1 0x40 MLOAD DUP1 SWAP2 SUB SWAP1 RETURN JUMPDEST CALLVALUE DUP1 ISZERO PUSH2 0x8FB JUMPI PUSH0 DUP1 REVERT JUMPDEST POP PUSH2 0x904 PUSH2 0x2386 JUMP JUMPDEST PUSH1 0x40 MLOAD PUSH2 0x911 SWAP2 SWAP1 PUSH2 0x2F5B JUMP JUMPDEST PUSH1 0x40 MLOAD DUP1 SWAP2 SUB SWAP1 RETURN JUMPDEST PUSH0 DUP1 PUSH0 SWAP1 POP JUMPDEST PUSH1 0xC DUP2 PUSH1 0xFF AND LT ISZERO PUSH2 0x982 JUMPI DUP3 PUSH1 0xFF AND PUSH1 0x2 DUP3 PUSH1 0xFF AND PUSH1 0xC DUP2 LT PUSH2 0x947 JUMPI PUSH2 0x946 PUSH2 0x2FB9 JUMP JUMPDEST JUMPDEST PUSH1 0x20 SWAP2 DUP3 DUP3 DIV ADD SWAP2 SWAP1 MOD SWAP1 SLOAD SWAP1 PUSH2 0x100 EXP SWAP1 DIV PUSH1 0xFF AND PUSH1 0xFF AND SUB PUSH2 0x96F JUMPI PUSH1 0x1 SWAP2 POP POP PUSH2 0x987 JUMP JUMPDEST DUP1 DUP1 PUSH2 0x97A SWAP1 PUSH2 0x3013 JUMP JUMPDEST SWAP2 POP POP PUSH2 0x920 JUMP JUMPDEST POP PUSH0 SWAP1 POP JUMPDEST SWAP2 SWAP1 POP JUMP JUMPDEST PUSH1 0x1 PUSH1 0xFF AND PUSH1 0x8 PUSH1 0x14 SWAP1 SLOAD SWAP1 PUSH2 0x100 EXP SWAP1 DIV PUSH1 0xFF AND PUSH1 0xFF AND EQ PUSH2 0x9E4 JUMPI PUSH1 0x40 MLOAD PUSH32 0x8C379A000000000000000000000000000000000000000000000000000000000 DUP2 MSTORE PUSH1 0x4 ADD PUSH2 0x9DB SWAP1 PUSH2 0x30BB JUMP JUMPDEST PUSH1 0x40 MLOAD DUP1 SWAP2 SUB SWAP1 REVERT JUMPDEST PUSH1 0x2 PUSH1 0x8 PUSH1 0x14 PUSH2 0x100 EXP DUP2 SLOAD DUP2 PUSH1 0xFF MUL NOT AND SWAP1 DUP4 PUSH1 0xFF AND MUL OR SWAP1 SSTORE POP NUMBER PUSH1 0xD DUP2 SWAP1 SSTORE POP PUSH32 0x2D21E9397283A99C7F2DF56BAF635AAB0655F2DEA12185FAC963AC115BE30F93 PUSH1 0xD SLOAD PUSH1 0x40 MLOAD PUSH2 0xA38 SWAP2 SWAP1 PUSH2 0x2DA9 JUMP JUMPDEST PUSH1 0x40 MLOAD DUP1 SWAP2 SUB SWAP1 LOG1 JUMP JUMPDEST PUSH1 0x2 PUSH1 0xFF AND PUSH1 0x8 PUSH1 0x14 SWAP1 SLOAD SWAP1 PUSH2 0x100 EXP SWAP1 DIV PUSH1 0xFF AND PUSH1 0xFF AND EQ PUSH2 0xA9A JUMPI PUSH1 0x40 MLOAD PUSH32 0x8C379A000000000000000000000000000000000000000000000000000000000 DUP2 MSTORE PUSH1 0x4 ADD PUSH2 0xA91 SWAP1 PUSH2 0x3149 JUMP JUMPDEST PUSH1 0x40 MLOAD DUP1 SWAP2 SUB SWAP1 REVERT JUMPDEST PUSH1 0x1 PUSH1 0xC PUSH1 0xFF AND PUSH1 0xD SLOAD PUSH2 0xAAE SWAP2 SWAP1 PUSH2 0x3167 JUMP JUMPDEST PUSH2 0xAB8 SWAP2 SWAP1 PUSH2 0x3167 JUMP JUMPDEST NUMBER LT ISZERO PUSH2 0xAFA JUMPI PUSH1 0x40 MLOAD PUSH32 0x8C379A000000000000000000000000000000000000000000000000000000000 DUP2 MSTORE PUSH1 0x4 ADD PUSH2 0xAF1 SWAP1 PUSH2 0x3230 JUMP JUMPDEST PUSH1 0x40 MLOAD DUP1 SWAP2 SUB SWAP1 REVERT JUMPDEST PUSH1 0x8 PUSH0 SWAP1 SLOAD SWAP1 PUSH2 0x100 EXP SWAP1 DIV PUSH20 0xFFFFFFFFFFFFFFFFFFFFFFFFFFFFFFFFFFFFFFFF AND PUSH20 0xFFFFFFFFFFFFFFFFFFFFFFFFFFFFFFFFFFFFFFFF AND CALLER PUSH20 0xFFFFFFFFFFFFFFFFFFFFFFFFFFFFFFFFFFFFFFFF AND EQ PUSH2 0xB89 JUMPI PUSH1 0x40 MLOAD PUSH32 0x8C379A000000000000000000000000000000000000000000000000000000000 DUP2 MSTORE PUSH1 0x4 ADD PUSH2 0xB80 SWAP1 PUSH2 0x32BE JUMP JUMPDEST PUSH1 0x40 MLOAD DUP1 SWAP2 SUB SWAP1 REVERT JUMPDEST PUSH0 PUSH1 0x1 PUSH1 0xD SLOAD PUSH2 0xB99 SWAP2 SWAP1 PUSH2 0x3167 JUMP JUMPDEST SWAP1 POP PUSH0 DUP2 BLOCKHASH SWAP1 POP PUSH0 DUP1 SHL DUP2 SUB PUSH2 0xBEE JUMPI PUSH2 0xBE7 PUSH1 0x40 MLOAD DUP1 PUSH1 0x40 ADD PUSH1 0x40 MSTORE DUP1 PUSH1 0x1C DUP2 MSTORE PUSH1 0x20 ADD PUSH32 0x426C6F636B2068617368206973206E6F7420617661696C61626C652E00000000 DUP2 MSTORE POP PUSH2 0x2411 JUMP JUMPDEST POP POP PUSH2 0xD77 JUMP JUMPDEST PUSH0 PUSH1 0xE PUSH1 0x2 SWAP1 SLOAD SWAP1 PUSH2 0x100 EXP SWAP1 DIV PUSH20 0xFFFFFFFFFFFFFFFFFFFFFFFFFFFFFFFFFFFFFFFF AND PUSH1 0x40 MLOAD PUSH1 0x20 ADD PUSH2 0xC22 SWAP2 SWAP1 PUSH2 0x3321 JUMP JUMPDEST PUSH1 0x40 MLOAD PUSH1 0x20 DUP2 DUP4 SUB SUB DUP2 MSTORE SWAP1 PUSH1 0x40 MSTORE SWAP1 POP PUSH0 JUMPDEST PUSH1 0xF DUP1 SLOAD SWAP1 POP DUP2 LT ISZERO PUSH2 0xCB4 JUMPI DUP2 PUSH1 0xF DUP3 DUP2 SLOAD DUP2 LT PUSH2 0xC57 JUMPI PUSH2 0xC56 PUSH2 0x2FB9 JUMP JUMPDEST JUMPDEST SWAP1 PUSH0 MSTORE PUSH1 0x20 PUSH0 KECCAK256 SWAP1 PUSH1 0x2 MUL ADD PUSH0 ADD PUSH0 SWAP1 SLOAD SWAP1 PUSH2 0x100 EXP SWAP1 DIV PUSH20 0xFFFFFFFFFFFFFFFFFFFFFFFFFFFFFFFFFFFFFFFF AND PUSH1 0x40 MLOAD PUSH1 0x20 ADD PUSH2 0xC96 SWAP3 SWAP2 SWAP1 PUSH2 0x338D JUMP JUMPDEST PUSH1 0x40 MLOAD PUSH1 0x20 DUP2 DUP4 SUB SUB DUP2 MSTORE SWAP1 PUSH1 0x40 MSTORE SWAP2 POP DUP1 DUP1 PUSH1 0x1 ADD SWAP2 POP POP PUSH2 0xC35 JUMP JUMPDEST POP PUSH0 DUP3 DUP3 PUSH1 0x40 MLOAD PUSH1 0x20 ADD PUSH2 0xCC9 SWAP3 SWAP2 SWAP1 PUSH2 0x33DD JUMP JUMPDEST PUSH1 0x40 MLOAD PUSH1 0x20 DUP2 DUP4 SUB SUB DUP2 MSTORE SWAP1 PUSH1 0x40 MSTORE DUP1 MLOAD SWAP1 PUSH1 0x20 ADD KECCAK256 SWAP1 POP PUSH0 DUP2 PUSH0 SHR SWAP1 POP PUSH1 0x26 PUSH1 0xFF AND DUP2 PUSH2 0xCF7 SWAP2 SWAP1 PUSH2 0x3431 JUMP JUMPDEST PUSH1 0xE PUSH0 PUSH2 0x100 EXP DUP2 SLOAD DUP2 PUSH1 0xFF MUL NOT AND SWAP1 DUP4 PUSH1 0xFF AND MUL OR SWAP1 SSTORE POP PUSH1 0x3 PUSH1 0x8 PUSH1 0x14 PUSH2 0x100 EXP DUP2 SLOAD DUP2 PUSH1 0xFF MUL NOT AND SWAP1 DUP4 PUSH1 0xFF AND MUL OR SWAP1 SSTORE POP PUSH32 0x4898F0A86E5D5B202A6285B46DB8E265F964E837829F7D6BF7D1C072C6B88C09 PUSH1 0xE PUSH0 SWAP1 SLOAD SWAP1 PUSH2 0x100 EXP SWAP1 DIV PUSH1 0xFF AND PUSH1 0x40 MLOAD PUSH2 0xD69 SWAP2 SWAP1 PUSH2 0x2D78 JUMP JUMPDEST PUSH1 0x40 MLOAD DUP1 SWAP2 SUB SWAP1 LOG1 POP POP POP POP POP JUMPDEST JUMP JUMPDEST PUSH1 0x8 PUSH1 0x14 SWAP1 SLOAD SWAP1 PUSH2 0x100 EXP SWAP1 DIV PUSH1 0xFF AND DUP2 JUMP JUMPDEST PUSH1 0xC SLOAD DUP2 JUMP JUMPDEST PUSH1 0xF DUP2 DUP2 SLOAD DUP2 LT PUSH2 0xDA1 JUMPI PUSH0 DUP1 REVERT JUMPDEST SWAP1 PUSH0 MSTORE PUSH1 0x20 PUSH0 KECCAK256 SWAP1 PUSH1 0x2 MUL ADD PUSH0 SWAP2 POP SWAP1 POP DUP1 PUSH0 ADD PUSH0 SWAP1 SLOAD SWAP1 PUSH2 0x100 EXP SWAP1 DIV PUSH20 0xFFFFFFFFFFFFFFFFFFFFFFFFFFFFFFFFFFFFFFFF AND SWAP1 DUP1 PUSH0 ADD PUSH1 0x14 SWAP1 SLOAD SWAP1 PUSH2 0x100 EXP SWAP1 DIV PUSH1 0xFF AND SWAP1 DUP1 PUSH1 0x1 ADD SLOAD SWAP1 POP DUP4 JUMP JUMPDEST PUSH0 DUP1 PUSH0 SWAP1 POP JUMPDEST PUSH1 0xC DUP2 PUSH1 0xFF AND LT ISZERO PUSH2 0xE5A JUMPI DUP3 PUSH1 0xFF AND PUSH1 0x6 DUP3 PUSH1 0xFF AND PUSH1 0xC DUP2 LT PUSH2 0xE1F JUMPI PUSH2 0xE1E PUSH2 0x2FB9 JUMP JUMPDEST JUMPDEST PUSH1 0x20 SWAP2 DUP3 DUP3 DIV ADD SWAP2 SWAP1 MOD SWAP1 SLOAD SWAP1 PUSH2 0x100 EXP SWAP1 DIV PUSH1 0xFF AND PUSH1 0xFF AND SUB PUSH2 0xE47 JUMPI PUSH1 0x1 SWAP2 POP POP PUSH2 0xE5F JUMP JUMPDEST DUP1 DUP1 PUSH2 0xE52 SWAP1 PUSH2 0x3013 JUMP JUMPDEST SWAP2 POP POP PUSH2 0xDF8 JUMP JUMPDEST POP PUSH0 SWAP1 POP JUMPDEST SWAP2 SWAP1 POP JUMP JUMPDEST PUSH0 DUP1 DUP3 PUSH1 0xFF AND GT DUP1 ISZERO PUSH2 0xE7A JUMPI POP PUSH1 0x25 DUP3 PUSH1 0xFF AND LT JUMPDEST DUP1 ISZERO PUSH2 0xE94 JUMPI POP PUSH0 PUSH1 0x2 DUP4 PUSH2 0xE8F SWAP2 SWAP1 PUSH2 0x3461 JUMP JUMPDEST PUSH1 0xFF AND EQ JUMPDEST SWAP1 POP SWAP2 SWAP1 POP JUMP JUMPDEST PUSH1 0xB SLOAD DUP2 JUMP JUMPDEST PUSH1 0x10 DUP2 DUP2 SLOAD DUP2 LT PUSH2 0xEB0 JUMPI PUSH0 DUP1 REVERT JUMPDEST SWAP1 PUSH0 MSTORE PUSH1 0x20 PUSH0 KECCAK256 ADD PUSH0 SWAP2 POP SLOAD SWAP1 PUSH2 0x100 EXP SWAP1 DIV PUSH20 0xFFFFFFFFFFFFFFFFFFFFFFFFFFFFFFFFFFFFFFFF AND DUP2 JUMP JUMPDEST PUSH1 0x3 PUSH1 0xFF AND PUSH1 0x8 PUSH1 0x14 SWAP1 SLOAD SWAP1 PUSH2 0x100 EXP SWAP1 DIV PUSH1 0xFF AND PUSH1 0xFF AND EQ PUSH2 0xF34 JUMPI PUSH1 0x40 MLOAD PUSH32 0x8C379A000000000000000000000000000000000000000000000000000000000 DUP2 MSTORE PUSH1 0x4 ADD PUSH2 0xF2B SWAP1 PUSH2 0x3501 JUMP JUMPDEST PUSH1 0x40 MLOAD DUP1 SWAP2 SUB SWAP1 REVERT JUMPDEST PUSH2 0xF3D CALLER PUSH2 0x26C6 JUMP JUMPDEST PUSH2 0xF7C JUMPI PUSH1 0x40 MLOAD PUSH32 0x8C379A000000000000000000000000000000000000000000000000000000000 DUP2 MSTORE PUSH1 0x4 ADD PUSH2 0xF73 SWAP1 PUSH2 0x358F JUMP JUMPDEST PUSH1 0x40 MLOAD DUP1 SWAP2 SUB SWAP1 REVERT JUMPDEST PUSH0 PUSH1 0x1 PUSH1 0xD SLOAD PUSH2 0xF8C SWAP2 SWAP1 PUSH2 0x3167 JUMP JUMPDEST SWAP1 POP PUSH0 DUP2 BLOCKHASH SWAP1 POP PUSH0 DUP1 SHL DUP2 SUB PUSH2 0x1032 JUMPI CALLER PUSH20 0xFFFFFFFFFFFFFFFFFFFFFFFFFFFFFFFFFFFFFFFF AND PUSH32 0x24DDA59DCB366D33BBF1EB5B2F3E7B7B9550909FDC7FB245CCD096454BE66E3D PUSH1 0x1 PUSH0 PUSH1 0x40 MLOAD PUSH2 0xFE5 SWAP3 SWAP2 SWAP1 PUSH2 0x3639 JUMP JUMPDEST PUSH1 0x40 MLOAD DUP1 SWAP2 SUB SWAP1 LOG2 PUSH2 0x102B PUSH1 0x40 MLOAD DUP1 PUSH1 0x40 ADD PUSH1 0x40 MSTORE DUP1 PUSH1 0x1C DUP2 MSTORE PUSH1 0x20 ADD PUSH32 0x426C6F636B2068617368206973206E6F7420617661696C61626C652E00000000 DUP2 MSTORE POP PUSH2 0x2411 JUMP JUMPDEST POP POP PUSH2 0x185D JUMP JUMPDEST PUSH0 PUSH1 0xE PUSH1 0x2 SWAP1 SLOAD SWAP1 PUSH2 0x100 EXP SWAP1 DIV PUSH20 0xFFFFFFFFFFFFFFFFFFFFFFFFFFFFFFFFFFFFFFFF AND PUSH1 0x40 MLOAD PUSH1 0x20 ADD PUSH2 0x1066 SWAP2 SWAP1 PUSH2 0x3321 JUMP JUMPDEST PUSH1 0x40 MLOAD PUSH1 0x20 DUP2 DUP4 SUB SUB DUP2 MSTORE SWAP1 PUSH1 0x40 MSTORE SWAP1 POP PUSH0 JUMPDEST PUSH1 0xF DUP1 SLOAD SWAP1 POP DUP2 LT ISZERO PUSH2 0x10F8 JUMPI DUP2 PUSH1 0xF DUP3 DUP2 SLOAD DUP2 LT PUSH2 0x109B JUMPI PUSH2 0x109A PUSH2 0x2FB9 JUMP JUMPDEST JUMPDEST SWAP1 PUSH0 MSTORE PUSH1 0x20 PUSH0 KECCAK256 SWAP1 PUSH1 0x2 MUL ADD PUSH0 ADD PUSH0 SWAP1 SLOAD SWAP1 PUSH2 0x100 EXP SWAP1 DIV PUSH20 0xFFFFFFFFFFFFFFFFFFFFFFFFFFFFFFFFFFFFFFFF AND PUSH1 0x40 MLOAD PUSH1 0x20 ADD PUSH2 0x10DA SWAP3 SWAP2 SWAP1 PUSH2 0x338D JUMP JUMPDEST PUSH1 0x40 MLOAD PUSH1 0x20 DUP2 DUP4 SUB SUB DUP2 MSTORE SWAP1 PUSH1 0x40 MSTORE SWAP2 POP DUP1 DUP1 PUSH1 0x1 ADD SWAP2 POP POP PUSH2 0x1079 JUMP JUMPDEST POP PUSH0 DUP3 DUP3 PUSH1 0x40 MLOAD PUSH1 0x20 ADD PUSH2 0x110D SWAP3 SWAP2 SWAP1 PUSH2 0x33DD JUMP JUMPDEST PUSH1 0x40 MLOAD PUSH1 0x20 DUP2 DUP4 SUB SUB DUP2 MSTORE SWAP1 PUSH1 0x40 MSTORE DUP1 MLOAD SWAP1 PUSH1 0x20 ADD KECCAK256 SWAP1 POP PUSH0 DUP2 PUSH0 SHR SWAP1 POP PUSH0 PUSH1 0x26 PUSH1 0xFF AND DUP3 PUSH2 0x113C SWAP2 SWAP1 PUSH2 0x3431 JUMP JUMPDEST SWAP1 POP PUSH1 0xE PUSH0 SWAP1 SLOAD SWAP1 PUSH2 0x100 EXP SWAP1 DIV PUSH1 0xFF AND PUSH1 0xFF AND DUP2 PUSH1 0xFF AND EQ PUSH2 0x125C JUMPI PUSH1 0x12 CALLER SWAP1 DUP1 PUSH1 0x1 DUP2 SLOAD ADD DUP1 DUP3 SSTORE DUP1 SWAP2 POP POP PUSH1 0x1 SWAP1 SUB SWAP1 PUSH0 MSTORE PUSH1 0x20 PUSH0 KECCAK256 ADD PUSH0 SWAP1 SWAP2 SWAP1 SWAP2 SWAP1 SWAP2 PUSH2 0x100 EXP DUP2 SLOAD DUP2 PUSH20 0xFFFFFFFFFFFFFFFFFFFFFFFFFFFFFFFFFFFFFFFF MUL NOT AND SWAP1 DUP4 PUSH20 0xFFFFFFFFFFFFFFFFFFFFFFFFFFFFFFFFFFFFFFFF AND MUL OR SWAP1 SSTORE POP CALLER PUSH20 0xFFFFFFFFFFFFFFFFFFFFFFFFFFFFFFFFFFFFFFFF AND PUSH32 0x39C03A9B168A82091C3A742365A64C2BD74E5FC3873BF396D9C532AE8E0C31A3 PUSH1 0xE PUSH0 SWAP1 SLOAD SWAP1 PUSH2 0x100 EXP SWAP1 DIV PUSH1 0xFF AND DUP4 PUSH1 0x40 MLOAD PUSH2 0x120F SWAP3 SWAP2 SWAP1 PUSH2 0x3673 JUMP JUMPDEST PUSH1 0x40 MLOAD DUP1 SWAP2 SUB SWAP1 LOG2 PUSH1 0xE PUSH1 0x1 SWAP1 SLOAD SWAP1 PUSH2 0x100 EXP SWAP1 DIV PUSH1 0xFF AND PUSH1 0xFF AND PUSH1 0x12 DUP1 SLOAD SWAP1 POP LT PUSH2 0x1257 JUMPI PUSH2 0x1256 PUSH1 0x40 MLOAD DUP1 PUSH1 0x60 ADD PUSH1 0x40 MSTORE DUP1 PUSH1 0x2B DUP2 MSTORE PUSH1 0x20 ADD PUSH2 0x3EE0 PUSH1 0x2B SWAP2 CODECOPY PUSH2 0x2411 JUMP JUMPDEST JUMPDEST PUSH2 0x1856 JUMP JUMPDEST PUSH1 0xE PUSH0 SWAP1 SLOAD SWAP1 PUSH2 0x100 EXP SWAP1 DIV PUSH1 0xFF AND PUSH1 0xFF AND DUP2 PUSH1 0xFF AND SUB PUSH2 0x1855 JUMPI PUSH0 DUP1 PUSH1 0xF DUP1 SLOAD SWAP1 POP PUSH8 0xFFFFFFFFFFFFFFFF DUP2 GT ISZERO PUSH2 0x1298 JUMPI PUSH2 0x1297 PUSH2 0x369A JUMP JUMPDEST JUMPDEST PUSH1 0x40 MLOAD SWAP1 DUP1 DUP3 MSTORE DUP1 PUSH1 0x20 MUL PUSH1 0x20 ADD DUP3 ADD PUSH1 0x40 MSTORE DUP1 ISZERO PUSH2 0x12C6 JUMPI DUP2 PUSH1 0x20 ADD PUSH1 0x20 DUP3 MUL DUP1 CALLDATASIZE DUP4 CALLDATACOPY DUP1 DUP3 ADD SWAP2 POP POP SWAP1 POP JUMPDEST POP SWAP1 POP PUSH0 JUMPDEST PUSH1 0xF DUP1 SLOAD SWAP1 POP DUP2 LT ISZERO PUSH2 0x15F7 JUMPI PUSH0 PUSH1 0xF DUP3 DUP2 SLOAD DUP2 LT PUSH2 0x12ED JUMPI PUSH2 0x12EC PUSH2 0x2FB9 JUMP JUMPDEST JUMPDEST SWAP1 PUSH0 MSTORE PUSH1 0x20 PUSH0 KECCAK256 SWAP1 PUSH1 0x2 MUL ADD PUSH0 ADD PUSH1 0x14 SWAP1 SLOAD SWAP1 PUSH2 0x100 EXP SWAP1 DIV PUSH1 0xFF AND SWAP1 POP PUSH0 PUSH1 0xF DUP4 DUP2 SLOAD DUP2 LT PUSH2 0x1320 JUMPI PUSH2 0x131F PUSH2 0x2FB9 JUMP JUMPDEST JUMPDEST SWAP1 PUSH0 MSTORE PUSH1 0x20 PUSH0 KECCAK256 SWAP1 PUSH1 0x2 MUL ADD PUSH1 0x1 ADD SLOAD SWAP1 POP PUSH1 0x25 PUSH1 0xFF AND DUP3 PUSH1 0xFF AND GT ISZERO DUP1 ISZERO PUSH2 0x135C JUMPI POP PUSH1 0xE PUSH0 SWAP1 SLOAD SWAP1 PUSH2 0x100 EXP SWAP1 DIV PUSH1 0xFF AND PUSH1 0xFF AND DUP3 PUSH1 0xFF AND EQ JUMPDEST DUP1 PUSH2 0x138C JUMPI POP PUSH1 0x26 PUSH1 0xFF AND DUP3 PUSH1 0xFF AND EQ DUP1 ISZERO PUSH2 0x138B JUMPI POP PUSH2 0x138A PUSH1 0xE PUSH0 SWAP1 SLOAD SWAP1 PUSH2 0x100 EXP SWAP1 DIV PUSH1 0xFF AND PUSH2 0x1F52 JUMP JUMPDEST JUMPDEST JUMPDEST DUP1 PUSH2 0x13BC JUMPI POP PUSH1 0x27 PUSH1 0xFF AND DUP3 PUSH1 0xFF AND EQ DUP1 ISZERO PUSH2 0x13BB JUMPI POP PUSH2 0x13BA PUSH1 0xE PUSH0 SWAP1 SLOAD SWAP1 PUSH2 0x100 EXP SWAP1 DIV PUSH1 0xFF AND PUSH2 0x22CE JUMP JUMPDEST JUMPDEST JUMPDEST DUP1 PUSH2 0x13EC JUMPI POP PUSH1 0x28 PUSH1 0xFF AND DUP3 PUSH1 0xFF AND EQ DUP1 ISZERO PUSH2 0x13EB JUMPI POP PUSH2 0x13EA PUSH1 0xE PUSH0 SWAP1 SLOAD SWAP1 PUSH2 0x100 EXP SWAP1 DIV PUSH1 0xFF AND PUSH2 0x1BE2 JUMP JUMPDEST JUMPDEST JUMPDEST DUP1 PUSH2 0x141C JUMPI POP PUSH1 0x29 PUSH1 0xFF AND DUP3 PUSH1 0xFF AND EQ DUP1 ISZERO PUSH2 0x141B JUMPI POP PUSH2 0x141A PUSH1 0xE PUSH0 SWAP1 SLOAD SWAP1 PUSH2 0x100 EXP SWAP1 DIV PUSH1 0xFF AND PUSH2 0x1DA9 JUMP JUMPDEST JUMPDEST JUMPDEST DUP1 PUSH2 0x144C JUMPI POP PUSH1 0x2A PUSH1 0xFF AND DUP3 PUSH1 0xFF AND EQ DUP1 ISZERO PUSH2 0x144B JUMPI POP PUSH2 0x144A PUSH1 0xE PUSH0 SWAP1 SLOAD SWAP1 PUSH2 0x100 EXP SWAP1 DIV PUSH1 0xFF AND PUSH2 0xE64 JUMP JUMPDEST JUMPDEST JUMPDEST DUP1 PUSH2 0x147C JUMPI POP PUSH1 0x2B PUSH1 0xFF AND DUP3 PUSH1 0xFF AND EQ DUP1 ISZERO PUSH2 0x147B JUMPI POP PUSH2 0x147A PUSH1 0xE PUSH0 SWAP1 SLOAD SWAP1 PUSH2 0x100 EXP SWAP1 DIV PUSH1 0xFF AND PUSH2 0x2296 JUMP JUMPDEST JUMPDEST JUMPDEST DUP1 PUSH2 0x14AC JUMPI POP PUSH1 0x2C PUSH1 0xFF AND DUP3 PUSH1 0xFF AND EQ DUP1 ISZERO PUSH2 0x14AB JUMPI POP PUSH2 0x14AA PUSH1 0xE PUSH0 SWAP1 SLOAD SWAP1 PUSH2 0x100 EXP SWAP1 DIV PUSH1 0xFF AND PUSH2 0x91A JUMP JUMPDEST JUMPDEST JUMPDEST DUP1 PUSH2 0x14DC JUMPI POP PUSH1 0x2D PUSH1 0xFF AND DUP3 PUSH1 0xFF AND EQ DUP1 ISZERO PUSH2 0x14DB JUMPI POP PUSH2 0x14DA PUSH1 0xE PUSH0 SWAP1 SLOAD SWAP1 PUSH2 0x100 EXP SWAP1 DIV PUSH1 0xFF AND PUSH2 0x1EDA JUMP JUMPDEST JUMPDEST JUMPDEST DUP1 PUSH2 0x150C JUMPI POP PUSH1 0x2E PUSH1 0xFF AND DUP3 PUSH1 0xFF AND EQ DUP1 ISZERO PUSH2 0x150B JUMPI POP PUSH2 0x150A PUSH1 0xE PUSH0 SWAP1 SLOAD SWAP1 PUSH2 0x100 EXP SWAP1 DIV PUSH1 0xFF AND PUSH2 0x22EE JUMP JUMPDEST JUMPDEST JUMPDEST DUP1 PUSH2 0x153C JUMPI POP PUSH1 0x2F PUSH1 0xFF AND DUP3 PUSH1 0xFF AND EQ DUP1 ISZERO PUSH2 0x153B JUMPI POP PUSH2 0x153A PUSH1 0xE PUSH0 SWAP1 SLOAD SWAP1 PUSH2 0x100 EXP SWAP1 DIV PUSH1 0xFF AND PUSH2 0x1C53 JUMP JUMPDEST JUMPDEST JUMPDEST DUP1 PUSH2 0x156C JUMPI POP PUSH1 0x30 PUSH1 0xFF AND DUP3 PUSH1 0xFF AND EQ DUP1 ISZERO PUSH2 0x156B JUMPI POP PUSH2 0x156A PUSH1 0xE PUSH0 SWAP1 SLOAD SWAP1 PUSH2 0x100 EXP SWAP1 DIV PUSH1 0xFF AND PUSH2 0xDF2 JUMP JUMPDEST JUMPDEST JUMPDEST DUP1 PUSH2 0x159C JUMPI POP PUSH1 0x31 PUSH1 0xFF AND DUP3 PUSH1 0xFF AND EQ DUP1 ISZERO PUSH2 0x159B JUMPI POP PUSH2 0x159A PUSH1 0xE PUSH0 SWAP1 SLOAD SWAP1 PUSH2 0x100 EXP SWAP1 DIV PUSH1 0xFF AND PUSH2 0x1F72 JUMP JUMPDEST JUMPDEST JUMPDEST ISZERO PUSH2 0x15E8 JUMPI PUSH0 PUSH2 0x15AB DUP4 PUSH2 0x28A2 JUMP JUMPDEST DUP3 PUSH2 0x15B6 SWAP2 SWAP1 PUSH2 0x36C7 JUMP JUMPDEST SWAP1 POP DUP1 DUP7 PUSH2 0x15C4 SWAP2 SWAP1 PUSH2 0x3167 JUMP JUMPDEST SWAP6 POP DUP1 DUP6 DUP6 DUP2 MLOAD DUP2 LT PUSH2 0x15DA JUMPI PUSH2 0x15D9 PUSH2 0x2FB9 JUMP JUMPDEST JUMPDEST PUSH1 0x20 MUL PUSH1 0x20 ADD ADD DUP2 DUP2 MSTORE POP POP POP JUMPDEST POP POP DUP1 DUP1 PUSH1 0x1 ADD SWAP2 POP POP PUSH2 0x12CB JUMP JUMPDEST POP PUSH0 SELFBALANCE SWAP1 POP PUSH2 0x1611 DUP4 DUP5 DUP4 PUSH2 0x160C SWAP2 SWAP1 PUSH2 0x3708 JUMP JUMPDEST PUSH2 0x1D79 JUMP JUMPDEST ISZERO PUSH2 0x16D9 JUMPI PUSH1 0x11 CALLER SWAP1 DUP1 PUSH1 0x1 DUP2 SLOAD ADD DUP1 DUP3 SSTORE DUP1 SWAP2 POP POP PUSH1 0x1 SWAP1 SUB SWAP1 PUSH0 MSTORE PUSH1 0x20 PUSH0 KECCAK256 ADD PUSH0 SWAP1 SWAP2 SWAP1 SWAP2 SWAP1 SWAP2 PUSH2 0x100 EXP DUP2 SLOAD DUP2 PUSH20 0xFFFFFFFFFFFFFFFFFFFFFFFFFFFFFFFFFFFFFFFF MUL NOT AND SWAP1 DUP4 PUSH20 0xFFFFFFFFFFFFFFFFFFFFFFFFFFFFFFFFFFFFFFFF AND MUL OR SWAP1 SSTORE POP CALLER PUSH20 0xFFFFFFFFFFFFFFFFFFFFFFFFFFFFFFFFFFFFFFFF AND PUSH32 0x26A30662A62B2F36A27351617FE147C5816A623896A156AACCF7CEEF9126EA2F PUSH1 0xE PUSH0 SWAP1 SLOAD SWAP1 PUSH2 0x100 EXP SWAP1 DIV PUSH1 0xFF AND DUP7 PUSH1 0x40 MLOAD PUSH2 0x16CC SWAP3 SWAP2 SWAP1 PUSH2 0x3673 JUMP JUMPDEST PUSH1 0x40 MLOAD DUP1 SWAP2 SUB SWAP1 LOG2 PUSH2 0x17C8 JUMP JUMPDEST PUSH1 0x12 CALLER SWAP1 DUP1 PUSH1 0x1 DUP2 SLOAD ADD DUP1 DUP3 SSTORE DUP1 SWAP2 POP POP PUSH1 0x1 SWAP1 SUB SWAP1 PUSH0 MSTORE PUSH1 0x20 PUSH0 KECCAK256 ADD PUSH0 SWAP1 SWAP2 SWAP1 SWAP2 SWAP1 SWAP2 PUSH2 0x100 EXP DUP2 SLOAD DUP2 PUSH20 0xFFFFFFFFFFFFFFFFFFFFFFFFFFFFFFFFFFFFFFFF MUL NOT AND SWAP1 DUP4 PUSH20 0xFFFFFFFFFFFFFFFFFFFFFFFFFFFFFFFFFFFFFFFF AND MUL OR SWAP1 SSTORE POP CALLER PUSH20 0xFFFFFFFFFFFFFFFFFFFFFFFFFFFFFFFFFFFFFFFF AND PUSH32 0x333E965EAD153896365F292A4375584B5308A5BAE488790C906BDD165299CA25 DUP5 PUSH1 0x40 MLOAD PUSH2 0x177F SWAP2 SWAP1 PUSH2 0x37AB JUMP JUMPDEST PUSH1 0x40 MLOAD DUP1 SWAP2 SUB SWAP1 LOG2 PUSH1 0xE PUSH1 0x1 SWAP1 SLOAD SWAP1 PUSH2 0x100 EXP SWAP1 DIV PUSH1 0xFF AND PUSH1 0xFF AND PUSH1 0x12 DUP1 SLOAD SWAP1 POP LT PUSH2 0x17C7 JUMPI PUSH2 0x17C6 PUSH1 0x40 MLOAD DUP1 PUSH1 0x60 ADD PUSH1 0x40 MSTORE DUP1 PUSH1 0x2B DUP2 MSTORE PUSH1 0x20 ADD PUSH2 0x3EE0 PUSH1 0x2B SWAP2 CODECOPY PUSH2 0x2411 JUMP JUMPDEST JUMPDEST JUMPDEST PUSH1 0xE PUSH1 0x1 SWAP1 SLOAD SWAP1 PUSH2 0x100 EXP SWAP1 DIV PUSH1 0xFF AND PUSH1 0xFF AND PUSH1 0x11 DUP1 SLOAD SWAP1 POP LT PUSH2 0x1851 JUMPI PUSH32 0x5F438D100D0C0FB18E88113110BF411FD18C9A557C03E394CD32997B5055F9AE PUSH1 0xE PUSH0 SWAP1 SLOAD SWAP1 PUSH2 0x100 EXP SWAP1 DIV PUSH1 0xFF AND PUSH1 0x40 MLOAD PUSH2 0x1823 SWAP2 SWAP1 PUSH2 0x2D78 JUMP JUMPDEST PUSH1 0x40 MLOAD DUP1 SWAP2 SUB SWAP1 LOG1 PUSH1 0x4 PUSH1 0x8 PUSH1 0x14 PUSH2 0x100 EXP DUP2 SLOAD DUP2 PUSH1 0xFF MUL NOT AND SWAP1 DUP4 PUSH1 0xFF AND MUL OR SWAP1 SSTORE POP PUSH2 0x1850 DUP3 PUSH2 0x29E9 JUMP JUMPDEST JUMPDEST POP POP POP JUMPDEST JUMPDEST POP POP POP POP POP POP JUMPDEST JUMP JUMPDEST PUSH1 0x1 PUSH1 0xFF AND PUSH1 0x8 PUSH1 0x14 SWAP1 SLOAD SWAP1 PUSH2 0x100 EXP SWAP1 DIV PUSH1 0xFF AND PUSH1 0xFF AND EQ PUSH2 0x18B7 JUMPI PUSH1 0x40 MLOAD PUSH32 0x8C379A000000000000000000000000000000000000000000000000000000000 DUP2 MSTORE PUSH1 0x4 ADD PUSH2 0x18AE SWAP1 PUSH2 0x3847 JUMP JUMPDEST PUSH1 0x40 MLOAD DUP1 SWAP2 SUB SWAP1 REVERT JUMPDEST PUSH1 0xE PUSH1 0x2 SWAP1 SLOAD SWAP1 PUSH2 0x100 EXP SWAP1 DIV PUSH20 0xFFFFFFFFFFFFFFFFFFFFFFFFFFFFFFFFFFFFFFFF AND PUSH20 0xFFFFFFFFFFFFFFFFFFFFFFFFFFFFFFFFFFFFFFFF AND CALLER PUSH20 0xFFFFFFFFFFFFFFFFFFFFFFFFFFFFFFFFFFFFFFFF AND EQ PUSH2 0x1947 JUMPI PUSH1 0x40 MLOAD PUSH32 0x8C379A000000000000000000000000000000000000000000000000000000000 DUP2 MSTORE PUSH1 0x4 ADD PUSH2 0x193E SWAP1 PUSH2 0x38AF JUMP JUMPDEST PUSH1 0x40 MLOAD DUP1 SWAP2 SUB SWAP1 REVERT JUMPDEST PUSH2 0x1985 PUSH1 0x40 MLOAD DUP1 PUSH1 0x40 ADD PUSH1 0x40 MSTORE DUP1 PUSH1 0x1D DUP2 MSTORE PUSH1 0x20 ADD PUSH32 0x5769746864726177616C2072657175657374656420627920686F73742E000000 DUP2 MSTORE POP PUSH2 0x2411 JUMP JUMPDEST JUMP JUMPDEST PUSH1 0x9 SLOAD DUP2 JUMP JUMPDEST PUSH1 0x1 PUSH1 0xFF AND PUSH1 0x8 PUSH1 0x14 SWAP1 SLOAD SWAP1 PUSH2 0x100 EXP SWAP1 DIV PUSH1 0xFF AND PUSH1 0xFF AND EQ PUSH2 0x19E5 JUMPI PUSH1 0x40 MLOAD PUSH32 0x8C379A000000000000000000000000000000000000000000000000000000000 DUP2 MSTORE PUSH1 0x4 ADD PUSH2 0x19DC SWAP1 PUSH2 0x393D JUMP JUMPDEST PUSH1 0x40 MLOAD DUP1 SWAP2 SUB SWAP1 REVERT JUMPDEST PUSH1 0x31 DUP2 PUSH1 0xFF AND GT ISZERO PUSH2 0x1A2C JUMPI PUSH1 0x40 MLOAD PUSH32 0x8C379A000000000000000000000000000000000000000000000000000000000 DUP2 MSTORE PUSH1 0x4 ADD PUSH2 0x1A23 SWAP1 PUSH2 0x39A5 JUMP JUMPDEST PUSH1 0x40 MLOAD DUP1 SWAP2 SUB SWAP1 REVERT JUMPDEST PUSH1 0xA SLOAD CALLVALUE LT ISZERO PUSH2 0x1A71 JUMPI PUSH1 0x40 MLOAD PUSH32 0x8C379A000000000000000000000000000000000000000000000000000000000 DUP2 MSTORE PUSH1 0x4 ADD PUSH2 0x1A68 SWAP1 PUSH2 0x3A33 JUMP JUMPDEST PUSH1 0x40 MLOAD DUP1 SWAP2 SUB SWAP1 REVERT JUMPDEST PUSH1 0xB SLOAD CALLVALUE GT ISZERO PUSH2 0x1AB6 JUMPI PUSH1 0x40 MLOAD PUSH32 0x8C379A000000000000000000000000000000000000000000000000000000000 DUP2 MSTORE PUSH1 0x4 ADD PUSH2 0x1AAD SWAP1 PUSH2 0x3AC1 JUMP JUMPDEST PUSH1 0x40 MLOAD DUP1 SWAP2 SUB SWAP1 REVERT JUMPDEST PUSH0 PUSH1 0x40 MLOAD DUP1 PUSH1 0x60 ADD PUSH1 0x40 MSTORE DUP1 CALLER PUSH20 0xFFFFFFFFFFFFFFFFFFFFFFFFFFFFFFFFFFFFFFFF AND DUP2 MSTORE PUSH1 0x20 ADD DUP4 PUSH1 0xFF AND DUP2 MSTORE PUSH1 0x20 ADD CALLVALUE DUP2 MSTORE POP SWAP1 POP PUSH1 0xF DUP2 SWAP1 DUP1 PUSH1 0x1 DUP2 SLOAD ADD DUP1 DUP3 SSTORE DUP1 SWAP2 POP POP PUSH1 0x1 SWAP1 SUB SWAP1 PUSH0 MSTORE PUSH1 0x20 PUSH0 KECCAK256 SWAP1 PUSH1 0x2 MUL ADD PUSH0 SWAP1 SWAP2 SWAP1 SWAP2 SWAP1 SWAP2 POP PUSH0 DUP3 ADD MLOAD DUP2 PUSH0 ADD PUSH0 PUSH2 0x100 EXP DUP2 SLOAD DUP2 PUSH20 0xFFFFFFFFFFFFFFFFFFFFFFFFFFFFFFFFFFFFFFFF MUL NOT AND SWAP1 DUP4 PUSH20 0xFFFFFFFFFFFFFFFFFFFFFFFFFFFFFFFFFFFFFFFF AND MUL OR SWAP1 SSTORE POP PUSH1 0x20 DUP3 ADD MLOAD DUP2 PUSH0 ADD PUSH1 0x14 PUSH2 0x100 EXP DUP2 SLOAD DUP2 PUSH1 0xFF MUL NOT AND SWAP1 DUP4 PUSH1 0xFF AND MUL OR SWAP1 SSTORE POP PUSH1 0x40 DUP3 ADD MLOAD DUP2 PUSH1 0x1 ADD SSTORE POP POP CALLER PUSH20 0xFFFFFFFFFFFFFFFFFFFFFFFFFFFFFFFFFFFFFFFF AND PUSH32 0x9F6B4CCED64244A64465098F682029975B1614400B96BC6BD12C668083719166 DUP4 CALLVALUE PUSH1 0x40 MLOAD PUSH2 0x1BCE SWAP3 SWAP2 SWAP1 PUSH2 0x3ADF JUMP JUMPDEST PUSH1 0x40 MLOAD DUP1 SWAP2 SUB SWAP1 LOG2 PUSH2 0x1BDE PUSH2 0x98C JUMP JUMPDEST POP POP JUMP JUMPDEST PUSH0 DUP1 PUSH0 SWAP1 POP JUMPDEST PUSH1 0x12 DUP2 PUSH1 0xFF AND LT ISZERO PUSH2 0x1C49 JUMPI DUP3 PUSH1 0xFF AND PUSH0 DUP3 PUSH1 0xFF AND PUSH1 0x12 DUP2 LT PUSH2 0x1C0E JUMPI PUSH2 0x1C0D PUSH2 0x2FB9 JUMP JUMPDEST JUMPDEST PUSH1 0x20 SWAP2 DUP3 DUP3 DIV ADD SWAP2 SWAP1 MOD SWAP1 SLOAD SWAP1 PUSH2 0x100 EXP SWAP1 DIV PUSH1 0xFF AND PUSH1 0xFF AND SUB PUSH2 0x1C36 JUMPI PUSH1 0x1 SWAP2 POP POP PUSH2 0x1C4E JUMP JUMPDEST DUP1 DUP1 PUSH2 0x1C41 SWAP1 PUSH2 0x3013 JUMP JUMPDEST SWAP2 POP POP PUSH2 0x1BE8 JUMP JUMPDEST POP PUSH0 SWAP1 POP JUMPDEST SWAP2 SWAP1 POP JUMP JUMPDEST PUSH0 DUP1 PUSH0 SWAP1 POP JUMPDEST PUSH1 0xC DUP2 PUSH1 0xFF AND LT ISZERO PUSH2 0x1CBB JUMPI DUP3 PUSH1 0xFF AND PUSH1 0x5 DUP3 PUSH1 0xFF AND PUSH1 0xC DUP2 LT PUSH2 0x1C80 JUMPI PUSH2 0x1C7F PUSH2 0x2FB9 JUMP JUMPDEST JUMPDEST PUSH1 0x20 SWAP2 DUP3 DUP3 DIV ADD SWAP2 SWAP1 MOD SWAP1 SLOAD SWAP1 PUSH2 0x100 EXP SWAP1 DIV PUSH1 0xFF AND PUSH1 0xFF AND SUB PUSH2 0x1CA8 JUMPI PUSH1 0x1 SWAP2 POP POP PUSH2 0x1CC0 JUMP JUMPDEST DUP1 DUP1 PUSH2 0x1CB3 SWAP1 PUSH2 0x3013 JUMP JUMPDEST SWAP2 POP POP PUSH2 0x1C59 JUMP JUMPDEST POP PUSH0 SWAP1 POP JUMPDEST SWAP2 SWAP1 POP JUMP JUMPDEST PUSH1 0x60 PUSH1 0x12 DUP1 SLOAD DUP1 PUSH1 0x20 MUL PUSH1 0x20 ADD PUSH1 0x40 MLOAD SWAP1 DUP2 ADD PUSH1 0x40 MSTORE DUP1 SWAP3 SWAP2 SWAP1 DUP2 DUP2 MSTORE PUSH1 0x20 ADD DUP3 DUP1 SLOAD DUP1 ISZERO PUSH2 0x1D46 JUMPI PUSH1 0x20 MUL DUP3 ADD SWAP2 SWAP1 PUSH0 MSTORE PUSH1 0x20 PUSH0 KECCAK256 SWAP1 JUMPDEST DUP2 PUSH0 SWAP1 SLOAD SWAP1 PUSH2 0x100 EXP SWAP1 DIV PUSH20 0xFFFFFFFFFFFFFFFFFFFFFFFFFFFFFFFFFFFFFFFF AND PUSH20 0xFFFFFFFFFFFFFFFFFFFFFFFFFFFFFFFFFFFFFFFF AND DUP2 MSTORE PUSH1 0x20 ADD SWAP1 PUSH1 0x1 ADD SWAP1 DUP1 DUP4 GT PUSH2 0x1CFD JUMPI JUMPDEST POP POP POP POP POP SWAP1 POP SWAP1 JUMP JUMPDEST PUSH0 PUSH1 0x8 PUSH1 0x14 SWAP1 SLOAD SWAP1 PUSH2 0x100 EXP SWAP1 DIV PUSH1 0xFF AND SWAP1 POP SWAP1 JUMP JUMPDEST PUSH1 0xE PUSH1 0x1 SWAP1 SLOAD SWAP1 PUSH2 0x100 EXP SWAP1 DIV PUSH1 0xFF AND DUP2 JUMP JUMPDEST PUSH0 DUP1 PUSH2 0x1D83 PUSH2 0x223C JUMP JUMPDEST PUSH1 0xC SLOAD PUSH2 0x1D90 SWAP2 SWAP1 PUSH2 0x3167 JUMP JUMPDEST SWAP1 POP DUP1 DUP4 DUP6 PUSH2 0x1D9F SWAP2 SWAP1 PUSH2 0x3167 JUMP JUMPDEST EQ SWAP2 POP POP SWAP3 SWAP2 POP POP JUMP JUMPDEST PUSH0 DUP1 PUSH0 SWAP1 POP JUMPDEST PUSH1 0x12 DUP2 PUSH1 0xFF AND LT ISZERO PUSH2 0x1E11 JUMPI DUP3 PUSH1 0xFF AND PUSH1 0x1 DUP3 PUSH1 0xFF AND PUSH1 0x12 DUP2 LT PUSH2 0x1DD6 JUMPI PUSH2 0x1DD5 PUSH2 0x2FB9 JUMP JUMPDEST JUMPDEST PUSH1 0x20 SWAP2 DUP3 DUP3 DIV ADD SWAP2 SWAP1 MOD SWAP1 SLOAD SWAP1 PUSH2 0x100 EXP SWAP1 DIV PUSH1 0xFF AND PUSH1 0xFF AND SUB PUSH2 0x1DFE JUMPI PUSH1 0x1 SWAP2 POP POP PUSH2 0x1E16 JUMP JUMPDEST DUP1 DUP1 PUSH2 0x1E09 SWAP1 PUSH2 0x3013 JUMP JUMPDEST SWAP2 POP POP PUSH2 0x1DAF JUMP JUMPDEST POP PUSH0 SWAP1 POP JUMPDEST SWAP2 SWAP1 POP JUMP JUMPDEST PUSH1 0x11 DUP2 DUP2 SLOAD DUP2 LT PUSH2 0x1E2A JUMPI PUSH0 DUP1 REVERT JUMPDEST SWAP1 PUSH0 MSTORE PUSH1 0x20 PUSH0 KECCAK256 ADD PUSH0 SWAP2 POP SLOAD SWAP1 PUSH2 0x100 EXP SWAP1 DIV PUSH20 0xFFFFFFFFFFFFFFFFFFFFFFFFFFFFFFFFFFFFFFFF AND DUP2 JUMP JUMPDEST PUSH1 0xE PUSH0 SWAP1 SLOAD SWAP1 PUSH2 0x100 EXP SWAP1 DIV PUSH1 0xFF AND DUP2 JUMP JUMPDEST PUSH1 0xD SLOAD DUP2 JUMP JUMPDEST PUSH1 0x12 DUP2 DUP2 SLOAD DUP2 LT PUSH2 0x1E7D JUMPI PUSH0 DUP1 REVERT JUMPDEST SWAP1 PUSH0 MSTORE PUSH1 0x20 PUSH0 KECCAK256 ADD PUSH0 SWAP2 POP SLOAD SWAP1 PUSH2 0x100 EXP SWAP1 DIV PUSH20 0xFFFFFFFFFFFFFFFFFFFFFFFFFFFFFFFFFFFFFFFF AND DUP2 JUMP JUMPDEST PUSH0 PUSH1 0xF DUP1 SLOAD SWAP1 POP SWAP1 POP SWAP1 JUMP JUMPDEST PUSH1 0x8 PUSH0 SWAP1 SLOAD SWAP1 PUSH2 0x100 EXP SWAP1 DIV PUSH20 0xFFFFFFFFFFFFFFFFFFFFFFFFFFFFFFFFFFFFFFFF AND DUP2 JUMP JUMPDEST PUSH0 DUP1 PUSH0 SWAP1 POP JUMPDEST PUSH1 0xC DUP2 PUSH1 0xFF AND LT ISZERO PUSH2 0x1F42 JUMPI DUP3 PUSH1 0xFF AND PUSH1 0x3 DUP3 PUSH1 0xFF AND PUSH1 0xC DUP2 LT PUSH2 0x1F07 JUMPI PUSH2 0x1F06 PUSH2 0x2FB9 JUMP JUMPDEST JUMPDEST PUSH1 0x20 SWAP2 DUP3 DUP3 DIV ADD SWAP2 SWAP1 MOD SWAP1 SLOAD SWAP1 PUSH2 0x100 EXP SWAP1 DIV PUSH1 0xFF AND PUSH1 0xFF AND SUB PUSH2 0x1F2F JUMPI PUSH1 0x1 SWAP2 POP POP PUSH2 0x1F47 JUMP JUMPDEST DUP1 DUP1 PUSH2 0x1F3A SWAP1 PUSH2 0x3013 JUMP JUMPDEST SWAP2 POP POP PUSH2 0x1EE0 JUMP JUMPDEST POP PUSH0 SWAP1 POP JUMPDEST SWAP2 SWAP1 POP JUMP JUMPDEST PUSH1 0xA SLOAD DUP2 JUMP JUMPDEST PUSH0 PUSH1 0x1 DUP3 PUSH1 0xFF AND LT ISZERO DUP1 ISZERO PUSH2 0x1F6B JUMPI POP PUSH1 0x12 DUP3 PUSH1 0xFF AND GT ISZERO JUMPDEST SWAP1 POP SWAP2 SWAP1 POP JUMP JUMPDEST PUSH0 DUP1 PUSH0 SWAP1 POP JUMPDEST PUSH1 0xC DUP2 PUSH1 0xFF AND LT ISZERO PUSH2 0x1FDA JUMPI DUP3 PUSH1 0xFF AND PUSH1 0x7 DUP3 PUSH1 0xFF AND PUSH1 0xC DUP2 LT PUSH2 0x1F9F JUMPI PUSH2 0x1F9E PUSH2 0x2FB9 JUMP JUMPDEST JUMPDEST PUSH1 0x20 SWAP2 DUP3 DUP3 DIV ADD SWAP2 SWAP1 MOD SWAP1 SLOAD SWAP1 PUSH2 0x100 EXP SWAP1 DIV PUSH1 0xFF AND PUSH1 0xFF AND SUB PUSH2 0x1FC7 JUMPI PUSH1 0x1 SWAP2 POP POP PUSH2 0x1FDF JUMP JUMPDEST DUP1 DUP1 PUSH2 0x1FD2 SWAP1 PUSH2 0x3013 JUMP JUMPDEST SWAP2 POP POP PUSH2 0x1F78 JUMP JUMPDEST POP PUSH0 SWAP1 POP JUMPDEST SWAP2 SWAP1 POP JUMP JUMPDEST PUSH0 PUSH1 0xFF AND PUSH1 0x8 PUSH1 0x14 SWAP1 SLOAD SWAP1 PUSH2 0x100 EXP SWAP1 DIV PUSH1 0xFF AND PUSH1 0xFF AND EQ PUSH2 0x203B JUMPI PUSH1 0x40 MLOAD PUSH32 0x8C379A000000000000000000000000000000000000000000000000000000000 DUP2 MSTORE PUSH1 0x4 ADD PUSH2 0x2032 SWAP1 PUSH2 0x3B76 JUMP JUMPDEST PUSH1 0x40 MLOAD DUP1 SWAP2 SUB SWAP1 REVERT JUMPDEST PUSH1 0xE PUSH1 0x2 SWAP1 SLOAD SWAP1 PUSH2 0x100 EXP SWAP1 DIV PUSH20 0xFFFFFFFFFFFFFFFFFFFFFFFFFFFFFFFFFFFFFFFF AND PUSH20 0xFFFFFFFFFFFFFFFFFFFFFFFFFFFFFFFFFFFFFFFF AND CALLER PUSH20 0xFFFFFFFFFFFFFFFFFFFFFFFFFFFFFFFFFFFFFFFF AND EQ PUSH2 0x20CB JUMPI PUSH1 0x40 MLOAD PUSH32 0x8C379A000000000000000000000000000000000000000000000000000000000 DUP2 MSTORE PUSH1 0x4 ADD PUSH2 0x20C2 SWAP1 PUSH2 0x3BDE JUMP JUMPDEST PUSH1 0x40 MLOAD DUP1 SWAP2 SUB SWAP1 REVERT JUMPDEST PUSH0 CALLVALUE GT PUSH2 0x210D JUMPI PUSH1 0x40 MLOAD PUSH32 0x8C379A000000000000000000000000000000000000000000000000000000000 DUP2 MSTORE PUSH1 0x4 ADD PUSH2 0x2104 SWAP1 PUSH2 0x3C46 JUMP JUMPDEST PUSH1 0x40 MLOAD DUP1 SWAP2 SUB SWAP1 REVERT JUMPDEST PUSH1 0x9 SLOAD CALLVALUE LT ISZERO PUSH2 0x2152 JUMPI PUSH1 0x40 MLOAD PUSH32 0x8C379A000000000000000000000000000000000000000000000000000000000 DUP2 MSTORE PUSH1 0x4 ADD PUSH2 0x2149 SWAP1 PUSH2 0x3CD4 JUMP JUMPDEST PUSH1 0x40 MLOAD DUP1 SWAP2 SUB SWAP1 REVERT JUMPDEST PUSH0 PUSH1 0x24 DUP1 CALLVALUE PUSH2 0x2161 SWAP2 SWAP1 PUSH2 0x3431 JUMP JUMPDEST CALLVALUE PUSH2 0x216C SWAP2 SWAP1 PUSH2 0x3708 JUMP JUMPDEST PUSH2 0x2176 SWAP2 SWAP1 PUSH2 0x3CF2 JUMP JUMPDEST SWAP1 POP PUSH1 0xA SLOAD DUP2 LT ISZERO PUSH2 0x21BD JUMPI PUSH1 0x40 MLOAD PUSH32 0x8C379A000000000000000000000000000000000000000000000000000000000 DUP2 MSTORE PUSH1 0x4 ADD PUSH2 0x21B4 SWAP1 PUSH2 0x3D92 JUMP JUMPDEST PUSH1 0x40 MLOAD DUP1 SWAP2 SUB SWAP1 REVERT JUMPDEST CALLVALUE PUSH1 0xC DUP2 SWAP1 SSTORE POP DUP1 PUSH1 0xB DUP2 SWAP1 SSTORE POP PUSH1 0x1 PUSH1 0x8 PUSH1 0x14 PUSH2 0x100 EXP DUP2 SLOAD DUP2 PUSH1 0xFF MUL NOT AND SWAP1 DUP4 PUSH1 0xFF AND MUL OR SWAP1 SSTORE POP CALLER PUSH20 0xFFFFFFFFFFFFFFFFFFFFFFFFFFFFFFFFFFFFFFFF AND PUSH32 0x28B02A3B37F54D867BFAAC30608F33C9C6C367ED95C0BB8471F906AE2B6F1F8D CALLVALUE PUSH1 0xB SLOAD PUSH1 0x40 MLOAD PUSH2 0x2231 SWAP3 SWAP2 SWAP1 PUSH2 0x3DB0 JUMP JUMPDEST PUSH1 0x40 MLOAD DUP1 SWAP2 SUB SWAP1 LOG2 POP JUMP JUMPDEST PUSH0 DUP1 PUSH0 SWAP1 POP PUSH0 JUMPDEST PUSH1 0xF DUP1 SLOAD SWAP1 POP DUP2 LT ISZERO PUSH2 0x228E JUMPI PUSH1 0xF DUP2 DUP2 SLOAD DUP2 LT PUSH2 0x2264 JUMPI PUSH2 0x2263 PUSH2 0x2FB9 JUMP JUMPDEST JUMPDEST SWAP1 PUSH0 MSTORE PUSH1 0x20 PUSH0 KECCAK256 SWAP1 PUSH1 0x2 MUL ADD PUSH1 0x1 ADD SLOAD DUP3 PUSH2 0x227F SWAP2 SWAP1 PUSH2 0x3167 JUMP JUMPDEST SWAP2 POP DUP1 DUP1 PUSH1 0x1 ADD SWAP2 POP POP PUSH2 0x2243 JUMP JUMPDEST POP DUP1 SWAP2 POP POP SWAP1 JUMP JUMPDEST PUSH0 DUP1 DUP3 PUSH1 0xFF AND GT DUP1 ISZERO PUSH2 0x22AC JUMPI POP PUSH1 0x25 DUP3 PUSH1 0xFF AND LT JUMPDEST DUP1 ISZERO PUSH2 0x22C7 JUMPI POP PUSH0 PUSH1 0x2 DUP4 PUSH2 0x22C1 SWAP2 SWAP1 PUSH2 0x3461 JUMP JUMPDEST PUSH1 0xFF AND EQ ISZERO JUMPDEST SWAP1 POP SWAP2 SWAP1 POP JUMP JUMPDEST PUSH0 PUSH1 0x13 DUP3 PUSH1 0xFF AND LT ISZERO DUP1 ISZERO PUSH2 0x22E7 JUMPI POP PUSH1 0x24 DUP3 PUSH1 0xFF AND GT ISZERO JUMPDEST SWAP1 POP SWAP2 SWAP1 POP JUMP JUMPDEST PUSH0 DUP1 PUSH0 SWAP1 POP JUMPDEST PUSH1 0xC DUP2 PUSH1 0xFF AND LT ISZERO PUSH2 0x2356 JUMPI DUP3 PUSH1 0xFF AND PUSH1 0x4 DUP3 PUSH1 0xFF AND PUSH1 0xC DUP2 LT PUSH2 0x231B JUMPI PUSH2 0x231A PUSH2 0x2FB9 JUMP JUMPDEST JUMPDEST PUSH1 0x20 SWAP2 DUP3 DUP3 DIV ADD SWAP2 SWAP1 MOD SWAP1 SLOAD SWAP1 PUSH2 0x100 EXP SWAP1 DIV PUSH1 0xFF AND PUSH1 0xFF AND SUB PUSH2 0x2343 JUMPI PUSH1 0x1 SWAP2 POP POP PUSH2 0x235B JUMP JUMPDEST DUP1 DUP1 PUSH2 0x234E SWAP1 PUSH2 0x3013 JUMP JUMPDEST SWAP2 POP POP PUSH2 0x22F4 JUMP JUMPDEST POP PUSH0 SWAP1 POP JUMPDEST SWAP2 SWAP1 POP JUMP JUMPDEST PUSH1 0xE PUSH1 0x2 SWAP1 SLOAD SWAP1 PUSH2 0x100 EXP SWAP1 DIV PUSH20 0xFFFFFFFFFFFFFFFFFFFFFFFFFFFFFFFFFFFFFFFF AND DUP2 JUMP JUMPDEST PUSH1 0x60 PUSH1 0x11 DUP1 SLOAD DUP1 PUSH1 0x20 MUL PUSH1 0x20 ADD PUSH1 0x40 MLOAD SWAP1 DUP2 ADD PUSH1 0x40 MSTORE DUP1 SWAP3 SWAP2 SWAP1 DUP2 DUP2 MSTORE PUSH1 0x20 ADD DUP3 DUP1 SLOAD DUP1 ISZERO PUSH2 0x2407 JUMPI PUSH1 0x20 MUL DUP3 ADD SWAP2 SWAP1 PUSH0 MSTORE PUSH1 0x20 PUSH0 KECCAK256 SWAP1 JUMPDEST DUP2 PUSH0 SWAP1 SLOAD SWAP1 PUSH2 0x100 EXP SWAP1 DIV PUSH20 0xFFFFFFFFFFFFFFFFFFFFFFFFFFFFFFFFFFFFFFFF AND PUSH20 0xFFFFFFFFFFFFFFFFFFFFFFFFFFFFFFFFFFFFFFFF AND DUP2 MSTORE PUSH1 0x20 ADD SWAP1 PUSH1 0x1 ADD SWAP1 DUP1 DUP4 GT PUSH2 0x23BE JUMPI JUMPDEST POP POP POP POP POP SWAP1 POP SWAP1 JUMP JUMPDEST PUSH0 JUMPDEST PUSH1 0xF DUP1 SLOAD SWAP1 POP DUP2 LT ISZERO PUSH2 0x2589 JUMPI PUSH1 0xF DUP2 DUP2 SLOAD DUP2 LT PUSH2 0x2434 JUMPI PUSH2 0x2433 PUSH2 0x2FB9 JUMP JUMPDEST JUMPDEST SWAP1 PUSH0 MSTORE PUSH1 0x20 PUSH0 KECCAK256 SWAP1 PUSH1 0x2 MUL ADD PUSH0 ADD PUSH0 SWAP1 SLOAD SWAP1 PUSH2 0x100 EXP SWAP1 DIV PUSH20 0xFFFFFFFFFFFFFFFFFFFFFFFFFFFFFFFFFFFFFFFF AND PUSH20 0xFFFFFFFFFFFFFFFFFFFFFFFFFFFFFFFFFFFFFFFF AND PUSH2 0x8FC PUSH1 0xF DUP4 DUP2 SLOAD DUP2 LT PUSH2 0x248F JUMPI PUSH2 0x248E PUSH2 0x2FB9 JUMP JUMPDEST JUMPDEST SWAP1 PUSH0 MSTORE PUSH1 0x20 PUSH0 KECCAK256 SWAP1 PUSH1 0x2 MUL ADD PUSH1 0x1 ADD SLOAD SWAP1 DUP2 ISZERO MUL SWAP1 PUSH1 0x40 MLOAD PUSH0 PUSH1 0x40 MLOAD DUP1 DUP4 SUB DUP2 DUP6 DUP9 DUP9 CALL SWAP4 POP POP POP POP ISZERO DUP1 ISZERO PUSH2 0x24C7 JUMPI RETURNDATASIZE PUSH0 DUP1 RETURNDATACOPY RETURNDATASIZE PUSH0 REVERT JUMPDEST POP PUSH1 0xF DUP2 DUP2 SLOAD DUP2 LT PUSH2 0x24DC JUMPI PUSH2 0x24DB PUSH2 0x2FB9 JUMP JUMPDEST JUMPDEST SWAP1 PUSH0 MSTORE PUSH1 0x20 PUSH0 KECCAK256 SWAP1 PUSH1 0x2 MUL ADD PUSH0 ADD PUSH0 SWAP1 SLOAD SWAP1 PUSH2 0x100 EXP SWAP1 DIV PUSH20 0xFFFFFFFFFFFFFFFFFFFFFFFFFFFFFFFFFFFFFFFF AND PUSH20 0xFFFFFFFFFFFFFFFFFFFFFFFFFFFFFFFFFFFFFFFF AND PUSH32 0x41591FB97ED8C53BC4FAB60D248AFC5A63EA30972F38202DEC7F70BA96CD8FFB PUSH1 0xF DUP4 DUP2 SLOAD DUP2 LT PUSH2 0x2555 JUMPI PUSH2 0x2554 PUSH2 0x2FB9 JUMP JUMPDEST JUMPDEST SWAP1 PUSH0 MSTORE PUSH1 0x20 PUSH0 KECCAK256 SWAP1 PUSH1 0x2 MUL ADD PUSH1 0x1 ADD SLOAD DUP5 PUSH1 0x40 MLOAD PUSH2 0x2574 SWAP3 SWAP2 SWAP1 PUSH2 0x3E29 JUMP JUMPDEST PUSH1 0x40 MLOAD DUP1 SWAP2 SUB SWAP1 LOG2 DUP1 DUP1 PUSH1 0x1 ADD SWAP2 POP POP PUSH2 0x2413 JUMP JUMPDEST POP PUSH0 SELFBALANCE SWAP1 POP PUSH0 DUP2 GT ISZERO PUSH2 0x266F JUMPI PUSH1 0xE PUSH1 0x2 SWAP1 SLOAD SWAP1 PUSH2 0x100 EXP SWAP1 DIV PUSH20 0xFFFFFFFFFFFFFFFFFFFFFFFFFFFFFFFFFFFFFFFF AND PUSH20 0xFFFFFFFFFFFFFFFFFFFFFFFFFFFFFFFFFFFFFFFF AND PUSH2 0x8FC DUP3 SWAP1 DUP2 ISZERO MUL SWAP1 PUSH1 0x40 MLOAD PUSH0 PUSH1 0x40 MLOAD DUP1 DUP4 SUB DUP2 DUP6 DUP9 DUP9 CALL SWAP4 POP POP POP POP ISZERO DUP1 ISZERO PUSH2 0x25FB JUMPI RETURNDATASIZE PUSH0 DUP1 RETURNDATACOPY RETURNDATASIZE PUSH0 REVERT JUMPDEST POP PUSH1 0xE PUSH1 0x2 SWAP1 SLOAD SWAP1 PUSH2 0x100 EXP SWAP1 DIV PUSH20 0xFFFFFFFFFFFFFFFFFFFFFFFFFFFFFFFFFFFFFFFF AND PUSH20 0xFFFFFFFFFFFFFFFFFFFFFFFFFFFFFFFFFFFFFFFF AND PUSH32 0x47A62A9F43A7A9FA12FC1CBD9C83B2C4DA5C34547C75F93F79069C84D2B2AAE3 DUP3 DUP5 PUSH1 0x40 MLOAD PUSH2 0x2666 SWAP3 SWAP2 SWAP1 PUSH2 0x3E29 JUMP JUMPDEST PUSH1 0x40 MLOAD DUP1 SWAP2 SUB SWAP1 LOG2 JUMPDEST PUSH1 0x5 PUSH1 0x8 PUSH1 0x14 PUSH2 0x100 EXP DUP2 SLOAD DUP2 PUSH1 0xFF MUL NOT AND SWAP1 DUP4 PUSH1 0xFF AND MUL OR SWAP1 SSTORE POP PUSH32 0x2A90AD102A73B8C5D42598FFCAF8B614D8230AF8F049689A88C71B96EAC898BB DUP3 PUSH1 0x40 MLOAD PUSH2 0x26BA SWAP2 SWAP1 PUSH2 0x3E57 JUMP JUMPDEST PUSH1 0x40 MLOAD DUP1 SWAP2 SUB SWAP1 LOG1 POP POP JUMP JUMPDEST PUSH0 DUP1 PUSH0 SWAP1 POP PUSH0 JUMPDEST PUSH1 0x10 DUP1 SLOAD SWAP1 POP DUP2 LT ISZERO PUSH2 0x275E JUMPI DUP4 PUSH20 0xFFFFFFFFFFFFFFFFFFFFFFFFFFFFFFFFFFFFFFFF AND PUSH1 0x10 DUP3 DUP2 SLOAD DUP2 LT PUSH2 0x2705 JUMPI PUSH2 0x2704 PUSH2 0x2FB9 JUMP JUMPDEST JUMPDEST SWAP1 PUSH0 MSTORE PUSH1 0x20 PUSH0 KECCAK256 ADD PUSH0 SWAP1 SLOAD SWAP1 PUSH2 0x100 EXP SWAP1 DIV PUSH20 0xFFFFFFFFFFFFFFFFFFFFFFFFFFFFFFFFFFFFFFFF AND PUSH20 0xFFFFFFFFFFFFFFFFFFFFFFFFFFFFFFFFFFFFFFFF AND SUB PUSH2 0x2751 JUMPI PUSH1 0x1 SWAP2 POP PUSH2 0x275E JUMP JUMPDEST DUP1 DUP1 PUSH1 0x1 ADD SWAP2 POP POP PUSH2 0x26CD JUMP JUMPDEST POP DUP1 PUSH2 0x276D JUMPI PUSH0 SWAP2 POP POP PUSH2 0x289D JUMP JUMPDEST PUSH0 JUMPDEST PUSH1 0x11 DUP1 SLOAD SWAP1 POP DUP2 LT ISZERO PUSH2 0x2801 JUMPI DUP4 PUSH20 0xFFFFFFFFFFFFFFFFFFFFFFFFFFFFFFFFFFFFFFFF AND PUSH1 0x11 DUP3 DUP2 SLOAD DUP2 LT PUSH2 0x27A7 JUMPI PUSH2 0x27A6 PUSH2 0x2FB9 JUMP JUMPDEST JUMPDEST SWAP1 PUSH0 MSTORE PUSH1 0x20 PUSH0 KECCAK256 ADD PUSH0 SWAP1 SLOAD SWAP1 PUSH2 0x100 EXP SWAP1 DIV PUSH20 0xFFFFFFFFFFFFFFFFFFFFFFFFFFFFFFFFFFFFFFFF AND PUSH20 0xFFFFFFFFFFFFFFFFFFFFFFFFFFFFFFFFFFFFFFFF AND SUB PUSH2 0x27F4 JUMPI PUSH0 SWAP3 POP POP POP PUSH2 0x289D JUMP JUMPDEST DUP1 DUP1 PUSH1 0x1 ADD SWAP2 POP POP PUSH2 0x276F JUMP JUMPDEST POP PUSH0 JUMPDEST PUSH1 0x12 DUP1 SLOAD SWAP1 POP DUP2 LT ISZERO PUSH2 0x2896 JUMPI DUP4 PUSH20 0xFFFFFFFFFFFFFFFFFFFFFFFFFFFFFFFFFFFFFFFF AND PUSH1 0x12 DUP3 DUP2 SLOAD DUP2 LT PUSH2 0x283C JUMPI PUSH2 0x283B PUSH2 0x2FB9 JUMP JUMPDEST JUMPDEST SWAP1 PUSH0 MSTORE PUSH1 0x20 PUSH0 KECCAK256 ADD PUSH0 SWAP1 SLOAD SWAP1 PUSH2 0x100 EXP SWAP1 DIV PUSH20 0xFFFFFFFFFFFFFFFFFFFFFFFFFFFFFFFFFFFFFFFF AND PUSH20 0xFFFFFFFFFFFFFFFFFFFFFFFFFFFFFFFFFFFFFFFF AND SUB PUSH2 0x2889 JUMPI PUSH0 SWAP3 POP POP POP PUSH2 0x289D JUMP JUMPDEST DUP1 DUP1 PUSH1 0x1 ADD SWAP2 POP POP PUSH2 0x2804 JUMP JUMPDEST POP PUSH1 0x1 SWAP2 POP POP JUMPDEST SWAP2 SWAP1 POP JUMP JUMPDEST PUSH0 PUSH1 0x25 PUSH1 0xFF AND DUP3 PUSH1 0xFF AND GT PUSH2 0x28BA JUMPI PUSH1 0x24 SWAP1 POP PUSH2 0x29E4 JUMP JUMPDEST PUSH1 0x2C PUSH1 0xFF AND DUP3 PUSH1 0xFF AND EQ DUP1 PUSH2 0x28D5 JUMPI POP PUSH1 0x2D PUSH1 0xFF AND DUP3 PUSH1 0xFF AND EQ JUMPDEST DUP1 PUSH2 0x28E6 JUMPI POP PUSH1 0x2E PUSH1 0xFF AND DUP3 PUSH1 0xFF AND EQ JUMPDEST ISZERO PUSH2 0x28F4 JUMPI PUSH1 0x3 SWAP1 POP PUSH2 0x29E4 JUMP JUMPDEST PUSH1 0x2F PUSH1 0xFF AND DUP3 PUSH1 0xFF AND EQ DUP1 PUSH2 0x290F JUMPI POP PUSH1 0x30 PUSH1 0xFF AND DUP3 PUSH1 0xFF AND EQ JUMPDEST DUP1 PUSH2 0x2920 JUMPI POP PUSH1 0x31 PUSH1 0xFF AND DUP3 PUSH1 0xFF AND EQ JUMPDEST ISZERO PUSH2 0x292E JUMPI PUSH1 0x3 SWAP1 POP PUSH2 0x29E4 JUMP JUMPDEST PUSH1 0x26 PUSH1 0xFF AND DUP3 PUSH1 0xFF AND EQ DUP1 PUSH2 0x2949 JUMPI POP PUSH1 0x27 PUSH1 0xFF AND DUP3 PUSH1 0xFF AND EQ JUMPDEST ISZERO PUSH2 0x2957 JUMPI PUSH1 0x2 SWAP1 POP PUSH2 0x29E4 JUMP JUMPDEST PUSH1 0x28 PUSH1 0xFF AND DUP3 PUSH1 0xFF AND EQ DUP1 PUSH2 0x2972 JUMPI POP PUSH1 0x29 PUSH1 0xFF AND DUP3 PUSH1 0xFF AND EQ JUMPDEST ISZERO PUSH2 0x2980 JUMPI PUSH1 0x2 SWAP1 POP PUSH2 0x29E4 JUMP JUMPDEST PUSH1 0x2A PUSH1 0xFF AND DUP3 PUSH1 0xFF AND EQ DUP1 PUSH2 0x299B JUMPI POP PUSH1 0x2B PUSH1 0xFF AND DUP3 PUSH1 0xFF AND EQ JUMPDEST ISZERO PUSH2 0x29A9 JUMPI PUSH1 0x2 SWAP1 POP PUSH2 0x29E4 JUMP JUMPDEST PUSH1 0x40 MLOAD PUSH32 0x8C379A000000000000000000000000000000000000000000000000000000000 DUP2 MSTORE PUSH1 0x4 ADD PUSH2 0x29DB SWAP1 PUSH2 0x3EC1 JUMP JUMPDEST PUSH1 0x40 MLOAD DUP1 SWAP2 SUB SWAP1 REVERT JUMPDEST SWAP2 SWAP1 POP JUMP JUMPDEST PUSH0 JUMPDEST PUSH1 0xF DUP1 SLOAD SWAP1 POP DUP2 LT ISZERO PUSH2 0x2BA1 JUMPI PUSH0 DUP3 DUP3 DUP2 MLOAD DUP2 LT PUSH2 0x2A0C JUMPI PUSH2 0x2A0B PUSH2 0x2FB9 JUMP JUMPDEST JUMPDEST PUSH1 0x20 MUL PUSH1 0x20 ADD ADD MLOAD GT ISZERO PUSH2 0x2B94 JUMPI PUSH1 0xF DUP2 DUP2 SLOAD DUP2 LT PUSH2 0x2A2E JUMPI PUSH2 0x2A2D PUSH2 0x2FB9 JUMP JUMPDEST JUMPDEST SWAP1 PUSH0 MSTORE PUSH1 0x20 PUSH0 KECCAK256 SWAP1 PUSH1 0x2 MUL ADD PUSH0 ADD PUSH0 SWAP1 SLOAD SWAP1 PUSH2 0x100 EXP SWAP1 DIV PUSH20 0xFFFFFFFFFFFFFFFFFFFFFFFFFFFFFFFFFFFFFFFF AND PUSH20 0xFFFFFFFFFFFFFFFFFFFFFFFFFFFFFFFFFFFFFFFF AND PUSH2 0x8FC DUP4 DUP4 DUP2 MLOAD DUP2 LT PUSH2 0x2A88 JUMPI PUSH2 0x2A87 PUSH2 0x2FB9 JUMP JUMPDEST JUMPDEST PUSH1 0x20 MUL PUSH1 0x20 ADD ADD MLOAD SWAP1 DUP2 ISZERO MUL SWAP1 PUSH1 0x40 MLOAD PUSH0 PUSH1 0x40 MLOAD DUP1 DUP4 SUB DUP2 DUP6 DUP9 DUP9 CALL SWAP4 POP POP POP POP ISZERO DUP1 ISZERO PUSH2 0x2AB8 JUMPI RETURNDATASIZE PUSH0 DUP1 RETURNDATACOPY RETURNDATASIZE PUSH0 REVERT JUMPDEST POP PUSH1 0xF DUP2 DUP2 SLOAD DUP2 LT PUSH2 0x2ACD JUMPI PUSH2 0x2ACC PUSH2 0x2FB9 JUMP JUMPDEST JUMPDEST SWAP1 PUSH0 MSTORE PUSH1 0x20 PUSH0 KECCAK256 SWAP1 PUSH1 0x2 MUL ADD PUSH0 ADD PUSH0 SWAP1 SLOAD SWAP1 PUSH2 0x100 EXP SWAP1 DIV PUSH20 0xFFFFFFFFFFFFFFFFFFFFFFFFFFFFFFFFFFFFFFFF AND PUSH20 0xFFFFFFFFFFFFFFFFFFFFFFFFFFFFFFFFFFFFFFFF AND PUSH32 0xFEB6D77D8663B36B3393E8790540B4EBE73ADE87F3146E450022712344DC7B3B PUSH1 0xF DUP4 DUP2 SLOAD DUP2 LT PUSH2 0x2B46 JUMPI PUSH2 0x2B45 PUSH2 0x2FB9 JUMP JUMPDEST JUMPDEST SWAP1 PUSH0 MSTORE PUSH1 0x20 PUSH0 KECCAK256 SWAP1 PUSH1 0x2 MUL ADD PUSH0 ADD PUSH1 0x14 SWAP1 SLOAD SWAP1 PUSH2 0x100 EXP SWAP1 DIV PUSH1 0xFF AND DUP5 DUP5 DUP2 MLOAD DUP2 LT PUSH2 0x2B75 JUMPI PUSH2 0x2B74 PUSH2 0x2FB9 JUMP JUMPDEST JUMPDEST PUSH1 0x20 MUL PUSH1 0x20 ADD ADD MLOAD PUSH1 0x40 MLOAD PUSH2 0x2B8B SWAP3 SWAP2 SWAP1 PUSH2 0x3ADF JUMP JUMPDEST PUSH1 0x40 MLOAD DUP1 SWAP2 SUB SWAP1 LOG2 JUMPDEST DUP1 DUP1 PUSH1 0x1 ADD SWAP2 POP POP PUSH2 0x29EB JUMP JUMPDEST POP PUSH0 SELFBALANCE SWAP1 POP PUSH0 DUP2 GT ISZERO PUSH2 0x2C85 JUMPI PUSH1 0xE PUSH1 0x2 SWAP1 SLOAD SWAP1 PUSH2 0x100 EXP SWAP1 DIV PUSH20 0xFFFFFFFFFFFFFFFFFFFFFFFFFFFFFFFFFFFFFFFF AND PUSH20 0xFFFFFFFFFFFFFFFFFFFFFFFFFFFFFFFFFFFFFFFF AND PUSH2 0x8FC DUP3 SWAP1 DUP2 ISZERO MUL SWAP1 PUSH1 0x40 MLOAD PUSH0 PUSH1 0x40 MLOAD DUP1 DUP4 SUB DUP2 DUP6 DUP9 DUP9 CALL SWAP4 POP POP POP POP ISZERO DUP1 ISZERO PUSH2 0x2C13 JUMPI RETURNDATASIZE PUSH0 DUP1 RETURNDATACOPY RETURNDATASIZE PUSH0 REVERT JUMPDEST POP PUSH1 0xE PUSH1 0x2 SWAP1 SLOAD SWAP1 PUSH2 0x100 EXP SWAP1 DIV PUSH20 0xFFFFFFFFFFFFFFFFFFFFFFFFFFFFFFFFFFFFFFFF AND PUSH20 0xFFFFFFFFFFFFFFFFFFFFFFFFFFFFFFFFFFFFFFFF AND PUSH32 0x9DB2233FFE8F379B659D66207F30C89B9CC7C86C09645504CB208839A055907A DUP3 PUSH1 0x40 MLOAD PUSH2 0x2C7C SWAP2 SWAP1 PUSH2 0x2DA9 JUMP JUMPDEST PUSH1 0x40 MLOAD DUP1 SWAP2 SUB SWAP1 LOG2 JUMPDEST PUSH1 0x6 PUSH1 0x8 PUSH1 0x14 PUSH2 0x100 EXP DUP2 SLOAD DUP2 PUSH1 0xFF MUL NOT AND SWAP1 DUP4 PUSH1 0xFF AND MUL OR SWAP1 SSTORE POP PUSH32 0xB537CBCADC098CFEDF5A04EF7E68A8554B55F7E45BFDACA1CBC51A686EF65F48 PUSH1 0x40 MLOAD PUSH1 0x40 MLOAD DUP1 SWAP2 SUB SWAP1 LOG1 POP POP JUMP JUMPDEST PUSH0 DUP1 REVERT JUMPDEST PUSH0 PUSH1 0xFF DUP3 AND SWAP1 POP SWAP2 SWAP1 POP JUMP JUMPDEST PUSH2 0x2CEA DUP2 PUSH2 0x2CD5 JUMP JUMPDEST DUP2 EQ PUSH2 0x2CF4 JUMPI PUSH0 DUP1 REVERT JUMPDEST POP JUMP JUMPDEST PUSH0 DUP2 CALLDATALOAD SWAP1 POP PUSH2 0x2D05 DUP2 PUSH2 0x2CE1 JUMP JUMPDEST SWAP3 SWAP2 POP POP JUMP JUMPDEST PUSH0 PUSH1 0x20 DUP3 DUP5 SUB SLT ISZERO PUSH2 0x2D20 JUMPI PUSH2 0x2D1F PUSH2 0x2CD1 JUMP JUMPDEST JUMPDEST PUSH0 PUSH2 0x2D2D DUP5 DUP3 DUP6 ADD PUSH2 0x2CF7 JUMP JUMPDEST SWAP2 POP POP SWAP3 SWAP2 POP POP JUMP JUMPDEST PUSH0 DUP2 ISZERO ISZERO SWAP1 POP SWAP2 SWAP1 POP JUMP JUMPDEST PUSH2 0x2D4A DUP2 PUSH2 0x2D36 JUMP JUMPDEST DUP3 MSTORE POP POP JUMP JUMPDEST PUSH0 PUSH1 0x20 DUP3 ADD SWAP1 POP PUSH2 0x2D63 PUSH0 DUP4 ADD DUP5 PUSH2 0x2D41 JUMP JUMPDEST SWAP3 SWAP2 POP POP JUMP JUMPDEST PUSH2 0x2D72 DUP2 PUSH2 0x2CD5 JUMP JUMPDEST DUP3 MSTORE POP POP JUMP JUMPDEST PUSH0 PUSH1 0x20 DUP3 ADD SWAP1 POP PUSH2 0x2D8B PUSH0 DUP4 ADD DUP5 PUSH2 0x2D69 JUMP JUMPDEST SWAP3 SWAP2 POP POP JUMP JUMPDEST PUSH0 DUP2 SWAP1 POP SWAP2 SWAP1 POP JUMP JUMPDEST PUSH2 0x2DA3 DUP2 PUSH2 0x2D91 JUMP JUMPDEST DUP3 MSTORE POP POP JUMP JUMPDEST PUSH0 PUSH1 0x20 DUP3 ADD SWAP1 POP PUSH2 0x2DBC PUSH0 DUP4 ADD DUP5 PUSH2 0x2D9A JUMP JUMPDEST SWAP3 SWAP2 POP POP JUMP JUMPDEST PUSH2 0x2DCB DUP2 PUSH2 0x2D91 JUMP JUMPDEST DUP2 EQ PUSH2 0x2DD5 JUMPI PUSH0 DUP1 REVERT JUMPDEST POP JUMP JUMPDEST PUSH0 DUP2 CALLDATALOAD SWAP1 POP PUSH2 0x2DE6 DUP2 PUSH2 0x2DC2 JUMP JUMPDEST SWAP3 SWAP2 POP POP JUMP JUMPDEST PUSH0 PUSH1 0x20 DUP3 DUP5 SUB SLT ISZERO PUSH2 0x2E01 JUMPI PUSH2 0x2E00 PUSH2 0x2CD1 JUMP JUMPDEST JUMPDEST PUSH0 PUSH2 0x2E0E DUP5 DUP3 DUP6 ADD PUSH2 0x2DD8 JUMP JUMPDEST SWAP2 POP POP SWAP3 SWAP2 POP POP JUMP JUMPDEST PUSH0 PUSH20 0xFFFFFFFFFFFFFFFFFFFFFFFFFFFFFFFFFFFFFFFF DUP3 AND SWAP1 POP SWAP2 SWAP1 POP JUMP JUMPDEST PUSH0 PUSH2 0x2E40 DUP3 PUSH2 0x2E17 JUMP JUMPDEST SWAP1 POP SWAP2 SWAP1 POP JUMP JUMPDEST PUSH2 0x2E50 DUP2 PUSH2 0x2E36 JUMP JUMPDEST DUP3 MSTORE POP POP JUMP JUMPDEST PUSH0 PUSH1 0x60 DUP3 ADD SWAP1 POP PUSH2 0x2E69 PUSH0 DUP4 ADD DUP7 PUSH2 0x2E47 JUMP JUMPDEST PUSH2 0x2E76 PUSH1 0x20 DUP4 ADD DUP6 PUSH2 0x2D69 JUMP JUMPDEST PUSH2 0x2E83 PUSH1 0x40 DUP4 ADD DUP5 PUSH2 0x2D9A JUMP JUMPDEST SWAP5 SWAP4 POP POP POP POP JUMP JUMPDEST PUSH0 PUSH1 0x20 DUP3 ADD SWAP1 POP PUSH2 0x2E9E PUSH0 DUP4 ADD DUP5 PUSH2 0x2E47 JUMP JUMPDEST SWAP3 SWAP2 POP POP JUMP JUMPDEST PUSH0 DUP2 MLOAD SWAP1 POP SWAP2 SWAP1 POP JUMP JUMPDEST PUSH0 DUP3 DUP3 MSTORE PUSH1 0x20 DUP3 ADD SWAP1 POP SWAP3 SWAP2 POP POP JUMP JUMPDEST PUSH0 DUP2 SWAP1 POP PUSH1 0x20 DUP3 ADD SWAP1 POP SWAP2 SWAP1 POP JUMP JUMPDEST PUSH2 0x2ED6 DUP2 PUSH2 0x2E36 JUMP JUMPDEST DUP3 MSTORE POP POP JUMP JUMPDEST PUSH0 PUSH2 0x2EE7 DUP4 DUP4 PUSH2 0x2ECD JUMP JUMPDEST PUSH1 0x20 DUP4 ADD SWAP1 POP SWAP3 SWAP2 POP POP JUMP JUMPDEST PUSH0 PUSH1 0x20 DUP3 ADD SWAP1 POP SWAP2 SWAP1 POP JUMP JUMPDEST PUSH0 PUSH2 0x2F09 DUP3 PUSH2 0x2EA4 JUMP JUMPDEST PUSH2 0x2F13 DUP2 DUP6 PUSH2 0x2EAE JUMP JUMPDEST SWAP4 POP PUSH2 0x2F1E DUP4 PUSH2 0x2EBE JUMP JUMPDEST DUP1 PUSH0 JUMPDEST DUP4 DUP2 LT ISZERO PUSH2 0x2F4E JUMPI DUP2 MLOAD PUSH2 0x2F35 DUP9 DUP3 PUSH2 0x2EDC JUMP JUMPDEST SWAP8 POP PUSH2 0x2F40 DUP4 PUSH2 0x2EF3 JUMP JUMPDEST SWAP3 POP POP PUSH1 0x1 DUP2 ADD SWAP1 POP PUSH2 0x2F21 JUMP JUMPDEST POP DUP6 SWAP4 POP POP POP POP SWAP3 SWAP2 POP POP JUMP JUMPDEST PUSH0 PUSH1 0x20 DUP3 ADD SWAP1 POP DUP2 DUP2 SUB PUSH0 DUP4 ADD MSTORE PUSH2 0x2F73 DUP2 DUP5 PUSH2 0x2EFF JUMP JUMPDEST SWAP1 POP SWAP3 SWAP2 POP POP JUMP JUMPDEST PUSH0 DUP1 PUSH1 0x40 DUP4 DUP6 SUB SLT ISZERO PUSH2 0x2F91 JUMPI PUSH2 0x2F90 PUSH2 0x2CD1 JUMP JUMPDEST JUMPDEST PUSH0 PUSH2 0x2F9E DUP6 DUP3 DUP7 ADD PUSH2 0x2DD8 JUMP JUMPDEST SWAP3 POP POP PUSH1 0x20 PUSH2 0x2FAF DUP6 DUP3 DUP7 ADD PUSH2 0x2DD8 JUMP JUMPDEST SWAP2 POP POP SWAP3 POP SWAP3 SWAP1 POP JUMP JUMPDEST PUSH32 0x4E487B7100000000000000000000000000000000000000000000000000000000 PUSH0 MSTORE PUSH1 0x32 PUSH1 0x4 MSTORE PUSH1 0x24 PUSH0 REVERT JUMPDEST PUSH32 0x4E487B7100000000000000000000000000000000000000000000000000000000 PUSH0 MSTORE PUSH1 0x11 PUSH1 0x4 MSTORE PUSH1 0x24 PUSH0 REVERT JUMPDEST PUSH0 PUSH2 0x301D DUP3 PUSH2 0x2CD5 JUMP JUMPDEST SWAP2 POP PUSH1 0xFF DUP3 SUB PUSH2 0x3030 JUMPI PUSH2 0x302F PUSH2 0x2FE6 JUMP JUMPDEST JUMPDEST PUSH1 0x1 DUP3 ADD SWAP1 POP SWAP2 SWAP1 POP JUMP JUMPDEST PUSH0 DUP3 DUP3 MSTORE PUSH1 0x20 DUP3 ADD SWAP1 POP SWAP3 SWAP2 POP POP JUMP JUMPDEST PUSH32 0x42657420637574206F66662063616E206E6F7420626520706C6163656420696E PUSH0 DUP3 ADD MSTORE PUSH32 0x2063757272656E74207374617475732E00000000000000000000000000000000 PUSH1 0x20 DUP3 ADD MSTORE POP JUMP JUMPDEST PUSH0 PUSH2 0x30A5 PUSH1 0x30 DUP4 PUSH2 0x303B JUMP JUMPDEST SWAP2 POP PUSH2 0x30B0 DUP3 PUSH2 0x304B JUMP JUMPDEST PUSH1 0x40 DUP3 ADD SWAP1 POP SWAP2 SWAP1 POP JUMP JUMPDEST PUSH0 PUSH1 0x20 DUP3 ADD SWAP1 POP DUP2 DUP2 SUB PUSH0 DUP4 ADD MSTORE PUSH2 0x30D2 DUP2 PUSH2 0x3099 JUMP JUMPDEST SWAP1 POP SWAP2 SWAP1 POP JUMP JUMPDEST PUSH32 0x526573756C742063616E6E6F742062652067656E65726174656420696E206375 PUSH0 DUP3 ADD MSTORE PUSH32 0x7272656E74207374617475732E00000000000000000000000000000000000000 PUSH1 0x20 DUP3 ADD MSTORE POP JUMP JUMPDEST PUSH0 PUSH2 0x3133 PUSH1 0x2D DUP4 PUSH2 0x303B JUMP JUMPDEST SWAP2 POP PUSH2 0x313E DUP3 PUSH2 0x30D9 JUMP JUMPDEST PUSH1 0x40 DUP3 ADD SWAP1 POP SWAP2 SWAP1 POP JUMP JUMPDEST PUSH0 PUSH1 0x20 DUP3 ADD SWAP1 POP DUP2 DUP2 SUB PUSH0 DUP4 ADD MSTORE PUSH2 0x3160 DUP2 PUSH2 0x3127 JUMP JUMPDEST SWAP1 POP SWAP2 SWAP1 POP JUMP JUMPDEST PUSH0 PUSH2 0x3171 DUP3 PUSH2 0x2D91 JUMP JUMPDEST SWAP2 POP PUSH2 0x317C DUP4 PUSH2 0x2D91 JUMP JUMPDEST SWAP3 POP DUP3 DUP3 ADD SWAP1 POP DUP1 DUP3 GT ISZERO PUSH2 0x3194 JUMPI PUSH2 0x3193 PUSH2 0x2FE6 JUMP JUMPDEST JUMPDEST SWAP3 SWAP2 POP POP JUMP JUMPDEST PUSH32 0x526573756C742063616E6E6F742062652067656E657261746564206265666F72 PUSH0 DUP3 ADD MSTORE PUSH32 0x652074686520726571756972656420626C6F636B206E756D6265722069732072 PUSH1 0x20 DUP3 ADD MSTORE PUSH32 0x6561636865642E00000000000000000000000000000000000000000000000000 PUSH1 0x40 DUP3 ADD MSTORE POP JUMP JUMPDEST PUSH0 PUSH2 0x321A PUSH1 0x47 DUP4 PUSH2 0x303B JUMP JUMPDEST SWAP2 POP PUSH2 0x3225 DUP3 PUSH2 0x319A JUMP JUMPDEST PUSH1 0x60 DUP3 ADD SWAP1 POP SWAP2 SWAP1 POP JUMP JUMPDEST PUSH0 PUSH1 0x20 DUP3 ADD SWAP1 POP DUP2 DUP2 SUB PUSH0 DUP4 ADD MSTORE PUSH2 0x3247 DUP2 PUSH2 0x320E JUMP JUMPDEST SWAP1 POP SWAP2 SWAP1 POP JUMP JUMPDEST PUSH32 0x4F6E6C79206F70657261746F722063616E2067656E657261746520726573756C PUSH0 DUP3 ADD MSTORE PUSH32 0x742E000000000000000000000000000000000000000000000000000000000000 PUSH1 0x20 DUP3 ADD MSTORE POP JUMP JUMPDEST PUSH0 PUSH2 0x32A8 PUSH1 0x22 DUP4 PUSH2 0x303B JUMP JUMPDEST SWAP2 POP PUSH2 0x32B3 DUP3 PUSH2 0x324E JUMP JUMPDEST PUSH1 0x40 DUP3 ADD SWAP1 POP SWAP2 SWAP1 POP JUMP JUMPDEST PUSH0 PUSH1 0x20 DUP3 ADD SWAP1 POP DUP2 DUP2 SUB PUSH0 DUP4 ADD MSTORE PUSH2 0x32D5 DUP2 PUSH2 0x329C JUMP JUMPDEST SWAP1 POP SWAP2 SWAP1 POP JUMP JUMPDEST PUSH0 DUP2 PUSH1 0x60 SHL SWAP1 POP SWAP2 SWAP1 POP JUMP JUMPDEST PUSH0 PUSH2 0x32F2 DUP3 PUSH2 0x32DC JUMP JUMPDEST SWAP1 POP SWAP2 SWAP1 POP JUMP JUMPDEST PUSH0 PUSH2 0x3303 DUP3 PUSH2 0x32E8 JUMP JUMPDEST SWAP1 POP SWAP2 SWAP1 POP JUMP JUMPDEST PUSH2 0x331B PUSH2 0x3316 DUP3 PUSH2 0x2E36 JUMP JUMPDEST PUSH2 0x32F9 JUMP JUMPDEST DUP3 MSTORE POP POP JUMP JUMPDEST PUSH0 PUSH2 0x332C DUP3 DUP5 PUSH2 0x330A JUMP JUMPDEST PUSH1 0x14 DUP3 ADD SWAP2 POP DUP2 SWAP1 POP SWAP3 SWAP2 POP POP JUMP JUMPDEST PUSH0 DUP2 MLOAD SWAP1 POP SWAP2 SWAP1 POP JUMP JUMPDEST PUSH0 DUP2 SWAP1 POP SWAP3 SWAP2 POP POP JUMP JUMPDEST DUP3 DUP2 DUP4 MCOPY PUSH0 DUP4 DUP4 ADD MSTORE POP POP POP JUMP JUMPDEST PUSH0 PUSH2 0x3367 DUP3 PUSH2 0x333B JUMP JUMPDEST PUSH2 0x3371 DUP2 DUP6 PUSH2 0x3345 JUMP JUMPDEST SWAP4 POP PUSH2 0x3381 DUP2 DUP6 PUSH1 0x20 DUP7 ADD PUSH2 0x334F JUMP JUMPDEST DUP1 DUP5 ADD SWAP2 POP POP SWAP3 SWAP2 POP POP JUMP JUMPDEST PUSH0 PUSH2 0x3398 DUP3 DUP6 PUSH2 0x335D JUMP JUMPDEST SWAP2 POP PUSH2 0x33A4 DUP3 DUP5 PUSH2 0x330A JUMP JUMPDEST PUSH1 0x14 DUP3 ADD SWAP2 POP DUP2 SWAP1 POP SWAP4 SWAP3 POP POP POP JUMP JUMPDEST PUSH0 DUP2 SWAP1 POP SWAP2 SWAP1 POP JUMP JUMPDEST PUSH0 DUP2 SWAP1 POP SWAP2 SWAP1 POP JUMP JUMPDEST PUSH2 0x33D7 PUSH2 0x33D2 DUP3 PUSH2 0x33B4 JUMP JUMPDEST PUSH2 0x33BD JUMP JUMPDEST DUP3 MSTORE POP POP JUMP JUMPDEST PUSH0 PUSH2 0x33E8 DUP3 DUP6 PUSH2 0x33C6 JUMP JUMPDEST PUSH1 0x20 DUP3 ADD SWAP2 POP PUSH2 0x33F8 DUP3 DUP5 PUSH2 0x335D JUMP JUMPDEST SWAP2 POP DUP2 SWAP1 POP SWAP4 SWAP3 POP POP POP JUMP JUMPDEST PUSH32 0x4E487B7100000000000000000000000000000000000000000000000000000000 PUSH0 MSTORE PUSH1 0x12 PUSH1 0x4 MSTORE PUSH1 0x24 PUSH0 REVERT JUMPDEST PUSH0 PUSH2 0x343B DUP3 PUSH2 0x2D91 JUMP JUMPDEST SWAP2 POP PUSH2 0x3446 DUP4 PUSH2 0x2D91 JUMP JUMPDEST SWAP3 POP DUP3 PUSH2 0x3456 JUMPI PUSH2 0x3455 PUSH2 0x3404 JUMP JUMPDEST JUMPDEST DUP3 DUP3 MOD SWAP1 POP SWAP3 SWAP2 POP POP JUMP JUMPDEST PUSH0 PUSH2 0x346B DUP3 PUSH2 0x2CD5 JUMP JUMPDEST SWAP2 POP PUSH2 0x3476 DUP4 PUSH2 0x2CD5 JUMP JUMPDEST SWAP3 POP DUP3 PUSH2 0x3486 JUMPI PUSH2 0x3485 PUSH2 0x3404 JUMP JUMPDEST JUMPDEST DUP3 DUP3 MOD SWAP1 POP SWAP3 SWAP2 POP POP JUMP JUMPDEST PUSH32 0x526573756C742063616E206E6F742062652076616C69646174656420696E2063 PUSH0 DUP3 ADD MSTORE PUSH32 0x757272656E74207374617475732E000000000000000000000000000000000000 PUSH1 0x20 DUP3 ADD MSTORE POP JUMP JUMPDEST PUSH0 PUSH2 0x34EB PUSH1 0x2E DUP4 PUSH2 0x303B JUMP JUMPDEST SWAP2 POP PUSH2 0x34F6 DUP3 PUSH2 0x3491 JUMP JUMPDEST PUSH1 0x40 DUP3 ADD SWAP1 POP SWAP2 SWAP1 POP JUMP JUMPDEST PUSH0 PUSH1 0x20 DUP3 ADD SWAP1 POP DUP2 DUP2 SUB PUSH0 DUP4 ADD MSTORE PUSH2 0x3518 DUP2 PUSH2 0x34DF JUMP JUMPDEST SWAP1 POP SWAP2 SWAP1 POP JUMP JUMPDEST PUSH32 0x4F6E6C792076616C696461746F72732063616E2076616C696461746520746865 PUSH0 DUP3 ADD MSTORE PUSH32 0x20726573756C742E000000000000000000000000000000000000000000000000 PUSH1 0x20 DUP3 ADD MSTORE POP JUMP JUMPDEST PUSH0 PUSH2 0x3579 PUSH1 0x28 DUP4 PUSH2 0x303B JUMP JUMPDEST SWAP2 POP PUSH2 0x3584 DUP3 PUSH2 0x351F JUMP JUMPDEST PUSH1 0x40 DUP3 ADD SWAP1 POP SWAP2 SWAP1 POP JUMP JUMPDEST PUSH0 PUSH1 0x20 DUP3 ADD SWAP1 POP DUP2 DUP2 SUB PUSH0 DUP4 ADD MSTORE PUSH2 0x35A6 DUP2 PUSH2 0x356D JUMP JUMPDEST SWAP1 POP SWAP2 SWAP1 POP JUMP JUMPDEST PUSH0 DUP2 SWAP1 POP SWAP2 SWAP1 POP JUMP JUMPDEST PUSH0 DUP2 SWAP1 POP SWAP2 SWAP1 POP JUMP JUMPDEST PUSH0 PUSH2 0x35D9 PUSH2 0x35D4 PUSH2 0x35CF DUP5 PUSH2 0x35AD JUMP JUMPDEST PUSH2 0x35B6 JUMP JUMPDEST PUSH2 0x2CD5 JUMP JUMPDEST SWAP1 POP SWAP2 SWAP1 POP JUMP JUMPDEST PUSH2 0x35E9 DUP2 PUSH2 0x35BF JUMP JUMPDEST DUP3 MSTORE POP POP JUMP JUMPDEST PUSH32 0x426C6F636B2068617368206973206E6F7420617661696C61626C652E00000000 PUSH0 DUP3 ADD MSTORE POP JUMP JUMPDEST PUSH0 PUSH2 0x3623 PUSH1 0x1C DUP4 PUSH2 0x303B JUMP JUMPDEST SWAP2 POP PUSH2 0x362E DUP3 PUSH2 0x35EF JUMP JUMPDEST PUSH1 0x20 DUP3 ADD SWAP1 POP SWAP2 SWAP1 POP JUMP JUMPDEST PUSH0 PUSH1 0x60 DUP3 ADD SWAP1 POP PUSH2 0x364C PUSH0 DUP4 ADD DUP6 PUSH2 0x35E0 JUMP JUMPDEST PUSH2 0x3659 PUSH1 0x20 DUP4 ADD DUP5 PUSH2 0x2D41 JUMP JUMPDEST DUP2 DUP2 SUB PUSH1 0x40 DUP4 ADD MSTORE PUSH2 0x366A DUP2 PUSH2 0x3617 JUMP JUMPDEST SWAP1 POP SWAP4 SWAP3 POP POP POP JUMP JUMPDEST PUSH0 PUSH1 0x40 DUP3 ADD SWAP1 POP PUSH2 0x3686 PUSH0 DUP4 ADD DUP6 PUSH2 0x2D69 JUMP JUMPDEST PUSH2 0x3693 PUSH1 0x20 DUP4 ADD DUP5 PUSH2 0x2D69 JUMP JUMPDEST SWAP4 SWAP3 POP POP POP JUMP JUMPDEST PUSH32 0x4E487B7100000000000000000000000000000000000000000000000000000000 PUSH0 MSTORE PUSH1 0x41 PUSH1 0x4 MSTORE PUSH1 0x24 PUSH0 REVERT JUMPDEST PUSH0 PUSH2 0x36D1 DUP3 PUSH2 0x2D91 JUMP JUMPDEST SWAP2 POP PUSH2 0x36DC DUP4 PUSH2 0x2D91 JUMP JUMPDEST SWAP3 POP DUP3 DUP3 MUL PUSH2 0x36EA DUP2 PUSH2 0x2D91 JUMP JUMPDEST SWAP2 POP DUP3 DUP3 DIV DUP5 EQ DUP4 ISZERO OR PUSH2 0x3701 JUMPI PUSH2 0x3700 PUSH2 0x2FE6 JUMP JUMPDEST JUMPDEST POP SWAP3 SWAP2 POP POP JUMP JUMPDEST PUSH0 PUSH2 0x3712 DUP3 PUSH2 0x2D91 JUMP JUMPDEST SWAP2 POP PUSH2 0x371D DUP4 PUSH2 0x2D91 JUMP JUMPDEST SWAP3 POP DUP3 DUP3 SUB SWAP1 POP DUP2 DUP2 GT ISZERO PUSH2 0x3735 JUMPI PUSH2 0x3734 PUSH2 0x2FE6 JUMP JUMPDEST JUMPDEST SWAP3 SWAP2 POP POP JUMP JUMPDEST PUSH32 0x5061796F7574202B20686F73742072657475726E206D7573742065786163746C PUSH0 DUP3 ADD MSTORE PUSH32 0x79206D61746368206465706F7369746564202620626574206661696C00000000 PUSH1 0x20 DUP3 ADD MSTORE POP JUMP JUMPDEST PUSH0 PUSH2 0x3795 PUSH1 0x3C DUP4 PUSH2 0x303B JUMP JUMPDEST SWAP2 POP PUSH2 0x37A0 DUP3 PUSH2 0x373B JUMP JUMPDEST PUSH1 0x40 DUP3 ADD SWAP1 POP SWAP2 SWAP1 POP JUMP JUMPDEST PUSH0 PUSH1 0x40 DUP3 ADD SWAP1 POP DUP2 DUP2 SUB PUSH0 DUP4 ADD MSTORE PUSH2 0x37C2 DUP2 PUSH2 0x3789 JUMP JUMPDEST SWAP1 POP PUSH2 0x37D1 PUSH1 0x20 DUP4 ADD DUP5 PUSH2 0x2D9A JUMP JUMPDEST SWAP3 SWAP2 POP POP JUMP JUMPDEST PUSH32 0x57697468647261772063616E206E6F742062652063616C6C656420696E206375 PUSH0 DUP3 ADD MSTORE PUSH32 0x7272656E74207374617475732E00000000000000000000000000000000000000 PUSH1 0x20 DUP3 ADD MSTORE POP JUMP JUMPDEST PUSH0 PUSH2 0x3831 PUSH1 0x2D DUP4 PUSH2 0x303B JUMP JUMPDEST SWAP2 POP PUSH2 0x383C DUP3 PUSH2 0x37D7 JUMP JUMPDEST PUSH1 0x40 DUP3 ADD SWAP1 POP SWAP2 SWAP1 POP JUMP JUMPDEST PUSH0 PUSH1 0x20 DUP3 ADD SWAP1 POP DUP2 DUP2 SUB PUSH0 DUP4 ADD MSTORE PUSH2 0x385E DUP2 PUSH2 0x3825 JUMP JUMPDEST SWAP1 POP SWAP2 SWAP1 POP JUMP JUMPDEST PUSH32 0x4F6E6C7920686F73742063616E2077697468647261772E000000000000000000 PUSH0 DUP3 ADD MSTORE POP JUMP JUMPDEST PUSH0 PUSH2 0x3899 PUSH1 0x17 DUP4 PUSH2 0x303B JUMP JUMPDEST SWAP2 POP PUSH2 0x38A4 DUP3 PUSH2 0x3865 JUMP JUMPDEST PUSH1 0x20 DUP3 ADD SWAP1 POP SWAP2 SWAP1 POP JUMP JUMPDEST PUSH0 PUSH1 0x20 DUP3 ADD SWAP1 POP DUP2 DUP2 SUB PUSH0 DUP4 ADD MSTORE PUSH2 0x38C6 DUP2 PUSH2 0x388D JUMP JUMPDEST SWAP1 POP SWAP2 SWAP1 POP JUMP JUMPDEST PUSH32 0x4265742063616E206E6F7420626520706C6163656420696E2063757272656E74 PUSH0 DUP3 ADD MSTORE PUSH32 0x207374617475732E000000000000000000000000000000000000000000000000 PUSH1 0x20 DUP3 ADD MSTORE POP JUMP JUMPDEST PUSH0 PUSH2 0x3927 PUSH1 0x28 DUP4 PUSH2 0x303B JUMP JUMPDEST SWAP2 POP PUSH2 0x3932 DUP3 PUSH2 0x38CD JUMP JUMPDEST PUSH1 0x40 DUP3 ADD SWAP1 POP SWAP2 SWAP1 POP JUMP JUMPDEST PUSH0 PUSH1 0x20 DUP3 ADD SWAP1 POP DUP2 DUP2 SUB PUSH0 DUP4 ADD MSTORE PUSH2 0x3954 DUP2 PUSH2 0x391B JUMP JUMPDEST SWAP1 POP SWAP2 SWAP1 POP JUMP JUMPDEST PUSH32 0x4F7074696F6E206D757374206265206265747765656E203020616E6420343900 PUSH0 DUP3 ADD MSTORE POP JUMP JUMPDEST PUSH0 PUSH2 0x398F PUSH1 0x1F DUP4 PUSH2 0x303B JUMP JUMPDEST SWAP2 POP PUSH2 0x399A DUP3 PUSH2 0x395B JUMP JUMPDEST PUSH1 0x20 DUP3 ADD SWAP1 POP SWAP2 SWAP1 POP JUMP JUMPDEST PUSH0 PUSH1 0x20 DUP3 ADD SWAP1 POP DUP2 DUP2 SUB PUSH0 DUP4 ADD MSTORE PUSH2 0x39BC DUP2 PUSH2 0x3983 JUMP JUMPDEST SWAP1 POP SWAP2 SWAP1 POP JUMP JUMPDEST PUSH32 0x42657420616D6F756E742063616E6E6F74206265206C657373207468616E2074 PUSH0 DUP3 ADD MSTORE PUSH32 0x6865206D696E696D756D2062657420616D6F756E742E00000000000000000000 PUSH1 0x20 DUP3 ADD MSTORE POP JUMP JUMPDEST PUSH0 PUSH2 0x3A1D PUSH1 0x36 DUP4 PUSH2 0x303B JUMP JUMPDEST SWAP2 POP PUSH2 0x3A28 DUP3 PUSH2 0x39C3 JUMP JUMPDEST PUSH1 0x40 DUP3 ADD SWAP1 POP SWAP2 SWAP1 POP JUMP JUMPDEST PUSH0 PUSH1 0x20 DUP3 ADD SWAP1 POP DUP2 DUP2 SUB PUSH0 DUP4 ADD MSTORE PUSH2 0x3A4A DUP2 PUSH2 0x3A11 JUMP JUMPDEST SWAP1 POP SWAP2 SWAP1 POP JUMP JUMPDEST PUSH32 0x42657420616D6F756E742063616E6E6F742065786365656420746865206D6178 PUSH0 DUP3 ADD MSTORE PUSH32 0x696D756D2062657420616D6F756E742E00000000000000000000000000000000 PUSH1 0x20 DUP3 ADD MSTORE POP JUMP JUMPDEST PUSH0 PUSH2 0x3AAB PUSH1 0x30 DUP4 PUSH2 0x303B JUMP JUMPDEST SWAP2 POP PUSH2 0x3AB6 DUP3 PUSH2 0x3A51 JUMP JUMPDEST PUSH1 0x40 DUP3 ADD SWAP1 POP SWAP2 SWAP1 POP JUMP JUMPDEST PUSH0 PUSH1 0x20 DUP3 ADD SWAP1 POP DUP2 DUP2 SUB PUSH0 DUP4 ADD MSTORE PUSH2 0x3AD8 DUP2 PUSH2 0x3A9F JUMP JUMPDEST SWAP1 POP SWAP2 SWAP1 POP JUMP JUMPDEST PUSH0 PUSH1 0x40 DUP3 ADD SWAP1 POP PUSH2 0x3AF2 PUSH0 DUP4 ADD DUP6 PUSH2 0x2D69 JUMP JUMPDEST PUSH2 0x3AFF PUSH1 0x20 DUP4 ADD DUP5 PUSH2 0x2D9A JUMP JUMPDEST SWAP4 SWAP3 POP POP POP JUMP JUMPDEST PUSH32 0x4465706F7369742063616E206E6F7420626520706C6163656420696E20637572 PUSH0 DUP3 ADD MSTORE PUSH32 0x72656E74207374617475732E0000000000000000000000000000000000000000 PUSH1 0x20 DUP3 ADD MSTORE POP JUMP JUMPDEST PUSH0 PUSH2 0x3B60 PUSH1 0x2C DUP4 PUSH2 0x303B JUMP JUMPDEST SWAP2 POP PUSH2 0x3B6B DUP3 PUSH2 0x3B06 JUMP JUMPDEST PUSH1 0x40 DUP3 ADD SWAP1 POP SWAP2 SWAP1 POP JUMP JUMPDEST PUSH0 PUSH1 0x20 DUP3 ADD SWAP1 POP DUP2 DUP2 SUB PUSH0 DUP4 ADD MSTORE PUSH2 0x3B8D DUP2 PUSH2 0x3B54 JUMP JUMPDEST SWAP1 POP SWAP2 SWAP1 POP JUMP JUMPDEST PUSH32 0x4F6E6C7920686F73742063616E206465706F7369742E00000000000000000000 PUSH0 DUP3 ADD MSTORE POP JUMP JUMPDEST PUSH0 PUSH2 0x3BC8 PUSH1 0x16 DUP4 PUSH2 0x303B JUMP JUMPDEST SWAP2 POP PUSH2 0x3BD3 DUP3 PUSH2 0x3B94 JUMP JUMPDEST PUSH1 0x20 DUP3 ADD SWAP1 POP SWAP2 SWAP1 POP JUMP JUMPDEST PUSH0 PUSH1 0x20 DUP3 ADD SWAP1 POP DUP2 DUP2 SUB PUSH0 DUP4 ADD MSTORE PUSH2 0x3BF5 DUP2 PUSH2 0x3BBC JUMP JUMPDEST SWAP1 POP SWAP2 SWAP1 POP JUMP JUMPDEST PUSH32 0x4465706F73697420616D6F756E742063616E6E6F74206265207A65726F2E0000 PUSH0 DUP3 ADD MSTORE POP JUMP JUMPDEST PUSH0 PUSH2 0x3C30 PUSH1 0x1E DUP4 PUSH2 0x303B JUMP JUMPDEST SWAP2 POP PUSH2 0x3C3B DUP3 PUSH2 0x3BFC JUMP JUMPDEST PUSH1 0x20 DUP3 ADD SWAP1 POP SWAP2 SWAP1 POP JUMP JUMPDEST PUSH0 PUSH1 0x20 DUP3 ADD SWAP1 POP DUP2 DUP2 SUB PUSH0 DUP4 ADD MSTORE PUSH2 0x3C5D DUP2 PUSH2 0x3C24 JUMP JUMPDEST SWAP1 POP SWAP2 SWAP1 POP JUMP JUMPDEST PUSH32 0x4465706F73697420616D6F756E742069732062656C6F7720746865206D696E69 PUSH0 DUP3 ADD MSTORE PUSH32 0x6D756D206465706F7369742E0000000000000000000000000000000000000000 PUSH1 0x20 DUP3 ADD MSTORE POP JUMP JUMPDEST PUSH0 PUSH2 0x3CBE PUSH1 0x2C DUP4 PUSH2 0x303B JUMP JUMPDEST SWAP2 POP PUSH2 0x3CC9 DUP3 PUSH2 0x3C64 JUMP JUMPDEST PUSH1 0x40 DUP3 ADD SWAP1 POP SWAP2 SWAP1 POP JUMP JUMPDEST PUSH0 PUSH1 0x20 DUP3 ADD SWAP1 POP DUP2 DUP2 SUB PUSH0 DUP4 ADD MSTORE PUSH2 0x3CEB DUP2 PUSH2 0x3CB2 JUMP JUMPDEST SWAP1 POP SWAP2 SWAP1 POP JUMP JUMPDEST PUSH0 PUSH2 0x3CFC DUP3 PUSH2 0x2D91 JUMP JUMPDEST SWAP2 POP PUSH2 0x3D07 DUP4 PUSH2 0x2D91 JUMP JUMPDEST SWAP3 POP DUP3 PUSH2 0x3D17 JUMPI PUSH2 0x3D16 PUSH2 0x3404 JUMP JUMPDEST JUMPDEST DUP3 DUP3 DIV SWAP1 POP SWAP3 SWAP2 POP POP JUMP JUMPDEST PUSH32 0x4465706F73697420616D6F756E742063616E206E6F7420636F76657220746865 PUSH0 DUP3 ADD MSTORE PUSH32 0x206D696E696D756D206265742E00000000000000000000000000000000000000 PUSH1 0x20 DUP3 ADD MSTORE POP JUMP JUMPDEST PUSH0 PUSH2 0x3D7C PUSH1 0x2D DUP4 PUSH2 0x303B JUMP JUMPDEST SWAP2 POP PUSH2 0x3D87 DUP3 PUSH2 0x3D22 JUMP JUMPDEST PUSH1 0x40 DUP3 ADD SWAP1 POP SWAP2 SWAP1 POP JUMP JUMPDEST PUSH0 PUSH1 0x20 DUP3 ADD SWAP1 POP DUP2 DUP2 SUB PUSH0 DUP4 ADD MSTORE PUSH2 0x3DA9 DUP2 PUSH2 0x3D70 JUMP JUMPDEST SWAP1 POP SWAP2 SWAP1 POP JUMP JUMPDEST PUSH0 PUSH1 0x40 DUP3 ADD SWAP1 POP PUSH2 0x3DC3 PUSH0 DUP4 ADD DUP6 PUSH2 0x2D9A JUMP JUMPDEST PUSH2 0x3DD0 PUSH1 0x20 DUP4 ADD DUP5 PUSH2 0x2D9A JUMP JUMPDEST SWAP4 SWAP3 POP POP POP JUMP JUMPDEST PUSH0 DUP2 MLOAD SWAP1 POP SWAP2 SWAP1 POP JUMP JUMPDEST PUSH0 PUSH1 0x1F NOT PUSH1 0x1F DUP4 ADD AND SWAP1 POP SWAP2 SWAP1 POP JUMP JUMPDEST PUSH0 PUSH2 0x3DFB DUP3 PUSH2 0x3DD7 JUMP JUMPDEST PUSH2 0x3E05 DUP2 DUP6 PUSH2 0x303B JUMP JUMPDEST SWAP4 POP PUSH2 0x3E15 DUP2 DUP6 PUSH1 0x20 DUP7 ADD PUSH2 0x334F JUMP JUMPDEST PUSH2 0x3E1E DUP2 PUSH2 0x3DE1 JUMP JUMPDEST DUP5 ADD SWAP2 POP POP SWAP3 SWAP2 POP POP JUMP JUMPDEST PUSH0 PUSH1 0x40 DUP3 ADD SWAP1 POP PUSH2 0x3E3C PUSH0 DUP4 ADD DUP6 PUSH2 0x2D9A JUMP JUMPDEST DUP2 DUP2 SUB PUSH1 0x20 DUP4 ADD MSTORE PUSH2 0x3E4E DUP2 DUP5 PUSH2 0x3DF1 JUMP JUMPDEST SWAP1 POP SWAP4 SWAP3 POP POP POP JUMP JUMPDEST PUSH0 PUSH1 0x20 DUP3 ADD SWAP1 POP DUP2 DUP2 SUB PUSH0 DUP4 ADD MSTORE PUSH2 0x3E6F DUP2 DUP5 PUSH2 0x3DF1 JUMP JUMPDEST SWAP1 POP SWAP3 SWAP2 POP POP JUMP JUMPDEST PUSH32 0x496E76616C69642062657474696E67206F7074696F6E2E000000000000000000 PUSH0 DUP3 ADD MSTORE POP JUMP JUMPDEST PUSH0 PUSH2 0x3EAB PUSH1 0x17 DUP4 PUSH2 0x303B JUMP JUMPDEST SWAP2 POP PUSH2 0x3EB6 DUP3 PUSH2 0x3E77 JUMP JUMPDEST PUSH1 0x20 DUP3 ADD SWAP1 POP SWAP2 SWAP1 POP JUMP JUMPDEST PUSH0 PUSH1 0x20 DUP3 ADD SWAP1 POP DUP2 DUP2 SUB PUSH0 DUP4 ADD MSTORE PUSH2 0x3ED8 DUP2 PUSH2 0x3E9F JUMP JUMPDEST SWAP1 POP SWAP2 SWAP1 POP JUMP INVALID 0x4D PUSH2 0x6A6F PUSH19 0x697479206F662076616C696461746F72732072 PUSH6 0x6A6563746564 KECCAK256 PUSH21 0x686520726573756C742EA2646970667358221220C0 PUSH27 0x2E3A34D912642E9F44A93283BE40E8110631574C0AFF2CB80B52BD RETURNDATACOPY MCOPY 0xBA PUSH5 0x736F6C6343 STOP ADDMOD BYTE STOP CALLER "
		},
		"gasEstimates": {
			"creation": {
				"codeDepositCost": "3238400",
				"executionCost": "infinite",
				"totalCost": "infinite"
			},
			"external": {
				"approvedValidators(uint256)": "5034",
				"bets(uint256)": "infinite",
				"cutOffBlockNumber()": "2470",
				"deposit()": "infinite",
				"generateResult()": "infinite",
				"getApprovedValidators()": "infinite",
				"getBetsCount()": "2529",
				"getRejectedValidators()": "infinite",
				"getStatus()": "2635",
				"getTotalBetsAmount()": "infinite",
				"host()": "2669",
				"hostDeposit()": "2471",
				"isInBlackSet(uint8)": "infinite",
				"isInEvenSet(uint8)": "infinite",
				"isInFirstColumnSet(uint8)": "infinite",
				"isInFirstDozenSet(uint8)": "infinite",
				"isInHighSet(uint8)": "726",
				"isInLowSet(uint8)": "727",
				"isInOddSet(uint8)": "infinite",
				"isInRedSet(uint8)": "infinite",
				"isInSecondColumnSet(uint8)": "infinite",
				"isInSecondDozenSet(uint8)": "infinite",
				"isInThirdColumnSet(uint8)": "infinite",
				"isInThirdDozenSet(uint8)": "infinite",
				"maxBet()": "2559",
				"minBet()": "2470",
				"minDeposit()": "2537",
				"noMoreBets()": "52151",
				"owner()": "2619",
				"placeBet(uint8)": "infinite",
				"rejectedValidators(uint256)": "5011",
				"result()": "2578",
				"status()": "2630",
				"validateResult()": "infinite",
				"validatorThreshold()": "2650",
				"validators(uint256)": "4990",
				"verifyPayoutCoverage(uint256,uint256)": "infinite",
				"withdraw()": "infinite"
			},
			"internal": {
				"_addressToString(address)": "infinite",
				"_addressesToString(address[] memory)": "infinite",
				"_bytes32ToHexString(bytes32)": "infinite",
				"_bytesToHexString(bytes memory)": "infinite",
				"_uint256ToString(uint256)": "infinite",
				"getPayoutMultiplier(uint8)": "infinite",
				"isAssignableValidator(address)": "infinite",
				"refundAllTransactions(string memory)": "infinite",
				"settleBet(uint256[] memory)": "infinite"
			}
		},
		"methodIdentifiers": {
			"approvedValidators(uint256)": "62f25ab3",
			"bets(uint256)": "22af00fa",
			"cutOffBlockNumber()": "6f91a66f",
			"deposit()": "d0e30db0",
			"generateResult()": "1dbe2e0e",
			"getApprovedValidators()": "f6ef33fd",
			"getBetsCount()": "8c7e347a",
			"getRejectedValidators()": "4e2b7830",
			"getStatus()": "4e69d560",
			"getTotalBetsAmount()": "d1edb09e",
			"host()": "f437bc59",
			"hostDeposit()": "20968178",
			"isInBlackSet(uint8)": "5dcab1d8",
			"isInEvenSet(uint8)": "28dddc1b",
			"isInFirstColumnSet(uint8)": "12586172",
			"isInFirstDozenSet(uint8)": "4d7d93fe",
			"isInHighSet(uint8)": "e4ca650d",
			"isInLowSet(uint8)": "972b533d",
			"isInOddSet(uint8)": "d9cc76ad",
			"isInRedSet(uint8)": "4760fff3",
			"isInSecondColumnSet(uint8)": "8fffebca",
			"isInSecondDozenSet(uint8)": "2605c251",
			"isInThirdColumnSet(uint8)": "e71f766e",
			"isInThirdDozenSet(uint8)": "a38bd74c",
			"maxBet()": "2e5b2168",
			"minBet()": "9619367d",
			"minDeposit()": "41b3d185",
			"noMoreBets()": "1b2abc77",
			"owner()": "8da5cb5b",
			"placeBet(uint8)": "43046844",
			"rejectedValidators(uint256)": "80ff62b3",
			"result()": "65372147",
			"status()": "200d2ed2",
			"validateResult()": "38cceb4f",
			"validatorThreshold()": "4fd101d7",
			"validators(uint256)": "35aa2e44",
			"verifyPayoutCoverage(uint256,uint256)": "5d4d4c3e",
			"withdraw()": "3ccfd60b"
		}
	},
	"abi": [
		{
			"inputs": [
				{
					"internalType": "address",
					"name": "_owner",
					"type": "address"
				},
				{
					"internalType": "address",
					"name": "_host",
					"type": "address"
				},
				{
					"internalType": "uint256",
					"name": "_minBet",
					"type": "uint256"
				},
				{
					"internalType": "uint256",
					"name": "_minDeposit",
					"type": "uint256"
				},
				{
					"internalType": "address[]",
					"name": "_validators",
					"type": "address[]"
				},
				{
					"internalType": "uint8",
					"name": "_validatorThreshold",
					"type": "uint8"
				}
			],
			"stateMutability": "nonpayable",
			"type": "constructor"
		},
		{
			"anonymous": false,
			"inputs": [
				{
					"indexed": true,
					"internalType": "address",
					"name": "player",
					"type": "address"
				},
				{
					"indexed": false,
					"internalType": "uint8",
					"name": "option",
					"type": "uint8"
				},
				{
					"indexed": false,
					"internalType": "uint256",
					"name": "amount",
					"type": "uint256"
				}
			],
			"name": "BetPayout",
			"type": "event"
		},
		{
			"anonymous": false,
			"inputs": [
				{
					"indexed": true,
					"internalType": "address",
					"name": "player",
					"type": "address"
				},
				{
					"indexed": false,
					"internalType": "uint8",
					"name": "option",
					"type": "uint8"
				},
				{
					"indexed": false,
					"internalType": "uint256",
					"name": "amount",
					"type": "uint256"
				}
			],
			"name": "BetPlaced",
			"type": "event"
		},
		{
			"anonymous": false,
			"inputs": [
				{
					"indexed": true,
					"internalType": "address",
					"name": "player",
					"type": "address"
				},
				{
					"indexed": false,
					"internalType": "uint256",
					"name": "amount",
					"type": "uint256"
				},
				{
					"indexed": false,
					"internalType": "string",
					"name": "reason",
					"type": "string"
				}
			],
			"name": "BetRefund",
			"type": "event"
		},
		{
			"anonymous": false,
			"inputs": [
				{
					"indexed": true,
					"internalType": "address",
					"name": "host",
					"type": "address"
				},
				{
					"indexed": false,
					"internalType": "uint256",
					"name": "amount",
					"type": "uint256"
				}
			],
			"name": "DepositPayout",
			"type": "event"
		},
		{
			"anonymous": false,
			"inputs": [
				{
					"indexed": true,
					"internalType": "address",
					"name": "host",
					"type": "address"
				},
				{
					"indexed": false,
					"internalType": "uint256",
					"name": "amount",
					"type": "uint256"
				},
				{
					"indexed": false,
					"internalType": "uint256",
					"name": "maxBet",
					"type": "uint256"
				}
			],
			"name": "DepositPlaced",
			"type": "event"
		},
		{
			"anonymous": false,
			"inputs": [
				{
					"indexed": true,
					"internalType": "address",
					"name": "host",
					"type": "address"
				},
				{
					"indexed": false,
					"internalType": "uint256",
					"name": "amount",
					"type": "uint256"
				},
				{
					"indexed": false,
					"internalType": "string",
					"name": "reason",
					"type": "string"
				}
			],
			"name": "DepositRefund",
			"type": "event"
		},
		{
			"anonymous": false,
			"inputs": [
				{
					"indexed": true,
					"internalType": "address",
					"name": "validator",
					"type": "address"
				},
				{
					"indexed": false,
					"internalType": "string",
					"name": "message",
					"type": "string"
				},
				{
					"indexed": false,
					"internalType": "uint256",
					"name": "validatedResult",
					"type": "uint256"
				}
			],
			"name": "EmptyResultRejected",
			"type": "event"
		},
		{
			"anonymous": false,
			"inputs": [
				{
					"indexed": false,
					"internalType": "string",
					"name": "reason",
					"type": "string"
				}
			],
			"name": "GameCanceled",
			"type": "event"
		},
		{
			"anonymous": false,
			"inputs": [
				{
					"indexed": true,
					"internalType": "address",
					"name": "host",
					"type": "address"
				},
				{
					"indexed": false,
					"internalType": "uint256",
					"name": "minBet",
					"type": "uint256"
				},
				{
					"indexed": false,
					"internalType": "uint256",
					"name": "minDeposit",
					"type": "uint256"
				},
				{
					"indexed": false,
					"internalType": "address[]",
					"name": "validators",
					"type": "address[]"
				},
				{
					"indexed": false,
					"internalType": "uint8",
					"name": "validatorThreshold",
					"type": "uint8"
				}
			],
			"name": "GameCreated",
			"type": "event"
		},
		{
			"anonymous": false,
			"inputs": [],
			"name": "GameFinished",
			"type": "event"
		},
		{
			"anonymous": false,
			"inputs": [
				{
					"indexed": false,
					"internalType": "uint256",
					"name": "cutOffBlockNumber",
					"type": "uint256"
				}
			],
			"name": "NoMoreBets",
			"type": "event"
		},
		{
			"anonymous": false,
			"inputs": [
				{
					"indexed": true,
					"internalType": "address",
					"name": "validator",
					"type": "address"
				},
				{
					"indexed": false,
					"internalType": "uint8",
					"name": "generatedResult",
					"type": "uint8"
				},
				{
					"indexed": false,
					"internalType": "uint8",
					"name": "validatedResult",
					"type": "uint8"
				}
			],
			"name": "ResultAccepted",
			"type": "event"
		},
		{
			"anonymous": false,
			"inputs": [
				{
					"indexed": false,
					"internalType": "uint8",
					"name": "generatedResult",
					"type": "uint8"
				}
			],
			"name": "ResultGenerated",
			"type": "event"
		},
		{
			"anonymous": false,
			"inputs": [
				{
					"indexed": true,
					"internalType": "address",
					"name": "validator",
					"type": "address"
				},
				{
					"indexed": false,
					"internalType": "uint8",
					"name": "generatedResult",
					"type": "uint8"
				},
				{
					"indexed": false,
					"internalType": "uint8",
					"name": "validatedResult",
					"type": "uint8"
				}
			],
			"name": "ResultRejected",
			"type": "event"
		},
		{
			"anonymous": false,
			"inputs": [
				{
					"indexed": true,
					"internalType": "address",
					"name": "validator",
					"type": "address"
				},
				{
					"indexed": false,
					"internalType": "string",
					"name": "message",
					"type": "string"
				},
				{
					"indexed": false,
					"internalType": "uint256",
					"name": "validatedResult",
					"type": "uint256"
				}
			],
			"name": "ResultRejected_MismatchPayout",
			"type": "event"
		},
		{
			"anonymous": false,
			"inputs": [
				{
					"indexed": false,
					"internalType": "uint8",
					"name": "validatedResult",
					"type": "uint8"
				}
			],
			"name": "ResultValidated",
			"type": "event"
		},
		{
			"anonymous": false,
			"inputs": [
				{
					"indexed": true,
					"internalType": "address",
					"name": "validator",
					"type": "address"
				},
				{
					"indexed": false,
					"internalType": "uint8",
					"name": "stepIndex",
					"type": "uint8"
				},
				{
					"indexed": false,
					"internalType": "bool",
					"name": "isSuccess",
					"type": "bool"
				},
				{
					"indexed": false,
					"internalType": "string",
					"name": "message",
					"type": "string"
				}
			],
			"name": "ValidationLog",
			"type": "event"
		},
		{
			"inputs": [
				{
					"internalType": "uint256",
					"name": "",
					"type": "uint256"
				}
			],
			"name": "approvedValidators",
			"outputs": [
				{
					"internalType": "address",
					"name": "",
					"type": "address"
				}
			],
			"stateMutability": "view",
			"type": "function"
		},
		{
			"inputs": [
				{
					"internalType": "uint256",
					"name": "",
					"type": "uint256"
				}
			],
			"name": "bets",
			"outputs": [
				{
					"internalType": "address",
					"name": "player",
					"type": "address"
				},
				{
					"internalType": "uint8",
					"name": "option",
					"type": "uint8"
				},
				{
					"internalType": "uint256",
					"name": "amount",
					"type": "uint256"
				}
			],
			"stateMutability": "view",
			"type": "function"
		},
		{
			"inputs": [],
			"name": "cutOffBlockNumber",
			"outputs": [
				{
					"internalType": "uint256",
					"name": "",
					"type": "uint256"
				}
			],
			"stateMutability": "view",
			"type": "function"
		},
		{
			"inputs": [],
			"name": "deposit",
			"outputs": [],
			"stateMutability": "payable",
			"type": "function"
		},
		{
			"inputs": [],
			"name": "generateResult",
			"outputs": [],
			"stateMutability": "nonpayable",
			"type": "function"
		},
		{
			"inputs": [],
			"name": "getApprovedValidators",
			"outputs": [
				{
					"internalType": "address[]",
					"name": "",
					"type": "address[]"
				}
			],
			"stateMutability": "view",
			"type": "function"
		},
		{
			"inputs": [],
			"name": "getBetsCount",
			"outputs": [
				{
					"internalType": "uint256",
					"name": "",
					"type": "uint256"
				}
			],
			"stateMutability": "view",
			"type": "function"
		},
		{
			"inputs": [],
			"name": "getRejectedValidators",
			"outputs": [
				{
					"internalType": "address[]",
					"name": "",
					"type": "address[]"
				}
			],
			"stateMutability": "view",
			"type": "function"
		},
		{
			"inputs": [],
			"name": "getStatus",
			"outputs": [
				{
					"internalType": "uint8",
					"name": "",
					"type": "uint8"
				}
			],
			"stateMutability": "view",
			"type": "function"
		},
		{
			"inputs": [],
			"name": "getTotalBetsAmount",
			"outputs": [
				{
					"internalType": "uint256",
					"name": "",
					"type": "uint256"
				}
			],
			"stateMutability": "view",
			"type": "function"
		},
		{
			"inputs": [],
			"name": "host",
			"outputs": [
				{
					"internalType": "address",
					"name": "",
					"type": "address"
				}
			],
			"stateMutability": "view",
			"type": "function"
		},
		{
			"inputs": [],
			"name": "hostDeposit",
			"outputs": [
				{
					"internalType": "uint256",
					"name": "",
					"type": "uint256"
				}
			],
			"stateMutability": "view",
			"type": "function"
		},
		{
			"inputs": [
				{
					"internalType": "uint8",
					"name": "number",
					"type": "uint8"
				}
			],
			"name": "isInBlackSet",
			"outputs": [
				{
					"internalType": "bool",
					"name": "",
					"type": "bool"
				}
			],
			"stateMutability": "view",
			"type": "function"
		},
		{
			"inputs": [
				{
					"internalType": "uint8",
					"name": "number",
					"type": "uint8"
				}
			],
			"name": "isInEvenSet",
			"outputs": [
				{
					"internalType": "bool",
					"name": "",
					"type": "bool"
				}
			],
			"stateMutability": "pure",
			"type": "function"
		},
		{
			"inputs": [
				{
					"internalType": "uint8",
					"name": "number",
					"type": "uint8"
				}
			],
			"name": "isInFirstColumnSet",
			"outputs": [
				{
					"internalType": "bool",
					"name": "",
					"type": "bool"
				}
			],
			"stateMutability": "view",
			"type": "function"
		},
		{
			"inputs": [
				{
					"internalType": "uint8",
					"name": "number",
					"type": "uint8"
				}
			],
			"name": "isInFirstDozenSet",
			"outputs": [
				{
					"internalType": "bool",
					"name": "",
					"type": "bool"
				}
			],
			"stateMutability": "view",
			"type": "function"
		},
		{
			"inputs": [
				{
					"internalType": "uint8",
					"name": "number",
					"type": "uint8"
				}
			],
			"name": "isInHighSet",
			"outputs": [
				{
					"internalType": "bool",
					"name": "",
					"type": "bool"
				}
			],
			"stateMutability": "pure",
			"type": "function"
		},
		{
			"inputs": [
				{
					"internalType": "uint8",
					"name": "number",
					"type": "uint8"
				}
			],
			"name": "isInLowSet",
			"outputs": [
				{
					"internalType": "bool",
					"name": "",
					"type": "bool"
				}
			],
			"stateMutability": "pure",
			"type": "function"
		},
		{
			"inputs": [
				{
					"internalType": "uint8",
					"name": "number",
					"type": "uint8"
				}
			],
			"name": "isInOddSet",
			"outputs": [
				{
					"internalType": "bool",
					"name": "",
					"type": "bool"
				}
			],
			"stateMutability": "pure",
			"type": "function"
		},
		{
			"inputs": [
				{
					"internalType": "uint8",
					"name": "number",
					"type": "uint8"
				}
			],
			"name": "isInRedSet",
			"outputs": [
				{
					"internalType": "bool",
					"name": "",
					"type": "bool"
				}
			],
			"stateMutability": "view",
			"type": "function"
		},
		{
			"inputs": [
				{
					"internalType": "uint8",
					"name": "number",
					"type": "uint8"
				}
			],
			"name": "isInSecondColumnSet",
			"outputs": [
				{
					"internalType": "bool",
					"name": "",
					"type": "bool"
				}
			],
			"stateMutability": "view",
			"type": "function"
		},
		{
			"inputs": [
				{
					"internalType": "uint8",
					"name": "number",
					"type": "uint8"
				}
			],
			"name": "isInSecondDozenSet",
			"outputs": [
				{
					"internalType": "bool",
					"name": "",
					"type": "bool"
				}
			],
			"stateMutability": "view",
			"type": "function"
		},
		{
			"inputs": [
				{
					"internalType": "uint8",
					"name": "number",
					"type": "uint8"
				}
			],
			"name": "isInThirdColumnSet",
			"outputs": [
				{
					"internalType": "bool",
					"name": "",
					"type": "bool"
				}
			],
			"stateMutability": "view",
			"type": "function"
		},
		{
			"inputs": [
				{
					"internalType": "uint8",
					"name": "number",
					"type": "uint8"
				}
			],
			"name": "isInThirdDozenSet",
			"outputs": [
				{
					"internalType": "bool",
					"name": "",
					"type": "bool"
				}
			],
			"stateMutability": "view",
			"type": "function"
		},
		{
			"inputs": [],
			"name": "maxBet",
			"outputs": [
				{
					"internalType": "uint256",
					"name": "",
					"type": "uint256"
				}
			],
			"stateMutability": "view",
			"type": "function"
		},
		{
			"inputs": [],
			"name": "minBet",
			"outputs": [
				{
					"internalType": "uint256",
					"name": "",
					"type": "uint256"
				}
			],
			"stateMutability": "view",
			"type": "function"
		},
		{
			"inputs": [],
			"name": "minDeposit",
			"outputs": [
				{
					"internalType": "uint256",
					"name": "",
					"type": "uint256"
				}
			],
			"stateMutability": "view",
			"type": "function"
		},
		{
			"inputs": [],
			"name": "noMoreBets",
			"outputs": [],
			"stateMutability": "nonpayable",
			"type": "function"
		},
		{
			"inputs": [],
			"name": "owner",
			"outputs": [
				{
					"internalType": "address",
					"name": "",
					"type": "address"
				}
			],
			"stateMutability": "view",
			"type": "function"
		},
		{
			"inputs": [
				{
					"internalType": "uint8",
					"name": "option",
					"type": "uint8"
				}
			],
			"name": "placeBet",
			"outputs": [],
			"stateMutability": "payable",
			"type": "function"
		},
		{
			"inputs": [
				{
					"internalType": "uint256",
					"name": "",
					"type": "uint256"
				}
			],
			"name": "rejectedValidators",
			"outputs": [
				{
					"internalType": "address",
					"name": "",
					"type": "address"
				}
			],
			"stateMutability": "view",
			"type": "function"
		},
		{
			"inputs": [],
			"name": "result",
			"outputs": [
				{
					"internalType": "uint8",
					"name": "",
					"type": "uint8"
				}
			],
			"stateMutability": "view",
			"type": "function"
		},
		{
			"inputs": [],
			"name": "status",
			"outputs": [
				{
					"internalType": "uint8",
					"name": "",
					"type": "uint8"
				}
			],
			"stateMutability": "view",
			"type": "function"
		},
		{
			"inputs": [],
			"name": "validateResult",
			"outputs": [],
			"stateMutability": "nonpayable",
			"type": "function"
		},
		{
			"inputs": [],
			"name": "validatorThreshold",
			"outputs": [
				{
					"internalType": "uint8",
					"name": "",
					"type": "uint8"
				}
			],
			"stateMutability": "view",
			"type": "function"
		},
		{
			"inputs": [
				{
					"internalType": "uint256",
					"name": "",
					"type": "uint256"
				}
			],
			"name": "validators",
			"outputs": [
				{
					"internalType": "address",
					"name": "",
					"type": "address"
				}
			],
			"stateMutability": "view",
			"type": "function"
		},
		{
			"inputs": [
				{
					"internalType": "uint256",
					"name": "totalPayout",
					"type": "uint256"
				},
				{
					"internalType": "uint256",
					"name": "hostReturn",
					"type": "uint256"
				}
			],
			"name": "verifyPayoutCoverage",
			"outputs": [
				{
					"internalType": "bool",
					"name": "",
					"type": "bool"
				}
			],
			"stateMutability": "view",
			"type": "function"
		},
		{
			"inputs": [],
			"name": "withdraw",
			"outputs": [],
			"stateMutability": "nonpayable",
			"type": "function"
		}
	]
}