{
	"data": {
		"bytecode": {
			"linkReferences": {},
			"object": "6102c060405260016080908152600260a052600360c052600460e052600561010052600661012052600761014052600861016052600961018052600a6101a052600b6101c052600c6101e052600d61020052600e61022052600f6102405260106102605260116102805260126102a081905261007c915f9161072a565b5060408051610240810182526013815260146020808301919091526015928201929092526016606082015260176080820152601860a0820152601960c0820152601a60e0820152601b610100820152601c610120820152601d610140820152601e610160820152601f6101808201526101a081019190915260216101c082015260226101e08201526023610200820152602461022082015261012290600190601261072a565b5060408051610240810182526001815260036020808301919091526005928201929092526007606082015260096080820152600c60a0820152600e60c0820152601060e0820152601261010082018190526013610120830152601561014083015260176101608301526019610180830152601b6101a0830152601e6101c08301526101e0820192909252602261020082015260246102208201526101c9916002919061072a565b506040805161024081018252600281526004602082015260069181019190915260086060820152600a6080820152600b60a0820152600d60c0820152600f60e08201526011610100820152601461012082015260166101408201526018610160820152601a610180820152601c6101a0820152601d6101c0820152601f6101e08201526021610200820152602361022082015261026a90600390601261072a565b506040805161024081018252600281526004602080830182905260069383019390935260086060830152600a6080830152600c60a0830152600e60c0830152601060e083015260126101008301819052601461012084015260166101408401526018610160840152601a610180840152601c6101a0840152601e6101c08401526101e08301939093526022610200830152602461022083015261030f9290919061072a565b506040805161024081018252600181526003602082015260059181018290526007606082015260096080820152600b60a0820152600d60c0820152600f60e082015260116101008201526013610120820152601561014082015260176101608201526019610180820152601b6101a0820152601d6101c0820152601f6101e0820152602161020082015260236102208201526103ad9190601261072a565b5060408051610180810182526001815260046020820152600791810191909152600a6060820152600d6080820152601060a0820152601360c0820152601660e08201526019610100820152601c610120820152601f610140820152602261016082015261041e90600690600c61072a565b506040805161018081018252600281526005602080830191909152600892820192909252600b6060820152600e6080820152601160a0820152601460c0820152601760e0820152601a610100820152601d610120820152610140810191909152602361016082015261049490600790600c61072a565b5060408051610180810182526003815260066020820152600991810191909152600c60608201819052600f6080830152601260a0830152601560c0830152601860e0830152601b610100830152601e610120830152602161014083015260246101608301526105059160089161072a565b50604080516101808101825260018152600260208201526003918101919091526004606082015260056080820152600660a0820152600760c0820152600860e082015260096101008201819052600a610120830152600b610140830152600c6101608301819052610576929061072a565b506040805161018081018252600d8152600e6020820152600f918101919091526010606082015260116080820152601260a0820152601360c0820152601460e082015260156101008201526016610120820152601761014082015260186101608201526105e790600a90600c61072a565b50604080516101808101825260198152601a602080830191909152601b92820192909252601c6060820152601d6080820152601e60a0820152601f60c082015260e0810191909152602161010082015260226101208201526023610140820152602461016082015261065d90600b90600c61072a565b50348015610669575f80fd5b50604051613ea9380380613ea983398101604081905261068891610860565b600c80546001600160a01b0319166001600160a01b038616179055600d839055600e805460ff1916905581516106c59060129060208501906107ba565b506011805461ff00191661010060ff8416021790556040516001600160a01b038516907f7bc06ad6af97e4997115d8b8ec4270105092a2dc99a8ba73a35de86c49ab8d9b9061071990869086908690610956565b60405180910390a2505050506109b8565b6001830191839082156107aa579160200282015f5b8382111561077c57835183826101000a81548160ff021916908360ff16021790555092602001926001016020815f0104928301926001030261073f565b80156107a85782816101000a81549060ff02191690556001016020815f0104928301926001030261077c565b505b506107b692915061080d565b5090565b828054828255905f5260205f209081019282156107aa579160200282015b828111156107aa57825182546001600160a01b0319166001600160a01b039091161782556020909201916001909101906107d8565b5b808211156107b6575f815560010161080e565b80516001600160a01b0381168114610837575f80fd5b919050565b634e487b7160e01b5f52604160045260245ffd5b805160ff81168114610837575f80fd5b5f805f8060808587031215610873575f80fd5b61087c85610821565b6020860151604087015191955093506001600160401b0381111561089e575f80fd5b8501601f810187136108ae575f80fd5b80516001600160401b038111156108c7576108c761083c565b604051600582901b90603f8201601f191681016001600160401b03811182821017156108f5576108f561083c565b60405291825260208184018101929081018a841115610912575f80fd5b6020850194505b838510156109385761092a85610821565b815260209485019401610919565b50945061094b9250505060608601610850565b905092959194509250565b5f60608201858352606060208401528085518083526080850191506020870192505f5b818110156109a05783516001600160a01b0316835260209384019390920191600101610979565b5050809250505060ff83166040830152949350505050565b6134e4806109c55f395ff3fe608060405260043610610280575f3560e01c80637f3be3ed11610155578063cf3c5d16116100be578063e4ca650d11610078578063e4ca650d1461075e578063e71f766e1461077d578063e8e0fca51461079c578063f2d18f42146107bb578063f437bc59146107e9578063fe5385af14610808575f80fd5b8063cf3c5d16146106b7578063d0e30db0146106e5578063d1edb09e146106ed578063d4f7a28514610701578063d9cc76ad14610720578063db7f11db1461073f575f80fd5b80639619367d1161010f5780639619367d14610607578063972b533d1461061c578063a38bd74c1461063b578063a6ede84a1461065a578063b251339914610679578063be47ae1314610698575f80fd5b80637f3be3ed1461056d57806387171eb71461058c5780638c7e347a146105a15780638d8c1286146105b55780638e4bf820146105d45780638fffebca146105e8575f80fd5b80632e5b2168116101f75780634760fff3116101b15780634760fff3146104cb5780634d7d93fe146104ea5780634e69d560146105095780635dcab1d814610520578063653721471461053f5780636f91a66f14610558575f80fd5b80632e5b21681461040d5780632eca4c2814610430578063322f89201461044e57806335aa2e441461046d57806338cceb4f146104a457806343046844146104b8575f80fd5b80631fac0ffd116102485780631fac0ffd14610332578063200d2ed21461035157806322af00fa1461036a57806323fe318e146103b05780632605c251146103cf57806328dddc1b146103ee575f80fd5b8063125861721461028457806319299832146102b8578063195ba0eb146102e95780631b2abc77146103085780631dbe2e0e1461031e575b5f80fd5b34801561028f575f80fd5b506102a361029e366004613047565b610827565b60405190151581526020015b60405180910390f35b3480156102c3575f80fd5b506102d76102d236600461306e565b61088e565b60405160ff90911681526020016102af565b3480156102f4575f80fd5b506102d761030336600461306e565b6108b7565b348015610313575f80fd5b5061031c6108c6565b005b348015610329575f80fd5b5061031c610966565b34801561033d575f80fd5b506102d761034c36600461306e565b610bb5565b34801561035c575f80fd5b50600e546102d79060ff1681565b348015610375575f80fd5b5061038961038436600461306e565b610bc4565b604080516001600160a01b03909416845260ff9092166020840152908201526060016102af565b3480156103bb575f80fd5b506102d76103ca36600461306e565b610c05565b3480156103da575f80fd5b506102a36103e9366004613047565b610c14565b3480156103f9575f80fd5b506102a3610408366004613047565b610c73565b348015610418575f80fd5b5061042260185481565b6040519081526020016102af565b34801561043b575f80fd5b506011546102d790610100900460ff1681565b348015610459575f80fd5b506102d761046836600461306e565b610cd2565b348015610478575f80fd5b5061048c61048736600461306e565b610ce1565b6040516001600160a01b0390911681526020016102af565b3480156104af575f80fd5b5061031c610d09565b61031c6104c6366004613047565b6116fc565b3480156104d6575f80fd5b506102a36104e5366004613047565b611913565b3480156104f5575f80fd5b506102a3610504366004613047565b611972565b348015610514575f80fd5b50600e5460ff166102d7565b34801561052b575f80fd5b506102a361053a366004613047565b6119d1565b34801561054a575f80fd5b506011546102d79060ff1681565b348015610563575f80fd5b5061042260105481565b348015610578575f80fd5b5061048c61058736600461306e565b611a30565b348015610597575f80fd5b5061042260175481565b3480156105ac575f80fd5b50600f54610422565b3480156105c0575f80fd5b5061048c6105cf36600461306e565b611a3f565b3480156105df575f80fd5b5061031c611a4e565b3480156105f3575f80fd5b506102a3610602366004613047565b612460565b348015610612575f80fd5b50610422600d5481565b348015610627575f80fd5b506102a3610636366004613047565b6124bf565b348015610646575f80fd5b506102a3610655366004613047565b61251d565b348015610665575f80fd5b506102d761067436600461306e565b61257c565b348015610684575f80fd5b506102d761069336600461306e565b61258b565b3480156106a3575f80fd5b506102d76106b236600461306e565b61259a565b3480156106c2575f80fd5b506102a36106d1366004613085565b60166020525f908152604090205460ff1681565b61031c6125a9565b3480156106f8575f80fd5b506104226126da565b34801561070c575f80fd5b506102d761071b36600461306e565b612726565b34801561072b575f80fd5b506102a361073a366004613047565b612735565b34801561074a575f80fd5b506102d761075936600461306e565b612794565b348015610769575f80fd5b506102a3610778366004613047565b6127a3565b348015610788575f80fd5b506102a3610797366004613047565b612802565b3480156107a7575f80fd5b506102d76107b636600461306e565b612861565b3480156107c6575f80fd5b506102a36107d5366004613085565b60156020525f908152604090205460ff1681565b3480156107f4575f80fd5b50600c5461048c906001600160a01b031681565b348015610813575f80fd5b506102d761082236600461306e565b61286f565b5f805b600c8160ff161015610886578260ff1660068260ff16600c8110610850576108506130ab565b602081049091015460ff601f9092166101000a900416036108745750600192915050565b8061087e816130d3565b91505061082a565b505f92915050565b600881600c811061089d575f80fd5b60209182820401919006915054906101000a900460ff1681565b600981600c811061089d575f80fd5b600e5460ff166001146109175760405162461bcd60e51b8152602060048201526014602482015273139bc81b5bdc994818995d1cc8185b1b1bddd95960621b60448201526064015b60405180910390fd5b600e805460ff191660021790554360108190556040517f2d21e9397283a99c7f2df56baf635aab0655f2dea12185fac963ac115be30f939161095c9190815260200190565b60405180910390a1565b600e5460ff166002146109b25760405162461bcd60e51b8152602060048201526014602482015273139bc81b5bdc994818995d1cc8185b1b1bddd95960621b604482015260640161090e565b600c546001600160a01b03163314610a0c5760405162461bcd60e51b815260206004820152601d60248201527f4f6e6c7920686f73742063616e2067656e657261746520726573756c74000000604482015260640161090e565b601054610a1b90600c906130f1565b610a269060016130f1565b431015610a755760405162461bcd60e51b815260206004820152601860248201527f426c6f636b206e756d626572206e6f7420726561636865640000000000000000604482015260640161090e565b5f6010546001610a8591906130f1565b600c5460405160609190911b6001600160601b0319166020820152904091505f9060340160405160208183030381529060405290505f5b600f54811015610b1f5781600f8281548110610ada57610ada6130ab565b5f91825260209182902060029091020154604051610b0593926001600160a01b039092169101613121565b60408051601f198184030181529190529150600101610abc565b505f8282604051602001610b34929190613148565b60408051601f198184030181529190528051602090910120905080610b5a602682613175565b6011805460ff9290921660ff199283168117909155600e80549092166003179091556040519081527f4898f0a86e5d5b202a6285b46db8e265f964e837829f7d6bf7d1c072c6b88c099060200160405180910390a150505050565b600b81600c811061089d575f80fd5b600f8181548110610bd3575f80fd5b5f918252602090912060029091020180546001909101546001600160a01b0382169250600160a01b90910460ff169083565b6002816012811061089d575f80fd5b5f805b600c8160ff161015610886578260ff16600a8260ff16600c8110610c3d57610c3d6130ab565b602081049091015460ff601f9092166101000a90041603610c615750600192915050565b80610c6b816130d3565b915050610c17565b5f805b60128160ff161015610886578260ff1660048260ff1660128110610c9c57610c9c6130ab565b602081049091015460ff601f9092166101000a90041603610cc05750600192915050565b80610cca816130d3565b915050610c76565b600a81600c811061089d575f80fd5b60128181548110610cf0575f80fd5b5f918252602090912001546001600160a01b0316905081565b600e5460ff16600314610d555760405162461bcd60e51b815260206004820152601460248201527314995cdd5b1d081b9bdd0819d95b995c985d195960621b604482015260640161090e565b601054610d6490600c906130f1565b610d6f9060016130f1565b431015610dcf5760405162461bcd60e51b815260206004820152602860248201527f57616974206174206c6561737420313220626c6f636b732061667465722067656044820152673732b930ba34b7b760c11b606482015260840161090e565b610dd83361287e565b610e245760405162461bcd60e51b815260206004820152601d60248201527f4f6e6c7920612076616c696461746f722063616e2076616c6964617465000000604482015260640161090e565b5f6010546001610e3491906130f1565b905080405f8051602061348f8339815191526001610e51846128d2565b610e5a846129dd565b604051602001610e6b929190613188565b60408051601f19818403018152828252602083018790529082018590529060600160408051601f1981840301815290829052610ea8939291613224565b60405180910390a1600f545f90610ec09060016130f1565b67ffffffffffffffff811115610ed857610ed861325b565b604051908082528060200260200182016040528015610f01578160200160208202803683370190505b50600c5481519192506001600160a01b03169082905f90610f2457610f246130ab565b60200260200101906001600160a01b031690816001600160a01b0316815250505f5b600f54811015610fb857600f8181548110610f6357610f636130ab565b5f9182526020909120600290910201546001600160a01b031682610f888360016130f1565b81518110610f9857610f986130ab565b6001600160a01b0390921660209283029190910190910152600101610f46565b505f610fc382612b99565b600c5460405160609190911b6001600160601b03191660208201529091505f9060340160405160208183030381529060405290505f5b600f5481101561105c5781600f8281548110611017576110176130ab565b5f9182526020918290206002909102015460405161104293926001600160a01b039092169101613121565b60408051601f198184030181529190529150600101610ff9565b505f8051602061348f83398151915260028360405160200161107e919061326f565b6040516020818303038152906040528560405160200161109e91906132a0565b60408051601f19818403018152908290526110ba939291613224565b60405180910390a15f8051602061348f83398151915260036110db83612c92565b6040516020016110eb91906132eb565b60408051601f198184030181529082905261110892918590613224565b60405180910390a15f8482604051602001611124929190613148565b6040516020818303038152906040528051906020012090505f8051602061348f8339815191526004611155836129dd565b6040516020016111659190613326565b60408051601f1981840301815282825260208301869052910160408051601f198184030181529082905261119a939291613224565b60405180910390a1805f6111af602683613175565b90505f8051602061348f83398151915260056111cb60266128d2565b6111d78460ff166128d2565b6040516020016111e8929190613367565b60408051601f1981840301815282825260ff86166020840152910160408051601f198184030181529082905261121f939291613224565b60405180910390a160115460ff82811691161461157557335f9081526016602052604090205460ff161561129f5760405162461bcd60e51b815260206004820152602160248201527f56616c696461746f7220616c7265616479207369676e6564206d69736d6174636044820152600d60fb1b606482015260840161090e565b6014805460018082019092557fce6d7b5282bd9a3661ae061feed1dbda4e52ab073b1f9285be6e155d9c38d4ec0180546001600160a01b031916339081179091555f90815260166020908152604091829020805460ff1916909317909255601154815160ff8581168252909116928101929092527f4ba207caeddfefdadccb23fbbf2401bc61a191bb9f71680b9c0cd8f84901186a910160405180910390a160115460145461010090910460ff1611611570575f5b600f548110156114bc575f600f8281548110611372576113726130ab565b5f91825260208083206040805160608101825260029490940290910180546001600160a01b038116808652600160a01b90910460ff169385019390935260010154838201819052905192945090915f6040518083038185875af1925050503d805f81146113fa576040519150601f19603f3d011682016040523d82523d5f602084013e6113ff565b606091505b505082516040808501518151828152600692810192909252651499599d5b9960d21b606083015260208201529192506001600160a01b0316907fadd681b72722e953fa4e18f6819d1cb78d0ec24ce1ee69a6c7ebdc6f29ac10d89060800160405180910390a2806114b25760405162461bcd60e51b815260206004820152601860248201527f526566756e6420746f2067616d626c6572206661696c65640000000000000000604482015260640161090e565b5050600101611354565b50600c5460408051818152600e818301526d1499599d5b99081d1bc81a1bdcdd60921b606082015247602082015290516001600160a01b03909216917fadd681b72722e953fa4e18f6819d1cb78d0ec24ce1ee69a6c7ebdc6f29ac10d89181900360800190a2600c546040516001600160a01b03909116904780156108fc02915f818181858888f19350505050158015611558573d5f803e3d5ffd5b5050600e805460ff1916600517905550505050505050565b6116f2565b335f9081526015602052604090205460ff16156115d45760405162461bcd60e51b815260206004820181905260248201527f56616c696461746f7220616c7265616479207369676e6564206d617463686564604482015260640161090e565b60115460ff8281169116146116365760405162461bcd60e51b815260206004820152602260248201527f53746f72656420726573756c7420213d207265636f6d707574656420726573756044820152611b1d60f21b606482015260840161090e565b60138054600181810183557f66de8ffda797e3de9c05e8fc57b3bf0ec28a930d40b0d285d93c06501cf6a09090910180546001600160a01b031916339081179091555f908152601560205260409020805460ff19169091179055601154905461010090910460ff16116116f25760115460405160ff90911681527f5f438d100d0c0fb18e88113110bf411fd18c9a557c03e394cd32997b5055f9ae9060200160405180910390a1600e805460ff191660041790556116f2611a4e565b5050505050505050565b60318160ff1611156117505760405162461bcd60e51b815260206004820152601f60248201527f4f7074696f6e206d757374206265206265747765656e203020616e6420333700604482015260640161090e565b600d543410156117ae5760405162461bcd60e51b815260206004820152602360248201527f42657420616d6f756e742069732062656c6f7720746865206d696e696d756d2060448201526218995d60ea1b606482015260840161090e565b600a6117bc610168476133b7565b6117c691906133ce565b34106118205760405162461bcd60e51b815260206004820152602360248201527f42657420616d6f756e742069732061626f766520746865206d6178696d756d2060448201526218995d60ea1b606482015260840161090e565b604080516060810182523380825260ff848116602080850182815234868801818152600f80546001810182555f91909152975160029098027f8d1108e10bcb7c27dddfc02ed9d693a074039d026cf4ea4240b40f7d581ac802810180549451909716600160a01b026001600160a81b03199094166001600160a01b039099169890981792909217909455517f8d1108e10bcb7c27dddfc02ed9d693a074039d026cf4ea4240b40f7d581ac80390950194909455845190815292830152917f9f6b4cced64244a64465098f682029975b1614400b96bc6bd12c668083719166910160405180910390a26119106108c6565b50565b5f805b60128160ff161015610886578260ff1660028260ff166012811061193c5761193c6130ab565b602081049091015460ff601f9092166101000a900416036119605750600192915050565b8061196a816130d3565b915050611916565b5f805b600c8160ff161015610886578260ff1660098260ff16600c811061199b5761199b6130ab565b602081049091015460ff601f9092166101000a900416036119bf5750600192915050565b806119c9816130d3565b915050611975565b5f805b60128160ff161015610886578260ff1660038260ff16601281106119fa576119fa6130ab565b602081049091015460ff601f9092166101000a90041603611a1e5750600192915050565b80611a28816130d3565b9150506119d4565b60148181548110610cf0575f80fd5b60138181548110610cf0575f80fd5b600e5460ff16600414611aa35760405162461bcd60e51b815260206004820152601860248201527f526573756c74206e6f742076616c696461746564207965740000000000000000604482015260640161090e565b5f5b600f548110156123e7575f600f8281548110611ac357611ac36130ab565b5f918252602090912060029091020154600160a01b900460ff1610801590611b1857506025600f8281548110611afb57611afb6130ab565b5f918252602090912060029091020154600160a01b900460ff1611155b15611cc857601154600f805460ff9092169183908110611b3a57611b3a6130ab565b5f918252602090912060029091020154600160a01b900460ff1603611cc357600f8181548110611b6c57611b6c6130ab565b905f5260205f2090600202015f015f9054906101000a90046001600160a01b03166001600160a01b03166108fc600a610168600f8581548110611bb157611bb16130ab565b905f5260205f20906002020160010154611bcb91906133b7565b611bd591906133ce565b6040518115909202915f818181858888f19350505050158015611bfa573d5f803e3d5ffd5b50600f8181548110611c0e57611c0e6130ab565b5f918252602090912060029091020154600f80546001600160a01b03909216915f8051602061346f833981519152919084908110611c4e57611c4e6130ab565b905f5260205f2090600202015f0160149054906101000a900460ff16600a610168600f8681548110611c8257611c826130ab565b905f5260205f20906002020160010154611c9c91906133b7565b611ca691906133ce565b6040805160ff909316835260208301919091520160405180910390a25b6123e7565b600f8181548110611cdb57611cdb6130ab565b5f918252602090912060029091020154600160a01b900460ff16602603611e3757601154611d0b9060ff166124bf565b15611cc357600f8181548110611d2357611d236130ab565b905f5260205f2090600202015f015f9054906101000a90046001600160a01b03166001600160a01b03166108fc600a6014600f8581548110611d6757611d676130ab565b905f5260205f20906002020160010154611d8191906133b7565b611d8b91906133ce565b6040518115909202915f818181858888f19350505050158015611db0573d5f803e3d5ffd5b50600f8181548110611dc457611dc46130ab565b5f918252602090912060029091020154600f80546001600160a01b03909216915f8051602061346f833981519152919084908110611e0457611e046130ab565b905f5260205f2090600202015f0160149054906101000a900460ff16600a6014600f8681548110611c8257611c826130ab565b600f8181548110611e4a57611e4a6130ab565b5f918252602090912060029091020154600160a01b900460ff16602703611e7a57601154611d0b9060ff166127a3565b600f8181548110611e8d57611e8d6130ab565b5f918252602090912060029091020154600160a01b900460ff16602803611ebd57601154611d0b9060ff16611913565b600f8181548110611ed057611ed06130ab565b5f918252602090912060029091020154600160a01b900460ff16602903611f0057601154611d0b9060ff166119d1565b600f8181548110611f1357611f136130ab565b5f918252602090912060029091020154600160a01b900460ff16602a03611f4357601154611d0b9060ff16610c73565b600f8181548110611f5657611f566130ab565b5f918252602090912060029091020154600160a01b900460ff16602b03611f8657601154611d0b9060ff16612735565b600f8181548110611f9957611f996130ab565b5f918252602090912060029091020154600160a01b900460ff16602c0361212f57601154611fc99060ff16610827565b1561212a57600f8181548110611fe157611fe16130ab565b5f918252602090912060029091020154600f80546001600160a01b03909216916108fc91600a9181908690811061201a5761201a6130ab565b905f5260205f2090600202016001015461203491906133b7565b61203e91906133ce565b6040518115909202915f818181858888f19350505050158015612063573d5f803e3d5ffd5b50600f8181548110612077576120776130ab565b5f918252602090912060029091020154600f80546001600160a01b03909216915f8051602061346f8339815191529190849081106120b7576120b76130ab565b905f5260205f2090600202015f0160149054906101000a900460ff16600a600f8086815481106120e9576120e96130ab565b905f5260205f2090600202016001015461210391906133b7565b61210d91906133ce565b6040805160ff909316835260208301919091520160405180910390a25b6123df565b600f8181548110612142576121426130ab565b5f918252602090912060029091020154600160a01b900460ff16602d0361217257601154611fc99060ff16612460565b600f8181548110612185576121856130ab565b5f918252602090912060029091020154600160a01b900460ff16602e036121b557601154611fc99060ff16612802565b600f81815481106121c8576121c86130ab565b5f918252602090912060029091020154600160a01b900460ff16602f036121f857601154611fc99060ff16611972565b600f818154811061220b5761220b6130ab565b5f918252602090912060029091020154600160a01b900460ff1660300361223b57601154611fc99060ff16610c14565b600f818154811061224e5761224e6130ab565b5f918252602090912060029091020154600160a01b900460ff166031036123df5760115461227e9060ff1661251d565b156123df57600f8181548110612296576122966130ab565b5f918252602090912060029091020154600f80546001600160a01b03909216916108fc91600a918190869081106122cf576122cf6130ab565b905f5260205f209060020201600101546122e991906133b7565b6122f391906133ce565b6040518115909202915f818181858888f19350505050158015612318573d5f803e3d5ffd5b50600f818154811061232c5761232c6130ab565b5f918252602090912060029091020154600f80546001600160a01b03909216915f8051602061346f83398151915291908490811061236c5761236c6130ab565b905f5260205f2090600202015f0160149054906101000a900460ff16600a600f80868154811061239e5761239e6130ab565b905f5260205f209060020201600101546123b891906133b7565b6123c291906133ce565b6040805160ff909316835260208301919091520160405180910390a25b600101611aa5565b50600c546040514781526001600160a01b03909116907fd4ba6fec82d9b0e8ffe50b9fed9e4be3b25c984ce1e0e016405a5528726e8a2c9060200160405180910390a2600c546040516001600160a01b03909116904780156108fc02915f818181858888f19350505050158015611910573d5f803e3d5ffd5b5f805b600c8160ff161015610886578260ff1660078260ff16600c8110612489576124896130ab565b602081049091015460ff601f9092166101000a900416036124ad5750600192915050565b806124b7816130d3565b915050612463565b5f805b60128160ff161015610886578260ff165f8260ff16601281106124e7576124e76130ab565b602081049091015460ff601f9092166101000a9004160361250b5750600192915050565b80612515816130d3565b9150506124c2565b5f805b600c8160ff161015610886578260ff16600b8260ff16600c8110612546576125466130ab565b602081049091015460ff601f9092166101000a9004160361256a5750600192915050565b80612574816130d3565b915050612520565b6003816012811061089d575f80fd5b600781600c811061089d575f80fd5b6001816012811061089d575f80fd5b600e5460ff16156125f55760405162461bcd60e51b815260206004820152601660248201527511195c1bdcda5d081a5cc81b9bdd08185b1b1bddd95960521b604482015260640161090e565b600c546001600160a01b031633146126475760405162461bcd60e51b815260206004820152601560248201527413db9b1e481a1bdcdd0818d85b8819195c1bdcda5d605a1b604482015260640161090e565b5f341161268f5760405162461bcd60e51b8152602060048201526016602482015275125b9d985b1a590819195c1bdcda5d08185b5bdd5b9d60521b604482015260640161090e565b600e805460ff1916600117905560405133907f5a6c38b61cfc87b08186ec74738f787ec19c78c75b5b70442f580362abd96d29906126d09034815260200190565b60405180910390a2565b5f80805b600f5481101561272057600f81815481106126fb576126fb6130ab565b905f5260205f209060020201600101548261271691906130f1565b91506001016126de565b50919050565b6004816012811061089d575f80fd5b5f805b60128160ff161015610886578260ff1660058260ff166012811061275e5761275e6130ab565b602081049091015460ff601f9092166101000a900416036127825750600192915050565b8061278c816130d3565b915050612738565b600681600c811061089d575f80fd5b5f805b60128160ff161015610886578260ff1660018260ff16601281106127cc576127cc6130ab565b602081049091015460ff601f9092166101000a900416036127f05750600192915050565b806127fa816130d3565b9150506127a6565b5f805b600c8160ff161015610886578260ff1660088260ff16600c811061282b5761282b6130ab565b602081049091015460ff601f9092166101000a9004160361284f5750600192915050565b80612859816130d3565b915050612805565b5f816012811061089d575f80fd5b6005816012811061089d575f80fd5b5f805b60125481101561088657826001600160a01b0316601282815481106128a8576128a86130ab565b5f918252602090912001546001600160a01b0316036128ca5750600192915050565b600101612881565b6060815f036128f85750506040805180820190915260018152600360fc1b602082015290565b815f5b8115612921578061290b816133e1565b915061291a9050600a836133ce565b91506128fb565b5f8167ffffffffffffffff81111561293b5761293b61325b565b6040519080825280601f01601f191660200182016040528015612965576020820181803683370190505b508593509050815b83156129d4578061297d816133f9565b915061298c9050600a85613175565b6129979060306130f1565b60f81b8282815181106129ac576129ac6130ab565b60200101906001600160f81b03191690815f1a9053506129cd600a856133ce565b935061296d565b50949350505050565b604080518082018252601081526f181899199a1a9b1b9c1cb0b131b232b360811b602082015281516042808252608082019093526060925f9190602082018180368337019050509050600360fc1b815f81518110612a3d57612a3d6130ab565b60200101906001600160f81b03191690815f1a905350600f60fb1b81600181518110612a6b57612a6b6130ab565b60200101906001600160f81b03191690815f1a9053505f5b6020811015612b9157826004868360208110612aa157612aa16130ab565b1a60f81b6001600160f81b031916901c60f81c60ff1681518110612ac757612ac76130ab565b01602001516001600160f81b03191682612ae28360026133b7565b612aed9060026130f1565b81518110612afd57612afd6130ab565b60200101906001600160f81b03191690815f1a90535082858260208110612b2657612b266130ab565b825191901a600f16908110612b3d57612b3d6130ab565b01602001516001600160f81b03191682612b588360026133b7565b612b639060036130f1565b81518110612b7357612b736130ab565b60200101906001600160f81b03191690815f1a905350600101612a83565b509392505050565b606081515f03612bc15750506040805180820190915260028152615b5d60f01b602082015290565b6040805180820190915260018152605b60f81b60208201525f5b8351811015612c695781612c07858381518110612bfa57612bfa6130ab565b6020026020010151612e92565b604051602001612c1892919061340e565b604051602081830303815290604052915060018451612c379190613422565b811015612c615781604051602001612c4f9190613435565b60405160208183030381529060405291505b600101612bdb565b5080604051602001612c7b9190613452565b60408051601f198184030181529190529392505050565b60408051808201909152601081526f181899199a1a9b1b9c1cb0b131b232b360811b60208201528151606091905f90612ccc9060026133b7565b612cd79060026130f1565b67ffffffffffffffff811115612cef57612cef61325b565b6040519080825280601f01601f191660200182016040528015612d19576020820181803683370190505b509050600360fc1b815f81518110612d3357612d336130ab565b60200101906001600160f81b03191690815f1a905350600f60fb1b81600181518110612d6157612d616130ab565b60200101906001600160f81b03191690815f1a9053505f5b8451811015612b9157826004868381518110612d9757612d976130ab565b016020015182516001600160f81b031990911690911c60f81c908110612dbf57612dbf6130ab565b01602001516001600160f81b03191682612dda8360026133b7565b612de59060026130f1565b81518110612df557612df56130ab565b60200101906001600160f81b03191690815f1a90535082858281518110612e1e57612e1e6130ab565b602091010151815160f89190911c600f16908110612e3e57612e3e6130ab565b01602001516001600160f81b03191682612e598360026133b7565b612e649060036130f1565b81518110612e7457612e746130ab565b60200101906001600160f81b03191690815f1a905350600101612d79565b604080518082018252601081526f181899199a1a9b1b9c1cb0b131b232b360811b60208201528151602a808252606082810190945284841b915f91602082018180368337019050509050600360fc1b815f81518110612ef357612ef36130ab565b60200101906001600160f81b03191690815f1a905350600f60fb1b81600181518110612f2157612f216130ab565b60200101906001600160f81b03191690815f1a9053505f5b60148110156129d457836004848360148110612f5757612f576130ab565b1a60f81b6001600160f81b031916901c60f81c60ff1681518110612f7d57612f7d6130ab565b01602001516001600160f81b03191682612f988360026133b7565b612fa39060026130f1565b81518110612fb357612fb36130ab565b60200101906001600160f81b03191690815f1a90535083838260148110612fdc57612fdc6130ab565b825191901a600f16908110612ff357612ff36130ab565b01602001516001600160f81b0319168261300e8360026133b7565b6130199060036130f1565b81518110613029576130296130ab565b60200101906001600160f81b03191690815f1a905350600101612f39565b5f60208284031215613057575f80fd5b813560ff81168114613067575f80fd5b9392505050565b5f6020828403121561307e575f80fd5b5035919050565b5f60208284031215613095575f80fd5b81356001600160a01b0381168114613067575f80fd5b634e487b7160e01b5f52603260045260245ffd5b634e487b7160e01b5f52601160045260245ffd5b5f60ff821660ff81036130e8576130e86130bf565b60010192915050565b80820180821115613104576131046130bf565b92915050565b5f81518060208401855e5f93019283525090919050565b5f61312c828561310a565b60609390931b6001600160601b03191683525050601401919050565b8281525f613159602083018461310a565b949350505050565b634e487b7160e01b5f52601260045260245ffd5b5f8261318357613183613161565b500690565b75426c6f636b686173682066726f6d20626c6f636b202360501b81525f6131b2601683018561310a565b6101d160f51b81526131c7600282018561310a565b7f202d20626173697320666f722072616e646f6d6e657373000000000000000000815260170195945050505050565b5f81518084528060208401602086015e5f602082860101526020601f19601f83011685010191505092915050565b60ff84168152606060208201525f61323f60608301856131f6565b828103604084015261325181856131f6565b9695505050505050565b634e487b7160e01b5f52604160045260245ffd5b7f416464726573736573207573656420666f722072616e646f6d6e6573733a200081525f613067601f83018461310a565b602080825282518282018190525f918401906040840190835b818110156132e05783516001600160a01b03168352602093840193909201916001016132b9565b509095945050505050565b7f5061636b65642064617461206f662061646472657373657320696e206865783a8152600160fd1b60208201525f613067602183018461310a565b7f4b656363616b323536206f66205b626c6f636b68617368202b207061636b656481526602230ba30ae9d160cd1b60208201525f613067602783018461310a565b7f46696e616c2072616e646f6d206f7574636f6d6520286d6f642000000000000081525f613398601a83018561310a565b620149d160ed1b81526133ae600382018561310a565b95945050505050565b8082028115828204841417613104576131046130bf565b5f826133dc576133dc613161565b500490565b5f600182016133f2576133f26130bf565b5060010190565b5f81613407576134076130bf565b505f190190565b5f61315961341c838661310a565b8461310a565b81810381811115613104576131046130bf565b5f613440828461310a565b61016160f51b81526002019392505050565b5f61345d828461310a565b605d60f81b8152600101939250505056fefeb6d77d8663b36b3393e8790540b4ebe73ade87f3146e450022712344dc7b3b9cff65d26c2c9e31c3ddf370eec9dcc1327976f78b3eebf97cfd37adc448cc35a264697066735822122025d28189ff2f863e07428f28e11e16a64cb2f1ce75771204b9171c953b494b3164736f6c634300081a0033",
			"opcodes": "PUSH2 0x2C0 PUSH1 0x40 MSTORE PUSH1 0x1 PUSH1 0x80 SWAP1 DUP2 MSTORE PUSH1 0x2 PUSH1 0xA0 MSTORE PUSH1 0x3 PUSH1 0xC0 MSTORE PUSH1 0x4 PUSH1 0xE0 MSTORE PUSH1 0x5 PUSH2 0x100 MSTORE PUSH1 0x6 PUSH2 0x120 MSTORE PUSH1 0x7 PUSH2 0x140 MSTORE PUSH1 0x8 PUSH2 0x160 MSTORE PUSH1 0x9 PUSH2 0x180 MSTORE PUSH1 0xA PUSH2 0x1A0 MSTORE PUSH1 0xB PUSH2 0x1C0 MSTORE PUSH1 0xC PUSH2 0x1E0 MSTORE PUSH1 0xD PUSH2 0x200 MSTORE PUSH1 0xE PUSH2 0x220 MSTORE PUSH1 0xF PUSH2 0x240 MSTORE PUSH1 0x10 PUSH2 0x260 MSTORE PUSH1 0x11 PUSH2 0x280 MSTORE PUSH1 0x12 PUSH2 0x2A0 DUP2 SWAP1 MSTORE PUSH2 0x7C SWAP2 PUSH0 SWAP2 PUSH2 0x72A JUMP JUMPDEST POP PUSH1 0x40 DUP1 MLOAD PUSH2 0x240 DUP2 ADD DUP3 MSTORE PUSH1 0x13 DUP2 MSTORE PUSH1 0x14 PUSH1 0x20 DUP1 DUP4 ADD SWAP2 SWAP1 SWAP2 MSTORE PUSH1 0x15 SWAP3 DUP3 ADD SWAP3 SWAP1 SWAP3 MSTORE PUSH1 0x16 PUSH1 0x60 DUP3 ADD MSTORE PUSH1 0x17 PUSH1 0x80 DUP3 ADD MSTORE PUSH1 0x18 PUSH1 0xA0 DUP3 ADD MSTORE PUSH1 0x19 PUSH1 0xC0 DUP3 ADD MSTORE PUSH1 0x1A PUSH1 0xE0 DUP3 ADD MSTORE PUSH1 0x1B PUSH2 0x100 DUP3 ADD MSTORE PUSH1 0x1C PUSH2 0x120 DUP3 ADD MSTORE PUSH1 0x1D PUSH2 0x140 DUP3 ADD MSTORE PUSH1 0x1E PUSH2 0x160 DUP3 ADD MSTORE PUSH1 0x1F PUSH2 0x180 DUP3 ADD MSTORE PUSH2 0x1A0 DUP2 ADD SWAP2 SWAP1 SWAP2 MSTORE PUSH1 0x21 PUSH2 0x1C0 DUP3 ADD MSTORE PUSH1 0x22 PUSH2 0x1E0 DUP3 ADD MSTORE PUSH1 0x23 PUSH2 0x200 DUP3 ADD MSTORE PUSH1 0x24 PUSH2 0x220 DUP3 ADD MSTORE PUSH2 0x122 SWAP1 PUSH1 0x1 SWAP1 PUSH1 0x12 PUSH2 0x72A JUMP JUMPDEST POP PUSH1 0x40 DUP1 MLOAD PUSH2 0x240 DUP2 ADD DUP3 MSTORE PUSH1 0x1 DUP2 MSTORE PUSH1 0x3 PUSH1 0x20 DUP1 DUP4 ADD SWAP2 SWAP1 SWAP2 MSTORE PUSH1 0x5 SWAP3 DUP3 ADD SWAP3 SWAP1 SWAP3 MSTORE PUSH1 0x7 PUSH1 0x60 DUP3 ADD MSTORE PUSH1 0x9 PUSH1 0x80 DUP3 ADD MSTORE PUSH1 0xC PUSH1 0xA0 DUP3 ADD MSTORE PUSH1 0xE PUSH1 0xC0 DUP3 ADD MSTORE PUSH1 0x10 PUSH1 0xE0 DUP3 ADD MSTORE PUSH1 0x12 PUSH2 0x100 DUP3 ADD DUP2 SWAP1 MSTORE PUSH1 0x13 PUSH2 0x120 DUP4 ADD MSTORE PUSH1 0x15 PUSH2 0x140 DUP4 ADD MSTORE PUSH1 0x17 PUSH2 0x160 DUP4 ADD MSTORE PUSH1 0x19 PUSH2 0x180 DUP4 ADD MSTORE PUSH1 0x1B PUSH2 0x1A0 DUP4 ADD MSTORE PUSH1 0x1E PUSH2 0x1C0 DUP4 ADD MSTORE PUSH2 0x1E0 DUP3 ADD SWAP3 SWAP1 SWAP3 MSTORE PUSH1 0x22 PUSH2 0x200 DUP3 ADD MSTORE PUSH1 0x24 PUSH2 0x220 DUP3 ADD MSTORE PUSH2 0x1C9 SWAP2 PUSH1 0x2 SWAP2 SWAP1 PUSH2 0x72A JUMP JUMPDEST POP PUSH1 0x40 DUP1 MLOAD PUSH2 0x240 DUP2 ADD DUP3 MSTORE PUSH1 0x2 DUP2 MSTORE PUSH1 0x4 PUSH1 0x20 DUP3 ADD MSTORE PUSH1 0x6 SWAP2 DUP2 ADD SWAP2 SWAP1 SWAP2 MSTORE PUSH1 0x8 PUSH1 0x60 DUP3 ADD MSTORE PUSH1 0xA PUSH1 0x80 DUP3 ADD MSTORE PUSH1 0xB PUSH1 0xA0 DUP3 ADD MSTORE PUSH1 0xD PUSH1 0xC0 DUP3 ADD MSTORE PUSH1 0xF PUSH1 0xE0 DUP3 ADD MSTORE PUSH1 0x11 PUSH2 0x100 DUP3 ADD MSTORE PUSH1 0x14 PUSH2 0x120 DUP3 ADD MSTORE PUSH1 0x16 PUSH2 0x140 DUP3 ADD MSTORE PUSH1 0x18 PUSH2 0x160 DUP3 ADD MSTORE PUSH1 0x1A PUSH2 0x180 DUP3 ADD MSTORE PUSH1 0x1C PUSH2 0x1A0 DUP3 ADD MSTORE PUSH1 0x1D PUSH2 0x1C0 DUP3 ADD MSTORE PUSH1 0x1F PUSH2 0x1E0 DUP3 ADD MSTORE PUSH1 0x21 PUSH2 0x200 DUP3 ADD MSTORE PUSH1 0x23 PUSH2 0x220 DUP3 ADD MSTORE PUSH2 0x26A SWAP1 PUSH1 0x3 SWAP1 PUSH1 0x12 PUSH2 0x72A JUMP JUMPDEST POP PUSH1 0x40 DUP1 MLOAD PUSH2 0x240 DUP2 ADD DUP3 MSTORE PUSH1 0x2 DUP2 MSTORE PUSH1 0x4 PUSH1 0x20 DUP1 DUP4 ADD DUP3 SWAP1 MSTORE PUSH1 0x6 SWAP4 DUP4 ADD SWAP4 SWAP1 SWAP4 MSTORE PUSH1 0x8 PUSH1 0x60 DUP4 ADD MSTORE PUSH1 0xA PUSH1 0x80 DUP4 ADD MSTORE PUSH1 0xC PUSH1 0xA0 DUP4 ADD MSTORE PUSH1 0xE PUSH1 0xC0 DUP4 ADD MSTORE PUSH1 0x10 PUSH1 0xE0 DUP4 ADD MSTORE PUSH1 0x12 PUSH2 0x100 DUP4 ADD DUP2 SWAP1 MSTORE PUSH1 0x14 PUSH2 0x120 DUP5 ADD MSTORE PUSH1 0x16 PUSH2 0x140 DUP5 ADD MSTORE PUSH1 0x18 PUSH2 0x160 DUP5 ADD MSTORE PUSH1 0x1A PUSH2 0x180 DUP5 ADD MSTORE PUSH1 0x1C PUSH2 0x1A0 DUP5 ADD MSTORE PUSH1 0x1E PUSH2 0x1C0 DUP5 ADD MSTORE PUSH2 0x1E0 DUP4 ADD SWAP4 SWAP1 SWAP4 MSTORE PUSH1 0x22 PUSH2 0x200 DUP4 ADD MSTORE PUSH1 0x24 PUSH2 0x220 DUP4 ADD MSTORE PUSH2 0x30F SWAP3 SWAP1 SWAP2 SWAP1 PUSH2 0x72A JUMP JUMPDEST POP PUSH1 0x40 DUP1 MLOAD PUSH2 0x240 DUP2 ADD DUP3 MSTORE PUSH1 0x1 DUP2 MSTORE PUSH1 0x3 PUSH1 0x20 DUP3 ADD MSTORE PUSH1 0x5 SWAP2 DUP2 ADD DUP3 SWAP1 MSTORE PUSH1 0x7 PUSH1 0x60 DUP3 ADD MSTORE PUSH1 0x9 PUSH1 0x80 DUP3 ADD MSTORE PUSH1 0xB PUSH1 0xA0 DUP3 ADD MSTORE PUSH1 0xD PUSH1 0xC0 DUP3 ADD MSTORE PUSH1 0xF PUSH1 0xE0 DUP3 ADD MSTORE PUSH1 0x11 PUSH2 0x100 DUP3 ADD MSTORE PUSH1 0x13 PUSH2 0x120 DUP3 ADD MSTORE PUSH1 0x15 PUSH2 0x140 DUP3 ADD MSTORE PUSH1 0x17 PUSH2 0x160 DUP3 ADD MSTORE PUSH1 0x19 PUSH2 0x180 DUP3 ADD MSTORE PUSH1 0x1B PUSH2 0x1A0 DUP3 ADD MSTORE PUSH1 0x1D PUSH2 0x1C0 DUP3 ADD MSTORE PUSH1 0x1F PUSH2 0x1E0 DUP3 ADD MSTORE PUSH1 0x21 PUSH2 0x200 DUP3 ADD MSTORE PUSH1 0x23 PUSH2 0x220 DUP3 ADD MSTORE PUSH2 0x3AD SWAP2 SWAP1 PUSH1 0x12 PUSH2 0x72A JUMP JUMPDEST POP PUSH1 0x40 DUP1 MLOAD PUSH2 0x180 DUP2 ADD DUP3 MSTORE PUSH1 0x1 DUP2 MSTORE PUSH1 0x4 PUSH1 0x20 DUP3 ADD MSTORE PUSH1 0x7 SWAP2 DUP2 ADD SWAP2 SWAP1 SWAP2 MSTORE PUSH1 0xA PUSH1 0x60 DUP3 ADD MSTORE PUSH1 0xD PUSH1 0x80 DUP3 ADD MSTORE PUSH1 0x10 PUSH1 0xA0 DUP3 ADD MSTORE PUSH1 0x13 PUSH1 0xC0 DUP3 ADD MSTORE PUSH1 0x16 PUSH1 0xE0 DUP3 ADD MSTORE PUSH1 0x19 PUSH2 0x100 DUP3 ADD MSTORE PUSH1 0x1C PUSH2 0x120 DUP3 ADD MSTORE PUSH1 0x1F PUSH2 0x140 DUP3 ADD MSTORE PUSH1 0x22 PUSH2 0x160 DUP3 ADD MSTORE PUSH2 0x41E SWAP1 PUSH1 0x6 SWAP1 PUSH1 0xC PUSH2 0x72A JUMP JUMPDEST POP PUSH1 0x40 DUP1 MLOAD PUSH2 0x180 DUP2 ADD DUP3 MSTORE PUSH1 0x2 DUP2 MSTORE PUSH1 0x5 PUSH1 0x20 DUP1 DUP4 ADD SWAP2 SWAP1 SWAP2 MSTORE PUSH1 0x8 SWAP3 DUP3 ADD SWAP3 SWAP1 SWAP3 MSTORE PUSH1 0xB PUSH1 0x60 DUP3 ADD MSTORE PUSH1 0xE PUSH1 0x80 DUP3 ADD MSTORE PUSH1 0x11 PUSH1 0xA0 DUP3 ADD MSTORE PUSH1 0x14 PUSH1 0xC0 DUP3 ADD MSTORE PUSH1 0x17 PUSH1 0xE0 DUP3 ADD MSTORE PUSH1 0x1A PUSH2 0x100 DUP3 ADD MSTORE PUSH1 0x1D PUSH2 0x120 DUP3 ADD MSTORE PUSH2 0x140 DUP2 ADD SWAP2 SWAP1 SWAP2 MSTORE PUSH1 0x23 PUSH2 0x160 DUP3 ADD MSTORE PUSH2 0x494 SWAP1 PUSH1 0x7 SWAP1 PUSH1 0xC PUSH2 0x72A JUMP JUMPDEST POP PUSH1 0x40 DUP1 MLOAD PUSH2 0x180 DUP2 ADD DUP3 MSTORE PUSH1 0x3 DUP2 MSTORE PUSH1 0x6 PUSH1 0x20 DUP3 ADD MSTORE PUSH1 0x9 SWAP2 DUP2 ADD SWAP2 SWAP1 SWAP2 MSTORE PUSH1 0xC PUSH1 0x60 DUP3 ADD DUP2 SWAP1 MSTORE PUSH1 0xF PUSH1 0x80 DUP4 ADD MSTORE PUSH1 0x12 PUSH1 0xA0 DUP4 ADD MSTORE PUSH1 0x15 PUSH1 0xC0 DUP4 ADD MSTORE PUSH1 0x18 PUSH1 0xE0 DUP4 ADD MSTORE PUSH1 0x1B PUSH2 0x100 DUP4 ADD MSTORE PUSH1 0x1E PUSH2 0x120 DUP4 ADD MSTORE PUSH1 0x21 PUSH2 0x140 DUP4 ADD MSTORE PUSH1 0x24 PUSH2 0x160 DUP4 ADD MSTORE PUSH2 0x505 SWAP2 PUSH1 0x8 SWAP2 PUSH2 0x72A JUMP JUMPDEST POP PUSH1 0x40 DUP1 MLOAD PUSH2 0x180 DUP2 ADD DUP3 MSTORE PUSH1 0x1 DUP2 MSTORE PUSH1 0x2 PUSH1 0x20 DUP3 ADD MSTORE PUSH1 0x3 SWAP2 DUP2 ADD SWAP2 SWAP1 SWAP2 MSTORE PUSH1 0x4 PUSH1 0x60 DUP3 ADD MSTORE PUSH1 0x5 PUSH1 0x80 DUP3 ADD MSTORE PUSH1 0x6 PUSH1 0xA0 DUP3 ADD MSTORE PUSH1 0x7 PUSH1 0xC0 DUP3 ADD MSTORE PUSH1 0x8 PUSH1 0xE0 DUP3 ADD MSTORE PUSH1 0x9 PUSH2 0x100 DUP3 ADD DUP2 SWAP1 MSTORE PUSH1 0xA PUSH2 0x120 DUP4 ADD MSTORE PUSH1 0xB PUSH2 0x140 DUP4 ADD MSTORE PUSH1 0xC PUSH2 0x160 DUP4 ADD DUP2 SWAP1 MSTORE PUSH2 0x576 SWAP3 SWAP1 PUSH2 0x72A JUMP JUMPDEST POP PUSH1 0x40 DUP1 MLOAD PUSH2 0x180 DUP2 ADD DUP3 MSTORE PUSH1 0xD DUP2 MSTORE PUSH1 0xE PUSH1 0x20 DUP3 ADD MSTORE PUSH1 0xF SWAP2 DUP2 ADD SWAP2 SWAP1 SWAP2 MSTORE PUSH1 0x10 PUSH1 0x60 DUP3 ADD MSTORE PUSH1 0x11 PUSH1 0x80 DUP3 ADD MSTORE PUSH1 0x12 PUSH1 0xA0 DUP3 ADD MSTORE PUSH1 0x13 PUSH1 0xC0 DUP3 ADD MSTORE PUSH1 0x14 PUSH1 0xE0 DUP3 ADD MSTORE PUSH1 0x15 PUSH2 0x100 DUP3 ADD MSTORE PUSH1 0x16 PUSH2 0x120 DUP3 ADD MSTORE PUSH1 0x17 PUSH2 0x140 DUP3 ADD MSTORE PUSH1 0x18 PUSH2 0x160 DUP3 ADD MSTORE PUSH2 0x5E7 SWAP1 PUSH1 0xA SWAP1 PUSH1 0xC PUSH2 0x72A JUMP JUMPDEST POP PUSH1 0x40 DUP1 MLOAD PUSH2 0x180 DUP2 ADD DUP3 MSTORE PUSH1 0x19 DUP2 MSTORE PUSH1 0x1A PUSH1 0x20 DUP1 DUP4 ADD SWAP2 SWAP1 SWAP2 MSTORE PUSH1 0x1B SWAP3 DUP3 ADD SWAP3 SWAP1 SWAP3 MSTORE PUSH1 0x1C PUSH1 0x60 DUP3 ADD MSTORE PUSH1 0x1D PUSH1 0x80 DUP3 ADD MSTORE PUSH1 0x1E PUSH1 0xA0 DUP3 ADD MSTORE PUSH1 0x1F PUSH1 0xC0 DUP3 ADD MSTORE PUSH1 0xE0 DUP2 ADD SWAP2 SWAP1 SWAP2 MSTORE PUSH1 0x21 PUSH2 0x100 DUP3 ADD MSTORE PUSH1 0x22 PUSH2 0x120 DUP3 ADD MSTORE PUSH1 0x23 PUSH2 0x140 DUP3 ADD MSTORE PUSH1 0x24 PUSH2 0x160 DUP3 ADD MSTORE PUSH2 0x65D SWAP1 PUSH1 0xB SWAP1 PUSH1 0xC PUSH2 0x72A JUMP JUMPDEST POP CALLVALUE DUP1 ISZERO PUSH2 0x669 JUMPI PUSH0 DUP1 REVERT JUMPDEST POP PUSH1 0x40 MLOAD PUSH2 0x3EA9 CODESIZE SUB DUP1 PUSH2 0x3EA9 DUP4 CODECOPY DUP2 ADD PUSH1 0x40 DUP2 SWAP1 MSTORE PUSH2 0x688 SWAP2 PUSH2 0x860 JUMP JUMPDEST PUSH1 0xC DUP1 SLOAD PUSH1 0x1 PUSH1 0x1 PUSH1 0xA0 SHL SUB NOT AND PUSH1 0x1 PUSH1 0x1 PUSH1 0xA0 SHL SUB DUP7 AND OR SWAP1 SSTORE PUSH1 0xD DUP4 SWAP1 SSTORE PUSH1 0xE DUP1 SLOAD PUSH1 0xFF NOT AND SWAP1 SSTORE DUP2 MLOAD PUSH2 0x6C5 SWAP1 PUSH1 0x12 SWAP1 PUSH1 0x20 DUP6 ADD SWAP1 PUSH2 0x7BA JUMP JUMPDEST POP PUSH1 0x11 DUP1 SLOAD PUSH2 0xFF00 NOT AND PUSH2 0x100 PUSH1 0xFF DUP5 AND MUL OR SWAP1 SSTORE PUSH1 0x40 MLOAD PUSH1 0x1 PUSH1 0x1 PUSH1 0xA0 SHL SUB DUP6 AND SWAP1 PUSH32 0x7BC06AD6AF97E4997115D8B8EC4270105092A2DC99A8BA73A35DE86C49AB8D9B SWAP1 PUSH2 0x719 SWAP1 DUP7 SWAP1 DUP7 SWAP1 DUP7 SWAP1 PUSH2 0x956 JUMP JUMPDEST PUSH1 0x40 MLOAD DUP1 SWAP2 SUB SWAP1 LOG2 POP POP POP POP PUSH2 0x9B8 JUMP JUMPDEST PUSH1 0x1 DUP4 ADD SWAP2 DUP4 SWAP1 DUP3 ISZERO PUSH2 0x7AA JUMPI SWAP2 PUSH1 0x20 MUL DUP3 ADD PUSH0 JUMPDEST DUP4 DUP3 GT ISZERO PUSH2 0x77C JUMPI DUP4 MLOAD DUP4 DUP3 PUSH2 0x100 EXP DUP2 SLOAD DUP2 PUSH1 0xFF MUL NOT AND SWAP1 DUP4 PUSH1 0xFF AND MUL OR SWAP1 SSTORE POP SWAP3 PUSH1 0x20 ADD SWAP3 PUSH1 0x1 ADD PUSH1 0x20 DUP2 PUSH0 ADD DIV SWAP3 DUP4 ADD SWAP3 PUSH1 0x1 SUB MUL PUSH2 0x73F JUMP JUMPDEST DUP1 ISZERO PUSH2 0x7A8 JUMPI DUP3 DUP2 PUSH2 0x100 EXP DUP2 SLOAD SWAP1 PUSH1 0xFF MUL NOT AND SWAP1 SSTORE PUSH1 0x1 ADD PUSH1 0x20 DUP2 PUSH0 ADD DIV SWAP3 DUP4 ADD SWAP3 PUSH1 0x1 SUB MUL PUSH2 0x77C JUMP JUMPDEST POP JUMPDEST POP PUSH2 0x7B6 SWAP3 SWAP2 POP PUSH2 0x80D JUMP JUMPDEST POP SWAP1 JUMP JUMPDEST DUP3 DUP1 SLOAD DUP3 DUP3 SSTORE SWAP1 PUSH0 MSTORE PUSH1 0x20 PUSH0 KECCAK256 SWAP1 DUP2 ADD SWAP3 DUP3 ISZERO PUSH2 0x7AA JUMPI SWAP2 PUSH1 0x20 MUL DUP3 ADD JUMPDEST DUP3 DUP2 GT ISZERO PUSH2 0x7AA JUMPI DUP3 MLOAD DUP3 SLOAD PUSH1 0x1 PUSH1 0x1 PUSH1 0xA0 SHL SUB NOT AND PUSH1 0x1 PUSH1 0x1 PUSH1 0xA0 SHL SUB SWAP1 SWAP2 AND OR DUP3 SSTORE PUSH1 0x20 SWAP1 SWAP3 ADD SWAP2 PUSH1 0x1 SWAP1 SWAP2 ADD SWAP1 PUSH2 0x7D8 JUMP JUMPDEST JUMPDEST DUP1 DUP3 GT ISZERO PUSH2 0x7B6 JUMPI PUSH0 DUP2 SSTORE PUSH1 0x1 ADD PUSH2 0x80E JUMP JUMPDEST DUP1 MLOAD PUSH1 0x1 PUSH1 0x1 PUSH1 0xA0 SHL SUB DUP2 AND DUP2 EQ PUSH2 0x837 JUMPI PUSH0 DUP1 REVERT JUMPDEST SWAP2 SWAP1 POP JUMP JUMPDEST PUSH4 0x4E487B71 PUSH1 0xE0 SHL PUSH0 MSTORE PUSH1 0x41 PUSH1 0x4 MSTORE PUSH1 0x24 PUSH0 REVERT JUMPDEST DUP1 MLOAD PUSH1 0xFF DUP2 AND DUP2 EQ PUSH2 0x837 JUMPI PUSH0 DUP1 REVERT JUMPDEST PUSH0 DUP1 PUSH0 DUP1 PUSH1 0x80 DUP6 DUP8 SUB SLT ISZERO PUSH2 0x873 JUMPI PUSH0 DUP1 REVERT JUMPDEST PUSH2 0x87C DUP6 PUSH2 0x821 JUMP JUMPDEST PUSH1 0x20 DUP7 ADD MLOAD PUSH1 0x40 DUP8 ADD MLOAD SWAP2 SWAP6 POP SWAP4 POP PUSH1 0x1 PUSH1 0x1 PUSH1 0x40 SHL SUB DUP2 GT ISZERO PUSH2 0x89E JUMPI PUSH0 DUP1 REVERT JUMPDEST DUP6 ADD PUSH1 0x1F DUP2 ADD DUP8 SGT PUSH2 0x8AE JUMPI PUSH0 DUP1 REVERT JUMPDEST DUP1 MLOAD PUSH1 0x1 PUSH1 0x1 PUSH1 0x40 SHL SUB DUP2 GT ISZERO PUSH2 0x8C7 JUMPI PUSH2 0x8C7 PUSH2 0x83C JUMP JUMPDEST PUSH1 0x40 MLOAD PUSH1 0x5 DUP3 SWAP1 SHL SWAP1 PUSH1 0x3F DUP3 ADD PUSH1 0x1F NOT AND DUP2 ADD PUSH1 0x1 PUSH1 0x1 PUSH1 0x40 SHL SUB DUP2 GT DUP3 DUP3 LT OR ISZERO PUSH2 0x8F5 JUMPI PUSH2 0x8F5 PUSH2 0x83C JUMP JUMPDEST PUSH1 0x40 MSTORE SWAP2 DUP3 MSTORE PUSH1 0x20 DUP2 DUP5 ADD DUP2 ADD SWAP3 SWAP1 DUP2 ADD DUP11 DUP5 GT ISZERO PUSH2 0x912 JUMPI PUSH0 DUP1 REVERT JUMPDEST PUSH1 0x20 DUP6 ADD SWAP5 POP JUMPDEST DUP4 DUP6 LT ISZERO PUSH2 0x938 JUMPI PUSH2 0x92A DUP6 PUSH2 0x821 JUMP JUMPDEST DUP2 MSTORE PUSH1 0x20 SWAP5 DUP6 ADD SWAP5 ADD PUSH2 0x919 JUMP JUMPDEST POP SWAP5 POP PUSH2 0x94B SWAP3 POP POP POP PUSH1 0x60 DUP7 ADD PUSH2 0x850 JUMP JUMPDEST SWAP1 POP SWAP3 SWAP6 SWAP2 SWAP5 POP SWAP3 POP JUMP JUMPDEST PUSH0 PUSH1 0x60 DUP3 ADD DUP6 DUP4 MSTORE PUSH1 0x60 PUSH1 0x20 DUP5 ADD MSTORE DUP1 DUP6 MLOAD DUP1 DUP4 MSTORE PUSH1 0x80 DUP6 ADD SWAP2 POP PUSH1 0x20 DUP8 ADD SWAP3 POP PUSH0 JUMPDEST DUP2 DUP2 LT ISZERO PUSH2 0x9A0 JUMPI DUP4 MLOAD PUSH1 0x1 PUSH1 0x1 PUSH1 0xA0 SHL SUB AND DUP4 MSTORE PUSH1 0x20 SWAP4 DUP5 ADD SWAP4 SWAP1 SWAP3 ADD SWAP2 PUSH1 0x1 ADD PUSH2 0x979 JUMP JUMPDEST POP POP DUP1 SWAP3 POP POP POP PUSH1 0xFF DUP4 AND PUSH1 0x40 DUP4 ADD MSTORE SWAP5 SWAP4 POP POP POP POP JUMP JUMPDEST PUSH2 0x34E4 DUP1 PUSH2 0x9C5 PUSH0 CODECOPY PUSH0 RETURN INVALID PUSH1 0x80 PUSH1 0x40 MSTORE PUSH1 0x4 CALLDATASIZE LT PUSH2 0x280 JUMPI PUSH0 CALLDATALOAD PUSH1 0xE0 SHR DUP1 PUSH4 0x7F3BE3ED GT PUSH2 0x155 JUMPI DUP1 PUSH4 0xCF3C5D16 GT PUSH2 0xBE JUMPI DUP1 PUSH4 0xE4CA650D GT PUSH2 0x78 JUMPI DUP1 PUSH4 0xE4CA650D EQ PUSH2 0x75E JUMPI DUP1 PUSH4 0xE71F766E EQ PUSH2 0x77D JUMPI DUP1 PUSH4 0xE8E0FCA5 EQ PUSH2 0x79C JUMPI DUP1 PUSH4 0xF2D18F42 EQ PUSH2 0x7BB JUMPI DUP1 PUSH4 0xF437BC59 EQ PUSH2 0x7E9 JUMPI DUP1 PUSH4 0xFE5385AF EQ PUSH2 0x808 JUMPI PUSH0 DUP1 REVERT JUMPDEST DUP1 PUSH4 0xCF3C5D16 EQ PUSH2 0x6B7 JUMPI DUP1 PUSH4 0xD0E30DB0 EQ PUSH2 0x6E5 JUMPI DUP1 PUSH4 0xD1EDB09E EQ PUSH2 0x6ED JUMPI DUP1 PUSH4 0xD4F7A285 EQ PUSH2 0x701 JUMPI DUP1 PUSH4 0xD9CC76AD EQ PUSH2 0x720 JUMPI DUP1 PUSH4 0xDB7F11DB EQ PUSH2 0x73F JUMPI PUSH0 DUP1 REVERT JUMPDEST DUP1 PUSH4 0x9619367D GT PUSH2 0x10F JUMPI DUP1 PUSH4 0x9619367D EQ PUSH2 0x607 JUMPI DUP1 PUSH4 0x972B533D EQ PUSH2 0x61C JUMPI DUP1 PUSH4 0xA38BD74C EQ PUSH2 0x63B JUMPI DUP1 PUSH4 0xA6EDE84A EQ PUSH2 0x65A JUMPI DUP1 PUSH4 0xB2513399 EQ PUSH2 0x679 JUMPI DUP1 PUSH4 0xBE47AE13 EQ PUSH2 0x698 JUMPI PUSH0 DUP1 REVERT JUMPDEST DUP1 PUSH4 0x7F3BE3ED EQ PUSH2 0x56D JUMPI DUP1 PUSH4 0x87171EB7 EQ PUSH2 0x58C JUMPI DUP1 PUSH4 0x8C7E347A EQ PUSH2 0x5A1 JUMPI DUP1 PUSH4 0x8D8C1286 EQ PUSH2 0x5B5 JUMPI DUP1 PUSH4 0x8E4BF820 EQ PUSH2 0x5D4 JUMPI DUP1 PUSH4 0x8FFFEBCA EQ PUSH2 0x5E8 JUMPI PUSH0 DUP1 REVERT JUMPDEST DUP1 PUSH4 0x2E5B2168 GT PUSH2 0x1F7 JUMPI DUP1 PUSH4 0x4760FFF3 GT PUSH2 0x1B1 JUMPI DUP1 PUSH4 0x4760FFF3 EQ PUSH2 0x4CB JUMPI DUP1 PUSH4 0x4D7D93FE EQ PUSH2 0x4EA JUMPI DUP1 PUSH4 0x4E69D560 EQ PUSH2 0x509 JUMPI DUP1 PUSH4 0x5DCAB1D8 EQ PUSH2 0x520 JUMPI DUP1 PUSH4 0x65372147 EQ PUSH2 0x53F JUMPI DUP1 PUSH4 0x6F91A66F EQ PUSH2 0x558 JUMPI PUSH0 DUP1 REVERT JUMPDEST DUP1 PUSH4 0x2E5B2168 EQ PUSH2 0x40D JUMPI DUP1 PUSH4 0x2ECA4C28 EQ PUSH2 0x430 JUMPI DUP1 PUSH4 0x322F8920 EQ PUSH2 0x44E JUMPI DUP1 PUSH4 0x35AA2E44 EQ PUSH2 0x46D JUMPI DUP1 PUSH4 0x38CCEB4F EQ PUSH2 0x4A4 JUMPI DUP1 PUSH4 0x43046844 EQ PUSH2 0x4B8 JUMPI PUSH0 DUP1 REVERT JUMPDEST DUP1 PUSH4 0x1FAC0FFD GT PUSH2 0x248 JUMPI DUP1 PUSH4 0x1FAC0FFD EQ PUSH2 0x332 JUMPI DUP1 PUSH4 0x200D2ED2 EQ PUSH2 0x351 JUMPI DUP1 PUSH4 0x22AF00FA EQ PUSH2 0x36A JUMPI DUP1 PUSH4 0x23FE318E EQ PUSH2 0x3B0 JUMPI DUP1 PUSH4 0x2605C251 EQ PUSH2 0x3CF JUMPI DUP1 PUSH4 0x28DDDC1B EQ PUSH2 0x3EE JUMPI PUSH0 DUP1 REVERT JUMPDEST DUP1 PUSH4 0x12586172 EQ PUSH2 0x284 JUMPI DUP1 PUSH4 0x19299832 EQ PUSH2 0x2B8 JUMPI DUP1 PUSH4 0x195BA0EB EQ PUSH2 0x2E9 JUMPI DUP1 PUSH4 0x1B2ABC77 EQ PUSH2 0x308 JUMPI DUP1 PUSH4 0x1DBE2E0E EQ PUSH2 0x31E JUMPI JUMPDEST PUSH0 DUP1 REVERT JUMPDEST CALLVALUE DUP1 ISZERO PUSH2 0x28F JUMPI PUSH0 DUP1 REVERT JUMPDEST POP PUSH2 0x2A3 PUSH2 0x29E CALLDATASIZE PUSH1 0x4 PUSH2 0x3047 JUMP JUMPDEST PUSH2 0x827 JUMP JUMPDEST PUSH1 0x40 MLOAD SWAP1 ISZERO ISZERO DUP2 MSTORE PUSH1 0x20 ADD JUMPDEST PUSH1 0x40 MLOAD DUP1 SWAP2 SUB SWAP1 RETURN JUMPDEST CALLVALUE DUP1 ISZERO PUSH2 0x2C3 JUMPI PUSH0 DUP1 REVERT JUMPDEST POP PUSH2 0x2D7 PUSH2 0x2D2 CALLDATASIZE PUSH1 0x4 PUSH2 0x306E JUMP JUMPDEST PUSH2 0x88E JUMP JUMPDEST PUSH1 0x40 MLOAD PUSH1 0xFF SWAP1 SWAP2 AND DUP2 MSTORE PUSH1 0x20 ADD PUSH2 0x2AF JUMP JUMPDEST CALLVALUE DUP1 ISZERO PUSH2 0x2F4 JUMPI PUSH0 DUP1 REVERT JUMPDEST POP PUSH2 0x2D7 PUSH2 0x303 CALLDATASIZE PUSH1 0x4 PUSH2 0x306E JUMP JUMPDEST PUSH2 0x8B7 JUMP JUMPDEST CALLVALUE DUP1 ISZERO PUSH2 0x313 JUMPI PUSH0 DUP1 REVERT JUMPDEST POP PUSH2 0x31C PUSH2 0x8C6 JUMP JUMPDEST STOP JUMPDEST CALLVALUE DUP1 ISZERO PUSH2 0x329 JUMPI PUSH0 DUP1 REVERT JUMPDEST POP PUSH2 0x31C PUSH2 0x966 JUMP JUMPDEST CALLVALUE DUP1 ISZERO PUSH2 0x33D JUMPI PUSH0 DUP1 REVERT JUMPDEST POP PUSH2 0x2D7 PUSH2 0x34C CALLDATASIZE PUSH1 0x4 PUSH2 0x306E JUMP JUMPDEST PUSH2 0xBB5 JUMP JUMPDEST CALLVALUE DUP1 ISZERO PUSH2 0x35C JUMPI PUSH0 DUP1 REVERT JUMPDEST POP PUSH1 0xE SLOAD PUSH2 0x2D7 SWAP1 PUSH1 0xFF AND DUP2 JUMP JUMPDEST CALLVALUE DUP1 ISZERO PUSH2 0x375 JUMPI PUSH0 DUP1 REVERT JUMPDEST POP PUSH2 0x389 PUSH2 0x384 CALLDATASIZE PUSH1 0x4 PUSH2 0x306E JUMP JUMPDEST PUSH2 0xBC4 JUMP JUMPDEST PUSH1 0x40 DUP1 MLOAD PUSH1 0x1 PUSH1 0x1 PUSH1 0xA0 SHL SUB SWAP1 SWAP5 AND DUP5 MSTORE PUSH1 0xFF SWAP1 SWAP3 AND PUSH1 0x20 DUP5 ADD MSTORE SWAP1 DUP3 ADD MSTORE PUSH1 0x60 ADD PUSH2 0x2AF JUMP JUMPDEST CALLVALUE DUP1 ISZERO PUSH2 0x3BB JUMPI PUSH0 DUP1 REVERT JUMPDEST POP PUSH2 0x2D7 PUSH2 0x3CA CALLDATASIZE PUSH1 0x4 PUSH2 0x306E JUMP JUMPDEST PUSH2 0xC05 JUMP JUMPDEST CALLVALUE DUP1 ISZERO PUSH2 0x3DA JUMPI PUSH0 DUP1 REVERT JUMPDEST POP PUSH2 0x2A3 PUSH2 0x3E9 CALLDATASIZE PUSH1 0x4 PUSH2 0x3047 JUMP JUMPDEST PUSH2 0xC14 JUMP JUMPDEST CALLVALUE DUP1 ISZERO PUSH2 0x3F9 JUMPI PUSH0 DUP1 REVERT JUMPDEST POP PUSH2 0x2A3 PUSH2 0x408 CALLDATASIZE PUSH1 0x4 PUSH2 0x3047 JUMP JUMPDEST PUSH2 0xC73 JUMP JUMPDEST CALLVALUE DUP1 ISZERO PUSH2 0x418 JUMPI PUSH0 DUP1 REVERT JUMPDEST POP PUSH2 0x422 PUSH1 0x18 SLOAD DUP2 JUMP JUMPDEST PUSH1 0x40 MLOAD SWAP1 DUP2 MSTORE PUSH1 0x20 ADD PUSH2 0x2AF JUMP JUMPDEST CALLVALUE DUP1 ISZERO PUSH2 0x43B JUMPI PUSH0 DUP1 REVERT JUMPDEST POP PUSH1 0x11 SLOAD PUSH2 0x2D7 SWAP1 PUSH2 0x100 SWAP1 DIV PUSH1 0xFF AND DUP2 JUMP JUMPDEST CALLVALUE DUP1 ISZERO PUSH2 0x459 JUMPI PUSH0 DUP1 REVERT JUMPDEST POP PUSH2 0x2D7 PUSH2 0x468 CALLDATASIZE PUSH1 0x4 PUSH2 0x306E JUMP JUMPDEST PUSH2 0xCD2 JUMP JUMPDEST CALLVALUE DUP1 ISZERO PUSH2 0x478 JUMPI PUSH0 DUP1 REVERT JUMPDEST POP PUSH2 0x48C PUSH2 0x487 CALLDATASIZE PUSH1 0x4 PUSH2 0x306E JUMP JUMPDEST PUSH2 0xCE1 JUMP JUMPDEST PUSH1 0x40 MLOAD PUSH1 0x1 PUSH1 0x1 PUSH1 0xA0 SHL SUB SWAP1 SWAP2 AND DUP2 MSTORE PUSH1 0x20 ADD PUSH2 0x2AF JUMP JUMPDEST CALLVALUE DUP1 ISZERO PUSH2 0x4AF JUMPI PUSH0 DUP1 REVERT JUMPDEST POP PUSH2 0x31C PUSH2 0xD09 JUMP JUMPDEST PUSH2 0x31C PUSH2 0x4C6 CALLDATASIZE PUSH1 0x4 PUSH2 0x3047 JUMP JUMPDEST PUSH2 0x16FC JUMP JUMPDEST CALLVALUE DUP1 ISZERO PUSH2 0x4D6 JUMPI PUSH0 DUP1 REVERT JUMPDEST POP PUSH2 0x2A3 PUSH2 0x4E5 CALLDATASIZE PUSH1 0x4 PUSH2 0x3047 JUMP JUMPDEST PUSH2 0x1913 JUMP JUMPDEST CALLVALUE DUP1 ISZERO PUSH2 0x4F5 JUMPI PUSH0 DUP1 REVERT JUMPDEST POP PUSH2 0x2A3 PUSH2 0x504 CALLDATASIZE PUSH1 0x4 PUSH2 0x3047 JUMP JUMPDEST PUSH2 0x1972 JUMP JUMPDEST CALLVALUE DUP1 ISZERO PUSH2 0x514 JUMPI PUSH0 DUP1 REVERT JUMPDEST POP PUSH1 0xE SLOAD PUSH1 0xFF AND PUSH2 0x2D7 JUMP JUMPDEST CALLVALUE DUP1 ISZERO PUSH2 0x52B JUMPI PUSH0 DUP1 REVERT JUMPDEST POP PUSH2 0x2A3 PUSH2 0x53A CALLDATASIZE PUSH1 0x4 PUSH2 0x3047 JUMP JUMPDEST PUSH2 0x19D1 JUMP JUMPDEST CALLVALUE DUP1 ISZERO PUSH2 0x54A JUMPI PUSH0 DUP1 REVERT JUMPDEST POP PUSH1 0x11 SLOAD PUSH2 0x2D7 SWAP1 PUSH1 0xFF AND DUP2 JUMP JUMPDEST CALLVALUE DUP1 ISZERO PUSH2 0x563 JUMPI PUSH0 DUP1 REVERT JUMPDEST POP PUSH2 0x422 PUSH1 0x10 SLOAD DUP2 JUMP JUMPDEST CALLVALUE DUP1 ISZERO PUSH2 0x578 JUMPI PUSH0 DUP1 REVERT JUMPDEST POP PUSH2 0x48C PUSH2 0x587 CALLDATASIZE PUSH1 0x4 PUSH2 0x306E JUMP JUMPDEST PUSH2 0x1A30 JUMP JUMPDEST CALLVALUE DUP1 ISZERO PUSH2 0x597 JUMPI PUSH0 DUP1 REVERT JUMPDEST POP PUSH2 0x422 PUSH1 0x17 SLOAD DUP2 JUMP JUMPDEST CALLVALUE DUP1 ISZERO PUSH2 0x5AC JUMPI PUSH0 DUP1 REVERT JUMPDEST POP PUSH1 0xF SLOAD PUSH2 0x422 JUMP JUMPDEST CALLVALUE DUP1 ISZERO PUSH2 0x5C0 JUMPI PUSH0 DUP1 REVERT JUMPDEST POP PUSH2 0x48C PUSH2 0x5CF CALLDATASIZE PUSH1 0x4 PUSH2 0x306E JUMP JUMPDEST PUSH2 0x1A3F JUMP JUMPDEST CALLVALUE DUP1 ISZERO PUSH2 0x5DF JUMPI PUSH0 DUP1 REVERT JUMPDEST POP PUSH2 0x31C PUSH2 0x1A4E JUMP JUMPDEST CALLVALUE DUP1 ISZERO PUSH2 0x5F3 JUMPI PUSH0 DUP1 REVERT JUMPDEST POP PUSH2 0x2A3 PUSH2 0x602 CALLDATASIZE PUSH1 0x4 PUSH2 0x3047 JUMP JUMPDEST PUSH2 0x2460 JUMP JUMPDEST CALLVALUE DUP1 ISZERO PUSH2 0x612 JUMPI PUSH0 DUP1 REVERT JUMPDEST POP PUSH2 0x422 PUSH1 0xD SLOAD DUP2 JUMP JUMPDEST CALLVALUE DUP1 ISZERO PUSH2 0x627 JUMPI PUSH0 DUP1 REVERT JUMPDEST POP PUSH2 0x2A3 PUSH2 0x636 CALLDATASIZE PUSH1 0x4 PUSH2 0x3047 JUMP JUMPDEST PUSH2 0x24BF JUMP JUMPDEST CALLVALUE DUP1 ISZERO PUSH2 0x646 JUMPI PUSH0 DUP1 REVERT JUMPDEST POP PUSH2 0x2A3 PUSH2 0x655 CALLDATASIZE PUSH1 0x4 PUSH2 0x3047 JUMP JUMPDEST PUSH2 0x251D JUMP JUMPDEST CALLVALUE DUP1 ISZERO PUSH2 0x665 JUMPI PUSH0 DUP1 REVERT JUMPDEST POP PUSH2 0x2D7 PUSH2 0x674 CALLDATASIZE PUSH1 0x4 PUSH2 0x306E JUMP JUMPDEST PUSH2 0x257C JUMP JUMPDEST CALLVALUE DUP1 ISZERO PUSH2 0x684 JUMPI PUSH0 DUP1 REVERT JUMPDEST POP PUSH2 0x2D7 PUSH2 0x693 CALLDATASIZE PUSH1 0x4 PUSH2 0x306E JUMP JUMPDEST PUSH2 0x258B JUMP JUMPDEST CALLVALUE DUP1 ISZERO PUSH2 0x6A3 JUMPI PUSH0 DUP1 REVERT JUMPDEST POP PUSH2 0x2D7 PUSH2 0x6B2 CALLDATASIZE PUSH1 0x4 PUSH2 0x306E JUMP JUMPDEST PUSH2 0x259A JUMP JUMPDEST CALLVALUE DUP1 ISZERO PUSH2 0x6C2 JUMPI PUSH0 DUP1 REVERT JUMPDEST POP PUSH2 0x2A3 PUSH2 0x6D1 CALLDATASIZE PUSH1 0x4 PUSH2 0x3085 JUMP JUMPDEST PUSH1 0x16 PUSH1 0x20 MSTORE PUSH0 SWAP1 DUP2 MSTORE PUSH1 0x40 SWAP1 KECCAK256 SLOAD PUSH1 0xFF AND DUP2 JUMP JUMPDEST PUSH2 0x31C PUSH2 0x25A9 JUMP JUMPDEST CALLVALUE DUP1 ISZERO PUSH2 0x6F8 JUMPI PUSH0 DUP1 REVERT JUMPDEST POP PUSH2 0x422 PUSH2 0x26DA JUMP JUMPDEST CALLVALUE DUP1 ISZERO PUSH2 0x70C JUMPI PUSH0 DUP1 REVERT JUMPDEST POP PUSH2 0x2D7 PUSH2 0x71B CALLDATASIZE PUSH1 0x4 PUSH2 0x306E JUMP JUMPDEST PUSH2 0x2726 JUMP JUMPDEST CALLVALUE DUP1 ISZERO PUSH2 0x72B JUMPI PUSH0 DUP1 REVERT JUMPDEST POP PUSH2 0x2A3 PUSH2 0x73A CALLDATASIZE PUSH1 0x4 PUSH2 0x3047 JUMP JUMPDEST PUSH2 0x2735 JUMP JUMPDEST CALLVALUE DUP1 ISZERO PUSH2 0x74A JUMPI PUSH0 DUP1 REVERT JUMPDEST POP PUSH2 0x2D7 PUSH2 0x759 CALLDATASIZE PUSH1 0x4 PUSH2 0x306E JUMP JUMPDEST PUSH2 0x2794 JUMP JUMPDEST CALLVALUE DUP1 ISZERO PUSH2 0x769 JUMPI PUSH0 DUP1 REVERT JUMPDEST POP PUSH2 0x2A3 PUSH2 0x778 CALLDATASIZE PUSH1 0x4 PUSH2 0x3047 JUMP JUMPDEST PUSH2 0x27A3 JUMP JUMPDEST CALLVALUE DUP1 ISZERO PUSH2 0x788 JUMPI PUSH0 DUP1 REVERT JUMPDEST POP PUSH2 0x2A3 PUSH2 0x797 CALLDATASIZE PUSH1 0x4 PUSH2 0x3047 JUMP JUMPDEST PUSH2 0x2802 JUMP JUMPDEST CALLVALUE DUP1 ISZERO PUSH2 0x7A7 JUMPI PUSH0 DUP1 REVERT JUMPDEST POP PUSH2 0x2D7 PUSH2 0x7B6 CALLDATASIZE PUSH1 0x4 PUSH2 0x306E JUMP JUMPDEST PUSH2 0x2861 JUMP JUMPDEST CALLVALUE DUP1 ISZERO PUSH2 0x7C6 JUMPI PUSH0 DUP1 REVERT JUMPDEST POP PUSH2 0x2A3 PUSH2 0x7D5 CALLDATASIZE PUSH1 0x4 PUSH2 0x3085 JUMP JUMPDEST PUSH1 0x15 PUSH1 0x20 MSTORE PUSH0 SWAP1 DUP2 MSTORE PUSH1 0x40 SWAP1 KECCAK256 SLOAD PUSH1 0xFF AND DUP2 JUMP JUMPDEST CALLVALUE DUP1 ISZERO PUSH2 0x7F4 JUMPI PUSH0 DUP1 REVERT JUMPDEST POP PUSH1 0xC SLOAD PUSH2 0x48C SWAP1 PUSH1 0x1 PUSH1 0x1 PUSH1 0xA0 SHL SUB AND DUP2 JUMP JUMPDEST CALLVALUE DUP1 ISZERO PUSH2 0x813 JUMPI PUSH0 DUP1 REVERT JUMPDEST POP PUSH2 0x2D7 PUSH2 0x822 CALLDATASIZE PUSH1 0x4 PUSH2 0x306E JUMP JUMPDEST PUSH2 0x286F JUMP JUMPDEST PUSH0 DUP1 JUMPDEST PUSH1 0xC DUP2 PUSH1 0xFF AND LT ISZERO PUSH2 0x886 JUMPI DUP3 PUSH1 0xFF AND PUSH1 0x6 DUP3 PUSH1 0xFF AND PUSH1 0xC DUP2 LT PUSH2 0x850 JUMPI PUSH2 0x850 PUSH2 0x30AB JUMP JUMPDEST PUSH1 0x20 DUP2 DIV SWAP1 SWAP2 ADD SLOAD PUSH1 0xFF PUSH1 0x1F SWAP1 SWAP3 AND PUSH2 0x100 EXP SWAP1 DIV AND SUB PUSH2 0x874 JUMPI POP PUSH1 0x1 SWAP3 SWAP2 POP POP JUMP JUMPDEST DUP1 PUSH2 0x87E DUP2 PUSH2 0x30D3 JUMP JUMPDEST SWAP2 POP POP PUSH2 0x82A JUMP JUMPDEST POP PUSH0 SWAP3 SWAP2 POP POP JUMP JUMPDEST PUSH1 0x8 DUP2 PUSH1 0xC DUP2 LT PUSH2 0x89D JUMPI PUSH0 DUP1 REVERT JUMPDEST PUSH1 0x20 SWAP2 DUP3 DUP3 DIV ADD SWAP2 SWAP1 MOD SWAP2 POP SLOAD SWAP1 PUSH2 0x100 EXP SWAP1 DIV PUSH1 0xFF AND DUP2 JUMP JUMPDEST PUSH1 0x9 DUP2 PUSH1 0xC DUP2 LT PUSH2 0x89D JUMPI PUSH0 DUP1 REVERT JUMPDEST PUSH1 0xE SLOAD PUSH1 0xFF AND PUSH1 0x1 EQ PUSH2 0x917 JUMPI PUSH1 0x40 MLOAD PUSH3 0x461BCD PUSH1 0xE5 SHL DUP2 MSTORE PUSH1 0x20 PUSH1 0x4 DUP3 ADD MSTORE PUSH1 0x14 PUSH1 0x24 DUP3 ADD MSTORE PUSH20 0x139BC81B5BDC994818995D1CC8185B1B1BDDD959 PUSH1 0x62 SHL PUSH1 0x44 DUP3 ADD MSTORE PUSH1 0x64 ADD JUMPDEST PUSH1 0x40 MLOAD DUP1 SWAP2 SUB SWAP1 REVERT JUMPDEST PUSH1 0xE DUP1 SLOAD PUSH1 0xFF NOT AND PUSH1 0x2 OR SWAP1 SSTORE NUMBER PUSH1 0x10 DUP2 SWAP1 SSTORE PUSH1 0x40 MLOAD PUSH32 0x2D21E9397283A99C7F2DF56BAF635AAB0655F2DEA12185FAC963AC115BE30F93 SWAP2 PUSH2 0x95C SWAP2 SWAP1 DUP2 MSTORE PUSH1 0x20 ADD SWAP1 JUMP JUMPDEST PUSH1 0x40 MLOAD DUP1 SWAP2 SUB SWAP1 LOG1 JUMP JUMPDEST PUSH1 0xE SLOAD PUSH1 0xFF AND PUSH1 0x2 EQ PUSH2 0x9B2 JUMPI PUSH1 0x40 MLOAD PUSH3 0x461BCD PUSH1 0xE5 SHL DUP2 MSTORE PUSH1 0x20 PUSH1 0x4 DUP3 ADD MSTORE PUSH1 0x14 PUSH1 0x24 DUP3 ADD MSTORE PUSH20 0x139BC81B5BDC994818995D1CC8185B1B1BDDD959 PUSH1 0x62 SHL PUSH1 0x44 DUP3 ADD MSTORE PUSH1 0x64 ADD PUSH2 0x90E JUMP JUMPDEST PUSH1 0xC SLOAD PUSH1 0x1 PUSH1 0x1 PUSH1 0xA0 SHL SUB AND CALLER EQ PUSH2 0xA0C JUMPI PUSH1 0x40 MLOAD PUSH3 0x461BCD PUSH1 0xE5 SHL DUP2 MSTORE PUSH1 0x20 PUSH1 0x4 DUP3 ADD MSTORE PUSH1 0x1D PUSH1 0x24 DUP3 ADD MSTORE PUSH32 0x4F6E6C7920686F73742063616E2067656E657261746520726573756C74000000 PUSH1 0x44 DUP3 ADD MSTORE PUSH1 0x64 ADD PUSH2 0x90E JUMP JUMPDEST PUSH1 0x10 SLOAD PUSH2 0xA1B SWAP1 PUSH1 0xC SWAP1 PUSH2 0x30F1 JUMP JUMPDEST PUSH2 0xA26 SWAP1 PUSH1 0x1 PUSH2 0x30F1 JUMP JUMPDEST NUMBER LT ISZERO PUSH2 0xA75 JUMPI PUSH1 0x40 MLOAD PUSH3 0x461BCD PUSH1 0xE5 SHL DUP2 MSTORE PUSH1 0x20 PUSH1 0x4 DUP3 ADD MSTORE PUSH1 0x18 PUSH1 0x24 DUP3 ADD MSTORE PUSH32 0x426C6F636B206E756D626572206E6F7420726561636865640000000000000000 PUSH1 0x44 DUP3 ADD MSTORE PUSH1 0x64 ADD PUSH2 0x90E JUMP JUMPDEST PUSH0 PUSH1 0x10 SLOAD PUSH1 0x1 PUSH2 0xA85 SWAP2 SWAP1 PUSH2 0x30F1 JUMP JUMPDEST PUSH1 0xC SLOAD PUSH1 0x40 MLOAD PUSH1 0x60 SWAP2 SWAP1 SWAP2 SHL PUSH1 0x1 PUSH1 0x1 PUSH1 0x60 SHL SUB NOT AND PUSH1 0x20 DUP3 ADD MSTORE SWAP1 BLOCKHASH SWAP2 POP PUSH0 SWAP1 PUSH1 0x34 ADD PUSH1 0x40 MLOAD PUSH1 0x20 DUP2 DUP4 SUB SUB DUP2 MSTORE SWAP1 PUSH1 0x40 MSTORE SWAP1 POP PUSH0 JUMPDEST PUSH1 0xF SLOAD DUP2 LT ISZERO PUSH2 0xB1F JUMPI DUP2 PUSH1 0xF DUP3 DUP2 SLOAD DUP2 LT PUSH2 0xADA JUMPI PUSH2 0xADA PUSH2 0x30AB JUMP JUMPDEST PUSH0 SWAP2 DUP3 MSTORE PUSH1 0x20 SWAP2 DUP3 SWAP1 KECCAK256 PUSH1 0x2 SWAP1 SWAP2 MUL ADD SLOAD PUSH1 0x40 MLOAD PUSH2 0xB05 SWAP4 SWAP3 PUSH1 0x1 PUSH1 0x1 PUSH1 0xA0 SHL SUB SWAP1 SWAP3 AND SWAP2 ADD PUSH2 0x3121 JUMP JUMPDEST PUSH1 0x40 DUP1 MLOAD PUSH1 0x1F NOT DUP2 DUP5 SUB ADD DUP2 MSTORE SWAP2 SWAP1 MSTORE SWAP2 POP PUSH1 0x1 ADD PUSH2 0xABC JUMP JUMPDEST POP PUSH0 DUP3 DUP3 PUSH1 0x40 MLOAD PUSH1 0x20 ADD PUSH2 0xB34 SWAP3 SWAP2 SWAP1 PUSH2 0x3148 JUMP JUMPDEST PUSH1 0x40 DUP1 MLOAD PUSH1 0x1F NOT DUP2 DUP5 SUB ADD DUP2 MSTORE SWAP2 SWAP1 MSTORE DUP1 MLOAD PUSH1 0x20 SWAP1 SWAP2 ADD KECCAK256 SWAP1 POP DUP1 PUSH2 0xB5A PUSH1 0x26 DUP3 PUSH2 0x3175 JUMP JUMPDEST PUSH1 0x11 DUP1 SLOAD PUSH1 0xFF SWAP3 SWAP1 SWAP3 AND PUSH1 0xFF NOT SWAP3 DUP4 AND DUP2 OR SWAP1 SWAP2 SSTORE PUSH1 0xE DUP1 SLOAD SWAP1 SWAP3 AND PUSH1 0x3 OR SWAP1 SWAP2 SSTORE PUSH1 0x40 MLOAD SWAP1 DUP2 MSTORE PUSH32 0x4898F0A86E5D5B202A6285B46DB8E265F964E837829F7D6BF7D1C072C6B88C09 SWAP1 PUSH1 0x20 ADD PUSH1 0x40 MLOAD DUP1 SWAP2 SUB SWAP1 LOG1 POP POP POP POP JUMP JUMPDEST PUSH1 0xB DUP2 PUSH1 0xC DUP2 LT PUSH2 0x89D JUMPI PUSH0 DUP1 REVERT JUMPDEST PUSH1 0xF DUP2 DUP2 SLOAD DUP2 LT PUSH2 0xBD3 JUMPI PUSH0 DUP1 REVERT JUMPDEST PUSH0 SWAP2 DUP3 MSTORE PUSH1 0x20 SWAP1 SWAP2 KECCAK256 PUSH1 0x2 SWAP1 SWAP2 MUL ADD DUP1 SLOAD PUSH1 0x1 SWAP1 SWAP2 ADD SLOAD PUSH1 0x1 PUSH1 0x1 PUSH1 0xA0 SHL SUB DUP3 AND SWAP3 POP PUSH1 0x1 PUSH1 0xA0 SHL SWAP1 SWAP2 DIV PUSH1 0xFF AND SWAP1 DUP4 JUMP JUMPDEST PUSH1 0x2 DUP2 PUSH1 0x12 DUP2 LT PUSH2 0x89D JUMPI PUSH0 DUP1 REVERT JUMPDEST PUSH0 DUP1 JUMPDEST PUSH1 0xC DUP2 PUSH1 0xFF AND LT ISZERO PUSH2 0x886 JUMPI DUP3 PUSH1 0xFF AND PUSH1 0xA DUP3 PUSH1 0xFF AND PUSH1 0xC DUP2 LT PUSH2 0xC3D JUMPI PUSH2 0xC3D PUSH2 0x30AB JUMP JUMPDEST PUSH1 0x20 DUP2 DIV SWAP1 SWAP2 ADD SLOAD PUSH1 0xFF PUSH1 0x1F SWAP1 SWAP3 AND PUSH2 0x100 EXP SWAP1 DIV AND SUB PUSH2 0xC61 JUMPI POP PUSH1 0x1 SWAP3 SWAP2 POP POP JUMP JUMPDEST DUP1 PUSH2 0xC6B DUP2 PUSH2 0x30D3 JUMP JUMPDEST SWAP2 POP POP PUSH2 0xC17 JUMP JUMPDEST PUSH0 DUP1 JUMPDEST PUSH1 0x12 DUP2 PUSH1 0xFF AND LT ISZERO PUSH2 0x886 JUMPI DUP3 PUSH1 0xFF AND PUSH1 0x4 DUP3 PUSH1 0xFF AND PUSH1 0x12 DUP2 LT PUSH2 0xC9C JUMPI PUSH2 0xC9C PUSH2 0x30AB JUMP JUMPDEST PUSH1 0x20 DUP2 DIV SWAP1 SWAP2 ADD SLOAD PUSH1 0xFF PUSH1 0x1F SWAP1 SWAP3 AND PUSH2 0x100 EXP SWAP1 DIV AND SUB PUSH2 0xCC0 JUMPI POP PUSH1 0x1 SWAP3 SWAP2 POP POP JUMP JUMPDEST DUP1 PUSH2 0xCCA DUP2 PUSH2 0x30D3 JUMP JUMPDEST SWAP2 POP POP PUSH2 0xC76 JUMP JUMPDEST PUSH1 0xA DUP2 PUSH1 0xC DUP2 LT PUSH2 0x89D JUMPI PUSH0 DUP1 REVERT JUMPDEST PUSH1 0x12 DUP2 DUP2 SLOAD DUP2 LT PUSH2 0xCF0 JUMPI PUSH0 DUP1 REVERT JUMPDEST PUSH0 SWAP2 DUP3 MSTORE PUSH1 0x20 SWAP1 SWAP2 KECCAK256 ADD SLOAD PUSH1 0x1 PUSH1 0x1 PUSH1 0xA0 SHL SUB AND SWAP1 POP DUP2 JUMP JUMPDEST PUSH1 0xE SLOAD PUSH1 0xFF AND PUSH1 0x3 EQ PUSH2 0xD55 JUMPI PUSH1 0x40 MLOAD PUSH3 0x461BCD PUSH1 0xE5 SHL DUP2 MSTORE PUSH1 0x20 PUSH1 0x4 DUP3 ADD MSTORE PUSH1 0x14 PUSH1 0x24 DUP3 ADD MSTORE PUSH20 0x14995CDD5B1D081B9BDD0819D95B995C985D1959 PUSH1 0x62 SHL PUSH1 0x44 DUP3 ADD MSTORE PUSH1 0x64 ADD PUSH2 0x90E JUMP JUMPDEST PUSH1 0x10 SLOAD PUSH2 0xD64 SWAP1 PUSH1 0xC SWAP1 PUSH2 0x30F1 JUMP JUMPDEST PUSH2 0xD6F SWAP1 PUSH1 0x1 PUSH2 0x30F1 JUMP JUMPDEST NUMBER LT ISZERO PUSH2 0xDCF JUMPI PUSH1 0x40 MLOAD PUSH3 0x461BCD PUSH1 0xE5 SHL DUP2 MSTORE PUSH1 0x20 PUSH1 0x4 DUP3 ADD MSTORE PUSH1 0x28 PUSH1 0x24 DUP3 ADD MSTORE PUSH32 0x57616974206174206C6561737420313220626C6F636B73206166746572206765 PUSH1 0x44 DUP3 ADD MSTORE PUSH8 0x3732B930BA34B7B7 PUSH1 0xC1 SHL PUSH1 0x64 DUP3 ADD MSTORE PUSH1 0x84 ADD PUSH2 0x90E JUMP JUMPDEST PUSH2 0xDD8 CALLER PUSH2 0x287E JUMP JUMPDEST PUSH2 0xE24 JUMPI PUSH1 0x40 MLOAD PUSH3 0x461BCD PUSH1 0xE5 SHL DUP2 MSTORE PUSH1 0x20 PUSH1 0x4 DUP3 ADD MSTORE PUSH1 0x1D PUSH1 0x24 DUP3 ADD MSTORE PUSH32 0x4F6E6C7920612076616C696461746F722063616E2076616C6964617465000000 PUSH1 0x44 DUP3 ADD MSTORE PUSH1 0x64 ADD PUSH2 0x90E JUMP JUMPDEST PUSH0 PUSH1 0x10 SLOAD PUSH1 0x1 PUSH2 0xE34 SWAP2 SWAP1 PUSH2 0x30F1 JUMP JUMPDEST SWAP1 POP DUP1 BLOCKHASH PUSH0 DUP1 MLOAD PUSH1 0x20 PUSH2 0x348F DUP4 CODECOPY DUP2 MLOAD SWAP2 MSTORE PUSH1 0x1 PUSH2 0xE51 DUP5 PUSH2 0x28D2 JUMP JUMPDEST PUSH2 0xE5A DUP5 PUSH2 0x29DD JUMP JUMPDEST PUSH1 0x40 MLOAD PUSH1 0x20 ADD PUSH2 0xE6B SWAP3 SWAP2 SWAP1 PUSH2 0x3188 JUMP JUMPDEST PUSH1 0x40 DUP1 MLOAD PUSH1 0x1F NOT DUP2 DUP5 SUB ADD DUP2 MSTORE DUP3 DUP3 MSTORE PUSH1 0x20 DUP4 ADD DUP8 SWAP1 MSTORE SWAP1 DUP3 ADD DUP6 SWAP1 MSTORE SWAP1 PUSH1 0x60 ADD PUSH1 0x40 DUP1 MLOAD PUSH1 0x1F NOT DUP2 DUP5 SUB ADD DUP2 MSTORE SWAP1 DUP3 SWAP1 MSTORE PUSH2 0xEA8 SWAP4 SWAP3 SWAP2 PUSH2 0x3224 JUMP JUMPDEST PUSH1 0x40 MLOAD DUP1 SWAP2 SUB SWAP1 LOG1 PUSH1 0xF SLOAD PUSH0 SWAP1 PUSH2 0xEC0 SWAP1 PUSH1 0x1 PUSH2 0x30F1 JUMP JUMPDEST PUSH8 0xFFFFFFFFFFFFFFFF DUP2 GT ISZERO PUSH2 0xED8 JUMPI PUSH2 0xED8 PUSH2 0x325B JUMP JUMPDEST PUSH1 0x40 MLOAD SWAP1 DUP1 DUP3 MSTORE DUP1 PUSH1 0x20 MUL PUSH1 0x20 ADD DUP3 ADD PUSH1 0x40 MSTORE DUP1 ISZERO PUSH2 0xF01 JUMPI DUP2 PUSH1 0x20 ADD PUSH1 0x20 DUP3 MUL DUP1 CALLDATASIZE DUP4 CALLDATACOPY ADD SWAP1 POP JUMPDEST POP PUSH1 0xC SLOAD DUP2 MLOAD SWAP2 SWAP3 POP PUSH1 0x1 PUSH1 0x1 PUSH1 0xA0 SHL SUB AND SWAP1 DUP3 SWAP1 PUSH0 SWAP1 PUSH2 0xF24 JUMPI PUSH2 0xF24 PUSH2 0x30AB JUMP JUMPDEST PUSH1 0x20 MUL PUSH1 0x20 ADD ADD SWAP1 PUSH1 0x1 PUSH1 0x1 PUSH1 0xA0 SHL SUB AND SWAP1 DUP2 PUSH1 0x1 PUSH1 0x1 PUSH1 0xA0 SHL SUB AND DUP2 MSTORE POP POP PUSH0 JUMPDEST PUSH1 0xF SLOAD DUP2 LT ISZERO PUSH2 0xFB8 JUMPI PUSH1 0xF DUP2 DUP2 SLOAD DUP2 LT PUSH2 0xF63 JUMPI PUSH2 0xF63 PUSH2 0x30AB JUMP JUMPDEST PUSH0 SWAP2 DUP3 MSTORE PUSH1 0x20 SWAP1 SWAP2 KECCAK256 PUSH1 0x2 SWAP1 SWAP2 MUL ADD SLOAD PUSH1 0x1 PUSH1 0x1 PUSH1 0xA0 SHL SUB AND DUP3 PUSH2 0xF88 DUP4 PUSH1 0x1 PUSH2 0x30F1 JUMP JUMPDEST DUP2 MLOAD DUP2 LT PUSH2 0xF98 JUMPI PUSH2 0xF98 PUSH2 0x30AB JUMP JUMPDEST PUSH1 0x1 PUSH1 0x1 PUSH1 0xA0 SHL SUB SWAP1 SWAP3 AND PUSH1 0x20 SWAP3 DUP4 MUL SWAP2 SWAP1 SWAP2 ADD SWAP1 SWAP2 ADD MSTORE PUSH1 0x1 ADD PUSH2 0xF46 JUMP JUMPDEST POP PUSH0 PUSH2 0xFC3 DUP3 PUSH2 0x2B99 JUMP JUMPDEST PUSH1 0xC SLOAD PUSH1 0x40 MLOAD PUSH1 0x60 SWAP2 SWAP1 SWAP2 SHL PUSH1 0x1 PUSH1 0x1 PUSH1 0x60 SHL SUB NOT AND PUSH1 0x20 DUP3 ADD MSTORE SWAP1 SWAP2 POP PUSH0 SWAP1 PUSH1 0x34 ADD PUSH1 0x40 MLOAD PUSH1 0x20 DUP2 DUP4 SUB SUB DUP2 MSTORE SWAP1 PUSH1 0x40 MSTORE SWAP1 POP PUSH0 JUMPDEST PUSH1 0xF SLOAD DUP2 LT ISZERO PUSH2 0x105C JUMPI DUP2 PUSH1 0xF DUP3 DUP2 SLOAD DUP2 LT PUSH2 0x1017 JUMPI PUSH2 0x1017 PUSH2 0x30AB JUMP JUMPDEST PUSH0 SWAP2 DUP3 MSTORE PUSH1 0x20 SWAP2 DUP3 SWAP1 KECCAK256 PUSH1 0x2 SWAP1 SWAP2 MUL ADD SLOAD PUSH1 0x40 MLOAD PUSH2 0x1042 SWAP4 SWAP3 PUSH1 0x1 PUSH1 0x1 PUSH1 0xA0 SHL SUB SWAP1 SWAP3 AND SWAP2 ADD PUSH2 0x3121 JUMP JUMPDEST PUSH1 0x40 DUP1 MLOAD PUSH1 0x1F NOT DUP2 DUP5 SUB ADD DUP2 MSTORE SWAP2 SWAP1 MSTORE SWAP2 POP PUSH1 0x1 ADD PUSH2 0xFF9 JUMP JUMPDEST POP PUSH0 DUP1 MLOAD PUSH1 0x20 PUSH2 0x348F DUP4 CODECOPY DUP2 MLOAD SWAP2 MSTORE PUSH1 0x2 DUP4 PUSH1 0x40 MLOAD PUSH1 0x20 ADD PUSH2 0x107E SWAP2 SWAP1 PUSH2 0x326F JUMP JUMPDEST PUSH1 0x40 MLOAD PUSH1 0x20 DUP2 DUP4 SUB SUB DUP2 MSTORE SWAP1 PUSH1 0x40 MSTORE DUP6 PUSH1 0x40 MLOAD PUSH1 0x20 ADD PUSH2 0x109E SWAP2 SWAP1 PUSH2 0x32A0 JUMP JUMPDEST PUSH1 0x40 DUP1 MLOAD PUSH1 0x1F NOT DUP2 DUP5 SUB ADD DUP2 MSTORE SWAP1 DUP3 SWAP1 MSTORE PUSH2 0x10BA SWAP4 SWAP3 SWAP2 PUSH2 0x3224 JUMP JUMPDEST PUSH1 0x40 MLOAD DUP1 SWAP2 SUB SWAP1 LOG1 PUSH0 DUP1 MLOAD PUSH1 0x20 PUSH2 0x348F DUP4 CODECOPY DUP2 MLOAD SWAP2 MSTORE PUSH1 0x3 PUSH2 0x10DB DUP4 PUSH2 0x2C92 JUMP JUMPDEST PUSH1 0x40 MLOAD PUSH1 0x20 ADD PUSH2 0x10EB SWAP2 SWAP1 PUSH2 0x32EB JUMP JUMPDEST PUSH1 0x40 DUP1 MLOAD PUSH1 0x1F NOT DUP2 DUP5 SUB ADD DUP2 MSTORE SWAP1 DUP3 SWAP1 MSTORE PUSH2 0x1108 SWAP3 SWAP2 DUP6 SWAP1 PUSH2 0x3224 JUMP JUMPDEST PUSH1 0x40 MLOAD DUP1 SWAP2 SUB SWAP1 LOG1 PUSH0 DUP5 DUP3 PUSH1 0x40 MLOAD PUSH1 0x20 ADD PUSH2 0x1124 SWAP3 SWAP2 SWAP1 PUSH2 0x3148 JUMP JUMPDEST PUSH1 0x40 MLOAD PUSH1 0x20 DUP2 DUP4 SUB SUB DUP2 MSTORE SWAP1 PUSH1 0x40 MSTORE DUP1 MLOAD SWAP1 PUSH1 0x20 ADD KECCAK256 SWAP1 POP PUSH0 DUP1 MLOAD PUSH1 0x20 PUSH2 0x348F DUP4 CODECOPY DUP2 MLOAD SWAP2 MSTORE PUSH1 0x4 PUSH2 0x1155 DUP4 PUSH2 0x29DD JUMP JUMPDEST PUSH1 0x40 MLOAD PUSH1 0x20 ADD PUSH2 0x1165 SWAP2 SWAP1 PUSH2 0x3326 JUMP JUMPDEST PUSH1 0x40 DUP1 MLOAD PUSH1 0x1F NOT DUP2 DUP5 SUB ADD DUP2 MSTORE DUP3 DUP3 MSTORE PUSH1 0x20 DUP4 ADD DUP7 SWAP1 MSTORE SWAP2 ADD PUSH1 0x40 DUP1 MLOAD PUSH1 0x1F NOT DUP2 DUP5 SUB ADD DUP2 MSTORE SWAP1 DUP3 SWAP1 MSTORE PUSH2 0x119A SWAP4 SWAP3 SWAP2 PUSH2 0x3224 JUMP JUMPDEST PUSH1 0x40 MLOAD DUP1 SWAP2 SUB SWAP1 LOG1 DUP1 PUSH0 PUSH2 0x11AF PUSH1 0x26 DUP4 PUSH2 0x3175 JUMP JUMPDEST SWAP1 POP PUSH0 DUP1 MLOAD PUSH1 0x20 PUSH2 0x348F DUP4 CODECOPY DUP2 MLOAD SWAP2 MSTORE PUSH1 0x5 PUSH2 0x11CB PUSH1 0x26 PUSH2 0x28D2 JUMP JUMPDEST PUSH2 0x11D7 DUP5 PUSH1 0xFF AND PUSH2 0x28D2 JUMP JUMPDEST PUSH1 0x40 MLOAD PUSH1 0x20 ADD PUSH2 0x11E8 SWAP3 SWAP2 SWAP1 PUSH2 0x3367 JUMP JUMPDEST PUSH1 0x40 DUP1 MLOAD PUSH1 0x1F NOT DUP2 DUP5 SUB ADD DUP2 MSTORE DUP3 DUP3 MSTORE PUSH1 0xFF DUP7 AND PUSH1 0x20 DUP5 ADD MSTORE SWAP2 ADD PUSH1 0x40 DUP1 MLOAD PUSH1 0x1F NOT DUP2 DUP5 SUB ADD DUP2 MSTORE SWAP1 DUP3 SWAP1 MSTORE PUSH2 0x121F SWAP4 SWAP3 SWAP2 PUSH2 0x3224 JUMP JUMPDEST PUSH1 0x40 MLOAD DUP1 SWAP2 SUB SWAP1 LOG1 PUSH1 0x11 SLOAD PUSH1 0xFF DUP3 DUP2 AND SWAP2 AND EQ PUSH2 0x1575 JUMPI CALLER PUSH0 SWAP1 DUP2 MSTORE PUSH1 0x16 PUSH1 0x20 MSTORE PUSH1 0x40 SWAP1 KECCAK256 SLOAD PUSH1 0xFF AND ISZERO PUSH2 0x129F JUMPI PUSH1 0x40 MLOAD PUSH3 0x461BCD PUSH1 0xE5 SHL DUP2 MSTORE PUSH1 0x20 PUSH1 0x4 DUP3 ADD MSTORE PUSH1 0x21 PUSH1 0x24 DUP3 ADD MSTORE PUSH32 0x56616C696461746F7220616C7265616479207369676E6564206D69736D617463 PUSH1 0x44 DUP3 ADD MSTORE PUSH1 0xD PUSH1 0xFB SHL PUSH1 0x64 DUP3 ADD MSTORE PUSH1 0x84 ADD PUSH2 0x90E JUMP JUMPDEST PUSH1 0x14 DUP1 SLOAD PUSH1 0x1 DUP1 DUP3 ADD SWAP1 SWAP3 SSTORE PUSH32 0xCE6D7B5282BD9A3661AE061FEED1DBDA4E52AB073B1F9285BE6E155D9C38D4EC ADD DUP1 SLOAD PUSH1 0x1 PUSH1 0x1 PUSH1 0xA0 SHL SUB NOT AND CALLER SWAP1 DUP2 OR SWAP1 SWAP2 SSTORE PUSH0 SWAP1 DUP2 MSTORE PUSH1 0x16 PUSH1 0x20 SWAP1 DUP2 MSTORE PUSH1 0x40 SWAP2 DUP3 SWAP1 KECCAK256 DUP1 SLOAD PUSH1 0xFF NOT AND SWAP1 SWAP4 OR SWAP1 SWAP3 SSTORE PUSH1 0x11 SLOAD DUP2 MLOAD PUSH1 0xFF DUP6 DUP2 AND DUP3 MSTORE SWAP1 SWAP2 AND SWAP3 DUP2 ADD SWAP3 SWAP1 SWAP3 MSTORE PUSH32 0x4BA207CAEDDFEFDADCCB23FBBF2401BC61A191BB9F71680B9C0CD8F84901186A SWAP2 ADD PUSH1 0x40 MLOAD DUP1 SWAP2 SUB SWAP1 LOG1 PUSH1 0x11 SLOAD PUSH1 0x14 SLOAD PUSH2 0x100 SWAP1 SWAP2 DIV PUSH1 0xFF AND GT PUSH2 0x1570 JUMPI PUSH0 JUMPDEST PUSH1 0xF SLOAD DUP2 LT ISZERO PUSH2 0x14BC JUMPI PUSH0 PUSH1 0xF DUP3 DUP2 SLOAD DUP2 LT PUSH2 0x1372 JUMPI PUSH2 0x1372 PUSH2 0x30AB JUMP JUMPDEST PUSH0 SWAP2 DUP3 MSTORE PUSH1 0x20 DUP1 DUP4 KECCAK256 PUSH1 0x40 DUP1 MLOAD PUSH1 0x60 DUP2 ADD DUP3 MSTORE PUSH1 0x2 SWAP5 SWAP1 SWAP5 MUL SWAP1 SWAP2 ADD DUP1 SLOAD PUSH1 0x1 PUSH1 0x1 PUSH1 0xA0 SHL SUB DUP2 AND DUP1 DUP7 MSTORE PUSH1 0x1 PUSH1 0xA0 SHL SWAP1 SWAP2 DIV PUSH1 0xFF AND SWAP4 DUP6 ADD SWAP4 SWAP1 SWAP4 MSTORE PUSH1 0x1 ADD SLOAD DUP4 DUP3 ADD DUP2 SWAP1 MSTORE SWAP1 MLOAD SWAP3 SWAP5 POP SWAP1 SWAP2 PUSH0 PUSH1 0x40 MLOAD DUP1 DUP4 SUB DUP2 DUP6 DUP8 GAS CALL SWAP3 POP POP POP RETURNDATASIZE DUP1 PUSH0 DUP2 EQ PUSH2 0x13FA JUMPI PUSH1 0x40 MLOAD SWAP2 POP PUSH1 0x1F NOT PUSH1 0x3F RETURNDATASIZE ADD AND DUP3 ADD PUSH1 0x40 MSTORE RETURNDATASIZE DUP3 MSTORE RETURNDATASIZE PUSH0 PUSH1 0x20 DUP5 ADD RETURNDATACOPY PUSH2 0x13FF JUMP JUMPDEST PUSH1 0x60 SWAP2 POP JUMPDEST POP POP DUP3 MLOAD PUSH1 0x40 DUP1 DUP6 ADD MLOAD DUP2 MLOAD DUP3 DUP2 MSTORE PUSH1 0x6 SWAP3 DUP2 ADD SWAP3 SWAP1 SWAP3 MSTORE PUSH6 0x1499599D5B99 PUSH1 0xD2 SHL PUSH1 0x60 DUP4 ADD MSTORE PUSH1 0x20 DUP3 ADD MSTORE SWAP2 SWAP3 POP PUSH1 0x1 PUSH1 0x1 PUSH1 0xA0 SHL SUB AND SWAP1 PUSH32 0xADD681B72722E953FA4E18F6819D1CB78D0EC24CE1EE69A6C7EBDC6F29AC10D8 SWAP1 PUSH1 0x80 ADD PUSH1 0x40 MLOAD DUP1 SWAP2 SUB SWAP1 LOG2 DUP1 PUSH2 0x14B2 JUMPI PUSH1 0x40 MLOAD PUSH3 0x461BCD PUSH1 0xE5 SHL DUP2 MSTORE PUSH1 0x20 PUSH1 0x4 DUP3 ADD MSTORE PUSH1 0x18 PUSH1 0x24 DUP3 ADD MSTORE PUSH32 0x526566756E6420746F2067616D626C6572206661696C65640000000000000000 PUSH1 0x44 DUP3 ADD MSTORE PUSH1 0x64 ADD PUSH2 0x90E JUMP JUMPDEST POP POP PUSH1 0x1 ADD PUSH2 0x1354 JUMP JUMPDEST POP PUSH1 0xC SLOAD PUSH1 0x40 DUP1 MLOAD DUP2 DUP2 MSTORE PUSH1 0xE DUP2 DUP4 ADD MSTORE PUSH14 0x1499599D5B99081D1BC81A1BDCDD PUSH1 0x92 SHL PUSH1 0x60 DUP3 ADD MSTORE SELFBALANCE PUSH1 0x20 DUP3 ADD MSTORE SWAP1 MLOAD PUSH1 0x1 PUSH1 0x1 PUSH1 0xA0 SHL SUB SWAP1 SWAP3 AND SWAP2 PUSH32 0xADD681B72722E953FA4E18F6819D1CB78D0EC24CE1EE69A6C7EBDC6F29AC10D8 SWAP2 DUP2 SWAP1 SUB PUSH1 0x80 ADD SWAP1 LOG2 PUSH1 0xC SLOAD PUSH1 0x40 MLOAD PUSH1 0x1 PUSH1 0x1 PUSH1 0xA0 SHL SUB SWAP1 SWAP2 AND SWAP1 SELFBALANCE DUP1 ISZERO PUSH2 0x8FC MUL SWAP2 PUSH0 DUP2 DUP2 DUP2 DUP6 DUP9 DUP9 CALL SWAP4 POP POP POP POP ISZERO DUP1 ISZERO PUSH2 0x1558 JUMPI RETURNDATASIZE PUSH0 DUP1 RETURNDATACOPY RETURNDATASIZE PUSH0 REVERT JUMPDEST POP POP PUSH1 0xE DUP1 SLOAD PUSH1 0xFF NOT AND PUSH1 0x5 OR SWAP1 SSTORE POP POP POP POP POP POP POP JUMP JUMPDEST PUSH2 0x16F2 JUMP JUMPDEST CALLER PUSH0 SWAP1 DUP2 MSTORE PUSH1 0x15 PUSH1 0x20 MSTORE PUSH1 0x40 SWAP1 KECCAK256 SLOAD PUSH1 0xFF AND ISZERO PUSH2 0x15D4 JUMPI PUSH1 0x40 MLOAD PUSH3 0x461BCD PUSH1 0xE5 SHL DUP2 MSTORE PUSH1 0x20 PUSH1 0x4 DUP3 ADD DUP2 SWAP1 MSTORE PUSH1 0x24 DUP3 ADD MSTORE PUSH32 0x56616C696461746F7220616C7265616479207369676E6564206D617463686564 PUSH1 0x44 DUP3 ADD MSTORE PUSH1 0x64 ADD PUSH2 0x90E JUMP JUMPDEST PUSH1 0x11 SLOAD PUSH1 0xFF DUP3 DUP2 AND SWAP2 AND EQ PUSH2 0x1636 JUMPI PUSH1 0x40 MLOAD PUSH3 0x461BCD PUSH1 0xE5 SHL DUP2 MSTORE PUSH1 0x20 PUSH1 0x4 DUP3 ADD MSTORE PUSH1 0x22 PUSH1 0x24 DUP3 ADD MSTORE PUSH32 0x53746F72656420726573756C7420213D207265636F6D70757465642072657375 PUSH1 0x44 DUP3 ADD MSTORE PUSH2 0x1B1D PUSH1 0xF2 SHL PUSH1 0x64 DUP3 ADD MSTORE PUSH1 0x84 ADD PUSH2 0x90E JUMP JUMPDEST PUSH1 0x13 DUP1 SLOAD PUSH1 0x1 DUP2 DUP2 ADD DUP4 SSTORE PUSH32 0x66DE8FFDA797E3DE9C05E8FC57B3BF0EC28A930D40B0D285D93C06501CF6A090 SWAP1 SWAP2 ADD DUP1 SLOAD PUSH1 0x1 PUSH1 0x1 PUSH1 0xA0 SHL SUB NOT AND CALLER SWAP1 DUP2 OR SWAP1 SWAP2 SSTORE PUSH0 SWAP1 DUP2 MSTORE PUSH1 0x15 PUSH1 0x20 MSTORE PUSH1 0x40 SWAP1 KECCAK256 DUP1 SLOAD PUSH1 0xFF NOT AND SWAP1 SWAP2 OR SWAP1 SSTORE PUSH1 0x11 SLOAD SWAP1 SLOAD PUSH2 0x100 SWAP1 SWAP2 DIV PUSH1 0xFF AND GT PUSH2 0x16F2 JUMPI PUSH1 0x11 SLOAD PUSH1 0x40 MLOAD PUSH1 0xFF SWAP1 SWAP2 AND DUP2 MSTORE PUSH32 0x5F438D100D0C0FB18E88113110BF411FD18C9A557C03E394CD32997B5055F9AE SWAP1 PUSH1 0x20 ADD PUSH1 0x40 MLOAD DUP1 SWAP2 SUB SWAP1 LOG1 PUSH1 0xE DUP1 SLOAD PUSH1 0xFF NOT AND PUSH1 0x4 OR SWAP1 SSTORE PUSH2 0x16F2 PUSH2 0x1A4E JUMP JUMPDEST POP POP POP POP POP POP POP POP JUMP JUMPDEST PUSH1 0x31 DUP2 PUSH1 0xFF AND GT ISZERO PUSH2 0x1750 JUMPI PUSH1 0x40 MLOAD PUSH3 0x461BCD PUSH1 0xE5 SHL DUP2 MSTORE PUSH1 0x20 PUSH1 0x4 DUP3 ADD MSTORE PUSH1 0x1F PUSH1 0x24 DUP3 ADD MSTORE PUSH32 0x4F7074696F6E206D757374206265206265747765656E203020616E6420333700 PUSH1 0x44 DUP3 ADD MSTORE PUSH1 0x64 ADD PUSH2 0x90E JUMP JUMPDEST PUSH1 0xD SLOAD CALLVALUE LT ISZERO PUSH2 0x17AE JUMPI PUSH1 0x40 MLOAD PUSH3 0x461BCD PUSH1 0xE5 SHL DUP2 MSTORE PUSH1 0x20 PUSH1 0x4 DUP3 ADD MSTORE PUSH1 0x23 PUSH1 0x24 DUP3 ADD MSTORE PUSH32 0x42657420616D6F756E742069732062656C6F7720746865206D696E696D756D20 PUSH1 0x44 DUP3 ADD MSTORE PUSH3 0x18995D PUSH1 0xEA SHL PUSH1 0x64 DUP3 ADD MSTORE PUSH1 0x84 ADD PUSH2 0x90E JUMP JUMPDEST PUSH1 0xA PUSH2 0x17BC PUSH2 0x168 SELFBALANCE PUSH2 0x33B7 JUMP JUMPDEST PUSH2 0x17C6 SWAP2 SWAP1 PUSH2 0x33CE JUMP JUMPDEST CALLVALUE LT PUSH2 0x1820 JUMPI PUSH1 0x40 MLOAD PUSH3 0x461BCD PUSH1 0xE5 SHL DUP2 MSTORE PUSH1 0x20 PUSH1 0x4 DUP3 ADD MSTORE PUSH1 0x23 PUSH1 0x24 DUP3 ADD MSTORE PUSH32 0x42657420616D6F756E742069732061626F766520746865206D6178696D756D20 PUSH1 0x44 DUP3 ADD MSTORE PUSH3 0x18995D PUSH1 0xEA SHL PUSH1 0x64 DUP3 ADD MSTORE PUSH1 0x84 ADD PUSH2 0x90E JUMP JUMPDEST PUSH1 0x40 DUP1 MLOAD PUSH1 0x60 DUP2 ADD DUP3 MSTORE CALLER DUP1 DUP3 MSTORE PUSH1 0xFF DUP5 DUP2 AND PUSH1 0x20 DUP1 DUP6 ADD DUP3 DUP2 MSTORE CALLVALUE DUP7 DUP9 ADD DUP2 DUP2 MSTORE PUSH1 0xF DUP1 SLOAD PUSH1 0x1 DUP2 ADD DUP3 SSTORE PUSH0 SWAP2 SWAP1 SWAP2 MSTORE SWAP8 MLOAD PUSH1 0x2 SWAP1 SWAP9 MUL PUSH32 0x8D1108E10BCB7C27DDDFC02ED9D693A074039D026CF4EA4240B40F7D581AC802 DUP2 ADD DUP1 SLOAD SWAP5 MLOAD SWAP1 SWAP8 AND PUSH1 0x1 PUSH1 0xA0 SHL MUL PUSH1 0x1 PUSH1 0x1 PUSH1 0xA8 SHL SUB NOT SWAP1 SWAP5 AND PUSH1 0x1 PUSH1 0x1 PUSH1 0xA0 SHL SUB SWAP1 SWAP10 AND SWAP9 SWAP1 SWAP9 OR SWAP3 SWAP1 SWAP3 OR SWAP1 SWAP5 SSTORE MLOAD PUSH32 0x8D1108E10BCB7C27DDDFC02ED9D693A074039D026CF4EA4240B40F7D581AC803 SWAP1 SWAP6 ADD SWAP5 SWAP1 SWAP5 SSTORE DUP5 MLOAD SWAP1 DUP2 MSTORE SWAP3 DUP4 ADD MSTORE SWAP2 PUSH32 0x9F6B4CCED64244A64465098F682029975B1614400B96BC6BD12C668083719166 SWAP2 ADD PUSH1 0x40 MLOAD DUP1 SWAP2 SUB SWAP1 LOG2 PUSH2 0x1910 PUSH2 0x8C6 JUMP JUMPDEST POP JUMP JUMPDEST PUSH0 DUP1 JUMPDEST PUSH1 0x12 DUP2 PUSH1 0xFF AND LT ISZERO PUSH2 0x886 JUMPI DUP3 PUSH1 0xFF AND PUSH1 0x2 DUP3 PUSH1 0xFF AND PUSH1 0x12 DUP2 LT PUSH2 0x193C JUMPI PUSH2 0x193C PUSH2 0x30AB JUMP JUMPDEST PUSH1 0x20 DUP2 DIV SWAP1 SWAP2 ADD SLOAD PUSH1 0xFF PUSH1 0x1F SWAP1 SWAP3 AND PUSH2 0x100 EXP SWAP1 DIV AND SUB PUSH2 0x1960 JUMPI POP PUSH1 0x1 SWAP3 SWAP2 POP POP JUMP JUMPDEST DUP1 PUSH2 0x196A DUP2 PUSH2 0x30D3 JUMP JUMPDEST SWAP2 POP POP PUSH2 0x1916 JUMP JUMPDEST PUSH0 DUP1 JUMPDEST PUSH1 0xC DUP2 PUSH1 0xFF AND LT ISZERO PUSH2 0x886 JUMPI DUP3 PUSH1 0xFF AND PUSH1 0x9 DUP3 PUSH1 0xFF AND PUSH1 0xC DUP2 LT PUSH2 0x199B JUMPI PUSH2 0x199B PUSH2 0x30AB JUMP JUMPDEST PUSH1 0x20 DUP2 DIV SWAP1 SWAP2 ADD SLOAD PUSH1 0xFF PUSH1 0x1F SWAP1 SWAP3 AND PUSH2 0x100 EXP SWAP1 DIV AND SUB PUSH2 0x19BF JUMPI POP PUSH1 0x1 SWAP3 SWAP2 POP POP JUMP JUMPDEST DUP1 PUSH2 0x19C9 DUP2 PUSH2 0x30D3 JUMP JUMPDEST SWAP2 POP POP PUSH2 0x1975 JUMP JUMPDEST PUSH0 DUP1 JUMPDEST PUSH1 0x12 DUP2 PUSH1 0xFF AND LT ISZERO PUSH2 0x886 JUMPI DUP3 PUSH1 0xFF AND PUSH1 0x3 DUP3 PUSH1 0xFF AND PUSH1 0x12 DUP2 LT PUSH2 0x19FA JUMPI PUSH2 0x19FA PUSH2 0x30AB JUMP JUMPDEST PUSH1 0x20 DUP2 DIV SWAP1 SWAP2 ADD SLOAD PUSH1 0xFF PUSH1 0x1F SWAP1 SWAP3 AND PUSH2 0x100 EXP SWAP1 DIV AND SUB PUSH2 0x1A1E JUMPI POP PUSH1 0x1 SWAP3 SWAP2 POP POP JUMP JUMPDEST DUP1 PUSH2 0x1A28 DUP2 PUSH2 0x30D3 JUMP JUMPDEST SWAP2 POP POP PUSH2 0x19D4 JUMP JUMPDEST PUSH1 0x14 DUP2 DUP2 SLOAD DUP2 LT PUSH2 0xCF0 JUMPI PUSH0 DUP1 REVERT JUMPDEST PUSH1 0x13 DUP2 DUP2 SLOAD DUP2 LT PUSH2 0xCF0 JUMPI PUSH0 DUP1 REVERT JUMPDEST PUSH1 0xE SLOAD PUSH1 0xFF AND PUSH1 0x4 EQ PUSH2 0x1AA3 JUMPI PUSH1 0x40 MLOAD PUSH3 0x461BCD PUSH1 0xE5 SHL DUP2 MSTORE PUSH1 0x20 PUSH1 0x4 DUP3 ADD MSTORE PUSH1 0x18 PUSH1 0x24 DUP3 ADD MSTORE PUSH32 0x526573756C74206E6F742076616C696461746564207965740000000000000000 PUSH1 0x44 DUP3 ADD MSTORE PUSH1 0x64 ADD PUSH2 0x90E JUMP JUMPDEST PUSH0 JUMPDEST PUSH1 0xF SLOAD DUP2 LT ISZERO PUSH2 0x23E7 JUMPI PUSH0 PUSH1 0xF DUP3 DUP2 SLOAD DUP2 LT PUSH2 0x1AC3 JUMPI PUSH2 0x1AC3 PUSH2 0x30AB JUMP JUMPDEST PUSH0 SWAP2 DUP3 MSTORE PUSH1 0x20 SWAP1 SWAP2 KECCAK256 PUSH1 0x2 SWAP1 SWAP2 MUL ADD SLOAD PUSH1 0x1 PUSH1 0xA0 SHL SWAP1 DIV PUSH1 0xFF AND LT DUP1 ISZERO SWAP1 PUSH2 0x1B18 JUMPI POP PUSH1 0x25 PUSH1 0xF DUP3 DUP2 SLOAD DUP2 LT PUSH2 0x1AFB JUMPI PUSH2 0x1AFB PUSH2 0x30AB JUMP JUMPDEST PUSH0 SWAP2 DUP3 MSTORE PUSH1 0x20 SWAP1 SWAP2 KECCAK256 PUSH1 0x2 SWAP1 SWAP2 MUL ADD SLOAD PUSH1 0x1 PUSH1 0xA0 SHL SWAP1 DIV PUSH1 0xFF AND GT ISZERO JUMPDEST ISZERO PUSH2 0x1CC8 JUMPI PUSH1 0x11 SLOAD PUSH1 0xF DUP1 SLOAD PUSH1 0xFF SWAP1 SWAP3 AND SWAP2 DUP4 SWAP1 DUP2 LT PUSH2 0x1B3A JUMPI PUSH2 0x1B3A PUSH2 0x30AB JUMP JUMPDEST PUSH0 SWAP2 DUP3 MSTORE PUSH1 0x20 SWAP1 SWAP2 KECCAK256 PUSH1 0x2 SWAP1 SWAP2 MUL ADD SLOAD PUSH1 0x1 PUSH1 0xA0 SHL SWAP1 DIV PUSH1 0xFF AND SUB PUSH2 0x1CC3 JUMPI PUSH1 0xF DUP2 DUP2 SLOAD DUP2 LT PUSH2 0x1B6C JUMPI PUSH2 0x1B6C PUSH2 0x30AB JUMP JUMPDEST SWAP1 PUSH0 MSTORE PUSH1 0x20 PUSH0 KECCAK256 SWAP1 PUSH1 0x2 MUL ADD PUSH0 ADD PUSH0 SWAP1 SLOAD SWAP1 PUSH2 0x100 EXP SWAP1 DIV PUSH1 0x1 PUSH1 0x1 PUSH1 0xA0 SHL SUB AND PUSH1 0x1 PUSH1 0x1 PUSH1 0xA0 SHL SUB AND PUSH2 0x8FC PUSH1 0xA PUSH2 0x168 PUSH1 0xF DUP6 DUP2 SLOAD DUP2 LT PUSH2 0x1BB1 JUMPI PUSH2 0x1BB1 PUSH2 0x30AB JUMP JUMPDEST SWAP1 PUSH0 MSTORE PUSH1 0x20 PUSH0 KECCAK256 SWAP1 PUSH1 0x2 MUL ADD PUSH1 0x1 ADD SLOAD PUSH2 0x1BCB SWAP2 SWAP1 PUSH2 0x33B7 JUMP JUMPDEST PUSH2 0x1BD5 SWAP2 SWAP1 PUSH2 0x33CE JUMP JUMPDEST PUSH1 0x40 MLOAD DUP2 ISZERO SWAP1 SWAP3 MUL SWAP2 PUSH0 DUP2 DUP2 DUP2 DUP6 DUP9 DUP9 CALL SWAP4 POP POP POP POP ISZERO DUP1 ISZERO PUSH2 0x1BFA JUMPI RETURNDATASIZE PUSH0 DUP1 RETURNDATACOPY RETURNDATASIZE PUSH0 REVERT JUMPDEST POP PUSH1 0xF DUP2 DUP2 SLOAD DUP2 LT PUSH2 0x1C0E JUMPI PUSH2 0x1C0E PUSH2 0x30AB JUMP JUMPDEST PUSH0 SWAP2 DUP3 MSTORE PUSH1 0x20 SWAP1 SWAP2 KECCAK256 PUSH1 0x2 SWAP1 SWAP2 MUL ADD SLOAD PUSH1 0xF DUP1 SLOAD PUSH1 0x1 PUSH1 0x1 PUSH1 0xA0 SHL SUB SWAP1 SWAP3 AND SWAP2 PUSH0 DUP1 MLOAD PUSH1 0x20 PUSH2 0x346F DUP4 CODECOPY DUP2 MLOAD SWAP2 MSTORE SWAP2 SWAP1 DUP5 SWAP1 DUP2 LT PUSH2 0x1C4E JUMPI PUSH2 0x1C4E PUSH2 0x30AB JUMP JUMPDEST SWAP1 PUSH0 MSTORE PUSH1 0x20 PUSH0 KECCAK256 SWAP1 PUSH1 0x2 MUL ADD PUSH0 ADD PUSH1 0x14 SWAP1 SLOAD SWAP1 PUSH2 0x100 EXP SWAP1 DIV PUSH1 0xFF AND PUSH1 0xA PUSH2 0x168 PUSH1 0xF DUP7 DUP2 SLOAD DUP2 LT PUSH2 0x1C82 JUMPI PUSH2 0x1C82 PUSH2 0x30AB JUMP JUMPDEST SWAP1 PUSH0 MSTORE PUSH1 0x20 PUSH0 KECCAK256 SWAP1 PUSH1 0x2 MUL ADD PUSH1 0x1 ADD SLOAD PUSH2 0x1C9C SWAP2 SWAP1 PUSH2 0x33B7 JUMP JUMPDEST PUSH2 0x1CA6 SWAP2 SWAP1 PUSH2 0x33CE JUMP JUMPDEST PUSH1 0x40 DUP1 MLOAD PUSH1 0xFF SWAP1 SWAP4 AND DUP4 MSTORE PUSH1 0x20 DUP4 ADD SWAP2 SWAP1 SWAP2 MSTORE ADD PUSH1 0x40 MLOAD DUP1 SWAP2 SUB SWAP1 LOG2 JUMPDEST PUSH2 0x23E7 JUMP JUMPDEST PUSH1 0xF DUP2 DUP2 SLOAD DUP2 LT PUSH2 0x1CDB JUMPI PUSH2 0x1CDB PUSH2 0x30AB JUMP JUMPDEST PUSH0 SWAP2 DUP3 MSTORE PUSH1 0x20 SWAP1 SWAP2 KECCAK256 PUSH1 0x2 SWAP1 SWAP2 MUL ADD SLOAD PUSH1 0x1 PUSH1 0xA0 SHL SWAP1 DIV PUSH1 0xFF AND PUSH1 0x26 SUB PUSH2 0x1E37 JUMPI PUSH1 0x11 SLOAD PUSH2 0x1D0B SWAP1 PUSH1 0xFF AND PUSH2 0x24BF JUMP JUMPDEST ISZERO PUSH2 0x1CC3 JUMPI PUSH1 0xF DUP2 DUP2 SLOAD DUP2 LT PUSH2 0x1D23 JUMPI PUSH2 0x1D23 PUSH2 0x30AB JUMP JUMPDEST SWAP1 PUSH0 MSTORE PUSH1 0x20 PUSH0 KECCAK256 SWAP1 PUSH1 0x2 MUL ADD PUSH0 ADD PUSH0 SWAP1 SLOAD SWAP1 PUSH2 0x100 EXP SWAP1 DIV PUSH1 0x1 PUSH1 0x1 PUSH1 0xA0 SHL SUB AND PUSH1 0x1 PUSH1 0x1 PUSH1 0xA0 SHL SUB AND PUSH2 0x8FC PUSH1 0xA PUSH1 0x14 PUSH1 0xF DUP6 DUP2 SLOAD DUP2 LT PUSH2 0x1D67 JUMPI PUSH2 0x1D67 PUSH2 0x30AB JUMP JUMPDEST SWAP1 PUSH0 MSTORE PUSH1 0x20 PUSH0 KECCAK256 SWAP1 PUSH1 0x2 MUL ADD PUSH1 0x1 ADD SLOAD PUSH2 0x1D81 SWAP2 SWAP1 PUSH2 0x33B7 JUMP JUMPDEST PUSH2 0x1D8B SWAP2 SWAP1 PUSH2 0x33CE JUMP JUMPDEST PUSH1 0x40 MLOAD DUP2 ISZERO SWAP1 SWAP3 MUL SWAP2 PUSH0 DUP2 DUP2 DUP2 DUP6 DUP9 DUP9 CALL SWAP4 POP POP POP POP ISZERO DUP1 ISZERO PUSH2 0x1DB0 JUMPI RETURNDATASIZE PUSH0 DUP1 RETURNDATACOPY RETURNDATASIZE PUSH0 REVERT JUMPDEST POP PUSH1 0xF DUP2 DUP2 SLOAD DUP2 LT PUSH2 0x1DC4 JUMPI PUSH2 0x1DC4 PUSH2 0x30AB JUMP JUMPDEST PUSH0 SWAP2 DUP3 MSTORE PUSH1 0x20 SWAP1 SWAP2 KECCAK256 PUSH1 0x2 SWAP1 SWAP2 MUL ADD SLOAD PUSH1 0xF DUP1 SLOAD PUSH1 0x1 PUSH1 0x1 PUSH1 0xA0 SHL SUB SWAP1 SWAP3 AND SWAP2 PUSH0 DUP1 MLOAD PUSH1 0x20 PUSH2 0x346F DUP4 CODECOPY DUP2 MLOAD SWAP2 MSTORE SWAP2 SWAP1 DUP5 SWAP1 DUP2 LT PUSH2 0x1E04 JUMPI PUSH2 0x1E04 PUSH2 0x30AB JUMP JUMPDEST SWAP1 PUSH0 MSTORE PUSH1 0x20 PUSH0 KECCAK256 SWAP1 PUSH1 0x2 MUL ADD PUSH0 ADD PUSH1 0x14 SWAP1 SLOAD SWAP1 PUSH2 0x100 EXP SWAP1 DIV PUSH1 0xFF AND PUSH1 0xA PUSH1 0x14 PUSH1 0xF DUP7 DUP2 SLOAD DUP2 LT PUSH2 0x1C82 JUMPI PUSH2 0x1C82 PUSH2 0x30AB JUMP JUMPDEST PUSH1 0xF DUP2 DUP2 SLOAD DUP2 LT PUSH2 0x1E4A JUMPI PUSH2 0x1E4A PUSH2 0x30AB JUMP JUMPDEST PUSH0 SWAP2 DUP3 MSTORE PUSH1 0x20 SWAP1 SWAP2 KECCAK256 PUSH1 0x2 SWAP1 SWAP2 MUL ADD SLOAD PUSH1 0x1 PUSH1 0xA0 SHL SWAP1 DIV PUSH1 0xFF AND PUSH1 0x27 SUB PUSH2 0x1E7A JUMPI PUSH1 0x11 SLOAD PUSH2 0x1D0B SWAP1 PUSH1 0xFF AND PUSH2 0x27A3 JUMP JUMPDEST PUSH1 0xF DUP2 DUP2 SLOAD DUP2 LT PUSH2 0x1E8D JUMPI PUSH2 0x1E8D PUSH2 0x30AB JUMP JUMPDEST PUSH0 SWAP2 DUP3 MSTORE PUSH1 0x20 SWAP1 SWAP2 KECCAK256 PUSH1 0x2 SWAP1 SWAP2 MUL ADD SLOAD PUSH1 0x1 PUSH1 0xA0 SHL SWAP1 DIV PUSH1 0xFF AND PUSH1 0x28 SUB PUSH2 0x1EBD JUMPI PUSH1 0x11 SLOAD PUSH2 0x1D0B SWAP1 PUSH1 0xFF AND PUSH2 0x1913 JUMP JUMPDEST PUSH1 0xF DUP2 DUP2 SLOAD DUP2 LT PUSH2 0x1ED0 JUMPI PUSH2 0x1ED0 PUSH2 0x30AB JUMP JUMPDEST PUSH0 SWAP2 DUP3 MSTORE PUSH1 0x20 SWAP1 SWAP2 KECCAK256 PUSH1 0x2 SWAP1 SWAP2 MUL ADD SLOAD PUSH1 0x1 PUSH1 0xA0 SHL SWAP1 DIV PUSH1 0xFF AND PUSH1 0x29 SUB PUSH2 0x1F00 JUMPI PUSH1 0x11 SLOAD PUSH2 0x1D0B SWAP1 PUSH1 0xFF AND PUSH2 0x19D1 JUMP JUMPDEST PUSH1 0xF DUP2 DUP2 SLOAD DUP2 LT PUSH2 0x1F13 JUMPI PUSH2 0x1F13 PUSH2 0x30AB JUMP JUMPDEST PUSH0 SWAP2 DUP3 MSTORE PUSH1 0x20 SWAP1 SWAP2 KECCAK256 PUSH1 0x2 SWAP1 SWAP2 MUL ADD SLOAD PUSH1 0x1 PUSH1 0xA0 SHL SWAP1 DIV PUSH1 0xFF AND PUSH1 0x2A SUB PUSH2 0x1F43 JUMPI PUSH1 0x11 SLOAD PUSH2 0x1D0B SWAP1 PUSH1 0xFF AND PUSH2 0xC73 JUMP JUMPDEST PUSH1 0xF DUP2 DUP2 SLOAD DUP2 LT PUSH2 0x1F56 JUMPI PUSH2 0x1F56 PUSH2 0x30AB JUMP JUMPDEST PUSH0 SWAP2 DUP3 MSTORE PUSH1 0x20 SWAP1 SWAP2 KECCAK256 PUSH1 0x2 SWAP1 SWAP2 MUL ADD SLOAD PUSH1 0x1 PUSH1 0xA0 SHL SWAP1 DIV PUSH1 0xFF AND PUSH1 0x2B SUB PUSH2 0x1F86 JUMPI PUSH1 0x11 SLOAD PUSH2 0x1D0B SWAP1 PUSH1 0xFF AND PUSH2 0x2735 JUMP JUMPDEST PUSH1 0xF DUP2 DUP2 SLOAD DUP2 LT PUSH2 0x1F99 JUMPI PUSH2 0x1F99 PUSH2 0x30AB JUMP JUMPDEST PUSH0 SWAP2 DUP3 MSTORE PUSH1 0x20 SWAP1 SWAP2 KECCAK256 PUSH1 0x2 SWAP1 SWAP2 MUL ADD SLOAD PUSH1 0x1 PUSH1 0xA0 SHL SWAP1 DIV PUSH1 0xFF AND PUSH1 0x2C SUB PUSH2 0x212F JUMPI PUSH1 0x11 SLOAD PUSH2 0x1FC9 SWAP1 PUSH1 0xFF AND PUSH2 0x827 JUMP JUMPDEST ISZERO PUSH2 0x212A JUMPI PUSH1 0xF DUP2 DUP2 SLOAD DUP2 LT PUSH2 0x1FE1 JUMPI PUSH2 0x1FE1 PUSH2 0x30AB JUMP JUMPDEST PUSH0 SWAP2 DUP3 MSTORE PUSH1 0x20 SWAP1 SWAP2 KECCAK256 PUSH1 0x2 SWAP1 SWAP2 MUL ADD SLOAD PUSH1 0xF DUP1 SLOAD PUSH1 0x1 PUSH1 0x1 PUSH1 0xA0 SHL SUB SWAP1 SWAP3 AND SWAP2 PUSH2 0x8FC SWAP2 PUSH1 0xA SWAP2 DUP2 SWAP1 DUP7 SWAP1 DUP2 LT PUSH2 0x201A JUMPI PUSH2 0x201A PUSH2 0x30AB JUMP JUMPDEST SWAP1 PUSH0 MSTORE PUSH1 0x20 PUSH0 KECCAK256 SWAP1 PUSH1 0x2 MUL ADD PUSH1 0x1 ADD SLOAD PUSH2 0x2034 SWAP2 SWAP1 PUSH2 0x33B7 JUMP JUMPDEST PUSH2 0x203E SWAP2 SWAP1 PUSH2 0x33CE JUMP JUMPDEST PUSH1 0x40 MLOAD DUP2 ISZERO SWAP1 SWAP3 MUL SWAP2 PUSH0 DUP2 DUP2 DUP2 DUP6 DUP9 DUP9 CALL SWAP4 POP POP POP POP ISZERO DUP1 ISZERO PUSH2 0x2063 JUMPI RETURNDATASIZE PUSH0 DUP1 RETURNDATACOPY RETURNDATASIZE PUSH0 REVERT JUMPDEST POP PUSH1 0xF DUP2 DUP2 SLOAD DUP2 LT PUSH2 0x2077 JUMPI PUSH2 0x2077 PUSH2 0x30AB JUMP JUMPDEST PUSH0 SWAP2 DUP3 MSTORE PUSH1 0x20 SWAP1 SWAP2 KECCAK256 PUSH1 0x2 SWAP1 SWAP2 MUL ADD SLOAD PUSH1 0xF DUP1 SLOAD PUSH1 0x1 PUSH1 0x1 PUSH1 0xA0 SHL SUB SWAP1 SWAP3 AND SWAP2 PUSH0 DUP1 MLOAD PUSH1 0x20 PUSH2 0x346F DUP4 CODECOPY DUP2 MLOAD SWAP2 MSTORE SWAP2 SWAP1 DUP5 SWAP1 DUP2 LT PUSH2 0x20B7 JUMPI PUSH2 0x20B7 PUSH2 0x30AB JUMP JUMPDEST SWAP1 PUSH0 MSTORE PUSH1 0x20 PUSH0 KECCAK256 SWAP1 PUSH1 0x2 MUL ADD PUSH0 ADD PUSH1 0x14 SWAP1 SLOAD SWAP1 PUSH2 0x100 EXP SWAP1 DIV PUSH1 0xFF AND PUSH1 0xA PUSH1 0xF DUP1 DUP7 DUP2 SLOAD DUP2 LT PUSH2 0x20E9 JUMPI PUSH2 0x20E9 PUSH2 0x30AB JUMP JUMPDEST SWAP1 PUSH0 MSTORE PUSH1 0x20 PUSH0 KECCAK256 SWAP1 PUSH1 0x2 MUL ADD PUSH1 0x1 ADD SLOAD PUSH2 0x2103 SWAP2 SWAP1 PUSH2 0x33B7 JUMP JUMPDEST PUSH2 0x210D SWAP2 SWAP1 PUSH2 0x33CE JUMP JUMPDEST PUSH1 0x40 DUP1 MLOAD PUSH1 0xFF SWAP1 SWAP4 AND DUP4 MSTORE PUSH1 0x20 DUP4 ADD SWAP2 SWAP1 SWAP2 MSTORE ADD PUSH1 0x40 MLOAD DUP1 SWAP2 SUB SWAP1 LOG2 JUMPDEST PUSH2 0x23DF JUMP JUMPDEST PUSH1 0xF DUP2 DUP2 SLOAD DUP2 LT PUSH2 0x2142 JUMPI PUSH2 0x2142 PUSH2 0x30AB JUMP JUMPDEST PUSH0 SWAP2 DUP3 MSTORE PUSH1 0x20 SWAP1 SWAP2 KECCAK256 PUSH1 0x2 SWAP1 SWAP2 MUL ADD SLOAD PUSH1 0x1 PUSH1 0xA0 SHL SWAP1 DIV PUSH1 0xFF AND PUSH1 0x2D SUB PUSH2 0x2172 JUMPI PUSH1 0x11 SLOAD PUSH2 0x1FC9 SWAP1 PUSH1 0xFF AND PUSH2 0x2460 JUMP JUMPDEST PUSH1 0xF DUP2 DUP2 SLOAD DUP2 LT PUSH2 0x2185 JUMPI PUSH2 0x2185 PUSH2 0x30AB JUMP JUMPDEST PUSH0 SWAP2 DUP3 MSTORE PUSH1 0x20 SWAP1 SWAP2 KECCAK256 PUSH1 0x2 SWAP1 SWAP2 MUL ADD SLOAD PUSH1 0x1 PUSH1 0xA0 SHL SWAP1 DIV PUSH1 0xFF AND PUSH1 0x2E SUB PUSH2 0x21B5 JUMPI PUSH1 0x11 SLOAD PUSH2 0x1FC9 SWAP1 PUSH1 0xFF AND PUSH2 0x2802 JUMP JUMPDEST PUSH1 0xF DUP2 DUP2 SLOAD DUP2 LT PUSH2 0x21C8 JUMPI PUSH2 0x21C8 PUSH2 0x30AB JUMP JUMPDEST PUSH0 SWAP2 DUP3 MSTORE PUSH1 0x20 SWAP1 SWAP2 KECCAK256 PUSH1 0x2 SWAP1 SWAP2 MUL ADD SLOAD PUSH1 0x1 PUSH1 0xA0 SHL SWAP1 DIV PUSH1 0xFF AND PUSH1 0x2F SUB PUSH2 0x21F8 JUMPI PUSH1 0x11 SLOAD PUSH2 0x1FC9 SWAP1 PUSH1 0xFF AND PUSH2 0x1972 JUMP JUMPDEST PUSH1 0xF DUP2 DUP2 SLOAD DUP2 LT PUSH2 0x220B JUMPI PUSH2 0x220B PUSH2 0x30AB JUMP JUMPDEST PUSH0 SWAP2 DUP3 MSTORE PUSH1 0x20 SWAP1 SWAP2 KECCAK256 PUSH1 0x2 SWAP1 SWAP2 MUL ADD SLOAD PUSH1 0x1 PUSH1 0xA0 SHL SWAP1 DIV PUSH1 0xFF AND PUSH1 0x30 SUB PUSH2 0x223B JUMPI PUSH1 0x11 SLOAD PUSH2 0x1FC9 SWAP1 PUSH1 0xFF AND PUSH2 0xC14 JUMP JUMPDEST PUSH1 0xF DUP2 DUP2 SLOAD DUP2 LT PUSH2 0x224E JUMPI PUSH2 0x224E PUSH2 0x30AB JUMP JUMPDEST PUSH0 SWAP2 DUP3 MSTORE PUSH1 0x20 SWAP1 SWAP2 KECCAK256 PUSH1 0x2 SWAP1 SWAP2 MUL ADD SLOAD PUSH1 0x1 PUSH1 0xA0 SHL SWAP1 DIV PUSH1 0xFF AND PUSH1 0x31 SUB PUSH2 0x23DF JUMPI PUSH1 0x11 SLOAD PUSH2 0x227E SWAP1 PUSH1 0xFF AND PUSH2 0x251D JUMP JUMPDEST ISZERO PUSH2 0x23DF JUMPI PUSH1 0xF DUP2 DUP2 SLOAD DUP2 LT PUSH2 0x2296 JUMPI PUSH2 0x2296 PUSH2 0x30AB JUMP JUMPDEST PUSH0 SWAP2 DUP3 MSTORE PUSH1 0x20 SWAP1 SWAP2 KECCAK256 PUSH1 0x2 SWAP1 SWAP2 MUL ADD SLOAD PUSH1 0xF DUP1 SLOAD PUSH1 0x1 PUSH1 0x1 PUSH1 0xA0 SHL SUB SWAP1 SWAP3 AND SWAP2 PUSH2 0x8FC SWAP2 PUSH1 0xA SWAP2 DUP2 SWAP1 DUP7 SWAP1 DUP2 LT PUSH2 0x22CF JUMPI PUSH2 0x22CF PUSH2 0x30AB JUMP JUMPDEST SWAP1 PUSH0 MSTORE PUSH1 0x20 PUSH0 KECCAK256 SWAP1 PUSH1 0x2 MUL ADD PUSH1 0x1 ADD SLOAD PUSH2 0x22E9 SWAP2 SWAP1 PUSH2 0x33B7 JUMP JUMPDEST PUSH2 0x22F3 SWAP2 SWAP1 PUSH2 0x33CE JUMP JUMPDEST PUSH1 0x40 MLOAD DUP2 ISZERO SWAP1 SWAP3 MUL SWAP2 PUSH0 DUP2 DUP2 DUP2 DUP6 DUP9 DUP9 CALL SWAP4 POP POP POP POP ISZERO DUP1 ISZERO PUSH2 0x2318 JUMPI RETURNDATASIZE PUSH0 DUP1 RETURNDATACOPY RETURNDATASIZE PUSH0 REVERT JUMPDEST POP PUSH1 0xF DUP2 DUP2 SLOAD DUP2 LT PUSH2 0x232C JUMPI PUSH2 0x232C PUSH2 0x30AB JUMP JUMPDEST PUSH0 SWAP2 DUP3 MSTORE PUSH1 0x20 SWAP1 SWAP2 KECCAK256 PUSH1 0x2 SWAP1 SWAP2 MUL ADD SLOAD PUSH1 0xF DUP1 SLOAD PUSH1 0x1 PUSH1 0x1 PUSH1 0xA0 SHL SUB SWAP1 SWAP3 AND SWAP2 PUSH0 DUP1 MLOAD PUSH1 0x20 PUSH2 0x346F DUP4 CODECOPY DUP2 MLOAD SWAP2 MSTORE SWAP2 SWAP1 DUP5 SWAP1 DUP2 LT PUSH2 0x236C JUMPI PUSH2 0x236C PUSH2 0x30AB JUMP JUMPDEST SWAP1 PUSH0 MSTORE PUSH1 0x20 PUSH0 KECCAK256 SWAP1 PUSH1 0x2 MUL ADD PUSH0 ADD PUSH1 0x14 SWAP1 SLOAD SWAP1 PUSH2 0x100 EXP SWAP1 DIV PUSH1 0xFF AND PUSH1 0xA PUSH1 0xF DUP1 DUP7 DUP2 SLOAD DUP2 LT PUSH2 0x239E JUMPI PUSH2 0x239E PUSH2 0x30AB JUMP JUMPDEST SWAP1 PUSH0 MSTORE PUSH1 0x20 PUSH0 KECCAK256 SWAP1 PUSH1 0x2 MUL ADD PUSH1 0x1 ADD SLOAD PUSH2 0x23B8 SWAP2 SWAP1 PUSH2 0x33B7 JUMP JUMPDEST PUSH2 0x23C2 SWAP2 SWAP1 PUSH2 0x33CE JUMP JUMPDEST PUSH1 0x40 DUP1 MLOAD PUSH1 0xFF SWAP1 SWAP4 AND DUP4 MSTORE PUSH1 0x20 DUP4 ADD SWAP2 SWAP1 SWAP2 MSTORE ADD PUSH1 0x40 MLOAD DUP1 SWAP2 SUB SWAP1 LOG2 JUMPDEST PUSH1 0x1 ADD PUSH2 0x1AA5 JUMP JUMPDEST POP PUSH1 0xC SLOAD PUSH1 0x40 MLOAD SELFBALANCE DUP2 MSTORE PUSH1 0x1 PUSH1 0x1 PUSH1 0xA0 SHL SUB SWAP1 SWAP2 AND SWAP1 PUSH32 0xD4BA6FEC82D9B0E8FFE50B9FED9E4BE3B25C984CE1E0E016405A5528726E8A2C SWAP1 PUSH1 0x20 ADD PUSH1 0x40 MLOAD DUP1 SWAP2 SUB SWAP1 LOG2 PUSH1 0xC SLOAD PUSH1 0x40 MLOAD PUSH1 0x1 PUSH1 0x1 PUSH1 0xA0 SHL SUB SWAP1 SWAP2 AND SWAP1 SELFBALANCE DUP1 ISZERO PUSH2 0x8FC MUL SWAP2 PUSH0 DUP2 DUP2 DUP2 DUP6 DUP9 DUP9 CALL SWAP4 POP POP POP POP ISZERO DUP1 ISZERO PUSH2 0x1910 JUMPI RETURNDATASIZE PUSH0 DUP1 RETURNDATACOPY RETURNDATASIZE PUSH0 REVERT JUMPDEST PUSH0 DUP1 JUMPDEST PUSH1 0xC DUP2 PUSH1 0xFF AND LT ISZERO PUSH2 0x886 JUMPI DUP3 PUSH1 0xFF AND PUSH1 0x7 DUP3 PUSH1 0xFF AND PUSH1 0xC DUP2 LT PUSH2 0x2489 JUMPI PUSH2 0x2489 PUSH2 0x30AB JUMP JUMPDEST PUSH1 0x20 DUP2 DIV SWAP1 SWAP2 ADD SLOAD PUSH1 0xFF PUSH1 0x1F SWAP1 SWAP3 AND PUSH2 0x100 EXP SWAP1 DIV AND SUB PUSH2 0x24AD JUMPI POP PUSH1 0x1 SWAP3 SWAP2 POP POP JUMP JUMPDEST DUP1 PUSH2 0x24B7 DUP2 PUSH2 0x30D3 JUMP JUMPDEST SWAP2 POP POP PUSH2 0x2463 JUMP JUMPDEST PUSH0 DUP1 JUMPDEST PUSH1 0x12 DUP2 PUSH1 0xFF AND LT ISZERO PUSH2 0x886 JUMPI DUP3 PUSH1 0xFF AND PUSH0 DUP3 PUSH1 0xFF AND PUSH1 0x12 DUP2 LT PUSH2 0x24E7 JUMPI PUSH2 0x24E7 PUSH2 0x30AB JUMP JUMPDEST PUSH1 0x20 DUP2 DIV SWAP1 SWAP2 ADD SLOAD PUSH1 0xFF PUSH1 0x1F SWAP1 SWAP3 AND PUSH2 0x100 EXP SWAP1 DIV AND SUB PUSH2 0x250B JUMPI POP PUSH1 0x1 SWAP3 SWAP2 POP POP JUMP JUMPDEST DUP1 PUSH2 0x2515 DUP2 PUSH2 0x30D3 JUMP JUMPDEST SWAP2 POP POP PUSH2 0x24C2 JUMP JUMPDEST PUSH0 DUP1 JUMPDEST PUSH1 0xC DUP2 PUSH1 0xFF AND LT ISZERO PUSH2 0x886 JUMPI DUP3 PUSH1 0xFF AND PUSH1 0xB DUP3 PUSH1 0xFF AND PUSH1 0xC DUP2 LT PUSH2 0x2546 JUMPI PUSH2 0x2546 PUSH2 0x30AB JUMP JUMPDEST PUSH1 0x20 DUP2 DIV SWAP1 SWAP2 ADD SLOAD PUSH1 0xFF PUSH1 0x1F SWAP1 SWAP3 AND PUSH2 0x100 EXP SWAP1 DIV AND SUB PUSH2 0x256A JUMPI POP PUSH1 0x1 SWAP3 SWAP2 POP POP JUMP JUMPDEST DUP1 PUSH2 0x2574 DUP2 PUSH2 0x30D3 JUMP JUMPDEST SWAP2 POP POP PUSH2 0x2520 JUMP JUMPDEST PUSH1 0x3 DUP2 PUSH1 0x12 DUP2 LT PUSH2 0x89D JUMPI PUSH0 DUP1 REVERT JUMPDEST PUSH1 0x7 DUP2 PUSH1 0xC DUP2 LT PUSH2 0x89D JUMPI PUSH0 DUP1 REVERT JUMPDEST PUSH1 0x1 DUP2 PUSH1 0x12 DUP2 LT PUSH2 0x89D JUMPI PUSH0 DUP1 REVERT JUMPDEST PUSH1 0xE SLOAD PUSH1 0xFF AND ISZERO PUSH2 0x25F5 JUMPI PUSH1 0x40 MLOAD PUSH3 0x461BCD PUSH1 0xE5 SHL DUP2 MSTORE PUSH1 0x20 PUSH1 0x4 DUP3 ADD MSTORE PUSH1 0x16 PUSH1 0x24 DUP3 ADD MSTORE PUSH22 0x11195C1BDCDA5D081A5CC81B9BDD08185B1B1BDDD959 PUSH1 0x52 SHL PUSH1 0x44 DUP3 ADD MSTORE PUSH1 0x64 ADD PUSH2 0x90E JUMP JUMPDEST PUSH1 0xC SLOAD PUSH1 0x1 PUSH1 0x1 PUSH1 0xA0 SHL SUB AND CALLER EQ PUSH2 0x2647 JUMPI PUSH1 0x40 MLOAD PUSH3 0x461BCD PUSH1 0xE5 SHL DUP2 MSTORE PUSH1 0x20 PUSH1 0x4 DUP3 ADD MSTORE PUSH1 0x15 PUSH1 0x24 DUP3 ADD MSTORE PUSH21 0x13DB9B1E481A1BDCDD0818D85B8819195C1BDCDA5D PUSH1 0x5A SHL PUSH1 0x44 DUP3 ADD MSTORE PUSH1 0x64 ADD PUSH2 0x90E JUMP JUMPDEST PUSH0 CALLVALUE GT PUSH2 0x268F JUMPI PUSH1 0x40 MLOAD PUSH3 0x461BCD PUSH1 0xE5 SHL DUP2 MSTORE PUSH1 0x20 PUSH1 0x4 DUP3 ADD MSTORE PUSH1 0x16 PUSH1 0x24 DUP3 ADD MSTORE PUSH22 0x125B9D985B1A590819195C1BDCDA5D08185B5BDD5B9D PUSH1 0x52 SHL PUSH1 0x44 DUP3 ADD MSTORE PUSH1 0x64 ADD PUSH2 0x90E JUMP JUMPDEST PUSH1 0xE DUP1 SLOAD PUSH1 0xFF NOT AND PUSH1 0x1 OR SWAP1 SSTORE PUSH1 0x40 MLOAD CALLER SWAP1 PUSH32 0x5A6C38B61CFC87B08186EC74738F787EC19C78C75B5B70442F580362ABD96D29 SWAP1 PUSH2 0x26D0 SWAP1 CALLVALUE DUP2 MSTORE PUSH1 0x20 ADD SWAP1 JUMP JUMPDEST PUSH1 0x40 MLOAD DUP1 SWAP2 SUB SWAP1 LOG2 JUMP JUMPDEST PUSH0 DUP1 DUP1 JUMPDEST PUSH1 0xF SLOAD DUP2 LT ISZERO PUSH2 0x2720 JUMPI PUSH1 0xF DUP2 DUP2 SLOAD DUP2 LT PUSH2 0x26FB JUMPI PUSH2 0x26FB PUSH2 0x30AB JUMP JUMPDEST SWAP1 PUSH0 MSTORE PUSH1 0x20 PUSH0 KECCAK256 SWAP1 PUSH1 0x2 MUL ADD PUSH1 0x1 ADD SLOAD DUP3 PUSH2 0x2716 SWAP2 SWAP1 PUSH2 0x30F1 JUMP JUMPDEST SWAP2 POP PUSH1 0x1 ADD PUSH2 0x26DE JUMP JUMPDEST POP SWAP2 SWAP1 POP JUMP JUMPDEST PUSH1 0x4 DUP2 PUSH1 0x12 DUP2 LT PUSH2 0x89D JUMPI PUSH0 DUP1 REVERT JUMPDEST PUSH0 DUP1 JUMPDEST PUSH1 0x12 DUP2 PUSH1 0xFF AND LT ISZERO PUSH2 0x886 JUMPI DUP3 PUSH1 0xFF AND PUSH1 0x5 DUP3 PUSH1 0xFF AND PUSH1 0x12 DUP2 LT PUSH2 0x275E JUMPI PUSH2 0x275E PUSH2 0x30AB JUMP JUMPDEST PUSH1 0x20 DUP2 DIV SWAP1 SWAP2 ADD SLOAD PUSH1 0xFF PUSH1 0x1F SWAP1 SWAP3 AND PUSH2 0x100 EXP SWAP1 DIV AND SUB PUSH2 0x2782 JUMPI POP PUSH1 0x1 SWAP3 SWAP2 POP POP JUMP JUMPDEST DUP1 PUSH2 0x278C DUP2 PUSH2 0x30D3 JUMP JUMPDEST SWAP2 POP POP PUSH2 0x2738 JUMP JUMPDEST PUSH1 0x6 DUP2 PUSH1 0xC DUP2 LT PUSH2 0x89D JUMPI PUSH0 DUP1 REVERT JUMPDEST PUSH0 DUP1 JUMPDEST PUSH1 0x12 DUP2 PUSH1 0xFF AND LT ISZERO PUSH2 0x886 JUMPI DUP3 PUSH1 0xFF AND PUSH1 0x1 DUP3 PUSH1 0xFF AND PUSH1 0x12 DUP2 LT PUSH2 0x27CC JUMPI PUSH2 0x27CC PUSH2 0x30AB JUMP JUMPDEST PUSH1 0x20 DUP2 DIV SWAP1 SWAP2 ADD SLOAD PUSH1 0xFF PUSH1 0x1F SWAP1 SWAP3 AND PUSH2 0x100 EXP SWAP1 DIV AND SUB PUSH2 0x27F0 JUMPI POP PUSH1 0x1 SWAP3 SWAP2 POP POP JUMP JUMPDEST DUP1 PUSH2 0x27FA DUP2 PUSH2 0x30D3 JUMP JUMPDEST SWAP2 POP POP PUSH2 0x27A6 JUMP JUMPDEST PUSH0 DUP1 JUMPDEST PUSH1 0xC DUP2 PUSH1 0xFF AND LT ISZERO PUSH2 0x886 JUMPI DUP3 PUSH1 0xFF AND PUSH1 0x8 DUP3 PUSH1 0xFF AND PUSH1 0xC DUP2 LT PUSH2 0x282B JUMPI PUSH2 0x282B PUSH2 0x30AB JUMP JUMPDEST PUSH1 0x20 DUP2 DIV SWAP1 SWAP2 ADD SLOAD PUSH1 0xFF PUSH1 0x1F SWAP1 SWAP3 AND PUSH2 0x100 EXP SWAP1 DIV AND SUB PUSH2 0x284F JUMPI POP PUSH1 0x1 SWAP3 SWAP2 POP POP JUMP JUMPDEST DUP1 PUSH2 0x2859 DUP2 PUSH2 0x30D3 JUMP JUMPDEST SWAP2 POP POP PUSH2 0x2805 JUMP JUMPDEST PUSH0 DUP2 PUSH1 0x12 DUP2 LT PUSH2 0x89D JUMPI PUSH0 DUP1 REVERT JUMPDEST PUSH1 0x5 DUP2 PUSH1 0x12 DUP2 LT PUSH2 0x89D JUMPI PUSH0 DUP1 REVERT JUMPDEST PUSH0 DUP1 JUMPDEST PUSH1 0x12 SLOAD DUP2 LT ISZERO PUSH2 0x886 JUMPI DUP3 PUSH1 0x1 PUSH1 0x1 PUSH1 0xA0 SHL SUB AND PUSH1 0x12 DUP3 DUP2 SLOAD DUP2 LT PUSH2 0x28A8 JUMPI PUSH2 0x28A8 PUSH2 0x30AB JUMP JUMPDEST PUSH0 SWAP2 DUP3 MSTORE PUSH1 0x20 SWAP1 SWAP2 KECCAK256 ADD SLOAD PUSH1 0x1 PUSH1 0x1 PUSH1 0xA0 SHL SUB AND SUB PUSH2 0x28CA JUMPI POP PUSH1 0x1 SWAP3 SWAP2 POP POP JUMP JUMPDEST PUSH1 0x1 ADD PUSH2 0x2881 JUMP JUMPDEST PUSH1 0x60 DUP2 PUSH0 SUB PUSH2 0x28F8 JUMPI POP POP PUSH1 0x40 DUP1 MLOAD DUP1 DUP3 ADD SWAP1 SWAP2 MSTORE PUSH1 0x1 DUP2 MSTORE PUSH1 0x3 PUSH1 0xFC SHL PUSH1 0x20 DUP3 ADD MSTORE SWAP1 JUMP JUMPDEST DUP2 PUSH0 JUMPDEST DUP2 ISZERO PUSH2 0x2921 JUMPI DUP1 PUSH2 0x290B DUP2 PUSH2 0x33E1 JUMP JUMPDEST SWAP2 POP PUSH2 0x291A SWAP1 POP PUSH1 0xA DUP4 PUSH2 0x33CE JUMP JUMPDEST SWAP2 POP PUSH2 0x28FB JUMP JUMPDEST PUSH0 DUP2 PUSH8 0xFFFFFFFFFFFFFFFF DUP2 GT ISZERO PUSH2 0x293B JUMPI PUSH2 0x293B PUSH2 0x325B JUMP JUMPDEST PUSH1 0x40 MLOAD SWAP1 DUP1 DUP3 MSTORE DUP1 PUSH1 0x1F ADD PUSH1 0x1F NOT AND PUSH1 0x20 ADD DUP3 ADD PUSH1 0x40 MSTORE DUP1 ISZERO PUSH2 0x2965 JUMPI PUSH1 0x20 DUP3 ADD DUP2 DUP1 CALLDATASIZE DUP4 CALLDATACOPY ADD SWAP1 POP JUMPDEST POP DUP6 SWAP4 POP SWAP1 POP DUP2 JUMPDEST DUP4 ISZERO PUSH2 0x29D4 JUMPI DUP1 PUSH2 0x297D DUP2 PUSH2 0x33F9 JUMP JUMPDEST SWAP2 POP PUSH2 0x298C SWAP1 POP PUSH1 0xA DUP6 PUSH2 0x3175 JUMP JUMPDEST PUSH2 0x2997 SWAP1 PUSH1 0x30 PUSH2 0x30F1 JUMP JUMPDEST PUSH1 0xF8 SHL DUP3 DUP3 DUP2 MLOAD DUP2 LT PUSH2 0x29AC JUMPI PUSH2 0x29AC PUSH2 0x30AB JUMP JUMPDEST PUSH1 0x20 ADD ADD SWAP1 PUSH1 0x1 PUSH1 0x1 PUSH1 0xF8 SHL SUB NOT AND SWAP1 DUP2 PUSH0 BYTE SWAP1 MSTORE8 POP PUSH2 0x29CD PUSH1 0xA DUP6 PUSH2 0x33CE JUMP JUMPDEST SWAP4 POP PUSH2 0x296D JUMP JUMPDEST POP SWAP5 SWAP4 POP POP POP POP JUMP JUMPDEST PUSH1 0x40 DUP1 MLOAD DUP1 DUP3 ADD DUP3 MSTORE PUSH1 0x10 DUP2 MSTORE PUSH16 0x181899199A1A9B1B9C1CB0B131B232B3 PUSH1 0x81 SHL PUSH1 0x20 DUP3 ADD MSTORE DUP2 MLOAD PUSH1 0x42 DUP1 DUP3 MSTORE PUSH1 0x80 DUP3 ADD SWAP1 SWAP4 MSTORE PUSH1 0x60 SWAP3 PUSH0 SWAP2 SWAP1 PUSH1 0x20 DUP3 ADD DUP2 DUP1 CALLDATASIZE DUP4 CALLDATACOPY ADD SWAP1 POP POP SWAP1 POP PUSH1 0x3 PUSH1 0xFC SHL DUP2 PUSH0 DUP2 MLOAD DUP2 LT PUSH2 0x2A3D JUMPI PUSH2 0x2A3D PUSH2 0x30AB JUMP JUMPDEST PUSH1 0x20 ADD ADD SWAP1 PUSH1 0x1 PUSH1 0x1 PUSH1 0xF8 SHL SUB NOT AND SWAP1 DUP2 PUSH0 BYTE SWAP1 MSTORE8 POP PUSH1 0xF PUSH1 0xFB SHL DUP2 PUSH1 0x1 DUP2 MLOAD DUP2 LT PUSH2 0x2A6B JUMPI PUSH2 0x2A6B PUSH2 0x30AB JUMP JUMPDEST PUSH1 0x20 ADD ADD SWAP1 PUSH1 0x1 PUSH1 0x1 PUSH1 0xF8 SHL SUB NOT AND SWAP1 DUP2 PUSH0 BYTE SWAP1 MSTORE8 POP PUSH0 JUMPDEST PUSH1 0x20 DUP2 LT ISZERO PUSH2 0x2B91 JUMPI DUP3 PUSH1 0x4 DUP7 DUP4 PUSH1 0x20 DUP2 LT PUSH2 0x2AA1 JUMPI PUSH2 0x2AA1 PUSH2 0x30AB JUMP JUMPDEST BYTE PUSH1 0xF8 SHL PUSH1 0x1 PUSH1 0x1 PUSH1 0xF8 SHL SUB NOT AND SWAP1 SHR PUSH1 0xF8 SHR PUSH1 0xFF AND DUP2 MLOAD DUP2 LT PUSH2 0x2AC7 JUMPI PUSH2 0x2AC7 PUSH2 0x30AB JUMP JUMPDEST ADD PUSH1 0x20 ADD MLOAD PUSH1 0x1 PUSH1 0x1 PUSH1 0xF8 SHL SUB NOT AND DUP3 PUSH2 0x2AE2 DUP4 PUSH1 0x2 PUSH2 0x33B7 JUMP JUMPDEST PUSH2 0x2AED SWAP1 PUSH1 0x2 PUSH2 0x30F1 JUMP JUMPDEST DUP2 MLOAD DUP2 LT PUSH2 0x2AFD JUMPI PUSH2 0x2AFD PUSH2 0x30AB JUMP JUMPDEST PUSH1 0x20 ADD ADD SWAP1 PUSH1 0x1 PUSH1 0x1 PUSH1 0xF8 SHL SUB NOT AND SWAP1 DUP2 PUSH0 BYTE SWAP1 MSTORE8 POP DUP3 DUP6 DUP3 PUSH1 0x20 DUP2 LT PUSH2 0x2B26 JUMPI PUSH2 0x2B26 PUSH2 0x30AB JUMP JUMPDEST DUP3 MLOAD SWAP2 SWAP1 BYTE PUSH1 0xF AND SWAP1 DUP2 LT PUSH2 0x2B3D JUMPI PUSH2 0x2B3D PUSH2 0x30AB JUMP JUMPDEST ADD PUSH1 0x20 ADD MLOAD PUSH1 0x1 PUSH1 0x1 PUSH1 0xF8 SHL SUB NOT AND DUP3 PUSH2 0x2B58 DUP4 PUSH1 0x2 PUSH2 0x33B7 JUMP JUMPDEST PUSH2 0x2B63 SWAP1 PUSH1 0x3 PUSH2 0x30F1 JUMP JUMPDEST DUP2 MLOAD DUP2 LT PUSH2 0x2B73 JUMPI PUSH2 0x2B73 PUSH2 0x30AB JUMP JUMPDEST PUSH1 0x20 ADD ADD SWAP1 PUSH1 0x1 PUSH1 0x1 PUSH1 0xF8 SHL SUB NOT AND SWAP1 DUP2 PUSH0 BYTE SWAP1 MSTORE8 POP PUSH1 0x1 ADD PUSH2 0x2A83 JUMP JUMPDEST POP SWAP4 SWAP3 POP POP POP JUMP JUMPDEST PUSH1 0x60 DUP2 MLOAD PUSH0 SUB PUSH2 0x2BC1 JUMPI POP POP PUSH1 0x40 DUP1 MLOAD DUP1 DUP3 ADD SWAP1 SWAP2 MSTORE PUSH1 0x2 DUP2 MSTORE PUSH2 0x5B5D PUSH1 0xF0 SHL PUSH1 0x20 DUP3 ADD MSTORE SWAP1 JUMP JUMPDEST PUSH1 0x40 DUP1 MLOAD DUP1 DUP3 ADD SWAP1 SWAP2 MSTORE PUSH1 0x1 DUP2 MSTORE PUSH1 0x5B PUSH1 0xF8 SHL PUSH1 0x20 DUP3 ADD MSTORE PUSH0 JUMPDEST DUP4 MLOAD DUP2 LT ISZERO PUSH2 0x2C69 JUMPI DUP2 PUSH2 0x2C07 DUP6 DUP4 DUP2 MLOAD DUP2 LT PUSH2 0x2BFA JUMPI PUSH2 0x2BFA PUSH2 0x30AB JUMP JUMPDEST PUSH1 0x20 MUL PUSH1 0x20 ADD ADD MLOAD PUSH2 0x2E92 JUMP JUMPDEST PUSH1 0x40 MLOAD PUSH1 0x20 ADD PUSH2 0x2C18 SWAP3 SWAP2 SWAP1 PUSH2 0x340E JUMP JUMPDEST PUSH1 0x40 MLOAD PUSH1 0x20 DUP2 DUP4 SUB SUB DUP2 MSTORE SWAP1 PUSH1 0x40 MSTORE SWAP2 POP PUSH1 0x1 DUP5 MLOAD PUSH2 0x2C37 SWAP2 SWAP1 PUSH2 0x3422 JUMP JUMPDEST DUP2 LT ISZERO PUSH2 0x2C61 JUMPI DUP2 PUSH1 0x40 MLOAD PUSH1 0x20 ADD PUSH2 0x2C4F SWAP2 SWAP1 PUSH2 0x3435 JUMP JUMPDEST PUSH1 0x40 MLOAD PUSH1 0x20 DUP2 DUP4 SUB SUB DUP2 MSTORE SWAP1 PUSH1 0x40 MSTORE SWAP2 POP JUMPDEST PUSH1 0x1 ADD PUSH2 0x2BDB JUMP JUMPDEST POP DUP1 PUSH1 0x40 MLOAD PUSH1 0x20 ADD PUSH2 0x2C7B SWAP2 SWAP1 PUSH2 0x3452 JUMP JUMPDEST PUSH1 0x40 DUP1 MLOAD PUSH1 0x1F NOT DUP2 DUP5 SUB ADD DUP2 MSTORE SWAP2 SWAP1 MSTORE SWAP4 SWAP3 POP POP POP JUMP JUMPDEST PUSH1 0x40 DUP1 MLOAD DUP1 DUP3 ADD SWAP1 SWAP2 MSTORE PUSH1 0x10 DUP2 MSTORE PUSH16 0x181899199A1A9B1B9C1CB0B131B232B3 PUSH1 0x81 SHL PUSH1 0x20 DUP3 ADD MSTORE DUP2 MLOAD PUSH1 0x60 SWAP2 SWAP1 PUSH0 SWAP1 PUSH2 0x2CCC SWAP1 PUSH1 0x2 PUSH2 0x33B7 JUMP JUMPDEST PUSH2 0x2CD7 SWAP1 PUSH1 0x2 PUSH2 0x30F1 JUMP JUMPDEST PUSH8 0xFFFFFFFFFFFFFFFF DUP2 GT ISZERO PUSH2 0x2CEF JUMPI PUSH2 0x2CEF PUSH2 0x325B JUMP JUMPDEST PUSH1 0x40 MLOAD SWAP1 DUP1 DUP3 MSTORE DUP1 PUSH1 0x1F ADD PUSH1 0x1F NOT AND PUSH1 0x20 ADD DUP3 ADD PUSH1 0x40 MSTORE DUP1 ISZERO PUSH2 0x2D19 JUMPI PUSH1 0x20 DUP3 ADD DUP2 DUP1 CALLDATASIZE DUP4 CALLDATACOPY ADD SWAP1 POP JUMPDEST POP SWAP1 POP PUSH1 0x3 PUSH1 0xFC SHL DUP2 PUSH0 DUP2 MLOAD DUP2 LT PUSH2 0x2D33 JUMPI PUSH2 0x2D33 PUSH2 0x30AB JUMP JUMPDEST PUSH1 0x20 ADD ADD SWAP1 PUSH1 0x1 PUSH1 0x1 PUSH1 0xF8 SHL SUB NOT AND SWAP1 DUP2 PUSH0 BYTE SWAP1 MSTORE8 POP PUSH1 0xF PUSH1 0xFB SHL DUP2 PUSH1 0x1 DUP2 MLOAD DUP2 LT PUSH2 0x2D61 JUMPI PUSH2 0x2D61 PUSH2 0x30AB JUMP JUMPDEST PUSH1 0x20 ADD ADD SWAP1 PUSH1 0x1 PUSH1 0x1 PUSH1 0xF8 SHL SUB NOT AND SWAP1 DUP2 PUSH0 BYTE SWAP1 MSTORE8 POP PUSH0 JUMPDEST DUP5 MLOAD DUP2 LT ISZERO PUSH2 0x2B91 JUMPI DUP3 PUSH1 0x4 DUP7 DUP4 DUP2 MLOAD DUP2 LT PUSH2 0x2D97 JUMPI PUSH2 0x2D97 PUSH2 0x30AB JUMP JUMPDEST ADD PUSH1 0x20 ADD MLOAD DUP3 MLOAD PUSH1 0x1 PUSH1 0x1 PUSH1 0xF8 SHL SUB NOT SWAP1 SWAP2 AND SWAP1 SWAP2 SHR PUSH1 0xF8 SHR SWAP1 DUP2 LT PUSH2 0x2DBF JUMPI PUSH2 0x2DBF PUSH2 0x30AB JUMP JUMPDEST ADD PUSH1 0x20 ADD MLOAD PUSH1 0x1 PUSH1 0x1 PUSH1 0xF8 SHL SUB NOT AND DUP3 PUSH2 0x2DDA DUP4 PUSH1 0x2 PUSH2 0x33B7 JUMP JUMPDEST PUSH2 0x2DE5 SWAP1 PUSH1 0x2 PUSH2 0x30F1 JUMP JUMPDEST DUP2 MLOAD DUP2 LT PUSH2 0x2DF5 JUMPI PUSH2 0x2DF5 PUSH2 0x30AB JUMP JUMPDEST PUSH1 0x20 ADD ADD SWAP1 PUSH1 0x1 PUSH1 0x1 PUSH1 0xF8 SHL SUB NOT AND SWAP1 DUP2 PUSH0 BYTE SWAP1 MSTORE8 POP DUP3 DUP6 DUP3 DUP2 MLOAD DUP2 LT PUSH2 0x2E1E JUMPI PUSH2 0x2E1E PUSH2 0x30AB JUMP JUMPDEST PUSH1 0x20 SWAP2 ADD ADD MLOAD DUP2 MLOAD PUSH1 0xF8 SWAP2 SWAP1 SWAP2 SHR PUSH1 0xF AND SWAP1 DUP2 LT PUSH2 0x2E3E JUMPI PUSH2 0x2E3E PUSH2 0x30AB JUMP JUMPDEST ADD PUSH1 0x20 ADD MLOAD PUSH1 0x1 PUSH1 0x1 PUSH1 0xF8 SHL SUB NOT AND DUP3 PUSH2 0x2E59 DUP4 PUSH1 0x2 PUSH2 0x33B7 JUMP JUMPDEST PUSH2 0x2E64 SWAP1 PUSH1 0x3 PUSH2 0x30F1 JUMP JUMPDEST DUP2 MLOAD DUP2 LT PUSH2 0x2E74 JUMPI PUSH2 0x2E74 PUSH2 0x30AB JUMP JUMPDEST PUSH1 0x20 ADD ADD SWAP1 PUSH1 0x1 PUSH1 0x1 PUSH1 0xF8 SHL SUB NOT AND SWAP1 DUP2 PUSH0 BYTE SWAP1 MSTORE8 POP PUSH1 0x1 ADD PUSH2 0x2D79 JUMP JUMPDEST PUSH1 0x40 DUP1 MLOAD DUP1 DUP3 ADD DUP3 MSTORE PUSH1 0x10 DUP2 MSTORE PUSH16 0x181899199A1A9B1B9C1CB0B131B232B3 PUSH1 0x81 SHL PUSH1 0x20 DUP3 ADD MSTORE DUP2 MLOAD PUSH1 0x2A DUP1 DUP3 MSTORE PUSH1 0x60 DUP3 DUP2 ADD SWAP1 SWAP5 MSTORE DUP5 DUP5 SHL SWAP2 PUSH0 SWAP2 PUSH1 0x20 DUP3 ADD DUP2 DUP1 CALLDATASIZE DUP4 CALLDATACOPY ADD SWAP1 POP POP SWAP1 POP PUSH1 0x3 PUSH1 0xFC SHL DUP2 PUSH0 DUP2 MLOAD DUP2 LT PUSH2 0x2EF3 JUMPI PUSH2 0x2EF3 PUSH2 0x30AB JUMP JUMPDEST PUSH1 0x20 ADD ADD SWAP1 PUSH1 0x1 PUSH1 0x1 PUSH1 0xF8 SHL SUB NOT AND SWAP1 DUP2 PUSH0 BYTE SWAP1 MSTORE8 POP PUSH1 0xF PUSH1 0xFB SHL DUP2 PUSH1 0x1 DUP2 MLOAD DUP2 LT PUSH2 0x2F21 JUMPI PUSH2 0x2F21 PUSH2 0x30AB JUMP JUMPDEST PUSH1 0x20 ADD ADD SWAP1 PUSH1 0x1 PUSH1 0x1 PUSH1 0xF8 SHL SUB NOT AND SWAP1 DUP2 PUSH0 BYTE SWAP1 MSTORE8 POP PUSH0 JUMPDEST PUSH1 0x14 DUP2 LT ISZERO PUSH2 0x29D4 JUMPI DUP4 PUSH1 0x4 DUP5 DUP4 PUSH1 0x14 DUP2 LT PUSH2 0x2F57 JUMPI PUSH2 0x2F57 PUSH2 0x30AB JUMP JUMPDEST BYTE PUSH1 0xF8 SHL PUSH1 0x1 PUSH1 0x1 PUSH1 0xF8 SHL SUB NOT AND SWAP1 SHR PUSH1 0xF8 SHR PUSH1 0xFF AND DUP2 MLOAD DUP2 LT PUSH2 0x2F7D JUMPI PUSH2 0x2F7D PUSH2 0x30AB JUMP JUMPDEST ADD PUSH1 0x20 ADD MLOAD PUSH1 0x1 PUSH1 0x1 PUSH1 0xF8 SHL SUB NOT AND DUP3 PUSH2 0x2F98 DUP4 PUSH1 0x2 PUSH2 0x33B7 JUMP JUMPDEST PUSH2 0x2FA3 SWAP1 PUSH1 0x2 PUSH2 0x30F1 JUMP JUMPDEST DUP2 MLOAD DUP2 LT PUSH2 0x2FB3 JUMPI PUSH2 0x2FB3 PUSH2 0x30AB JUMP JUMPDEST PUSH1 0x20 ADD ADD SWAP1 PUSH1 0x1 PUSH1 0x1 PUSH1 0xF8 SHL SUB NOT AND SWAP1 DUP2 PUSH0 BYTE SWAP1 MSTORE8 POP DUP4 DUP4 DUP3 PUSH1 0x14 DUP2 LT PUSH2 0x2FDC JUMPI PUSH2 0x2FDC PUSH2 0x30AB JUMP JUMPDEST DUP3 MLOAD SWAP2 SWAP1 BYTE PUSH1 0xF AND SWAP1 DUP2 LT PUSH2 0x2FF3 JUMPI PUSH2 0x2FF3 PUSH2 0x30AB JUMP JUMPDEST ADD PUSH1 0x20 ADD MLOAD PUSH1 0x1 PUSH1 0x1 PUSH1 0xF8 SHL SUB NOT AND DUP3 PUSH2 0x300E DUP4 PUSH1 0x2 PUSH2 0x33B7 JUMP JUMPDEST PUSH2 0x3019 SWAP1 PUSH1 0x3 PUSH2 0x30F1 JUMP JUMPDEST DUP2 MLOAD DUP2 LT PUSH2 0x3029 JUMPI PUSH2 0x3029 PUSH2 0x30AB JUMP JUMPDEST PUSH1 0x20 ADD ADD SWAP1 PUSH1 0x1 PUSH1 0x1 PUSH1 0xF8 SHL SUB NOT AND SWAP1 DUP2 PUSH0 BYTE SWAP1 MSTORE8 POP PUSH1 0x1 ADD PUSH2 0x2F39 JUMP JUMPDEST PUSH0 PUSH1 0x20 DUP3 DUP5 SUB SLT ISZERO PUSH2 0x3057 JUMPI PUSH0 DUP1 REVERT JUMPDEST DUP2 CALLDATALOAD PUSH1 0xFF DUP2 AND DUP2 EQ PUSH2 0x3067 JUMPI PUSH0 DUP1 REVERT JUMPDEST SWAP4 SWAP3 POP POP POP JUMP JUMPDEST PUSH0 PUSH1 0x20 DUP3 DUP5 SUB SLT ISZERO PUSH2 0x307E JUMPI PUSH0 DUP1 REVERT JUMPDEST POP CALLDATALOAD SWAP2 SWAP1 POP JUMP JUMPDEST PUSH0 PUSH1 0x20 DUP3 DUP5 SUB SLT ISZERO PUSH2 0x3095 JUMPI PUSH0 DUP1 REVERT JUMPDEST DUP2 CALLDATALOAD PUSH1 0x1 PUSH1 0x1 PUSH1 0xA0 SHL SUB DUP2 AND DUP2 EQ PUSH2 0x3067 JUMPI PUSH0 DUP1 REVERT JUMPDEST PUSH4 0x4E487B71 PUSH1 0xE0 SHL PUSH0 MSTORE PUSH1 0x32 PUSH1 0x4 MSTORE PUSH1 0x24 PUSH0 REVERT JUMPDEST PUSH4 0x4E487B71 PUSH1 0xE0 SHL PUSH0 MSTORE PUSH1 0x11 PUSH1 0x4 MSTORE PUSH1 0x24 PUSH0 REVERT JUMPDEST PUSH0 PUSH1 0xFF DUP3 AND PUSH1 0xFF DUP2 SUB PUSH2 0x30E8 JUMPI PUSH2 0x30E8 PUSH2 0x30BF JUMP JUMPDEST PUSH1 0x1 ADD SWAP3 SWAP2 POP POP JUMP JUMPDEST DUP1 DUP3 ADD DUP1 DUP3 GT ISZERO PUSH2 0x3104 JUMPI PUSH2 0x3104 PUSH2 0x30BF JUMP JUMPDEST SWAP3 SWAP2 POP POP JUMP JUMPDEST PUSH0 DUP2 MLOAD DUP1 PUSH1 0x20 DUP5 ADD DUP6 MCOPY PUSH0 SWAP4 ADD SWAP3 DUP4 MSTORE POP SWAP1 SWAP2 SWAP1 POP JUMP JUMPDEST PUSH0 PUSH2 0x312C DUP3 DUP6 PUSH2 0x310A JUMP JUMPDEST PUSH1 0x60 SWAP4 SWAP1 SWAP4 SHL PUSH1 0x1 PUSH1 0x1 PUSH1 0x60 SHL SUB NOT AND DUP4 MSTORE POP POP PUSH1 0x14 ADD SWAP2 SWAP1 POP JUMP JUMPDEST DUP3 DUP2 MSTORE PUSH0 PUSH2 0x3159 PUSH1 0x20 DUP4 ADD DUP5 PUSH2 0x310A JUMP JUMPDEST SWAP5 SWAP4 POP POP POP POP JUMP JUMPDEST PUSH4 0x4E487B71 PUSH1 0xE0 SHL PUSH0 MSTORE PUSH1 0x12 PUSH1 0x4 MSTORE PUSH1 0x24 PUSH0 REVERT JUMPDEST PUSH0 DUP3 PUSH2 0x3183 JUMPI PUSH2 0x3183 PUSH2 0x3161 JUMP JUMPDEST POP MOD SWAP1 JUMP JUMPDEST PUSH22 0x426C6F636B686173682066726F6D20626C6F636B2023 PUSH1 0x50 SHL DUP2 MSTORE PUSH0 PUSH2 0x31B2 PUSH1 0x16 DUP4 ADD DUP6 PUSH2 0x310A JUMP JUMPDEST PUSH2 0x1D1 PUSH1 0xF5 SHL DUP2 MSTORE PUSH2 0x31C7 PUSH1 0x2 DUP3 ADD DUP6 PUSH2 0x310A JUMP JUMPDEST PUSH32 0x202D20626173697320666F722072616E646F6D6E657373000000000000000000 DUP2 MSTORE PUSH1 0x17 ADD SWAP6 SWAP5 POP POP POP POP POP JUMP JUMPDEST PUSH0 DUP2 MLOAD DUP1 DUP5 MSTORE DUP1 PUSH1 0x20 DUP5 ADD PUSH1 0x20 DUP7 ADD MCOPY PUSH0 PUSH1 0x20 DUP3 DUP7 ADD ADD MSTORE PUSH1 0x20 PUSH1 0x1F NOT PUSH1 0x1F DUP4 ADD AND DUP6 ADD ADD SWAP2 POP POP SWAP3 SWAP2 POP POP JUMP JUMPDEST PUSH1 0xFF DUP5 AND DUP2 MSTORE PUSH1 0x60 PUSH1 0x20 DUP3 ADD MSTORE PUSH0 PUSH2 0x323F PUSH1 0x60 DUP4 ADD DUP6 PUSH2 0x31F6 JUMP JUMPDEST DUP3 DUP2 SUB PUSH1 0x40 DUP5 ADD MSTORE PUSH2 0x3251 DUP2 DUP6 PUSH2 0x31F6 JUMP JUMPDEST SWAP7 SWAP6 POP POP POP POP POP POP JUMP JUMPDEST PUSH4 0x4E487B71 PUSH1 0xE0 SHL PUSH0 MSTORE PUSH1 0x41 PUSH1 0x4 MSTORE PUSH1 0x24 PUSH0 REVERT JUMPDEST PUSH32 0x416464726573736573207573656420666F722072616E646F6D6E6573733A2000 DUP2 MSTORE PUSH0 PUSH2 0x3067 PUSH1 0x1F DUP4 ADD DUP5 PUSH2 0x310A JUMP JUMPDEST PUSH1 0x20 DUP1 DUP3 MSTORE DUP3 MLOAD DUP3 DUP3 ADD DUP2 SWAP1 MSTORE PUSH0 SWAP2 DUP5 ADD SWAP1 PUSH1 0x40 DUP5 ADD SWAP1 DUP4 JUMPDEST DUP2 DUP2 LT ISZERO PUSH2 0x32E0 JUMPI DUP4 MLOAD PUSH1 0x1 PUSH1 0x1 PUSH1 0xA0 SHL SUB AND DUP4 MSTORE PUSH1 0x20 SWAP4 DUP5 ADD SWAP4 SWAP1 SWAP3 ADD SWAP2 PUSH1 0x1 ADD PUSH2 0x32B9 JUMP JUMPDEST POP SWAP1 SWAP6 SWAP5 POP POP POP POP POP JUMP JUMPDEST PUSH32 0x5061636B65642064617461206F662061646472657373657320696E206865783A DUP2 MSTORE PUSH1 0x1 PUSH1 0xFD SHL PUSH1 0x20 DUP3 ADD MSTORE PUSH0 PUSH2 0x3067 PUSH1 0x21 DUP4 ADD DUP5 PUSH2 0x310A JUMP JUMPDEST PUSH32 0x4B656363616B323536206F66205B626C6F636B68617368202B207061636B6564 DUP2 MSTORE PUSH7 0x2230BA30AE9D1 PUSH1 0xCD SHL PUSH1 0x20 DUP3 ADD MSTORE PUSH0 PUSH2 0x3067 PUSH1 0x27 DUP4 ADD DUP5 PUSH2 0x310A JUMP JUMPDEST PUSH32 0x46696E616C2072616E646F6D206F7574636F6D6520286D6F6420000000000000 DUP2 MSTORE PUSH0 PUSH2 0x3398 PUSH1 0x1A DUP4 ADD DUP6 PUSH2 0x310A JUMP JUMPDEST PUSH3 0x149D1 PUSH1 0xED SHL DUP2 MSTORE PUSH2 0x33AE PUSH1 0x3 DUP3 ADD DUP6 PUSH2 0x310A JUMP JUMPDEST SWAP6 SWAP5 POP POP POP POP POP JUMP JUMPDEST DUP1 DUP3 MUL DUP2 ISZERO DUP3 DUP3 DIV DUP5 EQ OR PUSH2 0x3104 JUMPI PUSH2 0x3104 PUSH2 0x30BF JUMP JUMPDEST PUSH0 DUP3 PUSH2 0x33DC JUMPI PUSH2 0x33DC PUSH2 0x3161 JUMP JUMPDEST POP DIV SWAP1 JUMP JUMPDEST PUSH0 PUSH1 0x1 DUP3 ADD PUSH2 0x33F2 JUMPI PUSH2 0x33F2 PUSH2 0x30BF JUMP JUMPDEST POP PUSH1 0x1 ADD SWAP1 JUMP JUMPDEST PUSH0 DUP2 PUSH2 0x3407 JUMPI PUSH2 0x3407 PUSH2 0x30BF JUMP JUMPDEST POP PUSH0 NOT ADD SWAP1 JUMP JUMPDEST PUSH0 PUSH2 0x3159 PUSH2 0x341C DUP4 DUP7 PUSH2 0x310A JUMP JUMPDEST DUP5 PUSH2 0x310A JUMP JUMPDEST DUP2 DUP2 SUB DUP2 DUP2 GT ISZERO PUSH2 0x3104 JUMPI PUSH2 0x3104 PUSH2 0x30BF JUMP JUMPDEST PUSH0 PUSH2 0x3440 DUP3 DUP5 PUSH2 0x310A JUMP JUMPDEST PUSH2 0x161 PUSH1 0xF5 SHL DUP2 MSTORE PUSH1 0x2 ADD SWAP4 SWAP3 POP POP POP JUMP JUMPDEST PUSH0 PUSH2 0x345D DUP3 DUP5 PUSH2 0x310A JUMP JUMPDEST PUSH1 0x5D PUSH1 0xF8 SHL DUP2 MSTORE PUSH1 0x1 ADD SWAP4 SWAP3 POP POP POP JUMP INVALID INVALID 0xB6 0xD7 PUSH30 0x8663B36B3393E8790540B4EBE73ADE87F3146E450022712344DC7B3B9CFF PUSH6 0xD26C2C9E31C3 0xDD RETURN PUSH17 0xEEC9DCC1327976F78B3EEBF97CFD37ADC4 BASEFEE 0xCC CALLDATALOAD LOG2 PUSH5 0x6970667358 0x22 SLT KECCAK256 0x25 0xD2 DUP2 DUP10 SELFDESTRUCT 0x2F DUP7 RETURNDATACOPY SMOD TIMESTAMP DUP16 0x28 0xE1 0x1E AND 0xA6 0x4C 0xB2 CALL 0xCE PUSH22 0x771204B9171C953B494B3164736F6C634300081A0033 "
		},
		"gasEstimates": {
			"creation": {
				"codeDepositCost": "2708000",
				"executionCost": "infinite",
				"totalCost": "infinite"
			},
			"external": {
				"OPTION_BLACK_SET(uint256)": "4194",
				"OPTION_EVEN_SET(uint256)": "4194",
				"OPTION_FIRST_COLUMN_SET(uint256)": "4238",
				"OPTION_FIRST_DOZEN_SET(uint256)": "4174",
				"OPTION_HIGH_SET(uint256)": "4238",
				"OPTION_LOW_SET(uint256)": "4170",
				"OPTION_ODD_SET(uint256)": "4237",
				"OPTION_RED_SET(uint256)": "4195",
				"OPTION_SECOND_COLUMN_SET(uint256)": "4216",
				"OPTION_SECOND_DOZEN_SET(uint256)": "4173",
				"OPTION_THIRD_COLUMN_SET(uint256)": "4152",
				"OPTION_THIRD_DOZEN_SET(uint256)": "4129",
				"bets(uint256)": "6907",
				"cutOffBlockNumber()": "2449",
				"deposit()": "30151",
				"generateResult()": "infinite",
				"getBetsCount()": "2381",
				"getStatus()": "2395",
				"getTotalBetsAmount()": "infinite",
				"host()": "2468",
				"isInBlackSet(uint8)": "infinite",
				"isInEvenSet(uint8)": "infinite",
				"isInFirstColumnSet(uint8)": "infinite",
				"isInFirstDozenSet(uint8)": "infinite",
				"isInHighSet(uint8)": "infinite",
				"isInLowSet(uint8)": "infinite",
				"isInOddSet(uint8)": "infinite",
				"isInRedSet(uint8)": "infinite",
				"isInSecondColumnSet(uint8)": "infinite",
				"isInSecondDozenSet(uint8)": "infinite",
				"isInThirdColumnSet(uint8)": "infinite",
				"isInThirdDozenSet(uint8)": "infinite",
				"matchSigners(address)": "2592",
				"matchedValidators(uint256)": "4723",
				"maxBet()": "2340",
				"minBet()": "2339",
				"minDeposite()": "2362",
				"mismatchSigners(address)": "2527",
				"mismatchedValidators(uint256)": "4657",
				"noMoreBets()": "49795",
				"placeBet(uint8)": "124773",
				"result()": "2445",
				"settleBet()": "infinite",
				"status()": "2380",
				"validateResult()": "infinite",
				"validate_threshold()": "2391",
				"validators(uint256)": "4723"
			},
			"internal": {
				"_addressToString(address)": "infinite",
				"_addressesToString(address[] memory)": "infinite",
				"_bytes32ToHexString(bytes32)": "infinite",
				"_bytesToHexString(bytes memory)": "infinite",
				"_uint2str(uint256)": "infinite",
				"isValidator(address)": "infinite"
			}
		},
		"methodIdentifiers": {
			"OPTION_BLACK_SET(uint256)": "a6ede84a",
			"OPTION_EVEN_SET(uint256)": "d4f7a285",
			"OPTION_FIRST_COLUMN_SET(uint256)": "db7f11db",
			"OPTION_FIRST_DOZEN_SET(uint256)": "195ba0eb",
			"OPTION_HIGH_SET(uint256)": "be47ae13",
			"OPTION_LOW_SET(uint256)": "e8e0fca5",
			"OPTION_ODD_SET(uint256)": "fe5385af",
			"OPTION_RED_SET(uint256)": "23fe318e",
			"OPTION_SECOND_COLUMN_SET(uint256)": "b2513399",
			"OPTION_SECOND_DOZEN_SET(uint256)": "322f8920",
			"OPTION_THIRD_COLUMN_SET(uint256)": "19299832",
			"OPTION_THIRD_DOZEN_SET(uint256)": "1fac0ffd",
			"bets(uint256)": "22af00fa",
			"cutOffBlockNumber()": "6f91a66f",
			"deposit()": "d0e30db0",
			"generateResult()": "1dbe2e0e",
			"getBetsCount()": "8c7e347a",
			"getStatus()": "4e69d560",
			"getTotalBetsAmount()": "d1edb09e",
			"host()": "f437bc59",
			"isInBlackSet(uint8)": "5dcab1d8",
			"isInEvenSet(uint8)": "28dddc1b",
			"isInFirstColumnSet(uint8)": "12586172",
			"isInFirstDozenSet(uint8)": "4d7d93fe",
			"isInHighSet(uint8)": "e4ca650d",
			"isInLowSet(uint8)": "972b533d",
			"isInOddSet(uint8)": "d9cc76ad",
			"isInRedSet(uint8)": "4760fff3",
			"isInSecondColumnSet(uint8)": "8fffebca",
			"isInSecondDozenSet(uint8)": "2605c251",
			"isInThirdColumnSet(uint8)": "e71f766e",
			"isInThirdDozenSet(uint8)": "a38bd74c",
			"matchSigners(address)": "f2d18f42",
			"matchedValidators(uint256)": "8d8c1286",
			"maxBet()": "2e5b2168",
			"minBet()": "9619367d",
			"minDeposite()": "87171eb7",
			"mismatchSigners(address)": "cf3c5d16",
			"mismatchedValidators(uint256)": "7f3be3ed",
			"noMoreBets()": "1b2abc77",
			"placeBet(uint8)": "43046844",
			"result()": "65372147",
			"settleBet()": "8e4bf820",
			"status()": "200d2ed2",
			"validateResult()": "38cceb4f",
			"validate_threshold()": "2eca4c28",
			"validators(uint256)": "35aa2e44"
		}
	},
	"abi": [
		{
			"inputs": [
				{
					"internalType": "address",
					"name": "_host",
					"type": "address"
				},
				{
					"internalType": "uint256",
					"name": "_minBet",
					"type": "uint256"
				},
				{
					"internalType": "address[]",
					"name": "_validators",
					"type": "address[]"
				},
				{
					"internalType": "uint8",
					"name": "_valid_threshold",
					"type": "uint8"
				}
			],
			"stateMutability": "nonpayable",
			"type": "constructor"
		},
		{
			"anonymous": false,
			"inputs": [
				{
					"indexed": false,
					"internalType": "string",
					"name": "rsn",
					"type": "string"
				},
				{
					"indexed": true,
					"internalType": "address",
					"name": "player",
					"type": "address"
				},
				{
					"indexed": false,
					"internalType": "uint256",
					"name": "amount",
					"type": "uint256"
				}
			],
			"name": "BetCancelled",
			"type": "event"
		},
		{
			"anonymous": false,
			"inputs": [
				{
					"indexed": true,
					"internalType": "address",
					"name": "player",
					"type": "address"
				},
				{
					"indexed": false,
					"internalType": "uint8",
					"name": "option",
					"type": "uint8"
				},
				{
					"indexed": false,
					"internalType": "uint256",
					"name": "amount",
					"type": "uint256"
				}
			],
			"name": "BetPayout",
			"type": "event"
		},
		{
			"anonymous": false,
			"inputs": [
				{
					"indexed": true,
					"internalType": "address",
					"name": "player",
					"type": "address"
				},
				{
					"indexed": false,
					"internalType": "uint8",
					"name": "option",
					"type": "uint8"
				},
				{
					"indexed": false,
					"internalType": "uint256",
					"name": "amount",
					"type": "uint256"
				}
			],
			"name": "BetPlaced",
			"type": "event"
		},
		{
			"anonymous": false,
			"inputs": [
				{
					"indexed": true,
					"internalType": "address",
					"name": "host",
					"type": "address"
				},
				{
					"indexed": false,
					"internalType": "uint256",
					"name": "amount",
					"type": "uint256"
				}
			],
			"name": "DepositPlaced",
			"type": "event"
		},
		{
			"anonymous": false,
			"inputs": [
				{
					"indexed": true,
					"internalType": "address",
					"name": "host",
					"type": "address"
				},
				{
					"indexed": false,
					"internalType": "uint256",
					"name": "minBet",
					"type": "uint256"
				},
				{
					"indexed": false,
					"internalType": "address[]",
					"name": "validators",
					"type": "address[]"
				},
				{
					"indexed": false,
					"internalType": "uint8",
					"name": "valid_threshold",
					"type": "uint8"
				}
			],
			"name": "GameCreated",
			"type": "event"
		},
		{
			"anonymous": false,
			"inputs": [
				{
					"indexed": true,
					"internalType": "address",
					"name": "host",
					"type": "address"
				},
				{
					"indexed": false,
					"internalType": "uint256",
					"name": "amount",
					"type": "uint256"
				}
			],
			"name": "GameEnded",
			"type": "event"
		},
		{
			"anonymous": false,
			"inputs": [
				{
					"indexed": false,
					"internalType": "uint256",
					"name": "cutOffBlockNumber",
					"type": "uint256"
				}
			],
			"name": "NoMoreBets",
			"type": "event"
		},
		{
			"anonymous": false,
			"inputs": [
				{
					"indexed": false,
					"internalType": "uint8",
					"name": "stepIndex",
					"type": "uint8"
				},
				{
					"indexed": false,
					"internalType": "string",
					"name": "explanation",
					"type": "string"
				},
				{
					"indexed": false,
					"internalType": "bytes",
					"name": "intermediateHash",
					"type": "bytes"
				}
			],
			"name": "ProofStep",
			"type": "event"
		},
		{
			"anonymous": false,
			"inputs": [
				{
					"indexed": false,
					"internalType": "uint8",
					"name": "result",
					"type": "uint8"
				}
			],
			"name": "ResultGenerated",
			"type": "event"
		},
		{
			"anonymous": false,
			"inputs": [
				{
					"indexed": false,
					"internalType": "uint8",
					"name": "recomputedResult",
					"type": "uint8"
				},
				{
					"indexed": false,
					"internalType": "uint8",
					"name": "result",
					"type": "uint8"
				}
			],
			"name": "ResultMismatch",
			"type": "event"
		},
		{
			"anonymous": false,
			"inputs": [
				{
					"indexed": false,
					"internalType": "uint8",
					"name": "result",
					"type": "uint8"
				}
			],
			"name": "ResultValidated",
			"type": "event"
		},
		{
			"inputs": [
				{
					"internalType": "uint256",
					"name": "",
					"type": "uint256"
				}
			],
			"name": "OPTION_BLACK_SET",
			"outputs": [
				{
					"internalType": "uint8",
					"name": "",
					"type": "uint8"
				}
			],
			"stateMutability": "view",
			"type": "function"
		},
		{
			"inputs": [
				{
					"internalType": "uint256",
					"name": "",
					"type": "uint256"
				}
			],
			"name": "OPTION_EVEN_SET",
			"outputs": [
				{
					"internalType": "uint8",
					"name": "",
					"type": "uint8"
				}
			],
			"stateMutability": "view",
			"type": "function"
		},
		{
			"inputs": [
				{
					"internalType": "uint256",
					"name": "",
					"type": "uint256"
				}
			],
			"name": "OPTION_FIRST_COLUMN_SET",
			"outputs": [
				{
					"internalType": "uint8",
					"name": "",
					"type": "uint8"
				}
			],
			"stateMutability": "view",
			"type": "function"
		},
		{
			"inputs": [
				{
					"internalType": "uint256",
					"name": "",
					"type": "uint256"
				}
			],
			"name": "OPTION_FIRST_DOZEN_SET",
			"outputs": [
				{
					"internalType": "uint8",
					"name": "",
					"type": "uint8"
				}
			],
			"stateMutability": "view",
			"type": "function"
		},
		{
			"inputs": [
				{
					"internalType": "uint256",
					"name": "",
					"type": "uint256"
				}
			],
			"name": "OPTION_HIGH_SET",
			"outputs": [
				{
					"internalType": "uint8",
					"name": "",
					"type": "uint8"
				}
			],
			"stateMutability": "view",
			"type": "function"
		},
		{
			"inputs": [
				{
					"internalType": "uint256",
					"name": "",
					"type": "uint256"
				}
			],
			"name": "OPTION_LOW_SET",
			"outputs": [
				{
					"internalType": "uint8",
					"name": "",
					"type": "uint8"
				}
			],
			"stateMutability": "view",
			"type": "function"
		},
		{
			"inputs": [
				{
					"internalType": "uint256",
					"name": "",
					"type": "uint256"
				}
			],
			"name": "OPTION_ODD_SET",
			"outputs": [
				{
					"internalType": "uint8",
					"name": "",
					"type": "uint8"
				}
			],
			"stateMutability": "view",
			"type": "function"
		},
		{
			"inputs": [
				{
					"internalType": "uint256",
					"name": "",
					"type": "uint256"
				}
			],
			"name": "OPTION_RED_SET",
			"outputs": [
				{
					"internalType": "uint8",
					"name": "",
					"type": "uint8"
				}
			],
			"stateMutability": "view",
			"type": "function"
		},
		{
			"inputs": [
				{
					"internalType": "uint256",
					"name": "",
					"type": "uint256"
				}
			],
			"name": "OPTION_SECOND_COLUMN_SET",
			"outputs": [
				{
					"internalType": "uint8",
					"name": "",
					"type": "uint8"
				}
			],
			"stateMutability": "view",
			"type": "function"
		},
		{
			"inputs": [
				{
					"internalType": "uint256",
					"name": "",
					"type": "uint256"
				}
			],
			"name": "OPTION_SECOND_DOZEN_SET",
			"outputs": [
				{
					"internalType": "uint8",
					"name": "",
					"type": "uint8"
				}
			],
			"stateMutability": "view",
			"type": "function"
		},
		{
			"inputs": [
				{
					"internalType": "uint256",
					"name": "",
					"type": "uint256"
				}
			],
			"name": "OPTION_THIRD_COLUMN_SET",
			"outputs": [
				{
					"internalType": "uint8",
					"name": "",
					"type": "uint8"
				}
			],
			"stateMutability": "view",
			"type": "function"
		},
		{
			"inputs": [
				{
					"internalType": "uint256",
					"name": "",
					"type": "uint256"
				}
			],
			"name": "OPTION_THIRD_DOZEN_SET",
			"outputs": [
				{
					"internalType": "uint8",
					"name": "",
					"type": "uint8"
				}
			],
			"stateMutability": "view",
			"type": "function"
		},
		{
			"inputs": [
				{
					"internalType": "uint256",
					"name": "",
					"type": "uint256"
				}
			],
			"name": "bets",
			"outputs": [
				{
					"internalType": "address",
					"name": "player",
					"type": "address"
				},
				{
					"internalType": "uint8",
					"name": "option",
					"type": "uint8"
				},
				{
					"internalType": "uint256",
					"name": "amount",
					"type": "uint256"
				}
			],
			"stateMutability": "view",
			"type": "function"
		},
		{
			"inputs": [],
			"name": "cutOffBlockNumber",
			"outputs": [
				{
					"internalType": "uint256",
					"name": "",
					"type": "uint256"
				}
			],
			"stateMutability": "view",
			"type": "function"
		},
		{
			"inputs": [],
			"name": "deposit",
			"outputs": [],
			"stateMutability": "payable",
			"type": "function"
		},
		{
			"inputs": [],
			"name": "generateResult",
			"outputs": [],
			"stateMutability": "nonpayable",
			"type": "function"
		},
		{
			"inputs": [],
			"name": "getBetsCount",
			"outputs": [
				{
					"internalType": "uint256",
					"name": "",
					"type": "uint256"
				}
			],
			"stateMutability": "view",
			"type": "function"
		},
		{
			"inputs": [],
			"name": "getStatus",
			"outputs": [
				{
					"internalType": "uint8",
					"name": "",
					"type": "uint8"
				}
			],
			"stateMutability": "view",
			"type": "function"
		},
		{
			"inputs": [],
			"name": "getTotalBetsAmount",
			"outputs": [
				{
					"internalType": "uint256",
					"name": "",
					"type": "uint256"
				}
			],
			"stateMutability": "view",
			"type": "function"
		},
		{
			"inputs": [],
			"name": "host",
			"outputs": [
				{
					"internalType": "address",
					"name": "",
					"type": "address"
				}
			],
			"stateMutability": "view",
			"type": "function"
		},
		{
			"inputs": [
				{
					"internalType": "uint8",
					"name": "number",
					"type": "uint8"
				}
			],
			"name": "isInBlackSet",
			"outputs": [
				{
					"internalType": "bool",
					"name": "",
					"type": "bool"
				}
			],
			"stateMutability": "view",
			"type": "function"
		},
		{
			"inputs": [
				{
					"internalType": "uint8",
					"name": "number",
					"type": "uint8"
				}
			],
			"name": "isInEvenSet",
			"outputs": [
				{
					"internalType": "bool",
					"name": "",
					"type": "bool"
				}
			],
			"stateMutability": "view",
			"type": "function"
		},
		{
			"inputs": [
				{
					"internalType": "uint8",
					"name": "number",
					"type": "uint8"
				}
			],
			"name": "isInFirstColumnSet",
			"outputs": [
				{
					"internalType": "bool",
					"name": "",
					"type": "bool"
				}
			],
			"stateMutability": "view",
			"type": "function"
		},
		{
			"inputs": [
				{
					"internalType": "uint8",
					"name": "number",
					"type": "uint8"
				}
			],
			"name": "isInFirstDozenSet",
			"outputs": [
				{
					"internalType": "bool",
					"name": "",
					"type": "bool"
				}
			],
			"stateMutability": "view",
			"type": "function"
		},
		{
			"inputs": [
				{
					"internalType": "uint8",
					"name": "number",
					"type": "uint8"
				}
			],
			"name": "isInHighSet",
			"outputs": [
				{
					"internalType": "bool",
					"name": "",
					"type": "bool"
				}
			],
			"stateMutability": "view",
			"type": "function"
		},
		{
			"inputs": [
				{
					"internalType": "uint8",
					"name": "number",
					"type": "uint8"
				}
			],
			"name": "isInLowSet",
			"outputs": [
				{
					"internalType": "bool",
					"name": "",
					"type": "bool"
				}
			],
			"stateMutability": "view",
			"type": "function"
		},
		{
			"inputs": [
				{
					"internalType": "uint8",
					"name": "number",
					"type": "uint8"
				}
			],
			"name": "isInOddSet",
			"outputs": [
				{
					"internalType": "bool",
					"name": "",
					"type": "bool"
				}
			],
			"stateMutability": "view",
			"type": "function"
		},
		{
			"inputs": [
				{
					"internalType": "uint8",
					"name": "number",
					"type": "uint8"
				}
			],
			"name": "isInRedSet",
			"outputs": [
				{
					"internalType": "bool",
					"name": "",
					"type": "bool"
				}
			],
			"stateMutability": "view",
			"type": "function"
		},
		{
			"inputs": [
				{
					"internalType": "uint8",
					"name": "number",
					"type": "uint8"
				}
			],
			"name": "isInSecondColumnSet",
			"outputs": [
				{
					"internalType": "bool",
					"name": "",
					"type": "bool"
				}
			],
			"stateMutability": "view",
			"type": "function"
		},
		{
			"inputs": [
				{
					"internalType": "uint8",
					"name": "number",
					"type": "uint8"
				}
			],
			"name": "isInSecondDozenSet",
			"outputs": [
				{
					"internalType": "bool",
					"name": "",
					"type": "bool"
				}
			],
			"stateMutability": "view",
			"type": "function"
		},
		{
			"inputs": [
				{
					"internalType": "uint8",
					"name": "number",
					"type": "uint8"
				}
			],
			"name": "isInThirdColumnSet",
			"outputs": [
				{
					"internalType": "bool",
					"name": "",
					"type": "bool"
				}
			],
			"stateMutability": "view",
			"type": "function"
		},
		{
			"inputs": [
				{
					"internalType": "uint8",
					"name": "number",
					"type": "uint8"
				}
			],
			"name": "isInThirdDozenSet",
			"outputs": [
				{
					"internalType": "bool",
					"name": "",
					"type": "bool"
				}
			],
			"stateMutability": "view",
			"type": "function"
		},
		{
			"inputs": [
				{
					"internalType": "address",
					"name": "",
					"type": "address"
				}
			],
			"name": "matchSigners",
			"outputs": [
				{
					"internalType": "bool",
					"name": "",
					"type": "bool"
				}
			],
			"stateMutability": "view",
			"type": "function"
		},
		{
			"inputs": [
				{
					"internalType": "uint256",
					"name": "",
					"type": "uint256"
				}
			],
			"name": "matchedValidators",
			"outputs": [
				{
					"internalType": "address",
					"name": "",
					"type": "address"
				}
			],
			"stateMutability": "view",
			"type": "function"
		},
		{
			"inputs": [],
			"name": "maxBet",
			"outputs": [
				{
					"internalType": "uint256",
					"name": "",
					"type": "uint256"
				}
			],
			"stateMutability": "view",
			"type": "function"
		},
		{
			"inputs": [],
			"name": "minBet",
			"outputs": [
				{
					"internalType": "uint256",
					"name": "",
					"type": "uint256"
				}
			],
			"stateMutability": "view",
			"type": "function"
		},
		{
			"inputs": [],
			"name": "minDeposite",
			"outputs": [
				{
					"internalType": "uint256",
					"name": "",
					"type": "uint256"
				}
			],
			"stateMutability": "view",
			"type": "function"
		},
		{
			"inputs": [
				{
					"internalType": "address",
					"name": "",
					"type": "address"
				}
			],
			"name": "mismatchSigners",
			"outputs": [
				{
					"internalType": "bool",
					"name": "",
					"type": "bool"
				}
			],
			"stateMutability": "view",
			"type": "function"
		},
		{
			"inputs": [
				{
					"internalType": "uint256",
					"name": "",
					"type": "uint256"
				}
			],
			"name": "mismatchedValidators",
			"outputs": [
				{
					"internalType": "address",
					"name": "",
					"type": "address"
				}
			],
			"stateMutability": "view",
			"type": "function"
		},
		{
			"inputs": [],
			"name": "noMoreBets",
			"outputs": [],
			"stateMutability": "nonpayable",
			"type": "function"
		},
		{
			"inputs": [
				{
					"internalType": "uint8",
					"name": "option",
					"type": "uint8"
				}
			],
			"name": "placeBet",
			"outputs": [],
			"stateMutability": "payable",
			"type": "function"
		},
		{
			"inputs": [],
			"name": "result",
			"outputs": [
				{
					"internalType": "uint8",
					"name": "",
					"type": "uint8"
				}
			],
			"stateMutability": "view",
			"type": "function"
		},
		{
			"inputs": [],
			"name": "settleBet",
			"outputs": [],
			"stateMutability": "nonpayable",
			"type": "function"
		},
		{
			"inputs": [],
			"name": "status",
			"outputs": [
				{
					"internalType": "uint8",
					"name": "",
					"type": "uint8"
				}
			],
			"stateMutability": "view",
			"type": "function"
		},
		{
			"inputs": [],
			"name": "validateResult",
			"outputs": [],
			"stateMutability": "nonpayable",
			"type": "function"
		},
		{
			"inputs": [],
			"name": "validate_threshold",
			"outputs": [
				{
					"internalType": "uint8",
					"name": "",
					"type": "uint8"
				}
			],
			"stateMutability": "view",
			"type": "function"
		},
		{
			"inputs": [
				{
					"internalType": "uint256",
					"name": "",
					"type": "uint256"
				}
			],
			"name": "validators",
			"outputs": [
				{
					"internalType": "address",
					"name": "",
					"type": "address"
				}
			],
			"stateMutability": "view",
			"type": "function"
		}
	]
}