{
	"data": {
		"bytecode": {
			"linkReferences": {},
			"object": "6080604052604051806102400160405280600160ff168152602001600260ff168152602001600360ff168152602001600460ff168152602001600560ff168152602001600660ff168152602001600760ff168152602001600860ff168152602001600960ff168152602001600a60ff168152602001600b60ff168152602001600c60ff168152602001600d60ff168152602001600e60ff168152602001600f60ff168152602001601060ff168152602001601160ff168152602001601260ff168152505f9060126100d192919061096a565b50604051806102400160405280601360ff168152602001601460ff168152602001601560ff168152602001601660ff168152602001601760ff168152602001601860ff168152602001601960ff168152602001601a60ff168152602001601b60ff168152602001601c60ff168152602001601d60ff168152602001601e60ff168152602001601f60ff168152602001602060ff168152602001602160ff168152602001602260ff168152602001602360ff168152602001602460ff1681525060019060126101a092919061096a565b50604051806102400160405280600160ff168152602001600360ff168152602001600560ff168152602001600760ff168152602001600960ff168152602001600c60ff168152602001600e60ff168152602001601060ff168152602001601260ff168152602001601360ff168152602001601560ff168152602001601760ff168152602001601960ff168152602001601b60ff168152602001601e60ff168152602001602060ff168152602001602260ff168152602001602460ff16815250600290601261026f92919061096a565b50604051806102400160405280600260ff168152602001600460ff168152602001600660ff168152602001600860ff168152602001600a60ff168152602001600b60ff168152602001600d60ff168152602001600f60ff168152602001601160ff168152602001601460ff168152602001601660ff168152602001601860ff168152602001601a60ff168152602001601c60ff168152602001601d60ff168152602001601f60ff168152602001602160ff168152602001602360ff16815250600390601261033e92919061096a565b50604051806102400160405280600260ff168152602001600460ff168152602001600660ff168152602001600860ff168152602001600a60ff168152602001600c60ff168152602001600e60ff168152602001601060ff168152602001601260ff168152602001601460ff168152602001601660ff168152602001601860ff168152602001601a60ff168152602001601c60ff168152602001601e60ff168152602001602060ff168152602001602260ff168152602001602460ff16815250600490601261040d92919061096a565b50604051806102400160405280600160ff168152602001600360ff168152602001600560ff168152602001600760ff168152602001600960ff168152602001600b60ff168152602001600d60ff168152602001600f60ff168152602001601160ff168152602001601360ff168152602001601560ff168152602001601760ff168152602001601960ff168152602001601b60ff168152602001601d60ff168152602001601f60ff168152602001602160ff168152602001602360ff1681525060059060126104dc92919061096a565b50604051806101800160405280600160ff168152602001600460ff168152602001600760ff168152602001600a60ff168152602001600d60ff168152602001601060ff168152602001601360ff168152602001601660ff168152602001601960ff168152602001601c60ff168152602001601f60ff168152602001602260ff16815250600690600c61056f929190610a01565b50604051806101800160405280600260ff168152602001600560ff168152602001600860ff168152602001600b60ff168152602001600e60ff168152602001601160ff168152602001601460ff168152602001601760ff168152602001601a60ff168152602001601d60ff168152602001602060ff168152602001602360ff16815250600790600c610602929190610a01565b50604051806101800160405280600360ff168152602001600660ff168152602001600960ff168152602001600c60ff168152602001600f60ff168152602001601260ff168152602001601560ff168152602001601860ff168152602001601b60ff168152602001601e60ff168152602001602160ff168152602001602460ff16815250600890600c610695929190610a01565b50604051806101800160405280600160ff168152602001600260ff168152602001600360ff168152602001600460ff168152602001600560ff168152602001600660ff168152602001600760ff168152602001600860ff168152602001600960ff168152602001600a60ff168152602001600b60ff168152602001600c60ff16815250600990600c610728929190610a01565b50604051806101800160405280600d60ff168152602001600e60ff168152602001600f60ff168152602001601060ff168152602001601160ff168152602001601260ff168152602001601360ff168152602001601460ff168152602001601560ff168152602001601660ff168152602001601760ff168152602001601860ff16815250600a90600c6107bb929190610a01565b50604051806101800160405280601960ff168152602001601a60ff168152602001601b60ff168152602001601c60ff168152602001601d60ff168152602001601e60ff168152602001601f60ff168152602001602060ff168152602001602160ff168152602001602260ff168152602001602360ff168152602001602460ff16815250600b90600c61084e929190610a01565b5034801561085a575f80fd5b50604051616ea0380380616ea0833981810160405281019061087c9190610d5e565b83600c5f6101000a81548173ffffffffffffffffffffffffffffffffffffffff021916908373ffffffffffffffffffffffffffffffffffffffff16021790555082600d819055505f600e5f6101000a81548160ff021916908360ff16021790555081601290805190602001906108f3929190610a98565b5080601160016101000a81548160ff021916908360ff1602179055508373ffffffffffffffffffffffffffffffffffffffff167f7bc06ad6af97e4997115d8b8ec4270105092a2dc99a8ba73a35de86c49ab8d9b84848460405161095993929190610eb3565b60405180910390a250505050610eef565b826012601f016020900481019282156109f0579160200282015f5b838211156109c257835183826101000a81548160ff021916908360ff16021790555092602001926001016020815f01049283019260010302610985565b80156109ee5782816101000a81549060ff02191690556001016020815f010492830192600103026109c2565b505b5090506109fd9190610b1f565b5090565b82600c601f01602090048101928215610a87579160200282015f5b83821115610a5957835183826101000a81548160ff021916908360ff16021790555092602001926001016020815f01049283019260010302610a1c565b8015610a855782816101000a81549060ff02191690556001016020815f01049283019260010302610a59565b505b509050610a949190610b1f565b5090565b828054828255905f5260205f20908101928215610b0e579160200282015b82811115610b0d578251825f6101000a81548173ffffffffffffffffffffffffffffffffffffffff021916908373ffffffffffffffffffffffffffffffffffffffff16021790555091602001919060010190610ab6565b5b509050610b1b9190610b1f565b5090565b5b80821115610b36575f815f905550600101610b20565b5090565b5f604051905090565b5f80fd5b5f80fd5b5f73ffffffffffffffffffffffffffffffffffffffff82169050919050565b5f610b7482610b4b565b9050919050565b610b8481610b6a565b8114610b8e575f80fd5b50565b5f81519050610b9f81610b7b565b92915050565b5f819050919050565b610bb781610ba5565b8114610bc1575f80fd5b50565b5f81519050610bd281610bae565b92915050565b5f80fd5b5f601f19601f8301169050919050565b7f4e487b71000000000000000000000000000000000000000000000000000000005f52604160045260245ffd5b610c2282610bdc565b810181811067ffffffffffffffff82111715610c4157610c40610bec565b5b80604052505050565b5f610c53610b3a565b9050610c5f8282610c19565b919050565b5f67ffffffffffffffff821115610c7e57610c7d610bec565b5b602082029050602081019050919050565b5f80fd5b5f610ca5610ca084610c64565b610c4a565b90508083825260208201905060208402830185811115610cc857610cc7610c8f565b5b835b81811015610cf15780610cdd8882610b91565b845260208401935050602081019050610cca565b5050509392505050565b5f82601f830112610d0f57610d0e610bd8565b5b8151610d1f848260208601610c93565b91505092915050565b5f60ff82169050919050565b610d3d81610d28565b8114610d47575f80fd5b50565b5f81519050610d5881610d34565b92915050565b5f805f8060808587031215610d7657610d75610b43565b5b5f610d8387828801610b91565b9450506020610d9487828801610bc4565b935050604085015167ffffffffffffffff811115610db557610db4610b47565b5b610dc187828801610cfb565b9250506060610dd287828801610d4a565b91505092959194509250565b610de781610ba5565b82525050565b5f81519050919050565b5f82825260208201905092915050565b5f819050602082019050919050565b610e1f81610b6a565b82525050565b5f610e308383610e16565b60208301905092915050565b5f602082019050919050565b5f610e5282610ded565b610e5c8185610df7565b9350610e6783610e07565b805f5b83811015610e97578151610e7e8882610e25565b9750610e8983610e3c565b925050600181019050610e6a565b5085935050505092915050565b610ead81610d28565b82525050565b5f606082019050610ec65f830186610dde565b8181036020830152610ed88185610e48565b9050610ee76040830184610ea4565b949350505050565b615fa480610efc5f395ff3fe608060405260043610610266575f3560e01c80636f91a66f11610143578063c201715c116100b5578063db7f11db11610079578063db7f11db146109b6578063e4ca650d146109f2578063e71f766e14610a2e578063e8e0fca514610a6a578063f437bc5914610aa6578063fe5385af14610ad057610266565b8063c201715c146108ce578063d0e30db01461090a578063d1edb09e14610914578063d4f7a2851461093e578063d9cc76ad1461097a57610266565b80639619367d116101075780639619367d14610778578063972b533d146107a2578063a38bd74c146107de578063a6ede84a1461081a578063b251339914610856578063be47ae131461089257610266565b80636f91a66f146106a857806387171eb7146106d25780638c7e347a146106fc5780638e4bf820146107265780638fffebca1461073c57610266565b80632e5b2168116101dc57806343046844116101a057806343046844146105845780634760fff3146105a05780634d7d93fe146105dc5780634e69d560146106185780635dcab1d814610642578063653721471461067e57610266565b80632e5b2168146104a25780632eca4c28146104cc578063322f8920146104f657806335aa2e441461053257806338cceb4f1461056e57610266565b80631fac0ffd1161022e5780631fac0ffd1461034a578063200d2ed21461038657806322af00fa146103b057806323fe318e146103ee5780632605c2511461042a57806328dddc1b1461046657610266565b8063125861721461026a57806319299832146102a6578063195ba0eb146102e25780631b2abc771461031e5780631dbe2e0e14610334575b5f80fd5b348015610275575f80fd5b50610290600480360381019061028b9190614b61565b610b0c565b60405161029d9190614ba6565b60405180910390f35b3480156102b1575f80fd5b506102cc60048036038101906102c79190614bf2565b610b7e565b6040516102d99190614c2c565b60405180910390f35b3480156102ed575f80fd5b5061030860048036038101906103039190614bf2565b610ba7565b6040516103159190614c2c565b60405180910390f35b348015610329575f80fd5b50610332610bd0565b005b34801561033f575f80fd5b50610348610c84565b005b348015610355575f80fd5b50610370600480360381019061036b9190614bf2565b610f64565b60405161037d9190614c2c565b60405180910390f35b348015610391575f80fd5b5061039a610f8d565b6040516103a79190614c2c565b60405180910390f35b3480156103bb575f80fd5b506103d660048036038101906103d19190614bf2565b610f9f565b6040516103e593929190614c93565b60405180910390f35b3480156103f9575f80fd5b50610414600480360381019061040f9190614bf2565b610fff565b6040516104219190614c2c565b60405180910390f35b348015610435575f80fd5b50610450600480360381019061044b9190614b61565b611028565b60405161045d9190614ba6565b60405180910390f35b348015610471575f80fd5b5061048c60048036038101906104879190614b61565b61109a565b6040516104999190614ba6565b60405180910390f35b3480156104ad575f80fd5b506104b661110c565b6040516104c39190614cc8565b60405180910390f35b3480156104d7575f80fd5b506104e0611112565b6040516104ed9190614c2c565b60405180910390f35b348015610501575f80fd5b5061051c60048036038101906105179190614bf2565b611125565b6040516105299190614c2c565b60405180910390f35b34801561053d575f80fd5b5061055860048036038101906105539190614bf2565b61114e565b6040516105659190614ce1565b60405180910390f35b348015610579575f80fd5b50610582611189565b005b61059e60048036038101906105999190614b61565b611901565b005b3480156105ab575f80fd5b506105c660048036038101906105c19190614b61565b611b0f565b6040516105d39190614ba6565b60405180910390f35b3480156105e7575f80fd5b5061060260048036038101906105fd9190614b61565b611b81565b60405161060f9190614ba6565b60405180910390f35b348015610623575f80fd5b5061062c611bf3565b6040516106399190614c2c565b60405180910390f35b34801561064d575f80fd5b5061066860048036038101906106639190614b61565b611c08565b6040516106759190614ba6565b60405180910390f35b348015610689575f80fd5b50610692611c7a565b60405161069f9190614c2c565b60405180910390f35b3480156106b3575f80fd5b506106bc611c8c565b6040516106c99190614cc8565b60405180910390f35b3480156106dd575f80fd5b506106e6611c92565b6040516106f39190614cc8565b60405180910390f35b348015610707575f80fd5b50610710611c98565b60405161071d9190614cc8565b60405180910390f35b348015610731575f80fd5b5061073a611ca4565b005b348015610747575f80fd5b50610762600480360381019061075d9190614b61565b61398a565b60405161076f9190614ba6565b60405180910390f35b348015610783575f80fd5b5061078c6139fc565b6040516107999190614cc8565b60405180910390f35b3480156107ad575f80fd5b506107c860048036038101906107c39190614b61565b613a02565b6040516107d59190614ba6565b60405180910390f35b3480156107e9575f80fd5b5061080460048036038101906107ff9190614b61565b613a73565b6040516108119190614ba6565b60405180910390f35b348015610825575f80fd5b50610840600480360381019061083b9190614bf2565b613ae5565b60405161084d9190614c2c565b60405180910390f35b348015610861575f80fd5b5061087c60048036038101906108779190614bf2565b613b0e565b6040516108899190614c2c565b60405180910390f35b34801561089d575f80fd5b506108b860048036038101906108b39190614bf2565b613b37565b6040516108c59190614c2c565b60405180910390f35b3480156108d9575f80fd5b506108f460048036038101906108ef9190614bf2565b613b60565b6040516109019190614ce1565b60405180910390f35b610912613b9b565b005b34801561091f575f80fd5b50610928613ceb565b6040516109359190614cc8565b60405180910390f35b348015610949575f80fd5b50610964600480360381019061095f9190614bf2565b613d45565b6040516109719190614c2c565b60405180910390f35b348015610985575f80fd5b506109a0600480360381019061099b9190614b61565b613d6e565b6040516109ad9190614ba6565b60405180910390f35b3480156109c1575f80fd5b506109dc60048036038101906109d79190614bf2565b613de0565b6040516109e99190614c2c565b60405180910390f35b3480156109fd575f80fd5b50610a186004803603810190610a139190614b61565b613e09565b604051610a259190614ba6565b60405180910390f35b348015610a39575f80fd5b50610a546004803603810190610a4f9190614b61565b613e7b565b604051610a619190614ba6565b60405180910390f35b348015610a75575f80fd5b50610a906004803603810190610a8b9190614bf2565b613eed565b604051610a9d9190614c2c565b60405180910390f35b348015610ab1575f80fd5b50610aba613f15565b604051610ac79190614ce1565b60405180910390f35b348015610adb575f80fd5b50610af66004803603810190610af19190614bf2565b613f3a565b604051610b039190614c2c565b60405180910390f35b5f805f90505b600c8160ff161015610b74578260ff1660068260ff16600c8110610b3957610b38614cfa565b5b602091828204019190069054906101000a900460ff1660ff1603610b61576001915050610b79565b8080610b6c90614d54565b915050610b12565b505f90505b919050565b600881600c8110610b8d575f80fd5b60209182820401919006915054906101000a900460ff1681565b600981600c8110610bb6575f80fd5b60209182820401919006915054906101000a900460ff1681565b600160ff16600e5f9054906101000a900460ff1660ff1614610c27576040517f08c379a0000000000000000000000000000000000000000000000000000000008152600401610c1e90614dd6565b60405180910390fd5b6002600e5f6101000a81548160ff021916908360ff160217905550436010819055507f2d21e9397283a99c7f2df56baf635aab0655f2dea12185fac963ac115be30f93601054604051610c7a9190614cc8565b60405180910390a1565b600260ff16600e5f9054906101000a900460ff1660ff1614610cdb576040517f08c379a0000000000000000000000000000000000000000000000000000000008152600401610cd290614dd6565b60405180910390fd5b600c5f9054906101000a900473ffffffffffffffffffffffffffffffffffffffff1673ffffffffffffffffffffffffffffffffffffffff163373ffffffffffffffffffffffffffffffffffffffff1614610d6a576040517f08c379a0000000000000000000000000000000000000000000000000000000008152600401610d6190614e3e565b60405180910390fd5b6001600c60ff16601054610d7e9190614e5c565b610d889190614e5c565b431015610dca576040517f08c379a0000000000000000000000000000000000000000000000000000000008152600401610dc190614ed9565b60405180910390fd5b5f6001601054610dda9190614e5c565b4090505f600c5f9054906101000a900473ffffffffffffffffffffffffffffffffffffffff16604051602001610e109190614f3c565b60405160208183030381529060405290505f5b600f80549050811015610ea25781600f8281548110610e4557610e44614cfa565b5b905f5260205f2090600202015f015f9054906101000a900473ffffffffffffffffffffffffffffffffffffffff16604051602001610e84929190614fa8565b60405160208183030381529060405291508080600101915050610e23565b505f8282604051602001610eb7929190614ff8565b6040516020818303038152906040528051906020012090505f815f1c9050602660ff1681610ee5919061504c565b60115f6101000a81548160ff021916908360ff1602179055506003600e5f6101000a81548160ff021916908360ff1602179055507f4898f0a86e5d5b202a6285b46db8e265f964e837829f7d6bf7d1c072c6b88c0960115f9054906101000a900460ff16604051610f569190614c2c565b60405180910390a150505050565b600b81600c8110610f73575f80fd5b60209182820401919006915054906101000a900460ff1681565b600e5f9054906101000a900460ff1681565b600f8181548110610fae575f80fd5b905f5260205f2090600202015f91509050805f015f9054906101000a900473ffffffffffffffffffffffffffffffffffffffff1690805f0160149054906101000a900460ff16908060010154905083565b6002816012811061100e575f80fd5b60209182820401919006915054906101000a900460ff1681565b5f805f90505b600c8160ff161015611090578260ff16600a8260ff16600c811061105557611054614cfa565b5b602091828204019190069054906101000a900460ff1660ff160361107d576001915050611095565b808061108890614d54565b91505061102e565b505f90505b919050565b5f805f90505b60128160ff161015611102578260ff1660048260ff16601281106110c7576110c6614cfa565b5b602091828204019190069054906101000a900460ff1660ff16036110ef576001915050611107565b80806110fa90614d54565b9150506110a0565b505f90505b919050565b60155481565b601160019054906101000a900460ff1681565b600a81600c8110611134575f80fd5b60209182820401919006915054906101000a900460ff1681565b6012818154811061115d575f80fd5b905f5260205f20015f915054906101000a900473ffffffffffffffffffffffffffffffffffffffff1681565b600360ff16600e5f9054906101000a900460ff1660ff16146111e0576040517f08c379a00000000000000000000000000000000000000000000000000000000081526004016111d7906150c6565b60405180910390fd5b6001600c60ff166010546111f49190614e5c565b6111fe9190614e5c565b431015611240576040517f08c379a000000000000000000000000000000000000000000000000000000000815260040161123790615154565b60405180910390fd5b61124933613f63565b611288576040517f08c379a000000000000000000000000000000000000000000000000000000000815260040161127f906151bc565b60405180910390fd5b5f60016010546112989190614e5c565b90505f814090507f9cff65d26c2c9e31c3ddf370eec9dcc1327976f78b3eebf97cfd37adc448cc3560016112cb84614005565b6112d484614165565b6040516020016112e59291906152fc565b604051602081830303815290604052848460405160200161130792919061534f565b60405160208183030381529060405260405161132593929190615448565b60405180910390a15f6001600f805490506113409190614e5c565b67ffffffffffffffff8111156113595761135861548b565b5b6040519080825280602002602001820160405280156113875781602001602082028036833780820191505090505b509050600c5f9054906101000a900473ffffffffffffffffffffffffffffffffffffffff16815f815181106113bf576113be614cfa565b5b602002602001019073ffffffffffffffffffffffffffffffffffffffff16908173ffffffffffffffffffffffffffffffffffffffff16815250505f5b600f805490508110156114b057600f818154811061141c5761141b614cfa565b5b905f5260205f2090600202015f015f9054906101000a900473ffffffffffffffffffffffffffffffffffffffff16826001836114589190614e5c565b8151811061146957611468614cfa565b5b602002602001019073ffffffffffffffffffffffffffffffffffffffff16908173ffffffffffffffffffffffffffffffffffffffff168152505080806001019150506113fb565b505f6114bb8261442b565b90505f600c5f9054906101000a900473ffffffffffffffffffffffffffffffffffffffff166040516020016114f09190614f3c565b60405160208183030381529060405290505f5b600f805490508110156115825781600f828154811061152557611524614cfa565b5b905f5260205f2090600202015f015f9054906101000a900473ffffffffffffffffffffffffffffffffffffffff16604051602001611564929190614fa8565b60405160208183030381529060405291508080600101915050611503565b507f9cff65d26c2c9e31c3ddf370eec9dcc1327976f78b3eebf97cfd37adc448cc356002836040516020016115b79190615502565b604051602081830303815290604052856040516020016115d791906155da565b6040516020818303038152906040526040516115f593929190615633565b60405180910390a17f9cff65d26c2c9e31c3ddf370eec9dcc1327976f78b3eebf97cfd37adc448cc3560036116298361456e565b60405160200161163991906156e6565b6040516020818303038152906040528360405161165893929190615740565b60405180910390a15f8482604051602001611674929190614ff8565b6040516020818303038152906040528051906020012090507f9cff65d26c2c9e31c3ddf370eec9dcc1327976f78b3eebf97cfd37adc448cc3560046116b883614165565b6040516020016116c891906157f3565b604051602081830303815290604052836040516020016116e89190615814565b60405160208183030381529060405260405161170693929190615866565b60405180910390a15f815f1c90505f602660ff1682611725919061504c565b90507f9cff65d26c2c9e31c3ddf370eec9dcc1327976f78b3eebf97cfd37adc448cc356005611757602660ff16614005565b6117638460ff16614005565b60405160200161177492919061593d565b604051602081830303815290604052836040516020016117949190614c2c565b6040516020818303038152906040526040516117b2939291906159af565b60405180910390a160115f9054906101000a900460ff1660ff168160ff1614611810576040517f08c379a000000000000000000000000000000000000000000000000000000000815260040161180790615a62565b60405180910390fd5b601333908060018154018082558091505060019003905f5260205f20015f9091909190916101000a81548173ffffffffffffffffffffffffffffffffffffffff021916908373ffffffffffffffffffffffffffffffffffffffff160217905550601160019054906101000a900460ff1660ff16601380549050106118f7577f5f438d100d0c0fb18e88113110bf411fd18c9a557c03e394cd32997b5055f9ae60115f9054906101000a900460ff166040516118cb9190614c2c565b60405180910390a16004600e5f6101000a81548160ff021916908360ff1602179055506118f6611ca4565b5b5050505050505050565b60318160ff161115611948576040517f08c379a000000000000000000000000000000000000000000000000000000000815260040161193f90615aca565b60405180910390fd5b600d5434101561198d576040517f08c379a000000000000000000000000000000000000000000000000000000000815260040161198490615b58565b60405180910390fd5b6064610e744761199d9190615b76565b6119a79190615bb7565b34106119e8576040517f08c379a00000000000000000000000000000000000000000000000000000000081526004016119df90615c57565b60405180910390fd5b600f60405180606001604052803373ffffffffffffffffffffffffffffffffffffffff1681526020018360ff16815260200134815250908060018154018082558091505060019003905f5260205f2090600202015f909190919091505f820151815f015f6101000a81548173ffffffffffffffffffffffffffffffffffffffff021916908373ffffffffffffffffffffffffffffffffffffffff1602179055506020820151815f0160146101000a81548160ff021916908360ff1602179055506040820151816001015550503373ffffffffffffffffffffffffffffffffffffffff167f9f6b4cced64244a64465098f682029975b1614400b96bc6bd12c6680837191668234604051611afc929190615c75565b60405180910390a2611b0c610bd0565b50565b5f805f90505b60128160ff161015611b77578260ff1660028260ff1660128110611b3c57611b3b614cfa565b5b602091828204019190069054906101000a900460ff1660ff1603611b64576001915050611b7c565b8080611b6f90614d54565b915050611b15565b505f90505b919050565b5f805f90505b600c8160ff161015611be9578260ff1660098260ff16600c8110611bae57611bad614cfa565b5b602091828204019190069054906101000a900460ff1660ff1603611bd6576001915050611bee565b8080611be190614d54565b915050611b87565b505f90505b919050565b5f600e5f9054906101000a900460ff16905090565b5f805f90505b60128160ff161015611c70578260ff1660038260ff1660128110611c3557611c34614cfa565b5b602091828204019190069054906101000a900460ff1660ff1603611c5d576001915050611c75565b8080611c6890614d54565b915050611c0e565b505f90505b919050565b60115f9054906101000a900460ff1681565b60105481565b60145481565b5f600f80549050905090565b600460ff16600e5f9054906101000a900460ff1660ff1614611cfb576040517f08c379a0000000000000000000000000000000000000000000000000000000008152600401611cf290615ce6565b60405180910390fd5b5f5b600f805490508110156138b3575f600f8281548110611d1f57611d1e614cfa565b5b905f5260205f2090600202015f0160149054906101000a900460ff1660ff1610158015611d7f57506025600f8281548110611d5d57611d5c614cfa565b5b905f5260205f2090600202015f0160149054906101000a900460ff1660ff1611155b15611f915760115f9054906101000a900460ff1660ff16600f8281548110611daa57611da9614cfa565b5b905f5260205f2090600202015f0160149054906101000a900460ff1660ff1603611f8c57600f8181548110611de257611de1614cfa565b5b905f5260205f2090600202015f015f9054906101000a900473ffffffffffffffffffffffffffffffffffffffff1673ffffffffffffffffffffffffffffffffffffffff166108fc6064610e74600f8581548110611e4257611e41614cfa565b5b905f5260205f20906002020160010154611e5c9190615b76565b611e669190615bb7565b90811502906040515f60405180830381858888f19350505050158015611e8e573d5f803e3d5ffd5b50600f8181548110611ea357611ea2614cfa565b5b905f5260205f2090600202015f015f9054906101000a900473ffffffffffffffffffffffffffffffffffffffff1673ffffffffffffffffffffffffffffffffffffffff167ffeb6d77d8663b36b3393e8790540b4ebe73ade87f3146e450022712344dc7b3b600f8381548110611f1c57611f1b614cfa565b5b905f5260205f2090600202015f0160149054906101000a900460ff166064610e74600f8681548110611f5157611f50614cfa565b5b905f5260205f20906002020160010154611f6b9190615b76565b611f759190615bb7565b604051611f83929190615c75565b60405180910390a25b6138b3565b6026600f8281548110611fa757611fa6614cfa565b5b905f5260205f2090600202015f0160149054906101000a900460ff1660ff16036121a857611fe260115f9054906101000a900460ff16613a02565b156121a357600f8181548110611ffb57611ffa614cfa565b5b905f5260205f2090600202015f015f9054906101000a900473ffffffffffffffffffffffffffffffffffffffff1673ffffffffffffffffffffffffffffffffffffffff166108fc6064606f600f858154811061205a57612059614cfa565b5b905f5260205f209060020201600101546120749190615b76565b61207e9190615bb7565b90811502906040515f60405180830381858888f193505050501580156120a6573d5f803e3d5ffd5b50600f81815481106120bb576120ba614cfa565b5b905f5260205f2090600202015f015f9054906101000a900473ffffffffffffffffffffffffffffffffffffffff1673ffffffffffffffffffffffffffffffffffffffff167ffeb6d77d8663b36b3393e8790540b4ebe73ade87f3146e450022712344dc7b3b600f838154811061213457612133614cfa565b5b905f5260205f2090600202015f0160149054906101000a900460ff166064606f600f868154811061216857612167614cfa565b5b905f5260205f209060020201600101546121829190615b76565b61218c9190615bb7565b60405161219a929190615c75565b60405180910390a25b6138b3565b6027600f82815481106121be576121bd614cfa565b5b905f5260205f2090600202015f0160149054906101000a900460ff1660ff16036123bf576121f960115f9054906101000a900460ff16613e09565b156123ba57600f818154811061221257612211614cfa565b5b905f5260205f2090600202015f015f9054906101000a900473ffffffffffffffffffffffffffffffffffffffff1673ffffffffffffffffffffffffffffffffffffffff166108fc6064606f600f858154811061227157612270614cfa565b5b905f5260205f2090600202016001015461228b9190615b76565b6122959190615bb7565b90811502906040515f60405180830381858888f193505050501580156122bd573d5f803e3d5ffd5b50600f81815481106122d2576122d1614cfa565b5b905f5260205f2090600202015f015f9054906101000a900473ffffffffffffffffffffffffffffffffffffffff1673ffffffffffffffffffffffffffffffffffffffff167ffeb6d77d8663b36b3393e8790540b4ebe73ade87f3146e450022712344dc7b3b600f838154811061234b5761234a614cfa565b5b905f5260205f2090600202015f0160149054906101000a900460ff166064606f600f868154811061237f5761237e614cfa565b5b905f5260205f209060020201600101546123999190615b76565b6123a39190615bb7565b6040516123b1929190615c75565b60405180910390a25b6138b3565b6028600f82815481106123d5576123d4614cfa565b5b905f5260205f2090600202015f0160149054906101000a900460ff1660ff16036125d65761241060115f9054906101000a900460ff16611b0f565b156125d157600f818154811061242957612428614cfa565b5b905f5260205f2090600202015f015f9054906101000a900473ffffffffffffffffffffffffffffffffffffffff1673ffffffffffffffffffffffffffffffffffffffff166108fc6064606f600f858154811061248857612487614cfa565b5b905f5260205f209060020201600101546124a29190615b76565b6124ac9190615bb7565b90811502906040515f60405180830381858888f193505050501580156124d4573d5f803e3d5ffd5b50600f81815481106124e9576124e8614cfa565b5b905f5260205f2090600202015f015f9054906101000a900473ffffffffffffffffffffffffffffffffffffffff1673ffffffffffffffffffffffffffffffffffffffff167ffeb6d77d8663b36b3393e8790540b4ebe73ade87f3146e450022712344dc7b3b600f838154811061256257612561614cfa565b5b905f5260205f2090600202015f0160149054906101000a900460ff166064606f600f868154811061259657612595614cfa565b5b905f5260205f209060020201600101546125b09190615b76565b6125ba9190615bb7565b6040516125c8929190615c75565b60405180910390a25b6138b3565b6029600f82815481106125ec576125eb614cfa565b5b905f5260205f2090600202015f0160149054906101000a900460ff1660ff16036127ed5761262760115f9054906101000a900460ff16611c08565b156127e857600f81815481106126405761263f614cfa565b5b905f5260205f2090600202015f015f9054906101000a900473ffffffffffffffffffffffffffffffffffffffff1673ffffffffffffffffffffffffffffffffffffffff166108fc6064606f600f858154811061269f5761269e614cfa565b5b905f5260205f209060020201600101546126b99190615b76565b6126c39190615bb7565b90811502906040515f60405180830381858888f193505050501580156126eb573d5f803e3d5ffd5b50600f8181548110612700576126ff614cfa565b5b905f5260205f2090600202015f015f9054906101000a900473ffffffffffffffffffffffffffffffffffffffff1673ffffffffffffffffffffffffffffffffffffffff167ffeb6d77d8663b36b3393e8790540b4ebe73ade87f3146e450022712344dc7b3b600f838154811061277957612778614cfa565b5b905f5260205f2090600202015f0160149054906101000a900460ff166064606f600f86815481106127ad576127ac614cfa565b5b905f5260205f209060020201600101546127c79190615b76565b6127d19190615bb7565b6040516127df929190615c75565b60405180910390a25b6138b3565b602a600f828154811061280357612802614cfa565b5b905f5260205f2090600202015f0160149054906101000a900460ff1660ff1603612a045761283e60115f9054906101000a900460ff1661109a565b156129ff57600f818154811061285757612856614cfa565b5b905f5260205f2090600202015f015f9054906101000a900473ffffffffffffffffffffffffffffffffffffffff1673ffffffffffffffffffffffffffffffffffffffff166108fc6064606f600f85815481106128b6576128b5614cfa565b5b905f5260205f209060020201600101546128d09190615b76565b6128da9190615bb7565b90811502906040515f60405180830381858888f19350505050158015612902573d5f803e3d5ffd5b50600f818154811061291757612916614cfa565b5b905f5260205f2090600202015f015f9054906101000a900473ffffffffffffffffffffffffffffffffffffffff1673ffffffffffffffffffffffffffffffffffffffff167ffeb6d77d8663b36b3393e8790540b4ebe73ade87f3146e450022712344dc7b3b600f83815481106129905761298f614cfa565b5b905f5260205f2090600202015f0160149054906101000a900460ff166064606f600f86815481106129c4576129c3614cfa565b5b905f5260205f209060020201600101546129de9190615b76565b6129e89190615bb7565b6040516129f6929190615c75565b60405180910390a25b6138b3565b602b600f8281548110612a1a57612a19614cfa565b5b905f5260205f2090600202015f0160149054906101000a900460ff1660ff1603612c1b57612a5560115f9054906101000a900460ff16613d6e565b15612c1657600f8181548110612a6e57612a6d614cfa565b5b905f5260205f2090600202015f015f9054906101000a900473ffffffffffffffffffffffffffffffffffffffff1673ffffffffffffffffffffffffffffffffffffffff166108fc6064606f600f8581548110612acd57612acc614cfa565b5b905f5260205f20906002020160010154612ae79190615b76565b612af19190615bb7565b90811502906040515f60405180830381858888f19350505050158015612b19573d5f803e3d5ffd5b50600f8181548110612b2e57612b2d614cfa565b5b905f5260205f2090600202015f015f9054906101000a900473ffffffffffffffffffffffffffffffffffffffff1673ffffffffffffffffffffffffffffffffffffffff167ffeb6d77d8663b36b3393e8790540b4ebe73ade87f3146e450022712344dc7b3b600f8381548110612ba757612ba6614cfa565b5b905f5260205f2090600202015f0160149054906101000a900460ff166064606f600f8681548110612bdb57612bda614cfa565b5b905f5260205f20906002020160010154612bf59190615b76565b612bff9190615bb7565b604051612c0d929190615c75565b60405180910390a25b6138b3565b602c600f8281548110612c3157612c30614cfa565b5b905f5260205f2090600202015f0160149054906101000a900460ff1660ff1603612e3257612c6c60115f9054906101000a900460ff16610b0c565b15612e2d57600f8181548110612c8557612c84614cfa565b5b905f5260205f2090600202015f015f9054906101000a900473ffffffffffffffffffffffffffffffffffffffff1673ffffffffffffffffffffffffffffffffffffffff166108fc606460d9600f8581548110612ce457612ce3614cfa565b5b905f5260205f20906002020160010154612cfe9190615b76565b612d089190615bb7565b90811502906040515f60405180830381858888f19350505050158015612d30573d5f803e3d5ffd5b50600f8181548110612d4557612d44614cfa565b5b905f5260205f2090600202015f015f9054906101000a900473ffffffffffffffffffffffffffffffffffffffff1673ffffffffffffffffffffffffffffffffffffffff167ffeb6d77d8663b36b3393e8790540b4ebe73ade87f3146e450022712344dc7b3b600f8381548110612dbe57612dbd614cfa565b5b905f5260205f2090600202015f0160149054906101000a900460ff16606460d9600f8681548110612df257612df1614cfa565b5b905f5260205f20906002020160010154612e0c9190615b76565b612e169190615bb7565b604051612e24929190615c75565b60405180910390a25b6138a6565b602d600f8281548110612e4857612e47614cfa565b5b905f5260205f2090600202015f0160149054906101000a900460ff1660ff160361304957612e8360115f9054906101000a900460ff1661398a565b1561304457600f8181548110612e9c57612e9b614cfa565b5b905f5260205f2090600202015f015f9054906101000a900473ffffffffffffffffffffffffffffffffffffffff1673ffffffffffffffffffffffffffffffffffffffff166108fc606460d9600f8581548110612efb57612efa614cfa565b5b905f5260205f20906002020160010154612f159190615b76565b612f1f9190615bb7565b90811502906040515f60405180830381858888f19350505050158015612f47573d5f803e3d5ffd5b50600f8181548110612f5c57612f5b614cfa565b5b905f5260205f2090600202015f015f9054906101000a900473ffffffffffffffffffffffffffffffffffffffff1673ffffffffffffffffffffffffffffffffffffffff167ffeb6d77d8663b36b3393e8790540b4ebe73ade87f3146e450022712344dc7b3b600f8381548110612fd557612fd4614cfa565b5b905f5260205f2090600202015f0160149054906101000a900460ff16606460d9600f868154811061300957613008614cfa565b5b905f5260205f209060020201600101546130239190615b76565b61302d9190615bb7565b60405161303b929190615c75565b60405180910390a25b6138a5565b602e600f828154811061305f5761305e614cfa565b5b905f5260205f2090600202015f0160149054906101000a900460ff1660ff16036132605761309a60115f9054906101000a900460ff16613e7b565b1561325b57600f81815481106130b3576130b2614cfa565b5b905f5260205f2090600202015f015f9054906101000a900473ffffffffffffffffffffffffffffffffffffffff1673ffffffffffffffffffffffffffffffffffffffff166108fc606460d9600f858154811061311257613111614cfa565b5b905f5260205f2090600202016001015461312c9190615b76565b6131369190615bb7565b90811502906040515f60405180830381858888f1935050505015801561315e573d5f803e3d5ffd5b50600f818154811061317357613172614cfa565b5b905f5260205f2090600202015f015f9054906101000a900473ffffffffffffffffffffffffffffffffffffffff1673ffffffffffffffffffffffffffffffffffffffff167ffeb6d77d8663b36b3393e8790540b4ebe73ade87f3146e450022712344dc7b3b600f83815481106131ec576131eb614cfa565b5b905f5260205f2090600202015f0160149054906101000a900460ff16606460d9600f86815481106132205761321f614cfa565b5b905f5260205f2090600202016001015461323a9190615b76565b6132449190615bb7565b604051613252929190615c75565b60405180910390a25b6138a4565b602f600f828154811061327657613275614cfa565b5b905f5260205f2090600202015f0160149054906101000a900460ff1660ff1603613477576132b160115f9054906101000a900460ff16611b81565b1561347257600f81815481106132ca576132c9614cfa565b5b905f5260205f2090600202015f015f9054906101000a900473ffffffffffffffffffffffffffffffffffffffff1673ffffffffffffffffffffffffffffffffffffffff166108fc606460d9600f858154811061332957613328614cfa565b5b905f5260205f209060020201600101546133439190615b76565b61334d9190615bb7565b90811502906040515f60405180830381858888f19350505050158015613375573d5f803e3d5ffd5b50600f818154811061338a57613389614cfa565b5b905f5260205f2090600202015f015f9054906101000a900473ffffffffffffffffffffffffffffffffffffffff1673ffffffffffffffffffffffffffffffffffffffff167ffeb6d77d8663b36b3393e8790540b4ebe73ade87f3146e450022712344dc7b3b600f838154811061340357613402614cfa565b5b905f5260205f2090600202015f0160149054906101000a900460ff16606460d9600f868154811061343757613436614cfa565b5b905f5260205f209060020201600101546134519190615b76565b61345b9190615bb7565b604051613469929190615c75565b60405180910390a25b6138a3565b6030600f828154811061348d5761348c614cfa565b5b905f5260205f2090600202015f0160149054906101000a900460ff1660ff160361368e576134c860115f9054906101000a900460ff16611028565b1561368957600f81815481106134e1576134e0614cfa565b5b905f5260205f2090600202015f015f9054906101000a900473ffffffffffffffffffffffffffffffffffffffff1673ffffffffffffffffffffffffffffffffffffffff166108fc606460d9600f85815481106135405761353f614cfa565b5b905f5260205f2090600202016001015461355a9190615b76565b6135649190615bb7565b90811502906040515f60405180830381858888f1935050505015801561358c573d5f803e3d5ffd5b50600f81815481106135a1576135a0614cfa565b5b905f5260205f2090600202015f015f9054906101000a900473ffffffffffffffffffffffffffffffffffffffff1673ffffffffffffffffffffffffffffffffffffffff167ffeb6d77d8663b36b3393e8790540b4ebe73ade87f3146e450022712344dc7b3b600f838154811061361a57613619614cfa565b5b905f5260205f2090600202015f0160149054906101000a900460ff16606460d9600f868154811061364e5761364d614cfa565b5b905f5260205f209060020201600101546136689190615b76565b6136729190615bb7565b604051613680929190615c75565b60405180910390a25b6138a2565b6031600f82815481106136a4576136a3614cfa565b5b905f5260205f2090600202015f0160149054906101000a900460ff1660ff16036138a1576136df60115f9054906101000a900460ff16613a73565b156138a057600f81815481106136f8576136f7614cfa565b5b905f5260205f2090600202015f015f9054906101000a900473ffffffffffffffffffffffffffffffffffffffff1673ffffffffffffffffffffffffffffffffffffffff166108fc606460d9600f858154811061375757613756614cfa565b5b905f5260205f209060020201600101546137719190615b76565b61377b9190615bb7565b90811502906040515f60405180830381858888f193505050501580156137a3573d5f803e3d5ffd5b50600f81815481106137b8576137b7614cfa565b5b905f5260205f2090600202015f015f9054906101000a900473ffffffffffffffffffffffffffffffffffffffff1673ffffffffffffffffffffffffffffffffffffffff167ffeb6d77d8663b36b3393e8790540b4ebe73ade87f3146e450022712344dc7b3b600f838154811061383157613830614cfa565b5b905f5260205f2090600202015f0160149054906101000a900460ff16606460d9600f868154811061386557613864614cfa565b5b905f5260205f2090600202016001015461387f9190615b76565b6138899190615bb7565b604051613897929190615c75565b60405180910390a25b5b5b5b5b5b5b8080600101915050611cfd565b50600c5f9054906101000a900473ffffffffffffffffffffffffffffffffffffffff1673ffffffffffffffffffffffffffffffffffffffff167fd4ba6fec82d9b0e8ffe50b9fed9e4be3b25c984ce1e0e016405a5528726e8a2c4760405161391b9190614cc8565b60405180910390a2600c5f9054906101000a900473ffffffffffffffffffffffffffffffffffffffff1673ffffffffffffffffffffffffffffffffffffffff166108fc4790811502906040515f60405180830381858888f19350505050158015613987573d5f803e3d5ffd5b50565b5f805f90505b600c8160ff1610156139f2578260ff1660078260ff16600c81106139b7576139b6614cfa565b5b602091828204019190069054906101000a900460ff1660ff16036139df5760019150506139f7565b80806139ea90614d54565b915050613990565b505f90505b919050565b600d5481565b5f805f90505b60128160ff161015613a69578260ff165f8260ff1660128110613a2e57613a2d614cfa565b5b602091828204019190069054906101000a900460ff1660ff1603613a56576001915050613a6e565b8080613a6190614d54565b915050613a08565b505f90505b919050565b5f805f90505b600c8160ff161015613adb578260ff16600b8260ff16600c8110613aa057613a9f614cfa565b5b602091828204019190069054906101000a900460ff1660ff1603613ac8576001915050613ae0565b8080613ad390614d54565b915050613a79565b505f90505b919050565b60038160128110613af4575f80fd5b60209182820401919006915054906101000a900460ff1681565b600781600c8110613b1d575f80fd5b60209182820401919006915054906101000a900460ff1681565b60018160128110613b46575f80fd5b60209182820401919006915054906101000a900460ff1681565b60138181548110613b6f575f80fd5b905f5260205f20015f915054906101000a900473ffffffffffffffffffffffffffffffffffffffff1681565b5f60ff16600e5f9054906101000a900460ff1660ff1614613bf1576040517f08c379a0000000000000000000000000000000000000000000000000000000008152600401613be890615d4e565b60405180910390fd5b600c5f9054906101000a900473ffffffffffffffffffffffffffffffffffffffff1673ffffffffffffffffffffffffffffffffffffffff163373ffffffffffffffffffffffffffffffffffffffff1614613c80576040517f08c379a0000000000000000000000000000000000000000000000000000000008152600401613c7790615db6565b60405180910390fd5b6001600e5f6101000a81548160ff021916908360ff1602179055503373ffffffffffffffffffffffffffffffffffffffff167f5a6c38b61cfc87b08186ec74738f787ec19c78c75b5b70442f580362abd96d2934604051613ce19190614cc8565b60405180910390a2565b5f805f90505f5b600f80549050811015613d3d57600f8181548110613d1357613d12614cfa565b5b905f5260205f2090600202016001015482613d2e9190614e5c565b91508080600101915050613cf2565b508091505090565b60048160128110613d54575f80fd5b60209182820401919006915054906101000a900460ff1681565b5f805f90505b60128160ff161015613dd6578260ff1660058260ff1660128110613d9b57613d9a614cfa565b5b602091828204019190069054906101000a900460ff1660ff1603613dc3576001915050613ddb565b8080613dce90614d54565b915050613d74565b505f90505b919050565b600681600c8110613def575f80fd5b60209182820401919006915054906101000a900460ff1681565b5f805f90505b60128160ff161015613e71578260ff1660018260ff1660128110613e3657613e35614cfa565b5b602091828204019190069054906101000a900460ff1660ff1603613e5e576001915050613e76565b8080613e6990614d54565b915050613e0f565b505f90505b919050565b5f805f90505b600c8160ff161015613ee3578260ff1660088260ff16600c8110613ea857613ea7614cfa565b5b602091828204019190069054906101000a900460ff1660ff1603613ed0576001915050613ee8565b8080613edb90614d54565b915050613e81565b505f90505b919050565b5f8160128110613efb575f80fd5b60209182820401919006915054906101000a900460ff1681565b600c5f9054906101000a900473ffffffffffffffffffffffffffffffffffffffff1681565b60058160128110613f49575f80fd5b60209182820401919006915054906101000a900460ff1681565b5f805f90505b601280549050811015613ffb578273ffffffffffffffffffffffffffffffffffffffff1660128281548110613fa157613fa0614cfa565b5b905f5260205f20015f9054906101000a900473ffffffffffffffffffffffffffffffffffffffff1673ffffffffffffffffffffffffffffffffffffffff1603613fee576001915050614000565b8080600101915050613f69565b505f90505b919050565b60605f820361404b576040518060400160405280600181526020017f30000000000000000000000000000000000000000000000000000000000000008152509050614160565b5f8290505f5b5f821461407a57808061406390615dd4565b915050600a826140739190615bb7565b9150614051565b5f8167ffffffffffffffff8111156140955761409461548b565b5b6040519080825280601f01601f1916602001820160405280156140c75781602001600182028036833780820191505090505b5090505f8290508593505b5f84146141585780806140e490615e1b565b915050600a846140f4919061504c565b60306141009190614e5c565b60f81b82828151811061411657614115614cfa565b5b60200101907effffffffffffffffffffffffffffffffffffffffffffffffffffffffffffff191690815f1a905350600a846141519190615bb7565b93506140d2565b819450505050505b919050565b60605f6040518060400160405280601081526020017f303132333435363738396162636465660000000000000000000000000000000081525090505f604267ffffffffffffffff8111156141bc576141bb61548b565b5b6040519080825280601f01601f1916602001820160405280156141ee5781602001600182028036833780820191505090505b5090507f3000000000000000000000000000000000000000000000000000000000000000815f8151811061422557614224614cfa565b5b60200101907effffffffffffffffffffffffffffffffffffffffffffffffffffffffffffff191690815f1a9053507f78000000000000000000000000000000000000000000000000000000000000008160018151811061428857614287614cfa565b5b60200101907effffffffffffffffffffffffffffffffffffffffffffffffffffffffffffff191690815f1a9053505f5b6020811015614420578260048683602081106142d7576142d6614cfa565b5b1a60f81b7effffffffffffffffffffffffffffffffffffffffffffffffffffffffffffff1916901c60f81c60ff168151811061431657614315614cfa565b5b602001015160f81c60f81b8260028361432f9190615b76565b600261433b9190614e5c565b8151811061434c5761434b614cfa565b5b60200101907effffffffffffffffffffffffffffffffffffffffffffffffffffffffffffff191690815f1a90535082600f60f81b86836020811061439357614392614cfa565b5b1a60f81b1660f81c60ff16815181106143af576143ae614cfa565b5b602001015160f81c60f81b826002836143c89190615b76565b60036143d49190614e5c565b815181106143e5576143e4614cfa565b5b60200101907effffffffffffffffffffffffffffffffffffffffffffffffffffffffffffff191690815f1a90535080806001019150506142b8565b508092505050919050565b60605f825103614472576040518060400160405280600281526020017f5b5d0000000000000000000000000000000000000000000000000000000000008152509050614569565b5f6040518060400160405280600181526020017f5b0000000000000000000000000000000000000000000000000000000000000081525090505f5b835181101561454157816144da8583815181106144cd576144cc614cfa565b5b6020026020010151614859565b6040516020016144eb929190615e42565b60405160208183030381529060405291506001845161450a9190615e65565b81101561453457816040516020016145229190615ee2565b60405160208183030381529060405291505b80806001019150506144ad565b50806040516020016145539190615f4d565b6040516020818303038152906040529050809150505b919050565b60605f6040518060400160405280601081526020017f303132333435363738396162636465660000000000000000000000000000000081525090505f60028085516145b99190615b76565b6145c39190614e5c565b67ffffffffffffffff8111156145dc576145db61548b565b5b6040519080825280601f01601f19166020018201604052801561460e5781602001600182028036833780820191505090505b5090507f3000000000000000000000000000000000000000000000000000000000000000815f8151811061464557614644614cfa565b5b60200101907effffffffffffffffffffffffffffffffffffffffffffffffffffffffffffff191690815f1a9053507f7800000000000000000000000000000000000000000000000000000000000000816001815181106146a8576146a7614cfa565b5b60200101907effffffffffffffffffffffffffffffffffffffffffffffffffffffffffffff191690815f1a9053505f5b845181101561484e578260048683815181106146f7576146f6614cfa565b5b602001015160f81c60f81b7effffffffffffffffffffffffffffffffffffffffffffffffffffffffffffff1916901c60f81c60ff168151811061473d5761473c614cfa565b5b602001015160f81c60f81b826002836147569190615b76565b60026147629190614e5c565b8151811061477357614772614cfa565b5b60200101907effffffffffffffffffffffffffffffffffffffffffffffffffffffffffffff191690815f1a90535082600f60f81b8683815181106147ba576147b9614cfa565b5b602001015160f81c60f81b1660f81c60ff16815181106147dd576147dc614cfa565b5b602001015160f81c60f81b826002836147f69190615b76565b60036148029190614e5c565b8151811061481357614812614cfa565b5b60200101907effffffffffffffffffffffffffffffffffffffffffffffffffffffffffffff191690815f1a90535080806001019150506146d8565b508092505050919050565b60605f6040518060400160405280601081526020017f303132333435363738396162636465660000000000000000000000000000000081525090505f8360601b90505f602a67ffffffffffffffff8111156148b7576148b661548b565b5b6040519080825280601f01601f1916602001820160405280156148e95781602001600182028036833780820191505090505b5090507f3000000000000000000000000000000000000000000000000000000000000000815f815181106149205761491f614cfa565b5b60200101907effffffffffffffffffffffffffffffffffffffffffffffffffffffffffffff191690815f1a9053507f78000000000000000000000000000000000000000000000000000000000000008160018151811061498357614982614cfa565b5b60200101907effffffffffffffffffffffffffffffffffffffffffffffffffffffffffffff191690815f1a9053505f5b6014811015614b1b578360048483601481106149d2576149d1614cfa565b5b1a60f81b7effffffffffffffffffffffffffffffffffffffffffffffffffffffffffffff1916901c60f81c60ff1681518110614a1157614a10614cfa565b5b602001015160f81c60f81b82600283614a2a9190615b76565b6002614a369190614e5c565b81518110614a4757614a46614cfa565b5b60200101907effffffffffffffffffffffffffffffffffffffffffffffffffffffffffffff191690815f1a90535083600f60f81b848360148110614a8e57614a8d614cfa565b5b1a60f81b1660f81c60ff1681518110614aaa57614aa9614cfa565b5b602001015160f81c60f81b82600283614ac39190615b76565b6003614acf9190614e5c565b81518110614ae057614adf614cfa565b5b60200101907effffffffffffffffffffffffffffffffffffffffffffffffffffffffffffff191690815f1a90535080806001019150506149b3565b50809350505050919050565b5f80fd5b5f60ff82169050919050565b614b4081614b2b565b8114614b4a575f80fd5b50565b5f81359050614b5b81614b37565b92915050565b5f60208284031215614b7657614b75614b27565b5b5f614b8384828501614b4d565b91505092915050565b5f8115159050919050565b614ba081614b8c565b82525050565b5f602082019050614bb95f830184614b97565b92915050565b5f819050919050565b614bd181614bbf565b8114614bdb575f80fd5b50565b5f81359050614bec81614bc8565b92915050565b5f60208284031215614c0757614c06614b27565b5b5f614c1484828501614bde565b91505092915050565b614c2681614b2b565b82525050565b5f602082019050614c3f5f830184614c1d565b92915050565b5f73ffffffffffffffffffffffffffffffffffffffff82169050919050565b5f614c6e82614c45565b9050919050565b614c7e81614c64565b82525050565b614c8d81614bbf565b82525050565b5f606082019050614ca65f830186614c75565b614cb36020830185614c1d565b614cc06040830184614c84565b949350505050565b5f602082019050614cdb5f830184614c84565b92915050565b5f602082019050614cf45f830184614c75565b92915050565b7f4e487b71000000000000000000000000000000000000000000000000000000005f52603260045260245ffd5b7f4e487b71000000000000000000000000000000000000000000000000000000005f52601160045260245ffd5b5f614d5e82614b2b565b915060ff8203614d7157614d70614d27565b5b600182019050919050565b5f82825260208201905092915050565b7f4e6f206d6f7265206265747320616c6c6f7765640000000000000000000000005f82015250565b5f614dc0601483614d7c565b9150614dcb82614d8c565b602082019050919050565b5f6020820190508181035f830152614ded81614db4565b9050919050565b7f4f6e6c7920686f73742063616e2067656e657261746520726573756c740000005f82015250565b5f614e28601d83614d7c565b9150614e3382614df4565b602082019050919050565b5f6020820190508181035f830152614e5581614e1c565b9050919050565b5f614e6682614bbf565b9150614e7183614bbf565b9250828201905080821115614e8957614e88614d27565b5b92915050565b7f426c6f636b206e756d626572206e6f74207265616368656400000000000000005f82015250565b5f614ec3601883614d7c565b9150614ece82614e8f565b602082019050919050565b5f6020820190508181035f830152614ef081614eb7565b9050919050565b5f8160601b9050919050565b5f614f0d82614ef7565b9050919050565b5f614f1e82614f03565b9050919050565b614f36614f3182614c64565b614f14565b82525050565b5f614f478284614f25565b60148201915081905092915050565b5f81519050919050565b5f81905092915050565b8281835e5f83830152505050565b5f614f8282614f56565b614f8c8185614f60565b9350614f9c818560208601614f6a565b80840191505092915050565b5f614fb38285614f78565b9150614fbf8284614f25565b6014820191508190509392505050565b5f819050919050565b5f819050919050565b614ff2614fed82614fcf565b614fd8565b82525050565b5f6150038285614fe1565b6020820191506150138284614f78565b91508190509392505050565b7f4e487b71000000000000000000000000000000000000000000000000000000005f52601260045260245ffd5b5f61505682614bbf565b915061506183614bbf565b9250826150715761507061501f565b5b828206905092915050565b7f526573756c74206e6f742067656e6572617465640000000000000000000000005f82015250565b5f6150b0601483614d7c565b91506150bb8261507c565b602082019050919050565b5f6020820190508181035f8301526150dd816150a4565b9050919050565b7f57616974206174206c6561737420313220626c6f636b732061667465722067655f8201527f6e65726174696f6e000000000000000000000000000000000000000000000000602082015250565b5f61513e602883614d7c565b9150615149826150e4565b604082019050919050565b5f6020820190508181035f83015261516b81615132565b9050919050565b7f4f6e6c7920612076616c696461746f722063616e2076616c69646174650000005f82015250565b5f6151a6601d83614d7c565b91506151b182615172565b602082019050919050565b5f6020820190508181035f8301526151d38161519a565b9050919050565b5f81905092915050565b7f426c6f636b686173682066726f6d20626c6f636b2023000000000000000000005f82015250565b5f6152186016836151da565b9150615223826151e4565b601682019050919050565b5f81519050919050565b5f6152428261522e565b61524c81856151da565b935061525c818560208601614f6a565b80840191505092915050565b7f3a200000000000000000000000000000000000000000000000000000000000005f82015250565b5f61529c6002836151da565b91506152a782615268565b600282019050919050565b7f202d20626173697320666f722072616e646f6d6e6573730000000000000000005f82015250565b5f6152e66017836151da565b91506152f1826152b2565b601782019050919050565b5f6153068261520c565b91506153128285615238565b915061531d82615290565b91506153298284615238565b9150615334826152da565b91508190509392505050565b61534981614fcf565b82525050565b5f6040820190506153625f830185614c84565b61536f6020830184615340565b9392505050565b5f819050919050565b5f819050919050565b5f6153a261539d61539884615376565b61537f565b614b2b565b9050919050565b6153b281615388565b82525050565b5f601f19601f8301169050919050565b5f6153d28261522e565b6153dc8185614d7c565b93506153ec818560208601614f6a565b6153f5816153b8565b840191505092915050565b5f82825260208201905092915050565b5f61541a82614f56565b6154248185615400565b9350615434818560208601614f6a565b61543d816153b8565b840191505092915050565b5f60608201905061545b5f8301866153a9565b818103602083015261546d81856153c8565b905081810360408301526154818184615410565b9050949350505050565b7f4e487b71000000000000000000000000000000000000000000000000000000005f52604160045260245ffd5b7f416464726573736573207573656420666f722072616e646f6d6e6573733a20005f82015250565b5f6154ec601f836151da565b91506154f7826154b8565b601f82019050919050565b5f61550c826154e0565b91506155188284615238565b915081905092915050565b5f81519050919050565b5f82825260208201905092915050565b5f819050602082019050919050565b61555581614c64565b82525050565b5f615566838361554c565b60208301905092915050565b5f602082019050919050565b5f61558882615523565b615592818561552d565b935061559d8361553d565b805f5b838110156155cd5781516155b4888261555b565b97506155bf83615572565b9250506001810190506155a0565b5085935050505092915050565b5f6020820190508181035f8301526155f2818461557e565b905092915050565b5f819050919050565b5f61561d615618615613846155fa565b61537f565b614b2b565b9050919050565b61562d81615603565b82525050565b5f6060820190506156465f830186615624565b818103602083015261565881856153c8565b9050818103604083015261566c8184615410565b9050949350505050565b7f5061636b65642064617461206f662061646472657373657320696e206865783a5f8201527f2000000000000000000000000000000000000000000000000000000000000000602082015250565b5f6156d06021836151da565b91506156db82615676565b602182019050919050565b5f6156f0826156c4565b91506156fc8284615238565b915081905092915050565b5f819050919050565b5f61572a61572561572084615707565b61537f565b614b2b565b9050919050565b61573a81615710565b82525050565b5f6060820190506157535f830186615731565b818103602083015261576581856153c8565b905081810360408301526157798184615410565b9050949350505050565b7f4b656363616b323536206f66205b626c6f636b68617368202b207061636b65645f8201527f446174615d3a2000000000000000000000000000000000000000000000000000602082015250565b5f6157dd6027836151da565b91506157e882615783565b602782019050919050565b5f6157fd826157d1565b91506158098284615238565b915081905092915050565b5f6020820190506158275f830184615340565b92915050565b5f819050919050565b5f61585061584b6158468461582d565b61537f565b614b2b565b9050919050565b61586081615836565b82525050565b5f6060820190506158795f830186615857565b818103602083015261588b81856153c8565b9050818103604083015261589f8184615410565b9050949350505050565b7f46696e616c2072616e646f6d206f7574636f6d6520286d6f64200000000000005f82015250565b5f6158dd601a836151da565b91506158e8826158a9565b601a82019050919050565b7f293a2000000000000000000000000000000000000000000000000000000000005f82015250565b5f6159276003836151da565b9150615932826158f3565b600382019050919050565b5f615947826158d1565b91506159538285615238565b915061595e8261591b565b915061596a8284615238565b91508190509392505050565b5f819050919050565b5f61599961599461598f84615976565b61537f565b614b2b565b9050919050565b6159a98161597f565b82525050565b5f6060820190506159c25f8301866159a0565b81810360208301526159d481856153c8565b905081810360408301526159e88184615410565b9050949350505050565b7f53746f72656420726573756c7420213d207265636f6d707574656420726573755f8201527f6c74000000000000000000000000000000000000000000000000000000000000602082015250565b5f615a4c602283614d7c565b9150615a57826159f2565b604082019050919050565b5f6020820190508181035f830152615a7981615a40565b9050919050565b7f4f7074696f6e206d757374206265206265747765656e203020616e64203337005f82015250565b5f615ab4601f83614d7c565b9150615abf82615a80565b602082019050919050565b5f6020820190508181035f830152615ae181615aa8565b9050919050565b7f42657420616d6f756e742069732062656c6f7720746865206d696e696d756d205f8201527f6265740000000000000000000000000000000000000000000000000000000000602082015250565b5f615b42602383614d7c565b9150615b4d82615ae8565b604082019050919050565b5f6020820190508181035f830152615b6f81615b36565b9050919050565b5f615b8082614bbf565b9150615b8b83614bbf565b9250828202615b9981614bbf565b91508282048414831517615bb057615baf614d27565b5b5092915050565b5f615bc182614bbf565b9150615bcc83614bbf565b925082615bdc57615bdb61501f565b5b828204905092915050565b7f42657420616d6f756e742069732061626f766520746865206d6178696d756d205f8201527f6265740000000000000000000000000000000000000000000000000000000000602082015250565b5f615c41602383614d7c565b9150615c4c82615be7565b604082019050919050565b5f6020820190508181035f830152615c6e81615c35565b9050919050565b5f604082019050615c885f830185614c1d565b615c956020830184614c84565b9392505050565b7f526573756c74206e6f742076616c6964617465642079657400000000000000005f82015250565b5f615cd0601883614d7c565b9150615cdb82615c9c565b602082019050919050565b5f6020820190508181035f830152615cfd81615cc4565b9050919050565b7f4465706f736974206973206e6f7420616c6c6f776564000000000000000000005f82015250565b5f615d38601683614d7c565b9150615d4382615d04565b602082019050919050565b5f6020820190508181035f830152615d6581615d2c565b9050919050565b7f4f6e6c7920686f73742063616e206465706f73697400000000000000000000005f82015250565b5f615da0601583614d7c565b9150615dab82615d6c565b602082019050919050565b5f6020820190508181035f830152615dcd81615d94565b9050919050565b5f615dde82614bbf565b91507fffffffffffffffffffffffffffffffffffffffffffffffffffffffffffffffff8203615e1057615e0f614d27565b5b600182019050919050565b5f615e2582614bbf565b91505f8203615e3757615e36614d27565b5b600182039050919050565b5f615e4d8285614f78565b9150615e598284615238565b91508190509392505050565b5f615e6f82614bbf565b9150615e7a83614bbf565b9250828203905081811115615e9257615e91614d27565b5b92915050565b7f2c200000000000000000000000000000000000000000000000000000000000005f82015250565b5f615ecc6002836151da565b9150615ed782615e98565b600282019050919050565b5f615eed8284614f78565b9150615ef882615ec0565b915081905092915050565b7f5d000000000000000000000000000000000000000000000000000000000000005f82015250565b5f615f376001836151da565b9150615f4282615f03565b600182019050919050565b5f615f588284614f78565b9150615f6382615f2b565b91508190509291505056fea264697066735822122065df30a2aa1fd158e178810bdd75a2a0e5bb36e78efd5392efb77bd97317a99064736f6c634300081a0033",
			"opcodes": "PUSH1 0x80 PUSH1 0x40 MSTORE PUSH1 0x40 MLOAD DUP1 PUSH2 0x240 ADD PUSH1 0x40 MSTORE DUP1 PUSH1 0x1 PUSH1 0xFF AND DUP2 MSTORE PUSH1 0x20 ADD PUSH1 0x2 PUSH1 0xFF AND DUP2 MSTORE PUSH1 0x20 ADD PUSH1 0x3 PUSH1 0xFF AND DUP2 MSTORE PUSH1 0x20 ADD PUSH1 0x4 PUSH1 0xFF AND DUP2 MSTORE PUSH1 0x20 ADD PUSH1 0x5 PUSH1 0xFF AND DUP2 MSTORE PUSH1 0x20 ADD PUSH1 0x6 PUSH1 0xFF AND DUP2 MSTORE PUSH1 0x20 ADD PUSH1 0x7 PUSH1 0xFF AND DUP2 MSTORE PUSH1 0x20 ADD PUSH1 0x8 PUSH1 0xFF AND DUP2 MSTORE PUSH1 0x20 ADD PUSH1 0x9 PUSH1 0xFF AND DUP2 MSTORE PUSH1 0x20 ADD PUSH1 0xA PUSH1 0xFF AND DUP2 MSTORE PUSH1 0x20 ADD PUSH1 0xB PUSH1 0xFF AND DUP2 MSTORE PUSH1 0x20 ADD PUSH1 0xC PUSH1 0xFF AND DUP2 MSTORE PUSH1 0x20 ADD PUSH1 0xD PUSH1 0xFF AND DUP2 MSTORE PUSH1 0x20 ADD PUSH1 0xE PUSH1 0xFF AND DUP2 MSTORE PUSH1 0x20 ADD PUSH1 0xF PUSH1 0xFF AND DUP2 MSTORE PUSH1 0x20 ADD PUSH1 0x10 PUSH1 0xFF AND DUP2 MSTORE PUSH1 0x20 ADD PUSH1 0x11 PUSH1 0xFF AND DUP2 MSTORE PUSH1 0x20 ADD PUSH1 0x12 PUSH1 0xFF AND DUP2 MSTORE POP PUSH0 SWAP1 PUSH1 0x12 PUSH2 0xD1 SWAP3 SWAP2 SWAP1 PUSH2 0x96A JUMP JUMPDEST POP PUSH1 0x40 MLOAD DUP1 PUSH2 0x240 ADD PUSH1 0x40 MSTORE DUP1 PUSH1 0x13 PUSH1 0xFF AND DUP2 MSTORE PUSH1 0x20 ADD PUSH1 0x14 PUSH1 0xFF AND DUP2 MSTORE PUSH1 0x20 ADD PUSH1 0x15 PUSH1 0xFF AND DUP2 MSTORE PUSH1 0x20 ADD PUSH1 0x16 PUSH1 0xFF AND DUP2 MSTORE PUSH1 0x20 ADD PUSH1 0x17 PUSH1 0xFF AND DUP2 MSTORE PUSH1 0x20 ADD PUSH1 0x18 PUSH1 0xFF AND DUP2 MSTORE PUSH1 0x20 ADD PUSH1 0x19 PUSH1 0xFF AND DUP2 MSTORE PUSH1 0x20 ADD PUSH1 0x1A PUSH1 0xFF AND DUP2 MSTORE PUSH1 0x20 ADD PUSH1 0x1B PUSH1 0xFF AND DUP2 MSTORE PUSH1 0x20 ADD PUSH1 0x1C PUSH1 0xFF AND DUP2 MSTORE PUSH1 0x20 ADD PUSH1 0x1D PUSH1 0xFF AND DUP2 MSTORE PUSH1 0x20 ADD PUSH1 0x1E PUSH1 0xFF AND DUP2 MSTORE PUSH1 0x20 ADD PUSH1 0x1F PUSH1 0xFF AND DUP2 MSTORE PUSH1 0x20 ADD PUSH1 0x20 PUSH1 0xFF AND DUP2 MSTORE PUSH1 0x20 ADD PUSH1 0x21 PUSH1 0xFF AND DUP2 MSTORE PUSH1 0x20 ADD PUSH1 0x22 PUSH1 0xFF AND DUP2 MSTORE PUSH1 0x20 ADD PUSH1 0x23 PUSH1 0xFF AND DUP2 MSTORE PUSH1 0x20 ADD PUSH1 0x24 PUSH1 0xFF AND DUP2 MSTORE POP PUSH1 0x1 SWAP1 PUSH1 0x12 PUSH2 0x1A0 SWAP3 SWAP2 SWAP1 PUSH2 0x96A JUMP JUMPDEST POP PUSH1 0x40 MLOAD DUP1 PUSH2 0x240 ADD PUSH1 0x40 MSTORE DUP1 PUSH1 0x1 PUSH1 0xFF AND DUP2 MSTORE PUSH1 0x20 ADD PUSH1 0x3 PUSH1 0xFF AND DUP2 MSTORE PUSH1 0x20 ADD PUSH1 0x5 PUSH1 0xFF AND DUP2 MSTORE PUSH1 0x20 ADD PUSH1 0x7 PUSH1 0xFF AND DUP2 MSTORE PUSH1 0x20 ADD PUSH1 0x9 PUSH1 0xFF AND DUP2 MSTORE PUSH1 0x20 ADD PUSH1 0xC PUSH1 0xFF AND DUP2 MSTORE PUSH1 0x20 ADD PUSH1 0xE PUSH1 0xFF AND DUP2 MSTORE PUSH1 0x20 ADD PUSH1 0x10 PUSH1 0xFF AND DUP2 MSTORE PUSH1 0x20 ADD PUSH1 0x12 PUSH1 0xFF AND DUP2 MSTORE PUSH1 0x20 ADD PUSH1 0x13 PUSH1 0xFF AND DUP2 MSTORE PUSH1 0x20 ADD PUSH1 0x15 PUSH1 0xFF AND DUP2 MSTORE PUSH1 0x20 ADD PUSH1 0x17 PUSH1 0xFF AND DUP2 MSTORE PUSH1 0x20 ADD PUSH1 0x19 PUSH1 0xFF AND DUP2 MSTORE PUSH1 0x20 ADD PUSH1 0x1B PUSH1 0xFF AND DUP2 MSTORE PUSH1 0x20 ADD PUSH1 0x1E PUSH1 0xFF AND DUP2 MSTORE PUSH1 0x20 ADD PUSH1 0x20 PUSH1 0xFF AND DUP2 MSTORE PUSH1 0x20 ADD PUSH1 0x22 PUSH1 0xFF AND DUP2 MSTORE PUSH1 0x20 ADD PUSH1 0x24 PUSH1 0xFF AND DUP2 MSTORE POP PUSH1 0x2 SWAP1 PUSH1 0x12 PUSH2 0x26F SWAP3 SWAP2 SWAP1 PUSH2 0x96A JUMP JUMPDEST POP PUSH1 0x40 MLOAD DUP1 PUSH2 0x240 ADD PUSH1 0x40 MSTORE DUP1 PUSH1 0x2 PUSH1 0xFF AND DUP2 MSTORE PUSH1 0x20 ADD PUSH1 0x4 PUSH1 0xFF AND DUP2 MSTORE PUSH1 0x20 ADD PUSH1 0x6 PUSH1 0xFF AND DUP2 MSTORE PUSH1 0x20 ADD PUSH1 0x8 PUSH1 0xFF AND DUP2 MSTORE PUSH1 0x20 ADD PUSH1 0xA PUSH1 0xFF AND DUP2 MSTORE PUSH1 0x20 ADD PUSH1 0xB PUSH1 0xFF AND DUP2 MSTORE PUSH1 0x20 ADD PUSH1 0xD PUSH1 0xFF AND DUP2 MSTORE PUSH1 0x20 ADD PUSH1 0xF PUSH1 0xFF AND DUP2 MSTORE PUSH1 0x20 ADD PUSH1 0x11 PUSH1 0xFF AND DUP2 MSTORE PUSH1 0x20 ADD PUSH1 0x14 PUSH1 0xFF AND DUP2 MSTORE PUSH1 0x20 ADD PUSH1 0x16 PUSH1 0xFF AND DUP2 MSTORE PUSH1 0x20 ADD PUSH1 0x18 PUSH1 0xFF AND DUP2 MSTORE PUSH1 0x20 ADD PUSH1 0x1A PUSH1 0xFF AND DUP2 MSTORE PUSH1 0x20 ADD PUSH1 0x1C PUSH1 0xFF AND DUP2 MSTORE PUSH1 0x20 ADD PUSH1 0x1D PUSH1 0xFF AND DUP2 MSTORE PUSH1 0x20 ADD PUSH1 0x1F PUSH1 0xFF AND DUP2 MSTORE PUSH1 0x20 ADD PUSH1 0x21 PUSH1 0xFF AND DUP2 MSTORE PUSH1 0x20 ADD PUSH1 0x23 PUSH1 0xFF AND DUP2 MSTORE POP PUSH1 0x3 SWAP1 PUSH1 0x12 PUSH2 0x33E SWAP3 SWAP2 SWAP1 PUSH2 0x96A JUMP JUMPDEST POP PUSH1 0x40 MLOAD DUP1 PUSH2 0x240 ADD PUSH1 0x40 MSTORE DUP1 PUSH1 0x2 PUSH1 0xFF AND DUP2 MSTORE PUSH1 0x20 ADD PUSH1 0x4 PUSH1 0xFF AND DUP2 MSTORE PUSH1 0x20 ADD PUSH1 0x6 PUSH1 0xFF AND DUP2 MSTORE PUSH1 0x20 ADD PUSH1 0x8 PUSH1 0xFF AND DUP2 MSTORE PUSH1 0x20 ADD PUSH1 0xA PUSH1 0xFF AND DUP2 MSTORE PUSH1 0x20 ADD PUSH1 0xC PUSH1 0xFF AND DUP2 MSTORE PUSH1 0x20 ADD PUSH1 0xE PUSH1 0xFF AND DUP2 MSTORE PUSH1 0x20 ADD PUSH1 0x10 PUSH1 0xFF AND DUP2 MSTORE PUSH1 0x20 ADD PUSH1 0x12 PUSH1 0xFF AND DUP2 MSTORE PUSH1 0x20 ADD PUSH1 0x14 PUSH1 0xFF AND DUP2 MSTORE PUSH1 0x20 ADD PUSH1 0x16 PUSH1 0xFF AND DUP2 MSTORE PUSH1 0x20 ADD PUSH1 0x18 PUSH1 0xFF AND DUP2 MSTORE PUSH1 0x20 ADD PUSH1 0x1A PUSH1 0xFF AND DUP2 MSTORE PUSH1 0x20 ADD PUSH1 0x1C PUSH1 0xFF AND DUP2 MSTORE PUSH1 0x20 ADD PUSH1 0x1E PUSH1 0xFF AND DUP2 MSTORE PUSH1 0x20 ADD PUSH1 0x20 PUSH1 0xFF AND DUP2 MSTORE PUSH1 0x20 ADD PUSH1 0x22 PUSH1 0xFF AND DUP2 MSTORE PUSH1 0x20 ADD PUSH1 0x24 PUSH1 0xFF AND DUP2 MSTORE POP PUSH1 0x4 SWAP1 PUSH1 0x12 PUSH2 0x40D SWAP3 SWAP2 SWAP1 PUSH2 0x96A JUMP JUMPDEST POP PUSH1 0x40 MLOAD DUP1 PUSH2 0x240 ADD PUSH1 0x40 MSTORE DUP1 PUSH1 0x1 PUSH1 0xFF AND DUP2 MSTORE PUSH1 0x20 ADD PUSH1 0x3 PUSH1 0xFF AND DUP2 MSTORE PUSH1 0x20 ADD PUSH1 0x5 PUSH1 0xFF AND DUP2 MSTORE PUSH1 0x20 ADD PUSH1 0x7 PUSH1 0xFF AND DUP2 MSTORE PUSH1 0x20 ADD PUSH1 0x9 PUSH1 0xFF AND DUP2 MSTORE PUSH1 0x20 ADD PUSH1 0xB PUSH1 0xFF AND DUP2 MSTORE PUSH1 0x20 ADD PUSH1 0xD PUSH1 0xFF AND DUP2 MSTORE PUSH1 0x20 ADD PUSH1 0xF PUSH1 0xFF AND DUP2 MSTORE PUSH1 0x20 ADD PUSH1 0x11 PUSH1 0xFF AND DUP2 MSTORE PUSH1 0x20 ADD PUSH1 0x13 PUSH1 0xFF AND DUP2 MSTORE PUSH1 0x20 ADD PUSH1 0x15 PUSH1 0xFF AND DUP2 MSTORE PUSH1 0x20 ADD PUSH1 0x17 PUSH1 0xFF AND DUP2 MSTORE PUSH1 0x20 ADD PUSH1 0x19 PUSH1 0xFF AND DUP2 MSTORE PUSH1 0x20 ADD PUSH1 0x1B PUSH1 0xFF AND DUP2 MSTORE PUSH1 0x20 ADD PUSH1 0x1D PUSH1 0xFF AND DUP2 MSTORE PUSH1 0x20 ADD PUSH1 0x1F PUSH1 0xFF AND DUP2 MSTORE PUSH1 0x20 ADD PUSH1 0x21 PUSH1 0xFF AND DUP2 MSTORE PUSH1 0x20 ADD PUSH1 0x23 PUSH1 0xFF AND DUP2 MSTORE POP PUSH1 0x5 SWAP1 PUSH1 0x12 PUSH2 0x4DC SWAP3 SWAP2 SWAP1 PUSH2 0x96A JUMP JUMPDEST POP PUSH1 0x40 MLOAD DUP1 PUSH2 0x180 ADD PUSH1 0x40 MSTORE DUP1 PUSH1 0x1 PUSH1 0xFF AND DUP2 MSTORE PUSH1 0x20 ADD PUSH1 0x4 PUSH1 0xFF AND DUP2 MSTORE PUSH1 0x20 ADD PUSH1 0x7 PUSH1 0xFF AND DUP2 MSTORE PUSH1 0x20 ADD PUSH1 0xA PUSH1 0xFF AND DUP2 MSTORE PUSH1 0x20 ADD PUSH1 0xD PUSH1 0xFF AND DUP2 MSTORE PUSH1 0x20 ADD PUSH1 0x10 PUSH1 0xFF AND DUP2 MSTORE PUSH1 0x20 ADD PUSH1 0x13 PUSH1 0xFF AND DUP2 MSTORE PUSH1 0x20 ADD PUSH1 0x16 PUSH1 0xFF AND DUP2 MSTORE PUSH1 0x20 ADD PUSH1 0x19 PUSH1 0xFF AND DUP2 MSTORE PUSH1 0x20 ADD PUSH1 0x1C PUSH1 0xFF AND DUP2 MSTORE PUSH1 0x20 ADD PUSH1 0x1F PUSH1 0xFF AND DUP2 MSTORE PUSH1 0x20 ADD PUSH1 0x22 PUSH1 0xFF AND DUP2 MSTORE POP PUSH1 0x6 SWAP1 PUSH1 0xC PUSH2 0x56F SWAP3 SWAP2 SWAP1 PUSH2 0xA01 JUMP JUMPDEST POP PUSH1 0x40 MLOAD DUP1 PUSH2 0x180 ADD PUSH1 0x40 MSTORE DUP1 PUSH1 0x2 PUSH1 0xFF AND DUP2 MSTORE PUSH1 0x20 ADD PUSH1 0x5 PUSH1 0xFF AND DUP2 MSTORE PUSH1 0x20 ADD PUSH1 0x8 PUSH1 0xFF AND DUP2 MSTORE PUSH1 0x20 ADD PUSH1 0xB PUSH1 0xFF AND DUP2 MSTORE PUSH1 0x20 ADD PUSH1 0xE PUSH1 0xFF AND DUP2 MSTORE PUSH1 0x20 ADD PUSH1 0x11 PUSH1 0xFF AND DUP2 MSTORE PUSH1 0x20 ADD PUSH1 0x14 PUSH1 0xFF AND DUP2 MSTORE PUSH1 0x20 ADD PUSH1 0x17 PUSH1 0xFF AND DUP2 MSTORE PUSH1 0x20 ADD PUSH1 0x1A PUSH1 0xFF AND DUP2 MSTORE PUSH1 0x20 ADD PUSH1 0x1D PUSH1 0xFF AND DUP2 MSTORE PUSH1 0x20 ADD PUSH1 0x20 PUSH1 0xFF AND DUP2 MSTORE PUSH1 0x20 ADD PUSH1 0x23 PUSH1 0xFF AND DUP2 MSTORE POP PUSH1 0x7 SWAP1 PUSH1 0xC PUSH2 0x602 SWAP3 SWAP2 SWAP1 PUSH2 0xA01 JUMP JUMPDEST POP PUSH1 0x40 MLOAD DUP1 PUSH2 0x180 ADD PUSH1 0x40 MSTORE DUP1 PUSH1 0x3 PUSH1 0xFF AND DUP2 MSTORE PUSH1 0x20 ADD PUSH1 0x6 PUSH1 0xFF AND DUP2 MSTORE PUSH1 0x20 ADD PUSH1 0x9 PUSH1 0xFF AND DUP2 MSTORE PUSH1 0x20 ADD PUSH1 0xC PUSH1 0xFF AND DUP2 MSTORE PUSH1 0x20 ADD PUSH1 0xF PUSH1 0xFF AND DUP2 MSTORE PUSH1 0x20 ADD PUSH1 0x12 PUSH1 0xFF AND DUP2 MSTORE PUSH1 0x20 ADD PUSH1 0x15 PUSH1 0xFF AND DUP2 MSTORE PUSH1 0x20 ADD PUSH1 0x18 PUSH1 0xFF AND DUP2 MSTORE PUSH1 0x20 ADD PUSH1 0x1B PUSH1 0xFF AND DUP2 MSTORE PUSH1 0x20 ADD PUSH1 0x1E PUSH1 0xFF AND DUP2 MSTORE PUSH1 0x20 ADD PUSH1 0x21 PUSH1 0xFF AND DUP2 MSTORE PUSH1 0x20 ADD PUSH1 0x24 PUSH1 0xFF AND DUP2 MSTORE POP PUSH1 0x8 SWAP1 PUSH1 0xC PUSH2 0x695 SWAP3 SWAP2 SWAP1 PUSH2 0xA01 JUMP JUMPDEST POP PUSH1 0x40 MLOAD DUP1 PUSH2 0x180 ADD PUSH1 0x40 MSTORE DUP1 PUSH1 0x1 PUSH1 0xFF AND DUP2 MSTORE PUSH1 0x20 ADD PUSH1 0x2 PUSH1 0xFF AND DUP2 MSTORE PUSH1 0x20 ADD PUSH1 0x3 PUSH1 0xFF AND DUP2 MSTORE PUSH1 0x20 ADD PUSH1 0x4 PUSH1 0xFF AND DUP2 MSTORE PUSH1 0x20 ADD PUSH1 0x5 PUSH1 0xFF AND DUP2 MSTORE PUSH1 0x20 ADD PUSH1 0x6 PUSH1 0xFF AND DUP2 MSTORE PUSH1 0x20 ADD PUSH1 0x7 PUSH1 0xFF AND DUP2 MSTORE PUSH1 0x20 ADD PUSH1 0x8 PUSH1 0xFF AND DUP2 MSTORE PUSH1 0x20 ADD PUSH1 0x9 PUSH1 0xFF AND DUP2 MSTORE PUSH1 0x20 ADD PUSH1 0xA PUSH1 0xFF AND DUP2 MSTORE PUSH1 0x20 ADD PUSH1 0xB PUSH1 0xFF AND DUP2 MSTORE PUSH1 0x20 ADD PUSH1 0xC PUSH1 0xFF AND DUP2 MSTORE POP PUSH1 0x9 SWAP1 PUSH1 0xC PUSH2 0x728 SWAP3 SWAP2 SWAP1 PUSH2 0xA01 JUMP JUMPDEST POP PUSH1 0x40 MLOAD DUP1 PUSH2 0x180 ADD PUSH1 0x40 MSTORE DUP1 PUSH1 0xD PUSH1 0xFF AND DUP2 MSTORE PUSH1 0x20 ADD PUSH1 0xE PUSH1 0xFF AND DUP2 MSTORE PUSH1 0x20 ADD PUSH1 0xF PUSH1 0xFF AND DUP2 MSTORE PUSH1 0x20 ADD PUSH1 0x10 PUSH1 0xFF AND DUP2 MSTORE PUSH1 0x20 ADD PUSH1 0x11 PUSH1 0xFF AND DUP2 MSTORE PUSH1 0x20 ADD PUSH1 0x12 PUSH1 0xFF AND DUP2 MSTORE PUSH1 0x20 ADD PUSH1 0x13 PUSH1 0xFF AND DUP2 MSTORE PUSH1 0x20 ADD PUSH1 0x14 PUSH1 0xFF AND DUP2 MSTORE PUSH1 0x20 ADD PUSH1 0x15 PUSH1 0xFF AND DUP2 MSTORE PUSH1 0x20 ADD PUSH1 0x16 PUSH1 0xFF AND DUP2 MSTORE PUSH1 0x20 ADD PUSH1 0x17 PUSH1 0xFF AND DUP2 MSTORE PUSH1 0x20 ADD PUSH1 0x18 PUSH1 0xFF AND DUP2 MSTORE POP PUSH1 0xA SWAP1 PUSH1 0xC PUSH2 0x7BB SWAP3 SWAP2 SWAP1 PUSH2 0xA01 JUMP JUMPDEST POP PUSH1 0x40 MLOAD DUP1 PUSH2 0x180 ADD PUSH1 0x40 MSTORE DUP1 PUSH1 0x19 PUSH1 0xFF AND DUP2 MSTORE PUSH1 0x20 ADD PUSH1 0x1A PUSH1 0xFF AND DUP2 MSTORE PUSH1 0x20 ADD PUSH1 0x1B PUSH1 0xFF AND DUP2 MSTORE PUSH1 0x20 ADD PUSH1 0x1C PUSH1 0xFF AND DUP2 MSTORE PUSH1 0x20 ADD PUSH1 0x1D PUSH1 0xFF AND DUP2 MSTORE PUSH1 0x20 ADD PUSH1 0x1E PUSH1 0xFF AND DUP2 MSTORE PUSH1 0x20 ADD PUSH1 0x1F PUSH1 0xFF AND DUP2 MSTORE PUSH1 0x20 ADD PUSH1 0x20 PUSH1 0xFF AND DUP2 MSTORE PUSH1 0x20 ADD PUSH1 0x21 PUSH1 0xFF AND DUP2 MSTORE PUSH1 0x20 ADD PUSH1 0x22 PUSH1 0xFF AND DUP2 MSTORE PUSH1 0x20 ADD PUSH1 0x23 PUSH1 0xFF AND DUP2 MSTORE PUSH1 0x20 ADD PUSH1 0x24 PUSH1 0xFF AND DUP2 MSTORE POP PUSH1 0xB SWAP1 PUSH1 0xC PUSH2 0x84E SWAP3 SWAP2 SWAP1 PUSH2 0xA01 JUMP JUMPDEST POP CALLVALUE DUP1 ISZERO PUSH2 0x85A JUMPI PUSH0 DUP1 REVERT JUMPDEST POP PUSH1 0x40 MLOAD PUSH2 0x6EA0 CODESIZE SUB DUP1 PUSH2 0x6EA0 DUP4 CODECOPY DUP2 DUP2 ADD PUSH1 0x40 MSTORE DUP2 ADD SWAP1 PUSH2 0x87C SWAP2 SWAP1 PUSH2 0xD5E JUMP JUMPDEST DUP4 PUSH1 0xC PUSH0 PUSH2 0x100 EXP DUP2 SLOAD DUP2 PUSH20 0xFFFFFFFFFFFFFFFFFFFFFFFFFFFFFFFFFFFFFFFF MUL NOT AND SWAP1 DUP4 PUSH20 0xFFFFFFFFFFFFFFFFFFFFFFFFFFFFFFFFFFFFFFFF AND MUL OR SWAP1 SSTORE POP DUP3 PUSH1 0xD DUP2 SWAP1 SSTORE POP PUSH0 PUSH1 0xE PUSH0 PUSH2 0x100 EXP DUP2 SLOAD DUP2 PUSH1 0xFF MUL NOT AND SWAP1 DUP4 PUSH1 0xFF AND MUL OR SWAP1 SSTORE POP DUP2 PUSH1 0x12 SWAP1 DUP1 MLOAD SWAP1 PUSH1 0x20 ADD SWAP1 PUSH2 0x8F3 SWAP3 SWAP2 SWAP1 PUSH2 0xA98 JUMP JUMPDEST POP DUP1 PUSH1 0x11 PUSH1 0x1 PUSH2 0x100 EXP DUP2 SLOAD DUP2 PUSH1 0xFF MUL NOT AND SWAP1 DUP4 PUSH1 0xFF AND MUL OR SWAP1 SSTORE POP DUP4 PUSH20 0xFFFFFFFFFFFFFFFFFFFFFFFFFFFFFFFFFFFFFFFF AND PUSH32 0x7BC06AD6AF97E4997115D8B8EC4270105092A2DC99A8BA73A35DE86C49AB8D9B DUP5 DUP5 DUP5 PUSH1 0x40 MLOAD PUSH2 0x959 SWAP4 SWAP3 SWAP2 SWAP1 PUSH2 0xEB3 JUMP JUMPDEST PUSH1 0x40 MLOAD DUP1 SWAP2 SUB SWAP1 LOG2 POP POP POP POP PUSH2 0xEEF JUMP JUMPDEST DUP3 PUSH1 0x12 PUSH1 0x1F ADD PUSH1 0x20 SWAP1 DIV DUP2 ADD SWAP3 DUP3 ISZERO PUSH2 0x9F0 JUMPI SWAP2 PUSH1 0x20 MUL DUP3 ADD PUSH0 JUMPDEST DUP4 DUP3 GT ISZERO PUSH2 0x9C2 JUMPI DUP4 MLOAD DUP4 DUP3 PUSH2 0x100 EXP DUP2 SLOAD DUP2 PUSH1 0xFF MUL NOT AND SWAP1 DUP4 PUSH1 0xFF AND MUL OR SWAP1 SSTORE POP SWAP3 PUSH1 0x20 ADD SWAP3 PUSH1 0x1 ADD PUSH1 0x20 DUP2 PUSH0 ADD DIV SWAP3 DUP4 ADD SWAP3 PUSH1 0x1 SUB MUL PUSH2 0x985 JUMP JUMPDEST DUP1 ISZERO PUSH2 0x9EE JUMPI DUP3 DUP2 PUSH2 0x100 EXP DUP2 SLOAD SWAP1 PUSH1 0xFF MUL NOT AND SWAP1 SSTORE PUSH1 0x1 ADD PUSH1 0x20 DUP2 PUSH0 ADD DIV SWAP3 DUP4 ADD SWAP3 PUSH1 0x1 SUB MUL PUSH2 0x9C2 JUMP JUMPDEST POP JUMPDEST POP SWAP1 POP PUSH2 0x9FD SWAP2 SWAP1 PUSH2 0xB1F JUMP JUMPDEST POP SWAP1 JUMP JUMPDEST DUP3 PUSH1 0xC PUSH1 0x1F ADD PUSH1 0x20 SWAP1 DIV DUP2 ADD SWAP3 DUP3 ISZERO PUSH2 0xA87 JUMPI SWAP2 PUSH1 0x20 MUL DUP3 ADD PUSH0 JUMPDEST DUP4 DUP3 GT ISZERO PUSH2 0xA59 JUMPI DUP4 MLOAD DUP4 DUP3 PUSH2 0x100 EXP DUP2 SLOAD DUP2 PUSH1 0xFF MUL NOT AND SWAP1 DUP4 PUSH1 0xFF AND MUL OR SWAP1 SSTORE POP SWAP3 PUSH1 0x20 ADD SWAP3 PUSH1 0x1 ADD PUSH1 0x20 DUP2 PUSH0 ADD DIV SWAP3 DUP4 ADD SWAP3 PUSH1 0x1 SUB MUL PUSH2 0xA1C JUMP JUMPDEST DUP1 ISZERO PUSH2 0xA85 JUMPI DUP3 DUP2 PUSH2 0x100 EXP DUP2 SLOAD SWAP1 PUSH1 0xFF MUL NOT AND SWAP1 SSTORE PUSH1 0x1 ADD PUSH1 0x20 DUP2 PUSH0 ADD DIV SWAP3 DUP4 ADD SWAP3 PUSH1 0x1 SUB MUL PUSH2 0xA59 JUMP JUMPDEST POP JUMPDEST POP SWAP1 POP PUSH2 0xA94 SWAP2 SWAP1 PUSH2 0xB1F JUMP JUMPDEST POP SWAP1 JUMP JUMPDEST DUP3 DUP1 SLOAD DUP3 DUP3 SSTORE SWAP1 PUSH0 MSTORE PUSH1 0x20 PUSH0 KECCAK256 SWAP1 DUP2 ADD SWAP3 DUP3 ISZERO PUSH2 0xB0E JUMPI SWAP2 PUSH1 0x20 MUL DUP3 ADD JUMPDEST DUP3 DUP2 GT ISZERO PUSH2 0xB0D JUMPI DUP3 MLOAD DUP3 PUSH0 PUSH2 0x100 EXP DUP2 SLOAD DUP2 PUSH20 0xFFFFFFFFFFFFFFFFFFFFFFFFFFFFFFFFFFFFFFFF MUL NOT AND SWAP1 DUP4 PUSH20 0xFFFFFFFFFFFFFFFFFFFFFFFFFFFFFFFFFFFFFFFF AND MUL OR SWAP1 SSTORE POP SWAP2 PUSH1 0x20 ADD SWAP2 SWAP1 PUSH1 0x1 ADD SWAP1 PUSH2 0xAB6 JUMP JUMPDEST JUMPDEST POP SWAP1 POP PUSH2 0xB1B SWAP2 SWAP1 PUSH2 0xB1F JUMP JUMPDEST POP SWAP1 JUMP JUMPDEST JUMPDEST DUP1 DUP3 GT ISZERO PUSH2 0xB36 JUMPI PUSH0 DUP2 PUSH0 SWAP1 SSTORE POP PUSH1 0x1 ADD PUSH2 0xB20 JUMP JUMPDEST POP SWAP1 JUMP JUMPDEST PUSH0 PUSH1 0x40 MLOAD SWAP1 POP SWAP1 JUMP JUMPDEST PUSH0 DUP1 REVERT JUMPDEST PUSH0 DUP1 REVERT JUMPDEST PUSH0 PUSH20 0xFFFFFFFFFFFFFFFFFFFFFFFFFFFFFFFFFFFFFFFF DUP3 AND SWAP1 POP SWAP2 SWAP1 POP JUMP JUMPDEST PUSH0 PUSH2 0xB74 DUP3 PUSH2 0xB4B JUMP JUMPDEST SWAP1 POP SWAP2 SWAP1 POP JUMP JUMPDEST PUSH2 0xB84 DUP2 PUSH2 0xB6A JUMP JUMPDEST DUP2 EQ PUSH2 0xB8E JUMPI PUSH0 DUP1 REVERT JUMPDEST POP JUMP JUMPDEST PUSH0 DUP2 MLOAD SWAP1 POP PUSH2 0xB9F DUP2 PUSH2 0xB7B JUMP JUMPDEST SWAP3 SWAP2 POP POP JUMP JUMPDEST PUSH0 DUP2 SWAP1 POP SWAP2 SWAP1 POP JUMP JUMPDEST PUSH2 0xBB7 DUP2 PUSH2 0xBA5 JUMP JUMPDEST DUP2 EQ PUSH2 0xBC1 JUMPI PUSH0 DUP1 REVERT JUMPDEST POP JUMP JUMPDEST PUSH0 DUP2 MLOAD SWAP1 POP PUSH2 0xBD2 DUP2 PUSH2 0xBAE JUMP JUMPDEST SWAP3 SWAP2 POP POP JUMP JUMPDEST PUSH0 DUP1 REVERT JUMPDEST PUSH0 PUSH1 0x1F NOT PUSH1 0x1F DUP4 ADD AND SWAP1 POP SWAP2 SWAP1 POP JUMP JUMPDEST PUSH32 0x4E487B7100000000000000000000000000000000000000000000000000000000 PUSH0 MSTORE PUSH1 0x41 PUSH1 0x4 MSTORE PUSH1 0x24 PUSH0 REVERT JUMPDEST PUSH2 0xC22 DUP3 PUSH2 0xBDC JUMP JUMPDEST DUP2 ADD DUP2 DUP2 LT PUSH8 0xFFFFFFFFFFFFFFFF DUP3 GT OR ISZERO PUSH2 0xC41 JUMPI PUSH2 0xC40 PUSH2 0xBEC JUMP JUMPDEST JUMPDEST DUP1 PUSH1 0x40 MSTORE POP POP POP JUMP JUMPDEST PUSH0 PUSH2 0xC53 PUSH2 0xB3A JUMP JUMPDEST SWAP1 POP PUSH2 0xC5F DUP3 DUP3 PUSH2 0xC19 JUMP JUMPDEST SWAP2 SWAP1 POP JUMP JUMPDEST PUSH0 PUSH8 0xFFFFFFFFFFFFFFFF DUP3 GT ISZERO PUSH2 0xC7E JUMPI PUSH2 0xC7D PUSH2 0xBEC JUMP JUMPDEST JUMPDEST PUSH1 0x20 DUP3 MUL SWAP1 POP PUSH1 0x20 DUP2 ADD SWAP1 POP SWAP2 SWAP1 POP JUMP JUMPDEST PUSH0 DUP1 REVERT JUMPDEST PUSH0 PUSH2 0xCA5 PUSH2 0xCA0 DUP5 PUSH2 0xC64 JUMP JUMPDEST PUSH2 0xC4A JUMP JUMPDEST SWAP1 POP DUP1 DUP4 DUP3 MSTORE PUSH1 0x20 DUP3 ADD SWAP1 POP PUSH1 0x20 DUP5 MUL DUP4 ADD DUP6 DUP2 GT ISZERO PUSH2 0xCC8 JUMPI PUSH2 0xCC7 PUSH2 0xC8F JUMP JUMPDEST JUMPDEST DUP4 JUMPDEST DUP2 DUP2 LT ISZERO PUSH2 0xCF1 JUMPI DUP1 PUSH2 0xCDD DUP9 DUP3 PUSH2 0xB91 JUMP JUMPDEST DUP5 MSTORE PUSH1 0x20 DUP5 ADD SWAP4 POP POP PUSH1 0x20 DUP2 ADD SWAP1 POP PUSH2 0xCCA JUMP JUMPDEST POP POP POP SWAP4 SWAP3 POP POP POP JUMP JUMPDEST PUSH0 DUP3 PUSH1 0x1F DUP4 ADD SLT PUSH2 0xD0F JUMPI PUSH2 0xD0E PUSH2 0xBD8 JUMP JUMPDEST JUMPDEST DUP2 MLOAD PUSH2 0xD1F DUP5 DUP3 PUSH1 0x20 DUP7 ADD PUSH2 0xC93 JUMP JUMPDEST SWAP2 POP POP SWAP3 SWAP2 POP POP JUMP JUMPDEST PUSH0 PUSH1 0xFF DUP3 AND SWAP1 POP SWAP2 SWAP1 POP JUMP JUMPDEST PUSH2 0xD3D DUP2 PUSH2 0xD28 JUMP JUMPDEST DUP2 EQ PUSH2 0xD47 JUMPI PUSH0 DUP1 REVERT JUMPDEST POP JUMP JUMPDEST PUSH0 DUP2 MLOAD SWAP1 POP PUSH2 0xD58 DUP2 PUSH2 0xD34 JUMP JUMPDEST SWAP3 SWAP2 POP POP JUMP JUMPDEST PUSH0 DUP1 PUSH0 DUP1 PUSH1 0x80 DUP6 DUP8 SUB SLT ISZERO PUSH2 0xD76 JUMPI PUSH2 0xD75 PUSH2 0xB43 JUMP JUMPDEST JUMPDEST PUSH0 PUSH2 0xD83 DUP8 DUP3 DUP9 ADD PUSH2 0xB91 JUMP JUMPDEST SWAP5 POP POP PUSH1 0x20 PUSH2 0xD94 DUP8 DUP3 DUP9 ADD PUSH2 0xBC4 JUMP JUMPDEST SWAP4 POP POP PUSH1 0x40 DUP6 ADD MLOAD PUSH8 0xFFFFFFFFFFFFFFFF DUP2 GT ISZERO PUSH2 0xDB5 JUMPI PUSH2 0xDB4 PUSH2 0xB47 JUMP JUMPDEST JUMPDEST PUSH2 0xDC1 DUP8 DUP3 DUP9 ADD PUSH2 0xCFB JUMP JUMPDEST SWAP3 POP POP PUSH1 0x60 PUSH2 0xDD2 DUP8 DUP3 DUP9 ADD PUSH2 0xD4A JUMP JUMPDEST SWAP2 POP POP SWAP3 SWAP6 SWAP2 SWAP5 POP SWAP3 POP JUMP JUMPDEST PUSH2 0xDE7 DUP2 PUSH2 0xBA5 JUMP JUMPDEST DUP3 MSTORE POP POP JUMP JUMPDEST PUSH0 DUP2 MLOAD SWAP1 POP SWAP2 SWAP1 POP JUMP JUMPDEST PUSH0 DUP3 DUP3 MSTORE PUSH1 0x20 DUP3 ADD SWAP1 POP SWAP3 SWAP2 POP POP JUMP JUMPDEST PUSH0 DUP2 SWAP1 POP PUSH1 0x20 DUP3 ADD SWAP1 POP SWAP2 SWAP1 POP JUMP JUMPDEST PUSH2 0xE1F DUP2 PUSH2 0xB6A JUMP JUMPDEST DUP3 MSTORE POP POP JUMP JUMPDEST PUSH0 PUSH2 0xE30 DUP4 DUP4 PUSH2 0xE16 JUMP JUMPDEST PUSH1 0x20 DUP4 ADD SWAP1 POP SWAP3 SWAP2 POP POP JUMP JUMPDEST PUSH0 PUSH1 0x20 DUP3 ADD SWAP1 POP SWAP2 SWAP1 POP JUMP JUMPDEST PUSH0 PUSH2 0xE52 DUP3 PUSH2 0xDED JUMP JUMPDEST PUSH2 0xE5C DUP2 DUP6 PUSH2 0xDF7 JUMP JUMPDEST SWAP4 POP PUSH2 0xE67 DUP4 PUSH2 0xE07 JUMP JUMPDEST DUP1 PUSH0 JUMPDEST DUP4 DUP2 LT ISZERO PUSH2 0xE97 JUMPI DUP2 MLOAD PUSH2 0xE7E DUP9 DUP3 PUSH2 0xE25 JUMP JUMPDEST SWAP8 POP PUSH2 0xE89 DUP4 PUSH2 0xE3C JUMP JUMPDEST SWAP3 POP POP PUSH1 0x1 DUP2 ADD SWAP1 POP PUSH2 0xE6A JUMP JUMPDEST POP DUP6 SWAP4 POP POP POP POP SWAP3 SWAP2 POP POP JUMP JUMPDEST PUSH2 0xEAD DUP2 PUSH2 0xD28 JUMP JUMPDEST DUP3 MSTORE POP POP JUMP JUMPDEST PUSH0 PUSH1 0x60 DUP3 ADD SWAP1 POP PUSH2 0xEC6 PUSH0 DUP4 ADD DUP7 PUSH2 0xDDE JUMP JUMPDEST DUP2 DUP2 SUB PUSH1 0x20 DUP4 ADD MSTORE PUSH2 0xED8 DUP2 DUP6 PUSH2 0xE48 JUMP JUMPDEST SWAP1 POP PUSH2 0xEE7 PUSH1 0x40 DUP4 ADD DUP5 PUSH2 0xEA4 JUMP JUMPDEST SWAP5 SWAP4 POP POP POP POP JUMP JUMPDEST PUSH2 0x5FA4 DUP1 PUSH2 0xEFC PUSH0 CODECOPY PUSH0 RETURN INVALID PUSH1 0x80 PUSH1 0x40 MSTORE PUSH1 0x4 CALLDATASIZE LT PUSH2 0x266 JUMPI PUSH0 CALLDATALOAD PUSH1 0xE0 SHR DUP1 PUSH4 0x6F91A66F GT PUSH2 0x143 JUMPI DUP1 PUSH4 0xC201715C GT PUSH2 0xB5 JUMPI DUP1 PUSH4 0xDB7F11DB GT PUSH2 0x79 JUMPI DUP1 PUSH4 0xDB7F11DB EQ PUSH2 0x9B6 JUMPI DUP1 PUSH4 0xE4CA650D EQ PUSH2 0x9F2 JUMPI DUP1 PUSH4 0xE71F766E EQ PUSH2 0xA2E JUMPI DUP1 PUSH4 0xE8E0FCA5 EQ PUSH2 0xA6A JUMPI DUP1 PUSH4 0xF437BC59 EQ PUSH2 0xAA6 JUMPI DUP1 PUSH4 0xFE5385AF EQ PUSH2 0xAD0 JUMPI PUSH2 0x266 JUMP JUMPDEST DUP1 PUSH4 0xC201715C EQ PUSH2 0x8CE JUMPI DUP1 PUSH4 0xD0E30DB0 EQ PUSH2 0x90A JUMPI DUP1 PUSH4 0xD1EDB09E EQ PUSH2 0x914 JUMPI DUP1 PUSH4 0xD4F7A285 EQ PUSH2 0x93E JUMPI DUP1 PUSH4 0xD9CC76AD EQ PUSH2 0x97A JUMPI PUSH2 0x266 JUMP JUMPDEST DUP1 PUSH4 0x9619367D GT PUSH2 0x107 JUMPI DUP1 PUSH4 0x9619367D EQ PUSH2 0x778 JUMPI DUP1 PUSH4 0x972B533D EQ PUSH2 0x7A2 JUMPI DUP1 PUSH4 0xA38BD74C EQ PUSH2 0x7DE JUMPI DUP1 PUSH4 0xA6EDE84A EQ PUSH2 0x81A JUMPI DUP1 PUSH4 0xB2513399 EQ PUSH2 0x856 JUMPI DUP1 PUSH4 0xBE47AE13 EQ PUSH2 0x892 JUMPI PUSH2 0x266 JUMP JUMPDEST DUP1 PUSH4 0x6F91A66F EQ PUSH2 0x6A8 JUMPI DUP1 PUSH4 0x87171EB7 EQ PUSH2 0x6D2 JUMPI DUP1 PUSH4 0x8C7E347A EQ PUSH2 0x6FC JUMPI DUP1 PUSH4 0x8E4BF820 EQ PUSH2 0x726 JUMPI DUP1 PUSH4 0x8FFFEBCA EQ PUSH2 0x73C JUMPI PUSH2 0x266 JUMP JUMPDEST DUP1 PUSH4 0x2E5B2168 GT PUSH2 0x1DC JUMPI DUP1 PUSH4 0x43046844 GT PUSH2 0x1A0 JUMPI DUP1 PUSH4 0x43046844 EQ PUSH2 0x584 JUMPI DUP1 PUSH4 0x4760FFF3 EQ PUSH2 0x5A0 JUMPI DUP1 PUSH4 0x4D7D93FE EQ PUSH2 0x5DC JUMPI DUP1 PUSH4 0x4E69D560 EQ PUSH2 0x618 JUMPI DUP1 PUSH4 0x5DCAB1D8 EQ PUSH2 0x642 JUMPI DUP1 PUSH4 0x65372147 EQ PUSH2 0x67E JUMPI PUSH2 0x266 JUMP JUMPDEST DUP1 PUSH4 0x2E5B2168 EQ PUSH2 0x4A2 JUMPI DUP1 PUSH4 0x2ECA4C28 EQ PUSH2 0x4CC JUMPI DUP1 PUSH4 0x322F8920 EQ PUSH2 0x4F6 JUMPI DUP1 PUSH4 0x35AA2E44 EQ PUSH2 0x532 JUMPI DUP1 PUSH4 0x38CCEB4F EQ PUSH2 0x56E JUMPI PUSH2 0x266 JUMP JUMPDEST DUP1 PUSH4 0x1FAC0FFD GT PUSH2 0x22E JUMPI DUP1 PUSH4 0x1FAC0FFD EQ PUSH2 0x34A JUMPI DUP1 PUSH4 0x200D2ED2 EQ PUSH2 0x386 JUMPI DUP1 PUSH4 0x22AF00FA EQ PUSH2 0x3B0 JUMPI DUP1 PUSH4 0x23FE318E EQ PUSH2 0x3EE JUMPI DUP1 PUSH4 0x2605C251 EQ PUSH2 0x42A JUMPI DUP1 PUSH4 0x28DDDC1B EQ PUSH2 0x466 JUMPI PUSH2 0x266 JUMP JUMPDEST DUP1 PUSH4 0x12586172 EQ PUSH2 0x26A JUMPI DUP1 PUSH4 0x19299832 EQ PUSH2 0x2A6 JUMPI DUP1 PUSH4 0x195BA0EB EQ PUSH2 0x2E2 JUMPI DUP1 PUSH4 0x1B2ABC77 EQ PUSH2 0x31E JUMPI DUP1 PUSH4 0x1DBE2E0E EQ PUSH2 0x334 JUMPI JUMPDEST PUSH0 DUP1 REVERT JUMPDEST CALLVALUE DUP1 ISZERO PUSH2 0x275 JUMPI PUSH0 DUP1 REVERT JUMPDEST POP PUSH2 0x290 PUSH1 0x4 DUP1 CALLDATASIZE SUB DUP2 ADD SWAP1 PUSH2 0x28B SWAP2 SWAP1 PUSH2 0x4B61 JUMP JUMPDEST PUSH2 0xB0C JUMP JUMPDEST PUSH1 0x40 MLOAD PUSH2 0x29D SWAP2 SWAP1 PUSH2 0x4BA6 JUMP JUMPDEST PUSH1 0x40 MLOAD DUP1 SWAP2 SUB SWAP1 RETURN JUMPDEST CALLVALUE DUP1 ISZERO PUSH2 0x2B1 JUMPI PUSH0 DUP1 REVERT JUMPDEST POP PUSH2 0x2CC PUSH1 0x4 DUP1 CALLDATASIZE SUB DUP2 ADD SWAP1 PUSH2 0x2C7 SWAP2 SWAP1 PUSH2 0x4BF2 JUMP JUMPDEST PUSH2 0xB7E JUMP JUMPDEST PUSH1 0x40 MLOAD PUSH2 0x2D9 SWAP2 SWAP1 PUSH2 0x4C2C JUMP JUMPDEST PUSH1 0x40 MLOAD DUP1 SWAP2 SUB SWAP1 RETURN JUMPDEST CALLVALUE DUP1 ISZERO PUSH2 0x2ED JUMPI PUSH0 DUP1 REVERT JUMPDEST POP PUSH2 0x308 PUSH1 0x4 DUP1 CALLDATASIZE SUB DUP2 ADD SWAP1 PUSH2 0x303 SWAP2 SWAP1 PUSH2 0x4BF2 JUMP JUMPDEST PUSH2 0xBA7 JUMP JUMPDEST PUSH1 0x40 MLOAD PUSH2 0x315 SWAP2 SWAP1 PUSH2 0x4C2C JUMP JUMPDEST PUSH1 0x40 MLOAD DUP1 SWAP2 SUB SWAP1 RETURN JUMPDEST CALLVALUE DUP1 ISZERO PUSH2 0x329 JUMPI PUSH0 DUP1 REVERT JUMPDEST POP PUSH2 0x332 PUSH2 0xBD0 JUMP JUMPDEST STOP JUMPDEST CALLVALUE DUP1 ISZERO PUSH2 0x33F JUMPI PUSH0 DUP1 REVERT JUMPDEST POP PUSH2 0x348 PUSH2 0xC84 JUMP JUMPDEST STOP JUMPDEST CALLVALUE DUP1 ISZERO PUSH2 0x355 JUMPI PUSH0 DUP1 REVERT JUMPDEST POP PUSH2 0x370 PUSH1 0x4 DUP1 CALLDATASIZE SUB DUP2 ADD SWAP1 PUSH2 0x36B SWAP2 SWAP1 PUSH2 0x4BF2 JUMP JUMPDEST PUSH2 0xF64 JUMP JUMPDEST PUSH1 0x40 MLOAD PUSH2 0x37D SWAP2 SWAP1 PUSH2 0x4C2C JUMP JUMPDEST PUSH1 0x40 MLOAD DUP1 SWAP2 SUB SWAP1 RETURN JUMPDEST CALLVALUE DUP1 ISZERO PUSH2 0x391 JUMPI PUSH0 DUP1 REVERT JUMPDEST POP PUSH2 0x39A PUSH2 0xF8D JUMP JUMPDEST PUSH1 0x40 MLOAD PUSH2 0x3A7 SWAP2 SWAP1 PUSH2 0x4C2C JUMP JUMPDEST PUSH1 0x40 MLOAD DUP1 SWAP2 SUB SWAP1 RETURN JUMPDEST CALLVALUE DUP1 ISZERO PUSH2 0x3BB JUMPI PUSH0 DUP1 REVERT JUMPDEST POP PUSH2 0x3D6 PUSH1 0x4 DUP1 CALLDATASIZE SUB DUP2 ADD SWAP1 PUSH2 0x3D1 SWAP2 SWAP1 PUSH2 0x4BF2 JUMP JUMPDEST PUSH2 0xF9F JUMP JUMPDEST PUSH1 0x40 MLOAD PUSH2 0x3E5 SWAP4 SWAP3 SWAP2 SWAP1 PUSH2 0x4C93 JUMP JUMPDEST PUSH1 0x40 MLOAD DUP1 SWAP2 SUB SWAP1 RETURN JUMPDEST CALLVALUE DUP1 ISZERO PUSH2 0x3F9 JUMPI PUSH0 DUP1 REVERT JUMPDEST POP PUSH2 0x414 PUSH1 0x4 DUP1 CALLDATASIZE SUB DUP2 ADD SWAP1 PUSH2 0x40F SWAP2 SWAP1 PUSH2 0x4BF2 JUMP JUMPDEST PUSH2 0xFFF JUMP JUMPDEST PUSH1 0x40 MLOAD PUSH2 0x421 SWAP2 SWAP1 PUSH2 0x4C2C JUMP JUMPDEST PUSH1 0x40 MLOAD DUP1 SWAP2 SUB SWAP1 RETURN JUMPDEST CALLVALUE DUP1 ISZERO PUSH2 0x435 JUMPI PUSH0 DUP1 REVERT JUMPDEST POP PUSH2 0x450 PUSH1 0x4 DUP1 CALLDATASIZE SUB DUP2 ADD SWAP1 PUSH2 0x44B SWAP2 SWAP1 PUSH2 0x4B61 JUMP JUMPDEST PUSH2 0x1028 JUMP JUMPDEST PUSH1 0x40 MLOAD PUSH2 0x45D SWAP2 SWAP1 PUSH2 0x4BA6 JUMP JUMPDEST PUSH1 0x40 MLOAD DUP1 SWAP2 SUB SWAP1 RETURN JUMPDEST CALLVALUE DUP1 ISZERO PUSH2 0x471 JUMPI PUSH0 DUP1 REVERT JUMPDEST POP PUSH2 0x48C PUSH1 0x4 DUP1 CALLDATASIZE SUB DUP2 ADD SWAP1 PUSH2 0x487 SWAP2 SWAP1 PUSH2 0x4B61 JUMP JUMPDEST PUSH2 0x109A JUMP JUMPDEST PUSH1 0x40 MLOAD PUSH2 0x499 SWAP2 SWAP1 PUSH2 0x4BA6 JUMP JUMPDEST PUSH1 0x40 MLOAD DUP1 SWAP2 SUB SWAP1 RETURN JUMPDEST CALLVALUE DUP1 ISZERO PUSH2 0x4AD JUMPI PUSH0 DUP1 REVERT JUMPDEST POP PUSH2 0x4B6 PUSH2 0x110C JUMP JUMPDEST PUSH1 0x40 MLOAD PUSH2 0x4C3 SWAP2 SWAP1 PUSH2 0x4CC8 JUMP JUMPDEST PUSH1 0x40 MLOAD DUP1 SWAP2 SUB SWAP1 RETURN JUMPDEST CALLVALUE DUP1 ISZERO PUSH2 0x4D7 JUMPI PUSH0 DUP1 REVERT JUMPDEST POP PUSH2 0x4E0 PUSH2 0x1112 JUMP JUMPDEST PUSH1 0x40 MLOAD PUSH2 0x4ED SWAP2 SWAP1 PUSH2 0x4C2C JUMP JUMPDEST PUSH1 0x40 MLOAD DUP1 SWAP2 SUB SWAP1 RETURN JUMPDEST CALLVALUE DUP1 ISZERO PUSH2 0x501 JUMPI PUSH0 DUP1 REVERT JUMPDEST POP PUSH2 0x51C PUSH1 0x4 DUP1 CALLDATASIZE SUB DUP2 ADD SWAP1 PUSH2 0x517 SWAP2 SWAP1 PUSH2 0x4BF2 JUMP JUMPDEST PUSH2 0x1125 JUMP JUMPDEST PUSH1 0x40 MLOAD PUSH2 0x529 SWAP2 SWAP1 PUSH2 0x4C2C JUMP JUMPDEST PUSH1 0x40 MLOAD DUP1 SWAP2 SUB SWAP1 RETURN JUMPDEST CALLVALUE DUP1 ISZERO PUSH2 0x53D JUMPI PUSH0 DUP1 REVERT JUMPDEST POP PUSH2 0x558 PUSH1 0x4 DUP1 CALLDATASIZE SUB DUP2 ADD SWAP1 PUSH2 0x553 SWAP2 SWAP1 PUSH2 0x4BF2 JUMP JUMPDEST PUSH2 0x114E JUMP JUMPDEST PUSH1 0x40 MLOAD PUSH2 0x565 SWAP2 SWAP1 PUSH2 0x4CE1 JUMP JUMPDEST PUSH1 0x40 MLOAD DUP1 SWAP2 SUB SWAP1 RETURN JUMPDEST CALLVALUE DUP1 ISZERO PUSH2 0x579 JUMPI PUSH0 DUP1 REVERT JUMPDEST POP PUSH2 0x582 PUSH2 0x1189 JUMP JUMPDEST STOP JUMPDEST PUSH2 0x59E PUSH1 0x4 DUP1 CALLDATASIZE SUB DUP2 ADD SWAP1 PUSH2 0x599 SWAP2 SWAP1 PUSH2 0x4B61 JUMP JUMPDEST PUSH2 0x1901 JUMP JUMPDEST STOP JUMPDEST CALLVALUE DUP1 ISZERO PUSH2 0x5AB JUMPI PUSH0 DUP1 REVERT JUMPDEST POP PUSH2 0x5C6 PUSH1 0x4 DUP1 CALLDATASIZE SUB DUP2 ADD SWAP1 PUSH2 0x5C1 SWAP2 SWAP1 PUSH2 0x4B61 JUMP JUMPDEST PUSH2 0x1B0F JUMP JUMPDEST PUSH1 0x40 MLOAD PUSH2 0x5D3 SWAP2 SWAP1 PUSH2 0x4BA6 JUMP JUMPDEST PUSH1 0x40 MLOAD DUP1 SWAP2 SUB SWAP1 RETURN JUMPDEST CALLVALUE DUP1 ISZERO PUSH2 0x5E7 JUMPI PUSH0 DUP1 REVERT JUMPDEST POP PUSH2 0x602 PUSH1 0x4 DUP1 CALLDATASIZE SUB DUP2 ADD SWAP1 PUSH2 0x5FD SWAP2 SWAP1 PUSH2 0x4B61 JUMP JUMPDEST PUSH2 0x1B81 JUMP JUMPDEST PUSH1 0x40 MLOAD PUSH2 0x60F SWAP2 SWAP1 PUSH2 0x4BA6 JUMP JUMPDEST PUSH1 0x40 MLOAD DUP1 SWAP2 SUB SWAP1 RETURN JUMPDEST CALLVALUE DUP1 ISZERO PUSH2 0x623 JUMPI PUSH0 DUP1 REVERT JUMPDEST POP PUSH2 0x62C PUSH2 0x1BF3 JUMP JUMPDEST PUSH1 0x40 MLOAD PUSH2 0x639 SWAP2 SWAP1 PUSH2 0x4C2C JUMP JUMPDEST PUSH1 0x40 MLOAD DUP1 SWAP2 SUB SWAP1 RETURN JUMPDEST CALLVALUE DUP1 ISZERO PUSH2 0x64D JUMPI PUSH0 DUP1 REVERT JUMPDEST POP PUSH2 0x668 PUSH1 0x4 DUP1 CALLDATASIZE SUB DUP2 ADD SWAP1 PUSH2 0x663 SWAP2 SWAP1 PUSH2 0x4B61 JUMP JUMPDEST PUSH2 0x1C08 JUMP JUMPDEST PUSH1 0x40 MLOAD PUSH2 0x675 SWAP2 SWAP1 PUSH2 0x4BA6 JUMP JUMPDEST PUSH1 0x40 MLOAD DUP1 SWAP2 SUB SWAP1 RETURN JUMPDEST CALLVALUE DUP1 ISZERO PUSH2 0x689 JUMPI PUSH0 DUP1 REVERT JUMPDEST POP PUSH2 0x692 PUSH2 0x1C7A JUMP JUMPDEST PUSH1 0x40 MLOAD PUSH2 0x69F SWAP2 SWAP1 PUSH2 0x4C2C JUMP JUMPDEST PUSH1 0x40 MLOAD DUP1 SWAP2 SUB SWAP1 RETURN JUMPDEST CALLVALUE DUP1 ISZERO PUSH2 0x6B3 JUMPI PUSH0 DUP1 REVERT JUMPDEST POP PUSH2 0x6BC PUSH2 0x1C8C JUMP JUMPDEST PUSH1 0x40 MLOAD PUSH2 0x6C9 SWAP2 SWAP1 PUSH2 0x4CC8 JUMP JUMPDEST PUSH1 0x40 MLOAD DUP1 SWAP2 SUB SWAP1 RETURN JUMPDEST CALLVALUE DUP1 ISZERO PUSH2 0x6DD JUMPI PUSH0 DUP1 REVERT JUMPDEST POP PUSH2 0x6E6 PUSH2 0x1C92 JUMP JUMPDEST PUSH1 0x40 MLOAD PUSH2 0x6F3 SWAP2 SWAP1 PUSH2 0x4CC8 JUMP JUMPDEST PUSH1 0x40 MLOAD DUP1 SWAP2 SUB SWAP1 RETURN JUMPDEST CALLVALUE DUP1 ISZERO PUSH2 0x707 JUMPI PUSH0 DUP1 REVERT JUMPDEST POP PUSH2 0x710 PUSH2 0x1C98 JUMP JUMPDEST PUSH1 0x40 MLOAD PUSH2 0x71D SWAP2 SWAP1 PUSH2 0x4CC8 JUMP JUMPDEST PUSH1 0x40 MLOAD DUP1 SWAP2 SUB SWAP1 RETURN JUMPDEST CALLVALUE DUP1 ISZERO PUSH2 0x731 JUMPI PUSH0 DUP1 REVERT JUMPDEST POP PUSH2 0x73A PUSH2 0x1CA4 JUMP JUMPDEST STOP JUMPDEST CALLVALUE DUP1 ISZERO PUSH2 0x747 JUMPI PUSH0 DUP1 REVERT JUMPDEST POP PUSH2 0x762 PUSH1 0x4 DUP1 CALLDATASIZE SUB DUP2 ADD SWAP1 PUSH2 0x75D SWAP2 SWAP1 PUSH2 0x4B61 JUMP JUMPDEST PUSH2 0x398A JUMP JUMPDEST PUSH1 0x40 MLOAD PUSH2 0x76F SWAP2 SWAP1 PUSH2 0x4BA6 JUMP JUMPDEST PUSH1 0x40 MLOAD DUP1 SWAP2 SUB SWAP1 RETURN JUMPDEST CALLVALUE DUP1 ISZERO PUSH2 0x783 JUMPI PUSH0 DUP1 REVERT JUMPDEST POP PUSH2 0x78C PUSH2 0x39FC JUMP JUMPDEST PUSH1 0x40 MLOAD PUSH2 0x799 SWAP2 SWAP1 PUSH2 0x4CC8 JUMP JUMPDEST PUSH1 0x40 MLOAD DUP1 SWAP2 SUB SWAP1 RETURN JUMPDEST CALLVALUE DUP1 ISZERO PUSH2 0x7AD JUMPI PUSH0 DUP1 REVERT JUMPDEST POP PUSH2 0x7C8 PUSH1 0x4 DUP1 CALLDATASIZE SUB DUP2 ADD SWAP1 PUSH2 0x7C3 SWAP2 SWAP1 PUSH2 0x4B61 JUMP JUMPDEST PUSH2 0x3A02 JUMP JUMPDEST PUSH1 0x40 MLOAD PUSH2 0x7D5 SWAP2 SWAP1 PUSH2 0x4BA6 JUMP JUMPDEST PUSH1 0x40 MLOAD DUP1 SWAP2 SUB SWAP1 RETURN JUMPDEST CALLVALUE DUP1 ISZERO PUSH2 0x7E9 JUMPI PUSH0 DUP1 REVERT JUMPDEST POP PUSH2 0x804 PUSH1 0x4 DUP1 CALLDATASIZE SUB DUP2 ADD SWAP1 PUSH2 0x7FF SWAP2 SWAP1 PUSH2 0x4B61 JUMP JUMPDEST PUSH2 0x3A73 JUMP JUMPDEST PUSH1 0x40 MLOAD PUSH2 0x811 SWAP2 SWAP1 PUSH2 0x4BA6 JUMP JUMPDEST PUSH1 0x40 MLOAD DUP1 SWAP2 SUB SWAP1 RETURN JUMPDEST CALLVALUE DUP1 ISZERO PUSH2 0x825 JUMPI PUSH0 DUP1 REVERT JUMPDEST POP PUSH2 0x840 PUSH1 0x4 DUP1 CALLDATASIZE SUB DUP2 ADD SWAP1 PUSH2 0x83B SWAP2 SWAP1 PUSH2 0x4BF2 JUMP JUMPDEST PUSH2 0x3AE5 JUMP JUMPDEST PUSH1 0x40 MLOAD PUSH2 0x84D SWAP2 SWAP1 PUSH2 0x4C2C JUMP JUMPDEST PUSH1 0x40 MLOAD DUP1 SWAP2 SUB SWAP1 RETURN JUMPDEST CALLVALUE DUP1 ISZERO PUSH2 0x861 JUMPI PUSH0 DUP1 REVERT JUMPDEST POP PUSH2 0x87C PUSH1 0x4 DUP1 CALLDATASIZE SUB DUP2 ADD SWAP1 PUSH2 0x877 SWAP2 SWAP1 PUSH2 0x4BF2 JUMP JUMPDEST PUSH2 0x3B0E JUMP JUMPDEST PUSH1 0x40 MLOAD PUSH2 0x889 SWAP2 SWAP1 PUSH2 0x4C2C JUMP JUMPDEST PUSH1 0x40 MLOAD DUP1 SWAP2 SUB SWAP1 RETURN JUMPDEST CALLVALUE DUP1 ISZERO PUSH2 0x89D JUMPI PUSH0 DUP1 REVERT JUMPDEST POP PUSH2 0x8B8 PUSH1 0x4 DUP1 CALLDATASIZE SUB DUP2 ADD SWAP1 PUSH2 0x8B3 SWAP2 SWAP1 PUSH2 0x4BF2 JUMP JUMPDEST PUSH2 0x3B37 JUMP JUMPDEST PUSH1 0x40 MLOAD PUSH2 0x8C5 SWAP2 SWAP1 PUSH2 0x4C2C JUMP JUMPDEST PUSH1 0x40 MLOAD DUP1 SWAP2 SUB SWAP1 RETURN JUMPDEST CALLVALUE DUP1 ISZERO PUSH2 0x8D9 JUMPI PUSH0 DUP1 REVERT JUMPDEST POP PUSH2 0x8F4 PUSH1 0x4 DUP1 CALLDATASIZE SUB DUP2 ADD SWAP1 PUSH2 0x8EF SWAP2 SWAP1 PUSH2 0x4BF2 JUMP JUMPDEST PUSH2 0x3B60 JUMP JUMPDEST PUSH1 0x40 MLOAD PUSH2 0x901 SWAP2 SWAP1 PUSH2 0x4CE1 JUMP JUMPDEST PUSH1 0x40 MLOAD DUP1 SWAP2 SUB SWAP1 RETURN JUMPDEST PUSH2 0x912 PUSH2 0x3B9B JUMP JUMPDEST STOP JUMPDEST CALLVALUE DUP1 ISZERO PUSH2 0x91F JUMPI PUSH0 DUP1 REVERT JUMPDEST POP PUSH2 0x928 PUSH2 0x3CEB JUMP JUMPDEST PUSH1 0x40 MLOAD PUSH2 0x935 SWAP2 SWAP1 PUSH2 0x4CC8 JUMP JUMPDEST PUSH1 0x40 MLOAD DUP1 SWAP2 SUB SWAP1 RETURN JUMPDEST CALLVALUE DUP1 ISZERO PUSH2 0x949 JUMPI PUSH0 DUP1 REVERT JUMPDEST POP PUSH2 0x964 PUSH1 0x4 DUP1 CALLDATASIZE SUB DUP2 ADD SWAP1 PUSH2 0x95F SWAP2 SWAP1 PUSH2 0x4BF2 JUMP JUMPDEST PUSH2 0x3D45 JUMP JUMPDEST PUSH1 0x40 MLOAD PUSH2 0x971 SWAP2 SWAP1 PUSH2 0x4C2C JUMP JUMPDEST PUSH1 0x40 MLOAD DUP1 SWAP2 SUB SWAP1 RETURN JUMPDEST CALLVALUE DUP1 ISZERO PUSH2 0x985 JUMPI PUSH0 DUP1 REVERT JUMPDEST POP PUSH2 0x9A0 PUSH1 0x4 DUP1 CALLDATASIZE SUB DUP2 ADD SWAP1 PUSH2 0x99B SWAP2 SWAP1 PUSH2 0x4B61 JUMP JUMPDEST PUSH2 0x3D6E JUMP JUMPDEST PUSH1 0x40 MLOAD PUSH2 0x9AD SWAP2 SWAP1 PUSH2 0x4BA6 JUMP JUMPDEST PUSH1 0x40 MLOAD DUP1 SWAP2 SUB SWAP1 RETURN JUMPDEST CALLVALUE DUP1 ISZERO PUSH2 0x9C1 JUMPI PUSH0 DUP1 REVERT JUMPDEST POP PUSH2 0x9DC PUSH1 0x4 DUP1 CALLDATASIZE SUB DUP2 ADD SWAP1 PUSH2 0x9D7 SWAP2 SWAP1 PUSH2 0x4BF2 JUMP JUMPDEST PUSH2 0x3DE0 JUMP JUMPDEST PUSH1 0x40 MLOAD PUSH2 0x9E9 SWAP2 SWAP1 PUSH2 0x4C2C JUMP JUMPDEST PUSH1 0x40 MLOAD DUP1 SWAP2 SUB SWAP1 RETURN JUMPDEST CALLVALUE DUP1 ISZERO PUSH2 0x9FD JUMPI PUSH0 DUP1 REVERT JUMPDEST POP PUSH2 0xA18 PUSH1 0x4 DUP1 CALLDATASIZE SUB DUP2 ADD SWAP1 PUSH2 0xA13 SWAP2 SWAP1 PUSH2 0x4B61 JUMP JUMPDEST PUSH2 0x3E09 JUMP JUMPDEST PUSH1 0x40 MLOAD PUSH2 0xA25 SWAP2 SWAP1 PUSH2 0x4BA6 JUMP JUMPDEST PUSH1 0x40 MLOAD DUP1 SWAP2 SUB SWAP1 RETURN JUMPDEST CALLVALUE DUP1 ISZERO PUSH2 0xA39 JUMPI PUSH0 DUP1 REVERT JUMPDEST POP PUSH2 0xA54 PUSH1 0x4 DUP1 CALLDATASIZE SUB DUP2 ADD SWAP1 PUSH2 0xA4F SWAP2 SWAP1 PUSH2 0x4B61 JUMP JUMPDEST PUSH2 0x3E7B JUMP JUMPDEST PUSH1 0x40 MLOAD PUSH2 0xA61 SWAP2 SWAP1 PUSH2 0x4BA6 JUMP JUMPDEST PUSH1 0x40 MLOAD DUP1 SWAP2 SUB SWAP1 RETURN JUMPDEST CALLVALUE DUP1 ISZERO PUSH2 0xA75 JUMPI PUSH0 DUP1 REVERT JUMPDEST POP PUSH2 0xA90 PUSH1 0x4 DUP1 CALLDATASIZE SUB DUP2 ADD SWAP1 PUSH2 0xA8B SWAP2 SWAP1 PUSH2 0x4BF2 JUMP JUMPDEST PUSH2 0x3EED JUMP JUMPDEST PUSH1 0x40 MLOAD PUSH2 0xA9D SWAP2 SWAP1 PUSH2 0x4C2C JUMP JUMPDEST PUSH1 0x40 MLOAD DUP1 SWAP2 SUB SWAP1 RETURN JUMPDEST CALLVALUE DUP1 ISZERO PUSH2 0xAB1 JUMPI PUSH0 DUP1 REVERT JUMPDEST POP PUSH2 0xABA PUSH2 0x3F15 JUMP JUMPDEST PUSH1 0x40 MLOAD PUSH2 0xAC7 SWAP2 SWAP1 PUSH2 0x4CE1 JUMP JUMPDEST PUSH1 0x40 MLOAD DUP1 SWAP2 SUB SWAP1 RETURN JUMPDEST CALLVALUE DUP1 ISZERO PUSH2 0xADB JUMPI PUSH0 DUP1 REVERT JUMPDEST POP PUSH2 0xAF6 PUSH1 0x4 DUP1 CALLDATASIZE SUB DUP2 ADD SWAP1 PUSH2 0xAF1 SWAP2 SWAP1 PUSH2 0x4BF2 JUMP JUMPDEST PUSH2 0x3F3A JUMP JUMPDEST PUSH1 0x40 MLOAD PUSH2 0xB03 SWAP2 SWAP1 PUSH2 0x4C2C JUMP JUMPDEST PUSH1 0x40 MLOAD DUP1 SWAP2 SUB SWAP1 RETURN JUMPDEST PUSH0 DUP1 PUSH0 SWAP1 POP JUMPDEST PUSH1 0xC DUP2 PUSH1 0xFF AND LT ISZERO PUSH2 0xB74 JUMPI DUP3 PUSH1 0xFF AND PUSH1 0x6 DUP3 PUSH1 0xFF AND PUSH1 0xC DUP2 LT PUSH2 0xB39 JUMPI PUSH2 0xB38 PUSH2 0x4CFA JUMP JUMPDEST JUMPDEST PUSH1 0x20 SWAP2 DUP3 DUP3 DIV ADD SWAP2 SWAP1 MOD SWAP1 SLOAD SWAP1 PUSH2 0x100 EXP SWAP1 DIV PUSH1 0xFF AND PUSH1 0xFF AND SUB PUSH2 0xB61 JUMPI PUSH1 0x1 SWAP2 POP POP PUSH2 0xB79 JUMP JUMPDEST DUP1 DUP1 PUSH2 0xB6C SWAP1 PUSH2 0x4D54 JUMP JUMPDEST SWAP2 POP POP PUSH2 0xB12 JUMP JUMPDEST POP PUSH0 SWAP1 POP JUMPDEST SWAP2 SWAP1 POP JUMP JUMPDEST PUSH1 0x8 DUP2 PUSH1 0xC DUP2 LT PUSH2 0xB8D JUMPI PUSH0 DUP1 REVERT JUMPDEST PUSH1 0x20 SWAP2 DUP3 DUP3 DIV ADD SWAP2 SWAP1 MOD SWAP2 POP SLOAD SWAP1 PUSH2 0x100 EXP SWAP1 DIV PUSH1 0xFF AND DUP2 JUMP JUMPDEST PUSH1 0x9 DUP2 PUSH1 0xC DUP2 LT PUSH2 0xBB6 JUMPI PUSH0 DUP1 REVERT JUMPDEST PUSH1 0x20 SWAP2 DUP3 DUP3 DIV ADD SWAP2 SWAP1 MOD SWAP2 POP SLOAD SWAP1 PUSH2 0x100 EXP SWAP1 DIV PUSH1 0xFF AND DUP2 JUMP JUMPDEST PUSH1 0x1 PUSH1 0xFF AND PUSH1 0xE PUSH0 SWAP1 SLOAD SWAP1 PUSH2 0x100 EXP SWAP1 DIV PUSH1 0xFF AND PUSH1 0xFF AND EQ PUSH2 0xC27 JUMPI PUSH1 0x40 MLOAD PUSH32 0x8C379A000000000000000000000000000000000000000000000000000000000 DUP2 MSTORE PUSH1 0x4 ADD PUSH2 0xC1E SWAP1 PUSH2 0x4DD6 JUMP JUMPDEST PUSH1 0x40 MLOAD DUP1 SWAP2 SUB SWAP1 REVERT JUMPDEST PUSH1 0x2 PUSH1 0xE PUSH0 PUSH2 0x100 EXP DUP2 SLOAD DUP2 PUSH1 0xFF MUL NOT AND SWAP1 DUP4 PUSH1 0xFF AND MUL OR SWAP1 SSTORE POP NUMBER PUSH1 0x10 DUP2 SWAP1 SSTORE POP PUSH32 0x2D21E9397283A99C7F2DF56BAF635AAB0655F2DEA12185FAC963AC115BE30F93 PUSH1 0x10 SLOAD PUSH1 0x40 MLOAD PUSH2 0xC7A SWAP2 SWAP1 PUSH2 0x4CC8 JUMP JUMPDEST PUSH1 0x40 MLOAD DUP1 SWAP2 SUB SWAP1 LOG1 JUMP JUMPDEST PUSH1 0x2 PUSH1 0xFF AND PUSH1 0xE PUSH0 SWAP1 SLOAD SWAP1 PUSH2 0x100 EXP SWAP1 DIV PUSH1 0xFF AND PUSH1 0xFF AND EQ PUSH2 0xCDB JUMPI PUSH1 0x40 MLOAD PUSH32 0x8C379A000000000000000000000000000000000000000000000000000000000 DUP2 MSTORE PUSH1 0x4 ADD PUSH2 0xCD2 SWAP1 PUSH2 0x4DD6 JUMP JUMPDEST PUSH1 0x40 MLOAD DUP1 SWAP2 SUB SWAP1 REVERT JUMPDEST PUSH1 0xC PUSH0 SWAP1 SLOAD SWAP1 PUSH2 0x100 EXP SWAP1 DIV PUSH20 0xFFFFFFFFFFFFFFFFFFFFFFFFFFFFFFFFFFFFFFFF AND PUSH20 0xFFFFFFFFFFFFFFFFFFFFFFFFFFFFFFFFFFFFFFFF AND CALLER PUSH20 0xFFFFFFFFFFFFFFFFFFFFFFFFFFFFFFFFFFFFFFFF AND EQ PUSH2 0xD6A JUMPI PUSH1 0x40 MLOAD PUSH32 0x8C379A000000000000000000000000000000000000000000000000000000000 DUP2 MSTORE PUSH1 0x4 ADD PUSH2 0xD61 SWAP1 PUSH2 0x4E3E JUMP JUMPDEST PUSH1 0x40 MLOAD DUP1 SWAP2 SUB SWAP1 REVERT JUMPDEST PUSH1 0x1 PUSH1 0xC PUSH1 0xFF AND PUSH1 0x10 SLOAD PUSH2 0xD7E SWAP2 SWAP1 PUSH2 0x4E5C JUMP JUMPDEST PUSH2 0xD88 SWAP2 SWAP1 PUSH2 0x4E5C JUMP JUMPDEST NUMBER LT ISZERO PUSH2 0xDCA JUMPI PUSH1 0x40 MLOAD PUSH32 0x8C379A000000000000000000000000000000000000000000000000000000000 DUP2 MSTORE PUSH1 0x4 ADD PUSH2 0xDC1 SWAP1 PUSH2 0x4ED9 JUMP JUMPDEST PUSH1 0x40 MLOAD DUP1 SWAP2 SUB SWAP1 REVERT JUMPDEST PUSH0 PUSH1 0x1 PUSH1 0x10 SLOAD PUSH2 0xDDA SWAP2 SWAP1 PUSH2 0x4E5C JUMP JUMPDEST BLOCKHASH SWAP1 POP PUSH0 PUSH1 0xC PUSH0 SWAP1 SLOAD SWAP1 PUSH2 0x100 EXP SWAP1 DIV PUSH20 0xFFFFFFFFFFFFFFFFFFFFFFFFFFFFFFFFFFFFFFFF AND PUSH1 0x40 MLOAD PUSH1 0x20 ADD PUSH2 0xE10 SWAP2 SWAP1 PUSH2 0x4F3C JUMP JUMPDEST PUSH1 0x40 MLOAD PUSH1 0x20 DUP2 DUP4 SUB SUB DUP2 MSTORE SWAP1 PUSH1 0x40 MSTORE SWAP1 POP PUSH0 JUMPDEST PUSH1 0xF DUP1 SLOAD SWAP1 POP DUP2 LT ISZERO PUSH2 0xEA2 JUMPI DUP2 PUSH1 0xF DUP3 DUP2 SLOAD DUP2 LT PUSH2 0xE45 JUMPI PUSH2 0xE44 PUSH2 0x4CFA JUMP JUMPDEST JUMPDEST SWAP1 PUSH0 MSTORE PUSH1 0x20 PUSH0 KECCAK256 SWAP1 PUSH1 0x2 MUL ADD PUSH0 ADD PUSH0 SWAP1 SLOAD SWAP1 PUSH2 0x100 EXP SWAP1 DIV PUSH20 0xFFFFFFFFFFFFFFFFFFFFFFFFFFFFFFFFFFFFFFFF AND PUSH1 0x40 MLOAD PUSH1 0x20 ADD PUSH2 0xE84 SWAP3 SWAP2 SWAP1 PUSH2 0x4FA8 JUMP JUMPDEST PUSH1 0x40 MLOAD PUSH1 0x20 DUP2 DUP4 SUB SUB DUP2 MSTORE SWAP1 PUSH1 0x40 MSTORE SWAP2 POP DUP1 DUP1 PUSH1 0x1 ADD SWAP2 POP POP PUSH2 0xE23 JUMP JUMPDEST POP PUSH0 DUP3 DUP3 PUSH1 0x40 MLOAD PUSH1 0x20 ADD PUSH2 0xEB7 SWAP3 SWAP2 SWAP1 PUSH2 0x4FF8 JUMP JUMPDEST PUSH1 0x40 MLOAD PUSH1 0x20 DUP2 DUP4 SUB SUB DUP2 MSTORE SWAP1 PUSH1 0x40 MSTORE DUP1 MLOAD SWAP1 PUSH1 0x20 ADD KECCAK256 SWAP1 POP PUSH0 DUP2 PUSH0 SHR SWAP1 POP PUSH1 0x26 PUSH1 0xFF AND DUP2 PUSH2 0xEE5 SWAP2 SWAP1 PUSH2 0x504C JUMP JUMPDEST PUSH1 0x11 PUSH0 PUSH2 0x100 EXP DUP2 SLOAD DUP2 PUSH1 0xFF MUL NOT AND SWAP1 DUP4 PUSH1 0xFF AND MUL OR SWAP1 SSTORE POP PUSH1 0x3 PUSH1 0xE PUSH0 PUSH2 0x100 EXP DUP2 SLOAD DUP2 PUSH1 0xFF MUL NOT AND SWAP1 DUP4 PUSH1 0xFF AND MUL OR SWAP1 SSTORE POP PUSH32 0x4898F0A86E5D5B202A6285B46DB8E265F964E837829F7D6BF7D1C072C6B88C09 PUSH1 0x11 PUSH0 SWAP1 SLOAD SWAP1 PUSH2 0x100 EXP SWAP1 DIV PUSH1 0xFF AND PUSH1 0x40 MLOAD PUSH2 0xF56 SWAP2 SWAP1 PUSH2 0x4C2C JUMP JUMPDEST PUSH1 0x40 MLOAD DUP1 SWAP2 SUB SWAP1 LOG1 POP POP POP POP JUMP JUMPDEST PUSH1 0xB DUP2 PUSH1 0xC DUP2 LT PUSH2 0xF73 JUMPI PUSH0 DUP1 REVERT JUMPDEST PUSH1 0x20 SWAP2 DUP3 DUP3 DIV ADD SWAP2 SWAP1 MOD SWAP2 POP SLOAD SWAP1 PUSH2 0x100 EXP SWAP1 DIV PUSH1 0xFF AND DUP2 JUMP JUMPDEST PUSH1 0xE PUSH0 SWAP1 SLOAD SWAP1 PUSH2 0x100 EXP SWAP1 DIV PUSH1 0xFF AND DUP2 JUMP JUMPDEST PUSH1 0xF DUP2 DUP2 SLOAD DUP2 LT PUSH2 0xFAE JUMPI PUSH0 DUP1 REVERT JUMPDEST SWAP1 PUSH0 MSTORE PUSH1 0x20 PUSH0 KECCAK256 SWAP1 PUSH1 0x2 MUL ADD PUSH0 SWAP2 POP SWAP1 POP DUP1 PUSH0 ADD PUSH0 SWAP1 SLOAD SWAP1 PUSH2 0x100 EXP SWAP1 DIV PUSH20 0xFFFFFFFFFFFFFFFFFFFFFFFFFFFFFFFFFFFFFFFF AND SWAP1 DUP1 PUSH0 ADD PUSH1 0x14 SWAP1 SLOAD SWAP1 PUSH2 0x100 EXP SWAP1 DIV PUSH1 0xFF AND SWAP1 DUP1 PUSH1 0x1 ADD SLOAD SWAP1 POP DUP4 JUMP JUMPDEST PUSH1 0x2 DUP2 PUSH1 0x12 DUP2 LT PUSH2 0x100E JUMPI PUSH0 DUP1 REVERT JUMPDEST PUSH1 0x20 SWAP2 DUP3 DUP3 DIV ADD SWAP2 SWAP1 MOD SWAP2 POP SLOAD SWAP1 PUSH2 0x100 EXP SWAP1 DIV PUSH1 0xFF AND DUP2 JUMP JUMPDEST PUSH0 DUP1 PUSH0 SWAP1 POP JUMPDEST PUSH1 0xC DUP2 PUSH1 0xFF AND LT ISZERO PUSH2 0x1090 JUMPI DUP3 PUSH1 0xFF AND PUSH1 0xA DUP3 PUSH1 0xFF AND PUSH1 0xC DUP2 LT PUSH2 0x1055 JUMPI PUSH2 0x1054 PUSH2 0x4CFA JUMP JUMPDEST JUMPDEST PUSH1 0x20 SWAP2 DUP3 DUP3 DIV ADD SWAP2 SWAP1 MOD SWAP1 SLOAD SWAP1 PUSH2 0x100 EXP SWAP1 DIV PUSH1 0xFF AND PUSH1 0xFF AND SUB PUSH2 0x107D JUMPI PUSH1 0x1 SWAP2 POP POP PUSH2 0x1095 JUMP JUMPDEST DUP1 DUP1 PUSH2 0x1088 SWAP1 PUSH2 0x4D54 JUMP JUMPDEST SWAP2 POP POP PUSH2 0x102E JUMP JUMPDEST POP PUSH0 SWAP1 POP JUMPDEST SWAP2 SWAP1 POP JUMP JUMPDEST PUSH0 DUP1 PUSH0 SWAP1 POP JUMPDEST PUSH1 0x12 DUP2 PUSH1 0xFF AND LT ISZERO PUSH2 0x1102 JUMPI DUP3 PUSH1 0xFF AND PUSH1 0x4 DUP3 PUSH1 0xFF AND PUSH1 0x12 DUP2 LT PUSH2 0x10C7 JUMPI PUSH2 0x10C6 PUSH2 0x4CFA JUMP JUMPDEST JUMPDEST PUSH1 0x20 SWAP2 DUP3 DUP3 DIV ADD SWAP2 SWAP1 MOD SWAP1 SLOAD SWAP1 PUSH2 0x100 EXP SWAP1 DIV PUSH1 0xFF AND PUSH1 0xFF AND SUB PUSH2 0x10EF JUMPI PUSH1 0x1 SWAP2 POP POP PUSH2 0x1107 JUMP JUMPDEST DUP1 DUP1 PUSH2 0x10FA SWAP1 PUSH2 0x4D54 JUMP JUMPDEST SWAP2 POP POP PUSH2 0x10A0 JUMP JUMPDEST POP PUSH0 SWAP1 POP JUMPDEST SWAP2 SWAP1 POP JUMP JUMPDEST PUSH1 0x15 SLOAD DUP2 JUMP JUMPDEST PUSH1 0x11 PUSH1 0x1 SWAP1 SLOAD SWAP1 PUSH2 0x100 EXP SWAP1 DIV PUSH1 0xFF AND DUP2 JUMP JUMPDEST PUSH1 0xA DUP2 PUSH1 0xC DUP2 LT PUSH2 0x1134 JUMPI PUSH0 DUP1 REVERT JUMPDEST PUSH1 0x20 SWAP2 DUP3 DUP3 DIV ADD SWAP2 SWAP1 MOD SWAP2 POP SLOAD SWAP1 PUSH2 0x100 EXP SWAP1 DIV PUSH1 0xFF AND DUP2 JUMP JUMPDEST PUSH1 0x12 DUP2 DUP2 SLOAD DUP2 LT PUSH2 0x115D JUMPI PUSH0 DUP1 REVERT JUMPDEST SWAP1 PUSH0 MSTORE PUSH1 0x20 PUSH0 KECCAK256 ADD PUSH0 SWAP2 POP SLOAD SWAP1 PUSH2 0x100 EXP SWAP1 DIV PUSH20 0xFFFFFFFFFFFFFFFFFFFFFFFFFFFFFFFFFFFFFFFF AND DUP2 JUMP JUMPDEST PUSH1 0x3 PUSH1 0xFF AND PUSH1 0xE PUSH0 SWAP1 SLOAD SWAP1 PUSH2 0x100 EXP SWAP1 DIV PUSH1 0xFF AND PUSH1 0xFF AND EQ PUSH2 0x11E0 JUMPI PUSH1 0x40 MLOAD PUSH32 0x8C379A000000000000000000000000000000000000000000000000000000000 DUP2 MSTORE PUSH1 0x4 ADD PUSH2 0x11D7 SWAP1 PUSH2 0x50C6 JUMP JUMPDEST PUSH1 0x40 MLOAD DUP1 SWAP2 SUB SWAP1 REVERT JUMPDEST PUSH1 0x1 PUSH1 0xC PUSH1 0xFF AND PUSH1 0x10 SLOAD PUSH2 0x11F4 SWAP2 SWAP1 PUSH2 0x4E5C JUMP JUMPDEST PUSH2 0x11FE SWAP2 SWAP1 PUSH2 0x4E5C JUMP JUMPDEST NUMBER LT ISZERO PUSH2 0x1240 JUMPI PUSH1 0x40 MLOAD PUSH32 0x8C379A000000000000000000000000000000000000000000000000000000000 DUP2 MSTORE PUSH1 0x4 ADD PUSH2 0x1237 SWAP1 PUSH2 0x5154 JUMP JUMPDEST PUSH1 0x40 MLOAD DUP1 SWAP2 SUB SWAP1 REVERT JUMPDEST PUSH2 0x1249 CALLER PUSH2 0x3F63 JUMP JUMPDEST PUSH2 0x1288 JUMPI PUSH1 0x40 MLOAD PUSH32 0x8C379A000000000000000000000000000000000000000000000000000000000 DUP2 MSTORE PUSH1 0x4 ADD PUSH2 0x127F SWAP1 PUSH2 0x51BC JUMP JUMPDEST PUSH1 0x40 MLOAD DUP1 SWAP2 SUB SWAP1 REVERT JUMPDEST PUSH0 PUSH1 0x1 PUSH1 0x10 SLOAD PUSH2 0x1298 SWAP2 SWAP1 PUSH2 0x4E5C JUMP JUMPDEST SWAP1 POP PUSH0 DUP2 BLOCKHASH SWAP1 POP PUSH32 0x9CFF65D26C2C9E31C3DDF370EEC9DCC1327976F78B3EEBF97CFD37ADC448CC35 PUSH1 0x1 PUSH2 0x12CB DUP5 PUSH2 0x4005 JUMP JUMPDEST PUSH2 0x12D4 DUP5 PUSH2 0x4165 JUMP JUMPDEST PUSH1 0x40 MLOAD PUSH1 0x20 ADD PUSH2 0x12E5 SWAP3 SWAP2 SWAP1 PUSH2 0x52FC JUMP JUMPDEST PUSH1 0x40 MLOAD PUSH1 0x20 DUP2 DUP4 SUB SUB DUP2 MSTORE SWAP1 PUSH1 0x40 MSTORE DUP5 DUP5 PUSH1 0x40 MLOAD PUSH1 0x20 ADD PUSH2 0x1307 SWAP3 SWAP2 SWAP1 PUSH2 0x534F JUMP JUMPDEST PUSH1 0x40 MLOAD PUSH1 0x20 DUP2 DUP4 SUB SUB DUP2 MSTORE SWAP1 PUSH1 0x40 MSTORE PUSH1 0x40 MLOAD PUSH2 0x1325 SWAP4 SWAP3 SWAP2 SWAP1 PUSH2 0x5448 JUMP JUMPDEST PUSH1 0x40 MLOAD DUP1 SWAP2 SUB SWAP1 LOG1 PUSH0 PUSH1 0x1 PUSH1 0xF DUP1 SLOAD SWAP1 POP PUSH2 0x1340 SWAP2 SWAP1 PUSH2 0x4E5C JUMP JUMPDEST PUSH8 0xFFFFFFFFFFFFFFFF DUP2 GT ISZERO PUSH2 0x1359 JUMPI PUSH2 0x1358 PUSH2 0x548B JUMP JUMPDEST JUMPDEST PUSH1 0x40 MLOAD SWAP1 DUP1 DUP3 MSTORE DUP1 PUSH1 0x20 MUL PUSH1 0x20 ADD DUP3 ADD PUSH1 0x40 MSTORE DUP1 ISZERO PUSH2 0x1387 JUMPI DUP2 PUSH1 0x20 ADD PUSH1 0x20 DUP3 MUL DUP1 CALLDATASIZE DUP4 CALLDATACOPY DUP1 DUP3 ADD SWAP2 POP POP SWAP1 POP JUMPDEST POP SWAP1 POP PUSH1 0xC PUSH0 SWAP1 SLOAD SWAP1 PUSH2 0x100 EXP SWAP1 DIV PUSH20 0xFFFFFFFFFFFFFFFFFFFFFFFFFFFFFFFFFFFFFFFF AND DUP2 PUSH0 DUP2 MLOAD DUP2 LT PUSH2 0x13BF JUMPI PUSH2 0x13BE PUSH2 0x4CFA JUMP JUMPDEST JUMPDEST PUSH1 0x20 MUL PUSH1 0x20 ADD ADD SWAP1 PUSH20 0xFFFFFFFFFFFFFFFFFFFFFFFFFFFFFFFFFFFFFFFF AND SWAP1 DUP2 PUSH20 0xFFFFFFFFFFFFFFFFFFFFFFFFFFFFFFFFFFFFFFFF AND DUP2 MSTORE POP POP PUSH0 JUMPDEST PUSH1 0xF DUP1 SLOAD SWAP1 POP DUP2 LT ISZERO PUSH2 0x14B0 JUMPI PUSH1 0xF DUP2 DUP2 SLOAD DUP2 LT PUSH2 0x141C JUMPI PUSH2 0x141B PUSH2 0x4CFA JUMP JUMPDEST JUMPDEST SWAP1 PUSH0 MSTORE PUSH1 0x20 PUSH0 KECCAK256 SWAP1 PUSH1 0x2 MUL ADD PUSH0 ADD PUSH0 SWAP1 SLOAD SWAP1 PUSH2 0x100 EXP SWAP1 DIV PUSH20 0xFFFFFFFFFFFFFFFFFFFFFFFFFFFFFFFFFFFFFFFF AND DUP3 PUSH1 0x1 DUP4 PUSH2 0x1458 SWAP2 SWAP1 PUSH2 0x4E5C JUMP JUMPDEST DUP2 MLOAD DUP2 LT PUSH2 0x1469 JUMPI PUSH2 0x1468 PUSH2 0x4CFA JUMP JUMPDEST JUMPDEST PUSH1 0x20 MUL PUSH1 0x20 ADD ADD SWAP1 PUSH20 0xFFFFFFFFFFFFFFFFFFFFFFFFFFFFFFFFFFFFFFFF AND SWAP1 DUP2 PUSH20 0xFFFFFFFFFFFFFFFFFFFFFFFFFFFFFFFFFFFFFFFF AND DUP2 MSTORE POP POP DUP1 DUP1 PUSH1 0x1 ADD SWAP2 POP POP PUSH2 0x13FB JUMP JUMPDEST POP PUSH0 PUSH2 0x14BB DUP3 PUSH2 0x442B JUMP JUMPDEST SWAP1 POP PUSH0 PUSH1 0xC PUSH0 SWAP1 SLOAD SWAP1 PUSH2 0x100 EXP SWAP1 DIV PUSH20 0xFFFFFFFFFFFFFFFFFFFFFFFFFFFFFFFFFFFFFFFF AND PUSH1 0x40 MLOAD PUSH1 0x20 ADD PUSH2 0x14F0 SWAP2 SWAP1 PUSH2 0x4F3C JUMP JUMPDEST PUSH1 0x40 MLOAD PUSH1 0x20 DUP2 DUP4 SUB SUB DUP2 MSTORE SWAP1 PUSH1 0x40 MSTORE SWAP1 POP PUSH0 JUMPDEST PUSH1 0xF DUP1 SLOAD SWAP1 POP DUP2 LT ISZERO PUSH2 0x1582 JUMPI DUP2 PUSH1 0xF DUP3 DUP2 SLOAD DUP2 LT PUSH2 0x1525 JUMPI PUSH2 0x1524 PUSH2 0x4CFA JUMP JUMPDEST JUMPDEST SWAP1 PUSH0 MSTORE PUSH1 0x20 PUSH0 KECCAK256 SWAP1 PUSH1 0x2 MUL ADD PUSH0 ADD PUSH0 SWAP1 SLOAD SWAP1 PUSH2 0x100 EXP SWAP1 DIV PUSH20 0xFFFFFFFFFFFFFFFFFFFFFFFFFFFFFFFFFFFFFFFF AND PUSH1 0x40 MLOAD PUSH1 0x20 ADD PUSH2 0x1564 SWAP3 SWAP2 SWAP1 PUSH2 0x4FA8 JUMP JUMPDEST PUSH1 0x40 MLOAD PUSH1 0x20 DUP2 DUP4 SUB SUB DUP2 MSTORE SWAP1 PUSH1 0x40 MSTORE SWAP2 POP DUP1 DUP1 PUSH1 0x1 ADD SWAP2 POP POP PUSH2 0x1503 JUMP JUMPDEST POP PUSH32 0x9CFF65D26C2C9E31C3DDF370EEC9DCC1327976F78B3EEBF97CFD37ADC448CC35 PUSH1 0x2 DUP4 PUSH1 0x40 MLOAD PUSH1 0x20 ADD PUSH2 0x15B7 SWAP2 SWAP1 PUSH2 0x5502 JUMP JUMPDEST PUSH1 0x40 MLOAD PUSH1 0x20 DUP2 DUP4 SUB SUB DUP2 MSTORE SWAP1 PUSH1 0x40 MSTORE DUP6 PUSH1 0x40 MLOAD PUSH1 0x20 ADD PUSH2 0x15D7 SWAP2 SWAP1 PUSH2 0x55DA JUMP JUMPDEST PUSH1 0x40 MLOAD PUSH1 0x20 DUP2 DUP4 SUB SUB DUP2 MSTORE SWAP1 PUSH1 0x40 MSTORE PUSH1 0x40 MLOAD PUSH2 0x15F5 SWAP4 SWAP3 SWAP2 SWAP1 PUSH2 0x5633 JUMP JUMPDEST PUSH1 0x40 MLOAD DUP1 SWAP2 SUB SWAP1 LOG1 PUSH32 0x9CFF65D26C2C9E31C3DDF370EEC9DCC1327976F78B3EEBF97CFD37ADC448CC35 PUSH1 0x3 PUSH2 0x1629 DUP4 PUSH2 0x456E JUMP JUMPDEST PUSH1 0x40 MLOAD PUSH1 0x20 ADD PUSH2 0x1639 SWAP2 SWAP1 PUSH2 0x56E6 JUMP JUMPDEST PUSH1 0x40 MLOAD PUSH1 0x20 DUP2 DUP4 SUB SUB DUP2 MSTORE SWAP1 PUSH1 0x40 MSTORE DUP4 PUSH1 0x40 MLOAD PUSH2 0x1658 SWAP4 SWAP3 SWAP2 SWAP1 PUSH2 0x5740 JUMP JUMPDEST PUSH1 0x40 MLOAD DUP1 SWAP2 SUB SWAP1 LOG1 PUSH0 DUP5 DUP3 PUSH1 0x40 MLOAD PUSH1 0x20 ADD PUSH2 0x1674 SWAP3 SWAP2 SWAP1 PUSH2 0x4FF8 JUMP JUMPDEST PUSH1 0x40 MLOAD PUSH1 0x20 DUP2 DUP4 SUB SUB DUP2 MSTORE SWAP1 PUSH1 0x40 MSTORE DUP1 MLOAD SWAP1 PUSH1 0x20 ADD KECCAK256 SWAP1 POP PUSH32 0x9CFF65D26C2C9E31C3DDF370EEC9DCC1327976F78B3EEBF97CFD37ADC448CC35 PUSH1 0x4 PUSH2 0x16B8 DUP4 PUSH2 0x4165 JUMP JUMPDEST PUSH1 0x40 MLOAD PUSH1 0x20 ADD PUSH2 0x16C8 SWAP2 SWAP1 PUSH2 0x57F3 JUMP JUMPDEST PUSH1 0x40 MLOAD PUSH1 0x20 DUP2 DUP4 SUB SUB DUP2 MSTORE SWAP1 PUSH1 0x40 MSTORE DUP4 PUSH1 0x40 MLOAD PUSH1 0x20 ADD PUSH2 0x16E8 SWAP2 SWAP1 PUSH2 0x5814 JUMP JUMPDEST PUSH1 0x40 MLOAD PUSH1 0x20 DUP2 DUP4 SUB SUB DUP2 MSTORE SWAP1 PUSH1 0x40 MSTORE PUSH1 0x40 MLOAD PUSH2 0x1706 SWAP4 SWAP3 SWAP2 SWAP1 PUSH2 0x5866 JUMP JUMPDEST PUSH1 0x40 MLOAD DUP1 SWAP2 SUB SWAP1 LOG1 PUSH0 DUP2 PUSH0 SHR SWAP1 POP PUSH0 PUSH1 0x26 PUSH1 0xFF AND DUP3 PUSH2 0x1725 SWAP2 SWAP1 PUSH2 0x504C JUMP JUMPDEST SWAP1 POP PUSH32 0x9CFF65D26C2C9E31C3DDF370EEC9DCC1327976F78B3EEBF97CFD37ADC448CC35 PUSH1 0x5 PUSH2 0x1757 PUSH1 0x26 PUSH1 0xFF AND PUSH2 0x4005 JUMP JUMPDEST PUSH2 0x1763 DUP5 PUSH1 0xFF AND PUSH2 0x4005 JUMP JUMPDEST PUSH1 0x40 MLOAD PUSH1 0x20 ADD PUSH2 0x1774 SWAP3 SWAP2 SWAP1 PUSH2 0x593D JUMP JUMPDEST PUSH1 0x40 MLOAD PUSH1 0x20 DUP2 DUP4 SUB SUB DUP2 MSTORE SWAP1 PUSH1 0x40 MSTORE DUP4 PUSH1 0x40 MLOAD PUSH1 0x20 ADD PUSH2 0x1794 SWAP2 SWAP1 PUSH2 0x4C2C JUMP JUMPDEST PUSH1 0x40 MLOAD PUSH1 0x20 DUP2 DUP4 SUB SUB DUP2 MSTORE SWAP1 PUSH1 0x40 MSTORE PUSH1 0x40 MLOAD PUSH2 0x17B2 SWAP4 SWAP3 SWAP2 SWAP1 PUSH2 0x59AF JUMP JUMPDEST PUSH1 0x40 MLOAD DUP1 SWAP2 SUB SWAP1 LOG1 PUSH1 0x11 PUSH0 SWAP1 SLOAD SWAP1 PUSH2 0x100 EXP SWAP1 DIV PUSH1 0xFF AND PUSH1 0xFF AND DUP2 PUSH1 0xFF AND EQ PUSH2 0x1810 JUMPI PUSH1 0x40 MLOAD PUSH32 0x8C379A000000000000000000000000000000000000000000000000000000000 DUP2 MSTORE PUSH1 0x4 ADD PUSH2 0x1807 SWAP1 PUSH2 0x5A62 JUMP JUMPDEST PUSH1 0x40 MLOAD DUP1 SWAP2 SUB SWAP1 REVERT JUMPDEST PUSH1 0x13 CALLER SWAP1 DUP1 PUSH1 0x1 DUP2 SLOAD ADD DUP1 DUP3 SSTORE DUP1 SWAP2 POP POP PUSH1 0x1 SWAP1 SUB SWAP1 PUSH0 MSTORE PUSH1 0x20 PUSH0 KECCAK256 ADD PUSH0 SWAP1 SWAP2 SWAP1 SWAP2 SWAP1 SWAP2 PUSH2 0x100 EXP DUP2 SLOAD DUP2 PUSH20 0xFFFFFFFFFFFFFFFFFFFFFFFFFFFFFFFFFFFFFFFF MUL NOT AND SWAP1 DUP4 PUSH20 0xFFFFFFFFFFFFFFFFFFFFFFFFFFFFFFFFFFFFFFFF AND MUL OR SWAP1 SSTORE POP PUSH1 0x11 PUSH1 0x1 SWAP1 SLOAD SWAP1 PUSH2 0x100 EXP SWAP1 DIV PUSH1 0xFF AND PUSH1 0xFF AND PUSH1 0x13 DUP1 SLOAD SWAP1 POP LT PUSH2 0x18F7 JUMPI PUSH32 0x5F438D100D0C0FB18E88113110BF411FD18C9A557C03E394CD32997B5055F9AE PUSH1 0x11 PUSH0 SWAP1 SLOAD SWAP1 PUSH2 0x100 EXP SWAP1 DIV PUSH1 0xFF AND PUSH1 0x40 MLOAD PUSH2 0x18CB SWAP2 SWAP1 PUSH2 0x4C2C JUMP JUMPDEST PUSH1 0x40 MLOAD DUP1 SWAP2 SUB SWAP1 LOG1 PUSH1 0x4 PUSH1 0xE PUSH0 PUSH2 0x100 EXP DUP2 SLOAD DUP2 PUSH1 0xFF MUL NOT AND SWAP1 DUP4 PUSH1 0xFF AND MUL OR SWAP1 SSTORE POP PUSH2 0x18F6 PUSH2 0x1CA4 JUMP JUMPDEST JUMPDEST POP POP POP POP POP POP POP POP JUMP JUMPDEST PUSH1 0x31 DUP2 PUSH1 0xFF AND GT ISZERO PUSH2 0x1948 JUMPI PUSH1 0x40 MLOAD PUSH32 0x8C379A000000000000000000000000000000000000000000000000000000000 DUP2 MSTORE PUSH1 0x4 ADD PUSH2 0x193F SWAP1 PUSH2 0x5ACA JUMP JUMPDEST PUSH1 0x40 MLOAD DUP1 SWAP2 SUB SWAP1 REVERT JUMPDEST PUSH1 0xD SLOAD CALLVALUE LT ISZERO PUSH2 0x198D JUMPI PUSH1 0x40 MLOAD PUSH32 0x8C379A000000000000000000000000000000000000000000000000000000000 DUP2 MSTORE PUSH1 0x4 ADD PUSH2 0x1984 SWAP1 PUSH2 0x5B58 JUMP JUMPDEST PUSH1 0x40 MLOAD DUP1 SWAP2 SUB SWAP1 REVERT JUMPDEST PUSH1 0x64 PUSH2 0xE74 SELFBALANCE PUSH2 0x199D SWAP2 SWAP1 PUSH2 0x5B76 JUMP JUMPDEST PUSH2 0x19A7 SWAP2 SWAP1 PUSH2 0x5BB7 JUMP JUMPDEST CALLVALUE LT PUSH2 0x19E8 JUMPI PUSH1 0x40 MLOAD PUSH32 0x8C379A000000000000000000000000000000000000000000000000000000000 DUP2 MSTORE PUSH1 0x4 ADD PUSH2 0x19DF SWAP1 PUSH2 0x5C57 JUMP JUMPDEST PUSH1 0x40 MLOAD DUP1 SWAP2 SUB SWAP1 REVERT JUMPDEST PUSH1 0xF PUSH1 0x40 MLOAD DUP1 PUSH1 0x60 ADD PUSH1 0x40 MSTORE DUP1 CALLER PUSH20 0xFFFFFFFFFFFFFFFFFFFFFFFFFFFFFFFFFFFFFFFF AND DUP2 MSTORE PUSH1 0x20 ADD DUP4 PUSH1 0xFF AND DUP2 MSTORE PUSH1 0x20 ADD CALLVALUE DUP2 MSTORE POP SWAP1 DUP1 PUSH1 0x1 DUP2 SLOAD ADD DUP1 DUP3 SSTORE DUP1 SWAP2 POP POP PUSH1 0x1 SWAP1 SUB SWAP1 PUSH0 MSTORE PUSH1 0x20 PUSH0 KECCAK256 SWAP1 PUSH1 0x2 MUL ADD PUSH0 SWAP1 SWAP2 SWAP1 SWAP2 SWAP1 SWAP2 POP PUSH0 DUP3 ADD MLOAD DUP2 PUSH0 ADD PUSH0 PUSH2 0x100 EXP DUP2 SLOAD DUP2 PUSH20 0xFFFFFFFFFFFFFFFFFFFFFFFFFFFFFFFFFFFFFFFF MUL NOT AND SWAP1 DUP4 PUSH20 0xFFFFFFFFFFFFFFFFFFFFFFFFFFFFFFFFFFFFFFFF AND MUL OR SWAP1 SSTORE POP PUSH1 0x20 DUP3 ADD MLOAD DUP2 PUSH0 ADD PUSH1 0x14 PUSH2 0x100 EXP DUP2 SLOAD DUP2 PUSH1 0xFF MUL NOT AND SWAP1 DUP4 PUSH1 0xFF AND MUL OR SWAP1 SSTORE POP PUSH1 0x40 DUP3 ADD MLOAD DUP2 PUSH1 0x1 ADD SSTORE POP POP CALLER PUSH20 0xFFFFFFFFFFFFFFFFFFFFFFFFFFFFFFFFFFFFFFFF AND PUSH32 0x9F6B4CCED64244A64465098F682029975B1614400B96BC6BD12C668083719166 DUP3 CALLVALUE PUSH1 0x40 MLOAD PUSH2 0x1AFC SWAP3 SWAP2 SWAP1 PUSH2 0x5C75 JUMP JUMPDEST PUSH1 0x40 MLOAD DUP1 SWAP2 SUB SWAP1 LOG2 PUSH2 0x1B0C PUSH2 0xBD0 JUMP JUMPDEST POP JUMP JUMPDEST PUSH0 DUP1 PUSH0 SWAP1 POP JUMPDEST PUSH1 0x12 DUP2 PUSH1 0xFF AND LT ISZERO PUSH2 0x1B77 JUMPI DUP3 PUSH1 0xFF AND PUSH1 0x2 DUP3 PUSH1 0xFF AND PUSH1 0x12 DUP2 LT PUSH2 0x1B3C JUMPI PUSH2 0x1B3B PUSH2 0x4CFA JUMP JUMPDEST JUMPDEST PUSH1 0x20 SWAP2 DUP3 DUP3 DIV ADD SWAP2 SWAP1 MOD SWAP1 SLOAD SWAP1 PUSH2 0x100 EXP SWAP1 DIV PUSH1 0xFF AND PUSH1 0xFF AND SUB PUSH2 0x1B64 JUMPI PUSH1 0x1 SWAP2 POP POP PUSH2 0x1B7C JUMP JUMPDEST DUP1 DUP1 PUSH2 0x1B6F SWAP1 PUSH2 0x4D54 JUMP JUMPDEST SWAP2 POP POP PUSH2 0x1B15 JUMP JUMPDEST POP PUSH0 SWAP1 POP JUMPDEST SWAP2 SWAP1 POP JUMP JUMPDEST PUSH0 DUP1 PUSH0 SWAP1 POP JUMPDEST PUSH1 0xC DUP2 PUSH1 0xFF AND LT ISZERO PUSH2 0x1BE9 JUMPI DUP3 PUSH1 0xFF AND PUSH1 0x9 DUP3 PUSH1 0xFF AND PUSH1 0xC DUP2 LT PUSH2 0x1BAE JUMPI PUSH2 0x1BAD PUSH2 0x4CFA JUMP JUMPDEST JUMPDEST PUSH1 0x20 SWAP2 DUP3 DUP3 DIV ADD SWAP2 SWAP1 MOD SWAP1 SLOAD SWAP1 PUSH2 0x100 EXP SWAP1 DIV PUSH1 0xFF AND PUSH1 0xFF AND SUB PUSH2 0x1BD6 JUMPI PUSH1 0x1 SWAP2 POP POP PUSH2 0x1BEE JUMP JUMPDEST DUP1 DUP1 PUSH2 0x1BE1 SWAP1 PUSH2 0x4D54 JUMP JUMPDEST SWAP2 POP POP PUSH2 0x1B87 JUMP JUMPDEST POP PUSH0 SWAP1 POP JUMPDEST SWAP2 SWAP1 POP JUMP JUMPDEST PUSH0 PUSH1 0xE PUSH0 SWAP1 SLOAD SWAP1 PUSH2 0x100 EXP SWAP1 DIV PUSH1 0xFF AND SWAP1 POP SWAP1 JUMP JUMPDEST PUSH0 DUP1 PUSH0 SWAP1 POP JUMPDEST PUSH1 0x12 DUP2 PUSH1 0xFF AND LT ISZERO PUSH2 0x1C70 JUMPI DUP3 PUSH1 0xFF AND PUSH1 0x3 DUP3 PUSH1 0xFF AND PUSH1 0x12 DUP2 LT PUSH2 0x1C35 JUMPI PUSH2 0x1C34 PUSH2 0x4CFA JUMP JUMPDEST JUMPDEST PUSH1 0x20 SWAP2 DUP3 DUP3 DIV ADD SWAP2 SWAP1 MOD SWAP1 SLOAD SWAP1 PUSH2 0x100 EXP SWAP1 DIV PUSH1 0xFF AND PUSH1 0xFF AND SUB PUSH2 0x1C5D JUMPI PUSH1 0x1 SWAP2 POP POP PUSH2 0x1C75 JUMP JUMPDEST DUP1 DUP1 PUSH2 0x1C68 SWAP1 PUSH2 0x4D54 JUMP JUMPDEST SWAP2 POP POP PUSH2 0x1C0E JUMP JUMPDEST POP PUSH0 SWAP1 POP JUMPDEST SWAP2 SWAP1 POP JUMP JUMPDEST PUSH1 0x11 PUSH0 SWAP1 SLOAD SWAP1 PUSH2 0x100 EXP SWAP1 DIV PUSH1 0xFF AND DUP2 JUMP JUMPDEST PUSH1 0x10 SLOAD DUP2 JUMP JUMPDEST PUSH1 0x14 SLOAD DUP2 JUMP JUMPDEST PUSH0 PUSH1 0xF DUP1 SLOAD SWAP1 POP SWAP1 POP SWAP1 JUMP JUMPDEST PUSH1 0x4 PUSH1 0xFF AND PUSH1 0xE PUSH0 SWAP1 SLOAD SWAP1 PUSH2 0x100 EXP SWAP1 DIV PUSH1 0xFF AND PUSH1 0xFF AND EQ PUSH2 0x1CFB JUMPI PUSH1 0x40 MLOAD PUSH32 0x8C379A000000000000000000000000000000000000000000000000000000000 DUP2 MSTORE PUSH1 0x4 ADD PUSH2 0x1CF2 SWAP1 PUSH2 0x5CE6 JUMP JUMPDEST PUSH1 0x40 MLOAD DUP1 SWAP2 SUB SWAP1 REVERT JUMPDEST PUSH0 JUMPDEST PUSH1 0xF DUP1 SLOAD SWAP1 POP DUP2 LT ISZERO PUSH2 0x38B3 JUMPI PUSH0 PUSH1 0xF DUP3 DUP2 SLOAD DUP2 LT PUSH2 0x1D1F JUMPI PUSH2 0x1D1E PUSH2 0x4CFA JUMP JUMPDEST JUMPDEST SWAP1 PUSH0 MSTORE PUSH1 0x20 PUSH0 KECCAK256 SWAP1 PUSH1 0x2 MUL ADD PUSH0 ADD PUSH1 0x14 SWAP1 SLOAD SWAP1 PUSH2 0x100 EXP SWAP1 DIV PUSH1 0xFF AND PUSH1 0xFF AND LT ISZERO DUP1 ISZERO PUSH2 0x1D7F JUMPI POP PUSH1 0x25 PUSH1 0xF DUP3 DUP2 SLOAD DUP2 LT PUSH2 0x1D5D JUMPI PUSH2 0x1D5C PUSH2 0x4CFA JUMP JUMPDEST JUMPDEST SWAP1 PUSH0 MSTORE PUSH1 0x20 PUSH0 KECCAK256 SWAP1 PUSH1 0x2 MUL ADD PUSH0 ADD PUSH1 0x14 SWAP1 SLOAD SWAP1 PUSH2 0x100 EXP SWAP1 DIV PUSH1 0xFF AND PUSH1 0xFF AND GT ISZERO JUMPDEST ISZERO PUSH2 0x1F91 JUMPI PUSH1 0x11 PUSH0 SWAP1 SLOAD SWAP1 PUSH2 0x100 EXP SWAP1 DIV PUSH1 0xFF AND PUSH1 0xFF AND PUSH1 0xF DUP3 DUP2 SLOAD DUP2 LT PUSH2 0x1DAA JUMPI PUSH2 0x1DA9 PUSH2 0x4CFA JUMP JUMPDEST JUMPDEST SWAP1 PUSH0 MSTORE PUSH1 0x20 PUSH0 KECCAK256 SWAP1 PUSH1 0x2 MUL ADD PUSH0 ADD PUSH1 0x14 SWAP1 SLOAD SWAP1 PUSH2 0x100 EXP SWAP1 DIV PUSH1 0xFF AND PUSH1 0xFF AND SUB PUSH2 0x1F8C JUMPI PUSH1 0xF DUP2 DUP2 SLOAD DUP2 LT PUSH2 0x1DE2 JUMPI PUSH2 0x1DE1 PUSH2 0x4CFA JUMP JUMPDEST JUMPDEST SWAP1 PUSH0 MSTORE PUSH1 0x20 PUSH0 KECCAK256 SWAP1 PUSH1 0x2 MUL ADD PUSH0 ADD PUSH0 SWAP1 SLOAD SWAP1 PUSH2 0x100 EXP SWAP1 DIV PUSH20 0xFFFFFFFFFFFFFFFFFFFFFFFFFFFFFFFFFFFFFFFF AND PUSH20 0xFFFFFFFFFFFFFFFFFFFFFFFFFFFFFFFFFFFFFFFF AND PUSH2 0x8FC PUSH1 0x64 PUSH2 0xE74 PUSH1 0xF DUP6 DUP2 SLOAD DUP2 LT PUSH2 0x1E42 JUMPI PUSH2 0x1E41 PUSH2 0x4CFA JUMP JUMPDEST JUMPDEST SWAP1 PUSH0 MSTORE PUSH1 0x20 PUSH0 KECCAK256 SWAP1 PUSH1 0x2 MUL ADD PUSH1 0x1 ADD SLOAD PUSH2 0x1E5C SWAP2 SWAP1 PUSH2 0x5B76 JUMP JUMPDEST PUSH2 0x1E66 SWAP2 SWAP1 PUSH2 0x5BB7 JUMP JUMPDEST SWAP1 DUP2 ISZERO MUL SWAP1 PUSH1 0x40 MLOAD PUSH0 PUSH1 0x40 MLOAD DUP1 DUP4 SUB DUP2 DUP6 DUP9 DUP9 CALL SWAP4 POP POP POP POP ISZERO DUP1 ISZERO PUSH2 0x1E8E JUMPI RETURNDATASIZE PUSH0 DUP1 RETURNDATACOPY RETURNDATASIZE PUSH0 REVERT JUMPDEST POP PUSH1 0xF DUP2 DUP2 SLOAD DUP2 LT PUSH2 0x1EA3 JUMPI PUSH2 0x1EA2 PUSH2 0x4CFA JUMP JUMPDEST JUMPDEST SWAP1 PUSH0 MSTORE PUSH1 0x20 PUSH0 KECCAK256 SWAP1 PUSH1 0x2 MUL ADD PUSH0 ADD PUSH0 SWAP1 SLOAD SWAP1 PUSH2 0x100 EXP SWAP1 DIV PUSH20 0xFFFFFFFFFFFFFFFFFFFFFFFFFFFFFFFFFFFFFFFF AND PUSH20 0xFFFFFFFFFFFFFFFFFFFFFFFFFFFFFFFFFFFFFFFF AND PUSH32 0xFEB6D77D8663B36B3393E8790540B4EBE73ADE87F3146E450022712344DC7B3B PUSH1 0xF DUP4 DUP2 SLOAD DUP2 LT PUSH2 0x1F1C JUMPI PUSH2 0x1F1B PUSH2 0x4CFA JUMP JUMPDEST JUMPDEST SWAP1 PUSH0 MSTORE PUSH1 0x20 PUSH0 KECCAK256 SWAP1 PUSH1 0x2 MUL ADD PUSH0 ADD PUSH1 0x14 SWAP1 SLOAD SWAP1 PUSH2 0x100 EXP SWAP1 DIV PUSH1 0xFF AND PUSH1 0x64 PUSH2 0xE74 PUSH1 0xF DUP7 DUP2 SLOAD DUP2 LT PUSH2 0x1F51 JUMPI PUSH2 0x1F50 PUSH2 0x4CFA JUMP JUMPDEST JUMPDEST SWAP1 PUSH0 MSTORE PUSH1 0x20 PUSH0 KECCAK256 SWAP1 PUSH1 0x2 MUL ADD PUSH1 0x1 ADD SLOAD PUSH2 0x1F6B SWAP2 SWAP1 PUSH2 0x5B76 JUMP JUMPDEST PUSH2 0x1F75 SWAP2 SWAP1 PUSH2 0x5BB7 JUMP JUMPDEST PUSH1 0x40 MLOAD PUSH2 0x1F83 SWAP3 SWAP2 SWAP1 PUSH2 0x5C75 JUMP JUMPDEST PUSH1 0x40 MLOAD DUP1 SWAP2 SUB SWAP1 LOG2 JUMPDEST PUSH2 0x38B3 JUMP JUMPDEST PUSH1 0x26 PUSH1 0xF DUP3 DUP2 SLOAD DUP2 LT PUSH2 0x1FA7 JUMPI PUSH2 0x1FA6 PUSH2 0x4CFA JUMP JUMPDEST JUMPDEST SWAP1 PUSH0 MSTORE PUSH1 0x20 PUSH0 KECCAK256 SWAP1 PUSH1 0x2 MUL ADD PUSH0 ADD PUSH1 0x14 SWAP1 SLOAD SWAP1 PUSH2 0x100 EXP SWAP1 DIV PUSH1 0xFF AND PUSH1 0xFF AND SUB PUSH2 0x21A8 JUMPI PUSH2 0x1FE2 PUSH1 0x11 PUSH0 SWAP1 SLOAD SWAP1 PUSH2 0x100 EXP SWAP1 DIV PUSH1 0xFF AND PUSH2 0x3A02 JUMP JUMPDEST ISZERO PUSH2 0x21A3 JUMPI PUSH1 0xF DUP2 DUP2 SLOAD DUP2 LT PUSH2 0x1FFB JUMPI PUSH2 0x1FFA PUSH2 0x4CFA JUMP JUMPDEST JUMPDEST SWAP1 PUSH0 MSTORE PUSH1 0x20 PUSH0 KECCAK256 SWAP1 PUSH1 0x2 MUL ADD PUSH0 ADD PUSH0 SWAP1 SLOAD SWAP1 PUSH2 0x100 EXP SWAP1 DIV PUSH20 0xFFFFFFFFFFFFFFFFFFFFFFFFFFFFFFFFFFFFFFFF AND PUSH20 0xFFFFFFFFFFFFFFFFFFFFFFFFFFFFFFFFFFFFFFFF AND PUSH2 0x8FC PUSH1 0x64 PUSH1 0x6F PUSH1 0xF DUP6 DUP2 SLOAD DUP2 LT PUSH2 0x205A JUMPI PUSH2 0x2059 PUSH2 0x4CFA JUMP JUMPDEST JUMPDEST SWAP1 PUSH0 MSTORE PUSH1 0x20 PUSH0 KECCAK256 SWAP1 PUSH1 0x2 MUL ADD PUSH1 0x1 ADD SLOAD PUSH2 0x2074 SWAP2 SWAP1 PUSH2 0x5B76 JUMP JUMPDEST PUSH2 0x207E SWAP2 SWAP1 PUSH2 0x5BB7 JUMP JUMPDEST SWAP1 DUP2 ISZERO MUL SWAP1 PUSH1 0x40 MLOAD PUSH0 PUSH1 0x40 MLOAD DUP1 DUP4 SUB DUP2 DUP6 DUP9 DUP9 CALL SWAP4 POP POP POP POP ISZERO DUP1 ISZERO PUSH2 0x20A6 JUMPI RETURNDATASIZE PUSH0 DUP1 RETURNDATACOPY RETURNDATASIZE PUSH0 REVERT JUMPDEST POP PUSH1 0xF DUP2 DUP2 SLOAD DUP2 LT PUSH2 0x20BB JUMPI PUSH2 0x20BA PUSH2 0x4CFA JUMP JUMPDEST JUMPDEST SWAP1 PUSH0 MSTORE PUSH1 0x20 PUSH0 KECCAK256 SWAP1 PUSH1 0x2 MUL ADD PUSH0 ADD PUSH0 SWAP1 SLOAD SWAP1 PUSH2 0x100 EXP SWAP1 DIV PUSH20 0xFFFFFFFFFFFFFFFFFFFFFFFFFFFFFFFFFFFFFFFF AND PUSH20 0xFFFFFFFFFFFFFFFFFFFFFFFFFFFFFFFFFFFFFFFF AND PUSH32 0xFEB6D77D8663B36B3393E8790540B4EBE73ADE87F3146E450022712344DC7B3B PUSH1 0xF DUP4 DUP2 SLOAD DUP2 LT PUSH2 0x2134 JUMPI PUSH2 0x2133 PUSH2 0x4CFA JUMP JUMPDEST JUMPDEST SWAP1 PUSH0 MSTORE PUSH1 0x20 PUSH0 KECCAK256 SWAP1 PUSH1 0x2 MUL ADD PUSH0 ADD PUSH1 0x14 SWAP1 SLOAD SWAP1 PUSH2 0x100 EXP SWAP1 DIV PUSH1 0xFF AND PUSH1 0x64 PUSH1 0x6F PUSH1 0xF DUP7 DUP2 SLOAD DUP2 LT PUSH2 0x2168 JUMPI PUSH2 0x2167 PUSH2 0x4CFA JUMP JUMPDEST JUMPDEST SWAP1 PUSH0 MSTORE PUSH1 0x20 PUSH0 KECCAK256 SWAP1 PUSH1 0x2 MUL ADD PUSH1 0x1 ADD SLOAD PUSH2 0x2182 SWAP2 SWAP1 PUSH2 0x5B76 JUMP JUMPDEST PUSH2 0x218C SWAP2 SWAP1 PUSH2 0x5BB7 JUMP JUMPDEST PUSH1 0x40 MLOAD PUSH2 0x219A SWAP3 SWAP2 SWAP1 PUSH2 0x5C75 JUMP JUMPDEST PUSH1 0x40 MLOAD DUP1 SWAP2 SUB SWAP1 LOG2 JUMPDEST PUSH2 0x38B3 JUMP JUMPDEST PUSH1 0x27 PUSH1 0xF DUP3 DUP2 SLOAD DUP2 LT PUSH2 0x21BE JUMPI PUSH2 0x21BD PUSH2 0x4CFA JUMP JUMPDEST JUMPDEST SWAP1 PUSH0 MSTORE PUSH1 0x20 PUSH0 KECCAK256 SWAP1 PUSH1 0x2 MUL ADD PUSH0 ADD PUSH1 0x14 SWAP1 SLOAD SWAP1 PUSH2 0x100 EXP SWAP1 DIV PUSH1 0xFF AND PUSH1 0xFF AND SUB PUSH2 0x23BF JUMPI PUSH2 0x21F9 PUSH1 0x11 PUSH0 SWAP1 SLOAD SWAP1 PUSH2 0x100 EXP SWAP1 DIV PUSH1 0xFF AND PUSH2 0x3E09 JUMP JUMPDEST ISZERO PUSH2 0x23BA JUMPI PUSH1 0xF DUP2 DUP2 SLOAD DUP2 LT PUSH2 0x2212 JUMPI PUSH2 0x2211 PUSH2 0x4CFA JUMP JUMPDEST JUMPDEST SWAP1 PUSH0 MSTORE PUSH1 0x20 PUSH0 KECCAK256 SWAP1 PUSH1 0x2 MUL ADD PUSH0 ADD PUSH0 SWAP1 SLOAD SWAP1 PUSH2 0x100 EXP SWAP1 DIV PUSH20 0xFFFFFFFFFFFFFFFFFFFFFFFFFFFFFFFFFFFFFFFF AND PUSH20 0xFFFFFFFFFFFFFFFFFFFFFFFFFFFFFFFFFFFFFFFF AND PUSH2 0x8FC PUSH1 0x64 PUSH1 0x6F PUSH1 0xF DUP6 DUP2 SLOAD DUP2 LT PUSH2 0x2271 JUMPI PUSH2 0x2270 PUSH2 0x4CFA JUMP JUMPDEST JUMPDEST SWAP1 PUSH0 MSTORE PUSH1 0x20 PUSH0 KECCAK256 SWAP1 PUSH1 0x2 MUL ADD PUSH1 0x1 ADD SLOAD PUSH2 0x228B SWAP2 SWAP1 PUSH2 0x5B76 JUMP JUMPDEST PUSH2 0x2295 SWAP2 SWAP1 PUSH2 0x5BB7 JUMP JUMPDEST SWAP1 DUP2 ISZERO MUL SWAP1 PUSH1 0x40 MLOAD PUSH0 PUSH1 0x40 MLOAD DUP1 DUP4 SUB DUP2 DUP6 DUP9 DUP9 CALL SWAP4 POP POP POP POP ISZERO DUP1 ISZERO PUSH2 0x22BD JUMPI RETURNDATASIZE PUSH0 DUP1 RETURNDATACOPY RETURNDATASIZE PUSH0 REVERT JUMPDEST POP PUSH1 0xF DUP2 DUP2 SLOAD DUP2 LT PUSH2 0x22D2 JUMPI PUSH2 0x22D1 PUSH2 0x4CFA JUMP JUMPDEST JUMPDEST SWAP1 PUSH0 MSTORE PUSH1 0x20 PUSH0 KECCAK256 SWAP1 PUSH1 0x2 MUL ADD PUSH0 ADD PUSH0 SWAP1 SLOAD SWAP1 PUSH2 0x100 EXP SWAP1 DIV PUSH20 0xFFFFFFFFFFFFFFFFFFFFFFFFFFFFFFFFFFFFFFFF AND PUSH20 0xFFFFFFFFFFFFFFFFFFFFFFFFFFFFFFFFFFFFFFFF AND PUSH32 0xFEB6D77D8663B36B3393E8790540B4EBE73ADE87F3146E450022712344DC7B3B PUSH1 0xF DUP4 DUP2 SLOAD DUP2 LT PUSH2 0x234B JUMPI PUSH2 0x234A PUSH2 0x4CFA JUMP JUMPDEST JUMPDEST SWAP1 PUSH0 MSTORE PUSH1 0x20 PUSH0 KECCAK256 SWAP1 PUSH1 0x2 MUL ADD PUSH0 ADD PUSH1 0x14 SWAP1 SLOAD SWAP1 PUSH2 0x100 EXP SWAP1 DIV PUSH1 0xFF AND PUSH1 0x64 PUSH1 0x6F PUSH1 0xF DUP7 DUP2 SLOAD DUP2 LT PUSH2 0x237F JUMPI PUSH2 0x237E PUSH2 0x4CFA JUMP JUMPDEST JUMPDEST SWAP1 PUSH0 MSTORE PUSH1 0x20 PUSH0 KECCAK256 SWAP1 PUSH1 0x2 MUL ADD PUSH1 0x1 ADD SLOAD PUSH2 0x2399 SWAP2 SWAP1 PUSH2 0x5B76 JUMP JUMPDEST PUSH2 0x23A3 SWAP2 SWAP1 PUSH2 0x5BB7 JUMP JUMPDEST PUSH1 0x40 MLOAD PUSH2 0x23B1 SWAP3 SWAP2 SWAP1 PUSH2 0x5C75 JUMP JUMPDEST PUSH1 0x40 MLOAD DUP1 SWAP2 SUB SWAP1 LOG2 JUMPDEST PUSH2 0x38B3 JUMP JUMPDEST PUSH1 0x28 PUSH1 0xF DUP3 DUP2 SLOAD DUP2 LT PUSH2 0x23D5 JUMPI PUSH2 0x23D4 PUSH2 0x4CFA JUMP JUMPDEST JUMPDEST SWAP1 PUSH0 MSTORE PUSH1 0x20 PUSH0 KECCAK256 SWAP1 PUSH1 0x2 MUL ADD PUSH0 ADD PUSH1 0x14 SWAP1 SLOAD SWAP1 PUSH2 0x100 EXP SWAP1 DIV PUSH1 0xFF AND PUSH1 0xFF AND SUB PUSH2 0x25D6 JUMPI PUSH2 0x2410 PUSH1 0x11 PUSH0 SWAP1 SLOAD SWAP1 PUSH2 0x100 EXP SWAP1 DIV PUSH1 0xFF AND PUSH2 0x1B0F JUMP JUMPDEST ISZERO PUSH2 0x25D1 JUMPI PUSH1 0xF DUP2 DUP2 SLOAD DUP2 LT PUSH2 0x2429 JUMPI PUSH2 0x2428 PUSH2 0x4CFA JUMP JUMPDEST JUMPDEST SWAP1 PUSH0 MSTORE PUSH1 0x20 PUSH0 KECCAK256 SWAP1 PUSH1 0x2 MUL ADD PUSH0 ADD PUSH0 SWAP1 SLOAD SWAP1 PUSH2 0x100 EXP SWAP1 DIV PUSH20 0xFFFFFFFFFFFFFFFFFFFFFFFFFFFFFFFFFFFFFFFF AND PUSH20 0xFFFFFFFFFFFFFFFFFFFFFFFFFFFFFFFFFFFFFFFF AND PUSH2 0x8FC PUSH1 0x64 PUSH1 0x6F PUSH1 0xF DUP6 DUP2 SLOAD DUP2 LT PUSH2 0x2488 JUMPI PUSH2 0x2487 PUSH2 0x4CFA JUMP JUMPDEST JUMPDEST SWAP1 PUSH0 MSTORE PUSH1 0x20 PUSH0 KECCAK256 SWAP1 PUSH1 0x2 MUL ADD PUSH1 0x1 ADD SLOAD PUSH2 0x24A2 SWAP2 SWAP1 PUSH2 0x5B76 JUMP JUMPDEST PUSH2 0x24AC SWAP2 SWAP1 PUSH2 0x5BB7 JUMP JUMPDEST SWAP1 DUP2 ISZERO MUL SWAP1 PUSH1 0x40 MLOAD PUSH0 PUSH1 0x40 MLOAD DUP1 DUP4 SUB DUP2 DUP6 DUP9 DUP9 CALL SWAP4 POP POP POP POP ISZERO DUP1 ISZERO PUSH2 0x24D4 JUMPI RETURNDATASIZE PUSH0 DUP1 RETURNDATACOPY RETURNDATASIZE PUSH0 REVERT JUMPDEST POP PUSH1 0xF DUP2 DUP2 SLOAD DUP2 LT PUSH2 0x24E9 JUMPI PUSH2 0x24E8 PUSH2 0x4CFA JUMP JUMPDEST JUMPDEST SWAP1 PUSH0 MSTORE PUSH1 0x20 PUSH0 KECCAK256 SWAP1 PUSH1 0x2 MUL ADD PUSH0 ADD PUSH0 SWAP1 SLOAD SWAP1 PUSH2 0x100 EXP SWAP1 DIV PUSH20 0xFFFFFFFFFFFFFFFFFFFFFFFFFFFFFFFFFFFFFFFF AND PUSH20 0xFFFFFFFFFFFFFFFFFFFFFFFFFFFFFFFFFFFFFFFF AND PUSH32 0xFEB6D77D8663B36B3393E8790540B4EBE73ADE87F3146E450022712344DC7B3B PUSH1 0xF DUP4 DUP2 SLOAD DUP2 LT PUSH2 0x2562 JUMPI PUSH2 0x2561 PUSH2 0x4CFA JUMP JUMPDEST JUMPDEST SWAP1 PUSH0 MSTORE PUSH1 0x20 PUSH0 KECCAK256 SWAP1 PUSH1 0x2 MUL ADD PUSH0 ADD PUSH1 0x14 SWAP1 SLOAD SWAP1 PUSH2 0x100 EXP SWAP1 DIV PUSH1 0xFF AND PUSH1 0x64 PUSH1 0x6F PUSH1 0xF DUP7 DUP2 SLOAD DUP2 LT PUSH2 0x2596 JUMPI PUSH2 0x2595 PUSH2 0x4CFA JUMP JUMPDEST JUMPDEST SWAP1 PUSH0 MSTORE PUSH1 0x20 PUSH0 KECCAK256 SWAP1 PUSH1 0x2 MUL ADD PUSH1 0x1 ADD SLOAD PUSH2 0x25B0 SWAP2 SWAP1 PUSH2 0x5B76 JUMP JUMPDEST PUSH2 0x25BA SWAP2 SWAP1 PUSH2 0x5BB7 JUMP JUMPDEST PUSH1 0x40 MLOAD PUSH2 0x25C8 SWAP3 SWAP2 SWAP1 PUSH2 0x5C75 JUMP JUMPDEST PUSH1 0x40 MLOAD DUP1 SWAP2 SUB SWAP1 LOG2 JUMPDEST PUSH2 0x38B3 JUMP JUMPDEST PUSH1 0x29 PUSH1 0xF DUP3 DUP2 SLOAD DUP2 LT PUSH2 0x25EC JUMPI PUSH2 0x25EB PUSH2 0x4CFA JUMP JUMPDEST JUMPDEST SWAP1 PUSH0 MSTORE PUSH1 0x20 PUSH0 KECCAK256 SWAP1 PUSH1 0x2 MUL ADD PUSH0 ADD PUSH1 0x14 SWAP1 SLOAD SWAP1 PUSH2 0x100 EXP SWAP1 DIV PUSH1 0xFF AND PUSH1 0xFF AND SUB PUSH2 0x27ED JUMPI PUSH2 0x2627 PUSH1 0x11 PUSH0 SWAP1 SLOAD SWAP1 PUSH2 0x100 EXP SWAP1 DIV PUSH1 0xFF AND PUSH2 0x1C08 JUMP JUMPDEST ISZERO PUSH2 0x27E8 JUMPI PUSH1 0xF DUP2 DUP2 SLOAD DUP2 LT PUSH2 0x2640 JUMPI PUSH2 0x263F PUSH2 0x4CFA JUMP JUMPDEST JUMPDEST SWAP1 PUSH0 MSTORE PUSH1 0x20 PUSH0 KECCAK256 SWAP1 PUSH1 0x2 MUL ADD PUSH0 ADD PUSH0 SWAP1 SLOAD SWAP1 PUSH2 0x100 EXP SWAP1 DIV PUSH20 0xFFFFFFFFFFFFFFFFFFFFFFFFFFFFFFFFFFFFFFFF AND PUSH20 0xFFFFFFFFFFFFFFFFFFFFFFFFFFFFFFFFFFFFFFFF AND PUSH2 0x8FC PUSH1 0x64 PUSH1 0x6F PUSH1 0xF DUP6 DUP2 SLOAD DUP2 LT PUSH2 0x269F JUMPI PUSH2 0x269E PUSH2 0x4CFA JUMP JUMPDEST JUMPDEST SWAP1 PUSH0 MSTORE PUSH1 0x20 PUSH0 KECCAK256 SWAP1 PUSH1 0x2 MUL ADD PUSH1 0x1 ADD SLOAD PUSH2 0x26B9 SWAP2 SWAP1 PUSH2 0x5B76 JUMP JUMPDEST PUSH2 0x26C3 SWAP2 SWAP1 PUSH2 0x5BB7 JUMP JUMPDEST SWAP1 DUP2 ISZERO MUL SWAP1 PUSH1 0x40 MLOAD PUSH0 PUSH1 0x40 MLOAD DUP1 DUP4 SUB DUP2 DUP6 DUP9 DUP9 CALL SWAP4 POP POP POP POP ISZERO DUP1 ISZERO PUSH2 0x26EB JUMPI RETURNDATASIZE PUSH0 DUP1 RETURNDATACOPY RETURNDATASIZE PUSH0 REVERT JUMPDEST POP PUSH1 0xF DUP2 DUP2 SLOAD DUP2 LT PUSH2 0x2700 JUMPI PUSH2 0x26FF PUSH2 0x4CFA JUMP JUMPDEST JUMPDEST SWAP1 PUSH0 MSTORE PUSH1 0x20 PUSH0 KECCAK256 SWAP1 PUSH1 0x2 MUL ADD PUSH0 ADD PUSH0 SWAP1 SLOAD SWAP1 PUSH2 0x100 EXP SWAP1 DIV PUSH20 0xFFFFFFFFFFFFFFFFFFFFFFFFFFFFFFFFFFFFFFFF AND PUSH20 0xFFFFFFFFFFFFFFFFFFFFFFFFFFFFFFFFFFFFFFFF AND PUSH32 0xFEB6D77D8663B36B3393E8790540B4EBE73ADE87F3146E450022712344DC7B3B PUSH1 0xF DUP4 DUP2 SLOAD DUP2 LT PUSH2 0x2779 JUMPI PUSH2 0x2778 PUSH2 0x4CFA JUMP JUMPDEST JUMPDEST SWAP1 PUSH0 MSTORE PUSH1 0x20 PUSH0 KECCAK256 SWAP1 PUSH1 0x2 MUL ADD PUSH0 ADD PUSH1 0x14 SWAP1 SLOAD SWAP1 PUSH2 0x100 EXP SWAP1 DIV PUSH1 0xFF AND PUSH1 0x64 PUSH1 0x6F PUSH1 0xF DUP7 DUP2 SLOAD DUP2 LT PUSH2 0x27AD JUMPI PUSH2 0x27AC PUSH2 0x4CFA JUMP JUMPDEST JUMPDEST SWAP1 PUSH0 MSTORE PUSH1 0x20 PUSH0 KECCAK256 SWAP1 PUSH1 0x2 MUL ADD PUSH1 0x1 ADD SLOAD PUSH2 0x27C7 SWAP2 SWAP1 PUSH2 0x5B76 JUMP JUMPDEST PUSH2 0x27D1 SWAP2 SWAP1 PUSH2 0x5BB7 JUMP JUMPDEST PUSH1 0x40 MLOAD PUSH2 0x27DF SWAP3 SWAP2 SWAP1 PUSH2 0x5C75 JUMP JUMPDEST PUSH1 0x40 MLOAD DUP1 SWAP2 SUB SWAP1 LOG2 JUMPDEST PUSH2 0x38B3 JUMP JUMPDEST PUSH1 0x2A PUSH1 0xF DUP3 DUP2 SLOAD DUP2 LT PUSH2 0x2803 JUMPI PUSH2 0x2802 PUSH2 0x4CFA JUMP JUMPDEST JUMPDEST SWAP1 PUSH0 MSTORE PUSH1 0x20 PUSH0 KECCAK256 SWAP1 PUSH1 0x2 MUL ADD PUSH0 ADD PUSH1 0x14 SWAP1 SLOAD SWAP1 PUSH2 0x100 EXP SWAP1 DIV PUSH1 0xFF AND PUSH1 0xFF AND SUB PUSH2 0x2A04 JUMPI PUSH2 0x283E PUSH1 0x11 PUSH0 SWAP1 SLOAD SWAP1 PUSH2 0x100 EXP SWAP1 DIV PUSH1 0xFF AND PUSH2 0x109A JUMP JUMPDEST ISZERO PUSH2 0x29FF JUMPI PUSH1 0xF DUP2 DUP2 SLOAD DUP2 LT PUSH2 0x2857 JUMPI PUSH2 0x2856 PUSH2 0x4CFA JUMP JUMPDEST JUMPDEST SWAP1 PUSH0 MSTORE PUSH1 0x20 PUSH0 KECCAK256 SWAP1 PUSH1 0x2 MUL ADD PUSH0 ADD PUSH0 SWAP1 SLOAD SWAP1 PUSH2 0x100 EXP SWAP1 DIV PUSH20 0xFFFFFFFFFFFFFFFFFFFFFFFFFFFFFFFFFFFFFFFF AND PUSH20 0xFFFFFFFFFFFFFFFFFFFFFFFFFFFFFFFFFFFFFFFF AND PUSH2 0x8FC PUSH1 0x64 PUSH1 0x6F PUSH1 0xF DUP6 DUP2 SLOAD DUP2 LT PUSH2 0x28B6 JUMPI PUSH2 0x28B5 PUSH2 0x4CFA JUMP JUMPDEST JUMPDEST SWAP1 PUSH0 MSTORE PUSH1 0x20 PUSH0 KECCAK256 SWAP1 PUSH1 0x2 MUL ADD PUSH1 0x1 ADD SLOAD PUSH2 0x28D0 SWAP2 SWAP1 PUSH2 0x5B76 JUMP JUMPDEST PUSH2 0x28DA SWAP2 SWAP1 PUSH2 0x5BB7 JUMP JUMPDEST SWAP1 DUP2 ISZERO MUL SWAP1 PUSH1 0x40 MLOAD PUSH0 PUSH1 0x40 MLOAD DUP1 DUP4 SUB DUP2 DUP6 DUP9 DUP9 CALL SWAP4 POP POP POP POP ISZERO DUP1 ISZERO PUSH2 0x2902 JUMPI RETURNDATASIZE PUSH0 DUP1 RETURNDATACOPY RETURNDATASIZE PUSH0 REVERT JUMPDEST POP PUSH1 0xF DUP2 DUP2 SLOAD DUP2 LT PUSH2 0x2917 JUMPI PUSH2 0x2916 PUSH2 0x4CFA JUMP JUMPDEST JUMPDEST SWAP1 PUSH0 MSTORE PUSH1 0x20 PUSH0 KECCAK256 SWAP1 PUSH1 0x2 MUL ADD PUSH0 ADD PUSH0 SWAP1 SLOAD SWAP1 PUSH2 0x100 EXP SWAP1 DIV PUSH20 0xFFFFFFFFFFFFFFFFFFFFFFFFFFFFFFFFFFFFFFFF AND PUSH20 0xFFFFFFFFFFFFFFFFFFFFFFFFFFFFFFFFFFFFFFFF AND PUSH32 0xFEB6D77D8663B36B3393E8790540B4EBE73ADE87F3146E450022712344DC7B3B PUSH1 0xF DUP4 DUP2 SLOAD DUP2 LT PUSH2 0x2990 JUMPI PUSH2 0x298F PUSH2 0x4CFA JUMP JUMPDEST JUMPDEST SWAP1 PUSH0 MSTORE PUSH1 0x20 PUSH0 KECCAK256 SWAP1 PUSH1 0x2 MUL ADD PUSH0 ADD PUSH1 0x14 SWAP1 SLOAD SWAP1 PUSH2 0x100 EXP SWAP1 DIV PUSH1 0xFF AND PUSH1 0x64 PUSH1 0x6F PUSH1 0xF DUP7 DUP2 SLOAD DUP2 LT PUSH2 0x29C4 JUMPI PUSH2 0x29C3 PUSH2 0x4CFA JUMP JUMPDEST JUMPDEST SWAP1 PUSH0 MSTORE PUSH1 0x20 PUSH0 KECCAK256 SWAP1 PUSH1 0x2 MUL ADD PUSH1 0x1 ADD SLOAD PUSH2 0x29DE SWAP2 SWAP1 PUSH2 0x5B76 JUMP JUMPDEST PUSH2 0x29E8 SWAP2 SWAP1 PUSH2 0x5BB7 JUMP JUMPDEST PUSH1 0x40 MLOAD PUSH2 0x29F6 SWAP3 SWAP2 SWAP1 PUSH2 0x5C75 JUMP JUMPDEST PUSH1 0x40 MLOAD DUP1 SWAP2 SUB SWAP1 LOG2 JUMPDEST PUSH2 0x38B3 JUMP JUMPDEST PUSH1 0x2B PUSH1 0xF DUP3 DUP2 SLOAD DUP2 LT PUSH2 0x2A1A JUMPI PUSH2 0x2A19 PUSH2 0x4CFA JUMP JUMPDEST JUMPDEST SWAP1 PUSH0 MSTORE PUSH1 0x20 PUSH0 KECCAK256 SWAP1 PUSH1 0x2 MUL ADD PUSH0 ADD PUSH1 0x14 SWAP1 SLOAD SWAP1 PUSH2 0x100 EXP SWAP1 DIV PUSH1 0xFF AND PUSH1 0xFF AND SUB PUSH2 0x2C1B JUMPI PUSH2 0x2A55 PUSH1 0x11 PUSH0 SWAP1 SLOAD SWAP1 PUSH2 0x100 EXP SWAP1 DIV PUSH1 0xFF AND PUSH2 0x3D6E JUMP JUMPDEST ISZERO PUSH2 0x2C16 JUMPI PUSH1 0xF DUP2 DUP2 SLOAD DUP2 LT PUSH2 0x2A6E JUMPI PUSH2 0x2A6D PUSH2 0x4CFA JUMP JUMPDEST JUMPDEST SWAP1 PUSH0 MSTORE PUSH1 0x20 PUSH0 KECCAK256 SWAP1 PUSH1 0x2 MUL ADD PUSH0 ADD PUSH0 SWAP1 SLOAD SWAP1 PUSH2 0x100 EXP SWAP1 DIV PUSH20 0xFFFFFFFFFFFFFFFFFFFFFFFFFFFFFFFFFFFFFFFF AND PUSH20 0xFFFFFFFFFFFFFFFFFFFFFFFFFFFFFFFFFFFFFFFF AND PUSH2 0x8FC PUSH1 0x64 PUSH1 0x6F PUSH1 0xF DUP6 DUP2 SLOAD DUP2 LT PUSH2 0x2ACD JUMPI PUSH2 0x2ACC PUSH2 0x4CFA JUMP JUMPDEST JUMPDEST SWAP1 PUSH0 MSTORE PUSH1 0x20 PUSH0 KECCAK256 SWAP1 PUSH1 0x2 MUL ADD PUSH1 0x1 ADD SLOAD PUSH2 0x2AE7 SWAP2 SWAP1 PUSH2 0x5B76 JUMP JUMPDEST PUSH2 0x2AF1 SWAP2 SWAP1 PUSH2 0x5BB7 JUMP JUMPDEST SWAP1 DUP2 ISZERO MUL SWAP1 PUSH1 0x40 MLOAD PUSH0 PUSH1 0x40 MLOAD DUP1 DUP4 SUB DUP2 DUP6 DUP9 DUP9 CALL SWAP4 POP POP POP POP ISZERO DUP1 ISZERO PUSH2 0x2B19 JUMPI RETURNDATASIZE PUSH0 DUP1 RETURNDATACOPY RETURNDATASIZE PUSH0 REVERT JUMPDEST POP PUSH1 0xF DUP2 DUP2 SLOAD DUP2 LT PUSH2 0x2B2E JUMPI PUSH2 0x2B2D PUSH2 0x4CFA JUMP JUMPDEST JUMPDEST SWAP1 PUSH0 MSTORE PUSH1 0x20 PUSH0 KECCAK256 SWAP1 PUSH1 0x2 MUL ADD PUSH0 ADD PUSH0 SWAP1 SLOAD SWAP1 PUSH2 0x100 EXP SWAP1 DIV PUSH20 0xFFFFFFFFFFFFFFFFFFFFFFFFFFFFFFFFFFFFFFFF AND PUSH20 0xFFFFFFFFFFFFFFFFFFFFFFFFFFFFFFFFFFFFFFFF AND PUSH32 0xFEB6D77D8663B36B3393E8790540B4EBE73ADE87F3146E450022712344DC7B3B PUSH1 0xF DUP4 DUP2 SLOAD DUP2 LT PUSH2 0x2BA7 JUMPI PUSH2 0x2BA6 PUSH2 0x4CFA JUMP JUMPDEST JUMPDEST SWAP1 PUSH0 MSTORE PUSH1 0x20 PUSH0 KECCAK256 SWAP1 PUSH1 0x2 MUL ADD PUSH0 ADD PUSH1 0x14 SWAP1 SLOAD SWAP1 PUSH2 0x100 EXP SWAP1 DIV PUSH1 0xFF AND PUSH1 0x64 PUSH1 0x6F PUSH1 0xF DUP7 DUP2 SLOAD DUP2 LT PUSH2 0x2BDB JUMPI PUSH2 0x2BDA PUSH2 0x4CFA JUMP JUMPDEST JUMPDEST SWAP1 PUSH0 MSTORE PUSH1 0x20 PUSH0 KECCAK256 SWAP1 PUSH1 0x2 MUL ADD PUSH1 0x1 ADD SLOAD PUSH2 0x2BF5 SWAP2 SWAP1 PUSH2 0x5B76 JUMP JUMPDEST PUSH2 0x2BFF SWAP2 SWAP1 PUSH2 0x5BB7 JUMP JUMPDEST PUSH1 0x40 MLOAD PUSH2 0x2C0D SWAP3 SWAP2 SWAP1 PUSH2 0x5C75 JUMP JUMPDEST PUSH1 0x40 MLOAD DUP1 SWAP2 SUB SWAP1 LOG2 JUMPDEST PUSH2 0x38B3 JUMP JUMPDEST PUSH1 0x2C PUSH1 0xF DUP3 DUP2 SLOAD DUP2 LT PUSH2 0x2C31 JUMPI PUSH2 0x2C30 PUSH2 0x4CFA JUMP JUMPDEST JUMPDEST SWAP1 PUSH0 MSTORE PUSH1 0x20 PUSH0 KECCAK256 SWAP1 PUSH1 0x2 MUL ADD PUSH0 ADD PUSH1 0x14 SWAP1 SLOAD SWAP1 PUSH2 0x100 EXP SWAP1 DIV PUSH1 0xFF AND PUSH1 0xFF AND SUB PUSH2 0x2E32 JUMPI PUSH2 0x2C6C PUSH1 0x11 PUSH0 SWAP1 SLOAD SWAP1 PUSH2 0x100 EXP SWAP1 DIV PUSH1 0xFF AND PUSH2 0xB0C JUMP JUMPDEST ISZERO PUSH2 0x2E2D JUMPI PUSH1 0xF DUP2 DUP2 SLOAD DUP2 LT PUSH2 0x2C85 JUMPI PUSH2 0x2C84 PUSH2 0x4CFA JUMP JUMPDEST JUMPDEST SWAP1 PUSH0 MSTORE PUSH1 0x20 PUSH0 KECCAK256 SWAP1 PUSH1 0x2 MUL ADD PUSH0 ADD PUSH0 SWAP1 SLOAD SWAP1 PUSH2 0x100 EXP SWAP1 DIV PUSH20 0xFFFFFFFFFFFFFFFFFFFFFFFFFFFFFFFFFFFFFFFF AND PUSH20 0xFFFFFFFFFFFFFFFFFFFFFFFFFFFFFFFFFFFFFFFF AND PUSH2 0x8FC PUSH1 0x64 PUSH1 0xD9 PUSH1 0xF DUP6 DUP2 SLOAD DUP2 LT PUSH2 0x2CE4 JUMPI PUSH2 0x2CE3 PUSH2 0x4CFA JUMP JUMPDEST JUMPDEST SWAP1 PUSH0 MSTORE PUSH1 0x20 PUSH0 KECCAK256 SWAP1 PUSH1 0x2 MUL ADD PUSH1 0x1 ADD SLOAD PUSH2 0x2CFE SWAP2 SWAP1 PUSH2 0x5B76 JUMP JUMPDEST PUSH2 0x2D08 SWAP2 SWAP1 PUSH2 0x5BB7 JUMP JUMPDEST SWAP1 DUP2 ISZERO MUL SWAP1 PUSH1 0x40 MLOAD PUSH0 PUSH1 0x40 MLOAD DUP1 DUP4 SUB DUP2 DUP6 DUP9 DUP9 CALL SWAP4 POP POP POP POP ISZERO DUP1 ISZERO PUSH2 0x2D30 JUMPI RETURNDATASIZE PUSH0 DUP1 RETURNDATACOPY RETURNDATASIZE PUSH0 REVERT JUMPDEST POP PUSH1 0xF DUP2 DUP2 SLOAD DUP2 LT PUSH2 0x2D45 JUMPI PUSH2 0x2D44 PUSH2 0x4CFA JUMP JUMPDEST JUMPDEST SWAP1 PUSH0 MSTORE PUSH1 0x20 PUSH0 KECCAK256 SWAP1 PUSH1 0x2 MUL ADD PUSH0 ADD PUSH0 SWAP1 SLOAD SWAP1 PUSH2 0x100 EXP SWAP1 DIV PUSH20 0xFFFFFFFFFFFFFFFFFFFFFFFFFFFFFFFFFFFFFFFF AND PUSH20 0xFFFFFFFFFFFFFFFFFFFFFFFFFFFFFFFFFFFFFFFF AND PUSH32 0xFEB6D77D8663B36B3393E8790540B4EBE73ADE87F3146E450022712344DC7B3B PUSH1 0xF DUP4 DUP2 SLOAD DUP2 LT PUSH2 0x2DBE JUMPI PUSH2 0x2DBD PUSH2 0x4CFA JUMP JUMPDEST JUMPDEST SWAP1 PUSH0 MSTORE PUSH1 0x20 PUSH0 KECCAK256 SWAP1 PUSH1 0x2 MUL ADD PUSH0 ADD PUSH1 0x14 SWAP1 SLOAD SWAP1 PUSH2 0x100 EXP SWAP1 DIV PUSH1 0xFF AND PUSH1 0x64 PUSH1 0xD9 PUSH1 0xF DUP7 DUP2 SLOAD DUP2 LT PUSH2 0x2DF2 JUMPI PUSH2 0x2DF1 PUSH2 0x4CFA JUMP JUMPDEST JUMPDEST SWAP1 PUSH0 MSTORE PUSH1 0x20 PUSH0 KECCAK256 SWAP1 PUSH1 0x2 MUL ADD PUSH1 0x1 ADD SLOAD PUSH2 0x2E0C SWAP2 SWAP1 PUSH2 0x5B76 JUMP JUMPDEST PUSH2 0x2E16 SWAP2 SWAP1 PUSH2 0x5BB7 JUMP JUMPDEST PUSH1 0x40 MLOAD PUSH2 0x2E24 SWAP3 SWAP2 SWAP1 PUSH2 0x5C75 JUMP JUMPDEST PUSH1 0x40 MLOAD DUP1 SWAP2 SUB SWAP1 LOG2 JUMPDEST PUSH2 0x38A6 JUMP JUMPDEST PUSH1 0x2D PUSH1 0xF DUP3 DUP2 SLOAD DUP2 LT PUSH2 0x2E48 JUMPI PUSH2 0x2E47 PUSH2 0x4CFA JUMP JUMPDEST JUMPDEST SWAP1 PUSH0 MSTORE PUSH1 0x20 PUSH0 KECCAK256 SWAP1 PUSH1 0x2 MUL ADD PUSH0 ADD PUSH1 0x14 SWAP1 SLOAD SWAP1 PUSH2 0x100 EXP SWAP1 DIV PUSH1 0xFF AND PUSH1 0xFF AND SUB PUSH2 0x3049 JUMPI PUSH2 0x2E83 PUSH1 0x11 PUSH0 SWAP1 SLOAD SWAP1 PUSH2 0x100 EXP SWAP1 DIV PUSH1 0xFF AND PUSH2 0x398A JUMP JUMPDEST ISZERO PUSH2 0x3044 JUMPI PUSH1 0xF DUP2 DUP2 SLOAD DUP2 LT PUSH2 0x2E9C JUMPI PUSH2 0x2E9B PUSH2 0x4CFA JUMP JUMPDEST JUMPDEST SWAP1 PUSH0 MSTORE PUSH1 0x20 PUSH0 KECCAK256 SWAP1 PUSH1 0x2 MUL ADD PUSH0 ADD PUSH0 SWAP1 SLOAD SWAP1 PUSH2 0x100 EXP SWAP1 DIV PUSH20 0xFFFFFFFFFFFFFFFFFFFFFFFFFFFFFFFFFFFFFFFF AND PUSH20 0xFFFFFFFFFFFFFFFFFFFFFFFFFFFFFFFFFFFFFFFF AND PUSH2 0x8FC PUSH1 0x64 PUSH1 0xD9 PUSH1 0xF DUP6 DUP2 SLOAD DUP2 LT PUSH2 0x2EFB JUMPI PUSH2 0x2EFA PUSH2 0x4CFA JUMP JUMPDEST JUMPDEST SWAP1 PUSH0 MSTORE PUSH1 0x20 PUSH0 KECCAK256 SWAP1 PUSH1 0x2 MUL ADD PUSH1 0x1 ADD SLOAD PUSH2 0x2F15 SWAP2 SWAP1 PUSH2 0x5B76 JUMP JUMPDEST PUSH2 0x2F1F SWAP2 SWAP1 PUSH2 0x5BB7 JUMP JUMPDEST SWAP1 DUP2 ISZERO MUL SWAP1 PUSH1 0x40 MLOAD PUSH0 PUSH1 0x40 MLOAD DUP1 DUP4 SUB DUP2 DUP6 DUP9 DUP9 CALL SWAP4 POP POP POP POP ISZERO DUP1 ISZERO PUSH2 0x2F47 JUMPI RETURNDATASIZE PUSH0 DUP1 RETURNDATACOPY RETURNDATASIZE PUSH0 REVERT JUMPDEST POP PUSH1 0xF DUP2 DUP2 SLOAD DUP2 LT PUSH2 0x2F5C JUMPI PUSH2 0x2F5B PUSH2 0x4CFA JUMP JUMPDEST JUMPDEST SWAP1 PUSH0 MSTORE PUSH1 0x20 PUSH0 KECCAK256 SWAP1 PUSH1 0x2 MUL ADD PUSH0 ADD PUSH0 SWAP1 SLOAD SWAP1 PUSH2 0x100 EXP SWAP1 DIV PUSH20 0xFFFFFFFFFFFFFFFFFFFFFFFFFFFFFFFFFFFFFFFF AND PUSH20 0xFFFFFFFFFFFFFFFFFFFFFFFFFFFFFFFFFFFFFFFF AND PUSH32 0xFEB6D77D8663B36B3393E8790540B4EBE73ADE87F3146E450022712344DC7B3B PUSH1 0xF DUP4 DUP2 SLOAD DUP2 LT PUSH2 0x2FD5 JUMPI PUSH2 0x2FD4 PUSH2 0x4CFA JUMP JUMPDEST JUMPDEST SWAP1 PUSH0 MSTORE PUSH1 0x20 PUSH0 KECCAK256 SWAP1 PUSH1 0x2 MUL ADD PUSH0 ADD PUSH1 0x14 SWAP1 SLOAD SWAP1 PUSH2 0x100 EXP SWAP1 DIV PUSH1 0xFF AND PUSH1 0x64 PUSH1 0xD9 PUSH1 0xF DUP7 DUP2 SLOAD DUP2 LT PUSH2 0x3009 JUMPI PUSH2 0x3008 PUSH2 0x4CFA JUMP JUMPDEST JUMPDEST SWAP1 PUSH0 MSTORE PUSH1 0x20 PUSH0 KECCAK256 SWAP1 PUSH1 0x2 MUL ADD PUSH1 0x1 ADD SLOAD PUSH2 0x3023 SWAP2 SWAP1 PUSH2 0x5B76 JUMP JUMPDEST PUSH2 0x302D SWAP2 SWAP1 PUSH2 0x5BB7 JUMP JUMPDEST PUSH1 0x40 MLOAD PUSH2 0x303B SWAP3 SWAP2 SWAP1 PUSH2 0x5C75 JUMP JUMPDEST PUSH1 0x40 MLOAD DUP1 SWAP2 SUB SWAP1 LOG2 JUMPDEST PUSH2 0x38A5 JUMP JUMPDEST PUSH1 0x2E PUSH1 0xF DUP3 DUP2 SLOAD DUP2 LT PUSH2 0x305F JUMPI PUSH2 0x305E PUSH2 0x4CFA JUMP JUMPDEST JUMPDEST SWAP1 PUSH0 MSTORE PUSH1 0x20 PUSH0 KECCAK256 SWAP1 PUSH1 0x2 MUL ADD PUSH0 ADD PUSH1 0x14 SWAP1 SLOAD SWAP1 PUSH2 0x100 EXP SWAP1 DIV PUSH1 0xFF AND PUSH1 0xFF AND SUB PUSH2 0x3260 JUMPI PUSH2 0x309A PUSH1 0x11 PUSH0 SWAP1 SLOAD SWAP1 PUSH2 0x100 EXP SWAP1 DIV PUSH1 0xFF AND PUSH2 0x3E7B JUMP JUMPDEST ISZERO PUSH2 0x325B JUMPI PUSH1 0xF DUP2 DUP2 SLOAD DUP2 LT PUSH2 0x30B3 JUMPI PUSH2 0x30B2 PUSH2 0x4CFA JUMP JUMPDEST JUMPDEST SWAP1 PUSH0 MSTORE PUSH1 0x20 PUSH0 KECCAK256 SWAP1 PUSH1 0x2 MUL ADD PUSH0 ADD PUSH0 SWAP1 SLOAD SWAP1 PUSH2 0x100 EXP SWAP1 DIV PUSH20 0xFFFFFFFFFFFFFFFFFFFFFFFFFFFFFFFFFFFFFFFF AND PUSH20 0xFFFFFFFFFFFFFFFFFFFFFFFFFFFFFFFFFFFFFFFF AND PUSH2 0x8FC PUSH1 0x64 PUSH1 0xD9 PUSH1 0xF DUP6 DUP2 SLOAD DUP2 LT PUSH2 0x3112 JUMPI PUSH2 0x3111 PUSH2 0x4CFA JUMP JUMPDEST JUMPDEST SWAP1 PUSH0 MSTORE PUSH1 0x20 PUSH0 KECCAK256 SWAP1 PUSH1 0x2 MUL ADD PUSH1 0x1 ADD SLOAD PUSH2 0x312C SWAP2 SWAP1 PUSH2 0x5B76 JUMP JUMPDEST PUSH2 0x3136 SWAP2 SWAP1 PUSH2 0x5BB7 JUMP JUMPDEST SWAP1 DUP2 ISZERO MUL SWAP1 PUSH1 0x40 MLOAD PUSH0 PUSH1 0x40 MLOAD DUP1 DUP4 SUB DUP2 DUP6 DUP9 DUP9 CALL SWAP4 POP POP POP POP ISZERO DUP1 ISZERO PUSH2 0x315E JUMPI RETURNDATASIZE PUSH0 DUP1 RETURNDATACOPY RETURNDATASIZE PUSH0 REVERT JUMPDEST POP PUSH1 0xF DUP2 DUP2 SLOAD DUP2 LT PUSH2 0x3173 JUMPI PUSH2 0x3172 PUSH2 0x4CFA JUMP JUMPDEST JUMPDEST SWAP1 PUSH0 MSTORE PUSH1 0x20 PUSH0 KECCAK256 SWAP1 PUSH1 0x2 MUL ADD PUSH0 ADD PUSH0 SWAP1 SLOAD SWAP1 PUSH2 0x100 EXP SWAP1 DIV PUSH20 0xFFFFFFFFFFFFFFFFFFFFFFFFFFFFFFFFFFFFFFFF AND PUSH20 0xFFFFFFFFFFFFFFFFFFFFFFFFFFFFFFFFFFFFFFFF AND PUSH32 0xFEB6D77D8663B36B3393E8790540B4EBE73ADE87F3146E450022712344DC7B3B PUSH1 0xF DUP4 DUP2 SLOAD DUP2 LT PUSH2 0x31EC JUMPI PUSH2 0x31EB PUSH2 0x4CFA JUMP JUMPDEST JUMPDEST SWAP1 PUSH0 MSTORE PUSH1 0x20 PUSH0 KECCAK256 SWAP1 PUSH1 0x2 MUL ADD PUSH0 ADD PUSH1 0x14 SWAP1 SLOAD SWAP1 PUSH2 0x100 EXP SWAP1 DIV PUSH1 0xFF AND PUSH1 0x64 PUSH1 0xD9 PUSH1 0xF DUP7 DUP2 SLOAD DUP2 LT PUSH2 0x3220 JUMPI PUSH2 0x321F PUSH2 0x4CFA JUMP JUMPDEST JUMPDEST SWAP1 PUSH0 MSTORE PUSH1 0x20 PUSH0 KECCAK256 SWAP1 PUSH1 0x2 MUL ADD PUSH1 0x1 ADD SLOAD PUSH2 0x323A SWAP2 SWAP1 PUSH2 0x5B76 JUMP JUMPDEST PUSH2 0x3244 SWAP2 SWAP1 PUSH2 0x5BB7 JUMP JUMPDEST PUSH1 0x40 MLOAD PUSH2 0x3252 SWAP3 SWAP2 SWAP1 PUSH2 0x5C75 JUMP JUMPDEST PUSH1 0x40 MLOAD DUP1 SWAP2 SUB SWAP1 LOG2 JUMPDEST PUSH2 0x38A4 JUMP JUMPDEST PUSH1 0x2F PUSH1 0xF DUP3 DUP2 SLOAD DUP2 LT PUSH2 0x3276 JUMPI PUSH2 0x3275 PUSH2 0x4CFA JUMP JUMPDEST JUMPDEST SWAP1 PUSH0 MSTORE PUSH1 0x20 PUSH0 KECCAK256 SWAP1 PUSH1 0x2 MUL ADD PUSH0 ADD PUSH1 0x14 SWAP1 SLOAD SWAP1 PUSH2 0x100 EXP SWAP1 DIV PUSH1 0xFF AND PUSH1 0xFF AND SUB PUSH2 0x3477 JUMPI PUSH2 0x32B1 PUSH1 0x11 PUSH0 SWAP1 SLOAD SWAP1 PUSH2 0x100 EXP SWAP1 DIV PUSH1 0xFF AND PUSH2 0x1B81 JUMP JUMPDEST ISZERO PUSH2 0x3472 JUMPI PUSH1 0xF DUP2 DUP2 SLOAD DUP2 LT PUSH2 0x32CA JUMPI PUSH2 0x32C9 PUSH2 0x4CFA JUMP JUMPDEST JUMPDEST SWAP1 PUSH0 MSTORE PUSH1 0x20 PUSH0 KECCAK256 SWAP1 PUSH1 0x2 MUL ADD PUSH0 ADD PUSH0 SWAP1 SLOAD SWAP1 PUSH2 0x100 EXP SWAP1 DIV PUSH20 0xFFFFFFFFFFFFFFFFFFFFFFFFFFFFFFFFFFFFFFFF AND PUSH20 0xFFFFFFFFFFFFFFFFFFFFFFFFFFFFFFFFFFFFFFFF AND PUSH2 0x8FC PUSH1 0x64 PUSH1 0xD9 PUSH1 0xF DUP6 DUP2 SLOAD DUP2 LT PUSH2 0x3329 JUMPI PUSH2 0x3328 PUSH2 0x4CFA JUMP JUMPDEST JUMPDEST SWAP1 PUSH0 MSTORE PUSH1 0x20 PUSH0 KECCAK256 SWAP1 PUSH1 0x2 MUL ADD PUSH1 0x1 ADD SLOAD PUSH2 0x3343 SWAP2 SWAP1 PUSH2 0x5B76 JUMP JUMPDEST PUSH2 0x334D SWAP2 SWAP1 PUSH2 0x5BB7 JUMP JUMPDEST SWAP1 DUP2 ISZERO MUL SWAP1 PUSH1 0x40 MLOAD PUSH0 PUSH1 0x40 MLOAD DUP1 DUP4 SUB DUP2 DUP6 DUP9 DUP9 CALL SWAP4 POP POP POP POP ISZERO DUP1 ISZERO PUSH2 0x3375 JUMPI RETURNDATASIZE PUSH0 DUP1 RETURNDATACOPY RETURNDATASIZE PUSH0 REVERT JUMPDEST POP PUSH1 0xF DUP2 DUP2 SLOAD DUP2 LT PUSH2 0x338A JUMPI PUSH2 0x3389 PUSH2 0x4CFA JUMP JUMPDEST JUMPDEST SWAP1 PUSH0 MSTORE PUSH1 0x20 PUSH0 KECCAK256 SWAP1 PUSH1 0x2 MUL ADD PUSH0 ADD PUSH0 SWAP1 SLOAD SWAP1 PUSH2 0x100 EXP SWAP1 DIV PUSH20 0xFFFFFFFFFFFFFFFFFFFFFFFFFFFFFFFFFFFFFFFF AND PUSH20 0xFFFFFFFFFFFFFFFFFFFFFFFFFFFFFFFFFFFFFFFF AND PUSH32 0xFEB6D77D8663B36B3393E8790540B4EBE73ADE87F3146E450022712344DC7B3B PUSH1 0xF DUP4 DUP2 SLOAD DUP2 LT PUSH2 0x3403 JUMPI PUSH2 0x3402 PUSH2 0x4CFA JUMP JUMPDEST JUMPDEST SWAP1 PUSH0 MSTORE PUSH1 0x20 PUSH0 KECCAK256 SWAP1 PUSH1 0x2 MUL ADD PUSH0 ADD PUSH1 0x14 SWAP1 SLOAD SWAP1 PUSH2 0x100 EXP SWAP1 DIV PUSH1 0xFF AND PUSH1 0x64 PUSH1 0xD9 PUSH1 0xF DUP7 DUP2 SLOAD DUP2 LT PUSH2 0x3437 JUMPI PUSH2 0x3436 PUSH2 0x4CFA JUMP JUMPDEST JUMPDEST SWAP1 PUSH0 MSTORE PUSH1 0x20 PUSH0 KECCAK256 SWAP1 PUSH1 0x2 MUL ADD PUSH1 0x1 ADD SLOAD PUSH2 0x3451 SWAP2 SWAP1 PUSH2 0x5B76 JUMP JUMPDEST PUSH2 0x345B SWAP2 SWAP1 PUSH2 0x5BB7 JUMP JUMPDEST PUSH1 0x40 MLOAD PUSH2 0x3469 SWAP3 SWAP2 SWAP1 PUSH2 0x5C75 JUMP JUMPDEST PUSH1 0x40 MLOAD DUP1 SWAP2 SUB SWAP1 LOG2 JUMPDEST PUSH2 0x38A3 JUMP JUMPDEST PUSH1 0x30 PUSH1 0xF DUP3 DUP2 SLOAD DUP2 LT PUSH2 0x348D JUMPI PUSH2 0x348C PUSH2 0x4CFA JUMP JUMPDEST JUMPDEST SWAP1 PUSH0 MSTORE PUSH1 0x20 PUSH0 KECCAK256 SWAP1 PUSH1 0x2 MUL ADD PUSH0 ADD PUSH1 0x14 SWAP1 SLOAD SWAP1 PUSH2 0x100 EXP SWAP1 DIV PUSH1 0xFF AND PUSH1 0xFF AND SUB PUSH2 0x368E JUMPI PUSH2 0x34C8 PUSH1 0x11 PUSH0 SWAP1 SLOAD SWAP1 PUSH2 0x100 EXP SWAP1 DIV PUSH1 0xFF AND PUSH2 0x1028 JUMP JUMPDEST ISZERO PUSH2 0x3689 JUMPI PUSH1 0xF DUP2 DUP2 SLOAD DUP2 LT PUSH2 0x34E1 JUMPI PUSH2 0x34E0 PUSH2 0x4CFA JUMP JUMPDEST JUMPDEST SWAP1 PUSH0 MSTORE PUSH1 0x20 PUSH0 KECCAK256 SWAP1 PUSH1 0x2 MUL ADD PUSH0 ADD PUSH0 SWAP1 SLOAD SWAP1 PUSH2 0x100 EXP SWAP1 DIV PUSH20 0xFFFFFFFFFFFFFFFFFFFFFFFFFFFFFFFFFFFFFFFF AND PUSH20 0xFFFFFFFFFFFFFFFFFFFFFFFFFFFFFFFFFFFFFFFF AND PUSH2 0x8FC PUSH1 0x64 PUSH1 0xD9 PUSH1 0xF DUP6 DUP2 SLOAD DUP2 LT PUSH2 0x3540 JUMPI PUSH2 0x353F PUSH2 0x4CFA JUMP JUMPDEST JUMPDEST SWAP1 PUSH0 MSTORE PUSH1 0x20 PUSH0 KECCAK256 SWAP1 PUSH1 0x2 MUL ADD PUSH1 0x1 ADD SLOAD PUSH2 0x355A SWAP2 SWAP1 PUSH2 0x5B76 JUMP JUMPDEST PUSH2 0x3564 SWAP2 SWAP1 PUSH2 0x5BB7 JUMP JUMPDEST SWAP1 DUP2 ISZERO MUL SWAP1 PUSH1 0x40 MLOAD PUSH0 PUSH1 0x40 MLOAD DUP1 DUP4 SUB DUP2 DUP6 DUP9 DUP9 CALL SWAP4 POP POP POP POP ISZERO DUP1 ISZERO PUSH2 0x358C JUMPI RETURNDATASIZE PUSH0 DUP1 RETURNDATACOPY RETURNDATASIZE PUSH0 REVERT JUMPDEST POP PUSH1 0xF DUP2 DUP2 SLOAD DUP2 LT PUSH2 0x35A1 JUMPI PUSH2 0x35A0 PUSH2 0x4CFA JUMP JUMPDEST JUMPDEST SWAP1 PUSH0 MSTORE PUSH1 0x20 PUSH0 KECCAK256 SWAP1 PUSH1 0x2 MUL ADD PUSH0 ADD PUSH0 SWAP1 SLOAD SWAP1 PUSH2 0x100 EXP SWAP1 DIV PUSH20 0xFFFFFFFFFFFFFFFFFFFFFFFFFFFFFFFFFFFFFFFF AND PUSH20 0xFFFFFFFFFFFFFFFFFFFFFFFFFFFFFFFFFFFFFFFF AND PUSH32 0xFEB6D77D8663B36B3393E8790540B4EBE73ADE87F3146E450022712344DC7B3B PUSH1 0xF DUP4 DUP2 SLOAD DUP2 LT PUSH2 0x361A JUMPI PUSH2 0x3619 PUSH2 0x4CFA JUMP JUMPDEST JUMPDEST SWAP1 PUSH0 MSTORE PUSH1 0x20 PUSH0 KECCAK256 SWAP1 PUSH1 0x2 MUL ADD PUSH0 ADD PUSH1 0x14 SWAP1 SLOAD SWAP1 PUSH2 0x100 EXP SWAP1 DIV PUSH1 0xFF AND PUSH1 0x64 PUSH1 0xD9 PUSH1 0xF DUP7 DUP2 SLOAD DUP2 LT PUSH2 0x364E JUMPI PUSH2 0x364D PUSH2 0x4CFA JUMP JUMPDEST JUMPDEST SWAP1 PUSH0 MSTORE PUSH1 0x20 PUSH0 KECCAK256 SWAP1 PUSH1 0x2 MUL ADD PUSH1 0x1 ADD SLOAD PUSH2 0x3668 SWAP2 SWAP1 PUSH2 0x5B76 JUMP JUMPDEST PUSH2 0x3672 SWAP2 SWAP1 PUSH2 0x5BB7 JUMP JUMPDEST PUSH1 0x40 MLOAD PUSH2 0x3680 SWAP3 SWAP2 SWAP1 PUSH2 0x5C75 JUMP JUMPDEST PUSH1 0x40 MLOAD DUP1 SWAP2 SUB SWAP1 LOG2 JUMPDEST PUSH2 0x38A2 JUMP JUMPDEST PUSH1 0x31 PUSH1 0xF DUP3 DUP2 SLOAD DUP2 LT PUSH2 0x36A4 JUMPI PUSH2 0x36A3 PUSH2 0x4CFA JUMP JUMPDEST JUMPDEST SWAP1 PUSH0 MSTORE PUSH1 0x20 PUSH0 KECCAK256 SWAP1 PUSH1 0x2 MUL ADD PUSH0 ADD PUSH1 0x14 SWAP1 SLOAD SWAP1 PUSH2 0x100 EXP SWAP1 DIV PUSH1 0xFF AND PUSH1 0xFF AND SUB PUSH2 0x38A1 JUMPI PUSH2 0x36DF PUSH1 0x11 PUSH0 SWAP1 SLOAD SWAP1 PUSH2 0x100 EXP SWAP1 DIV PUSH1 0xFF AND PUSH2 0x3A73 JUMP JUMPDEST ISZERO PUSH2 0x38A0 JUMPI PUSH1 0xF DUP2 DUP2 SLOAD DUP2 LT PUSH2 0x36F8 JUMPI PUSH2 0x36F7 PUSH2 0x4CFA JUMP JUMPDEST JUMPDEST SWAP1 PUSH0 MSTORE PUSH1 0x20 PUSH0 KECCAK256 SWAP1 PUSH1 0x2 MUL ADD PUSH0 ADD PUSH0 SWAP1 SLOAD SWAP1 PUSH2 0x100 EXP SWAP1 DIV PUSH20 0xFFFFFFFFFFFFFFFFFFFFFFFFFFFFFFFFFFFFFFFF AND PUSH20 0xFFFFFFFFFFFFFFFFFFFFFFFFFFFFFFFFFFFFFFFF AND PUSH2 0x8FC PUSH1 0x64 PUSH1 0xD9 PUSH1 0xF DUP6 DUP2 SLOAD DUP2 LT PUSH2 0x3757 JUMPI PUSH2 0x3756 PUSH2 0x4CFA JUMP JUMPDEST JUMPDEST SWAP1 PUSH0 MSTORE PUSH1 0x20 PUSH0 KECCAK256 SWAP1 PUSH1 0x2 MUL ADD PUSH1 0x1 ADD SLOAD PUSH2 0x3771 SWAP2 SWAP1 PUSH2 0x5B76 JUMP JUMPDEST PUSH2 0x377B SWAP2 SWAP1 PUSH2 0x5BB7 JUMP JUMPDEST SWAP1 DUP2 ISZERO MUL SWAP1 PUSH1 0x40 MLOAD PUSH0 PUSH1 0x40 MLOAD DUP1 DUP4 SUB DUP2 DUP6 DUP9 DUP9 CALL SWAP4 POP POP POP POP ISZERO DUP1 ISZERO PUSH2 0x37A3 JUMPI RETURNDATASIZE PUSH0 DUP1 RETURNDATACOPY RETURNDATASIZE PUSH0 REVERT JUMPDEST POP PUSH1 0xF DUP2 DUP2 SLOAD DUP2 LT PUSH2 0x37B8 JUMPI PUSH2 0x37B7 PUSH2 0x4CFA JUMP JUMPDEST JUMPDEST SWAP1 PUSH0 MSTORE PUSH1 0x20 PUSH0 KECCAK256 SWAP1 PUSH1 0x2 MUL ADD PUSH0 ADD PUSH0 SWAP1 SLOAD SWAP1 PUSH2 0x100 EXP SWAP1 DIV PUSH20 0xFFFFFFFFFFFFFFFFFFFFFFFFFFFFFFFFFFFFFFFF AND PUSH20 0xFFFFFFFFFFFFFFFFFFFFFFFFFFFFFFFFFFFFFFFF AND PUSH32 0xFEB6D77D8663B36B3393E8790540B4EBE73ADE87F3146E450022712344DC7B3B PUSH1 0xF DUP4 DUP2 SLOAD DUP2 LT PUSH2 0x3831 JUMPI PUSH2 0x3830 PUSH2 0x4CFA JUMP JUMPDEST JUMPDEST SWAP1 PUSH0 MSTORE PUSH1 0x20 PUSH0 KECCAK256 SWAP1 PUSH1 0x2 MUL ADD PUSH0 ADD PUSH1 0x14 SWAP1 SLOAD SWAP1 PUSH2 0x100 EXP SWAP1 DIV PUSH1 0xFF AND PUSH1 0x64 PUSH1 0xD9 PUSH1 0xF DUP7 DUP2 SLOAD DUP2 LT PUSH2 0x3865 JUMPI PUSH2 0x3864 PUSH2 0x4CFA JUMP JUMPDEST JUMPDEST SWAP1 PUSH0 MSTORE PUSH1 0x20 PUSH0 KECCAK256 SWAP1 PUSH1 0x2 MUL ADD PUSH1 0x1 ADD SLOAD PUSH2 0x387F SWAP2 SWAP1 PUSH2 0x5B76 JUMP JUMPDEST PUSH2 0x3889 SWAP2 SWAP1 PUSH2 0x5BB7 JUMP JUMPDEST PUSH1 0x40 MLOAD PUSH2 0x3897 SWAP3 SWAP2 SWAP1 PUSH2 0x5C75 JUMP JUMPDEST PUSH1 0x40 MLOAD DUP1 SWAP2 SUB SWAP1 LOG2 JUMPDEST JUMPDEST JUMPDEST JUMPDEST JUMPDEST JUMPDEST JUMPDEST DUP1 DUP1 PUSH1 0x1 ADD SWAP2 POP POP PUSH2 0x1CFD JUMP JUMPDEST POP PUSH1 0xC PUSH0 SWAP1 SLOAD SWAP1 PUSH2 0x100 EXP SWAP1 DIV PUSH20 0xFFFFFFFFFFFFFFFFFFFFFFFFFFFFFFFFFFFFFFFF AND PUSH20 0xFFFFFFFFFFFFFFFFFFFFFFFFFFFFFFFFFFFFFFFF AND PUSH32 0xD4BA6FEC82D9B0E8FFE50B9FED9E4BE3B25C984CE1E0E016405A5528726E8A2C SELFBALANCE PUSH1 0x40 MLOAD PUSH2 0x391B SWAP2 SWAP1 PUSH2 0x4CC8 JUMP JUMPDEST PUSH1 0x40 MLOAD DUP1 SWAP2 SUB SWAP1 LOG2 PUSH1 0xC PUSH0 SWAP1 SLOAD SWAP1 PUSH2 0x100 EXP SWAP1 DIV PUSH20 0xFFFFFFFFFFFFFFFFFFFFFFFFFFFFFFFFFFFFFFFF AND PUSH20 0xFFFFFFFFFFFFFFFFFFFFFFFFFFFFFFFFFFFFFFFF AND PUSH2 0x8FC SELFBALANCE SWAP1 DUP2 ISZERO MUL SWAP1 PUSH1 0x40 MLOAD PUSH0 PUSH1 0x40 MLOAD DUP1 DUP4 SUB DUP2 DUP6 DUP9 DUP9 CALL SWAP4 POP POP POP POP ISZERO DUP1 ISZERO PUSH2 0x3987 JUMPI RETURNDATASIZE PUSH0 DUP1 RETURNDATACOPY RETURNDATASIZE PUSH0 REVERT JUMPDEST POP JUMP JUMPDEST PUSH0 DUP1 PUSH0 SWAP1 POP JUMPDEST PUSH1 0xC DUP2 PUSH1 0xFF AND LT ISZERO PUSH2 0x39F2 JUMPI DUP3 PUSH1 0xFF AND PUSH1 0x7 DUP3 PUSH1 0xFF AND PUSH1 0xC DUP2 LT PUSH2 0x39B7 JUMPI PUSH2 0x39B6 PUSH2 0x4CFA JUMP JUMPDEST JUMPDEST PUSH1 0x20 SWAP2 DUP3 DUP3 DIV ADD SWAP2 SWAP1 MOD SWAP1 SLOAD SWAP1 PUSH2 0x100 EXP SWAP1 DIV PUSH1 0xFF AND PUSH1 0xFF AND SUB PUSH2 0x39DF JUMPI PUSH1 0x1 SWAP2 POP POP PUSH2 0x39F7 JUMP JUMPDEST DUP1 DUP1 PUSH2 0x39EA SWAP1 PUSH2 0x4D54 JUMP JUMPDEST SWAP2 POP POP PUSH2 0x3990 JUMP JUMPDEST POP PUSH0 SWAP1 POP JUMPDEST SWAP2 SWAP1 POP JUMP JUMPDEST PUSH1 0xD SLOAD DUP2 JUMP JUMPDEST PUSH0 DUP1 PUSH0 SWAP1 POP JUMPDEST PUSH1 0x12 DUP2 PUSH1 0xFF AND LT ISZERO PUSH2 0x3A69 JUMPI DUP3 PUSH1 0xFF AND PUSH0 DUP3 PUSH1 0xFF AND PUSH1 0x12 DUP2 LT PUSH2 0x3A2E JUMPI PUSH2 0x3A2D PUSH2 0x4CFA JUMP JUMPDEST JUMPDEST PUSH1 0x20 SWAP2 DUP3 DUP3 DIV ADD SWAP2 SWAP1 MOD SWAP1 SLOAD SWAP1 PUSH2 0x100 EXP SWAP1 DIV PUSH1 0xFF AND PUSH1 0xFF AND SUB PUSH2 0x3A56 JUMPI PUSH1 0x1 SWAP2 POP POP PUSH2 0x3A6E JUMP JUMPDEST DUP1 DUP1 PUSH2 0x3A61 SWAP1 PUSH2 0x4D54 JUMP JUMPDEST SWAP2 POP POP PUSH2 0x3A08 JUMP JUMPDEST POP PUSH0 SWAP1 POP JUMPDEST SWAP2 SWAP1 POP JUMP JUMPDEST PUSH0 DUP1 PUSH0 SWAP1 POP JUMPDEST PUSH1 0xC DUP2 PUSH1 0xFF AND LT ISZERO PUSH2 0x3ADB JUMPI DUP3 PUSH1 0xFF AND PUSH1 0xB DUP3 PUSH1 0xFF AND PUSH1 0xC DUP2 LT PUSH2 0x3AA0 JUMPI PUSH2 0x3A9F PUSH2 0x4CFA JUMP JUMPDEST JUMPDEST PUSH1 0x20 SWAP2 DUP3 DUP3 DIV ADD SWAP2 SWAP1 MOD SWAP1 SLOAD SWAP1 PUSH2 0x100 EXP SWAP1 DIV PUSH1 0xFF AND PUSH1 0xFF AND SUB PUSH2 0x3AC8 JUMPI PUSH1 0x1 SWAP2 POP POP PUSH2 0x3AE0 JUMP JUMPDEST DUP1 DUP1 PUSH2 0x3AD3 SWAP1 PUSH2 0x4D54 JUMP JUMPDEST SWAP2 POP POP PUSH2 0x3A79 JUMP JUMPDEST POP PUSH0 SWAP1 POP JUMPDEST SWAP2 SWAP1 POP JUMP JUMPDEST PUSH1 0x3 DUP2 PUSH1 0x12 DUP2 LT PUSH2 0x3AF4 JUMPI PUSH0 DUP1 REVERT JUMPDEST PUSH1 0x20 SWAP2 DUP3 DUP3 DIV ADD SWAP2 SWAP1 MOD SWAP2 POP SLOAD SWAP1 PUSH2 0x100 EXP SWAP1 DIV PUSH1 0xFF AND DUP2 JUMP JUMPDEST PUSH1 0x7 DUP2 PUSH1 0xC DUP2 LT PUSH2 0x3B1D JUMPI PUSH0 DUP1 REVERT JUMPDEST PUSH1 0x20 SWAP2 DUP3 DUP3 DIV ADD SWAP2 SWAP1 MOD SWAP2 POP SLOAD SWAP1 PUSH2 0x100 EXP SWAP1 DIV PUSH1 0xFF AND DUP2 JUMP JUMPDEST PUSH1 0x1 DUP2 PUSH1 0x12 DUP2 LT PUSH2 0x3B46 JUMPI PUSH0 DUP1 REVERT JUMPDEST PUSH1 0x20 SWAP2 DUP3 DUP3 DIV ADD SWAP2 SWAP1 MOD SWAP2 POP SLOAD SWAP1 PUSH2 0x100 EXP SWAP1 DIV PUSH1 0xFF AND DUP2 JUMP JUMPDEST PUSH1 0x13 DUP2 DUP2 SLOAD DUP2 LT PUSH2 0x3B6F JUMPI PUSH0 DUP1 REVERT JUMPDEST SWAP1 PUSH0 MSTORE PUSH1 0x20 PUSH0 KECCAK256 ADD PUSH0 SWAP2 POP SLOAD SWAP1 PUSH2 0x100 EXP SWAP1 DIV PUSH20 0xFFFFFFFFFFFFFFFFFFFFFFFFFFFFFFFFFFFFFFFF AND DUP2 JUMP JUMPDEST PUSH0 PUSH1 0xFF AND PUSH1 0xE PUSH0 SWAP1 SLOAD SWAP1 PUSH2 0x100 EXP SWAP1 DIV PUSH1 0xFF AND PUSH1 0xFF AND EQ PUSH2 0x3BF1 JUMPI PUSH1 0x40 MLOAD PUSH32 0x8C379A000000000000000000000000000000000000000000000000000000000 DUP2 MSTORE PUSH1 0x4 ADD PUSH2 0x3BE8 SWAP1 PUSH2 0x5D4E JUMP JUMPDEST PUSH1 0x40 MLOAD DUP1 SWAP2 SUB SWAP1 REVERT JUMPDEST PUSH1 0xC PUSH0 SWAP1 SLOAD SWAP1 PUSH2 0x100 EXP SWAP1 DIV PUSH20 0xFFFFFFFFFFFFFFFFFFFFFFFFFFFFFFFFFFFFFFFF AND PUSH20 0xFFFFFFFFFFFFFFFFFFFFFFFFFFFFFFFFFFFFFFFF AND CALLER PUSH20 0xFFFFFFFFFFFFFFFFFFFFFFFFFFFFFFFFFFFFFFFF AND EQ PUSH2 0x3C80 JUMPI PUSH1 0x40 MLOAD PUSH32 0x8C379A000000000000000000000000000000000000000000000000000000000 DUP2 MSTORE PUSH1 0x4 ADD PUSH2 0x3C77 SWAP1 PUSH2 0x5DB6 JUMP JUMPDEST PUSH1 0x40 MLOAD DUP1 SWAP2 SUB SWAP1 REVERT JUMPDEST PUSH1 0x1 PUSH1 0xE PUSH0 PUSH2 0x100 EXP DUP2 SLOAD DUP2 PUSH1 0xFF MUL NOT AND SWAP1 DUP4 PUSH1 0xFF AND MUL OR SWAP1 SSTORE POP CALLER PUSH20 0xFFFFFFFFFFFFFFFFFFFFFFFFFFFFFFFFFFFFFFFF AND PUSH32 0x5A6C38B61CFC87B08186EC74738F787EC19C78C75B5B70442F580362ABD96D29 CALLVALUE PUSH1 0x40 MLOAD PUSH2 0x3CE1 SWAP2 SWAP1 PUSH2 0x4CC8 JUMP JUMPDEST PUSH1 0x40 MLOAD DUP1 SWAP2 SUB SWAP1 LOG2 JUMP JUMPDEST PUSH0 DUP1 PUSH0 SWAP1 POP PUSH0 JUMPDEST PUSH1 0xF DUP1 SLOAD SWAP1 POP DUP2 LT ISZERO PUSH2 0x3D3D JUMPI PUSH1 0xF DUP2 DUP2 SLOAD DUP2 LT PUSH2 0x3D13 JUMPI PUSH2 0x3D12 PUSH2 0x4CFA JUMP JUMPDEST JUMPDEST SWAP1 PUSH0 MSTORE PUSH1 0x20 PUSH0 KECCAK256 SWAP1 PUSH1 0x2 MUL ADD PUSH1 0x1 ADD SLOAD DUP3 PUSH2 0x3D2E SWAP2 SWAP1 PUSH2 0x4E5C JUMP JUMPDEST SWAP2 POP DUP1 DUP1 PUSH1 0x1 ADD SWAP2 POP POP PUSH2 0x3CF2 JUMP JUMPDEST POP DUP1 SWAP2 POP POP SWAP1 JUMP JUMPDEST PUSH1 0x4 DUP2 PUSH1 0x12 DUP2 LT PUSH2 0x3D54 JUMPI PUSH0 DUP1 REVERT JUMPDEST PUSH1 0x20 SWAP2 DUP3 DUP3 DIV ADD SWAP2 SWAP1 MOD SWAP2 POP SLOAD SWAP1 PUSH2 0x100 EXP SWAP1 DIV PUSH1 0xFF AND DUP2 JUMP JUMPDEST PUSH0 DUP1 PUSH0 SWAP1 POP JUMPDEST PUSH1 0x12 DUP2 PUSH1 0xFF AND LT ISZERO PUSH2 0x3DD6 JUMPI DUP3 PUSH1 0xFF AND PUSH1 0x5 DUP3 PUSH1 0xFF AND PUSH1 0x12 DUP2 LT PUSH2 0x3D9B JUMPI PUSH2 0x3D9A PUSH2 0x4CFA JUMP JUMPDEST JUMPDEST PUSH1 0x20 SWAP2 DUP3 DUP3 DIV ADD SWAP2 SWAP1 MOD SWAP1 SLOAD SWAP1 PUSH2 0x100 EXP SWAP1 DIV PUSH1 0xFF AND PUSH1 0xFF AND SUB PUSH2 0x3DC3 JUMPI PUSH1 0x1 SWAP2 POP POP PUSH2 0x3DDB JUMP JUMPDEST DUP1 DUP1 PUSH2 0x3DCE SWAP1 PUSH2 0x4D54 JUMP JUMPDEST SWAP2 POP POP PUSH2 0x3D74 JUMP JUMPDEST POP PUSH0 SWAP1 POP JUMPDEST SWAP2 SWAP1 POP JUMP JUMPDEST PUSH1 0x6 DUP2 PUSH1 0xC DUP2 LT PUSH2 0x3DEF JUMPI PUSH0 DUP1 REVERT JUMPDEST PUSH1 0x20 SWAP2 DUP3 DUP3 DIV ADD SWAP2 SWAP1 MOD SWAP2 POP SLOAD SWAP1 PUSH2 0x100 EXP SWAP1 DIV PUSH1 0xFF AND DUP2 JUMP JUMPDEST PUSH0 DUP1 PUSH0 SWAP1 POP JUMPDEST PUSH1 0x12 DUP2 PUSH1 0xFF AND LT ISZERO PUSH2 0x3E71 JUMPI DUP3 PUSH1 0xFF AND PUSH1 0x1 DUP3 PUSH1 0xFF AND PUSH1 0x12 DUP2 LT PUSH2 0x3E36 JUMPI PUSH2 0x3E35 PUSH2 0x4CFA JUMP JUMPDEST JUMPDEST PUSH1 0x20 SWAP2 DUP3 DUP3 DIV ADD SWAP2 SWAP1 MOD SWAP1 SLOAD SWAP1 PUSH2 0x100 EXP SWAP1 DIV PUSH1 0xFF AND PUSH1 0xFF AND SUB PUSH2 0x3E5E JUMPI PUSH1 0x1 SWAP2 POP POP PUSH2 0x3E76 JUMP JUMPDEST DUP1 DUP1 PUSH2 0x3E69 SWAP1 PUSH2 0x4D54 JUMP JUMPDEST SWAP2 POP POP PUSH2 0x3E0F JUMP JUMPDEST POP PUSH0 SWAP1 POP JUMPDEST SWAP2 SWAP1 POP JUMP JUMPDEST PUSH0 DUP1 PUSH0 SWAP1 POP JUMPDEST PUSH1 0xC DUP2 PUSH1 0xFF AND LT ISZERO PUSH2 0x3EE3 JUMPI DUP3 PUSH1 0xFF AND PUSH1 0x8 DUP3 PUSH1 0xFF AND PUSH1 0xC DUP2 LT PUSH2 0x3EA8 JUMPI PUSH2 0x3EA7 PUSH2 0x4CFA JUMP JUMPDEST JUMPDEST PUSH1 0x20 SWAP2 DUP3 DUP3 DIV ADD SWAP2 SWAP1 MOD SWAP1 SLOAD SWAP1 PUSH2 0x100 EXP SWAP1 DIV PUSH1 0xFF AND PUSH1 0xFF AND SUB PUSH2 0x3ED0 JUMPI PUSH1 0x1 SWAP2 POP POP PUSH2 0x3EE8 JUMP JUMPDEST DUP1 DUP1 PUSH2 0x3EDB SWAP1 PUSH2 0x4D54 JUMP JUMPDEST SWAP2 POP POP PUSH2 0x3E81 JUMP JUMPDEST POP PUSH0 SWAP1 POP JUMPDEST SWAP2 SWAP1 POP JUMP JUMPDEST PUSH0 DUP2 PUSH1 0x12 DUP2 LT PUSH2 0x3EFB JUMPI PUSH0 DUP1 REVERT JUMPDEST PUSH1 0x20 SWAP2 DUP3 DUP3 DIV ADD SWAP2 SWAP1 MOD SWAP2 POP SLOAD SWAP1 PUSH2 0x100 EXP SWAP1 DIV PUSH1 0xFF AND DUP2 JUMP JUMPDEST PUSH1 0xC PUSH0 SWAP1 SLOAD SWAP1 PUSH2 0x100 EXP SWAP1 DIV PUSH20 0xFFFFFFFFFFFFFFFFFFFFFFFFFFFFFFFFFFFFFFFF AND DUP2 JUMP JUMPDEST PUSH1 0x5 DUP2 PUSH1 0x12 DUP2 LT PUSH2 0x3F49 JUMPI PUSH0 DUP1 REVERT JUMPDEST PUSH1 0x20 SWAP2 DUP3 DUP3 DIV ADD SWAP2 SWAP1 MOD SWAP2 POP SLOAD SWAP1 PUSH2 0x100 EXP SWAP1 DIV PUSH1 0xFF AND DUP2 JUMP JUMPDEST PUSH0 DUP1 PUSH0 SWAP1 POP JUMPDEST PUSH1 0x12 DUP1 SLOAD SWAP1 POP DUP2 LT ISZERO PUSH2 0x3FFB JUMPI DUP3 PUSH20 0xFFFFFFFFFFFFFFFFFFFFFFFFFFFFFFFFFFFFFFFF AND PUSH1 0x12 DUP3 DUP2 SLOAD DUP2 LT PUSH2 0x3FA1 JUMPI PUSH2 0x3FA0 PUSH2 0x4CFA JUMP JUMPDEST JUMPDEST SWAP1 PUSH0 MSTORE PUSH1 0x20 PUSH0 KECCAK256 ADD PUSH0 SWAP1 SLOAD SWAP1 PUSH2 0x100 EXP SWAP1 DIV PUSH20 0xFFFFFFFFFFFFFFFFFFFFFFFFFFFFFFFFFFFFFFFF AND PUSH20 0xFFFFFFFFFFFFFFFFFFFFFFFFFFFFFFFFFFFFFFFF AND SUB PUSH2 0x3FEE JUMPI PUSH1 0x1 SWAP2 POP POP PUSH2 0x4000 JUMP JUMPDEST DUP1 DUP1 PUSH1 0x1 ADD SWAP2 POP POP PUSH2 0x3F69 JUMP JUMPDEST POP PUSH0 SWAP1 POP JUMPDEST SWAP2 SWAP1 POP JUMP JUMPDEST PUSH1 0x60 PUSH0 DUP3 SUB PUSH2 0x404B JUMPI PUSH1 0x40 MLOAD DUP1 PUSH1 0x40 ADD PUSH1 0x40 MSTORE DUP1 PUSH1 0x1 DUP2 MSTORE PUSH1 0x20 ADD PUSH32 0x3000000000000000000000000000000000000000000000000000000000000000 DUP2 MSTORE POP SWAP1 POP PUSH2 0x4160 JUMP JUMPDEST PUSH0 DUP3 SWAP1 POP PUSH0 JUMPDEST PUSH0 DUP3 EQ PUSH2 0x407A JUMPI DUP1 DUP1 PUSH2 0x4063 SWAP1 PUSH2 0x5DD4 JUMP JUMPDEST SWAP2 POP POP PUSH1 0xA DUP3 PUSH2 0x4073 SWAP2 SWAP1 PUSH2 0x5BB7 JUMP JUMPDEST SWAP2 POP PUSH2 0x4051 JUMP JUMPDEST PUSH0 DUP2 PUSH8 0xFFFFFFFFFFFFFFFF DUP2 GT ISZERO PUSH2 0x4095 JUMPI PUSH2 0x4094 PUSH2 0x548B JUMP JUMPDEST JUMPDEST PUSH1 0x40 MLOAD SWAP1 DUP1 DUP3 MSTORE DUP1 PUSH1 0x1F ADD PUSH1 0x1F NOT AND PUSH1 0x20 ADD DUP3 ADD PUSH1 0x40 MSTORE DUP1 ISZERO PUSH2 0x40C7 JUMPI DUP2 PUSH1 0x20 ADD PUSH1 0x1 DUP3 MUL DUP1 CALLDATASIZE DUP4 CALLDATACOPY DUP1 DUP3 ADD SWAP2 POP POP SWAP1 POP JUMPDEST POP SWAP1 POP PUSH0 DUP3 SWAP1 POP DUP6 SWAP4 POP JUMPDEST PUSH0 DUP5 EQ PUSH2 0x4158 JUMPI DUP1 DUP1 PUSH2 0x40E4 SWAP1 PUSH2 0x5E1B JUMP JUMPDEST SWAP2 POP POP PUSH1 0xA DUP5 PUSH2 0x40F4 SWAP2 SWAP1 PUSH2 0x504C JUMP JUMPDEST PUSH1 0x30 PUSH2 0x4100 SWAP2 SWAP1 PUSH2 0x4E5C JUMP JUMPDEST PUSH1 0xF8 SHL DUP3 DUP3 DUP2 MLOAD DUP2 LT PUSH2 0x4116 JUMPI PUSH2 0x4115 PUSH2 0x4CFA JUMP JUMPDEST JUMPDEST PUSH1 0x20 ADD ADD SWAP1 PUSH31 0xFFFFFFFFFFFFFFFFFFFFFFFFFFFFFFFFFFFFFFFFFFFFFFFFFFFFFFFFFFFFFF NOT AND SWAP1 DUP2 PUSH0 BYTE SWAP1 MSTORE8 POP PUSH1 0xA DUP5 PUSH2 0x4151 SWAP2 SWAP1 PUSH2 0x5BB7 JUMP JUMPDEST SWAP4 POP PUSH2 0x40D2 JUMP JUMPDEST DUP2 SWAP5 POP POP POP POP POP JUMPDEST SWAP2 SWAP1 POP JUMP JUMPDEST PUSH1 0x60 PUSH0 PUSH1 0x40 MLOAD DUP1 PUSH1 0x40 ADD PUSH1 0x40 MSTORE DUP1 PUSH1 0x10 DUP2 MSTORE PUSH1 0x20 ADD PUSH32 0x3031323334353637383961626364656600000000000000000000000000000000 DUP2 MSTORE POP SWAP1 POP PUSH0 PUSH1 0x42 PUSH8 0xFFFFFFFFFFFFFFFF DUP2 GT ISZERO PUSH2 0x41BC JUMPI PUSH2 0x41BB PUSH2 0x548B JUMP JUMPDEST JUMPDEST PUSH1 0x40 MLOAD SWAP1 DUP1 DUP3 MSTORE DUP1 PUSH1 0x1F ADD PUSH1 0x1F NOT AND PUSH1 0x20 ADD DUP3 ADD PUSH1 0x40 MSTORE DUP1 ISZERO PUSH2 0x41EE JUMPI DUP2 PUSH1 0x20 ADD PUSH1 0x1 DUP3 MUL DUP1 CALLDATASIZE DUP4 CALLDATACOPY DUP1 DUP3 ADD SWAP2 POP POP SWAP1 POP JUMPDEST POP SWAP1 POP PUSH32 0x3000000000000000000000000000000000000000000000000000000000000000 DUP2 PUSH0 DUP2 MLOAD DUP2 LT PUSH2 0x4225 JUMPI PUSH2 0x4224 PUSH2 0x4CFA JUMP JUMPDEST JUMPDEST PUSH1 0x20 ADD ADD SWAP1 PUSH31 0xFFFFFFFFFFFFFFFFFFFFFFFFFFFFFFFFFFFFFFFFFFFFFFFFFFFFFFFFFFFFFF NOT AND SWAP1 DUP2 PUSH0 BYTE SWAP1 MSTORE8 POP PUSH32 0x7800000000000000000000000000000000000000000000000000000000000000 DUP2 PUSH1 0x1 DUP2 MLOAD DUP2 LT PUSH2 0x4288 JUMPI PUSH2 0x4287 PUSH2 0x4CFA JUMP JUMPDEST JUMPDEST PUSH1 0x20 ADD ADD SWAP1 PUSH31 0xFFFFFFFFFFFFFFFFFFFFFFFFFFFFFFFFFFFFFFFFFFFFFFFFFFFFFFFFFFFFFF NOT AND SWAP1 DUP2 PUSH0 BYTE SWAP1 MSTORE8 POP PUSH0 JUMPDEST PUSH1 0x20 DUP2 LT ISZERO PUSH2 0x4420 JUMPI DUP3 PUSH1 0x4 DUP7 DUP4 PUSH1 0x20 DUP2 LT PUSH2 0x42D7 JUMPI PUSH2 0x42D6 PUSH2 0x4CFA JUMP JUMPDEST JUMPDEST BYTE PUSH1 0xF8 SHL PUSH31 0xFFFFFFFFFFFFFFFFFFFFFFFFFFFFFFFFFFFFFFFFFFFFFFFFFFFFFFFFFFFFFF NOT AND SWAP1 SHR PUSH1 0xF8 SHR PUSH1 0xFF AND DUP2 MLOAD DUP2 LT PUSH2 0x4316 JUMPI PUSH2 0x4315 PUSH2 0x4CFA JUMP JUMPDEST JUMPDEST PUSH1 0x20 ADD ADD MLOAD PUSH1 0xF8 SHR PUSH1 0xF8 SHL DUP3 PUSH1 0x2 DUP4 PUSH2 0x432F SWAP2 SWAP1 PUSH2 0x5B76 JUMP JUMPDEST PUSH1 0x2 PUSH2 0x433B SWAP2 SWAP1 PUSH2 0x4E5C JUMP JUMPDEST DUP2 MLOAD DUP2 LT PUSH2 0x434C JUMPI PUSH2 0x434B PUSH2 0x4CFA JUMP JUMPDEST JUMPDEST PUSH1 0x20 ADD ADD SWAP1 PUSH31 0xFFFFFFFFFFFFFFFFFFFFFFFFFFFFFFFFFFFFFFFFFFFFFFFFFFFFFFFFFFFFFF NOT AND SWAP1 DUP2 PUSH0 BYTE SWAP1 MSTORE8 POP DUP3 PUSH1 0xF PUSH1 0xF8 SHL DUP7 DUP4 PUSH1 0x20 DUP2 LT PUSH2 0x4393 JUMPI PUSH2 0x4392 PUSH2 0x4CFA JUMP JUMPDEST JUMPDEST BYTE PUSH1 0xF8 SHL AND PUSH1 0xF8 SHR PUSH1 0xFF AND DUP2 MLOAD DUP2 LT PUSH2 0x43AF JUMPI PUSH2 0x43AE PUSH2 0x4CFA JUMP JUMPDEST JUMPDEST PUSH1 0x20 ADD ADD MLOAD PUSH1 0xF8 SHR PUSH1 0xF8 SHL DUP3 PUSH1 0x2 DUP4 PUSH2 0x43C8 SWAP2 SWAP1 PUSH2 0x5B76 JUMP JUMPDEST PUSH1 0x3 PUSH2 0x43D4 SWAP2 SWAP1 PUSH2 0x4E5C JUMP JUMPDEST DUP2 MLOAD DUP2 LT PUSH2 0x43E5 JUMPI PUSH2 0x43E4 PUSH2 0x4CFA JUMP JUMPDEST JUMPDEST PUSH1 0x20 ADD ADD SWAP1 PUSH31 0xFFFFFFFFFFFFFFFFFFFFFFFFFFFFFFFFFFFFFFFFFFFFFFFFFFFFFFFFFFFFFF NOT AND SWAP1 DUP2 PUSH0 BYTE SWAP1 MSTORE8 POP DUP1 DUP1 PUSH1 0x1 ADD SWAP2 POP POP PUSH2 0x42B8 JUMP JUMPDEST POP DUP1 SWAP3 POP POP POP SWAP2 SWAP1 POP JUMP JUMPDEST PUSH1 0x60 PUSH0 DUP3 MLOAD SUB PUSH2 0x4472 JUMPI PUSH1 0x40 MLOAD DUP1 PUSH1 0x40 ADD PUSH1 0x40 MSTORE DUP1 PUSH1 0x2 DUP2 MSTORE PUSH1 0x20 ADD PUSH32 0x5B5D000000000000000000000000000000000000000000000000000000000000 DUP2 MSTORE POP SWAP1 POP PUSH2 0x4569 JUMP JUMPDEST PUSH0 PUSH1 0x40 MLOAD DUP1 PUSH1 0x40 ADD PUSH1 0x40 MSTORE DUP1 PUSH1 0x1 DUP2 MSTORE PUSH1 0x20 ADD PUSH32 0x5B00000000000000000000000000000000000000000000000000000000000000 DUP2 MSTORE POP SWAP1 POP PUSH0 JUMPDEST DUP4 MLOAD DUP2 LT ISZERO PUSH2 0x4541 JUMPI DUP2 PUSH2 0x44DA DUP6 DUP4 DUP2 MLOAD DUP2 LT PUSH2 0x44CD JUMPI PUSH2 0x44CC PUSH2 0x4CFA JUMP JUMPDEST JUMPDEST PUSH1 0x20 MUL PUSH1 0x20 ADD ADD MLOAD PUSH2 0x4859 JUMP JUMPDEST PUSH1 0x40 MLOAD PUSH1 0x20 ADD PUSH2 0x44EB SWAP3 SWAP2 SWAP1 PUSH2 0x5E42 JUMP JUMPDEST PUSH1 0x40 MLOAD PUSH1 0x20 DUP2 DUP4 SUB SUB DUP2 MSTORE SWAP1 PUSH1 0x40 MSTORE SWAP2 POP PUSH1 0x1 DUP5 MLOAD PUSH2 0x450A SWAP2 SWAP1 PUSH2 0x5E65 JUMP JUMPDEST DUP2 LT ISZERO PUSH2 0x4534 JUMPI DUP2 PUSH1 0x40 MLOAD PUSH1 0x20 ADD PUSH2 0x4522 SWAP2 SWAP1 PUSH2 0x5EE2 JUMP JUMPDEST PUSH1 0x40 MLOAD PUSH1 0x20 DUP2 DUP4 SUB SUB DUP2 MSTORE SWAP1 PUSH1 0x40 MSTORE SWAP2 POP JUMPDEST DUP1 DUP1 PUSH1 0x1 ADD SWAP2 POP POP PUSH2 0x44AD JUMP JUMPDEST POP DUP1 PUSH1 0x40 MLOAD PUSH1 0x20 ADD PUSH2 0x4553 SWAP2 SWAP1 PUSH2 0x5F4D JUMP JUMPDEST PUSH1 0x40 MLOAD PUSH1 0x20 DUP2 DUP4 SUB SUB DUP2 MSTORE SWAP1 PUSH1 0x40 MSTORE SWAP1 POP DUP1 SWAP2 POP POP JUMPDEST SWAP2 SWAP1 POP JUMP JUMPDEST PUSH1 0x60 PUSH0 PUSH1 0x40 MLOAD DUP1 PUSH1 0x40 ADD PUSH1 0x40 MSTORE DUP1 PUSH1 0x10 DUP2 MSTORE PUSH1 0x20 ADD PUSH32 0x3031323334353637383961626364656600000000000000000000000000000000 DUP2 MSTORE POP SWAP1 POP PUSH0 PUSH1 0x2 DUP1 DUP6 MLOAD PUSH2 0x45B9 SWAP2 SWAP1 PUSH2 0x5B76 JUMP JUMPDEST PUSH2 0x45C3 SWAP2 SWAP1 PUSH2 0x4E5C JUMP JUMPDEST PUSH8 0xFFFFFFFFFFFFFFFF DUP2 GT ISZERO PUSH2 0x45DC JUMPI PUSH2 0x45DB PUSH2 0x548B JUMP JUMPDEST JUMPDEST PUSH1 0x40 MLOAD SWAP1 DUP1 DUP3 MSTORE DUP1 PUSH1 0x1F ADD PUSH1 0x1F NOT AND PUSH1 0x20 ADD DUP3 ADD PUSH1 0x40 MSTORE DUP1 ISZERO PUSH2 0x460E JUMPI DUP2 PUSH1 0x20 ADD PUSH1 0x1 DUP3 MUL DUP1 CALLDATASIZE DUP4 CALLDATACOPY DUP1 DUP3 ADD SWAP2 POP POP SWAP1 POP JUMPDEST POP SWAP1 POP PUSH32 0x3000000000000000000000000000000000000000000000000000000000000000 DUP2 PUSH0 DUP2 MLOAD DUP2 LT PUSH2 0x4645 JUMPI PUSH2 0x4644 PUSH2 0x4CFA JUMP JUMPDEST JUMPDEST PUSH1 0x20 ADD ADD SWAP1 PUSH31 0xFFFFFFFFFFFFFFFFFFFFFFFFFFFFFFFFFFFFFFFFFFFFFFFFFFFFFFFFFFFFFF NOT AND SWAP1 DUP2 PUSH0 BYTE SWAP1 MSTORE8 POP PUSH32 0x7800000000000000000000000000000000000000000000000000000000000000 DUP2 PUSH1 0x1 DUP2 MLOAD DUP2 LT PUSH2 0x46A8 JUMPI PUSH2 0x46A7 PUSH2 0x4CFA JUMP JUMPDEST JUMPDEST PUSH1 0x20 ADD ADD SWAP1 PUSH31 0xFFFFFFFFFFFFFFFFFFFFFFFFFFFFFFFFFFFFFFFFFFFFFFFFFFFFFFFFFFFFFF NOT AND SWAP1 DUP2 PUSH0 BYTE SWAP1 MSTORE8 POP PUSH0 JUMPDEST DUP5 MLOAD DUP2 LT ISZERO PUSH2 0x484E JUMPI DUP3 PUSH1 0x4 DUP7 DUP4 DUP2 MLOAD DUP2 LT PUSH2 0x46F7 JUMPI PUSH2 0x46F6 PUSH2 0x4CFA JUMP JUMPDEST JUMPDEST PUSH1 0x20 ADD ADD MLOAD PUSH1 0xF8 SHR PUSH1 0xF8 SHL PUSH31 0xFFFFFFFFFFFFFFFFFFFFFFFFFFFFFFFFFFFFFFFFFFFFFFFFFFFFFFFFFFFFFF NOT AND SWAP1 SHR PUSH1 0xF8 SHR PUSH1 0xFF AND DUP2 MLOAD DUP2 LT PUSH2 0x473D JUMPI PUSH2 0x473C PUSH2 0x4CFA JUMP JUMPDEST JUMPDEST PUSH1 0x20 ADD ADD MLOAD PUSH1 0xF8 SHR PUSH1 0xF8 SHL DUP3 PUSH1 0x2 DUP4 PUSH2 0x4756 SWAP2 SWAP1 PUSH2 0x5B76 JUMP JUMPDEST PUSH1 0x2 PUSH2 0x4762 SWAP2 SWAP1 PUSH2 0x4E5C JUMP JUMPDEST DUP2 MLOAD DUP2 LT PUSH2 0x4773 JUMPI PUSH2 0x4772 PUSH2 0x4CFA JUMP JUMPDEST JUMPDEST PUSH1 0x20 ADD ADD SWAP1 PUSH31 0xFFFFFFFFFFFFFFFFFFFFFFFFFFFFFFFFFFFFFFFFFFFFFFFFFFFFFFFFFFFFFF NOT AND SWAP1 DUP2 PUSH0 BYTE SWAP1 MSTORE8 POP DUP3 PUSH1 0xF PUSH1 0xF8 SHL DUP7 DUP4 DUP2 MLOAD DUP2 LT PUSH2 0x47BA JUMPI PUSH2 0x47B9 PUSH2 0x4CFA JUMP JUMPDEST JUMPDEST PUSH1 0x20 ADD ADD MLOAD PUSH1 0xF8 SHR PUSH1 0xF8 SHL AND PUSH1 0xF8 SHR PUSH1 0xFF AND DUP2 MLOAD DUP2 LT PUSH2 0x47DD JUMPI PUSH2 0x47DC PUSH2 0x4CFA JUMP JUMPDEST JUMPDEST PUSH1 0x20 ADD ADD MLOAD PUSH1 0xF8 SHR PUSH1 0xF8 SHL DUP3 PUSH1 0x2 DUP4 PUSH2 0x47F6 SWAP2 SWAP1 PUSH2 0x5B76 JUMP JUMPDEST PUSH1 0x3 PUSH2 0x4802 SWAP2 SWAP1 PUSH2 0x4E5C JUMP JUMPDEST DUP2 MLOAD DUP2 LT PUSH2 0x4813 JUMPI PUSH2 0x4812 PUSH2 0x4CFA JUMP JUMPDEST JUMPDEST PUSH1 0x20 ADD ADD SWAP1 PUSH31 0xFFFFFFFFFFFFFFFFFFFFFFFFFFFFFFFFFFFFFFFFFFFFFFFFFFFFFFFFFFFFFF NOT AND SWAP1 DUP2 PUSH0 BYTE SWAP1 MSTORE8 POP DUP1 DUP1 PUSH1 0x1 ADD SWAP2 POP POP PUSH2 0x46D8 JUMP JUMPDEST POP DUP1 SWAP3 POP POP POP SWAP2 SWAP1 POP JUMP JUMPDEST PUSH1 0x60 PUSH0 PUSH1 0x40 MLOAD DUP1 PUSH1 0x40 ADD PUSH1 0x40 MSTORE DUP1 PUSH1 0x10 DUP2 MSTORE PUSH1 0x20 ADD PUSH32 0x3031323334353637383961626364656600000000000000000000000000000000 DUP2 MSTORE POP SWAP1 POP PUSH0 DUP4 PUSH1 0x60 SHL SWAP1 POP PUSH0 PUSH1 0x2A PUSH8 0xFFFFFFFFFFFFFFFF DUP2 GT ISZERO PUSH2 0x48B7 JUMPI PUSH2 0x48B6 PUSH2 0x548B JUMP JUMPDEST JUMPDEST PUSH1 0x40 MLOAD SWAP1 DUP1 DUP3 MSTORE DUP1 PUSH1 0x1F ADD PUSH1 0x1F NOT AND PUSH1 0x20 ADD DUP3 ADD PUSH1 0x40 MSTORE DUP1 ISZERO PUSH2 0x48E9 JUMPI DUP2 PUSH1 0x20 ADD PUSH1 0x1 DUP3 MUL DUP1 CALLDATASIZE DUP4 CALLDATACOPY DUP1 DUP3 ADD SWAP2 POP POP SWAP1 POP JUMPDEST POP SWAP1 POP PUSH32 0x3000000000000000000000000000000000000000000000000000000000000000 DUP2 PUSH0 DUP2 MLOAD DUP2 LT PUSH2 0x4920 JUMPI PUSH2 0x491F PUSH2 0x4CFA JUMP JUMPDEST JUMPDEST PUSH1 0x20 ADD ADD SWAP1 PUSH31 0xFFFFFFFFFFFFFFFFFFFFFFFFFFFFFFFFFFFFFFFFFFFFFFFFFFFFFFFFFFFFFF NOT AND SWAP1 DUP2 PUSH0 BYTE SWAP1 MSTORE8 POP PUSH32 0x7800000000000000000000000000000000000000000000000000000000000000 DUP2 PUSH1 0x1 DUP2 MLOAD DUP2 LT PUSH2 0x4983 JUMPI PUSH2 0x4982 PUSH2 0x4CFA JUMP JUMPDEST JUMPDEST PUSH1 0x20 ADD ADD SWAP1 PUSH31 0xFFFFFFFFFFFFFFFFFFFFFFFFFFFFFFFFFFFFFFFFFFFFFFFFFFFFFFFFFFFFFF NOT AND SWAP1 DUP2 PUSH0 BYTE SWAP1 MSTORE8 POP PUSH0 JUMPDEST PUSH1 0x14 DUP2 LT ISZERO PUSH2 0x4B1B JUMPI DUP4 PUSH1 0x4 DUP5 DUP4 PUSH1 0x14 DUP2 LT PUSH2 0x49D2 JUMPI PUSH2 0x49D1 PUSH2 0x4CFA JUMP JUMPDEST JUMPDEST BYTE PUSH1 0xF8 SHL PUSH31 0xFFFFFFFFFFFFFFFFFFFFFFFFFFFFFFFFFFFFFFFFFFFFFFFFFFFFFFFFFFFFFF NOT AND SWAP1 SHR PUSH1 0xF8 SHR PUSH1 0xFF AND DUP2 MLOAD DUP2 LT PUSH2 0x4A11 JUMPI PUSH2 0x4A10 PUSH2 0x4CFA JUMP JUMPDEST JUMPDEST PUSH1 0x20 ADD ADD MLOAD PUSH1 0xF8 SHR PUSH1 0xF8 SHL DUP3 PUSH1 0x2 DUP4 PUSH2 0x4A2A SWAP2 SWAP1 PUSH2 0x5B76 JUMP JUMPDEST PUSH1 0x2 PUSH2 0x4A36 SWAP2 SWAP1 PUSH2 0x4E5C JUMP JUMPDEST DUP2 MLOAD DUP2 LT PUSH2 0x4A47 JUMPI PUSH2 0x4A46 PUSH2 0x4CFA JUMP JUMPDEST JUMPDEST PUSH1 0x20 ADD ADD SWAP1 PUSH31 0xFFFFFFFFFFFFFFFFFFFFFFFFFFFFFFFFFFFFFFFFFFFFFFFFFFFFFFFFFFFFFF NOT AND SWAP1 DUP2 PUSH0 BYTE SWAP1 MSTORE8 POP DUP4 PUSH1 0xF PUSH1 0xF8 SHL DUP5 DUP4 PUSH1 0x14 DUP2 LT PUSH2 0x4A8E JUMPI PUSH2 0x4A8D PUSH2 0x4CFA JUMP JUMPDEST JUMPDEST BYTE PUSH1 0xF8 SHL AND PUSH1 0xF8 SHR PUSH1 0xFF AND DUP2 MLOAD DUP2 LT PUSH2 0x4AAA JUMPI PUSH2 0x4AA9 PUSH2 0x4CFA JUMP JUMPDEST JUMPDEST PUSH1 0x20 ADD ADD MLOAD PUSH1 0xF8 SHR PUSH1 0xF8 SHL DUP3 PUSH1 0x2 DUP4 PUSH2 0x4AC3 SWAP2 SWAP1 PUSH2 0x5B76 JUMP JUMPDEST PUSH1 0x3 PUSH2 0x4ACF SWAP2 SWAP1 PUSH2 0x4E5C JUMP JUMPDEST DUP2 MLOAD DUP2 LT PUSH2 0x4AE0 JUMPI PUSH2 0x4ADF PUSH2 0x4CFA JUMP JUMPDEST JUMPDEST PUSH1 0x20 ADD ADD SWAP1 PUSH31 0xFFFFFFFFFFFFFFFFFFFFFFFFFFFFFFFFFFFFFFFFFFFFFFFFFFFFFFFFFFFFFF NOT AND SWAP1 DUP2 PUSH0 BYTE SWAP1 MSTORE8 POP DUP1 DUP1 PUSH1 0x1 ADD SWAP2 POP POP PUSH2 0x49B3 JUMP JUMPDEST POP DUP1 SWAP4 POP POP POP POP SWAP2 SWAP1 POP JUMP JUMPDEST PUSH0 DUP1 REVERT JUMPDEST PUSH0 PUSH1 0xFF DUP3 AND SWAP1 POP SWAP2 SWAP1 POP JUMP JUMPDEST PUSH2 0x4B40 DUP2 PUSH2 0x4B2B JUMP JUMPDEST DUP2 EQ PUSH2 0x4B4A JUMPI PUSH0 DUP1 REVERT JUMPDEST POP JUMP JUMPDEST PUSH0 DUP2 CALLDATALOAD SWAP1 POP PUSH2 0x4B5B DUP2 PUSH2 0x4B37 JUMP JUMPDEST SWAP3 SWAP2 POP POP JUMP JUMPDEST PUSH0 PUSH1 0x20 DUP3 DUP5 SUB SLT ISZERO PUSH2 0x4B76 JUMPI PUSH2 0x4B75 PUSH2 0x4B27 JUMP JUMPDEST JUMPDEST PUSH0 PUSH2 0x4B83 DUP5 DUP3 DUP6 ADD PUSH2 0x4B4D JUMP JUMPDEST SWAP2 POP POP SWAP3 SWAP2 POP POP JUMP JUMPDEST PUSH0 DUP2 ISZERO ISZERO SWAP1 POP SWAP2 SWAP1 POP JUMP JUMPDEST PUSH2 0x4BA0 DUP2 PUSH2 0x4B8C JUMP JUMPDEST DUP3 MSTORE POP POP JUMP JUMPDEST PUSH0 PUSH1 0x20 DUP3 ADD SWAP1 POP PUSH2 0x4BB9 PUSH0 DUP4 ADD DUP5 PUSH2 0x4B97 JUMP JUMPDEST SWAP3 SWAP2 POP POP JUMP JUMPDEST PUSH0 DUP2 SWAP1 POP SWAP2 SWAP1 POP JUMP JUMPDEST PUSH2 0x4BD1 DUP2 PUSH2 0x4BBF JUMP JUMPDEST DUP2 EQ PUSH2 0x4BDB JUMPI PUSH0 DUP1 REVERT JUMPDEST POP JUMP JUMPDEST PUSH0 DUP2 CALLDATALOAD SWAP1 POP PUSH2 0x4BEC DUP2 PUSH2 0x4BC8 JUMP JUMPDEST SWAP3 SWAP2 POP POP JUMP JUMPDEST PUSH0 PUSH1 0x20 DUP3 DUP5 SUB SLT ISZERO PUSH2 0x4C07 JUMPI PUSH2 0x4C06 PUSH2 0x4B27 JUMP JUMPDEST JUMPDEST PUSH0 PUSH2 0x4C14 DUP5 DUP3 DUP6 ADD PUSH2 0x4BDE JUMP JUMPDEST SWAP2 POP POP SWAP3 SWAP2 POP POP JUMP JUMPDEST PUSH2 0x4C26 DUP2 PUSH2 0x4B2B JUMP JUMPDEST DUP3 MSTORE POP POP JUMP JUMPDEST PUSH0 PUSH1 0x20 DUP3 ADD SWAP1 POP PUSH2 0x4C3F PUSH0 DUP4 ADD DUP5 PUSH2 0x4C1D JUMP JUMPDEST SWAP3 SWAP2 POP POP JUMP JUMPDEST PUSH0 PUSH20 0xFFFFFFFFFFFFFFFFFFFFFFFFFFFFFFFFFFFFFFFF DUP3 AND SWAP1 POP SWAP2 SWAP1 POP JUMP JUMPDEST PUSH0 PUSH2 0x4C6E DUP3 PUSH2 0x4C45 JUMP JUMPDEST SWAP1 POP SWAP2 SWAP1 POP JUMP JUMPDEST PUSH2 0x4C7E DUP2 PUSH2 0x4C64 JUMP JUMPDEST DUP3 MSTORE POP POP JUMP JUMPDEST PUSH2 0x4C8D DUP2 PUSH2 0x4BBF JUMP JUMPDEST DUP3 MSTORE POP POP JUMP JUMPDEST PUSH0 PUSH1 0x60 DUP3 ADD SWAP1 POP PUSH2 0x4CA6 PUSH0 DUP4 ADD DUP7 PUSH2 0x4C75 JUMP JUMPDEST PUSH2 0x4CB3 PUSH1 0x20 DUP4 ADD DUP6 PUSH2 0x4C1D JUMP JUMPDEST PUSH2 0x4CC0 PUSH1 0x40 DUP4 ADD DUP5 PUSH2 0x4C84 JUMP JUMPDEST SWAP5 SWAP4 POP POP POP POP JUMP JUMPDEST PUSH0 PUSH1 0x20 DUP3 ADD SWAP1 POP PUSH2 0x4CDB PUSH0 DUP4 ADD DUP5 PUSH2 0x4C84 JUMP JUMPDEST SWAP3 SWAP2 POP POP JUMP JUMPDEST PUSH0 PUSH1 0x20 DUP3 ADD SWAP1 POP PUSH2 0x4CF4 PUSH0 DUP4 ADD DUP5 PUSH2 0x4C75 JUMP JUMPDEST SWAP3 SWAP2 POP POP JUMP JUMPDEST PUSH32 0x4E487B7100000000000000000000000000000000000000000000000000000000 PUSH0 MSTORE PUSH1 0x32 PUSH1 0x4 MSTORE PUSH1 0x24 PUSH0 REVERT JUMPDEST PUSH32 0x4E487B7100000000000000000000000000000000000000000000000000000000 PUSH0 MSTORE PUSH1 0x11 PUSH1 0x4 MSTORE PUSH1 0x24 PUSH0 REVERT JUMPDEST PUSH0 PUSH2 0x4D5E DUP3 PUSH2 0x4B2B JUMP JUMPDEST SWAP2 POP PUSH1 0xFF DUP3 SUB PUSH2 0x4D71 JUMPI PUSH2 0x4D70 PUSH2 0x4D27 JUMP JUMPDEST JUMPDEST PUSH1 0x1 DUP3 ADD SWAP1 POP SWAP2 SWAP1 POP JUMP JUMPDEST PUSH0 DUP3 DUP3 MSTORE PUSH1 0x20 DUP3 ADD SWAP1 POP SWAP3 SWAP2 POP POP JUMP JUMPDEST PUSH32 0x4E6F206D6F7265206265747320616C6C6F776564000000000000000000000000 PUSH0 DUP3 ADD MSTORE POP JUMP JUMPDEST PUSH0 PUSH2 0x4DC0 PUSH1 0x14 DUP4 PUSH2 0x4D7C JUMP JUMPDEST SWAP2 POP PUSH2 0x4DCB DUP3 PUSH2 0x4D8C JUMP JUMPDEST PUSH1 0x20 DUP3 ADD SWAP1 POP SWAP2 SWAP1 POP JUMP JUMPDEST PUSH0 PUSH1 0x20 DUP3 ADD SWAP1 POP DUP2 DUP2 SUB PUSH0 DUP4 ADD MSTORE PUSH2 0x4DED DUP2 PUSH2 0x4DB4 JUMP JUMPDEST SWAP1 POP SWAP2 SWAP1 POP JUMP JUMPDEST PUSH32 0x4F6E6C7920686F73742063616E2067656E657261746520726573756C74000000 PUSH0 DUP3 ADD MSTORE POP JUMP JUMPDEST PUSH0 PUSH2 0x4E28 PUSH1 0x1D DUP4 PUSH2 0x4D7C JUMP JUMPDEST SWAP2 POP PUSH2 0x4E33 DUP3 PUSH2 0x4DF4 JUMP JUMPDEST PUSH1 0x20 DUP3 ADD SWAP1 POP SWAP2 SWAP1 POP JUMP JUMPDEST PUSH0 PUSH1 0x20 DUP3 ADD SWAP1 POP DUP2 DUP2 SUB PUSH0 DUP4 ADD MSTORE PUSH2 0x4E55 DUP2 PUSH2 0x4E1C JUMP JUMPDEST SWAP1 POP SWAP2 SWAP1 POP JUMP JUMPDEST PUSH0 PUSH2 0x4E66 DUP3 PUSH2 0x4BBF JUMP JUMPDEST SWAP2 POP PUSH2 0x4E71 DUP4 PUSH2 0x4BBF JUMP JUMPDEST SWAP3 POP DUP3 DUP3 ADD SWAP1 POP DUP1 DUP3 GT ISZERO PUSH2 0x4E89 JUMPI PUSH2 0x4E88 PUSH2 0x4D27 JUMP JUMPDEST JUMPDEST SWAP3 SWAP2 POP POP JUMP JUMPDEST PUSH32 0x426C6F636B206E756D626572206E6F7420726561636865640000000000000000 PUSH0 DUP3 ADD MSTORE POP JUMP JUMPDEST PUSH0 PUSH2 0x4EC3 PUSH1 0x18 DUP4 PUSH2 0x4D7C JUMP JUMPDEST SWAP2 POP PUSH2 0x4ECE DUP3 PUSH2 0x4E8F JUMP JUMPDEST PUSH1 0x20 DUP3 ADD SWAP1 POP SWAP2 SWAP1 POP JUMP JUMPDEST PUSH0 PUSH1 0x20 DUP3 ADD SWAP1 POP DUP2 DUP2 SUB PUSH0 DUP4 ADD MSTORE PUSH2 0x4EF0 DUP2 PUSH2 0x4EB7 JUMP JUMPDEST SWAP1 POP SWAP2 SWAP1 POP JUMP JUMPDEST PUSH0 DUP2 PUSH1 0x60 SHL SWAP1 POP SWAP2 SWAP1 POP JUMP JUMPDEST PUSH0 PUSH2 0x4F0D DUP3 PUSH2 0x4EF7 JUMP JUMPDEST SWAP1 POP SWAP2 SWAP1 POP JUMP JUMPDEST PUSH0 PUSH2 0x4F1E DUP3 PUSH2 0x4F03 JUMP JUMPDEST SWAP1 POP SWAP2 SWAP1 POP JUMP JUMPDEST PUSH2 0x4F36 PUSH2 0x4F31 DUP3 PUSH2 0x4C64 JUMP JUMPDEST PUSH2 0x4F14 JUMP JUMPDEST DUP3 MSTORE POP POP JUMP JUMPDEST PUSH0 PUSH2 0x4F47 DUP3 DUP5 PUSH2 0x4F25 JUMP JUMPDEST PUSH1 0x14 DUP3 ADD SWAP2 POP DUP2 SWAP1 POP SWAP3 SWAP2 POP POP JUMP JUMPDEST PUSH0 DUP2 MLOAD SWAP1 POP SWAP2 SWAP1 POP JUMP JUMPDEST PUSH0 DUP2 SWAP1 POP SWAP3 SWAP2 POP POP JUMP JUMPDEST DUP3 DUP2 DUP4 MCOPY PUSH0 DUP4 DUP4 ADD MSTORE POP POP POP JUMP JUMPDEST PUSH0 PUSH2 0x4F82 DUP3 PUSH2 0x4F56 JUMP JUMPDEST PUSH2 0x4F8C DUP2 DUP6 PUSH2 0x4F60 JUMP JUMPDEST SWAP4 POP PUSH2 0x4F9C DUP2 DUP6 PUSH1 0x20 DUP7 ADD PUSH2 0x4F6A JUMP JUMPDEST DUP1 DUP5 ADD SWAP2 POP POP SWAP3 SWAP2 POP POP JUMP JUMPDEST PUSH0 PUSH2 0x4FB3 DUP3 DUP6 PUSH2 0x4F78 JUMP JUMPDEST SWAP2 POP PUSH2 0x4FBF DUP3 DUP5 PUSH2 0x4F25 JUMP JUMPDEST PUSH1 0x14 DUP3 ADD SWAP2 POP DUP2 SWAP1 POP SWAP4 SWAP3 POP POP POP JUMP JUMPDEST PUSH0 DUP2 SWAP1 POP SWAP2 SWAP1 POP JUMP JUMPDEST PUSH0 DUP2 SWAP1 POP SWAP2 SWAP1 POP JUMP JUMPDEST PUSH2 0x4FF2 PUSH2 0x4FED DUP3 PUSH2 0x4FCF JUMP JUMPDEST PUSH2 0x4FD8 JUMP JUMPDEST DUP3 MSTORE POP POP JUMP JUMPDEST PUSH0 PUSH2 0x5003 DUP3 DUP6 PUSH2 0x4FE1 JUMP JUMPDEST PUSH1 0x20 DUP3 ADD SWAP2 POP PUSH2 0x5013 DUP3 DUP5 PUSH2 0x4F78 JUMP JUMPDEST SWAP2 POP DUP2 SWAP1 POP SWAP4 SWAP3 POP POP POP JUMP JUMPDEST PUSH32 0x4E487B7100000000000000000000000000000000000000000000000000000000 PUSH0 MSTORE PUSH1 0x12 PUSH1 0x4 MSTORE PUSH1 0x24 PUSH0 REVERT JUMPDEST PUSH0 PUSH2 0x5056 DUP3 PUSH2 0x4BBF JUMP JUMPDEST SWAP2 POP PUSH2 0x5061 DUP4 PUSH2 0x4BBF JUMP JUMPDEST SWAP3 POP DUP3 PUSH2 0x5071 JUMPI PUSH2 0x5070 PUSH2 0x501F JUMP JUMPDEST JUMPDEST DUP3 DUP3 MOD SWAP1 POP SWAP3 SWAP2 POP POP JUMP JUMPDEST PUSH32 0x526573756C74206E6F742067656E657261746564000000000000000000000000 PUSH0 DUP3 ADD MSTORE POP JUMP JUMPDEST PUSH0 PUSH2 0x50B0 PUSH1 0x14 DUP4 PUSH2 0x4D7C JUMP JUMPDEST SWAP2 POP PUSH2 0x50BB DUP3 PUSH2 0x507C JUMP JUMPDEST PUSH1 0x20 DUP3 ADD SWAP1 POP SWAP2 SWAP1 POP JUMP JUMPDEST PUSH0 PUSH1 0x20 DUP3 ADD SWAP1 POP DUP2 DUP2 SUB PUSH0 DUP4 ADD MSTORE PUSH2 0x50DD DUP2 PUSH2 0x50A4 JUMP JUMPDEST SWAP1 POP SWAP2 SWAP1 POP JUMP JUMPDEST PUSH32 0x57616974206174206C6561737420313220626C6F636B73206166746572206765 PUSH0 DUP3 ADD MSTORE PUSH32 0x6E65726174696F6E000000000000000000000000000000000000000000000000 PUSH1 0x20 DUP3 ADD MSTORE POP JUMP JUMPDEST PUSH0 PUSH2 0x513E PUSH1 0x28 DUP4 PUSH2 0x4D7C JUMP JUMPDEST SWAP2 POP PUSH2 0x5149 DUP3 PUSH2 0x50E4 JUMP JUMPDEST PUSH1 0x40 DUP3 ADD SWAP1 POP SWAP2 SWAP1 POP JUMP JUMPDEST PUSH0 PUSH1 0x20 DUP3 ADD SWAP1 POP DUP2 DUP2 SUB PUSH0 DUP4 ADD MSTORE PUSH2 0x516B DUP2 PUSH2 0x5132 JUMP JUMPDEST SWAP1 POP SWAP2 SWAP1 POP JUMP JUMPDEST PUSH32 0x4F6E6C7920612076616C696461746F722063616E2076616C6964617465000000 PUSH0 DUP3 ADD MSTORE POP JUMP JUMPDEST PUSH0 PUSH2 0x51A6 PUSH1 0x1D DUP4 PUSH2 0x4D7C JUMP JUMPDEST SWAP2 POP PUSH2 0x51B1 DUP3 PUSH2 0x5172 JUMP JUMPDEST PUSH1 0x20 DUP3 ADD SWAP1 POP SWAP2 SWAP1 POP JUMP JUMPDEST PUSH0 PUSH1 0x20 DUP3 ADD SWAP1 POP DUP2 DUP2 SUB PUSH0 DUP4 ADD MSTORE PUSH2 0x51D3 DUP2 PUSH2 0x519A JUMP JUMPDEST SWAP1 POP SWAP2 SWAP1 POP JUMP JUMPDEST PUSH0 DUP2 SWAP1 POP SWAP3 SWAP2 POP POP JUMP JUMPDEST PUSH32 0x426C6F636B686173682066726F6D20626C6F636B202300000000000000000000 PUSH0 DUP3 ADD MSTORE POP JUMP JUMPDEST PUSH0 PUSH2 0x5218 PUSH1 0x16 DUP4 PUSH2 0x51DA JUMP JUMPDEST SWAP2 POP PUSH2 0x5223 DUP3 PUSH2 0x51E4 JUMP JUMPDEST PUSH1 0x16 DUP3 ADD SWAP1 POP SWAP2 SWAP1 POP JUMP JUMPDEST PUSH0 DUP2 MLOAD SWAP1 POP SWAP2 SWAP1 POP JUMP JUMPDEST PUSH0 PUSH2 0x5242 DUP3 PUSH2 0x522E JUMP JUMPDEST PUSH2 0x524C DUP2 DUP6 PUSH2 0x51DA JUMP JUMPDEST SWAP4 POP PUSH2 0x525C DUP2 DUP6 PUSH1 0x20 DUP7 ADD PUSH2 0x4F6A JUMP JUMPDEST DUP1 DUP5 ADD SWAP2 POP POP SWAP3 SWAP2 POP POP JUMP JUMPDEST PUSH32 0x3A20000000000000000000000000000000000000000000000000000000000000 PUSH0 DUP3 ADD MSTORE POP JUMP JUMPDEST PUSH0 PUSH2 0x529C PUSH1 0x2 DUP4 PUSH2 0x51DA JUMP JUMPDEST SWAP2 POP PUSH2 0x52A7 DUP3 PUSH2 0x5268 JUMP JUMPDEST PUSH1 0x2 DUP3 ADD SWAP1 POP SWAP2 SWAP1 POP JUMP JUMPDEST PUSH32 0x202D20626173697320666F722072616E646F6D6E657373000000000000000000 PUSH0 DUP3 ADD MSTORE POP JUMP JUMPDEST PUSH0 PUSH2 0x52E6 PUSH1 0x17 DUP4 PUSH2 0x51DA JUMP JUMPDEST SWAP2 POP PUSH2 0x52F1 DUP3 PUSH2 0x52B2 JUMP JUMPDEST PUSH1 0x17 DUP3 ADD SWAP1 POP SWAP2 SWAP1 POP JUMP JUMPDEST PUSH0 PUSH2 0x5306 DUP3 PUSH2 0x520C JUMP JUMPDEST SWAP2 POP PUSH2 0x5312 DUP3 DUP6 PUSH2 0x5238 JUMP JUMPDEST SWAP2 POP PUSH2 0x531D DUP3 PUSH2 0x5290 JUMP JUMPDEST SWAP2 POP PUSH2 0x5329 DUP3 DUP5 PUSH2 0x5238 JUMP JUMPDEST SWAP2 POP PUSH2 0x5334 DUP3 PUSH2 0x52DA JUMP JUMPDEST SWAP2 POP DUP2 SWAP1 POP SWAP4 SWAP3 POP POP POP JUMP JUMPDEST PUSH2 0x5349 DUP2 PUSH2 0x4FCF JUMP JUMPDEST DUP3 MSTORE POP POP JUMP JUMPDEST PUSH0 PUSH1 0x40 DUP3 ADD SWAP1 POP PUSH2 0x5362 PUSH0 DUP4 ADD DUP6 PUSH2 0x4C84 JUMP JUMPDEST PUSH2 0x536F PUSH1 0x20 DUP4 ADD DUP5 PUSH2 0x5340 JUMP JUMPDEST SWAP4 SWAP3 POP POP POP JUMP JUMPDEST PUSH0 DUP2 SWAP1 POP SWAP2 SWAP1 POP JUMP JUMPDEST PUSH0 DUP2 SWAP1 POP SWAP2 SWAP1 POP JUMP JUMPDEST PUSH0 PUSH2 0x53A2 PUSH2 0x539D PUSH2 0x5398 DUP5 PUSH2 0x5376 JUMP JUMPDEST PUSH2 0x537F JUMP JUMPDEST PUSH2 0x4B2B JUMP JUMPDEST SWAP1 POP SWAP2 SWAP1 POP JUMP JUMPDEST PUSH2 0x53B2 DUP2 PUSH2 0x5388 JUMP JUMPDEST DUP3 MSTORE POP POP JUMP JUMPDEST PUSH0 PUSH1 0x1F NOT PUSH1 0x1F DUP4 ADD AND SWAP1 POP SWAP2 SWAP1 POP JUMP JUMPDEST PUSH0 PUSH2 0x53D2 DUP3 PUSH2 0x522E JUMP JUMPDEST PUSH2 0x53DC DUP2 DUP6 PUSH2 0x4D7C JUMP JUMPDEST SWAP4 POP PUSH2 0x53EC DUP2 DUP6 PUSH1 0x20 DUP7 ADD PUSH2 0x4F6A JUMP JUMPDEST PUSH2 0x53F5 DUP2 PUSH2 0x53B8 JUMP JUMPDEST DUP5 ADD SWAP2 POP POP SWAP3 SWAP2 POP POP JUMP JUMPDEST PUSH0 DUP3 DUP3 MSTORE PUSH1 0x20 DUP3 ADD SWAP1 POP SWAP3 SWAP2 POP POP JUMP JUMPDEST PUSH0 PUSH2 0x541A DUP3 PUSH2 0x4F56 JUMP JUMPDEST PUSH2 0x5424 DUP2 DUP6 PUSH2 0x5400 JUMP JUMPDEST SWAP4 POP PUSH2 0x5434 DUP2 DUP6 PUSH1 0x20 DUP7 ADD PUSH2 0x4F6A JUMP JUMPDEST PUSH2 0x543D DUP2 PUSH2 0x53B8 JUMP JUMPDEST DUP5 ADD SWAP2 POP POP SWAP3 SWAP2 POP POP JUMP JUMPDEST PUSH0 PUSH1 0x60 DUP3 ADD SWAP1 POP PUSH2 0x545B PUSH0 DUP4 ADD DUP7 PUSH2 0x53A9 JUMP JUMPDEST DUP2 DUP2 SUB PUSH1 0x20 DUP4 ADD MSTORE PUSH2 0x546D DUP2 DUP6 PUSH2 0x53C8 JUMP JUMPDEST SWAP1 POP DUP2 DUP2 SUB PUSH1 0x40 DUP4 ADD MSTORE PUSH2 0x5481 DUP2 DUP5 PUSH2 0x5410 JUMP JUMPDEST SWAP1 POP SWAP5 SWAP4 POP POP POP POP JUMP JUMPDEST PUSH32 0x4E487B7100000000000000000000000000000000000000000000000000000000 PUSH0 MSTORE PUSH1 0x41 PUSH1 0x4 MSTORE PUSH1 0x24 PUSH0 REVERT JUMPDEST PUSH32 0x416464726573736573207573656420666F722072616E646F6D6E6573733A2000 PUSH0 DUP3 ADD MSTORE POP JUMP JUMPDEST PUSH0 PUSH2 0x54EC PUSH1 0x1F DUP4 PUSH2 0x51DA JUMP JUMPDEST SWAP2 POP PUSH2 0x54F7 DUP3 PUSH2 0x54B8 JUMP JUMPDEST PUSH1 0x1F DUP3 ADD SWAP1 POP SWAP2 SWAP1 POP JUMP JUMPDEST PUSH0 PUSH2 0x550C DUP3 PUSH2 0x54E0 JUMP JUMPDEST SWAP2 POP PUSH2 0x5518 DUP3 DUP5 PUSH2 0x5238 JUMP JUMPDEST SWAP2 POP DUP2 SWAP1 POP SWAP3 SWAP2 POP POP JUMP JUMPDEST PUSH0 DUP2 MLOAD SWAP1 POP SWAP2 SWAP1 POP JUMP JUMPDEST PUSH0 DUP3 DUP3 MSTORE PUSH1 0x20 DUP3 ADD SWAP1 POP SWAP3 SWAP2 POP POP JUMP JUMPDEST PUSH0 DUP2 SWAP1 POP PUSH1 0x20 DUP3 ADD SWAP1 POP SWAP2 SWAP1 POP JUMP JUMPDEST PUSH2 0x5555 DUP2 PUSH2 0x4C64 JUMP JUMPDEST DUP3 MSTORE POP POP JUMP JUMPDEST PUSH0 PUSH2 0x5566 DUP4 DUP4 PUSH2 0x554C JUMP JUMPDEST PUSH1 0x20 DUP4 ADD SWAP1 POP SWAP3 SWAP2 POP POP JUMP JUMPDEST PUSH0 PUSH1 0x20 DUP3 ADD SWAP1 POP SWAP2 SWAP1 POP JUMP JUMPDEST PUSH0 PUSH2 0x5588 DUP3 PUSH2 0x5523 JUMP JUMPDEST PUSH2 0x5592 DUP2 DUP6 PUSH2 0x552D JUMP JUMPDEST SWAP4 POP PUSH2 0x559D DUP4 PUSH2 0x553D JUMP JUMPDEST DUP1 PUSH0 JUMPDEST DUP4 DUP2 LT ISZERO PUSH2 0x55CD JUMPI DUP2 MLOAD PUSH2 0x55B4 DUP9 DUP3 PUSH2 0x555B JUMP JUMPDEST SWAP8 POP PUSH2 0x55BF DUP4 PUSH2 0x5572 JUMP JUMPDEST SWAP3 POP POP PUSH1 0x1 DUP2 ADD SWAP1 POP PUSH2 0x55A0 JUMP JUMPDEST POP DUP6 SWAP4 POP POP POP POP SWAP3 SWAP2 POP POP JUMP JUMPDEST PUSH0 PUSH1 0x20 DUP3 ADD SWAP1 POP DUP2 DUP2 SUB PUSH0 DUP4 ADD MSTORE PUSH2 0x55F2 DUP2 DUP5 PUSH2 0x557E JUMP JUMPDEST SWAP1 POP SWAP3 SWAP2 POP POP JUMP JUMPDEST PUSH0 DUP2 SWAP1 POP SWAP2 SWAP1 POP JUMP JUMPDEST PUSH0 PUSH2 0x561D PUSH2 0x5618 PUSH2 0x5613 DUP5 PUSH2 0x55FA JUMP JUMPDEST PUSH2 0x537F JUMP JUMPDEST PUSH2 0x4B2B JUMP JUMPDEST SWAP1 POP SWAP2 SWAP1 POP JUMP JUMPDEST PUSH2 0x562D DUP2 PUSH2 0x5603 JUMP JUMPDEST DUP3 MSTORE POP POP JUMP JUMPDEST PUSH0 PUSH1 0x60 DUP3 ADD SWAP1 POP PUSH2 0x5646 PUSH0 DUP4 ADD DUP7 PUSH2 0x5624 JUMP JUMPDEST DUP2 DUP2 SUB PUSH1 0x20 DUP4 ADD MSTORE PUSH2 0x5658 DUP2 DUP6 PUSH2 0x53C8 JUMP JUMPDEST SWAP1 POP DUP2 DUP2 SUB PUSH1 0x40 DUP4 ADD MSTORE PUSH2 0x566C DUP2 DUP5 PUSH2 0x5410 JUMP JUMPDEST SWAP1 POP SWAP5 SWAP4 POP POP POP POP JUMP JUMPDEST PUSH32 0x5061636B65642064617461206F662061646472657373657320696E206865783A PUSH0 DUP3 ADD MSTORE PUSH32 0x2000000000000000000000000000000000000000000000000000000000000000 PUSH1 0x20 DUP3 ADD MSTORE POP JUMP JUMPDEST PUSH0 PUSH2 0x56D0 PUSH1 0x21 DUP4 PUSH2 0x51DA JUMP JUMPDEST SWAP2 POP PUSH2 0x56DB DUP3 PUSH2 0x5676 JUMP JUMPDEST PUSH1 0x21 DUP3 ADD SWAP1 POP SWAP2 SWAP1 POP JUMP JUMPDEST PUSH0 PUSH2 0x56F0 DUP3 PUSH2 0x56C4 JUMP JUMPDEST SWAP2 POP PUSH2 0x56FC DUP3 DUP5 PUSH2 0x5238 JUMP JUMPDEST SWAP2 POP DUP2 SWAP1 POP SWAP3 SWAP2 POP POP JUMP JUMPDEST PUSH0 DUP2 SWAP1 POP SWAP2 SWAP1 POP JUMP JUMPDEST PUSH0 PUSH2 0x572A PUSH2 0x5725 PUSH2 0x5720 DUP5 PUSH2 0x5707 JUMP JUMPDEST PUSH2 0x537F JUMP JUMPDEST PUSH2 0x4B2B JUMP JUMPDEST SWAP1 POP SWAP2 SWAP1 POP JUMP JUMPDEST PUSH2 0x573A DUP2 PUSH2 0x5710 JUMP JUMPDEST DUP3 MSTORE POP POP JUMP JUMPDEST PUSH0 PUSH1 0x60 DUP3 ADD SWAP1 POP PUSH2 0x5753 PUSH0 DUP4 ADD DUP7 PUSH2 0x5731 JUMP JUMPDEST DUP2 DUP2 SUB PUSH1 0x20 DUP4 ADD MSTORE PUSH2 0x5765 DUP2 DUP6 PUSH2 0x53C8 JUMP JUMPDEST SWAP1 POP DUP2 DUP2 SUB PUSH1 0x40 DUP4 ADD MSTORE PUSH2 0x5779 DUP2 DUP5 PUSH2 0x5410 JUMP JUMPDEST SWAP1 POP SWAP5 SWAP4 POP POP POP POP JUMP JUMPDEST PUSH32 0x4B656363616B323536206F66205B626C6F636B68617368202B207061636B6564 PUSH0 DUP3 ADD MSTORE PUSH32 0x446174615D3A2000000000000000000000000000000000000000000000000000 PUSH1 0x20 DUP3 ADD MSTORE POP JUMP JUMPDEST PUSH0 PUSH2 0x57DD PUSH1 0x27 DUP4 PUSH2 0x51DA JUMP JUMPDEST SWAP2 POP PUSH2 0x57E8 DUP3 PUSH2 0x5783 JUMP JUMPDEST PUSH1 0x27 DUP3 ADD SWAP1 POP SWAP2 SWAP1 POP JUMP JUMPDEST PUSH0 PUSH2 0x57FD DUP3 PUSH2 0x57D1 JUMP JUMPDEST SWAP2 POP PUSH2 0x5809 DUP3 DUP5 PUSH2 0x5238 JUMP JUMPDEST SWAP2 POP DUP2 SWAP1 POP SWAP3 SWAP2 POP POP JUMP JUMPDEST PUSH0 PUSH1 0x20 DUP3 ADD SWAP1 POP PUSH2 0x5827 PUSH0 DUP4 ADD DUP5 PUSH2 0x5340 JUMP JUMPDEST SWAP3 SWAP2 POP POP JUMP JUMPDEST PUSH0 DUP2 SWAP1 POP SWAP2 SWAP1 POP JUMP JUMPDEST PUSH0 PUSH2 0x5850 PUSH2 0x584B PUSH2 0x5846 DUP5 PUSH2 0x582D JUMP JUMPDEST PUSH2 0x537F JUMP JUMPDEST PUSH2 0x4B2B JUMP JUMPDEST SWAP1 POP SWAP2 SWAP1 POP JUMP JUMPDEST PUSH2 0x5860 DUP2 PUSH2 0x5836 JUMP JUMPDEST DUP3 MSTORE POP POP JUMP JUMPDEST PUSH0 PUSH1 0x60 DUP3 ADD SWAP1 POP PUSH2 0x5879 PUSH0 DUP4 ADD DUP7 PUSH2 0x5857 JUMP JUMPDEST DUP2 DUP2 SUB PUSH1 0x20 DUP4 ADD MSTORE PUSH2 0x588B DUP2 DUP6 PUSH2 0x53C8 JUMP JUMPDEST SWAP1 POP DUP2 DUP2 SUB PUSH1 0x40 DUP4 ADD MSTORE PUSH2 0x589F DUP2 DUP5 PUSH2 0x5410 JUMP JUMPDEST SWAP1 POP SWAP5 SWAP4 POP POP POP POP JUMP JUMPDEST PUSH32 0x46696E616C2072616E646F6D206F7574636F6D6520286D6F6420000000000000 PUSH0 DUP3 ADD MSTORE POP JUMP JUMPDEST PUSH0 PUSH2 0x58DD PUSH1 0x1A DUP4 PUSH2 0x51DA JUMP JUMPDEST SWAP2 POP PUSH2 0x58E8 DUP3 PUSH2 0x58A9 JUMP JUMPDEST PUSH1 0x1A DUP3 ADD SWAP1 POP SWAP2 SWAP1 POP JUMP JUMPDEST PUSH32 0x293A200000000000000000000000000000000000000000000000000000000000 PUSH0 DUP3 ADD MSTORE POP JUMP JUMPDEST PUSH0 PUSH2 0x5927 PUSH1 0x3 DUP4 PUSH2 0x51DA JUMP JUMPDEST SWAP2 POP PUSH2 0x5932 DUP3 PUSH2 0x58F3 JUMP JUMPDEST PUSH1 0x3 DUP3 ADD SWAP1 POP SWAP2 SWAP1 POP JUMP JUMPDEST PUSH0 PUSH2 0x5947 DUP3 PUSH2 0x58D1 JUMP JUMPDEST SWAP2 POP PUSH2 0x5953 DUP3 DUP6 PUSH2 0x5238 JUMP JUMPDEST SWAP2 POP PUSH2 0x595E DUP3 PUSH2 0x591B JUMP JUMPDEST SWAP2 POP PUSH2 0x596A DUP3 DUP5 PUSH2 0x5238 JUMP JUMPDEST SWAP2 POP DUP2 SWAP1 POP SWAP4 SWAP3 POP POP POP JUMP JUMPDEST PUSH0 DUP2 SWAP1 POP SWAP2 SWAP1 POP JUMP JUMPDEST PUSH0 PUSH2 0x5999 PUSH2 0x5994 PUSH2 0x598F DUP5 PUSH2 0x5976 JUMP JUMPDEST PUSH2 0x537F JUMP JUMPDEST PUSH2 0x4B2B JUMP JUMPDEST SWAP1 POP SWAP2 SWAP1 POP JUMP JUMPDEST PUSH2 0x59A9 DUP2 PUSH2 0x597F JUMP JUMPDEST DUP3 MSTORE POP POP JUMP JUMPDEST PUSH0 PUSH1 0x60 DUP3 ADD SWAP1 POP PUSH2 0x59C2 PUSH0 DUP4 ADD DUP7 PUSH2 0x59A0 JUMP JUMPDEST DUP2 DUP2 SUB PUSH1 0x20 DUP4 ADD MSTORE PUSH2 0x59D4 DUP2 DUP6 PUSH2 0x53C8 JUMP JUMPDEST SWAP1 POP DUP2 DUP2 SUB PUSH1 0x40 DUP4 ADD MSTORE PUSH2 0x59E8 DUP2 DUP5 PUSH2 0x5410 JUMP JUMPDEST SWAP1 POP SWAP5 SWAP4 POP POP POP POP JUMP JUMPDEST PUSH32 0x53746F72656420726573756C7420213D207265636F6D70757465642072657375 PUSH0 DUP3 ADD MSTORE PUSH32 0x6C74000000000000000000000000000000000000000000000000000000000000 PUSH1 0x20 DUP3 ADD MSTORE POP JUMP JUMPDEST PUSH0 PUSH2 0x5A4C PUSH1 0x22 DUP4 PUSH2 0x4D7C JUMP JUMPDEST SWAP2 POP PUSH2 0x5A57 DUP3 PUSH2 0x59F2 JUMP JUMPDEST PUSH1 0x40 DUP3 ADD SWAP1 POP SWAP2 SWAP1 POP JUMP JUMPDEST PUSH0 PUSH1 0x20 DUP3 ADD SWAP1 POP DUP2 DUP2 SUB PUSH0 DUP4 ADD MSTORE PUSH2 0x5A79 DUP2 PUSH2 0x5A40 JUMP JUMPDEST SWAP1 POP SWAP2 SWAP1 POP JUMP JUMPDEST PUSH32 0x4F7074696F6E206D757374206265206265747765656E203020616E6420333700 PUSH0 DUP3 ADD MSTORE POP JUMP JUMPDEST PUSH0 PUSH2 0x5AB4 PUSH1 0x1F DUP4 PUSH2 0x4D7C JUMP JUMPDEST SWAP2 POP PUSH2 0x5ABF DUP3 PUSH2 0x5A80 JUMP JUMPDEST PUSH1 0x20 DUP3 ADD SWAP1 POP SWAP2 SWAP1 POP JUMP JUMPDEST PUSH0 PUSH1 0x20 DUP3 ADD SWAP1 POP DUP2 DUP2 SUB PUSH0 DUP4 ADD MSTORE PUSH2 0x5AE1 DUP2 PUSH2 0x5AA8 JUMP JUMPDEST SWAP1 POP SWAP2 SWAP1 POP JUMP JUMPDEST PUSH32 0x42657420616D6F756E742069732062656C6F7720746865206D696E696D756D20 PUSH0 DUP3 ADD MSTORE PUSH32 0x6265740000000000000000000000000000000000000000000000000000000000 PUSH1 0x20 DUP3 ADD MSTORE POP JUMP JUMPDEST PUSH0 PUSH2 0x5B42 PUSH1 0x23 DUP4 PUSH2 0x4D7C JUMP JUMPDEST SWAP2 POP PUSH2 0x5B4D DUP3 PUSH2 0x5AE8 JUMP JUMPDEST PUSH1 0x40 DUP3 ADD SWAP1 POP SWAP2 SWAP1 POP JUMP JUMPDEST PUSH0 PUSH1 0x20 DUP3 ADD SWAP1 POP DUP2 DUP2 SUB PUSH0 DUP4 ADD MSTORE PUSH2 0x5B6F DUP2 PUSH2 0x5B36 JUMP JUMPDEST SWAP1 POP SWAP2 SWAP1 POP JUMP JUMPDEST PUSH0 PUSH2 0x5B80 DUP3 PUSH2 0x4BBF JUMP JUMPDEST SWAP2 POP PUSH2 0x5B8B DUP4 PUSH2 0x4BBF JUMP JUMPDEST SWAP3 POP DUP3 DUP3 MUL PUSH2 0x5B99 DUP2 PUSH2 0x4BBF JUMP JUMPDEST SWAP2 POP DUP3 DUP3 DIV DUP5 EQ DUP4 ISZERO OR PUSH2 0x5BB0 JUMPI PUSH2 0x5BAF PUSH2 0x4D27 JUMP JUMPDEST JUMPDEST POP SWAP3 SWAP2 POP POP JUMP JUMPDEST PUSH0 PUSH2 0x5BC1 DUP3 PUSH2 0x4BBF JUMP JUMPDEST SWAP2 POP PUSH2 0x5BCC DUP4 PUSH2 0x4BBF JUMP JUMPDEST SWAP3 POP DUP3 PUSH2 0x5BDC JUMPI PUSH2 0x5BDB PUSH2 0x501F JUMP JUMPDEST JUMPDEST DUP3 DUP3 DIV SWAP1 POP SWAP3 SWAP2 POP POP JUMP JUMPDEST PUSH32 0x42657420616D6F756E742069732061626F766520746865206D6178696D756D20 PUSH0 DUP3 ADD MSTORE PUSH32 0x6265740000000000000000000000000000000000000000000000000000000000 PUSH1 0x20 DUP3 ADD MSTORE POP JUMP JUMPDEST PUSH0 PUSH2 0x5C41 PUSH1 0x23 DUP4 PUSH2 0x4D7C JUMP JUMPDEST SWAP2 POP PUSH2 0x5C4C DUP3 PUSH2 0x5BE7 JUMP JUMPDEST PUSH1 0x40 DUP3 ADD SWAP1 POP SWAP2 SWAP1 POP JUMP JUMPDEST PUSH0 PUSH1 0x20 DUP3 ADD SWAP1 POP DUP2 DUP2 SUB PUSH0 DUP4 ADD MSTORE PUSH2 0x5C6E DUP2 PUSH2 0x5C35 JUMP JUMPDEST SWAP1 POP SWAP2 SWAP1 POP JUMP JUMPDEST PUSH0 PUSH1 0x40 DUP3 ADD SWAP1 POP PUSH2 0x5C88 PUSH0 DUP4 ADD DUP6 PUSH2 0x4C1D JUMP JUMPDEST PUSH2 0x5C95 PUSH1 0x20 DUP4 ADD DUP5 PUSH2 0x4C84 JUMP JUMPDEST SWAP4 SWAP3 POP POP POP JUMP JUMPDEST PUSH32 0x526573756C74206E6F742076616C696461746564207965740000000000000000 PUSH0 DUP3 ADD MSTORE POP JUMP JUMPDEST PUSH0 PUSH2 0x5CD0 PUSH1 0x18 DUP4 PUSH2 0x4D7C JUMP JUMPDEST SWAP2 POP PUSH2 0x5CDB DUP3 PUSH2 0x5C9C JUMP JUMPDEST PUSH1 0x20 DUP3 ADD SWAP1 POP SWAP2 SWAP1 POP JUMP JUMPDEST PUSH0 PUSH1 0x20 DUP3 ADD SWAP1 POP DUP2 DUP2 SUB PUSH0 DUP4 ADD MSTORE PUSH2 0x5CFD DUP2 PUSH2 0x5CC4 JUMP JUMPDEST SWAP1 POP SWAP2 SWAP1 POP JUMP JUMPDEST PUSH32 0x4465706F736974206973206E6F7420616C6C6F77656400000000000000000000 PUSH0 DUP3 ADD MSTORE POP JUMP JUMPDEST PUSH0 PUSH2 0x5D38 PUSH1 0x16 DUP4 PUSH2 0x4D7C JUMP JUMPDEST SWAP2 POP PUSH2 0x5D43 DUP3 PUSH2 0x5D04 JUMP JUMPDEST PUSH1 0x20 DUP3 ADD SWAP1 POP SWAP2 SWAP1 POP JUMP JUMPDEST PUSH0 PUSH1 0x20 DUP3 ADD SWAP1 POP DUP2 DUP2 SUB PUSH0 DUP4 ADD MSTORE PUSH2 0x5D65 DUP2 PUSH2 0x5D2C JUMP JUMPDEST SWAP1 POP SWAP2 SWAP1 POP JUMP JUMPDEST PUSH32 0x4F6E6C7920686F73742063616E206465706F7369740000000000000000000000 PUSH0 DUP3 ADD MSTORE POP JUMP JUMPDEST PUSH0 PUSH2 0x5DA0 PUSH1 0x15 DUP4 PUSH2 0x4D7C JUMP JUMPDEST SWAP2 POP PUSH2 0x5DAB DUP3 PUSH2 0x5D6C JUMP JUMPDEST PUSH1 0x20 DUP3 ADD SWAP1 POP SWAP2 SWAP1 POP JUMP JUMPDEST PUSH0 PUSH1 0x20 DUP3 ADD SWAP1 POP DUP2 DUP2 SUB PUSH0 DUP4 ADD MSTORE PUSH2 0x5DCD DUP2 PUSH2 0x5D94 JUMP JUMPDEST SWAP1 POP SWAP2 SWAP1 POP JUMP JUMPDEST PUSH0 PUSH2 0x5DDE DUP3 PUSH2 0x4BBF JUMP JUMPDEST SWAP2 POP PUSH32 0xFFFFFFFFFFFFFFFFFFFFFFFFFFFFFFFFFFFFFFFFFFFFFFFFFFFFFFFFFFFFFFFF DUP3 SUB PUSH2 0x5E10 JUMPI PUSH2 0x5E0F PUSH2 0x4D27 JUMP JUMPDEST JUMPDEST PUSH1 0x1 DUP3 ADD SWAP1 POP SWAP2 SWAP1 POP JUMP JUMPDEST PUSH0 PUSH2 0x5E25 DUP3 PUSH2 0x4BBF JUMP JUMPDEST SWAP2 POP PUSH0 DUP3 SUB PUSH2 0x5E37 JUMPI PUSH2 0x5E36 PUSH2 0x4D27 JUMP JUMPDEST JUMPDEST PUSH1 0x1 DUP3 SUB SWAP1 POP SWAP2 SWAP1 POP JUMP JUMPDEST PUSH0 PUSH2 0x5E4D DUP3 DUP6 PUSH2 0x4F78 JUMP JUMPDEST SWAP2 POP PUSH2 0x5E59 DUP3 DUP5 PUSH2 0x5238 JUMP JUMPDEST SWAP2 POP DUP2 SWAP1 POP SWAP4 SWAP3 POP POP POP JUMP JUMPDEST PUSH0 PUSH2 0x5E6F DUP3 PUSH2 0x4BBF JUMP JUMPDEST SWAP2 POP PUSH2 0x5E7A DUP4 PUSH2 0x4BBF JUMP JUMPDEST SWAP3 POP DUP3 DUP3 SUB SWAP1 POP DUP2 DUP2 GT ISZERO PUSH2 0x5E92 JUMPI PUSH2 0x5E91 PUSH2 0x4D27 JUMP JUMPDEST JUMPDEST SWAP3 SWAP2 POP POP JUMP JUMPDEST PUSH32 0x2C20000000000000000000000000000000000000000000000000000000000000 PUSH0 DUP3 ADD MSTORE POP JUMP JUMPDEST PUSH0 PUSH2 0x5ECC PUSH1 0x2 DUP4 PUSH2 0x51DA JUMP JUMPDEST SWAP2 POP PUSH2 0x5ED7 DUP3 PUSH2 0x5E98 JUMP JUMPDEST PUSH1 0x2 DUP3 ADD SWAP1 POP SWAP2 SWAP1 POP JUMP JUMPDEST PUSH0 PUSH2 0x5EED DUP3 DUP5 PUSH2 0x4F78 JUMP JUMPDEST SWAP2 POP PUSH2 0x5EF8 DUP3 PUSH2 0x5EC0 JUMP JUMPDEST SWAP2 POP DUP2 SWAP1 POP SWAP3 SWAP2 POP POP JUMP JUMPDEST PUSH32 0x5D00000000000000000000000000000000000000000000000000000000000000 PUSH0 DUP3 ADD MSTORE POP JUMP JUMPDEST PUSH0 PUSH2 0x5F37 PUSH1 0x1 DUP4 PUSH2 0x51DA JUMP JUMPDEST SWAP2 POP PUSH2 0x5F42 DUP3 PUSH2 0x5F03 JUMP JUMPDEST PUSH1 0x1 DUP3 ADD SWAP1 POP SWAP2 SWAP1 POP JUMP JUMPDEST PUSH0 PUSH2 0x5F58 DUP3 DUP5 PUSH2 0x4F78 JUMP JUMPDEST SWAP2 POP PUSH2 0x5F63 DUP3 PUSH2 0x5F2B JUMP JUMPDEST SWAP2 POP DUP2 SWAP1 POP SWAP3 SWAP2 POP POP JUMP INVALID LOG2 PUSH5 0x6970667358 0x22 SLT KECCAK256 PUSH6 0xDF30A2AA1FD1 PC 0xE1 PUSH25 0x810BDD75A2A0E5BB36E78EFD5392EFB77BD97317A99064736F PUSH13 0x634300081A0033000000000000 "
		},
		"gasEstimates": {
			"creation": {
				"codeDepositCost": "4896800",
				"executionCost": "infinite",
				"totalCost": "infinite"
			},
			"external": {
				"OPTION_BLACK_SET(uint256)": "4490",
				"OPTION_EVEN_SET(uint256)": "4490",
				"OPTION_FIRST_COLUMN_SET(uint256)": "4423",
				"OPTION_FIRST_DOZEN_SET(uint256)": "4470",
				"OPTION_HIGH_SET(uint256)": "4534",
				"OPTION_LOW_SET(uint256)": "4488",
				"OPTION_ODD_SET(uint256)": "4533",
				"OPTION_RED_SET(uint256)": "4491",
				"OPTION_SECOND_COLUMN_SET(uint256)": "4512",
				"OPTION_SECOND_DOZEN_SET(uint256)": "4469",
				"OPTION_THIRD_COLUMN_SET(uint256)": "4448",
				"OPTION_THIRD_DOZEN_SET(uint256)": "4425",
				"bets(uint256)": "infinite",
				"cutOffBlockNumber()": "2471",
				"deposit()": "30360",
				"generateResult()": "infinite",
				"getBetsCount()": "2530",
				"getStatus()": "2584",
				"getTotalBetsAmount()": "infinite",
				"host()": "2640",
				"isInBlackSet(uint8)": "infinite",
				"isInEvenSet(uint8)": "infinite",
				"isInFirstColumnSet(uint8)": "infinite",
				"isInFirstDozenSet(uint8)": "infinite",
				"isInHighSet(uint8)": "infinite",
				"isInLowSet(uint8)": "infinite",
				"isInOddSet(uint8)": "infinite",
				"isInRedSet(uint8)": "infinite",
				"isInSecondColumnSet(uint8)": "infinite",
				"isInSecondDozenSet(uint8)": "infinite",
				"isInThirdColumnSet(uint8)": "infinite",
				"isInThirdDozenSet(uint8)": "infinite",
				"maxBet()": "2471",
				"minBet()": "2470",
				"minDeposite()": "2493",
				"noMoreBets()": "52093",
				"placeBet(uint8)": "infinite",
				"result()": "2621",
				"settleBet()": "infinite",
				"signedValidators(uint256)": "4989",
				"status()": "2534",
				"validateResult()": "infinite",
				"validate_threshold()": "2585",
				"validators(uint256)": "5056"
			},
			"internal": {
				"_addressToString(address)": "infinite",
				"_addressesToString(address[] memory)": "infinite",
				"_bytes32ToHexString(bytes32)": "infinite",
				"_bytesToHexString(bytes memory)": "infinite",
				"_uint2str(uint256)": "infinite",
				"isValidator(address)": "infinite"
			}
		},
		"methodIdentifiers": {
			"OPTION_BLACK_SET(uint256)": "a6ede84a",
			"OPTION_EVEN_SET(uint256)": "d4f7a285",
			"OPTION_FIRST_COLUMN_SET(uint256)": "db7f11db",
			"OPTION_FIRST_DOZEN_SET(uint256)": "195ba0eb",
			"OPTION_HIGH_SET(uint256)": "be47ae13",
			"OPTION_LOW_SET(uint256)": "e8e0fca5",
			"OPTION_ODD_SET(uint256)": "fe5385af",
			"OPTION_RED_SET(uint256)": "23fe318e",
			"OPTION_SECOND_COLUMN_SET(uint256)": "b2513399",
			"OPTION_SECOND_DOZEN_SET(uint256)": "322f8920",
			"OPTION_THIRD_COLUMN_SET(uint256)": "19299832",
			"OPTION_THIRD_DOZEN_SET(uint256)": "1fac0ffd",
			"bets(uint256)": "22af00fa",
			"cutOffBlockNumber()": "6f91a66f",
			"deposit()": "d0e30db0",
			"generateResult()": "1dbe2e0e",
			"getBetsCount()": "8c7e347a",
			"getStatus()": "4e69d560",
			"getTotalBetsAmount()": "d1edb09e",
			"host()": "f437bc59",
			"isInBlackSet(uint8)": "5dcab1d8",
			"isInEvenSet(uint8)": "28dddc1b",
			"isInFirstColumnSet(uint8)": "12586172",
			"isInFirstDozenSet(uint8)": "4d7d93fe",
			"isInHighSet(uint8)": "e4ca650d",
			"isInLowSet(uint8)": "972b533d",
			"isInOddSet(uint8)": "d9cc76ad",
			"isInRedSet(uint8)": "4760fff3",
			"isInSecondColumnSet(uint8)": "8fffebca",
			"isInSecondDozenSet(uint8)": "2605c251",
			"isInThirdColumnSet(uint8)": "e71f766e",
			"isInThirdDozenSet(uint8)": "a38bd74c",
			"maxBet()": "2e5b2168",
			"minBet()": "9619367d",
			"minDeposite()": "87171eb7",
			"noMoreBets()": "1b2abc77",
			"placeBet(uint8)": "43046844",
			"result()": "65372147",
			"settleBet()": "8e4bf820",
			"signedValidators(uint256)": "c201715c",
			"status()": "200d2ed2",
			"validateResult()": "38cceb4f",
			"validate_threshold()": "2eca4c28",
			"validators(uint256)": "35aa2e44"
		}
	},
	"abi": [
		{
			"inputs": [
				{
					"internalType": "address",
					"name": "_host",
					"type": "address"
				},
				{
					"internalType": "uint256",
					"name": "_minBet",
					"type": "uint256"
				},
				{
					"internalType": "address[]",
					"name": "_validators",
					"type": "address[]"
				},
				{
					"internalType": "uint8",
					"name": "_valid_threshold",
					"type": "uint8"
				}
			],
			"stateMutability": "nonpayable",
			"type": "constructor"
		},
		{
			"anonymous": false,
			"inputs": [
				{
					"indexed": true,
					"internalType": "address",
					"name": "player",
					"type": "address"
				},
				{
					"indexed": false,
					"internalType": "uint8",
					"name": "option",
					"type": "uint8"
				},
				{
					"indexed": false,
					"internalType": "uint256",
					"name": "amount",
					"type": "uint256"
				}
			],
			"name": "BetPayout",
			"type": "event"
		},
		{
			"anonymous": false,
			"inputs": [
				{
					"indexed": true,
					"internalType": "address",
					"name": "player",
					"type": "address"
				},
				{
					"indexed": false,
					"internalType": "uint8",
					"name": "option",
					"type": "uint8"
				},
				{
					"indexed": false,
					"internalType": "uint256",
					"name": "amount",
					"type": "uint256"
				}
			],
			"name": "BetPlaced",
			"type": "event"
		},
		{
			"anonymous": false,
			"inputs": [
				{
					"indexed": true,
					"internalType": "address",
					"name": "host",
					"type": "address"
				},
				{
					"indexed": false,
					"internalType": "uint256",
					"name": "amount",
					"type": "uint256"
				}
			],
			"name": "DepositPlaced",
			"type": "event"
		},
		{
			"anonymous": false,
			"inputs": [
				{
					"indexed": true,
					"internalType": "address",
					"name": "host",
					"type": "address"
				},
				{
					"indexed": false,
					"internalType": "uint256",
					"name": "minBet",
					"type": "uint256"
				},
				{
					"indexed": false,
					"internalType": "address[]",
					"name": "validators",
					"type": "address[]"
				},
				{
					"indexed": false,
					"internalType": "uint8",
					"name": "valid_threshold",
					"type": "uint8"
				}
			],
			"name": "GameCreated",
			"type": "event"
		},
		{
			"anonymous": false,
			"inputs": [
				{
					"indexed": true,
					"internalType": "address",
					"name": "host",
					"type": "address"
				},
				{
					"indexed": false,
					"internalType": "uint256",
					"name": "amount",
					"type": "uint256"
				}
			],
			"name": "GameEnded",
			"type": "event"
		},
		{
			"anonymous": false,
			"inputs": [
				{
					"indexed": false,
					"internalType": "uint256",
					"name": "cutOffBlockNumber",
					"type": "uint256"
				}
			],
			"name": "NoMoreBets",
			"type": "event"
		},
		{
			"anonymous": false,
			"inputs": [
				{
					"indexed": false,
					"internalType": "uint8",
					"name": "stepIndex",
					"type": "uint8"
				},
				{
					"indexed": false,
					"internalType": "string",
					"name": "explanation",
					"type": "string"
				},
				{
					"indexed": false,
					"internalType": "bytes",
					"name": "intermediateHash",
					"type": "bytes"
				}
			],
			"name": "ProofStep",
			"type": "event"
		},
		{
			"anonymous": false,
			"inputs": [
				{
					"indexed": false,
					"internalType": "uint8",
					"name": "result",
					"type": "uint8"
				}
			],
			"name": "ResultGenerated",
			"type": "event"
		},
		{
			"anonymous": false,
			"inputs": [
				{
					"indexed": false,
					"internalType": "uint8",
					"name": "result",
					"type": "uint8"
				}
			],
			"name": "ResultValidated",
			"type": "event"
		},
		{
			"inputs": [
				{
					"internalType": "uint256",
					"name": "",
					"type": "uint256"
				}
			],
			"name": "OPTION_BLACK_SET",
			"outputs": [
				{
					"internalType": "uint8",
					"name": "",
					"type": "uint8"
				}
			],
			"stateMutability": "view",
			"type": "function"
		},
		{
			"inputs": [
				{
					"internalType": "uint256",
					"name": "",
					"type": "uint256"
				}
			],
			"name": "OPTION_EVEN_SET",
			"outputs": [
				{
					"internalType": "uint8",
					"name": "",
					"type": "uint8"
				}
			],
			"stateMutability": "view",
			"type": "function"
		},
		{
			"inputs": [
				{
					"internalType": "uint256",
					"name": "",
					"type": "uint256"
				}
			],
			"name": "OPTION_FIRST_COLUMN_SET",
			"outputs": [
				{
					"internalType": "uint8",
					"name": "",
					"type": "uint8"
				}
			],
			"stateMutability": "view",
			"type": "function"
		},
		{
			"inputs": [
				{
					"internalType": "uint256",
					"name": "",
					"type": "uint256"
				}
			],
			"name": "OPTION_FIRST_DOZEN_SET",
			"outputs": [
				{
					"internalType": "uint8",
					"name": "",
					"type": "uint8"
				}
			],
			"stateMutability": "view",
			"type": "function"
		},
		{
			"inputs": [
				{
					"internalType": "uint256",
					"name": "",
					"type": "uint256"
				}
			],
			"name": "OPTION_HIGH_SET",
			"outputs": [
				{
					"internalType": "uint8",
					"name": "",
					"type": "uint8"
				}
			],
			"stateMutability": "view",
			"type": "function"
		},
		{
			"inputs": [
				{
					"internalType": "uint256",
					"name": "",
					"type": "uint256"
				}
			],
			"name": "OPTION_LOW_SET",
			"outputs": [
				{
					"internalType": "uint8",
					"name": "",
					"type": "uint8"
				}
			],
			"stateMutability": "view",
			"type": "function"
		},
		{
			"inputs": [
				{
					"internalType": "uint256",
					"name": "",
					"type": "uint256"
				}
			],
			"name": "OPTION_ODD_SET",
			"outputs": [
				{
					"internalType": "uint8",
					"name": "",
					"type": "uint8"
				}
			],
			"stateMutability": "view",
			"type": "function"
		},
		{
			"inputs": [
				{
					"internalType": "uint256",
					"name": "",
					"type": "uint256"
				}
			],
			"name": "OPTION_RED_SET",
			"outputs": [
				{
					"internalType": "uint8",
					"name": "",
					"type": "uint8"
				}
			],
			"stateMutability": "view",
			"type": "function"
		},
		{
			"inputs": [
				{
					"internalType": "uint256",
					"name": "",
					"type": "uint256"
				}
			],
			"name": "OPTION_SECOND_COLUMN_SET",
			"outputs": [
				{
					"internalType": "uint8",
					"name": "",
					"type": "uint8"
				}
			],
			"stateMutability": "view",
			"type": "function"
		},
		{
			"inputs": [
				{
					"internalType": "uint256",
					"name": "",
					"type": "uint256"
				}
			],
			"name": "OPTION_SECOND_DOZEN_SET",
			"outputs": [
				{
					"internalType": "uint8",
					"name": "",
					"type": "uint8"
				}
			],
			"stateMutability": "view",
			"type": "function"
		},
		{
			"inputs": [
				{
					"internalType": "uint256",
					"name": "",
					"type": "uint256"
				}
			],
			"name": "OPTION_THIRD_COLUMN_SET",
			"outputs": [
				{
					"internalType": "uint8",
					"name": "",
					"type": "uint8"
				}
			],
			"stateMutability": "view",
			"type": "function"
		},
		{
			"inputs": [
				{
					"internalType": "uint256",
					"name": "",
					"type": "uint256"
				}
			],
			"name": "OPTION_THIRD_DOZEN_SET",
			"outputs": [
				{
					"internalType": "uint8",
					"name": "",
					"type": "uint8"
				}
			],
			"stateMutability": "view",
			"type": "function"
		},
		{
			"inputs": [
				{
					"internalType": "uint256",
					"name": "",
					"type": "uint256"
				}
			],
			"name": "bets",
			"outputs": [
				{
					"internalType": "address",
					"name": "player",
					"type": "address"
				},
				{
					"internalType": "uint8",
					"name": "option",
					"type": "uint8"
				},
				{
					"internalType": "uint256",
					"name": "amount",
					"type": "uint256"
				}
			],
			"stateMutability": "view",
			"type": "function"
		},
		{
			"inputs": [],
			"name": "cutOffBlockNumber",
			"outputs": [
				{
					"internalType": "uint256",
					"name": "",
					"type": "uint256"
				}
			],
			"stateMutability": "view",
			"type": "function"
		},
		{
			"inputs": [],
			"name": "deposit",
			"outputs": [],
			"stateMutability": "payable",
			"type": "function"
		},
		{
			"inputs": [],
			"name": "generateResult",
			"outputs": [],
			"stateMutability": "nonpayable",
			"type": "function"
		},
		{
			"inputs": [],
			"name": "getBetsCount",
			"outputs": [
				{
					"internalType": "uint256",
					"name": "",
					"type": "uint256"
				}
			],
			"stateMutability": "view",
			"type": "function"
		},
		{
			"inputs": [],
			"name": "getStatus",
			"outputs": [
				{
					"internalType": "uint8",
					"name": "",
					"type": "uint8"
				}
			],
			"stateMutability": "view",
			"type": "function"
		},
		{
			"inputs": [],
			"name": "getTotalBetsAmount",
			"outputs": [
				{
					"internalType": "uint256",
					"name": "",
					"type": "uint256"
				}
			],
			"stateMutability": "view",
			"type": "function"
		},
		{
			"inputs": [],
			"name": "host",
			"outputs": [
				{
					"internalType": "address",
					"name": "",
					"type": "address"
				}
			],
			"stateMutability": "view",
			"type": "function"
		},
		{
			"inputs": [
				{
					"internalType": "uint8",
					"name": "number",
					"type": "uint8"
				}
			],
			"name": "isInBlackSet",
			"outputs": [
				{
					"internalType": "bool",
					"name": "",
					"type": "bool"
				}
			],
			"stateMutability": "view",
			"type": "function"
		},
		{
			"inputs": [
				{
					"internalType": "uint8",
					"name": "number",
					"type": "uint8"
				}
			],
			"name": "isInEvenSet",
			"outputs": [
				{
					"internalType": "bool",
					"name": "",
					"type": "bool"
				}
			],
			"stateMutability": "view",
			"type": "function"
		},
		{
			"inputs": [
				{
					"internalType": "uint8",
					"name": "number",
					"type": "uint8"
				}
			],
			"name": "isInFirstColumnSet",
			"outputs": [
				{
					"internalType": "bool",
					"name": "",
					"type": "bool"
				}
			],
			"stateMutability": "view",
			"type": "function"
		},
		{
			"inputs": [
				{
					"internalType": "uint8",
					"name": "number",
					"type": "uint8"
				}
			],
			"name": "isInFirstDozenSet",
			"outputs": [
				{
					"internalType": "bool",
					"name": "",
					"type": "bool"
				}
			],
			"stateMutability": "view",
			"type": "function"
		},
		{
			"inputs": [
				{
					"internalType": "uint8",
					"name": "number",
					"type": "uint8"
				}
			],
			"name": "isInHighSet",
			"outputs": [
				{
					"internalType": "bool",
					"name": "",
					"type": "bool"
				}
			],
			"stateMutability": "view",
			"type": "function"
		},
		{
			"inputs": [
				{
					"internalType": "uint8",
					"name": "number",
					"type": "uint8"
				}
			],
			"name": "isInLowSet",
			"outputs": [
				{
					"internalType": "bool",
					"name": "",
					"type": "bool"
				}
			],
			"stateMutability": "view",
			"type": "function"
		},
		{
			"inputs": [
				{
					"internalType": "uint8",
					"name": "number",
					"type": "uint8"
				}
			],
			"name": "isInOddSet",
			"outputs": [
				{
					"internalType": "bool",
					"name": "",
					"type": "bool"
				}
			],
			"stateMutability": "view",
			"type": "function"
		},
		{
			"inputs": [
				{
					"internalType": "uint8",
					"name": "number",
					"type": "uint8"
				}
			],
			"name": "isInRedSet",
			"outputs": [
				{
					"internalType": "bool",
					"name": "",
					"type": "bool"
				}
			],
			"stateMutability": "view",
			"type": "function"
		},
		{
			"inputs": [
				{
					"internalType": "uint8",
					"name": "number",
					"type": "uint8"
				}
			],
			"name": "isInSecondColumnSet",
			"outputs": [
				{
					"internalType": "bool",
					"name": "",
					"type": "bool"
				}
			],
			"stateMutability": "view",
			"type": "function"
		},
		{
			"inputs": [
				{
					"internalType": "uint8",
					"name": "number",
					"type": "uint8"
				}
			],
			"name": "isInSecondDozenSet",
			"outputs": [
				{
					"internalType": "bool",
					"name": "",
					"type": "bool"
				}
			],
			"stateMutability": "view",
			"type": "function"
		},
		{
			"inputs": [
				{
					"internalType": "uint8",
					"name": "number",
					"type": "uint8"
				}
			],
			"name": "isInThirdColumnSet",
			"outputs": [
				{
					"internalType": "bool",
					"name": "",
					"type": "bool"
				}
			],
			"stateMutability": "view",
			"type": "function"
		},
		{
			"inputs": [
				{
					"internalType": "uint8",
					"name": "number",
					"type": "uint8"
				}
			],
			"name": "isInThirdDozenSet",
			"outputs": [
				{
					"internalType": "bool",
					"name": "",
					"type": "bool"
				}
			],
			"stateMutability": "view",
			"type": "function"
		},
		{
			"inputs": [],
			"name": "maxBet",
			"outputs": [
				{
					"internalType": "uint256",
					"name": "",
					"type": "uint256"
				}
			],
			"stateMutability": "view",
			"type": "function"
		},
		{
			"inputs": [],
			"name": "minBet",
			"outputs": [
				{
					"internalType": "uint256",
					"name": "",
					"type": "uint256"
				}
			],
			"stateMutability": "view",
			"type": "function"
		},
		{
			"inputs": [],
			"name": "minDeposite",
			"outputs": [
				{
					"internalType": "uint256",
					"name": "",
					"type": "uint256"
				}
			],
			"stateMutability": "view",
			"type": "function"
		},
		{
			"inputs": [],
			"name": "noMoreBets",
			"outputs": [],
			"stateMutability": "nonpayable",
			"type": "function"
		},
		{
			"inputs": [
				{
					"internalType": "uint8",
					"name": "option",
					"type": "uint8"
				}
			],
			"name": "placeBet",
			"outputs": [],
			"stateMutability": "payable",
			"type": "function"
		},
		{
			"inputs": [],
			"name": "result",
			"outputs": [
				{
					"internalType": "uint8",
					"name": "",
					"type": "uint8"
				}
			],
			"stateMutability": "view",
			"type": "function"
		},
		{
			"inputs": [],
			"name": "settleBet",
			"outputs": [],
			"stateMutability": "nonpayable",
			"type": "function"
		},
		{
			"inputs": [
				{
					"internalType": "uint256",
					"name": "",
					"type": "uint256"
				}
			],
			"name": "signedValidators",
			"outputs": [
				{
					"internalType": "address",
					"name": "",
					"type": "address"
				}
			],
			"stateMutability": "view",
			"type": "function"
		},
		{
			"inputs": [],
			"name": "status",
			"outputs": [
				{
					"internalType": "uint8",
					"name": "",
					"type": "uint8"
				}
			],
			"stateMutability": "view",
			"type": "function"
		},
		{
			"inputs": [],
			"name": "validateResult",
			"outputs": [],
			"stateMutability": "nonpayable",
			"type": "function"
		},
		{
			"inputs": [],
			"name": "validate_threshold",
			"outputs": [
				{
					"internalType": "uint8",
					"name": "",
					"type": "uint8"
				}
			],
			"stateMutability": "view",
			"type": "function"
		},
		{
			"inputs": [
				{
					"internalType": "uint256",
					"name": "",
					"type": "uint256"
				}
			],
			"name": "validators",
			"outputs": [
				{
					"internalType": "address",
					"name": "",
					"type": "address"
				}
			],
			"stateMutability": "view",
			"type": "function"
		}
	]
}