{
	"data": {
		"bytecode": {
			"linkReferences": {},
			"object": "6080604052348015600e575f80fd5b50613f4e8061001c5f395ff3fe608060405260043610610049575f3560e01c8063117a5b901461004d5780634d1975b4146100af5780636650e91a146100d25780636ac0b1b21461010f578063db1c45f91461013a575b5f80fd5b348015610058575f80fd5b5061008b6100673660046102eb565b5f60208190529081526040902080546001909101546001600160a01b039091169082565b604080516001600160a01b0390931683526020830191909152015b60405180910390f35b3480156100ba575f80fd5b506100c460015481565b6040519081526020016100a6565b3480156100dd575f80fd5b5061008b6100ec3660046102eb565b5f90815260208190526040902080546001909101546001600160a01b0390911691565b61012261011d366004610341565b61015b565b6040516001600160a01b0390911681526020016100a6565b348015610145575f80fd5b5061014e610234565b6040516100a6919061047a565b5f808585858560405161016d906102de565b61017a9493929190610493565b604051809103905ff080158015610193573d5f803e3d5ffd5b506040805180820182526001600160a01b03838116808352426020808501828152600180545f908152808452889020965187546001600160a01b0319169616959095178655519490930193909355925191825292935090917f306841c3fce8498c2d9b7194b8da4c04d03847394e237b625ce6d029b107f077910160405180910390a260018054905f610225836104cd565b90915550909695505050505050565b60605f60015467ffffffffffffffff8111156102525761025261031d565b60405190808252806020026020018201604052801561027b578160200160208202803683370190505b5090505f5b6001548110156102d8575f8181526020819052604090205482516001600160a01b03909116908390839081106102b8576102b86104f1565b6001600160a01b0390921660209283029190910190910152600101610280565b50919050565b613a138061050683390190565b5f602082840312156102fb575f80fd5b5035919050565b80356001600160a01b0381168114610318575f80fd5b919050565b634e487b7160e01b5f52604160045260245ffd5b803560ff81168114610318575f80fd5b5f805f8060808587031215610354575f80fd5b61035d85610302565b935060208501359250604085013567ffffffffffffffff81111561037f575f80fd5b8501601f8101871361038f575f80fd5b803567ffffffffffffffff8111156103a9576103a961031d565b8060051b604051601f19603f830116810181811067ffffffffffffffff821117156103d6576103d661031d565b60405291825260208184018101929081018a8411156103f3575f80fd5b6020850194505b838510156104195761040b85610302565b8152602094850194016103fa565b50945061042c9250505060608601610331565b905092959194509250565b5f8151808452602084019350602083015f5b828110156104705781516001600160a01b0316865260209586019590910190600101610449565b5093949350505050565b602081525f61048c6020830184610437565b9392505050565b60018060a01b0385168152836020820152608060408201525f6104b96080830185610437565b905060ff8316606083015295945050505050565b5f600182016104ea57634e487b7160e01b5f52601160045260245ffd5b5060010190565b634e487b7160e01b5f52603260045260245ffdfe6102c060405260016080908152600260a052600360c052600460e052600561010052600661012052600761014052600861016052600961018052600a6101a052600b6101c052600c6101e052600d61020052600e61022052600f6102405260106102605260116102805260126102a081905261007c915f9161072a565b5060408051610240810182526013815260146020808301919091526015928201929092526016606082015260176080820152601860a0820152601960c0820152601a60e0820152601b610100820152601c610120820152601d610140820152601e610160820152601f6101808201526101a081019190915260216101c082015260226101e08201526023610200820152602461022082015261012290600190601261072a565b5060408051610240810182526001815260036020808301919091526005928201929092526007606082015260096080820152600c60a0820152600e60c0820152601060e0820152601261010082018190526013610120830152601561014083015260176101608301526019610180830152601b6101a0830152601e6101c08301526101e0820192909252602261020082015260246102208201526101c9916002919061072a565b506040805161024081018252600281526004602082015260069181019190915260086060820152600a6080820152600b60a0820152600d60c0820152600f60e08201526011610100820152601461012082015260166101408201526018610160820152601a610180820152601c6101a0820152601d6101c0820152601f6101e08201526021610200820152602361022082015261026a90600390601261072a565b506040805161024081018252600281526004602080830182905260069383019390935260086060830152600a6080830152600c60a0830152600e60c0830152601060e083015260126101008301819052601461012084015260166101408401526018610160840152601a610180840152601c6101a0840152601e6101c08401526101e08301939093526022610200830152602461022083015261030f9290919061072a565b506040805161024081018252600181526003602082015260059181018290526007606082015260096080820152600b60a0820152600d60c0820152600f60e082015260116101008201526013610120820152601561014082015260176101608201526019610180820152601b6101a0820152601d6101c0820152601f6101e0820152602161020082015260236102208201526103ad9190601261072a565b5060408051610180810182526001815260046020820152600791810191909152600a6060820152600d6080820152601060a0820152601360c0820152601660e08201526019610100820152601c610120820152601f610140820152602261016082015261041e90600690600c61072a565b506040805161018081018252600281526005602080830191909152600892820192909252600b6060820152600e6080820152601160a0820152601460c0820152601760e0820152601a610100820152601d610120820152610140810191909152602361016082015261049490600790600c61072a565b5060408051610180810182526003815260066020820152600991810191909152600c60608201819052600f6080830152601260a0830152601560c0830152601860e0830152601b610100830152601e610120830152602161014083015260246101608301526105059160089161072a565b50604080516101808101825260018152600260208201526003918101919091526004606082015260056080820152600660a0820152600760c0820152600860e082015260096101008201819052600a610120830152600b610140830152600c6101608301819052610576929061072a565b506040805161018081018252600d8152600e6020820152600f918101919091526010606082015260116080820152601260a0820152601360c0820152601460e082015260156101008201526016610120820152601761014082015260186101608201526105e790600a90600c61072a565b50604080516101808101825260198152601a602080830191909152601b92820192909252601c6060820152601d6080820152601e60a0820152601f60c082015260e0810191909152602161010082015260226101208201526023610140820152602461016082015261065d90600b90600c61072a565b50348015610669575f80fd5b50604051613a13380380613a1383398101604081905261068891610860565b600c80546001600160a01b0319166001600160a01b038616179055600d839055600e805460ff1916905581516106c59060129060208501906107ba565b506011805461ff00191661010060ff8416021790556040516001600160a01b038516907f7bc06ad6af97e4997115d8b8ec4270105092a2dc99a8ba73a35de86c49ab8d9b9061071990869086908690610956565b60405180910390a2505050506109b8565b6001830191839082156107aa579160200282015f5b8382111561077c57835183826101000a81548160ff021916908360ff16021790555092602001926001016020815f0104928301926001030261073f565b80156107a85782816101000a81549060ff02191690556001016020815f0104928301926001030261077c565b505b506107b692915061080d565b5090565b828054828255905f5260205f209081019282156107aa579160200282015b828111156107aa57825182546001600160a01b0319166001600160a01b039091161782556020909201916001909101906107d8565b5b808211156107b6575f815560010161080e565b80516001600160a01b0381168114610837575f80fd5b919050565b634e487b7160e01b5f52604160045260245ffd5b805160ff81168114610837575f80fd5b5f805f8060808587031215610873575f80fd5b61087c85610821565b6020860151604087015191955093506001600160401b0381111561089e575f80fd5b8501601f810187136108ae575f80fd5b80516001600160401b038111156108c7576108c761083c565b604051600582901b90603f8201601f191681016001600160401b03811182821017156108f5576108f561083c565b60405291825260208184018101929081018a841115610912575f80fd5b6020850194505b838510156109385761092a85610821565b815260209485019401610919565b50945061094b9250505060608601610850565b905092959194509250565b5f60608201858352606060208401528085518083526080850191506020870192505f5b818110156109a05783516001600160a01b0316835260209384019390920191600101610979565b5050809250505060ff83166040830152949350505050565b61304e806109c55f395ff3fe60806040526004361061025f575f3560e01c80636f91a66f1161013f578063c201715c116100b3578063db7f11db11610078578063db7f11db146106d1578063e4ca650d146106f0578063e71f766e1461070f578063e8e0fca51461072e578063f437bc591461074d578063fe5385af1461076c575f80fd5b8063c201715c14610658578063d0e30db014610677578063d1edb09e1461067f578063d4f7a28514610693578063d9cc76ad146106b2575f80fd5b80639619367d116101045780639619367d146105a8578063972b533d146105bd578063a38bd74c146105dc578063a6ede84a146105fb578063b25133991461061a578063be47ae1314610639575f80fd5b80636f91a66f1461053757806387171eb71461054c5780638c7e347a146105615780638e4bf820146105755780638fffebca14610589575f80fd5b80632e5b2168116101d6578063430468441161019b57806343046844146104975780634760fff3146104aa5780634d7d93fe146104c95780634e69d560146104e85780635dcab1d8146104ff578063653721471461051e575f80fd5b80632e5b2168146103ec5780632eca4c281461040f578063322f89201461042d57806335aa2e441461044c57806338cceb4f14610483575f80fd5b80631fac0ffd116102275780631fac0ffd14610311578063200d2ed21461033057806322af00fa1461034957806323fe318e1461038f5780632605c251146103ae57806328dddc1b146103cd575f80fd5b806312586172146102635780631929983214610297578063195ba0eb146102c85780631b2abc77146102e75780631dbe2e0e146102fd575b5f80fd5b34801561026e575f80fd5b5061028261027d366004612bd7565b61078b565b60405190151581526020015b60405180910390f35b3480156102a2575f80fd5b506102b66102b1366004612bfe565b6107f2565b60405160ff909116815260200161028e565b3480156102d3575f80fd5b506102b66102e2366004612bfe565b61081b565b3480156102f2575f80fd5b506102fb61082a565b005b348015610308575f80fd5b506102fb6108ca565b34801561031c575f80fd5b506102b661032b366004612bfe565b610b19565b34801561033b575f80fd5b50600e546102b69060ff1681565b348015610354575f80fd5b50610368610363366004612bfe565b610b28565b604080516001600160a01b03909416845260ff90921660208401529082015260600161028e565b34801561039a575f80fd5b506102b66103a9366004612bfe565b610b69565b3480156103b9575f80fd5b506102826103c8366004612bd7565b610b78565b3480156103d8575f80fd5b506102826103e7366004612bd7565b610bd7565b3480156103f7575f80fd5b5061040160155481565b60405190815260200161028e565b34801561041a575f80fd5b506011546102b690610100900460ff1681565b348015610438575f80fd5b506102b6610447366004612bfe565b610c36565b348015610457575f80fd5b5061046b610466366004612bfe565b610c45565b6040516001600160a01b03909116815260200161028e565b34801561048e575f80fd5b506102fb610c6d565b6102fb6104a5366004612bd7565b61129b565b3480156104b5575f80fd5b506102826104c4366004612bd7565b6114b2565b3480156104d4575f80fd5b506102826104e3366004612bd7565b611511565b3480156104f3575f80fd5b50600e5460ff166102b6565b34801561050a575f80fd5b50610282610519366004612bd7565b611570565b348015610529575f80fd5b506011546102b69060ff1681565b348015610542575f80fd5b5061040160105481565b348015610557575f80fd5b5061040160145481565b34801561056c575f80fd5b50600f54610401565b348015610580575f80fd5b506102fb6115cf565b348015610594575f80fd5b506102826105a3366004612bd7565b611fe1565b3480156105b3575f80fd5b50610401600d5481565b3480156105c8575f80fd5b506102826105d7366004612bd7565b612040565b3480156105e7575f80fd5b506102826105f6366004612bd7565b61209e565b348015610606575f80fd5b506102b6610615366004612bfe565b6120fd565b348015610625575f80fd5b506102b6610634366004612bfe565b61210c565b348015610644575f80fd5b506102b6610653366004612bfe565b61211b565b348015610663575f80fd5b5061046b610672366004612bfe565b61212a565b6102fb612139565b34801561068a575f80fd5b5061040161226a565b34801561069e575f80fd5b506102b66106ad366004612bfe565b6122b6565b3480156106bd575f80fd5b506102826106cc366004612bd7565b6122c5565b3480156106dc575f80fd5b506102b66106eb366004612bfe565b612324565b3480156106fb575f80fd5b5061028261070a366004612bd7565b612333565b34801561071a575f80fd5b50610282610729366004612bd7565b612392565b348015610739575f80fd5b506102b6610748366004612bfe565b6123f1565b348015610758575f80fd5b50600c5461046b906001600160a01b031681565b348015610777575f80fd5b506102b6610786366004612bfe565b6123ff565b5f805b600c8160ff1610156107ea578260ff1660068260ff16600c81106107b4576107b4612c15565b602081049091015460ff601f9092166101000a900416036107d85750600192915050565b806107e281612c3d565b91505061078e565b505f92915050565b600881600c8110610801575f80fd5b60209182820401919006915054906101000a900460ff1681565b600981600c8110610801575f80fd5b600e5460ff1660011461087b5760405162461bcd60e51b8152602060048201526014602482015273139bc81b5bdc994818995d1cc8185b1b1bddd95960621b60448201526064015b60405180910390fd5b600e805460ff191660021790554360108190556040517f2d21e9397283a99c7f2df56baf635aab0655f2dea12185fac963ac115be30f93916108c09190815260200190565b60405180910390a1565b600e5460ff166002146109165760405162461bcd60e51b8152602060048201526014602482015273139bc81b5bdc994818995d1cc8185b1b1bddd95960621b6044820152606401610872565b600c546001600160a01b031633146109705760405162461bcd60e51b815260206004820152601d60248201527f4f6e6c7920686f73742063616e2067656e657261746520726573756c740000006044820152606401610872565b60105461097f90600c90612c5b565b61098a906001612c5b565b4310156109d95760405162461bcd60e51b815260206004820152601860248201527f426c6f636b206e756d626572206e6f74207265616368656400000000000000006044820152606401610872565b5f60105460016109e99190612c5b565b600c5460405160609190911b6001600160601b0319166020820152904091505f9060340160405160208183030381529060405290505f5b600f54811015610a835781600f8281548110610a3e57610a3e612c15565b5f91825260209182902060029091020154604051610a6993926001600160a01b039092169101612c8b565b60408051601f198184030181529190529150600101610a20565b505f8282604051602001610a98929190612cb2565b60408051601f198184030181529190528051602090910120905080610abe602682612cdf565b6011805460ff9290921660ff199283168117909155600e80549092166003179091556040519081527f4898f0a86e5d5b202a6285b46db8e265f964e837829f7d6bf7d1c072c6b88c099060200160405180910390a150505050565b600b81600c8110610801575f80fd5b600f8181548110610b37575f80fd5b5f918252602090912060029091020180546001909101546001600160a01b0382169250600160a01b90910460ff169083565b60028160128110610801575f80fd5b5f805b600c8160ff1610156107ea578260ff16600a8260ff16600c8110610ba157610ba1612c15565b602081049091015460ff601f9092166101000a90041603610bc55750600192915050565b80610bcf81612c3d565b915050610b7b565b5f805b60128160ff1610156107ea578260ff1660048260ff1660128110610c0057610c00612c15565b602081049091015460ff601f9092166101000a90041603610c245750600192915050565b80610c2e81612c3d565b915050610bda565b600a81600c8110610801575f80fd5b60128181548110610c54575f80fd5b5f918252602090912001546001600160a01b0316905081565b600e5460ff16600314610cb95760405162461bcd60e51b815260206004820152601460248201527314995cdd5b1d081b9bdd0819d95b995c985d195960621b6044820152606401610872565b601054610cc890600c90612c5b565b610cd3906001612c5b565b431015610d335760405162461bcd60e51b815260206004820152602860248201527f57616974206174206c6561737420313220626c6f636b732061667465722067656044820152673732b930ba34b7b760c11b6064820152608401610872565b610d3c3361240e565b610d885760405162461bcd60e51b815260206004820152601d60248201527f4f6e6c7920612076616c696461746f722063616e2076616c69646174650000006044820152606401610872565b5f6010546001610d989190612c5b565b905080405f80516020612ff98339815191526001610db584612462565b610dbe8461256d565b604051602001610dcf929190612cf2565b60408051601f19818403018152828252602083018790529082018590529060600160408051601f1981840301815290829052610e0c939291612d8e565b60405180910390a1600f545f90610e24906001612c5b565b67ffffffffffffffff811115610e3c57610e3c612dc5565b604051908082528060200260200182016040528015610e65578160200160208202803683370190505b50600c5481519192506001600160a01b03169082905f90610e8857610e88612c15565b60200260200101906001600160a01b031690816001600160a01b0316815250505f5b600f54811015610f1c57600f8181548110610ec757610ec7612c15565b5f9182526020909120600290910201546001600160a01b031682610eec836001612c5b565b81518110610efc57610efc612c15565b6001600160a01b0390921660209283029190910190910152600101610eaa565b505f610f2782612729565b600c5460405160609190911b6001600160601b03191660208201529091505f9060340160405160208183030381529060405290505f5b600f54811015610fc05781600f8281548110610f7b57610f7b612c15565b5f91825260209182902060029091020154604051610fa693926001600160a01b039092169101612c8b565b60408051601f198184030181529190529150600101610f5d565b505f80516020612ff9833981519152600283604051602001610fe29190612dd9565b604051602081830303815290604052856040516020016110029190612e0a565b60408051601f198184030181529082905261101e939291612d8e565b60405180910390a15f80516020612ff9833981519152600361103f83612822565b60405160200161104f9190612e55565b60408051601f198184030181529082905261106c92918590612d8e565b60405180910390a15f8482604051602001611088929190612cb2565b6040516020818303038152906040528051906020012090505f80516020612ff983398151915260046110b98361256d565b6040516020016110c99190612e90565b60408051601f1981840301815282825260208301869052910160408051601f19818403018152908290526110fe939291612d8e565b60405180910390a1805f611113602683612cdf565b90505f80516020612ff9833981519152600561112f6026612462565b61113b8460ff16612462565b60405160200161114c929190612ed1565b60408051601f1981840301815282825260ff86166020840152910160408051601f1981840301815290829052611183939291612d8e565b60405180910390a160115460ff8281169116146111ed5760405162461bcd60e51b815260206004820152602260248201527f53746f72656420726573756c7420213d207265636f6d707574656420726573756044820152611b1d60f21b6064820152608401610872565b601380546001810182555f8290527f66de8ffda797e3de9c05e8fc57b3bf0ec28a930d40b0d285d93c06501cf6a090018054336001600160a01b0319909116179055601154905461010090910460ff16116112915760115460405160ff90911681527f5f438d100d0c0fb18e88113110bf411fd18c9a557c03e394cd32997b5055f9ae9060200160405180910390a1600e805460ff191660041790556112916115cf565b5050505050505050565b60318160ff1611156112ef5760405162461bcd60e51b815260206004820152601f60248201527f4f7074696f6e206d757374206265206265747765656e203020616e64203337006044820152606401610872565b600d5434101561134d5760405162461bcd60e51b815260206004820152602360248201527f42657420616d6f756e742069732062656c6f7720746865206d696e696d756d2060448201526218995d60ea1b6064820152608401610872565b600a61135b61016847612f21565b6113659190612f38565b34106113bf5760405162461bcd60e51b815260206004820152602360248201527f42657420616d6f756e742069732061626f766520746865206d6178696d756d2060448201526218995d60ea1b6064820152608401610872565b604080516060810182523380825260ff848116602080850182815234868801818152600f80546001810182555f91909152975160029098027f8d1108e10bcb7c27dddfc02ed9d693a074039d026cf4ea4240b40f7d581ac802810180549451909716600160a01b026001600160a81b03199094166001600160a01b039099169890981792909217909455517f8d1108e10bcb7c27dddfc02ed9d693a074039d026cf4ea4240b40f7d581ac80390950194909455845190815292830152917f9f6b4cced64244a64465098f682029975b1614400b96bc6bd12c668083719166910160405180910390a26114af61082a565b50565b5f805b60128160ff1610156107ea578260ff1660028260ff16601281106114db576114db612c15565b602081049091015460ff601f9092166101000a900416036114ff5750600192915050565b8061150981612c3d565b9150506114b5565b5f805b600c8160ff1610156107ea578260ff1660098260ff16600c811061153a5761153a612c15565b602081049091015460ff601f9092166101000a9004160361155e5750600192915050565b8061156881612c3d565b915050611514565b5f805b60128160ff1610156107ea578260ff1660038260ff166012811061159957611599612c15565b602081049091015460ff601f9092166101000a900416036115bd5750600192915050565b806115c781612c3d565b915050611573565b600e5460ff166004146116245760405162461bcd60e51b815260206004820152601860248201527f526573756c74206e6f742076616c6964617465642079657400000000000000006044820152606401610872565b5f5b600f54811015611f68575f600f828154811061164457611644612c15565b5f918252602090912060029091020154600160a01b900460ff161080159061169957506025600f828154811061167c5761167c612c15565b5f918252602090912060029091020154600160a01b900460ff1611155b1561184957601154600f805460ff90921691839081106116bb576116bb612c15565b5f918252602090912060029091020154600160a01b900460ff160361184457600f81815481106116ed576116ed612c15565b905f5260205f2090600202015f015f9054906101000a90046001600160a01b03166001600160a01b03166108fc600a610168600f858154811061173257611732612c15565b905f5260205f2090600202016001015461174c9190612f21565b6117569190612f38565b6040518115909202915f818181858888f1935050505015801561177b573d5f803e3d5ffd5b50600f818154811061178f5761178f612c15565b5f918252602090912060029091020154600f80546001600160a01b03909216915f80516020612fd98339815191529190849081106117cf576117cf612c15565b905f5260205f2090600202015f0160149054906101000a900460ff16600a610168600f868154811061180357611803612c15565b905f5260205f2090600202016001015461181d9190612f21565b6118279190612f38565b6040805160ff909316835260208301919091520160405180910390a25b611f68565b600f818154811061185c5761185c612c15565b5f918252602090912060029091020154600160a01b900460ff166026036119b85760115461188c9060ff16612040565b1561184457600f81815481106118a4576118a4612c15565b905f5260205f2090600202015f015f9054906101000a90046001600160a01b03166001600160a01b03166108fc600a6014600f85815481106118e8576118e8612c15565b905f5260205f209060020201600101546119029190612f21565b61190c9190612f38565b6040518115909202915f818181858888f19350505050158015611931573d5f803e3d5ffd5b50600f818154811061194557611945612c15565b5f918252602090912060029091020154600f80546001600160a01b03909216915f80516020612fd983398151915291908490811061198557611985612c15565b905f5260205f2090600202015f0160149054906101000a900460ff16600a6014600f868154811061180357611803612c15565b600f81815481106119cb576119cb612c15565b5f918252602090912060029091020154600160a01b900460ff166027036119fb5760115461188c9060ff16612333565b600f8181548110611a0e57611a0e612c15565b5f918252602090912060029091020154600160a01b900460ff16602803611a3e5760115461188c9060ff166114b2565b600f8181548110611a5157611a51612c15565b5f918252602090912060029091020154600160a01b900460ff16602903611a815760115461188c9060ff16611570565b600f8181548110611a9457611a94612c15565b5f918252602090912060029091020154600160a01b900460ff16602a03611ac45760115461188c9060ff16610bd7565b600f8181548110611ad757611ad7612c15565b5f918252602090912060029091020154600160a01b900460ff16602b03611b075760115461188c9060ff166122c5565b600f8181548110611b1a57611b1a612c15565b5f918252602090912060029091020154600160a01b900460ff16602c03611cb057601154611b4a9060ff1661078b565b15611cab57600f8181548110611b6257611b62612c15565b5f918252602090912060029091020154600f80546001600160a01b03909216916108fc91600a91819086908110611b9b57611b9b612c15565b905f5260205f20906002020160010154611bb59190612f21565b611bbf9190612f38565b6040518115909202915f818181858888f19350505050158015611be4573d5f803e3d5ffd5b50600f8181548110611bf857611bf8612c15565b5f918252602090912060029091020154600f80546001600160a01b03909216915f80516020612fd9833981519152919084908110611c3857611c38612c15565b905f5260205f2090600202015f0160149054906101000a900460ff16600a600f808681548110611c6a57611c6a612c15565b905f5260205f20906002020160010154611c849190612f21565b611c8e9190612f38565b6040805160ff909316835260208301919091520160405180910390a25b611f60565b600f8181548110611cc357611cc3612c15565b5f918252602090912060029091020154600160a01b900460ff16602d03611cf357601154611b4a9060ff16611fe1565b600f8181548110611d0657611d06612c15565b5f918252602090912060029091020154600160a01b900460ff16602e03611d3657601154611b4a9060ff16612392565b600f8181548110611d4957611d49612c15565b5f918252602090912060029091020154600160a01b900460ff16602f03611d7957601154611b4a9060ff16611511565b600f8181548110611d8c57611d8c612c15565b5f918252602090912060029091020154600160a01b900460ff16603003611dbc57601154611b4a9060ff16610b78565b600f8181548110611dcf57611dcf612c15565b5f918252602090912060029091020154600160a01b900460ff16603103611f6057601154611dff9060ff1661209e565b15611f6057600f8181548110611e1757611e17612c15565b5f918252602090912060029091020154600f80546001600160a01b03909216916108fc91600a91819086908110611e5057611e50612c15565b905f5260205f20906002020160010154611e6a9190612f21565b611e749190612f38565b6040518115909202915f818181858888f19350505050158015611e99573d5f803e3d5ffd5b50600f8181548110611ead57611ead612c15565b5f918252602090912060029091020154600f80546001600160a01b03909216915f80516020612fd9833981519152919084908110611eed57611eed612c15565b905f5260205f2090600202015f0160149054906101000a900460ff16600a600f808681548110611f1f57611f1f612c15565b905f5260205f20906002020160010154611f399190612f21565b611f439190612f38565b6040805160ff909316835260208301919091520160405180910390a25b600101611626565b50600c546040514781526001600160a01b03909116907fd4ba6fec82d9b0e8ffe50b9fed9e4be3b25c984ce1e0e016405a5528726e8a2c9060200160405180910390a2600c546040516001600160a01b03909116904780156108fc02915f818181858888f193505050501580156114af573d5f803e3d5ffd5b5f805b600c8160ff1610156107ea578260ff1660078260ff16600c811061200a5761200a612c15565b602081049091015460ff601f9092166101000a9004160361202e5750600192915050565b8061203881612c3d565b915050611fe4565b5f805b60128160ff1610156107ea578260ff165f8260ff166012811061206857612068612c15565b602081049091015460ff601f9092166101000a9004160361208c5750600192915050565b8061209681612c3d565b915050612043565b5f805b600c8160ff1610156107ea578260ff16600b8260ff16600c81106120c7576120c7612c15565b602081049091015460ff601f9092166101000a900416036120eb5750600192915050565b806120f581612c3d565b9150506120a1565b60038160128110610801575f80fd5b600781600c8110610801575f80fd5b60018160128110610801575f80fd5b60138181548110610c54575f80fd5b600e5460ff16156121855760405162461bcd60e51b815260206004820152601660248201527511195c1bdcda5d081a5cc81b9bdd08185b1b1bddd95960521b6044820152606401610872565b600c546001600160a01b031633146121d75760405162461bcd60e51b815260206004820152601560248201527413db9b1e481a1bdcdd0818d85b8819195c1bdcda5d605a1b6044820152606401610872565b5f341161221f5760405162461bcd60e51b8152602060048201526016602482015275125b9d985b1a590819195c1bdcda5d08185b5bdd5b9d60521b6044820152606401610872565b600e805460ff1916600117905560405133907f5a6c38b61cfc87b08186ec74738f787ec19c78c75b5b70442f580362abd96d29906122609034815260200190565b60405180910390a2565b5f80805b600f548110156122b057600f818154811061228b5761228b612c15565b905f5260205f20906002020160010154826122a69190612c5b565b915060010161226e565b50919050565b60048160128110610801575f80fd5b5f805b60128160ff1610156107ea578260ff1660058260ff16601281106122ee576122ee612c15565b602081049091015460ff601f9092166101000a900416036123125750600192915050565b8061231c81612c3d565b9150506122c8565b600681600c8110610801575f80fd5b5f805b60128160ff1610156107ea578260ff1660018260ff166012811061235c5761235c612c15565b602081049091015460ff601f9092166101000a900416036123805750600192915050565b8061238a81612c3d565b915050612336565b5f805b600c8160ff1610156107ea578260ff1660088260ff16600c81106123bb576123bb612c15565b602081049091015460ff601f9092166101000a900416036123df5750600192915050565b806123e981612c3d565b915050612395565b5f8160128110610801575f80fd5b60058160128110610801575f80fd5b5f805b6012548110156107ea57826001600160a01b03166012828154811061243857612438612c15565b5f918252602090912001546001600160a01b03160361245a5750600192915050565b600101612411565b6060815f036124885750506040805180820190915260018152600360fc1b602082015290565b815f5b81156124b1578061249b81612f4b565b91506124aa9050600a83612f38565b915061248b565b5f8167ffffffffffffffff8111156124cb576124cb612dc5565b6040519080825280601f01601f1916602001820160405280156124f5576020820181803683370190505b508593509050815b8315612564578061250d81612f63565b915061251c9050600a85612cdf565b612527906030612c5b565b60f81b82828151811061253c5761253c612c15565b60200101906001600160f81b03191690815f1a90535061255d600a85612f38565b93506124fd565b50949350505050565b604080518082018252601081526f181899199a1a9b1b9c1cb0b131b232b360811b602082015281516042808252608082019093526060925f9190602082018180368337019050509050600360fc1b815f815181106125cd576125cd612c15565b60200101906001600160f81b03191690815f1a905350600f60fb1b816001815181106125fb576125fb612c15565b60200101906001600160f81b03191690815f1a9053505f5b60208110156127215782600486836020811061263157612631612c15565b1a60f81b6001600160f81b031916901c60f81c60ff168151811061265757612657612c15565b01602001516001600160f81b03191682612672836002612f21565b61267d906002612c5b565b8151811061268d5761268d612c15565b60200101906001600160f81b03191690815f1a905350828582602081106126b6576126b6612c15565b825191901a600f169081106126cd576126cd612c15565b01602001516001600160f81b031916826126e8836002612f21565b6126f3906003612c5b565b8151811061270357612703612c15565b60200101906001600160f81b03191690815f1a905350600101612613565b509392505050565b606081515f036127515750506040805180820190915260028152615b5d60f01b602082015290565b6040805180820190915260018152605b60f81b60208201525f5b83518110156127f9578161279785838151811061278a5761278a612c15565b6020026020010151612a22565b6040516020016127a8929190612f78565b6040516020818303038152906040529150600184516127c79190612f8c565b8110156127f157816040516020016127df9190612f9f565b60405160208183030381529060405291505b60010161276b565b508060405160200161280b9190612fbc565b60408051601f198184030181529190529392505050565b60408051808201909152601081526f181899199a1a9b1b9c1cb0b131b232b360811b60208201528151606091905f9061285c906002612f21565b612867906002612c5b565b67ffffffffffffffff81111561287f5761287f612dc5565b6040519080825280601f01601f1916602001820160405280156128a9576020820181803683370190505b509050600360fc1b815f815181106128c3576128c3612c15565b60200101906001600160f81b03191690815f1a905350600f60fb1b816001815181106128f1576128f1612c15565b60200101906001600160f81b03191690815f1a9053505f5b84518110156127215782600486838151811061292757612927612c15565b016020015182516001600160f81b031990911690911c60f81c90811061294f5761294f612c15565b01602001516001600160f81b0319168261296a836002612f21565b612975906002612c5b565b8151811061298557612985612c15565b60200101906001600160f81b03191690815f1a905350828582815181106129ae576129ae612c15565b602091010151815160f89190911c600f169081106129ce576129ce612c15565b01602001516001600160f81b031916826129e9836002612f21565b6129f4906003612c5b565b81518110612a0457612a04612c15565b60200101906001600160f81b03191690815f1a905350600101612909565b604080518082018252601081526f181899199a1a9b1b9c1cb0b131b232b360811b60208201528151602a808252606082810190945284841b915f91602082018180368337019050509050600360fc1b815f81518110612a8357612a83612c15565b60200101906001600160f81b03191690815f1a905350600f60fb1b81600181518110612ab157612ab1612c15565b60200101906001600160f81b03191690815f1a9053505f5b601481101561256457836004848360148110612ae757612ae7612c15565b1a60f81b6001600160f81b031916901c60f81c60ff1681518110612b0d57612b0d612c15565b01602001516001600160f81b03191682612b28836002612f21565b612b33906002612c5b565b81518110612b4357612b43612c15565b60200101906001600160f81b03191690815f1a90535083838260148110612b6c57612b6c612c15565b825191901a600f16908110612b8357612b83612c15565b01602001516001600160f81b03191682612b9e836002612f21565b612ba9906003612c5b565b81518110612bb957612bb9612c15565b60200101906001600160f81b03191690815f1a905350600101612ac9565b5f60208284031215612be7575f80fd5b813560ff81168114612bf7575f80fd5b9392505050565b5f60208284031215612c0e575f80fd5b5035919050565b634e487b7160e01b5f52603260045260245ffd5b634e487b7160e01b5f52601160045260245ffd5b5f60ff821660ff8103612c5257612c52612c29565b60010192915050565b80820180821115612c6e57612c6e612c29565b92915050565b5f81518060208401855e5f93019283525090919050565b5f612c968285612c74565b60609390931b6001600160601b03191683525050601401919050565b8281525f612cc36020830184612c74565b949350505050565b634e487b7160e01b5f52601260045260245ffd5b5f82612ced57612ced612ccb565b500690565b75426c6f636b686173682066726f6d20626c6f636b202360501b81525f612d1c6016830185612c74565b6101d160f51b8152612d316002820185612c74565b7f202d20626173697320666f722072616e646f6d6e657373000000000000000000815260170195945050505050565b5f81518084528060208401602086015e5f602082860101526020601f19601f83011685010191505092915050565b60ff84168152606060208201525f612da96060830185612d60565b8281036040840152612dbb8185612d60565b9695505050505050565b634e487b7160e01b5f52604160045260245ffd5b7f416464726573736573207573656420666f722072616e646f6d6e6573733a200081525f612bf7601f830184612c74565b602080825282518282018190525f918401906040840190835b81811015612e4a5783516001600160a01b0316835260209384019390920191600101612e23565b509095945050505050565b7f5061636b65642064617461206f662061646472657373657320696e206865783a8152600160fd1b60208201525f612bf76021830184612c74565b7f4b656363616b323536206f66205b626c6f636b68617368202b207061636b656481526602230ba30ae9d160cd1b60208201525f612bf76027830184612c74565b7f46696e616c2072616e646f6d206f7574636f6d6520286d6f642000000000000081525f612f02601a830185612c74565b620149d160ed1b8152612f186003820185612c74565b95945050505050565b8082028115828204841417612c6e57612c6e612c29565b5f82612f4657612f46612ccb565b500490565b5f60018201612f5c57612f5c612c29565b5060010190565b5f81612f7157612f71612c29565b505f190190565b5f612cc3612f868386612c74565b84612c74565b81810381811115612c6e57612c6e612c29565b5f612faa8284612c74565b61016160f51b81526002019392505050565b5f612fc78284612c74565b605d60f81b8152600101939250505056fefeb6d77d8663b36b3393e8790540b4ebe73ade87f3146e450022712344dc7b3b9cff65d26c2c9e31c3ddf370eec9dcc1327976f78b3eebf97cfd37adc448cc35a264697066735822122010db2a562cf091f5010b8eaa541aeedf3dee23d20690295067d3a3eb5b81e8ed64736f6c634300081a0033a2646970667358221220e7aab3b394b2a4841b58fefc06fe2c0637aacfeef1e097663e6b6ab8939e8fd464736f6c634300081a0033",
			"opcodes": "PUSH1 0x80 PUSH1 0x40 MSTORE CALLVALUE DUP1 ISZERO PUSH1 0xE JUMPI PUSH0 DUP1 REVERT JUMPDEST POP PUSH2 0x3F4E DUP1 PUSH2 0x1C PUSH0 CODECOPY PUSH0 RETURN INVALID PUSH1 0x80 PUSH1 0x40 MSTORE PUSH1 0x4 CALLDATASIZE LT PUSH2 0x49 JUMPI PUSH0 CALLDATALOAD PUSH1 0xE0 SHR DUP1 PUSH4 0x117A5B90 EQ PUSH2 0x4D JUMPI DUP1 PUSH4 0x4D1975B4 EQ PUSH2 0xAF JUMPI DUP1 PUSH4 0x6650E91A EQ PUSH2 0xD2 JUMPI DUP1 PUSH4 0x6AC0B1B2 EQ PUSH2 0x10F JUMPI DUP1 PUSH4 0xDB1C45F9 EQ PUSH2 0x13A JUMPI JUMPDEST PUSH0 DUP1 REVERT JUMPDEST CALLVALUE DUP1 ISZERO PUSH2 0x58 JUMPI PUSH0 DUP1 REVERT JUMPDEST POP PUSH2 0x8B PUSH2 0x67 CALLDATASIZE PUSH1 0x4 PUSH2 0x2EB JUMP JUMPDEST PUSH0 PUSH1 0x20 DUP2 SWAP1 MSTORE SWAP1 DUP2 MSTORE PUSH1 0x40 SWAP1 KECCAK256 DUP1 SLOAD PUSH1 0x1 SWAP1 SWAP2 ADD SLOAD PUSH1 0x1 PUSH1 0x1 PUSH1 0xA0 SHL SUB SWAP1 SWAP2 AND SWAP1 DUP3 JUMP JUMPDEST PUSH1 0x40 DUP1 MLOAD PUSH1 0x1 PUSH1 0x1 PUSH1 0xA0 SHL SUB SWAP1 SWAP4 AND DUP4 MSTORE PUSH1 0x20 DUP4 ADD SWAP2 SWAP1 SWAP2 MSTORE ADD JUMPDEST PUSH1 0x40 MLOAD DUP1 SWAP2 SUB SWAP1 RETURN JUMPDEST CALLVALUE DUP1 ISZERO PUSH2 0xBA JUMPI PUSH0 DUP1 REVERT JUMPDEST POP PUSH2 0xC4 PUSH1 0x1 SLOAD DUP2 JUMP JUMPDEST PUSH1 0x40 MLOAD SWAP1 DUP2 MSTORE PUSH1 0x20 ADD PUSH2 0xA6 JUMP JUMPDEST CALLVALUE DUP1 ISZERO PUSH2 0xDD JUMPI PUSH0 DUP1 REVERT JUMPDEST POP PUSH2 0x8B PUSH2 0xEC CALLDATASIZE PUSH1 0x4 PUSH2 0x2EB JUMP JUMPDEST PUSH0 SWAP1 DUP2 MSTORE PUSH1 0x20 DUP2 SWAP1 MSTORE PUSH1 0x40 SWAP1 KECCAK256 DUP1 SLOAD PUSH1 0x1 SWAP1 SWAP2 ADD SLOAD PUSH1 0x1 PUSH1 0x1 PUSH1 0xA0 SHL SUB SWAP1 SWAP2 AND SWAP2 JUMP JUMPDEST PUSH2 0x122 PUSH2 0x11D CALLDATASIZE PUSH1 0x4 PUSH2 0x341 JUMP JUMPDEST PUSH2 0x15B JUMP JUMPDEST PUSH1 0x40 MLOAD PUSH1 0x1 PUSH1 0x1 PUSH1 0xA0 SHL SUB SWAP1 SWAP2 AND DUP2 MSTORE PUSH1 0x20 ADD PUSH2 0xA6 JUMP JUMPDEST CALLVALUE DUP1 ISZERO PUSH2 0x145 JUMPI PUSH0 DUP1 REVERT JUMPDEST POP PUSH2 0x14E PUSH2 0x234 JUMP JUMPDEST PUSH1 0x40 MLOAD PUSH2 0xA6 SWAP2 SWAP1 PUSH2 0x47A JUMP JUMPDEST PUSH0 DUP1 DUP6 DUP6 DUP6 DUP6 PUSH1 0x40 MLOAD PUSH2 0x16D SWAP1 PUSH2 0x2DE JUMP JUMPDEST PUSH2 0x17A SWAP5 SWAP4 SWAP3 SWAP2 SWAP1 PUSH2 0x493 JUMP JUMPDEST PUSH1 0x40 MLOAD DUP1 SWAP2 SUB SWAP1 PUSH0 CREATE DUP1 ISZERO DUP1 ISZERO PUSH2 0x193 JUMPI RETURNDATASIZE PUSH0 DUP1 RETURNDATACOPY RETURNDATASIZE PUSH0 REVERT JUMPDEST POP PUSH1 0x40 DUP1 MLOAD DUP1 DUP3 ADD DUP3 MSTORE PUSH1 0x1 PUSH1 0x1 PUSH1 0xA0 SHL SUB DUP4 DUP2 AND DUP1 DUP4 MSTORE TIMESTAMP PUSH1 0x20 DUP1 DUP6 ADD DUP3 DUP2 MSTORE PUSH1 0x1 DUP1 SLOAD PUSH0 SWAP1 DUP2 MSTORE DUP1 DUP5 MSTORE DUP9 SWAP1 KECCAK256 SWAP7 MLOAD DUP8 SLOAD PUSH1 0x1 PUSH1 0x1 PUSH1 0xA0 SHL SUB NOT AND SWAP7 AND SWAP6 SWAP1 SWAP6 OR DUP7 SSTORE MLOAD SWAP5 SWAP1 SWAP4 ADD SWAP4 SWAP1 SWAP4 SSTORE SWAP3 MLOAD SWAP2 DUP3 MSTORE SWAP3 SWAP4 POP SWAP1 SWAP2 PUSH32 0x306841C3FCE8498C2D9B7194B8DA4C04D03847394E237B625CE6D029B107F077 SWAP2 ADD PUSH1 0x40 MLOAD DUP1 SWAP2 SUB SWAP1 LOG2 PUSH1 0x1 DUP1 SLOAD SWAP1 PUSH0 PUSH2 0x225 DUP4 PUSH2 0x4CD JUMP JUMPDEST SWAP1 SWAP2 SSTORE POP SWAP1 SWAP7 SWAP6 POP POP POP POP POP POP JUMP JUMPDEST PUSH1 0x60 PUSH0 PUSH1 0x1 SLOAD PUSH8 0xFFFFFFFFFFFFFFFF DUP2 GT ISZERO PUSH2 0x252 JUMPI PUSH2 0x252 PUSH2 0x31D JUMP JUMPDEST PUSH1 0x40 MLOAD SWAP1 DUP1 DUP3 MSTORE DUP1 PUSH1 0x20 MUL PUSH1 0x20 ADD DUP3 ADD PUSH1 0x40 MSTORE DUP1 ISZERO PUSH2 0x27B JUMPI DUP2 PUSH1 0x20 ADD PUSH1 0x20 DUP3 MUL DUP1 CALLDATASIZE DUP4 CALLDATACOPY ADD SWAP1 POP JUMPDEST POP SWAP1 POP PUSH0 JUMPDEST PUSH1 0x1 SLOAD DUP2 LT ISZERO PUSH2 0x2D8 JUMPI PUSH0 DUP2 DUP2 MSTORE PUSH1 0x20 DUP2 SWAP1 MSTORE PUSH1 0x40 SWAP1 KECCAK256 SLOAD DUP3 MLOAD PUSH1 0x1 PUSH1 0x1 PUSH1 0xA0 SHL SUB SWAP1 SWAP2 AND SWAP1 DUP4 SWAP1 DUP4 SWAP1 DUP2 LT PUSH2 0x2B8 JUMPI PUSH2 0x2B8 PUSH2 0x4F1 JUMP JUMPDEST PUSH1 0x1 PUSH1 0x1 PUSH1 0xA0 SHL SUB SWAP1 SWAP3 AND PUSH1 0x20 SWAP3 DUP4 MUL SWAP2 SWAP1 SWAP2 ADD SWAP1 SWAP2 ADD MSTORE PUSH1 0x1 ADD PUSH2 0x280 JUMP JUMPDEST POP SWAP2 SWAP1 POP JUMP JUMPDEST PUSH2 0x3A13 DUP1 PUSH2 0x506 DUP4 CODECOPY ADD SWAP1 JUMP JUMPDEST PUSH0 PUSH1 0x20 DUP3 DUP5 SUB SLT ISZERO PUSH2 0x2FB JUMPI PUSH0 DUP1 REVERT JUMPDEST POP CALLDATALOAD SWAP2 SWAP1 POP JUMP JUMPDEST DUP1 CALLDATALOAD PUSH1 0x1 PUSH1 0x1 PUSH1 0xA0 SHL SUB DUP2 AND DUP2 EQ PUSH2 0x318 JUMPI PUSH0 DUP1 REVERT JUMPDEST SWAP2 SWAP1 POP JUMP JUMPDEST PUSH4 0x4E487B71 PUSH1 0xE0 SHL PUSH0 MSTORE PUSH1 0x41 PUSH1 0x4 MSTORE PUSH1 0x24 PUSH0 REVERT JUMPDEST DUP1 CALLDATALOAD PUSH1 0xFF DUP2 AND DUP2 EQ PUSH2 0x318 JUMPI PUSH0 DUP1 REVERT JUMPDEST PUSH0 DUP1 PUSH0 DUP1 PUSH1 0x80 DUP6 DUP8 SUB SLT ISZERO PUSH2 0x354 JUMPI PUSH0 DUP1 REVERT JUMPDEST PUSH2 0x35D DUP6 PUSH2 0x302 JUMP JUMPDEST SWAP4 POP PUSH1 0x20 DUP6 ADD CALLDATALOAD SWAP3 POP PUSH1 0x40 DUP6 ADD CALLDATALOAD PUSH8 0xFFFFFFFFFFFFFFFF DUP2 GT ISZERO PUSH2 0x37F JUMPI PUSH0 DUP1 REVERT JUMPDEST DUP6 ADD PUSH1 0x1F DUP2 ADD DUP8 SGT PUSH2 0x38F JUMPI PUSH0 DUP1 REVERT JUMPDEST DUP1 CALLDATALOAD PUSH8 0xFFFFFFFFFFFFFFFF DUP2 GT ISZERO PUSH2 0x3A9 JUMPI PUSH2 0x3A9 PUSH2 0x31D JUMP JUMPDEST DUP1 PUSH1 0x5 SHL PUSH1 0x40 MLOAD PUSH1 0x1F NOT PUSH1 0x3F DUP4 ADD AND DUP2 ADD DUP2 DUP2 LT PUSH8 0xFFFFFFFFFFFFFFFF DUP3 GT OR ISZERO PUSH2 0x3D6 JUMPI PUSH2 0x3D6 PUSH2 0x31D JUMP JUMPDEST PUSH1 0x40 MSTORE SWAP2 DUP3 MSTORE PUSH1 0x20 DUP2 DUP5 ADD DUP2 ADD SWAP3 SWAP1 DUP2 ADD DUP11 DUP5 GT ISZERO PUSH2 0x3F3 JUMPI PUSH0 DUP1 REVERT JUMPDEST PUSH1 0x20 DUP6 ADD SWAP5 POP JUMPDEST DUP4 DUP6 LT ISZERO PUSH2 0x419 JUMPI PUSH2 0x40B DUP6 PUSH2 0x302 JUMP JUMPDEST DUP2 MSTORE PUSH1 0x20 SWAP5 DUP6 ADD SWAP5 ADD PUSH2 0x3FA JUMP JUMPDEST POP SWAP5 POP PUSH2 0x42C SWAP3 POP POP POP PUSH1 0x60 DUP7 ADD PUSH2 0x331 JUMP JUMPDEST SWAP1 POP SWAP3 SWAP6 SWAP2 SWAP5 POP SWAP3 POP JUMP JUMPDEST PUSH0 DUP2 MLOAD DUP1 DUP5 MSTORE PUSH1 0x20 DUP5 ADD SWAP4 POP PUSH1 0x20 DUP4 ADD PUSH0 JUMPDEST DUP3 DUP2 LT ISZERO PUSH2 0x470 JUMPI DUP2 MLOAD PUSH1 0x1 PUSH1 0x1 PUSH1 0xA0 SHL SUB AND DUP7 MSTORE PUSH1 0x20 SWAP6 DUP7 ADD SWAP6 SWAP1 SWAP2 ADD SWAP1 PUSH1 0x1 ADD PUSH2 0x449 JUMP JUMPDEST POP SWAP4 SWAP5 SWAP4 POP POP POP POP JUMP JUMPDEST PUSH1 0x20 DUP2 MSTORE PUSH0 PUSH2 0x48C PUSH1 0x20 DUP4 ADD DUP5 PUSH2 0x437 JUMP JUMPDEST SWAP4 SWAP3 POP POP POP JUMP JUMPDEST PUSH1 0x1 DUP1 PUSH1 0xA0 SHL SUB DUP6 AND DUP2 MSTORE DUP4 PUSH1 0x20 DUP3 ADD MSTORE PUSH1 0x80 PUSH1 0x40 DUP3 ADD MSTORE PUSH0 PUSH2 0x4B9 PUSH1 0x80 DUP4 ADD DUP6 PUSH2 0x437 JUMP JUMPDEST SWAP1 POP PUSH1 0xFF DUP4 AND PUSH1 0x60 DUP4 ADD MSTORE SWAP6 SWAP5 POP POP POP POP POP JUMP JUMPDEST PUSH0 PUSH1 0x1 DUP3 ADD PUSH2 0x4EA JUMPI PUSH4 0x4E487B71 PUSH1 0xE0 SHL PUSH0 MSTORE PUSH1 0x11 PUSH1 0x4 MSTORE PUSH1 0x24 PUSH0 REVERT JUMPDEST POP PUSH1 0x1 ADD SWAP1 JUMP JUMPDEST PUSH4 0x4E487B71 PUSH1 0xE0 SHL PUSH0 MSTORE PUSH1 0x32 PUSH1 0x4 MSTORE PUSH1 0x24 PUSH0 REVERT INVALID PUSH2 0x2C0 PUSH1 0x40 MSTORE PUSH1 0x1 PUSH1 0x80 SWAP1 DUP2 MSTORE PUSH1 0x2 PUSH1 0xA0 MSTORE PUSH1 0x3 PUSH1 0xC0 MSTORE PUSH1 0x4 PUSH1 0xE0 MSTORE PUSH1 0x5 PUSH2 0x100 MSTORE PUSH1 0x6 PUSH2 0x120 MSTORE PUSH1 0x7 PUSH2 0x140 MSTORE PUSH1 0x8 PUSH2 0x160 MSTORE PUSH1 0x9 PUSH2 0x180 MSTORE PUSH1 0xA PUSH2 0x1A0 MSTORE PUSH1 0xB PUSH2 0x1C0 MSTORE PUSH1 0xC PUSH2 0x1E0 MSTORE PUSH1 0xD PUSH2 0x200 MSTORE PUSH1 0xE PUSH2 0x220 MSTORE PUSH1 0xF PUSH2 0x240 MSTORE PUSH1 0x10 PUSH2 0x260 MSTORE PUSH1 0x11 PUSH2 0x280 MSTORE PUSH1 0x12 PUSH2 0x2A0 DUP2 SWAP1 MSTORE PUSH2 0x7C SWAP2 PUSH0 SWAP2 PUSH2 0x72A JUMP JUMPDEST POP PUSH1 0x40 DUP1 MLOAD PUSH2 0x240 DUP2 ADD DUP3 MSTORE PUSH1 0x13 DUP2 MSTORE PUSH1 0x14 PUSH1 0x20 DUP1 DUP4 ADD SWAP2 SWAP1 SWAP2 MSTORE PUSH1 0x15 SWAP3 DUP3 ADD SWAP3 SWAP1 SWAP3 MSTORE PUSH1 0x16 PUSH1 0x60 DUP3 ADD MSTORE PUSH1 0x17 PUSH1 0x80 DUP3 ADD MSTORE PUSH1 0x18 PUSH1 0xA0 DUP3 ADD MSTORE PUSH1 0x19 PUSH1 0xC0 DUP3 ADD MSTORE PUSH1 0x1A PUSH1 0xE0 DUP3 ADD MSTORE PUSH1 0x1B PUSH2 0x100 DUP3 ADD MSTORE PUSH1 0x1C PUSH2 0x120 DUP3 ADD MSTORE PUSH1 0x1D PUSH2 0x140 DUP3 ADD MSTORE PUSH1 0x1E PUSH2 0x160 DUP3 ADD MSTORE PUSH1 0x1F PUSH2 0x180 DUP3 ADD MSTORE PUSH2 0x1A0 DUP2 ADD SWAP2 SWAP1 SWAP2 MSTORE PUSH1 0x21 PUSH2 0x1C0 DUP3 ADD MSTORE PUSH1 0x22 PUSH2 0x1E0 DUP3 ADD MSTORE PUSH1 0x23 PUSH2 0x200 DUP3 ADD MSTORE PUSH1 0x24 PUSH2 0x220 DUP3 ADD MSTORE PUSH2 0x122 SWAP1 PUSH1 0x1 SWAP1 PUSH1 0x12 PUSH2 0x72A JUMP JUMPDEST POP PUSH1 0x40 DUP1 MLOAD PUSH2 0x240 DUP2 ADD DUP3 MSTORE PUSH1 0x1 DUP2 MSTORE PUSH1 0x3 PUSH1 0x20 DUP1 DUP4 ADD SWAP2 SWAP1 SWAP2 MSTORE PUSH1 0x5 SWAP3 DUP3 ADD SWAP3 SWAP1 SWAP3 MSTORE PUSH1 0x7 PUSH1 0x60 DUP3 ADD MSTORE PUSH1 0x9 PUSH1 0x80 DUP3 ADD MSTORE PUSH1 0xC PUSH1 0xA0 DUP3 ADD MSTORE PUSH1 0xE PUSH1 0xC0 DUP3 ADD MSTORE PUSH1 0x10 PUSH1 0xE0 DUP3 ADD MSTORE PUSH1 0x12 PUSH2 0x100 DUP3 ADD DUP2 SWAP1 MSTORE PUSH1 0x13 PUSH2 0x120 DUP4 ADD MSTORE PUSH1 0x15 PUSH2 0x140 DUP4 ADD MSTORE PUSH1 0x17 PUSH2 0x160 DUP4 ADD MSTORE PUSH1 0x19 PUSH2 0x180 DUP4 ADD MSTORE PUSH1 0x1B PUSH2 0x1A0 DUP4 ADD MSTORE PUSH1 0x1E PUSH2 0x1C0 DUP4 ADD MSTORE PUSH2 0x1E0 DUP3 ADD SWAP3 SWAP1 SWAP3 MSTORE PUSH1 0x22 PUSH2 0x200 DUP3 ADD MSTORE PUSH1 0x24 PUSH2 0x220 DUP3 ADD MSTORE PUSH2 0x1C9 SWAP2 PUSH1 0x2 SWAP2 SWAP1 PUSH2 0x72A JUMP JUMPDEST POP PUSH1 0x40 DUP1 MLOAD PUSH2 0x240 DUP2 ADD DUP3 MSTORE PUSH1 0x2 DUP2 MSTORE PUSH1 0x4 PUSH1 0x20 DUP3 ADD MSTORE PUSH1 0x6 SWAP2 DUP2 ADD SWAP2 SWAP1 SWAP2 MSTORE PUSH1 0x8 PUSH1 0x60 DUP3 ADD MSTORE PUSH1 0xA PUSH1 0x80 DUP3 ADD MSTORE PUSH1 0xB PUSH1 0xA0 DUP3 ADD MSTORE PUSH1 0xD PUSH1 0xC0 DUP3 ADD MSTORE PUSH1 0xF PUSH1 0xE0 DUP3 ADD MSTORE PUSH1 0x11 PUSH2 0x100 DUP3 ADD MSTORE PUSH1 0x14 PUSH2 0x120 DUP3 ADD MSTORE PUSH1 0x16 PUSH2 0x140 DUP3 ADD MSTORE PUSH1 0x18 PUSH2 0x160 DUP3 ADD MSTORE PUSH1 0x1A PUSH2 0x180 DUP3 ADD MSTORE PUSH1 0x1C PUSH2 0x1A0 DUP3 ADD MSTORE PUSH1 0x1D PUSH2 0x1C0 DUP3 ADD MSTORE PUSH1 0x1F PUSH2 0x1E0 DUP3 ADD MSTORE PUSH1 0x21 PUSH2 0x200 DUP3 ADD MSTORE PUSH1 0x23 PUSH2 0x220 DUP3 ADD MSTORE PUSH2 0x26A SWAP1 PUSH1 0x3 SWAP1 PUSH1 0x12 PUSH2 0x72A JUMP JUMPDEST POP PUSH1 0x40 DUP1 MLOAD PUSH2 0x240 DUP2 ADD DUP3 MSTORE PUSH1 0x2 DUP2 MSTORE PUSH1 0x4 PUSH1 0x20 DUP1 DUP4 ADD DUP3 SWAP1 MSTORE PUSH1 0x6 SWAP4 DUP4 ADD SWAP4 SWAP1 SWAP4 MSTORE PUSH1 0x8 PUSH1 0x60 DUP4 ADD MSTORE PUSH1 0xA PUSH1 0x80 DUP4 ADD MSTORE PUSH1 0xC PUSH1 0xA0 DUP4 ADD MSTORE PUSH1 0xE PUSH1 0xC0 DUP4 ADD MSTORE PUSH1 0x10 PUSH1 0xE0 DUP4 ADD MSTORE PUSH1 0x12 PUSH2 0x100 DUP4 ADD DUP2 SWAP1 MSTORE PUSH1 0x14 PUSH2 0x120 DUP5 ADD MSTORE PUSH1 0x16 PUSH2 0x140 DUP5 ADD MSTORE PUSH1 0x18 PUSH2 0x160 DUP5 ADD MSTORE PUSH1 0x1A PUSH2 0x180 DUP5 ADD MSTORE PUSH1 0x1C PUSH2 0x1A0 DUP5 ADD MSTORE PUSH1 0x1E PUSH2 0x1C0 DUP5 ADD MSTORE PUSH2 0x1E0 DUP4 ADD SWAP4 SWAP1 SWAP4 MSTORE PUSH1 0x22 PUSH2 0x200 DUP4 ADD MSTORE PUSH1 0x24 PUSH2 0x220 DUP4 ADD MSTORE PUSH2 0x30F SWAP3 SWAP1 SWAP2 SWAP1 PUSH2 0x72A JUMP JUMPDEST POP PUSH1 0x40 DUP1 MLOAD PUSH2 0x240 DUP2 ADD DUP3 MSTORE PUSH1 0x1 DUP2 MSTORE PUSH1 0x3 PUSH1 0x20 DUP3 ADD MSTORE PUSH1 0x5 SWAP2 DUP2 ADD DUP3 SWAP1 MSTORE PUSH1 0x7 PUSH1 0x60 DUP3 ADD MSTORE PUSH1 0x9 PUSH1 0x80 DUP3 ADD MSTORE PUSH1 0xB PUSH1 0xA0 DUP3 ADD MSTORE PUSH1 0xD PUSH1 0xC0 DUP3 ADD MSTORE PUSH1 0xF PUSH1 0xE0 DUP3 ADD MSTORE PUSH1 0x11 PUSH2 0x100 DUP3 ADD MSTORE PUSH1 0x13 PUSH2 0x120 DUP3 ADD MSTORE PUSH1 0x15 PUSH2 0x140 DUP3 ADD MSTORE PUSH1 0x17 PUSH2 0x160 DUP3 ADD MSTORE PUSH1 0x19 PUSH2 0x180 DUP3 ADD MSTORE PUSH1 0x1B PUSH2 0x1A0 DUP3 ADD MSTORE PUSH1 0x1D PUSH2 0x1C0 DUP3 ADD MSTORE PUSH1 0x1F PUSH2 0x1E0 DUP3 ADD MSTORE PUSH1 0x21 PUSH2 0x200 DUP3 ADD MSTORE PUSH1 0x23 PUSH2 0x220 DUP3 ADD MSTORE PUSH2 0x3AD SWAP2 SWAP1 PUSH1 0x12 PUSH2 0x72A JUMP JUMPDEST POP PUSH1 0x40 DUP1 MLOAD PUSH2 0x180 DUP2 ADD DUP3 MSTORE PUSH1 0x1 DUP2 MSTORE PUSH1 0x4 PUSH1 0x20 DUP3 ADD MSTORE PUSH1 0x7 SWAP2 DUP2 ADD SWAP2 SWAP1 SWAP2 MSTORE PUSH1 0xA PUSH1 0x60 DUP3 ADD MSTORE PUSH1 0xD PUSH1 0x80 DUP3 ADD MSTORE PUSH1 0x10 PUSH1 0xA0 DUP3 ADD MSTORE PUSH1 0x13 PUSH1 0xC0 DUP3 ADD MSTORE PUSH1 0x16 PUSH1 0xE0 DUP3 ADD MSTORE PUSH1 0x19 PUSH2 0x100 DUP3 ADD MSTORE PUSH1 0x1C PUSH2 0x120 DUP3 ADD MSTORE PUSH1 0x1F PUSH2 0x140 DUP3 ADD MSTORE PUSH1 0x22 PUSH2 0x160 DUP3 ADD MSTORE PUSH2 0x41E SWAP1 PUSH1 0x6 SWAP1 PUSH1 0xC PUSH2 0x72A JUMP JUMPDEST POP PUSH1 0x40 DUP1 MLOAD PUSH2 0x180 DUP2 ADD DUP3 MSTORE PUSH1 0x2 DUP2 MSTORE PUSH1 0x5 PUSH1 0x20 DUP1 DUP4 ADD SWAP2 SWAP1 SWAP2 MSTORE PUSH1 0x8 SWAP3 DUP3 ADD SWAP3 SWAP1 SWAP3 MSTORE PUSH1 0xB PUSH1 0x60 DUP3 ADD MSTORE PUSH1 0xE PUSH1 0x80 DUP3 ADD MSTORE PUSH1 0x11 PUSH1 0xA0 DUP3 ADD MSTORE PUSH1 0x14 PUSH1 0xC0 DUP3 ADD MSTORE PUSH1 0x17 PUSH1 0xE0 DUP3 ADD MSTORE PUSH1 0x1A PUSH2 0x100 DUP3 ADD MSTORE PUSH1 0x1D PUSH2 0x120 DUP3 ADD MSTORE PUSH2 0x140 DUP2 ADD SWAP2 SWAP1 SWAP2 MSTORE PUSH1 0x23 PUSH2 0x160 DUP3 ADD MSTORE PUSH2 0x494 SWAP1 PUSH1 0x7 SWAP1 PUSH1 0xC PUSH2 0x72A JUMP JUMPDEST POP PUSH1 0x40 DUP1 MLOAD PUSH2 0x180 DUP2 ADD DUP3 MSTORE PUSH1 0x3 DUP2 MSTORE PUSH1 0x6 PUSH1 0x20 DUP3 ADD MSTORE PUSH1 0x9 SWAP2 DUP2 ADD SWAP2 SWAP1 SWAP2 MSTORE PUSH1 0xC PUSH1 0x60 DUP3 ADD DUP2 SWAP1 MSTORE PUSH1 0xF PUSH1 0x80 DUP4 ADD MSTORE PUSH1 0x12 PUSH1 0xA0 DUP4 ADD MSTORE PUSH1 0x15 PUSH1 0xC0 DUP4 ADD MSTORE PUSH1 0x18 PUSH1 0xE0 DUP4 ADD MSTORE PUSH1 0x1B PUSH2 0x100 DUP4 ADD MSTORE PUSH1 0x1E PUSH2 0x120 DUP4 ADD MSTORE PUSH1 0x21 PUSH2 0x140 DUP4 ADD MSTORE PUSH1 0x24 PUSH2 0x160 DUP4 ADD MSTORE PUSH2 0x505 SWAP2 PUSH1 0x8 SWAP2 PUSH2 0x72A JUMP JUMPDEST POP PUSH1 0x40 DUP1 MLOAD PUSH2 0x180 DUP2 ADD DUP3 MSTORE PUSH1 0x1 DUP2 MSTORE PUSH1 0x2 PUSH1 0x20 DUP3 ADD MSTORE PUSH1 0x3 SWAP2 DUP2 ADD SWAP2 SWAP1 SWAP2 MSTORE PUSH1 0x4 PUSH1 0x60 DUP3 ADD MSTORE PUSH1 0x5 PUSH1 0x80 DUP3 ADD MSTORE PUSH1 0x6 PUSH1 0xA0 DUP3 ADD MSTORE PUSH1 0x7 PUSH1 0xC0 DUP3 ADD MSTORE PUSH1 0x8 PUSH1 0xE0 DUP3 ADD MSTORE PUSH1 0x9 PUSH2 0x100 DUP3 ADD DUP2 SWAP1 MSTORE PUSH1 0xA PUSH2 0x120 DUP4 ADD MSTORE PUSH1 0xB PUSH2 0x140 DUP4 ADD MSTORE PUSH1 0xC PUSH2 0x160 DUP4 ADD DUP2 SWAP1 MSTORE PUSH2 0x576 SWAP3 SWAP1 PUSH2 0x72A JUMP JUMPDEST POP PUSH1 0x40 DUP1 MLOAD PUSH2 0x180 DUP2 ADD DUP3 MSTORE PUSH1 0xD DUP2 MSTORE PUSH1 0xE PUSH1 0x20 DUP3 ADD MSTORE PUSH1 0xF SWAP2 DUP2 ADD SWAP2 SWAP1 SWAP2 MSTORE PUSH1 0x10 PUSH1 0x60 DUP3 ADD MSTORE PUSH1 0x11 PUSH1 0x80 DUP3 ADD MSTORE PUSH1 0x12 PUSH1 0xA0 DUP3 ADD MSTORE PUSH1 0x13 PUSH1 0xC0 DUP3 ADD MSTORE PUSH1 0x14 PUSH1 0xE0 DUP3 ADD MSTORE PUSH1 0x15 PUSH2 0x100 DUP3 ADD MSTORE PUSH1 0x16 PUSH2 0x120 DUP3 ADD MSTORE PUSH1 0x17 PUSH2 0x140 DUP3 ADD MSTORE PUSH1 0x18 PUSH2 0x160 DUP3 ADD MSTORE PUSH2 0x5E7 SWAP1 PUSH1 0xA SWAP1 PUSH1 0xC PUSH2 0x72A JUMP JUMPDEST POP PUSH1 0x40 DUP1 MLOAD PUSH2 0x180 DUP2 ADD DUP3 MSTORE PUSH1 0x19 DUP2 MSTORE PUSH1 0x1A PUSH1 0x20 DUP1 DUP4 ADD SWAP2 SWAP1 SWAP2 MSTORE PUSH1 0x1B SWAP3 DUP3 ADD SWAP3 SWAP1 SWAP3 MSTORE PUSH1 0x1C PUSH1 0x60 DUP3 ADD MSTORE PUSH1 0x1D PUSH1 0x80 DUP3 ADD MSTORE PUSH1 0x1E PUSH1 0xA0 DUP3 ADD MSTORE PUSH1 0x1F PUSH1 0xC0 DUP3 ADD MSTORE PUSH1 0xE0 DUP2 ADD SWAP2 SWAP1 SWAP2 MSTORE PUSH1 0x21 PUSH2 0x100 DUP3 ADD MSTORE PUSH1 0x22 PUSH2 0x120 DUP3 ADD MSTORE PUSH1 0x23 PUSH2 0x140 DUP3 ADD MSTORE PUSH1 0x24 PUSH2 0x160 DUP3 ADD MSTORE PUSH2 0x65D SWAP1 PUSH1 0xB SWAP1 PUSH1 0xC PUSH2 0x72A JUMP JUMPDEST POP CALLVALUE DUP1 ISZERO PUSH2 0x669 JUMPI PUSH0 DUP1 REVERT JUMPDEST POP PUSH1 0x40 MLOAD PUSH2 0x3A13 CODESIZE SUB DUP1 PUSH2 0x3A13 DUP4 CODECOPY DUP2 ADD PUSH1 0x40 DUP2 SWAP1 MSTORE PUSH2 0x688 SWAP2 PUSH2 0x860 JUMP JUMPDEST PUSH1 0xC DUP1 SLOAD PUSH1 0x1 PUSH1 0x1 PUSH1 0xA0 SHL SUB NOT AND PUSH1 0x1 PUSH1 0x1 PUSH1 0xA0 SHL SUB DUP7 AND OR SWAP1 SSTORE PUSH1 0xD DUP4 SWAP1 SSTORE PUSH1 0xE DUP1 SLOAD PUSH1 0xFF NOT AND SWAP1 SSTORE DUP2 MLOAD PUSH2 0x6C5 SWAP1 PUSH1 0x12 SWAP1 PUSH1 0x20 DUP6 ADD SWAP1 PUSH2 0x7BA JUMP JUMPDEST POP PUSH1 0x11 DUP1 SLOAD PUSH2 0xFF00 NOT AND PUSH2 0x100 PUSH1 0xFF DUP5 AND MUL OR SWAP1 SSTORE PUSH1 0x40 MLOAD PUSH1 0x1 PUSH1 0x1 PUSH1 0xA0 SHL SUB DUP6 AND SWAP1 PUSH32 0x7BC06AD6AF97E4997115D8B8EC4270105092A2DC99A8BA73A35DE86C49AB8D9B SWAP1 PUSH2 0x719 SWAP1 DUP7 SWAP1 DUP7 SWAP1 DUP7 SWAP1 PUSH2 0x956 JUMP JUMPDEST PUSH1 0x40 MLOAD DUP1 SWAP2 SUB SWAP1 LOG2 POP POP POP POP PUSH2 0x9B8 JUMP JUMPDEST PUSH1 0x1 DUP4 ADD SWAP2 DUP4 SWAP1 DUP3 ISZERO PUSH2 0x7AA JUMPI SWAP2 PUSH1 0x20 MUL DUP3 ADD PUSH0 JUMPDEST DUP4 DUP3 GT ISZERO PUSH2 0x77C JUMPI DUP4 MLOAD DUP4 DUP3 PUSH2 0x100 EXP DUP2 SLOAD DUP2 PUSH1 0xFF MUL NOT AND SWAP1 DUP4 PUSH1 0xFF AND MUL OR SWAP1 SSTORE POP SWAP3 PUSH1 0x20 ADD SWAP3 PUSH1 0x1 ADD PUSH1 0x20 DUP2 PUSH0 ADD DIV SWAP3 DUP4 ADD SWAP3 PUSH1 0x1 SUB MUL PUSH2 0x73F JUMP JUMPDEST DUP1 ISZERO PUSH2 0x7A8 JUMPI DUP3 DUP2 PUSH2 0x100 EXP DUP2 SLOAD SWAP1 PUSH1 0xFF MUL NOT AND SWAP1 SSTORE PUSH1 0x1 ADD PUSH1 0x20 DUP2 PUSH0 ADD DIV SWAP3 DUP4 ADD SWAP3 PUSH1 0x1 SUB MUL PUSH2 0x77C JUMP JUMPDEST POP JUMPDEST POP PUSH2 0x7B6 SWAP3 SWAP2 POP PUSH2 0x80D JUMP JUMPDEST POP SWAP1 JUMP JUMPDEST DUP3 DUP1 SLOAD DUP3 DUP3 SSTORE SWAP1 PUSH0 MSTORE PUSH1 0x20 PUSH0 KECCAK256 SWAP1 DUP2 ADD SWAP3 DUP3 ISZERO PUSH2 0x7AA JUMPI SWAP2 PUSH1 0x20 MUL DUP3 ADD JUMPDEST DUP3 DUP2 GT ISZERO PUSH2 0x7AA JUMPI DUP3 MLOAD DUP3 SLOAD PUSH1 0x1 PUSH1 0x1 PUSH1 0xA0 SHL SUB NOT AND PUSH1 0x1 PUSH1 0x1 PUSH1 0xA0 SHL SUB SWAP1 SWAP2 AND OR DUP3 SSTORE PUSH1 0x20 SWAP1 SWAP3 ADD SWAP2 PUSH1 0x1 SWAP1 SWAP2 ADD SWAP1 PUSH2 0x7D8 JUMP JUMPDEST JUMPDEST DUP1 DUP3 GT ISZERO PUSH2 0x7B6 JUMPI PUSH0 DUP2 SSTORE PUSH1 0x1 ADD PUSH2 0x80E JUMP JUMPDEST DUP1 MLOAD PUSH1 0x1 PUSH1 0x1 PUSH1 0xA0 SHL SUB DUP2 AND DUP2 EQ PUSH2 0x837 JUMPI PUSH0 DUP1 REVERT JUMPDEST SWAP2 SWAP1 POP JUMP JUMPDEST PUSH4 0x4E487B71 PUSH1 0xE0 SHL PUSH0 MSTORE PUSH1 0x41 PUSH1 0x4 MSTORE PUSH1 0x24 PUSH0 REVERT JUMPDEST DUP1 MLOAD PUSH1 0xFF DUP2 AND DUP2 EQ PUSH2 0x837 JUMPI PUSH0 DUP1 REVERT JUMPDEST PUSH0 DUP1 PUSH0 DUP1 PUSH1 0x80 DUP6 DUP8 SUB SLT ISZERO PUSH2 0x873 JUMPI PUSH0 DUP1 REVERT JUMPDEST PUSH2 0x87C DUP6 PUSH2 0x821 JUMP JUMPDEST PUSH1 0x20 DUP7 ADD MLOAD PUSH1 0x40 DUP8 ADD MLOAD SWAP2 SWAP6 POP SWAP4 POP PUSH1 0x1 PUSH1 0x1 PUSH1 0x40 SHL SUB DUP2 GT ISZERO PUSH2 0x89E JUMPI PUSH0 DUP1 REVERT JUMPDEST DUP6 ADD PUSH1 0x1F DUP2 ADD DUP8 SGT PUSH2 0x8AE JUMPI PUSH0 DUP1 REVERT JUMPDEST DUP1 MLOAD PUSH1 0x1 PUSH1 0x1 PUSH1 0x40 SHL SUB DUP2 GT ISZERO PUSH2 0x8C7 JUMPI PUSH2 0x8C7 PUSH2 0x83C JUMP JUMPDEST PUSH1 0x40 MLOAD PUSH1 0x5 DUP3 SWAP1 SHL SWAP1 PUSH1 0x3F DUP3 ADD PUSH1 0x1F NOT AND DUP2 ADD PUSH1 0x1 PUSH1 0x1 PUSH1 0x40 SHL SUB DUP2 GT DUP3 DUP3 LT OR ISZERO PUSH2 0x8F5 JUMPI PUSH2 0x8F5 PUSH2 0x83C JUMP JUMPDEST PUSH1 0x40 MSTORE SWAP2 DUP3 MSTORE PUSH1 0x20 DUP2 DUP5 ADD DUP2 ADD SWAP3 SWAP1 DUP2 ADD DUP11 DUP5 GT ISZERO PUSH2 0x912 JUMPI PUSH0 DUP1 REVERT JUMPDEST PUSH1 0x20 DUP6 ADD SWAP5 POP JUMPDEST DUP4 DUP6 LT ISZERO PUSH2 0x938 JUMPI PUSH2 0x92A DUP6 PUSH2 0x821 JUMP JUMPDEST DUP2 MSTORE PUSH1 0x20 SWAP5 DUP6 ADD SWAP5 ADD PUSH2 0x919 JUMP JUMPDEST POP SWAP5 POP PUSH2 0x94B SWAP3 POP POP POP PUSH1 0x60 DUP7 ADD PUSH2 0x850 JUMP JUMPDEST SWAP1 POP SWAP3 SWAP6 SWAP2 SWAP5 POP SWAP3 POP JUMP JUMPDEST PUSH0 PUSH1 0x60 DUP3 ADD DUP6 DUP4 MSTORE PUSH1 0x60 PUSH1 0x20 DUP5 ADD MSTORE DUP1 DUP6 MLOAD DUP1 DUP4 MSTORE PUSH1 0x80 DUP6 ADD SWAP2 POP PUSH1 0x20 DUP8 ADD SWAP3 POP PUSH0 JUMPDEST DUP2 DUP2 LT ISZERO PUSH2 0x9A0 JUMPI DUP4 MLOAD PUSH1 0x1 PUSH1 0x1 PUSH1 0xA0 SHL SUB AND DUP4 MSTORE PUSH1 0x20 SWAP4 DUP5 ADD SWAP4 SWAP1 SWAP3 ADD SWAP2 PUSH1 0x1 ADD PUSH2 0x979 JUMP JUMPDEST POP POP DUP1 SWAP3 POP POP POP PUSH1 0xFF DUP4 AND PUSH1 0x40 DUP4 ADD MSTORE SWAP5 SWAP4 POP POP POP POP JUMP JUMPDEST PUSH2 0x304E DUP1 PUSH2 0x9C5 PUSH0 CODECOPY PUSH0 RETURN INVALID PUSH1 0x80 PUSH1 0x40 MSTORE PUSH1 0x4 CALLDATASIZE LT PUSH2 0x25F JUMPI PUSH0 CALLDATALOAD PUSH1 0xE0 SHR DUP1 PUSH4 0x6F91A66F GT PUSH2 0x13F JUMPI DUP1 PUSH4 0xC201715C GT PUSH2 0xB3 JUMPI DUP1 PUSH4 0xDB7F11DB GT PUSH2 0x78 JUMPI DUP1 PUSH4 0xDB7F11DB EQ PUSH2 0x6D1 JUMPI DUP1 PUSH4 0xE4CA650D EQ PUSH2 0x6F0 JUMPI DUP1 PUSH4 0xE71F766E EQ PUSH2 0x70F JUMPI DUP1 PUSH4 0xE8E0FCA5 EQ PUSH2 0x72E JUMPI DUP1 PUSH4 0xF437BC59 EQ PUSH2 0x74D JUMPI DUP1 PUSH4 0xFE5385AF EQ PUSH2 0x76C JUMPI PUSH0 DUP1 REVERT JUMPDEST DUP1 PUSH4 0xC201715C EQ PUSH2 0x658 JUMPI DUP1 PUSH4 0xD0E30DB0 EQ PUSH2 0x677 JUMPI DUP1 PUSH4 0xD1EDB09E EQ PUSH2 0x67F JUMPI DUP1 PUSH4 0xD4F7A285 EQ PUSH2 0x693 JUMPI DUP1 PUSH4 0xD9CC76AD EQ PUSH2 0x6B2 JUMPI PUSH0 DUP1 REVERT JUMPDEST DUP1 PUSH4 0x9619367D GT PUSH2 0x104 JUMPI DUP1 PUSH4 0x9619367D EQ PUSH2 0x5A8 JUMPI DUP1 PUSH4 0x972B533D EQ PUSH2 0x5BD JUMPI DUP1 PUSH4 0xA38BD74C EQ PUSH2 0x5DC JUMPI DUP1 PUSH4 0xA6EDE84A EQ PUSH2 0x5FB JUMPI DUP1 PUSH4 0xB2513399 EQ PUSH2 0x61A JUMPI DUP1 PUSH4 0xBE47AE13 EQ PUSH2 0x639 JUMPI PUSH0 DUP1 REVERT JUMPDEST DUP1 PUSH4 0x6F91A66F EQ PUSH2 0x537 JUMPI DUP1 PUSH4 0x87171EB7 EQ PUSH2 0x54C JUMPI DUP1 PUSH4 0x8C7E347A EQ PUSH2 0x561 JUMPI DUP1 PUSH4 0x8E4BF820 EQ PUSH2 0x575 JUMPI DUP1 PUSH4 0x8FFFEBCA EQ PUSH2 0x589 JUMPI PUSH0 DUP1 REVERT JUMPDEST DUP1 PUSH4 0x2E5B2168 GT PUSH2 0x1D6 JUMPI DUP1 PUSH4 0x43046844 GT PUSH2 0x19B JUMPI DUP1 PUSH4 0x43046844 EQ PUSH2 0x497 JUMPI DUP1 PUSH4 0x4760FFF3 EQ PUSH2 0x4AA JUMPI DUP1 PUSH4 0x4D7D93FE EQ PUSH2 0x4C9 JUMPI DUP1 PUSH4 0x4E69D560 EQ PUSH2 0x4E8 JUMPI DUP1 PUSH4 0x5DCAB1D8 EQ PUSH2 0x4FF JUMPI DUP1 PUSH4 0x65372147 EQ PUSH2 0x51E JUMPI PUSH0 DUP1 REVERT JUMPDEST DUP1 PUSH4 0x2E5B2168 EQ PUSH2 0x3EC JUMPI DUP1 PUSH4 0x2ECA4C28 EQ PUSH2 0x40F JUMPI DUP1 PUSH4 0x322F8920 EQ PUSH2 0x42D JUMPI DUP1 PUSH4 0x35AA2E44 EQ PUSH2 0x44C JUMPI DUP1 PUSH4 0x38CCEB4F EQ PUSH2 0x483 JUMPI PUSH0 DUP1 REVERT JUMPDEST DUP1 PUSH4 0x1FAC0FFD GT PUSH2 0x227 JUMPI DUP1 PUSH4 0x1FAC0FFD EQ PUSH2 0x311 JUMPI DUP1 PUSH4 0x200D2ED2 EQ PUSH2 0x330 JUMPI DUP1 PUSH4 0x22AF00FA EQ PUSH2 0x349 JUMPI DUP1 PUSH4 0x23FE318E EQ PUSH2 0x38F JUMPI DUP1 PUSH4 0x2605C251 EQ PUSH2 0x3AE JUMPI DUP1 PUSH4 0x28DDDC1B EQ PUSH2 0x3CD JUMPI PUSH0 DUP1 REVERT JUMPDEST DUP1 PUSH4 0x12586172 EQ PUSH2 0x263 JUMPI DUP1 PUSH4 0x19299832 EQ PUSH2 0x297 JUMPI DUP1 PUSH4 0x195BA0EB EQ PUSH2 0x2C8 JUMPI DUP1 PUSH4 0x1B2ABC77 EQ PUSH2 0x2E7 JUMPI DUP1 PUSH4 0x1DBE2E0E EQ PUSH2 0x2FD JUMPI JUMPDEST PUSH0 DUP1 REVERT JUMPDEST CALLVALUE DUP1 ISZERO PUSH2 0x26E JUMPI PUSH0 DUP1 REVERT JUMPDEST POP PUSH2 0x282 PUSH2 0x27D CALLDATASIZE PUSH1 0x4 PUSH2 0x2BD7 JUMP JUMPDEST PUSH2 0x78B JUMP JUMPDEST PUSH1 0x40 MLOAD SWAP1 ISZERO ISZERO DUP2 MSTORE PUSH1 0x20 ADD JUMPDEST PUSH1 0x40 MLOAD DUP1 SWAP2 SUB SWAP1 RETURN JUMPDEST CALLVALUE DUP1 ISZERO PUSH2 0x2A2 JUMPI PUSH0 DUP1 REVERT JUMPDEST POP PUSH2 0x2B6 PUSH2 0x2B1 CALLDATASIZE PUSH1 0x4 PUSH2 0x2BFE JUMP JUMPDEST PUSH2 0x7F2 JUMP JUMPDEST PUSH1 0x40 MLOAD PUSH1 0xFF SWAP1 SWAP2 AND DUP2 MSTORE PUSH1 0x20 ADD PUSH2 0x28E JUMP JUMPDEST CALLVALUE DUP1 ISZERO PUSH2 0x2D3 JUMPI PUSH0 DUP1 REVERT JUMPDEST POP PUSH2 0x2B6 PUSH2 0x2E2 CALLDATASIZE PUSH1 0x4 PUSH2 0x2BFE JUMP JUMPDEST PUSH2 0x81B JUMP JUMPDEST CALLVALUE DUP1 ISZERO PUSH2 0x2F2 JUMPI PUSH0 DUP1 REVERT JUMPDEST POP PUSH2 0x2FB PUSH2 0x82A JUMP JUMPDEST STOP JUMPDEST CALLVALUE DUP1 ISZERO PUSH2 0x308 JUMPI PUSH0 DUP1 REVERT JUMPDEST POP PUSH2 0x2FB PUSH2 0x8CA JUMP JUMPDEST CALLVALUE DUP1 ISZERO PUSH2 0x31C JUMPI PUSH0 DUP1 REVERT JUMPDEST POP PUSH2 0x2B6 PUSH2 0x32B CALLDATASIZE PUSH1 0x4 PUSH2 0x2BFE JUMP JUMPDEST PUSH2 0xB19 JUMP JUMPDEST CALLVALUE DUP1 ISZERO PUSH2 0x33B JUMPI PUSH0 DUP1 REVERT JUMPDEST POP PUSH1 0xE SLOAD PUSH2 0x2B6 SWAP1 PUSH1 0xFF AND DUP2 JUMP JUMPDEST CALLVALUE DUP1 ISZERO PUSH2 0x354 JUMPI PUSH0 DUP1 REVERT JUMPDEST POP PUSH2 0x368 PUSH2 0x363 CALLDATASIZE PUSH1 0x4 PUSH2 0x2BFE JUMP JUMPDEST PUSH2 0xB28 JUMP JUMPDEST PUSH1 0x40 DUP1 MLOAD PUSH1 0x1 PUSH1 0x1 PUSH1 0xA0 SHL SUB SWAP1 SWAP5 AND DUP5 MSTORE PUSH1 0xFF SWAP1 SWAP3 AND PUSH1 0x20 DUP5 ADD MSTORE SWAP1 DUP3 ADD MSTORE PUSH1 0x60 ADD PUSH2 0x28E JUMP JUMPDEST CALLVALUE DUP1 ISZERO PUSH2 0x39A JUMPI PUSH0 DUP1 REVERT JUMPDEST POP PUSH2 0x2B6 PUSH2 0x3A9 CALLDATASIZE PUSH1 0x4 PUSH2 0x2BFE JUMP JUMPDEST PUSH2 0xB69 JUMP JUMPDEST CALLVALUE DUP1 ISZERO PUSH2 0x3B9 JUMPI PUSH0 DUP1 REVERT JUMPDEST POP PUSH2 0x282 PUSH2 0x3C8 CALLDATASIZE PUSH1 0x4 PUSH2 0x2BD7 JUMP JUMPDEST PUSH2 0xB78 JUMP JUMPDEST CALLVALUE DUP1 ISZERO PUSH2 0x3D8 JUMPI PUSH0 DUP1 REVERT JUMPDEST POP PUSH2 0x282 PUSH2 0x3E7 CALLDATASIZE PUSH1 0x4 PUSH2 0x2BD7 JUMP JUMPDEST PUSH2 0xBD7 JUMP JUMPDEST CALLVALUE DUP1 ISZERO PUSH2 0x3F7 JUMPI PUSH0 DUP1 REVERT JUMPDEST POP PUSH2 0x401 PUSH1 0x15 SLOAD DUP2 JUMP JUMPDEST PUSH1 0x40 MLOAD SWAP1 DUP2 MSTORE PUSH1 0x20 ADD PUSH2 0x28E JUMP JUMPDEST CALLVALUE DUP1 ISZERO PUSH2 0x41A JUMPI PUSH0 DUP1 REVERT JUMPDEST POP PUSH1 0x11 SLOAD PUSH2 0x2B6 SWAP1 PUSH2 0x100 SWAP1 DIV PUSH1 0xFF AND DUP2 JUMP JUMPDEST CALLVALUE DUP1 ISZERO PUSH2 0x438 JUMPI PUSH0 DUP1 REVERT JUMPDEST POP PUSH2 0x2B6 PUSH2 0x447 CALLDATASIZE PUSH1 0x4 PUSH2 0x2BFE JUMP JUMPDEST PUSH2 0xC36 JUMP JUMPDEST CALLVALUE DUP1 ISZERO PUSH2 0x457 JUMPI PUSH0 DUP1 REVERT JUMPDEST POP PUSH2 0x46B PUSH2 0x466 CALLDATASIZE PUSH1 0x4 PUSH2 0x2BFE JUMP JUMPDEST PUSH2 0xC45 JUMP JUMPDEST PUSH1 0x40 MLOAD PUSH1 0x1 PUSH1 0x1 PUSH1 0xA0 SHL SUB SWAP1 SWAP2 AND DUP2 MSTORE PUSH1 0x20 ADD PUSH2 0x28E JUMP JUMPDEST CALLVALUE DUP1 ISZERO PUSH2 0x48E JUMPI PUSH0 DUP1 REVERT JUMPDEST POP PUSH2 0x2FB PUSH2 0xC6D JUMP JUMPDEST PUSH2 0x2FB PUSH2 0x4A5 CALLDATASIZE PUSH1 0x4 PUSH2 0x2BD7 JUMP JUMPDEST PUSH2 0x129B JUMP JUMPDEST CALLVALUE DUP1 ISZERO PUSH2 0x4B5 JUMPI PUSH0 DUP1 REVERT JUMPDEST POP PUSH2 0x282 PUSH2 0x4C4 CALLDATASIZE PUSH1 0x4 PUSH2 0x2BD7 JUMP JUMPDEST PUSH2 0x14B2 JUMP JUMPDEST CALLVALUE DUP1 ISZERO PUSH2 0x4D4 JUMPI PUSH0 DUP1 REVERT JUMPDEST POP PUSH2 0x282 PUSH2 0x4E3 CALLDATASIZE PUSH1 0x4 PUSH2 0x2BD7 JUMP JUMPDEST PUSH2 0x1511 JUMP JUMPDEST CALLVALUE DUP1 ISZERO PUSH2 0x4F3 JUMPI PUSH0 DUP1 REVERT JUMPDEST POP PUSH1 0xE SLOAD PUSH1 0xFF AND PUSH2 0x2B6 JUMP JUMPDEST CALLVALUE DUP1 ISZERO PUSH2 0x50A JUMPI PUSH0 DUP1 REVERT JUMPDEST POP PUSH2 0x282 PUSH2 0x519 CALLDATASIZE PUSH1 0x4 PUSH2 0x2BD7 JUMP JUMPDEST PUSH2 0x1570 JUMP JUMPDEST CALLVALUE DUP1 ISZERO PUSH2 0x529 JUMPI PUSH0 DUP1 REVERT JUMPDEST POP PUSH1 0x11 SLOAD PUSH2 0x2B6 SWAP1 PUSH1 0xFF AND DUP2 JUMP JUMPDEST CALLVALUE DUP1 ISZERO PUSH2 0x542 JUMPI PUSH0 DUP1 REVERT JUMPDEST POP PUSH2 0x401 PUSH1 0x10 SLOAD DUP2 JUMP JUMPDEST CALLVALUE DUP1 ISZERO PUSH2 0x557 JUMPI PUSH0 DUP1 REVERT JUMPDEST POP PUSH2 0x401 PUSH1 0x14 SLOAD DUP2 JUMP JUMPDEST CALLVALUE DUP1 ISZERO PUSH2 0x56C JUMPI PUSH0 DUP1 REVERT JUMPDEST POP PUSH1 0xF SLOAD PUSH2 0x401 JUMP JUMPDEST CALLVALUE DUP1 ISZERO PUSH2 0x580 JUMPI PUSH0 DUP1 REVERT JUMPDEST POP PUSH2 0x2FB PUSH2 0x15CF JUMP JUMPDEST CALLVALUE DUP1 ISZERO PUSH2 0x594 JUMPI PUSH0 DUP1 REVERT JUMPDEST POP PUSH2 0x282 PUSH2 0x5A3 CALLDATASIZE PUSH1 0x4 PUSH2 0x2BD7 JUMP JUMPDEST PUSH2 0x1FE1 JUMP JUMPDEST CALLVALUE DUP1 ISZERO PUSH2 0x5B3 JUMPI PUSH0 DUP1 REVERT JUMPDEST POP PUSH2 0x401 PUSH1 0xD SLOAD DUP2 JUMP JUMPDEST CALLVALUE DUP1 ISZERO PUSH2 0x5C8 JUMPI PUSH0 DUP1 REVERT JUMPDEST POP PUSH2 0x282 PUSH2 0x5D7 CALLDATASIZE PUSH1 0x4 PUSH2 0x2BD7 JUMP JUMPDEST PUSH2 0x2040 JUMP JUMPDEST CALLVALUE DUP1 ISZERO PUSH2 0x5E7 JUMPI PUSH0 DUP1 REVERT JUMPDEST POP PUSH2 0x282 PUSH2 0x5F6 CALLDATASIZE PUSH1 0x4 PUSH2 0x2BD7 JUMP JUMPDEST PUSH2 0x209E JUMP JUMPDEST CALLVALUE DUP1 ISZERO PUSH2 0x606 JUMPI PUSH0 DUP1 REVERT JUMPDEST POP PUSH2 0x2B6 PUSH2 0x615 CALLDATASIZE PUSH1 0x4 PUSH2 0x2BFE JUMP JUMPDEST PUSH2 0x20FD JUMP JUMPDEST CALLVALUE DUP1 ISZERO PUSH2 0x625 JUMPI PUSH0 DUP1 REVERT JUMPDEST POP PUSH2 0x2B6 PUSH2 0x634 CALLDATASIZE PUSH1 0x4 PUSH2 0x2BFE JUMP JUMPDEST PUSH2 0x210C JUMP JUMPDEST CALLVALUE DUP1 ISZERO PUSH2 0x644 JUMPI PUSH0 DUP1 REVERT JUMPDEST POP PUSH2 0x2B6 PUSH2 0x653 CALLDATASIZE PUSH1 0x4 PUSH2 0x2BFE JUMP JUMPDEST PUSH2 0x211B JUMP JUMPDEST CALLVALUE DUP1 ISZERO PUSH2 0x663 JUMPI PUSH0 DUP1 REVERT JUMPDEST POP PUSH2 0x46B PUSH2 0x672 CALLDATASIZE PUSH1 0x4 PUSH2 0x2BFE JUMP JUMPDEST PUSH2 0x212A JUMP JUMPDEST PUSH2 0x2FB PUSH2 0x2139 JUMP JUMPDEST CALLVALUE DUP1 ISZERO PUSH2 0x68A JUMPI PUSH0 DUP1 REVERT JUMPDEST POP PUSH2 0x401 PUSH2 0x226A JUMP JUMPDEST CALLVALUE DUP1 ISZERO PUSH2 0x69E JUMPI PUSH0 DUP1 REVERT JUMPDEST POP PUSH2 0x2B6 PUSH2 0x6AD CALLDATASIZE PUSH1 0x4 PUSH2 0x2BFE JUMP JUMPDEST PUSH2 0x22B6 JUMP JUMPDEST CALLVALUE DUP1 ISZERO PUSH2 0x6BD JUMPI PUSH0 DUP1 REVERT JUMPDEST POP PUSH2 0x282 PUSH2 0x6CC CALLDATASIZE PUSH1 0x4 PUSH2 0x2BD7 JUMP JUMPDEST PUSH2 0x22C5 JUMP JUMPDEST CALLVALUE DUP1 ISZERO PUSH2 0x6DC JUMPI PUSH0 DUP1 REVERT JUMPDEST POP PUSH2 0x2B6 PUSH2 0x6EB CALLDATASIZE PUSH1 0x4 PUSH2 0x2BFE JUMP JUMPDEST PUSH2 0x2324 JUMP JUMPDEST CALLVALUE DUP1 ISZERO PUSH2 0x6FB JUMPI PUSH0 DUP1 REVERT JUMPDEST POP PUSH2 0x282 PUSH2 0x70A CALLDATASIZE PUSH1 0x4 PUSH2 0x2BD7 JUMP JUMPDEST PUSH2 0x2333 JUMP JUMPDEST CALLVALUE DUP1 ISZERO PUSH2 0x71A JUMPI PUSH0 DUP1 REVERT JUMPDEST POP PUSH2 0x282 PUSH2 0x729 CALLDATASIZE PUSH1 0x4 PUSH2 0x2BD7 JUMP JUMPDEST PUSH2 0x2392 JUMP JUMPDEST CALLVALUE DUP1 ISZERO PUSH2 0x739 JUMPI PUSH0 DUP1 REVERT JUMPDEST POP PUSH2 0x2B6 PUSH2 0x748 CALLDATASIZE PUSH1 0x4 PUSH2 0x2BFE JUMP JUMPDEST PUSH2 0x23F1 JUMP JUMPDEST CALLVALUE DUP1 ISZERO PUSH2 0x758 JUMPI PUSH0 DUP1 REVERT JUMPDEST POP PUSH1 0xC SLOAD PUSH2 0x46B SWAP1 PUSH1 0x1 PUSH1 0x1 PUSH1 0xA0 SHL SUB AND DUP2 JUMP JUMPDEST CALLVALUE DUP1 ISZERO PUSH2 0x777 JUMPI PUSH0 DUP1 REVERT JUMPDEST POP PUSH2 0x2B6 PUSH2 0x786 CALLDATASIZE PUSH1 0x4 PUSH2 0x2BFE JUMP JUMPDEST PUSH2 0x23FF JUMP JUMPDEST PUSH0 DUP1 JUMPDEST PUSH1 0xC DUP2 PUSH1 0xFF AND LT ISZERO PUSH2 0x7EA JUMPI DUP3 PUSH1 0xFF AND PUSH1 0x6 DUP3 PUSH1 0xFF AND PUSH1 0xC DUP2 LT PUSH2 0x7B4 JUMPI PUSH2 0x7B4 PUSH2 0x2C15 JUMP JUMPDEST PUSH1 0x20 DUP2 DIV SWAP1 SWAP2 ADD SLOAD PUSH1 0xFF PUSH1 0x1F SWAP1 SWAP3 AND PUSH2 0x100 EXP SWAP1 DIV AND SUB PUSH2 0x7D8 JUMPI POP PUSH1 0x1 SWAP3 SWAP2 POP POP JUMP JUMPDEST DUP1 PUSH2 0x7E2 DUP2 PUSH2 0x2C3D JUMP JUMPDEST SWAP2 POP POP PUSH2 0x78E JUMP JUMPDEST POP PUSH0 SWAP3 SWAP2 POP POP JUMP JUMPDEST PUSH1 0x8 DUP2 PUSH1 0xC DUP2 LT PUSH2 0x801 JUMPI PUSH0 DUP1 REVERT JUMPDEST PUSH1 0x20 SWAP2 DUP3 DUP3 DIV ADD SWAP2 SWAP1 MOD SWAP2 POP SLOAD SWAP1 PUSH2 0x100 EXP SWAP1 DIV PUSH1 0xFF AND DUP2 JUMP JUMPDEST PUSH1 0x9 DUP2 PUSH1 0xC DUP2 LT PUSH2 0x801 JUMPI PUSH0 DUP1 REVERT JUMPDEST PUSH1 0xE SLOAD PUSH1 0xFF AND PUSH1 0x1 EQ PUSH2 0x87B JUMPI PUSH1 0x40 MLOAD PUSH3 0x461BCD PUSH1 0xE5 SHL DUP2 MSTORE PUSH1 0x20 PUSH1 0x4 DUP3 ADD MSTORE PUSH1 0x14 PUSH1 0x24 DUP3 ADD MSTORE PUSH20 0x139BC81B5BDC994818995D1CC8185B1B1BDDD959 PUSH1 0x62 SHL PUSH1 0x44 DUP3 ADD MSTORE PUSH1 0x64 ADD JUMPDEST PUSH1 0x40 MLOAD DUP1 SWAP2 SUB SWAP1 REVERT JUMPDEST PUSH1 0xE DUP1 SLOAD PUSH1 0xFF NOT AND PUSH1 0x2 OR SWAP1 SSTORE NUMBER PUSH1 0x10 DUP2 SWAP1 SSTORE PUSH1 0x40 MLOAD PUSH32 0x2D21E9397283A99C7F2DF56BAF635AAB0655F2DEA12185FAC963AC115BE30F93 SWAP2 PUSH2 0x8C0 SWAP2 SWAP1 DUP2 MSTORE PUSH1 0x20 ADD SWAP1 JUMP JUMPDEST PUSH1 0x40 MLOAD DUP1 SWAP2 SUB SWAP1 LOG1 JUMP JUMPDEST PUSH1 0xE SLOAD PUSH1 0xFF AND PUSH1 0x2 EQ PUSH2 0x916 JUMPI PUSH1 0x40 MLOAD PUSH3 0x461BCD PUSH1 0xE5 SHL DUP2 MSTORE PUSH1 0x20 PUSH1 0x4 DUP3 ADD MSTORE PUSH1 0x14 PUSH1 0x24 DUP3 ADD MSTORE PUSH20 0x139BC81B5BDC994818995D1CC8185B1B1BDDD959 PUSH1 0x62 SHL PUSH1 0x44 DUP3 ADD MSTORE PUSH1 0x64 ADD PUSH2 0x872 JUMP JUMPDEST PUSH1 0xC SLOAD PUSH1 0x1 PUSH1 0x1 PUSH1 0xA0 SHL SUB AND CALLER EQ PUSH2 0x970 JUMPI PUSH1 0x40 MLOAD PUSH3 0x461BCD PUSH1 0xE5 SHL DUP2 MSTORE PUSH1 0x20 PUSH1 0x4 DUP3 ADD MSTORE PUSH1 0x1D PUSH1 0x24 DUP3 ADD MSTORE PUSH32 0x4F6E6C7920686F73742063616E2067656E657261746520726573756C74000000 PUSH1 0x44 DUP3 ADD MSTORE PUSH1 0x64 ADD PUSH2 0x872 JUMP JUMPDEST PUSH1 0x10 SLOAD PUSH2 0x97F SWAP1 PUSH1 0xC SWAP1 PUSH2 0x2C5B JUMP JUMPDEST PUSH2 0x98A SWAP1 PUSH1 0x1 PUSH2 0x2C5B JUMP JUMPDEST NUMBER LT ISZERO PUSH2 0x9D9 JUMPI PUSH1 0x40 MLOAD PUSH3 0x461BCD PUSH1 0xE5 SHL DUP2 MSTORE PUSH1 0x20 PUSH1 0x4 DUP3 ADD MSTORE PUSH1 0x18 PUSH1 0x24 DUP3 ADD MSTORE PUSH32 0x426C6F636B206E756D626572206E6F7420726561636865640000000000000000 PUSH1 0x44 DUP3 ADD MSTORE PUSH1 0x64 ADD PUSH2 0x872 JUMP JUMPDEST PUSH0 PUSH1 0x10 SLOAD PUSH1 0x1 PUSH2 0x9E9 SWAP2 SWAP1 PUSH2 0x2C5B JUMP JUMPDEST PUSH1 0xC SLOAD PUSH1 0x40 MLOAD PUSH1 0x60 SWAP2 SWAP1 SWAP2 SHL PUSH1 0x1 PUSH1 0x1 PUSH1 0x60 SHL SUB NOT AND PUSH1 0x20 DUP3 ADD MSTORE SWAP1 BLOCKHASH SWAP2 POP PUSH0 SWAP1 PUSH1 0x34 ADD PUSH1 0x40 MLOAD PUSH1 0x20 DUP2 DUP4 SUB SUB DUP2 MSTORE SWAP1 PUSH1 0x40 MSTORE SWAP1 POP PUSH0 JUMPDEST PUSH1 0xF SLOAD DUP2 LT ISZERO PUSH2 0xA83 JUMPI DUP2 PUSH1 0xF DUP3 DUP2 SLOAD DUP2 LT PUSH2 0xA3E JUMPI PUSH2 0xA3E PUSH2 0x2C15 JUMP JUMPDEST PUSH0 SWAP2 DUP3 MSTORE PUSH1 0x20 SWAP2 DUP3 SWAP1 KECCAK256 PUSH1 0x2 SWAP1 SWAP2 MUL ADD SLOAD PUSH1 0x40 MLOAD PUSH2 0xA69 SWAP4 SWAP3 PUSH1 0x1 PUSH1 0x1 PUSH1 0xA0 SHL SUB SWAP1 SWAP3 AND SWAP2 ADD PUSH2 0x2C8B JUMP JUMPDEST PUSH1 0x40 DUP1 MLOAD PUSH1 0x1F NOT DUP2 DUP5 SUB ADD DUP2 MSTORE SWAP2 SWAP1 MSTORE SWAP2 POP PUSH1 0x1 ADD PUSH2 0xA20 JUMP JUMPDEST POP PUSH0 DUP3 DUP3 PUSH1 0x40 MLOAD PUSH1 0x20 ADD PUSH2 0xA98 SWAP3 SWAP2 SWAP1 PUSH2 0x2CB2 JUMP JUMPDEST PUSH1 0x40 DUP1 MLOAD PUSH1 0x1F NOT DUP2 DUP5 SUB ADD DUP2 MSTORE SWAP2 SWAP1 MSTORE DUP1 MLOAD PUSH1 0x20 SWAP1 SWAP2 ADD KECCAK256 SWAP1 POP DUP1 PUSH2 0xABE PUSH1 0x26 DUP3 PUSH2 0x2CDF JUMP JUMPDEST PUSH1 0x11 DUP1 SLOAD PUSH1 0xFF SWAP3 SWAP1 SWAP3 AND PUSH1 0xFF NOT SWAP3 DUP4 AND DUP2 OR SWAP1 SWAP2 SSTORE PUSH1 0xE DUP1 SLOAD SWAP1 SWAP3 AND PUSH1 0x3 OR SWAP1 SWAP2 SSTORE PUSH1 0x40 MLOAD SWAP1 DUP2 MSTORE PUSH32 0x4898F0A86E5D5B202A6285B46DB8E265F964E837829F7D6BF7D1C072C6B88C09 SWAP1 PUSH1 0x20 ADD PUSH1 0x40 MLOAD DUP1 SWAP2 SUB SWAP1 LOG1 POP POP POP POP JUMP JUMPDEST PUSH1 0xB DUP2 PUSH1 0xC DUP2 LT PUSH2 0x801 JUMPI PUSH0 DUP1 REVERT JUMPDEST PUSH1 0xF DUP2 DUP2 SLOAD DUP2 LT PUSH2 0xB37 JUMPI PUSH0 DUP1 REVERT JUMPDEST PUSH0 SWAP2 DUP3 MSTORE PUSH1 0x20 SWAP1 SWAP2 KECCAK256 PUSH1 0x2 SWAP1 SWAP2 MUL ADD DUP1 SLOAD PUSH1 0x1 SWAP1 SWAP2 ADD SLOAD PUSH1 0x1 PUSH1 0x1 PUSH1 0xA0 SHL SUB DUP3 AND SWAP3 POP PUSH1 0x1 PUSH1 0xA0 SHL SWAP1 SWAP2 DIV PUSH1 0xFF AND SWAP1 DUP4 JUMP JUMPDEST PUSH1 0x2 DUP2 PUSH1 0x12 DUP2 LT PUSH2 0x801 JUMPI PUSH0 DUP1 REVERT JUMPDEST PUSH0 DUP1 JUMPDEST PUSH1 0xC DUP2 PUSH1 0xFF AND LT ISZERO PUSH2 0x7EA JUMPI DUP3 PUSH1 0xFF AND PUSH1 0xA DUP3 PUSH1 0xFF AND PUSH1 0xC DUP2 LT PUSH2 0xBA1 JUMPI PUSH2 0xBA1 PUSH2 0x2C15 JUMP JUMPDEST PUSH1 0x20 DUP2 DIV SWAP1 SWAP2 ADD SLOAD PUSH1 0xFF PUSH1 0x1F SWAP1 SWAP3 AND PUSH2 0x100 EXP SWAP1 DIV AND SUB PUSH2 0xBC5 JUMPI POP PUSH1 0x1 SWAP3 SWAP2 POP POP JUMP JUMPDEST DUP1 PUSH2 0xBCF DUP2 PUSH2 0x2C3D JUMP JUMPDEST SWAP2 POP POP PUSH2 0xB7B JUMP JUMPDEST PUSH0 DUP1 JUMPDEST PUSH1 0x12 DUP2 PUSH1 0xFF AND LT ISZERO PUSH2 0x7EA JUMPI DUP3 PUSH1 0xFF AND PUSH1 0x4 DUP3 PUSH1 0xFF AND PUSH1 0x12 DUP2 LT PUSH2 0xC00 JUMPI PUSH2 0xC00 PUSH2 0x2C15 JUMP JUMPDEST PUSH1 0x20 DUP2 DIV SWAP1 SWAP2 ADD SLOAD PUSH1 0xFF PUSH1 0x1F SWAP1 SWAP3 AND PUSH2 0x100 EXP SWAP1 DIV AND SUB PUSH2 0xC24 JUMPI POP PUSH1 0x1 SWAP3 SWAP2 POP POP JUMP JUMPDEST DUP1 PUSH2 0xC2E DUP2 PUSH2 0x2C3D JUMP JUMPDEST SWAP2 POP POP PUSH2 0xBDA JUMP JUMPDEST PUSH1 0xA DUP2 PUSH1 0xC DUP2 LT PUSH2 0x801 JUMPI PUSH0 DUP1 REVERT JUMPDEST PUSH1 0x12 DUP2 DUP2 SLOAD DUP2 LT PUSH2 0xC54 JUMPI PUSH0 DUP1 REVERT JUMPDEST PUSH0 SWAP2 DUP3 MSTORE PUSH1 0x20 SWAP1 SWAP2 KECCAK256 ADD SLOAD PUSH1 0x1 PUSH1 0x1 PUSH1 0xA0 SHL SUB AND SWAP1 POP DUP2 JUMP JUMPDEST PUSH1 0xE SLOAD PUSH1 0xFF AND PUSH1 0x3 EQ PUSH2 0xCB9 JUMPI PUSH1 0x40 MLOAD PUSH3 0x461BCD PUSH1 0xE5 SHL DUP2 MSTORE PUSH1 0x20 PUSH1 0x4 DUP3 ADD MSTORE PUSH1 0x14 PUSH1 0x24 DUP3 ADD MSTORE PUSH20 0x14995CDD5B1D081B9BDD0819D95B995C985D1959 PUSH1 0x62 SHL PUSH1 0x44 DUP3 ADD MSTORE PUSH1 0x64 ADD PUSH2 0x872 JUMP JUMPDEST PUSH1 0x10 SLOAD PUSH2 0xCC8 SWAP1 PUSH1 0xC SWAP1 PUSH2 0x2C5B JUMP JUMPDEST PUSH2 0xCD3 SWAP1 PUSH1 0x1 PUSH2 0x2C5B JUMP JUMPDEST NUMBER LT ISZERO PUSH2 0xD33 JUMPI PUSH1 0x40 MLOAD PUSH3 0x461BCD PUSH1 0xE5 SHL DUP2 MSTORE PUSH1 0x20 PUSH1 0x4 DUP3 ADD MSTORE PUSH1 0x28 PUSH1 0x24 DUP3 ADD MSTORE PUSH32 0x57616974206174206C6561737420313220626C6F636B73206166746572206765 PUSH1 0x44 DUP3 ADD MSTORE PUSH8 0x3732B930BA34B7B7 PUSH1 0xC1 SHL PUSH1 0x64 DUP3 ADD MSTORE PUSH1 0x84 ADD PUSH2 0x872 JUMP JUMPDEST PUSH2 0xD3C CALLER PUSH2 0x240E JUMP JUMPDEST PUSH2 0xD88 JUMPI PUSH1 0x40 MLOAD PUSH3 0x461BCD PUSH1 0xE5 SHL DUP2 MSTORE PUSH1 0x20 PUSH1 0x4 DUP3 ADD MSTORE PUSH1 0x1D PUSH1 0x24 DUP3 ADD MSTORE PUSH32 0x4F6E6C7920612076616C696461746F722063616E2076616C6964617465000000 PUSH1 0x44 DUP3 ADD MSTORE PUSH1 0x64 ADD PUSH2 0x872 JUMP JUMPDEST PUSH0 PUSH1 0x10 SLOAD PUSH1 0x1 PUSH2 0xD98 SWAP2 SWAP1 PUSH2 0x2C5B JUMP JUMPDEST SWAP1 POP DUP1 BLOCKHASH PUSH0 DUP1 MLOAD PUSH1 0x20 PUSH2 0x2FF9 DUP4 CODECOPY DUP2 MLOAD SWAP2 MSTORE PUSH1 0x1 PUSH2 0xDB5 DUP5 PUSH2 0x2462 JUMP JUMPDEST PUSH2 0xDBE DUP5 PUSH2 0x256D JUMP JUMPDEST PUSH1 0x40 MLOAD PUSH1 0x20 ADD PUSH2 0xDCF SWAP3 SWAP2 SWAP1 PUSH2 0x2CF2 JUMP JUMPDEST PUSH1 0x40 DUP1 MLOAD PUSH1 0x1F NOT DUP2 DUP5 SUB ADD DUP2 MSTORE DUP3 DUP3 MSTORE PUSH1 0x20 DUP4 ADD DUP8 SWAP1 MSTORE SWAP1 DUP3 ADD DUP6 SWAP1 MSTORE SWAP1 PUSH1 0x60 ADD PUSH1 0x40 DUP1 MLOAD PUSH1 0x1F NOT DUP2 DUP5 SUB ADD DUP2 MSTORE SWAP1 DUP3 SWAP1 MSTORE PUSH2 0xE0C SWAP4 SWAP3 SWAP2 PUSH2 0x2D8E JUMP JUMPDEST PUSH1 0x40 MLOAD DUP1 SWAP2 SUB SWAP1 LOG1 PUSH1 0xF SLOAD PUSH0 SWAP1 PUSH2 0xE24 SWAP1 PUSH1 0x1 PUSH2 0x2C5B JUMP JUMPDEST PUSH8 0xFFFFFFFFFFFFFFFF DUP2 GT ISZERO PUSH2 0xE3C JUMPI PUSH2 0xE3C PUSH2 0x2DC5 JUMP JUMPDEST PUSH1 0x40 MLOAD SWAP1 DUP1 DUP3 MSTORE DUP1 PUSH1 0x20 MUL PUSH1 0x20 ADD DUP3 ADD PUSH1 0x40 MSTORE DUP1 ISZERO PUSH2 0xE65 JUMPI DUP2 PUSH1 0x20 ADD PUSH1 0x20 DUP3 MUL DUP1 CALLDATASIZE DUP4 CALLDATACOPY ADD SWAP1 POP JUMPDEST POP PUSH1 0xC SLOAD DUP2 MLOAD SWAP2 SWAP3 POP PUSH1 0x1 PUSH1 0x1 PUSH1 0xA0 SHL SUB AND SWAP1 DUP3 SWAP1 PUSH0 SWAP1 PUSH2 0xE88 JUMPI PUSH2 0xE88 PUSH2 0x2C15 JUMP JUMPDEST PUSH1 0x20 MUL PUSH1 0x20 ADD ADD SWAP1 PUSH1 0x1 PUSH1 0x1 PUSH1 0xA0 SHL SUB AND SWAP1 DUP2 PUSH1 0x1 PUSH1 0x1 PUSH1 0xA0 SHL SUB AND DUP2 MSTORE POP POP PUSH0 JUMPDEST PUSH1 0xF SLOAD DUP2 LT ISZERO PUSH2 0xF1C JUMPI PUSH1 0xF DUP2 DUP2 SLOAD DUP2 LT PUSH2 0xEC7 JUMPI PUSH2 0xEC7 PUSH2 0x2C15 JUMP JUMPDEST PUSH0 SWAP2 DUP3 MSTORE PUSH1 0x20 SWAP1 SWAP2 KECCAK256 PUSH1 0x2 SWAP1 SWAP2 MUL ADD SLOAD PUSH1 0x1 PUSH1 0x1 PUSH1 0xA0 SHL SUB AND DUP3 PUSH2 0xEEC DUP4 PUSH1 0x1 PUSH2 0x2C5B JUMP JUMPDEST DUP2 MLOAD DUP2 LT PUSH2 0xEFC JUMPI PUSH2 0xEFC PUSH2 0x2C15 JUMP JUMPDEST PUSH1 0x1 PUSH1 0x1 PUSH1 0xA0 SHL SUB SWAP1 SWAP3 AND PUSH1 0x20 SWAP3 DUP4 MUL SWAP2 SWAP1 SWAP2 ADD SWAP1 SWAP2 ADD MSTORE PUSH1 0x1 ADD PUSH2 0xEAA JUMP JUMPDEST POP PUSH0 PUSH2 0xF27 DUP3 PUSH2 0x2729 JUMP JUMPDEST PUSH1 0xC SLOAD PUSH1 0x40 MLOAD PUSH1 0x60 SWAP2 SWAP1 SWAP2 SHL PUSH1 0x1 PUSH1 0x1 PUSH1 0x60 SHL SUB NOT AND PUSH1 0x20 DUP3 ADD MSTORE SWAP1 SWAP2 POP PUSH0 SWAP1 PUSH1 0x34 ADD PUSH1 0x40 MLOAD PUSH1 0x20 DUP2 DUP4 SUB SUB DUP2 MSTORE SWAP1 PUSH1 0x40 MSTORE SWAP1 POP PUSH0 JUMPDEST PUSH1 0xF SLOAD DUP2 LT ISZERO PUSH2 0xFC0 JUMPI DUP2 PUSH1 0xF DUP3 DUP2 SLOAD DUP2 LT PUSH2 0xF7B JUMPI PUSH2 0xF7B PUSH2 0x2C15 JUMP JUMPDEST PUSH0 SWAP2 DUP3 MSTORE PUSH1 0x20 SWAP2 DUP3 SWAP1 KECCAK256 PUSH1 0x2 SWAP1 SWAP2 MUL ADD SLOAD PUSH1 0x40 MLOAD PUSH2 0xFA6 SWAP4 SWAP3 PUSH1 0x1 PUSH1 0x1 PUSH1 0xA0 SHL SUB SWAP1 SWAP3 AND SWAP2 ADD PUSH2 0x2C8B JUMP JUMPDEST PUSH1 0x40 DUP1 MLOAD PUSH1 0x1F NOT DUP2 DUP5 SUB ADD DUP2 MSTORE SWAP2 SWAP1 MSTORE SWAP2 POP PUSH1 0x1 ADD PUSH2 0xF5D JUMP JUMPDEST POP PUSH0 DUP1 MLOAD PUSH1 0x20 PUSH2 0x2FF9 DUP4 CODECOPY DUP2 MLOAD SWAP2 MSTORE PUSH1 0x2 DUP4 PUSH1 0x40 MLOAD PUSH1 0x20 ADD PUSH2 0xFE2 SWAP2 SWAP1 PUSH2 0x2DD9 JUMP JUMPDEST PUSH1 0x40 MLOAD PUSH1 0x20 DUP2 DUP4 SUB SUB DUP2 MSTORE SWAP1 PUSH1 0x40 MSTORE DUP6 PUSH1 0x40 MLOAD PUSH1 0x20 ADD PUSH2 0x1002 SWAP2 SWAP1 PUSH2 0x2E0A JUMP JUMPDEST PUSH1 0x40 DUP1 MLOAD PUSH1 0x1F NOT DUP2 DUP5 SUB ADD DUP2 MSTORE SWAP1 DUP3 SWAP1 MSTORE PUSH2 0x101E SWAP4 SWAP3 SWAP2 PUSH2 0x2D8E JUMP JUMPDEST PUSH1 0x40 MLOAD DUP1 SWAP2 SUB SWAP1 LOG1 PUSH0 DUP1 MLOAD PUSH1 0x20 PUSH2 0x2FF9 DUP4 CODECOPY DUP2 MLOAD SWAP2 MSTORE PUSH1 0x3 PUSH2 0x103F DUP4 PUSH2 0x2822 JUMP JUMPDEST PUSH1 0x40 MLOAD PUSH1 0x20 ADD PUSH2 0x104F SWAP2 SWAP1 PUSH2 0x2E55 JUMP JUMPDEST PUSH1 0x40 DUP1 MLOAD PUSH1 0x1F NOT DUP2 DUP5 SUB ADD DUP2 MSTORE SWAP1 DUP3 SWAP1 MSTORE PUSH2 0x106C SWAP3 SWAP2 DUP6 SWAP1 PUSH2 0x2D8E JUMP JUMPDEST PUSH1 0x40 MLOAD DUP1 SWAP2 SUB SWAP1 LOG1 PUSH0 DUP5 DUP3 PUSH1 0x40 MLOAD PUSH1 0x20 ADD PUSH2 0x1088 SWAP3 SWAP2 SWAP1 PUSH2 0x2CB2 JUMP JUMPDEST PUSH1 0x40 MLOAD PUSH1 0x20 DUP2 DUP4 SUB SUB DUP2 MSTORE SWAP1 PUSH1 0x40 MSTORE DUP1 MLOAD SWAP1 PUSH1 0x20 ADD KECCAK256 SWAP1 POP PUSH0 DUP1 MLOAD PUSH1 0x20 PUSH2 0x2FF9 DUP4 CODECOPY DUP2 MLOAD SWAP2 MSTORE PUSH1 0x4 PUSH2 0x10B9 DUP4 PUSH2 0x256D JUMP JUMPDEST PUSH1 0x40 MLOAD PUSH1 0x20 ADD PUSH2 0x10C9 SWAP2 SWAP1 PUSH2 0x2E90 JUMP JUMPDEST PUSH1 0x40 DUP1 MLOAD PUSH1 0x1F NOT DUP2 DUP5 SUB ADD DUP2 MSTORE DUP3 DUP3 MSTORE PUSH1 0x20 DUP4 ADD DUP7 SWAP1 MSTORE SWAP2 ADD PUSH1 0x40 DUP1 MLOAD PUSH1 0x1F NOT DUP2 DUP5 SUB ADD DUP2 MSTORE SWAP1 DUP3 SWAP1 MSTORE PUSH2 0x10FE SWAP4 SWAP3 SWAP2 PUSH2 0x2D8E JUMP JUMPDEST PUSH1 0x40 MLOAD DUP1 SWAP2 SUB SWAP1 LOG1 DUP1 PUSH0 PUSH2 0x1113 PUSH1 0x26 DUP4 PUSH2 0x2CDF JUMP JUMPDEST SWAP1 POP PUSH0 DUP1 MLOAD PUSH1 0x20 PUSH2 0x2FF9 DUP4 CODECOPY DUP2 MLOAD SWAP2 MSTORE PUSH1 0x5 PUSH2 0x112F PUSH1 0x26 PUSH2 0x2462 JUMP JUMPDEST PUSH2 0x113B DUP5 PUSH1 0xFF AND PUSH2 0x2462 JUMP JUMPDEST PUSH1 0x40 MLOAD PUSH1 0x20 ADD PUSH2 0x114C SWAP3 SWAP2 SWAP1 PUSH2 0x2ED1 JUMP JUMPDEST PUSH1 0x40 DUP1 MLOAD PUSH1 0x1F NOT DUP2 DUP5 SUB ADD DUP2 MSTORE DUP3 DUP3 MSTORE PUSH1 0xFF DUP7 AND PUSH1 0x20 DUP5 ADD MSTORE SWAP2 ADD PUSH1 0x40 DUP1 MLOAD PUSH1 0x1F NOT DUP2 DUP5 SUB ADD DUP2 MSTORE SWAP1 DUP3 SWAP1 MSTORE PUSH2 0x1183 SWAP4 SWAP3 SWAP2 PUSH2 0x2D8E JUMP JUMPDEST PUSH1 0x40 MLOAD DUP1 SWAP2 SUB SWAP1 LOG1 PUSH1 0x11 SLOAD PUSH1 0xFF DUP3 DUP2 AND SWAP2 AND EQ PUSH2 0x11ED JUMPI PUSH1 0x40 MLOAD PUSH3 0x461BCD PUSH1 0xE5 SHL DUP2 MSTORE PUSH1 0x20 PUSH1 0x4 DUP3 ADD MSTORE PUSH1 0x22 PUSH1 0x24 DUP3 ADD MSTORE PUSH32 0x53746F72656420726573756C7420213D207265636F6D70757465642072657375 PUSH1 0x44 DUP3 ADD MSTORE PUSH2 0x1B1D PUSH1 0xF2 SHL PUSH1 0x64 DUP3 ADD MSTORE PUSH1 0x84 ADD PUSH2 0x872 JUMP JUMPDEST PUSH1 0x13 DUP1 SLOAD PUSH1 0x1 DUP2 ADD DUP3 SSTORE PUSH0 DUP3 SWAP1 MSTORE PUSH32 0x66DE8FFDA797E3DE9C05E8FC57B3BF0EC28A930D40B0D285D93C06501CF6A090 ADD DUP1 SLOAD CALLER PUSH1 0x1 PUSH1 0x1 PUSH1 0xA0 SHL SUB NOT SWAP1 SWAP2 AND OR SWAP1 SSTORE PUSH1 0x11 SLOAD SWAP1 SLOAD PUSH2 0x100 SWAP1 SWAP2 DIV PUSH1 0xFF AND GT PUSH2 0x1291 JUMPI PUSH1 0x11 SLOAD PUSH1 0x40 MLOAD PUSH1 0xFF SWAP1 SWAP2 AND DUP2 MSTORE PUSH32 0x5F438D100D0C0FB18E88113110BF411FD18C9A557C03E394CD32997B5055F9AE SWAP1 PUSH1 0x20 ADD PUSH1 0x40 MLOAD DUP1 SWAP2 SUB SWAP1 LOG1 PUSH1 0xE DUP1 SLOAD PUSH1 0xFF NOT AND PUSH1 0x4 OR SWAP1 SSTORE PUSH2 0x1291 PUSH2 0x15CF JUMP JUMPDEST POP POP POP POP POP POP POP POP JUMP JUMPDEST PUSH1 0x31 DUP2 PUSH1 0xFF AND GT ISZERO PUSH2 0x12EF JUMPI PUSH1 0x40 MLOAD PUSH3 0x461BCD PUSH1 0xE5 SHL DUP2 MSTORE PUSH1 0x20 PUSH1 0x4 DUP3 ADD MSTORE PUSH1 0x1F PUSH1 0x24 DUP3 ADD MSTORE PUSH32 0x4F7074696F6E206D757374206265206265747765656E203020616E6420333700 PUSH1 0x44 DUP3 ADD MSTORE PUSH1 0x64 ADD PUSH2 0x872 JUMP JUMPDEST PUSH1 0xD SLOAD CALLVALUE LT ISZERO PUSH2 0x134D JUMPI PUSH1 0x40 MLOAD PUSH3 0x461BCD PUSH1 0xE5 SHL DUP2 MSTORE PUSH1 0x20 PUSH1 0x4 DUP3 ADD MSTORE PUSH1 0x23 PUSH1 0x24 DUP3 ADD MSTORE PUSH32 0x42657420616D6F756E742069732062656C6F7720746865206D696E696D756D20 PUSH1 0x44 DUP3 ADD MSTORE PUSH3 0x18995D PUSH1 0xEA SHL PUSH1 0x64 DUP3 ADD MSTORE PUSH1 0x84 ADD PUSH2 0x872 JUMP JUMPDEST PUSH1 0xA PUSH2 0x135B PUSH2 0x168 SELFBALANCE PUSH2 0x2F21 JUMP JUMPDEST PUSH2 0x1365 SWAP2 SWAP1 PUSH2 0x2F38 JUMP JUMPDEST CALLVALUE LT PUSH2 0x13BF JUMPI PUSH1 0x40 MLOAD PUSH3 0x461BCD PUSH1 0xE5 SHL DUP2 MSTORE PUSH1 0x20 PUSH1 0x4 DUP3 ADD MSTORE PUSH1 0x23 PUSH1 0x24 DUP3 ADD MSTORE PUSH32 0x42657420616D6F756E742069732061626F766520746865206D6178696D756D20 PUSH1 0x44 DUP3 ADD MSTORE PUSH3 0x18995D PUSH1 0xEA SHL PUSH1 0x64 DUP3 ADD MSTORE PUSH1 0x84 ADD PUSH2 0x872 JUMP JUMPDEST PUSH1 0x40 DUP1 MLOAD PUSH1 0x60 DUP2 ADD DUP3 MSTORE CALLER DUP1 DUP3 MSTORE PUSH1 0xFF DUP5 DUP2 AND PUSH1 0x20 DUP1 DUP6 ADD DUP3 DUP2 MSTORE CALLVALUE DUP7 DUP9 ADD DUP2 DUP2 MSTORE PUSH1 0xF DUP1 SLOAD PUSH1 0x1 DUP2 ADD DUP3 SSTORE PUSH0 SWAP2 SWAP1 SWAP2 MSTORE SWAP8 MLOAD PUSH1 0x2 SWAP1 SWAP9 MUL PUSH32 0x8D1108E10BCB7C27DDDFC02ED9D693A074039D026CF4EA4240B40F7D581AC802 DUP2 ADD DUP1 SLOAD SWAP5 MLOAD SWAP1 SWAP8 AND PUSH1 0x1 PUSH1 0xA0 SHL MUL PUSH1 0x1 PUSH1 0x1 PUSH1 0xA8 SHL SUB NOT SWAP1 SWAP5 AND PUSH1 0x1 PUSH1 0x1 PUSH1 0xA0 SHL SUB SWAP1 SWAP10 AND SWAP9 SWAP1 SWAP9 OR SWAP3 SWAP1 SWAP3 OR SWAP1 SWAP5 SSTORE MLOAD PUSH32 0x8D1108E10BCB7C27DDDFC02ED9D693A074039D026CF4EA4240B40F7D581AC803 SWAP1 SWAP6 ADD SWAP5 SWAP1 SWAP5 SSTORE DUP5 MLOAD SWAP1 DUP2 MSTORE SWAP3 DUP4 ADD MSTORE SWAP2 PUSH32 0x9F6B4CCED64244A64465098F682029975B1614400B96BC6BD12C668083719166 SWAP2 ADD PUSH1 0x40 MLOAD DUP1 SWAP2 SUB SWAP1 LOG2 PUSH2 0x14AF PUSH2 0x82A JUMP JUMPDEST POP JUMP JUMPDEST PUSH0 DUP1 JUMPDEST PUSH1 0x12 DUP2 PUSH1 0xFF AND LT ISZERO PUSH2 0x7EA JUMPI DUP3 PUSH1 0xFF AND PUSH1 0x2 DUP3 PUSH1 0xFF AND PUSH1 0x12 DUP2 LT PUSH2 0x14DB JUMPI PUSH2 0x14DB PUSH2 0x2C15 JUMP JUMPDEST PUSH1 0x20 DUP2 DIV SWAP1 SWAP2 ADD SLOAD PUSH1 0xFF PUSH1 0x1F SWAP1 SWAP3 AND PUSH2 0x100 EXP SWAP1 DIV AND SUB PUSH2 0x14FF JUMPI POP PUSH1 0x1 SWAP3 SWAP2 POP POP JUMP JUMPDEST DUP1 PUSH2 0x1509 DUP2 PUSH2 0x2C3D JUMP JUMPDEST SWAP2 POP POP PUSH2 0x14B5 JUMP JUMPDEST PUSH0 DUP1 JUMPDEST PUSH1 0xC DUP2 PUSH1 0xFF AND LT ISZERO PUSH2 0x7EA JUMPI DUP3 PUSH1 0xFF AND PUSH1 0x9 DUP3 PUSH1 0xFF AND PUSH1 0xC DUP2 LT PUSH2 0x153A JUMPI PUSH2 0x153A PUSH2 0x2C15 JUMP JUMPDEST PUSH1 0x20 DUP2 DIV SWAP1 SWAP2 ADD SLOAD PUSH1 0xFF PUSH1 0x1F SWAP1 SWAP3 AND PUSH2 0x100 EXP SWAP1 DIV AND SUB PUSH2 0x155E JUMPI POP PUSH1 0x1 SWAP3 SWAP2 POP POP JUMP JUMPDEST DUP1 PUSH2 0x1568 DUP2 PUSH2 0x2C3D JUMP JUMPDEST SWAP2 POP POP PUSH2 0x1514 JUMP JUMPDEST PUSH0 DUP1 JUMPDEST PUSH1 0x12 DUP2 PUSH1 0xFF AND LT ISZERO PUSH2 0x7EA JUMPI DUP3 PUSH1 0xFF AND PUSH1 0x3 DUP3 PUSH1 0xFF AND PUSH1 0x12 DUP2 LT PUSH2 0x1599 JUMPI PUSH2 0x1599 PUSH2 0x2C15 JUMP JUMPDEST PUSH1 0x20 DUP2 DIV SWAP1 SWAP2 ADD SLOAD PUSH1 0xFF PUSH1 0x1F SWAP1 SWAP3 AND PUSH2 0x100 EXP SWAP1 DIV AND SUB PUSH2 0x15BD JUMPI POP PUSH1 0x1 SWAP3 SWAP2 POP POP JUMP JUMPDEST DUP1 PUSH2 0x15C7 DUP2 PUSH2 0x2C3D JUMP JUMPDEST SWAP2 POP POP PUSH2 0x1573 JUMP JUMPDEST PUSH1 0xE SLOAD PUSH1 0xFF AND PUSH1 0x4 EQ PUSH2 0x1624 JUMPI PUSH1 0x40 MLOAD PUSH3 0x461BCD PUSH1 0xE5 SHL DUP2 MSTORE PUSH1 0x20 PUSH1 0x4 DUP3 ADD MSTORE PUSH1 0x18 PUSH1 0x24 DUP3 ADD MSTORE PUSH32 0x526573756C74206E6F742076616C696461746564207965740000000000000000 PUSH1 0x44 DUP3 ADD MSTORE PUSH1 0x64 ADD PUSH2 0x872 JUMP JUMPDEST PUSH0 JUMPDEST PUSH1 0xF SLOAD DUP2 LT ISZERO PUSH2 0x1F68 JUMPI PUSH0 PUSH1 0xF DUP3 DUP2 SLOAD DUP2 LT PUSH2 0x1644 JUMPI PUSH2 0x1644 PUSH2 0x2C15 JUMP JUMPDEST PUSH0 SWAP2 DUP3 MSTORE PUSH1 0x20 SWAP1 SWAP2 KECCAK256 PUSH1 0x2 SWAP1 SWAP2 MUL ADD SLOAD PUSH1 0x1 PUSH1 0xA0 SHL SWAP1 DIV PUSH1 0xFF AND LT DUP1 ISZERO SWAP1 PUSH2 0x1699 JUMPI POP PUSH1 0x25 PUSH1 0xF DUP3 DUP2 SLOAD DUP2 LT PUSH2 0x167C JUMPI PUSH2 0x167C PUSH2 0x2C15 JUMP JUMPDEST PUSH0 SWAP2 DUP3 MSTORE PUSH1 0x20 SWAP1 SWAP2 KECCAK256 PUSH1 0x2 SWAP1 SWAP2 MUL ADD SLOAD PUSH1 0x1 PUSH1 0xA0 SHL SWAP1 DIV PUSH1 0xFF AND GT ISZERO JUMPDEST ISZERO PUSH2 0x1849 JUMPI PUSH1 0x11 SLOAD PUSH1 0xF DUP1 SLOAD PUSH1 0xFF SWAP1 SWAP3 AND SWAP2 DUP4 SWAP1 DUP2 LT PUSH2 0x16BB JUMPI PUSH2 0x16BB PUSH2 0x2C15 JUMP JUMPDEST PUSH0 SWAP2 DUP3 MSTORE PUSH1 0x20 SWAP1 SWAP2 KECCAK256 PUSH1 0x2 SWAP1 SWAP2 MUL ADD SLOAD PUSH1 0x1 PUSH1 0xA0 SHL SWAP1 DIV PUSH1 0xFF AND SUB PUSH2 0x1844 JUMPI PUSH1 0xF DUP2 DUP2 SLOAD DUP2 LT PUSH2 0x16ED JUMPI PUSH2 0x16ED PUSH2 0x2C15 JUMP JUMPDEST SWAP1 PUSH0 MSTORE PUSH1 0x20 PUSH0 KECCAK256 SWAP1 PUSH1 0x2 MUL ADD PUSH0 ADD PUSH0 SWAP1 SLOAD SWAP1 PUSH2 0x100 EXP SWAP1 DIV PUSH1 0x1 PUSH1 0x1 PUSH1 0xA0 SHL SUB AND PUSH1 0x1 PUSH1 0x1 PUSH1 0xA0 SHL SUB AND PUSH2 0x8FC PUSH1 0xA PUSH2 0x168 PUSH1 0xF DUP6 DUP2 SLOAD DUP2 LT PUSH2 0x1732 JUMPI PUSH2 0x1732 PUSH2 0x2C15 JUMP JUMPDEST SWAP1 PUSH0 MSTORE PUSH1 0x20 PUSH0 KECCAK256 SWAP1 PUSH1 0x2 MUL ADD PUSH1 0x1 ADD SLOAD PUSH2 0x174C SWAP2 SWAP1 PUSH2 0x2F21 JUMP JUMPDEST PUSH2 0x1756 SWAP2 SWAP1 PUSH2 0x2F38 JUMP JUMPDEST PUSH1 0x40 MLOAD DUP2 ISZERO SWAP1 SWAP3 MUL SWAP2 PUSH0 DUP2 DUP2 DUP2 DUP6 DUP9 DUP9 CALL SWAP4 POP POP POP POP ISZERO DUP1 ISZERO PUSH2 0x177B JUMPI RETURNDATASIZE PUSH0 DUP1 RETURNDATACOPY RETURNDATASIZE PUSH0 REVERT JUMPDEST POP PUSH1 0xF DUP2 DUP2 SLOAD DUP2 LT PUSH2 0x178F JUMPI PUSH2 0x178F PUSH2 0x2C15 JUMP JUMPDEST PUSH0 SWAP2 DUP3 MSTORE PUSH1 0x20 SWAP1 SWAP2 KECCAK256 PUSH1 0x2 SWAP1 SWAP2 MUL ADD SLOAD PUSH1 0xF DUP1 SLOAD PUSH1 0x1 PUSH1 0x1 PUSH1 0xA0 SHL SUB SWAP1 SWAP3 AND SWAP2 PUSH0 DUP1 MLOAD PUSH1 0x20 PUSH2 0x2FD9 DUP4 CODECOPY DUP2 MLOAD SWAP2 MSTORE SWAP2 SWAP1 DUP5 SWAP1 DUP2 LT PUSH2 0x17CF JUMPI PUSH2 0x17CF PUSH2 0x2C15 JUMP JUMPDEST SWAP1 PUSH0 MSTORE PUSH1 0x20 PUSH0 KECCAK256 SWAP1 PUSH1 0x2 MUL ADD PUSH0 ADD PUSH1 0x14 SWAP1 SLOAD SWAP1 PUSH2 0x100 EXP SWAP1 DIV PUSH1 0xFF AND PUSH1 0xA PUSH2 0x168 PUSH1 0xF DUP7 DUP2 SLOAD DUP2 LT PUSH2 0x1803 JUMPI PUSH2 0x1803 PUSH2 0x2C15 JUMP JUMPDEST SWAP1 PUSH0 MSTORE PUSH1 0x20 PUSH0 KECCAK256 SWAP1 PUSH1 0x2 MUL ADD PUSH1 0x1 ADD SLOAD PUSH2 0x181D SWAP2 SWAP1 PUSH2 0x2F21 JUMP JUMPDEST PUSH2 0x1827 SWAP2 SWAP1 PUSH2 0x2F38 JUMP JUMPDEST PUSH1 0x40 DUP1 MLOAD PUSH1 0xFF SWAP1 SWAP4 AND DUP4 MSTORE PUSH1 0x20 DUP4 ADD SWAP2 SWAP1 SWAP2 MSTORE ADD PUSH1 0x40 MLOAD DUP1 SWAP2 SUB SWAP1 LOG2 JUMPDEST PUSH2 0x1F68 JUMP JUMPDEST PUSH1 0xF DUP2 DUP2 SLOAD DUP2 LT PUSH2 0x185C JUMPI PUSH2 0x185C PUSH2 0x2C15 JUMP JUMPDEST PUSH0 SWAP2 DUP3 MSTORE PUSH1 0x20 SWAP1 SWAP2 KECCAK256 PUSH1 0x2 SWAP1 SWAP2 MUL ADD SLOAD PUSH1 0x1 PUSH1 0xA0 SHL SWAP1 DIV PUSH1 0xFF AND PUSH1 0x26 SUB PUSH2 0x19B8 JUMPI PUSH1 0x11 SLOAD PUSH2 0x188C SWAP1 PUSH1 0xFF AND PUSH2 0x2040 JUMP JUMPDEST ISZERO PUSH2 0x1844 JUMPI PUSH1 0xF DUP2 DUP2 SLOAD DUP2 LT PUSH2 0x18A4 JUMPI PUSH2 0x18A4 PUSH2 0x2C15 JUMP JUMPDEST SWAP1 PUSH0 MSTORE PUSH1 0x20 PUSH0 KECCAK256 SWAP1 PUSH1 0x2 MUL ADD PUSH0 ADD PUSH0 SWAP1 SLOAD SWAP1 PUSH2 0x100 EXP SWAP1 DIV PUSH1 0x1 PUSH1 0x1 PUSH1 0xA0 SHL SUB AND PUSH1 0x1 PUSH1 0x1 PUSH1 0xA0 SHL SUB AND PUSH2 0x8FC PUSH1 0xA PUSH1 0x14 PUSH1 0xF DUP6 DUP2 SLOAD DUP2 LT PUSH2 0x18E8 JUMPI PUSH2 0x18E8 PUSH2 0x2C15 JUMP JUMPDEST SWAP1 PUSH0 MSTORE PUSH1 0x20 PUSH0 KECCAK256 SWAP1 PUSH1 0x2 MUL ADD PUSH1 0x1 ADD SLOAD PUSH2 0x1902 SWAP2 SWAP1 PUSH2 0x2F21 JUMP JUMPDEST PUSH2 0x190C SWAP2 SWAP1 PUSH2 0x2F38 JUMP JUMPDEST PUSH1 0x40 MLOAD DUP2 ISZERO SWAP1 SWAP3 MUL SWAP2 PUSH0 DUP2 DUP2 DUP2 DUP6 DUP9 DUP9 CALL SWAP4 POP POP POP POP ISZERO DUP1 ISZERO PUSH2 0x1931 JUMPI RETURNDATASIZE PUSH0 DUP1 RETURNDATACOPY RETURNDATASIZE PUSH0 REVERT JUMPDEST POP PUSH1 0xF DUP2 DUP2 SLOAD DUP2 LT PUSH2 0x1945 JUMPI PUSH2 0x1945 PUSH2 0x2C15 JUMP JUMPDEST PUSH0 SWAP2 DUP3 MSTORE PUSH1 0x20 SWAP1 SWAP2 KECCAK256 PUSH1 0x2 SWAP1 SWAP2 MUL ADD SLOAD PUSH1 0xF DUP1 SLOAD PUSH1 0x1 PUSH1 0x1 PUSH1 0xA0 SHL SUB SWAP1 SWAP3 AND SWAP2 PUSH0 DUP1 MLOAD PUSH1 0x20 PUSH2 0x2FD9 DUP4 CODECOPY DUP2 MLOAD SWAP2 MSTORE SWAP2 SWAP1 DUP5 SWAP1 DUP2 LT PUSH2 0x1985 JUMPI PUSH2 0x1985 PUSH2 0x2C15 JUMP JUMPDEST SWAP1 PUSH0 MSTORE PUSH1 0x20 PUSH0 KECCAK256 SWAP1 PUSH1 0x2 MUL ADD PUSH0 ADD PUSH1 0x14 SWAP1 SLOAD SWAP1 PUSH2 0x100 EXP SWAP1 DIV PUSH1 0xFF AND PUSH1 0xA PUSH1 0x14 PUSH1 0xF DUP7 DUP2 SLOAD DUP2 LT PUSH2 0x1803 JUMPI PUSH2 0x1803 PUSH2 0x2C15 JUMP JUMPDEST PUSH1 0xF DUP2 DUP2 SLOAD DUP2 LT PUSH2 0x19CB JUMPI PUSH2 0x19CB PUSH2 0x2C15 JUMP JUMPDEST PUSH0 SWAP2 DUP3 MSTORE PUSH1 0x20 SWAP1 SWAP2 KECCAK256 PUSH1 0x2 SWAP1 SWAP2 MUL ADD SLOAD PUSH1 0x1 PUSH1 0xA0 SHL SWAP1 DIV PUSH1 0xFF AND PUSH1 0x27 SUB PUSH2 0x19FB JUMPI PUSH1 0x11 SLOAD PUSH2 0x188C SWAP1 PUSH1 0xFF AND PUSH2 0x2333 JUMP JUMPDEST PUSH1 0xF DUP2 DUP2 SLOAD DUP2 LT PUSH2 0x1A0E JUMPI PUSH2 0x1A0E PUSH2 0x2C15 JUMP JUMPDEST PUSH0 SWAP2 DUP3 MSTORE PUSH1 0x20 SWAP1 SWAP2 KECCAK256 PUSH1 0x2 SWAP1 SWAP2 MUL ADD SLOAD PUSH1 0x1 PUSH1 0xA0 SHL SWAP1 DIV PUSH1 0xFF AND PUSH1 0x28 SUB PUSH2 0x1A3E JUMPI PUSH1 0x11 SLOAD PUSH2 0x188C SWAP1 PUSH1 0xFF AND PUSH2 0x14B2 JUMP JUMPDEST PUSH1 0xF DUP2 DUP2 SLOAD DUP2 LT PUSH2 0x1A51 JUMPI PUSH2 0x1A51 PUSH2 0x2C15 JUMP JUMPDEST PUSH0 SWAP2 DUP3 MSTORE PUSH1 0x20 SWAP1 SWAP2 KECCAK256 PUSH1 0x2 SWAP1 SWAP2 MUL ADD SLOAD PUSH1 0x1 PUSH1 0xA0 SHL SWAP1 DIV PUSH1 0xFF AND PUSH1 0x29 SUB PUSH2 0x1A81 JUMPI PUSH1 0x11 SLOAD PUSH2 0x188C SWAP1 PUSH1 0xFF AND PUSH2 0x1570 JUMP JUMPDEST PUSH1 0xF DUP2 DUP2 SLOAD DUP2 LT PUSH2 0x1A94 JUMPI PUSH2 0x1A94 PUSH2 0x2C15 JUMP JUMPDEST PUSH0 SWAP2 DUP3 MSTORE PUSH1 0x20 SWAP1 SWAP2 KECCAK256 PUSH1 0x2 SWAP1 SWAP2 MUL ADD SLOAD PUSH1 0x1 PUSH1 0xA0 SHL SWAP1 DIV PUSH1 0xFF AND PUSH1 0x2A SUB PUSH2 0x1AC4 JUMPI PUSH1 0x11 SLOAD PUSH2 0x188C SWAP1 PUSH1 0xFF AND PUSH2 0xBD7 JUMP JUMPDEST PUSH1 0xF DUP2 DUP2 SLOAD DUP2 LT PUSH2 0x1AD7 JUMPI PUSH2 0x1AD7 PUSH2 0x2C15 JUMP JUMPDEST PUSH0 SWAP2 DUP3 MSTORE PUSH1 0x20 SWAP1 SWAP2 KECCAK256 PUSH1 0x2 SWAP1 SWAP2 MUL ADD SLOAD PUSH1 0x1 PUSH1 0xA0 SHL SWAP1 DIV PUSH1 0xFF AND PUSH1 0x2B SUB PUSH2 0x1B07 JUMPI PUSH1 0x11 SLOAD PUSH2 0x188C SWAP1 PUSH1 0xFF AND PUSH2 0x22C5 JUMP JUMPDEST PUSH1 0xF DUP2 DUP2 SLOAD DUP2 LT PUSH2 0x1B1A JUMPI PUSH2 0x1B1A PUSH2 0x2C15 JUMP JUMPDEST PUSH0 SWAP2 DUP3 MSTORE PUSH1 0x20 SWAP1 SWAP2 KECCAK256 PUSH1 0x2 SWAP1 SWAP2 MUL ADD SLOAD PUSH1 0x1 PUSH1 0xA0 SHL SWAP1 DIV PUSH1 0xFF AND PUSH1 0x2C SUB PUSH2 0x1CB0 JUMPI PUSH1 0x11 SLOAD PUSH2 0x1B4A SWAP1 PUSH1 0xFF AND PUSH2 0x78B JUMP JUMPDEST ISZERO PUSH2 0x1CAB JUMPI PUSH1 0xF DUP2 DUP2 SLOAD DUP2 LT PUSH2 0x1B62 JUMPI PUSH2 0x1B62 PUSH2 0x2C15 JUMP JUMPDEST PUSH0 SWAP2 DUP3 MSTORE PUSH1 0x20 SWAP1 SWAP2 KECCAK256 PUSH1 0x2 SWAP1 SWAP2 MUL ADD SLOAD PUSH1 0xF DUP1 SLOAD PUSH1 0x1 PUSH1 0x1 PUSH1 0xA0 SHL SUB SWAP1 SWAP3 AND SWAP2 PUSH2 0x8FC SWAP2 PUSH1 0xA SWAP2 DUP2 SWAP1 DUP7 SWAP1 DUP2 LT PUSH2 0x1B9B JUMPI PUSH2 0x1B9B PUSH2 0x2C15 JUMP JUMPDEST SWAP1 PUSH0 MSTORE PUSH1 0x20 PUSH0 KECCAK256 SWAP1 PUSH1 0x2 MUL ADD PUSH1 0x1 ADD SLOAD PUSH2 0x1BB5 SWAP2 SWAP1 PUSH2 0x2F21 JUMP JUMPDEST PUSH2 0x1BBF SWAP2 SWAP1 PUSH2 0x2F38 JUMP JUMPDEST PUSH1 0x40 MLOAD DUP2 ISZERO SWAP1 SWAP3 MUL SWAP2 PUSH0 DUP2 DUP2 DUP2 DUP6 DUP9 DUP9 CALL SWAP4 POP POP POP POP ISZERO DUP1 ISZERO PUSH2 0x1BE4 JUMPI RETURNDATASIZE PUSH0 DUP1 RETURNDATACOPY RETURNDATASIZE PUSH0 REVERT JUMPDEST POP PUSH1 0xF DUP2 DUP2 SLOAD DUP2 LT PUSH2 0x1BF8 JUMPI PUSH2 0x1BF8 PUSH2 0x2C15 JUMP JUMPDEST PUSH0 SWAP2 DUP3 MSTORE PUSH1 0x20 SWAP1 SWAP2 KECCAK256 PUSH1 0x2 SWAP1 SWAP2 MUL ADD SLOAD PUSH1 0xF DUP1 SLOAD PUSH1 0x1 PUSH1 0x1 PUSH1 0xA0 SHL SUB SWAP1 SWAP3 AND SWAP2 PUSH0 DUP1 MLOAD PUSH1 0x20 PUSH2 0x2FD9 DUP4 CODECOPY DUP2 MLOAD SWAP2 MSTORE SWAP2 SWAP1 DUP5 SWAP1 DUP2 LT PUSH2 0x1C38 JUMPI PUSH2 0x1C38 PUSH2 0x2C15 JUMP JUMPDEST SWAP1 PUSH0 MSTORE PUSH1 0x20 PUSH0 KECCAK256 SWAP1 PUSH1 0x2 MUL ADD PUSH0 ADD PUSH1 0x14 SWAP1 SLOAD SWAP1 PUSH2 0x100 EXP SWAP1 DIV PUSH1 0xFF AND PUSH1 0xA PUSH1 0xF DUP1 DUP7 DUP2 SLOAD DUP2 LT PUSH2 0x1C6A JUMPI PUSH2 0x1C6A PUSH2 0x2C15 JUMP JUMPDEST SWAP1 PUSH0 MSTORE PUSH1 0x20 PUSH0 KECCAK256 SWAP1 PUSH1 0x2 MUL ADD PUSH1 0x1 ADD SLOAD PUSH2 0x1C84 SWAP2 SWAP1 PUSH2 0x2F21 JUMP JUMPDEST PUSH2 0x1C8E SWAP2 SWAP1 PUSH2 0x2F38 JUMP JUMPDEST PUSH1 0x40 DUP1 MLOAD PUSH1 0xFF SWAP1 SWAP4 AND DUP4 MSTORE PUSH1 0x20 DUP4 ADD SWAP2 SWAP1 SWAP2 MSTORE ADD PUSH1 0x40 MLOAD DUP1 SWAP2 SUB SWAP1 LOG2 JUMPDEST PUSH2 0x1F60 JUMP JUMPDEST PUSH1 0xF DUP2 DUP2 SLOAD DUP2 LT PUSH2 0x1CC3 JUMPI PUSH2 0x1CC3 PUSH2 0x2C15 JUMP JUMPDEST PUSH0 SWAP2 DUP3 MSTORE PUSH1 0x20 SWAP1 SWAP2 KECCAK256 PUSH1 0x2 SWAP1 SWAP2 MUL ADD SLOAD PUSH1 0x1 PUSH1 0xA0 SHL SWAP1 DIV PUSH1 0xFF AND PUSH1 0x2D SUB PUSH2 0x1CF3 JUMPI PUSH1 0x11 SLOAD PUSH2 0x1B4A SWAP1 PUSH1 0xFF AND PUSH2 0x1FE1 JUMP JUMPDEST PUSH1 0xF DUP2 DUP2 SLOAD DUP2 LT PUSH2 0x1D06 JUMPI PUSH2 0x1D06 PUSH2 0x2C15 JUMP JUMPDEST PUSH0 SWAP2 DUP3 MSTORE PUSH1 0x20 SWAP1 SWAP2 KECCAK256 PUSH1 0x2 SWAP1 SWAP2 MUL ADD SLOAD PUSH1 0x1 PUSH1 0xA0 SHL SWAP1 DIV PUSH1 0xFF AND PUSH1 0x2E SUB PUSH2 0x1D36 JUMPI PUSH1 0x11 SLOAD PUSH2 0x1B4A SWAP1 PUSH1 0xFF AND PUSH2 0x2392 JUMP JUMPDEST PUSH1 0xF DUP2 DUP2 SLOAD DUP2 LT PUSH2 0x1D49 JUMPI PUSH2 0x1D49 PUSH2 0x2C15 JUMP JUMPDEST PUSH0 SWAP2 DUP3 MSTORE PUSH1 0x20 SWAP1 SWAP2 KECCAK256 PUSH1 0x2 SWAP1 SWAP2 MUL ADD SLOAD PUSH1 0x1 PUSH1 0xA0 SHL SWAP1 DIV PUSH1 0xFF AND PUSH1 0x2F SUB PUSH2 0x1D79 JUMPI PUSH1 0x11 SLOAD PUSH2 0x1B4A SWAP1 PUSH1 0xFF AND PUSH2 0x1511 JUMP JUMPDEST PUSH1 0xF DUP2 DUP2 SLOAD DUP2 LT PUSH2 0x1D8C JUMPI PUSH2 0x1D8C PUSH2 0x2C15 JUMP JUMPDEST PUSH0 SWAP2 DUP3 MSTORE PUSH1 0x20 SWAP1 SWAP2 KECCAK256 PUSH1 0x2 SWAP1 SWAP2 MUL ADD SLOAD PUSH1 0x1 PUSH1 0xA0 SHL SWAP1 DIV PUSH1 0xFF AND PUSH1 0x30 SUB PUSH2 0x1DBC JUMPI PUSH1 0x11 SLOAD PUSH2 0x1B4A SWAP1 PUSH1 0xFF AND PUSH2 0xB78 JUMP JUMPDEST PUSH1 0xF DUP2 DUP2 SLOAD DUP2 LT PUSH2 0x1DCF JUMPI PUSH2 0x1DCF PUSH2 0x2C15 JUMP JUMPDEST PUSH0 SWAP2 DUP3 MSTORE PUSH1 0x20 SWAP1 SWAP2 KECCAK256 PUSH1 0x2 SWAP1 SWAP2 MUL ADD SLOAD PUSH1 0x1 PUSH1 0xA0 SHL SWAP1 DIV PUSH1 0xFF AND PUSH1 0x31 SUB PUSH2 0x1F60 JUMPI PUSH1 0x11 SLOAD PUSH2 0x1DFF SWAP1 PUSH1 0xFF AND PUSH2 0x209E JUMP JUMPDEST ISZERO PUSH2 0x1F60 JUMPI PUSH1 0xF DUP2 DUP2 SLOAD DUP2 LT PUSH2 0x1E17 JUMPI PUSH2 0x1E17 PUSH2 0x2C15 JUMP JUMPDEST PUSH0 SWAP2 DUP3 MSTORE PUSH1 0x20 SWAP1 SWAP2 KECCAK256 PUSH1 0x2 SWAP1 SWAP2 MUL ADD SLOAD PUSH1 0xF DUP1 SLOAD PUSH1 0x1 PUSH1 0x1 PUSH1 0xA0 SHL SUB SWAP1 SWAP3 AND SWAP2 PUSH2 0x8FC SWAP2 PUSH1 0xA SWAP2 DUP2 SWAP1 DUP7 SWAP1 DUP2 LT PUSH2 0x1E50 JUMPI PUSH2 0x1E50 PUSH2 0x2C15 JUMP JUMPDEST SWAP1 PUSH0 MSTORE PUSH1 0x20 PUSH0 KECCAK256 SWAP1 PUSH1 0x2 MUL ADD PUSH1 0x1 ADD SLOAD PUSH2 0x1E6A SWAP2 SWAP1 PUSH2 0x2F21 JUMP JUMPDEST PUSH2 0x1E74 SWAP2 SWAP1 PUSH2 0x2F38 JUMP JUMPDEST PUSH1 0x40 MLOAD DUP2 ISZERO SWAP1 SWAP3 MUL SWAP2 PUSH0 DUP2 DUP2 DUP2 DUP6 DUP9 DUP9 CALL SWAP4 POP POP POP POP ISZERO DUP1 ISZERO PUSH2 0x1E99 JUMPI RETURNDATASIZE PUSH0 DUP1 RETURNDATACOPY RETURNDATASIZE PUSH0 REVERT JUMPDEST POP PUSH1 0xF DUP2 DUP2 SLOAD DUP2 LT PUSH2 0x1EAD JUMPI PUSH2 0x1EAD PUSH2 0x2C15 JUMP JUMPDEST PUSH0 SWAP2 DUP3 MSTORE PUSH1 0x20 SWAP1 SWAP2 KECCAK256 PUSH1 0x2 SWAP1 SWAP2 MUL ADD SLOAD PUSH1 0xF DUP1 SLOAD PUSH1 0x1 PUSH1 0x1 PUSH1 0xA0 SHL SUB SWAP1 SWAP3 AND SWAP2 PUSH0 DUP1 MLOAD PUSH1 0x20 PUSH2 0x2FD9 DUP4 CODECOPY DUP2 MLOAD SWAP2 MSTORE SWAP2 SWAP1 DUP5 SWAP1 DUP2 LT PUSH2 0x1EED JUMPI PUSH2 0x1EED PUSH2 0x2C15 JUMP JUMPDEST SWAP1 PUSH0 MSTORE PUSH1 0x20 PUSH0 KECCAK256 SWAP1 PUSH1 0x2 MUL ADD PUSH0 ADD PUSH1 0x14 SWAP1 SLOAD SWAP1 PUSH2 0x100 EXP SWAP1 DIV PUSH1 0xFF AND PUSH1 0xA PUSH1 0xF DUP1 DUP7 DUP2 SLOAD DUP2 LT PUSH2 0x1F1F JUMPI PUSH2 0x1F1F PUSH2 0x2C15 JUMP JUMPDEST SWAP1 PUSH0 MSTORE PUSH1 0x20 PUSH0 KECCAK256 SWAP1 PUSH1 0x2 MUL ADD PUSH1 0x1 ADD SLOAD PUSH2 0x1F39 SWAP2 SWAP1 PUSH2 0x2F21 JUMP JUMPDEST PUSH2 0x1F43 SWAP2 SWAP1 PUSH2 0x2F38 JUMP JUMPDEST PUSH1 0x40 DUP1 MLOAD PUSH1 0xFF SWAP1 SWAP4 AND DUP4 MSTORE PUSH1 0x20 DUP4 ADD SWAP2 SWAP1 SWAP2 MSTORE ADD PUSH1 0x40 MLOAD DUP1 SWAP2 SUB SWAP1 LOG2 JUMPDEST PUSH1 0x1 ADD PUSH2 0x1626 JUMP JUMPDEST POP PUSH1 0xC SLOAD PUSH1 0x40 MLOAD SELFBALANCE DUP2 MSTORE PUSH1 0x1 PUSH1 0x1 PUSH1 0xA0 SHL SUB SWAP1 SWAP2 AND SWAP1 PUSH32 0xD4BA6FEC82D9B0E8FFE50B9FED9E4BE3B25C984CE1E0E016405A5528726E8A2C SWAP1 PUSH1 0x20 ADD PUSH1 0x40 MLOAD DUP1 SWAP2 SUB SWAP1 LOG2 PUSH1 0xC SLOAD PUSH1 0x40 MLOAD PUSH1 0x1 PUSH1 0x1 PUSH1 0xA0 SHL SUB SWAP1 SWAP2 AND SWAP1 SELFBALANCE DUP1 ISZERO PUSH2 0x8FC MUL SWAP2 PUSH0 DUP2 DUP2 DUP2 DUP6 DUP9 DUP9 CALL SWAP4 POP POP POP POP ISZERO DUP1 ISZERO PUSH2 0x14AF JUMPI RETURNDATASIZE PUSH0 DUP1 RETURNDATACOPY RETURNDATASIZE PUSH0 REVERT JUMPDEST PUSH0 DUP1 JUMPDEST PUSH1 0xC DUP2 PUSH1 0xFF AND LT ISZERO PUSH2 0x7EA JUMPI DUP3 PUSH1 0xFF AND PUSH1 0x7 DUP3 PUSH1 0xFF AND PUSH1 0xC DUP2 LT PUSH2 0x200A JUMPI PUSH2 0x200A PUSH2 0x2C15 JUMP JUMPDEST PUSH1 0x20 DUP2 DIV SWAP1 SWAP2 ADD SLOAD PUSH1 0xFF PUSH1 0x1F SWAP1 SWAP3 AND PUSH2 0x100 EXP SWAP1 DIV AND SUB PUSH2 0x202E JUMPI POP PUSH1 0x1 SWAP3 SWAP2 POP POP JUMP JUMPDEST DUP1 PUSH2 0x2038 DUP2 PUSH2 0x2C3D JUMP JUMPDEST SWAP2 POP POP PUSH2 0x1FE4 JUMP JUMPDEST PUSH0 DUP1 JUMPDEST PUSH1 0x12 DUP2 PUSH1 0xFF AND LT ISZERO PUSH2 0x7EA JUMPI DUP3 PUSH1 0xFF AND PUSH0 DUP3 PUSH1 0xFF AND PUSH1 0x12 DUP2 LT PUSH2 0x2068 JUMPI PUSH2 0x2068 PUSH2 0x2C15 JUMP JUMPDEST PUSH1 0x20 DUP2 DIV SWAP1 SWAP2 ADD SLOAD PUSH1 0xFF PUSH1 0x1F SWAP1 SWAP3 AND PUSH2 0x100 EXP SWAP1 DIV AND SUB PUSH2 0x208C JUMPI POP PUSH1 0x1 SWAP3 SWAP2 POP POP JUMP JUMPDEST DUP1 PUSH2 0x2096 DUP2 PUSH2 0x2C3D JUMP JUMPDEST SWAP2 POP POP PUSH2 0x2043 JUMP JUMPDEST PUSH0 DUP1 JUMPDEST PUSH1 0xC DUP2 PUSH1 0xFF AND LT ISZERO PUSH2 0x7EA JUMPI DUP3 PUSH1 0xFF AND PUSH1 0xB DUP3 PUSH1 0xFF AND PUSH1 0xC DUP2 LT PUSH2 0x20C7 JUMPI PUSH2 0x20C7 PUSH2 0x2C15 JUMP JUMPDEST PUSH1 0x20 DUP2 DIV SWAP1 SWAP2 ADD SLOAD PUSH1 0xFF PUSH1 0x1F SWAP1 SWAP3 AND PUSH2 0x100 EXP SWAP1 DIV AND SUB PUSH2 0x20EB JUMPI POP PUSH1 0x1 SWAP3 SWAP2 POP POP JUMP JUMPDEST DUP1 PUSH2 0x20F5 DUP2 PUSH2 0x2C3D JUMP JUMPDEST SWAP2 POP POP PUSH2 0x20A1 JUMP JUMPDEST PUSH1 0x3 DUP2 PUSH1 0x12 DUP2 LT PUSH2 0x801 JUMPI PUSH0 DUP1 REVERT JUMPDEST PUSH1 0x7 DUP2 PUSH1 0xC DUP2 LT PUSH2 0x801 JUMPI PUSH0 DUP1 REVERT JUMPDEST PUSH1 0x1 DUP2 PUSH1 0x12 DUP2 LT PUSH2 0x801 JUMPI PUSH0 DUP1 REVERT JUMPDEST PUSH1 0x13 DUP2 DUP2 SLOAD DUP2 LT PUSH2 0xC54 JUMPI PUSH0 DUP1 REVERT JUMPDEST PUSH1 0xE SLOAD PUSH1 0xFF AND ISZERO PUSH2 0x2185 JUMPI PUSH1 0x40 MLOAD PUSH3 0x461BCD PUSH1 0xE5 SHL DUP2 MSTORE PUSH1 0x20 PUSH1 0x4 DUP3 ADD MSTORE PUSH1 0x16 PUSH1 0x24 DUP3 ADD MSTORE PUSH22 0x11195C1BDCDA5D081A5CC81B9BDD08185B1B1BDDD959 PUSH1 0x52 SHL PUSH1 0x44 DUP3 ADD MSTORE PUSH1 0x64 ADD PUSH2 0x872 JUMP JUMPDEST PUSH1 0xC SLOAD PUSH1 0x1 PUSH1 0x1 PUSH1 0xA0 SHL SUB AND CALLER EQ PUSH2 0x21D7 JUMPI PUSH1 0x40 MLOAD PUSH3 0x461BCD PUSH1 0xE5 SHL DUP2 MSTORE PUSH1 0x20 PUSH1 0x4 DUP3 ADD MSTORE PUSH1 0x15 PUSH1 0x24 DUP3 ADD MSTORE PUSH21 0x13DB9B1E481A1BDCDD0818D85B8819195C1BDCDA5D PUSH1 0x5A SHL PUSH1 0x44 DUP3 ADD MSTORE PUSH1 0x64 ADD PUSH2 0x872 JUMP JUMPDEST PUSH0 CALLVALUE GT PUSH2 0x221F JUMPI PUSH1 0x40 MLOAD PUSH3 0x461BCD PUSH1 0xE5 SHL DUP2 MSTORE PUSH1 0x20 PUSH1 0x4 DUP3 ADD MSTORE PUSH1 0x16 PUSH1 0x24 DUP3 ADD MSTORE PUSH22 0x125B9D985B1A590819195C1BDCDA5D08185B5BDD5B9D PUSH1 0x52 SHL PUSH1 0x44 DUP3 ADD MSTORE PUSH1 0x64 ADD PUSH2 0x872 JUMP JUMPDEST PUSH1 0xE DUP1 SLOAD PUSH1 0xFF NOT AND PUSH1 0x1 OR SWAP1 SSTORE PUSH1 0x40 MLOAD CALLER SWAP1 PUSH32 0x5A6C38B61CFC87B08186EC74738F787EC19C78C75B5B70442F580362ABD96D29 SWAP1 PUSH2 0x2260 SWAP1 CALLVALUE DUP2 MSTORE PUSH1 0x20 ADD SWAP1 JUMP JUMPDEST PUSH1 0x40 MLOAD DUP1 SWAP2 SUB SWAP1 LOG2 JUMP JUMPDEST PUSH0 DUP1 DUP1 JUMPDEST PUSH1 0xF SLOAD DUP2 LT ISZERO PUSH2 0x22B0 JUMPI PUSH1 0xF DUP2 DUP2 SLOAD DUP2 LT PUSH2 0x228B JUMPI PUSH2 0x228B PUSH2 0x2C15 JUMP JUMPDEST SWAP1 PUSH0 MSTORE PUSH1 0x20 PUSH0 KECCAK256 SWAP1 PUSH1 0x2 MUL ADD PUSH1 0x1 ADD SLOAD DUP3 PUSH2 0x22A6 SWAP2 SWAP1 PUSH2 0x2C5B JUMP JUMPDEST SWAP2 POP PUSH1 0x1 ADD PUSH2 0x226E JUMP JUMPDEST POP SWAP2 SWAP1 POP JUMP JUMPDEST PUSH1 0x4 DUP2 PUSH1 0x12 DUP2 LT PUSH2 0x801 JUMPI PUSH0 DUP1 REVERT JUMPDEST PUSH0 DUP1 JUMPDEST PUSH1 0x12 DUP2 PUSH1 0xFF AND LT ISZERO PUSH2 0x7EA JUMPI DUP3 PUSH1 0xFF AND PUSH1 0x5 DUP3 PUSH1 0xFF AND PUSH1 0x12 DUP2 LT PUSH2 0x22EE JUMPI PUSH2 0x22EE PUSH2 0x2C15 JUMP JUMPDEST PUSH1 0x20 DUP2 DIV SWAP1 SWAP2 ADD SLOAD PUSH1 0xFF PUSH1 0x1F SWAP1 SWAP3 AND PUSH2 0x100 EXP SWAP1 DIV AND SUB PUSH2 0x2312 JUMPI POP PUSH1 0x1 SWAP3 SWAP2 POP POP JUMP JUMPDEST DUP1 PUSH2 0x231C DUP2 PUSH2 0x2C3D JUMP JUMPDEST SWAP2 POP POP PUSH2 0x22C8 JUMP JUMPDEST PUSH1 0x6 DUP2 PUSH1 0xC DUP2 LT PUSH2 0x801 JUMPI PUSH0 DUP1 REVERT JUMPDEST PUSH0 DUP1 JUMPDEST PUSH1 0x12 DUP2 PUSH1 0xFF AND LT ISZERO PUSH2 0x7EA JUMPI DUP3 PUSH1 0xFF AND PUSH1 0x1 DUP3 PUSH1 0xFF AND PUSH1 0x12 DUP2 LT PUSH2 0x235C JUMPI PUSH2 0x235C PUSH2 0x2C15 JUMP JUMPDEST PUSH1 0x20 DUP2 DIV SWAP1 SWAP2 ADD SLOAD PUSH1 0xFF PUSH1 0x1F SWAP1 SWAP3 AND PUSH2 0x100 EXP SWAP1 DIV AND SUB PUSH2 0x2380 JUMPI POP PUSH1 0x1 SWAP3 SWAP2 POP POP JUMP JUMPDEST DUP1 PUSH2 0x238A DUP2 PUSH2 0x2C3D JUMP JUMPDEST SWAP2 POP POP PUSH2 0x2336 JUMP JUMPDEST PUSH0 DUP1 JUMPDEST PUSH1 0xC DUP2 PUSH1 0xFF AND LT ISZERO PUSH2 0x7EA JUMPI DUP3 PUSH1 0xFF AND PUSH1 0x8 DUP3 PUSH1 0xFF AND PUSH1 0xC DUP2 LT PUSH2 0x23BB JUMPI PUSH2 0x23BB PUSH2 0x2C15 JUMP JUMPDEST PUSH1 0x20 DUP2 DIV SWAP1 SWAP2 ADD SLOAD PUSH1 0xFF PUSH1 0x1F SWAP1 SWAP3 AND PUSH2 0x100 EXP SWAP1 DIV AND SUB PUSH2 0x23DF JUMPI POP PUSH1 0x1 SWAP3 SWAP2 POP POP JUMP JUMPDEST DUP1 PUSH2 0x23E9 DUP2 PUSH2 0x2C3D JUMP JUMPDEST SWAP2 POP POP PUSH2 0x2395 JUMP JUMPDEST PUSH0 DUP2 PUSH1 0x12 DUP2 LT PUSH2 0x801 JUMPI PUSH0 DUP1 REVERT JUMPDEST PUSH1 0x5 DUP2 PUSH1 0x12 DUP2 LT PUSH2 0x801 JUMPI PUSH0 DUP1 REVERT JUMPDEST PUSH0 DUP1 JUMPDEST PUSH1 0x12 SLOAD DUP2 LT ISZERO PUSH2 0x7EA JUMPI DUP3 PUSH1 0x1 PUSH1 0x1 PUSH1 0xA0 SHL SUB AND PUSH1 0x12 DUP3 DUP2 SLOAD DUP2 LT PUSH2 0x2438 JUMPI PUSH2 0x2438 PUSH2 0x2C15 JUMP JUMPDEST PUSH0 SWAP2 DUP3 MSTORE PUSH1 0x20 SWAP1 SWAP2 KECCAK256 ADD SLOAD PUSH1 0x1 PUSH1 0x1 PUSH1 0xA0 SHL SUB AND SUB PUSH2 0x245A JUMPI POP PUSH1 0x1 SWAP3 SWAP2 POP POP JUMP JUMPDEST PUSH1 0x1 ADD PUSH2 0x2411 JUMP JUMPDEST PUSH1 0x60 DUP2 PUSH0 SUB PUSH2 0x2488 JUMPI POP POP PUSH1 0x40 DUP1 MLOAD DUP1 DUP3 ADD SWAP1 SWAP2 MSTORE PUSH1 0x1 DUP2 MSTORE PUSH1 0x3 PUSH1 0xFC SHL PUSH1 0x20 DUP3 ADD MSTORE SWAP1 JUMP JUMPDEST DUP2 PUSH0 JUMPDEST DUP2 ISZERO PUSH2 0x24B1 JUMPI DUP1 PUSH2 0x249B DUP2 PUSH2 0x2F4B JUMP JUMPDEST SWAP2 POP PUSH2 0x24AA SWAP1 POP PUSH1 0xA DUP4 PUSH2 0x2F38 JUMP JUMPDEST SWAP2 POP PUSH2 0x248B JUMP JUMPDEST PUSH0 DUP2 PUSH8 0xFFFFFFFFFFFFFFFF DUP2 GT ISZERO PUSH2 0x24CB JUMPI PUSH2 0x24CB PUSH2 0x2DC5 JUMP JUMPDEST PUSH1 0x40 MLOAD SWAP1 DUP1 DUP3 MSTORE DUP1 PUSH1 0x1F ADD PUSH1 0x1F NOT AND PUSH1 0x20 ADD DUP3 ADD PUSH1 0x40 MSTORE DUP1 ISZERO PUSH2 0x24F5 JUMPI PUSH1 0x20 DUP3 ADD DUP2 DUP1 CALLDATASIZE DUP4 CALLDATACOPY ADD SWAP1 POP JUMPDEST POP DUP6 SWAP4 POP SWAP1 POP DUP2 JUMPDEST DUP4 ISZERO PUSH2 0x2564 JUMPI DUP1 PUSH2 0x250D DUP2 PUSH2 0x2F63 JUMP JUMPDEST SWAP2 POP PUSH2 0x251C SWAP1 POP PUSH1 0xA DUP6 PUSH2 0x2CDF JUMP JUMPDEST PUSH2 0x2527 SWAP1 PUSH1 0x30 PUSH2 0x2C5B JUMP JUMPDEST PUSH1 0xF8 SHL DUP3 DUP3 DUP2 MLOAD DUP2 LT PUSH2 0x253C JUMPI PUSH2 0x253C PUSH2 0x2C15 JUMP JUMPDEST PUSH1 0x20 ADD ADD SWAP1 PUSH1 0x1 PUSH1 0x1 PUSH1 0xF8 SHL SUB NOT AND SWAP1 DUP2 PUSH0 BYTE SWAP1 MSTORE8 POP PUSH2 0x255D PUSH1 0xA DUP6 PUSH2 0x2F38 JUMP JUMPDEST SWAP4 POP PUSH2 0x24FD JUMP JUMPDEST POP SWAP5 SWAP4 POP POP POP POP JUMP JUMPDEST PUSH1 0x40 DUP1 MLOAD DUP1 DUP3 ADD DUP3 MSTORE PUSH1 0x10 DUP2 MSTORE PUSH16 0x181899199A1A9B1B9C1CB0B131B232B3 PUSH1 0x81 SHL PUSH1 0x20 DUP3 ADD MSTORE DUP2 MLOAD PUSH1 0x42 DUP1 DUP3 MSTORE PUSH1 0x80 DUP3 ADD SWAP1 SWAP4 MSTORE PUSH1 0x60 SWAP3 PUSH0 SWAP2 SWAP1 PUSH1 0x20 DUP3 ADD DUP2 DUP1 CALLDATASIZE DUP4 CALLDATACOPY ADD SWAP1 POP POP SWAP1 POP PUSH1 0x3 PUSH1 0xFC SHL DUP2 PUSH0 DUP2 MLOAD DUP2 LT PUSH2 0x25CD JUMPI PUSH2 0x25CD PUSH2 0x2C15 JUMP JUMPDEST PUSH1 0x20 ADD ADD SWAP1 PUSH1 0x1 PUSH1 0x1 PUSH1 0xF8 SHL SUB NOT AND SWAP1 DUP2 PUSH0 BYTE SWAP1 MSTORE8 POP PUSH1 0xF PUSH1 0xFB SHL DUP2 PUSH1 0x1 DUP2 MLOAD DUP2 LT PUSH2 0x25FB JUMPI PUSH2 0x25FB PUSH2 0x2C15 JUMP JUMPDEST PUSH1 0x20 ADD ADD SWAP1 PUSH1 0x1 PUSH1 0x1 PUSH1 0xF8 SHL SUB NOT AND SWAP1 DUP2 PUSH0 BYTE SWAP1 MSTORE8 POP PUSH0 JUMPDEST PUSH1 0x20 DUP2 LT ISZERO PUSH2 0x2721 JUMPI DUP3 PUSH1 0x4 DUP7 DUP4 PUSH1 0x20 DUP2 LT PUSH2 0x2631 JUMPI PUSH2 0x2631 PUSH2 0x2C15 JUMP JUMPDEST BYTE PUSH1 0xF8 SHL PUSH1 0x1 PUSH1 0x1 PUSH1 0xF8 SHL SUB NOT AND SWAP1 SHR PUSH1 0xF8 SHR PUSH1 0xFF AND DUP2 MLOAD DUP2 LT PUSH2 0x2657 JUMPI PUSH2 0x2657 PUSH2 0x2C15 JUMP JUMPDEST ADD PUSH1 0x20 ADD MLOAD PUSH1 0x1 PUSH1 0x1 PUSH1 0xF8 SHL SUB NOT AND DUP3 PUSH2 0x2672 DUP4 PUSH1 0x2 PUSH2 0x2F21 JUMP JUMPDEST PUSH2 0x267D SWAP1 PUSH1 0x2 PUSH2 0x2C5B JUMP JUMPDEST DUP2 MLOAD DUP2 LT PUSH2 0x268D JUMPI PUSH2 0x268D PUSH2 0x2C15 JUMP JUMPDEST PUSH1 0x20 ADD ADD SWAP1 PUSH1 0x1 PUSH1 0x1 PUSH1 0xF8 SHL SUB NOT AND SWAP1 DUP2 PUSH0 BYTE SWAP1 MSTORE8 POP DUP3 DUP6 DUP3 PUSH1 0x20 DUP2 LT PUSH2 0x26B6 JUMPI PUSH2 0x26B6 PUSH2 0x2C15 JUMP JUMPDEST DUP3 MLOAD SWAP2 SWAP1 BYTE PUSH1 0xF AND SWAP1 DUP2 LT PUSH2 0x26CD JUMPI PUSH2 0x26CD PUSH2 0x2C15 JUMP JUMPDEST ADD PUSH1 0x20 ADD MLOAD PUSH1 0x1 PUSH1 0x1 PUSH1 0xF8 SHL SUB NOT AND DUP3 PUSH2 0x26E8 DUP4 PUSH1 0x2 PUSH2 0x2F21 JUMP JUMPDEST PUSH2 0x26F3 SWAP1 PUSH1 0x3 PUSH2 0x2C5B JUMP JUMPDEST DUP2 MLOAD DUP2 LT PUSH2 0x2703 JUMPI PUSH2 0x2703 PUSH2 0x2C15 JUMP JUMPDEST PUSH1 0x20 ADD ADD SWAP1 PUSH1 0x1 PUSH1 0x1 PUSH1 0xF8 SHL SUB NOT AND SWAP1 DUP2 PUSH0 BYTE SWAP1 MSTORE8 POP PUSH1 0x1 ADD PUSH2 0x2613 JUMP JUMPDEST POP SWAP4 SWAP3 POP POP POP JUMP JUMPDEST PUSH1 0x60 DUP2 MLOAD PUSH0 SUB PUSH2 0x2751 JUMPI POP POP PUSH1 0x40 DUP1 MLOAD DUP1 DUP3 ADD SWAP1 SWAP2 MSTORE PUSH1 0x2 DUP2 MSTORE PUSH2 0x5B5D PUSH1 0xF0 SHL PUSH1 0x20 DUP3 ADD MSTORE SWAP1 JUMP JUMPDEST PUSH1 0x40 DUP1 MLOAD DUP1 DUP3 ADD SWAP1 SWAP2 MSTORE PUSH1 0x1 DUP2 MSTORE PUSH1 0x5B PUSH1 0xF8 SHL PUSH1 0x20 DUP3 ADD MSTORE PUSH0 JUMPDEST DUP4 MLOAD DUP2 LT ISZERO PUSH2 0x27F9 JUMPI DUP2 PUSH2 0x2797 DUP6 DUP4 DUP2 MLOAD DUP2 LT PUSH2 0x278A JUMPI PUSH2 0x278A PUSH2 0x2C15 JUMP JUMPDEST PUSH1 0x20 MUL PUSH1 0x20 ADD ADD MLOAD PUSH2 0x2A22 JUMP JUMPDEST PUSH1 0x40 MLOAD PUSH1 0x20 ADD PUSH2 0x27A8 SWAP3 SWAP2 SWAP1 PUSH2 0x2F78 JUMP JUMPDEST PUSH1 0x40 MLOAD PUSH1 0x20 DUP2 DUP4 SUB SUB DUP2 MSTORE SWAP1 PUSH1 0x40 MSTORE SWAP2 POP PUSH1 0x1 DUP5 MLOAD PUSH2 0x27C7 SWAP2 SWAP1 PUSH2 0x2F8C JUMP JUMPDEST DUP2 LT ISZERO PUSH2 0x27F1 JUMPI DUP2 PUSH1 0x40 MLOAD PUSH1 0x20 ADD PUSH2 0x27DF SWAP2 SWAP1 PUSH2 0x2F9F JUMP JUMPDEST PUSH1 0x40 MLOAD PUSH1 0x20 DUP2 DUP4 SUB SUB DUP2 MSTORE SWAP1 PUSH1 0x40 MSTORE SWAP2 POP JUMPDEST PUSH1 0x1 ADD PUSH2 0x276B JUMP JUMPDEST POP DUP1 PUSH1 0x40 MLOAD PUSH1 0x20 ADD PUSH2 0x280B SWAP2 SWAP1 PUSH2 0x2FBC JUMP JUMPDEST PUSH1 0x40 DUP1 MLOAD PUSH1 0x1F NOT DUP2 DUP5 SUB ADD DUP2 MSTORE SWAP2 SWAP1 MSTORE SWAP4 SWAP3 POP POP POP JUMP JUMPDEST PUSH1 0x40 DUP1 MLOAD DUP1 DUP3 ADD SWAP1 SWAP2 MSTORE PUSH1 0x10 DUP2 MSTORE PUSH16 0x181899199A1A9B1B9C1CB0B131B232B3 PUSH1 0x81 SHL PUSH1 0x20 DUP3 ADD MSTORE DUP2 MLOAD PUSH1 0x60 SWAP2 SWAP1 PUSH0 SWAP1 PUSH2 0x285C SWAP1 PUSH1 0x2 PUSH2 0x2F21 JUMP JUMPDEST PUSH2 0x2867 SWAP1 PUSH1 0x2 PUSH2 0x2C5B JUMP JUMPDEST PUSH8 0xFFFFFFFFFFFFFFFF DUP2 GT ISZERO PUSH2 0x287F JUMPI PUSH2 0x287F PUSH2 0x2DC5 JUMP JUMPDEST PUSH1 0x40 MLOAD SWAP1 DUP1 DUP3 MSTORE DUP1 PUSH1 0x1F ADD PUSH1 0x1F NOT AND PUSH1 0x20 ADD DUP3 ADD PUSH1 0x40 MSTORE DUP1 ISZERO PUSH2 0x28A9 JUMPI PUSH1 0x20 DUP3 ADD DUP2 DUP1 CALLDATASIZE DUP4 CALLDATACOPY ADD SWAP1 POP JUMPDEST POP SWAP1 POP PUSH1 0x3 PUSH1 0xFC SHL DUP2 PUSH0 DUP2 MLOAD DUP2 LT PUSH2 0x28C3 JUMPI PUSH2 0x28C3 PUSH2 0x2C15 JUMP JUMPDEST PUSH1 0x20 ADD ADD SWAP1 PUSH1 0x1 PUSH1 0x1 PUSH1 0xF8 SHL SUB NOT AND SWAP1 DUP2 PUSH0 BYTE SWAP1 MSTORE8 POP PUSH1 0xF PUSH1 0xFB SHL DUP2 PUSH1 0x1 DUP2 MLOAD DUP2 LT PUSH2 0x28F1 JUMPI PUSH2 0x28F1 PUSH2 0x2C15 JUMP JUMPDEST PUSH1 0x20 ADD ADD SWAP1 PUSH1 0x1 PUSH1 0x1 PUSH1 0xF8 SHL SUB NOT AND SWAP1 DUP2 PUSH0 BYTE SWAP1 MSTORE8 POP PUSH0 JUMPDEST DUP5 MLOAD DUP2 LT ISZERO PUSH2 0x2721 JUMPI DUP3 PUSH1 0x4 DUP7 DUP4 DUP2 MLOAD DUP2 LT PUSH2 0x2927 JUMPI PUSH2 0x2927 PUSH2 0x2C15 JUMP JUMPDEST ADD PUSH1 0x20 ADD MLOAD DUP3 MLOAD PUSH1 0x1 PUSH1 0x1 PUSH1 0xF8 SHL SUB NOT SWAP1 SWAP2 AND SWAP1 SWAP2 SHR PUSH1 0xF8 SHR SWAP1 DUP2 LT PUSH2 0x294F JUMPI PUSH2 0x294F PUSH2 0x2C15 JUMP JUMPDEST ADD PUSH1 0x20 ADD MLOAD PUSH1 0x1 PUSH1 0x1 PUSH1 0xF8 SHL SUB NOT AND DUP3 PUSH2 0x296A DUP4 PUSH1 0x2 PUSH2 0x2F21 JUMP JUMPDEST PUSH2 0x2975 SWAP1 PUSH1 0x2 PUSH2 0x2C5B JUMP JUMPDEST DUP2 MLOAD DUP2 LT PUSH2 0x2985 JUMPI PUSH2 0x2985 PUSH2 0x2C15 JUMP JUMPDEST PUSH1 0x20 ADD ADD SWAP1 PUSH1 0x1 PUSH1 0x1 PUSH1 0xF8 SHL SUB NOT AND SWAP1 DUP2 PUSH0 BYTE SWAP1 MSTORE8 POP DUP3 DUP6 DUP3 DUP2 MLOAD DUP2 LT PUSH2 0x29AE JUMPI PUSH2 0x29AE PUSH2 0x2C15 JUMP JUMPDEST PUSH1 0x20 SWAP2 ADD ADD MLOAD DUP2 MLOAD PUSH1 0xF8 SWAP2 SWAP1 SWAP2 SHR PUSH1 0xF AND SWAP1 DUP2 LT PUSH2 0x29CE JUMPI PUSH2 0x29CE PUSH2 0x2C15 JUMP JUMPDEST ADD PUSH1 0x20 ADD MLOAD PUSH1 0x1 PUSH1 0x1 PUSH1 0xF8 SHL SUB NOT AND DUP3 PUSH2 0x29E9 DUP4 PUSH1 0x2 PUSH2 0x2F21 JUMP JUMPDEST PUSH2 0x29F4 SWAP1 PUSH1 0x3 PUSH2 0x2C5B JUMP JUMPDEST DUP2 MLOAD DUP2 LT PUSH2 0x2A04 JUMPI PUSH2 0x2A04 PUSH2 0x2C15 JUMP JUMPDEST PUSH1 0x20 ADD ADD SWAP1 PUSH1 0x1 PUSH1 0x1 PUSH1 0xF8 SHL SUB NOT AND SWAP1 DUP2 PUSH0 BYTE SWAP1 MSTORE8 POP PUSH1 0x1 ADD PUSH2 0x2909 JUMP JUMPDEST PUSH1 0x40 DUP1 MLOAD DUP1 DUP3 ADD DUP3 MSTORE PUSH1 0x10 DUP2 MSTORE PUSH16 0x181899199A1A9B1B9C1CB0B131B232B3 PUSH1 0x81 SHL PUSH1 0x20 DUP3 ADD MSTORE DUP2 MLOAD PUSH1 0x2A DUP1 DUP3 MSTORE PUSH1 0x60 DUP3 DUP2 ADD SWAP1 SWAP5 MSTORE DUP5 DUP5 SHL SWAP2 PUSH0 SWAP2 PUSH1 0x20 DUP3 ADD DUP2 DUP1 CALLDATASIZE DUP4 CALLDATACOPY ADD SWAP1 POP POP SWAP1 POP PUSH1 0x3 PUSH1 0xFC SHL DUP2 PUSH0 DUP2 MLOAD DUP2 LT PUSH2 0x2A83 JUMPI PUSH2 0x2A83 PUSH2 0x2C15 JUMP JUMPDEST PUSH1 0x20 ADD ADD SWAP1 PUSH1 0x1 PUSH1 0x1 PUSH1 0xF8 SHL SUB NOT AND SWAP1 DUP2 PUSH0 BYTE SWAP1 MSTORE8 POP PUSH1 0xF PUSH1 0xFB SHL DUP2 PUSH1 0x1 DUP2 MLOAD DUP2 LT PUSH2 0x2AB1 JUMPI PUSH2 0x2AB1 PUSH2 0x2C15 JUMP JUMPDEST PUSH1 0x20 ADD ADD SWAP1 PUSH1 0x1 PUSH1 0x1 PUSH1 0xF8 SHL SUB NOT AND SWAP1 DUP2 PUSH0 BYTE SWAP1 MSTORE8 POP PUSH0 JUMPDEST PUSH1 0x14 DUP2 LT ISZERO PUSH2 0x2564 JUMPI DUP4 PUSH1 0x4 DUP5 DUP4 PUSH1 0x14 DUP2 LT PUSH2 0x2AE7 JUMPI PUSH2 0x2AE7 PUSH2 0x2C15 JUMP JUMPDEST BYTE PUSH1 0xF8 SHL PUSH1 0x1 PUSH1 0x1 PUSH1 0xF8 SHL SUB NOT AND SWAP1 SHR PUSH1 0xF8 SHR PUSH1 0xFF AND DUP2 MLOAD DUP2 LT PUSH2 0x2B0D JUMPI PUSH2 0x2B0D PUSH2 0x2C15 JUMP JUMPDEST ADD PUSH1 0x20 ADD MLOAD PUSH1 0x1 PUSH1 0x1 PUSH1 0xF8 SHL SUB NOT AND DUP3 PUSH2 0x2B28 DUP4 PUSH1 0x2 PUSH2 0x2F21 JUMP JUMPDEST PUSH2 0x2B33 SWAP1 PUSH1 0x2 PUSH2 0x2C5B JUMP JUMPDEST DUP2 MLOAD DUP2 LT PUSH2 0x2B43 JUMPI PUSH2 0x2B43 PUSH2 0x2C15 JUMP JUMPDEST PUSH1 0x20 ADD ADD SWAP1 PUSH1 0x1 PUSH1 0x1 PUSH1 0xF8 SHL SUB NOT AND SWAP1 DUP2 PUSH0 BYTE SWAP1 MSTORE8 POP DUP4 DUP4 DUP3 PUSH1 0x14 DUP2 LT PUSH2 0x2B6C JUMPI PUSH2 0x2B6C PUSH2 0x2C15 JUMP JUMPDEST DUP3 MLOAD SWAP2 SWAP1 BYTE PUSH1 0xF AND SWAP1 DUP2 LT PUSH2 0x2B83 JUMPI PUSH2 0x2B83 PUSH2 0x2C15 JUMP JUMPDEST ADD PUSH1 0x20 ADD MLOAD PUSH1 0x1 PUSH1 0x1 PUSH1 0xF8 SHL SUB NOT AND DUP3 PUSH2 0x2B9E DUP4 PUSH1 0x2 PUSH2 0x2F21 JUMP JUMPDEST PUSH2 0x2BA9 SWAP1 PUSH1 0x3 PUSH2 0x2C5B JUMP JUMPDEST DUP2 MLOAD DUP2 LT PUSH2 0x2BB9 JUMPI PUSH2 0x2BB9 PUSH2 0x2C15 JUMP JUMPDEST PUSH1 0x20 ADD ADD SWAP1 PUSH1 0x1 PUSH1 0x1 PUSH1 0xF8 SHL SUB NOT AND SWAP1 DUP2 PUSH0 BYTE SWAP1 MSTORE8 POP PUSH1 0x1 ADD PUSH2 0x2AC9 JUMP JUMPDEST PUSH0 PUSH1 0x20 DUP3 DUP5 SUB SLT ISZERO PUSH2 0x2BE7 JUMPI PUSH0 DUP1 REVERT JUMPDEST DUP2 CALLDATALOAD PUSH1 0xFF DUP2 AND DUP2 EQ PUSH2 0x2BF7 JUMPI PUSH0 DUP1 REVERT JUMPDEST SWAP4 SWAP3 POP POP POP JUMP JUMPDEST PUSH0 PUSH1 0x20 DUP3 DUP5 SUB SLT ISZERO PUSH2 0x2C0E JUMPI PUSH0 DUP1 REVERT JUMPDEST POP CALLDATALOAD SWAP2 SWAP1 POP JUMP JUMPDEST PUSH4 0x4E487B71 PUSH1 0xE0 SHL PUSH0 MSTORE PUSH1 0x32 PUSH1 0x4 MSTORE PUSH1 0x24 PUSH0 REVERT JUMPDEST PUSH4 0x4E487B71 PUSH1 0xE0 SHL PUSH0 MSTORE PUSH1 0x11 PUSH1 0x4 MSTORE PUSH1 0x24 PUSH0 REVERT JUMPDEST PUSH0 PUSH1 0xFF DUP3 AND PUSH1 0xFF DUP2 SUB PUSH2 0x2C52 JUMPI PUSH2 0x2C52 PUSH2 0x2C29 JUMP JUMPDEST PUSH1 0x1 ADD SWAP3 SWAP2 POP POP JUMP JUMPDEST DUP1 DUP3 ADD DUP1 DUP3 GT ISZERO PUSH2 0x2C6E JUMPI PUSH2 0x2C6E PUSH2 0x2C29 JUMP JUMPDEST SWAP3 SWAP2 POP POP JUMP JUMPDEST PUSH0 DUP2 MLOAD DUP1 PUSH1 0x20 DUP5 ADD DUP6 MCOPY PUSH0 SWAP4 ADD SWAP3 DUP4 MSTORE POP SWAP1 SWAP2 SWAP1 POP JUMP JUMPDEST PUSH0 PUSH2 0x2C96 DUP3 DUP6 PUSH2 0x2C74 JUMP JUMPDEST PUSH1 0x60 SWAP4 SWAP1 SWAP4 SHL PUSH1 0x1 PUSH1 0x1 PUSH1 0x60 SHL SUB NOT AND DUP4 MSTORE POP POP PUSH1 0x14 ADD SWAP2 SWAP1 POP JUMP JUMPDEST DUP3 DUP2 MSTORE PUSH0 PUSH2 0x2CC3 PUSH1 0x20 DUP4 ADD DUP5 PUSH2 0x2C74 JUMP JUMPDEST SWAP5 SWAP4 POP POP POP POP JUMP JUMPDEST PUSH4 0x4E487B71 PUSH1 0xE0 SHL PUSH0 MSTORE PUSH1 0x12 PUSH1 0x4 MSTORE PUSH1 0x24 PUSH0 REVERT JUMPDEST PUSH0 DUP3 PUSH2 0x2CED JUMPI PUSH2 0x2CED PUSH2 0x2CCB JUMP JUMPDEST POP MOD SWAP1 JUMP JUMPDEST PUSH22 0x426C6F636B686173682066726F6D20626C6F636B2023 PUSH1 0x50 SHL DUP2 MSTORE PUSH0 PUSH2 0x2D1C PUSH1 0x16 DUP4 ADD DUP6 PUSH2 0x2C74 JUMP JUMPDEST PUSH2 0x1D1 PUSH1 0xF5 SHL DUP2 MSTORE PUSH2 0x2D31 PUSH1 0x2 DUP3 ADD DUP6 PUSH2 0x2C74 JUMP JUMPDEST PUSH32 0x202D20626173697320666F722072616E646F6D6E657373000000000000000000 DUP2 MSTORE PUSH1 0x17 ADD SWAP6 SWAP5 POP POP POP POP POP JUMP JUMPDEST PUSH0 DUP2 MLOAD DUP1 DUP5 MSTORE DUP1 PUSH1 0x20 DUP5 ADD PUSH1 0x20 DUP7 ADD MCOPY PUSH0 PUSH1 0x20 DUP3 DUP7 ADD ADD MSTORE PUSH1 0x20 PUSH1 0x1F NOT PUSH1 0x1F DUP4 ADD AND DUP6 ADD ADD SWAP2 POP POP SWAP3 SWAP2 POP POP JUMP JUMPDEST PUSH1 0xFF DUP5 AND DUP2 MSTORE PUSH1 0x60 PUSH1 0x20 DUP3 ADD MSTORE PUSH0 PUSH2 0x2DA9 PUSH1 0x60 DUP4 ADD DUP6 PUSH2 0x2D60 JUMP JUMPDEST DUP3 DUP2 SUB PUSH1 0x40 DUP5 ADD MSTORE PUSH2 0x2DBB DUP2 DUP6 PUSH2 0x2D60 JUMP JUMPDEST SWAP7 SWAP6 POP POP POP POP POP POP JUMP JUMPDEST PUSH4 0x4E487B71 PUSH1 0xE0 SHL PUSH0 MSTORE PUSH1 0x41 PUSH1 0x4 MSTORE PUSH1 0x24 PUSH0 REVERT JUMPDEST PUSH32 0x416464726573736573207573656420666F722072616E646F6D6E6573733A2000 DUP2 MSTORE PUSH0 PUSH2 0x2BF7 PUSH1 0x1F DUP4 ADD DUP5 PUSH2 0x2C74 JUMP JUMPDEST PUSH1 0x20 DUP1 DUP3 MSTORE DUP3 MLOAD DUP3 DUP3 ADD DUP2 SWAP1 MSTORE PUSH0 SWAP2 DUP5 ADD SWAP1 PUSH1 0x40 DUP5 ADD SWAP1 DUP4 JUMPDEST DUP2 DUP2 LT ISZERO PUSH2 0x2E4A JUMPI DUP4 MLOAD PUSH1 0x1 PUSH1 0x1 PUSH1 0xA0 SHL SUB AND DUP4 MSTORE PUSH1 0x20 SWAP4 DUP5 ADD SWAP4 SWAP1 SWAP3 ADD SWAP2 PUSH1 0x1 ADD PUSH2 0x2E23 JUMP JUMPDEST POP SWAP1 SWAP6 SWAP5 POP POP POP POP POP JUMP JUMPDEST PUSH32 0x5061636B65642064617461206F662061646472657373657320696E206865783A DUP2 MSTORE PUSH1 0x1 PUSH1 0xFD SHL PUSH1 0x20 DUP3 ADD MSTORE PUSH0 PUSH2 0x2BF7 PUSH1 0x21 DUP4 ADD DUP5 PUSH2 0x2C74 JUMP JUMPDEST PUSH32 0x4B656363616B323536206F66205B626C6F636B68617368202B207061636B6564 DUP2 MSTORE PUSH7 0x2230BA30AE9D1 PUSH1 0xCD SHL PUSH1 0x20 DUP3 ADD MSTORE PUSH0 PUSH2 0x2BF7 PUSH1 0x27 DUP4 ADD DUP5 PUSH2 0x2C74 JUMP JUMPDEST PUSH32 0x46696E616C2072616E646F6D206F7574636F6D6520286D6F6420000000000000 DUP2 MSTORE PUSH0 PUSH2 0x2F02 PUSH1 0x1A DUP4 ADD DUP6 PUSH2 0x2C74 JUMP JUMPDEST PUSH3 0x149D1 PUSH1 0xED SHL DUP2 MSTORE PUSH2 0x2F18 PUSH1 0x3 DUP3 ADD DUP6 PUSH2 0x2C74 JUMP JUMPDEST SWAP6 SWAP5 POP POP POP POP POP JUMP JUMPDEST DUP1 DUP3 MUL DUP2 ISZERO DUP3 DUP3 DIV DUP5 EQ OR PUSH2 0x2C6E JUMPI PUSH2 0x2C6E PUSH2 0x2C29 JUMP JUMPDEST PUSH0 DUP3 PUSH2 0x2F46 JUMPI PUSH2 0x2F46 PUSH2 0x2CCB JUMP JUMPDEST POP DIV SWAP1 JUMP JUMPDEST PUSH0 PUSH1 0x1 DUP3 ADD PUSH2 0x2F5C JUMPI PUSH2 0x2F5C PUSH2 0x2C29 JUMP JUMPDEST POP PUSH1 0x1 ADD SWAP1 JUMP JUMPDEST PUSH0 DUP2 PUSH2 0x2F71 JUMPI PUSH2 0x2F71 PUSH2 0x2C29 JUMP JUMPDEST POP PUSH0 NOT ADD SWAP1 JUMP JUMPDEST PUSH0 PUSH2 0x2CC3 PUSH2 0x2F86 DUP4 DUP7 PUSH2 0x2C74 JUMP JUMPDEST DUP5 PUSH2 0x2C74 JUMP JUMPDEST DUP2 DUP2 SUB DUP2 DUP2 GT ISZERO PUSH2 0x2C6E JUMPI PUSH2 0x2C6E PUSH2 0x2C29 JUMP JUMPDEST PUSH0 PUSH2 0x2FAA DUP3 DUP5 PUSH2 0x2C74 JUMP JUMPDEST PUSH2 0x161 PUSH1 0xF5 SHL DUP2 MSTORE PUSH1 0x2 ADD SWAP4 SWAP3 POP POP POP JUMP JUMPDEST PUSH0 PUSH2 0x2FC7 DUP3 DUP5 PUSH2 0x2C74 JUMP JUMPDEST PUSH1 0x5D PUSH1 0xF8 SHL DUP2 MSTORE PUSH1 0x1 ADD SWAP4 SWAP3 POP POP POP JUMP INVALID INVALID 0xB6 0xD7 PUSH30 0x8663B36B3393E8790540B4EBE73ADE87F3146E450022712344DC7B3B9CFF PUSH6 0xD26C2C9E31C3 0xDD RETURN PUSH17 0xEEC9DCC1327976F78B3EEBF97CFD37ADC4 BASEFEE 0xCC CALLDATALOAD LOG2 PUSH5 0x6970667358 0x22 SLT KECCAK256 LT 0xDB 0x2A JUMP 0x2C CREATE SWAP2 CREATE2 ADD SIGNEXTEND DUP15 0xAA SLOAD BYTE 0xEE 0xDF RETURNDATASIZE 0xEE 0x23 0xD2 MOD SWAP1 0x29 POP PUSH8 0xD3A3EB5B81E8ED64 PUSH20 0x6F6C634300081A0033A2646970667358221220E7 0xAA 0xB3 0xB3 SWAP5 0xB2 LOG4 DUP5 SHL PC INVALID 0xFC MOD INVALID 0x2C MOD CALLDATACOPY 0xAA 0xCF 0xEE CALL 0xE0 SWAP8 PUSH7 0x3E6B6AB8939E8F 0xD4 PUSH5 0x736F6C6343 STOP ADDMOD BYTE STOP CALLER "
		},
		"gasEstimates": {
			"creation": {
				"codeDepositCost": "3241200",
				"executionCost": "3593",
				"totalCost": "3244793"
			},
			"external": {
				"createRouletteGame(address,uint256,address[],uint8)": "infinite",
				"gameCount()": "2294",
				"games(uint256)": "4592",
				"getAllGames()": "infinite",
				"getGameByIndex(uint256)": "4633"
			}
		},
		"methodIdentifiers": {
			"createRouletteGame(address,uint256,address[],uint8)": "6ac0b1b2",
			"gameCount()": "4d1975b4",
			"games(uint256)": "117a5b90",
			"getAllGames()": "db1c45f9",
			"getGameByIndex(uint256)": "6650e91a"
		}
	},
	"abi": [
		{
			"anonymous": false,
			"inputs": [
				{
					"indexed": true,
					"internalType": "address",
					"name": "gameAddress",
					"type": "address"
				},
				{
					"indexed": false,
					"internalType": "uint256",
					"name": "timestamp",
					"type": "uint256"
				}
			],
			"name": "GameCreated",
			"type": "event"
		},
		{
			"inputs": [
				{
					"internalType": "address",
					"name": "_host",
					"type": "address"
				},
				{
					"internalType": "uint256",
					"name": "_minBet",
					"type": "uint256"
				},
				{
					"internalType": "address[]",
					"name": "_validators",
					"type": "address[]"
				},
				{
					"internalType": "uint8",
					"name": "_valid_threshold",
					"type": "uint8"
				}
			],
			"name": "createRouletteGame",
			"outputs": [
				{
					"internalType": "address",
					"name": "",
					"type": "address"
				}
			],
			"stateMutability": "payable",
			"type": "function"
		},
		{
			"inputs": [],
			"name": "gameCount",
			"outputs": [
				{
					"internalType": "uint256",
					"name": "",
					"type": "uint256"
				}
			],
			"stateMutability": "view",
			"type": "function"
		},
		{
			"inputs": [
				{
					"internalType": "uint256",
					"name": "",
					"type": "uint256"
				}
			],
			"name": "games",
			"outputs": [
				{
					"internalType": "address",
					"name": "gameAddress",
					"type": "address"
				},
				{
					"internalType": "uint256",
					"name": "creationTime",
					"type": "uint256"
				}
			],
			"stateMutability": "view",
			"type": "function"
		},
		{
			"inputs": [],
			"name": "getAllGames",
			"outputs": [
				{
					"internalType": "address[]",
					"name": "",
					"type": "address[]"
				}
			],
			"stateMutability": "view",
			"type": "function"
		},
		{
			"inputs": [
				{
					"internalType": "uint256",
					"name": "_index",
					"type": "uint256"
				}
			],
			"name": "getGameByIndex",
			"outputs": [
				{
					"internalType": "address",
					"name": "",
					"type": "address"
				},
				{
					"internalType": "uint256",
					"name": "",
					"type": "uint256"
				}
			],
			"stateMutability": "view",
			"type": "function"
		}
	]
}